{
	"LockableContract.sol": {
		"LockableContract": {
			"abi": [
				{
					"inputs": [],
					"stateMutability": "nonpayable",
					"type": "constructor"
				},
				{
					"inputs": [
						{
							"internalType": "address",
							"name": "owner",
							"type": "address"
						}
					],
					"name": "OwnableInvalidOwner",
					"type": "error"
				},
				{
					"inputs": [
						{
							"internalType": "address",
							"name": "account",
							"type": "address"
						}
					],
					"name": "OwnableUnauthorizedAccount",
					"type": "error"
				},
				{
					"anonymous": false,
					"inputs": [
						{
							"indexed": true,
							"internalType": "address",
							"name": "by",
							"type": "address"
						}
					],
					"name": "ContractDisabled",
					"type": "event"
				},
				{
					"anonymous": false,
					"inputs": [
						{
							"indexed": true,
							"internalType": "address",
							"name": "by",
							"type": "address"
						}
					],
					"name": "ContractEnabled",
					"type": "event"
				},
				{
					"anonymous": false,
					"inputs": [
						{
							"indexed": false,
							"internalType": "bool",
							"name": "status",
							"type": "bool"
						}
					],
					"name": "ContractStatusChanged",
					"type": "event"
				},
				{
					"anonymous": false,
					"inputs": [
						{
							"indexed": true,
							"internalType": "address",
							"name": "previousOwner",
							"type": "address"
						},
						{
							"indexed": true,
							"internalType": "address",
							"name": "newOwner",
							"type": "address"
						}
					],
					"name": "OwnershipTransferred",
					"type": "event"
				},
				{
					"inputs": [],
					"name": "contractEnabled",
					"outputs": [
						{
							"internalType": "bool",
							"name": "",
							"type": "bool"
						}
					],
					"stateMutability": "view",
					"type": "function"
				},
				{
					"inputs": [],
					"name": "disableContract",
					"outputs": [],
					"stateMutability": "nonpayable",
					"type": "function"
				},
				{
					"inputs": [],
					"name": "enableContract",
					"outputs": [],
					"stateMutability": "nonpayable",
					"type": "function"
				},
				{
					"inputs": [],
					"name": "owner",
					"outputs": [
						{
							"internalType": "address",
							"name": "",
							"type": "address"
						}
					],
					"stateMutability": "view",
					"type": "function"
				},
				{
					"inputs": [],
					"name": "renounceOwnership",
					"outputs": [],
					"stateMutability": "nonpayable",
					"type": "function"
				},
				{
					"inputs": [
						{
							"internalType": "address",
							"name": "newOwner",
							"type": "address"
						}
					],
					"name": "transferOwnership",
					"outputs": [],
					"stateMutability": "nonpayable",
					"type": "function"
				}
			],
			"devdoc": {
				"errors": {
					"OwnableInvalidOwner(address)": [
						{
							"details": "The owner is not a valid owner account. (eg. `address(0)`)"
						}
					],
					"OwnableUnauthorizedAccount(address)": [
						{
							"details": "The caller account is not authorized to perform an operation."
						}
					]
				},
				"kind": "dev",
				"methods": {
					"owner()": {
						"details": "Returns the address of the current owner."
					},
					"renounceOwnership()": {
						"details": "Leaves the contract without owner. It will not be possible to call `onlyOwner` functions. Can only be called by the current owner. NOTE: Renouncing ownership will leave the contract without an owner, thereby disabling any functionality that is only available to the owner."
					},
					"transferOwnership(address)": {
						"details": "Transfers ownership of the contract to a new account (`newOwner`). Can only be called by the current owner."
					}
				},
				"version": 1
			},
			"evm": {
				"assembly": "    /* \"LockableContract.sol\":125:1129  contract LockableContract is Ownable {... */\n  0x80\n  dup1\n  0x40\n  mstore\n  jumpi(tag_1, callvalue)\n    /* \"LockableContract.sol\":669:679  msg.sender */\n  caller\n    /* \"@openzeppelin/contracts/access/Ownable.sol\":1273:1299  initialOwner == address(0) */\n  iszero\n    /* \"@openzeppelin/contracts/access/Ownable.sol\":1269:1364  if (initialOwner == address(0)) {... */\n  tag_3\n  jumpi\n    /* \"@openzeppelin/contracts/access/Ownable.sol\":1297:1298  0 */\n  0x00\n    /* \"LockableContract.sol\":125:1129  contract LockableContract is Ownable {... */\n  sload\n    /* \"LockableContract.sol\":669:679  msg.sender */\n  caller\n    /* \"LockableContract.sol\":125:1129  contract LockableContract is Ownable {... */\n  0x01\n  dup1\n  0xa0\n  shl\n  sub\n  dup3\n  and\n    /* \"@openzeppelin/contracts/access/Ownable.sol\":3052:3092  OwnershipTransferred(oldOwner, newOwner) */\n  0x8be0079c531659141344cd1fd0a4f28419497f9722a3daafe3b4186f6b6457e0\n    /* \"@openzeppelin/contracts/access/Ownable.sol\":1297:1298  0 */\n  0x00\n    /* \"@openzeppelin/contracts/access/Ownable.sol\":3052:3092  OwnershipTransferred(oldOwner, newOwner) */\n  dup1\n  log3\n  not(sub(shl(0xa8, 0x01), 0x01))\n    /* \"LockableContract.sol\":125:1129  contract LockableContract is Ownable {... */\n  and\n    /* \"LockableContract.sol\":669:679  msg.sender */\n  caller\n  not(shl(0xa0, 0xff))\n    /* \"LockableContract.sol\":125:1129  contract LockableContract is Ownable {... */\n  and\n  or\n  shl(0xa0, 0x01)\n  or\n    /* \"@openzeppelin/contracts/access/Ownable.sol\":1297:1298  0 */\n  0x00\n    /* \"LockableContract.sol\":125:1129  contract LockableContract is Ownable {... */\n  sstore\n  dataSize(sub_0)\n  swap1\n  dup2\n  dataOffset(sub_0)\n  dup3\n  codecopy\n  return\n    /* \"@openzeppelin/contracts/access/Ownable.sol\":1269:1364  if (initialOwner == address(0)) {... */\ntag_3:\n    /* \"@openzeppelin/contracts/access/Ownable.sol\":1322:1353  OwnableInvalidOwner(address(0)) */\n  shl(0xe0, 0x1e4fbdf7)\n    /* \"@openzeppelin/contracts/access/Ownable.sol\":1297:1298  0 */\n  0x00\n    /* \"@openzeppelin/contracts/access/Ownable.sol\":1322:1353  OwnableInvalidOwner(address(0)) */\n  mstore\n    /* \"@openzeppelin/contracts/access/Ownable.sol\":1297:1298  0 */\n  0x00\n    /* \"@openzeppelin/contracts/access/Ownable.sol\":1322:1353  OwnableInvalidOwner(address(0)) */\n  0x04\n    /* \"LockableContract.sol\":125:1129  contract LockableContract is Ownable {... */\n  mstore\n  0x24\n    /* \"@openzeppelin/contracts/access/Ownable.sol\":1297:1298  0 */\n  0x00\n    /* \"@openzeppelin/contracts/access/Ownable.sol\":1322:1353  OwnableInvalidOwner(address(0)) */\n  revert\n    /* \"LockableContract.sol\":125:1129  contract LockableContract is Ownable {... */\ntag_1:\n  0x00\n  dup1\n  revert\nstop\n\nsub_0: assembly {\n        /* \"LockableContract.sol\":125:1129  contract LockableContract is Ownable {... */\n      mstore(0x40, 0x80)\n      jumpi(tag_2, iszero(lt(calldatasize, 0x04)))\n      0x00\n      dup1\n      revert\n    tag_2:\n      shr(0xe0, calldataload(0x00))\n      dup1\n      0x367edd32\n      eq\n      tag_4\n      jumpi\n      dup1\n      0x41b3a0d9\n      eq\n      tag_6\n      jumpi\n      dup1\n      0x715018a6\n      eq\n      tag_8\n      jumpi\n      dup1\n      0x894ba833\n      eq\n      tag_10\n      jumpi\n      dup1\n      0x8da5cb5b\n      eq\n      tag_12\n      jumpi\n      0xf2fde38b\n      eq\n      tag_14\n      jumpi\n      0x00\n      dup1\n      revert\n    tag_14:\n      jumpi(tag_20, callvalue)\n      jumpi(tag_20, slt(add(not(0x03), calldatasize), 0x20))\n      calldataload(0x04)\n      sub(shl(0xa0, 0x01), 0x01)\n      dup2\n      and\n      swap1\n      dup2\n      swap1\n      sub\n      tag_20\n      jumpi\n        /* \"@openzeppelin/contracts/access/Ownable.sol\":1500:1562  modifier onlyOwner() {... */\n      tag_22\n      tag_1\n      jump\t// in\n    tag_22:\n        /* \"@openzeppelin/contracts/access/Ownable.sol\":2627:2649  newOwner == address(0) */\n      dup1\n      iszero\n        /* \"@openzeppelin/contracts/access/Ownable.sol\":2623:2714  if (newOwner == address(0)) {... */\n      tag_23\n      jumpi\n        /* \"LockableContract.sol\":125:1129  contract LockableContract is Ownable {... */\n      0x00\n      dup1\n      sload\n      not(sub(shl(0xa0, 0x01), 0x01))\n      dup2\n      and\n      dup4\n      or\n      dup3\n      sstore\n      sub(shl(0xa0, 0x01), 0x01)\n      and\n      swap1\n        /* \"@openzeppelin/contracts/access/Ownable.sol\":3052:3092  OwnershipTransferred(oldOwner, newOwner) */\n      0x8be0079c531659141344cd1fd0a4f28419497f9722a3daafe3b4186f6b6457e0\n      swap1\n        /* \"LockableContract.sol\":125:1129  contract LockableContract is Ownable {... */\n      dup1\n        /* \"@openzeppelin/contracts/access/Ownable.sol\":3052:3092  OwnershipTransferred(oldOwner, newOwner) */\n      log3\n        /* \"LockableContract.sol\":125:1129  contract LockableContract is Ownable {... */\n      stop\n        /* \"@openzeppelin/contracts/access/Ownable.sol\":2623:2714  if (newOwner == address(0)) {... */\n    tag_23:\n        /* \"@openzeppelin/contracts/access/Ownable.sol\":2672:2703  OwnableInvalidOwner(address(0)) */\n      shl(0xe0, 0x1e4fbdf7)\n        /* \"LockableContract.sol\":125:1129  contract LockableContract is Ownable {... */\n      0x00\n        /* \"@openzeppelin/contracts/access/Ownable.sol\":2672:2703  OwnableInvalidOwner(address(0)) */\n      mstore\n        /* \"LockableContract.sol\":125:1129  contract LockableContract is Ownable {... */\n      mstore(0x04, 0x00)\n      0x24\n      0x00\n        /* \"@openzeppelin/contracts/access/Ownable.sol\":2672:2703  OwnableInvalidOwner(address(0)) */\n      revert\n        /* \"LockableContract.sol\":125:1129  contract LockableContract is Ownable {... */\n    tag_20:\n      0x00\n      dup1\n      revert\n    tag_12:\n      jumpi(tag_20, callvalue)\n      jumpi(tag_20, slt(add(not(0x03), calldatasize), 0x00))\n      sload(0x00)\n      mload(0x40)\n      sub(shl(0xa0, 0x01), 0x01)\n      swap1\n      swap2\n      and\n      dup2\n      mstore\n      0x20\n      swap1\n      return\n    tag_10:\n      jumpi(tag_20, callvalue)\n      jumpi(tag_20, slt(add(not(0x03), calldatasize), 0x00))\n        /* \"@openzeppelin/contracts/access/Ownable.sol\":1500:1562  modifier onlyOwner() {... */\n      tag_33\n      tag_1\n      jump\t// in\n    tag_33:\n        /* \"LockableContract.sol\":125:1129  contract LockableContract is Ownable {... */\n      sstore(0x00, and(sload(0x00), not(shl(0xa0, 0xff))))\n        /* \"LockableContract.sol\":1046:1074  ContractStatusChanged(false) */\n      0x017904e4fe7d59bb4603c7c045bc275a05da9ea3a4ac007fc80fffeaf119186d\n        /* \"LockableContract.sol\":125:1129  contract LockableContract is Ownable {... */\n      0x20\n      mload(0x40)\n      0x00\n      dup2\n      mstore\n        /* \"LockableContract.sol\":1046:1074  ContractStatusChanged(false) */\n      log1\n        /* \"LockableContract.sol\":1107:1117  msg.sender */\n      caller\n        /* \"LockableContract.sol\":1090:1118  ContractDisabled(msg.sender) */\n      0x793bc6423dd0257d64f9d47db72fd4b2162f4541aa41740ba1c5fb5e2cd41bcd\n        /* \"LockableContract.sol\":125:1129  contract LockableContract is Ownable {... */\n      0x00\n        /* \"LockableContract.sol\":1090:1118  ContractDisabled(msg.sender) */\n      dup1\n      log2\n        /* \"LockableContract.sol\":125:1129  contract LockableContract is Ownable {... */\n      stop\n    tag_8:\n      jumpi(tag_20, callvalue)\n      jumpi(tag_20, slt(add(not(0x03), calldatasize), 0x00))\n        /* \"@openzeppelin/contracts/access/Ownable.sol\":1500:1562  modifier onlyOwner() {... */\n      tag_38\n      tag_1\n      jump\t// in\n    tag_38:\n        /* \"LockableContract.sol\":125:1129  contract LockableContract is Ownable {... */\n      0x00\n      dup1\n      sload\n      not(sub(shl(0xa0, 0x01), 0x01))\n      dup2\n      and\n      dup3\n      sstore\n      sub(shl(0xa0, 0x01), 0x01)\n      and\n        /* \"@openzeppelin/contracts/access/Ownable.sol\":3052:3092  OwnershipTransferred(oldOwner, newOwner) */\n      0x8be0079c531659141344cd1fd0a4f28419497f9722a3daafe3b4186f6b6457e0\n        /* \"LockableContract.sol\":125:1129  contract LockableContract is Ownable {... */\n      dup3\n      dup1\n        /* \"@openzeppelin/contracts/access/Ownable.sol\":3052:3092  OwnershipTransferred(oldOwner, newOwner) */\n      log3\n        /* \"LockableContract.sol\":125:1129  contract LockableContract is Ownable {... */\n      stop\n    tag_6:\n      jumpi(tag_20, callvalue)\n      jumpi(tag_20, slt(add(not(0x03), calldatasize), 0x00))\n      0x20\n      and(shr(0xa0, sload(0x00)), 0xff)\n      mload(0x40)\n      swap1\n      iszero\n      iszero\n      dup2\n      mstore\n      return\n    tag_4:\n      jumpi(tag_20, callvalue)\n      jumpi(tag_20, slt(add(not(0x03), calldatasize), 0x00))\n        /* \"@openzeppelin/contracts/access/Ownable.sol\":1500:1562  modifier onlyOwner() {... */\n      tag_47\n      tag_1\n      jump\t// in\n    tag_47:\n        /* \"LockableContract.sol\":125:1129  contract LockableContract is Ownable {... */\n      0x00\n      dup1\n      sload\n      not(shl(0xa0, 0xff))\n      and\n      shl(0xa0, 0x01)\n      or\n      swap1\n      sstore\n      mload(0x40)\n      0x01\n      dup2\n      mstore\n        /* \"LockableContract.sol\":824:851  ContractStatusChanged(true) */\n      0x017904e4fe7d59bb4603c7c045bc275a05da9ea3a4ac007fc80fffeaf119186d\n      swap1\n        /* \"LockableContract.sol\":125:1129  contract LockableContract is Ownable {... */\n      0x20\n      swap1\n        /* \"LockableContract.sol\":824:851  ContractStatusChanged(true) */\n      log1\n        /* \"LockableContract.sol\":883:893  msg.sender */\n      caller\n        /* \"LockableContract.sol\":867:894  ContractEnabled(msg.sender) */\n      0xae81c15a680e6640ba872ca44f364ad67c60a04089ad9fa100f7a3ce94da9f68\n        /* \"LockableContract.sol\":125:1129  contract LockableContract is Ownable {... */\n      0x00\n        /* \"LockableContract.sol\":867:894  ContractEnabled(msg.sender) */\n      dup1\n      log2\n        /* \"LockableContract.sol\":125:1129  contract LockableContract is Ownable {... */\n      stop\n        /* \"@openzeppelin/contracts/access/Ownable.sol\":1796:1958  function _checkOwner() internal view virtual {... */\n    tag_1:\n        /* \"@openzeppelin/contracts/access/Ownable.sol\":1710:1716  _owner */\n      0x00\n        /* \"LockableContract.sol\":125:1129  contract LockableContract is Ownable {... */\n      sload\n      sub(shl(0xa0, 0x01), 0x01)\n      and\n        /* \"@openzeppelin/contracts/utils/Context.sol\":735:745  msg.sender */\n      caller\n        /* \"@openzeppelin/contracts/access/Ownable.sol\":1855:1878  owner() != _msgSender() */\n      sub\n        /* \"@openzeppelin/contracts/access/Ownable.sol\":1851:1952  if (owner() != _msgSender()) {... */\n      tag_48\n      jumpi\n        /* \"@openzeppelin/contracts/access/Ownable.sol\":1796:1958  function _checkOwner() internal view virtual {... */\n      jump\t// out\n        /* \"@openzeppelin/contracts/access/Ownable.sol\":1851:1952  if (owner() != _msgSender()) {... */\n    tag_48:\n        /* \"@openzeppelin/contracts/access/Ownable.sol\":1901:1941  OwnableUnauthorizedAccount(_msgSender()) */\n      shl(0xe0, 0x118cdaa7)\n        /* \"@openzeppelin/contracts/access/Ownable.sol\":1710:1716  _owner */\n      0x00\n        /* \"@openzeppelin/contracts/access/Ownable.sol\":1901:1941  OwnableUnauthorizedAccount(_msgSender()) */\n      mstore\n        /* \"@openzeppelin/contracts/utils/Context.sol\":735:745  msg.sender */\n      caller\n        /* \"@openzeppelin/contracts/access/Ownable.sol\":1901:1941  OwnableUnauthorizedAccount(_msgSender()) */\n      0x04\n        /* \"LockableContract.sol\":125:1129  contract LockableContract is Ownable {... */\n      mstore\n      0x24\n        /* \"@openzeppelin/contracts/access/Ownable.sol\":1710:1716  _owner */\n      0x00\n        /* \"@openzeppelin/contracts/access/Ownable.sol\":1901:1941  OwnableUnauthorizedAccount(_msgSender()) */\n      revert\n\n    auxdata: 0xa2646970667358221220f61b67ae80f4e44df4cf22064539b45e07abf66e9e458e5e7e0a77850f4eb4f964736f6c634300081c0033\n}\n",
				"bytecode": {
					"linkReferences": {},
					"object": "6080806040523460785733156065575f543360018060a01b0382167f8be0079c531659141344cd1fd0a4f28419497f9722a3daafe3b4186f6b6457e05f80a36001600160a81b0319163360ff60a01b191617600160a01b175f556102d8908161007d8239f35b631e4fbdf760e01b5f525f60045260245ffd5b5f80fdfe60806040526004361015610011575f80fd5b5f3560e01c8063367edd32146101fe57806341b3a0d9146101da578063715018a614610183578063894ba8331461010f5780638da5cb5b146100e85763f2fde38b1461005b575f80fd5b346100e45760203660031901126100e4576004356001600160a01b038116908190036100e45761008961027c565b80156100d1575f80546001600160a01b03198116831782556001600160a01b0316907f8be0079c531659141344cd1fd0a4f28419497f9722a3daafe3b4186f6b6457e09080a3005b631e4fbdf760e01b5f525f60045260245ffd5b5f80fd5b346100e4575f3660031901126100e4575f546040516001600160a01b039091168152602090f35b346100e4575f3660031901126100e45761012761027c565b60ff60a01b195f54165f557f017904e4fe7d59bb4603c7c045bc275a05da9ea3a4ac007fc80fffeaf119186d60206040515f8152a1337f793bc6423dd0257d64f9d47db72fd4b2162f4541aa41740ba1c5fb5e2cd41bcd5f80a2005b346100e4575f3660031901126100e45761019b61027c565b5f80546001600160a01b0319811682556001600160a01b03167f8be0079c531659141344cd1fd0a4f28419497f9722a3daafe3b4186f6b6457e08280a3005b346100e4575f3660031901126100e457602060ff5f5460a01c166040519015158152f35b346100e4575f3660031901126100e45761021661027c565b5f805460ff60a01b1916600160a01b179055604051600181527f017904e4fe7d59bb4603c7c045bc275a05da9ea3a4ac007fc80fffeaf119186d90602090a1337fae81c15a680e6640ba872ca44f364ad67c60a04089ad9fa100f7a3ce94da9f685f80a2005b5f546001600160a01b0316330361028f57565b63118cdaa760e01b5f523360045260245ffdfea2646970667358221220f61b67ae80f4e44df4cf22064539b45e07abf66e9e458e5e7e0a77850f4eb4f964736f6c634300081c0033",
					"opcodes": "PUSH1 0x80 DUP1 PUSH1 0x40 MSTORE CALLVALUE PUSH1 0x78 JUMPI CALLER ISZERO PUSH1 0x65 JUMPI PUSH0 SLOAD CALLER PUSH1 0x1 DUP1 PUSH1 0xA0 SHL SUB DUP3 AND PUSH32 0x8BE0079C531659141344CD1FD0A4F28419497F9722A3DAAFE3B4186F6B6457E0 PUSH0 DUP1 LOG3 PUSH1 0x1 PUSH1 0x1 PUSH1 0xA8 SHL SUB NOT AND CALLER PUSH1 0xFF PUSH1 0xA0 SHL NOT AND OR PUSH1 0x1 PUSH1 0xA0 SHL OR PUSH0 SSTORE PUSH2 0x2D8 SWAP1 DUP2 PUSH2 0x7D DUP3 CODECOPY RETURN JUMPDEST PUSH4 0x1E4FBDF7 PUSH1 0xE0 SHL PUSH0 MSTORE PUSH0 PUSH1 0x4 MSTORE PUSH1 0x24 PUSH0 REVERT JUMPDEST PUSH0 DUP1 REVERT INVALID PUSH1 0x80 PUSH1 0x40 MSTORE PUSH1 0x4 CALLDATASIZE LT ISZERO PUSH2 0x11 JUMPI PUSH0 DUP1 REVERT JUMPDEST PUSH0 CALLDATALOAD PUSH1 0xE0 SHR DUP1 PUSH4 0x367EDD32 EQ PUSH2 0x1FE JUMPI DUP1 PUSH4 0x41B3A0D9 EQ PUSH2 0x1DA JUMPI DUP1 PUSH4 0x715018A6 EQ PUSH2 0x183 JUMPI DUP1 PUSH4 0x894BA833 EQ PUSH2 0x10F JUMPI DUP1 PUSH4 0x8DA5CB5B EQ PUSH2 0xE8 JUMPI PUSH4 0xF2FDE38B EQ PUSH2 0x5B JUMPI PUSH0 DUP1 REVERT JUMPDEST CALLVALUE PUSH2 0xE4 JUMPI PUSH1 0x20 CALLDATASIZE PUSH1 0x3 NOT ADD SLT PUSH2 0xE4 JUMPI PUSH1 0x4 CALLDATALOAD PUSH1 0x1 PUSH1 0x1 PUSH1 0xA0 SHL SUB DUP2 AND SWAP1 DUP2 SWAP1 SUB PUSH2 0xE4 JUMPI PUSH2 0x89 PUSH2 0x27C JUMP JUMPDEST DUP1 ISZERO PUSH2 0xD1 JUMPI PUSH0 DUP1 SLOAD PUSH1 0x1 PUSH1 0x1 PUSH1 0xA0 SHL SUB NOT DUP2 AND DUP4 OR DUP3 SSTORE PUSH1 0x1 PUSH1 0x1 PUSH1 0xA0 SHL SUB AND SWAP1 PUSH32 0x8BE0079C531659141344CD1FD0A4F28419497F9722A3DAAFE3B4186F6B6457E0 SWAP1 DUP1 LOG3 STOP JUMPDEST PUSH4 0x1E4FBDF7 PUSH1 0xE0 SHL PUSH0 MSTORE PUSH0 PUSH1 0x4 MSTORE PUSH1 0x24 PUSH0 REVERT JUMPDEST PUSH0 DUP1 REVERT JUMPDEST CALLVALUE PUSH2 0xE4 JUMPI PUSH0 CALLDATASIZE PUSH1 0x3 NOT ADD SLT PUSH2 0xE4 JUMPI PUSH0 SLOAD PUSH1 0x40 MLOAD PUSH1 0x1 PUSH1 0x1 PUSH1 0xA0 SHL SUB SWAP1 SWAP2 AND DUP2 MSTORE PUSH1 0x20 SWAP1 RETURN JUMPDEST CALLVALUE PUSH2 0xE4 JUMPI PUSH0 CALLDATASIZE PUSH1 0x3 NOT ADD SLT PUSH2 0xE4 JUMPI PUSH2 0x127 PUSH2 0x27C JUMP JUMPDEST PUSH1 0xFF PUSH1 0xA0 SHL NOT PUSH0 SLOAD AND PUSH0 SSTORE PUSH32 0x17904E4FE7D59BB4603C7C045BC275A05DA9EA3A4AC007FC80FFFEAF119186D PUSH1 0x20 PUSH1 0x40 MLOAD PUSH0 DUP2 MSTORE LOG1 CALLER PUSH32 0x793BC6423DD0257D64F9D47DB72FD4B2162F4541AA41740BA1C5FB5E2CD41BCD PUSH0 DUP1 LOG2 STOP JUMPDEST CALLVALUE PUSH2 0xE4 JUMPI PUSH0 CALLDATASIZE PUSH1 0x3 NOT ADD SLT PUSH2 0xE4 JUMPI PUSH2 0x19B PUSH2 0x27C JUMP JUMPDEST PUSH0 DUP1 SLOAD PUSH1 0x1 PUSH1 0x1 PUSH1 0xA0 SHL SUB NOT DUP2 AND DUP3 SSTORE PUSH1 0x1 PUSH1 0x1 PUSH1 0xA0 SHL SUB AND PUSH32 0x8BE0079C531659141344CD1FD0A4F28419497F9722A3DAAFE3B4186F6B6457E0 DUP3 DUP1 LOG3 STOP JUMPDEST CALLVALUE PUSH2 0xE4 JUMPI PUSH0 CALLDATASIZE PUSH1 0x3 NOT ADD SLT PUSH2 0xE4 JUMPI PUSH1 0x20 PUSH1 0xFF PUSH0 SLOAD PUSH1 0xA0 SHR AND PUSH1 0x40 MLOAD SWAP1 ISZERO ISZERO DUP2 MSTORE RETURN JUMPDEST CALLVALUE PUSH2 0xE4 JUMPI PUSH0 CALLDATASIZE PUSH1 0x3 NOT ADD SLT PUSH2 0xE4 JUMPI PUSH2 0x216 PUSH2 0x27C JUMP JUMPDEST PUSH0 DUP1 SLOAD PUSH1 0xFF PUSH1 0xA0 SHL NOT AND PUSH1 0x1 PUSH1 0xA0 SHL OR SWAP1 SSTORE PUSH1 0x40 MLOAD PUSH1 0x1 DUP2 MSTORE PUSH32 0x17904E4FE7D59BB4603C7C045BC275A05DA9EA3A4AC007FC80FFFEAF119186D SWAP1 PUSH1 0x20 SWAP1 LOG1 CALLER PUSH32 0xAE81C15A680E6640BA872CA44F364AD67C60A04089AD9FA100F7A3CE94DA9F68 PUSH0 DUP1 LOG2 STOP JUMPDEST PUSH0 SLOAD PUSH1 0x1 PUSH1 0x1 PUSH1 0xA0 SHL SUB AND CALLER SUB PUSH2 0x28F JUMPI JUMP JUMPDEST PUSH4 0x118CDAA7 PUSH1 0xE0 SHL PUSH0 MSTORE CALLER PUSH1 0x4 MSTORE PUSH1 0x24 PUSH0 REVERT INVALID LOG2 PUSH5 0x6970667358 0x22 SLT KECCAK256 0xF6 SHL PUSH8 0xAE80F4E44DF4CF22 MOD GASLIMIT CODECOPY 0xB4 MCOPY SMOD 0xAB 0xF6 PUSH15 0x9E458E5E7E0A77850F4EB4F964736F PUSH13 0x634300081C0033000000000000 "
				},
				"gasEstimates": {
					"creation": {
						"codeDepositCost": "145600",
						"executionCost": "26002",
						"totalCost": "171602"
					},
					"external": {
						"contractEnabled()": "2287",
						"disableContract()": "28735",
						"enableContract()": "28692",
						"owner()": "2359",
						"renounceOwnership()": "28086",
						"transferOwnership(address)": "28230"
					}
				},
				"methodIdentifiers": {
					"contractEnabled()": "41b3a0d9",
					"disableContract()": "894ba833",
					"enableContract()": "367edd32",
					"owner()": "8da5cb5b",
					"renounceOwnership()": "715018a6",
					"transferOwnership(address)": "f2fde38b"
				}
			},
			"storageLayout": {
				"storage": [
					{
						"astId": 8,
						"contract": "LockableContract.sol:LockableContract",
						"label": "_owner",
						"offset": 0,
						"slot": "0",
						"type": "t_address"
					},
					{
						"astId": 263,
						"contract": "LockableContract.sol:LockableContract",
						"label": "contractEnabled",
						"offset": 20,
						"slot": "0",
						"type": "t_bool"
					}
				],
				"types": {
					"t_address": {
						"encoding": "inplace",
						"label": "address",
						"numberOfBytes": "20"
					},
					"t_bool": {
						"encoding": "inplace",
						"label": "bool",
						"numberOfBytes": "1"
					}
				}
			},
			"userdoc": {
				"kind": "user",
				"methods": {},
				"version": 1
			}
		}
	}
}