{
	"WalletContract.sol": {
		"WalletContract": {
			"abi": [
				{
					"inputs": [
						{
							"internalType": "uint256",
							"name": "_depositCommissionPercent",
							"type": "uint256"
						},
						{
							"internalType": "address",
							"name": "_commissionRecipient",
							"type": "address"
						}
					],
					"stateMutability": "nonpayable",
					"type": "constructor"
				},
				{
					"inputs": [
						{
							"internalType": "address",
							"name": "owner",
							"type": "address"
						}
					],
					"name": "OwnableInvalidOwner",
					"type": "error"
				},
				{
					"inputs": [
						{
							"internalType": "address",
							"name": "account",
							"type": "address"
						}
					],
					"name": "OwnableUnauthorizedAccount",
					"type": "error"
				},
				{
					"anonymous": false,
					"inputs": [
						{
							"indexed": false,
							"internalType": "uint256",
							"name": "newCommissionPercent",
							"type": "uint256"
						},
						{
							"indexed": false,
							"internalType": "address",
							"name": "newCommissionRecipient",
							"type": "address"
						}
					],
					"name": "CommissionChanged",
					"type": "event"
				},
				{
					"anonymous": false,
					"inputs": [
						{
							"indexed": true,
							"internalType": "address",
							"name": "by",
							"type": "address"
						}
					],
					"name": "ContractDisabled",
					"type": "event"
				},
				{
					"anonymous": false,
					"inputs": [
						{
							"indexed": true,
							"internalType": "address",
							"name": "by",
							"type": "address"
						}
					],
					"name": "ContractEnabled",
					"type": "event"
				},
				{
					"anonymous": false,
					"inputs": [
						{
							"indexed": false,
							"internalType": "bool",
							"name": "status",
							"type": "bool"
						}
					],
					"name": "ContractStatusChanged",
					"type": "event"
				},
				{
					"anonymous": false,
					"inputs": [
						{
							"indexed": true,
							"internalType": "address",
							"name": "user",
							"type": "address"
						},
						{
							"indexed": true,
							"internalType": "address",
							"name": "token",
							"type": "address"
						},
						{
							"indexed": false,
							"internalType": "uint256",
							"name": "amount",
							"type": "uint256"
						},
						{
							"indexed": false,
							"internalType": "uint256",
							"name": "commission",
							"type": "uint256"
						}
					],
					"name": "Deposit",
					"type": "event"
				},
				{
					"anonymous": false,
					"inputs": [
						{
							"indexed": true,
							"internalType": "address",
							"name": "previousOwner",
							"type": "address"
						},
						{
							"indexed": true,
							"internalType": "address",
							"name": "newOwner",
							"type": "address"
						}
					],
					"name": "OwnershipTransferred",
					"type": "event"
				},
				{
					"anonymous": false,
					"inputs": [
						{
							"indexed": true,
							"internalType": "address",
							"name": "from",
							"type": "address"
						},
						{
							"indexed": true,
							"internalType": "address",
							"name": "to",
							"type": "address"
						},
						{
							"indexed": true,
							"internalType": "address",
							"name": "token",
							"type": "address"
						},
						{
							"indexed": false,
							"internalType": "uint256",
							"name": "value",
							"type": "uint256"
						}
					],
					"name": "Transfer",
					"type": "event"
				},
				{
					"anonymous": false,
					"inputs": [
						{
							"indexed": true,
							"internalType": "address",
							"name": "user",
							"type": "address"
						},
						{
							"indexed": true,
							"internalType": "address",
							"name": "token",
							"type": "address"
						},
						{
							"indexed": false,
							"internalType": "uint256",
							"name": "amount",
							"type": "uint256"
						}
					],
					"name": "Withdrawal",
					"type": "event"
				},
				{
					"inputs": [
						{
							"internalType": "address",
							"name": "user",
							"type": "address"
						}
					],
					"name": "balanceOf",
					"outputs": [
						{
							"internalType": "uint256",
							"name": "",
							"type": "uint256"
						}
					],
					"stateMutability": "view",
					"type": "function"
				},
				{
					"inputs": [
						{
							"internalType": "address",
							"name": "user",
							"type": "address"
						},
						{
							"internalType": "address",
							"name": "token",
							"type": "address"
						}
					],
					"name": "balanceOf",
					"outputs": [
						{
							"internalType": "uint256",
							"name": "",
							"type": "uint256"
						}
					],
					"stateMutability": "view",
					"type": "function"
				},
				{
					"inputs": [
						{
							"internalType": "address",
							"name": "",
							"type": "address"
						},
						{
							"internalType": "address",
							"name": "",
							"type": "address"
						}
					],
					"name": "balances",
					"outputs": [
						{
							"internalType": "uint256",
							"name": "",
							"type": "uint256"
						}
					],
					"stateMutability": "view",
					"type": "function"
				},
				{
					"inputs": [],
					"name": "commissionRecipient",
					"outputs": [
						{
							"internalType": "address",
							"name": "",
							"type": "address"
						}
					],
					"stateMutability": "view",
					"type": "function"
				},
				{
					"inputs": [],
					"name": "contractEnabled",
					"outputs": [
						{
							"internalType": "bool",
							"name": "",
							"type": "bool"
						}
					],
					"stateMutability": "view",
					"type": "function"
				},
				{
					"inputs": [
						{
							"internalType": "address",
							"name": "token",
							"type": "address"
						},
						{
							"internalType": "uint256",
							"name": "amount",
							"type": "uint256"
						}
					],
					"name": "deposit",
					"outputs": [],
					"stateMutability": "payable",
					"type": "function"
				},
				{
					"inputs": [],
					"name": "depositCommissionPercent",
					"outputs": [
						{
							"internalType": "uint256",
							"name": "",
							"type": "uint256"
						}
					],
					"stateMutability": "view",
					"type": "function"
				},
				{
					"inputs": [],
					"name": "disableContract",
					"outputs": [],
					"stateMutability": "nonpayable",
					"type": "function"
				},
				{
					"inputs": [],
					"name": "enableContract",
					"outputs": [],
					"stateMutability": "nonpayable",
					"type": "function"
				},
				{
					"inputs": [
						{
							"internalType": "uint256",
							"name": "amount",
							"type": "uint256"
						}
					],
					"name": "getAmountToDepositViaComission",
					"outputs": [
						{
							"internalType": "uint256",
							"name": "",
							"type": "uint256"
						}
					],
					"stateMutability": "view",
					"type": "function"
				},
				{
					"inputs": [],
					"name": "owner",
					"outputs": [
						{
							"internalType": "address",
							"name": "",
							"type": "address"
						}
					],
					"stateMutability": "view",
					"type": "function"
				},
				{
					"inputs": [],
					"name": "renounceOwnership",
					"outputs": [],
					"stateMutability": "nonpayable",
					"type": "function"
				},
				{
					"inputs": [
						{
							"internalType": "uint256",
							"name": "newCommissionPercent",
							"type": "uint256"
						},
						{
							"internalType": "address",
							"name": "newRecipient",
							"type": "address"
						}
					],
					"name": "setDepositCommission",
					"outputs": [],
					"stateMutability": "nonpayable",
					"type": "function"
				},
				{
					"inputs": [
						{
							"internalType": "address",
							"name": "to",
							"type": "address"
						},
						{
							"internalType": "address",
							"name": "token",
							"type": "address"
						},
						{
							"internalType": "uint256",
							"name": "amount",
							"type": "uint256"
						}
					],
					"name": "transfer",
					"outputs": [
						{
							"internalType": "bool",
							"name": "",
							"type": "bool"
						}
					],
					"stateMutability": "nonpayable",
					"type": "function"
				},
				{
					"inputs": [
						{
							"internalType": "address",
							"name": "newOwner",
							"type": "address"
						}
					],
					"name": "transferOwnership",
					"outputs": [],
					"stateMutability": "nonpayable",
					"type": "function"
				},
				{
					"inputs": [
						{
							"internalType": "address",
							"name": "token",
							"type": "address"
						},
						{
							"internalType": "uint256",
							"name": "amount",
							"type": "uint256"
						}
					],
					"name": "withdraw",
					"outputs": [
						{
							"internalType": "bool",
							"name": "",
							"type": "bool"
						}
					],
					"stateMutability": "nonpayable",
					"type": "function"
				}
			],
			"devdoc": {
				"errors": {
					"OwnableInvalidOwner(address)": [
						{
							"details": "The owner is not a valid owner account. (eg. `address(0)`)"
						}
					],
					"OwnableUnauthorizedAccount(address)": [
						{
							"details": "The caller account is not authorized to perform an operation."
						}
					]
				},
				"kind": "dev",
				"methods": {
					"owner()": {
						"details": "Returns the address of the current owner."
					},
					"renounceOwnership()": {
						"details": "Leaves the contract without owner. It will not be possible to call `onlyOwner` functions. Can only be called by the current owner. NOTE: Renouncing ownership will leave the contract without an owner, thereby disabling any functionality that is only available to the owner."
					},
					"transferOwnership(address)": {
						"details": "Transfers ownership of the contract to a new account (`newOwner`). Can only be called by the current owner."
					}
				},
				"version": 1
			},
			"evm": {
				"assembly": "    /* \"WalletContract.sol\":184:6079  contract WalletContract is LockableContract... */\n  0x80\n  jumpi(tag_7, callvalue)\n  0x1f\n  bytecodeSize\n  codesize\n  dup2\n  swap1\n  sub\n  swap2\n  dup3\n  add\n  not(0x1f)\n  and\n  dup4\n  add\n  swap2\n  sub(shl(0x40, 0x01), 0x01)\n  dup4\n  gt\n  dup5\n  dup5\n  lt\n  or\n  tag_3\n  jumpi\n  dup1\n  dup5\n  swap3\n  0x40\n  swap5\n  dup6\n  mstore\n  dup4\n  codecopy\n  dup2\n  add\n  sub\n  slt\n  tag_7\n  jumpi\n  dup1\n  mload\n  0x20\n  swap1\n  swap2\n  add\n  mload\n  sub(shl(0xa0, 0x01), 0x01)\n  dup2\n  and\n  swap2\n  swap1\n  dup3\n  swap1\n  sub\n  tag_7\n  jumpi\n    /* \"LockableContract.sol\":669:679  msg.sender */\n  caller\n    /* \"@openzeppelin/contracts/access/Ownable.sol\":1273:1299  initialOwner == address(0) */\n  iszero\n    /* \"@openzeppelin/contracts/access/Ownable.sol\":1269:1364  if (initialOwner == address(0)) {... */\n  tag_9\n  jumpi\n  0x00\n    /* \"WalletContract.sol\":184:6079  contract WalletContract is LockableContract... */\n  dup1\n  sload\n  mload(0x40)\n  swap2\n    /* \"LockableContract.sol\":669:679  msg.sender */\n  caller\n  swap1\n  sub(shl(0xa0, 0x01), 0x01)\n    /* \"WalletContract.sol\":184:6079  contract WalletContract is LockableContract... */\n  dup4\n  and\n  swap1\n    /* \"@openzeppelin/contracts/access/Ownable.sol\":3052:3092  OwnershipTransferred(oldOwner, newOwner) */\n  0x8be0079c531659141344cd1fd0a4f28419497f9722a3daafe3b4186f6b6457e0\n  swap1\n  dup1\n  log3\n  not(sub(shl(0xa8, 0x01), 0x01))\n    /* \"WalletContract.sol\":184:6079  contract WalletContract is LockableContract... */\n  and\n    /* \"LockableContract.sol\":669:679  msg.sender */\n  caller\n  not(shl(0xa0, 0xff))\n    /* \"WalletContract.sol\":184:6079  contract WalletContract is LockableContract... */\n  and\n  or\n  shl(0xa0, 0x01)\n  or\n  0x00\n  sstore\n    /* \"WalletContract.sol\":1192:1226  _commissionRecipient != address(0) */\n  dup3\n  iszero\n    /* \"WalletContract.sol\":184:6079  contract WalletContract is LockableContract... */\n  tag_11\n  jumpi\n    /* \"WalletContract.sol\":1397:1442  _depositCommissionPercent <= Percent.MAXVALUE */\n  pop\n    /* \"Percent.sol\":200:206  10**10 */\n  0x02540be400\n    /* \"WalletContract.sol\":1397:1442  _depositCommissionPercent <= Percent.MAXVALUE */\n  dup2\n  gt\n    /* \"Percent.sol\":156:161  SCALE */\n  tag_13\n  jumpi\n    /* \"WalletContract.sol\":1493:1545  depositCommissionPercent = _depositCommissionPercent */\n  0x02\n    /* \"Percent.sol\":156:161  SCALE */\n  sstore\n    /* \"WalletContract.sol\":1556:1598  commissionRecipient = _commissionRecipient */\n  0x03\n    /* \"Percent.sol\":156:161  SCALE */\n  dup1\n  sload\n  not(sub(shl(0xa0, 0x01), 0x01))\n  and\n  swap2\n  swap1\n  swap2\n  or\n  swap1\n  sstore\n    /* \"WalletContract.sol\":184:6079  contract WalletContract is LockableContract... */\n  mload(0x40)\n  dataSize(sub_0)\n  swap1\n  dup2\n  dataOffset(sub_0)\n  dup3\n  codecopy\n  return\n    /* \"Percent.sol\":156:161  SCALE */\ntag_13:\n    /* \"WalletContract.sol\":184:6079  contract WalletContract is LockableContract... */\n  mload(0x40)\n  shl(0xe5, 0x461bcd)\n    /* \"Percent.sol\":156:161  SCALE */\n  dup2\n  mstore\n    /* \"WalletContract.sol\":184:6079  contract WalletContract is LockableContract... */\n  0x20\n    /* \"Percent.sol\":156:161  SCALE */\n  0x04\n  dup3\n  add\n  mstore\n  0x21\n  0x24\n  dup3\n  add\n    /* \"WalletContract.sol\":184:6079  contract WalletContract is LockableContract... */\n  mstore\n    /* \"Percent.sol\":156:161  SCALE */\n  0x436f6d6d697373696f6e2070657263656e7461676520697320746f6f20686967\n    /* \"WalletContract.sol\":184:6079  contract WalletContract is LockableContract... */\n  0x44\n  dup3\n  add\n    /* \"Percent.sol\":156:161  SCALE */\n  mstore\n  shl(0xfb, 0x0d)\n  0x64\n  dup3\n  add\n  mstore\n  0x84\n  swap1\n  revert\n    /* \"WalletContract.sol\":184:6079  contract WalletContract is LockableContract... */\ntag_11:\n  shl(0xe5, 0x461bcd)\n  dup2\n  mstore\n  0x20\n  0x04\n  dup3\n  add\n  mstore\n  0x2f\n  0x24\n  dup3\n  add\n  mstore\n  0x436f6d6d697373696f6e20726563697069656e742063616e6e6f742062652074\n  0x44\n  dup3\n  add\n  mstore\n  shl(0x88, 0x6865207a65726f2061646472657373)\n  0x64\n  dup3\n  add\n  mstore\n  0x84\n  swap1\n  revert\n    /* \"@openzeppelin/contracts/access/Ownable.sol\":1269:1364  if (initialOwner == address(0)) {... */\ntag_9:\n    /* \"@openzeppelin/contracts/access/Ownable.sol\":1322:1353  OwnableInvalidOwner(address(0)) */\n  mstore(0x00, shl(0xe0, 0x1e4fbdf7))\n  0x00\n  0x04\n    /* \"WalletContract.sol\":184:6079  contract WalletContract is LockableContract... */\n  mstore\n  0x24\n  0x00\n    /* \"@openzeppelin/contracts/access/Ownable.sol\":1322:1353  OwnableInvalidOwner(address(0)) */\n  revert\n    /* \"WalletContract.sol\":184:6079  contract WalletContract is LockableContract... */\ntag_7:\n  0x00\n  dup1\n  revert\ntag_3:\n  mstore(0x00, shl(0xe0, 0x4e487b71))\n  mstore(0x04, 0x41)\n  revert(0x00, 0x24)\nstop\n\nsub_0: assembly {\n        /* \"WalletContract.sol\":184:6079  contract WalletContract is LockableContract... */\n      0x80\n      dup1\n      0x40\n      mstore\n      jumpi(tag_12, iszero(lt(calldatasize, 0x04)))\n      0x00\n      dup1\n      revert\n    tag_12:\n      shr(0xe0, calldataload(0x00))\n      swap1\n      dup2\n      0x06fd154a\n      eq\n      tag_14\n      jumpi\n      pop\n      dup1\n      0x15f8a314\n      eq\n      tag_16\n      jumpi\n      dup1\n      0x367edd32\n      eq\n      tag_18\n      jumpi\n      dup1\n      0x39b3edb0\n      eq\n      tag_20\n      jumpi\n      dup1\n      0x41b3a0d9\n      eq\n      tag_22\n      jumpi\n      dup1\n      0x47e7ef24\n      eq\n      tag_24\n      jumpi\n      dup1\n      0x70a08231\n      eq\n      tag_26\n      jumpi\n      dup1\n      0x715018a6\n      eq\n      tag_28\n      jumpi\n      dup1\n      0x894ba833\n      eq\n      tag_30\n      jumpi\n      dup1\n      0x899a3ffd\n      eq\n      tag_32\n      jumpi\n      dup1\n      0x8da5cb5b\n      eq\n      tag_34\n      jumpi\n      dup1\n      0xbeabacc8\n      eq\n      tag_36\n      jumpi\n      dup1\n      0xc23f001f\n      eq\n      tag_44\n      jumpi\n      dup1\n      0xf2fde38b\n      eq\n      tag_40\n      jumpi\n      dup1\n      0xf3fef3a3\n      eq\n      tag_42\n      jumpi\n      0xf7888aec\n      eq\n      tag_44\n      jumpi\n      0x00\n      dup1\n      revert\n    tag_44:\n      jumpi(tag_48, callvalue)\n      jumpi(tag_48, slt(add(not(0x03), calldatasize), 0x40))\n      tag_50\n      tag_2\n      jump\t// in\n    tag_50:\n      tag_51\n      tag_1\n      jump\t// in\n    tag_51:\n      sub(shl(0xa0, 0x01), 0x01)\n      swap2\n      dup3\n      and\n      0x00\n      swap1\n      dup2\n      mstore\n      0x01\n      0x20\n      swap1\n      dup2\n      mstore\n      0x40\n      dup1\n      dup4\n      keccak256\n      swap5\n      swap1\n      swap4\n      and\n      dup3\n      mstore\n      swap3\n      dup4\n      mstore\n      dup2\n      swap1\n      keccak256\n      sload\n      swap1\n      mload\n      swap1\n      dup2\n      mstore\n      return\n    tag_48:\n      0x00\n      dup1\n      revert\n    tag_42:\n      jumpi(tag_48, callvalue)\n      jumpi(tag_48, slt(add(not(0x03), calldatasize), 0x40))\n      0x20\n        /* \"WalletContract.sol\":3290:3339  withdrawFromContractTo(msg.sender, token, amount) */\n      tag_56\n        /* \"WalletContract.sol\":184:6079  contract WalletContract is LockableContract... */\n      tag_57\n      tag_2\n      jump\t// in\n    tag_57:\n      calldataload(0x24)\n        /* \"WalletContract.sol\":3152:3162  msg.sender */\n      swap1\n      caller\n        /* \"WalletContract.sol\":184:6079  contract WalletContract is LockableContract... */\n      0x00\n      mstore\n      0x01\n      dup5\n      mstore\n      keccak256(0x00, 0x40)\n      0x01\n      dup1\n      0xa0\n      shl\n      sub\n      dup3\n      and\n      0x00\n      mstore\n      dup5\n      mstore\n        /* \"WalletContract.sol\":3134:3205  require(balanceOf(msg.sender, token) >= amount, \"Insufficient balance\") */\n      tag_58\n        /* \"WalletContract.sol\":184:6079  contract WalletContract is LockableContract... */\n      dup3\n      sload(keccak256(0x00, 0x40))\n        /* \"WalletContract.sol\":3142:3180  balanceOf(msg.sender, token) >= amount */\n      lt\n      iszero\n        /* \"WalletContract.sol\":3134:3205  require(balanceOf(msg.sender, token) >= amount, \"Insufficient balance\") */\n      tag_6\n      jump\t// in\n    tag_58:\n        /* \"WalletContract.sol\":3218:3262  removeBalanceFrom(msg.sender, token, amount) */\n      tag_59\n        /* \"WalletContract.sol\":3152:3162  msg.sender */\n      dup3\n      dup3\n      caller\n        /* \"WalletContract.sol\":3218:3262  removeBalanceFrom(msg.sender, token, amount) */\n      tag_10\n      jump\t// in\n    tag_59:\n      pop\n        /* \"WalletContract.sol\":3152:3162  msg.sender */\n      caller\n        /* \"WalletContract.sol\":3290:3339  withdrawFromContractTo(msg.sender, token, amount) */\n      tag_11\n      jump\t// in\n    tag_56:\n        /* \"WalletContract.sol\":184:6079  contract WalletContract is LockableContract... */\n      mload(0x40)\n      swap1\n      iszero\n      iszero\n      dup2\n      mstore\n      return\n    tag_40:\n      jumpi(tag_48, callvalue)\n      jumpi(tag_48, slt(add(not(0x03), calldatasize), 0x20))\n      tag_64\n      tag_2\n      jump\t// in\n    tag_64:\n        /* \"@openzeppelin/contracts/access/Ownable.sol\":1500:1562  modifier onlyOwner() {... */\n      tag_65\n      tag_8\n      jump\t// in\n    tag_65:\n      sub(shl(0xa0, 0x01), 0x01)\n        /* \"WalletContract.sol\":184:6079  contract WalletContract is LockableContract... */\n      and\n        /* \"@openzeppelin/contracts/access/Ownable.sol\":2627:2649  newOwner == address(0) */\n      dup1\n      iszero\n        /* \"@openzeppelin/contracts/access/Ownable.sol\":2623:2714  if (newOwner == address(0)) {... */\n      tag_66\n      jumpi\n        /* \"WalletContract.sol\":184:6079  contract WalletContract is LockableContract... */\n      0x00\n      dup1\n      sload\n      not(sub(shl(0xa0, 0x01), 0x01))\n        /* \"Percent.sol\":156:161  SCALE */\n      dup2\n      and\n      dup4\n      or\n      dup3\n      sstore\n      sub(shl(0xa0, 0x01), 0x01)\n        /* \"WalletContract.sol\":184:6079  contract WalletContract is LockableContract... */\n      and\n      swap1\n        /* \"@openzeppelin/contracts/access/Ownable.sol\":3052:3092  OwnershipTransferred(oldOwner, newOwner) */\n      0x8be0079c531659141344cd1fd0a4f28419497f9722a3daafe3b4186f6b6457e0\n      swap1\n        /* \"WalletContract.sol\":184:6079  contract WalletContract is LockableContract... */\n      dup1\n        /* \"@openzeppelin/contracts/access/Ownable.sol\":3052:3092  OwnershipTransferred(oldOwner, newOwner) */\n      log3\n        /* \"WalletContract.sol\":184:6079  contract WalletContract is LockableContract... */\n      stop\n        /* \"@openzeppelin/contracts/access/Ownable.sol\":2623:2714  if (newOwner == address(0)) {... */\n    tag_66:\n        /* \"@openzeppelin/contracts/access/Ownable.sol\":2672:2703  OwnableInvalidOwner(address(0)) */\n      shl(0xe0, 0x1e4fbdf7)\n        /* \"WalletContract.sol\":184:6079  contract WalletContract is LockableContract... */\n      0x00\n        /* \"@openzeppelin/contracts/access/Ownable.sol\":2672:2703  OwnableInvalidOwner(address(0)) */\n      mstore\n        /* \"WalletContract.sol\":184:6079  contract WalletContract is LockableContract... */\n      mstore(0x04, 0x00)\n      0x24\n      0x00\n        /* \"@openzeppelin/contracts/access/Ownable.sol\":2672:2703  OwnableInvalidOwner(address(0)) */\n      revert\n        /* \"WalletContract.sol\":184:6079  contract WalletContract is LockableContract... */\n    tag_36:\n      jumpi(tag_48, callvalue)\n      jumpi(tag_48, slt(add(not(0x03), calldatasize), 0x60))\n      tag_78\n      tag_2\n      jump\t// in\n    tag_78:\n      tag_79\n      tag_1\n      jump\t// in\n    tag_79:\n      calldataload(0x44)\n        /* \"WalletContract.sol\":3507:3517  msg.sender */\n      swap2\n      caller\n        /* \"WalletContract.sol\":184:6079  contract WalletContract is LockableContract... */\n      0x00\n      mstore\n      mstore(0x20, 0x01)\n      keccak256(0x00, 0x40)\n      0x01\n      dup1\n      0xa0\n      shl\n      sub\n      dup4\n      and\n      0x00\n      mstore\n      0x20\n      mstore\n        /* \"WalletContract.sol\":3489:3560  require(balanceOf(msg.sender, token) >= amount, \"Insufficient balance\") */\n      tag_80\n        /* \"WalletContract.sol\":184:6079  contract WalletContract is LockableContract... */\n      dup4\n      sload(keccak256(0x00, 0x40))\n        /* \"WalletContract.sol\":3497:3535  balanceOf(msg.sender, token) >= amount */\n      lt\n      iszero\n        /* \"WalletContract.sol\":3489:3560  require(balanceOf(msg.sender, token) >= amount, \"Insufficient balance\") */\n      tag_6\n      jump\t// in\n    tag_80:\n        /* \"WalletContract.sol\":3507:3517  msg.sender */\n      caller\n        /* \"WalletContract.sol\":184:6079  contract WalletContract is LockableContract... */\n      0x00\n      mstore\n      mstore(0x20, 0x01)\n      keccak256(0x00, 0x40)\n      0x01\n      dup1\n      0xa0\n      shl\n      sub\n      dup4\n      and\n      0x00\n      mstore\n      0x20\n      mstore\n      keccak256(0x00, 0x40)\n        /* \"WalletContract.sol\":3611:3642  balances[from][token] -= amount */\n      tag_81\n        /* \"WalletContract.sol\":184:6079  contract WalletContract is LockableContract... */\n      dup5\n      dup3\n      sload\n        /* \"WalletContract.sol\":3611:3642  balances[from][token] -= amount */\n      tag_7\n      jump\t// in\n    tag_81:\n        /* \"Percent.sol\":156:161  SCALE */\n      swap1\n      sstore\n        /* \"WalletContract.sol\":184:6079  contract WalletContract is LockableContract... */\n      0x01\n      dup1\n      0xa0\n      shl\n      sub\n      and\n      swap1\n      dup2\n      0x00\n      mstore\n      mstore(0x20, 0x01)\n      keccak256(0x00, 0x40)\n      0x01\n      dup1\n      0xa0\n      shl\n      sub\n      dup3\n      and\n      0x00\n      mstore\n      0x20\n      mstore\n      keccak256(0x00, 0x40)\n        /* \"WalletContract.sol\":3653:3682  balances[to][token] += amount */\n      tag_82\n        /* \"WalletContract.sol\":184:6079  contract WalletContract is LockableContract... */\n      dup5\n      dup3\n      sload\n        /* \"WalletContract.sol\":3653:3682  balances[to][token] += amount */\n      tag_4\n      jump\t// in\n    tag_82:\n        /* \"Percent.sol\":156:161  SCALE */\n      swap1\n      sstore\n        /* \"WalletContract.sol\":184:6079  contract WalletContract is LockableContract... */\n      mload(0x40)\n      swap3\n      dup4\n      mstore\n      sub(shl(0xa0, 0x01), 0x01)\n      and\n      swap2\n        /* \"WalletContract.sol\":3507:3517  msg.sender */\n      caller\n      swap1\n        /* \"WalletContract.sol\":3700:3732  Transfer(from, to,token, amount) */\n      0xd1398bee19313d6bf672ccb116e51f4a1a947e91c757907f51fbb5b5e56c698f\n      swap1\n        /* \"WalletContract.sol\":184:6079  contract WalletContract is LockableContract... */\n      0x20\n      swap1\n        /* \"WalletContract.sol\":3700:3732  Transfer(from, to,token, amount) */\n      log4\n        /* \"WalletContract.sol\":184:6079  contract WalletContract is LockableContract... */\n      0x20\n      mload(0x40)\n      0x01\n      dup2\n      mstore\n      return\n    tag_34:\n      jumpi(tag_48, callvalue)\n      jumpi(tag_48, slt(add(not(0x03), calldatasize), 0x00))\n      sload(0x00)\n      mload(0x40)\n      sub(shl(0xa0, 0x01), 0x01)\n      swap1\n      swap2\n      and\n      dup2\n      mstore\n      0x20\n      swap1\n      return\n    tag_32:\n      jumpi(tag_48, callvalue)\n      jumpi(tag_48, slt(add(not(0x03), calldatasize), 0x00))\n      0x20\n        /* \"WalletContract.sol\":466:505  uint256 public depositCommissionPercent */\n      0x02\n        /* \"WalletContract.sol\":184:6079  contract WalletContract is LockableContract... */\n      sload\n      mload(0x40)\n      swap1\n      dup2\n      mstore\n      return\n    tag_30:\n      jumpi(tag_48, callvalue)\n      jumpi(tag_48, slt(add(not(0x03), calldatasize), 0x00))\n        /* \"@openzeppelin/contracts/access/Ownable.sol\":1500:1562  modifier onlyOwner() {... */\n      tag_95\n      tag_8\n      jump\t// in\n    tag_95:\n        /* \"WalletContract.sol\":184:6079  contract WalletContract is LockableContract... */\n      sstore(0x00, and(sload(0x00), not(shl(0xa0, 0xff))))\n        /* \"LockableContract.sol\":1046:1074  ContractStatusChanged(false) */\n      0x017904e4fe7d59bb4603c7c045bc275a05da9ea3a4ac007fc80fffeaf119186d\n        /* \"WalletContract.sol\":184:6079  contract WalletContract is LockableContract... */\n      0x20\n      mload(0x40)\n      0x00\n      dup2\n      mstore\n        /* \"LockableContract.sol\":1046:1074  ContractStatusChanged(false) */\n      log1\n        /* \"LockableContract.sol\":1107:1117  msg.sender */\n      caller\n        /* \"LockableContract.sol\":1090:1118  ContractDisabled(msg.sender) */\n      0x793bc6423dd0257d64f9d47db72fd4b2162f4541aa41740ba1c5fb5e2cd41bcd\n        /* \"WalletContract.sol\":184:6079  contract WalletContract is LockableContract... */\n      0x00\n        /* \"LockableContract.sol\":1090:1118  ContractDisabled(msg.sender) */\n      dup1\n      log2\n        /* \"WalletContract.sol\":184:6079  contract WalletContract is LockableContract... */\n      stop\n    tag_28:\n      jumpi(tag_48, callvalue)\n      jumpi(tag_48, slt(add(not(0x03), calldatasize), 0x00))\n        /* \"@openzeppelin/contracts/access/Ownable.sol\":1500:1562  modifier onlyOwner() {... */\n      tag_100\n      tag_8\n      jump\t// in\n    tag_100:\n        /* \"WalletContract.sol\":184:6079  contract WalletContract is LockableContract... */\n      0x00\n      dup1\n      sload\n      not(sub(shl(0xa0, 0x01), 0x01))\n        /* \"Percent.sol\":156:161  SCALE */\n      dup2\n      and\n      dup3\n      sstore\n      sub(shl(0xa0, 0x01), 0x01)\n        /* \"WalletContract.sol\":184:6079  contract WalletContract is LockableContract... */\n      and\n        /* \"@openzeppelin/contracts/access/Ownable.sol\":3052:3092  OwnershipTransferred(oldOwner, newOwner) */\n      0x8be0079c531659141344cd1fd0a4f28419497f9722a3daafe3b4186f6b6457e0\n        /* \"WalletContract.sol\":184:6079  contract WalletContract is LockableContract... */\n      dup3\n      dup1\n        /* \"@openzeppelin/contracts/access/Ownable.sol\":3052:3092  OwnershipTransferred(oldOwner, newOwner) */\n      log3\n        /* \"WalletContract.sol\":184:6079  contract WalletContract is LockableContract... */\n      stop\n    tag_26:\n      jumpi(tag_48, callvalue)\n      jumpi(tag_48, slt(add(not(0x03), calldatasize), 0x20))\n      sub(shl(0xa0, 0x01), 0x01)\n      tag_105\n      tag_2\n      jump\t// in\n    tag_105:\n      and\n      0x00\n      mstore\n        /* \"WalletContract.sol\":3917:3925  balances */\n      0x01\n        /* \"WalletContract.sol\":184:6079  contract WalletContract is LockableContract... */\n      0x20\n      mstore\n      keccak256(0x00, 0x40)\n      0x00\n      dup1\n      mstore\n      0x20\n      mstore\n      0x20\n      sload(keccak256(0x00, 0x40))\n      mload(0x40)\n      swap1\n      dup2\n      mstore\n      return\n    tag_24:\n      jumpi(tag_48, slt(add(not(0x03), calldatasize), 0x40))\n      tag_108\n      tag_2\n      jump\t// in\n    tag_108:\n      calldataload(0x24)\n      jumpi(tag_109, iszero(and(shr(0xa0, sload(0x00)), 0xff)))\n        /* \"WalletContract.sol\":1990:2000  amount > 0 */\n      dup1\n      iszero\n        /* \"WalletContract.sol\":184:6079  contract WalletContract is LockableContract... */\n      tag_111\n      jumpi\n        /* \"WalletContract.sol\":2140:2164  depositCommissionPercent */\n      0x02\n        /* \"WalletContract.sol\":184:6079  contract WalletContract is LockableContract... */\n      sload\n      mload(0x40)\n      swap1\n      shl(0xe0, 0x1c8f0847)\n        /* \"WalletContract.sol\":2110:2165  Percent.applyToNumber(amount, depositCommissionPercent) */\n      dup3\n      mstore\n      dup3\n        /* \"WalletContract.sol\":184:6079  contract WalletContract is LockableContract... */\n      0x04\n        /* \"WalletContract.sol\":2110:2165  Percent.applyToNumber(amount, depositCommissionPercent) */\n      dup4\n      add\n        /* \"WalletContract.sol\":184:6079  contract WalletContract is LockableContract... */\n      mstore\n      0x24\n      dup3\n      add\n      mstore\n      0x20\n        /* \"WalletContract.sol\":2110:2117  Percent */\n      dup2\n        /* \"WalletContract.sol\":2110:2165  Percent.applyToNumber(amount, depositCommissionPercent) */\n      0x44\n        /* \"WalletContract.sol\":2110:2117  Percent */\n      dup2\n      linkerSymbol(\"8537b7efa173772577da826929141ce9397d1aa5c05ce45dab4f7ac968e3002d\")\n        /* \"WalletContract.sol\":2110:2165  Percent.applyToNumber(amount, depositCommissionPercent) */\n      gas\n      delegatecall\n      swap1\n      dup2\n      iszero\n      tag_126\n      jumpi\n        /* \"WalletContract.sol\":184:6079  contract WalletContract is LockableContract... */\n      0x00\n        /* \"WalletContract.sol\":2110:2165  Percent.applyToNumber(amount, depositCommissionPercent) */\n      swap2\n      tag_115\n      jumpi\n        /* \"WalletContract.sol\":184:6079  contract WalletContract is LockableContract... */\n    tag_116:\n      pop\n      sub(shl(0xa0, 0x01), 0x01)\n      dup4\n      and\n      swap3\n        /* \"WalletContract.sol\":2266:2285  token == address(0) */\n      dup4\n        /* \"WalletContract.sol\":184:6079  contract WalletContract is LockableContract... */\n      tag_117\n      jumpi\n        /* \"WalletContract.sol\":2423:2442  amount + commission */\n      tag_119\n      dup3\n      dup5\n      tag_4\n      jump\t// in\n    tag_119:\n        /* \"WalletContract.sol\":2410:2419  msg.value */\n      callvalue\n        /* \"WalletContract.sol\":2410:2442  msg.value == amount + commission */\n      sub\n        /* \"WalletContract.sol\":184:6079  contract WalletContract is LockableContract... */\n      tag_120\n      jumpi\n        /* \"WalletContract.sol\":2515:2525  msg.sender */\n      dup2\n      dup2\n        /* \"WalletContract.sol\":2502:2541  addBalanceTo(msg.sender, token, amount) */\n      tag_122\n        /* \"WalletContract.sol\":2515:2525  msg.sender */\n      dup6\n        /* \"WalletContract.sol\":2556:2607  addBalanceTo(commissionRecipient,token, commission) */\n      tag_123\n        /* \"WalletContract.sol\":2515:2525  msg.sender */\n      swap5\n      caller\n        /* \"WalletContract.sol\":2502:2541  addBalanceTo(msg.sender, token, amount) */\n      tag_9\n      jump\t// in\n    tag_122:\n      pop\n        /* \"WalletContract.sol\":2569:2588  commissionRecipient */\n      0x03\n        /* \"WalletContract.sol\":184:6079  contract WalletContract is LockableContract... */\n      sload\n      sub(shl(0xa0, 0x01), 0x01)\n      and\n        /* \"WalletContract.sol\":2556:2607  addBalanceTo(commissionRecipient,token, commission) */\n      tag_9\n      jump\t// in\n    tag_123:\n      pop\n        /* \"WalletContract.sol\":2262:2908  if (token == address(0)) {... */\n    tag_124:\n        /* \"WalletContract.sol\":184:6079  contract WalletContract is LockableContract... */\n      mload(0x40)\n      swap2\n      dup3\n      mstore\n      0x20\n      dup3\n      add\n      mstore\n        /* \"WalletContract.sol\":2925:2970  Deposit(msg.sender, token,amount, commission) */\n      0xdcbc1c05240f31ff3ad067ef1ee35ce4997762752e3a095284754544f4c709d7\n        /* \"WalletContract.sol\":184:6079  contract WalletContract is LockableContract... */\n      0x40\n        /* \"WalletContract.sol\":2933:2943  msg.sender */\n      caller\n        /* \"WalletContract.sol\":2925:2970  Deposit(msg.sender, token,amount, commission) */\n      swap3\n      log3\n        /* \"WalletContract.sol\":184:6079  contract WalletContract is LockableContract... */\n      stop\n    tag_120:\n      mload(0x40)\n      shl(0xe5, 0x461bcd)\n      dup2\n      mstore\n      0x20\n      0x04\n      dup3\n      add\n      mstore\n      0x26\n      0x24\n      dup3\n      add\n      mstore\n      0x4d61696e6e657420746f6b656e206465706f73697420616d6f756e74206d6973\n        /* \"WalletContract.sol\":2110:2165  Percent.applyToNumber(amount, depositCommissionPercent) */\n      0x44\n        /* \"WalletContract.sol\":184:6079  contract WalletContract is LockableContract... */\n      dup3\n      add\n      mstore\n      shl(0xd1, 0x36b0ba31b417)\n      0x64\n      dup3\n      add\n      mstore\n      0x84\n      swap1\n      revert\n        /* \"WalletContract.sol\":2262:2908  if (token == address(0)) {... */\n    tag_117:\n        /* \"WalletContract.sol\":2702:2721  amount + commission */\n      tag_125\n      dup3\n      dup5\n      tag_4\n      jump\t// in\n    tag_125:\n        /* \"WalletContract.sol\":184:6079  contract WalletContract is LockableContract... */\n      mload(0x40)\n      swap1\n      shl(0xe0, 0x23b872dd)\n        /* \"WalletContract.sol\":2648:2722  IERC20(token).transferFrom(msg.sender, address(this), amount + commission) */\n      dup3\n      mstore\n        /* \"WalletContract.sol\":2675:2685  msg.sender */\n      caller\n        /* \"WalletContract.sol\":184:6079  contract WalletContract is LockableContract... */\n      0x04\n        /* \"WalletContract.sol\":2648:2722  IERC20(token).transferFrom(msg.sender, address(this), amount + commission) */\n      dup4\n      add\n        /* \"WalletContract.sol\":184:6079  contract WalletContract is LockableContract... */\n      mstore\n        /* \"WalletContract.sol\":2695:2699  this */\n      address\n        /* \"WalletContract.sol\":184:6079  contract WalletContract is LockableContract... */\n      0x24\n      dup4\n      add\n      mstore\n        /* \"WalletContract.sol\":2110:2165  Percent.applyToNumber(amount, depositCommissionPercent) */\n      0x44\n        /* \"WalletContract.sol\":184:6079  contract WalletContract is LockableContract... */\n      dup3\n      add\n      mstore\n      0x20\n        /* \"WalletContract.sol\":2648:2722  IERC20(token).transferFrom(msg.sender, address(this), amount + commission) */\n      dup2\n      0x64\n      dup2\n        /* \"WalletContract.sol\":184:6079  contract WalletContract is LockableContract... */\n      0x00\n        /* \"WalletContract.sol\":2648:2722  IERC20(token).transferFrom(msg.sender, address(this), amount + commission) */\n      dup10\n      gas\n      call\n      swap1\n      dup2\n      iszero\n      tag_126\n      jumpi\n        /* \"WalletContract.sol\":184:6079  contract WalletContract is LockableContract... */\n      0x00\n        /* \"WalletContract.sol\":2648:2722  IERC20(token).transferFrom(msg.sender, address(this), amount + commission) */\n      swap2\n      tag_128\n      jumpi\n        /* \"WalletContract.sol\":2262:2908  if (token == address(0)) {... */\n    tag_129:\n        /* \"WalletContract.sol\":184:6079  contract WalletContract is LockableContract... */\n      pop\n      iszero\n      tag_130\n      jumpi\n        /* \"WalletContract.sol\":2675:2685  msg.sender */\n      dup2\n      dup2\n        /* \"WalletContract.sol\":2791:2830  addBalanceTo(msg.sender, token, amount) */\n      tag_122\n        /* \"WalletContract.sol\":2675:2685  msg.sender */\n      dup6\n        /* \"WalletContract.sol\":2845:2896  addBalanceTo(commissionRecipient,token, commission) */\n      tag_133\n        /* \"WalletContract.sol\":2675:2685  msg.sender */\n      swap5\n      caller\n        /* \"WalletContract.sol\":2791:2830  addBalanceTo(msg.sender, token, amount) */\n      tag_9\n      jump\t// in\n        /* \"WalletContract.sol\":2845:2896  addBalanceTo(commissionRecipient,token, commission) */\n    tag_133:\n      pop\n        /* \"WalletContract.sol\":2262:2908  if (token == address(0)) {... */\n      jump(tag_124)\n        /* \"WalletContract.sol\":184:6079  contract WalletContract is LockableContract... */\n    tag_130:\n      mload(0x40)\n      shl(0xe5, 0x461bcd)\n      dup2\n      mstore\n      0x20\n      0x04\n      dup3\n      add\n      mstore\n      0x2f\n      0x24\n      dup3\n      add\n      mstore\n      0x436f6e74726163742068617320746f6f206c6f7720616c6c6f77616e63652074\n        /* \"WalletContract.sol\":2110:2165  Percent.applyToNumber(amount, depositCommissionPercent) */\n      0x44\n        /* \"WalletContract.sol\":184:6079  contract WalletContract is LockableContract... */\n      dup3\n      add\n      mstore\n      shl(0x88, 0x6f20726563656976652066756e6473)\n        /* \"WalletContract.sol\":2648:2722  IERC20(token).transferFrom(msg.sender, address(this), amount + commission) */\n      0x64\n        /* \"WalletContract.sol\":184:6079  contract WalletContract is LockableContract... */\n      dup3\n      add\n      mstore\n      0x84\n      swap1\n      revert\n        /* \"WalletContract.sol\":2648:2722  IERC20(token).transferFrom(msg.sender, address(this), amount + commission) */\n    tag_128:\n      tag_134\n      swap2\n      pop\n        /* \"WalletContract.sol\":184:6079  contract WalletContract is LockableContract... */\n      0x20\n        /* \"WalletContract.sol\":2648:2722  IERC20(token).transferFrom(msg.sender, address(this), amount + commission) */\n      returndatasize\n        /* \"WalletContract.sol\":184:6079  contract WalletContract is LockableContract... */\n      0x20\n        /* \"WalletContract.sol\":2648:2722  IERC20(token).transferFrom(msg.sender, address(this), amount + commission) */\n      gt\n      tag_135\n      jumpi\n    tag_136:\n      tag_137\n      dup2\n      dup4\n      tag_3\n      jump\t// in\n    tag_137:\n      dup2\n      add\n      swap1\n      tag_5\n      jump\t// in\n    tag_134:\n      dup6\n      jump(tag_129)\n    tag_135:\n      pop\n      returndatasize\n      jump(tag_136)\n    tag_126:\n        /* \"WalletContract.sol\":184:6079  contract WalletContract is LockableContract... */\n      mload(0x40)\n      returndatasize\n      0x00\n      dup3\n      returndatacopy\n      returndatasize\n      swap1\n      revert\n        /* \"WalletContract.sol\":2110:2165  Percent.applyToNumber(amount, depositCommissionPercent) */\n    tag_115:\n      swap1\n      pop\n        /* \"WalletContract.sol\":184:6079  contract WalletContract is LockableContract... */\n      0x20\n        /* \"WalletContract.sol\":2110:2165  Percent.applyToNumber(amount, depositCommissionPercent) */\n      dup2\n      returndatasize\n        /* \"WalletContract.sol\":184:6079  contract WalletContract is LockableContract... */\n      0x20\n        /* \"WalletContract.sol\":2110:2165  Percent.applyToNumber(amount, depositCommissionPercent) */\n      gt\n      tag_138\n      jumpi\n    tag_139:\n      dup2\n      tag_140\n        /* \"WalletContract.sol\":184:6079  contract WalletContract is LockableContract... */\n      0x20\n        /* \"WalletContract.sol\":2110:2165  Percent.applyToNumber(amount, depositCommissionPercent) */\n      swap4\n      dup4\n      tag_3\n      jump\t// in\n    tag_140:\n      dup2\n      add\n        /* \"WalletContract.sol\":184:6079  contract WalletContract is LockableContract... */\n      sub\n      slt\n      tag_48\n      jumpi\n      mload\n        /* \"WalletContract.sol\":2110:2165  Percent.applyToNumber(amount, depositCommissionPercent) */\n      dup4\n      jump(tag_116)\n    tag_138:\n      returndatasize\n      swap2\n      pop\n      jump(tag_139)\n        /* \"WalletContract.sol\":184:6079  contract WalletContract is LockableContract... */\n    tag_111:\n      mload(0x40)\n      shl(0xe5, 0x461bcd)\n      dup2\n      mstore\n      0x20\n      0x04\n      dup3\n      add\n      mstore\n      0x26\n      0x24\n      dup3\n      add\n      mstore\n      0x4465706f73697420616d6f756e74206d75737420626520677265617465722074\n      0x44\n      dup3\n      add\n      mstore\n      shl(0xd1, 0x3430b7101817)\n      0x64\n      dup3\n      add\n      mstore\n      0x84\n      swap1\n      revert\n    tag_109:\n      mload(0x40)\n      shl(0xe5, 0x461bcd)\n      dup2\n      mstore\n      0x20\n      0x04\n      dup3\n      add\n      mstore\n      0x1e\n      0x24\n      dup3\n      add\n      mstore\n      0x436f6e74726163742069732063757272656e746c792064697361626c65640000\n      0x44\n      dup3\n      add\n      mstore\n      0x64\n      swap1\n      revert\n    tag_22:\n      jumpi(tag_48, callvalue)\n      jumpi(tag_48, slt(add(not(0x03), calldatasize), 0x00))\n      0x20\n      and(shr(0xa0, sload(0x00)), 0xff)\n      mload(0x40)\n      swap1\n      iszero\n      iszero\n      dup2\n      mstore\n      return\n    tag_20:\n      jumpi(tag_48, callvalue)\n      jumpi(tag_48, slt(add(not(0x03), calldatasize), 0x20))\n      calldataload(0x04)\n        /* \"WalletContract.sol\":1761:1785  depositCommissionPercent */\n      0x02\n        /* \"WalletContract.sol\":184:6079  contract WalletContract is LockableContract... */\n      sload\n      mload(0x40)\n      swap1\n      shl(0xe0, 0x1c8f0847)\n        /* \"WalletContract.sol\":1731:1786  Percent.applyToNumber(amount, depositCommissionPercent) */\n      dup3\n      mstore\n      dup3\n        /* \"WalletContract.sol\":184:6079  contract WalletContract is LockableContract... */\n      0x04\n        /* \"WalletContract.sol\":1731:1786  Percent.applyToNumber(amount, depositCommissionPercent) */\n      dup4\n      add\n        /* \"WalletContract.sol\":184:6079  contract WalletContract is LockableContract... */\n      mstore\n      0x24\n      dup3\n      add\n      mstore\n      0x20\n        /* \"WalletContract.sol\":1731:1738  Percent */\n      dup2\n        /* \"WalletContract.sol\":1731:1786  Percent.applyToNumber(amount, depositCommissionPercent) */\n      0x44\n        /* \"WalletContract.sol\":1731:1738  Percent */\n      dup2\n      linkerSymbol(\"8537b7efa173772577da826929141ce9397d1aa5c05ce45dab4f7ac968e3002d\")\n        /* \"WalletContract.sol\":1731:1786  Percent.applyToNumber(amount, depositCommissionPercent) */\n      gas\n      delegatecall\n      swap1\n      dup2\n      iszero\n      tag_126\n      jumpi\n        /* \"WalletContract.sol\":184:6079  contract WalletContract is LockableContract... */\n      0x00\n        /* \"WalletContract.sol\":1731:1786  Percent.applyToNumber(amount, depositCommissionPercent) */\n      swap2\n      tag_153\n      jumpi\n        /* \"WalletContract.sol\":184:6079  contract WalletContract is LockableContract... */\n    tag_154:\n      0x20\n        /* \"WalletContract.sol\":1804:1823  amount + commission */\n      tag_155\n      dup4\n      dup6\n      tag_4\n      jump\t// in\n    tag_155:\n        /* \"WalletContract.sol\":184:6079  contract WalletContract is LockableContract... */\n      mload(0x40)\n      swap1\n      dup2\n      mstore\n      return\n        /* \"WalletContract.sol\":1731:1786  Percent.applyToNumber(amount, depositCommissionPercent) */\n    tag_153:\n      swap1\n      pop\n        /* \"WalletContract.sol\":184:6079  contract WalletContract is LockableContract... */\n      0x20\n        /* \"WalletContract.sol\":1731:1786  Percent.applyToNumber(amount, depositCommissionPercent) */\n      dup2\n      returndatasize\n        /* \"WalletContract.sol\":184:6079  contract WalletContract is LockableContract... */\n      0x20\n        /* \"WalletContract.sol\":1731:1786  Percent.applyToNumber(amount, depositCommissionPercent) */\n      gt\n      tag_156\n      jumpi\n    tag_157:\n      dup2\n      tag_158\n        /* \"WalletContract.sol\":184:6079  contract WalletContract is LockableContract... */\n      0x20\n        /* \"WalletContract.sol\":1731:1786  Percent.applyToNumber(amount, depositCommissionPercent) */\n      swap4\n      dup4\n      tag_3\n      jump\t// in\n    tag_158:\n      dup2\n      add\n        /* \"WalletContract.sol\":184:6079  contract WalletContract is LockableContract... */\n      sub\n      slt\n      tag_48\n      jumpi\n      mload\n      0x20\n        /* \"WalletContract.sol\":1731:1786  Percent.applyToNumber(amount, depositCommissionPercent) */\n      jump(tag_154)\n    tag_156:\n      returndatasize\n      swap2\n      pop\n      jump(tag_157)\n        /* \"WalletContract.sol\":184:6079  contract WalletContract is LockableContract... */\n    tag_18:\n      jumpi(tag_48, callvalue)\n      jumpi(tag_48, slt(add(not(0x03), calldatasize), 0x00))\n        /* \"@openzeppelin/contracts/access/Ownable.sol\":1500:1562  modifier onlyOwner() {... */\n      tag_165\n      tag_8\n      jump\t// in\n    tag_165:\n        /* \"WalletContract.sol\":184:6079  contract WalletContract is LockableContract... */\n      0x00\n      dup1\n      sload\n      not(shl(0xa0, 0xff))\n      and\n      shl(0xa0, 0x01)\n      or\n      swap1\n      sstore\n      mload(0x40)\n      0x01\n      dup2\n      mstore\n        /* \"LockableContract.sol\":824:851  ContractStatusChanged(true) */\n      0x017904e4fe7d59bb4603c7c045bc275a05da9ea3a4ac007fc80fffeaf119186d\n      swap1\n        /* \"WalletContract.sol\":184:6079  contract WalletContract is LockableContract... */\n      0x20\n      swap1\n        /* \"LockableContract.sol\":824:851  ContractStatusChanged(true) */\n      log1\n        /* \"LockableContract.sol\":883:893  msg.sender */\n      caller\n        /* \"LockableContract.sol\":867:894  ContractEnabled(msg.sender) */\n      0xae81c15a680e6640ba872ca44f364ad67c60a04089ad9fa100f7a3ce94da9f68\n        /* \"WalletContract.sol\":184:6079  contract WalletContract is LockableContract... */\n      0x00\n        /* \"LockableContract.sol\":867:894  ContractEnabled(msg.sender) */\n      dup1\n      log2\n        /* \"WalletContract.sol\":184:6079  contract WalletContract is LockableContract... */\n      stop\n    tag_16:\n      jumpi(tag_48, callvalue)\n      jumpi(tag_48, slt(add(not(0x03), calldatasize), 0x40))\n      calldataload(0x04)\n      tag_170\n      tag_1\n      jump\t// in\n    tag_170:\n        /* \"@openzeppelin/contracts/access/Ownable.sol\":1500:1562  modifier onlyOwner() {... */\n      tag_171\n      tag_8\n      jump\t// in\n    tag_171:\n      sub(shl(0xa0, 0x01), 0x01)\n        /* \"WalletContract.sol\":184:6079  contract WalletContract is LockableContract... */\n      and\n        /* \"WalletContract.sol\":4341:4367  newRecipient != address(0) */\n      dup1\n      iszero\n        /* \"WalletContract.sol\":184:6079  contract WalletContract is LockableContract... */\n      tag_172\n      jumpi\n        /* \"Percent.sol\":200:206  10**10 */\n      0x02540be400\n        /* \"WalletContract.sol\":4438:4478  newCommissionPercent <= Percent.MAXVALUE */\n      dup3\n      gt\n        /* \"Percent.sol\":156:161  SCALE */\n      tag_174\n      jumpi\n      dup2\n        /* \"WalletContract.sol\":184:6079  contract WalletContract is LockableContract... */\n      0x40\n        /* \"Percent.sol\":156:161  SCALE */\n      swap2\n        /* \"WalletContract.sol\":4639:4692  CommissionChanged(newCommissionPercent, newRecipient) */\n      0x14bdaadaed0453e7b5b66195b42156ba995b9e5abd0da98368839851d69ad889\n        /* \"Percent.sol\":156:161  SCALE */\n      swap4\n        /* \"WalletContract.sol\":4529:4576  depositCommissionPercent = newCommissionPercent */\n      0x02\n        /* \"Percent.sol\":156:161  SCALE */\n      sstore\n      dup1\n      shl(0xa0, 0xffffffffffffffffffffffff)\n        /* \"WalletContract.sol\":4587:4621  commissionRecipient = newRecipient */\n      0x03\n        /* \"Percent.sol\":156:161  SCALE */\n      sload\n      and\n      or\n        /* \"WalletContract.sol\":4587:4621  commissionRecipient = newRecipient */\n      0x03\n        /* \"Percent.sol\":156:161  SCALE */\n      sstore\n        /* \"WalletContract.sol\":184:6079  contract WalletContract is LockableContract... */\n      dup3\n      mload\n      swap2\n      dup3\n      mstore\n      0x20\n        /* \"Percent.sol\":156:161  SCALE */\n      dup3\n      add\n        /* \"WalletContract.sol\":184:6079  contract WalletContract is LockableContract... */\n      mstore\n        /* \"WalletContract.sol\":4639:4692  CommissionChanged(newCommissionPercent, newRecipient) */\n      log1\n        /* \"WalletContract.sol\":184:6079  contract WalletContract is LockableContract... */\n      stop\n        /* \"Percent.sol\":156:161  SCALE */\n    tag_174:\n        /* \"WalletContract.sol\":184:6079  contract WalletContract is LockableContract... */\n      mload(0x40)\n      shl(0xe5, 0x461bcd)\n        /* \"Percent.sol\":156:161  SCALE */\n      dup2\n      mstore\n        /* \"WalletContract.sol\":184:6079  contract WalletContract is LockableContract... */\n      0x20\n      0x04\n        /* \"Percent.sol\":156:161  SCALE */\n      dup3\n      add\n      mstore\n      0x21\n        /* \"WalletContract.sol\":184:6079  contract WalletContract is LockableContract... */\n      0x24\n        /* \"Percent.sol\":156:161  SCALE */\n      dup3\n      add\n        /* \"WalletContract.sol\":184:6079  contract WalletContract is LockableContract... */\n      mstore\n        /* \"Percent.sol\":156:161  SCALE */\n      0x436f6d6d697373696f6e2070657263656e7461676520697320746f6f20686967\n        /* \"WalletContract.sol\":184:6079  contract WalletContract is LockableContract... */\n      0x44\n      dup3\n      add\n        /* \"Percent.sol\":156:161  SCALE */\n      mstore\n      shl(0xfb, 0x0d)\n      0x64\n      dup3\n      add\n      mstore\n      0x84\n      swap1\n      revert\n        /* \"WalletContract.sol\":184:6079  contract WalletContract is LockableContract... */\n    tag_172:\n      mload(0x40)\n      shl(0xe5, 0x461bcd)\n      dup2\n      mstore\n      0x20\n      0x04\n      dup3\n      add\n      mstore\n      0x2f\n      0x24\n      dup3\n      add\n      mstore\n      0x436f6d6d697373696f6e20726563697069656e742063616e6e6f742062652074\n      0x44\n      dup3\n      add\n      mstore\n      shl(0x88, 0x6865207a65726f2061646472657373)\n      0x64\n      dup3\n      add\n      mstore\n      0x84\n      swap1\n      revert\n    tag_14:\n      jumpi(tag_48, callvalue)\n      jumpi(tag_48, slt(add(not(0x03), calldatasize), 0x00))\n        /* \"WalletContract.sol\":567:601  address public commissionRecipient */\n      0x03\n        /* \"WalletContract.sol\":184:6079  contract WalletContract is LockableContract... */\n      sload\n      sub(shl(0xa0, 0x01), 0x01)\n      and\n      dup2\n      mstore\n      0x20\n      swap1\n      return\n    tag_1:\n      calldataload(0x24)\n      swap1\n      sub(shl(0xa0, 0x01), 0x01)\n      dup3\n      and\n      dup3\n      sub\n      tag_48\n      jumpi\n      jump\t// out\n    tag_2:\n      calldataload(0x04)\n      swap1\n      sub(shl(0xa0, 0x01), 0x01)\n      dup3\n      and\n      dup3\n      sub\n      tag_48\n      jumpi\n      jump\t// out\n    tag_3:\n      swap1\n      0x1f\n      dup1\n      not\n      swap2\n      add\n      and\n      dup2\n      add\n      swap1\n      dup2\n      lt\n      0xffffffffffffffff\n      dup3\n      gt\n      or\n      tag_184\n      jumpi\n      0x40\n      mstore\n      jump\t// out\n    tag_184:\n      mstore(0x00, shl(0xe0, 0x4e487b71))\n      mstore(0x04, 0x41)\n      revert(0x00, 0x24)\n    tag_4:\n      swap2\n      swap1\n      dup3\n      add\n      dup1\n      swap3\n      gt\n      tag_186\n      jumpi\n      jump\t// out\n    tag_186:\n      mstore(0x00, shl(0xe0, 0x4e487b71))\n      mstore(0x04, 0x11)\n      revert(0x00, 0x24)\n    tag_5:\n      swap1\n      dup2\n      0x20\n      swap2\n      sub\n      slt\n      tag_48\n      jumpi\n      mload\n      dup1\n      iszero\n      iszero\n      dup2\n      sub\n      tag_48\n      jumpi\n      swap1\n      jump\t// out\n    tag_6:\n      iszero\n      tag_192\n      jumpi\n      jump\t// out\n    tag_192:\n      mload(0x40)\n      shl(0xe5, 0x461bcd)\n      dup2\n      mstore\n      0x20\n      0x04\n      dup3\n      add\n      mstore\n      0x14\n      0x24\n      dup3\n      add\n      mstore\n      shl(0x60, 0x496e73756666696369656e742062616c616e6365)\n      0x44\n      dup3\n      add\n      mstore\n      0x64\n      swap1\n      revert\n    tag_7:\n      swap2\n      swap1\n      dup3\n      sub\n      swap2\n      dup3\n      gt\n      tag_186\n      jumpi\n      jump\t// out\n        /* \"@openzeppelin/contracts/access/Ownable.sol\":1796:1958  function _checkOwner() internal view virtual {... */\n    tag_8:\n        /* \"@openzeppelin/contracts/access/Ownable.sol\":1710:1716  _owner */\n      0x00\n        /* \"WalletContract.sol\":184:6079  contract WalletContract is LockableContract... */\n      sload\n      sub(shl(0xa0, 0x01), 0x01)\n      and\n        /* \"@openzeppelin/contracts/utils/Context.sol\":735:745  msg.sender */\n      caller\n        /* \"@openzeppelin/contracts/access/Ownable.sol\":1855:1878  owner() != _msgSender() */\n      sub\n        /* \"@openzeppelin/contracts/access/Ownable.sol\":1851:1952  if (owner() != _msgSender()) {... */\n      tag_196\n      jumpi\n        /* \"@openzeppelin/contracts/access/Ownable.sol\":1796:1958  function _checkOwner() internal view virtual {... */\n      jump\t// out\n        /* \"@openzeppelin/contracts/access/Ownable.sol\":1851:1952  if (owner() != _msgSender()) {... */\n    tag_196:\n        /* \"@openzeppelin/contracts/access/Ownable.sol\":1901:1941  OwnableUnauthorizedAccount(_msgSender()) */\n      shl(0xe0, 0x118cdaa7)\n        /* \"@openzeppelin/contracts/access/Ownable.sol\":1710:1716  _owner */\n      0x00\n        /* \"@openzeppelin/contracts/access/Ownable.sol\":1901:1941  OwnableUnauthorizedAccount(_msgSender()) */\n      mstore\n        /* \"@openzeppelin/contracts/utils/Context.sol\":735:745  msg.sender */\n      caller\n        /* \"@openzeppelin/contracts/access/Ownable.sol\":1901:1941  OwnableUnauthorizedAccount(_msgSender()) */\n      0x04\n        /* \"WalletContract.sol\":184:6079  contract WalletContract is LockableContract... */\n      mstore\n      0x24\n        /* \"@openzeppelin/contracts/access/Ownable.sol\":1710:1716  _owner */\n      0x00\n        /* \"@openzeppelin/contracts/access/Ownable.sol\":1901:1941  OwnableUnauthorizedAccount(_msgSender()) */\n      revert\n        /* \"WalletContract.sol\":5386:5668  function addBalanceTo(address to, address token, uint amount) internal returns (bool){... */\n    tag_9:\n        /* \"WalletContract.sol\":5485:5496  amount <= 0 */\n      dup3\n      iszero\n        /* \"WalletContract.sol\":5482:5522  if(amount <= 0)... */\n      tag_198\n      jumpi\n        /* \"WalletContract.sol\":5590:5628  Transfer(address(0), to,token, amount) */\n      0xd1398bee19313d6bf672ccb116e51f4a1a947e91c757907f51fbb5b5e56c698f\n        /* \"WalletContract.sol\":184:6079  contract WalletContract is LockableContract... */\n      0x20\n      0x00\n      swap3\n      0x01\n      dup1\n      0xa0\n      shl\n      sub\n      and\n      swap4\n      dup5\n      dup5\n      mstore\n        /* \"WalletContract.sol\":5535:5543  balances */\n      0x01\n        /* \"WalletContract.sol\":184:6079  contract WalletContract is LockableContract... */\n      dup3\n      mstore\n      0x40\n      dup5\n      keccak256\n      0x01\n      dup1\n      0xa0\n      shl\n      sub\n      dup3\n      and\n      dup6\n      mstore\n      dup3\n      mstore\n      0x40\n      dup5\n      keccak256\n        /* \"WalletContract.sol\":5535:5564  balances[to][token] += amount */\n      tag_200\n        /* \"WalletContract.sol\":184:6079  contract WalletContract is LockableContract... */\n      dup8\n      dup3\n      sload\n        /* \"WalletContract.sol\":5535:5564  balances[to][token] += amount */\n      tag_4\n      jump\t// in\n    tag_200:\n        /* \"Percent.sol\":156:161  SCALE */\n      swap1\n      sstore\n        /* \"WalletContract.sol\":184:6079  contract WalletContract is LockableContract... */\n      mload(0x40)\n      swap6\n      dup7\n      mstore\n      sub(shl(0xa0, 0x01), 0x01)\n      and\n      swap5\n        /* \"WalletContract.sol\":5590:5628  Transfer(address(0), to,token, amount) */\n      log4\n        /* \"WalletContract.sol\":5535:5543  balances */\n      0x01\n        /* \"WalletContract.sol\":5386:5668  function addBalanceTo(address to, address token, uint amount) internal returns (bool){... */\n      swap1\n      jump\t// out\n        /* \"WalletContract.sol\":5482:5522  if(amount <= 0)... */\n    tag_198:\n        /* \"WalletContract.sol\":5511:5522  return true */\n      pop\n      pop\n      pop\n        /* \"WalletContract.sol\":5518:5522  true */\n      0x01\n        /* \"WalletContract.sol\":5511:5522  return true */\n      swap1\n      jump\t// out\n        /* \"WalletContract.sol\":5708:6075  function removeBalanceFrom(address from, address token, uint amount) internal returns (bool){... */\n    tag_10:\n        /* \"WalletContract.sol\":5814:5825  amount <= 0 */\n      dup3\n      iszero\n        /* \"WalletContract.sol\":5811:5851  if(amount <= 0)... */\n      tag_198\n      jumpi\n        /* \"WalletContract.sol\":184:6079  contract WalletContract is LockableContract... */\n      0x01\n      dup1\n      0xa0\n      shl\n      sub\n      and\n      swap1\n      dup2\n      0x00\n      mstore\n        /* \"WalletContract.sol\":5867:5875  balances */\n      0x01\n        /* \"WalletContract.sol\":184:6079  contract WalletContract is LockableContract... */\n      0x20\n      mstore\n      keccak256(0x00, 0x40)\n      0x01\n      dup1\n      0xa0\n      shl\n      sub\n      dup3\n      and\n      0x00\n      mstore\n      0x20\n      mstore\n      dup3\n      sload(keccak256(0x00, 0x40))\n        /* \"WalletContract.sol\":5867:5897  balances[from][token] < amount */\n      lt\n        /* \"WalletContract.sol\":5864:5924  if(balances[from][token] < amount)... */\n      tag_203\n      jumpi\n        /* \"WalletContract.sol\":5994:6035  Transfer(address(0), from, token, amount) */\n      0xd1398bee19313d6bf672ccb116e51f4a1a947e91c757907f51fbb5b5e56c698f\n        /* \"WalletContract.sol\":184:6079  contract WalletContract is LockableContract... */\n      0x20\n      0x00\n      swap3\n      dup5\n      dup5\n      mstore\n        /* \"WalletContract.sol\":5867:5875  balances */\n      0x01\n        /* \"WalletContract.sol\":184:6079  contract WalletContract is LockableContract... */\n      dup3\n      mstore\n      0x40\n      dup5\n      keccak256\n      0x01\n      dup1\n      0xa0\n      shl\n      sub\n      dup3\n      and\n      dup6\n      mstore\n      dup3\n      mstore\n      0x40\n      dup5\n      keccak256\n        /* \"WalletContract.sol\":5937:5968  balances[from][token] -= amount */\n      tag_200\n        /* \"WalletContract.sol\":184:6079  contract WalletContract is LockableContract... */\n      dup8\n      dup3\n      sload\n        /* \"WalletContract.sol\":5937:5968  balances[from][token] -= amount */\n      tag_7\n      jump\t// in\n        /* \"WalletContract.sol\":5864:5924  if(balances[from][token] < amount)... */\n    tag_203:\n        /* \"WalletContract.sol\":5912:5924  return false */\n      pop\n      pop\n      pop\n        /* \"WalletContract.sol\":184:6079  contract WalletContract is LockableContract... */\n      0x00\n        /* \"WalletContract.sol\":5912:5924  return false */\n      swap1\n      jump\t// out\n        /* \"WalletContract.sol\":4742:5349  function withdrawFromContractTo(address to, address token, uint amount) internal returns (bool){... */\n    tag_11:\n      swap2\n      swap1\n        /* \"WalletContract.sol\":4851:4862  amount <= 0 */\n      dup2\n      iszero\n        /* \"WalletContract.sol\":4848:4926  if(amount <= 0) // skip zero withdrawals as complited... */\n      tag_198\n      jumpi\n      sub(shl(0xa0, 0x01), 0x01)\n        /* \"WalletContract.sol\":184:6079  contract WalletContract is LockableContract... */\n      and\n      swap2\n        /* \"WalletContract.sol\":5022:5041  token == address(0) */\n      dup3\n        /* \"WalletContract.sol\":184:6079  contract WalletContract is LockableContract... */\n      tag_208\n      jumpi\n      0x00\n      dup1\n      dup1\n      dup1\n      dup6\n      sub(shl(0xa0, 0x01), 0x01)\n      dup7\n      and\n      dup3\n        /* \"WalletContract.sol\":5058:5086  payable(to).transfer(amount) */\n      call\n      iszero\n      tag_126\n      jumpi\n        /* \"WalletContract.sol\":184:6079  contract WalletContract is LockableContract... */\n      0x20\n        /* \"WalletContract.sol\":5280:5309  Withdrawal(to, token, amount) */\n      0x2717ead6b9200dd235aad468c9809ea400fe33ac69b5bfaa6d3e90fc922b6398\n        /* \"WalletContract.sol\":5018:5229  if (token == address(0)) {... */\n      swap2\n    tag_212:\n        /* \"WalletContract.sol\":184:6079  contract WalletContract is LockableContract... */\n      mload(0x40)\n      swap4\n      dup5\n      mstore\n      sub(shl(0xa0, 0x01), 0x01)\n      and\n      swap3\n        /* \"WalletContract.sol\":5280:5309  Withdrawal(to, token, amount) */\n      log3\n        /* \"WalletContract.sol\":5329:5333  true */\n      0x01\n        /* \"WalletContract.sol\":4742:5349  function withdrawFromContractTo(address to, address token, uint amount) internal returns (bool){... */\n      swap1\n      jump\t// out\n        /* \"WalletContract.sol\":5018:5229  if (token == address(0)) {... */\n    tag_208:\n        /* \"WalletContract.sol\":184:6079  contract WalletContract is LockableContract... */\n      mload(0x40)\n      shl(0xe0, 0xa9059cbb)\n        /* \"WalletContract.sol\":5183:5217  IERC20(token).transfer(to, amount) */\n      dup2\n      mstore\n      sub(shl(0xa0, 0x01), 0x01)\n        /* \"WalletContract.sol\":184:6079  contract WalletContract is LockableContract... */\n      dup3\n      and\n        /* \"WalletContract.sol\":5183:5217  IERC20(token).transfer(to, amount) */\n      0x04\n      dup3\n      add\n        /* \"WalletContract.sol\":184:6079  contract WalletContract is LockableContract... */\n      mstore\n      0x24\n      dup2\n      add\n      dup4\n      swap1\n      mstore\n      swap1\n      0x20\n      dup3\n        /* \"WalletContract.sol\":5183:5217  IERC20(token).transfer(to, amount) */\n      0x44\n        /* \"WalletContract.sol\":184:6079  contract WalletContract is LockableContract... */\n      dup2\n      0x00\n        /* \"WalletContract.sol\":5183:5217  IERC20(token).transfer(to, amount) */\n      dup9\n      gas\n      call\n      swap1\n      dup2\n      iszero\n      tag_126\n      jumpi\n        /* \"WalletContract.sol\":5280:5309  Withdrawal(to, token, amount) */\n      0x2717ead6b9200dd235aad468c9809ea400fe33ac69b5bfaa6d3e90fc922b6398\n        /* \"WalletContract.sol\":5183:5217  IERC20(token).transfer(to, amount) */\n      swap3\n        /* \"WalletContract.sol\":184:6079  contract WalletContract is LockableContract... */\n      0x20\n        /* \"WalletContract.sol\":5183:5217  IERC20(token).transfer(to, amount) */\n      swap3\n      tag_215\n      jumpi\n        /* \"WalletContract.sol\":5018:5229  if (token == address(0)) {... */\n    tag_216:\n      pop\n      jump(tag_212)\n        /* \"WalletContract.sol\":5183:5217  IERC20(token).transfer(to, amount) */\n    tag_215:\n      tag_217\n      swap1\n      dup4\n      returndatasize\n      dup6\n      gt\n      tag_135\n      jumpi\n      tag_137\n      dup2\n      dup4\n      tag_3\n      jump\t// in\n    tag_217:\n      pop\n      0x00\n      jump(tag_216)\n\n    auxdata: 0xa2646970667358221220d0b5f27d5577d4c931469f9475efade2af9ac8da12c3fcd82f9308524ddbcb5164736f6c634300081c0033\n}\n",
				"bytecode": {
					"linkReferences": {
						"Percent.sol": {
							"Percent": [
								{
									"length": 20,
									"start": 1626
								},
								{
									"length": 20,
									"start": 2404
								}
							]
						}
					},
					"object": "6080346101a657601f610edc38819003918201601f19168301916001600160401b038311848410176101aa5780849260409485528339810103126101a65780516020909101516001600160a01b03811691908290036101a6573315610193575f80546040519133906001600160a01b038316907f8be0079c531659141344cd1fd0a4f28419497f9722a3daafe3b4186f6b6457e09080a36001600160a81b0319163360ff60a01b191617600160a01b175f55821561013957506402540be40081116100ea57600255600380546001600160a01b031916919091179055604051610d1d90816101bf8239f35b60405162461bcd60e51b815260206004820152602160248201527f436f6d6d697373696f6e2070657263656e7461676520697320746f6f206869676044820152600d60fb1b6064820152608490fd5b62461bcd60e51b815260206004820152602f60248201527f436f6d6d697373696f6e20726563697069656e742063616e6e6f74206265207460448201526e6865207a65726f206164647265737360881b6064820152608490fd5b631e4fbdf760e01b5f525f60045260245ffd5b5f80fd5b634e487b7160e01b5f52604160045260245ffdfe6080806040526004361015610012575f80fd5b5f3560e01c90816306fd154a146109c75750806315f8a3141461088d578063367edd321461080f57806339b3edb01461076d57806341b3a0d91461074957806347e7ef241461044d57806370a082311461040b578063715018a6146103b4578063894ba83314610340578063899a3ffd146103235780638da5cb5b146102fc578063beabacc81461020b578063c23f001f146100cc578063f2fde38b14610186578063f3fef3a3146101205763f7888aec146100cc575f80fd5b3461011c57604036600319011261011c576100e5610a00565b6100ed6109ea565b6001600160a01b039182165f908152600160209081526040808320949093168252928352819020549051908152f35b5f80fd5b3461011c57604036600319011261011c57602061017c61013e610a00565b60243590335f526001845260405f2060018060a01b0382165f52845261016a8260405f20541015610a85565b610175828233610b76565b5033610bfd565b6040519015158152f35b3461011c57602036600319011261011c5761019f610a00565b6101a7610ad5565b6001600160a01b031680156101f8575f80546001600160a01b03198116831782556001600160a01b0316907f8be0079c531659141344cd1fd0a4f28419497f9722a3daafe3b4186f6b6457e09080a3005b631e4fbdf760e01b5f525f60045260245ffd5b3461011c57606036600319011261011c57610224610a00565b61022c6109ea565b60443591335f52600160205260405f2060018060a01b0383165f5260205261025a8360405f20541015610a85565b335f52600160205260405f2060018060a01b0383165f5260205260405f20610283848254610ac8565b905560018060a01b031690815f52600160205260405f2060018060a01b0382165f5260205260405f206102b7848254610a4c565b90556040519283526001600160a01b03169133907fd1398bee19313d6bf672ccb116e51f4a1a947e91c757907f51fbb5b5e56c698f90602090a4602060405160018152f35b3461011c575f36600319011261011c575f546040516001600160a01b039091168152602090f35b3461011c575f36600319011261011c576020600254604051908152f35b3461011c575f36600319011261011c57610358610ad5565b60ff60a01b195f54165f557f017904e4fe7d59bb4603c7c045bc275a05da9ea3a4ac007fc80fffeaf119186d60206040515f8152a1337f793bc6423dd0257d64f9d47db72fd4b2162f4541aa41740ba1c5fb5e2cd41bcd5f80a2005b3461011c575f36600319011261011c576103cc610ad5565b5f80546001600160a01b0319811682556001600160a01b03167f8be0079c531659141344cd1fd0a4f28419497f9722a3daafe3b4186f6b6457e08280a3005b3461011c57602036600319011261011c576001600160a01b0361042c610a00565b165f52600160205260405f205f8052602052602060405f2054604051908152f35b604036600319011261011c57610461610a00565b60243560ff5f5460a01c16156107045780156106b05760025460405190631c8f084760e01b8252826004830152602482015260208160448173__$8537b7efa173772577da826929141ce939$__5af4908115610673575f9161067e575b506001600160a01b038316928361058a576104d98284610a4c565b34036105365781816104ef856105019433610afb565b506003546001600160a01b0316610afb565b505b60405191825260208201527fdcbc1c05240f31ff3ad067ef1ee35ce4997762752e3a095284754544f4c709d760403392a3005b60405162461bcd60e51b815260206004820152602660248201527f4d61696e6e657420746f6b656e206465706f73697420616d6f756e74206d697360448201526536b0ba31b41760d11b6064820152608490fd5b6105948284610a4c565b604051906323b872dd60e01b825233600483015230602483015260448201526020816064815f895af1908115610673575f91610644575b50156105e75781816104ef856105e19433610afb565b50610503565b60405162461bcd60e51b815260206004820152602f60248201527f436f6e74726163742068617320746f6f206c6f7720616c6c6f77616e6365207460448201526e6f20726563656976652066756e647360881b6064820152608490fd5b610666915060203d60201161066c575b61065e8183610a16565b810190610a6d565b856105cb565b503d610654565b6040513d5f823e3d90fd5b90506020813d6020116106a8575b8161069960209383610a16565b8101031261011c5751836104be565b3d915061068c565b60405162461bcd60e51b815260206004820152602660248201527f4465706f73697420616d6f756e74206d757374206265206772656174657220746044820152653430b710181760d11b6064820152608490fd5b60405162461bcd60e51b815260206004820152601e60248201527f436f6e74726163742069732063757272656e746c792064697361626c656400006044820152606490fd5b3461011c575f36600319011261011c57602060ff5f5460a01c166040519015158152f35b3461011c57602036600319011261011c5760043560025460405190631c8f084760e01b8252826004830152602482015260208160448173__$8537b7efa173772577da826929141ce939$__5af4908115610673575f916107dc575b60206107d48385610a4c565b604051908152f35b90506020813d602011610807575b816107f760209383610a16565b8101031261011c575160206107c8565b3d91506107ea565b3461011c575f36600319011261011c57610827610ad5565b5f805460ff60a01b1916600160a01b179055604051600181527f017904e4fe7d59bb4603c7c045bc275a05da9ea3a4ac007fc80fffeaf119186d90602090a1337fae81c15a680e6640ba872ca44f364ad67c60a04089ad9fa100f7a3ce94da9f685f80a2005b3461011c57604036600319011261011c576004356108a96109ea565b6108b1610ad5565b6001600160a01b0316801561096a576402540be400821161091b57816040917f14bdaadaed0453e7b5b66195b42156ba995b9e5abd0da98368839851d69ad88993600255806bffffffffffffffffffffffff60a01b600354161760035582519182526020820152a1005b60405162461bcd60e51b815260206004820152602160248201527f436f6d6d697373696f6e2070657263656e7461676520697320746f6f206869676044820152600d60fb1b6064820152608490fd5b60405162461bcd60e51b815260206004820152602f60248201527f436f6d6d697373696f6e20726563697069656e742063616e6e6f74206265207460448201526e6865207a65726f206164647265737360881b6064820152608490fd5b3461011c575f36600319011261011c576003546001600160a01b03168152602090f35b602435906001600160a01b038216820361011c57565b600435906001600160a01b038216820361011c57565b90601f8019910116810190811067ffffffffffffffff821117610a3857604052565b634e487b7160e01b5f52604160045260245ffd5b91908201809211610a5957565b634e487b7160e01b5f52601160045260245ffd5b9081602091031261011c5751801515810361011c5790565b15610a8c57565b60405162461bcd60e51b8152602060048201526014602482015273496e73756666696369656e742062616c616e636560601b6044820152606490fd5b91908203918211610a5957565b5f546001600160a01b03163303610ae857565b63118cdaa760e01b5f523360045260245ffd5b8215610b6e577fd1398bee19313d6bf672ccb116e51f4a1a947e91c757907f51fbb5b5e56c698f60205f9260018060a01b031693848452600182526040842060018060a01b0382168552825260408420610b56878254610a4c565b90556040519586526001600160a01b031694a4600190565b505050600190565b8215610b6e5760018060a01b031690815f52600160205260405f2060018060a01b0382165f526020528260405f205410610bf6577fd1398bee19313d6bf672ccb116e51f4a1a947e91c757907f51fbb5b5e56c698f60205f92848452600182526040842060018060a01b0382168552825260408420610b56878254610ac8565b5050505f90565b91908115610b6e576001600160a01b03169182610c65575f808080856001600160a01b03861682f1156106735760207f2717ead6b9200dd235aad468c9809ea400fe33ac69b5bfaa6d3e90fc922b6398915b6040519384526001600160a01b031692a3600190565b60405163a9059cbb60e01b81526001600160a01b038216600482015260248101839052906020826044815f885af1908115610673577f2717ead6b9200dd235aad468c9809ea400fe33ac69b5bfaa6d3e90fc922b639892602092610cca575b50610c4f565b610ce090833d851161066c5761065e8183610a16565b505f610cc456fea2646970667358221220d0b5f27d5577d4c931469f9475efade2af9ac8da12c3fcd82f9308524ddbcb5164736f6c634300081c0033",
					"opcodes": "PUSH1 0x80 CALLVALUE PUSH2 0x1A6 JUMPI PUSH1 0x1F PUSH2 0xEDC CODESIZE DUP2 SWAP1 SUB SWAP2 DUP3 ADD PUSH1 0x1F NOT AND DUP4 ADD SWAP2 PUSH1 0x1 PUSH1 0x1 PUSH1 0x40 SHL SUB DUP4 GT DUP5 DUP5 LT OR PUSH2 0x1AA JUMPI DUP1 DUP5 SWAP3 PUSH1 0x40 SWAP5 DUP6 MSTORE DUP4 CODECOPY DUP2 ADD SUB SLT PUSH2 0x1A6 JUMPI DUP1 MLOAD PUSH1 0x20 SWAP1 SWAP2 ADD MLOAD PUSH1 0x1 PUSH1 0x1 PUSH1 0xA0 SHL SUB DUP2 AND SWAP2 SWAP1 DUP3 SWAP1 SUB PUSH2 0x1A6 JUMPI CALLER ISZERO PUSH2 0x193 JUMPI PUSH0 DUP1 SLOAD PUSH1 0x40 MLOAD SWAP2 CALLER SWAP1 PUSH1 0x1 PUSH1 0x1 PUSH1 0xA0 SHL SUB DUP4 AND SWAP1 PUSH32 0x8BE0079C531659141344CD1FD0A4F28419497F9722A3DAAFE3B4186F6B6457E0 SWAP1 DUP1 LOG3 PUSH1 0x1 PUSH1 0x1 PUSH1 0xA8 SHL SUB NOT AND CALLER PUSH1 0xFF PUSH1 0xA0 SHL NOT AND OR PUSH1 0x1 PUSH1 0xA0 SHL OR PUSH0 SSTORE DUP3 ISZERO PUSH2 0x139 JUMPI POP PUSH5 0x2540BE400 DUP2 GT PUSH2 0xEA JUMPI PUSH1 0x2 SSTORE PUSH1 0x3 DUP1 SLOAD PUSH1 0x1 PUSH1 0x1 PUSH1 0xA0 SHL SUB NOT AND SWAP2 SWAP1 SWAP2 OR SWAP1 SSTORE PUSH1 0x40 MLOAD PUSH2 0xD1D SWAP1 DUP2 PUSH2 0x1BF DUP3 CODECOPY RETURN JUMPDEST PUSH1 0x40 MLOAD PUSH3 0x461BCD PUSH1 0xE5 SHL DUP2 MSTORE PUSH1 0x20 PUSH1 0x4 DUP3 ADD MSTORE PUSH1 0x21 PUSH1 0x24 DUP3 ADD MSTORE PUSH32 0x436F6D6D697373696F6E2070657263656E7461676520697320746F6F20686967 PUSH1 0x44 DUP3 ADD MSTORE PUSH1 0xD PUSH1 0xFB SHL PUSH1 0x64 DUP3 ADD MSTORE PUSH1 0x84 SWAP1 REVERT JUMPDEST PUSH3 0x461BCD PUSH1 0xE5 SHL DUP2 MSTORE PUSH1 0x20 PUSH1 0x4 DUP3 ADD MSTORE PUSH1 0x2F PUSH1 0x24 DUP3 ADD MSTORE PUSH32 0x436F6D6D697373696F6E20726563697069656E742063616E6E6F742062652074 PUSH1 0x44 DUP3 ADD MSTORE PUSH15 0x6865207A65726F2061646472657373 PUSH1 0x88 SHL PUSH1 0x64 DUP3 ADD MSTORE PUSH1 0x84 SWAP1 REVERT JUMPDEST PUSH4 0x1E4FBDF7 PUSH1 0xE0 SHL PUSH0 MSTORE PUSH0 PUSH1 0x4 MSTORE PUSH1 0x24 PUSH0 REVERT JUMPDEST PUSH0 DUP1 REVERT JUMPDEST PUSH4 0x4E487B71 PUSH1 0xE0 SHL PUSH0 MSTORE PUSH1 0x41 PUSH1 0x4 MSTORE PUSH1 0x24 PUSH0 REVERT INVALID PUSH1 0x80 DUP1 PUSH1 0x40 MSTORE PUSH1 0x4 CALLDATASIZE LT ISZERO PUSH2 0x12 JUMPI PUSH0 DUP1 REVERT JUMPDEST PUSH0 CALLDATALOAD PUSH1 0xE0 SHR SWAP1 DUP2 PUSH4 0x6FD154A EQ PUSH2 0x9C7 JUMPI POP DUP1 PUSH4 0x15F8A314 EQ PUSH2 0x88D JUMPI DUP1 PUSH4 0x367EDD32 EQ PUSH2 0x80F JUMPI DUP1 PUSH4 0x39B3EDB0 EQ PUSH2 0x76D JUMPI DUP1 PUSH4 0x41B3A0D9 EQ PUSH2 0x749 JUMPI DUP1 PUSH4 0x47E7EF24 EQ PUSH2 0x44D JUMPI DUP1 PUSH4 0x70A08231 EQ PUSH2 0x40B JUMPI DUP1 PUSH4 0x715018A6 EQ PUSH2 0x3B4 JUMPI DUP1 PUSH4 0x894BA833 EQ PUSH2 0x340 JUMPI DUP1 PUSH4 0x899A3FFD EQ PUSH2 0x323 JUMPI DUP1 PUSH4 0x8DA5CB5B EQ PUSH2 0x2FC JUMPI DUP1 PUSH4 0xBEABACC8 EQ PUSH2 0x20B JUMPI DUP1 PUSH4 0xC23F001F EQ PUSH2 0xCC JUMPI DUP1 PUSH4 0xF2FDE38B EQ PUSH2 0x186 JUMPI DUP1 PUSH4 0xF3FEF3A3 EQ PUSH2 0x120 JUMPI PUSH4 0xF7888AEC EQ PUSH2 0xCC JUMPI PUSH0 DUP1 REVERT JUMPDEST CALLVALUE PUSH2 0x11C JUMPI PUSH1 0x40 CALLDATASIZE PUSH1 0x3 NOT ADD SLT PUSH2 0x11C JUMPI PUSH2 0xE5 PUSH2 0xA00 JUMP JUMPDEST PUSH2 0xED PUSH2 0x9EA JUMP JUMPDEST PUSH1 0x1 PUSH1 0x1 PUSH1 0xA0 SHL SUB SWAP2 DUP3 AND PUSH0 SWAP1 DUP2 MSTORE PUSH1 0x1 PUSH1 0x20 SWAP1 DUP2 MSTORE PUSH1 0x40 DUP1 DUP4 KECCAK256 SWAP5 SWAP1 SWAP4 AND DUP3 MSTORE SWAP3 DUP4 MSTORE DUP2 SWAP1 KECCAK256 SLOAD SWAP1 MLOAD SWAP1 DUP2 MSTORE RETURN JUMPDEST PUSH0 DUP1 REVERT JUMPDEST CALLVALUE PUSH2 0x11C JUMPI PUSH1 0x40 CALLDATASIZE PUSH1 0x3 NOT ADD SLT PUSH2 0x11C JUMPI PUSH1 0x20 PUSH2 0x17C PUSH2 0x13E PUSH2 0xA00 JUMP JUMPDEST PUSH1 0x24 CALLDATALOAD SWAP1 CALLER PUSH0 MSTORE PUSH1 0x1 DUP5 MSTORE PUSH1 0x40 PUSH0 KECCAK256 PUSH1 0x1 DUP1 PUSH1 0xA0 SHL SUB DUP3 AND PUSH0 MSTORE DUP5 MSTORE PUSH2 0x16A DUP3 PUSH1 0x40 PUSH0 KECCAK256 SLOAD LT ISZERO PUSH2 0xA85 JUMP JUMPDEST PUSH2 0x175 DUP3 DUP3 CALLER PUSH2 0xB76 JUMP JUMPDEST POP CALLER PUSH2 0xBFD JUMP JUMPDEST PUSH1 0x40 MLOAD SWAP1 ISZERO ISZERO DUP2 MSTORE RETURN JUMPDEST CALLVALUE PUSH2 0x11C JUMPI PUSH1 0x20 CALLDATASIZE PUSH1 0x3 NOT ADD SLT PUSH2 0x11C JUMPI PUSH2 0x19F PUSH2 0xA00 JUMP JUMPDEST PUSH2 0x1A7 PUSH2 0xAD5 JUMP JUMPDEST PUSH1 0x1 PUSH1 0x1 PUSH1 0xA0 SHL SUB AND DUP1 ISZERO PUSH2 0x1F8 JUMPI PUSH0 DUP1 SLOAD PUSH1 0x1 PUSH1 0x1 PUSH1 0xA0 SHL SUB NOT DUP2 AND DUP4 OR DUP3 SSTORE PUSH1 0x1 PUSH1 0x1 PUSH1 0xA0 SHL SUB AND SWAP1 PUSH32 0x8BE0079C531659141344CD1FD0A4F28419497F9722A3DAAFE3B4186F6B6457E0 SWAP1 DUP1 LOG3 STOP JUMPDEST PUSH4 0x1E4FBDF7 PUSH1 0xE0 SHL PUSH0 MSTORE PUSH0 PUSH1 0x4 MSTORE PUSH1 0x24 PUSH0 REVERT JUMPDEST CALLVALUE PUSH2 0x11C JUMPI PUSH1 0x60 CALLDATASIZE PUSH1 0x3 NOT ADD SLT PUSH2 0x11C JUMPI PUSH2 0x224 PUSH2 0xA00 JUMP JUMPDEST PUSH2 0x22C PUSH2 0x9EA JUMP JUMPDEST PUSH1 0x44 CALLDATALOAD SWAP2 CALLER PUSH0 MSTORE PUSH1 0x1 PUSH1 0x20 MSTORE PUSH1 0x40 PUSH0 KECCAK256 PUSH1 0x1 DUP1 PUSH1 0xA0 SHL SUB DUP4 AND PUSH0 MSTORE PUSH1 0x20 MSTORE PUSH2 0x25A DUP4 PUSH1 0x40 PUSH0 KECCAK256 SLOAD LT ISZERO PUSH2 0xA85 JUMP JUMPDEST CALLER PUSH0 MSTORE PUSH1 0x1 PUSH1 0x20 MSTORE PUSH1 0x40 PUSH0 KECCAK256 PUSH1 0x1 DUP1 PUSH1 0xA0 SHL SUB DUP4 AND PUSH0 MSTORE PUSH1 0x20 MSTORE PUSH1 0x40 PUSH0 KECCAK256 PUSH2 0x283 DUP5 DUP3 SLOAD PUSH2 0xAC8 JUMP JUMPDEST SWAP1 SSTORE PUSH1 0x1 DUP1 PUSH1 0xA0 SHL SUB AND SWAP1 DUP2 PUSH0 MSTORE PUSH1 0x1 PUSH1 0x20 MSTORE PUSH1 0x40 PUSH0 KECCAK256 PUSH1 0x1 DUP1 PUSH1 0xA0 SHL SUB DUP3 AND PUSH0 MSTORE PUSH1 0x20 MSTORE PUSH1 0x40 PUSH0 KECCAK256 PUSH2 0x2B7 DUP5 DUP3 SLOAD PUSH2 0xA4C JUMP JUMPDEST SWAP1 SSTORE PUSH1 0x40 MLOAD SWAP3 DUP4 MSTORE PUSH1 0x1 PUSH1 0x1 PUSH1 0xA0 SHL SUB AND SWAP2 CALLER SWAP1 PUSH32 0xD1398BEE19313D6BF672CCB116E51F4A1A947E91C757907F51FBB5B5E56C698F SWAP1 PUSH1 0x20 SWAP1 LOG4 PUSH1 0x20 PUSH1 0x40 MLOAD PUSH1 0x1 DUP2 MSTORE RETURN JUMPDEST CALLVALUE PUSH2 0x11C JUMPI PUSH0 CALLDATASIZE PUSH1 0x3 NOT ADD SLT PUSH2 0x11C JUMPI PUSH0 SLOAD PUSH1 0x40 MLOAD PUSH1 0x1 PUSH1 0x1 PUSH1 0xA0 SHL SUB SWAP1 SWAP2 AND DUP2 MSTORE PUSH1 0x20 SWAP1 RETURN JUMPDEST CALLVALUE PUSH2 0x11C JUMPI PUSH0 CALLDATASIZE PUSH1 0x3 NOT ADD SLT PUSH2 0x11C JUMPI PUSH1 0x20 PUSH1 0x2 SLOAD PUSH1 0x40 MLOAD SWAP1 DUP2 MSTORE RETURN JUMPDEST CALLVALUE PUSH2 0x11C JUMPI PUSH0 CALLDATASIZE PUSH1 0x3 NOT ADD SLT PUSH2 0x11C JUMPI PUSH2 0x358 PUSH2 0xAD5 JUMP JUMPDEST PUSH1 0xFF PUSH1 0xA0 SHL NOT PUSH0 SLOAD AND PUSH0 SSTORE PUSH32 0x17904E4FE7D59BB4603C7C045BC275A05DA9EA3A4AC007FC80FFFEAF119186D PUSH1 0x20 PUSH1 0x40 MLOAD PUSH0 DUP2 MSTORE LOG1 CALLER PUSH32 0x793BC6423DD0257D64F9D47DB72FD4B2162F4541AA41740BA1C5FB5E2CD41BCD PUSH0 DUP1 LOG2 STOP JUMPDEST CALLVALUE PUSH2 0x11C JUMPI PUSH0 CALLDATASIZE PUSH1 0x3 NOT ADD SLT PUSH2 0x11C JUMPI PUSH2 0x3CC PUSH2 0xAD5 JUMP JUMPDEST PUSH0 DUP1 SLOAD PUSH1 0x1 PUSH1 0x1 PUSH1 0xA0 SHL SUB NOT DUP2 AND DUP3 SSTORE PUSH1 0x1 PUSH1 0x1 PUSH1 0xA0 SHL SUB AND PUSH32 0x8BE0079C531659141344CD1FD0A4F28419497F9722A3DAAFE3B4186F6B6457E0 DUP3 DUP1 LOG3 STOP JUMPDEST CALLVALUE PUSH2 0x11C JUMPI PUSH1 0x20 CALLDATASIZE PUSH1 0x3 NOT ADD SLT PUSH2 0x11C JUMPI PUSH1 0x1 PUSH1 0x1 PUSH1 0xA0 SHL SUB PUSH2 0x42C PUSH2 0xA00 JUMP JUMPDEST AND PUSH0 MSTORE PUSH1 0x1 PUSH1 0x20 MSTORE PUSH1 0x40 PUSH0 KECCAK256 PUSH0 DUP1 MSTORE PUSH1 0x20 MSTORE PUSH1 0x20 PUSH1 0x40 PUSH0 KECCAK256 SLOAD PUSH1 0x40 MLOAD SWAP1 DUP2 MSTORE RETURN JUMPDEST PUSH1 0x40 CALLDATASIZE PUSH1 0x3 NOT ADD SLT PUSH2 0x11C JUMPI PUSH2 0x461 PUSH2 0xA00 JUMP JUMPDEST PUSH1 0x24 CALLDATALOAD PUSH1 0xFF PUSH0 SLOAD PUSH1 0xA0 SHR AND ISZERO PUSH2 0x704 JUMPI DUP1 ISZERO PUSH2 0x6B0 JUMPI PUSH1 0x2 SLOAD PUSH1 0x40 MLOAD SWAP1 PUSH4 0x1C8F0847 PUSH1 0xE0 SHL DUP3 MSTORE DUP3 PUSH1 0x4 DUP4 ADD MSTORE PUSH1 0x24 DUP3 ADD MSTORE PUSH1 0x20 DUP2 PUSH1 0x44 DUP2 PUSH20 0x0 GAS DELEGATECALL SWAP1 DUP2 ISZERO PUSH2 0x673 JUMPI PUSH0 SWAP2 PUSH2 0x67E JUMPI JUMPDEST POP PUSH1 0x1 PUSH1 0x1 PUSH1 0xA0 SHL SUB DUP4 AND SWAP3 DUP4 PUSH2 0x58A JUMPI PUSH2 0x4D9 DUP3 DUP5 PUSH2 0xA4C JUMP JUMPDEST CALLVALUE SUB PUSH2 0x536 JUMPI DUP2 DUP2 PUSH2 0x4EF DUP6 PUSH2 0x501 SWAP5 CALLER PUSH2 0xAFB JUMP JUMPDEST POP PUSH1 0x3 SLOAD PUSH1 0x1 PUSH1 0x1 PUSH1 0xA0 SHL SUB AND PUSH2 0xAFB JUMP JUMPDEST POP JUMPDEST PUSH1 0x40 MLOAD SWAP2 DUP3 MSTORE PUSH1 0x20 DUP3 ADD MSTORE PUSH32 0xDCBC1C05240F31FF3AD067EF1EE35CE4997762752E3A095284754544F4C709D7 PUSH1 0x40 CALLER SWAP3 LOG3 STOP JUMPDEST PUSH1 0x40 MLOAD PUSH3 0x461BCD PUSH1 0xE5 SHL DUP2 MSTORE PUSH1 0x20 PUSH1 0x4 DUP3 ADD MSTORE PUSH1 0x26 PUSH1 0x24 DUP3 ADD MSTORE PUSH32 0x4D61696E6E657420746F6B656E206465706F73697420616D6F756E74206D6973 PUSH1 0x44 DUP3 ADD MSTORE PUSH6 0x36B0BA31B417 PUSH1 0xD1 SHL PUSH1 0x64 DUP3 ADD MSTORE PUSH1 0x84 SWAP1 REVERT JUMPDEST PUSH2 0x594 DUP3 DUP5 PUSH2 0xA4C JUMP JUMPDEST PUSH1 0x40 MLOAD SWAP1 PUSH4 0x23B872DD PUSH1 0xE0 SHL DUP3 MSTORE CALLER PUSH1 0x4 DUP4 ADD MSTORE ADDRESS PUSH1 0x24 DUP4 ADD MSTORE PUSH1 0x44 DUP3 ADD MSTORE PUSH1 0x20 DUP2 PUSH1 0x64 DUP2 PUSH0 DUP10 GAS CALL SWAP1 DUP2 ISZERO PUSH2 0x673 JUMPI PUSH0 SWAP2 PUSH2 0x644 JUMPI JUMPDEST POP ISZERO PUSH2 0x5E7 JUMPI DUP2 DUP2 PUSH2 0x4EF DUP6 PUSH2 0x5E1 SWAP5 CALLER PUSH2 0xAFB JUMP JUMPDEST POP PUSH2 0x503 JUMP JUMPDEST PUSH1 0x40 MLOAD PUSH3 0x461BCD PUSH1 0xE5 SHL DUP2 MSTORE PUSH1 0x20 PUSH1 0x4 DUP3 ADD MSTORE PUSH1 0x2F PUSH1 0x24 DUP3 ADD MSTORE PUSH32 0x436F6E74726163742068617320746F6F206C6F7720616C6C6F77616E63652074 PUSH1 0x44 DUP3 ADD MSTORE PUSH15 0x6F20726563656976652066756E6473 PUSH1 0x88 SHL PUSH1 0x64 DUP3 ADD MSTORE PUSH1 0x84 SWAP1 REVERT JUMPDEST PUSH2 0x666 SWAP2 POP PUSH1 0x20 RETURNDATASIZE PUSH1 0x20 GT PUSH2 0x66C JUMPI JUMPDEST PUSH2 0x65E DUP2 DUP4 PUSH2 0xA16 JUMP JUMPDEST DUP2 ADD SWAP1 PUSH2 0xA6D JUMP JUMPDEST DUP6 PUSH2 0x5CB JUMP JUMPDEST POP RETURNDATASIZE PUSH2 0x654 JUMP JUMPDEST PUSH1 0x40 MLOAD RETURNDATASIZE PUSH0 DUP3 RETURNDATACOPY RETURNDATASIZE SWAP1 REVERT JUMPDEST SWAP1 POP PUSH1 0x20 DUP2 RETURNDATASIZE PUSH1 0x20 GT PUSH2 0x6A8 JUMPI JUMPDEST DUP2 PUSH2 0x699 PUSH1 0x20 SWAP4 DUP4 PUSH2 0xA16 JUMP JUMPDEST DUP2 ADD SUB SLT PUSH2 0x11C JUMPI MLOAD DUP4 PUSH2 0x4BE JUMP JUMPDEST RETURNDATASIZE SWAP2 POP PUSH2 0x68C JUMP JUMPDEST PUSH1 0x40 MLOAD PUSH3 0x461BCD PUSH1 0xE5 SHL DUP2 MSTORE PUSH1 0x20 PUSH1 0x4 DUP3 ADD MSTORE PUSH1 0x26 PUSH1 0x24 DUP3 ADD MSTORE PUSH32 0x4465706F73697420616D6F756E74206D75737420626520677265617465722074 PUSH1 0x44 DUP3 ADD MSTORE PUSH6 0x3430B7101817 PUSH1 0xD1 SHL PUSH1 0x64 DUP3 ADD MSTORE PUSH1 0x84 SWAP1 REVERT JUMPDEST PUSH1 0x40 MLOAD PUSH3 0x461BCD PUSH1 0xE5 SHL DUP2 MSTORE PUSH1 0x20 PUSH1 0x4 DUP3 ADD MSTORE PUSH1 0x1E PUSH1 0x24 DUP3 ADD MSTORE PUSH32 0x436F6E74726163742069732063757272656E746C792064697361626C65640000 PUSH1 0x44 DUP3 ADD MSTORE PUSH1 0x64 SWAP1 REVERT JUMPDEST CALLVALUE PUSH2 0x11C JUMPI PUSH0 CALLDATASIZE PUSH1 0x3 NOT ADD SLT PUSH2 0x11C JUMPI PUSH1 0x20 PUSH1 0xFF PUSH0 SLOAD PUSH1 0xA0 SHR AND PUSH1 0x40 MLOAD SWAP1 ISZERO ISZERO DUP2 MSTORE RETURN JUMPDEST CALLVALUE PUSH2 0x11C JUMPI PUSH1 0x20 CALLDATASIZE PUSH1 0x3 NOT ADD SLT PUSH2 0x11C JUMPI PUSH1 0x4 CALLDATALOAD PUSH1 0x2 SLOAD PUSH1 0x40 MLOAD SWAP1 PUSH4 0x1C8F0847 PUSH1 0xE0 SHL DUP3 MSTORE DUP3 PUSH1 0x4 DUP4 ADD MSTORE PUSH1 0x24 DUP3 ADD MSTORE PUSH1 0x20 DUP2 PUSH1 0x44 DUP2 PUSH20 0x0 GAS DELEGATECALL SWAP1 DUP2 ISZERO PUSH2 0x673 JUMPI PUSH0 SWAP2 PUSH2 0x7DC JUMPI JUMPDEST PUSH1 0x20 PUSH2 0x7D4 DUP4 DUP6 PUSH2 0xA4C JUMP JUMPDEST PUSH1 0x40 MLOAD SWAP1 DUP2 MSTORE RETURN JUMPDEST SWAP1 POP PUSH1 0x20 DUP2 RETURNDATASIZE PUSH1 0x20 GT PUSH2 0x807 JUMPI JUMPDEST DUP2 PUSH2 0x7F7 PUSH1 0x20 SWAP4 DUP4 PUSH2 0xA16 JUMP JUMPDEST DUP2 ADD SUB SLT PUSH2 0x11C JUMPI MLOAD PUSH1 0x20 PUSH2 0x7C8 JUMP JUMPDEST RETURNDATASIZE SWAP2 POP PUSH2 0x7EA JUMP JUMPDEST CALLVALUE PUSH2 0x11C JUMPI PUSH0 CALLDATASIZE PUSH1 0x3 NOT ADD SLT PUSH2 0x11C JUMPI PUSH2 0x827 PUSH2 0xAD5 JUMP JUMPDEST PUSH0 DUP1 SLOAD PUSH1 0xFF PUSH1 0xA0 SHL NOT AND PUSH1 0x1 PUSH1 0xA0 SHL OR SWAP1 SSTORE PUSH1 0x40 MLOAD PUSH1 0x1 DUP2 MSTORE PUSH32 0x17904E4FE7D59BB4603C7C045BC275A05DA9EA3A4AC007FC80FFFEAF119186D SWAP1 PUSH1 0x20 SWAP1 LOG1 CALLER PUSH32 0xAE81C15A680E6640BA872CA44F364AD67C60A04089AD9FA100F7A3CE94DA9F68 PUSH0 DUP1 LOG2 STOP JUMPDEST CALLVALUE PUSH2 0x11C JUMPI PUSH1 0x40 CALLDATASIZE PUSH1 0x3 NOT ADD SLT PUSH2 0x11C JUMPI PUSH1 0x4 CALLDATALOAD PUSH2 0x8A9 PUSH2 0x9EA JUMP JUMPDEST PUSH2 0x8B1 PUSH2 0xAD5 JUMP JUMPDEST PUSH1 0x1 PUSH1 0x1 PUSH1 0xA0 SHL SUB AND DUP1 ISZERO PUSH2 0x96A JUMPI PUSH5 0x2540BE400 DUP3 GT PUSH2 0x91B JUMPI DUP2 PUSH1 0x40 SWAP2 PUSH32 0x14BDAADAED0453E7B5B66195B42156BA995B9E5ABD0DA98368839851D69AD889 SWAP4 PUSH1 0x2 SSTORE DUP1 PUSH12 0xFFFFFFFFFFFFFFFFFFFFFFFF PUSH1 0xA0 SHL PUSH1 0x3 SLOAD AND OR PUSH1 0x3 SSTORE DUP3 MLOAD SWAP2 DUP3 MSTORE PUSH1 0x20 DUP3 ADD MSTORE LOG1 STOP JUMPDEST PUSH1 0x40 MLOAD PUSH3 0x461BCD PUSH1 0xE5 SHL DUP2 MSTORE PUSH1 0x20 PUSH1 0x4 DUP3 ADD MSTORE PUSH1 0x21 PUSH1 0x24 DUP3 ADD MSTORE PUSH32 0x436F6D6D697373696F6E2070657263656E7461676520697320746F6F20686967 PUSH1 0x44 DUP3 ADD MSTORE PUSH1 0xD PUSH1 0xFB SHL PUSH1 0x64 DUP3 ADD MSTORE PUSH1 0x84 SWAP1 REVERT JUMPDEST PUSH1 0x40 MLOAD PUSH3 0x461BCD PUSH1 0xE5 SHL DUP2 MSTORE PUSH1 0x20 PUSH1 0x4 DUP3 ADD MSTORE PUSH1 0x2F PUSH1 0x24 DUP3 ADD MSTORE PUSH32 0x436F6D6D697373696F6E20726563697069656E742063616E6E6F742062652074 PUSH1 0x44 DUP3 ADD MSTORE PUSH15 0x6865207A65726F2061646472657373 PUSH1 0x88 SHL PUSH1 0x64 DUP3 ADD MSTORE PUSH1 0x84 SWAP1 REVERT JUMPDEST CALLVALUE PUSH2 0x11C JUMPI PUSH0 CALLDATASIZE PUSH1 0x3 NOT ADD SLT PUSH2 0x11C JUMPI PUSH1 0x3 SLOAD PUSH1 0x1 PUSH1 0x1 PUSH1 0xA0 SHL SUB AND DUP2 MSTORE PUSH1 0x20 SWAP1 RETURN JUMPDEST PUSH1 0x24 CALLDATALOAD SWAP1 PUSH1 0x1 PUSH1 0x1 PUSH1 0xA0 SHL SUB DUP3 AND DUP3 SUB PUSH2 0x11C JUMPI JUMP JUMPDEST PUSH1 0x4 CALLDATALOAD SWAP1 PUSH1 0x1 PUSH1 0x1 PUSH1 0xA0 SHL SUB DUP3 AND DUP3 SUB PUSH2 0x11C JUMPI JUMP JUMPDEST SWAP1 PUSH1 0x1F DUP1 NOT SWAP2 ADD AND DUP2 ADD SWAP1 DUP2 LT PUSH8 0xFFFFFFFFFFFFFFFF DUP3 GT OR PUSH2 0xA38 JUMPI PUSH1 0x40 MSTORE JUMP JUMPDEST PUSH4 0x4E487B71 PUSH1 0xE0 SHL PUSH0 MSTORE PUSH1 0x41 PUSH1 0x4 MSTORE PUSH1 0x24 PUSH0 REVERT JUMPDEST SWAP2 SWAP1 DUP3 ADD DUP1 SWAP3 GT PUSH2 0xA59 JUMPI JUMP JUMPDEST PUSH4 0x4E487B71 PUSH1 0xE0 SHL PUSH0 MSTORE PUSH1 0x11 PUSH1 0x4 MSTORE PUSH1 0x24 PUSH0 REVERT JUMPDEST SWAP1 DUP2 PUSH1 0x20 SWAP2 SUB SLT PUSH2 0x11C JUMPI MLOAD DUP1 ISZERO ISZERO DUP2 SUB PUSH2 0x11C JUMPI SWAP1 JUMP JUMPDEST ISZERO PUSH2 0xA8C JUMPI JUMP JUMPDEST PUSH1 0x40 MLOAD PUSH3 0x461BCD PUSH1 0xE5 SHL DUP2 MSTORE PUSH1 0x20 PUSH1 0x4 DUP3 ADD MSTORE PUSH1 0x14 PUSH1 0x24 DUP3 ADD MSTORE PUSH20 0x496E73756666696369656E742062616C616E6365 PUSH1 0x60 SHL PUSH1 0x44 DUP3 ADD MSTORE PUSH1 0x64 SWAP1 REVERT JUMPDEST SWAP2 SWAP1 DUP3 SUB SWAP2 DUP3 GT PUSH2 0xA59 JUMPI JUMP JUMPDEST PUSH0 SLOAD PUSH1 0x1 PUSH1 0x1 PUSH1 0xA0 SHL SUB AND CALLER SUB PUSH2 0xAE8 JUMPI JUMP JUMPDEST PUSH4 0x118CDAA7 PUSH1 0xE0 SHL PUSH0 MSTORE CALLER PUSH1 0x4 MSTORE PUSH1 0x24 PUSH0 REVERT JUMPDEST DUP3 ISZERO PUSH2 0xB6E JUMPI PUSH32 0xD1398BEE19313D6BF672CCB116E51F4A1A947E91C757907F51FBB5B5E56C698F PUSH1 0x20 PUSH0 SWAP3 PUSH1 0x1 DUP1 PUSH1 0xA0 SHL SUB AND SWAP4 DUP5 DUP5 MSTORE PUSH1 0x1 DUP3 MSTORE PUSH1 0x40 DUP5 KECCAK256 PUSH1 0x1 DUP1 PUSH1 0xA0 SHL SUB DUP3 AND DUP6 MSTORE DUP3 MSTORE PUSH1 0x40 DUP5 KECCAK256 PUSH2 0xB56 DUP8 DUP3 SLOAD PUSH2 0xA4C JUMP JUMPDEST SWAP1 SSTORE PUSH1 0x40 MLOAD SWAP6 DUP7 MSTORE PUSH1 0x1 PUSH1 0x1 PUSH1 0xA0 SHL SUB AND SWAP5 LOG4 PUSH1 0x1 SWAP1 JUMP JUMPDEST POP POP POP PUSH1 0x1 SWAP1 JUMP JUMPDEST DUP3 ISZERO PUSH2 0xB6E JUMPI PUSH1 0x1 DUP1 PUSH1 0xA0 SHL SUB AND SWAP1 DUP2 PUSH0 MSTORE PUSH1 0x1 PUSH1 0x20 MSTORE PUSH1 0x40 PUSH0 KECCAK256 PUSH1 0x1 DUP1 PUSH1 0xA0 SHL SUB DUP3 AND PUSH0 MSTORE PUSH1 0x20 MSTORE DUP3 PUSH1 0x40 PUSH0 KECCAK256 SLOAD LT PUSH2 0xBF6 JUMPI PUSH32 0xD1398BEE19313D6BF672CCB116E51F4A1A947E91C757907F51FBB5B5E56C698F PUSH1 0x20 PUSH0 SWAP3 DUP5 DUP5 MSTORE PUSH1 0x1 DUP3 MSTORE PUSH1 0x40 DUP5 KECCAK256 PUSH1 0x1 DUP1 PUSH1 0xA0 SHL SUB DUP3 AND DUP6 MSTORE DUP3 MSTORE PUSH1 0x40 DUP5 KECCAK256 PUSH2 0xB56 DUP8 DUP3 SLOAD PUSH2 0xAC8 JUMP JUMPDEST POP POP POP PUSH0 SWAP1 JUMP JUMPDEST SWAP2 SWAP1 DUP2 ISZERO PUSH2 0xB6E JUMPI PUSH1 0x1 PUSH1 0x1 PUSH1 0xA0 SHL SUB AND SWAP2 DUP3 PUSH2 0xC65 JUMPI PUSH0 DUP1 DUP1 DUP1 DUP6 PUSH1 0x1 PUSH1 0x1 PUSH1 0xA0 SHL SUB DUP7 AND DUP3 CALL ISZERO PUSH2 0x673 JUMPI PUSH1 0x20 PUSH32 0x2717EAD6B9200DD235AAD468C9809EA400FE33AC69B5BFAA6D3E90FC922B6398 SWAP2 JUMPDEST PUSH1 0x40 MLOAD SWAP4 DUP5 MSTORE PUSH1 0x1 PUSH1 0x1 PUSH1 0xA0 SHL SUB AND SWAP3 LOG3 PUSH1 0x1 SWAP1 JUMP JUMPDEST PUSH1 0x40 MLOAD PUSH4 0xA9059CBB PUSH1 0xE0 SHL DUP2 MSTORE PUSH1 0x1 PUSH1 0x1 PUSH1 0xA0 SHL SUB DUP3 AND PUSH1 0x4 DUP3 ADD MSTORE PUSH1 0x24 DUP2 ADD DUP4 SWAP1 MSTORE SWAP1 PUSH1 0x20 DUP3 PUSH1 0x44 DUP2 PUSH0 DUP9 GAS CALL SWAP1 DUP2 ISZERO PUSH2 0x673 JUMPI PUSH32 0x2717EAD6B9200DD235AAD468C9809EA400FE33AC69B5BFAA6D3E90FC922B6398 SWAP3 PUSH1 0x20 SWAP3 PUSH2 0xCCA JUMPI JUMPDEST POP PUSH2 0xC4F JUMP JUMPDEST PUSH2 0xCE0 SWAP1 DUP4 RETURNDATASIZE DUP6 GT PUSH2 0x66C JUMPI PUSH2 0x65E DUP2 DUP4 PUSH2 0xA16 JUMP JUMPDEST POP PUSH0 PUSH2 0xCC4 JUMP INVALID LOG2 PUSH5 0x6970667358 0x22 SLT KECCAK256 0xD0 0xB5 CALLCODE PUSH30 0x5577D4C931469F9475EFADE2AF9AC8DA12C3FCD82F9308524DDBCB516473 PUSH16 0x6C634300081C00330000000000000000 "
				},
				"gasEstimates": {
					"creation": {
						"codeDepositCost": "671400",
						"executionCost": "infinite",
						"totalCost": "infinite"
					},
					"external": {
						"balanceOf(address)": "2599",
						"balanceOf(address,address)": "2900",
						"balances(address,address)": "2837",
						"commissionRecipient()": "2266",
						"contractEnabled()": "2361",
						"deposit(address,uint256)": "infinite",
						"depositCommissionPercent()": "2454",
						"disableContract()": "28853",
						"enableContract()": "28744",
						"getAmountToDepositViaComission(uint256)": "infinite",
						"owner()": "2499",
						"renounceOwnership()": "28204",
						"setDepositCommission(uint256,address)": "50092",
						"transfer(address,address,uint256)": "53866",
						"transferOwnership(address)": "28456",
						"withdraw(address,uint256)": "infinite"
					},
					"internal": {
						"addBalanceTo(address,address,uint256)": "infinite",
						"removeBalanceFrom(address,address,uint256)": "infinite",
						"withdrawFromContractTo(address,address,uint256)": "infinite"
					}
				},
				"methodIdentifiers": {
					"balanceOf(address)": "70a08231",
					"balanceOf(address,address)": "f7888aec",
					"balances(address,address)": "c23f001f",
					"commissionRecipient()": "06fd154a",
					"contractEnabled()": "41b3a0d9",
					"deposit(address,uint256)": "47e7ef24",
					"depositCommissionPercent()": "899a3ffd",
					"disableContract()": "894ba833",
					"enableContract()": "367edd32",
					"getAmountToDepositViaComission(uint256)": "39b3edb0",
					"owner()": "8da5cb5b",
					"renounceOwnership()": "715018a6",
					"setDepositCommission(uint256,address)": "15f8a314",
					"transfer(address,address,uint256)": "beabacc8",
					"transferOwnership(address)": "f2fde38b",
					"withdraw(address,uint256)": "f3fef3a3"
				}
			},
			"storageLayout": {
				"storage": [
					{
						"astId": 8,
						"contract": "WalletContract.sol:WalletContract",
						"label": "_owner",
						"offset": 0,
						"slot": "0",
						"type": "t_address"
					},
					{
						"astId": 263,
						"contract": "WalletContract.sol:WalletContract",
						"label": "contractEnabled",
						"offset": 20,
						"slot": "0",
						"type": "t_bool"
					},
					{
						"astId": 393,
						"contract": "WalletContract.sol:WalletContract",
						"label": "balances",
						"offset": 0,
						"slot": "1",
						"type": "t_mapping(t_address,t_mapping(t_address,t_uint256))"
					},
					{
						"astId": 395,
						"contract": "WalletContract.sol:WalletContract",
						"label": "depositCommissionPercent",
						"offset": 0,
						"slot": "2",
						"type": "t_uint256"
					},
					{
						"astId": 397,
						"contract": "WalletContract.sol:WalletContract",
						"label": "commissionRecipient",
						"offset": 0,
						"slot": "3",
						"type": "t_address"
					}
				],
				"types": {
					"t_address": {
						"encoding": "inplace",
						"label": "address",
						"numberOfBytes": "20"
					},
					"t_bool": {
						"encoding": "inplace",
						"label": "bool",
						"numberOfBytes": "1"
					},
					"t_mapping(t_address,t_mapping(t_address,t_uint256))": {
						"encoding": "mapping",
						"key": "t_address",
						"label": "mapping(address => mapping(address => uint256))",
						"numberOfBytes": "32",
						"value": "t_mapping(t_address,t_uint256)"
					},
					"t_mapping(t_address,t_uint256)": {
						"encoding": "mapping",
						"key": "t_address",
						"label": "mapping(address => uint256)",
						"numberOfBytes": "32",
						"value": "t_uint256"
					},
					"t_uint256": {
						"encoding": "inplace",
						"label": "uint256",
						"numberOfBytes": "32"
					}
				}
			},
			"userdoc": {
				"kind": "user",
				"methods": {},
				"version": 1
			}
		}
	}
}