{
	"Deal.sol": {
		"DealContract": {
			"abi": [
				{
					"inputs": [
						{
							"internalType": "address payable",
							"name": "_initiator",
							"type": "address"
						},
						{
							"internalType": "address payable",
							"name": "_counterparty",
							"type": "address"
						},
						{
							"internalType": "address payable",
							"name": "_mediator",
							"type": "address"
						},
						{
							"internalType": "uint256",
							"name": "_initiatorCreateAmount",
							"type": "uint256"
						},
						{
							"internalType": "uint256",
							"name": "_counterpartyCreateAmount",
							"type": "uint256"
						},
						{
							"internalType": "uint256",
							"name": "_PRC_MediatorFeeInititor",
							"type": "uint256"
						},
						{
							"internalType": "uint256",
							"name": "_PRC_MediatorFeeCounterparty",
							"type": "uint256"
						},
						{
							"internalType": "uint256",
							"name": "_PRC_ContractFee",
							"type": "uint256"
						},
						{
							"internalType": "address",
							"name": "_initiatorTokenAddress",
							"type": "address"
						},
						{
							"internalType": "address",
							"name": "_counterpartyTokenAddress",
							"type": "address"
						}
					],
					"name": "createDeal",
					"outputs": [
						{
							"components": [
								{
									"internalType": "address payable",
									"name": "initiator",
									"type": "address"
								},
								{
									"internalType": "address payable",
									"name": "counterparty",
									"type": "address"
								},
								{
									"internalType": "address payable",
									"name": "mediator",
									"type": "address"
								},
								{
									"internalType": "bool",
									"name": "isCompleted",
									"type": "bool"
								},
								{
									"internalType": "uint256",
									"name": "initiatorCreateAmount",
									"type": "uint256"
								},
								{
									"internalType": "uint256",
									"name": "counterpartyCreateAmount",
									"type": "uint256"
								},
								{
									"internalType": "uint256",
									"name": "initiatorCurrentAmount",
									"type": "uint256"
								},
								{
									"internalType": "uint256",
									"name": "counterpartyCurrentAmount",
									"type": "uint256"
								},
								{
									"internalType": "uint256",
									"name": "PRC_ContractInitatorFee",
									"type": "uint256"
								},
								{
									"internalType": "uint256",
									"name": "PRC_CounterpartyInitatorFee",
									"type": "uint256"
								},
								{
									"internalType": "uint256",
									"name": "PRC_ContractMediatorFee",
									"type": "uint256"
								},
								{
									"internalType": "uint256",
									"name": "PRC_CounterpartyMediatorFee",
									"type": "uint256"
								},
								{
									"internalType": "address",
									"name": "initiatorTokenAddress",
									"type": "address"
								},
								{
									"internalType": "address",
									"name": "counterpartyTokenAddress",
									"type": "address"
								}
							],
							"internalType": "struct Deal",
							"name": "",
							"type": "tuple"
						}
					],
					"stateMutability": "pure",
					"type": "function"
				},
				{
					"inputs": [
						{
							"components": [
								{
									"internalType": "address payable",
									"name": "initiator",
									"type": "address"
								},
								{
									"internalType": "address payable",
									"name": "counterparty",
									"type": "address"
								},
								{
									"internalType": "address payable",
									"name": "mediator",
									"type": "address"
								},
								{
									"internalType": "bool",
									"name": "isCompleted",
									"type": "bool"
								},
								{
									"internalType": "uint256",
									"name": "initiatorCreateAmount",
									"type": "uint256"
								},
								{
									"internalType": "uint256",
									"name": "counterpartyCreateAmount",
									"type": "uint256"
								},
								{
									"internalType": "uint256",
									"name": "initiatorCurrentAmount",
									"type": "uint256"
								},
								{
									"internalType": "uint256",
									"name": "counterpartyCurrentAmount",
									"type": "uint256"
								},
								{
									"internalType": "uint256",
									"name": "PRC_ContractInitatorFee",
									"type": "uint256"
								},
								{
									"internalType": "uint256",
									"name": "PRC_CounterpartyInitatorFee",
									"type": "uint256"
								},
								{
									"internalType": "uint256",
									"name": "PRC_ContractMediatorFee",
									"type": "uint256"
								},
								{
									"internalType": "uint256",
									"name": "PRC_CounterpartyMediatorFee",
									"type": "uint256"
								},
								{
									"internalType": "address",
									"name": "initiatorTokenAddress",
									"type": "address"
								},
								{
									"internalType": "address",
									"name": "counterpartyTokenAddress",
									"type": "address"
								}
							],
							"internalType": "struct Deal",
							"name": "deal",
							"type": "tuple"
						},
						{
							"internalType": "uint256",
							"name": "timestep",
							"type": "uint256"
						}
					],
					"name": "createDealHash",
					"outputs": [
						{
							"internalType": "bytes32",
							"name": "",
							"type": "bytes32"
						}
					],
					"stateMutability": "pure",
					"type": "function"
				}
			],
			"devdoc": {
				"kind": "dev",
				"methods": {},
				"version": 1
			},
			"evm": {
				"assembly": "    /* \"Deal.sol\":1354:5187  library DealContract {... */\n  dataSize(sub_0)\n  dataOffset(sub_0)\n  0x0b\n  dup3\n  dup3\n  dup3\n  codecopy\n  dup1\n  mload\n  0x00\n  byte\n  0x73\n  eq\n  tag_1\n  jumpi\n  mstore(0x00, shl(0xe0, 0x4e487b71))\n  mstore(0x04, 0x00)\n  revert(0x00, 0x24)\ntag_1:\n  mstore(0x00, address)\n  0x73\n  dup2\n  mstore8\n  dup3\n  dup2\n  return\nstop\n\nsub_0: assembly {\n        /* \"Deal.sol\":1354:5187  library DealContract {... */\n      eq(address, deployTimeAddress())\n      mstore(0x40, 0x80)\n      jumpi(tag_1, lt(calldatasize, 0x04))\n      shr(0xe0, calldataload(0x00))\n      dup1\n      0x6abdb4e9\n      eq\n      tag_2\n      jumpi\n      dup1\n      0x91904373\n      eq\n      tag_3\n      jumpi\n    tag_1:\n      0x00\n      dup1\n      revert\n        /* \"Deal.sol\":1539:4352  function createDeal(... */\n    tag_2:\n      tag_4\n      tag_5\n      calldatasize\n      0x04\n      tag_6\n      jump\t// in\n    tag_5:\n      tag_7\n      jump\t// in\n    tag_4:\n      mload(0x40)\n      tag_8\n      swap2\n      swap1\n      tag_9\n      jump\t// in\n    tag_8:\n      mload(0x40)\n      dup1\n      swap2\n      sub\n      swap1\n      return\n        /* \"Deal.sol\":4427:5184  function createDealHash(Deal memory deal, uint256 timestep) public pure returns (bytes32) {... */\n    tag_3:\n      tag_10\n      tag_11\n      calldatasize\n      0x04\n      tag_12\n      jump\t// in\n    tag_11:\n      tag_13\n      jump\t// in\n    tag_10:\n      mload(0x40)\n        /* \"#utility.yul\":5912:5937   */\n      swap1\n      dup2\n      mstore\n        /* \"#utility.yul\":5900:5902   */\n      0x20\n        /* \"#utility.yul\":5885:5903   */\n      add\n        /* \"Deal.sol\":4427:5184  function createDealHash(Deal memory deal, uint256 timestep) public pure returns (bytes32) {... */\n      tag_8\n        /* \"#utility.yul\":5758:5943   */\n      jump\n        /* \"Deal.sol\":1539:4352  function createDeal(... */\n    tag_7:\n        /* \"Deal.sol\":2007:2018  Deal memory */\n      tag_16\n      mload(0x40)\n      dup1\n      0x01c0\n      add\n      0x40\n      mstore\n      dup1\n      and(sub(shl(0xa0, 0x01), 0x01), 0x00)\n      dup2\n      mstore\n      0x20\n      add\n      and(sub(shl(0xa0, 0x01), 0x01), 0x00)\n      dup2\n      mstore\n      0x20\n      add\n      and(sub(shl(0xa0, 0x01), 0x01), 0x00)\n      dup2\n      mstore\n      0x20\n      add\n      iszero(iszero(0x00))\n      dup2\n      mstore\n      0x20\n      add\n      0x00\n      dup2\n      mstore\n      0x20\n      add\n      0x00\n      dup2\n      mstore\n      0x20\n      add\n      0x00\n      dup2\n      mstore\n      0x20\n      add\n      0x00\n      dup2\n      mstore\n      0x20\n      add\n      0x00\n      dup2\n      mstore\n      0x20\n      add\n      0x00\n      dup2\n      mstore\n      0x20\n      add\n      0x00\n      dup2\n      mstore\n      0x20\n      add\n      0x00\n      dup2\n      mstore\n      0x20\n      add\n      and(sub(shl(0xa0, 0x01), 0x01), 0x00)\n      dup2\n      mstore\n      0x20\n      add\n      and(sub(shl(0xa0, 0x01), 0x01), 0x00)\n      dup2\n      mstore\n      pop\n      swap1\n      jump\n    tag_16:\n      sub(shl(0xa0, 0x01), 0x01)\n        /* \"Deal.sol\":2071:2095  _initiator != address(0) */\n      dup12\n      and\n        /* \"Deal.sol\":2063:2130  require(_initiator != address(0), \"Initiator cannot be address(0)\") */\n      tag_19\n      jumpi\n      mload(0x40)\n      shl(0xe5, 0x461bcd)\n      dup2\n      mstore\n        /* \"#utility.yul\":6150:6152   */\n      0x20\n        /* \"Deal.sol\":2063:2130  require(_initiator != address(0), \"Initiator cannot be address(0)\") */\n      0x04\n      dup3\n      add\n        /* \"#utility.yul\":6132:6153   */\n      mstore\n        /* \"#utility.yul\":6189:6191   */\n      0x1e\n        /* \"#utility.yul\":6169:6187   */\n      0x24\n      dup3\n      add\n        /* \"#utility.yul\":6162:6192   */\n      mstore\n        /* \"#utility.yul\":6228:6260   */\n      0x496e69746961746f722063616e6e6f7420626520616464726573732830290000\n        /* \"#utility.yul\":6208:6226   */\n      0x44\n      dup3\n      add\n        /* \"#utility.yul\":6201:6261   */\n      mstore\n        /* \"#utility.yul\":6278:6296   */\n      0x64\n      add\n        /* \"Deal.sol\":2063:2130  require(_initiator != address(0), \"Initiator cannot be address(0)\") */\n    tag_20:\n      mload(0x40)\n      dup1\n      swap2\n      sub\n      swap1\n      revert\n    tag_19:\n      sub(shl(0xa0, 0x01), 0x01)\n        /* \"Deal.sol\":2183:2210  _counterparty != address(0) */\n      dup11\n      and\n        /* \"Deal.sol\":2175:2248  require(_counterparty != address(0), \"Counterparty cannot be address(0)\") */\n      tag_22\n      jumpi\n      mload(0x40)\n      shl(0xe5, 0x461bcd)\n      dup2\n      mstore\n        /* \"#utility.yul\":6509:6511   */\n      0x20\n        /* \"Deal.sol\":2175:2248  require(_counterparty != address(0), \"Counterparty cannot be address(0)\") */\n      0x04\n      dup3\n      add\n        /* \"#utility.yul\":6491:6512   */\n      mstore\n        /* \"#utility.yul\":6548:6550   */\n      0x21\n        /* \"#utility.yul\":6528:6546   */\n      0x24\n      dup3\n      add\n        /* \"#utility.yul\":6521:6551   */\n      mstore\n        /* \"#utility.yul\":6587:6621   */\n      0x436f756e74657270617274792063616e6e6f7420626520616464726573732830\n        /* \"#utility.yul\":6567:6585   */\n      0x44\n      dup3\n      add\n        /* \"#utility.yul\":6560:6622   */\n      mstore\n      shl(0xf8, 0x29)\n        /* \"#utility.yul\":6638:6656   */\n      0x64\n      dup3\n      add\n        /* \"#utility.yul\":6631:6662   */\n      mstore\n        /* \"#utility.yul\":6679:6698   */\n      0x84\n      add\n        /* \"Deal.sol\":2175:2248  require(_counterparty != address(0), \"Counterparty cannot be address(0)\") */\n      tag_20\n        /* \"#utility.yul\":6307:6704   */\n      jump\n        /* \"Deal.sol\":2175:2248  require(_counterparty != address(0), \"Counterparty cannot be address(0)\") */\n    tag_22:\n      sub(shl(0xa0, 0x01), 0x01)\n        /* \"Deal.sol\":2374:2397  _mediator == address(0) */\n      dup10\n      and\n        /* \"Deal.sol\":2370:2532  if (_mediator == address(0)) {... */\n      tag_27\n      jumpi\n        /* \"Deal.sol\":2422:2451  _PRC_MediatorFeeInititor == 0 */\n      dup6\n      iszero\n        /* \"Deal.sol\":2422:2488  _PRC_MediatorFeeInititor == 0 && _PRC_MediatorFeeCounterparty == 0 */\n      dup1\n      iszero\n      tag_26\n      jumpi\n      pop\n        /* \"Deal.sol\":2455:2488  _PRC_MediatorFeeCounterparty == 0 */\n      dup5\n      iszero\n        /* \"Deal.sol\":2422:2488  _PRC_MediatorFeeInititor == 0 && _PRC_MediatorFeeCounterparty == 0 */\n    tag_26:\n        /* \"Deal.sol\":2414:2520  require(_PRC_MediatorFeeInititor == 0 && _PRC_MediatorFeeCounterparty == 0, \"Null mediator cant take fee\") */\n      tag_27\n      jumpi\n      mload(0x40)\n      shl(0xe5, 0x461bcd)\n      dup2\n      mstore\n        /* \"#utility.yul\":6911:6913   */\n      0x20\n        /* \"Deal.sol\":2414:2520  require(_PRC_MediatorFeeInititor == 0 && _PRC_MediatorFeeCounterparty == 0, \"Null mediator cant take fee\") */\n      0x04\n      dup3\n      add\n        /* \"#utility.yul\":6893:6914   */\n      mstore\n        /* \"#utility.yul\":6950:6952   */\n      0x1b\n        /* \"#utility.yul\":6930:6948   */\n      0x24\n      dup3\n      add\n        /* \"#utility.yul\":6923:6953   */\n      mstore\n        /* \"#utility.yul\":6989:7018   */\n      0x4e756c6c206d65646961746f722063616e742074616b65206665650000000000\n        /* \"#utility.yul\":6969:6987   */\n      0x44\n      dup3\n      add\n        /* \"#utility.yul\":6962:7019   */\n      mstore\n        /* \"#utility.yul\":7036:7054   */\n      0x64\n      add\n        /* \"Deal.sol\":2414:2520  require(_PRC_MediatorFeeInititor == 0 && _PRC_MediatorFeeCounterparty == 0, \"Null mediator cant take fee\") */\n      tag_20\n        /* \"#utility.yul\":6709:7060   */\n      jump\n        /* \"Deal.sol\":2414:2520  require(_PRC_MediatorFeeInititor == 0 && _PRC_MediatorFeeCounterparty == 0, \"Null mediator cant take fee\") */\n    tag_27:\n        /* \"Deal.sol\":2654:2664  _initiator */\n      dup11\n      sub(shl(0xa0, 0x01), 0x01)\n        /* \"Deal.sol\":2641:2664  _mediator != _initiator */\n      and\n        /* \"Deal.sol\":2641:2650  _mediator */\n      dup10\n      sub(shl(0xa0, 0x01), 0x01)\n        /* \"Deal.sol\":2641:2664  _mediator != _initiator */\n      and\n      sub\n        /* \"Deal.sol\":2633:2701  require(_mediator != _initiator, \"Mediator cannot be the initiator\") */\n      tag_30\n      jumpi\n      mload(0x40)\n      shl(0xe5, 0x461bcd)\n      dup2\n      mstore\n        /* \"#utility.yul\":7267:7269   */\n      0x20\n        /* \"Deal.sol\":2633:2701  require(_mediator != _initiator, \"Mediator cannot be the initiator\") */\n      0x04\n      dup3\n      add\n        /* \"#utility.yul\":7249:7270   */\n      dup2\n      swap1\n      mstore\n        /* \"#utility.yul\":7286:7304   */\n      0x24\n      dup3\n      add\n        /* \"#utility.yul\":7279:7309   */\n      mstore\n        /* \"#utility.yul\":7345:7379   */\n      0x4d65646961746f722063616e6e6f742062652074686520696e69746961746f72\n        /* \"#utility.yul\":7325:7343   */\n      0x44\n      dup3\n      add\n        /* \"#utility.yul\":7318:7380   */\n      mstore\n        /* \"#utility.yul\":7397:7415   */\n      0x64\n      add\n        /* \"Deal.sol\":2633:2701  require(_mediator != _initiator, \"Mediator cannot be the initiator\") */\n      tag_20\n        /* \"#utility.yul\":7065:7421   */\n      jump\n        /* \"Deal.sol\":2633:2701  require(_mediator != _initiator, \"Mediator cannot be the initiator\") */\n    tag_30:\n        /* \"Deal.sol\":2733:2746  _counterparty */\n      dup10\n      sub(shl(0xa0, 0x01), 0x01)\n        /* \"Deal.sol\":2720:2746  _mediator != _counterparty */\n      and\n        /* \"Deal.sol\":2720:2729  _mediator */\n      dup10\n      sub(shl(0xa0, 0x01), 0x01)\n        /* \"Deal.sol\":2720:2746  _mediator != _counterparty */\n      and\n      sub\n        /* \"Deal.sol\":2712:2786  require(_mediator != _counterparty, \"Mediator cannot be the counterparty\") */\n      tag_33\n      jumpi\n      mload(0x40)\n      shl(0xe5, 0x461bcd)\n      dup2\n      mstore\n        /* \"#utility.yul\":7628:7630   */\n      0x20\n        /* \"Deal.sol\":2712:2786  require(_mediator != _counterparty, \"Mediator cannot be the counterparty\") */\n      0x04\n      dup3\n      add\n        /* \"#utility.yul\":7610:7631   */\n      mstore\n        /* \"#utility.yul\":7667:7669   */\n      0x23\n        /* \"#utility.yul\":7647:7665   */\n      0x24\n      dup3\n      add\n        /* \"#utility.yul\":7640:7670   */\n      mstore\n        /* \"#utility.yul\":7706:7740   */\n      0x4d65646961746f722063616e6e6f742062652074686520636f756e7465727061\n        /* \"#utility.yul\":7686:7704   */\n      0x44\n      dup3\n      add\n        /* \"#utility.yul\":7679:7741   */\n      mstore\n      shl(0xe8, 0x727479)\n        /* \"#utility.yul\":7757:7775   */\n      0x64\n      dup3\n      add\n        /* \"#utility.yul\":7750:7783   */\n      mstore\n        /* \"#utility.yul\":7800:7819   */\n      0x84\n      add\n        /* \"Deal.sol\":2712:2786  require(_mediator != _counterparty, \"Mediator cannot be the counterparty\") */\n      tag_20\n        /* \"#utility.yul\":7426:7825   */\n      jump\n        /* \"Deal.sol\":2712:2786  require(_mediator != _counterparty, \"Mediator cannot be the counterparty\") */\n    tag_33:\n        /* \"Deal.sol\":2819:2832  _counterparty */\n      dup10\n      sub(shl(0xa0, 0x01), 0x01)\n        /* \"Deal.sol\":2805:2832  _initiator != _counterparty */\n      and\n        /* \"Deal.sol\":2805:2815  _initiator */\n      dup12\n      sub(shl(0xa0, 0x01), 0x01)\n        /* \"Deal.sol\":2805:2832  _initiator != _counterparty */\n      and\n      sub\n        /* \"Deal.sol\":2797:2873  require(_initiator != _counterparty, \"Initiator cannot be the counterparty\") */\n      tag_36\n      jumpi\n      mload(0x40)\n      shl(0xe5, 0x461bcd)\n      dup2\n      mstore\n        /* \"#utility.yul\":8032:8034   */\n      0x20\n        /* \"Deal.sol\":2797:2873  require(_initiator != _counterparty, \"Initiator cannot be the counterparty\") */\n      0x04\n      dup3\n      add\n        /* \"#utility.yul\":8014:8035   */\n      mstore\n        /* \"#utility.yul\":8071:8073   */\n      0x24\n        /* \"#utility.yul\":8051:8069   */\n      dup1\n      dup3\n      add\n        /* \"#utility.yul\":8044:8074   */\n      mstore\n        /* \"#utility.yul\":8110:8144   */\n      0x496e69746961746f722063616e6e6f742062652074686520636f756e74657270\n        /* \"#utility.yul\":8090:8108   */\n      0x44\n      dup3\n      add\n        /* \"#utility.yul\":8083:8145   */\n      mstore\n      shl(0xe0, 0x61727479)\n        /* \"#utility.yul\":8161:8179   */\n      0x64\n      dup3\n      add\n        /* \"#utility.yul\":8154:8188   */\n      mstore\n        /* \"#utility.yul\":8205:8224   */\n      0x84\n      add\n        /* \"Deal.sol\":2797:2873  require(_initiator != _counterparty, \"Initiator cannot be the counterparty\") */\n      tag_20\n        /* \"#utility.yul\":7830:8230   */\n      jump\n        /* \"Deal.sol\":2797:2873  require(_initiator != _counterparty, \"Initiator cannot be the counterparty\") */\n    tag_36:\n        /* \"Deal.sol\":2976:3000  uint256 totalContractFee */\n      0x00\n        /* \"Deal.sol\":3003:3046  _PRC_MediatorFeeInititor + _PRC_ContractFee */\n      tag_39\n        /* \"Deal.sol\":3030:3046  _PRC_ContractFee */\n      dup6\n        /* \"Deal.sol\":3003:3027  _PRC_MediatorFeeInititor */\n      dup9\n        /* \"Deal.sol\":3003:3046  _PRC_MediatorFeeInititor + _PRC_ContractFee */\n      tag_40\n      jump\t// in\n    tag_39:\n        /* \"Deal.sol\":2976:3046  uint256 totalContractFee = _PRC_MediatorFeeInititor + _PRC_ContractFee */\n      swap1\n      pop\n        /* \"Deal.sol\":3057:3081  uint256 totalMediatorFee */\n      0x00\n        /* \"Deal.sol\":3084:3131  _PRC_MediatorFeeCounterparty + _PRC_ContractFee */\n      tag_41\n        /* \"Deal.sol\":3115:3131  _PRC_ContractFee */\n      dup7\n        /* \"Deal.sol\":3084:3112  _PRC_MediatorFeeCounterparty */\n      dup9\n        /* \"Deal.sol\":3084:3131  _PRC_MediatorFeeCounterparty + _PRC_ContractFee */\n      tag_40\n      jump\t// in\n    tag_41:\n        /* \"Deal.sol\":3057:3131  uint256 totalMediatorFee = _PRC_MediatorFeeCounterparty + _PRC_ContractFee */\n      swap1\n      pop\n        /* \"Precent.sol\":192:198  10**10 */\n      0x02540be400\n        /* \"Deal.sol\":3150:3166  totalContractFee */\n      dup3\n        /* \"Deal.sol\":3150:3180  totalContractFee <= MaxProcent */\n      gt\n      iszero\n        /* \"Deal.sol\":3142:3227  require(totalContractFee <= MaxProcent, \"Contract fee percentage cannot exceed 100%\") */\n      tag_42\n      jumpi\n      mload(0x40)\n      shl(0xe5, 0x461bcd)\n      dup2\n      mstore\n        /* \"#utility.yul\":8664:8666   */\n      0x20\n        /* \"Deal.sol\":3142:3227  require(totalContractFee <= MaxProcent, \"Contract fee percentage cannot exceed 100%\") */\n      0x04\n      dup3\n      add\n        /* \"#utility.yul\":8646:8667   */\n      mstore\n        /* \"#utility.yul\":8703:8705   */\n      0x2a\n        /* \"#utility.yul\":8683:8701   */\n      0x24\n      dup3\n      add\n        /* \"#utility.yul\":8676:8706   */\n      mstore\n        /* \"#utility.yul\":8742:8776   */\n      0x436f6e7472616374206665652070657263656e746167652063616e6e6f742065\n        /* \"#utility.yul\":8722:8740   */\n      0x44\n      dup3\n      add\n        /* \"#utility.yul\":8715:8777   */\n      mstore\n      shl(0xb0, 0x78636565642031303025)\n        /* \"#utility.yul\":8793:8811   */\n      0x64\n      dup3\n      add\n        /* \"#utility.yul\":8786:8826   */\n      mstore\n        /* \"#utility.yul\":8843:8862   */\n      0x84\n      add\n        /* \"Deal.sol\":3142:3227  require(totalContractFee <= MaxProcent, \"Contract fee percentage cannot exceed 100%\") */\n      tag_20\n        /* \"#utility.yul\":8462:8868   */\n      jump\n        /* \"Deal.sol\":3142:3227  require(totalContractFee <= MaxProcent, \"Contract fee percentage cannot exceed 100%\") */\n    tag_42:\n        /* \"Precent.sol\":192:198  10**10 */\n      0x02540be400\n        /* \"Deal.sol\":3246:3262  totalMediatorFee */\n      dup2\n        /* \"Deal.sol\":3246:3276  totalMediatorFee <= MaxProcent */\n      gt\n      iszero\n        /* \"Deal.sol\":3238:3323  require(totalMediatorFee <= MaxProcent, \"Mediator fee percentage cannot exceed 100%\") */\n      tag_45\n      jumpi\n      mload(0x40)\n      shl(0xe5, 0x461bcd)\n      dup2\n      mstore\n        /* \"#utility.yul\":9075:9077   */\n      0x20\n        /* \"Deal.sol\":3238:3323  require(totalMediatorFee <= MaxProcent, \"Mediator fee percentage cannot exceed 100%\") */\n      0x04\n      dup3\n      add\n        /* \"#utility.yul\":9057:9078   */\n      mstore\n        /* \"#utility.yul\":9114:9116   */\n      0x2a\n        /* \"#utility.yul\":9094:9112   */\n      0x24\n      dup3\n      add\n        /* \"#utility.yul\":9087:9117   */\n      mstore\n        /* \"#utility.yul\":9153:9187   */\n      0x4d65646961746f72206665652070657263656e746167652063616e6e6f742065\n        /* \"#utility.yul\":9133:9151   */\n      0x44\n      dup3\n      add\n        /* \"#utility.yul\":9126:9188   */\n      mstore\n      shl(0xb0, 0x78636565642031303025)\n        /* \"#utility.yul\":9204:9222   */\n      0x64\n      dup3\n      add\n        /* \"#utility.yul\":9197:9237   */\n      mstore\n        /* \"#utility.yul\":9254:9273   */\n      0x84\n      add\n        /* \"Deal.sol\":3238:3323  require(totalMediatorFee <= MaxProcent, \"Mediator fee percentage cannot exceed 100%\") */\n      tag_20\n        /* \"#utility.yul\":8873:9279   */\n      jump\n        /* \"Deal.sol\":3238:3323  require(totalMediatorFee <= MaxProcent, \"Mediator fee percentage cannot exceed 100%\") */\n    tag_45:\n        /* \"Deal.sol\":3369:3370  0 */\n      0x00\n        /* \"Deal.sol\":3344:3366  _initiatorCreateAmount */\n      dup11\n        /* \"Deal.sol\":3344:3370  _initiatorCreateAmount > 0 */\n      gt\n        /* \"Deal.sol\":3336:3408  require(_initiatorCreateAmount > 0, \"Cant create deal with zero amount\") */\n      tag_48\n      jumpi\n      mload(0x40)\n      shl(0xe5, 0x461bcd)\n      dup2\n      mstore\n        /* \"#utility.yul\":9486:9488   */\n      0x20\n        /* \"Deal.sol\":3336:3408  require(_initiatorCreateAmount > 0, \"Cant create deal with zero amount\") */\n      0x04\n      dup3\n      add\n        /* \"#utility.yul\":9468:9489   */\n      mstore\n        /* \"#utility.yul\":9525:9527   */\n      0x21\n        /* \"#utility.yul\":9505:9523   */\n      0x24\n      dup3\n      add\n        /* \"#utility.yul\":9498:9528   */\n      mstore\n        /* \"#utility.yul\":9564:9598   */\n      0x43616e7420637265617465206465616c2077697468207a65726f20616d6f756e\n        /* \"#utility.yul\":9544:9562   */\n      0x44\n      dup3\n      add\n        /* \"#utility.yul\":9537:9599   */\n      mstore\n      shl(0xfa, 0x1d)\n        /* \"#utility.yul\":9615:9633   */\n      0x64\n      dup3\n      add\n        /* \"#utility.yul\":9608:9639   */\n      mstore\n        /* \"#utility.yul\":9656:9675   */\n      0x84\n      add\n        /* \"Deal.sol\":3336:3408  require(_initiatorCreateAmount > 0, \"Cant create deal with zero amount\") */\n      tag_20\n        /* \"#utility.yul\":9284:9681   */\n      jump\n        /* \"Deal.sol\":3336:3408  require(_initiatorCreateAmount > 0, \"Cant create deal with zero amount\") */\n    tag_48:\n      pop\n      pop\n        /* \"Deal.sol\":3498:4317  Deal({... */\n      0x40\n      dup1\n      mload\n      0x01c0\n      dup2\n      add\n      dup3\n      mstore\n      sub(shl(0xa0, 0x01), 0x01)\n      swap13\n      dup14\n      and\n      dup2\n      mstore\n      swap11\n      dup13\n      and\n      0x20\n      dup13\n      add\n      mstore\n      swap9\n      dup12\n      and\n      swap9\n      dup11\n      add\n      swap9\n      swap1\n      swap9\n      mstore\n        /* \"Deal.sol\":3476:3495  Deal memory newDeal */\n      0x00\n        /* \"Deal.sol\":3498:4317  Deal({... */\n      0x60\n      dup11\n      add\n      mstore\n      0x80\n      dup10\n      add\n      dup8\n      swap1\n      mstore\n      0xa0\n      dup10\n      add\n      dup7\n      swap1\n      mstore\n      0xc0\n      dup10\n      add\n      swap7\n      swap1\n      swap7\n      mstore\n      0xe0\n      dup9\n      add\n      swap5\n      swap1\n      swap5\n      mstore\n      0x0100\n      dup8\n      add\n      dup2\n      swap1\n      mstore\n      0x0120\n      dup8\n      add\n      dup3\n      swap1\n      mstore\n      0x0140\n      dup8\n      add\n      mstore\n      0x0160\n      dup7\n      add\n      mstore\n      pop\n      dup5\n      and\n      0x0180\n      dup5\n      add\n      mstore\n      swap1\n      swap3\n      and\n      0x01a0\n      dup3\n      add\n      mstore\n      swap2\n        /* \"Deal.sol\":1539:4352  function createDeal(... */\n      swap1\n      pop\n      jump\t// out\n        /* \"Deal.sol\":4427:5184  function createDealHash(Deal memory deal, uint256 timestep) public pure returns (bytes32) {... */\n    tag_13:\n        /* \"Deal.sol\":4508:4515  bytes32 */\n      0x00\n        /* \"Deal.sol\":4630:4634  deal */\n      dup3\n        /* \"Deal.sol\":4630:4644  deal.initiator */\n      0x00\n      add\n      mload\n        /* \"Deal.sol\":4659:4663  deal */\n      dup4\n        /* \"Deal.sol\":4659:4676  deal.counterparty */\n      0x20\n      add\n      mload\n        /* \"Deal.sol\":4691:4695  deal */\n      dup5\n        /* \"Deal.sol\":4691:4704  deal.mediator */\n      0x40\n      add\n      mload\n        /* \"Deal.sol\":4719:4723  deal */\n      dup6\n        /* \"Deal.sol\":4719:4745  deal.initiatorCreateAmount */\n      0x80\n      add\n      mload\n        /* \"Deal.sol\":4760:4764  deal */\n      dup7\n        /* \"Deal.sol\":4760:4789  deal.counterpartyCreateAmount */\n      0xa0\n      add\n      mload\n        /* \"Deal.sol\":4804:4808  deal */\n      dup8\n        /* \"Deal.sol\":4804:4831  deal.initiatorCurrentAmount */\n      0xc0\n      add\n      mload\n        /* \"Deal.sol\":4846:4850  deal */\n      dup9\n        /* \"Deal.sol\":4846:4876  deal.counterpartyCurrentAmount */\n      0xe0\n      add\n      mload\n        /* \"Deal.sol\":4891:4895  deal */\n      dup10\n        /* \"Deal.sol\":4891:4919  deal.PRC_ContractInitatorFee */\n      0x0100\n      add\n      mload\n        /* \"Deal.sol\":4934:4938  deal */\n      dup11\n        /* \"Deal.sol\":4934:4966  deal.PRC_CounterpartyInitatorFee */\n      0x0120\n      add\n      mload\n        /* \"Deal.sol\":4981:4985  deal */\n      dup12\n        /* \"Deal.sol\":4981:5009  deal.PRC_ContractMediatorFee */\n      0x0140\n      add\n      mload\n        /* \"Deal.sol\":5024:5028  deal */\n      dup13\n        /* \"Deal.sol\":5024:5056  deal.PRC_CounterpartyMediatorFee */\n      0x0160\n      add\n      mload\n        /* \"Deal.sol\":5071:5075  deal */\n      dup14\n        /* \"Deal.sol\":5071:5097  deal.initiatorTokenAddress */\n      0x0180\n      add\n      mload\n        /* \"Deal.sol\":5112:5116  deal */\n      dup15\n        /* \"Deal.sol\":5112:5141  deal.counterpartyTokenAddress */\n      0x01a0\n      add\n      mload\n        /* \"Deal.sol\":5156:5164  timestep */\n      dup15\n        /* \"Deal.sol\":4599:5175  abi.encodePacked(... */\n      add(0x20, mload(0x40))\n      tag_52\n      swap15\n      swap14\n      swap13\n      swap12\n      swap11\n      swap10\n      swap9\n      swap8\n      swap7\n      swap6\n      swap5\n      swap4\n      swap3\n      swap2\n      swap1\n      tag_53\n      jump\t// in\n    tag_52:\n      mload(0x40)\n      0x20\n      dup2\n      dup4\n      sub\n      sub\n      dup2\n      mstore\n      swap1\n      0x40\n      mstore\n        /* \"Deal.sol\":4589:5176  keccak256(abi.encodePacked(... */\n      dup1\n      mload\n      swap1\n      0x20\n      add\n      keccak256\n        /* \"Deal.sol\":4582:5176  return keccak256(abi.encodePacked(... */\n      swap1\n      pop\n        /* \"Deal.sol\":4427:5184  function createDealHash(Deal memory deal, uint256 timestep) public pure returns (bytes32) {... */\n    tag_51:\n      swap3\n      swap2\n      pop\n      pop\n      jump\t// out\n        /* \"#utility.yul\":14:153   */\n    tag_54:\n      sub(shl(0xa0, 0x01), 0x01)\n        /* \"#utility.yul\":97:128   */\n      dup2\n      and\n        /* \"#utility.yul\":87:129   */\n      dup2\n      eq\n        /* \"#utility.yul\":77:147   */\n      tag_63\n      jumpi\n        /* \"#utility.yul\":143:144   */\n      0x00\n        /* \"#utility.yul\":140:141   */\n      dup1\n        /* \"#utility.yul\":133:145   */\n      revert\n        /* \"#utility.yul\":77:147   */\n    tag_63:\n        /* \"#utility.yul\":14:153   */\n      pop\n      jump\t// out\n        /* \"#utility.yul\":158:308   */\n    tag_55:\n        /* \"#utility.yul\":234:254   */\n      dup1\n      calldataload\n        /* \"#utility.yul\":263:302   */\n      tag_65\n        /* \"#utility.yul\":234:254   */\n      dup2\n        /* \"#utility.yul\":263:302   */\n      tag_54\n      jump\t// in\n    tag_65:\n        /* \"#utility.yul\":158:308   */\n      swap2\n      swap1\n      pop\n      jump\t// out\n        /* \"#utility.yul\":313:1795   */\n    tag_6:\n        /* \"#utility.yul\":477:483   */\n      0x00\n        /* \"#utility.yul\":485:491   */\n      dup1\n        /* \"#utility.yul\":493:499   */\n      0x00\n        /* \"#utility.yul\":501:507   */\n      dup1\n        /* \"#utility.yul\":509:515   */\n      0x00\n        /* \"#utility.yul\":517:523   */\n      dup1\n        /* \"#utility.yul\":525:531   */\n      0x00\n        /* \"#utility.yul\":533:539   */\n      dup1\n        /* \"#utility.yul\":541:547   */\n      0x00\n        /* \"#utility.yul\":549:555   */\n      dup1\n        /* \"#utility.yul\":602:605   */\n      0x0140\n        /* \"#utility.yul\":590:599   */\n      dup12\n        /* \"#utility.yul\":581:588   */\n      dup14\n        /* \"#utility.yul\":577:600   */\n      sub\n        /* \"#utility.yul\":573:606   */\n      slt\n        /* \"#utility.yul\":570:623   */\n      iszero\n      tag_67\n      jumpi\n        /* \"#utility.yul\":619:620   */\n      0x00\n        /* \"#utility.yul\":616:617   */\n      dup1\n        /* \"#utility.yul\":609:621   */\n      revert\n        /* \"#utility.yul\":570:623   */\n    tag_67:\n        /* \"#utility.yul\":658:667   */\n      dup11\n        /* \"#utility.yul\":645:668   */\n      calldataload\n        /* \"#utility.yul\":677:716   */\n      tag_68\n        /* \"#utility.yul\":710:715   */\n      dup2\n        /* \"#utility.yul\":677:716   */\n      tag_54\n      jump\t// in\n    tag_68:\n        /* \"#utility.yul\":735:740   */\n      swap10\n      pop\n        /* \"#utility.yul\":792:794   */\n      0x20\n        /* \"#utility.yul\":777:795   */\n      dup12\n      add\n        /* \"#utility.yul\":764:796   */\n      calldataload\n        /* \"#utility.yul\":805:846   */\n      tag_69\n        /* \"#utility.yul\":764:796   */\n      dup2\n        /* \"#utility.yul\":805:846   */\n      tag_54\n      jump\t// in\n    tag_69:\n        /* \"#utility.yul\":865:872   */\n      swap9\n      pop\n        /* \"#utility.yul\":924:926   */\n      0x40\n        /* \"#utility.yul\":909:927   */\n      dup12\n      add\n        /* \"#utility.yul\":896:928   */\n      calldataload\n        /* \"#utility.yul\":937:978   */\n      tag_70\n        /* \"#utility.yul\":896:928   */\n      dup2\n        /* \"#utility.yul\":937:978   */\n      tag_54\n      jump\t// in\n    tag_70:\n        /* \"#utility.yul\":997:1004   */\n      swap8\n      pop\n        /* \"#utility.yul\":1077:1079   */\n      0x60\n        /* \"#utility.yul\":1062:1080   */\n      dup12\n      add\n        /* \"#utility.yul\":1049:1081   */\n      calldataload\n      swap7\n      pop\n        /* \"#utility.yul\":1180:1183   */\n      0x80\n        /* \"#utility.yul\":1165:1184   */\n      dup12\n      add\n        /* \"#utility.yul\":1152:1185   */\n      calldataload\n      swap6\n      pop\n        /* \"#utility.yul\":1284:1287   */\n      0xa0\n        /* \"#utility.yul\":1269:1288   */\n      dup12\n      add\n        /* \"#utility.yul\":1256:1289   */\n      calldataload\n      swap5\n      pop\n        /* \"#utility.yul\":1388:1391   */\n      0xc0\n        /* \"#utility.yul\":1373:1392   */\n      dup12\n      add\n        /* \"#utility.yul\":1360:1393   */\n      calldataload\n      swap4\n      pop\n        /* \"#utility.yul\":1492:1495   */\n      0xe0\n        /* \"#utility.yul\":1477:1496   */\n      dup12\n      add\n        /* \"#utility.yul\":1464:1497   */\n      calldataload\n      swap3\n      pop\n        /* \"#utility.yul\":1575:1578   */\n      0x0100\n        /* \"#utility.yul\":1560:1579   */\n      dup12\n      add\n        /* \"#utility.yul\":1547:1580   */\n      calldataload\n        /* \"#utility.yul\":1589:1630   */\n      tag_71\n        /* \"#utility.yul\":1547:1580   */\n      dup2\n        /* \"#utility.yul\":1589:1630   */\n      tag_54\n      jump\t// in\n    tag_71:\n        /* \"#utility.yul\":1649:1656   */\n      swap2\n      pop\n        /* \"#utility.yul\":1708:1711   */\n      0x0120\n        /* \"#utility.yul\":1693:1712   */\n      dup12\n      add\n        /* \"#utility.yul\":1680:1713   */\n      calldataload\n        /* \"#utility.yul\":1722:1763   */\n      tag_72\n        /* \"#utility.yul\":1680:1713   */\n      dup2\n        /* \"#utility.yul\":1722:1763   */\n      tag_54\n      jump\t// in\n    tag_72:\n        /* \"#utility.yul\":1782:1789   */\n      dup1\n        /* \"#utility.yul\":1772:1789   */\n      swap2\n      pop\n      pop\n        /* \"#utility.yul\":313:1795   */\n      swap3\n      swap6\n      swap9\n      swap12\n      swap2\n      swap5\n      swap8\n      swap11\n      pop\n      swap3\n      swap6\n      swap9\n      pop\n      jump\t// out\n        /* \"#utility.yul\":2013:3419   */\n    tag_9:\n        /* \"#utility.yul\":2235:2248   */\n      dup2\n      mload\n      sub(shl(0xa0, 0x01), 0x01)\n        /* \"#utility.yul\":1874:1905   */\n      and\n        /* \"#utility.yul\":1862:1906   */\n      dup2\n      mstore\n        /* \"#utility.yul\":2195:2198   */\n      0x01c0\n        /* \"#utility.yul\":2180:2199   */\n      dup2\n      add\n        /* \"#utility.yul\":2307:2311   */\n      0x20\n        /* \"#utility.yul\":2299:2305   */\n      dup4\n        /* \"#utility.yul\":2295:2312   */\n      add\n        /* \"#utility.yul\":2289:2313   */\n      mload\n        /* \"#utility.yul\":2322:2384   */\n      tag_77\n        /* \"#utility.yul\":2378:2382   */\n      0x20\n        /* \"#utility.yul\":2367:2376   */\n      dup5\n        /* \"#utility.yul\":2363:2383   */\n      add\n        /* \"#utility.yul\":2349:2361   */\n      dup3\n      sub(shl(0xa0, 0x01), 0x01)\n        /* \"#utility.yul\":1874:1905   */\n      and\n        /* \"#utility.yul\":1862:1906   */\n      swap1\n      mstore\n        /* \"#utility.yul\":1800:1912   */\n      jump\n        /* \"#utility.yul\":2322:2384   */\n    tag_77:\n      pop\n        /* \"#utility.yul\":2433:2437   */\n      0x40\n        /* \"#utility.yul\":2425:2431   */\n      dup4\n        /* \"#utility.yul\":2421:2438   */\n      add\n        /* \"#utility.yul\":2415:2439   */\n      mload\n        /* \"#utility.yul\":2448:2512   */\n      tag_78\n        /* \"#utility.yul\":2506:2510   */\n      0x40\n        /* \"#utility.yul\":2495:2504   */\n      dup5\n        /* \"#utility.yul\":2491:2511   */\n      add\n        /* \"#utility.yul\":2475:2489   */\n      dup3\n      sub(shl(0xa0, 0x01), 0x01)\n        /* \"#utility.yul\":1874:1905   */\n      and\n        /* \"#utility.yul\":1862:1906   */\n      swap1\n      mstore\n        /* \"#utility.yul\":1800:1912   */\n      jump\n        /* \"#utility.yul\":2448:2512   */\n    tag_78:\n      pop\n        /* \"#utility.yul\":2561:2565   */\n      0x60\n        /* \"#utility.yul\":2553:2559   */\n      dup4\n        /* \"#utility.yul\":2549:2566   */\n      add\n        /* \"#utility.yul\":2543:2567   */\n      mload\n        /* \"#utility.yul\":2576:2629   */\n      tag_79\n        /* \"#utility.yul\":2623:2627   */\n      0x60\n        /* \"#utility.yul\":2612:2621   */\n      dup5\n        /* \"#utility.yul\":2608:2628   */\n      add\n        /* \"#utility.yul\":2592:2606   */\n      dup3\n        /* \"#utility.yul\":1987:2000   */\n      iszero\n        /* \"#utility.yul\":1980:2001   */\n      iszero\n        /* \"#utility.yul\":1968:2002   */\n      swap1\n      mstore\n        /* \"#utility.yul\":1917:2008   */\n      jump\n        /* \"#utility.yul\":2576:2629   */\n    tag_79:\n      pop\n        /* \"#utility.yul\":2685:2689   */\n      0x80\n        /* \"#utility.yul\":2677:2683   */\n      dup4\n        /* \"#utility.yul\":2673:2690   */\n      add\n        /* \"#utility.yul\":2667:2691   */\n      mload\n        /* \"#utility.yul\":2660:2664   */\n      0x80\n        /* \"#utility.yul\":2649:2658   */\n      dup4\n        /* \"#utility.yul\":2645:2665   */\n      add\n        /* \"#utility.yul\":2638:2692   */\n      mstore\n        /* \"#utility.yul\":2748:2752   */\n      0xa0\n        /* \"#utility.yul\":2740:2746   */\n      dup4\n        /* \"#utility.yul\":2736:2753   */\n      add\n        /* \"#utility.yul\":2730:2754   */\n      mload\n        /* \"#utility.yul\":2723:2727   */\n      0xa0\n        /* \"#utility.yul\":2712:2721   */\n      dup4\n        /* \"#utility.yul\":2708:2728   */\n      add\n        /* \"#utility.yul\":2701:2755   */\n      mstore\n        /* \"#utility.yul\":2811:2815   */\n      0xc0\n        /* \"#utility.yul\":2803:2809   */\n      dup4\n        /* \"#utility.yul\":2799:2816   */\n      add\n        /* \"#utility.yul\":2793:2817   */\n      mload\n        /* \"#utility.yul\":2786:2790   */\n      0xc0\n        /* \"#utility.yul\":2775:2784   */\n      dup4\n        /* \"#utility.yul\":2771:2791   */\n      add\n        /* \"#utility.yul\":2764:2818   */\n      mstore\n        /* \"#utility.yul\":2874:2878   */\n      0xe0\n        /* \"#utility.yul\":2866:2872   */\n      dup4\n        /* \"#utility.yul\":2862:2879   */\n      add\n        /* \"#utility.yul\":2856:2880   */\n      mload\n        /* \"#utility.yul\":2849:2853   */\n      0xe0\n        /* \"#utility.yul\":2838:2847   */\n      dup4\n        /* \"#utility.yul\":2834:2854   */\n      add\n        /* \"#utility.yul\":2827:2881   */\n      mstore\n        /* \"#utility.yul\":2939:2945   */\n      0x0100\n        /* \"#utility.yul\":2931:2937   */\n      dup4\n        /* \"#utility.yul\":2927:2946   */\n      add\n        /* \"#utility.yul\":2921:2947   */\n      mload\n        /* \"#utility.yul\":2912:2918   */\n      0x0100\n        /* \"#utility.yul\":2901:2910   */\n      dup4\n        /* \"#utility.yul\":2897:2919   */\n      add\n        /* \"#utility.yul\":2890:2948   */\n      mstore\n        /* \"#utility.yul\":3006:3012   */\n      0x0120\n        /* \"#utility.yul\":2998:3004   */\n      dup4\n        /* \"#utility.yul\":2994:3013   */\n      add\n        /* \"#utility.yul\":2988:3014   */\n      mload\n        /* \"#utility.yul\":2979:2985   */\n      0x0120\n        /* \"#utility.yul\":2968:2977   */\n      dup4\n        /* \"#utility.yul\":2964:2986   */\n      add\n        /* \"#utility.yul\":2957:3015   */\n      mstore\n        /* \"#utility.yul\":3073:3079   */\n      0x0140\n        /* \"#utility.yul\":3065:3071   */\n      dup4\n        /* \"#utility.yul\":3061:3080   */\n      add\n        /* \"#utility.yul\":3055:3081   */\n      mload\n        /* \"#utility.yul\":3046:3052   */\n      0x0140\n        /* \"#utility.yul\":3035:3044   */\n      dup4\n        /* \"#utility.yul\":3031:3053   */\n      add\n        /* \"#utility.yul\":3024:3082   */\n      mstore\n        /* \"#utility.yul\":3140:3146   */\n      0x0160\n        /* \"#utility.yul\":3132:3138   */\n      dup4\n        /* \"#utility.yul\":3128:3147   */\n      add\n        /* \"#utility.yul\":3122:3148   */\n      mload\n        /* \"#utility.yul\":3113:3119   */\n      0x0160\n        /* \"#utility.yul\":3102:3111   */\n      dup4\n        /* \"#utility.yul\":3098:3120   */\n      add\n        /* \"#utility.yul\":3091:3149   */\n      mstore\n        /* \"#utility.yul\":3198:3204   */\n      0x0180\n        /* \"#utility.yul\":3190:3196   */\n      dup4\n        /* \"#utility.yul\":3186:3205   */\n      add\n        /* \"#utility.yul\":3180:3206   */\n      mload\n        /* \"#utility.yul\":3215:3281   */\n      tag_80\n        /* \"#utility.yul\":3273:3279   */\n      0x0180\n        /* \"#utility.yul\":3262:3271   */\n      dup5\n        /* \"#utility.yul\":3258:3280   */\n      add\n        /* \"#utility.yul\":3242:3256   */\n      dup3\n      sub(shl(0xa0, 0x01), 0x01)\n        /* \"#utility.yul\":1874:1905   */\n      and\n        /* \"#utility.yul\":1862:1906   */\n      swap1\n      mstore\n        /* \"#utility.yul\":1800:1912   */\n      jump\n        /* \"#utility.yul\":3215:3281   */\n    tag_80:\n      pop\n        /* \"#utility.yul\":3330:3336   */\n      0x01a0\n        /* \"#utility.yul\":3322:3328   */\n      dup4\n        /* \"#utility.yul\":3318:3337   */\n      add\n        /* \"#utility.yul\":3312:3338   */\n      mload\n        /* \"#utility.yul\":3347:3413   */\n      tag_81\n        /* \"#utility.yul\":3405:3411   */\n      0x01a0\n        /* \"#utility.yul\":3394:3403   */\n      dup5\n        /* \"#utility.yul\":3390:3412   */\n      add\n        /* \"#utility.yul\":3374:3388   */\n      dup3\n      sub(shl(0xa0, 0x01), 0x01)\n        /* \"#utility.yul\":1874:1905   */\n      and\n        /* \"#utility.yul\":1862:1906   */\n      swap1\n      mstore\n        /* \"#utility.yul\":1800:1912   */\n      jump\n        /* \"#utility.yul\":3347:3413   */\n    tag_81:\n      pop\n        /* \"#utility.yul\":2013:3419   */\n      swap3\n      swap2\n      pop\n      pop\n      jump\t// out\n        /* \"#utility.yul\":3424:3771   */\n    tag_58:\n        /* \"#utility.yul\":3491:3493   */\n      0x40\n        /* \"#utility.yul\":3485:3494   */\n      mload\n        /* \"#utility.yul\":3533:3539   */\n      0x01c0\n        /* \"#utility.yul\":3521:3540   */\n      dup2\n      add\n        /* \"#utility.yul\":3570:3588   */\n      0xffffffffffffffff\n        /* \"#utility.yul\":3555:3589   */\n      dup2\n      gt\n        /* \"#utility.yul\":3591:3613   */\n      dup3\n      dup3\n      lt\n        /* \"#utility.yul\":3552:3614   */\n      or\n        /* \"#utility.yul\":3549:3734   */\n      iszero\n      tag_83\n      jumpi\n        /* \"#utility.yul\":3656:3666   */\n      0x4e487b71\n        /* \"#utility.yul\":3651:3654   */\n      0xe0\n        /* \"#utility.yul\":3647:3667   */\n      shl\n        /* \"#utility.yul\":3644:3645   */\n      0x00\n        /* \"#utility.yul\":3637:3668   */\n      mstore\n        /* \"#utility.yul\":3691:3695   */\n      0x41\n        /* \"#utility.yul\":3688:3689   */\n      0x04\n        /* \"#utility.yul\":3681:3696   */\n      mstore\n        /* \"#utility.yul\":3719:3723   */\n      0x24\n        /* \"#utility.yul\":3716:3717   */\n      0x00\n        /* \"#utility.yul\":3709:3724   */\n      revert\n        /* \"#utility.yul\":3549:3734   */\n    tag_83:\n        /* \"#utility.yul\":3750:3752   */\n      0x40\n        /* \"#utility.yul\":3743:3765   */\n      mstore\n        /* \"#utility.yul\":3424:3771   */\n      swap1\n      jump\t// out\n        /* \"#utility.yul\":3776:3936   */\n    tag_59:\n        /* \"#utility.yul\":3841:3861   */\n      dup1\n      calldataload\n        /* \"#utility.yul\":3897:3910   */\n      dup1\n      iszero\n        /* \"#utility.yul\":3890:3911   */\n      iszero\n        /* \"#utility.yul\":3880:3912   */\n      dup2\n      eq\n        /* \"#utility.yul\":3870:3930   */\n      tag_65\n      jumpi\n        /* \"#utility.yul\":3926:3927   */\n      0x00\n        /* \"#utility.yul\":3923:3924   */\n      dup1\n        /* \"#utility.yul\":3916:3928   */\n      revert\n        /* \"#utility.yul\":3941:5753   */\n    tag_12:\n        /* \"#utility.yul\":4029:4035   */\n      0x00\n        /* \"#utility.yul\":4037:4043   */\n      dup1\n        /* \"#utility.yul\":4081:4090   */\n      dup3\n        /* \"#utility.yul\":4072:4079   */\n      dup5\n        /* \"#utility.yul\":4068:4091   */\n      sub\n        /* \"#utility.yul\":4111:4114   */\n      0x01e0\n        /* \"#utility.yul\":4107:4109   */\n      dup2\n        /* \"#utility.yul\":4103:4115   */\n      slt\n        /* \"#utility.yul\":4100:4132   */\n      iszero\n      tag_87\n      jumpi\n        /* \"#utility.yul\":4128:4129   */\n      0x00\n        /* \"#utility.yul\":4125:4126   */\n      dup1\n        /* \"#utility.yul\":4118:4130   */\n      revert\n        /* \"#utility.yul\":4100:4132   */\n    tag_87:\n        /* \"#utility.yul\":4152:4158   */\n      0x01c0\n        /* \"#utility.yul\":4148:4150   */\n      dup2\n        /* \"#utility.yul\":4144:4159   */\n      slt\n        /* \"#utility.yul\":4141:4176   */\n      iszero\n      tag_88\n      jumpi\n        /* \"#utility.yul\":4172:4173   */\n      0x00\n        /* \"#utility.yul\":4169:4170   */\n      dup1\n        /* \"#utility.yul\":4162:4174   */\n      revert\n        /* \"#utility.yul\":4141:4176   */\n    tag_88:\n      pop\n        /* \"#utility.yul\":4198:4215   */\n      tag_89\n      tag_58\n      jump\t// in\n    tag_89:\n        /* \"#utility.yul\":4238:4275   */\n      tag_90\n        /* \"#utility.yul\":4265:4274   */\n      dup5\n        /* \"#utility.yul\":4238:4275   */\n      tag_55\n      jump\t// in\n    tag_90:\n        /* \"#utility.yul\":4231:4236   */\n      dup2\n        /* \"#utility.yul\":4224:4276   */\n      mstore\n        /* \"#utility.yul\":4308:4354   */\n      tag_91\n        /* \"#utility.yul\":4350:4352   */\n      0x20\n        /* \"#utility.yul\":4339:4348   */\n      dup6\n        /* \"#utility.yul\":4335:4353   */\n      add\n        /* \"#utility.yul\":4308:4354   */\n      tag_55\n      jump\t// in\n    tag_91:\n        /* \"#utility.yul\":4303:4305   */\n      0x20\n        /* \"#utility.yul\":4296:4301   */\n      dup3\n        /* \"#utility.yul\":4292:4306   */\n      add\n        /* \"#utility.yul\":4285:4355   */\n      mstore\n        /* \"#utility.yul\":4387:4433   */\n      tag_92\n        /* \"#utility.yul\":4429:4431   */\n      0x40\n        /* \"#utility.yul\":4418:4427   */\n      dup6\n        /* \"#utility.yul\":4414:4432   */\n      add\n        /* \"#utility.yul\":4387:4433   */\n      tag_55\n      jump\t// in\n    tag_92:\n        /* \"#utility.yul\":4382:4384   */\n      0x40\n        /* \"#utility.yul\":4375:4380   */\n      dup3\n        /* \"#utility.yul\":4371:4385   */\n      add\n        /* \"#utility.yul\":4364:4434   */\n      mstore\n        /* \"#utility.yul\":4466:4501   */\n      tag_93\n        /* \"#utility.yul\":4497:4499   */\n      0x60\n        /* \"#utility.yul\":4486:4495   */\n      dup6\n        /* \"#utility.yul\":4482:4500   */\n      add\n        /* \"#utility.yul\":4466:4501   */\n      tag_59\n      jump\t// in\n    tag_93:\n        /* \"#utility.yul\":4461:4463   */\n      0x60\n        /* \"#utility.yul\":4450:4464   */\n      dup3\n      add\n        /* \"#utility.yul\":4443:4502   */\n      mstore\n        /* \"#utility.yul\":4575:4578   */\n      0x80\n        /* \"#utility.yul\":4560:4579   */\n      dup5\n      dup2\n      add\n        /* \"#utility.yul\":4547:4580   */\n      calldataload\n        /* \"#utility.yul\":4596:4611   */\n      swap1\n      dup3\n      add\n        /* \"#utility.yul\":4589:4621   */\n      mstore\n        /* \"#utility.yul\":4694:4697   */\n      0xa0\n        /* \"#utility.yul\":4679:4698   */\n      dup1\n      dup6\n      add\n        /* \"#utility.yul\":4666:4699   */\n      calldataload\n        /* \"#utility.yul\":4715:4730   */\n      swap1\n      dup3\n      add\n        /* \"#utility.yul\":4708:4740   */\n      mstore\n        /* \"#utility.yul\":4813:4816   */\n      0xc0\n        /* \"#utility.yul\":4798:4817   */\n      dup1\n      dup6\n      add\n        /* \"#utility.yul\":4785:4818   */\n      calldataload\n        /* \"#utility.yul\":4834:4849   */\n      swap1\n      dup3\n      add\n        /* \"#utility.yul\":4827:4859   */\n      mstore\n        /* \"#utility.yul\":4932:4935   */\n      0xe0\n        /* \"#utility.yul\":4917:4936   */\n      dup1\n      dup6\n      add\n        /* \"#utility.yul\":4904:4937   */\n      calldataload\n        /* \"#utility.yul\":4953:4968   */\n      swap1\n      dup3\n      add\n        /* \"#utility.yul\":4946:4978   */\n      mstore\n        /* \"#utility.yul\":5051:5054   */\n      0x0100\n        /* \"#utility.yul\":5036:5055   */\n      dup1\n      dup6\n      add\n        /* \"#utility.yul\":5023:5056   */\n      calldataload\n        /* \"#utility.yul\":5072:5087   */\n      swap1\n      dup3\n      add\n        /* \"#utility.yul\":5065:5097   */\n      mstore\n        /* \"#utility.yul\":5170:5173   */\n      0x0120\n        /* \"#utility.yul\":5155:5174   */\n      dup1\n      dup6\n      add\n        /* \"#utility.yul\":5142:5175   */\n      calldataload\n        /* \"#utility.yul\":5191:5206   */\n      swap1\n      dup3\n      add\n        /* \"#utility.yul\":5184:5216   */\n      mstore\n        /* \"#utility.yul\":5289:5292   */\n      0x0140\n        /* \"#utility.yul\":5274:5293   */\n      dup1\n      dup6\n      add\n        /* \"#utility.yul\":5261:5294   */\n      calldataload\n        /* \"#utility.yul\":5310:5325   */\n      swap1\n      dup3\n      add\n        /* \"#utility.yul\":5303:5335   */\n      mstore\n        /* \"#utility.yul\":5408:5411   */\n      0x0160\n        /* \"#utility.yul\":5393:5412   */\n      dup1\n      dup6\n      add\n        /* \"#utility.yul\":5380:5413   */\n      calldataload\n        /* \"#utility.yul\":5429:5444   */\n      swap1\n      dup3\n      add\n        /* \"#utility.yul\":5422:5454   */\n      mstore\n        /* \"#utility.yul\":5487:5534   */\n      tag_94\n        /* \"#utility.yul\":5529:5532   */\n      0x0180\n        /* \"#utility.yul\":5514:5533   */\n      dup6\n      add\n        /* \"#utility.yul\":5487:5534   */\n      tag_55\n      jump\t// in\n    tag_94:\n        /* \"#utility.yul\":5481:5484   */\n      0x0180\n        /* \"#utility.yul\":5474:5479   */\n      dup3\n        /* \"#utility.yul\":5470:5485   */\n      add\n        /* \"#utility.yul\":5463:5535   */\n      mstore\n        /* \"#utility.yul\":5568:5615   */\n      tag_95\n        /* \"#utility.yul\":5610:5613   */\n      0x01a0\n        /* \"#utility.yul\":5599:5608   */\n      dup6\n        /* \"#utility.yul\":5595:5614   */\n      add\n        /* \"#utility.yul\":5568:5615   */\n      tag_55\n      jump\t// in\n    tag_95:\n        /* \"#utility.yul\":5562:5565   */\n      0x01a0\n        /* \"#utility.yul\":5551:5566   */\n      dup3\n      add\n        /* \"#utility.yul\":5544:5616   */\n      mstore\n        /* \"#utility.yul\":5555:5560   */\n      swap5\n        /* \"#utility.yul\":5713:5719   */\n      0x01c0\n        /* \"#utility.yul\":5698:5720   */\n      swap4\n      swap1\n      swap4\n      add\n        /* \"#utility.yul\":5685:5721   */\n      calldataload\n      swap4\n      pop\n      pop\n      pop\n        /* \"#utility.yul\":3941:5753   */\n      jump\t// out\n        /* \"#utility.yul\":8235:8457   */\n    tag_40:\n        /* \"#utility.yul\":8300:8309   */\n      dup1\n      dup3\n      add\n        /* \"#utility.yul\":8321:8331   */\n      dup1\n      dup3\n      gt\n        /* \"#utility.yul\":8318:8451   */\n      iszero\n      tag_51\n      jumpi\n        /* \"#utility.yul\":8373:8383   */\n      0x4e487b71\n        /* \"#utility.yul\":8368:8371   */\n      0xe0\n        /* \"#utility.yul\":8364:8384   */\n      shl\n        /* \"#utility.yul\":8361:8362   */\n      0x00\n        /* \"#utility.yul\":8354:8385   */\n      mstore\n        /* \"#utility.yul\":8408:8412   */\n      0x11\n        /* \"#utility.yul\":8405:8406   */\n      0x04\n        /* \"#utility.yul\":8398:8413   */\n      mstore\n        /* \"#utility.yul\":8436:8440   */\n      0x24\n        /* \"#utility.yul\":8433:8434   */\n      0x00\n        /* \"#utility.yul\":8426:8441   */\n      revert\n        /* \"#utility.yul\":9861:11229   */\n    tag_53:\n        /* \"#utility.yul\":10443:10469   */\n      0xffffffffffffffffffffffff\n        /* \"#utility.yul\":10439:10470   */\n      not\n        /* \"#utility.yul\":10430:10436   */\n      dup16\n        /* \"#utility.yul\":10426:10428   */\n      0x60\n        /* \"#utility.yul\":10422:10437   */\n      shl\n        /* \"#utility.yul\":10418:10471   */\n      and\n        /* \"#utility.yul\":10413:10416   */\n      dup2\n        /* \"#utility.yul\":10406:10472   */\n      mstore\n        /* \"#utility.yul\":10481:10566   */\n      tag_110\n        /* \"#utility.yul\":10562:10564   */\n      0x14\n        /* \"#utility.yul\":10557:10560   */\n      dup3\n        /* \"#utility.yul\":10553:10565   */\n      add\n        /* \"#utility.yul\":10545:10551   */\n      dup16\n        /* \"#utility.yul\":9805:9807   */\n      0x60\n        /* \"#utility.yul\":9801:9815   */\n      shl\n      not(sub(shl(0x60, 0x01), 0x01))\n        /* \"#utility.yul\":9797:9849   */\n      and\n        /* \"#utility.yul\":9785:9850   */\n      swap1\n      mstore\n        /* \"#utility.yul\":9686:9856   */\n      jump\n        /* \"#utility.yul\":10481:10566   */\n    tag_110:\n        /* \"#utility.yul\":10575:10660   */\n      tag_111\n        /* \"#utility.yul\":10656:10658   */\n      0x28\n        /* \"#utility.yul\":10651:10654   */\n      dup3\n        /* \"#utility.yul\":10647:10659   */\n      add\n        /* \"#utility.yul\":10639:10645   */\n      dup15\n        /* \"#utility.yul\":9805:9807   */\n      0x60\n        /* \"#utility.yul\":9801:9815   */\n      shl\n      not(sub(shl(0x60, 0x01), 0x01))\n        /* \"#utility.yul\":9797:9849   */\n      and\n        /* \"#utility.yul\":9785:9850   */\n      swap1\n      mstore\n        /* \"#utility.yul\":9686:9856   */\n      jump\n        /* \"#utility.yul\":10575:10660   */\n    tag_111:\n        /* \"#utility.yul\":10690:10696   */\n      dup12\n        /* \"#utility.yul\":10685:10687   */\n      0x3c\n        /* \"#utility.yul\":10680:10683   */\n      dup3\n        /* \"#utility.yul\":10676:10688   */\n      add\n        /* \"#utility.yul\":10669:10697   */\n      mstore\n        /* \"#utility.yul\":10727:10733   */\n      dup11\n        /* \"#utility.yul\":10722:10724   */\n      0x5c\n        /* \"#utility.yul\":10717:10720   */\n      dup3\n        /* \"#utility.yul\":10713:10725   */\n      add\n        /* \"#utility.yul\":10706:10734   */\n      mstore\n        /* \"#utility.yul\":10765:10771   */\n      dup10\n        /* \"#utility.yul\":10759:10762   */\n      0x7c\n        /* \"#utility.yul\":10754:10757   */\n      dup3\n        /* \"#utility.yul\":10750:10763   */\n      add\n        /* \"#utility.yul\":10743:10772   */\n      mstore\n        /* \"#utility.yul\":10803:10809   */\n      dup9\n        /* \"#utility.yul\":10797:10800   */\n      0x9c\n        /* \"#utility.yul\":10792:10795   */\n      dup3\n        /* \"#utility.yul\":10788:10801   */\n      add\n        /* \"#utility.yul\":10781:10810   */\n      mstore\n        /* \"#utility.yul\":10841:10847   */\n      dup8\n        /* \"#utility.yul\":10835:10838   */\n      0xbc\n        /* \"#utility.yul\":10830:10833   */\n      dup3\n        /* \"#utility.yul\":10826:10839   */\n      add\n        /* \"#utility.yul\":10819:10848   */\n      mstore\n        /* \"#utility.yul\":10879:10885   */\n      dup7\n        /* \"#utility.yul\":10873:10876   */\n      0xdc\n        /* \"#utility.yul\":10868:10871   */\n      dup3\n        /* \"#utility.yul\":10864:10877   */\n      add\n        /* \"#utility.yul\":10857:10886   */\n      mstore\n        /* \"#utility.yul\":10917:10923   */\n      dup6\n        /* \"#utility.yul\":10911:10914   */\n      0xfc\n        /* \"#utility.yul\":10906:10909   */\n      dup3\n        /* \"#utility.yul\":10902:10915   */\n      add\n        /* \"#utility.yul\":10895:10924   */\n      mstore\n        /* \"#utility.yul\":10955:10962   */\n      dup5\n        /* \"#utility.yul\":10949:10952   */\n      0x011c\n        /* \"#utility.yul\":10944:10947   */\n      dup3\n        /* \"#utility.yul\":10940:10953   */\n      add\n        /* \"#utility.yul\":10933:10963   */\n      mstore\n        /* \"#utility.yul\":10972:11059   */\n      tag_112\n        /* \"#utility.yul\":11054:11057   */\n      0x013c\n        /* \"#utility.yul\":11049:11052   */\n      dup3\n        /* \"#utility.yul\":11045:11058   */\n      add\n        /* \"#utility.yul\":11036:11043   */\n      dup6\n        /* \"#utility.yul\":9805:9807   */\n      0x60\n        /* \"#utility.yul\":9801:9815   */\n      shl\n      not(sub(shl(0x60, 0x01), 0x01))\n        /* \"#utility.yul\":9797:9849   */\n      and\n        /* \"#utility.yul\":9785:9850   */\n      swap1\n      mstore\n        /* \"#utility.yul\":9686:9856   */\n      jump\n        /* \"#utility.yul\":10972:11059   */\n    tag_112:\n        /* \"#utility.yul\":11068:11155   */\n      tag_113\n        /* \"#utility.yul\":11150:11153   */\n      0x0150\n        /* \"#utility.yul\":11145:11148   */\n      dup3\n        /* \"#utility.yul\":11141:11154   */\n      add\n        /* \"#utility.yul\":11132:11139   */\n      dup5\n        /* \"#utility.yul\":9805:9807   */\n      0x60\n        /* \"#utility.yul\":9801:9815   */\n      shl\n      not(sub(shl(0x60, 0x01), 0x01))\n        /* \"#utility.yul\":9797:9849   */\n      and\n        /* \"#utility.yul\":9785:9850   */\n      swap1\n      mstore\n        /* \"#utility.yul\":9686:9856   */\n      jump\n        /* \"#utility.yul\":11068:11155   */\n    tag_113:\n        /* \"#utility.yul\":11180:11183   */\n      0x0164\n        /* \"#utility.yul\":11171:11184   */\n      dup2\n      add\n        /* \"#utility.yul\":11164:11194   */\n      swap2\n      swap1\n      swap2\n      mstore\n        /* \"#utility.yul\":11219:11222   */\n      0x0184\n        /* \"#utility.yul\":11210:11223   */\n      add\n      swap14\n        /* \"#utility.yul\":9861:11229   */\n      swap13\n      pop\n      pop\n      pop\n      pop\n      pop\n      pop\n      pop\n      pop\n      pop\n      pop\n      pop\n      pop\n      pop\n      jump\t// out\n\n    auxdata: 0xa26469706673582212204b7e17cc181e1e8a3039c87a073847c66a50615e78e00b956c59ef312d359a4264736f6c634300081a0033\n}\n",
				"bytecode": {
					"linkReferences": {},
					"object": "6109d3610034600b8282823980515f1a607314602857634e487b7160e01b5f525f60045260245ffd5b305f52607381538281f3fe730000000000000000000000000000000000000000301460806040526004361061003f575f3560e01c80636abdb4e914610043578063919043731461006c575b5f80fd5b6100566100513660046105ed565b61008d565b604051610063919061068a565b60405180910390f35b61007f61007a3660046107c3565b610542565b604051908152602001610063565b610120604051806101c001604052805f6001600160a01b031681526020015f6001600160a01b031681526020015f6001600160a01b031681526020015f151581526020015f81526020015f81526020015f81526020015f81526020015f81526020015f81526020015f81526020015f81526020015f6001600160a01b031681526020015f6001600160a01b031681525090565b6001600160a01b038b1661017b5760405162461bcd60e51b815260206004820152601e60248201527f496e69746961746f722063616e6e6f742062652061646472657373283029000060448201526064015b60405180910390fd5b6001600160a01b038a166101db5760405162461bcd60e51b815260206004820152602160248201527f436f756e74657270617274792063616e6e6f74206265206164647265737328306044820152602960f81b6064820152608401610172565b6001600160a01b03891661024157851580156101f5575084155b6102415760405162461bcd60e51b815260206004820152601b60248201527f4e756c6c206d65646961746f722063616e742074616b652066656500000000006044820152606401610172565b8a6001600160a01b0316896001600160a01b0316036102a25760405162461bcd60e51b815260206004820181905260248201527f4d65646961746f722063616e6e6f742062652074686520696e69746961746f726044820152606401610172565b896001600160a01b0316896001600160a01b03160361030f5760405162461bcd60e51b815260206004820152602360248201527f4d65646961746f722063616e6e6f742062652074686520636f756e746572706160448201526272747960e81b6064820152608401610172565b896001600160a01b03168b6001600160a01b03160361037c5760405162461bcd60e51b8152602060048201526024808201527f496e69746961746f722063616e6e6f742062652074686520636f756e746572706044820152636172747960e01b6064820152608401610172565b5f61038785886108b4565b90505f61039486886108b4565b90506402540be4008211156103fe5760405162461bcd60e51b815260206004820152602a60248201527f436f6e7472616374206665652070657263656e746167652063616e6e6f7420656044820152697863656564203130302560b01b6064820152608401610172565b6402540be4008111156104665760405162461bcd60e51b815260206004820152602a60248201527f4d65646961746f72206665652070657263656e746167652063616e6e6f7420656044820152697863656564203130302560b01b6064820152608401610172565b5f8a116104bf5760405162461bcd60e51b815260206004820152602160248201527f43616e7420637265617465206465616c2077697468207a65726f20616d6f756e6044820152601d60fa1b6064820152608401610172565b5050604080516101c0810182526001600160a01b039c8d1681529a8c1660208c0152988b16988a01989098525f60608a01526080890187905260a0890186905260c089019690965260e0880194909452610100870181905261012087018290526101408701526101608601525084166101808401529092166101a0820152919050565b5f825f01518360200151846040015185608001518660a001518760c001518860e001518961010001518a61012001518b61014001518c61016001518d61018001518e6101a001518e6040516020016105a79e9d9c9b9a999897969594939291906108d3565b6040516020818303038152906040528051906020012090505b92915050565b6001600160a01b03811681146105da575f80fd5b50565b80356105e8816105c6565b919050565b5f805f805f805f805f806101408b8d031215610607575f80fd5b8a35610612816105c6565b995060208b0135610622816105c6565b985060408b0135610632816105c6565b975060608b0135965060808b0135955060a08b0135945060c08b0135935060e08b013592506101008b0135610666816105c6565b91506101208b0135610677816105c6565b809150509295989b9194979a5092959850565b81516001600160a01b031681526101c0810160208301516106b660208401826001600160a01b03169052565b5060408301516106d160408401826001600160a01b03169052565b5060608301516106e5606084018215159052565b506080830151608083015260a083015160a083015260c083015160c083015260e083015160e083015261010083015161010083015261012083015161012083015261014083015161014083015261016083015161016083015261018083015161075a6101808401826001600160a01b03169052565b506101a08301516107776101a08401826001600160a01b03169052565b5092915050565b6040516101c0810167ffffffffffffffff811182821017156107ae57634e487b7160e01b5f52604160045260245ffd5b60405290565b803580151581146105e8575f80fd5b5f808284036101e08112156107d6575f80fd5b6101c08112156107e4575f80fd5b506107ed61077e565b6107f6846105dd565b8152610804602085016105dd565b6020820152610815604085016105dd565b6040820152610826606085016107b4565b60608201526080848101359082015260a0808501359082015260c0808501359082015260e08085013590820152610100808501359082015261012080850135908201526101408085013590820152610160808501359082015261088c61018085016105dd565b61018082015261089f6101a085016105dd565b6101a0820152946101c0939093013593505050565b808201808211156105c057634e487b7160e01b5f52601160045260245ffd5b6bffffffffffffffffffffffff198f60601b168152610901601482018f60601b6001600160601b0319169052565b61091a602882018e60601b6001600160601b0319169052565b8b603c8201528a605c82015289607c82015288609c8201528760bc8201528660dc8201528560fc8201528461011c82015261096561013c82018560601b6001600160601b0319169052565b61097f61015082018460601b6001600160601b0319169052565b610164810191909152610184019d9c5050505050505050505050505056fea26469706673582212204b7e17cc181e1e8a3039c87a073847c66a50615e78e00b956c59ef312d359a4264736f6c634300081a0033",
					"opcodes": "PUSH2 0x9D3 PUSH2 0x34 PUSH1 0xB DUP3 DUP3 DUP3 CODECOPY DUP1 MLOAD PUSH0 BYTE PUSH1 0x73 EQ PUSH1 0x28 JUMPI PUSH4 0x4E487B71 PUSH1 0xE0 SHL PUSH0 MSTORE PUSH0 PUSH1 0x4 MSTORE PUSH1 0x24 PUSH0 REVERT JUMPDEST ADDRESS PUSH0 MSTORE PUSH1 0x73 DUP2 MSTORE8 DUP3 DUP2 RETURN INVALID PUSH20 0x0 ADDRESS EQ PUSH1 0x80 PUSH1 0x40 MSTORE PUSH1 0x4 CALLDATASIZE LT PUSH2 0x3F JUMPI PUSH0 CALLDATALOAD PUSH1 0xE0 SHR DUP1 PUSH4 0x6ABDB4E9 EQ PUSH2 0x43 JUMPI DUP1 PUSH4 0x91904373 EQ PUSH2 0x6C JUMPI JUMPDEST PUSH0 DUP1 REVERT JUMPDEST PUSH2 0x56 PUSH2 0x51 CALLDATASIZE PUSH1 0x4 PUSH2 0x5ED JUMP JUMPDEST PUSH2 0x8D JUMP JUMPDEST PUSH1 0x40 MLOAD PUSH2 0x63 SWAP2 SWAP1 PUSH2 0x68A JUMP JUMPDEST PUSH1 0x40 MLOAD DUP1 SWAP2 SUB SWAP1 RETURN JUMPDEST PUSH2 0x7F PUSH2 0x7A CALLDATASIZE PUSH1 0x4 PUSH2 0x7C3 JUMP JUMPDEST PUSH2 0x542 JUMP JUMPDEST PUSH1 0x40 MLOAD SWAP1 DUP2 MSTORE PUSH1 0x20 ADD PUSH2 0x63 JUMP JUMPDEST PUSH2 0x120 PUSH1 0x40 MLOAD DUP1 PUSH2 0x1C0 ADD PUSH1 0x40 MSTORE DUP1 PUSH0 PUSH1 0x1 PUSH1 0x1 PUSH1 0xA0 SHL SUB AND DUP2 MSTORE PUSH1 0x20 ADD PUSH0 PUSH1 0x1 PUSH1 0x1 PUSH1 0xA0 SHL SUB AND DUP2 MSTORE PUSH1 0x20 ADD PUSH0 PUSH1 0x1 PUSH1 0x1 PUSH1 0xA0 SHL SUB AND DUP2 MSTORE PUSH1 0x20 ADD PUSH0 ISZERO ISZERO DUP2 MSTORE PUSH1 0x20 ADD PUSH0 DUP2 MSTORE PUSH1 0x20 ADD PUSH0 DUP2 MSTORE PUSH1 0x20 ADD PUSH0 DUP2 MSTORE PUSH1 0x20 ADD PUSH0 DUP2 MSTORE PUSH1 0x20 ADD PUSH0 DUP2 MSTORE PUSH1 0x20 ADD PUSH0 DUP2 MSTORE PUSH1 0x20 ADD PUSH0 DUP2 MSTORE PUSH1 0x20 ADD PUSH0 DUP2 MSTORE PUSH1 0x20 ADD PUSH0 PUSH1 0x1 PUSH1 0x1 PUSH1 0xA0 SHL SUB AND DUP2 MSTORE PUSH1 0x20 ADD PUSH0 PUSH1 0x1 PUSH1 0x1 PUSH1 0xA0 SHL SUB AND DUP2 MSTORE POP SWAP1 JUMP JUMPDEST PUSH1 0x1 PUSH1 0x1 PUSH1 0xA0 SHL SUB DUP12 AND PUSH2 0x17B JUMPI PUSH1 0x40 MLOAD PUSH3 0x461BCD PUSH1 0xE5 SHL DUP2 MSTORE PUSH1 0x20 PUSH1 0x4 DUP3 ADD MSTORE PUSH1 0x1E PUSH1 0x24 DUP3 ADD MSTORE PUSH32 0x496E69746961746F722063616E6E6F7420626520616464726573732830290000 PUSH1 0x44 DUP3 ADD MSTORE PUSH1 0x64 ADD JUMPDEST PUSH1 0x40 MLOAD DUP1 SWAP2 SUB SWAP1 REVERT JUMPDEST PUSH1 0x1 PUSH1 0x1 PUSH1 0xA0 SHL SUB DUP11 AND PUSH2 0x1DB JUMPI PUSH1 0x40 MLOAD PUSH3 0x461BCD PUSH1 0xE5 SHL DUP2 MSTORE PUSH1 0x20 PUSH1 0x4 DUP3 ADD MSTORE PUSH1 0x21 PUSH1 0x24 DUP3 ADD MSTORE PUSH32 0x436F756E74657270617274792063616E6E6F7420626520616464726573732830 PUSH1 0x44 DUP3 ADD MSTORE PUSH1 0x29 PUSH1 0xF8 SHL PUSH1 0x64 DUP3 ADD MSTORE PUSH1 0x84 ADD PUSH2 0x172 JUMP JUMPDEST PUSH1 0x1 PUSH1 0x1 PUSH1 0xA0 SHL SUB DUP10 AND PUSH2 0x241 JUMPI DUP6 ISZERO DUP1 ISZERO PUSH2 0x1F5 JUMPI POP DUP5 ISZERO JUMPDEST PUSH2 0x241 JUMPI PUSH1 0x40 MLOAD PUSH3 0x461BCD PUSH1 0xE5 SHL DUP2 MSTORE PUSH1 0x20 PUSH1 0x4 DUP3 ADD MSTORE PUSH1 0x1B PUSH1 0x24 DUP3 ADD MSTORE PUSH32 0x4E756C6C206D65646961746F722063616E742074616B65206665650000000000 PUSH1 0x44 DUP3 ADD MSTORE PUSH1 0x64 ADD PUSH2 0x172 JUMP JUMPDEST DUP11 PUSH1 0x1 PUSH1 0x1 PUSH1 0xA0 SHL SUB AND DUP10 PUSH1 0x1 PUSH1 0x1 PUSH1 0xA0 SHL SUB AND SUB PUSH2 0x2A2 JUMPI PUSH1 0x40 MLOAD PUSH3 0x461BCD PUSH1 0xE5 SHL DUP2 MSTORE PUSH1 0x20 PUSH1 0x4 DUP3 ADD DUP2 SWAP1 MSTORE PUSH1 0x24 DUP3 ADD MSTORE PUSH32 0x4D65646961746F722063616E6E6F742062652074686520696E69746961746F72 PUSH1 0x44 DUP3 ADD MSTORE PUSH1 0x64 ADD PUSH2 0x172 JUMP JUMPDEST DUP10 PUSH1 0x1 PUSH1 0x1 PUSH1 0xA0 SHL SUB AND DUP10 PUSH1 0x1 PUSH1 0x1 PUSH1 0xA0 SHL SUB AND SUB PUSH2 0x30F JUMPI PUSH1 0x40 MLOAD PUSH3 0x461BCD PUSH1 0xE5 SHL DUP2 MSTORE PUSH1 0x20 PUSH1 0x4 DUP3 ADD MSTORE PUSH1 0x23 PUSH1 0x24 DUP3 ADD MSTORE PUSH32 0x4D65646961746F722063616E6E6F742062652074686520636F756E7465727061 PUSH1 0x44 DUP3 ADD MSTORE PUSH3 0x727479 PUSH1 0xE8 SHL PUSH1 0x64 DUP3 ADD MSTORE PUSH1 0x84 ADD PUSH2 0x172 JUMP JUMPDEST DUP10 PUSH1 0x1 PUSH1 0x1 PUSH1 0xA0 SHL SUB AND DUP12 PUSH1 0x1 PUSH1 0x1 PUSH1 0xA0 SHL SUB AND SUB PUSH2 0x37C JUMPI PUSH1 0x40 MLOAD PUSH3 0x461BCD PUSH1 0xE5 SHL DUP2 MSTORE PUSH1 0x20 PUSH1 0x4 DUP3 ADD MSTORE PUSH1 0x24 DUP1 DUP3 ADD MSTORE PUSH32 0x496E69746961746F722063616E6E6F742062652074686520636F756E74657270 PUSH1 0x44 DUP3 ADD MSTORE PUSH4 0x61727479 PUSH1 0xE0 SHL PUSH1 0x64 DUP3 ADD MSTORE PUSH1 0x84 ADD PUSH2 0x172 JUMP JUMPDEST PUSH0 PUSH2 0x387 DUP6 DUP9 PUSH2 0x8B4 JUMP JUMPDEST SWAP1 POP PUSH0 PUSH2 0x394 DUP7 DUP9 PUSH2 0x8B4 JUMP JUMPDEST SWAP1 POP PUSH5 0x2540BE400 DUP3 GT ISZERO PUSH2 0x3FE JUMPI PUSH1 0x40 MLOAD PUSH3 0x461BCD PUSH1 0xE5 SHL DUP2 MSTORE PUSH1 0x20 PUSH1 0x4 DUP3 ADD MSTORE PUSH1 0x2A PUSH1 0x24 DUP3 ADD MSTORE PUSH32 0x436F6E7472616374206665652070657263656E746167652063616E6E6F742065 PUSH1 0x44 DUP3 ADD MSTORE PUSH10 0x78636565642031303025 PUSH1 0xB0 SHL PUSH1 0x64 DUP3 ADD MSTORE PUSH1 0x84 ADD PUSH2 0x172 JUMP JUMPDEST PUSH5 0x2540BE400 DUP2 GT ISZERO PUSH2 0x466 JUMPI PUSH1 0x40 MLOAD PUSH3 0x461BCD PUSH1 0xE5 SHL DUP2 MSTORE PUSH1 0x20 PUSH1 0x4 DUP3 ADD MSTORE PUSH1 0x2A PUSH1 0x24 DUP3 ADD MSTORE PUSH32 0x4D65646961746F72206665652070657263656E746167652063616E6E6F742065 PUSH1 0x44 DUP3 ADD MSTORE PUSH10 0x78636565642031303025 PUSH1 0xB0 SHL PUSH1 0x64 DUP3 ADD MSTORE PUSH1 0x84 ADD PUSH2 0x172 JUMP JUMPDEST PUSH0 DUP11 GT PUSH2 0x4BF JUMPI PUSH1 0x40 MLOAD PUSH3 0x461BCD PUSH1 0xE5 SHL DUP2 MSTORE PUSH1 0x20 PUSH1 0x4 DUP3 ADD MSTORE PUSH1 0x21 PUSH1 0x24 DUP3 ADD MSTORE PUSH32 0x43616E7420637265617465206465616C2077697468207A65726F20616D6F756E PUSH1 0x44 DUP3 ADD MSTORE PUSH1 0x1D PUSH1 0xFA SHL PUSH1 0x64 DUP3 ADD MSTORE PUSH1 0x84 ADD PUSH2 0x172 JUMP JUMPDEST POP POP PUSH1 0x40 DUP1 MLOAD PUSH2 0x1C0 DUP2 ADD DUP3 MSTORE PUSH1 0x1 PUSH1 0x1 PUSH1 0xA0 SHL SUB SWAP13 DUP14 AND DUP2 MSTORE SWAP11 DUP13 AND PUSH1 0x20 DUP13 ADD MSTORE SWAP9 DUP12 AND SWAP9 DUP11 ADD SWAP9 SWAP1 SWAP9 MSTORE PUSH0 PUSH1 0x60 DUP11 ADD MSTORE PUSH1 0x80 DUP10 ADD DUP8 SWAP1 MSTORE PUSH1 0xA0 DUP10 ADD DUP7 SWAP1 MSTORE PUSH1 0xC0 DUP10 ADD SWAP7 SWAP1 SWAP7 MSTORE PUSH1 0xE0 DUP9 ADD SWAP5 SWAP1 SWAP5 MSTORE PUSH2 0x100 DUP8 ADD DUP2 SWAP1 MSTORE PUSH2 0x120 DUP8 ADD DUP3 SWAP1 MSTORE PUSH2 0x140 DUP8 ADD MSTORE PUSH2 0x160 DUP7 ADD MSTORE POP DUP5 AND PUSH2 0x180 DUP5 ADD MSTORE SWAP1 SWAP3 AND PUSH2 0x1A0 DUP3 ADD MSTORE SWAP2 SWAP1 POP JUMP JUMPDEST PUSH0 DUP3 PUSH0 ADD MLOAD DUP4 PUSH1 0x20 ADD MLOAD DUP5 PUSH1 0x40 ADD MLOAD DUP6 PUSH1 0x80 ADD MLOAD DUP7 PUSH1 0xA0 ADD MLOAD DUP8 PUSH1 0xC0 ADD MLOAD DUP9 PUSH1 0xE0 ADD MLOAD DUP10 PUSH2 0x100 ADD MLOAD DUP11 PUSH2 0x120 ADD MLOAD DUP12 PUSH2 0x140 ADD MLOAD DUP13 PUSH2 0x160 ADD MLOAD DUP14 PUSH2 0x180 ADD MLOAD DUP15 PUSH2 0x1A0 ADD MLOAD DUP15 PUSH1 0x40 MLOAD PUSH1 0x20 ADD PUSH2 0x5A7 SWAP15 SWAP14 SWAP13 SWAP12 SWAP11 SWAP10 SWAP9 SWAP8 SWAP7 SWAP6 SWAP5 SWAP4 SWAP3 SWAP2 SWAP1 PUSH2 0x8D3 JUMP JUMPDEST PUSH1 0x40 MLOAD PUSH1 0x20 DUP2 DUP4 SUB SUB DUP2 MSTORE SWAP1 PUSH1 0x40 MSTORE DUP1 MLOAD SWAP1 PUSH1 0x20 ADD KECCAK256 SWAP1 POP JUMPDEST SWAP3 SWAP2 POP POP JUMP JUMPDEST PUSH1 0x1 PUSH1 0x1 PUSH1 0xA0 SHL SUB DUP2 AND DUP2 EQ PUSH2 0x5DA JUMPI PUSH0 DUP1 REVERT JUMPDEST POP JUMP JUMPDEST DUP1 CALLDATALOAD PUSH2 0x5E8 DUP2 PUSH2 0x5C6 JUMP JUMPDEST SWAP2 SWAP1 POP JUMP JUMPDEST PUSH0 DUP1 PUSH0 DUP1 PUSH0 DUP1 PUSH0 DUP1 PUSH0 DUP1 PUSH2 0x140 DUP12 DUP14 SUB SLT ISZERO PUSH2 0x607 JUMPI PUSH0 DUP1 REVERT JUMPDEST DUP11 CALLDATALOAD PUSH2 0x612 DUP2 PUSH2 0x5C6 JUMP JUMPDEST SWAP10 POP PUSH1 0x20 DUP12 ADD CALLDATALOAD PUSH2 0x622 DUP2 PUSH2 0x5C6 JUMP JUMPDEST SWAP9 POP PUSH1 0x40 DUP12 ADD CALLDATALOAD PUSH2 0x632 DUP2 PUSH2 0x5C6 JUMP JUMPDEST SWAP8 POP PUSH1 0x60 DUP12 ADD CALLDATALOAD SWAP7 POP PUSH1 0x80 DUP12 ADD CALLDATALOAD SWAP6 POP PUSH1 0xA0 DUP12 ADD CALLDATALOAD SWAP5 POP PUSH1 0xC0 DUP12 ADD CALLDATALOAD SWAP4 POP PUSH1 0xE0 DUP12 ADD CALLDATALOAD SWAP3 POP PUSH2 0x100 DUP12 ADD CALLDATALOAD PUSH2 0x666 DUP2 PUSH2 0x5C6 JUMP JUMPDEST SWAP2 POP PUSH2 0x120 DUP12 ADD CALLDATALOAD PUSH2 0x677 DUP2 PUSH2 0x5C6 JUMP JUMPDEST DUP1 SWAP2 POP POP SWAP3 SWAP6 SWAP9 SWAP12 SWAP2 SWAP5 SWAP8 SWAP11 POP SWAP3 SWAP6 SWAP9 POP JUMP JUMPDEST DUP2 MLOAD PUSH1 0x1 PUSH1 0x1 PUSH1 0xA0 SHL SUB AND DUP2 MSTORE PUSH2 0x1C0 DUP2 ADD PUSH1 0x20 DUP4 ADD MLOAD PUSH2 0x6B6 PUSH1 0x20 DUP5 ADD DUP3 PUSH1 0x1 PUSH1 0x1 PUSH1 0xA0 SHL SUB AND SWAP1 MSTORE JUMP JUMPDEST POP PUSH1 0x40 DUP4 ADD MLOAD PUSH2 0x6D1 PUSH1 0x40 DUP5 ADD DUP3 PUSH1 0x1 PUSH1 0x1 PUSH1 0xA0 SHL SUB AND SWAP1 MSTORE JUMP JUMPDEST POP PUSH1 0x60 DUP4 ADD MLOAD PUSH2 0x6E5 PUSH1 0x60 DUP5 ADD DUP3 ISZERO ISZERO SWAP1 MSTORE JUMP JUMPDEST POP PUSH1 0x80 DUP4 ADD MLOAD PUSH1 0x80 DUP4 ADD MSTORE PUSH1 0xA0 DUP4 ADD MLOAD PUSH1 0xA0 DUP4 ADD MSTORE PUSH1 0xC0 DUP4 ADD MLOAD PUSH1 0xC0 DUP4 ADD MSTORE PUSH1 0xE0 DUP4 ADD MLOAD PUSH1 0xE0 DUP4 ADD MSTORE PUSH2 0x100 DUP4 ADD MLOAD PUSH2 0x100 DUP4 ADD MSTORE PUSH2 0x120 DUP4 ADD MLOAD PUSH2 0x120 DUP4 ADD MSTORE PUSH2 0x140 DUP4 ADD MLOAD PUSH2 0x140 DUP4 ADD MSTORE PUSH2 0x160 DUP4 ADD MLOAD PUSH2 0x160 DUP4 ADD MSTORE PUSH2 0x180 DUP4 ADD MLOAD PUSH2 0x75A PUSH2 0x180 DUP5 ADD DUP3 PUSH1 0x1 PUSH1 0x1 PUSH1 0xA0 SHL SUB AND SWAP1 MSTORE JUMP JUMPDEST POP PUSH2 0x1A0 DUP4 ADD MLOAD PUSH2 0x777 PUSH2 0x1A0 DUP5 ADD DUP3 PUSH1 0x1 PUSH1 0x1 PUSH1 0xA0 SHL SUB AND SWAP1 MSTORE JUMP JUMPDEST POP SWAP3 SWAP2 POP POP JUMP JUMPDEST PUSH1 0x40 MLOAD PUSH2 0x1C0 DUP2 ADD PUSH8 0xFFFFFFFFFFFFFFFF DUP2 GT DUP3 DUP3 LT OR ISZERO PUSH2 0x7AE JUMPI PUSH4 0x4E487B71 PUSH1 0xE0 SHL PUSH0 MSTORE PUSH1 0x41 PUSH1 0x4 MSTORE PUSH1 0x24 PUSH0 REVERT JUMPDEST PUSH1 0x40 MSTORE SWAP1 JUMP JUMPDEST DUP1 CALLDATALOAD DUP1 ISZERO ISZERO DUP2 EQ PUSH2 0x5E8 JUMPI PUSH0 DUP1 REVERT JUMPDEST PUSH0 DUP1 DUP3 DUP5 SUB PUSH2 0x1E0 DUP2 SLT ISZERO PUSH2 0x7D6 JUMPI PUSH0 DUP1 REVERT JUMPDEST PUSH2 0x1C0 DUP2 SLT ISZERO PUSH2 0x7E4 JUMPI PUSH0 DUP1 REVERT JUMPDEST POP PUSH2 0x7ED PUSH2 0x77E JUMP JUMPDEST PUSH2 0x7F6 DUP5 PUSH2 0x5DD JUMP JUMPDEST DUP2 MSTORE PUSH2 0x804 PUSH1 0x20 DUP6 ADD PUSH2 0x5DD JUMP JUMPDEST PUSH1 0x20 DUP3 ADD MSTORE PUSH2 0x815 PUSH1 0x40 DUP6 ADD PUSH2 0x5DD JUMP JUMPDEST PUSH1 0x40 DUP3 ADD MSTORE PUSH2 0x826 PUSH1 0x60 DUP6 ADD PUSH2 0x7B4 JUMP JUMPDEST PUSH1 0x60 DUP3 ADD MSTORE PUSH1 0x80 DUP5 DUP2 ADD CALLDATALOAD SWAP1 DUP3 ADD MSTORE PUSH1 0xA0 DUP1 DUP6 ADD CALLDATALOAD SWAP1 DUP3 ADD MSTORE PUSH1 0xC0 DUP1 DUP6 ADD CALLDATALOAD SWAP1 DUP3 ADD MSTORE PUSH1 0xE0 DUP1 DUP6 ADD CALLDATALOAD SWAP1 DUP3 ADD MSTORE PUSH2 0x100 DUP1 DUP6 ADD CALLDATALOAD SWAP1 DUP3 ADD MSTORE PUSH2 0x120 DUP1 DUP6 ADD CALLDATALOAD SWAP1 DUP3 ADD MSTORE PUSH2 0x140 DUP1 DUP6 ADD CALLDATALOAD SWAP1 DUP3 ADD MSTORE PUSH2 0x160 DUP1 DUP6 ADD CALLDATALOAD SWAP1 DUP3 ADD MSTORE PUSH2 0x88C PUSH2 0x180 DUP6 ADD PUSH2 0x5DD JUMP JUMPDEST PUSH2 0x180 DUP3 ADD MSTORE PUSH2 0x89F PUSH2 0x1A0 DUP6 ADD PUSH2 0x5DD JUMP JUMPDEST PUSH2 0x1A0 DUP3 ADD MSTORE SWAP5 PUSH2 0x1C0 SWAP4 SWAP1 SWAP4 ADD CALLDATALOAD SWAP4 POP POP POP JUMP JUMPDEST DUP1 DUP3 ADD DUP1 DUP3 GT ISZERO PUSH2 0x5C0 JUMPI PUSH4 0x4E487B71 PUSH1 0xE0 SHL PUSH0 MSTORE PUSH1 0x11 PUSH1 0x4 MSTORE PUSH1 0x24 PUSH0 REVERT JUMPDEST PUSH12 0xFFFFFFFFFFFFFFFFFFFFFFFF NOT DUP16 PUSH1 0x60 SHL AND DUP2 MSTORE PUSH2 0x901 PUSH1 0x14 DUP3 ADD DUP16 PUSH1 0x60 SHL PUSH1 0x1 PUSH1 0x1 PUSH1 0x60 SHL SUB NOT AND SWAP1 MSTORE JUMP JUMPDEST PUSH2 0x91A PUSH1 0x28 DUP3 ADD DUP15 PUSH1 0x60 SHL PUSH1 0x1 PUSH1 0x1 PUSH1 0x60 SHL SUB NOT AND SWAP1 MSTORE JUMP JUMPDEST DUP12 PUSH1 0x3C DUP3 ADD MSTORE DUP11 PUSH1 0x5C DUP3 ADD MSTORE DUP10 PUSH1 0x7C DUP3 ADD MSTORE DUP9 PUSH1 0x9C DUP3 ADD MSTORE DUP8 PUSH1 0xBC DUP3 ADD MSTORE DUP7 PUSH1 0xDC DUP3 ADD MSTORE DUP6 PUSH1 0xFC DUP3 ADD MSTORE DUP5 PUSH2 0x11C DUP3 ADD MSTORE PUSH2 0x965 PUSH2 0x13C DUP3 ADD DUP6 PUSH1 0x60 SHL PUSH1 0x1 PUSH1 0x1 PUSH1 0x60 SHL SUB NOT AND SWAP1 MSTORE JUMP JUMPDEST PUSH2 0x97F PUSH2 0x150 DUP3 ADD DUP5 PUSH1 0x60 SHL PUSH1 0x1 PUSH1 0x1 PUSH1 0x60 SHL SUB NOT AND SWAP1 MSTORE JUMP JUMPDEST PUSH2 0x164 DUP2 ADD SWAP2 SWAP1 SWAP2 MSTORE PUSH2 0x184 ADD SWAP14 SWAP13 POP POP POP POP POP POP POP POP POP POP POP POP POP JUMP INVALID LOG2 PUSH5 0x6970667358 0x22 SLT KECCAK256 0x4B PUSH31 0x17CC181E1E8A3039C87A073847C66A50615E78E00B956C59EF312D359A4264 PUSH20 0x6F6C634300081A00330000000000000000000000 "
				},
				"gasEstimates": {
					"creation": {
						"codeDepositCost": "503000",
						"executionCost": "564",
						"totalCost": "503564"
					},
					"external": {
						"createDeal(address,address,address,uint256,uint256,uint256,uint256,uint256,address,address)": "infinite",
						"createDealHash(Deal,uint256)": "infinite"
					}
				},
				"methodIdentifiers": {
					"createDeal(address,address,address,uint256,uint256,uint256,uint256,uint256,address,address)": "6abdb4e9",
					"createDealHash(Deal,uint256)": "91904373"
				}
			},
			"storageLayout": {
				"storage": [],
				"types": null
			},
			"userdoc": {
				"kind": "user",
				"methods": {},
				"version": 1
			}
		}
	}
}