{
	"WalletContract.sol": {
		"WalletContract": {
			"abi": [
				{
					"inputs": [
						{
							"internalType": "uint256",
							"name": "_PRC_DepositCommission",
							"type": "uint256"
						},
						{
							"internalType": "address",
							"name": "_commissionRecipient",
							"type": "address"
						}
					],
					"stateMutability": "nonpayable",
					"type": "constructor"
				},
				{
					"anonymous": false,
					"inputs": [
						{
							"indexed": false,
							"internalType": "uint256",
							"name": "newCommissionPercent",
							"type": "uint256"
						},
						{
							"indexed": false,
							"internalType": "address",
							"name": "newCommissionRecipient",
							"type": "address"
						}
					],
					"name": "CommissionChanged",
					"type": "event"
				},
				{
					"anonymous": false,
					"inputs": [
						{
							"indexed": false,
							"internalType": "bool",
							"name": "status",
							"type": "bool"
						}
					],
					"name": "ContractStatusChanged",
					"type": "event"
				},
				{
					"anonymous": false,
					"inputs": [
						{
							"indexed": true,
							"internalType": "address",
							"name": "user",
							"type": "address"
						},
						{
							"indexed": true,
							"internalType": "address",
							"name": "token",
							"type": "address"
						},
						{
							"indexed": false,
							"internalType": "uint256",
							"name": "amount",
							"type": "uint256"
						},
						{
							"indexed": false,
							"internalType": "uint256",
							"name": "commission",
							"type": "uint256"
						}
					],
					"name": "Deposit",
					"type": "event"
				},
				{
					"anonymous": false,
					"inputs": [
						{
							"indexed": true,
							"internalType": "address",
							"name": "previousOwner",
							"type": "address"
						},
						{
							"indexed": true,
							"internalType": "address",
							"name": "newOwner",
							"type": "address"
						}
					],
					"name": "OwnershipTransferred",
					"type": "event"
				},
				{
					"anonymous": false,
					"inputs": [
						{
							"indexed": true,
							"internalType": "address",
							"name": "from",
							"type": "address"
						},
						{
							"indexed": true,
							"internalType": "address",
							"name": "to",
							"type": "address"
						},
						{
							"indexed": true,
							"internalType": "address",
							"name": "token",
							"type": "address"
						},
						{
							"indexed": false,
							"internalType": "uint256",
							"name": "value",
							"type": "uint256"
						}
					],
					"name": "Transfer",
					"type": "event"
				},
				{
					"anonymous": false,
					"inputs": [
						{
							"indexed": true,
							"internalType": "address",
							"name": "user",
							"type": "address"
						},
						{
							"indexed": true,
							"internalType": "address",
							"name": "token",
							"type": "address"
						},
						{
							"indexed": false,
							"internalType": "uint256",
							"name": "amount",
							"type": "uint256"
						}
					],
					"name": "Withdrawal",
					"type": "event"
				},
				{
					"inputs": [],
					"name": "PRC_DepositCommission",
					"outputs": [
						{
							"internalType": "uint256",
							"name": "",
							"type": "uint256"
						}
					],
					"stateMutability": "view",
					"type": "function"
				},
				{
					"inputs": [
						{
							"internalType": "address",
							"name": "user",
							"type": "address"
						}
					],
					"name": "balanceOf",
					"outputs": [
						{
							"internalType": "uint256",
							"name": "",
							"type": "uint256"
						}
					],
					"stateMutability": "view",
					"type": "function"
				},
				{
					"inputs": [
						{
							"internalType": "address",
							"name": "user",
							"type": "address"
						},
						{
							"internalType": "address",
							"name": "token",
							"type": "address"
						}
					],
					"name": "balanceOf",
					"outputs": [
						{
							"internalType": "uint256",
							"name": "",
							"type": "uint256"
						}
					],
					"stateMutability": "view",
					"type": "function"
				},
				{
					"inputs": [
						{
							"internalType": "address",
							"name": "",
							"type": "address"
						},
						{
							"internalType": "address",
							"name": "",
							"type": "address"
						}
					],
					"name": "balances",
					"outputs": [
						{
							"internalType": "uint256",
							"name": "",
							"type": "uint256"
						}
					],
					"stateMutability": "view",
					"type": "function"
				},
				{
					"inputs": [],
					"name": "commissionRecipient",
					"outputs": [
						{
							"internalType": "address",
							"name": "",
							"type": "address"
						}
					],
					"stateMutability": "view",
					"type": "function"
				},
				{
					"inputs": [],
					"name": "contractEnabled",
					"outputs": [
						{
							"internalType": "bool",
							"name": "",
							"type": "bool"
						}
					],
					"stateMutability": "view",
					"type": "function"
				},
				{
					"inputs": [
						{
							"internalType": "address",
							"name": "token",
							"type": "address"
						},
						{
							"internalType": "uint256",
							"name": "amount",
							"type": "uint256"
						}
					],
					"name": "deposit",
					"outputs": [],
					"stateMutability": "payable",
					"type": "function"
				},
				{
					"inputs": [],
					"name": "disableContract",
					"outputs": [],
					"stateMutability": "nonpayable",
					"type": "function"
				},
				{
					"inputs": [],
					"name": "enableContract",
					"outputs": [],
					"stateMutability": "nonpayable",
					"type": "function"
				},
				{
					"inputs": [
						{
							"internalType": "uint256",
							"name": "amount",
							"type": "uint256"
						}
					],
					"name": "getAmountToDepositViaComission",
					"outputs": [
						{
							"internalType": "uint256",
							"name": "",
							"type": "uint256"
						}
					],
					"stateMutability": "view",
					"type": "function"
				},
				{
					"inputs": [],
					"name": "owner",
					"outputs": [
						{
							"internalType": "address",
							"name": "",
							"type": "address"
						}
					],
					"stateMutability": "view",
					"type": "function"
				},
				{
					"inputs": [
						{
							"internalType": "uint256",
							"name": "PRC_NewCommission",
							"type": "uint256"
						},
						{
							"internalType": "address",
							"name": "newRecipient",
							"type": "address"
						}
					],
					"name": "setDepositCommission",
					"outputs": [],
					"stateMutability": "nonpayable",
					"type": "function"
				},
				{
					"inputs": [
						{
							"internalType": "address",
							"name": "to",
							"type": "address"
						},
						{
							"internalType": "address",
							"name": "token",
							"type": "address"
						},
						{
							"internalType": "uint256",
							"name": "amount",
							"type": "uint256"
						}
					],
					"name": "transfer",
					"outputs": [
						{
							"internalType": "bool",
							"name": "",
							"type": "bool"
						}
					],
					"stateMutability": "nonpayable",
					"type": "function"
				},
				{
					"inputs": [
						{
							"internalType": "address",
							"name": "newOwner",
							"type": "address"
						}
					],
					"name": "transferOwnership",
					"outputs": [],
					"stateMutability": "nonpayable",
					"type": "function"
				},
				{
					"inputs": [
						{
							"internalType": "address",
							"name": "token",
							"type": "address"
						},
						{
							"internalType": "uint256",
							"name": "amount",
							"type": "uint256"
						}
					],
					"name": "withdraw",
					"outputs": [
						{
							"internalType": "bool",
							"name": "",
							"type": "bool"
						}
					],
					"stateMutability": "nonpayable",
					"type": "function"
				}
			],
			"devdoc": {
				"kind": "dev",
				"methods": {},
				"version": 1
			},
			"evm": {
				"assembly": "    /* \"WalletContract.sol\":126:5642  contract WalletContract is LockableContract... */\n  0x80\n  jumpi(tag_7, callvalue)\n  0x1f\n  bytecodeSize\n  codesize\n  dup2\n  swap1\n  sub\n  swap2\n  dup3\n  add\n  not(0x1f)\n  and\n  dup4\n  add\n  swap2\n  sub(shl(0x40, 0x01), 0x01)\n  dup4\n  gt\n  dup5\n  dup5\n  lt\n  or\n  tag_3\n  jumpi\n  dup1\n  dup5\n  swap3\n  0x40\n  swap5\n  dup6\n  mstore\n  dup4\n  codecopy\n  dup2\n  add\n  sub\n  slt\n  tag_7\n  jumpi\n  dup1\n  mload\n  0x20\n  swap1\n  swap2\n  add\n  mload\n  sub(shl(0xa0, 0x01), 0x01)\n  dup2\n  and\n  swap2\n  swap1\n  dup3\n  swap1\n  sub\n  tag_7\n  jumpi\n  0x00\n  dup1\n  sload\n  not(sub(shl(0xa8, 0x01), 0x01))\n    /* \"Percent.sol\":156:161  SCALE */\n  and\n    /* \"LockableContract.sol\":766:776  msg.sender */\n  caller\n    /* \"Percent.sol\":156:161  SCALE */\n  or\n  shl(0xa0, 0x01)\n  or\n  dup1\n  dup3\n  sstore\n    /* \"WalletContract.sol\":126:5642  contract WalletContract is LockableContract... */\n  mload(0x40)\n  swap2\n  sub(shl(0xa0, 0x01), 0x01)\n  swap1\n  swap2\n  and\n  swap1\n    /* \"LockableContract.sol\":834:874  OwnershipTransferred(address(0), _owner) */\n  0x8be0079c531659141344cd1fd0a4f28419497f9722a3daafe3b4186f6b6457e0\n  dup2\n  dup1\n  log3\n    /* \"WalletContract.sol\":1126:1160  _commissionRecipient != address(0) */\n  dup3\n  iszero\n    /* \"WalletContract.sol\":126:5642  contract WalletContract is LockableContract... */\n  tag_9\n  jumpi\n    /* \"WalletContract.sol\":1286:1328  _PRC_DepositCommission <= Percent.MAXVALUE */\n  pop\n    /* \"Percent.sol\":200:206  10**10 */\n  0x02540be400\n    /* \"WalletContract.sol\":1286:1328  _PRC_DepositCommission <= Percent.MAXVALUE */\n  dup2\n  gt\n    /* \"Percent.sol\":156:161  SCALE */\n  tag_11\n  jumpi\n    /* \"WalletContract.sol\":1348:1394  PRC_DepositCommission = _PRC_DepositCommission */\n  0x02\n    /* \"Percent.sol\":156:161  SCALE */\n  sstore\n    /* \"WalletContract.sol\":1405:1447  commissionRecipient = _commissionRecipient */\n  0x03\n    /* \"Percent.sol\":156:161  SCALE */\n  dup1\n  sload\n  not(sub(shl(0xa0, 0x01), 0x01))\n  and\n  swap2\n  swap1\n  swap2\n  or\n  swap1\n  sstore\n    /* \"WalletContract.sol\":126:5642  contract WalletContract is LockableContract... */\n  mload(0x40)\n  dataSize(sub_0)\n  swap1\n  dup2\n  dataOffset(sub_0)\n  dup3\n  codecopy\n  return\n    /* \"Percent.sol\":156:161  SCALE */\ntag_11:\n    /* \"WalletContract.sol\":126:5642  contract WalletContract is LockableContract... */\n  mload(0x40)\n  shl(0xe5, 0x461bcd)\n    /* \"Percent.sol\":156:161  SCALE */\n  dup2\n  mstore\n    /* \"WalletContract.sol\":126:5642  contract WalletContract is LockableContract... */\n  0x20\n    /* \"Percent.sol\":156:161  SCALE */\n  0x04\n  dup3\n  add\n  mstore\n  0x02\n  0x24\n  dup3\n  add\n    /* \"WalletContract.sol\":126:5642  contract WalletContract is LockableContract... */\n  mstore\n  shl(0xf0, 0x4335)\n  0x44\n  dup3\n  add\n    /* \"Percent.sol\":156:161  SCALE */\n  mstore\n  0x64\n  swap1\n  revert\n    /* \"WalletContract.sol\":126:5642  contract WalletContract is LockableContract... */\ntag_9:\n  shl(0xe5, 0x461bcd)\n  dup2\n  mstore\n  0x20\n  0x04\n  dup3\n  add\n  mstore\n  0x02\n  0x24\n  dup3\n  add\n  mstore\n  shl(0xf0, 0x4331)\n  0x44\n  dup3\n  add\n  mstore\n  0x64\n  swap1\n  revert\ntag_7:\n  0x00\n  dup1\n  revert\ntag_3:\n  mstore(0x00, shl(0xe0, 0x4e487b71))\n  mstore(0x04, 0x41)\n  revert(0x00, 0x24)\nstop\n\nsub_0: assembly {\n        /* \"WalletContract.sol\":126:5642  contract WalletContract is LockableContract... */\n      0x80\n      dup1\n      0x40\n      mstore\n      jumpi(tag_13, iszero(lt(calldatasize, 0x04)))\n      0x00\n      dup1\n      revert\n    tag_13:\n      shr(0xe0, calldataload(0x00))\n      swap1\n      dup2\n      0x06fd154a\n      eq\n      tag_15\n      jumpi\n      pop\n      dup1\n      0x15f8a314\n      eq\n      tag_17\n      jumpi\n      dup1\n      0x367edd32\n      eq\n      tag_19\n      jumpi\n      dup1\n      0x39b3edb0\n      eq\n      tag_21\n      jumpi\n      dup1\n      0x41b3a0d9\n      eq\n      tag_23\n      jumpi\n      dup1\n      0x47e7ef24\n      eq\n      tag_25\n      jumpi\n      dup1\n      0x70a08231\n      eq\n      tag_27\n      jumpi\n      dup1\n      0x894ba833\n      eq\n      tag_29\n      jumpi\n      dup1\n      0x8da5cb5b\n      eq\n      tag_31\n      jumpi\n      dup1\n      0xbeabacc8\n      eq\n      tag_33\n      jumpi\n      dup1\n      0xc23f001f\n      eq\n      tag_43\n      jumpi\n      dup1\n      0xf2fde38b\n      eq\n      tag_37\n      jumpi\n      dup1\n      0xf3fef3a3\n      eq\n      tag_39\n      jumpi\n      dup1\n      0xf5f6a8e4\n      eq\n      tag_41\n      jumpi\n      0xf7888aec\n      eq\n      tag_43\n      jumpi\n      0x00\n      dup1\n      revert\n    tag_43:\n      jumpi(tag_47, callvalue)\n      jumpi(tag_47, slt(add(not(0x03), calldatasize), 0x40))\n      tag_49\n      tag_2\n      jump\t// in\n    tag_49:\n      tag_50\n      tag_1\n      jump\t// in\n    tag_50:\n      sub(shl(0xa0, 0x01), 0x01)\n      swap2\n      dup3\n      and\n      0x00\n      swap1\n      dup2\n      mstore\n      0x01\n      0x20\n      swap1\n      dup2\n      mstore\n      0x40\n      dup1\n      dup4\n      keccak256\n      swap5\n      swap1\n      swap4\n      and\n      dup3\n      mstore\n      swap3\n      dup4\n      mstore\n      dup2\n      swap1\n      keccak256\n        /* \"Percent.sol\":156:161  SCALE */\n      sload\n        /* \"WalletContract.sol\":126:5642  contract WalletContract is LockableContract... */\n      swap1\n      mload\n      swap1\n      dup2\n      mstore\n      return\n    tag_47:\n      0x00\n      dup1\n      revert\n    tag_41:\n      jumpi(tag_47, callvalue)\n      jumpi(tag_47, slt(add(not(0x03), calldatasize), 0x00))\n      0x20\n        /* \"WalletContract.sol\":406:442  uint256 public PRC_DepositCommission */\n      0x02\n        /* \"WalletContract.sol\":126:5642  contract WalletContract is LockableContract... */\n      sload\n      mload(0x40)\n      swap1\n      dup2\n      mstore\n      return\n    tag_39:\n      jumpi(tag_47, callvalue)\n      jumpi(tag_47, slt(add(not(0x03), calldatasize), 0x40))\n      0x20\n        /* \"WalletContract.sol\":2982:3031  withdrawFromContractTo(msg.sender, token, amount) */\n      tag_59\n        /* \"WalletContract.sol\":126:5642  contract WalletContract is LockableContract... */\n      tag_60\n      tag_2\n      jump\t// in\n    tag_60:\n      calldataload(0x24)\n        /* \"WalletContract.sol\":2862:2872  msg.sender */\n      swap1\n      caller\n        /* \"WalletContract.sol\":126:5642  contract WalletContract is LockableContract... */\n      0x00\n      mstore\n      0x01\n      dup5\n      mstore\n      keccak256(0x00, 0x40)\n      0x01\n      dup1\n      0xa0\n      shl\n      sub\n      dup3\n      and\n      0x00\n      mstore\n      dup5\n      mstore\n        /* \"WalletContract.sol\":2844:2897  require(balanceOf(msg.sender, token) >= amount, \"T1\") */\n      tag_61\n        /* \"WalletContract.sol\":126:5642  contract WalletContract is LockableContract... */\n      dup3\n      keccak256(0x00, 0x40)\n        /* \"Percent.sol\":156:161  SCALE */\n      sload\n        /* \"WalletContract.sol\":2852:2890  balanceOf(msg.sender, token) >= amount */\n      lt\n      iszero\n        /* \"WalletContract.sol\":2844:2897  require(balanceOf(msg.sender, token) >= amount, \"T1\") */\n      tag_8\n      jump\t// in\n    tag_61:\n        /* \"WalletContract.sol\":2910:2954  removeBalanceFrom(msg.sender, token, amount) */\n      tag_62\n        /* \"WalletContract.sol\":2862:2872  msg.sender */\n      dup3\n      dup3\n      caller\n        /* \"WalletContract.sol\":2910:2954  removeBalanceFrom(msg.sender, token, amount) */\n      tag_11\n      jump\t// in\n    tag_62:\n      pop\n        /* \"WalletContract.sol\":2862:2872  msg.sender */\n      caller\n        /* \"WalletContract.sol\":2982:3031  withdrawFromContractTo(msg.sender, token, amount) */\n      tag_12\n      jump\t// in\n    tag_59:\n        /* \"WalletContract.sol\":126:5642  contract WalletContract is LockableContract... */\n      mload(0x40)\n      swap1\n      iszero\n      iszero\n      dup2\n      mstore\n      return\n    tag_37:\n      jumpi(tag_47, callvalue)\n      jumpi(tag_47, slt(add(not(0x03), calldatasize), 0x20))\n      tag_67\n      tag_2\n      jump\t// in\n    tag_67:\n      sload(0x00)\n      sub(shl(0xa0, 0x01), 0x01)\n      dup2\n      and\n      swap2\n        /* \"LockableContract.sol\":474:509  require(msg.sender == _owner, \"L2\") */\n      tag_68\n        /* \"LockableContract.sol\":482:492  msg.sender */\n      caller\n        /* \"LockableContract.sol\":482:502  msg.sender == _owner */\n      dup5\n      eq\n        /* \"LockableContract.sol\":474:509  require(msg.sender == _owner, \"L2\") */\n      tag_3\n      jump\t// in\n    tag_68:\n      sub(shl(0xa0, 0x01), 0x01)\n        /* \"WalletContract.sol\":126:5642  contract WalletContract is LockableContract... */\n      and\n      swap2\n        /* \"LockableContract.sol\":1193:1215  newOwner != address(0) */\n      dup3\n      iszero\n        /* \"WalletContract.sol\":126:5642  contract WalletContract is LockableContract... */\n      tag_69\n      jumpi\n        /* \"LockableContract.sol\":1274:1312  OwnershipTransferred(_owner, newOwner) */\n      dup3\n      swap1\n      0x8be0079c531659141344cd1fd0a4f28419497f9722a3daafe3b4186f6b6457e0\n        /* \"WalletContract.sol\":126:5642  contract WalletContract is LockableContract... */\n      0x00\n        /* \"LockableContract.sol\":1274:1312  OwnershipTransferred(_owner, newOwner) */\n      dup1\n      log3\n      not(sub(shl(0xa0, 0x01), 0x01))\n        /* \"Percent.sol\":156:161  SCALE */\n      and\n      or\n        /* \"WalletContract.sol\":126:5642  contract WalletContract is LockableContract... */\n      0x00\n        /* \"Percent.sol\":156:161  SCALE */\n      sstore\n        /* \"WalletContract.sol\":126:5642  contract WalletContract is LockableContract... */\n      stop\n    tag_69:\n      mload(0x40)\n      shl(0xe5, 0x461bcd)\n      dup2\n      mstore\n      0x20\n      0x04\n      dup3\n      add\n      mstore\n      0x26\n      0x24\n      dup3\n      add\n      mstore\n      0x4f776e61626c653a206e6577206f776e657220697320746865207a65726f2061\n      0x44\n      dup3\n      add\n      mstore\n      shl(0xd0, 0x646472657373)\n      0x64\n      dup3\n      add\n      mstore\n      0x84\n      swap1\n      revert\n    tag_33:\n      jumpi(tag_47, callvalue)\n      jumpi(tag_47, slt(add(not(0x03), calldatasize), 0x60))\n      tag_81\n      tag_2\n      jump\t// in\n    tag_81:\n      tag_82\n      tag_1\n      jump\t// in\n    tag_82:\n      calldataload(0x44)\n        /* \"WalletContract.sol\":3199:3209  msg.sender */\n      swap2\n      caller\n        /* \"WalletContract.sol\":126:5642  contract WalletContract is LockableContract... */\n      0x00\n      mstore\n      mstore(0x20, 0x01)\n      keccak256(0x00, 0x40)\n      0x01\n      dup1\n      0xa0\n      shl\n      sub\n      dup4\n      and\n      0x00\n      mstore\n      0x20\n      mstore\n        /* \"WalletContract.sol\":3181:3234  require(balanceOf(msg.sender, token) >= amount, \"T1\") */\n      tag_83\n        /* \"WalletContract.sol\":126:5642  contract WalletContract is LockableContract... */\n      dup4\n      keccak256(0x00, 0x40)\n        /* \"Percent.sol\":156:161  SCALE */\n      sload\n        /* \"WalletContract.sol\":3189:3227  balanceOf(msg.sender, token) >= amount */\n      lt\n      iszero\n        /* \"WalletContract.sol\":3181:3234  require(balanceOf(msg.sender, token) >= amount, \"T1\") */\n      tag_8\n      jump\t// in\n    tag_83:\n        /* \"WalletContract.sol\":3199:3209  msg.sender */\n      caller\n        /* \"WalletContract.sol\":126:5642  contract WalletContract is LockableContract... */\n      0x00\n      mstore\n      mstore(0x20, 0x01)\n      keccak256(0x00, 0x40)\n      0x01\n      dup1\n      0xa0\n      shl\n      sub\n      dup4\n      and\n      0x00\n      mstore\n      0x20\n      mstore\n      keccak256(0x00, 0x40)\n        /* \"WalletContract.sol\":3285:3316  balances[from][token] -= amount */\n      tag_84\n        /* \"Percent.sol\":156:161  SCALE */\n      dup5\n      dup3\n      sload\n        /* \"WalletContract.sol\":3285:3316  balances[from][token] -= amount */\n      tag_9\n      jump\t// in\n    tag_84:\n        /* \"Percent.sol\":156:161  SCALE */\n      swap1\n      sstore\n        /* \"WalletContract.sol\":126:5642  contract WalletContract is LockableContract... */\n      0x01\n      dup1\n      0xa0\n      shl\n      sub\n      and\n      swap1\n      dup2\n      0x00\n      mstore\n      mstore(0x20, 0x01)\n      keccak256(0x00, 0x40)\n      0x01\n      dup1\n      0xa0\n      shl\n      sub\n      dup3\n      and\n      0x00\n      mstore\n      0x20\n      mstore\n      keccak256(0x00, 0x40)\n        /* \"WalletContract.sol\":3327:3356  balances[to][token] += amount */\n      tag_85\n        /* \"Percent.sol\":156:161  SCALE */\n      dup5\n      dup3\n      sload\n        /* \"WalletContract.sol\":3327:3356  balances[to][token] += amount */\n      tag_6\n      jump\t// in\n    tag_85:\n        /* \"Percent.sol\":156:161  SCALE */\n      swap1\n      sstore\n        /* \"WalletContract.sol\":126:5642  contract WalletContract is LockableContract... */\n      mload(0x40)\n      swap3\n      dup4\n      mstore\n      sub(shl(0xa0, 0x01), 0x01)\n      and\n      swap2\n        /* \"WalletContract.sol\":3199:3209  msg.sender */\n      caller\n      swap1\n        /* \"WalletContract.sol\":3374:3406  Transfer(from, to,token, amount) */\n      0xd1398bee19313d6bf672ccb116e51f4a1a947e91c757907f51fbb5b5e56c698f\n      swap1\n        /* \"WalletContract.sol\":126:5642  contract WalletContract is LockableContract... */\n      0x20\n      swap1\n        /* \"WalletContract.sol\":3374:3406  Transfer(from, to,token, amount) */\n      log4\n        /* \"WalletContract.sol\":126:5642  contract WalletContract is LockableContract... */\n      0x20\n      mload(0x40)\n      0x01\n      dup2\n      mstore\n      return\n    tag_31:\n      jumpi(tag_47, callvalue)\n      jumpi(tag_47, slt(add(not(0x03), calldatasize), 0x00))\n      sload(0x00)\n      mload(0x40)\n      sub(shl(0xa0, 0x01), 0x01)\n      swap1\n      swap2\n      and\n      dup2\n      mstore\n      0x20\n      swap1\n      return\n    tag_29:\n      jumpi(tag_47, callvalue)\n      jumpi(tag_47, slt(add(not(0x03), calldatasize), 0x00))\n      sload(0x00)\n        /* \"LockableContract.sol\":474:509  require(msg.sender == _owner, \"L2\") */\n      tag_94\n        /* \"LockableContract.sol\":482:492  msg.sender */\n      caller\n      sub(shl(0xa0, 0x01), 0x01)\n        /* \"WalletContract.sol\":126:5642  contract WalletContract is LockableContract... */\n      dup4\n      and\n        /* \"LockableContract.sol\":482:502  msg.sender == _owner */\n      eq\n        /* \"LockableContract.sol\":474:509  require(msg.sender == _owner, \"L2\") */\n      tag_3\n      jump\t// in\n    tag_94:\n        /* \"WalletContract.sol\":126:5642  contract WalletContract is LockableContract... */\n      not(shl(0xa0, 0xff))\n      and\n      0x00\n      sstore\n        /* \"LockableContract.sol\":1676:1704  ContractStatusChanged(false) */\n      0x017904e4fe7d59bb4603c7c045bc275a05da9ea3a4ac007fc80fffeaf119186d\n        /* \"WalletContract.sol\":126:5642  contract WalletContract is LockableContract... */\n      0x20\n      mload(0x40)\n      0x00\n      dup2\n      mstore\n        /* \"LockableContract.sol\":1676:1704  ContractStatusChanged(false) */\n      log1\n        /* \"WalletContract.sol\":126:5642  contract WalletContract is LockableContract... */\n      stop\n    tag_27:\n      jumpi(tag_47, callvalue)\n      jumpi(tag_47, slt(add(not(0x03), calldatasize), 0x20))\n      sub(shl(0xa0, 0x01), 0x01)\n      tag_99\n      tag_2\n      jump\t// in\n    tag_99:\n      and\n      0x00\n      mstore\n        /* \"WalletContract.sol\":3591:3599  balances */\n      0x01\n        /* \"WalletContract.sol\":126:5642  contract WalletContract is LockableContract... */\n      0x20\n      mstore\n      keccak256(0x00, 0x40)\n      0x00\n      dup1\n      mstore\n      0x20\n      mstore\n      0x20\n      keccak256(0x00, 0x40)\n        /* \"Percent.sol\":156:161  SCALE */\n      sload\n        /* \"WalletContract.sol\":126:5642  contract WalletContract is LockableContract... */\n      mload(0x40)\n      swap1\n      dup2\n      mstore\n      return\n    tag_25:\n      jumpi(tag_47, slt(add(not(0x03), calldatasize), 0x40))\n      tag_102\n      tag_2\n      jump\t// in\n    tag_102:\n      calldataload(0x24)\n      jumpi(tag_103, iszero(and(shr(0xa0, sload(0x00)), 0xff)))\n        /* \"WalletContract.sol\":1813:1838  require(amount > 0, \"C5\") */\n      tag_105\n        /* \"WalletContract.sol\":1821:1831  amount > 0 */\n      dup2\n      iszero\n      iszero\n        /* \"WalletContract.sol\":1813:1838  require(amount > 0, \"C5\") */\n      tag_4\n      jump\t// in\n    tag_105:\n        /* \"WalletContract.sol\":1935:1956  PRC_DepositCommission */\n      0x02\n        /* \"Percent.sol\":156:161  SCALE */\n      sload\n        /* \"WalletContract.sol\":126:5642  contract WalletContract is LockableContract... */\n      mload(0x40)\n      swap1\n      shl(0xe0, 0x1c8f0847)\n        /* \"WalletContract.sol\":1905:1957  Percent.applyToNumber(amount, PRC_DepositCommission) */\n      dup3\n      mstore\n      dup3\n        /* \"WalletContract.sol\":126:5642  contract WalletContract is LockableContract... */\n      0x04\n        /* \"WalletContract.sol\":1905:1957  Percent.applyToNumber(amount, PRC_DepositCommission) */\n      dup4\n      add\n        /* \"WalletContract.sol\":126:5642  contract WalletContract is LockableContract... */\n      mstore\n      0x24\n      dup3\n      add\n      mstore\n      0x20\n        /* \"WalletContract.sol\":1905:1912  Percent */\n      dup2\n        /* \"WalletContract.sol\":1905:1957  Percent.applyToNumber(amount, PRC_DepositCommission) */\n      0x44\n        /* \"WalletContract.sol\":1905:1912  Percent */\n      dup2\n      linkerSymbol(\"8537b7efa173772577da826929141ce9397d1aa5c05ce45dab4f7ac968e3002d\")\n        /* \"WalletContract.sol\":1905:1957  Percent.applyToNumber(amount, PRC_DepositCommission) */\n      gas\n      delegatecall\n      swap1\n      dup2\n      iszero\n      tag_119\n      jumpi\n        /* \"WalletContract.sol\":126:5642  contract WalletContract is LockableContract... */\n      0x00\n        /* \"WalletContract.sol\":1905:1957  Percent.applyToNumber(amount, PRC_DepositCommission) */\n      swap2\n      tag_108\n      jumpi\n        /* \"WalletContract.sol\":126:5642  contract WalletContract is LockableContract... */\n    tag_109:\n      pop\n      sub(shl(0xa0, 0x01), 0x01)\n      dup4\n      and\n      swap3\n        /* \"WalletContract.sol\":2058:2077  token == address(0) */\n      dup4\n        /* \"WalletContract.sol\":126:5642  contract WalletContract is LockableContract... */\n      tag_110\n      jumpi\n        /* \"WalletContract.sol\":2215:2234  amount + commission */\n      tag_112\n      dup3\n      dup5\n      tag_6\n      jump\t// in\n    tag_112:\n        /* \"WalletContract.sol\":2202:2211  msg.value */\n      callvalue\n        /* \"WalletContract.sol\":2202:2234  msg.value == amount + commission */\n      sub\n        /* \"WalletContract.sol\":126:5642  contract WalletContract is LockableContract... */\n      tag_113\n      jumpi\n        /* \"WalletContract.sol\":2271:2281  msg.sender */\n      dup2\n      dup2\n        /* \"WalletContract.sol\":2258:2297  addBalanceTo(msg.sender, token, amount) */\n      tag_115\n        /* \"WalletContract.sol\":2271:2281  msg.sender */\n      dup6\n        /* \"WalletContract.sol\":2312:2363  addBalanceTo(commissionRecipient,token, commission) */\n      tag_116\n        /* \"WalletContract.sol\":2271:2281  msg.sender */\n      swap5\n      caller\n        /* \"WalletContract.sol\":2258:2297  addBalanceTo(msg.sender, token, amount) */\n      tag_10\n      jump\t// in\n    tag_115:\n      pop\n        /* \"WalletContract.sol\":2325:2344  commissionRecipient */\n      0x03\n        /* \"WalletContract.sol\":126:5642  contract WalletContract is LockableContract... */\n      sload\n      sub(shl(0xa0, 0x01), 0x01)\n      and\n        /* \"WalletContract.sol\":2312:2363  addBalanceTo(commissionRecipient,token, commission) */\n      tag_10\n      jump\t// in\n    tag_116:\n      pop\n        /* \"WalletContract.sol\":2054:2618  if (token == address(0)) {... */\n    tag_117:\n        /* \"WalletContract.sol\":126:5642  contract WalletContract is LockableContract... */\n      mload(0x40)\n      swap2\n      dup3\n      mstore\n      0x20\n      dup3\n      add\n      mstore\n        /* \"WalletContract.sol\":2635:2680  Deposit(msg.sender, token,amount, commission) */\n      0xdcbc1c05240f31ff3ad067ef1ee35ce4997762752e3a095284754544f4c709d7\n        /* \"WalletContract.sol\":126:5642  contract WalletContract is LockableContract... */\n      0x40\n        /* \"WalletContract.sol\":2643:2653  msg.sender */\n      caller\n        /* \"WalletContract.sol\":2635:2680  Deposit(msg.sender, token,amount, commission) */\n      swap3\n      log3\n        /* \"WalletContract.sol\":126:5642  contract WalletContract is LockableContract... */\n      stop\n    tag_113:\n      mload(0x40)\n      shl(0xe5, 0x461bcd)\n      dup2\n      mstore\n      0x20\n      0x04\n      dup3\n      add\n      mstore\n        /* \"WalletContract.sol\":1935:1956  PRC_DepositCommission */\n      0x02\n        /* \"WalletContract.sol\":126:5642  contract WalletContract is LockableContract... */\n      0x24\n      dup3\n      add\n      mstore\n      shl(0xf2, 0x10cd)\n        /* \"WalletContract.sol\":1905:1957  Percent.applyToNumber(amount, PRC_DepositCommission) */\n      0x44\n        /* \"WalletContract.sol\":126:5642  contract WalletContract is LockableContract... */\n      dup3\n      add\n      mstore\n      0x64\n      swap1\n      revert\n        /* \"WalletContract.sol\":2054:2618  if (token == address(0)) {... */\n    tag_110:\n        /* \"WalletContract.sol\":2457:2476  amount + commission */\n      tag_118\n      dup3\n      dup5\n      tag_6\n      jump\t// in\n    tag_118:\n        /* \"WalletContract.sol\":126:5642  contract WalletContract is LockableContract... */\n      mload(0x40)\n      swap1\n      shl(0xe0, 0x23b872dd)\n        /* \"WalletContract.sol\":2404:2477  NET20(token).transferFrom(msg.sender, address(this), amount + commission) */\n      dup3\n      mstore\n        /* \"WalletContract.sol\":2430:2440  msg.sender */\n      caller\n        /* \"WalletContract.sol\":126:5642  contract WalletContract is LockableContract... */\n      0x04\n        /* \"WalletContract.sol\":2404:2477  NET20(token).transferFrom(msg.sender, address(this), amount + commission) */\n      dup4\n      add\n        /* \"WalletContract.sol\":126:5642  contract WalletContract is LockableContract... */\n      mstore\n        /* \"WalletContract.sol\":2450:2454  this */\n      address\n        /* \"WalletContract.sol\":126:5642  contract WalletContract is LockableContract... */\n      0x24\n      dup4\n      add\n      mstore\n        /* \"WalletContract.sol\":1905:1957  Percent.applyToNumber(amount, PRC_DepositCommission) */\n      0x44\n        /* \"WalletContract.sol\":126:5642  contract WalletContract is LockableContract... */\n      dup3\n      add\n      mstore\n      0x20\n        /* \"WalletContract.sol\":2404:2477  NET20(token).transferFrom(msg.sender, address(this), amount + commission) */\n      dup2\n      0x64\n      dup2\n        /* \"WalletContract.sol\":126:5642  contract WalletContract is LockableContract... */\n      0x00\n        /* \"WalletContract.sol\":2404:2477  NET20(token).transferFrom(msg.sender, address(this), amount + commission) */\n      dup10\n      gas\n      call\n      swap1\n      dup2\n      iszero\n      tag_119\n      jumpi\n        /* \"WalletContract.sol\":126:5642  contract WalletContract is LockableContract... */\n      0x00\n        /* \"WalletContract.sol\":2404:2477  NET20(token).transferFrom(msg.sender, address(this), amount + commission) */\n      swap2\n      tag_121\n      jumpi\n        /* \"WalletContract.sol\":2054:2618  if (token == address(0)) {... */\n    tag_122:\n        /* \"WalletContract.sol\":126:5642  contract WalletContract is LockableContract... */\n      pop\n      iszero\n      tag_123\n      jumpi\n        /* \"WalletContract.sol\":2430:2440  msg.sender */\n      dup2\n      dup2\n        /* \"WalletContract.sol\":2501:2540  addBalanceTo(msg.sender, token, amount) */\n      tag_115\n        /* \"WalletContract.sol\":2430:2440  msg.sender */\n      dup6\n        /* \"WalletContract.sol\":2555:2606  addBalanceTo(commissionRecipient,token, commission) */\n      tag_126\n        /* \"WalletContract.sol\":2430:2440  msg.sender */\n      swap5\n      caller\n        /* \"WalletContract.sol\":2501:2540  addBalanceTo(msg.sender, token, amount) */\n      tag_10\n      jump\t// in\n        /* \"WalletContract.sol\":2555:2606  addBalanceTo(commissionRecipient,token, commission) */\n    tag_126:\n      pop\n        /* \"WalletContract.sol\":2054:2618  if (token == address(0)) {... */\n      jump(tag_117)\n        /* \"WalletContract.sol\":126:5642  contract WalletContract is LockableContract... */\n    tag_123:\n      mload(0x40)\n      shl(0xe5, 0x461bcd)\n      dup2\n      mstore\n      0x20\n      0x04\n      dup3\n      add\n      mstore\n        /* \"WalletContract.sol\":1935:1956  PRC_DepositCommission */\n      0x02\n        /* \"WalletContract.sol\":126:5642  contract WalletContract is LockableContract... */\n      0x24\n      dup3\n      add\n      mstore\n      shl(0xf1, 0x2a19)\n        /* \"WalletContract.sol\":1905:1957  Percent.applyToNumber(amount, PRC_DepositCommission) */\n      0x44\n        /* \"WalletContract.sol\":126:5642  contract WalletContract is LockableContract... */\n      dup3\n      add\n      mstore\n        /* \"WalletContract.sol\":2404:2477  NET20(token).transferFrom(msg.sender, address(this), amount + commission) */\n      0x64\n      swap1\n        /* \"WalletContract.sol\":126:5642  contract WalletContract is LockableContract... */\n      revert\n        /* \"WalletContract.sol\":2404:2477  NET20(token).transferFrom(msg.sender, address(this), amount + commission) */\n    tag_121:\n      tag_127\n      swap2\n      pop\n        /* \"WalletContract.sol\":126:5642  contract WalletContract is LockableContract... */\n      0x20\n        /* \"WalletContract.sol\":2404:2477  NET20(token).transferFrom(msg.sender, address(this), amount + commission) */\n      returndatasize\n        /* \"WalletContract.sol\":126:5642  contract WalletContract is LockableContract... */\n      0x20\n        /* \"WalletContract.sol\":2404:2477  NET20(token).transferFrom(msg.sender, address(this), amount + commission) */\n      gt\n      tag_128\n      jumpi\n    tag_129:\n      tag_130\n      dup2\n      dup4\n      tag_5\n      jump\t// in\n    tag_130:\n      dup2\n      add\n      swap1\n      tag_7\n      jump\t// in\n    tag_127:\n      dup6\n      jump(tag_122)\n    tag_128:\n      pop\n      returndatasize\n      jump(tag_129)\n    tag_119:\n        /* \"WalletContract.sol\":126:5642  contract WalletContract is LockableContract... */\n      mload(0x40)\n      returndatasize\n      0x00\n      dup3\n      returndatacopy\n      returndatasize\n      swap1\n      revert\n        /* \"WalletContract.sol\":1905:1957  Percent.applyToNumber(amount, PRC_DepositCommission) */\n    tag_108:\n      swap1\n      pop\n        /* \"WalletContract.sol\":126:5642  contract WalletContract is LockableContract... */\n      0x20\n        /* \"WalletContract.sol\":1905:1957  Percent.applyToNumber(amount, PRC_DepositCommission) */\n      dup2\n      returndatasize\n        /* \"WalletContract.sol\":126:5642  contract WalletContract is LockableContract... */\n      0x20\n        /* \"WalletContract.sol\":1905:1957  Percent.applyToNumber(amount, PRC_DepositCommission) */\n      gt\n      tag_131\n      jumpi\n    tag_132:\n      dup2\n      tag_133\n        /* \"WalletContract.sol\":126:5642  contract WalletContract is LockableContract... */\n      0x20\n        /* \"WalletContract.sol\":1905:1957  Percent.applyToNumber(amount, PRC_DepositCommission) */\n      swap4\n      dup4\n      tag_5\n      jump\t// in\n    tag_133:\n      dup2\n      add\n        /* \"WalletContract.sol\":126:5642  contract WalletContract is LockableContract... */\n      sub\n      slt\n      tag_47\n      jumpi\n      mload\n        /* \"WalletContract.sol\":1905:1957  Percent.applyToNumber(amount, PRC_DepositCommission) */\n      dup4\n      jump(tag_109)\n    tag_131:\n      returndatasize\n      swap2\n      pop\n      jump(tag_132)\n        /* \"WalletContract.sol\":126:5642  contract WalletContract is LockableContract... */\n    tag_103:\n      mload(0x40)\n      shl(0xe5, 0x461bcd)\n      dup2\n      mstore\n      0x20\n      0x04\n      dup3\n      add\n      mstore\n      0x02\n      0x24\n      dup3\n      add\n      mstore\n      shl(0xf0, 0x4c31)\n      0x44\n      dup3\n      add\n      mstore\n      0x64\n      swap1\n      revert\n    tag_23:\n      jumpi(tag_47, callvalue)\n      jumpi(tag_47, slt(add(not(0x03), calldatasize), 0x00))\n      0x20\n      and(shr(0xa0, sload(0x00)), 0xff)\n      mload(0x40)\n      swap1\n      iszero\n      iszero\n      dup2\n      mstore\n      return\n    tag_21:\n      jumpi(tag_47, callvalue)\n      jumpi(tag_47, slt(add(not(0x03), calldatasize), 0x20))\n      calldataload(0x04)\n        /* \"WalletContract.sol\":1610:1631  PRC_DepositCommission */\n      0x02\n        /* \"Percent.sol\":156:161  SCALE */\n      sload\n        /* \"WalletContract.sol\":126:5642  contract WalletContract is LockableContract... */\n      mload(0x40)\n      swap1\n      shl(0xe0, 0x1c8f0847)\n        /* \"WalletContract.sol\":1580:1632  Percent.applyToNumber(amount, PRC_DepositCommission) */\n      dup3\n      mstore\n      dup3\n        /* \"WalletContract.sol\":126:5642  contract WalletContract is LockableContract... */\n      0x04\n        /* \"WalletContract.sol\":1580:1632  Percent.applyToNumber(amount, PRC_DepositCommission) */\n      dup4\n      add\n        /* \"WalletContract.sol\":126:5642  contract WalletContract is LockableContract... */\n      mstore\n      0x24\n      dup3\n      add\n      mstore\n      0x20\n        /* \"WalletContract.sol\":1580:1587  Percent */\n      dup2\n        /* \"WalletContract.sol\":1580:1632  Percent.applyToNumber(amount, PRC_DepositCommission) */\n      0x44\n        /* \"WalletContract.sol\":1580:1587  Percent */\n      dup2\n      linkerSymbol(\"8537b7efa173772577da826929141ce9397d1aa5c05ce45dab4f7ac968e3002d\")\n        /* \"WalletContract.sol\":1580:1632  Percent.applyToNumber(amount, PRC_DepositCommission) */\n      gas\n      delegatecall\n      swap1\n      dup2\n      iszero\n      tag_119\n      jumpi\n        /* \"WalletContract.sol\":126:5642  contract WalletContract is LockableContract... */\n      0x00\n        /* \"WalletContract.sol\":1580:1632  Percent.applyToNumber(amount, PRC_DepositCommission) */\n      swap2\n      tag_146\n      jumpi\n        /* \"WalletContract.sol\":126:5642  contract WalletContract is LockableContract... */\n    tag_147:\n      0x20\n        /* \"WalletContract.sol\":1650:1669  amount + commission */\n      tag_148\n      dup4\n      dup6\n      tag_6\n      jump\t// in\n    tag_148:\n        /* \"WalletContract.sol\":126:5642  contract WalletContract is LockableContract... */\n      mload(0x40)\n      swap1\n      dup2\n      mstore\n      return\n        /* \"WalletContract.sol\":1580:1632  Percent.applyToNumber(amount, PRC_DepositCommission) */\n    tag_146:\n      swap1\n      pop\n        /* \"WalletContract.sol\":126:5642  contract WalletContract is LockableContract... */\n      0x20\n        /* \"WalletContract.sol\":1580:1632  Percent.applyToNumber(amount, PRC_DepositCommission) */\n      dup2\n      returndatasize\n        /* \"WalletContract.sol\":126:5642  contract WalletContract is LockableContract... */\n      0x20\n        /* \"WalletContract.sol\":1580:1632  Percent.applyToNumber(amount, PRC_DepositCommission) */\n      gt\n      tag_149\n      jumpi\n    tag_150:\n      dup2\n      tag_151\n        /* \"WalletContract.sol\":126:5642  contract WalletContract is LockableContract... */\n      0x20\n        /* \"WalletContract.sol\":1580:1632  Percent.applyToNumber(amount, PRC_DepositCommission) */\n      swap4\n      dup4\n      tag_5\n      jump\t// in\n    tag_151:\n      dup2\n      add\n        /* \"WalletContract.sol\":126:5642  contract WalletContract is LockableContract... */\n      sub\n      slt\n      tag_47\n      jumpi\n      mload\n      0x20\n        /* \"WalletContract.sol\":1580:1632  Percent.applyToNumber(amount, PRC_DepositCommission) */\n      jump(tag_147)\n    tag_149:\n      returndatasize\n      swap2\n      pop\n      jump(tag_150)\n        /* \"WalletContract.sol\":126:5642  contract WalletContract is LockableContract... */\n    tag_19:\n      jumpi(tag_47, callvalue)\n      jumpi(tag_47, slt(add(not(0x03), calldatasize), 0x00))\n      sload(0x00)\n        /* \"LockableContract.sol\":474:509  require(msg.sender == _owner, \"L2\") */\n      tag_158\n        /* \"LockableContract.sol\":482:492  msg.sender */\n      caller\n      sub(shl(0xa0, 0x01), 0x01)\n        /* \"WalletContract.sol\":126:5642  contract WalletContract is LockableContract... */\n      dup4\n      and\n        /* \"LockableContract.sol\":482:502  msg.sender == _owner */\n      eq\n        /* \"LockableContract.sol\":474:509  require(msg.sender == _owner, \"L2\") */\n      tag_3\n      jump\t// in\n    tag_158:\n      not(shl(0xa0, 0xff))\n        /* \"WalletContract.sol\":126:5642  contract WalletContract is LockableContract... */\n      and\n      shl(0xa0, 0x01)\n      or\n      0x00\n      sstore\n      mload(0x40)\n      0x01\n      dup2\n      mstore\n        /* \"LockableContract.sol\":1493:1520  ContractStatusChanged(true) */\n      0x017904e4fe7d59bb4603c7c045bc275a05da9ea3a4ac007fc80fffeaf119186d\n      swap1\n        /* \"WalletContract.sol\":126:5642  contract WalletContract is LockableContract... */\n      0x20\n      swap1\n        /* \"LockableContract.sol\":1493:1520  ContractStatusChanged(true) */\n      log1\n        /* \"WalletContract.sol\":126:5642  contract WalletContract is LockableContract... */\n      stop\n    tag_17:\n      jumpi(tag_47, callvalue)\n      jumpi(tag_47, slt(add(not(0x03), calldatasize), 0x40))\n      calldataload(0x04)\n      tag_163\n      tag_1\n      jump\t// in\n    tag_163:\n        /* \"LockableContract.sol\":474:509  require(msg.sender == _owner, \"L2\") */\n      tag_164\n        /* \"WalletContract.sol\":126:5642  contract WalletContract is LockableContract... */\n      0x01\n      dup1\n      0xa0\n      shl\n      sub\n      sload(0x00)\n      and\n        /* \"LockableContract.sol\":482:492  msg.sender */\n      caller\n        /* \"LockableContract.sol\":482:502  msg.sender == _owner */\n      eq\n        /* \"LockableContract.sol\":474:509  require(msg.sender == _owner, \"L2\") */\n      tag_3\n      jump\t// in\n    tag_164:\n      sub(shl(0xa0, 0x01), 0x01)\n        /* \"WalletContract.sol\":126:5642  contract WalletContract is LockableContract... */\n      and\n        /* \"WalletContract.sol\":4012:4038  newRecipient != address(0) */\n      dup1\n      iszero\n        /* \"WalletContract.sol\":126:5642  contract WalletContract is LockableContract... */\n      tag_165\n      jumpi\n        /* \"WalletContract.sol\":4064:4101  PRC_NewCommission <= Percent.MAXVALUE */\n      dup2\n        /* \"WalletContract.sol\":126:5642  contract WalletContract is LockableContract... */\n      0x40\n        /* \"WalletContract.sol\":4064:4101  PRC_NewCommission <= Percent.MAXVALUE */\n      swap2\n        /* \"WalletContract.sol\":4056:4108  require(PRC_NewCommission <= Percent.MAXVALUE, \"C5\") */\n      tag_167\n        /* \"Percent.sol\":200:206  10**10 */\n      0x02540be400\n        /* \"WalletContract.sol\":4225:4279  CommissionChanged(PRC_DepositCommission, newRecipient) */\n      0x14bdaadaed0453e7b5b66195b42156ba995b9e5abd0da98368839851d69ad889\n        /* \"WalletContract.sol\":4064:4101  PRC_NewCommission <= Percent.MAXVALUE */\n      swap6\n      gt\n      iszero\n        /* \"WalletContract.sol\":4056:4108  require(PRC_NewCommission <= Percent.MAXVALUE, \"C5\") */\n      tag_4\n      jump\t// in\n    tag_167:\n        /* \"Percent.sol\":156:161  SCALE */\n      dup2\n        /* \"WalletContract.sol\":4121:4162  PRC_DepositCommission = PRC_NewCommission */\n      0x02\n        /* \"Percent.sol\":156:161  SCALE */\n      sstore\n      dup1\n      shl(0xa0, 0xffffffffffffffffffffffff)\n        /* \"WalletContract.sol\":4173:4207  commissionRecipient = newRecipient */\n      0x03\n        /* \"Percent.sol\":156:161  SCALE */\n      sload\n      and\n      or\n        /* \"WalletContract.sol\":4173:4207  commissionRecipient = newRecipient */\n      0x03\n        /* \"Percent.sol\":156:161  SCALE */\n      sstore\n        /* \"WalletContract.sol\":126:5642  contract WalletContract is LockableContract... */\n      dup3\n      mload\n      swap2\n      dup3\n      mstore\n      0x20\n        /* \"Percent.sol\":156:161  SCALE */\n      dup3\n      add\n        /* \"WalletContract.sol\":126:5642  contract WalletContract is LockableContract... */\n      mstore\n        /* \"WalletContract.sol\":4225:4279  CommissionChanged(PRC_DepositCommission, newRecipient) */\n      log1\n        /* \"WalletContract.sol\":126:5642  contract WalletContract is LockableContract... */\n      stop\n    tag_165:\n      mload(0x40)\n      shl(0xe5, 0x461bcd)\n      dup2\n      mstore\n      0x20\n      0x04\n      dup3\n      add\n      mstore\n      0x02\n      0x24\n      dup3\n      add\n      mstore\n      shl(0xf0, 0x4331)\n      0x44\n      dup3\n      add\n      mstore\n      0x64\n      swap1\n      revert\n    tag_15:\n      jumpi(tag_47, callvalue)\n      jumpi(tag_47, slt(add(not(0x03), calldatasize), 0x00))\n        /* \"WalletContract.sol\":504:538  address public commissionRecipient */\n      0x03\n        /* \"WalletContract.sol\":126:5642  contract WalletContract is LockableContract... */\n      sload\n      sub(shl(0xa0, 0x01), 0x01)\n      and\n      dup2\n      mstore\n      0x20\n      swap1\n      return\n    tag_1:\n      calldataload(0x24)\n      swap1\n      sub(shl(0xa0, 0x01), 0x01)\n      dup3\n      and\n      dup3\n      sub\n      tag_47\n      jumpi\n      jump\t// out\n    tag_2:\n      calldataload(0x04)\n      swap1\n      sub(shl(0xa0, 0x01), 0x01)\n      dup3\n      and\n      dup3\n      sub\n      tag_47\n      jumpi\n      jump\t// out\n    tag_3:\n      iszero\n      tag_176\n      jumpi\n      jump\t// out\n    tag_176:\n      mload(0x40)\n      shl(0xe5, 0x461bcd)\n      dup2\n      mstore\n      0x20\n      0x04\n      dup3\n      add\n      mstore\n      0x02\n      0x24\n      dup3\n      add\n      mstore\n      shl(0xf1, 0x2619)\n      0x44\n      dup3\n      add\n      mstore\n      0x64\n      swap1\n      revert\n        /* \"Percent.sol\":156:161  SCALE */\n    tag_4:\n      iszero\n      tag_178\n      jumpi\n      jump\t// out\n    tag_178:\n        /* \"WalletContract.sol\":126:5642  contract WalletContract is LockableContract... */\n      mload(0x40)\n      shl(0xe5, 0x461bcd)\n        /* \"Percent.sol\":156:161  SCALE */\n      dup2\n      mstore\n      0x20\n      0x04\n      dup3\n      add\n      mstore\n      0x02\n      0x24\n      dup3\n      add\n        /* \"WalletContract.sol\":126:5642  contract WalletContract is LockableContract... */\n      mstore\n      shl(0xf0, 0x4335)\n      0x44\n      dup3\n      add\n        /* \"Percent.sol\":156:161  SCALE */\n      mstore\n      0x64\n      swap1\n      revert\n        /* \"WalletContract.sol\":126:5642  contract WalletContract is LockableContract... */\n    tag_5:\n      swap1\n      0x1f\n      dup1\n      not\n      swap2\n      add\n      and\n      dup2\n      add\n      swap1\n      dup2\n      lt\n      0xffffffffffffffff\n      dup3\n      gt\n      or\n      tag_180\n      jumpi\n      0x40\n      mstore\n      jump\t// out\n    tag_180:\n      mstore(0x00, shl(0xe0, 0x4e487b71))\n      mstore(0x04, 0x41)\n      revert(0x00, 0x24)\n    tag_6:\n      swap2\n      swap1\n      dup3\n      add\n      dup1\n      swap3\n      gt\n      tag_182\n      jumpi\n      jump\t// out\n    tag_182:\n      mstore(0x00, shl(0xe0, 0x4e487b71))\n      mstore(0x04, 0x11)\n      revert(0x00, 0x24)\n    tag_7:\n      swap1\n      dup2\n      0x20\n      swap2\n      sub\n      slt\n      tag_47\n      jumpi\n      mload\n      dup1\n      iszero\n      iszero\n      dup2\n      sub\n      tag_47\n      jumpi\n      swap1\n      jump\t// out\n    tag_8:\n      iszero\n      tag_188\n      jumpi\n      jump\t// out\n    tag_188:\n      mload(0x40)\n      shl(0xe5, 0x461bcd)\n      dup2\n      mstore\n      0x20\n      0x04\n      dup3\n      add\n      mstore\n      0x02\n      0x24\n      dup3\n      add\n      mstore\n      shl(0xf0, 0x5431)\n      0x44\n      dup3\n      add\n      mstore\n      0x64\n      swap1\n      revert\n    tag_9:\n      swap2\n      swap1\n      dup3\n      sub\n      swap2\n      dup3\n      gt\n      tag_182\n      jumpi\n      jump\t// out\n        /* \"WalletContract.sol\":4949:5231  function addBalanceTo(address to, address token, uint amount) internal returns (bool){... */\n    tag_10:\n        /* \"WalletContract.sol\":5048:5059  amount <= 0 */\n      dup3\n      iszero\n        /* \"WalletContract.sol\":5045:5085  if(amount <= 0)... */\n      tag_192\n      jumpi\n        /* \"WalletContract.sol\":5153:5191  Transfer(address(0), to,token, amount) */\n      0xd1398bee19313d6bf672ccb116e51f4a1a947e91c757907f51fbb5b5e56c698f\n        /* \"WalletContract.sol\":126:5642  contract WalletContract is LockableContract... */\n      0x20\n      0x00\n      swap3\n      0x01\n      dup1\n      0xa0\n      shl\n      sub\n      and\n      swap4\n      dup5\n      dup5\n      mstore\n        /* \"WalletContract.sol\":5098:5106  balances */\n      0x01\n        /* \"WalletContract.sol\":126:5642  contract WalletContract is LockableContract... */\n      dup3\n      mstore\n      0x40\n      dup5\n      keccak256\n      0x01\n      dup1\n      0xa0\n      shl\n      sub\n      dup3\n      and\n      dup6\n      mstore\n      dup3\n      mstore\n      0x40\n      dup5\n      keccak256\n        /* \"WalletContract.sol\":5098:5127  balances[to][token] += amount */\n      tag_194\n        /* \"Percent.sol\":156:161  SCALE */\n      dup8\n      dup3\n      sload\n        /* \"WalletContract.sol\":5098:5127  balances[to][token] += amount */\n      tag_6\n      jump\t// in\n    tag_194:\n        /* \"Percent.sol\":156:161  SCALE */\n      swap1\n      sstore\n        /* \"WalletContract.sol\":126:5642  contract WalletContract is LockableContract... */\n      mload(0x40)\n      swap6\n      dup7\n      mstore\n      sub(shl(0xa0, 0x01), 0x01)\n      and\n      swap5\n        /* \"WalletContract.sol\":5153:5191  Transfer(address(0), to,token, amount) */\n      log4\n        /* \"WalletContract.sol\":5098:5106  balances */\n      0x01\n        /* \"WalletContract.sol\":4949:5231  function addBalanceTo(address to, address token, uint amount) internal returns (bool){... */\n      swap1\n      jump\t// out\n        /* \"WalletContract.sol\":5045:5085  if(amount <= 0)... */\n    tag_192:\n        /* \"WalletContract.sol\":5074:5085  return true */\n      pop\n      pop\n      pop\n        /* \"WalletContract.sol\":5081:5085  true */\n      0x01\n        /* \"WalletContract.sol\":5074:5085  return true */\n      swap1\n      jump\t// out\n        /* \"WalletContract.sol\":5271:5638  function removeBalanceFrom(address from, address token, uint amount) internal returns (bool){... */\n    tag_11:\n        /* \"WalletContract.sol\":5377:5388  amount <= 0 */\n      dup3\n      iszero\n        /* \"WalletContract.sol\":5374:5414  if(amount <= 0)... */\n      tag_192\n      jumpi\n        /* \"WalletContract.sol\":126:5642  contract WalletContract is LockableContract... */\n      0x01\n      dup1\n      0xa0\n      shl\n      sub\n      and\n      swap1\n      dup2\n      0x00\n      mstore\n        /* \"WalletContract.sol\":5430:5438  balances */\n      0x01\n        /* \"WalletContract.sol\":126:5642  contract WalletContract is LockableContract... */\n      0x20\n      mstore\n      keccak256(0x00, 0x40)\n      0x01\n      dup1\n      0xa0\n      shl\n      sub\n      dup3\n      and\n      0x00\n      mstore\n      0x20\n      mstore\n      dup3\n      keccak256(0x00, 0x40)\n        /* \"Percent.sol\":156:161  SCALE */\n      sload\n        /* \"WalletContract.sol\":5430:5460  balances[from][token] < amount */\n      lt\n        /* \"WalletContract.sol\":5427:5487  if(balances[from][token] < amount)... */\n      tag_197\n      jumpi\n        /* \"WalletContract.sol\":5557:5598  Transfer(address(0), from, token, amount) */\n      0xd1398bee19313d6bf672ccb116e51f4a1a947e91c757907f51fbb5b5e56c698f\n        /* \"WalletContract.sol\":126:5642  contract WalletContract is LockableContract... */\n      0x20\n      0x00\n      swap3\n      dup5\n      dup5\n      mstore\n        /* \"WalletContract.sol\":5430:5438  balances */\n      0x01\n        /* \"WalletContract.sol\":126:5642  contract WalletContract is LockableContract... */\n      dup3\n      mstore\n      0x40\n      dup5\n      keccak256\n      0x01\n      dup1\n      0xa0\n      shl\n      sub\n      dup3\n      and\n      dup6\n      mstore\n      dup3\n      mstore\n      0x40\n      dup5\n      keccak256\n        /* \"WalletContract.sol\":5500:5531  balances[from][token] -= amount */\n      tag_194\n        /* \"Percent.sol\":156:161  SCALE */\n      dup8\n      dup3\n      sload\n        /* \"WalletContract.sol\":5500:5531  balances[from][token] -= amount */\n      tag_9\n      jump\t// in\n        /* \"WalletContract.sol\":5427:5487  if(balances[from][token] < amount)... */\n    tag_197:\n        /* \"WalletContract.sol\":5475:5487  return false */\n      pop\n      pop\n      pop\n        /* \"WalletContract.sol\":126:5642  contract WalletContract is LockableContract... */\n      0x00\n        /* \"WalletContract.sol\":5475:5487  return false */\n      swap1\n      jump\t// out\n        /* \"WalletContract.sol\":4329:4912  function withdrawFromContractTo(address to, address token, uint amount) internal returns (bool){... */\n    tag_12:\n      swap2\n      swap1\n        /* \"WalletContract.sol\":4438:4449  amount <= 0 */\n      dup2\n      iszero\n        /* \"WalletContract.sol\":4435:4475  if(amount <= 0)... */\n      tag_192\n      jumpi\n      sub(shl(0xa0, 0x01), 0x01)\n        /* \"WalletContract.sol\":126:5642  contract WalletContract is LockableContract... */\n      and\n      swap2\n        /* \"WalletContract.sol\":4571:4590  token == address(0) */\n      dup3\n        /* \"WalletContract.sol\":126:5642  contract WalletContract is LockableContract... */\n      tag_202\n      jumpi\n      0x00\n      dup1\n      dup1\n      dup1\n      dup6\n      sub(shl(0xa0, 0x01), 0x01)\n      dup7\n      and\n      dup3\n        /* \"WalletContract.sol\":4607:4635  payable(to).transfer(amount) */\n      call\n      iszero\n      tag_119\n      jumpi\n        /* \"WalletContract.sol\":126:5642  contract WalletContract is LockableContract... */\n      0x20\n        /* \"WalletContract.sol\":4843:4872  Withdrawal(to, token, amount) */\n      0x2717ead6b9200dd235aad468c9809ea400fe33ac69b5bfaa6d3e90fc922b6398\n        /* \"WalletContract.sol\":4567:4792  if (token == address(0)) {... */\n      swap2\n    tag_206:\n        /* \"WalletContract.sol\":126:5642  contract WalletContract is LockableContract... */\n      mload(0x40)\n      swap4\n      dup5\n      mstore\n      sub(shl(0xa0, 0x01), 0x01)\n      and\n      swap3\n        /* \"WalletContract.sol\":4843:4872  Withdrawal(to, token, amount) */\n      log3\n        /* \"WalletContract.sol\":4892:4896  true */\n      0x01\n        /* \"WalletContract.sol\":4329:4912  function withdrawFromContractTo(address to, address token, uint amount) internal returns (bool){... */\n      swap1\n      jump\t// out\n        /* \"WalletContract.sol\":4567:4792  if (token == address(0)) {... */\n    tag_202:\n        /* \"WalletContract.sol\":126:5642  contract WalletContract is LockableContract... */\n      mload(0x40)\n      shl(0xe0, 0xa9059cbb)\n        /* \"WalletContract.sol\":4740:4773  NET20(token).transfer(to, amount) */\n      dup2\n      mstore\n      sub(shl(0xa0, 0x01), 0x01)\n        /* \"WalletContract.sol\":126:5642  contract WalletContract is LockableContract... */\n      dup3\n      and\n        /* \"WalletContract.sol\":4740:4773  NET20(token).transfer(to, amount) */\n      0x04\n      dup3\n      add\n        /* \"WalletContract.sol\":126:5642  contract WalletContract is LockableContract... */\n      mstore\n      0x24\n      dup2\n      add\n      dup4\n      swap1\n      mstore\n      0x20\n      dup2\n        /* \"WalletContract.sol\":4740:4773  NET20(token).transfer(to, amount) */\n      0x44\n        /* \"WalletContract.sol\":126:5642  contract WalletContract is LockableContract... */\n      dup2\n      0x00\n        /* \"WalletContract.sol\":4740:4773  NET20(token).transfer(to, amount) */\n      dup9\n      gas\n      call\n      swap1\n      dup2\n      iszero\n      tag_119\n      jumpi\n        /* \"WalletContract.sol\":126:5642  contract WalletContract is LockableContract... */\n      0x00\n        /* \"WalletContract.sol\":4740:4773  NET20(token).transfer(to, amount) */\n      swap2\n      tag_209\n      jumpi\n        /* \"WalletContract.sol\":4567:4792  if (token == address(0)) {... */\n    tag_210:\n        /* \"WalletContract.sol\":126:5642  contract WalletContract is LockableContract... */\n      pop\n      iszero\n      tag_211\n      jumpi\n      0x20\n        /* \"WalletContract.sol\":4843:4872  Withdrawal(to, token, amount) */\n      0x2717ead6b9200dd235aad468c9809ea400fe33ac69b5bfaa6d3e90fc922b6398\n        /* \"WalletContract.sol\":4567:4792  if (token == address(0)) {... */\n      swap2\n      jump(tag_206)\n        /* \"WalletContract.sol\":126:5642  contract WalletContract is LockableContract... */\n    tag_211:\n      mload(0x40)\n      shl(0xe5, 0x461bcd)\n      dup2\n      mstore\n      0x20\n        /* \"WalletContract.sol\":4740:4773  NET20(token).transfer(to, amount) */\n      0x04\n        /* \"WalletContract.sol\":126:5642  contract WalletContract is LockableContract... */\n      dup3\n      add\n      mstore\n      0x02\n      0x24\n      dup3\n      add\n      mstore\n      shl(0xf0, 0x5433)\n        /* \"WalletContract.sol\":4740:4773  NET20(token).transfer(to, amount) */\n      0x44\n        /* \"WalletContract.sol\":126:5642  contract WalletContract is LockableContract... */\n      dup3\n      add\n      mstore\n      0x64\n      swap1\n      revert\n        /* \"WalletContract.sol\":4740:4773  NET20(token).transfer(to, amount) */\n    tag_209:\n      tag_213\n      swap2\n      pop\n        /* \"WalletContract.sol\":126:5642  contract WalletContract is LockableContract... */\n      0x20\n        /* \"WalletContract.sol\":4740:4773  NET20(token).transfer(to, amount) */\n      returndatasize\n        /* \"WalletContract.sol\":126:5642  contract WalletContract is LockableContract... */\n      0x20\n        /* \"WalletContract.sol\":4740:4773  NET20(token).transfer(to, amount) */\n      gt\n      tag_128\n      jumpi\n      tag_130\n      dup2\n      dup4\n      tag_5\n      jump\t// in\n    tag_213:\n      0x00\n      jump(tag_210)\n\n    auxdata: 0xa2646970667358221220320b2ff90a3c46317940c338c1508dadbcf18864c89c62975b095616bd968b9464736f6c634300081a0033\n}\n",
				"bytecode": {
					"linkReferences": {
						"Percent.sol": {
							"Percent": [
								{
									"length": 20,
									"start": 1457
								},
								{
									"length": 20,
									"start": 2031
								}
							]
						}
					},
					"object": "60803461012e57601f610d3738819003918201601f19168301916001600160401b0383118484101761013257808492604094855283398101031261012e5780516020909101516001600160a01b038116919082900361012e575f80546001600160a81b0319163317600160a01b17808255604051916001600160a01b03909116907f8be0079c531659141344cd1fd0a4f28419497f9722a3daafe3b4186f6b6457e08180a3821561010757506402540be40081116100dd57600255600380546001600160a01b031916919091179055604051610bf090816101478239f35b60405162461bcd60e51b8152602060048201526002602482015261433560f01b6044820152606490fd5b62461bcd60e51b8152602060048201526002602482015261433160f01b6044820152606490fd5b5f80fd5b634e487b7160e01b5f52604160045260245ffdfe6080806040526004361015610012575f80fd5b5f3560e01c90816306fd154a1461083f5750806315f8a31414610776578063367edd321461071257806339b3edb01461067057806341b3a0d91461064c57806347e7ef241461041757806370a08231146103d5578063894ba8331461037a5780638da5cb5b14610353578063beabacc814610262578063c23f001f146100c1578063f2fde38b14610198578063f3fef3a314610132578063f5f6a8e4146101155763f7888aec146100c1575f80fd5b34610111576040366003190112610111576100da610878565b6100e2610862565b6001600160a01b039182165f908152600160209081526040808320949093168252928352819020549051908152f35b5f80fd5b34610111575f366003190112610111576020600254604051908152f35b3461011157604036600319011261011157602061018e610150610878565b60243590335f526001845260405f2060018060a01b0382165f52845261017c8260405f2054101561095f565b610187828233610a18565b5033610a9f565b6040519015158152f35b34610111576020366003190112610111576101b1610878565b5f546001600160a01b038116916101c933841461088e565b6001600160a01b031691821561020e5782907f8be0079c531659141344cd1fd0a4f28419497f9722a3daafe3b4186f6b6457e05f80a36001600160a01b031916175f55005b60405162461bcd60e51b815260206004820152602660248201527f4f776e61626c653a206e6577206f776e657220697320746865207a65726f206160448201526564647265737360d01b6064820152608490fd5b346101115760603660031901126101115761027b610878565b610283610862565b60443591335f52600160205260405f2060018060a01b0383165f526020526102b18360405f2054101561095f565b335f52600160205260405f2060018060a01b0383165f5260205260405f206102da848254610990565b905560018060a01b031690815f52600160205260405f2060018060a01b0382165f5260205260405f2061030e848254610926565b90556040519283526001600160a01b03169133907fd1398bee19313d6bf672ccb116e51f4a1a947e91c757907f51fbb5b5e56c698f90602090a4602060405160018152f35b34610111575f366003190112610111575f546040516001600160a01b039091168152602090f35b34610111575f366003190112610111575f546103a0336001600160a01b0383161461088e565b60ff60a01b19165f557f017904e4fe7d59bb4603c7c045bc275a05da9ea3a4ac007fc80fffeaf119186d60206040515f8152a1005b34610111576020366003190112610111576001600160a01b036103f6610878565b165f52600160205260405f205f8052602052602060405f2054604051908152f35b60403660031901126101115761042b610878565b60243560ff5f5460a01c1615610622576104468115156108bf565b60025460405190631c8f084760e01b8252826004830152602482015260208160448173__$8537b7efa173772577da826929141ce939$__5af49081156105e5575f916105f0575b506001600160a01b038316928361052f576104a88284610926565b34036105055781816104be856104d0943361099d565b506003546001600160a01b031661099d565b505b60405191825260208201527fdcbc1c05240f31ff3ad067ef1ee35ce4997762752e3a095284754544f4c709d760403392a3005b60405162461bcd60e51b815260206004820152600260248201526110cd60f21b6044820152606490fd5b6105398284610926565b604051906323b872dd60e01b825233600483015230602483015260448201526020816064815f895af19081156105e5575f916105b6575b501561058c5781816104be85610586943361099d565b506104d2565b60405162461bcd60e51b81526020600482015260026024820152612a1960f11b6044820152606490fd5b6105d8915060203d6020116105de575b6105d081836108f0565b810190610947565b85610570565b503d6105c6565b6040513d5f823e3d90fd5b90506020813d60201161061a575b8161060b602093836108f0565b8101031261011157518361048d565b3d91506105fe565b60405162461bcd60e51b81526020600482015260026024820152614c3160f01b6044820152606490fd5b34610111575f36600319011261011157602060ff5f5460a01c166040519015158152f35b346101115760203660031901126101115760043560025460405190631c8f084760e01b8252826004830152602482015260208160448173__$8537b7efa173772577da826929141ce939$__5af49081156105e5575f916106df575b60206106d78385610926565b604051908152f35b90506020813d60201161070a575b816106fa602093836108f0565b81010312610111575160206106cb565b3d91506106ed565b34610111575f366003190112610111575f54610738336001600160a01b0383161461088e565b60ff60a01b1916600160a01b175f55604051600181527f017904e4fe7d59bb4603c7c045bc275a05da9ea3a4ac007fc80fffeaf119186d90602090a1005b3461011157604036600319011261011157600435610792610862565b6107a660018060a01b035f5416331461088e565b6001600160a01b0316801561081557816040916107eb6402540be4007f14bdaadaed0453e7b5b66195b42156ba995b9e5abd0da98368839851d69ad8899511156108bf565b81600255806bffffffffffffffffffffffff60a01b600354161760035582519182526020820152a1005b60405162461bcd60e51b8152602060048201526002602482015261433160f01b6044820152606490fd5b34610111575f366003190112610111576003546001600160a01b03168152602090f35b602435906001600160a01b038216820361011157565b600435906001600160a01b038216820361011157565b1561089557565b60405162461bcd60e51b8152602060048201526002602482015261261960f11b6044820152606490fd5b156108c657565b60405162461bcd60e51b8152602060048201526002602482015261433560f01b6044820152606490fd5b90601f8019910116810190811067ffffffffffffffff82111761091257604052565b634e487b7160e01b5f52604160045260245ffd5b9190820180921161093357565b634e487b7160e01b5f52601160045260245ffd5b90816020910312610111575180151581036101115790565b1561096657565b60405162461bcd60e51b8152602060048201526002602482015261543160f01b6044820152606490fd5b9190820391821161093357565b8215610a10577fd1398bee19313d6bf672ccb116e51f4a1a947e91c757907f51fbb5b5e56c698f60205f9260018060a01b031693848452600182526040842060018060a01b03821685528252604084206109f8878254610926565b90556040519586526001600160a01b031694a4600190565b505050600190565b8215610a105760018060a01b031690815f52600160205260405f2060018060a01b0382165f526020528260405f205410610a98577fd1398bee19313d6bf672ccb116e51f4a1a947e91c757907f51fbb5b5e56c698f60205f92848452600182526040842060018060a01b03821685528252604084206109f8878254610990565b5050505f90565b91908115610a10576001600160a01b03169182610b07575f808080856001600160a01b03861682f1156105e55760207f2717ead6b9200dd235aad468c9809ea400fe33ac69b5bfaa6d3e90fc922b6398915b6040519384526001600160a01b031692a3600190565b60405163a9059cbb60e01b81526001600160a01b0382166004820152602481018390526020816044815f885af19081156105e5575f91610b9b575b5015610b715760207f2717ead6b9200dd235aad468c9809ea400fe33ac69b5bfaa6d3e90fc922b639891610af1565b60405162461bcd60e51b8152602060048201526002602482015261543360f01b6044820152606490fd5b610bb4915060203d6020116105de576105d081836108f0565b5f610b4256fea2646970667358221220320b2ff90a3c46317940c338c1508dadbcf18864c89c62975b095616bd968b9464736f6c634300081a0033",
					"opcodes": "PUSH1 0x80 CALLVALUE PUSH2 0x12E JUMPI PUSH1 0x1F PUSH2 0xD37 CODESIZE DUP2 SWAP1 SUB SWAP2 DUP3 ADD PUSH1 0x1F NOT AND DUP4 ADD SWAP2 PUSH1 0x1 PUSH1 0x1 PUSH1 0x40 SHL SUB DUP4 GT DUP5 DUP5 LT OR PUSH2 0x132 JUMPI DUP1 DUP5 SWAP3 PUSH1 0x40 SWAP5 DUP6 MSTORE DUP4 CODECOPY DUP2 ADD SUB SLT PUSH2 0x12E JUMPI DUP1 MLOAD PUSH1 0x20 SWAP1 SWAP2 ADD MLOAD PUSH1 0x1 PUSH1 0x1 PUSH1 0xA0 SHL SUB DUP2 AND SWAP2 SWAP1 DUP3 SWAP1 SUB PUSH2 0x12E JUMPI PUSH0 DUP1 SLOAD PUSH1 0x1 PUSH1 0x1 PUSH1 0xA8 SHL SUB NOT AND CALLER OR PUSH1 0x1 PUSH1 0xA0 SHL OR DUP1 DUP3 SSTORE PUSH1 0x40 MLOAD SWAP2 PUSH1 0x1 PUSH1 0x1 PUSH1 0xA0 SHL SUB SWAP1 SWAP2 AND SWAP1 PUSH32 0x8BE0079C531659141344CD1FD0A4F28419497F9722A3DAAFE3B4186F6B6457E0 DUP2 DUP1 LOG3 DUP3 ISZERO PUSH2 0x107 JUMPI POP PUSH5 0x2540BE400 DUP2 GT PUSH2 0xDD JUMPI PUSH1 0x2 SSTORE PUSH1 0x3 DUP1 SLOAD PUSH1 0x1 PUSH1 0x1 PUSH1 0xA0 SHL SUB NOT AND SWAP2 SWAP1 SWAP2 OR SWAP1 SSTORE PUSH1 0x40 MLOAD PUSH2 0xBF0 SWAP1 DUP2 PUSH2 0x147 DUP3 CODECOPY RETURN JUMPDEST PUSH1 0x40 MLOAD PUSH3 0x461BCD PUSH1 0xE5 SHL DUP2 MSTORE PUSH1 0x20 PUSH1 0x4 DUP3 ADD MSTORE PUSH1 0x2 PUSH1 0x24 DUP3 ADD MSTORE PUSH2 0x4335 PUSH1 0xF0 SHL PUSH1 0x44 DUP3 ADD MSTORE PUSH1 0x64 SWAP1 REVERT JUMPDEST PUSH3 0x461BCD PUSH1 0xE5 SHL DUP2 MSTORE PUSH1 0x20 PUSH1 0x4 DUP3 ADD MSTORE PUSH1 0x2 PUSH1 0x24 DUP3 ADD MSTORE PUSH2 0x4331 PUSH1 0xF0 SHL PUSH1 0x44 DUP3 ADD MSTORE PUSH1 0x64 SWAP1 REVERT JUMPDEST PUSH0 DUP1 REVERT JUMPDEST PUSH4 0x4E487B71 PUSH1 0xE0 SHL PUSH0 MSTORE PUSH1 0x41 PUSH1 0x4 MSTORE PUSH1 0x24 PUSH0 REVERT INVALID PUSH1 0x80 DUP1 PUSH1 0x40 MSTORE PUSH1 0x4 CALLDATASIZE LT ISZERO PUSH2 0x12 JUMPI PUSH0 DUP1 REVERT JUMPDEST PUSH0 CALLDATALOAD PUSH1 0xE0 SHR SWAP1 DUP2 PUSH4 0x6FD154A EQ PUSH2 0x83F JUMPI POP DUP1 PUSH4 0x15F8A314 EQ PUSH2 0x776 JUMPI DUP1 PUSH4 0x367EDD32 EQ PUSH2 0x712 JUMPI DUP1 PUSH4 0x39B3EDB0 EQ PUSH2 0x670 JUMPI DUP1 PUSH4 0x41B3A0D9 EQ PUSH2 0x64C JUMPI DUP1 PUSH4 0x47E7EF24 EQ PUSH2 0x417 JUMPI DUP1 PUSH4 0x70A08231 EQ PUSH2 0x3D5 JUMPI DUP1 PUSH4 0x894BA833 EQ PUSH2 0x37A JUMPI DUP1 PUSH4 0x8DA5CB5B EQ PUSH2 0x353 JUMPI DUP1 PUSH4 0xBEABACC8 EQ PUSH2 0x262 JUMPI DUP1 PUSH4 0xC23F001F EQ PUSH2 0xC1 JUMPI DUP1 PUSH4 0xF2FDE38B EQ PUSH2 0x198 JUMPI DUP1 PUSH4 0xF3FEF3A3 EQ PUSH2 0x132 JUMPI DUP1 PUSH4 0xF5F6A8E4 EQ PUSH2 0x115 JUMPI PUSH4 0xF7888AEC EQ PUSH2 0xC1 JUMPI PUSH0 DUP1 REVERT JUMPDEST CALLVALUE PUSH2 0x111 JUMPI PUSH1 0x40 CALLDATASIZE PUSH1 0x3 NOT ADD SLT PUSH2 0x111 JUMPI PUSH2 0xDA PUSH2 0x878 JUMP JUMPDEST PUSH2 0xE2 PUSH2 0x862 JUMP JUMPDEST PUSH1 0x1 PUSH1 0x1 PUSH1 0xA0 SHL SUB SWAP2 DUP3 AND PUSH0 SWAP1 DUP2 MSTORE PUSH1 0x1 PUSH1 0x20 SWAP1 DUP2 MSTORE PUSH1 0x40 DUP1 DUP4 KECCAK256 SWAP5 SWAP1 SWAP4 AND DUP3 MSTORE SWAP3 DUP4 MSTORE DUP2 SWAP1 KECCAK256 SLOAD SWAP1 MLOAD SWAP1 DUP2 MSTORE RETURN JUMPDEST PUSH0 DUP1 REVERT JUMPDEST CALLVALUE PUSH2 0x111 JUMPI PUSH0 CALLDATASIZE PUSH1 0x3 NOT ADD SLT PUSH2 0x111 JUMPI PUSH1 0x20 PUSH1 0x2 SLOAD PUSH1 0x40 MLOAD SWAP1 DUP2 MSTORE RETURN JUMPDEST CALLVALUE PUSH2 0x111 JUMPI PUSH1 0x40 CALLDATASIZE PUSH1 0x3 NOT ADD SLT PUSH2 0x111 JUMPI PUSH1 0x20 PUSH2 0x18E PUSH2 0x150 PUSH2 0x878 JUMP JUMPDEST PUSH1 0x24 CALLDATALOAD SWAP1 CALLER PUSH0 MSTORE PUSH1 0x1 DUP5 MSTORE PUSH1 0x40 PUSH0 KECCAK256 PUSH1 0x1 DUP1 PUSH1 0xA0 SHL SUB DUP3 AND PUSH0 MSTORE DUP5 MSTORE PUSH2 0x17C DUP3 PUSH1 0x40 PUSH0 KECCAK256 SLOAD LT ISZERO PUSH2 0x95F JUMP JUMPDEST PUSH2 0x187 DUP3 DUP3 CALLER PUSH2 0xA18 JUMP JUMPDEST POP CALLER PUSH2 0xA9F JUMP JUMPDEST PUSH1 0x40 MLOAD SWAP1 ISZERO ISZERO DUP2 MSTORE RETURN JUMPDEST CALLVALUE PUSH2 0x111 JUMPI PUSH1 0x20 CALLDATASIZE PUSH1 0x3 NOT ADD SLT PUSH2 0x111 JUMPI PUSH2 0x1B1 PUSH2 0x878 JUMP JUMPDEST PUSH0 SLOAD PUSH1 0x1 PUSH1 0x1 PUSH1 0xA0 SHL SUB DUP2 AND SWAP2 PUSH2 0x1C9 CALLER DUP5 EQ PUSH2 0x88E JUMP JUMPDEST PUSH1 0x1 PUSH1 0x1 PUSH1 0xA0 SHL SUB AND SWAP2 DUP3 ISZERO PUSH2 0x20E JUMPI DUP3 SWAP1 PUSH32 0x8BE0079C531659141344CD1FD0A4F28419497F9722A3DAAFE3B4186F6B6457E0 PUSH0 DUP1 LOG3 PUSH1 0x1 PUSH1 0x1 PUSH1 0xA0 SHL SUB NOT AND OR PUSH0 SSTORE STOP JUMPDEST PUSH1 0x40 MLOAD PUSH3 0x461BCD PUSH1 0xE5 SHL DUP2 MSTORE PUSH1 0x20 PUSH1 0x4 DUP3 ADD MSTORE PUSH1 0x26 PUSH1 0x24 DUP3 ADD MSTORE PUSH32 0x4F776E61626C653A206E6577206F776E657220697320746865207A65726F2061 PUSH1 0x44 DUP3 ADD MSTORE PUSH6 0x646472657373 PUSH1 0xD0 SHL PUSH1 0x64 DUP3 ADD MSTORE PUSH1 0x84 SWAP1 REVERT JUMPDEST CALLVALUE PUSH2 0x111 JUMPI PUSH1 0x60 CALLDATASIZE PUSH1 0x3 NOT ADD SLT PUSH2 0x111 JUMPI PUSH2 0x27B PUSH2 0x878 JUMP JUMPDEST PUSH2 0x283 PUSH2 0x862 JUMP JUMPDEST PUSH1 0x44 CALLDATALOAD SWAP2 CALLER PUSH0 MSTORE PUSH1 0x1 PUSH1 0x20 MSTORE PUSH1 0x40 PUSH0 KECCAK256 PUSH1 0x1 DUP1 PUSH1 0xA0 SHL SUB DUP4 AND PUSH0 MSTORE PUSH1 0x20 MSTORE PUSH2 0x2B1 DUP4 PUSH1 0x40 PUSH0 KECCAK256 SLOAD LT ISZERO PUSH2 0x95F JUMP JUMPDEST CALLER PUSH0 MSTORE PUSH1 0x1 PUSH1 0x20 MSTORE PUSH1 0x40 PUSH0 KECCAK256 PUSH1 0x1 DUP1 PUSH1 0xA0 SHL SUB DUP4 AND PUSH0 MSTORE PUSH1 0x20 MSTORE PUSH1 0x40 PUSH0 KECCAK256 PUSH2 0x2DA DUP5 DUP3 SLOAD PUSH2 0x990 JUMP JUMPDEST SWAP1 SSTORE PUSH1 0x1 DUP1 PUSH1 0xA0 SHL SUB AND SWAP1 DUP2 PUSH0 MSTORE PUSH1 0x1 PUSH1 0x20 MSTORE PUSH1 0x40 PUSH0 KECCAK256 PUSH1 0x1 DUP1 PUSH1 0xA0 SHL SUB DUP3 AND PUSH0 MSTORE PUSH1 0x20 MSTORE PUSH1 0x40 PUSH0 KECCAK256 PUSH2 0x30E DUP5 DUP3 SLOAD PUSH2 0x926 JUMP JUMPDEST SWAP1 SSTORE PUSH1 0x40 MLOAD SWAP3 DUP4 MSTORE PUSH1 0x1 PUSH1 0x1 PUSH1 0xA0 SHL SUB AND SWAP2 CALLER SWAP1 PUSH32 0xD1398BEE19313D6BF672CCB116E51F4A1A947E91C757907F51FBB5B5E56C698F SWAP1 PUSH1 0x20 SWAP1 LOG4 PUSH1 0x20 PUSH1 0x40 MLOAD PUSH1 0x1 DUP2 MSTORE RETURN JUMPDEST CALLVALUE PUSH2 0x111 JUMPI PUSH0 CALLDATASIZE PUSH1 0x3 NOT ADD SLT PUSH2 0x111 JUMPI PUSH0 SLOAD PUSH1 0x40 MLOAD PUSH1 0x1 PUSH1 0x1 PUSH1 0xA0 SHL SUB SWAP1 SWAP2 AND DUP2 MSTORE PUSH1 0x20 SWAP1 RETURN JUMPDEST CALLVALUE PUSH2 0x111 JUMPI PUSH0 CALLDATASIZE PUSH1 0x3 NOT ADD SLT PUSH2 0x111 JUMPI PUSH0 SLOAD PUSH2 0x3A0 CALLER PUSH1 0x1 PUSH1 0x1 PUSH1 0xA0 SHL SUB DUP4 AND EQ PUSH2 0x88E JUMP JUMPDEST PUSH1 0xFF PUSH1 0xA0 SHL NOT AND PUSH0 SSTORE PUSH32 0x17904E4FE7D59BB4603C7C045BC275A05DA9EA3A4AC007FC80FFFEAF119186D PUSH1 0x20 PUSH1 0x40 MLOAD PUSH0 DUP2 MSTORE LOG1 STOP JUMPDEST CALLVALUE PUSH2 0x111 JUMPI PUSH1 0x20 CALLDATASIZE PUSH1 0x3 NOT ADD SLT PUSH2 0x111 JUMPI PUSH1 0x1 PUSH1 0x1 PUSH1 0xA0 SHL SUB PUSH2 0x3F6 PUSH2 0x878 JUMP JUMPDEST AND PUSH0 MSTORE PUSH1 0x1 PUSH1 0x20 MSTORE PUSH1 0x40 PUSH0 KECCAK256 PUSH0 DUP1 MSTORE PUSH1 0x20 MSTORE PUSH1 0x20 PUSH1 0x40 PUSH0 KECCAK256 SLOAD PUSH1 0x40 MLOAD SWAP1 DUP2 MSTORE RETURN JUMPDEST PUSH1 0x40 CALLDATASIZE PUSH1 0x3 NOT ADD SLT PUSH2 0x111 JUMPI PUSH2 0x42B PUSH2 0x878 JUMP JUMPDEST PUSH1 0x24 CALLDATALOAD PUSH1 0xFF PUSH0 SLOAD PUSH1 0xA0 SHR AND ISZERO PUSH2 0x622 JUMPI PUSH2 0x446 DUP2 ISZERO ISZERO PUSH2 0x8BF JUMP JUMPDEST PUSH1 0x2 SLOAD PUSH1 0x40 MLOAD SWAP1 PUSH4 0x1C8F0847 PUSH1 0xE0 SHL DUP3 MSTORE DUP3 PUSH1 0x4 DUP4 ADD MSTORE PUSH1 0x24 DUP3 ADD MSTORE PUSH1 0x20 DUP2 PUSH1 0x44 DUP2 PUSH20 0x0 GAS DELEGATECALL SWAP1 DUP2 ISZERO PUSH2 0x5E5 JUMPI PUSH0 SWAP2 PUSH2 0x5F0 JUMPI JUMPDEST POP PUSH1 0x1 PUSH1 0x1 PUSH1 0xA0 SHL SUB DUP4 AND SWAP3 DUP4 PUSH2 0x52F JUMPI PUSH2 0x4A8 DUP3 DUP5 PUSH2 0x926 JUMP JUMPDEST CALLVALUE SUB PUSH2 0x505 JUMPI DUP2 DUP2 PUSH2 0x4BE DUP6 PUSH2 0x4D0 SWAP5 CALLER PUSH2 0x99D JUMP JUMPDEST POP PUSH1 0x3 SLOAD PUSH1 0x1 PUSH1 0x1 PUSH1 0xA0 SHL SUB AND PUSH2 0x99D JUMP JUMPDEST POP JUMPDEST PUSH1 0x40 MLOAD SWAP2 DUP3 MSTORE PUSH1 0x20 DUP3 ADD MSTORE PUSH32 0xDCBC1C05240F31FF3AD067EF1EE35CE4997762752E3A095284754544F4C709D7 PUSH1 0x40 CALLER SWAP3 LOG3 STOP JUMPDEST PUSH1 0x40 MLOAD PUSH3 0x461BCD PUSH1 0xE5 SHL DUP2 MSTORE PUSH1 0x20 PUSH1 0x4 DUP3 ADD MSTORE PUSH1 0x2 PUSH1 0x24 DUP3 ADD MSTORE PUSH2 0x10CD PUSH1 0xF2 SHL PUSH1 0x44 DUP3 ADD MSTORE PUSH1 0x64 SWAP1 REVERT JUMPDEST PUSH2 0x539 DUP3 DUP5 PUSH2 0x926 JUMP JUMPDEST PUSH1 0x40 MLOAD SWAP1 PUSH4 0x23B872DD PUSH1 0xE0 SHL DUP3 MSTORE CALLER PUSH1 0x4 DUP4 ADD MSTORE ADDRESS PUSH1 0x24 DUP4 ADD MSTORE PUSH1 0x44 DUP3 ADD MSTORE PUSH1 0x20 DUP2 PUSH1 0x64 DUP2 PUSH0 DUP10 GAS CALL SWAP1 DUP2 ISZERO PUSH2 0x5E5 JUMPI PUSH0 SWAP2 PUSH2 0x5B6 JUMPI JUMPDEST POP ISZERO PUSH2 0x58C JUMPI DUP2 DUP2 PUSH2 0x4BE DUP6 PUSH2 0x586 SWAP5 CALLER PUSH2 0x99D JUMP JUMPDEST POP PUSH2 0x4D2 JUMP JUMPDEST PUSH1 0x40 MLOAD PUSH3 0x461BCD PUSH1 0xE5 SHL DUP2 MSTORE PUSH1 0x20 PUSH1 0x4 DUP3 ADD MSTORE PUSH1 0x2 PUSH1 0x24 DUP3 ADD MSTORE PUSH2 0x2A19 PUSH1 0xF1 SHL PUSH1 0x44 DUP3 ADD MSTORE PUSH1 0x64 SWAP1 REVERT JUMPDEST PUSH2 0x5D8 SWAP2 POP PUSH1 0x20 RETURNDATASIZE PUSH1 0x20 GT PUSH2 0x5DE JUMPI JUMPDEST PUSH2 0x5D0 DUP2 DUP4 PUSH2 0x8F0 JUMP JUMPDEST DUP2 ADD SWAP1 PUSH2 0x947 JUMP JUMPDEST DUP6 PUSH2 0x570 JUMP JUMPDEST POP RETURNDATASIZE PUSH2 0x5C6 JUMP JUMPDEST PUSH1 0x40 MLOAD RETURNDATASIZE PUSH0 DUP3 RETURNDATACOPY RETURNDATASIZE SWAP1 REVERT JUMPDEST SWAP1 POP PUSH1 0x20 DUP2 RETURNDATASIZE PUSH1 0x20 GT PUSH2 0x61A JUMPI JUMPDEST DUP2 PUSH2 0x60B PUSH1 0x20 SWAP4 DUP4 PUSH2 0x8F0 JUMP JUMPDEST DUP2 ADD SUB SLT PUSH2 0x111 JUMPI MLOAD DUP4 PUSH2 0x48D JUMP JUMPDEST RETURNDATASIZE SWAP2 POP PUSH2 0x5FE JUMP JUMPDEST PUSH1 0x40 MLOAD PUSH3 0x461BCD PUSH1 0xE5 SHL DUP2 MSTORE PUSH1 0x20 PUSH1 0x4 DUP3 ADD MSTORE PUSH1 0x2 PUSH1 0x24 DUP3 ADD MSTORE PUSH2 0x4C31 PUSH1 0xF0 SHL PUSH1 0x44 DUP3 ADD MSTORE PUSH1 0x64 SWAP1 REVERT JUMPDEST CALLVALUE PUSH2 0x111 JUMPI PUSH0 CALLDATASIZE PUSH1 0x3 NOT ADD SLT PUSH2 0x111 JUMPI PUSH1 0x20 PUSH1 0xFF PUSH0 SLOAD PUSH1 0xA0 SHR AND PUSH1 0x40 MLOAD SWAP1 ISZERO ISZERO DUP2 MSTORE RETURN JUMPDEST CALLVALUE PUSH2 0x111 JUMPI PUSH1 0x20 CALLDATASIZE PUSH1 0x3 NOT ADD SLT PUSH2 0x111 JUMPI PUSH1 0x4 CALLDATALOAD PUSH1 0x2 SLOAD PUSH1 0x40 MLOAD SWAP1 PUSH4 0x1C8F0847 PUSH1 0xE0 SHL DUP3 MSTORE DUP3 PUSH1 0x4 DUP4 ADD MSTORE PUSH1 0x24 DUP3 ADD MSTORE PUSH1 0x20 DUP2 PUSH1 0x44 DUP2 PUSH20 0x0 GAS DELEGATECALL SWAP1 DUP2 ISZERO PUSH2 0x5E5 JUMPI PUSH0 SWAP2 PUSH2 0x6DF JUMPI JUMPDEST PUSH1 0x20 PUSH2 0x6D7 DUP4 DUP6 PUSH2 0x926 JUMP JUMPDEST PUSH1 0x40 MLOAD SWAP1 DUP2 MSTORE RETURN JUMPDEST SWAP1 POP PUSH1 0x20 DUP2 RETURNDATASIZE PUSH1 0x20 GT PUSH2 0x70A JUMPI JUMPDEST DUP2 PUSH2 0x6FA PUSH1 0x20 SWAP4 DUP4 PUSH2 0x8F0 JUMP JUMPDEST DUP2 ADD SUB SLT PUSH2 0x111 JUMPI MLOAD PUSH1 0x20 PUSH2 0x6CB JUMP JUMPDEST RETURNDATASIZE SWAP2 POP PUSH2 0x6ED JUMP JUMPDEST CALLVALUE PUSH2 0x111 JUMPI PUSH0 CALLDATASIZE PUSH1 0x3 NOT ADD SLT PUSH2 0x111 JUMPI PUSH0 SLOAD PUSH2 0x738 CALLER PUSH1 0x1 PUSH1 0x1 PUSH1 0xA0 SHL SUB DUP4 AND EQ PUSH2 0x88E JUMP JUMPDEST PUSH1 0xFF PUSH1 0xA0 SHL NOT AND PUSH1 0x1 PUSH1 0xA0 SHL OR PUSH0 SSTORE PUSH1 0x40 MLOAD PUSH1 0x1 DUP2 MSTORE PUSH32 0x17904E4FE7D59BB4603C7C045BC275A05DA9EA3A4AC007FC80FFFEAF119186D SWAP1 PUSH1 0x20 SWAP1 LOG1 STOP JUMPDEST CALLVALUE PUSH2 0x111 JUMPI PUSH1 0x40 CALLDATASIZE PUSH1 0x3 NOT ADD SLT PUSH2 0x111 JUMPI PUSH1 0x4 CALLDATALOAD PUSH2 0x792 PUSH2 0x862 JUMP JUMPDEST PUSH2 0x7A6 PUSH1 0x1 DUP1 PUSH1 0xA0 SHL SUB PUSH0 SLOAD AND CALLER EQ PUSH2 0x88E JUMP JUMPDEST PUSH1 0x1 PUSH1 0x1 PUSH1 0xA0 SHL SUB AND DUP1 ISZERO PUSH2 0x815 JUMPI DUP2 PUSH1 0x40 SWAP2 PUSH2 0x7EB PUSH5 0x2540BE400 PUSH32 0x14BDAADAED0453E7B5B66195B42156BA995B9E5ABD0DA98368839851D69AD889 SWAP6 GT ISZERO PUSH2 0x8BF JUMP JUMPDEST DUP2 PUSH1 0x2 SSTORE DUP1 PUSH12 0xFFFFFFFFFFFFFFFFFFFFFFFF PUSH1 0xA0 SHL PUSH1 0x3 SLOAD AND OR PUSH1 0x3 SSTORE DUP3 MLOAD SWAP2 DUP3 MSTORE PUSH1 0x20 DUP3 ADD MSTORE LOG1 STOP JUMPDEST PUSH1 0x40 MLOAD PUSH3 0x461BCD PUSH1 0xE5 SHL DUP2 MSTORE PUSH1 0x20 PUSH1 0x4 DUP3 ADD MSTORE PUSH1 0x2 PUSH1 0x24 DUP3 ADD MSTORE PUSH2 0x4331 PUSH1 0xF0 SHL PUSH1 0x44 DUP3 ADD MSTORE PUSH1 0x64 SWAP1 REVERT JUMPDEST CALLVALUE PUSH2 0x111 JUMPI PUSH0 CALLDATASIZE PUSH1 0x3 NOT ADD SLT PUSH2 0x111 JUMPI PUSH1 0x3 SLOAD PUSH1 0x1 PUSH1 0x1 PUSH1 0xA0 SHL SUB AND DUP2 MSTORE PUSH1 0x20 SWAP1 RETURN JUMPDEST PUSH1 0x24 CALLDATALOAD SWAP1 PUSH1 0x1 PUSH1 0x1 PUSH1 0xA0 SHL SUB DUP3 AND DUP3 SUB PUSH2 0x111 JUMPI JUMP JUMPDEST PUSH1 0x4 CALLDATALOAD SWAP1 PUSH1 0x1 PUSH1 0x1 PUSH1 0xA0 SHL SUB DUP3 AND DUP3 SUB PUSH2 0x111 JUMPI JUMP JUMPDEST ISZERO PUSH2 0x895 JUMPI JUMP JUMPDEST PUSH1 0x40 MLOAD PUSH3 0x461BCD PUSH1 0xE5 SHL DUP2 MSTORE PUSH1 0x20 PUSH1 0x4 DUP3 ADD MSTORE PUSH1 0x2 PUSH1 0x24 DUP3 ADD MSTORE PUSH2 0x2619 PUSH1 0xF1 SHL PUSH1 0x44 DUP3 ADD MSTORE PUSH1 0x64 SWAP1 REVERT JUMPDEST ISZERO PUSH2 0x8C6 JUMPI JUMP JUMPDEST PUSH1 0x40 MLOAD PUSH3 0x461BCD PUSH1 0xE5 SHL DUP2 MSTORE PUSH1 0x20 PUSH1 0x4 DUP3 ADD MSTORE PUSH1 0x2 PUSH1 0x24 DUP3 ADD MSTORE PUSH2 0x4335 PUSH1 0xF0 SHL PUSH1 0x44 DUP3 ADD MSTORE PUSH1 0x64 SWAP1 REVERT JUMPDEST SWAP1 PUSH1 0x1F DUP1 NOT SWAP2 ADD AND DUP2 ADD SWAP1 DUP2 LT PUSH8 0xFFFFFFFFFFFFFFFF DUP3 GT OR PUSH2 0x912 JUMPI PUSH1 0x40 MSTORE JUMP JUMPDEST PUSH4 0x4E487B71 PUSH1 0xE0 SHL PUSH0 MSTORE PUSH1 0x41 PUSH1 0x4 MSTORE PUSH1 0x24 PUSH0 REVERT JUMPDEST SWAP2 SWAP1 DUP3 ADD DUP1 SWAP3 GT PUSH2 0x933 JUMPI JUMP JUMPDEST PUSH4 0x4E487B71 PUSH1 0xE0 SHL PUSH0 MSTORE PUSH1 0x11 PUSH1 0x4 MSTORE PUSH1 0x24 PUSH0 REVERT JUMPDEST SWAP1 DUP2 PUSH1 0x20 SWAP2 SUB SLT PUSH2 0x111 JUMPI MLOAD DUP1 ISZERO ISZERO DUP2 SUB PUSH2 0x111 JUMPI SWAP1 JUMP JUMPDEST ISZERO PUSH2 0x966 JUMPI JUMP JUMPDEST PUSH1 0x40 MLOAD PUSH3 0x461BCD PUSH1 0xE5 SHL DUP2 MSTORE PUSH1 0x20 PUSH1 0x4 DUP3 ADD MSTORE PUSH1 0x2 PUSH1 0x24 DUP3 ADD MSTORE PUSH2 0x5431 PUSH1 0xF0 SHL PUSH1 0x44 DUP3 ADD MSTORE PUSH1 0x64 SWAP1 REVERT JUMPDEST SWAP2 SWAP1 DUP3 SUB SWAP2 DUP3 GT PUSH2 0x933 JUMPI JUMP JUMPDEST DUP3 ISZERO PUSH2 0xA10 JUMPI PUSH32 0xD1398BEE19313D6BF672CCB116E51F4A1A947E91C757907F51FBB5B5E56C698F PUSH1 0x20 PUSH0 SWAP3 PUSH1 0x1 DUP1 PUSH1 0xA0 SHL SUB AND SWAP4 DUP5 DUP5 MSTORE PUSH1 0x1 DUP3 MSTORE PUSH1 0x40 DUP5 KECCAK256 PUSH1 0x1 DUP1 PUSH1 0xA0 SHL SUB DUP3 AND DUP6 MSTORE DUP3 MSTORE PUSH1 0x40 DUP5 KECCAK256 PUSH2 0x9F8 DUP8 DUP3 SLOAD PUSH2 0x926 JUMP JUMPDEST SWAP1 SSTORE PUSH1 0x40 MLOAD SWAP6 DUP7 MSTORE PUSH1 0x1 PUSH1 0x1 PUSH1 0xA0 SHL SUB AND SWAP5 LOG4 PUSH1 0x1 SWAP1 JUMP JUMPDEST POP POP POP PUSH1 0x1 SWAP1 JUMP JUMPDEST DUP3 ISZERO PUSH2 0xA10 JUMPI PUSH1 0x1 DUP1 PUSH1 0xA0 SHL SUB AND SWAP1 DUP2 PUSH0 MSTORE PUSH1 0x1 PUSH1 0x20 MSTORE PUSH1 0x40 PUSH0 KECCAK256 PUSH1 0x1 DUP1 PUSH1 0xA0 SHL SUB DUP3 AND PUSH0 MSTORE PUSH1 0x20 MSTORE DUP3 PUSH1 0x40 PUSH0 KECCAK256 SLOAD LT PUSH2 0xA98 JUMPI PUSH32 0xD1398BEE19313D6BF672CCB116E51F4A1A947E91C757907F51FBB5B5E56C698F PUSH1 0x20 PUSH0 SWAP3 DUP5 DUP5 MSTORE PUSH1 0x1 DUP3 MSTORE PUSH1 0x40 DUP5 KECCAK256 PUSH1 0x1 DUP1 PUSH1 0xA0 SHL SUB DUP3 AND DUP6 MSTORE DUP3 MSTORE PUSH1 0x40 DUP5 KECCAK256 PUSH2 0x9F8 DUP8 DUP3 SLOAD PUSH2 0x990 JUMP JUMPDEST POP POP POP PUSH0 SWAP1 JUMP JUMPDEST SWAP2 SWAP1 DUP2 ISZERO PUSH2 0xA10 JUMPI PUSH1 0x1 PUSH1 0x1 PUSH1 0xA0 SHL SUB AND SWAP2 DUP3 PUSH2 0xB07 JUMPI PUSH0 DUP1 DUP1 DUP1 DUP6 PUSH1 0x1 PUSH1 0x1 PUSH1 0xA0 SHL SUB DUP7 AND DUP3 CALL ISZERO PUSH2 0x5E5 JUMPI PUSH1 0x20 PUSH32 0x2717EAD6B9200DD235AAD468C9809EA400FE33AC69B5BFAA6D3E90FC922B6398 SWAP2 JUMPDEST PUSH1 0x40 MLOAD SWAP4 DUP5 MSTORE PUSH1 0x1 PUSH1 0x1 PUSH1 0xA0 SHL SUB AND SWAP3 LOG3 PUSH1 0x1 SWAP1 JUMP JUMPDEST PUSH1 0x40 MLOAD PUSH4 0xA9059CBB PUSH1 0xE0 SHL DUP2 MSTORE PUSH1 0x1 PUSH1 0x1 PUSH1 0xA0 SHL SUB DUP3 AND PUSH1 0x4 DUP3 ADD MSTORE PUSH1 0x24 DUP2 ADD DUP4 SWAP1 MSTORE PUSH1 0x20 DUP2 PUSH1 0x44 DUP2 PUSH0 DUP9 GAS CALL SWAP1 DUP2 ISZERO PUSH2 0x5E5 JUMPI PUSH0 SWAP2 PUSH2 0xB9B JUMPI JUMPDEST POP ISZERO PUSH2 0xB71 JUMPI PUSH1 0x20 PUSH32 0x2717EAD6B9200DD235AAD468C9809EA400FE33AC69B5BFAA6D3E90FC922B6398 SWAP2 PUSH2 0xAF1 JUMP JUMPDEST PUSH1 0x40 MLOAD PUSH3 0x461BCD PUSH1 0xE5 SHL DUP2 MSTORE PUSH1 0x20 PUSH1 0x4 DUP3 ADD MSTORE PUSH1 0x2 PUSH1 0x24 DUP3 ADD MSTORE PUSH2 0x5433 PUSH1 0xF0 SHL PUSH1 0x44 DUP3 ADD MSTORE PUSH1 0x64 SWAP1 REVERT JUMPDEST PUSH2 0xBB4 SWAP2 POP PUSH1 0x20 RETURNDATASIZE PUSH1 0x20 GT PUSH2 0x5DE JUMPI PUSH2 0x5D0 DUP2 DUP4 PUSH2 0x8F0 JUMP JUMPDEST PUSH0 PUSH2 0xB42 JUMP INVALID LOG2 PUSH5 0x6970667358 0x22 SLT KECCAK256 ORIGIN SIGNEXTEND 0x2F 0xF9 EXP EXTCODECOPY CHAINID BALANCE PUSH26 0x40C338C1508DADBCF18864C89C62975B095616BD968B9464736F PUSH13 0x634300081A0033000000000000 "
				},
				"gasEstimates": {
					"creation": {
						"codeDepositCost": "611200",
						"executionCost": "infinite",
						"totalCost": "infinite"
					},
					"external": {
						"PRC_DepositCommission()": "2542",
						"balanceOf(address)": "2599",
						"balanceOf(address,address)": "2878",
						"balances(address,address)": "2793",
						"commissionRecipient()": "2266",
						"contractEnabled()": "2361",
						"deposit(address,uint256)": "infinite",
						"disableContract()": "25600",
						"enableContract()": "25509",
						"getAmountToDepositViaComission(uint256)": "infinite",
						"owner()": "2455",
						"setDepositCommission(uint256,address)": "50125",
						"transfer(address,address,uint256)": "53822",
						"transferOwnership(address)": "26299",
						"withdraw(address,uint256)": "infinite"
					},
					"internal": {
						"addBalanceTo(address,address,uint256)": "infinite",
						"removeBalanceFrom(address,address,uint256)": "infinite",
						"withdrawFromContractTo(address,address,uint256)": "infinite"
					}
				},
				"methodIdentifiers": {
					"PRC_DepositCommission()": "f5f6a8e4",
					"balanceOf(address)": "70a08231",
					"balanceOf(address,address)": "f7888aec",
					"balances(address,address)": "c23f001f",
					"commissionRecipient()": "06fd154a",
					"contractEnabled()": "41b3a0d9",
					"deposit(address,uint256)": "47e7ef24",
					"disableContract()": "894ba833",
					"enableContract()": "367edd32",
					"getAmountToDepositViaComission(uint256)": "39b3edb0",
					"owner()": "8da5cb5b",
					"setDepositCommission(uint256,address)": "15f8a314",
					"transfer(address,address,uint256)": "beabacc8",
					"transferOwnership(address)": "f2fde38b",
					"withdraw(address,uint256)": "f3fef3a3"
				}
			},
			"storageLayout": {
				"storage": [
					{
						"astId": 3,
						"contract": "WalletContract.sol:WalletContract",
						"label": "_owner",
						"offset": 0,
						"slot": "0",
						"type": "t_address"
					},
					{
						"astId": 6,
						"contract": "WalletContract.sol:WalletContract",
						"label": "contractEnabled",
						"offset": 20,
						"slot": "0",
						"type": "t_bool"
					},
					{
						"astId": 179,
						"contract": "WalletContract.sol:WalletContract",
						"label": "balances",
						"offset": 0,
						"slot": "1",
						"type": "t_mapping(t_address,t_mapping(t_address,t_uint256))"
					},
					{
						"astId": 181,
						"contract": "WalletContract.sol:WalletContract",
						"label": "PRC_DepositCommission",
						"offset": 0,
						"slot": "2",
						"type": "t_uint256"
					},
					{
						"astId": 183,
						"contract": "WalletContract.sol:WalletContract",
						"label": "commissionRecipient",
						"offset": 0,
						"slot": "3",
						"type": "t_address"
					}
				],
				"types": {
					"t_address": {
						"encoding": "inplace",
						"label": "address",
						"numberOfBytes": "20"
					},
					"t_bool": {
						"encoding": "inplace",
						"label": "bool",
						"numberOfBytes": "1"
					},
					"t_mapping(t_address,t_mapping(t_address,t_uint256))": {
						"encoding": "mapping",
						"key": "t_address",
						"label": "mapping(address => mapping(address => uint256))",
						"numberOfBytes": "32",
						"value": "t_mapping(t_address,t_uint256)"
					},
					"t_mapping(t_address,t_uint256)": {
						"encoding": "mapping",
						"key": "t_address",
						"label": "mapping(address => uint256)",
						"numberOfBytes": "32",
						"value": "t_uint256"
					},
					"t_uint256": {
						"encoding": "inplace",
						"label": "uint256",
						"numberOfBytes": "32"
					}
				}
			},
			"userdoc": {
				"kind": "user",
				"methods": {},
				"version": 1
			}
		}
	}
}