{
	"LockableContract.sol": {
		"LockableContract": {
			"abi": [
				{
					"inputs": [],
					"stateMutability": "nonpayable",
					"type": "constructor"
				},
				{
					"anonymous": false,
					"inputs": [
						{
							"indexed": false,
							"internalType": "bool",
							"name": "status",
							"type": "bool"
						}
					],
					"name": "ContractStatusChanged",
					"type": "event"
				},
				{
					"anonymous": false,
					"inputs": [
						{
							"indexed": true,
							"internalType": "address",
							"name": "previousOwner",
							"type": "address"
						},
						{
							"indexed": true,
							"internalType": "address",
							"name": "newOwner",
							"type": "address"
						}
					],
					"name": "OwnershipTransferred",
					"type": "event"
				},
				{
					"inputs": [],
					"name": "contractEnabled",
					"outputs": [
						{
							"internalType": "bool",
							"name": "",
							"type": "bool"
						}
					],
					"stateMutability": "view",
					"type": "function"
				},
				{
					"inputs": [],
					"name": "disableContract",
					"outputs": [],
					"stateMutability": "nonpayable",
					"type": "function"
				},
				{
					"inputs": [],
					"name": "enableContract",
					"outputs": [],
					"stateMutability": "nonpayable",
					"type": "function"
				},
				{
					"inputs": [],
					"name": "owner",
					"outputs": [
						{
							"internalType": "address",
							"name": "",
							"type": "address"
						}
					],
					"stateMutability": "view",
					"type": "function"
				},
				{
					"inputs": [
						{
							"internalType": "address",
							"name": "newOwner",
							"type": "address"
						}
					],
					"name": "transferOwnership",
					"outputs": [],
					"stateMutability": "nonpayable",
					"type": "function"
				}
			],
			"devdoc": {
				"kind": "dev",
				"methods": {},
				"version": 1
			},
			"evm": {
				"assembly": "    /* \"LockableContract.sol\":69:1715  contract LockableContract {... */\n  0x80\n  dup1\n  0x40\n  mstore\n  jumpi(tag_1, callvalue)\n    /* \"LockableContract.sol\":161:165  true */\n  0x00\n    /* \"LockableContract.sol\":69:1715  contract LockableContract {... */\n  dup1\n  sload\n  not(sub(shl(0xa8, 0x01), 0x01))\n  and\n    /* \"LockableContract.sol\":766:776  msg.sender */\n  caller\n    /* \"LockableContract.sol\":69:1715  contract LockableContract {... */\n  or\n  shl(0xa0, 0x01)\n  or\n  dup1\n  dup3\n  sstore\n  sub(shl(0xa0, 0x01), 0x01)\n  and\n  swap1\n    /* \"LockableContract.sol\":834:874  OwnershipTransferred(address(0), _owner) */\n  0x8be0079c531659141344cd1fd0a4f28419497f9722a3daafe3b4186f6b6457e0\n    /* \"LockableContract.sol\":161:165  true */\n  dup2\n  dup1\n    /* \"LockableContract.sol\":834:874  OwnershipTransferred(address(0), _owner) */\n  log3\n    /* \"LockableContract.sol\":69:1715  contract LockableContract {... */\n  dataSize(sub_0)\n  swap1\n  dup2\n  dataOffset(sub_0)\n  dup3\n  codecopy\n  return\ntag_1:\n  0x00\n  dup1\n  revert\nstop\n\nsub_0: assembly {\n        /* \"LockableContract.sol\":69:1715  contract LockableContract {... */\n      mstore(0x40, 0x80)\n      jumpi(tag_2, iszero(lt(calldatasize, 0x04)))\n      0x00\n      dup1\n      revert\n    tag_2:\n      shr(0xe0, calldataload(0x00))\n      dup1\n      0x367edd32\n      eq\n      tag_4\n      jumpi\n      dup1\n      0x41b3a0d9\n      eq\n      tag_6\n      jumpi\n      dup1\n      0x894ba833\n      eq\n      tag_8\n      jumpi\n      dup1\n      0x8da5cb5b\n      eq\n      tag_10\n      jumpi\n      0xf2fde38b\n      eq\n      tag_12\n      jumpi\n      0x00\n      dup1\n      revert\n    tag_12:\n      jumpi(tag_18, callvalue)\n      jumpi(tag_18, slt(add(not(0x03), calldatasize), 0x20))\n      calldataload(0x04)\n      sub(shl(0xa0, 0x01), 0x01)\n      dup2\n      and\n      swap1\n      dup2\n      swap1\n      sub\n      tag_18\n      jumpi\n      sload(0x00)\n      sub(shl(0xa0, 0x01), 0x01)\n      dup2\n      and\n        /* \"LockableContract.sol\":474:509  require(msg.sender == _owner, \"L2\") */\n      tag_20\n        /* \"LockableContract.sol\":482:492  msg.sender */\n      caller\n        /* \"LockableContract.sol\":482:502  msg.sender == _owner */\n      dup3\n      eq\n        /* \"LockableContract.sol\":474:509  require(msg.sender == _owner, \"L2\") */\n      tag_1\n      jump\t// in\n    tag_20:\n        /* \"LockableContract.sol\":1193:1215  newOwner != address(0) */\n      dup3\n      iszero\n        /* \"LockableContract.sol\":69:1715  contract LockableContract {... */\n      tag_21\n      jumpi\n        /* \"LockableContract.sol\":1274:1312  OwnershipTransferred(_owner, newOwner) */\n      dup3\n      swap1\n      0x8be0079c531659141344cd1fd0a4f28419497f9722a3daafe3b4186f6b6457e0\n        /* \"LockableContract.sol\":69:1715  contract LockableContract {... */\n      0x00\n        /* \"LockableContract.sol\":1274:1312  OwnershipTransferred(_owner, newOwner) */\n      dup1\n      log3\n      not(sub(shl(0xa0, 0x01), 0x01))\n        /* \"LockableContract.sol\":69:1715  contract LockableContract {... */\n      and\n      or\n      0x00\n      sstore\n      stop\n    tag_21:\n      mload(0x40)\n      shl(0xe5, 0x461bcd)\n      dup2\n      mstore\n      0x20\n      0x04\n      dup3\n      add\n      mstore\n      0x26\n      0x24\n      dup3\n      add\n      mstore\n      0x4f776e61626c653a206e6577206f776e657220697320746865207a65726f2061\n      0x44\n      dup3\n      add\n      mstore\n      shl(0xd0, 0x646472657373)\n      0x64\n      dup3\n      add\n      mstore\n      0x84\n      swap1\n      revert\n    tag_18:\n      0x00\n      dup1\n      revert\n    tag_10:\n      jumpi(tag_18, callvalue)\n      jumpi(tag_18, slt(add(not(0x03), calldatasize), 0x00))\n      sload(0x00)\n      mload(0x40)\n      sub(shl(0xa0, 0x01), 0x01)\n      swap1\n      swap2\n      and\n      dup2\n      mstore\n      0x20\n      swap1\n      return\n    tag_8:\n      jumpi(tag_18, callvalue)\n      jumpi(tag_18, slt(add(not(0x03), calldatasize), 0x00))\n      sload(0x00)\n        /* \"LockableContract.sol\":474:509  require(msg.sender == _owner, \"L2\") */\n      tag_31\n        /* \"LockableContract.sol\":482:492  msg.sender */\n      caller\n      sub(shl(0xa0, 0x01), 0x01)\n        /* \"LockableContract.sol\":69:1715  contract LockableContract {... */\n      dup4\n      and\n        /* \"LockableContract.sol\":482:502  msg.sender == _owner */\n      eq\n        /* \"LockableContract.sol\":474:509  require(msg.sender == _owner, \"L2\") */\n      tag_1\n      jump\t// in\n    tag_31:\n        /* \"LockableContract.sol\":69:1715  contract LockableContract {... */\n      not(shl(0xa0, 0xff))\n      and\n      0x00\n      sstore\n        /* \"LockableContract.sol\":1676:1704  ContractStatusChanged(false) */\n      0x017904e4fe7d59bb4603c7c045bc275a05da9ea3a4ac007fc80fffeaf119186d\n        /* \"LockableContract.sol\":69:1715  contract LockableContract {... */\n      0x20\n      mload(0x40)\n      0x00\n      dup2\n      mstore\n        /* \"LockableContract.sol\":1676:1704  ContractStatusChanged(false) */\n      log1\n        /* \"LockableContract.sol\":69:1715  contract LockableContract {... */\n      stop\n    tag_6:\n      jumpi(tag_18, callvalue)\n      jumpi(tag_18, slt(add(not(0x03), calldatasize), 0x00))\n      0x20\n      and(shr(0xa0, sload(0x00)), 0xff)\n      mload(0x40)\n      swap1\n      iszero\n      iszero\n      dup2\n      mstore\n      return\n    tag_4:\n      jumpi(tag_18, callvalue)\n      jumpi(tag_18, slt(add(not(0x03), calldatasize), 0x00))\n      sload(0x00)\n        /* \"LockableContract.sol\":474:509  require(msg.sender == _owner, \"L2\") */\n      tag_40\n        /* \"LockableContract.sol\":482:492  msg.sender */\n      caller\n      sub(shl(0xa0, 0x01), 0x01)\n        /* \"LockableContract.sol\":69:1715  contract LockableContract {... */\n      dup4\n      and\n        /* \"LockableContract.sol\":482:502  msg.sender == _owner */\n      eq\n        /* \"LockableContract.sol\":474:509  require(msg.sender == _owner, \"L2\") */\n      tag_1\n      jump\t// in\n    tag_40:\n      not(shl(0xa0, 0xff))\n        /* \"LockableContract.sol\":69:1715  contract LockableContract {... */\n      and\n      shl(0xa0, 0x01)\n      or\n      0x00\n      sstore\n      mload(0x40)\n      0x01\n      dup2\n      mstore\n        /* \"LockableContract.sol\":1493:1520  ContractStatusChanged(true) */\n      0x017904e4fe7d59bb4603c7c045bc275a05da9ea3a4ac007fc80fffeaf119186d\n      swap1\n        /* \"LockableContract.sol\":69:1715  contract LockableContract {... */\n      0x20\n      swap1\n        /* \"LockableContract.sol\":1493:1520  ContractStatusChanged(true) */\n      log1\n        /* \"LockableContract.sol\":69:1715  contract LockableContract {... */\n      stop\n    tag_1:\n      iszero\n      tag_41\n      jumpi\n      jump\t// out\n    tag_41:\n      mload(0x40)\n      shl(0xe5, 0x461bcd)\n      dup2\n      mstore\n      0x20\n      0x04\n      dup3\n      add\n      mstore\n      0x02\n      0x24\n      dup3\n      add\n      mstore\n      shl(0xf1, 0x2619)\n      0x44\n      dup3\n      add\n      mstore\n      0x64\n      swap1\n      revert\n\n    auxdata: 0xa2646970667358221220aa9197bfc2d3627af9dc2c6dd0b79f6736ba22d067522616ab8f354838430f1564736f6c634300081a0033\n}\n",
				"bytecode": {
					"linkReferences": {},
					"object": "60808060405234605b575f80546001600160a81b0319163317600160a01b178082556001600160a01b0316907f8be0079c531659141344cd1fd0a4f28419497f9722a3daafe3b4186f6b6457e08180a361029190816100608239f35b5f80fdfe60806040526004361015610011575f80fd5b5f3560e01c8063367edd32146101c657806341b3a0d9146101a2578063894ba833146101475780638da5cb5b146101205763f2fde38b14610050575f80fd5b3461011c57602036600319011261011c576004356001600160a01b0381169081900361011c575f546001600160a01b03811661008d33821461022a565b82156100c85782907f8be0079c531659141344cd1fd0a4f28419497f9722a3daafe3b4186f6b6457e05f80a36001600160a01b031916175f55005b60405162461bcd60e51b815260206004820152602660248201527f4f776e61626c653a206e6577206f776e657220697320746865207a65726f206160448201526564647265737360d01b6064820152608490fd5b5f80fd5b3461011c575f36600319011261011c575f546040516001600160a01b039091168152602090f35b3461011c575f36600319011261011c575f5461016d336001600160a01b0383161461022a565b60ff60a01b19165f557f017904e4fe7d59bb4603c7c045bc275a05da9ea3a4ac007fc80fffeaf119186d60206040515f8152a1005b3461011c575f36600319011261011c57602060ff5f5460a01c166040519015158152f35b3461011c575f36600319011261011c575f546101ec336001600160a01b0383161461022a565b60ff60a01b1916600160a01b175f55604051600181527f017904e4fe7d59bb4603c7c045bc275a05da9ea3a4ac007fc80fffeaf119186d90602090a1005b1561023157565b60405162461bcd60e51b8152602060048201526002602482015261261960f11b6044820152606490fdfea2646970667358221220aa9197bfc2d3627af9dc2c6dd0b79f6736ba22d067522616ab8f354838430f1564736f6c634300081a0033",
					"opcodes": "PUSH1 0x80 DUP1 PUSH1 0x40 MSTORE CALLVALUE PUSH1 0x5B JUMPI PUSH0 DUP1 SLOAD PUSH1 0x1 PUSH1 0x1 PUSH1 0xA8 SHL SUB NOT AND CALLER OR PUSH1 0x1 PUSH1 0xA0 SHL OR DUP1 DUP3 SSTORE PUSH1 0x1 PUSH1 0x1 PUSH1 0xA0 SHL SUB AND SWAP1 PUSH32 0x8BE0079C531659141344CD1FD0A4F28419497F9722A3DAAFE3B4186F6B6457E0 DUP2 DUP1 LOG3 PUSH2 0x291 SWAP1 DUP2 PUSH2 0x60 DUP3 CODECOPY RETURN JUMPDEST PUSH0 DUP1 REVERT INVALID PUSH1 0x80 PUSH1 0x40 MSTORE PUSH1 0x4 CALLDATASIZE LT ISZERO PUSH2 0x11 JUMPI PUSH0 DUP1 REVERT JUMPDEST PUSH0 CALLDATALOAD PUSH1 0xE0 SHR DUP1 PUSH4 0x367EDD32 EQ PUSH2 0x1C6 JUMPI DUP1 PUSH4 0x41B3A0D9 EQ PUSH2 0x1A2 JUMPI DUP1 PUSH4 0x894BA833 EQ PUSH2 0x147 JUMPI DUP1 PUSH4 0x8DA5CB5B EQ PUSH2 0x120 JUMPI PUSH4 0xF2FDE38B EQ PUSH2 0x50 JUMPI PUSH0 DUP1 REVERT JUMPDEST CALLVALUE PUSH2 0x11C JUMPI PUSH1 0x20 CALLDATASIZE PUSH1 0x3 NOT ADD SLT PUSH2 0x11C JUMPI PUSH1 0x4 CALLDATALOAD PUSH1 0x1 PUSH1 0x1 PUSH1 0xA0 SHL SUB DUP2 AND SWAP1 DUP2 SWAP1 SUB PUSH2 0x11C JUMPI PUSH0 SLOAD PUSH1 0x1 PUSH1 0x1 PUSH1 0xA0 SHL SUB DUP2 AND PUSH2 0x8D CALLER DUP3 EQ PUSH2 0x22A JUMP JUMPDEST DUP3 ISZERO PUSH2 0xC8 JUMPI DUP3 SWAP1 PUSH32 0x8BE0079C531659141344CD1FD0A4F28419497F9722A3DAAFE3B4186F6B6457E0 PUSH0 DUP1 LOG3 PUSH1 0x1 PUSH1 0x1 PUSH1 0xA0 SHL SUB NOT AND OR PUSH0 SSTORE STOP JUMPDEST PUSH1 0x40 MLOAD PUSH3 0x461BCD PUSH1 0xE5 SHL DUP2 MSTORE PUSH1 0x20 PUSH1 0x4 DUP3 ADD MSTORE PUSH1 0x26 PUSH1 0x24 DUP3 ADD MSTORE PUSH32 0x4F776E61626C653A206E6577206F776E657220697320746865207A65726F2061 PUSH1 0x44 DUP3 ADD MSTORE PUSH6 0x646472657373 PUSH1 0xD0 SHL PUSH1 0x64 DUP3 ADD MSTORE PUSH1 0x84 SWAP1 REVERT JUMPDEST PUSH0 DUP1 REVERT JUMPDEST CALLVALUE PUSH2 0x11C JUMPI PUSH0 CALLDATASIZE PUSH1 0x3 NOT ADD SLT PUSH2 0x11C JUMPI PUSH0 SLOAD PUSH1 0x40 MLOAD PUSH1 0x1 PUSH1 0x1 PUSH1 0xA0 SHL SUB SWAP1 SWAP2 AND DUP2 MSTORE PUSH1 0x20 SWAP1 RETURN JUMPDEST CALLVALUE PUSH2 0x11C JUMPI PUSH0 CALLDATASIZE PUSH1 0x3 NOT ADD SLT PUSH2 0x11C JUMPI PUSH0 SLOAD PUSH2 0x16D CALLER PUSH1 0x1 PUSH1 0x1 PUSH1 0xA0 SHL SUB DUP4 AND EQ PUSH2 0x22A JUMP JUMPDEST PUSH1 0xFF PUSH1 0xA0 SHL NOT AND PUSH0 SSTORE PUSH32 0x17904E4FE7D59BB4603C7C045BC275A05DA9EA3A4AC007FC80FFFEAF119186D PUSH1 0x20 PUSH1 0x40 MLOAD PUSH0 DUP2 MSTORE LOG1 STOP JUMPDEST CALLVALUE PUSH2 0x11C JUMPI PUSH0 CALLDATASIZE PUSH1 0x3 NOT ADD SLT PUSH2 0x11C JUMPI PUSH1 0x20 PUSH1 0xFF PUSH0 SLOAD PUSH1 0xA0 SHR AND PUSH1 0x40 MLOAD SWAP1 ISZERO ISZERO DUP2 MSTORE RETURN JUMPDEST CALLVALUE PUSH2 0x11C JUMPI PUSH0 CALLDATASIZE PUSH1 0x3 NOT ADD SLT PUSH2 0x11C JUMPI PUSH0 SLOAD PUSH2 0x1EC CALLER PUSH1 0x1 PUSH1 0x1 PUSH1 0xA0 SHL SUB DUP4 AND EQ PUSH2 0x22A JUMP JUMPDEST PUSH1 0xFF PUSH1 0xA0 SHL NOT AND PUSH1 0x1 PUSH1 0xA0 SHL OR PUSH0 SSTORE PUSH1 0x40 MLOAD PUSH1 0x1 DUP2 MSTORE PUSH32 0x17904E4FE7D59BB4603C7C045BC275A05DA9EA3A4AC007FC80FFFEAF119186D SWAP1 PUSH1 0x20 SWAP1 LOG1 STOP JUMPDEST ISZERO PUSH2 0x231 JUMPI JUMP JUMPDEST PUSH1 0x40 MLOAD PUSH3 0x461BCD PUSH1 0xE5 SHL DUP2 MSTORE PUSH1 0x20 PUSH1 0x4 DUP3 ADD MSTORE PUSH1 0x2 PUSH1 0x24 DUP3 ADD MSTORE PUSH2 0x2619 PUSH1 0xF1 SHL PUSH1 0x44 DUP3 ADD MSTORE PUSH1 0x64 SWAP1 REVERT INVALID LOG2 PUSH5 0x6970667358 0x22 SLT KECCAK256 0xAA SWAP2 SWAP8 0xBF 0xC2 0xD3 PUSH3 0x7AF9DC 0x2C PUSH14 0xD0B79F6736BA22D067522616AB8F CALLDATALOAD BASEFEE CODESIZE NUMBER 0xF ISZERO PUSH5 0x736F6C6343 STOP ADDMOD BYTE STOP CALLER "
				},
				"gasEstimates": {
					"creation": {
						"codeDepositCost": "131400",
						"executionCost": "25963",
						"totalCost": "157363"
					},
					"external": {
						"contractEnabled()": "2287",
						"disableContract()": "25482",
						"enableContract()": "25457",
						"owner()": "2337",
						"transferOwnership(address)": "26089"
					}
				},
				"methodIdentifiers": {
					"contractEnabled()": "41b3a0d9",
					"disableContract()": "894ba833",
					"enableContract()": "367edd32",
					"owner()": "8da5cb5b",
					"transferOwnership(address)": "f2fde38b"
				}
			},
			"storageLayout": {
				"storage": [
					{
						"astId": 3,
						"contract": "LockableContract.sol:LockableContract",
						"label": "_owner",
						"offset": 0,
						"slot": "0",
						"type": "t_address"
					},
					{
						"astId": 6,
						"contract": "LockableContract.sol:LockableContract",
						"label": "contractEnabled",
						"offset": 20,
						"slot": "0",
						"type": "t_bool"
					}
				],
				"types": {
					"t_address": {
						"encoding": "inplace",
						"label": "address",
						"numberOfBytes": "20"
					},
					"t_bool": {
						"encoding": "inplace",
						"label": "bool",
						"numberOfBytes": "1"
					}
				}
			},
			"userdoc": {
				"kind": "user",
				"methods": {},
				"version": 1
			}
		}
	}
}