{
	"Percent.sol": {
		"Percent": {
			"abi": [
				{
					"inputs": [],
					"name": "MAXVALUE",
					"outputs": [
						{
							"internalType": "uint256",
							"name": "",
							"type": "uint256"
						}
					],
					"stateMutability": "view",
					"type": "function"
				},
				{
					"inputs": [],
					"name": "SCALE",
					"outputs": [
						{
							"internalType": "uint256",
							"name": "",
							"type": "uint256"
						}
					],
					"stateMutability": "view",
					"type": "function"
				},
				{
					"inputs": [
						{
							"internalType": "uint256",
							"name": "value",
							"type": "uint256"
						},
						{
							"internalType": "uint256",
							"name": "percent",
							"type": "uint256"
						}
					],
					"name": "applyToNumber",
					"outputs": [
						{
							"internalType": "uint256",
							"name": "",
							"type": "uint256"
						}
					],
					"stateMutability": "pure",
					"type": "function"
				}
			],
			"devdoc": {
				"kind": "dev",
				"methods": {},
				"version": 1
			},
			"evm": {
				"assembly": "    /* \"Percent.sol\":98:1023  library Percent {... */\n  0x80\n  dup1\n  0x40\n  mstore\n  jumpi(tag_1, callvalue)\n  dataSize(sub_0)\n  swap1\n  dup2\n  dataOffset(sub_0)\n  dup3\n  codecopy\n  address\n  dup2\n  assignImmutable(\"0xcd5a02d485074f67d63783a7acdae578618045c23ccf47fa4e3f1a01c11714ad\")\n  return\ntag_1:\n  0x00\n  dup1\n  revert\nstop\n\nsub_0: assembly {\n        /* \"Percent.sol\":98:1023  library Percent {... */\n      mstore(0x40, 0x80)\n      jumpi(tag_2, iszero(lt(calldatasize, 0x04)))\n      0x00\n      dup1\n      revert\n    tag_2:\n      shr(0xe0, calldataload(0x00))\n      dup1\n      0x1c8f0847\n      eq\n      tag_4\n      jumpi\n      dup1\n      0xa64a799c\n      eq\n      tag_8\n      jumpi\n      0xeced5526\n      eq\n      tag_8\n      jumpi\n      0x00\n      dup1\n      revert\n    tag_8:\n      tag_1\n      jump\t// in\n    tag_4:\n      jumpi(tag_10, slt(add(not(0x03), calldatasize), 0x40))\n      calldataload(0x24)\n      calldataload(0x04)\n        /* \"Percent.sol\":200:206  10**10 */\n      0x02540be400\n        /* \"Percent.sol\":575:593  percent < MAXVALUE */\n      dup3\n      lt\n        /* \"Percent.sol\":98:1023  library Percent {... */\n      iszero\n      tag_12\n      jumpi\n        /* \"Percent.sol\":200:206  10**10 */\n      0x02540be400\n        /* \"Percent.sol\":98:1023  library Percent {... */\n      dup2\n      mul\n      swap1\n      dup1\n      dup3\n      div\n        /* \"Percent.sol\":200:206  10**10 */\n      0x02540be400\n        /* \"Percent.sol\":98:1023  library Percent {... */\n      eq\n      dup2\n      iszero\n      or\n      iszero\n      tag_16\n      jumpi\n      dup3\n      mul\n        /* \"Percent.sol\":200:206  10**10 */\n      0x02540be400\n        /* \"Percent.sol\":98:1023  library Percent {... */\n      mul\n      swap2\n      dup2\n      iszero\n      swap2\n      dup4\n      div\n      eq\n      or\n      iszero\n      tag_16\n      jumpi\n      0x20\n      swap1\n        /* \"Percent.sol\":200:206  10**10 */\n      0x02540be400\n        /* \"Percent.sol\":98:1023  library Percent {... */\n      mload(0x40)\n      swap2\n      div\n      dup2\n      mstore\n      return\n    tag_16:\n      mstore(0x00, shl(0xe0, 0x4e487b71))\n      mstore(0x04, 0x11)\n      revert(0x00, 0x24)\n    tag_12:\n      mload(0x40)\n      shl(0xe5, 0x461bcd)\n      dup2\n      mstore\n      0x20\n      0x04\n      dup3\n      add\n      mstore\n      0x21\n      0x24\n      dup3\n      add\n      mstore\n      0x50657263656e742063616e74206265206d6f7265207468656e206d6178696d61\n      0x44\n      dup3\n      add\n      mstore\n      shl(0xfa, 0x1b)\n      0x64\n      dup3\n      add\n      mstore\n      0x84\n      swap1\n      revert\n    tag_10:\n      0x00\n      dup1\n      revert\n    tag_1:\n      jumpi(tag_10, slt(add(not(0x03), calldatasize), 0x00))\n      0x20\n      mload(0x40)\n        /* \"Percent.sol\":200:206  10**10 */\n      0x02540be400\n        /* \"Percent.sol\":98:1023  library Percent {... */\n      dup2\n      mstore\n      return\n\n    auxdata: 0xa26469706673582212202c6034ec951d82ab389dcef5a42cfe92fcff6c3ceb122f9474fccdc3d796126d64736f6c634300081c0033\n}\n",
				"bytecode": {
					"linkReferences": {},
					"object": "60808060405234601957610158908161001e823930815050f35b5f80fdfe60806040526004361015610011575f80fd5b5f3560e01c80631c8f08471461003f578063a64a799c1461003a5763eced55261461003a575f80fd5b610108565b6040366003190112610104576024356004356402540be4008210156100b5576402540be4008102908082046402540be40014811517156100a15782026402540be400029181159183041417156100a1576020906402540be40060405191048152f35b634e487b7160e01b5f52601160045260245ffd5b60405162461bcd60e51b815260206004820152602160248201527f50657263656e742063616e74206265206d6f7265207468656e206d6178696d616044820152601b60fa1b6064820152608490fd5b5f80fd5b5f3660031901126101045760206040516402540be4008152f3fea26469706673582212202c6034ec951d82ab389dcef5a42cfe92fcff6c3ceb122f9474fccdc3d796126d64736f6c634300081c0033",
					"opcodes": "PUSH1 0x80 DUP1 PUSH1 0x40 MSTORE CALLVALUE PUSH1 0x19 JUMPI PUSH2 0x158 SWAP1 DUP2 PUSH2 0x1E DUP3 CODECOPY ADDRESS DUP2 POP POP RETURN JUMPDEST PUSH0 DUP1 REVERT INVALID PUSH1 0x80 PUSH1 0x40 MSTORE PUSH1 0x4 CALLDATASIZE LT ISZERO PUSH2 0x11 JUMPI PUSH0 DUP1 REVERT JUMPDEST PUSH0 CALLDATALOAD PUSH1 0xE0 SHR DUP1 PUSH4 0x1C8F0847 EQ PUSH2 0x3F JUMPI DUP1 PUSH4 0xA64A799C EQ PUSH2 0x3A JUMPI PUSH4 0xECED5526 EQ PUSH2 0x3A JUMPI PUSH0 DUP1 REVERT JUMPDEST PUSH2 0x108 JUMP JUMPDEST PUSH1 0x40 CALLDATASIZE PUSH1 0x3 NOT ADD SLT PUSH2 0x104 JUMPI PUSH1 0x24 CALLDATALOAD PUSH1 0x4 CALLDATALOAD PUSH5 0x2540BE400 DUP3 LT ISZERO PUSH2 0xB5 JUMPI PUSH5 0x2540BE400 DUP2 MUL SWAP1 DUP1 DUP3 DIV PUSH5 0x2540BE400 EQ DUP2 ISZERO OR ISZERO PUSH2 0xA1 JUMPI DUP3 MUL PUSH5 0x2540BE400 MUL SWAP2 DUP2 ISZERO SWAP2 DUP4 DIV EQ OR ISZERO PUSH2 0xA1 JUMPI PUSH1 0x20 SWAP1 PUSH5 0x2540BE400 PUSH1 0x40 MLOAD SWAP2 DIV DUP2 MSTORE RETURN JUMPDEST PUSH4 0x4E487B71 PUSH1 0xE0 SHL PUSH0 MSTORE PUSH1 0x11 PUSH1 0x4 MSTORE PUSH1 0x24 PUSH0 REVERT JUMPDEST PUSH1 0x40 MLOAD PUSH3 0x461BCD PUSH1 0xE5 SHL DUP2 MSTORE PUSH1 0x20 PUSH1 0x4 DUP3 ADD MSTORE PUSH1 0x21 PUSH1 0x24 DUP3 ADD MSTORE PUSH32 0x50657263656E742063616E74206265206D6F7265207468656E206D6178696D61 PUSH1 0x44 DUP3 ADD MSTORE PUSH1 0x1B PUSH1 0xFA SHL PUSH1 0x64 DUP3 ADD MSTORE PUSH1 0x84 SWAP1 REVERT JUMPDEST PUSH0 DUP1 REVERT JUMPDEST PUSH0 CALLDATASIZE PUSH1 0x3 NOT ADD SLT PUSH2 0x104 JUMPI PUSH1 0x20 PUSH1 0x40 MLOAD PUSH5 0x2540BE400 DUP2 MSTORE RETURN INVALID LOG2 PUSH5 0x6970667358 0x22 SLT KECCAK256 0x2C PUSH1 0x34 0xEC SWAP6 SAR DUP3 0xAB CODESIZE SWAP14 0xCE CREATE2 LOG4 0x2C INVALID SWAP3 0xFC SELFDESTRUCT PUSH13 0x3CEB122F9474FCCDC3D796126D PUSH5 0x736F6C6343 STOP ADDMOD SHR STOP CALLER "
				},
				"gasEstimates": {
					"creation": {
						"codeDepositCost": "68800",
						"executionCost": "infinite",
						"totalCost": "infinite"
					},
					"external": {
						"MAXVALUE()": "164",
						"SCALE()": "183",
						"applyToNumber(uint256,uint256)": "293"
					}
				},
				"methodIdentifiers": {
					"MAXVALUE()": "a64a799c",
					"SCALE()": "eced5526",
					"applyToNumber(uint256,uint256)": "1c8f0847"
				}
			},
			"storageLayout": {
				"storage": [],
				"types": null
			},
			"userdoc": {
				"kind": "user",
				"methods": {},
				"version": 1
			}
		}
	}
}