{
	"Percent.sol": {
		"Percent": {
			"abi": [
				{
					"inputs": [],
					"name": "MAXVALUE",
					"outputs": [
						{
							"internalType": "uint256",
							"name": "",
							"type": "uint256"
						}
					],
					"stateMutability": "view",
					"type": "function"
				},
				{
					"inputs": [],
					"name": "SCALE",
					"outputs": [
						{
							"internalType": "uint256",
							"name": "",
							"type": "uint256"
						}
					],
					"stateMutability": "view",
					"type": "function"
				},
				{
					"inputs": [
						{
							"internalType": "uint256",
							"name": "value",
							"type": "uint256"
						},
						{
							"internalType": "uint256",
							"name": "percent",
							"type": "uint256"
						}
					],
					"name": "applyToNumber",
					"outputs": [
						{
							"internalType": "uint256",
							"name": "",
							"type": "uint256"
						}
					],
					"stateMutability": "pure",
					"type": "function"
				}
			],
			"devdoc": {
				"kind": "dev",
				"methods": {},
				"version": 1
			},
			"evm": {
				"assembly": "    /* \"Percent.sol\":98:970  library Percent {... */\n  0x80\n  dup1\n  0x40\n  mstore\n  jumpi(tag_1, callvalue)\n  dataSize(sub_0)\n  swap1\n  dup2\n  dataOffset(sub_0)\n  dup3\n  codecopy\n  address\n  dup2\n  assignImmutable(\"0xcd5a02d485074f67d63783a7acdae578618045c23ccf47fa4e3f1a01c11714ad\")\n  return\ntag_1:\n  0x00\n  dup1\n  revert\nstop\n\nsub_0: assembly {\n        /* \"Percent.sol\":98:970  library Percent {... */\n      mstore(0x40, 0x80)\n      jumpi(tag_2, iszero(lt(calldatasize, 0x04)))\n      0x00\n      dup1\n      revert\n    tag_2:\n      shr(0xe0, calldataload(0x00))\n      dup1\n      0x1c8f0847\n      eq\n      tag_4\n      jumpi\n      dup1\n      0xa64a799c\n      eq\n      tag_8\n      jumpi\n      0xeced5526\n      eq\n      tag_8\n      jumpi\n      0x00\n      dup1\n      revert\n    tag_8:\n      tag_1\n      jump\t// in\n    tag_4:\n      jumpi(tag_10, slt(add(not(0x03), calldatasize), 0x40))\n      calldataload(0x24)\n      calldataload(0x04)\n        /* \"Percent.sol\":200:206  10**10 */\n      0x02540be400\n        /* \"Percent.sol\":553:571  percent < MAXVALUE */\n      dup3\n      lt\n        /* \"Percent.sol\":98:970  library Percent {... */\n      iszero\n      tag_12\n      jumpi\n        /* \"Percent.sol\":200:206  10**10 */\n      0x02540be400\n        /* \"Percent.sol\":98:970  library Percent {... */\n      dup2\n      mul\n      swap1\n      dup1\n      dup3\n      div\n        /* \"Percent.sol\":200:206  10**10 */\n      0x02540be400\n        /* \"Percent.sol\":98:970  library Percent {... */\n      eq\n      dup2\n      iszero\n      or\n      iszero\n      tag_16\n      jumpi\n      dup3\n      mul\n        /* \"Percent.sol\":200:206  10**10 */\n      0x02540be400\n        /* \"Percent.sol\":98:970  library Percent {... */\n      mul\n      swap2\n      dup2\n      iszero\n      swap2\n      dup4\n      div\n      eq\n      or\n      iszero\n      tag_16\n      jumpi\n      0x20\n      swap1\n        /* \"Percent.sol\":200:206  10**10 */\n      0x02540be400\n        /* \"Percent.sol\":98:970  library Percent {... */\n      mload(0x40)\n      swap2\n      div\n      dup2\n      mstore\n      return\n    tag_16:\n      mstore(0x00, shl(0xe0, 0x4e487b71))\n      mstore(0x04, 0x11)\n      revert(0x00, 0x24)\n    tag_12:\n      mload(0x40)\n      shl(0xe5, 0x461bcd)\n      dup2\n      mstore\n      0x20\n      0x04\n      dup3\n      add\n      mstore\n      0x02\n      0x24\n      dup3\n      add\n      mstore\n      shl(0xf0, 0x4335)\n      0x44\n      dup3\n      add\n      mstore\n      0x64\n      swap1\n      revert\n    tag_10:\n      0x00\n      dup1\n      revert\n    tag_1:\n      jumpi(tag_10, slt(add(not(0x03), calldatasize), 0x00))\n      0x20\n      mload(0x40)\n        /* \"Percent.sol\":200:206  10**10 */\n      0x02540be400\n        /* \"Percent.sol\":98:970  library Percent {... */\n      dup2\n      mstore\n      return\n\n    auxdata: 0xa26469706673582212202b700231bd8d8b0a3b4b0d53dc1dfa50ea1111fb4b038266f56245912c9a96fa64736f6c634300081a0033\n}\n",
				"bytecode": {
					"linkReferences": {},
					"object": "60808060405234601957610129908161001e823930815050f35b5f80fdfe608060405260043610156010575f80fd5b5f3560e01c80631c8f084714603a578063a64a799c1460365763eced5526146036575f80fd5b60da565b604036600319011260d6576024356004356402540be40082101560ac576402540be4008102908082046402540be400148115171560985782026402540be400029181159183041417156098576020906402540be40060405191048152f35b634e487b7160e01b5f52601160045260245ffd5b60405162461bcd60e51b8152602060048201526002602482015261433560f01b6044820152606490fd5b5f80fd5b5f36600319011260d65760206040516402540be4008152f3fea26469706673582212202b700231bd8d8b0a3b4b0d53dc1dfa50ea1111fb4b038266f56245912c9a96fa64736f6c634300081a0033",
					"opcodes": "PUSH1 0x80 DUP1 PUSH1 0x40 MSTORE CALLVALUE PUSH1 0x19 JUMPI PUSH2 0x129 SWAP1 DUP2 PUSH2 0x1E DUP3 CODECOPY ADDRESS DUP2 POP POP RETURN JUMPDEST PUSH0 DUP1 REVERT INVALID PUSH1 0x80 PUSH1 0x40 MSTORE PUSH1 0x4 CALLDATASIZE LT ISZERO PUSH1 0x10 JUMPI PUSH0 DUP1 REVERT JUMPDEST PUSH0 CALLDATALOAD PUSH1 0xE0 SHR DUP1 PUSH4 0x1C8F0847 EQ PUSH1 0x3A JUMPI DUP1 PUSH4 0xA64A799C EQ PUSH1 0x36 JUMPI PUSH4 0xECED5526 EQ PUSH1 0x36 JUMPI PUSH0 DUP1 REVERT JUMPDEST PUSH1 0xDA JUMP JUMPDEST PUSH1 0x40 CALLDATASIZE PUSH1 0x3 NOT ADD SLT PUSH1 0xD6 JUMPI PUSH1 0x24 CALLDATALOAD PUSH1 0x4 CALLDATALOAD PUSH5 0x2540BE400 DUP3 LT ISZERO PUSH1 0xAC JUMPI PUSH5 0x2540BE400 DUP2 MUL SWAP1 DUP1 DUP3 DIV PUSH5 0x2540BE400 EQ DUP2 ISZERO OR ISZERO PUSH1 0x98 JUMPI DUP3 MUL PUSH5 0x2540BE400 MUL SWAP2 DUP2 ISZERO SWAP2 DUP4 DIV EQ OR ISZERO PUSH1 0x98 JUMPI PUSH1 0x20 SWAP1 PUSH5 0x2540BE400 PUSH1 0x40 MLOAD SWAP2 DIV DUP2 MSTORE RETURN JUMPDEST PUSH4 0x4E487B71 PUSH1 0xE0 SHL PUSH0 MSTORE PUSH1 0x11 PUSH1 0x4 MSTORE PUSH1 0x24 PUSH0 REVERT JUMPDEST PUSH1 0x40 MLOAD PUSH3 0x461BCD PUSH1 0xE5 SHL DUP2 MSTORE PUSH1 0x20 PUSH1 0x4 DUP3 ADD MSTORE PUSH1 0x2 PUSH1 0x24 DUP3 ADD MSTORE PUSH2 0x4335 PUSH1 0xF0 SHL PUSH1 0x44 DUP3 ADD MSTORE PUSH1 0x64 SWAP1 REVERT JUMPDEST PUSH0 DUP1 REVERT JUMPDEST PUSH0 CALLDATASIZE PUSH1 0x3 NOT ADD SLT PUSH1 0xD6 JUMPI PUSH1 0x20 PUSH1 0x40 MLOAD PUSH5 0x2540BE400 DUP2 MSTORE RETURN INVALID LOG2 PUSH5 0x6970667358 0x22 SLT KECCAK256 0x2B PUSH17 0x231BD8D8B0A3B4B0D53DC1DFA50EA1111 0xFB 0x4B SUB DUP3 PUSH7 0xF56245912C9A96 STATICCALL PUSH5 0x736F6C6343 STOP ADDMOD BYTE STOP CALLER "
				},
				"gasEstimates": {
					"creation": {
						"codeDepositCost": "59400",
						"executionCost": "infinite",
						"totalCost": "infinite"
					},
					"external": {
						"MAXVALUE()": "164",
						"SCALE()": "183",
						"applyToNumber(uint256,uint256)": "293"
					}
				},
				"methodIdentifiers": {
					"MAXVALUE()": "a64a799c",
					"SCALE()": "eced5526",
					"applyToNumber(uint256,uint256)": "1c8f0847"
				}
			},
			"storageLayout": {
				"storage": [],
				"types": null
			},
			"userdoc": {
				"kind": "user",
				"methods": {},
				"version": 1
			}
		}
	}
}