{
	"DealCreationManager.sol": {
		"DealCreationManager": {
			"abi": [
				{
					"inputs": [
						{
							"internalType": "uint256",
							"name": "depositCommissionPercent",
							"type": "uint256"
						},
						{
							"internalType": "address",
							"name": "commissionRecipient",
							"type": "address"
						}
					],
					"stateMutability": "nonpayable",
					"type": "constructor"
				},
				{
					"anonymous": false,
					"inputs": [
						{
							"indexed": true,
							"internalType": "bytes32",
							"name": "id",
							"type": "bytes32"
						},
						{
							"indexed": true,
							"internalType": "address",
							"name": "initiator",
							"type": "address"
						},
						{
							"indexed": true,
							"internalType": "address",
							"name": "counterparty",
							"type": "address"
						},
						{
							"indexed": false,
							"internalType": "address",
							"name": "mediator",
							"type": "address"
						},
						{
							"indexed": false,
							"internalType": "uint256",
							"name": "amount",
							"type": "uint256"
						}
					],
					"name": "AddDepositByCounterparty",
					"type": "event"
				},
				{
					"anonymous": false,
					"inputs": [
						{
							"indexed": true,
							"internalType": "bytes32",
							"name": "id",
							"type": "bytes32"
						},
						{
							"indexed": true,
							"internalType": "address",
							"name": "initiator",
							"type": "address"
						},
						{
							"indexed": true,
							"internalType": "address",
							"name": "counterparty",
							"type": "address"
						},
						{
							"indexed": false,
							"internalType": "address",
							"name": "mediator",
							"type": "address"
						},
						{
							"indexed": false,
							"internalType": "uint256",
							"name": "amount",
							"type": "uint256"
						}
					],
					"name": "AddDepositByInitiator",
					"type": "event"
				},
				{
					"anonymous": false,
					"inputs": [
						{
							"indexed": false,
							"internalType": "uint256",
							"name": "newCommissionPercent",
							"type": "uint256"
						},
						{
							"indexed": false,
							"internalType": "address",
							"name": "newCommissionRecipient",
							"type": "address"
						}
					],
					"name": "CommissionChanged",
					"type": "event"
				},
				{
					"anonymous": false,
					"inputs": [
						{
							"indexed": false,
							"internalType": "bool",
							"name": "status",
							"type": "bool"
						}
					],
					"name": "ContractStatusChanged",
					"type": "event"
				},
				{
					"anonymous": false,
					"inputs": [
						{
							"indexed": true,
							"internalType": "bytes32",
							"name": "id",
							"type": "bytes32"
						},
						{
							"indexed": true,
							"internalType": "address",
							"name": "initiator",
							"type": "address"
						},
						{
							"indexed": true,
							"internalType": "address",
							"name": "counterparty",
							"type": "address"
						},
						{
							"indexed": false,
							"internalType": "address",
							"name": "mediator",
							"type": "address"
						},
						{
							"indexed": false,
							"internalType": "address",
							"name": "sender",
							"type": "address"
						}
					],
					"name": "DealCanceled",
					"type": "event"
				},
				{
					"anonymous": false,
					"inputs": [
						{
							"indexed": true,
							"internalType": "bytes32",
							"name": "id",
							"type": "bytes32"
						},
						{
							"indexed": true,
							"internalType": "address",
							"name": "initiator",
							"type": "address"
						},
						{
							"indexed": true,
							"internalType": "address",
							"name": "counterparty",
							"type": "address"
						},
						{
							"indexed": false,
							"internalType": "address",
							"name": "mediator",
							"type": "address"
						},
						{
							"indexed": false,
							"internalType": "address",
							"name": "sender",
							"type": "address"
						}
					],
					"name": "DealCompited",
					"type": "event"
				},
				{
					"anonymous": false,
					"inputs": [
						{
							"indexed": true,
							"internalType": "bytes32",
							"name": "id",
							"type": "bytes32"
						},
						{
							"indexed": true,
							"internalType": "address",
							"name": "initiator",
							"type": "address"
						},
						{
							"indexed": true,
							"internalType": "address",
							"name": "counterparty",
							"type": "address"
						},
						{
							"indexed": false,
							"internalType": "address",
							"name": "mediator",
							"type": "address"
						}
					],
					"name": "DealCreated",
					"type": "event"
				},
				{
					"anonymous": false,
					"inputs": [
						{
							"indexed": true,
							"internalType": "bytes32",
							"name": "id",
							"type": "bytes32"
						},
						{
							"indexed": true,
							"internalType": "address",
							"name": "initiator",
							"type": "address"
						},
						{
							"indexed": true,
							"internalType": "address",
							"name": "counterparty",
							"type": "address"
						},
						{
							"indexed": false,
							"internalType": "address",
							"name": "mediator",
							"type": "address"
						}
					],
					"name": "DealRequestCreated",
					"type": "event"
				},
				{
					"anonymous": false,
					"inputs": [
						{
							"indexed": true,
							"internalType": "address",
							"name": "user",
							"type": "address"
						},
						{
							"indexed": true,
							"internalType": "address",
							"name": "token",
							"type": "address"
						},
						{
							"indexed": false,
							"internalType": "uint256",
							"name": "amount",
							"type": "uint256"
						},
						{
							"indexed": false,
							"internalType": "uint256",
							"name": "commission",
							"type": "uint256"
						}
					],
					"name": "Deposit",
					"type": "event"
				},
				{
					"anonymous": false,
					"inputs": [
						{
							"indexed": true,
							"internalType": "bytes32",
							"name": "id",
							"type": "bytes32"
						},
						{
							"indexed": true,
							"internalType": "address",
							"name": "initiator",
							"type": "address"
						},
						{
							"indexed": true,
							"internalType": "address",
							"name": "counterparty",
							"type": "address"
						},
						{
							"indexed": false,
							"internalType": "address",
							"name": "mediator",
							"type": "address"
						},
						{
							"indexed": false,
							"internalType": "address",
							"name": "sender",
							"type": "address"
						},
						{
							"indexed": false,
							"internalType": "uint256",
							"name": "amount",
							"type": "uint256"
						},
						{
							"indexed": false,
							"internalType": "uint256",
							"name": "fee",
							"type": "uint256"
						}
					],
					"name": "GivebackToCounterparty",
					"type": "event"
				},
				{
					"anonymous": false,
					"inputs": [
						{
							"indexed": true,
							"internalType": "bytes32",
							"name": "id",
							"type": "bytes32"
						},
						{
							"indexed": true,
							"internalType": "address",
							"name": "initiator",
							"type": "address"
						},
						{
							"indexed": true,
							"internalType": "address",
							"name": "counterparty",
							"type": "address"
						},
						{
							"indexed": false,
							"internalType": "address",
							"name": "mediator",
							"type": "address"
						},
						{
							"indexed": false,
							"internalType": "address",
							"name": "sender",
							"type": "address"
						},
						{
							"indexed": false,
							"internalType": "uint256",
							"name": "amount",
							"type": "uint256"
						},
						{
							"indexed": false,
							"internalType": "uint256",
							"name": "fee",
							"type": "uint256"
						}
					],
					"name": "GivebackToInitiator",
					"type": "event"
				},
				{
					"anonymous": false,
					"inputs": [
						{
							"indexed": true,
							"internalType": "address",
							"name": "mediator",
							"type": "address"
						},
						{
							"indexed": false,
							"internalType": "bytes32",
							"name": "dealId",
							"type": "bytes32"
						}
					],
					"name": "JoinedToDealAsMediator",
					"type": "event"
				},
				{
					"anonymous": false,
					"inputs": [
						{
							"indexed": true,
							"internalType": "address",
							"name": "previousOwner",
							"type": "address"
						},
						{
							"indexed": true,
							"internalType": "address",
							"name": "newOwner",
							"type": "address"
						}
					],
					"name": "OwnershipTransferred",
					"type": "event"
				},
				{
					"anonymous": false,
					"inputs": [
						{
							"indexed": true,
							"internalType": "address",
							"name": "from",
							"type": "address"
						},
						{
							"indexed": true,
							"internalType": "address",
							"name": "to",
							"type": "address"
						},
						{
							"indexed": true,
							"internalType": "address",
							"name": "token",
							"type": "address"
						},
						{
							"indexed": false,
							"internalType": "uint256",
							"name": "value",
							"type": "uint256"
						}
					],
					"name": "Transfer",
					"type": "event"
				},
				{
					"anonymous": false,
					"inputs": [
						{
							"indexed": true,
							"internalType": "bytes32",
							"name": "id",
							"type": "bytes32"
						},
						{
							"indexed": true,
							"internalType": "address",
							"name": "initiator",
							"type": "address"
						},
						{
							"indexed": true,
							"internalType": "address",
							"name": "counterparty",
							"type": "address"
						},
						{
							"indexed": false,
							"internalType": "address",
							"name": "mediator",
							"type": "address"
						},
						{
							"indexed": false,
							"internalType": "address",
							"name": "sender",
							"type": "address"
						},
						{
							"indexed": false,
							"internalType": "uint256",
							"name": "amount",
							"type": "uint256"
						},
						{
							"indexed": false,
							"internalType": "uint256",
							"name": "fee",
							"type": "uint256"
						}
					],
					"name": "TransferToCounterparty",
					"type": "event"
				},
				{
					"anonymous": false,
					"inputs": [
						{
							"indexed": true,
							"internalType": "bytes32",
							"name": "id",
							"type": "bytes32"
						},
						{
							"indexed": true,
							"internalType": "address",
							"name": "initiator",
							"type": "address"
						},
						{
							"indexed": true,
							"internalType": "address",
							"name": "counterparty",
							"type": "address"
						},
						{
							"indexed": false,
							"internalType": "address",
							"name": "mediator",
							"type": "address"
						},
						{
							"indexed": false,
							"internalType": "address",
							"name": "sender",
							"type": "address"
						},
						{
							"indexed": false,
							"internalType": "address",
							"name": "target",
							"type": "address"
						},
						{
							"indexed": false,
							"internalType": "uint256",
							"name": "amountInitiator",
							"type": "uint256"
						},
						{
							"indexed": false,
							"internalType": "uint256",
							"name": "amountCounterparty",
							"type": "uint256"
						},
						{
							"indexed": false,
							"internalType": "uint256",
							"name": "feeInitiator",
							"type": "uint256"
						},
						{
							"indexed": false,
							"internalType": "uint256",
							"name": "feeCounterparty",
							"type": "uint256"
						}
					],
					"name": "TransferToFromDeal",
					"type": "event"
				},
				{
					"anonymous": false,
					"inputs": [
						{
							"indexed": true,
							"internalType": "bytes32",
							"name": "id",
							"type": "bytes32"
						},
						{
							"indexed": true,
							"internalType": "address",
							"name": "initiator",
							"type": "address"
						},
						{
							"indexed": true,
							"internalType": "address",
							"name": "counterparty",
							"type": "address"
						},
						{
							"indexed": false,
							"internalType": "address",
							"name": "mediator",
							"type": "address"
						},
						{
							"indexed": false,
							"internalType": "address",
							"name": "sender",
							"type": "address"
						},
						{
							"indexed": false,
							"internalType": "uint256",
							"name": "amount",
							"type": "uint256"
						},
						{
							"indexed": false,
							"internalType": "uint256",
							"name": "fee",
							"type": "uint256"
						}
					],
					"name": "TransferToInitiator",
					"type": "event"
				},
				{
					"anonymous": false,
					"inputs": [
						{
							"indexed": true,
							"internalType": "address",
							"name": "user",
							"type": "address"
						},
						{
							"indexed": true,
							"internalType": "address",
							"name": "token",
							"type": "address"
						},
						{
							"indexed": false,
							"internalType": "uint256",
							"name": "amount",
							"type": "uint256"
						}
					],
					"name": "Withdrawal",
					"type": "event"
				},
				{
					"inputs": [
						{
							"internalType": "address",
							"name": "user",
							"type": "address"
						}
					],
					"name": "balanceOf",
					"outputs": [
						{
							"internalType": "uint256",
							"name": "",
							"type": "uint256"
						}
					],
					"stateMutability": "view",
					"type": "function"
				},
				{
					"inputs": [
						{
							"internalType": "address",
							"name": "user",
							"type": "address"
						},
						{
							"internalType": "address",
							"name": "token",
							"type": "address"
						}
					],
					"name": "balanceOf",
					"outputs": [
						{
							"internalType": "uint256",
							"name": "",
							"type": "uint256"
						}
					],
					"stateMutability": "view",
					"type": "function"
				},
				{
					"inputs": [
						{
							"internalType": "address",
							"name": "",
							"type": "address"
						},
						{
							"internalType": "address",
							"name": "",
							"type": "address"
						}
					],
					"name": "balances",
					"outputs": [
						{
							"internalType": "uint256",
							"name": "",
							"type": "uint256"
						}
					],
					"stateMutability": "view",
					"type": "function"
				},
				{
					"inputs": [],
					"name": "commissionRecipient",
					"outputs": [
						{
							"internalType": "address",
							"name": "",
							"type": "address"
						}
					],
					"stateMutability": "view",
					"type": "function"
				},
				{
					"inputs": [],
					"name": "contractEnabled",
					"outputs": [
						{
							"internalType": "bool",
							"name": "",
							"type": "bool"
						}
					],
					"stateMutability": "view",
					"type": "function"
				},
				{
					"inputs": [
						{
							"internalType": "bytes32",
							"name": "dealId",
							"type": "bytes32"
						}
					],
					"name": "counterpartyAcceptSidedDeal",
					"outputs": [
						{
							"internalType": "bool",
							"name": "",
							"type": "bool"
						}
					],
					"stateMutability": "nonpayable",
					"type": "function"
				},
				{
					"inputs": [
						{
							"internalType": "address payable",
							"name": "counterparty",
							"type": "address"
						},
						{
							"internalType": "address payable",
							"name": "mediator",
							"type": "address"
						},
						{
							"internalType": "uint256",
							"name": "amount",
							"type": "uint256"
						},
						{
							"internalType": "uint256",
							"name": "PRCMediatorFee",
							"type": "uint256"
						},
						{
							"internalType": "address",
							"name": "tokenAddress",
							"type": "address"
						},
						{
							"internalType": "uint256",
							"name": "expirationDate",
							"type": "uint256"
						},
						{
							"internalType": "enum MediatorAction",
							"name": "mediatorActionOnExpiration",
							"type": "uint8"
						}
					],
					"name": "createDeal",
					"outputs": [
						{
							"internalType": "bytes32",
							"name": "",
							"type": "bytes32"
						}
					],
					"stateMutability": "nonpayable",
					"type": "function"
				},
				{
					"inputs": [
						{
							"internalType": "address payable",
							"name": "counterparty",
							"type": "address"
						},
						{
							"internalType": "address payable",
							"name": "mediator",
							"type": "address"
						},
						{
							"internalType": "uint256",
							"name": "initiatorCreateAmount",
							"type": "uint256"
						},
						{
							"internalType": "uint256",
							"name": "counterpartyCreateAmount",
							"type": "uint256"
						},
						{
							"internalType": "uint256",
							"name": "PRCMediatorFeeInititor",
							"type": "uint256"
						},
						{
							"internalType": "uint256",
							"name": "PRCMediatorFeeCounterparty",
							"type": "uint256"
						},
						{
							"internalType": "address",
							"name": "initiatorTokenAddress",
							"type": "address"
						},
						{
							"internalType": "address",
							"name": "counterpartyTokenAddress",
							"type": "address"
						},
						{
							"internalType": "uint256",
							"name": "expirationDate",
							"type": "uint256"
						},
						{
							"internalType": "enum MediatorAction",
							"name": "mediatorActionOnExpiration",
							"type": "uint8"
						}
					],
					"name": "createSidedDeal",
					"outputs": [
						{
							"internalType": "bytes32",
							"name": "",
							"type": "bytes32"
						}
					],
					"stateMutability": "nonpayable",
					"type": "function"
				},
				{
					"inputs": [
						{
							"internalType": "bytes32",
							"name": "",
							"type": "bytes32"
						}
					],
					"name": "deals",
					"outputs": [
						{
							"internalType": "address payable",
							"name": "initiator",
							"type": "address"
						},
						{
							"internalType": "address payable",
							"name": "counterparty",
							"type": "address"
						},
						{
							"internalType": "address payable",
							"name": "mediator",
							"type": "address"
						},
						{
							"internalType": "bool",
							"name": "isCompleted",
							"type": "bool"
						},
						{
							"internalType": "bool",
							"name": "isCanceled",
							"type": "bool"
						},
						{
							"internalType": "bool",
							"name": "isTwoSided",
							"type": "bool"
						},
						{
							"internalType": "bool",
							"name": "isSignedByCounterparty",
							"type": "bool"
						},
						{
							"internalType": "uint256",
							"name": "initiatorCreateAmount",
							"type": "uint256"
						},
						{
							"internalType": "uint256",
							"name": "counterpartyCreateAmount",
							"type": "uint256"
						},
						{
							"internalType": "uint256",
							"name": "initiatorCurrentAmount",
							"type": "uint256"
						},
						{
							"internalType": "uint256",
							"name": "counterpartyCurrentAmount",
							"type": "uint256"
						},
						{
							"internalType": "uint256",
							"name": "PRC_InitatorMediatorFee",
							"type": "uint256"
						},
						{
							"internalType": "uint256",
							"name": "PRC_CounterpartyMediatorFee",
							"type": "uint256"
						},
						{
							"internalType": "address",
							"name": "initiatorTokenAddress",
							"type": "address"
						},
						{
							"internalType": "address",
							"name": "counterpartyTokenAddress",
							"type": "address"
						},
						{
							"internalType": "uint256",
							"name": "expirationDate",
							"type": "uint256"
						},
						{
							"internalType": "enum MediatorAction",
							"name": "mediatorActionOnExpiration",
							"type": "uint8"
						}
					],
					"stateMutability": "view",
					"type": "function"
				},
				{
					"inputs": [
						{
							"internalType": "address",
							"name": "token",
							"type": "address"
						},
						{
							"internalType": "uint256",
							"name": "amount",
							"type": "uint256"
						}
					],
					"name": "deposit",
					"outputs": [],
					"stateMutability": "payable",
					"type": "function"
				},
				{
					"inputs": [],
					"name": "depositCommissionPercent",
					"outputs": [
						{
							"internalType": "uint256",
							"name": "",
							"type": "uint256"
						}
					],
					"stateMutability": "view",
					"type": "function"
				},
				{
					"inputs": [],
					"name": "disableContract",
					"outputs": [],
					"stateMutability": "nonpayable",
					"type": "function"
				},
				{
					"inputs": [],
					"name": "enableContract",
					"outputs": [],
					"stateMutability": "nonpayable",
					"type": "function"
				},
				{
					"inputs": [
						{
							"internalType": "uint256",
							"name": "amount",
							"type": "uint256"
						}
					],
					"name": "getAmountToDepositViaComission",
					"outputs": [
						{
							"internalType": "uint256",
							"name": "",
							"type": "uint256"
						}
					],
					"stateMutability": "view",
					"type": "function"
				},
				{
					"inputs": [
						{
							"internalType": "bytes32",
							"name": "dealId",
							"type": "bytes32"
						}
					],
					"name": "getDeal",
					"outputs": [
						{
							"components": [
								{
									"internalType": "address payable",
									"name": "initiator",
									"type": "address"
								},
								{
									"internalType": "address payable",
									"name": "counterparty",
									"type": "address"
								},
								{
									"internalType": "address payable",
									"name": "mediator",
									"type": "address"
								},
								{
									"internalType": "bool",
									"name": "isCompleted",
									"type": "bool"
								},
								{
									"internalType": "bool",
									"name": "isCanceled",
									"type": "bool"
								},
								{
									"internalType": "bool",
									"name": "isTwoSided",
									"type": "bool"
								},
								{
									"internalType": "bool",
									"name": "isSignedByCounterparty",
									"type": "bool"
								},
								{
									"internalType": "uint256",
									"name": "initiatorCreateAmount",
									"type": "uint256"
								},
								{
									"internalType": "uint256",
									"name": "counterpartyCreateAmount",
									"type": "uint256"
								},
								{
									"internalType": "uint256",
									"name": "initiatorCurrentAmount",
									"type": "uint256"
								},
								{
									"internalType": "uint256",
									"name": "counterpartyCurrentAmount",
									"type": "uint256"
								},
								{
									"internalType": "uint256",
									"name": "PRC_InitatorMediatorFee",
									"type": "uint256"
								},
								{
									"internalType": "uint256",
									"name": "PRC_CounterpartyMediatorFee",
									"type": "uint256"
								},
								{
									"internalType": "address",
									"name": "initiatorTokenAddress",
									"type": "address"
								},
								{
									"internalType": "address",
									"name": "counterpartyTokenAddress",
									"type": "address"
								},
								{
									"internalType": "uint256",
									"name": "expirationDate",
									"type": "uint256"
								},
								{
									"internalType": "enum MediatorAction",
									"name": "mediatorActionOnExpiration",
									"type": "uint8"
								}
							],
							"internalType": "struct Deal",
							"name": "",
							"type": "tuple"
						}
					],
					"stateMutability": "view",
					"type": "function"
				},
				{
					"inputs": [],
					"name": "owner",
					"outputs": [
						{
							"internalType": "address",
							"name": "",
							"type": "address"
						}
					],
					"stateMutability": "view",
					"type": "function"
				},
				{
					"inputs": [
						{
							"internalType": "bytes32",
							"name": "dealId",
							"type": "bytes32"
						}
					],
					"name": "payUpCounterpartyAcceptSidedDeal",
					"outputs": [
						{
							"internalType": "bool",
							"name": "",
							"type": "bool"
						}
					],
					"stateMutability": "payable",
					"type": "function"
				},
				{
					"inputs": [
						{
							"internalType": "address payable",
							"name": "counterparty",
							"type": "address"
						},
						{
							"internalType": "address payable",
							"name": "mediator",
							"type": "address"
						},
						{
							"internalType": "uint256",
							"name": "amount",
							"type": "uint256"
						},
						{
							"internalType": "uint256",
							"name": "PRCMediatorFee",
							"type": "uint256"
						},
						{
							"internalType": "address",
							"name": "tokenAddress",
							"type": "address"
						},
						{
							"internalType": "uint256",
							"name": "expirationDate",
							"type": "uint256"
						},
						{
							"internalType": "enum MediatorAction",
							"name": "mediatorActionOnExpiration",
							"type": "uint8"
						}
					],
					"name": "payUpCreateDeal",
					"outputs": [
						{
							"internalType": "bytes32",
							"name": "",
							"type": "bytes32"
						}
					],
					"stateMutability": "payable",
					"type": "function"
				},
				{
					"inputs": [
						{
							"internalType": "address payable",
							"name": "counterparty",
							"type": "address"
						},
						{
							"internalType": "address payable",
							"name": "mediator",
							"type": "address"
						},
						{
							"internalType": "uint256",
							"name": "initiatorCreateAmount",
							"type": "uint256"
						},
						{
							"internalType": "uint256",
							"name": "counterpartyCreateAmount",
							"type": "uint256"
						},
						{
							"internalType": "uint256",
							"name": "PRCMediatorFeeInititor",
							"type": "uint256"
						},
						{
							"internalType": "uint256",
							"name": "PRCMediatorFeeCounterparty",
							"type": "uint256"
						},
						{
							"internalType": "address",
							"name": "initiatorTokenAddress",
							"type": "address"
						},
						{
							"internalType": "address",
							"name": "counterpartyTokenAddress",
							"type": "address"
						},
						{
							"internalType": "uint256",
							"name": "expirationDate",
							"type": "uint256"
						},
						{
							"internalType": "enum MediatorAction",
							"name": "mediatorActionOnExpiration",
							"type": "uint8"
						}
					],
					"name": "payUpCreateSidedDeal",
					"outputs": [
						{
							"internalType": "bytes32",
							"name": "",
							"type": "bytes32"
						}
					],
					"stateMutability": "payable",
					"type": "function"
				},
				{
					"inputs": [
						{
							"internalType": "bytes32",
							"name": "dealId",
							"type": "bytes32"
						}
					],
					"name": "rejectSidedDeal",
					"outputs": [
						{
							"internalType": "bool",
							"name": "",
							"type": "bool"
						}
					],
					"stateMutability": "nonpayable",
					"type": "function"
				},
				{
					"inputs": [
						{
							"internalType": "uint256",
							"name": "newCommissionPercent",
							"type": "uint256"
						},
						{
							"internalType": "address",
							"name": "newRecipient",
							"type": "address"
						}
					],
					"name": "setDepositCommission",
					"outputs": [],
					"stateMutability": "nonpayable",
					"type": "function"
				},
				{
					"inputs": [],
					"name": "totalCompletedDeals",
					"outputs": [
						{
							"internalType": "uint256",
							"name": "",
							"type": "uint256"
						}
					],
					"stateMutability": "view",
					"type": "function"
				},
				{
					"inputs": [],
					"name": "totalDeals",
					"outputs": [
						{
							"internalType": "uint256",
							"name": "",
							"type": "uint256"
						}
					],
					"stateMutability": "view",
					"type": "function"
				},
				{
					"inputs": [
						{
							"internalType": "address",
							"name": "to",
							"type": "address"
						},
						{
							"internalType": "address",
							"name": "token",
							"type": "address"
						},
						{
							"internalType": "uint256",
							"name": "amount",
							"type": "uint256"
						}
					],
					"name": "transfer",
					"outputs": [
						{
							"internalType": "bool",
							"name": "",
							"type": "bool"
						}
					],
					"stateMutability": "nonpayable",
					"type": "function"
				},
				{
					"inputs": [
						{
							"internalType": "address",
							"name": "newOwner",
							"type": "address"
						}
					],
					"name": "transferOwnership",
					"outputs": [],
					"stateMutability": "nonpayable",
					"type": "function"
				},
				{
					"inputs": [
						{
							"internalType": "address",
							"name": "token",
							"type": "address"
						},
						{
							"internalType": "uint256",
							"name": "amount",
							"type": "uint256"
						}
					],
					"name": "withdraw",
					"outputs": [
						{
							"internalType": "bool",
							"name": "",
							"type": "bool"
						}
					],
					"stateMutability": "nonpayable",
					"type": "function"
				},
				{
					"inputs": [
						{
							"internalType": "bytes32",
							"name": "dealId",
							"type": "bytes32"
						}
					],
					"name": "withdrawRejectSidedDeal",
					"outputs": [
						{
							"internalType": "bool",
							"name": "",
							"type": "bool"
						}
					],
					"stateMutability": "nonpayable",
					"type": "function"
				}
			],
			"devdoc": {
				"kind": "dev",
				"methods": {},
				"version": 1
			},
			"evm": {
				"assembly": "    /* \"DealCreationManager.sol\":121:11941  contract DealCreationManager is WalletContract {... */\n  0x80\n  jumpi(tag_7, callvalue)\n  0x1f\n  bytecodeSize\n  codesize\n  dup2\n  swap1\n  sub\n  swap2\n  dup3\n  add\n  not(0x1f)\n  and\n  dup4\n  add\n  swap2\n  sub(shl(0x40, 0x01), 0x01)\n  dup4\n  gt\n  dup5\n  dup5\n  lt\n  or\n  tag_3\n  jumpi\n  dup1\n  dup5\n  swap3\n  0x40\n  swap5\n  dup6\n  mstore\n  dup4\n  codecopy\n  dup2\n  add\n  sub\n  slt\n  tag_7\n  jumpi\n  dup1\n  mload\n  0x20\n  swap1\n  swap2\n  add\n  mload\n  sub(shl(0xa0, 0x01), 0x01)\n  dup2\n  and\n  swap2\n  swap1\n  dup3\n  swap1\n  sub\n  tag_7\n  jumpi\n  0x00\n  dup1\n  sload\n  not(sub(shl(0xa8, 0x01), 0x01))\n    /* \"Percent.sol\":156:161  SCALE */\n  and\n    /* \"LockableContract.sol\":766:776  msg.sender */\n  caller\n    /* \"Percent.sol\":156:161  SCALE */\n  or\n  shl(0xa0, 0x01)\n  or\n  dup1\n  dup3\n  sstore\n    /* \"DealCreationManager.sol\":121:11941  contract DealCreationManager is WalletContract {... */\n  mload(0x40)\n  swap2\n  sub(shl(0xa0, 0x01), 0x01)\n  swap1\n  swap2\n  and\n  swap1\n    /* \"LockableContract.sol\":834:874  OwnershipTransferred(address(0), _owner) */\n  0x8be0079c531659141344cd1fd0a4f28419497f9722a3daafe3b4186f6b6457e0\n  dup2\n  dup1\n  log3\n    /* \"WalletContract.sol\":1132:1166  _commissionRecipient != address(0) */\n  dup3\n  iszero\n    /* \"DealCreationManager.sol\":121:11941  contract DealCreationManager is WalletContract {... */\n  tag_9\n  jumpi\n    /* \"WalletContract.sol\":1292:1337  _depositCommissionPercent <= Percent.MAXVALUE */\n  pop\n    /* \"Percent.sol\":200:206  10**10 */\n  0x02540be400\n    /* \"WalletContract.sol\":1292:1337  _depositCommissionPercent <= Percent.MAXVALUE */\n  dup2\n  gt\n    /* \"Percent.sol\":156:161  SCALE */\n  tag_11\n  jumpi\n    /* \"WalletContract.sol\":1357:1409  depositCommissionPercent = _depositCommissionPercent */\n  0x02\n    /* \"DealCreationManager.sol\":121:11941  contract DealCreationManager is WalletContract {... */\n  sstore\n  0x01\n  dup1\n  0xa0\n  shl\n  sub\n    /* \"Percent.sol\":156:161  SCALE */\n  not\n    /* \"WalletContract.sol\":1420:1462  commissionRecipient = _commissionRecipient */\n  0x03\n    /* \"Percent.sol\":156:161  SCALE */\n  sload\n  and\n  or\n    /* \"WalletContract.sol\":1420:1462  commissionRecipient = _commissionRecipient */\n  0x03\n    /* \"Percent.sol\":156:161  SCALE */\n  sstore\n  0x00\n    /* \"DealCreationManager.sol\":283:284  0 */\n  0x05\n    /* \"DealCreationManager.sol\":121:11941  contract DealCreationManager is WalletContract {... */\n  sstore\n  0x00\n    /* \"DealCreationManager.sol\":359:360  0 */\n  0x06\n    /* \"DealCreationManager.sol\":121:11941  contract DealCreationManager is WalletContract {... */\n  sstore\n  mload(0x40)\n  dataSize(sub_0)\n  swap1\n  dup2\n  dataOffset(sub_0)\n  dup3\n  codecopy\n  return\n    /* \"Percent.sol\":156:161  SCALE */\ntag_11:\n    /* \"DealCreationManager.sol\":121:11941  contract DealCreationManager is WalletContract {... */\n  mload(0x40)\n  shl(0xe5, 0x461bcd)\n    /* \"Percent.sol\":156:161  SCALE */\n  dup2\n  mstore\n    /* \"DealCreationManager.sol\":121:11941  contract DealCreationManager is WalletContract {... */\n  0x20\n    /* \"Percent.sol\":156:161  SCALE */\n  0x04\n  dup3\n  add\n  mstore\n  0x02\n  0x24\n  dup3\n  add\n    /* \"DealCreationManager.sol\":121:11941  contract DealCreationManager is WalletContract {... */\n  mstore\n  shl(0xf0, 0x4335)\n  0x44\n  dup3\n  add\n    /* \"Percent.sol\":156:161  SCALE */\n  mstore\n  0x64\n  swap1\n  revert\n    /* \"DealCreationManager.sol\":121:11941  contract DealCreationManager is WalletContract {... */\ntag_9:\n  shl(0xe5, 0x461bcd)\n  dup2\n  mstore\n  0x20\n  0x04\n  dup3\n  add\n  mstore\n  0x02\n  0x24\n  dup3\n  add\n  mstore\n  shl(0xf0, 0x4331)\n  0x44\n  dup3\n  add\n  mstore\n  0x64\n  swap1\n  revert\ntag_7:\n  0x00\n  dup1\n  revert\ntag_3:\n  mstore(0x00, shl(0xe0, 0x4e487b71))\n  mstore(0x04, 0x41)\n  revert(0x00, 0x24)\nstop\n\nsub_0: assembly {\n        /* \"DealCreationManager.sol\":121:11941  contract DealCreationManager is WalletContract {... */\n      mstore(0x40, 0x80)\n      jumpi(tag_32, iszero(lt(calldatasize, 0x04)))\n      0x00\n      dup1\n      revert\n    tag_32:\n      shr(0xe0, calldataload(0x00))\n      dup1\n      0x7e8bd3\n      eq\n      tag_34\n      jumpi\n      dup1\n      0x06fd154a\n      eq\n      tag_36\n      jumpi\n      dup1\n      0x15f8a314\n      eq\n      tag_38\n      jumpi\n      dup1\n      0x17b52b50\n      eq\n      tag_40\n      jumpi\n      dup1\n      0x28d5a050\n      eq\n      tag_42\n      jumpi\n      dup1\n      0x367edd32\n      eq\n      tag_44\n      jumpi\n      dup1\n      0x39b3edb0\n      eq\n      tag_46\n      jumpi\n      dup1\n      0x4187129c\n      eq\n      tag_48\n      jumpi\n      dup1\n      0x41b3a0d9\n      eq\n      tag_50\n      jumpi\n      dup1\n      0x47e7ef24\n      eq\n      tag_52\n      jumpi\n      dup1\n      0x51a6fad5\n      eq\n      tag_54\n      jumpi\n      dup1\n      0x70a08231\n      eq\n      tag_56\n      jumpi\n      dup1\n      0x80ccb070\n      eq\n      tag_58\n      jumpi\n      dup1\n      0x81cd872a\n      eq\n      tag_60\n      jumpi\n      dup1\n      0x894ba833\n      eq\n      tag_62\n      jumpi\n      dup1\n      0x899a3ffd\n      eq\n      tag_64\n      jumpi\n      dup1\n      0x8da5cb5b\n      eq\n      tag_66\n      jumpi\n      dup1\n      0x8deea5fb\n      eq\n      tag_68\n      jumpi\n      dup1\n      0x966d1f1d\n      eq\n      tag_70\n      jumpi\n      dup1\n      0xbb06c1a4\n      eq\n      tag_72\n      jumpi\n      dup1\n      0xbeabacc8\n      eq\n      tag_74\n      jumpi\n      dup1\n      0xc23f001f\n      eq\n      tag_86\n      jumpi\n      dup1\n      0xcfadf6c7\n      eq\n      tag_78\n      jumpi\n      dup1\n      0xe08560a4\n      eq\n      tag_80\n      jumpi\n      dup1\n      0xf2fde38b\n      eq\n      tag_82\n      jumpi\n      dup1\n      0xf3fef3a3\n      eq\n      tag_84\n      jumpi\n      0xf7888aec\n      eq\n      tag_86\n      jumpi\n      0x00\n      dup1\n      revert\n    tag_86:\n      jumpi(tag_90, callvalue)\n      jumpi(tag_90, slt(add(not(0x03), calldatasize), 0x40))\n      tag_92\n      tag_2\n      jump\t// in\n    tag_92:\n      tag_93\n      tag_1\n      jump\t// in\n    tag_93:\n      sub(shl(0xa0, 0x01), 0x01)\n      swap2\n      dup3\n      and\n      0x00\n      swap1\n      dup2\n      mstore\n      0x01\n      0x20\n      swap1\n      dup2\n      mstore\n      0x40\n      dup1\n      dup4\n      keccak256\n      swap5\n      swap1\n      swap4\n      and\n      dup3\n      mstore\n      swap3\n      dup4\n      mstore\n      dup2\n      swap1\n      keccak256\n      sload\n      swap1\n      mload\n      swap1\n      dup2\n      mstore\n      return\n    tag_90:\n      0x00\n      dup1\n      revert\n    tag_84:\n      jumpi(tag_90, callvalue)\n      jumpi(tag_90, slt(add(not(0x03), calldatasize), 0x40))\n      0x20\n        /* \"WalletContract.sol\":3003:3052  withdrawFromContractTo(msg.sender, token, amount) */\n      tag_98\n        /* \"DealCreationManager.sol\":121:11941  contract DealCreationManager is WalletContract {... */\n      tag_99\n      tag_2\n      jump\t// in\n    tag_99:\n      calldataload(0x24)\n        /* \"WalletContract.sol\":2883:2893  msg.sender */\n      swap1\n      caller\n        /* \"DealCreationManager.sol\":121:11941  contract DealCreationManager is WalletContract {... */\n      0x00\n      mstore\n      0x01\n      dup5\n      mstore\n      keccak256(0x00, 0x40)\n      0x01\n      dup1\n      0xa0\n      shl\n      sub\n      dup3\n      and\n      0x00\n      mstore\n      dup5\n      mstore\n        /* \"WalletContract.sol\":2865:2918  require(balanceOf(msg.sender, token) >= amount, \"T1\") */\n      tag_100\n        /* \"DealCreationManager.sol\":121:11941  contract DealCreationManager is WalletContract {... */\n      dup3\n      sload(keccak256(0x00, 0x40))\n        /* \"WalletContract.sol\":2873:2911  balanceOf(msg.sender, token) >= amount */\n      lt\n      iszero\n        /* \"WalletContract.sol\":2865:2918  require(balanceOf(msg.sender, token) >= amount, \"T1\") */\n      tag_8\n      jump\t// in\n    tag_100:\n        /* \"WalletContract.sol\":2931:2975  removeBalanceFrom(msg.sender, token, amount) */\n      tag_101\n        /* \"WalletContract.sol\":2883:2893  msg.sender */\n      dup3\n      dup3\n      caller\n        /* \"WalletContract.sol\":2931:2975  removeBalanceFrom(msg.sender, token, amount) */\n      tag_29\n      jump\t// in\n    tag_101:\n      pop\n        /* \"WalletContract.sol\":2883:2893  msg.sender */\n      caller\n        /* \"WalletContract.sol\":3003:3052  withdrawFromContractTo(msg.sender, token, amount) */\n      tag_31\n      jump\t// in\n    tag_98:\n        /* \"DealCreationManager.sol\":121:11941  contract DealCreationManager is WalletContract {... */\n      mload(0x40)\n      swap1\n      iszero\n      iszero\n      dup2\n      mstore\n      return\n    tag_82:\n      jumpi(tag_90, callvalue)\n      jumpi(tag_90, slt(add(not(0x03), calldatasize), 0x20))\n      tag_106\n      tag_2\n      jump\t// in\n    tag_106:\n      sload(0x00)\n      sub(shl(0xa0, 0x01), 0x01)\n      dup2\n      and\n      swap2\n        /* \"LockableContract.sol\":474:509  require(msg.sender == _owner, \"L2\") */\n      tag_107\n        /* \"LockableContract.sol\":482:492  msg.sender */\n      caller\n        /* \"LockableContract.sol\":482:502  msg.sender == _owner */\n      dup5\n      eq\n        /* \"LockableContract.sol\":474:509  require(msg.sender == _owner, \"L2\") */\n      tag_18\n      jump\t// in\n    tag_107:\n      sub(shl(0xa0, 0x01), 0x01)\n        /* \"DealCreationManager.sol\":121:11941  contract DealCreationManager is WalletContract {... */\n      and\n      swap2\n        /* \"LockableContract.sol\":1193:1215  newOwner != address(0) */\n      dup3\n      iszero\n        /* \"DealCreationManager.sol\":121:11941  contract DealCreationManager is WalletContract {... */\n      tag_108\n      jumpi\n        /* \"LockableContract.sol\":1274:1312  OwnershipTransferred(_owner, newOwner) */\n      dup3\n      swap1\n      0x8be0079c531659141344cd1fd0a4f28419497f9722a3daafe3b4186f6b6457e0\n        /* \"DealCreationManager.sol\":121:11941  contract DealCreationManager is WalletContract {... */\n      0x00\n        /* \"LockableContract.sol\":1274:1312  OwnershipTransferred(_owner, newOwner) */\n      dup1\n      log3\n      not(sub(shl(0xa0, 0x01), 0x01))\n        /* \"DealCreationManager.sol\":121:11941  contract DealCreationManager is WalletContract {... */\n      and\n      or\n      0x00\n      sstore\n      stop\n    tag_108:\n      mload(0x40)\n      shl(0xe5, 0x461bcd)\n      dup2\n      mstore\n      0x20\n      0x04\n      dup3\n      add\n      mstore\n      0x26\n      0x24\n      dup3\n      add\n      mstore\n      0x4f776e61626c653a206e6577206f776e657220697320746865207a65726f2061\n      0x44\n      dup3\n      add\n      mstore\n      shl(0xd0, 0x646472657373)\n      0x64\n      dup3\n      add\n      mstore\n      0x84\n      swap1\n      revert\n    tag_80:\n      jumpi(tag_90, callvalue)\n      jumpi(tag_90, slt(add(not(0x03), calldatasize), 0x00))\n      0x20\n        /* \"DealCreationManager.sol\":322:360  uint256 public totalCompletedDeals = 0 */\n      0x06\n        /* \"DealCreationManager.sol\":121:11941  contract DealCreationManager is WalletContract {... */\n      sload\n      mload(0x40)\n      swap1\n      dup2\n      mstore\n      return\n    tag_78:\n      tag_114\n      calldatasize\n      tag_3\n      jump\t// in\n    tag_114:\n      swap2\n      swap1\n      swap5\n      swap9\n      swap6\n      swap4\n      swap8\n      swap7\n      swap3\n      and(shr(0xa0, sload(0x00)), 0xff)\n        /* \"LockableContract.sol\":630:660  require(contractEnabled, \"L1\") */\n      tag_115\n      dup2\n      tag_7\n      jump\t// in\n    tag_115:\n        /* \"DealCreationManager.sol\":6466:6476  msg.sender */\n      caller\n        /* \"DealCreationManager.sol\":121:11941  contract DealCreationManager is WalletContract {... */\n      0x00\n      mstore\n        /* \"WalletContract.sol\":3819:3827  balances */\n      0x01\n        /* \"DealCreationManager.sol\":121:11941  contract DealCreationManager is WalletContract {... */\n      0x20\n      mstore\n      keccak256(0x00, 0x40)\n      0x01\n      dup1\n      0xa0\n      shl\n      sub\n      dup4\n      and\n      0x00\n      mstore\n      0x20\n      mstore\n      sload(keccak256(0x00, 0x40))\n        /* \"DealCreationManager.sol\":6516:6547  balance < initiatorCreateAmount */\n      dup6\n      dup2\n      lt\n        /* \"DealCreationManager.sol\":6513:6689  if(balance < initiatorCreateAmount)... */\n      tag_116\n      jumpi\n        /* \"DealCreationManager.sol\":121:11941  contract DealCreationManager is WalletContract {... */\n    tag_117:\n        /* \"DealCreationManager.sol\":6466:6476  msg.sender */\n      pop\n      pop\n      swap5\n        /* \"DealCreationManager.sol\":6809:7225  DealContract.createDeal(... */\n      tag_118\n        /* \"DealCreationManager.sol\":6466:6476  msg.sender */\n      swap3\n      swap2\n      dup7\n        /* \"DealCreationManager.sol\":6701:6774  removeBalanceFrom(msg.sender,initiatorTokenAddress,initiatorCreateAmount) */\n      tag_119\n        /* \"DealCreationManager.sol\":6466:6476  msg.sender */\n      dup7\n        /* \"DealCreationManager.sol\":6809:7225  DealContract.createDeal(... */\n      0x0220\n        /* \"DealCreationManager.sol\":6466:6476  msg.sender */\n      swap10\n      caller\n        /* \"DealCreationManager.sol\":6701:6774  removeBalanceFrom(msg.sender,initiatorTokenAddress,initiatorCreateAmount) */\n      tag_29\n      jump\t// in\n    tag_119:\n      pop\n        /* \"DealCreationManager.sol\":6809:6821  DealContract */\n      linkerSymbol(\"69ea93bdf3b1e5da8164bfe3d9a878d76513f7578d5d6de42df0d798ffe42624\")\n        /* \"DealCreationManager.sol\":121:11941  contract DealCreationManager is WalletContract {... */\n      swap11\n      mload(0x40)\n      swap13\n      dup14\n      swap9\n      dup10\n      swap9\n      shl(0xe0, 0x652e83d7)\n        /* \"DealCreationManager.sol\":6809:7225  DealContract.createDeal(... */\n      dup11\n      mstore\n        /* \"DealCreationManager.sol\":6466:6476  msg.sender */\n      dup14\n      dup14\n      caller\n        /* \"DealCreationManager.sol\":121:11941  contract DealCreationManager is WalletContract {... */\n      0x04\n        /* \"DealCreationManager.sol\":6809:7225  DealContract.createDeal(... */\n      dup14\n      add\n      tag_14\n      jump\t// in\n    tag_118:\n      sub\n      dup2\n      dup7\n      gas\n      delegatecall\n      swap4\n      dup5\n      iszero\n      tag_125\n      jumpi\n        /* \"DealCreationManager.sol\":121:11941  contract DealCreationManager is WalletContract {... */\n      0x00\n        /* \"DealCreationManager.sol\":6809:7225  DealContract.createDeal(... */\n      swap5\n      tag_122\n      jumpi\n        /* \"DealCreationManager.sol\":121:11941  contract DealCreationManager is WalletContract {... */\n    tag_123:\n      pop\n      0x20\n        /* \"DealCreationManager.sol\":7324:7334  totalDeals */\n      0x05\n        /* \"DealCreationManager.sol\":121:11941  contract DealCreationManager is WalletContract {... */\n      sload\n        /* \"DealCreationManager.sol\":7290:7335  DealContract.createDealId(newDeal,totalDeals) */\n      0x0244\n        /* \"DealCreationManager.sol\":121:11941  contract DealCreationManager is WalletContract {... */\n      mload(0x40)\n      dup1\n      swap7\n      dup2\n      swap4\n      shl(0xe0, 0x797d4ee1)\n        /* \"DealCreationManager.sol\":7290:7335  DealContract.createDealId(newDeal,totalDeals) */\n      dup4\n      mstore\n        /* \"DealCreationManager.sol\":121:11941  contract DealCreationManager is WalletContract {... */\n      tag_124\n      0x04\n        /* \"DealCreationManager.sol\":7290:7335  DealContract.createDealId(newDeal,totalDeals) */\n      dup5\n      add\n        /* \"DealCreationManager.sol\":121:11941  contract DealCreationManager is WalletContract {... */\n      dup12\n      tag_6\n      jump\t// in\n    tag_124:\n      0x0224\n      dup4\n      add\n      mstore\n        /* \"DealCreationManager.sol\":7290:7335  DealContract.createDealId(newDeal,totalDeals) */\n      gas\n      delegatecall\n      swap3\n      dup4\n      iszero\n      tag_125\n      jumpi\n        /* \"DealCreationManager.sol\":121:11941  contract DealCreationManager is WalletContract {... */\n      0x00\n        /* \"DealCreationManager.sol\":7290:7335  DealContract.createDealId(newDeal,totalDeals) */\n      swap4\n      tag_127\n      jumpi\n        /* \"DealCreationManager.sol\":121:11941  contract DealCreationManager is WalletContract {... */\n    tag_128:\n      pop\n        /* \"DealCreationManager.sol\":7346:7358  totalDeals++ */\n      tag_129\n        /* \"DealCreationManager.sol\":7324:7334  totalDeals */\n      0x05\n        /* \"DealCreationManager.sol\":121:11941  contract DealCreationManager is WalletContract {... */\n      sload\n        /* \"DealCreationManager.sol\":7346:7358  totalDeals++ */\n      tag_15\n      jump\t// in\n    tag_129:\n        /* \"DealCreationManager.sol\":7324:7334  totalDeals */\n      0x05\n        /* \"DealCreationManager.sol\":121:11941  contract DealCreationManager is WalletContract {... */\n      sstore\n      0x00\n      dup4\n      dup2\n      mstore\n      0x04\n      0x20\n      swap1\n      dup2\n      mstore\n      0x40\n      swap2\n      dup3\n      swap1\n      keccak256\n      dup7\n      mload\n      dup2\n      sload\n      sub(shl(0xa0, 0x01), 0x01)\n      swap2\n      dup3\n      and\n      not(sub(shl(0xa0, 0x01), 0x01))\n      swap2\n      dup3\n      and\n      or\n      dup4\n      sstore\n      swap3\n      dup9\n      add\n      mload\n      0x01\n      dup4\n      add\n      dup1\n      sload\n      swap2\n      dup4\n      and\n      swap2\n      swap1\n      swap5\n      and\n      or\n      swap1\n      swap3\n      sstore\n      swap2\n      dup7\n      add\n      mload\n      0x02\n      dup4\n      add\n      dup1\n      sload\n      0x60\n      dup10\n      add\n      mload\n      shl(0xa0, 0xff)\n      swap1\n      iszero\n      iszero\n      0xa0\n      shl\n      and\n      swap3\n      swap1\n      swap4\n      and\n      not(sub(shl(0xa8, 0x01), 0x01))\n      swap1\n      swap4\n      and\n      swap3\n      swap1\n      swap3\n      or\n      or\n      dup2\n      sstore\n      0x0200\n      swap2\n      0x0c\n      swap2\n      tag_130\n      swap1\n    tag_131:\n      0x80\n      dup10\n      add\n      mload\n      dup2\n      sload\n      0xa0\n      dup12\n      add\n      mload\n      0xc0\n      dup13\n      add\n      mload\n      not(shl(0xa8, 0xffffff))\n      swap1\n      swap3\n      and\n      swap3\n      iszero\n      iszero\n      0xa8\n      shl\n      shl(0xa8, 0xff)\n      and\n      swap3\n      swap1\n      swap3\n      or\n      swap2\n      iszero\n      iszero\n      0xb0\n      shl\n      shl(0xb0, 0xff)\n      and\n      swap2\n      swap1\n      swap2\n      or\n      swap1\n      iszero\n      iszero\n      0xb8\n      shl\n      shl(0xb8, 0xff)\n      and\n      or\n      swap1\n      sstore\n      jump\n    tag_130:\n      0xe0\n      dup8\n      add\n      mload\n      0x03\n      dup3\n      add\n      sstore\n      0x0100\n      dup8\n      add\n      mload\n      0x04\n      dup3\n      add\n      sstore\n      0x0120\n      dup8\n      add\n      mload\n        /* \"DealCreationManager.sol\":7324:7334  totalDeals */\n      0x05\n        /* \"DealCreationManager.sol\":121:11941  contract DealCreationManager is WalletContract {... */\n      dup3\n      add\n      sstore\n      0x0140\n      dup8\n      add\n      mload\n      0x06\n      dup1\n      dup4\n      add\n      swap2\n      swap1\n      swap2\n      sstore\n      0x0160\n      dup9\n      add\n      mload\n      0x07\n      dup4\n      add\n      sstore\n      0x0180\n      dup9\n      add\n      mload\n      0x08\n      dup4\n      add\n      sstore\n      0x01a0\n      dup9\n      add\n      mload\n      0x09\n      dup4\n      add\n      dup1\n      sload\n      sub(shl(0xa0, 0x01), 0x01)\n      swap3\n      dup4\n      and\n      not(sub(shl(0xa0, 0x01), 0x01))\n      swap2\n      dup3\n      and\n      or\n      swap1\n      swap2\n      sstore\n      0x01c0\n      dup11\n      add\n      mload\n      0x0a\n      dup6\n      add\n      dup1\n      sload\n      swap2\n      swap1\n      swap4\n      and\n      swap2\n      and\n      or\n      swap1\n      sstore\n      0x01e0\n      dup9\n      add\n      mload\n      0x0b\n      dup4\n      add\n      sstore\n      swap3\n      swap1\n      swap7\n      add\n      mload\n      swap6\n      add\n      swap1\n      dup6\n      lt\n      iszero\n      tag_132\n      jumpi\n      0x20\n      swap5\n      0xff\n      dup1\n      not\n      dup4\n      sload\n      and\n      swap2\n      and\n      or\n      swap1\n      sstore\n      mload(0x40)\n      swap2\n      0x01\n      dup1\n      0xa0\n      shl\n      sub\n      and\n      dup3\n      mstore\n      0x01\n      dup1\n      0xa0\n      shl\n      sub\n      and\n        /* \"DealCreationManager.sol\":6466:6476  msg.sender */\n      swap1\n      dup3\n        /* \"DealCreationManager.sol\":7438:7500  DealRequestCreated(dealId, msg.sender, counterparty, mediator) */\n      0x44e1ff8e67fad6b456bd43ff165ba4e9bb004370aa27a76881c6acb60dfd6dd9\n        /* \"DealCreationManager.sol\":6466:6476  msg.sender */\n      dup6\n      caller\n        /* \"DealCreationManager.sol\":7438:7500  DealRequestCreated(dealId, msg.sender, counterparty, mediator) */\n      swap4\n      log4\n        /* \"DealCreationManager.sol\":121:11941  contract DealCreationManager is WalletContract {... */\n      mload(0x40)\n      swap1\n      dup2\n      mstore\n      return\n    tag_132:\n      mstore(0x00, shl(0xe0, 0x4e487b71))\n      mstore(0x04, 0x21)\n      revert(0x00, 0x24)\n        /* \"DealCreationManager.sol\":7290:7335  DealContract.createDealId(newDeal,totalDeals) */\n    tag_127:\n      swap1\n      swap3\n      pop\n        /* \"DealCreationManager.sol\":121:11941  contract DealCreationManager is WalletContract {... */\n      0x20\n        /* \"DealCreationManager.sol\":7290:7335  DealContract.createDealId(newDeal,totalDeals) */\n      dup2\n      returndatasize\n        /* \"DealCreationManager.sol\":121:11941  contract DealCreationManager is WalletContract {... */\n      0x20\n        /* \"DealCreationManager.sol\":7290:7335  DealContract.createDealId(newDeal,totalDeals) */\n      gt\n      tag_134\n      jumpi\n    tag_135:\n      dup2\n      tag_136\n        /* \"DealCreationManager.sol\":121:11941  contract DealCreationManager is WalletContract {... */\n      0x20\n        /* \"DealCreationManager.sol\":7290:7335  DealContract.createDealId(newDeal,totalDeals) */\n      swap4\n      dup4\n      tag_10\n      jump\t// in\n    tag_136:\n      dup2\n      add\n        /* \"DealCreationManager.sol\":121:11941  contract DealCreationManager is WalletContract {... */\n      sub\n      slt\n      tag_90\n      jumpi\n      mload\n        /* \"DealCreationManager.sol\":7290:7335  DealContract.createDealId(newDeal,totalDeals) */\n      swap2\n      dup5\n      jump(tag_128)\n    tag_134:\n      returndatasize\n      swap2\n      pop\n      jump(tag_135)\n    tag_125:\n        /* \"DealCreationManager.sol\":121:11941  contract DealCreationManager is WalletContract {... */\n      mload(0x40)\n      returndatasize\n      0x00\n      dup3\n      returndatacopy\n      returndatasize\n      swap1\n      revert\n        /* \"DealCreationManager.sol\":6809:7225  DealContract.createDeal(... */\n    tag_122:\n      tag_139\n      swap2\n      swap5\n      pop\n      0x0220\n      returndatasize\n      dup2\n      gt\n      tag_140\n      jumpi\n    tag_141:\n      tag_142\n      dup2\n      dup4\n      tag_10\n      jump\t// in\n    tag_142:\n      dup2\n      add\n      swap1\n      tag_13\n      jump\t// in\n    tag_139:\n      swap3\n      dup5\n      jump(tag_123)\n    tag_140:\n      pop\n      returndatasize\n      jump(tag_141)\n        /* \"DealCreationManager.sol\":6513:6689  if(balance < initiatorCreateAmount)... */\n    tag_116:\n        /* \"DealCreationManager.sol\":6604:6635  initiatorCreateAmount - balance */\n      tag_143\n        /* \"LockableContract.sol\":630:660  require(contractEnabled, \"L1\") */\n      tag_144\n        /* \"DealCreationManager.sol\":6604:6635  initiatorCreateAmount - balance */\n      swap2\n      dup8\n      swap10\n      swap5\n      swap7\n      swap6\n      swap4\n      swap10\n      tag_21\n      jump\t// in\n    tag_143:\n        /* \"LockableContract.sol\":630:660  require(contractEnabled, \"L1\") */\n      swap8\n      tag_7\n      jump\t// in\n    tag_144:\n        /* \"WalletContract.sol\":1831:1856  require(amount > 0, \"C5\") */\n      tag_145\n        /* \"WalletContract.sol\":1839:1849  amount > 0 */\n      dup8\n      iszero\n      iszero\n        /* \"WalletContract.sol\":1831:1856  require(amount > 0, \"C5\") */\n      tag_19\n      jump\t// in\n    tag_145:\n        /* \"WalletContract.sol\":1953:1977  depositCommissionPercent */\n      0x02\n        /* \"DealCreationManager.sol\":121:11941  contract DealCreationManager is WalletContract {... */\n      sload\n      swap4\n      mload(0x40)\n      swap5\n      shl(0xe0, 0x1c8f0847)\n        /* \"WalletContract.sol\":1923:1978  Percent.applyToNumber(amount, depositCommissionPercent) */\n      dup7\n      mstore\n      dup9\n        /* \"DealCreationManager.sol\":121:11941  contract DealCreationManager is WalletContract {... */\n      0x04\n        /* \"WalletContract.sol\":1923:1978  Percent.applyToNumber(amount, depositCommissionPercent) */\n      dup8\n      add\n        /* \"DealCreationManager.sol\":121:11941  contract DealCreationManager is WalletContract {... */\n      mstore\n      0x24\n      dup7\n      add\n      mstore\n      0x20\n        /* \"WalletContract.sol\":1923:1930  Percent */\n      dup6\n        /* \"WalletContract.sol\":1923:1978  Percent.applyToNumber(amount, depositCommissionPercent) */\n      0x44\n        /* \"WalletContract.sol\":1923:1930  Percent */\n      dup2\n      linkerSymbol(\"8537b7efa173772577da826929141ce9397d1aa5c05ce45dab4f7ac968e3002d\")\n        /* \"WalletContract.sol\":1923:1978  Percent.applyToNumber(amount, depositCommissionPercent) */\n      gas\n      delegatecall\n      swap5\n      dup6\n      iszero\n      tag_125\n      jumpi\n        /* \"DealCreationManager.sol\":121:11941  contract DealCreationManager is WalletContract {... */\n      0x00\n        /* \"WalletContract.sol\":1923:1978  Percent.applyToNumber(amount, depositCommissionPercent) */\n      swap6\n      tag_148\n      jumpi\n        /* \"DealCreationManager.sol\":6513:6689  if(balance < initiatorCreateAmount)... */\n    tag_149:\n      pop\n      sub(shl(0xa0, 0x01), 0x01)\n        /* \"DealCreationManager.sol\":121:11941  contract DealCreationManager is WalletContract {... */\n      dup2\n      and\n        /* \"WalletContract.sol\":2079:2098  token == address(0) */\n      dup1\n        /* \"DealCreationManager.sol\":121:11941  contract DealCreationManager is WalletContract {... */\n      tag_150\n      jumpi\n        /* \"WalletContract.sol\":2236:2255  amount + commission */\n      tag_152\n      dup7\n      dup11\n      tag_22\n      jump\t// in\n    tag_152:\n        /* \"WalletContract.sol\":2223:2232  msg.value */\n      callvalue\n        /* \"WalletContract.sol\":2223:2255  msg.value == amount + commission */\n      sub\n        /* \"DealCreationManager.sol\":121:11941  contract DealCreationManager is WalletContract {... */\n      tag_153\n      jumpi\n        /* \"DealCreationManager.sol\":6466:6476  msg.sender */\n      dup9\n        /* \"DealCreationManager.sol\":6809:7225  DealContract.createDeal(... */\n      tag_118\n        /* \"DealCreationManager.sol\":6466:6476  msg.sender */\n      swap7\n        /* \"WalletContract.sol\":2279:2318  addBalanceTo(msg.sender, token, amount) */\n      tag_155\n        /* \"DealCreationManager.sol\":6809:7225  DealContract.createDeal(... */\n      0x0220\n        /* \"DealCreationManager.sol\":6466:6476  msg.sender */\n      swap12\n      dup6\n      caller\n        /* \"WalletContract.sol\":2279:2318  addBalanceTo(msg.sender, token, amount) */\n      tag_30\n      jump\t// in\n    tag_155:\n      pop\n        /* \"WalletContract.sol\":2346:2365  commissionRecipient */\n      0x03\n        /* \"DealCreationManager.sol\":121:11941  contract DealCreationManager is WalletContract {... */\n      sload\n        /* \"WalletContract.sol\":2333:2384  addBalanceTo(commissionRecipient,token, commission) */\n      tag_156\n      swap1\n        /* \"DealCreationManager.sol\":121:11941  contract DealCreationManager is WalletContract {... */\n      dup3\n      swap1\n      dup7\n      swap1\n      sub(shl(0xa0, 0x01), 0x01)\n      and\n        /* \"WalletContract.sol\":2333:2384  addBalanceTo(commissionRecipient,token, commission) */\n      tag_30\n      jump\t// in\n    tag_156:\n      pop\n        /* \"WalletContract.sol\":2075:2639  if (token == address(0)) {... */\n    tag_157:\n        /* \"DealCreationManager.sol\":121:11941  contract DealCreationManager is WalletContract {... */\n      mload(0x40)\n      swap2\n      dup3\n      mstore\n      0x20\n      dup3\n      add\n      mstore\n      0x00\n      dup1\n      mload\n      0x20\n      data_f153f45295e6c417ef2e31903186ee1a5d0c2546461fb67769dfe29ae5912c6f\n      dup4\n      codecopy\n      dup2\n      mload\n      swap2\n      mstore\n      0x40\n        /* \"DealCreationManager.sol\":6466:6476  msg.sender */\n      caller\n        /* \"WalletContract.sol\":2656:2701  Deposit(msg.sender, token,amount, commission) */\n      swap3\n      log3\n        /* \"DealCreationManager.sol\":6513:6689  if(balance < initiatorCreateAmount)... */\n      swap2\n      swap7\n      dup2\n      swap4\n      swap5\n      pop\n      jump(tag_117)\n        /* \"DealCreationManager.sol\":121:11941  contract DealCreationManager is WalletContract {... */\n    tag_153:\n      mload(0x40)\n      shl(0xe5, 0x461bcd)\n      dup2\n      mstore\n      0x20\n      0x04\n      dup3\n      add\n      mstore\n        /* \"WalletContract.sol\":1953:1977  depositCommissionPercent */\n      0x02\n        /* \"DealCreationManager.sol\":121:11941  contract DealCreationManager is WalletContract {... */\n      0x24\n      dup3\n      add\n      mstore\n      shl(0xf2, 0x10cd)\n        /* \"WalletContract.sol\":1923:1978  Percent.applyToNumber(amount, depositCommissionPercent) */\n      0x44\n        /* \"DealCreationManager.sol\":121:11941  contract DealCreationManager is WalletContract {... */\n      dup3\n      add\n      mstore\n      0x64\n      swap1\n      revert\n        /* \"WalletContract.sol\":2075:2639  if (token == address(0)) {... */\n    tag_150:\n        /* \"WalletContract.sol\":2478:2497  amount + commission */\n      tag_158\n      dup7\n      dup11\n      tag_22\n      jump\t// in\n    tag_158:\n        /* \"DealCreationManager.sol\":121:11941  contract DealCreationManager is WalletContract {... */\n      mload(0x40)\n      swap1\n      shl(0xe0, 0x23b872dd)\n        /* \"WalletContract.sol\":2425:2498  NET20(token).transferFrom(msg.sender, address(this), amount + commission) */\n      dup3\n      mstore\n        /* \"DealCreationManager.sol\":6466:6476  msg.sender */\n      caller\n        /* \"DealCreationManager.sol\":121:11941  contract DealCreationManager is WalletContract {... */\n      0x04\n        /* \"WalletContract.sol\":2425:2498  NET20(token).transferFrom(msg.sender, address(this), amount + commission) */\n      dup4\n      add\n        /* \"DealCreationManager.sol\":121:11941  contract DealCreationManager is WalletContract {... */\n      mstore\n        /* \"WalletContract.sol\":2471:2475  this */\n      address\n        /* \"DealCreationManager.sol\":121:11941  contract DealCreationManager is WalletContract {... */\n      0x24\n      dup4\n      add\n      mstore\n        /* \"WalletContract.sol\":1923:1978  Percent.applyToNumber(amount, depositCommissionPercent) */\n      0x44\n        /* \"DealCreationManager.sol\":121:11941  contract DealCreationManager is WalletContract {... */\n      dup3\n      add\n      mstore\n      0x20\n        /* \"WalletContract.sol\":2425:2498  NET20(token).transferFrom(msg.sender, address(this), amount + commission) */\n      dup2\n      0x64\n      dup2\n        /* \"DealCreationManager.sol\":121:11941  contract DealCreationManager is WalletContract {... */\n      0x00\n        /* \"WalletContract.sol\":2425:2498  NET20(token).transferFrom(msg.sender, address(this), amount + commission) */\n      dup7\n      gas\n      call\n      swap1\n      dup2\n      iszero\n      tag_125\n      jumpi\n        /* \"DealCreationManager.sol\":121:11941  contract DealCreationManager is WalletContract {... */\n      0x00\n        /* \"WalletContract.sol\":2425:2498  NET20(token).transferFrom(msg.sender, address(this), amount + commission) */\n      swap2\n      tag_161\n      jumpi\n        /* \"WalletContract.sol\":2075:2639  if (token == address(0)) {... */\n    tag_162:\n        /* \"DealCreationManager.sol\":121:11941  contract DealCreationManager is WalletContract {... */\n      pop\n      iszero\n      tag_163\n      jumpi\n        /* \"DealCreationManager.sol\":6466:6476  msg.sender */\n      dup9\n        /* \"DealCreationManager.sol\":6809:7225  DealContract.createDeal(... */\n      tag_118\n        /* \"DealCreationManager.sol\":6466:6476  msg.sender */\n      swap7\n        /* \"WalletContract.sol\":2522:2561  addBalanceTo(msg.sender, token, amount) */\n      tag_165\n        /* \"DealCreationManager.sol\":6809:7225  DealContract.createDeal(... */\n      0x0220\n        /* \"DealCreationManager.sol\":6466:6476  msg.sender */\n      swap12\n      dup6\n      caller\n        /* \"WalletContract.sol\":2522:2561  addBalanceTo(msg.sender, token, amount) */\n      tag_30\n      jump\t// in\n    tag_165:\n      pop\n        /* \"WalletContract.sol\":2589:2608  commissionRecipient */\n      0x03\n        /* \"DealCreationManager.sol\":121:11941  contract DealCreationManager is WalletContract {... */\n      sload\n        /* \"WalletContract.sol\":2576:2627  addBalanceTo(commissionRecipient,token, commission) */\n      tag_166\n      swap1\n        /* \"DealCreationManager.sol\":121:11941  contract DealCreationManager is WalletContract {... */\n      dup3\n      swap1\n      dup7\n      swap1\n      sub(shl(0xa0, 0x01), 0x01)\n      and\n        /* \"WalletContract.sol\":2576:2627  addBalanceTo(commissionRecipient,token, commission) */\n      tag_30\n      jump\t// in\n    tag_166:\n      pop\n        /* \"WalletContract.sol\":2075:2639  if (token == address(0)) {... */\n      jump(tag_157)\n        /* \"DealCreationManager.sol\":121:11941  contract DealCreationManager is WalletContract {... */\n    tag_163:\n      mload(0x40)\n      shl(0xe5, 0x461bcd)\n      dup2\n      mstore\n      0x20\n      0x04\n      dup3\n      add\n      mstore\n        /* \"WalletContract.sol\":1953:1977  depositCommissionPercent */\n      0x02\n        /* \"DealCreationManager.sol\":121:11941  contract DealCreationManager is WalletContract {... */\n      0x24\n      dup3\n      add\n      mstore\n      shl(0xf1, 0x2a19)\n        /* \"WalletContract.sol\":1923:1978  Percent.applyToNumber(amount, depositCommissionPercent) */\n      0x44\n        /* \"DealCreationManager.sol\":121:11941  contract DealCreationManager is WalletContract {... */\n      dup3\n      add\n      mstore\n        /* \"WalletContract.sol\":2425:2498  NET20(token).transferFrom(msg.sender, address(this), amount + commission) */\n      0x64\n      swap1\n        /* \"DealCreationManager.sol\":121:11941  contract DealCreationManager is WalletContract {... */\n      revert\n        /* \"WalletContract.sol\":2425:2498  NET20(token).transferFrom(msg.sender, address(this), amount + commission) */\n    tag_161:\n      swap1\n      pop\n        /* \"DealCreationManager.sol\":121:11941  contract DealCreationManager is WalletContract {... */\n      0x20\n        /* \"WalletContract.sol\":2425:2498  NET20(token).transferFrom(msg.sender, address(this), amount + commission) */\n      dup2\n      returndatasize\n        /* \"DealCreationManager.sol\":121:11941  contract DealCreationManager is WalletContract {... */\n      0x20\n        /* \"WalletContract.sol\":2425:2498  NET20(token).transferFrom(msg.sender, address(this), amount + commission) */\n      gt\n      tag_167\n      jumpi\n    tag_168:\n      dup2\n      tag_169\n        /* \"DealCreationManager.sol\":121:11941  contract DealCreationManager is WalletContract {... */\n      0x20\n        /* \"WalletContract.sol\":2425:2498  NET20(token).transferFrom(msg.sender, address(this), amount + commission) */\n      swap4\n      dup4\n      tag_10\n      jump\t// in\n    tag_169:\n      dup2\n      add\n        /* \"DealCreationManager.sol\":121:11941  contract DealCreationManager is WalletContract {... */\n      sub\n      slt\n      tag_90\n      jumpi\n      tag_172\n      swap1\n      tag_12\n      jump\t// in\n    tag_172:\n        /* \"WalletContract.sol\":2425:2498  NET20(token).transferFrom(msg.sender, address(this), amount + commission) */\n      dup15\n      jump(tag_162)\n    tag_167:\n      returndatasize\n      swap2\n      pop\n      jump(tag_168)\n        /* \"WalletContract.sol\":1923:1978  Percent.applyToNumber(amount, depositCommissionPercent) */\n    tag_148:\n      swap1\n      swap5\n      pop\n        /* \"DealCreationManager.sol\":121:11941  contract DealCreationManager is WalletContract {... */\n      0x20\n        /* \"WalletContract.sol\":1923:1978  Percent.applyToNumber(amount, depositCommissionPercent) */\n      dup2\n      returndatasize\n        /* \"DealCreationManager.sol\":121:11941  contract DealCreationManager is WalletContract {... */\n      0x20\n        /* \"WalletContract.sol\":1923:1978  Percent.applyToNumber(amount, depositCommissionPercent) */\n      gt\n      tag_173\n      jumpi\n    tag_174:\n      dup2\n      tag_175\n        /* \"DealCreationManager.sol\":121:11941  contract DealCreationManager is WalletContract {... */\n      0x20\n        /* \"WalletContract.sol\":1923:1978  Percent.applyToNumber(amount, depositCommissionPercent) */\n      swap4\n      dup4\n      tag_10\n      jump\t// in\n    tag_175:\n      dup2\n      add\n        /* \"DealCreationManager.sol\":121:11941  contract DealCreationManager is WalletContract {... */\n      sub\n      slt\n      tag_90\n      jumpi\n      mload\n        /* \"WalletContract.sol\":1923:1978  Percent.applyToNumber(amount, depositCommissionPercent) */\n      swap4\n      dup13\n      jump(tag_149)\n    tag_173:\n      returndatasize\n      swap2\n      pop\n      jump(tag_174)\n        /* \"DealCreationManager.sol\":121:11941  contract DealCreationManager is WalletContract {... */\n    tag_74:\n      jumpi(tag_90, callvalue)\n      jumpi(tag_90, slt(add(not(0x03), calldatasize), 0x60))\n      tag_188\n      tag_2\n      jump\t// in\n    tag_188:\n      tag_189\n      tag_1\n      jump\t// in\n    tag_189:\n      calldataload(0x44)\n        /* \"WalletContract.sol\":3220:3230  msg.sender */\n      swap2\n      caller\n        /* \"DealCreationManager.sol\":121:11941  contract DealCreationManager is WalletContract {... */\n      0x00\n      mstore\n      mstore(0x20, 0x01)\n      keccak256(0x00, 0x40)\n      0x01\n      dup1\n      0xa0\n      shl\n      sub\n      dup4\n      and\n      0x00\n      mstore\n      0x20\n      mstore\n        /* \"WalletContract.sol\":3202:3255  require(balanceOf(msg.sender, token) >= amount, \"T1\") */\n      tag_190\n        /* \"DealCreationManager.sol\":121:11941  contract DealCreationManager is WalletContract {... */\n      dup4\n      sload(keccak256(0x00, 0x40))\n        /* \"WalletContract.sol\":3210:3248  balanceOf(msg.sender, token) >= amount */\n      lt\n      iszero\n        /* \"WalletContract.sol\":3202:3255  require(balanceOf(msg.sender, token) >= amount, \"T1\") */\n      tag_8\n      jump\t// in\n    tag_190:\n        /* \"WalletContract.sol\":3220:3230  msg.sender */\n      caller\n        /* \"DealCreationManager.sol\":121:11941  contract DealCreationManager is WalletContract {... */\n      0x00\n      mstore\n      mstore(0x20, 0x01)\n      keccak256(0x00, 0x40)\n      0x01\n      dup1\n      0xa0\n      shl\n      sub\n      dup4\n      and\n      0x00\n      mstore\n      0x20\n      mstore\n      keccak256(0x00, 0x40)\n        /* \"WalletContract.sol\":3306:3337  balances[from][token] -= amount */\n      tag_191\n        /* \"DealCreationManager.sol\":121:11941  contract DealCreationManager is WalletContract {... */\n      dup5\n      dup3\n      sload\n        /* \"WalletContract.sol\":3306:3337  balances[from][token] -= amount */\n      tag_21\n      jump\t// in\n    tag_191:\n        /* \"DealCreationManager.sol\":121:11941  contract DealCreationManager is WalletContract {... */\n      swap1\n      sstore\n      0x01\n      dup1\n      0xa0\n      shl\n      sub\n      and\n      swap1\n      dup2\n      0x00\n      mstore\n      mstore(0x20, 0x01)\n      keccak256(0x00, 0x40)\n      0x01\n      dup1\n      0xa0\n      shl\n      sub\n      dup3\n      and\n      0x00\n      mstore\n      0x20\n      mstore\n      keccak256(0x00, 0x40)\n        /* \"WalletContract.sol\":3348:3377  balances[to][token] += amount */\n      tag_192\n        /* \"DealCreationManager.sol\":121:11941  contract DealCreationManager is WalletContract {... */\n      dup5\n      dup3\n      sload\n        /* \"WalletContract.sol\":3348:3377  balances[to][token] += amount */\n      tag_22\n      jump\t// in\n    tag_192:\n        /* \"DealCreationManager.sol\":121:11941  contract DealCreationManager is WalletContract {... */\n      swap1\n      sstore\n      mload(0x40)\n      swap3\n      dup4\n      mstore\n      sub(shl(0xa0, 0x01), 0x01)\n      and\n      swap2\n        /* \"WalletContract.sol\":3220:3230  msg.sender */\n      caller\n      swap1\n        /* \"WalletContract.sol\":3395:3427  Transfer(from, to,token, amount) */\n      0xd1398bee19313d6bf672ccb116e51f4a1a947e91c757907f51fbb5b5e56c698f\n      swap1\n        /* \"DealCreationManager.sol\":121:11941  contract DealCreationManager is WalletContract {... */\n      0x20\n      swap1\n        /* \"WalletContract.sol\":3395:3427  Transfer(from, to,token, amount) */\n      log4\n        /* \"DealCreationManager.sol\":121:11941  contract DealCreationManager is WalletContract {... */\n      0x20\n      mload(0x40)\n      0x01\n      dup2\n      mstore\n      return\n    tag_72:\n      jumpi(tag_90, slt(add(not(0x03), calldatasize), 0x20))\n      calldataload(0x04)\n      dup1\n      0x00\n      mstore\n      mstore(0x20, 0x04)\n      keccak256(0x00, 0x40)\n        /* \"DealCreationManager.sol\":3981:3998  deal.counterparty */\n      swap1\n        /* \"DealCreationManager.sol\":121:11941  contract DealCreationManager is WalletContract {... */\n      0x01\n        /* \"DealCreationManager.sol\":3981:3998  deal.counterparty */\n      dup3\n      add\n        /* \"DealCreationManager.sol\":121:11941  contract DealCreationManager is WalletContract {... */\n      swap2\n        /* \"DealCreationManager.sol\":3973:4019  require(deal.counterparty == msg.sender, \"D5\") */\n      tag_195\n        /* \"DealCreationManager.sol\":121:11941  contract DealCreationManager is WalletContract {... */\n      0x01\n      dup1\n      0xa0\n      shl\n      sub\n      dup5\n      sload\n      and\n        /* \"DealCreationManager.sol\":4002:4012  msg.sender */\n      caller\n        /* \"DealCreationManager.sol\":3981:4012  deal.counterparty == msg.sender */\n      eq\n        /* \"DealCreationManager.sol\":3973:4019  require(deal.counterparty == msg.sender, \"D5\") */\n      tag_23\n      jump\t// in\n    tag_195:\n        /* \"DealCreationManager.sol\":4038:4053  deal.isTwoSided */\n      0x02\n      dup2\n      add\n        /* \"DealCreationManager.sol\":121:11941  contract DealCreationManager is WalletContract {... */\n      swap1\n        /* \"DealCreationManager.sol\":4137:4205  require(deal.isCompleted == false && deal.isCanceled == false, \"D3\") */\n      tag_196\n        /* \"DealCreationManager.sol\":121:11941  contract DealCreationManager is WalletContract {... */\n      dup3\n      sload\n        /* \"DealCreationManager.sol\":4030:4062  require(deal.isTwoSided, \"D3.1\") */\n      tag_197\n        /* \"DealCreationManager.sol\":121:11941  contract DealCreationManager is WalletContract {... */\n      0xff\n      dup3\n      0xb0\n      shr\n      and\n        /* \"DealCreationManager.sol\":4030:4062  require(deal.isTwoSided, \"D3.1\") */\n      tag_24\n      jump\t// in\n    tag_197:\n        /* \"DealCreationManager.sol\":4073:4126  require(deal.isSignedByCounterparty == false, \"D2.1\") */\n      tag_198\n        /* \"DealCreationManager.sol\":121:11941  contract DealCreationManager is WalletContract {... */\n      0xff\n      dup3\n      0xb8\n      shr\n      and\n      iszero\n        /* \"DealCreationManager.sol\":4073:4126  require(deal.isSignedByCounterparty == false, \"D2.1\") */\n      tag_25\n      jump\t// in\n    tag_198:\n        /* \"DealCreationManager.sol\":121:11941  contract DealCreationManager is WalletContract {... */\n      0xff\n      dup2\n      0xa0\n      shr\n      and\n      iszero\n        /* \"DealCreationManager.sol\":4145:4198  deal.isCompleted == false && deal.isCanceled == false */\n      swap1\n      dup2\n      tag_199\n      jumpi\n        /* \"DealCreationManager.sol\":121:11941  contract DealCreationManager is WalletContract {... */\n    tag_200:\n        /* \"DealCreationManager.sol\":4137:4205  require(deal.isCompleted == false && deal.isCanceled == false, \"D3\") */\n      pop\n      tag_26\n      jump\t// in\n    tag_196:\n        /* \"DealCreationManager.sol\":4255:4284  deal.counterpartyTokenAddress */\n      0x0a\n      dup2\n      add\n        /* \"DealCreationManager.sol\":121:11941  contract DealCreationManager is WalletContract {... */\n      dup1\n      sload\n        /* \"DealCreationManager.sol\":4002:4012  msg.sender */\n      caller\n      0x00\n        /* \"DealCreationManager.sol\":121:11941  contract DealCreationManager is WalletContract {... */\n      swap1\n      dup2\n      mstore\n      0x01\n      0x20\n      swap1\n      dup2\n      mstore\n      0x40\n      dup1\n      dup4\n      keccak256\n      sub(shl(0xa0, 0x01), 0x01)\n      swap1\n      swap5\n      and\n      dup1\n      dup5\n      mstore\n      swap4\n      swap1\n      swap2\n      mstore\n      swap1\n      keccak256\n      sload\n      swap1\n      swap2\n        /* \"DealCreationManager.sol\":4255:4284  deal.counterpartyTokenAddress */\n      swap1\n        /* \"DealCreationManager.sol\":4311:4341  deal.counterpartyCurrentAmount */\n      0x06\n      dup5\n      add\n        /* \"DealCreationManager.sol\":121:11941  contract DealCreationManager is WalletContract {... */\n      sload\n        /* \"DealCreationManager.sol\":4301:4341  balance < deal.counterpartyCurrentAmount */\n      dup2\n      lt\n        /* \"DealCreationManager.sol\":4298:4499  if(balance < deal.counterpartyCurrentAmount)... */\n      tag_202\n      jumpi\n        /* \"DealCreationManager.sol\":121:11941  contract DealCreationManager is WalletContract {... */\n    tag_203:\n      pop\n      sload\n      0x04\n        /* \"DealCreationManager.sol\":4571:4600  deal.counterpartyCreateAmount */\n      dup4\n      add\n        /* \"DealCreationManager.sol\":121:11941  contract DealCreationManager is WalletContract {... */\n      sload\n        /* \"DealCreationManager.sol\":4511:4601  removeBalanceFrom(msg.sender,deal.counterpartyTokenAddress, deal.counterpartyCreateAmount) */\n      tag_204\n      swap3\n      pop\n        /* \"DealCreationManager.sol\":121:11941  contract DealCreationManager is WalletContract {... */\n      swap1\n      sub(shl(0xa0, 0x01), 0x01)\n      and\n        /* \"DealCreationManager.sol\":4002:4012  msg.sender */\n      caller\n        /* \"DealCreationManager.sol\":4511:4601  removeBalanceFrom(msg.sender,deal.counterpartyTokenAddress, deal.counterpartyCreateAmount) */\n      tag_29\n      jump\t// in\n    tag_204:\n      pop\n        /* \"DealCreationManager.sol\":121:11941  contract DealCreationManager is WalletContract {... */\n      dup2\n      sload\n      shl(0xb8, 0x01)\n      not(shl(0xb8, 0xff))\n      dup3\n      and\n      or\n      swap1\n      swap3\n      sstore\n      sload\n      swap3\n      sload\n      mload(0x40)\n      sub(shl(0xa0, 0x01), 0x01)\n      swap3\n      dup4\n      and\n      dup1\n      dup3\n      mstore\n      swap5\n      swap2\n      dup4\n      and\n      swap3\n      swap1\n      swap2\n      and\n      swap1\n      dup4\n      swap1\n        /* \"DealCreationManager.sol\":4666:4735  DealCreated(dealId, deal.initiator, deal.counterparty, deal.mediator) */\n      0x5e02698c1650d6cbe1f7e8a48609d0da45ad7f5e4c13cd8b196f82965c0ab0d5\n      swap1\n        /* \"DealCreationManager.sol\":121:11941  contract DealCreationManager is WalletContract {... */\n      0x20\n      swap1\n        /* \"DealCreationManager.sol\":4666:4735  DealCreated(dealId, deal.initiator, deal.counterparty, deal.mediator) */\n      log4\n        /* \"DealCreationManager.sol\":4751:4778  deal.mediator != address(0) */\n      dup2\n        /* \"DealCreationManager.sol\":4748:4866  if(deal.mediator != address(0))... */\n      tag_205\n      jumpi\n        /* \"DealCreationManager.sol\":121:11941  contract DealCreationManager is WalletContract {... */\n    tag_206:\n      0x20\n      mload(0x40)\n      0x01\n      dup2\n      mstore\n      return\n        /* \"DealCreationManager.sol\":4748:4866  if(deal.mediator != address(0))... */\n    tag_205:\n        /* \"DealCreationManager.sol\":121:11941  contract DealCreationManager is WalletContract {... */\n      0x20\n        /* \"DealCreationManager.sol\":4809:4854  JoinedToDealAsMediator(deal.mediator, dealId) */\n      0x957372c0e02d2882134cc0eebbef9e446634d8ccbb1cbb112bdefdd3cf0a643c\n        /* \"DealCreationManager.sol\":121:11941  contract DealCreationManager is WalletContract {... */\n      swap2\n      mload(0x40)\n      swap1\n      dup2\n      mstore\n        /* \"DealCreationManager.sol\":4809:4854  JoinedToDealAsMediator(deal.mediator, dealId) */\n      log2\n        /* \"DealCreationManager.sol\":4748:4866  if(deal.mediator != address(0))... */\n      dup1\n      dup1\n      jump(tag_206)\n        /* \"DealCreationManager.sol\":4298:4499  if(balance < deal.counterpartyCurrentAmount)... */\n    tag_202:\n        /* \"DealCreationManager.sol\":4406:4445  deal.counterpartyCreateAmount - balance */\n      tag_207\n        /* \"DealCreationManager.sol\":4406:4435  deal.counterpartyCreateAmount */\n      swap1\n        /* \"DealCreationManager.sol\":121:11941  contract DealCreationManager is WalletContract {... */\n      0x04\n        /* \"DealCreationManager.sol\":4406:4435  deal.counterpartyCreateAmount */\n      dup6\n      add\n        /* \"DealCreationManager.sol\":121:11941  contract DealCreationManager is WalletContract {... */\n      sload\n        /* \"DealCreationManager.sol\":4406:4445  deal.counterpartyCreateAmount - balance */\n      tag_21\n      jump\t// in\n    tag_207:\n        /* \"DealCreationManager.sol\":121:11941  contract DealCreationManager is WalletContract {... */\n      swap2\n        /* \"LockableContract.sol\":630:660  require(contractEnabled, \"L1\") */\n      tag_208\n        /* \"DealCreationManager.sol\":121:11941  contract DealCreationManager is WalletContract {... */\n      and(shr(0xa0, sload(0x00)), 0xff)\n        /* \"LockableContract.sol\":630:660  require(contractEnabled, \"L1\") */\n      tag_7\n      jump\t// in\n    tag_208:\n        /* \"WalletContract.sol\":1831:1856  require(amount > 0, \"C5\") */\n      tag_209\n        /* \"WalletContract.sol\":1839:1849  amount > 0 */\n      dup4\n      iszero\n      iszero\n        /* \"WalletContract.sol\":1831:1856  require(amount > 0, \"C5\") */\n      tag_19\n      jump\t// in\n    tag_209:\n        /* \"DealCreationManager.sol\":4038:4053  deal.isTwoSided */\n      0x02\n        /* \"DealCreationManager.sol\":121:11941  contract DealCreationManager is WalletContract {... */\n      sload\n      swap3\n      mload(0x40)\n      swap4\n      shl(0xe0, 0x1c8f0847)\n        /* \"WalletContract.sol\":1923:1978  Percent.applyToNumber(amount, depositCommissionPercent) */\n      dup6\n      mstore\n      dup2\n        /* \"DealCreationManager.sol\":121:11941  contract DealCreationManager is WalletContract {... */\n      0x04\n        /* \"WalletContract.sol\":1923:1978  Percent.applyToNumber(amount, depositCommissionPercent) */\n      dup7\n      add\n        /* \"DealCreationManager.sol\":121:11941  contract DealCreationManager is WalletContract {... */\n      mstore\n      0x24\n      dup6\n      add\n      mstore\n      0x20\n        /* \"WalletContract.sol\":1923:1930  Percent */\n      dup5\n        /* \"WalletContract.sol\":1923:1978  Percent.applyToNumber(amount, depositCommissionPercent) */\n      0x44\n        /* \"WalletContract.sol\":1923:1930  Percent */\n      dup2\n      linkerSymbol(\"8537b7efa173772577da826929141ce9397d1aa5c05ce45dab4f7ac968e3002d\")\n        /* \"WalletContract.sol\":1923:1978  Percent.applyToNumber(amount, depositCommissionPercent) */\n      gas\n      delegatecall\n      swap4\n      dup5\n      iszero\n      tag_125\n      jumpi\n        /* \"DealCreationManager.sol\":121:11941  contract DealCreationManager is WalletContract {... */\n      0x00\n        /* \"WalletContract.sol\":1923:1978  Percent.applyToNumber(amount, depositCommissionPercent) */\n      swap5\n      tag_212\n      jumpi\n        /* \"DealCreationManager.sol\":4298:4499  if(balance < deal.counterpartyCurrentAmount)... */\n    tag_213:\n      pop\n        /* \"WalletContract.sol\":2079:2098  token == address(0) */\n      dup2\n        /* \"DealCreationManager.sol\":121:11941  contract DealCreationManager is WalletContract {... */\n      tag_214\n      jumpi\n        /* \"WalletContract.sol\":2236:2255  amount + commission */\n      tag_216\n      dup5\n      dup3\n      tag_22\n      jump\t// in\n    tag_216:\n        /* \"WalletContract.sol\":2223:2232  msg.value */\n      callvalue\n        /* \"WalletContract.sol\":2223:2255  msg.value == amount + commission */\n      sub\n        /* \"DealCreationManager.sol\":121:11941  contract DealCreationManager is WalletContract {... */\n      tag_153\n      jumpi\n        /* \"DealCreationManager.sol\":4511:4601  removeBalanceFrom(msg.sender,deal.counterpartyTokenAddress, deal.counterpartyCreateAmount) */\n      tag_204\n        /* \"DealCreationManager.sol\":4002:4012  msg.sender */\n      swap4\n        /* \"WalletContract.sol\":2279:2318  addBalanceTo(msg.sender, token, amount) */\n      tag_219\n        /* \"DealCreationManager.sol\":4002:4012  msg.sender */\n      dup3\n      dup5\n      caller\n        /* \"WalletContract.sol\":2279:2318  addBalanceTo(msg.sender, token, amount) */\n      tag_30\n      jump\t// in\n    tag_219:\n      pop\n        /* \"WalletContract.sol\":2346:2365  commissionRecipient */\n      0x03\n        /* \"DealCreationManager.sol\":121:11941  contract DealCreationManager is WalletContract {... */\n      sload\n        /* \"WalletContract.sol\":2333:2384  addBalanceTo(commissionRecipient,token, commission) */\n      tag_220\n      swap1\n        /* \"DealCreationManager.sol\":121:11941  contract DealCreationManager is WalletContract {... */\n      dup3\n      swap1\n      dup6\n      swap1\n      sub(shl(0xa0, 0x01), 0x01)\n      and\n        /* \"WalletContract.sol\":2333:2384  addBalanceTo(commissionRecipient,token, commission) */\n      tag_30\n      jump\t// in\n    tag_220:\n      pop\n        /* \"WalletContract.sol\":2075:2639  if (token == address(0)) {... */\n    tag_221:\n        /* \"DealCreationManager.sol\":121:11941  contract DealCreationManager is WalletContract {... */\n      mload(0x40)\n      swap2\n      dup3\n      mstore\n      0x20\n      dup3\n      add\n      mstore\n      0x00\n      dup1\n      mload\n      0x20\n      data_f153f45295e6c417ef2e31903186ee1a5d0c2546461fb67769dfe29ae5912c6f\n      dup4\n      codecopy\n      dup2\n      mload\n      swap2\n      mstore\n      0x40\n        /* \"DealCreationManager.sol\":4002:4012  msg.sender */\n      caller\n        /* \"WalletContract.sol\":2656:2701  Deposit(msg.sender, token,amount, commission) */\n      swap3\n      log3\n        /* \"DealCreationManager.sol\":4298:4499  if(balance < deal.counterpartyCurrentAmount)... */\n      dup7\n      jump(tag_203)\n        /* \"WalletContract.sol\":2075:2639  if (token == address(0)) {... */\n    tag_214:\n        /* \"WalletContract.sol\":2478:2497  amount + commission */\n      tag_222\n      dup5\n      dup3\n      tag_22\n      jump\t// in\n    tag_222:\n        /* \"DealCreationManager.sol\":121:11941  contract DealCreationManager is WalletContract {... */\n      mload(0x40)\n      swap1\n      shl(0xe0, 0x23b872dd)\n        /* \"WalletContract.sol\":2425:2498  NET20(token).transferFrom(msg.sender, address(this), amount + commission) */\n      dup3\n      mstore\n        /* \"DealCreationManager.sol\":4002:4012  msg.sender */\n      caller\n        /* \"DealCreationManager.sol\":121:11941  contract DealCreationManager is WalletContract {... */\n      0x04\n        /* \"WalletContract.sol\":2425:2498  NET20(token).transferFrom(msg.sender, address(this), amount + commission) */\n      dup4\n      add\n        /* \"DealCreationManager.sol\":121:11941  contract DealCreationManager is WalletContract {... */\n      mstore\n        /* \"WalletContract.sol\":2471:2475  this */\n      address\n        /* \"DealCreationManager.sol\":121:11941  contract DealCreationManager is WalletContract {... */\n      0x24\n      dup4\n      add\n      mstore\n        /* \"WalletContract.sol\":1923:1978  Percent.applyToNumber(amount, depositCommissionPercent) */\n      0x44\n        /* \"DealCreationManager.sol\":121:11941  contract DealCreationManager is WalletContract {... */\n      dup3\n      add\n      mstore\n      0x20\n        /* \"WalletContract.sol\":2425:2498  NET20(token).transferFrom(msg.sender, address(this), amount + commission) */\n      dup2\n      0x64\n      dup2\n        /* \"DealCreationManager.sol\":121:11941  contract DealCreationManager is WalletContract {... */\n      0x00\n        /* \"WalletContract.sol\":2425:2498  NET20(token).transferFrom(msg.sender, address(this), amount + commission) */\n      dup8\n      gas\n      call\n      swap1\n      dup2\n      iszero\n      tag_125\n      jumpi\n        /* \"DealCreationManager.sol\":121:11941  contract DealCreationManager is WalletContract {... */\n      0x00\n        /* \"WalletContract.sol\":2425:2498  NET20(token).transferFrom(msg.sender, address(this), amount + commission) */\n      swap2\n      tag_225\n      jumpi\n        /* \"WalletContract.sol\":2075:2639  if (token == address(0)) {... */\n    tag_226:\n        /* \"DealCreationManager.sol\":121:11941  contract DealCreationManager is WalletContract {... */\n      pop\n      iszero\n      tag_163\n      jumpi\n        /* \"DealCreationManager.sol\":4511:4601  removeBalanceFrom(msg.sender,deal.counterpartyTokenAddress, deal.counterpartyCreateAmount) */\n      tag_204\n        /* \"DealCreationManager.sol\":4002:4012  msg.sender */\n      swap4\n        /* \"WalletContract.sol\":2522:2561  addBalanceTo(msg.sender, token, amount) */\n      tag_229\n        /* \"DealCreationManager.sol\":4002:4012  msg.sender */\n      dup3\n      dup5\n      caller\n        /* \"WalletContract.sol\":2522:2561  addBalanceTo(msg.sender, token, amount) */\n      tag_30\n      jump\t// in\n    tag_229:\n      pop\n        /* \"WalletContract.sol\":2589:2608  commissionRecipient */\n      0x03\n        /* \"DealCreationManager.sol\":121:11941  contract DealCreationManager is WalletContract {... */\n      sload\n        /* \"WalletContract.sol\":2576:2627  addBalanceTo(commissionRecipient,token, commission) */\n      tag_230\n      swap1\n        /* \"DealCreationManager.sol\":121:11941  contract DealCreationManager is WalletContract {... */\n      dup3\n      swap1\n      dup6\n      swap1\n      sub(shl(0xa0, 0x01), 0x01)\n      and\n        /* \"WalletContract.sol\":2576:2627  addBalanceTo(commissionRecipient,token, commission) */\n      tag_30\n      jump\t// in\n    tag_230:\n      pop\n        /* \"WalletContract.sol\":2075:2639  if (token == address(0)) {... */\n      jump(tag_221)\n        /* \"WalletContract.sol\":2425:2498  NET20(token).transferFrom(msg.sender, address(this), amount + commission) */\n    tag_225:\n      swap1\n      pop\n        /* \"DealCreationManager.sol\":121:11941  contract DealCreationManager is WalletContract {... */\n      0x20\n        /* \"WalletContract.sol\":2425:2498  NET20(token).transferFrom(msg.sender, address(this), amount + commission) */\n      dup2\n      returndatasize\n        /* \"DealCreationManager.sol\":121:11941  contract DealCreationManager is WalletContract {... */\n      0x20\n        /* \"WalletContract.sol\":2425:2498  NET20(token).transferFrom(msg.sender, address(this), amount + commission) */\n      gt\n      tag_231\n      jumpi\n    tag_232:\n      dup2\n      tag_233\n        /* \"DealCreationManager.sol\":121:11941  contract DealCreationManager is WalletContract {... */\n      0x20\n        /* \"WalletContract.sol\":2425:2498  NET20(token).transferFrom(msg.sender, address(this), amount + commission) */\n      swap4\n      dup4\n      tag_10\n      jump\t// in\n    tag_233:\n      dup2\n      add\n        /* \"DealCreationManager.sol\":121:11941  contract DealCreationManager is WalletContract {... */\n      sub\n      slt\n      tag_90\n      jumpi\n      tag_236\n      swap1\n      tag_12\n      jump\t// in\n    tag_236:\n        /* \"WalletContract.sol\":2425:2498  NET20(token).transferFrom(msg.sender, address(this), amount + commission) */\n      dup10\n      jump(tag_226)\n    tag_231:\n      returndatasize\n      swap2\n      pop\n      jump(tag_232)\n        /* \"WalletContract.sol\":1923:1978  Percent.applyToNumber(amount, depositCommissionPercent) */\n    tag_212:\n      swap1\n      swap4\n      pop\n        /* \"DealCreationManager.sol\":121:11941  contract DealCreationManager is WalletContract {... */\n      0x20\n        /* \"WalletContract.sol\":1923:1978  Percent.applyToNumber(amount, depositCommissionPercent) */\n      dup2\n      returndatasize\n        /* \"DealCreationManager.sol\":121:11941  contract DealCreationManager is WalletContract {... */\n      0x20\n        /* \"WalletContract.sol\":1923:1978  Percent.applyToNumber(amount, depositCommissionPercent) */\n      gt\n      tag_237\n      jumpi\n    tag_238:\n      dup2\n      tag_239\n        /* \"DealCreationManager.sol\":121:11941  contract DealCreationManager is WalletContract {... */\n      0x20\n        /* \"WalletContract.sol\":1923:1978  Percent.applyToNumber(amount, depositCommissionPercent) */\n      swap4\n      dup4\n      tag_10\n      jump\t// in\n    tag_239:\n      dup2\n      add\n        /* \"DealCreationManager.sol\":121:11941  contract DealCreationManager is WalletContract {... */\n      sub\n      slt\n      tag_90\n      jumpi\n      mload\n        /* \"WalletContract.sol\":1923:1978  Percent.applyToNumber(amount, depositCommissionPercent) */\n      swap3\n      dup9\n      jump(tag_213)\n    tag_237:\n      returndatasize\n      swap2\n      pop\n      jump(tag_238)\n        /* \"DealCreationManager.sol\":4145:4198  deal.isCompleted == false && deal.isCanceled == false */\n    tag_199:\n        /* \"DealCreationManager.sol\":121:11941  contract DealCreationManager is WalletContract {... */\n      0xff\n      swap2\n      pop\n      0xa8\n      shr\n      and\n      iszero\n        /* \"DealCreationManager.sol\":4145:4198  deal.isCompleted == false && deal.isCanceled == false */\n      dup7\n      jump(tag_200)\n        /* \"DealCreationManager.sol\":121:11941  contract DealCreationManager is WalletContract {... */\n    tag_70:\n      jumpi(tag_90, callvalue)\n      jumpi(tag_90, slt(add(not(0x03), calldatasize), 0x00))\n      0x20\n        /* \"DealCreationManager.sol\":255:284  uint256 public totalDeals = 0 */\n      0x05\n        /* \"DealCreationManager.sol\":121:11941  contract DealCreationManager is WalletContract {... */\n      sload\n      mload(0x40)\n      swap1\n      dup2\n      mstore\n      return\n    tag_68:\n      jumpi(tag_90, callvalue)\n      jumpi(tag_90, slt(add(not(0x03), calldatasize), 0x20))\n      calldataload(0x04)\n      dup1\n      0x00\n      mstore\n      mstore(0x20, 0x04)\n      keccak256(0x00, 0x40)\n        /* \"DealCreationManager.sol\":3261:3278  deal.counterparty */\n      swap1\n        /* \"DealCreationManager.sol\":121:11941  contract DealCreationManager is WalletContract {... */\n      0x01\n        /* \"DealCreationManager.sol\":3261:3278  deal.counterparty */\n      dup3\n      add\n        /* \"DealCreationManager.sol\":121:11941  contract DealCreationManager is WalletContract {... */\n      swap1\n      0x01\n      dup1\n      0xa0\n      shl\n      sub\n      dup3\n      sload\n      and\n        /* \"DealCreationManager.sol\":3282:3292  msg.sender */\n      caller\n        /* \"DealCreationManager.sol\":3261:3292  deal.counterparty == msg.sender */\n      eq\n        /* \"DealCreationManager.sol\":3261:3324  deal.counterparty == msg.sender || deal.initiator == msg.sender */\n      dup1\n      iszero\n      tag_250\n      jumpi\n        /* \"DealCreationManager.sol\":121:11941  contract DealCreationManager is WalletContract {... */\n    tag_251:\n        /* \"DealCreationManager.sol\":3253:3331  require(deal.counterparty == msg.sender || deal.initiator == msg.sender, \"D5\") */\n      tag_252\n      swap1\n      tag_23\n      jump\t// in\n    tag_252:\n        /* \"DealCreationManager.sol\":3631:3713  DealCanceled(dealId, deal.initiator, deal.counterparty, deal.mediator, msg.sender) */\n      0x086c61b89ef5fcdb14c243b643069c3c6a84765b27f2a696b875dddf031afb4d\n      tag_253\n        /* \"DealCreationManager.sol\":3350:3365  deal.isTwoSided */\n      0x02\n      dup6\n      add\n        /* \"DealCreationManager.sol\":121:11941  contract DealCreationManager is WalletContract {... */\n      swap5\n        /* \"DealCreationManager.sol\":3449:3517  require(deal.isCompleted == false && deal.isCanceled == false, \"D3\") */\n      tag_254\n        /* \"DealCreationManager.sol\":121:11941  contract DealCreationManager is WalletContract {... */\n      dup7\n      sload\n        /* \"DealCreationManager.sol\":3342:3374  require(deal.isTwoSided, \"D3.1\") */\n      tag_255\n        /* \"DealCreationManager.sol\":121:11941  contract DealCreationManager is WalletContract {... */\n      0xff\n      dup3\n      0xb0\n      shr\n      and\n        /* \"DealCreationManager.sol\":3342:3374  require(deal.isTwoSided, \"D3.1\") */\n      tag_24\n      jump\t// in\n    tag_255:\n        /* \"DealCreationManager.sol\":3385:3438  require(deal.isSignedByCounterparty == false, \"D2.1\") */\n      tag_256\n        /* \"DealCreationManager.sol\":121:11941  contract DealCreationManager is WalletContract {... */\n      0xff\n      dup3\n      0xb8\n      shr\n      and\n      iszero\n        /* \"DealCreationManager.sol\":3385:3438  require(deal.isSignedByCounterparty == false, \"D2.1\") */\n      tag_25\n      jump\t// in\n    tag_256:\n        /* \"DealCreationManager.sol\":121:11941  contract DealCreationManager is WalletContract {... */\n      0xff\n      dup2\n      0xa0\n      shr\n      and\n      iszero\n        /* \"DealCreationManager.sol\":3457:3510  deal.isCompleted == false && deal.isCanceled == false */\n      swap1\n      dup2\n      tag_257\n      jumpi\n        /* \"DealCreationManager.sol\":3449:3517  require(deal.isCompleted == false && deal.isCanceled == false, \"D3\") */\n      pop\n      tag_26\n      jump\t// in\n    tag_254:\n        /* \"DealCreationManager.sol\":121:11941  contract DealCreationManager is WalletContract {... */\n      dup1\n      sload\n        /* \"DealCreationManager.sol\":3558:3584  deal.initiatorTokenAddress */\n      0x09\n      dup3\n      add\n        /* \"DealCreationManager.sol\":121:11941  contract DealCreationManager is WalletContract {... */\n      sload\n        /* \"DealCreationManager.sol\":3585:3612  deal.initiatorCurrentAmount */\n      0x05\n      dup4\n      add\n        /* \"DealCreationManager.sol\":121:11941  contract DealCreationManager is WalletContract {... */\n      sload\n        /* \"DealCreationManager.sol\":3530:3613  addBalanceTo(deal.initiator,deal.initiatorTokenAddress,deal.initiatorCurrentAmount) */\n      tag_259\n      swap3\n        /* \"DealCreationManager.sol\":121:11941  contract DealCreationManager is WalletContract {... */\n      swap1\n      swap2\n      sub(shl(0xa0, 0x01), 0x01)\n      swap1\n      dup2\n      and\n      swap2\n      and\n        /* \"DealCreationManager.sol\":3530:3613  addBalanceTo(deal.initiator,deal.initiatorTokenAddress,deal.initiatorCurrentAmount) */\n      tag_30\n      jump\t// in\n    tag_259:\n      pop\n        /* \"DealCreationManager.sol\":121:11941  contract DealCreationManager is WalletContract {... */\n      sload\n      swap4\n      sload\n      swap5\n      sload\n      0x40\n      dup1\n      mload\n      sub(shl(0xa0, 0x01), 0x01)\n      swap3\n      dup4\n      and\n      dup2\n      mstore\n        /* \"DealCreationManager.sol\":3282:3292  msg.sender */\n      caller\n        /* \"DealCreationManager.sol\":121:11941  contract DealCreationManager is WalletContract {... */\n      0x20\n      dup3\n      add\n      mstore\n      swap7\n      dup3\n      and\n      swap7\n      swap6\n      swap1\n      swap2\n      and\n      swap5\n      swap2\n      dup3\n      swap2\n      dup3\n      add\n      swap1\n      jump\n        /* \"DealCreationManager.sol\":3631:3713  DealCanceled(dealId, deal.initiator, deal.counterparty, deal.mediator, msg.sender) */\n    tag_253:\n      sub\n      swap1\n      log4\n        /* \"DealCreationManager.sol\":121:11941  contract DealCreationManager is WalletContract {... */\n      0x20\n      mload(0x40)\n      0x01\n      dup2\n      mstore\n      return\n        /* \"DealCreationManager.sol\":3457:3510  deal.isCompleted == false && deal.isCanceled == false */\n    tag_257:\n        /* \"DealCreationManager.sol\":121:11941  contract DealCreationManager is WalletContract {... */\n      0xff\n      swap2\n      pop\n      0xa8\n      shr\n      and\n      iszero\n        /* \"DealCreationManager.sol\":3457:3510  deal.isCompleted == false && deal.isCanceled == false */\n      dup9\n      jump(tag_200)\n        /* \"DealCreationManager.sol\":3261:3324  deal.counterparty == msg.sender || deal.initiator == msg.sender */\n    tag_250:\n      pop\n        /* \"DealCreationManager.sol\":121:11941  contract DealCreationManager is WalletContract {... */\n      dup3\n      sload\n      sub(shl(0xa0, 0x01), 0x01)\n      and\n        /* \"DealCreationManager.sol\":3282:3292  msg.sender */\n      caller\n        /* \"DealCreationManager.sol\":3296:3324  deal.initiator == msg.sender */\n      eq\n        /* \"DealCreationManager.sol\":3261:3324  deal.counterparty == msg.sender || deal.initiator == msg.sender */\n      jump(tag_251)\n        /* \"DealCreationManager.sol\":121:11941  contract DealCreationManager is WalletContract {... */\n    tag_66:\n      jumpi(tag_90, callvalue)\n      jumpi(tag_90, slt(add(not(0x03), calldatasize), 0x00))\n      sload(0x00)\n      mload(0x40)\n      sub(shl(0xa0, 0x01), 0x01)\n      swap1\n      swap2\n      and\n      dup2\n      mstore\n      0x20\n      swap1\n      return\n    tag_64:\n      jumpi(tag_90, callvalue)\n      jumpi(tag_90, slt(add(not(0x03), calldatasize), 0x00))\n      0x20\n        /* \"WalletContract.sol\":406:445  uint256 public depositCommissionPercent */\n      0x02\n        /* \"DealCreationManager.sol\":121:11941  contract DealCreationManager is WalletContract {... */\n      sload\n      mload(0x40)\n      swap1\n      dup2\n      mstore\n      return\n    tag_62:\n      jumpi(tag_90, callvalue)\n      jumpi(tag_90, slt(add(not(0x03), calldatasize), 0x00))\n      sload(0x00)\n        /* \"LockableContract.sol\":474:509  require(msg.sender == _owner, \"L2\") */\n      tag_272\n        /* \"LockableContract.sol\":482:492  msg.sender */\n      caller\n      sub(shl(0xa0, 0x01), 0x01)\n        /* \"DealCreationManager.sol\":121:11941  contract DealCreationManager is WalletContract {... */\n      dup4\n      and\n        /* \"LockableContract.sol\":482:502  msg.sender == _owner */\n      eq\n        /* \"LockableContract.sol\":474:509  require(msg.sender == _owner, \"L2\") */\n      tag_18\n      jump\t// in\n    tag_272:\n        /* \"DealCreationManager.sol\":121:11941  contract DealCreationManager is WalletContract {... */\n      not(shl(0xa0, 0xff))\n      and\n      0x00\n      sstore\n        /* \"LockableContract.sol\":1676:1704  ContractStatusChanged(false) */\n      0x017904e4fe7d59bb4603c7c045bc275a05da9ea3a4ac007fc80fffeaf119186d\n        /* \"DealCreationManager.sol\":121:11941  contract DealCreationManager is WalletContract {... */\n      0x20\n      mload(0x40)\n      0x00\n      dup2\n      mstore\n        /* \"LockableContract.sol\":1676:1704  ContractStatusChanged(false) */\n      log1\n        /* \"DealCreationManager.sol\":121:11941  contract DealCreationManager is WalletContract {... */\n      stop\n    tag_60:\n      jumpi(tag_90, callvalue)\n      jumpi(tag_90, slt(add(not(0x03), calldatasize), 0x20))\n      mstore(0x00, calldataload(0x04))\n      mstore(0x20, 0x04)\n      keccak256(0x00, 0x40)\n      shl(0xa0, 0x01)\n      0x01\n      swap1\n      sub\n      dup2\n      sload\n      and\n      swap1\n      shl(0xa0, 0x01)\n      0x01\n      swap1\n      sub\n      0x01\n        /* \"DealCreationManager.sol\":209:246  mapping(bytes32 => Deal) public deals */\n      dup3\n      add\n        /* \"DealCreationManager.sol\":121:11941  contract DealCreationManager is WalletContract {... */\n      sload\n      and\n        /* \"DealCreationManager.sol\":209:246  mapping(bytes32 => Deal) public deals */\n      swap1\n      0x02\n      dup2\n      add\n        /* \"DealCreationManager.sol\":121:11941  contract DealCreationManager is WalletContract {... */\n      sload\n        /* \"DealCreationManager.sol\":209:246  mapping(bytes32 => Deal) public deals */\n      0x03\n      dup3\n      add\n        /* \"DealCreationManager.sol\":121:11941  contract DealCreationManager is WalletContract {... */\n      sload\n      0x04\n        /* \"DealCreationManager.sol\":209:246  mapping(bytes32 => Deal) public deals */\n      dup4\n      add\n        /* \"DealCreationManager.sol\":121:11941  contract DealCreationManager is WalletContract {... */\n      sload\n        /* \"DealCreationManager.sol\":209:246  mapping(bytes32 => Deal) public deals */\n      0x05\n      dup5\n      add\n        /* \"DealCreationManager.sol\":121:11941  contract DealCreationManager is WalletContract {... */\n      sload\n        /* \"DealCreationManager.sol\":209:246  mapping(bytes32 => Deal) public deals */\n      0x06\n      dup6\n      add\n        /* \"DealCreationManager.sol\":121:11941  contract DealCreationManager is WalletContract {... */\n      sload\n        /* \"DealCreationManager.sol\":209:246  mapping(bytes32 => Deal) public deals */\n      0x07\n      dup7\n      add\n        /* \"DealCreationManager.sol\":121:11941  contract DealCreationManager is WalletContract {... */\n      sload\n        /* \"DealCreationManager.sol\":209:246  mapping(bytes32 => Deal) public deals */\n      swap2\n      0x08\n      dup8\n      add\n        /* \"DealCreationManager.sol\":121:11941  contract DealCreationManager is WalletContract {... */\n      sload\n      swap4\n      shl(0xa0, 0x01)\n      0x01\n      swap1\n      sub\n        /* \"DealCreationManager.sol\":209:246  mapping(bytes32 => Deal) public deals */\n      0x09\n      dup10\n      add\n        /* \"DealCreationManager.sol\":121:11941  contract DealCreationManager is WalletContract {... */\n      sload\n      and\n      swap6\n      shl(0xa0, 0x01)\n      0x01\n      swap1\n      sub\n        /* \"DealCreationManager.sol\":209:246  mapping(bytes32 => Deal) public deals */\n      0x0a\n      dup11\n      add\n        /* \"DealCreationManager.sol\":121:11941  contract DealCreationManager is WalletContract {... */\n      sload\n      and\n        /* \"DealCreationManager.sol\":209:246  mapping(bytes32 => Deal) public deals */\n      swap8\n      0x0b\n      dup11\n      add\n        /* \"DealCreationManager.sol\":121:11941  contract DealCreationManager is WalletContract {... */\n      sload\n        /* \"DealCreationManager.sol\":209:246  mapping(bytes32 => Deal) public deals */\n      swap10\n      0x0c\n      add\n        /* \"DealCreationManager.sol\":121:11941  contract DealCreationManager is WalletContract {... */\n      sload\n      0xff\n      and\n      swap11\n      mload(0x40)\n      swap13\n      dup14\n      mstore\n      0x20\n      dup14\n      add\n      mstore\n      shl(0xa0, 0x01)\n      0x01\n      swap1\n      sub\n      dup2\n      and\n      0x40\n      dup14\n      add\n      mstore\n      dup1\n      0xa0\n      shr\n      0xff\n      and\n      iszero\n      iszero\n      0x60\n      dup14\n      add\n      mstore\n      dup1\n      0xa8\n      shr\n      0xff\n      and\n      iszero\n      iszero\n      0x80\n      dup14\n      add\n      mstore\n      dup1\n      0xb0\n      shr\n      0xff\n      and\n      iszero\n      iszero\n      0xa0\n      dup14\n      add\n      mstore\n      0xb8\n      shr\n      0xff\n      and\n      iszero\n      iszero\n      0xc0\n      dup13\n      add\n      mstore\n      0xe0\n      dup12\n      add\n      mstore\n      0x0100\n      dup11\n      add\n      mstore\n      0x0120\n      dup10\n      add\n      mstore\n      0x0140\n      dup9\n      add\n      mstore\n      0x0160\n      dup8\n      add\n      mstore\n      0x0180\n      dup7\n      add\n      mstore\n      0x01a0\n      dup6\n      add\n      mstore\n      0x01c0\n      dup5\n      add\n      mstore\n      0x01e0\n      dup4\n      add\n      mstore\n      0x0200\n      dup3\n      add\n      tag_277\n      swap2\n      tag_5\n      jump\t// in\n    tag_277:\n      0x0220\n      swap1\n      return\n    tag_58:\n      jumpi(tag_90, callvalue)\n      jumpi(tag_90, slt(add(not(0x03), calldatasize), 0x20))\n      calldataload(0x04)\n      dup1\n      0x00\n      mstore\n      mstore(0x20, 0x04)\n      keccak256(0x00, 0x40)\n        /* \"DealCreationManager.sol\":2628:2645  deal.counterparty */\n      swap1\n        /* \"DealCreationManager.sol\":121:11941  contract DealCreationManager is WalletContract {... */\n      0x01\n        /* \"DealCreationManager.sol\":2628:2645  deal.counterparty */\n      dup3\n      add\n        /* \"DealCreationManager.sol\":121:11941  contract DealCreationManager is WalletContract {... */\n      swap1\n      0x01\n      dup1\n      0xa0\n      shl\n      sub\n      dup3\n      sload\n      and\n        /* \"DealCreationManager.sol\":2649:2659  msg.sender */\n      caller\n        /* \"DealCreationManager.sol\":2628:2659  deal.counterparty == msg.sender */\n      eq\n        /* \"DealCreationManager.sol\":2628:2691  deal.counterparty == msg.sender || deal.initiator == msg.sender */\n      dup1\n      iszero\n      tag_282\n      jumpi\n        /* \"DealCreationManager.sol\":121:11941  contract DealCreationManager is WalletContract {... */\n    tag_283:\n        /* \"DealCreationManager.sol\":2620:2698  require(deal.counterparty == msg.sender || deal.initiator == msg.sender, \"D5\") */\n      tag_284\n      swap1\n      tag_23\n      jump\t// in\n    tag_284:\n        /* \"DealCreationManager.sol\":2986:3068  DealCanceled(dealId, deal.initiator, deal.counterparty, deal.mediator, msg.sender) */\n      0x086c61b89ef5fcdb14c243b643069c3c6a84765b27f2a696b875dddf031afb4d\n      tag_253\n        /* \"DealCreationManager.sol\":2717:2744  deal.isSignedByCounterparty */\n      0x02\n      dup6\n      add\n        /* \"DealCreationManager.sol\":121:11941  contract DealCreationManager is WalletContract {... */\n      swap5\n        /* \"DealCreationManager.sol\":2792:2860  require(deal.isCompleted == false && deal.isCanceled == false, \"D3\") */\n      tag_286\n        /* \"DealCreationManager.sol\":121:11941  contract DealCreationManager is WalletContract {... */\n      dup7\n      sload\n      0xff\n      dup2\n      0xb8\n      shr\n      and\n      iszero\n        /* \"DealCreationManager.sol\":2717:2772  deal.isSignedByCounterparty == false && deal.isTwoSided */\n      dup1\n      tag_287\n      jumpi\n        /* \"DealCreationManager.sol\":121:11941  contract DealCreationManager is WalletContract {... */\n    tag_288:\n        /* \"DealCreationManager.sol\":2709:2781  require(deal.isSignedByCounterparty == false && deal.isTwoSided, \"D2.1\") */\n      tag_256\n      swap1\n      tag_25\n      jump\t// in\n        /* \"DealCreationManager.sol\":2792:2860  require(deal.isCompleted == false && deal.isCanceled == false, \"D3\") */\n    tag_286:\n        /* \"DealCreationManager.sol\":121:11941  contract DealCreationManager is WalletContract {... */\n      dup1\n      sload\n        /* \"DealCreationManager.sol\":2912:2938  deal.initiatorTokenAddress */\n      0x09\n      dup3\n      add\n        /* \"DealCreationManager.sol\":121:11941  contract DealCreationManager is WalletContract {... */\n      sload\n        /* \"DealCreationManager.sol\":2940:2967  deal.initiatorCurrentAmount */\n      0x05\n      dup4\n      add\n        /* \"DealCreationManager.sol\":121:11941  contract DealCreationManager is WalletContract {... */\n      sload\n        /* \"DealCreationManager.sol\":2873:2968  withdrawFromContractTo(deal.initiator, deal.initiatorTokenAddress, deal.initiatorCurrentAmount) */\n      tag_259\n      swap3\n        /* \"DealCreationManager.sol\":121:11941  contract DealCreationManager is WalletContract {... */\n      swap1\n      swap2\n      sub(shl(0xa0, 0x01), 0x01)\n      swap1\n      dup2\n      and\n      swap2\n      and\n        /* \"DealCreationManager.sol\":2873:2968  withdrawFromContractTo(deal.initiator, deal.initiatorTokenAddress, deal.initiatorCurrentAmount) */\n      tag_31\n      jump\t// in\n        /* \"DealCreationManager.sol\":2717:2772  deal.isSignedByCounterparty == false && deal.isTwoSided */\n    tag_287:\n      pop\n        /* \"DealCreationManager.sol\":121:11941  contract DealCreationManager is WalletContract {... */\n      0xb0\n      dup2\n      swap1\n      shr\n      0xff\n      and\n        /* \"DealCreationManager.sol\":2717:2772  deal.isSignedByCounterparty == false && deal.isTwoSided */\n      jump(tag_288)\n        /* \"DealCreationManager.sol\":2628:2691  deal.counterparty == msg.sender || deal.initiator == msg.sender */\n    tag_282:\n      pop\n        /* \"DealCreationManager.sol\":121:11941  contract DealCreationManager is WalletContract {... */\n      dup3\n      sload\n      sub(shl(0xa0, 0x01), 0x01)\n      and\n        /* \"DealCreationManager.sol\":2649:2659  msg.sender */\n      caller\n        /* \"DealCreationManager.sol\":2663:2691  deal.initiator == msg.sender */\n      eq\n        /* \"DealCreationManager.sol\":2628:2691  deal.counterparty == msg.sender || deal.initiator == msg.sender */\n      jump(tag_283)\n        /* \"DealCreationManager.sol\":121:11941  contract DealCreationManager is WalletContract {... */\n    tag_56:\n      jumpi(tag_90, callvalue)\n      jumpi(tag_90, slt(add(not(0x03), calldatasize), 0x20))\n      sub(shl(0xa0, 0x01), 0x01)\n      tag_297\n      tag_2\n      jump\t// in\n    tag_297:\n      and\n      0x00\n      mstore\n        /* \"WalletContract.sol\":3612:3620  balances */\n      0x01\n        /* \"DealCreationManager.sol\":121:11941  contract DealCreationManager is WalletContract {... */\n      0x20\n      mstore\n      keccak256(0x00, 0x40)\n      0x00\n      dup1\n      mstore\n      0x20\n      mstore\n      0x20\n      sload(keccak256(0x00, 0x40))\n      mload(0x40)\n      swap1\n      dup2\n      mstore\n      return\n    tag_54:\n      jumpi(tag_90, callvalue)\n      jumpi(tag_90, slt(add(not(0x03), calldatasize), 0x20))\n      0x00\n      0x0200\n      mload(0x40)\n      tag_302\n      dup2\n      tag_9\n      jump\t// in\n    tag_302:\n      dup3\n      dup2\n      mstore\n      dup3\n      0x20\n      dup3\n      add\n      mstore\n      dup3\n      0x40\n      dup3\n      add\n      mstore\n      dup3\n      0x60\n      dup3\n      add\n      mstore\n      dup3\n      0x80\n      dup3\n      add\n      mstore\n      dup3\n      0xa0\n      dup3\n      add\n      mstore\n      dup3\n      0xc0\n      dup3\n      add\n      mstore\n      dup3\n      0xe0\n      dup3\n      add\n      mstore\n      dup3\n      0x0100\n      dup3\n      add\n      mstore\n      dup3\n      0x0120\n      dup3\n      add\n      mstore\n      dup3\n      0x0140\n      dup3\n      add\n      mstore\n      dup3\n      0x0160\n      dup3\n      add\n      mstore\n      dup3\n      0x0180\n      dup3\n      add\n      mstore\n      dup3\n      0x01a0\n      dup3\n      add\n      mstore\n      dup3\n      0x01c0\n      dup3\n      add\n      mstore\n      dup3\n      0x01e0\n      dup3\n      add\n      mstore\n      add\n      mstore\n      mstore(0x00, calldataload(0x04))\n      mstore(0x20, 0x04)\n      keccak256(0x00, 0x40)\n      0xff\n      0x0c\n      mload(0x40)\n      swap3\n      tag_303\n      dup5\n      tag_9\n      jump\t// in\n    tag_303:\n      dup1\n      sload\n      sub(shl(0xa0, 0x01), 0x01)\n      swap1\n      dup2\n      and\n      dup6\n      mstore\n      0x01\n      dup3\n      add\n      sload\n      dup2\n      and\n      0x20\n      dup7\n      add\n      mstore\n      0x02\n      dup3\n      add\n      sload\n      dup1\n      dup3\n      and\n      0x40\n      dup8\n      add\n      mstore\n      0xa0\n      dup2\n      dup2\n      shr\n      dup7\n      and\n      iszero\n      iszero\n      0x60\n      dup9\n      add\n      mstore\n      0xa8\n      dup3\n      swap1\n      shr\n      dup7\n      and\n      iszero\n      iszero\n      0x80\n      dup9\n      add\n      mstore\n      0xb0\n      dup3\n      swap1\n      shr\n      dup7\n      and\n      iszero\n      iszero\n      swap1\n      dup8\n      add\n      mstore\n      0xb8\n      shr\n      dup5\n      and\n      iszero\n      iszero\n      0xc0\n      dup7\n      add\n      mstore\n      0x03\n      dup3\n      add\n      sload\n      0xe0\n      dup7\n      add\n      mstore\n      0x04\n      dup3\n      add\n      sload\n      0x0100\n      dup7\n      add\n      mstore\n      0x05\n      dup3\n      add\n      sload\n      0x0120\n      dup7\n      add\n      mstore\n      0x06\n      dup1\n      dup4\n      add\n      sload\n      0x0140\n      dup8\n      add\n      mstore\n      0x07\n      dup4\n      add\n      sload\n      0x0160\n      dup8\n      add\n      mstore\n      0x08\n      dup4\n      add\n      sload\n      0x0180\n      dup8\n      add\n      mstore\n      0x09\n      dup4\n      add\n      sload\n      dup3\n      and\n      0x01a0\n      dup8\n      add\n      mstore\n      0x0a\n      dup4\n      add\n      sload\n      swap1\n      swap2\n      and\n      0x01c0\n      dup7\n      add\n      mstore\n      0x0b\n      dup3\n      add\n      sload\n      0x01e0\n      dup7\n      add\n      mstore\n      swap2\n      add\n      sload\n      swap1\n      swap2\n      and\n      swap2\n      swap1\n      dup3\n      lt\n      iszero\n      tag_132\n      jumpi\n      0x0220\n      swap2\n      0x0200\n      dup3\n      add\n      mstore\n      tag_306\n      mload(0x40)\n      dup1\n      swap3\n      tag_6\n      jump\t// in\n    tag_306:\n      return\n    tag_52:\n      jumpi(tag_90, slt(add(not(0x03), calldatasize), 0x40))\n      tag_309\n      tag_2\n      jump\t// in\n    tag_309:\n      calldataload(0x24)\n        /* \"LockableContract.sol\":630:660  require(contractEnabled, \"L1\") */\n      tag_310\n        /* \"DealCreationManager.sol\":121:11941  contract DealCreationManager is WalletContract {... */\n      and(shr(0xa0, sload(0x00)), 0xff)\n        /* \"LockableContract.sol\":630:660  require(contractEnabled, \"L1\") */\n      tag_7\n      jump\t// in\n    tag_310:\n        /* \"WalletContract.sol\":1831:1856  require(amount > 0, \"C5\") */\n      tag_311\n        /* \"WalletContract.sol\":1839:1849  amount > 0 */\n      dup2\n      iszero\n      iszero\n        /* \"WalletContract.sol\":1831:1856  require(amount > 0, \"C5\") */\n      tag_19\n      jump\t// in\n    tag_311:\n        /* \"WalletContract.sol\":1953:1977  depositCommissionPercent */\n      0x02\n        /* \"DealCreationManager.sol\":121:11941  contract DealCreationManager is WalletContract {... */\n      sload\n      mload(0x40)\n      swap1\n      shl(0xe0, 0x1c8f0847)\n        /* \"WalletContract.sol\":1923:1978  Percent.applyToNumber(amount, depositCommissionPercent) */\n      dup3\n      mstore\n      dup3\n        /* \"DealCreationManager.sol\":121:11941  contract DealCreationManager is WalletContract {... */\n      0x04\n        /* \"WalletContract.sol\":1923:1978  Percent.applyToNumber(amount, depositCommissionPercent) */\n      dup4\n      add\n        /* \"DealCreationManager.sol\":121:11941  contract DealCreationManager is WalletContract {... */\n      mstore\n      0x24\n      dup3\n      add\n      mstore\n      0x20\n        /* \"WalletContract.sol\":1923:1930  Percent */\n      dup2\n        /* \"WalletContract.sol\":1923:1978  Percent.applyToNumber(amount, depositCommissionPercent) */\n      0x44\n        /* \"WalletContract.sol\":1923:1930  Percent */\n      dup2\n      linkerSymbol(\"8537b7efa173772577da826929141ce9397d1aa5c05ce45dab4f7ac968e3002d\")\n        /* \"WalletContract.sol\":1923:1978  Percent.applyToNumber(amount, depositCommissionPercent) */\n      gas\n      delegatecall\n      swap1\n      dup2\n      iszero\n      tag_125\n      jumpi\n        /* \"DealCreationManager.sol\":121:11941  contract DealCreationManager is WalletContract {... */\n      0x00\n        /* \"WalletContract.sol\":1923:1978  Percent.applyToNumber(amount, depositCommissionPercent) */\n      swap2\n      tag_314\n      jumpi\n        /* \"DealCreationManager.sol\":121:11941  contract DealCreationManager is WalletContract {... */\n    tag_315:\n      pop\n      sub(shl(0xa0, 0x01), 0x01)\n      dup4\n      and\n      swap3\n        /* \"WalletContract.sol\":2079:2098  token == address(0) */\n      dup4\n        /* \"DealCreationManager.sol\":121:11941  contract DealCreationManager is WalletContract {... */\n      tag_316\n      jumpi\n        /* \"WalletContract.sol\":2236:2255  amount + commission */\n      tag_318\n      dup3\n      dup5\n      tag_22\n      jump\t// in\n    tag_318:\n        /* \"WalletContract.sol\":2223:2232  msg.value */\n      callvalue\n        /* \"WalletContract.sol\":2223:2255  msg.value == amount + commission */\n      sub\n        /* \"DealCreationManager.sol\":121:11941  contract DealCreationManager is WalletContract {... */\n      tag_153\n      jumpi\n        /* \"WalletContract.sol\":2292:2302  msg.sender */\n      dup2\n      dup2\n        /* \"WalletContract.sol\":2279:2318  addBalanceTo(msg.sender, token, amount) */\n      tag_321\n        /* \"WalletContract.sol\":2292:2302  msg.sender */\n      dup6\n        /* \"WalletContract.sol\":2333:2384  addBalanceTo(commissionRecipient,token, commission) */\n      tag_322\n        /* \"WalletContract.sol\":2292:2302  msg.sender */\n      swap5\n      caller\n        /* \"WalletContract.sol\":2279:2318  addBalanceTo(msg.sender, token, amount) */\n      tag_30\n      jump\t// in\n    tag_321:\n      pop\n        /* \"WalletContract.sol\":2346:2365  commissionRecipient */\n      0x03\n        /* \"DealCreationManager.sol\":121:11941  contract DealCreationManager is WalletContract {... */\n      sload\n      sub(shl(0xa0, 0x01), 0x01)\n      and\n        /* \"WalletContract.sol\":2333:2384  addBalanceTo(commissionRecipient,token, commission) */\n      tag_30\n      jump\t// in\n    tag_322:\n      pop\n        /* \"WalletContract.sol\":2075:2639  if (token == address(0)) {... */\n    tag_323:\n        /* \"DealCreationManager.sol\":121:11941  contract DealCreationManager is WalletContract {... */\n      mload(0x40)\n      swap2\n      dup3\n      mstore\n      0x20\n      dup3\n      add\n      mstore\n      0x00\n      dup1\n      mload\n      0x20\n      data_f153f45295e6c417ef2e31903186ee1a5d0c2546461fb67769dfe29ae5912c6f\n      dup4\n      codecopy\n      dup2\n      mload\n      swap2\n      mstore\n      0x40\n        /* \"WalletContract.sol\":2664:2674  msg.sender */\n      caller\n        /* \"WalletContract.sol\":2656:2701  Deposit(msg.sender, token,amount, commission) */\n      swap3\n      log3\n        /* \"DealCreationManager.sol\":121:11941  contract DealCreationManager is WalletContract {... */\n      stop\n        /* \"WalletContract.sol\":2075:2639  if (token == address(0)) {... */\n    tag_316:\n        /* \"WalletContract.sol\":2478:2497  amount + commission */\n      tag_324\n      dup3\n      dup5\n      tag_22\n      jump\t// in\n    tag_324:\n        /* \"DealCreationManager.sol\":121:11941  contract DealCreationManager is WalletContract {... */\n      mload(0x40)\n      swap1\n      shl(0xe0, 0x23b872dd)\n        /* \"WalletContract.sol\":2425:2498  NET20(token).transferFrom(msg.sender, address(this), amount + commission) */\n      dup3\n      mstore\n        /* \"WalletContract.sol\":2451:2461  msg.sender */\n      caller\n        /* \"DealCreationManager.sol\":121:11941  contract DealCreationManager is WalletContract {... */\n      0x04\n        /* \"WalletContract.sol\":2425:2498  NET20(token).transferFrom(msg.sender, address(this), amount + commission) */\n      dup4\n      add\n        /* \"DealCreationManager.sol\":121:11941  contract DealCreationManager is WalletContract {... */\n      mstore\n        /* \"WalletContract.sol\":2471:2475  this */\n      address\n        /* \"DealCreationManager.sol\":121:11941  contract DealCreationManager is WalletContract {... */\n      0x24\n      dup4\n      add\n      mstore\n        /* \"WalletContract.sol\":1923:1978  Percent.applyToNumber(amount, depositCommissionPercent) */\n      0x44\n        /* \"DealCreationManager.sol\":121:11941  contract DealCreationManager is WalletContract {... */\n      dup3\n      add\n      mstore\n      0x20\n        /* \"WalletContract.sol\":2425:2498  NET20(token).transferFrom(msg.sender, address(this), amount + commission) */\n      dup2\n      0x64\n      dup2\n        /* \"DealCreationManager.sol\":121:11941  contract DealCreationManager is WalletContract {... */\n      0x00\n        /* \"WalletContract.sol\":2425:2498  NET20(token).transferFrom(msg.sender, address(this), amount + commission) */\n      dup10\n      gas\n      call\n      swap1\n      dup2\n      iszero\n      tag_125\n      jumpi\n        /* \"DealCreationManager.sol\":121:11941  contract DealCreationManager is WalletContract {... */\n      0x00\n        /* \"WalletContract.sol\":2425:2498  NET20(token).transferFrom(msg.sender, address(this), amount + commission) */\n      swap2\n      tag_327\n      jumpi\n        /* \"WalletContract.sol\":2075:2639  if (token == address(0)) {... */\n    tag_328:\n        /* \"DealCreationManager.sol\":121:11941  contract DealCreationManager is WalletContract {... */\n      pop\n      iszero\n      tag_163\n      jumpi\n        /* \"WalletContract.sol\":2451:2461  msg.sender */\n      dup2\n      dup2\n        /* \"WalletContract.sol\":2522:2561  addBalanceTo(msg.sender, token, amount) */\n      tag_321\n        /* \"WalletContract.sol\":2451:2461  msg.sender */\n      dup6\n        /* \"WalletContract.sol\":2576:2627  addBalanceTo(commissionRecipient,token, commission) */\n      tag_332\n        /* \"WalletContract.sol\":2451:2461  msg.sender */\n      swap5\n      caller\n        /* \"WalletContract.sol\":2522:2561  addBalanceTo(msg.sender, token, amount) */\n      tag_30\n      jump\t// in\n        /* \"WalletContract.sol\":2576:2627  addBalanceTo(commissionRecipient,token, commission) */\n    tag_332:\n      pop\n        /* \"WalletContract.sol\":2075:2639  if (token == address(0)) {... */\n      jump(tag_323)\n        /* \"WalletContract.sol\":2425:2498  NET20(token).transferFrom(msg.sender, address(this), amount + commission) */\n    tag_327:\n      swap1\n      pop\n        /* \"DealCreationManager.sol\":121:11941  contract DealCreationManager is WalletContract {... */\n      0x20\n        /* \"WalletContract.sol\":2425:2498  NET20(token).transferFrom(msg.sender, address(this), amount + commission) */\n      dup2\n      returndatasize\n        /* \"DealCreationManager.sol\":121:11941  contract DealCreationManager is WalletContract {... */\n      0x20\n        /* \"WalletContract.sol\":2425:2498  NET20(token).transferFrom(msg.sender, address(this), amount + commission) */\n      gt\n      tag_333\n      jumpi\n    tag_334:\n      dup2\n      tag_335\n        /* \"DealCreationManager.sol\":121:11941  contract DealCreationManager is WalletContract {... */\n      0x20\n        /* \"WalletContract.sol\":2425:2498  NET20(token).transferFrom(msg.sender, address(this), amount + commission) */\n      swap4\n      dup4\n      tag_10\n      jump\t// in\n    tag_335:\n      dup2\n      add\n        /* \"DealCreationManager.sol\":121:11941  contract DealCreationManager is WalletContract {... */\n      sub\n      slt\n      tag_90\n      jumpi\n      tag_338\n      swap1\n      tag_12\n      jump\t// in\n    tag_338:\n        /* \"WalletContract.sol\":2425:2498  NET20(token).transferFrom(msg.sender, address(this), amount + commission) */\n      dup6\n      jump(tag_328)\n    tag_333:\n      returndatasize\n      swap2\n      pop\n      jump(tag_334)\n        /* \"WalletContract.sol\":1923:1978  Percent.applyToNumber(amount, depositCommissionPercent) */\n    tag_314:\n      swap1\n      pop\n        /* \"DealCreationManager.sol\":121:11941  contract DealCreationManager is WalletContract {... */\n      0x20\n        /* \"WalletContract.sol\":1923:1978  Percent.applyToNumber(amount, depositCommissionPercent) */\n      dup2\n      returndatasize\n        /* \"DealCreationManager.sol\":121:11941  contract DealCreationManager is WalletContract {... */\n      0x20\n        /* \"WalletContract.sol\":1923:1978  Percent.applyToNumber(amount, depositCommissionPercent) */\n      gt\n      tag_339\n      jumpi\n    tag_340:\n      dup2\n      tag_341\n        /* \"DealCreationManager.sol\":121:11941  contract DealCreationManager is WalletContract {... */\n      0x20\n        /* \"WalletContract.sol\":1923:1978  Percent.applyToNumber(amount, depositCommissionPercent) */\n      swap4\n      dup4\n      tag_10\n      jump\t// in\n    tag_341:\n      dup2\n      add\n        /* \"DealCreationManager.sol\":121:11941  contract DealCreationManager is WalletContract {... */\n      sub\n      slt\n      tag_90\n      jumpi\n      mload\n        /* \"WalletContract.sol\":1923:1978  Percent.applyToNumber(amount, depositCommissionPercent) */\n      dup4\n      jump(tag_315)\n    tag_339:\n      returndatasize\n      swap2\n      pop\n      jump(tag_340)\n        /* \"DealCreationManager.sol\":121:11941  contract DealCreationManager is WalletContract {... */\n    tag_50:\n      jumpi(tag_90, callvalue)\n      jumpi(tag_90, slt(add(not(0x03), calldatasize), 0x00))\n      0x20\n      and(shr(0xa0, sload(0x00)), 0xff)\n      mload(0x40)\n      swap1\n      iszero\n      iszero\n      dup2\n      mstore\n      return\n    tag_48:\n      jumpi(tag_90, callvalue)\n      jumpi(tag_90, slt(add(not(0x03), calldatasize), 0x20))\n      calldataload(0x04)\n      dup1\n      0x00\n      mstore\n      mstore(0x20, 0x04)\n      keccak256(0x00, 0x40)\n        /* \"DealCreationManager.sol\":5094:5111  deal.counterparty */\n      swap1\n        /* \"DealCreationManager.sol\":121:11941  contract DealCreationManager is WalletContract {... */\n      0x01\n        /* \"DealCreationManager.sol\":5094:5111  deal.counterparty */\n      dup3\n      add\n        /* \"DealCreationManager.sol\":121:11941  contract DealCreationManager is WalletContract {... */\n      swap2\n        /* \"DealCreationManager.sol\":5086:5132  require(deal.counterparty == msg.sender, \"D5\") */\n      tag_352\n        /* \"DealCreationManager.sol\":121:11941  contract DealCreationManager is WalletContract {... */\n      0x01\n      dup1\n      0xa0\n      shl\n      sub\n      dup5\n      sload\n      and\n        /* \"DealCreationManager.sol\":5115:5125  msg.sender */\n      caller\n        /* \"DealCreationManager.sol\":5094:5125  deal.counterparty == msg.sender */\n      eq\n        /* \"DealCreationManager.sol\":5086:5132  require(deal.counterparty == msg.sender, \"D5\") */\n      tag_23\n      jump\t// in\n    tag_352:\n        /* \"DealCreationManager.sol\":5151:5166  deal.isTwoSided */\n      0x02\n      dup2\n      add\n        /* \"DealCreationManager.sol\":121:11941  contract DealCreationManager is WalletContract {... */\n      swap1\n        /* \"DealCreationManager.sol\":5250:5318  require(deal.isCompleted == false && deal.isCanceled == false, \"D3\") */\n      tag_353\n        /* \"DealCreationManager.sol\":121:11941  contract DealCreationManager is WalletContract {... */\n      dup3\n      sload\n        /* \"DealCreationManager.sol\":5143:5175  require(deal.isTwoSided, \"D3.1\") */\n      tag_197\n        /* \"DealCreationManager.sol\":121:11941  contract DealCreationManager is WalletContract {... */\n      0xff\n      dup3\n      0xb0\n      shr\n      and\n        /* \"DealCreationManager.sol\":5143:5175  require(deal.isTwoSided, \"D3.1\") */\n      tag_24\n      jump\t// in\n        /* \"DealCreationManager.sol\":5250:5318  require(deal.isCompleted == false && deal.isCanceled == false, \"D3\") */\n    tag_353:\n        /* \"DealCreationManager.sol\":5361:5390  deal.counterpartyTokenAddress */\n      0x0a\n      dup2\n      add\n        /* \"DealCreationManager.sol\":121:11941  contract DealCreationManager is WalletContract {... */\n      sload\n        /* \"DealCreationManager.sol\":5115:5125  msg.sender */\n      caller\n      0x00\n        /* \"DealCreationManager.sol\":121:11941  contract DealCreationManager is WalletContract {... */\n      swap1\n      dup2\n      mstore\n      0x01\n      0x20\n      swap1\n      dup2\n      mstore\n      0x40\n      dup1\n      dup4\n      keccak256\n      sub(shl(0xa0, 0x01), 0x01)\n      swap1\n      swap5\n      and\n      dup1\n      dup5\n      mstore\n      swap4\n      swap1\n      swap2\n      mstore\n      swap1\n      keccak256\n      sload\n        /* \"DealCreationManager.sol\":5444:5534  removeBalanceFrom(msg.sender,deal.counterpartyTokenAddress, deal.counterpartyCreateAmount) */\n      tag_204\n      swap2\n        /* \"DealCreationManager.sol\":5331:5431  require(balanceOf(msg.sender, deal.counterpartyTokenAddress) >= deal.counterpartyCreateAmount, \"T1\") */\n      tag_360\n        /* \"DealCreationManager.sol\":121:11941  contract DealCreationManager is WalletContract {... */\n      0x04\n        /* \"DealCreationManager.sol\":5395:5424  deal.counterpartyCreateAmount */\n      dup6\n      add\n        /* \"DealCreationManager.sol\":121:11941  contract DealCreationManager is WalletContract {... */\n      sload\n        /* \"DealCreationManager.sol\":5339:5424  balanceOf(msg.sender, deal.counterpartyTokenAddress) >= deal.counterpartyCreateAmount */\n      dup1\n      swap4\n      lt\n      iszero\n        /* \"DealCreationManager.sol\":5331:5431  require(balanceOf(msg.sender, deal.counterpartyTokenAddress) >= deal.counterpartyCreateAmount, \"T1\") */\n      tag_8\n      jump\t// in\n    tag_360:\n        /* \"DealCreationManager.sol\":5115:5125  msg.sender */\n      caller\n        /* \"DealCreationManager.sol\":5444:5534  removeBalanceFrom(msg.sender,deal.counterpartyTokenAddress, deal.counterpartyCreateAmount) */\n      tag_29\n      jump\t// in\n        /* \"DealCreationManager.sol\":121:11941  contract DealCreationManager is WalletContract {... */\n    tag_46:\n      jumpi(tag_90, callvalue)\n      jumpi(tag_90, slt(add(not(0x03), calldatasize), 0x20))\n      calldataload(0x04)\n        /* \"WalletContract.sol\":1625:1649  depositCommissionPercent */\n      0x02\n        /* \"DealCreationManager.sol\":121:11941  contract DealCreationManager is WalletContract {... */\n      sload\n      mload(0x40)\n      swap1\n      shl(0xe0, 0x1c8f0847)\n        /* \"WalletContract.sol\":1595:1650  Percent.applyToNumber(amount, depositCommissionPercent) */\n      dup3\n      mstore\n      dup3\n        /* \"DealCreationManager.sol\":121:11941  contract DealCreationManager is WalletContract {... */\n      0x04\n        /* \"WalletContract.sol\":1595:1650  Percent.applyToNumber(amount, depositCommissionPercent) */\n      dup4\n      add\n        /* \"DealCreationManager.sol\":121:11941  contract DealCreationManager is WalletContract {... */\n      mstore\n      0x24\n      dup3\n      add\n      mstore\n      0x20\n        /* \"WalletContract.sol\":1595:1602  Percent */\n      dup2\n        /* \"WalletContract.sol\":1595:1650  Percent.applyToNumber(amount, depositCommissionPercent) */\n      0x44\n        /* \"WalletContract.sol\":1595:1602  Percent */\n      dup2\n      linkerSymbol(\"8537b7efa173772577da826929141ce9397d1aa5c05ce45dab4f7ac968e3002d\")\n        /* \"WalletContract.sol\":1595:1650  Percent.applyToNumber(amount, depositCommissionPercent) */\n      gas\n      delegatecall\n      swap1\n      dup2\n      iszero\n      tag_125\n      jumpi\n        /* \"DealCreationManager.sol\":121:11941  contract DealCreationManager is WalletContract {... */\n      0x00\n        /* \"WalletContract.sol\":1595:1650  Percent.applyToNumber(amount, depositCommissionPercent) */\n      swap2\n      tag_369\n      jumpi\n        /* \"DealCreationManager.sol\":121:11941  contract DealCreationManager is WalletContract {... */\n    tag_370:\n      0x20\n        /* \"WalletContract.sol\":1668:1687  amount + commission */\n      tag_371\n      dup4\n      dup6\n      tag_22\n      jump\t// in\n    tag_371:\n        /* \"DealCreationManager.sol\":121:11941  contract DealCreationManager is WalletContract {... */\n      mload(0x40)\n      swap1\n      dup2\n      mstore\n      return\n        /* \"WalletContract.sol\":1595:1650  Percent.applyToNumber(amount, depositCommissionPercent) */\n    tag_369:\n      swap1\n      pop\n        /* \"DealCreationManager.sol\":121:11941  contract DealCreationManager is WalletContract {... */\n      0x20\n        /* \"WalletContract.sol\":1595:1650  Percent.applyToNumber(amount, depositCommissionPercent) */\n      dup2\n      returndatasize\n        /* \"DealCreationManager.sol\":121:11941  contract DealCreationManager is WalletContract {... */\n      0x20\n        /* \"WalletContract.sol\":1595:1650  Percent.applyToNumber(amount, depositCommissionPercent) */\n      gt\n      tag_372\n      jumpi\n    tag_373:\n      dup2\n      tag_374\n        /* \"DealCreationManager.sol\":121:11941  contract DealCreationManager is WalletContract {... */\n      0x20\n        /* \"WalletContract.sol\":1595:1650  Percent.applyToNumber(amount, depositCommissionPercent) */\n      swap4\n      dup4\n      tag_10\n      jump\t// in\n    tag_374:\n      dup2\n      add\n        /* \"DealCreationManager.sol\":121:11941  contract DealCreationManager is WalletContract {... */\n      sub\n      slt\n      tag_90\n      jumpi\n      mload\n      0x20\n        /* \"WalletContract.sol\":1595:1650  Percent.applyToNumber(amount, depositCommissionPercent) */\n      jump(tag_370)\n    tag_372:\n      returndatasize\n      swap2\n      pop\n      jump(tag_373)\n        /* \"DealCreationManager.sol\":121:11941  contract DealCreationManager is WalletContract {... */\n    tag_44:\n      jumpi(tag_90, callvalue)\n      jumpi(tag_90, slt(add(not(0x03), calldatasize), 0x00))\n      sload(0x00)\n        /* \"LockableContract.sol\":474:509  require(msg.sender == _owner, \"L2\") */\n      tag_381\n        /* \"LockableContract.sol\":482:492  msg.sender */\n      caller\n      sub(shl(0xa0, 0x01), 0x01)\n        /* \"DealCreationManager.sol\":121:11941  contract DealCreationManager is WalletContract {... */\n      dup4\n      and\n        /* \"LockableContract.sol\":482:502  msg.sender == _owner */\n      eq\n        /* \"LockableContract.sol\":474:509  require(msg.sender == _owner, \"L2\") */\n      tag_18\n      jump\t// in\n    tag_381:\n      not(shl(0xa0, 0xff))\n        /* \"DealCreationManager.sol\":121:11941  contract DealCreationManager is WalletContract {... */\n      and\n      shl(0xa0, 0x01)\n      or\n      0x00\n      sstore\n      mload(0x40)\n      0x01\n      dup2\n      mstore\n        /* \"LockableContract.sol\":1493:1520  ContractStatusChanged(true) */\n      0x017904e4fe7d59bb4603c7c045bc275a05da9ea3a4ac007fc80fffeaf119186d\n      swap1\n        /* \"DealCreationManager.sol\":121:11941  contract DealCreationManager is WalletContract {... */\n      0x20\n      swap1\n        /* \"LockableContract.sol\":1493:1520  ContractStatusChanged(true) */\n      log1\n        /* \"DealCreationManager.sol\":121:11941  contract DealCreationManager is WalletContract {... */\n      stop\n    tag_42:\n      tag_382\n      calldatasize\n      tag_4\n      jump\t// in\n    tag_382:\n      swap2\n      swap6\n      swap4\n      0xff\n      0x00\n      swap7\n      swap5\n      swap3\n      swap7\n      sload\n      0xa0\n      shr\n      and\n        /* \"LockableContract.sol\":630:660  require(contractEnabled, \"L1\") */\n      swap3\n      tag_383\n      dup5\n      tag_7\n      jump\t// in\n    tag_383:\n        /* \"DealCreationManager.sol\":9476:9486  msg.sender */\n      caller\n        /* \"DealCreationManager.sol\":121:11941  contract DealCreationManager is WalletContract {... */\n      0x00\n      mstore\n        /* \"WalletContract.sol\":3819:3827  balances */\n      0x01\n        /* \"DealCreationManager.sol\":121:11941  contract DealCreationManager is WalletContract {... */\n      0x20\n      mstore\n      keccak256(0x00, 0x40)\n      0x01\n      dup1\n      0xa0\n      shl\n      sub\n      dup10\n      and\n      0x00\n      mstore\n      0x20\n      mstore\n      sload(keccak256(0x00, 0x40))\n        /* \"DealCreationManager.sol\":9517:9533  balance < amount */\n      dup3\n      dup2\n      lt\n        /* \"DealCreationManager.sol\":9514:9651  if(balance < amount)... */\n      tag_384\n      jumpi\n        /* \"DealCreationManager.sol\":121:11941  contract DealCreationManager is WalletContract {... */\n    tag_385:\n        /* \"DealCreationManager.sol\":9476:9486  msg.sender */\n      pop\n        /* \"DealCreationManager.sol\":9748:10070  DealContract.createDeal(... */\n      0x0220\n        /* \"DealCreationManager.sol\":9476:9486  msg.sender */\n      swap4\n      pop\n        /* \"DealCreationManager.sol\":9748:10070  DealContract.createDeal(... */\n      tag_386\n        /* \"DealCreationManager.sol\":9476:9486  msg.sender */\n      swap1\n        /* \"DealCreationManager.sol\":9663:9713  removeBalanceFrom(msg.sender,tokenAddress, amount) */\n      tag_387\n        /* \"DealCreationManager.sol\":9476:9486  msg.sender */\n      dup4\n      dup11\n      caller\n        /* \"DealCreationManager.sol\":9663:9713  removeBalanceFrom(msg.sender,tokenAddress, amount) */\n      tag_29\n      jump\t// in\n    tag_387:\n      pop\n        /* \"DealCreationManager.sol\":9748:9760  DealContract */\n      linkerSymbol(\"69ea93bdf3b1e5da8164bfe3d9a878d76513f7578d5d6de42df0d798ffe42624\")\n        /* \"DealCreationManager.sol\":121:11941  contract DealCreationManager is WalletContract {... */\n      swap8\n      mload(0x40)\n      swap10\n      dup11\n      swap6\n      dup7\n      swap6\n      shl(0xe0, 0x652e83d7)\n        /* \"DealCreationManager.sol\":9748:10070  DealContract.createDeal(... */\n      dup8\n      mstore\n        /* \"DealCreationManager.sol\":9476:9486  msg.sender */\n      dup10\n      dup12\n      caller\n        /* \"DealCreationManager.sol\":121:11941  contract DealCreationManager is WalletContract {... */\n      0x04\n        /* \"DealCreationManager.sol\":9748:10070  DealContract.createDeal(... */\n      dup11\n      add\n      tag_20\n      jump\t// in\n    tag_386:\n      sub\n      dup2\n      dup7\n      gas\n      delegatecall\n      swap4\n      dup5\n      iszero\n      tag_125\n      jumpi\n        /* \"DealCreationManager.sol\":121:11941  contract DealCreationManager is WalletContract {... */\n      0x00\n        /* \"DealCreationManager.sol\":9748:10070  DealContract.createDeal(... */\n      swap5\n      tag_390\n      jumpi\n        /* \"DealCreationManager.sol\":121:11941  contract DealCreationManager is WalletContract {... */\n    tag_391:\n      pop\n      0x20\n        /* \"DealCreationManager.sol\":10169:10179  totalDeals */\n      0x05\n        /* \"DealCreationManager.sol\":121:11941  contract DealCreationManager is WalletContract {... */\n      sload\n        /* \"DealCreationManager.sol\":10135:10180  DealContract.createDealId(newDeal,totalDeals) */\n      0x0244\n        /* \"DealCreationManager.sol\":121:11941  contract DealCreationManager is WalletContract {... */\n      mload(0x40)\n      dup1\n      swap7\n      dup2\n      swap4\n      shl(0xe0, 0x797d4ee1)\n        /* \"DealCreationManager.sol\":10135:10180  DealContract.createDealId(newDeal,totalDeals) */\n      dup4\n      mstore\n        /* \"DealCreationManager.sol\":121:11941  contract DealCreationManager is WalletContract {... */\n      tag_392\n      0x04\n        /* \"DealCreationManager.sol\":10135:10180  DealContract.createDealId(newDeal,totalDeals) */\n      dup5\n      add\n        /* \"DealCreationManager.sol\":121:11941  contract DealCreationManager is WalletContract {... */\n      dup12\n      tag_6\n      jump\t// in\n    tag_392:\n      0x0224\n      dup4\n      add\n      mstore\n        /* \"DealCreationManager.sol\":10135:10180  DealContract.createDealId(newDeal,totalDeals) */\n      gas\n      delegatecall\n      swap3\n      dup4\n      iszero\n      tag_125\n      jumpi\n        /* \"DealCreationManager.sol\":121:11941  contract DealCreationManager is WalletContract {... */\n      0x00\n        /* \"DealCreationManager.sol\":10135:10180  DealContract.createDealId(newDeal,totalDeals) */\n      swap4\n      tag_395\n      jumpi\n        /* \"DealCreationManager.sol\":121:11941  contract DealCreationManager is WalletContract {... */\n    tag_396:\n      pop\n        /* \"DealCreationManager.sol\":10191:10203  totalDeals++ */\n      tag_397\n        /* \"DealCreationManager.sol\":10169:10179  totalDeals */\n      0x05\n        /* \"DealCreationManager.sol\":121:11941  contract DealCreationManager is WalletContract {... */\n      sload\n        /* \"DealCreationManager.sol\":10191:10203  totalDeals++ */\n      tag_15\n      jump\t// in\n    tag_397:\n        /* \"DealCreationManager.sol\":10169:10179  totalDeals */\n      0x05\n        /* \"DealCreationManager.sol\":121:11941  contract DealCreationManager is WalletContract {... */\n      sstore\n      0x00\n      dup4\n      dup2\n      mstore\n      0x04\n      0x20\n      swap1\n      dup2\n      mstore\n      0x40\n      swap2\n      dup3\n      swap1\n      keccak256\n      dup7\n      mload\n      dup2\n      sload\n      sub(shl(0xa0, 0x01), 0x01)\n      swap2\n      dup3\n      and\n      not(sub(shl(0xa0, 0x01), 0x01))\n      swap2\n      dup3\n      and\n      or\n      dup4\n      sstore\n      swap3\n      dup9\n      add\n      mload\n      0x01\n      dup4\n      add\n      dup1\n      sload\n      swap2\n      dup4\n      and\n      swap2\n      swap1\n      swap5\n      and\n      or\n      swap1\n      swap3\n      sstore\n      swap2\n      dup7\n      add\n      mload\n      0x02\n      dup4\n      add\n      dup1\n      sload\n      0x60\n      dup10\n      add\n      mload\n      shl(0xa0, 0xff)\n      swap1\n      iszero\n      iszero\n      0xa0\n      shl\n      and\n      swap3\n      swap1\n      swap4\n      and\n      not(sub(shl(0xa8, 0x01), 0x01))\n      swap1\n      swap4\n      and\n      swap3\n      swap1\n      swap3\n      or\n      or\n      dup2\n      sstore\n      0x0200\n      swap2\n      0x0c\n      swap2\n      tag_398\n      swap1\n      jump(tag_131)\n    tag_398:\n      0xe0\n      dup8\n      add\n      mload\n      0x03\n      dup3\n      add\n      sstore\n      0x0100\n      dup8\n      add\n      mload\n      0x04\n      dup3\n      add\n      sstore\n      0x0120\n      dup8\n      add\n      mload\n        /* \"DealCreationManager.sol\":10169:10179  totalDeals */\n      0x05\n        /* \"DealCreationManager.sol\":121:11941  contract DealCreationManager is WalletContract {... */\n      dup3\n      add\n      sstore\n      0x0140\n      dup8\n      add\n      mload\n      0x06\n      dup1\n      dup4\n      add\n      swap2\n      swap1\n      swap2\n      sstore\n      0x0160\n      dup9\n      add\n      mload\n      0x07\n      dup4\n      add\n      sstore\n      0x0180\n      dup9\n      add\n      mload\n      0x08\n      dup4\n      add\n      sstore\n      0x01a0\n      dup9\n      add\n      mload\n      0x09\n      dup4\n      add\n      dup1\n      sload\n      sub(shl(0xa0, 0x01), 0x01)\n      swap3\n      dup4\n      and\n      not(sub(shl(0xa0, 0x01), 0x01))\n      swap2\n      dup3\n      and\n      or\n      swap1\n      swap2\n      sstore\n      0x01c0\n      dup11\n      add\n      mload\n      0x0a\n      dup6\n      add\n      dup1\n      sload\n      swap2\n      swap1\n      swap4\n      and\n      swap2\n      and\n      or\n      swap1\n      sstore\n      0x01e0\n      dup9\n      add\n      mload\n      0x0b\n      dup4\n      add\n      sstore\n      swap3\n      swap1\n      swap7\n      add\n      mload\n      swap6\n      add\n      swap1\n      dup6\n      lt\n      iszero\n      tag_132\n      jumpi\n      0x20\n      swap5\n      0xff\n      dup1\n      not\n      dup4\n      sload\n      and\n      swap2\n      and\n      or\n      swap1\n      sstore\n      mload(0x40)\n      swap1\n      0x01\n      dup1\n      0xa0\n      shl\n      sub\n      and\n      swap2\n      dup3\n      dup3\n      mstore\n      0x01\n      dup1\n      0xa0\n      shl\n      sub\n      and\n        /* \"DealCreationManager.sol\":9476:9486  msg.sender */\n      swap1\n      dup4\n        /* \"DealCreationManager.sol\":10283:10338  DealCreated(dealId, msg.sender, counterparty, mediator) */\n      0x5e02698c1650d6cbe1f7e8a48609d0da45ad7f5e4c13cd8b196f82965c0ab0d5\n        /* \"DealCreationManager.sol\":9476:9486  msg.sender */\n      dup7\n      caller\n        /* \"DealCreationManager.sol\":10283:10338  DealCreated(dealId, msg.sender, counterparty, mediator) */\n      swap4\n      log4\n        /* \"DealCreationManager.sol\":10354:10376  mediator != address(0) */\n      dup1\n        /* \"DealCreationManager.sol\":10351:10459  if(mediator != address(0))... */\n      tag_402\n      jumpi\n        /* \"DealCreationManager.sol\":121:11941  contract DealCreationManager is WalletContract {... */\n    tag_403:\n      pop\n      mload(0x40)\n      swap1\n      dup2\n      mstore\n      return\n        /* \"DealCreationManager.sol\":10351:10459  if(mediator != address(0))... */\n    tag_402:\n        /* \"DealCreationManager.sol\":10407:10447  JoinedToDealAsMediator(mediator, dealId) */\n      0x957372c0e02d2882134cc0eebbef9e446634d8ccbb1cbb112bdefdd3cf0a643c\n        /* \"DealCreationManager.sol\":121:11941  contract DealCreationManager is WalletContract {... */\n      dup4\n      mload(0x40)\n      dup5\n      dup2\n      mstore\n        /* \"DealCreationManager.sol\":10407:10447  JoinedToDealAsMediator(mediator, dealId) */\n      log2\n        /* \"DealCreationManager.sol\":10351:10459  if(mediator != address(0))... */\n      dup3\n      jump(tag_403)\n        /* \"DealCreationManager.sol\":10135:10180  DealContract.createDealId(newDeal,totalDeals) */\n    tag_395:\n      swap1\n      swap3\n      pop\n        /* \"DealCreationManager.sol\":121:11941  contract DealCreationManager is WalletContract {... */\n      0x20\n        /* \"DealCreationManager.sol\":10135:10180  DealContract.createDealId(newDeal,totalDeals) */\n      dup2\n      returndatasize\n        /* \"DealCreationManager.sol\":121:11941  contract DealCreationManager is WalletContract {... */\n      0x20\n        /* \"DealCreationManager.sol\":10135:10180  DealContract.createDealId(newDeal,totalDeals) */\n      gt\n      tag_404\n      jumpi\n    tag_405:\n      dup2\n      tag_406\n        /* \"DealCreationManager.sol\":121:11941  contract DealCreationManager is WalletContract {... */\n      0x20\n        /* \"DealCreationManager.sol\":10135:10180  DealContract.createDealId(newDeal,totalDeals) */\n      swap4\n      dup4\n      tag_10\n      jump\t// in\n    tag_406:\n      dup2\n      add\n        /* \"DealCreationManager.sol\":121:11941  contract DealCreationManager is WalletContract {... */\n      sub\n      slt\n      tag_90\n      jumpi\n      mload\n        /* \"DealCreationManager.sol\":10135:10180  DealContract.createDealId(newDeal,totalDeals) */\n      swap2\n      dup5\n      jump(tag_396)\n    tag_404:\n      returndatasize\n      swap2\n      pop\n      jump(tag_405)\n        /* \"DealCreationManager.sol\":9748:10070  DealContract.createDeal(... */\n    tag_390:\n      tag_409\n      swap2\n      swap5\n      pop\n      0x0220\n      returndatasize\n      dup2\n      gt\n      tag_140\n      jumpi\n      tag_142\n      dup2\n      dup4\n      tag_10\n      jump\t// in\n    tag_409:\n      swap3\n      dup5\n      jump(tag_391)\n        /* \"DealCreationManager.sol\":9514:9651  if(balance < amount)... */\n    tag_384:\n        /* \"DealCreationManager.sol\":9581:9597  amount - balance */\n      tag_413\n        /* \"LockableContract.sol\":630:660  require(contractEnabled, \"L1\") */\n      tag_414\n        /* \"DealCreationManager.sol\":9581:9597  amount - balance */\n      swap2\n      dup5\n      tag_21\n      jump\t// in\n    tag_413:\n        /* \"LockableContract.sol\":630:660  require(contractEnabled, \"L1\") */\n      swap5\n      tag_7\n      jump\t// in\n    tag_414:\n        /* \"WalletContract.sol\":1831:1856  require(amount > 0, \"C5\") */\n      tag_415\n        /* \"WalletContract.sol\":1839:1849  amount > 0 */\n      dup5\n      iszero\n      iszero\n        /* \"WalletContract.sol\":1831:1856  require(amount > 0, \"C5\") */\n      tag_19\n      jump\t// in\n    tag_415:\n        /* \"WalletContract.sol\":1953:1977  depositCommissionPercent */\n      0x02\n        /* \"DealCreationManager.sol\":121:11941  contract DealCreationManager is WalletContract {... */\n      sload\n      swap1\n      mload(0x40)\n      swap2\n      shl(0xe0, 0x1c8f0847)\n        /* \"WalletContract.sol\":1923:1978  Percent.applyToNumber(amount, depositCommissionPercent) */\n      dup4\n      mstore\n      dup6\n        /* \"DealCreationManager.sol\":121:11941  contract DealCreationManager is WalletContract {... */\n      0x04\n        /* \"WalletContract.sol\":1923:1978  Percent.applyToNumber(amount, depositCommissionPercent) */\n      dup5\n      add\n        /* \"DealCreationManager.sol\":121:11941  contract DealCreationManager is WalletContract {... */\n      mstore\n      0x24\n      dup4\n      add\n      mstore\n      0x20\n        /* \"WalletContract.sol\":1923:1930  Percent */\n      dup3\n        /* \"WalletContract.sol\":1923:1978  Percent.applyToNumber(amount, depositCommissionPercent) */\n      0x44\n        /* \"WalletContract.sol\":1923:1930  Percent */\n      dup2\n      linkerSymbol(\"8537b7efa173772577da826929141ce9397d1aa5c05ce45dab4f7ac968e3002d\")\n        /* \"WalletContract.sol\":1923:1978  Percent.applyToNumber(amount, depositCommissionPercent) */\n      gas\n      delegatecall\n      swap2\n      dup3\n      iszero\n      tag_125\n      jumpi\n        /* \"DealCreationManager.sol\":121:11941  contract DealCreationManager is WalletContract {... */\n      0x00\n        /* \"WalletContract.sol\":1923:1978  Percent.applyToNumber(amount, depositCommissionPercent) */\n      swap3\n      tag_418\n      jumpi\n        /* \"DealCreationManager.sol\":9514:9651  if(balance < amount)... */\n    tag_419:\n      pop\n      sub(shl(0xa0, 0x01), 0x01)\n        /* \"DealCreationManager.sol\":121:11941  contract DealCreationManager is WalletContract {... */\n      dup10\n      and\n        /* \"WalletContract.sol\":2079:2098  token == address(0) */\n      dup1\n        /* \"DealCreationManager.sol\":121:11941  contract DealCreationManager is WalletContract {... */\n      tag_420\n      jumpi\n        /* \"WalletContract.sol\":2236:2255  amount + commission */\n      tag_422\n      dup4\n      dup8\n      tag_22\n      jump\t// in\n    tag_422:\n        /* \"WalletContract.sol\":2223:2232  msg.value */\n      callvalue\n        /* \"WalletContract.sol\":2223:2255  msg.value == amount + commission */\n      sub\n        /* \"DealCreationManager.sol\":121:11941  contract DealCreationManager is WalletContract {... */\n      tag_153\n      jumpi\n        /* \"DealCreationManager.sol\":9476:9486  msg.sender */\n      dup6\n        /* \"DealCreationManager.sol\":9748:10070  DealContract.createDeal(... */\n      tag_386\n        /* \"DealCreationManager.sol\":9476:9486  msg.sender */\n      swap4\n        /* \"WalletContract.sol\":2279:2318  addBalanceTo(msg.sender, token, amount) */\n      tag_425\n        /* \"DealCreationManager.sol\":9748:10070  DealContract.createDeal(... */\n      0x0220\n        /* \"DealCreationManager.sol\":9476:9486  msg.sender */\n      swap9\n      dup14\n      caller\n        /* \"WalletContract.sol\":2279:2318  addBalanceTo(msg.sender, token, amount) */\n      tag_30\n      jump\t// in\n    tag_425:\n      pop\n        /* \"WalletContract.sol\":2346:2365  commissionRecipient */\n      0x03\n        /* \"DealCreationManager.sol\":121:11941  contract DealCreationManager is WalletContract {... */\n      sload\n        /* \"WalletContract.sol\":2333:2384  addBalanceTo(commissionRecipient,token, commission) */\n      tag_426\n      swap1\n        /* \"DealCreationManager.sol\":121:11941  contract DealCreationManager is WalletContract {... */\n      dup3\n      swap1\n      dup15\n      swap1\n      sub(shl(0xa0, 0x01), 0x01)\n      and\n        /* \"WalletContract.sol\":2333:2384  addBalanceTo(commissionRecipient,token, commission) */\n      tag_30\n      jump\t// in\n    tag_426:\n      pop\n        /* \"WalletContract.sol\":2075:2639  if (token == address(0)) {... */\n    tag_427:\n        /* \"DealCreationManager.sol\":121:11941  contract DealCreationManager is WalletContract {... */\n      mload(0x40)\n      swap2\n      dup3\n      mstore\n      0x20\n      dup3\n      add\n      mstore\n      0x00\n      dup1\n      mload\n      0x20\n      data_f153f45295e6c417ef2e31903186ee1a5d0c2546461fb67769dfe29ae5912c6f\n      dup4\n      codecopy\n      dup2\n      mload\n      swap2\n      mstore\n      0x40\n        /* \"DealCreationManager.sol\":9476:9486  msg.sender */\n      caller\n        /* \"WalletContract.sol\":2656:2701  Deposit(msg.sender, token,amount, commission) */\n      swap3\n      log3\n        /* \"DealCreationManager.sol\":9514:9651  if(balance < amount)... */\n      swap1\n      jump(tag_385)\n        /* \"WalletContract.sol\":2075:2639  if (token == address(0)) {... */\n    tag_420:\n        /* \"WalletContract.sol\":2478:2497  amount + commission */\n      tag_428\n      dup4\n      dup8\n      tag_22\n      jump\t// in\n    tag_428:\n        /* \"DealCreationManager.sol\":121:11941  contract DealCreationManager is WalletContract {... */\n      mload(0x40)\n      swap1\n      shl(0xe0, 0x23b872dd)\n        /* \"WalletContract.sol\":2425:2498  NET20(token).transferFrom(msg.sender, address(this), amount + commission) */\n      dup3\n      mstore\n        /* \"DealCreationManager.sol\":9476:9486  msg.sender */\n      caller\n        /* \"DealCreationManager.sol\":121:11941  contract DealCreationManager is WalletContract {... */\n      0x04\n        /* \"WalletContract.sol\":2425:2498  NET20(token).transferFrom(msg.sender, address(this), amount + commission) */\n      dup4\n      add\n        /* \"DealCreationManager.sol\":121:11941  contract DealCreationManager is WalletContract {... */\n      mstore\n        /* \"WalletContract.sol\":2471:2475  this */\n      address\n        /* \"DealCreationManager.sol\":121:11941  contract DealCreationManager is WalletContract {... */\n      0x24\n      dup4\n      add\n      mstore\n        /* \"WalletContract.sol\":1923:1978  Percent.applyToNumber(amount, depositCommissionPercent) */\n      0x44\n        /* \"DealCreationManager.sol\":121:11941  contract DealCreationManager is WalletContract {... */\n      dup3\n      add\n      mstore\n      0x20\n        /* \"WalletContract.sol\":2425:2498  NET20(token).transferFrom(msg.sender, address(this), amount + commission) */\n      dup2\n      0x64\n      dup2\n        /* \"DealCreationManager.sol\":121:11941  contract DealCreationManager is WalletContract {... */\n      0x00\n        /* \"WalletContract.sol\":2425:2498  NET20(token).transferFrom(msg.sender, address(this), amount + commission) */\n      dup7\n      gas\n      call\n      swap1\n      dup2\n      iszero\n      tag_125\n      jumpi\n        /* \"DealCreationManager.sol\":121:11941  contract DealCreationManager is WalletContract {... */\n      0x00\n        /* \"WalletContract.sol\":2425:2498  NET20(token).transferFrom(msg.sender, address(this), amount + commission) */\n      swap2\n      tag_431\n      jumpi\n        /* \"WalletContract.sol\":2075:2639  if (token == address(0)) {... */\n    tag_432:\n        /* \"DealCreationManager.sol\":121:11941  contract DealCreationManager is WalletContract {... */\n      pop\n      iszero\n      tag_163\n      jumpi\n        /* \"DealCreationManager.sol\":9476:9486  msg.sender */\n      dup6\n        /* \"DealCreationManager.sol\":9748:10070  DealContract.createDeal(... */\n      tag_386\n        /* \"DealCreationManager.sol\":9476:9486  msg.sender */\n      swap4\n        /* \"WalletContract.sol\":2522:2561  addBalanceTo(msg.sender, token, amount) */\n      tag_435\n        /* \"DealCreationManager.sol\":9748:10070  DealContract.createDeal(... */\n      0x0220\n        /* \"DealCreationManager.sol\":9476:9486  msg.sender */\n      swap9\n      dup14\n      caller\n        /* \"WalletContract.sol\":2522:2561  addBalanceTo(msg.sender, token, amount) */\n      tag_30\n      jump\t// in\n    tag_435:\n      pop\n        /* \"WalletContract.sol\":2589:2608  commissionRecipient */\n      0x03\n        /* \"DealCreationManager.sol\":121:11941  contract DealCreationManager is WalletContract {... */\n      sload\n        /* \"WalletContract.sol\":2576:2627  addBalanceTo(commissionRecipient,token, commission) */\n      tag_436\n      swap1\n        /* \"DealCreationManager.sol\":121:11941  contract DealCreationManager is WalletContract {... */\n      dup3\n      swap1\n      dup15\n      swap1\n      sub(shl(0xa0, 0x01), 0x01)\n      and\n        /* \"WalletContract.sol\":2576:2627  addBalanceTo(commissionRecipient,token, commission) */\n      tag_30\n      jump\t// in\n    tag_436:\n      pop\n        /* \"WalletContract.sol\":2075:2639  if (token == address(0)) {... */\n      jump(tag_427)\n        /* \"WalletContract.sol\":2425:2498  NET20(token).transferFrom(msg.sender, address(this), amount + commission) */\n    tag_431:\n      swap1\n      pop\n        /* \"DealCreationManager.sol\":121:11941  contract DealCreationManager is WalletContract {... */\n      0x20\n        /* \"WalletContract.sol\":2425:2498  NET20(token).transferFrom(msg.sender, address(this), amount + commission) */\n      dup2\n      returndatasize\n        /* \"DealCreationManager.sol\":121:11941  contract DealCreationManager is WalletContract {... */\n      0x20\n        /* \"WalletContract.sol\":2425:2498  NET20(token).transferFrom(msg.sender, address(this), amount + commission) */\n      gt\n      tag_437\n      jumpi\n    tag_438:\n      dup2\n      tag_439\n        /* \"DealCreationManager.sol\":121:11941  contract DealCreationManager is WalletContract {... */\n      0x20\n        /* \"WalletContract.sol\":2425:2498  NET20(token).transferFrom(msg.sender, address(this), amount + commission) */\n      swap4\n      dup4\n      tag_10\n      jump\t// in\n    tag_439:\n      dup2\n      add\n        /* \"DealCreationManager.sol\":121:11941  contract DealCreationManager is WalletContract {... */\n      sub\n      slt\n      tag_90\n      jumpi\n      tag_442\n      swap1\n      tag_12\n      jump\t// in\n    tag_442:\n        /* \"WalletContract.sol\":2425:2498  NET20(token).transferFrom(msg.sender, address(this), amount + commission) */\n      dup12\n      jump(tag_432)\n    tag_437:\n      returndatasize\n      swap2\n      pop\n      jump(tag_438)\n        /* \"WalletContract.sol\":1923:1978  Percent.applyToNumber(amount, depositCommissionPercent) */\n    tag_418:\n      swap1\n      swap2\n      pop\n        /* \"DealCreationManager.sol\":121:11941  contract DealCreationManager is WalletContract {... */\n      0x20\n        /* \"WalletContract.sol\":1923:1978  Percent.applyToNumber(amount, depositCommissionPercent) */\n      dup2\n      returndatasize\n        /* \"DealCreationManager.sol\":121:11941  contract DealCreationManager is WalletContract {... */\n      0x20\n        /* \"WalletContract.sol\":1923:1978  Percent.applyToNumber(amount, depositCommissionPercent) */\n      gt\n      tag_443\n      jumpi\n    tag_444:\n      dup2\n      tag_445\n        /* \"DealCreationManager.sol\":121:11941  contract DealCreationManager is WalletContract {... */\n      0x20\n        /* \"WalletContract.sol\":1923:1978  Percent.applyToNumber(amount, depositCommissionPercent) */\n      swap4\n      dup4\n      tag_10\n      jump\t// in\n    tag_445:\n      dup2\n      add\n        /* \"DealCreationManager.sol\":121:11941  contract DealCreationManager is WalletContract {... */\n      sub\n      slt\n      tag_90\n      jumpi\n      mload\n        /* \"WalletContract.sol\":1923:1978  Percent.applyToNumber(amount, depositCommissionPercent) */\n      swap1\n      dup10\n      jump(tag_419)\n    tag_443:\n      returndatasize\n      swap2\n      pop\n      jump(tag_444)\n        /* \"DealCreationManager.sol\":121:11941  contract DealCreationManager is WalletContract {... */\n    tag_40:\n      jumpi(tag_90, callvalue)\n        /* \"DealCreationManager.sol\":11026:11348  DealContract.createDeal(... */\n      0x0220\n      tag_386\n        /* \"DealCreationManager.sol\":121:11941  contract DealCreationManager is WalletContract {... */\n      tag_451\n      calldatasize\n      tag_4\n      jump\t// in\n    tag_451:\n        /* \"LockableContract.sol\":630:660  require(contractEnabled, \"L1\") */\n      tag_452\n        /* \"DealCreationManager.sol\":121:11941  contract DealCreationManager is WalletContract {... */\n      0xff\n      0x00\n      swap11\n      swap7\n      swap5\n      swap11\n      swap10\n      swap4\n      swap10\n      sload\n      0xa0\n      shr\n      and\n        /* \"LockableContract.sol\":630:660  require(contractEnabled, \"L1\") */\n      tag_7\n      jump\t// in\n    tag_452:\n        /* \"DealCreationManager.sol\":10886:10896  msg.sender */\n      caller\n        /* \"DealCreationManager.sol\":121:11941  contract DealCreationManager is WalletContract {... */\n      0x00\n      mstore\n        /* \"WalletContract.sol\":3819:3827  balances */\n      0x01\n        /* \"DealCreationManager.sol\":121:11941  contract DealCreationManager is WalletContract {... */\n      0x20\n      mstore\n      keccak256(0x00, 0x40)\n      0x01\n      dup1\n      0xa0\n      shl\n      sub\n      dup11\n      and\n      0x00\n      mstore\n      0x20\n      mstore\n        /* \"DealCreationManager.sol\":10868:10928  require(balanceOf(msg.sender, tokenAddress) >= amount, \"T1\") */\n      tag_453\n        /* \"DealCreationManager.sol\":121:11941  contract DealCreationManager is WalletContract {... */\n      dup4\n      sload(keccak256(0x00, 0x40))\n        /* \"DealCreationManager.sol\":10876:10921  balanceOf(msg.sender, tokenAddress) >= amount */\n      lt\n      iszero\n        /* \"DealCreationManager.sol\":10868:10928  require(balanceOf(msg.sender, tokenAddress) >= amount, \"T1\") */\n      tag_8\n      jump\t// in\n    tag_453:\n        /* \"DealCreationManager.sol\":10941:10991  removeBalanceFrom(msg.sender,tokenAddress, amount) */\n      tag_387\n        /* \"DealCreationManager.sol\":10886:10896  msg.sender */\n      dup4\n      dup11\n      caller\n        /* \"DealCreationManager.sol\":10941:10991  removeBalanceFrom(msg.sender,tokenAddress, amount) */\n      tag_29\n      jump\t// in\n        /* \"DealCreationManager.sol\":121:11941  contract DealCreationManager is WalletContract {... */\n    tag_38:\n      jumpi(tag_90, callvalue)\n      jumpi(tag_90, slt(add(not(0x03), calldatasize), 0x40))\n      calldataload(0x04)\n      tag_484\n      tag_1\n      jump\t// in\n    tag_484:\n        /* \"LockableContract.sol\":474:509  require(msg.sender == _owner, \"L2\") */\n      tag_485\n        /* \"DealCreationManager.sol\":121:11941  contract DealCreationManager is WalletContract {... */\n      0x01\n      dup1\n      0xa0\n      shl\n      sub\n      sload(0x00)\n      and\n        /* \"LockableContract.sol\":482:492  msg.sender */\n      caller\n        /* \"LockableContract.sol\":482:502  msg.sender == _owner */\n      eq\n        /* \"LockableContract.sol\":474:509  require(msg.sender == _owner, \"L2\") */\n      tag_18\n      jump\t// in\n    tag_485:\n      sub(shl(0xa0, 0x01), 0x01)\n        /* \"DealCreationManager.sol\":121:11941  contract DealCreationManager is WalletContract {... */\n      and\n        /* \"WalletContract.sol\":4036:4062  newRecipient != address(0) */\n      dup1\n      iszero\n        /* \"DealCreationManager.sol\":121:11941  contract DealCreationManager is WalletContract {... */\n      tag_486\n      jumpi\n        /* \"WalletContract.sol\":4088:4128  newCommissionPercent <= Percent.MAXVALUE */\n      dup2\n        /* \"DealCreationManager.sol\":121:11941  contract DealCreationManager is WalletContract {... */\n      0x40\n        /* \"WalletContract.sol\":4088:4128  newCommissionPercent <= Percent.MAXVALUE */\n      swap2\n        /* \"WalletContract.sol\":4080:4135  require(newCommissionPercent <= Percent.MAXVALUE, \"C5\") */\n      tag_488\n        /* \"Percent.sol\":200:206  10**10 */\n      0x02540be400\n        /* \"WalletContract.sol\":4258:4311  CommissionChanged(newCommissionPercent, newRecipient) */\n      0x14bdaadaed0453e7b5b66195b42156ba995b9e5abd0da98368839851d69ad889\n        /* \"WalletContract.sol\":4088:4128  newCommissionPercent <= Percent.MAXVALUE */\n      swap6\n      gt\n      iszero\n        /* \"WalletContract.sol\":4080:4135  require(newCommissionPercent <= Percent.MAXVALUE, \"C5\") */\n      tag_19\n      jump\t// in\n    tag_488:\n        /* \"DealCreationManager.sol\":121:11941  contract DealCreationManager is WalletContract {... */\n      dup2\n        /* \"WalletContract.sol\":4148:4195  depositCommissionPercent = newCommissionPercent */\n      0x02\n        /* \"DealCreationManager.sol\":121:11941  contract DealCreationManager is WalletContract {... */\n      sstore\n      dup1\n      shl(0xa0, 0xffffffffffffffffffffffff)\n        /* \"WalletContract.sol\":4206:4240  commissionRecipient = newRecipient */\n      0x03\n        /* \"DealCreationManager.sol\":121:11941  contract DealCreationManager is WalletContract {... */\n      sload\n      and\n      or\n        /* \"WalletContract.sol\":4206:4240  commissionRecipient = newRecipient */\n      0x03\n        /* \"DealCreationManager.sol\":121:11941  contract DealCreationManager is WalletContract {... */\n      sstore\n      dup3\n      mload\n      swap2\n      dup3\n      mstore\n      0x20\n        /* \"Percent.sol\":156:161  SCALE */\n      dup3\n      add\n        /* \"DealCreationManager.sol\":121:11941  contract DealCreationManager is WalletContract {... */\n      mstore\n        /* \"WalletContract.sol\":4258:4311  CommissionChanged(newCommissionPercent, newRecipient) */\n      log1\n        /* \"DealCreationManager.sol\":121:11941  contract DealCreationManager is WalletContract {... */\n      stop\n    tag_486:\n      mload(0x40)\n      shl(0xe5, 0x461bcd)\n      dup2\n      mstore\n      0x20\n      0x04\n      dup3\n      add\n      mstore\n      0x02\n      0x24\n      dup3\n      add\n      mstore\n      shl(0xf0, 0x4331)\n      0x44\n      dup3\n      add\n      mstore\n      0x64\n      swap1\n      revert\n    tag_36:\n      jumpi(tag_90, callvalue)\n      jumpi(tag_90, slt(add(not(0x03), calldatasize), 0x00))\n        /* \"WalletContract.sol\":507:541  address public commissionRecipient */\n      0x03\n        /* \"DealCreationManager.sol\":121:11941  contract DealCreationManager is WalletContract {... */\n      sload\n      mload(0x40)\n      sub(shl(0xa0, 0x01), 0x01)\n      swap1\n      swap2\n      and\n      dup2\n      mstore\n      0x20\n      swap1\n      return\n    tag_34:\n      jumpi(tag_90, callvalue)\n        /* \"DealCreationManager.sol\":8311:8727  DealContract.createDeal(... */\n      0x0220\n      tag_118\n        /* \"DealCreationManager.sol\":121:11941  contract DealCreationManager is WalletContract {... */\n      tag_496\n      calldatasize\n      tag_3\n      jump\t// in\n    tag_496:\n      swap3\n        /* \"LockableContract.sol\":630:660  require(contractEnabled, \"L1\") */\n      tag_497\n        /* \"DealCreationManager.sol\":121:11941  contract DealCreationManager is WalletContract {... */\n      0xff\n      0x00\n      swap14\n      swap10\n      swap8\n      swap14\n      swap13\n      swap7\n      swap13\n      swap12\n      swap11\n      swap12\n      swap5\n      swap4\n      swap5\n      sload\n      0xa0\n      shr\n      and\n        /* \"LockableContract.sol\":630:660  require(contractEnabled, \"L1\") */\n      tag_7\n      jump\t// in\n    tag_497:\n        /* \"DealCreationManager.sol\":8124:8134  msg.sender */\n      caller\n        /* \"DealCreationManager.sol\":121:11941  contract DealCreationManager is WalletContract {... */\n      0x00\n      mstore\n        /* \"WalletContract.sol\":3819:3827  balances */\n      0x01\n        /* \"DealCreationManager.sol\":121:11941  contract DealCreationManager is WalletContract {... */\n      0x20\n      mstore\n      keccak256(0x00, 0x40)\n      0x01\n      dup1\n      0xa0\n      shl\n      sub\n      dup3\n      and\n      0x00\n      mstore\n      0x20\n      mstore\n        /* \"DealCreationManager.sol\":8106:8190  require(balanceOf(msg.sender, initiatorTokenAddress) >= initiatorCreateAmount, \"T1\") */\n      tag_498\n        /* \"DealCreationManager.sol\":121:11941  contract DealCreationManager is WalletContract {... */\n      dup7\n      sload(keccak256(0x00, 0x40))\n        /* \"DealCreationManager.sol\":8114:8183  balanceOf(msg.sender, initiatorTokenAddress) >= initiatorCreateAmount */\n      lt\n      iszero\n        /* \"DealCreationManager.sol\":8106:8190  require(balanceOf(msg.sender, initiatorTokenAddress) >= initiatorCreateAmount, \"T1\") */\n      tag_8\n      jump\t// in\n    tag_498:\n        /* \"DealCreationManager.sol\":8203:8276  removeBalanceFrom(msg.sender,initiatorTokenAddress,initiatorCreateAmount) */\n      tag_119\n        /* \"DealCreationManager.sol\":8124:8134  msg.sender */\n      dup7\n      dup3\n      caller\n        /* \"DealCreationManager.sol\":8203:8276  removeBalanceFrom(msg.sender,initiatorTokenAddress,initiatorCreateAmount) */\n      tag_29\n      jump\t// in\n        /* \"DealCreationManager.sol\":121:11941  contract DealCreationManager is WalletContract {... */\n    tag_1:\n      calldataload(0x24)\n      swap1\n      sub(shl(0xa0, 0x01), 0x01)\n      dup3\n      and\n      dup3\n      sub\n      tag_90\n      jumpi\n      jump\t// out\n    tag_2:\n      calldataload(0x04)\n      swap1\n      sub(shl(0xa0, 0x01), 0x01)\n      dup3\n      and\n      dup3\n      sub\n      tag_90\n      jumpi\n      jump\t// out\n    tag_3:\n      0x0140\n      swap1\n      not(0x03)\n      add\n      slt\n      tag_90\n      jumpi\n      calldataload(0x04)\n      sub(shl(0xa0, 0x01), 0x01)\n      dup2\n      and\n      dup2\n      sub\n      tag_90\n      jumpi\n      swap1\n      calldataload(0x24)\n      sub(shl(0xa0, 0x01), 0x01)\n      dup2\n      and\n      dup2\n      sub\n      tag_90\n      jumpi\n      swap1\n      calldataload(0x44)\n      swap1\n      calldataload(0x64)\n      swap1\n      calldataload(0x84)\n      swap1\n      calldataload(0xa4)\n      swap1\n      calldataload(0xc4)\n      sub(shl(0xa0, 0x01), 0x01)\n      dup2\n      and\n      dup2\n      sub\n      tag_90\n      jumpi\n      swap1\n      calldataload(0xe4)\n      sub(shl(0xa0, 0x01), 0x01)\n      dup2\n      and\n      dup2\n      sub\n      tag_90\n      jumpi\n      swap1\n      calldataload(0x0104)\n      swap1\n      calldataload(0x0124)\n      0x06\n      dup2\n      lt\n      iszero\n      tag_90\n      jumpi\n      swap1\n      jump\t// out\n    tag_4:\n      0xe0\n      swap1\n      not(0x03)\n      add\n      slt\n      tag_90\n      jumpi\n      calldataload(0x04)\n      sub(shl(0xa0, 0x01), 0x01)\n      dup2\n      and\n      dup2\n      sub\n      tag_90\n      jumpi\n      swap1\n      calldataload(0x24)\n      sub(shl(0xa0, 0x01), 0x01)\n      dup2\n      and\n      dup2\n      sub\n      tag_90\n      jumpi\n      swap1\n      calldataload(0x44)\n      swap1\n      calldataload(0x64)\n      swap1\n      calldataload(0x84)\n      sub(shl(0xa0, 0x01), 0x01)\n      dup2\n      and\n      dup2\n      sub\n      tag_90\n      jumpi\n      swap1\n      calldataload(0xa4)\n      swap1\n      calldataload(0xc4)\n      0x06\n      dup2\n      lt\n      iszero\n      tag_90\n      jumpi\n      swap1\n      jump\t// out\n    tag_5:\n      swap1\n      0x06\n      dup3\n      lt\n      iszero\n      tag_132\n      jumpi\n      mstore\n      jump\t// out\n    tag_6:\n      swap1\n      0x0200\n      dup1\n      tag_551\n      swap4\n      0x01\n      dup1\n      0xa0\n      shl\n      sub\n      dup2\n      mload\n      and\n      dup5\n      mstore\n      0x01\n      dup1\n      0xa0\n      shl\n      sub\n      0x20\n      dup3\n      add\n      mload\n      and\n      0x20\n      dup6\n      add\n      mstore\n      0x01\n      dup1\n      0xa0\n      shl\n      sub\n      0x40\n      dup3\n      add\n      mload\n      and\n      0x40\n      dup6\n      add\n      mstore\n      0x60\n      dup2\n      add\n      mload\n      iszero\n      iszero\n      0x60\n      dup6\n      add\n      mstore\n      0x80\n      dup2\n      add\n      mload\n      iszero\n      iszero\n      0x80\n      dup6\n      add\n      mstore\n      0xa0\n      dup2\n      add\n      mload\n      iszero\n      iszero\n      0xa0\n      dup6\n      add\n      mstore\n      0xc0\n      dup2\n      add\n      mload\n      iszero\n      iszero\n      0xc0\n      dup6\n      add\n      mstore\n      0xe0\n      dup2\n      add\n      mload\n      0xe0\n      dup6\n      add\n      mstore\n      0x0100\n      dup2\n      add\n      mload\n      0x0100\n      dup6\n      add\n      mstore\n      0x0120\n      dup2\n      add\n      mload\n      0x0120\n      dup6\n      add\n      mstore\n      0x0140\n      dup2\n      add\n      mload\n      0x0140\n      dup6\n      add\n      mstore\n      0x0160\n      dup2\n      add\n      mload\n      0x0160\n      dup6\n      add\n      mstore\n      0x0180\n      dup2\n      add\n      mload\n      0x0180\n      dup6\n      add\n      mstore\n      0x01\n      dup1\n      0xa0\n      shl\n      sub\n      0x01a0\n      dup3\n      add\n      mload\n      and\n      0x01a0\n      dup6\n      add\n      mstore\n      0x01\n      dup1\n      0xa0\n      shl\n      sub\n      0x01c0\n      dup3\n      add\n      mload\n      and\n      0x01c0\n      dup6\n      add\n      mstore\n      0x01e0\n      dup2\n      add\n      mload\n      0x01e0\n      dup6\n      add\n      mstore\n      add\n      mload\n      swap2\n      add\n      swap1\n      tag_5\n      jump\t// in\n    tag_551:\n      jump\t// out\n    tag_7:\n      iszero\n      tag_552\n      jumpi\n      jump\t// out\n    tag_552:\n      mload(0x40)\n      shl(0xe5, 0x461bcd)\n      dup2\n      mstore\n      0x20\n      0x04\n      dup3\n      add\n      mstore\n      0x02\n      0x24\n      dup3\n      add\n      mstore\n      shl(0xf0, 0x4c31)\n      0x44\n      dup3\n      add\n      mstore\n      0x64\n      swap1\n      revert\n    tag_8:\n      iszero\n      tag_554\n      jumpi\n      jump\t// out\n    tag_554:\n      mload(0x40)\n      shl(0xe5, 0x461bcd)\n      dup2\n      mstore\n      0x20\n      0x04\n      dup3\n      add\n      mstore\n      0x02\n      0x24\n      dup3\n      add\n      mstore\n      shl(0xf0, 0x5431)\n      0x44\n      dup3\n      add\n      mstore\n      0x64\n      swap1\n      revert\n    tag_9:\n      0x0220\n      dup2\n      add\n      swap1\n      dup2\n      lt\n      0xffffffffffffffff\n      dup3\n      gt\n      or\n      tag_556\n      jumpi\n      0x40\n      mstore\n      jump\t// out\n    tag_556:\n      mstore(0x00, shl(0xe0, 0x4e487b71))\n      mstore(0x04, 0x41)\n      revert(0x00, 0x24)\n    tag_10:\n      swap1\n      0x1f\n      dup1\n      not\n      swap2\n      add\n      and\n      dup2\n      add\n      swap1\n      dup2\n      lt\n      0xffffffffffffffff\n      dup3\n      gt\n      or\n      tag_556\n      jumpi\n      0x40\n      mstore\n      jump\t// out\n    tag_11:\n      mload\n      swap1\n      sub(shl(0xa0, 0x01), 0x01)\n      dup3\n      and\n      dup3\n      sub\n      tag_90\n      jumpi\n      jump\t// out\n    tag_12:\n      mload\n      swap1\n      dup2\n      iszero\n      iszero\n      dup3\n      sub\n      tag_90\n      jumpi\n      jump\t// out\n    tag_13:\n      swap1\n      dup2\n      0x0220\n      swap2\n      sub\n      slt\n      tag_90\n      jumpi\n      0x0200\n      mload(0x40)\n      swap2\n      tag_566\n      dup4\n      tag_9\n      jump\t// in\n    tag_566:\n      tag_567\n      dup2\n      tag_11\n      jump\t// in\n    tag_567:\n      dup4\n      mstore\n      tag_568\n      0x20\n      dup3\n      add\n      tag_11\n      jump\t// in\n    tag_568:\n      0x20\n      dup5\n      add\n      mstore\n      tag_569\n      0x40\n      dup3\n      add\n      tag_11\n      jump\t// in\n    tag_569:\n      0x40\n      dup5\n      add\n      mstore\n      tag_570\n      0x60\n      dup3\n      add\n      tag_12\n      jump\t// in\n    tag_570:\n      0x60\n      dup5\n      add\n      mstore\n      tag_571\n      0x80\n      dup3\n      add\n      tag_12\n      jump\t// in\n    tag_571:\n      0x80\n      dup5\n      add\n      mstore\n      tag_572\n      0xa0\n      dup3\n      add\n      tag_12\n      jump\t// in\n    tag_572:\n      0xa0\n      dup5\n      add\n      mstore\n      tag_573\n      0xc0\n      dup3\n      add\n      tag_12\n      jump\t// in\n    tag_573:\n      0xc0\n      dup5\n      add\n      mstore\n      0xe0\n      dup2\n      add\n      mload\n      0xe0\n      dup5\n      add\n      mstore\n      0x0100\n      dup2\n      add\n      mload\n      0x0100\n      dup5\n      add\n      mstore\n      0x0120\n      dup2\n      add\n      mload\n      0x0120\n      dup5\n      add\n      mstore\n      0x0140\n      dup2\n      add\n      mload\n      0x0140\n      dup5\n      add\n      mstore\n      0x0160\n      dup2\n      add\n      mload\n      0x0160\n      dup5\n      add\n      mstore\n      0x0180\n      dup2\n      add\n      mload\n      0x0180\n      dup5\n      add\n      mstore\n      tag_574\n      0x01a0\n      dup3\n      add\n      tag_11\n      jump\t// in\n    tag_574:\n      0x01a0\n      dup5\n      add\n      mstore\n      tag_575\n      0x01c0\n      dup3\n      add\n      tag_11\n      jump\t// in\n    tag_575:\n      0x01c0\n      dup5\n      add\n      mstore\n      0x01e0\n      dup2\n      add\n      mload\n      0x01e0\n      dup5\n      add\n      mstore\n      add\n      mload\n      0x06\n      dup2\n      lt\n      iszero\n      tag_90\n      jumpi\n      0x0200\n      dup3\n      add\n      mstore\n      swap1\n      jump\t// out\n    tag_14:\n      sub(shl(0xa0, 0x01), 0x01)\n      swap2\n      dup3\n      and\n      dup2\n      mstore\n      swap2\n      dup2\n      and\n      0x20\n      dup4\n      add\n      mstore\n      swap2\n      dup3\n      and\n      0x40\n      dup3\n      add\n      mstore\n      0x60\n      dup2\n      add\n      swap3\n      swap1\n      swap3\n      mstore\n      0x80\n      dup3\n      add\n      swap3\n      swap1\n      swap3\n      mstore\n      0xa0\n      dup2\n      add\n      swap3\n      swap1\n      swap3\n      mstore\n      0xc0\n      dup3\n      add\n      swap3\n      swap1\n      swap3\n      mstore\n      swap2\n      dup2\n      and\n      0xe0\n      dup4\n      add\n      mstore\n      swap1\n      swap2\n      and\n      0x0100\n      dup3\n      add\n      mstore\n      0x0120\n      dup2\n      add\n      swap2\n      swap1\n      swap2\n      mstore\n      0x0160\n      dup2\n      add\n      swap3\n      swap2\n      tag_551\n      swap2\n      0x0140\n      add\n      swap1\n      tag_5\n      jump\t// in\n    tag_15:\n      not(0x00)\n      dup2\n      eq\n      tag_579\n      jumpi\n      0x01\n      add\n      swap1\n      jump\t// out\n    tag_579:\n      mstore(0x00, shl(0xe0, 0x4e487b71))\n      mstore(0x04, 0x11)\n      revert(0x00, 0x24)\n    tag_18:\n      iszero\n      tag_581\n      jumpi\n      jump\t// out\n    tag_581:\n      mload(0x40)\n      shl(0xe5, 0x461bcd)\n      dup2\n      mstore\n      0x20\n      0x04\n      dup3\n      add\n      mstore\n      0x02\n      0x24\n      dup3\n      add\n      mstore\n      shl(0xf1, 0x2619)\n      0x44\n      dup3\n      add\n      mstore\n      0x64\n      swap1\n      revert\n        /* \"Percent.sol\":156:161  SCALE */\n    tag_19:\n      iszero\n      tag_583\n      jumpi\n      jump\t// out\n    tag_583:\n        /* \"DealCreationManager.sol\":121:11941  contract DealCreationManager is WalletContract {... */\n      mload(0x40)\n      shl(0xe5, 0x461bcd)\n        /* \"Percent.sol\":156:161  SCALE */\n      dup2\n      mstore\n      0x20\n      0x04\n      dup3\n      add\n      mstore\n      0x02\n      0x24\n      dup3\n      add\n        /* \"DealCreationManager.sol\":121:11941  contract DealCreationManager is WalletContract {... */\n      mstore\n      shl(0xf0, 0x4335)\n      0x44\n      dup3\n      add\n        /* \"Percent.sol\":156:161  SCALE */\n      mstore\n      0x64\n      swap1\n      revert\n        /* \"DealCreationManager.sol\":121:11941  contract DealCreationManager is WalletContract {... */\n    tag_20:\n      sub(shl(0xa0, 0x01), 0x01)\n      swap2\n      dup3\n      and\n      dup2\n      mstore\n      swap2\n      dup2\n      and\n      0x20\n      dup4\n      add\n      mstore\n      swap2\n      dup3\n      and\n      0x40\n      dup3\n      add\n      mstore\n      0x60\n      dup2\n      add\n      swap3\n      swap1\n      swap3\n      mstore\n      0x00\n      0x80\n      dup4\n      add\n      dup2\n      swap1\n      mstore\n      0xa0\n      dup4\n      add\n      swap4\n      swap1\n      swap4\n      mstore\n      0xc0\n      dup3\n      add\n      dup4\n      swap1\n      mstore\n      swap1\n      swap3\n      and\n      0xe0\n      dup4\n      add\n      mstore\n      0x0100\n      dup3\n      add\n      mstore\n      0x0120\n      dup2\n      add\n      swap2\n      swap1\n      swap2\n      mstore\n      0x0160\n      dup2\n      add\n      swap3\n      swap2\n      tag_551\n      swap2\n      0x0140\n      add\n      swap1\n      tag_5\n      jump\t// in\n    tag_21:\n      swap2\n      swap1\n      dup3\n      sub\n      swap2\n      dup3\n      gt\n      tag_579\n      jumpi\n      jump\t// out\n    tag_22:\n      swap2\n      swap1\n      dup3\n      add\n      dup1\n      swap3\n      gt\n      tag_579\n      jumpi\n      jump\t// out\n    tag_23:\n      iszero\n      tag_590\n      jumpi\n      jump\t// out\n    tag_590:\n      mload(0x40)\n      shl(0xe5, 0x461bcd)\n      dup2\n      mstore\n      0x20\n      0x04\n      dup3\n      add\n      mstore\n      0x02\n      0x24\n      dup3\n      add\n      mstore\n      shl(0xf0, 0x4435)\n      0x44\n      dup3\n      add\n      mstore\n      0x64\n      swap1\n      revert\n    tag_24:\n      iszero\n      tag_592\n      jumpi\n      jump\t// out\n    tag_592:\n      0x64\n      mload(0x40)\n      shl(0xe5, 0x461bcd)\n      dup2\n      mstore\n      0x20\n      0x04\n      dup3\n      add\n      mstore\n      0x04\n      0x24\n      dup3\n      add\n      mstore\n      shl(0xe0, 0x44332e31)\n      0x44\n      dup3\n      add\n      mstore\n      revert\n    tag_25:\n      iszero\n      tag_594\n      jumpi\n      jump\t// out\n    tag_594:\n      0x64\n      mload(0x40)\n      shl(0xe5, 0x461bcd)\n      dup2\n      mstore\n      0x20\n      0x04\n      dup3\n      add\n      mstore\n      0x04\n      0x24\n      dup3\n      add\n      mstore\n      shl(0xe0, 0x44322e31)\n      0x44\n      dup3\n      add\n      mstore\n      revert\n    tag_26:\n      iszero\n      tag_596\n      jumpi\n      jump\t// out\n    tag_596:\n      mload(0x40)\n      shl(0xe5, 0x461bcd)\n      dup2\n      mstore\n      0x20\n      0x04\n      dup3\n      add\n      mstore\n      0x02\n      0x24\n      dup3\n      add\n      mstore\n      shl(0xf0, 0x4433)\n      0x44\n      dup3\n      add\n      mstore\n      0x64\n      swap1\n      revert\n        /* \"WalletContract.sol\":5303:5670  function removeBalanceFrom(address from, address token, uint amount) internal returns (bool){... */\n    tag_29:\n        /* \"WalletContract.sol\":5409:5420  amount <= 0 */\n      dup3\n      iszero\n        /* \"WalletContract.sol\":5406:5446  if(amount <= 0)... */\n      tag_598\n      jumpi\n        /* \"DealCreationManager.sol\":121:11941  contract DealCreationManager is WalletContract {... */\n      0x01\n      dup1\n      0xa0\n      shl\n      sub\n      and\n      swap1\n      dup2\n      0x00\n      mstore\n        /* \"WalletContract.sol\":5462:5470  balances */\n      0x01\n        /* \"DealCreationManager.sol\":121:11941  contract DealCreationManager is WalletContract {... */\n      0x20\n      mstore\n      keccak256(0x00, 0x40)\n      0x01\n      dup1\n      0xa0\n      shl\n      sub\n      dup3\n      and\n      0x00\n      mstore\n      0x20\n      mstore\n      dup3\n      sload(keccak256(0x00, 0x40))\n        /* \"WalletContract.sol\":5462:5492  balances[from][token] < amount */\n      lt\n        /* \"WalletContract.sol\":5459:5519  if(balances[from][token] < amount)... */\n      tag_600\n      jumpi\n        /* \"WalletContract.sol\":5589:5630  Transfer(address(0), from, token, amount) */\n      0xd1398bee19313d6bf672ccb116e51f4a1a947e91c757907f51fbb5b5e56c698f\n        /* \"DealCreationManager.sol\":121:11941  contract DealCreationManager is WalletContract {... */\n      0x20\n      0x00\n      swap3\n      dup5\n      dup5\n      mstore\n        /* \"WalletContract.sol\":5462:5470  balances */\n      0x01\n        /* \"DealCreationManager.sol\":121:11941  contract DealCreationManager is WalletContract {... */\n      dup3\n      mstore\n      0x40\n      dup5\n      keccak256\n      0x01\n      dup1\n      0xa0\n      shl\n      sub\n      dup3\n      and\n      dup6\n      mstore\n      dup3\n      mstore\n      0x40\n      dup5\n      keccak256\n        /* \"WalletContract.sol\":5532:5563  balances[from][token] -= amount */\n      tag_602\n        /* \"DealCreationManager.sol\":121:11941  contract DealCreationManager is WalletContract {... */\n      dup8\n      dup3\n      sload\n        /* \"WalletContract.sol\":5532:5563  balances[from][token] -= amount */\n      tag_21\n      jump\t// in\n    tag_602:\n        /* \"DealCreationManager.sol\":121:11941  contract DealCreationManager is WalletContract {... */\n      swap1\n      sstore\n      mload(0x40)\n      swap6\n      dup7\n      mstore\n      sub(shl(0xa0, 0x01), 0x01)\n      and\n      swap5\n        /* \"WalletContract.sol\":5589:5630  Transfer(address(0), from, token, amount) */\n      log4\n        /* \"WalletContract.sol\":5462:5470  balances */\n      0x01\n        /* \"WalletContract.sol\":5303:5670  function removeBalanceFrom(address from, address token, uint amount) internal returns (bool){... */\n      swap1\n      jump\t// out\n        /* \"WalletContract.sol\":5459:5519  if(balances[from][token] < amount)... */\n    tag_600:\n        /* \"WalletContract.sol\":5507:5519  return false */\n      pop\n      pop\n      pop\n        /* \"DealCreationManager.sol\":121:11941  contract DealCreationManager is WalletContract {... */\n      0x00\n        /* \"WalletContract.sol\":5507:5519  return false */\n      swap1\n      jump\t// out\n        /* \"WalletContract.sol\":5406:5446  if(amount <= 0)... */\n    tag_598:\n        /* \"WalletContract.sol\":5435:5446  return true */\n      pop\n      pop\n      pop\n        /* \"WalletContract.sol\":5442:5446  true */\n      0x01\n        /* \"WalletContract.sol\":5435:5446  return true */\n      swap1\n      jump\t// out\n        /* \"WalletContract.sol\":4981:5263  function addBalanceTo(address to, address token, uint amount) internal returns (bool){... */\n    tag_30:\n        /* \"WalletContract.sol\":5080:5091  amount <= 0 */\n      dup3\n      iszero\n        /* \"WalletContract.sol\":5077:5117  if(amount <= 0)... */\n      tag_598\n      jumpi\n        /* \"WalletContract.sol\":5185:5223  Transfer(address(0), to,token, amount) */\n      0xd1398bee19313d6bf672ccb116e51f4a1a947e91c757907f51fbb5b5e56c698f\n        /* \"DealCreationManager.sol\":121:11941  contract DealCreationManager is WalletContract {... */\n      0x20\n      0x00\n      swap3\n      0x01\n      dup1\n      0xa0\n      shl\n      sub\n      and\n      swap4\n      dup5\n      dup5\n      mstore\n        /* \"WalletContract.sol\":5130:5138  balances */\n      0x01\n        /* \"DealCreationManager.sol\":121:11941  contract DealCreationManager is WalletContract {... */\n      dup3\n      mstore\n      0x40\n      dup5\n      keccak256\n      0x01\n      dup1\n      0xa0\n      shl\n      sub\n      dup3\n      and\n      dup6\n      mstore\n      dup3\n      mstore\n      0x40\n      dup5\n      keccak256\n        /* \"WalletContract.sol\":5130:5159  balances[to][token] += amount */\n      tag_602\n        /* \"DealCreationManager.sol\":121:11941  contract DealCreationManager is WalletContract {... */\n      dup8\n      dup3\n      sload\n        /* \"WalletContract.sol\":5130:5159  balances[to][token] += amount */\n      tag_22\n      jump\t// in\n        /* \"WalletContract.sol\":4361:4944  function withdrawFromContractTo(address to, address token, uint amount) internal returns (bool){... */\n    tag_31:\n      swap2\n      swap1\n        /* \"WalletContract.sol\":4470:4481  amount <= 0 */\n      dup2\n      iszero\n        /* \"WalletContract.sol\":4467:4507  if(amount <= 0)... */\n      tag_598\n      jumpi\n      sub(shl(0xa0, 0x01), 0x01)\n        /* \"DealCreationManager.sol\":121:11941  contract DealCreationManager is WalletContract {... */\n      and\n      swap2\n        /* \"WalletContract.sol\":4603:4622  token == address(0) */\n      dup3\n        /* \"DealCreationManager.sol\":121:11941  contract DealCreationManager is WalletContract {... */\n      tag_608\n      jumpi\n      0x00\n      dup1\n      dup1\n      dup1\n      dup6\n      sub(shl(0xa0, 0x01), 0x01)\n      dup7\n      and\n      dup3\n        /* \"WalletContract.sol\":4639:4667  payable(to).transfer(amount) */\n      call\n      iszero\n      tag_125\n      jumpi\n        /* \"DealCreationManager.sol\":121:11941  contract DealCreationManager is WalletContract {... */\n      0x20\n        /* \"WalletContract.sol\":4875:4904  Withdrawal(to, token, amount) */\n      0x2717ead6b9200dd235aad468c9809ea400fe33ac69b5bfaa6d3e90fc922b6398\n        /* \"WalletContract.sol\":4599:4824  if (token == address(0)) {... */\n      swap2\n    tag_612:\n        /* \"DealCreationManager.sol\":121:11941  contract DealCreationManager is WalletContract {... */\n      mload(0x40)\n      swap4\n      dup5\n      mstore\n      sub(shl(0xa0, 0x01), 0x01)\n      and\n      swap3\n        /* \"WalletContract.sol\":4875:4904  Withdrawal(to, token, amount) */\n      log3\n        /* \"WalletContract.sol\":4924:4928  true */\n      0x01\n        /* \"WalletContract.sol\":4361:4944  function withdrawFromContractTo(address to, address token, uint amount) internal returns (bool){... */\n      swap1\n      jump\t// out\n        /* \"WalletContract.sol\":4599:4824  if (token == address(0)) {... */\n    tag_608:\n        /* \"DealCreationManager.sol\":121:11941  contract DealCreationManager is WalletContract {... */\n      mload(0x40)\n      shl(0xe0, 0xa9059cbb)\n        /* \"WalletContract.sol\":4772:4805  NET20(token).transfer(to, amount) */\n      dup2\n      mstore\n      sub(shl(0xa0, 0x01), 0x01)\n        /* \"DealCreationManager.sol\":121:11941  contract DealCreationManager is WalletContract {... */\n      dup3\n      and\n        /* \"WalletContract.sol\":4772:4805  NET20(token).transfer(to, amount) */\n      0x04\n      dup3\n      add\n        /* \"DealCreationManager.sol\":121:11941  contract DealCreationManager is WalletContract {... */\n      mstore\n      0x24\n      dup2\n      add\n      dup4\n      swap1\n      mstore\n      0x20\n      dup2\n        /* \"WalletContract.sol\":4772:4805  NET20(token).transfer(to, amount) */\n      0x44\n        /* \"DealCreationManager.sol\":121:11941  contract DealCreationManager is WalletContract {... */\n      dup2\n      0x00\n        /* \"WalletContract.sol\":4772:4805  NET20(token).transfer(to, amount) */\n      dup9\n      gas\n      call\n      swap1\n      dup2\n      iszero\n      tag_125\n      jumpi\n        /* \"DealCreationManager.sol\":121:11941  contract DealCreationManager is WalletContract {... */\n      0x00\n        /* \"WalletContract.sol\":4772:4805  NET20(token).transfer(to, amount) */\n      swap2\n      tag_615\n      jumpi\n        /* \"WalletContract.sol\":4599:4824  if (token == address(0)) {... */\n    tag_616:\n        /* \"DealCreationManager.sol\":121:11941  contract DealCreationManager is WalletContract {... */\n      pop\n      iszero\n      tag_617\n      jumpi\n      0x20\n        /* \"WalletContract.sol\":4875:4904  Withdrawal(to, token, amount) */\n      0x2717ead6b9200dd235aad468c9809ea400fe33ac69b5bfaa6d3e90fc922b6398\n        /* \"WalletContract.sol\":4599:4824  if (token == address(0)) {... */\n      swap2\n      jump(tag_612)\n        /* \"DealCreationManager.sol\":121:11941  contract DealCreationManager is WalletContract {... */\n    tag_617:\n      mload(0x40)\n      shl(0xe5, 0x461bcd)\n      dup2\n      mstore\n      0x20\n        /* \"WalletContract.sol\":4772:4805  NET20(token).transfer(to, amount) */\n      0x04\n        /* \"DealCreationManager.sol\":121:11941  contract DealCreationManager is WalletContract {... */\n      dup3\n      add\n      mstore\n      0x02\n      0x24\n      dup3\n      add\n      mstore\n      shl(0xf0, 0x5433)\n        /* \"WalletContract.sol\":4772:4805  NET20(token).transfer(to, amount) */\n      0x44\n        /* \"DealCreationManager.sol\":121:11941  contract DealCreationManager is WalletContract {... */\n      dup3\n      add\n      mstore\n      0x64\n      swap1\n      revert\n        /* \"WalletContract.sol\":4772:4805  NET20(token).transfer(to, amount) */\n    tag_615:\n      swap1\n      pop\n        /* \"DealCreationManager.sol\":121:11941  contract DealCreationManager is WalletContract {... */\n      0x20\n        /* \"WalletContract.sol\":4772:4805  NET20(token).transfer(to, amount) */\n      dup2\n      returndatasize\n        /* \"DealCreationManager.sol\":121:11941  contract DealCreationManager is WalletContract {... */\n      0x20\n        /* \"WalletContract.sol\":4772:4805  NET20(token).transfer(to, amount) */\n      gt\n      tag_619\n      jumpi\n    tag_620:\n      dup2\n      tag_621\n        /* \"DealCreationManager.sol\":121:11941  contract DealCreationManager is WalletContract {... */\n      0x20\n        /* \"WalletContract.sol\":4772:4805  NET20(token).transfer(to, amount) */\n      swap4\n      dup4\n      tag_10\n      jump\t// in\n    tag_621:\n      dup2\n      add\n        /* \"DealCreationManager.sol\":121:11941  contract DealCreationManager is WalletContract {... */\n      sub\n      slt\n      tag_90\n      jumpi\n      tag_624\n      swap1\n      tag_12\n      jump\t// in\n    tag_624:\n        /* \"WalletContract.sol\":4772:4805  NET20(token).transfer(to, amount) */\n      0x00\n      jump(tag_616)\n    tag_619:\n      returndatasize\n      swap2\n      pop\n      jump(tag_620)\n    stop\n    data_f153f45295e6c417ef2e31903186ee1a5d0c2546461fb67769dfe29ae5912c6f dcbc1c05240f31ff3ad067ef1ee35ce4997762752e3a095284754544f4c709d7\n\n    auxdata: 0xa26469706673582212204f6dcf10a331528773253bdc3f6bc96fbd9f89f5598e436235e68789f4f260c964736f6c634300081a0033\n}\n",
				"bytecode": {
					"linkReferences": {
						"Deal.sol": {
							"DealContract": [
								{
									"length": 20,
									"start": 1169
								},
								{
									"length": 20,
									"start": 5917
								}
							]
						},
						"Percent.sol": {
							"Percent": [
								{
									"length": 20,
									"start": 1965
								},
								{
									"length": 20,
									"start": 3114
								},
								{
									"length": 20,
									"start": 5032
								},
								{
									"length": 20,
									"start": 5614
								},
								{
									"length": 20,
									"start": 6643
								}
							]
						}
					},
					"object": "60803461013257601f6125eb38819003918201601f19168301916001600160401b038311848410176101365780849260409485528339810103126101325780516020909101516001600160a01b0381169190829003610132575f80546001600160a81b0319163317600160a01b17808255604051916001600160a01b03909116907f8be0079c531659141344cd1fd0a4f28419497f9722a3daafe3b4186f6b6457e08180a3821561010b57506402540be40081116100e15760025560018060a01b031960035416176003555f6005555f6006556040516124a0908161014b8239f35b60405162461bcd60e51b8152602060048201526002602482015261433560f01b6044820152606490fd5b62461bcd60e51b8152602060048201526002602482015261433160f01b6044820152606490fd5b5f80fd5b634e487b7160e01b5f52604160045260245ffdfe60806040526004361015610011575f80fd5b5f3560e01c80627e8bd314611b7757806306fd154a14611b4f57806315f8a31414611a8657806317b52b5014611a2657806328d5a05014611571578063367edd321461150d57806339b3edb01461146b5780634187129c146113d257806341b3a0d9146113ae57806347e7ef241461120757806351a6fad51461107357806370a082311461103157806380ccb07014610f6557806381cd872a14610e3b578063894ba83314610de0578063899a3ffd14610dc35780638da5cb5b14610d9c5780638deea5fb14610c77578063966d1f1d14610c5a578063bb06c1a41461092a578063beabacc814610839578063c23f001f14610141578063cfadf6c7146102e2578063e08560a4146102c5578063f2fde38b146101fb578063f3fef3a3146101955763f7888aec14610141575f80fd5b346101915760403660031901126101915761015a611bf4565b610162611bde565b6001600160a01b039182165f908152600160209081526040808320949093168252928352819020549051908152f35b5f80fd5b346101915760403660031901126101915760206101f16101b3611bf4565b60243590335f526001845260405f2060018060a01b0382165f5284526101df8260405f20541015611e1c565b6101ea828233612212565b5033612314565b6040519015158152f35b3461019157602036600319011261019157610214611bf4565b5f546001600160a01b0381169161022c338414612068565b6001600160a01b03169182156102715782907f8be0079c531659141344cd1fd0a4f28419497f9722a3daafe3b4186f6b6457e05f80a36001600160a01b031916175f55005b60405162461bcd60e51b815260206004820152602660248201527f4f776e61626c653a206e6577206f776e657220697320746865207a65726f206160448201526564647265737360d01b6064820152608490fd5b34610191575f366003190112610191576020600654604051908152f35b6102eb36611c0a565b91909498959397969260ff5f5460a01c1661030581611deb565b335f52600160205260405f2060018060a01b0383165f5260205260405f2054858110610619575b505094610378929186610343866102209933612212565b5073__$69ea93bdf3b1e5da8164bfe3d9a878d765$__9a6040519c8d98899863652e83d760e01b8a528d8d3360048d01611fda565b0381865af49384156105dd575f946105e8575b5060206005546102446040518096819363797d4ee160e01b83526103b2600484018b611cfc565b6102248301525af49283156105dd575f936105a9575b506103d4600554612046565b6005555f83815260046020908152604091829020865181546001600160a01b039182166001600160a01b031991821617835592880151600183018054918316919094161790925591860151600283018054606089015160ff60a01b90151560a01b16929093166001600160a81b03199093169290921717815561020091600c916104a6905b6080890151815460a08b015160c08c015162ffffff60a81b1990921692151560a81b60ff60a81b169290921791151560b01b60ff60b01b169190911790151560b81b60ff60b81b16179055565b60e0870151600382015561010087015160048201556101208701516005820155610140870151600680830191909155610160880151600783015561018088015160088301556101a08801516009830180546001600160a01b039283166001600160a01b0319918216179091556101c08a0151600a850180549190931691161790556101e0880151600b83015592909601519501908510156105955760209460ff801983541691161790556040519160018060a01b0316825260018060a01b031690827f44e1ff8e67fad6b456bd43ff165ba4e9bb004370aa27a76881c6acb60dfd6dd9853393a4604051908152f35b634e487b7160e01b5f52602160045260245ffd5b9092506020813d6020116105d5575b816105c560209383611e7e565b81010312610191575191846103c8565b3d91506105b8565b6040513d5f823e3d90fd5b61060b9194506102203d8111610612575b6106038183611e7e565b810190611ec1565b928461038b565b503d6105f9565b61062c6106329187999496959399612132565b97611deb565b61063d871515612099565b6002549360405194631c8f084760e01b8652886004870152602486015260208560448173__$8537b7efa173772577da826929141ce939$__5af49485156105dd575f95610805575b506001600160a01b038116806107275761069f868a61213f565b34036106fd5788610378966106b86102209b85336122b9565b506003546106d290829086906001600160a01b03166122b9565b505b60405191825260208201525f8051602061244b83398151915260403392a391968193945061032c565b60405162461bcd60e51b815260206004820152600260248201526110cd60f21b6044820152606490fd5b610731868a61213f565b604051906323b872dd60e01b825233600483015230602483015260448201526020816064815f865af19081156105dd575f916107cb575b50156107a15788610378966107816102209b85336122b9565b5060035461079b90829086906001600160a01b03166122b9565b506106d4565b60405162461bcd60e51b81526020600482015260026024820152612a1960f11b6044820152606490fd5b90506020813d6020116107fd575b816107e660209383611e7e565b81010312610191576107f790611eb4565b8e610768565b3d91506107d9565b9094506020813d602011610831575b8161082160209383611e7e565b810103126101915751938c610685565b3d9150610814565b3461019157606036600319011261019157610852611bf4565b61085a611bde565b60443591335f52600160205260405f2060018060a01b0383165f526020526108888360405f20541015611e1c565b335f52600160205260405f2060018060a01b0383165f5260205260405f206108b1848254612132565b905560018060a01b031690815f52600160205260405f2060018060a01b0382165f5260205260405f206108e584825461213f565b90556040519283526001600160a01b03169133907fd1398bee19313d6bf672ccb116e51f4a1a947e91c757907f51fbb5b5e56c698f90602090a4602060405160018152f35b602036600319011261019157600435805f52600460205260405f2090600182019161095f60018060a01b03845416331461214c565b600281019061099d825461097860ff8260b01c1661217d565b61098860ff8260b81c16156121af565b60ff8160a01c16159081610c4b575b506121e1565b600a81018054335f9081526001602090815260408083206001600160a01b039094168084529390915290205490919060068401548110610a90575b505460048301546109f49250906001600160a01b031633612212565b508154600160b81b60ff60b81b198216179092555492546040516001600160a01b0392831680825294918316929091169083907f5e02698c1650d6cbe1f7e8a48609d0da45ad7f5e4c13cd8b196f82965c0ab0d590602090a481610a5e575b602060405160018152f35b60207f957372c0e02d2882134cc0eebbef9e446634d8ccbb1cbb112bdefdd3cf0a643c91604051908152a28080610a53565b610a9e906004850154612132565b91610aaf60ff5f5460a01c16611deb565b610aba831515612099565b6002549260405193631c8f084760e01b8552816004860152602485015260208460448173__$8537b7efa173772577da826929141ce939$__5af49384156105dd575f94610c17575b5081610b6757610b12848261213f565b34036106fd576109f493610b278284336122b9565b50600354610b4190829085906001600160a01b03166122b9565b505b60405191825260208201525f8051602061244b83398151915260403392a3866109d8565b610b71848261213f565b604051906323b872dd60e01b825233600483015230602483015260448201526020816064815f875af19081156105dd575f91610bdd575b50156107a1576109f493610bbd8284336122b9565b50600354610bd790829085906001600160a01b03166122b9565b50610b43565b90506020813d602011610c0f575b81610bf860209383611e7e565b8101031261019157610c0990611eb4565b89610ba8565b3d9150610beb565b9093506020813d602011610c43575b81610c3360209383611e7e565b8101031261019157519288610b02565b3d9150610c26565b60ff915060a81c161586610997565b34610191575f366003190112610191576020600554604051908152f35b3461019157602036600319011261019157600435805f52600460205260405f2090600182019060018060a01b0382541633148015610d89575b610cb99061214c565b7f086c61b89ef5fcdb14c243b643069c3c6a84765b27f2a696b875dddf031afb4d610d6c6002850194610d1a8654610cf660ff8260b01c1661217d565b610d0660ff8260b81c16156121af565b60ff8160a01c16159081610d7a57506121e1565b805460098201546005830154610d3e9290916001600160a01b0390811691166122b9565b505493549454604080516001600160a01b039283168152336020820152968216969590911694918291820190565b0390a4602060405160018152f35b60ff915060a81c161588610997565b5082546001600160a01b03163314610cb0565b34610191575f366003190112610191575f546040516001600160a01b039091168152602090f35b34610191575f366003190112610191576020600254604051908152f35b34610191575f366003190112610191575f54610e06336001600160a01b03831614612068565b60ff60a01b19165f557f017904e4fe7d59bb4603c7c045bc275a05da9ea3a4ac007fc80fffeaf119186d60206040515f8152a1005b34610191576020366003190112610191576004355f52600460205260405f20600160a01b6001900381541690600160a01b600190036001820154169060028101546003820154600483015460058401546006850154600786015491600887015493600160a01b6001900360098901541695600160a01b60019003600a8a01541697600b8a015499600c015460ff169a6040519c8d5260208d0152600160a01b60019003811660408d01528060a01c60ff16151560608d01528060a81c60ff16151560808d01528060b01c60ff16151560a08d015260b81c60ff16151560c08c015260e08b01526101008a01526101208901526101408801526101608701526101808601526101a08501526101c08401526101e08301526102008201610f5f91611cef565b61022090f35b3461019157602036600319011261019157600435805f52600460205260405f2090600182019060018060a01b038254163314801561101e575b610fa79061214c565b7f086c61b89ef5fcdb14c243b643069c3c6a84765b27f2a696b875dddf031afb4d610d6c6002850194610fec865460ff8160b81c161580611010575b610d06906121af565b805460098201546005830154610d3e9290916001600160a01b039081169116612314565b5060b081901c60ff16610fe3565b5082546001600160a01b03163314610f9e565b34610191576020366003190112610191576001600160a01b03611052611bf4565b165f52600160205260405f205f8052602052602060405f2054604051908152f35b34610191576020366003190112610191575f61020060405161109481611e4d565b8281528260208201528260408201528260608201528260808201528260a08201528260c08201528260e08201528261010082015282610120820152826101408201528261016082015282610180820152826101a0820152826101c0820152826101e082015201526004355f52600460205260405f2060ff600c6040519261111a84611e4d565b80546001600160a01b0390811685526001820154811660208601526002820154808216604087015260a081811c86161515606088015260a882901c86161515608088015260b082901c861615159087015260b81c8416151560c0860152600382015460e08601526004820154610100860152600582015461012086015260068083015461014087015260078301546101608701526008830154610180870152600983015482166101a0870152600a8301549091166101c0860152600b8201546101e0860152910154909116919082101561059557610220916102008201526112056040518092611cfc565bf35b60403660031901126101915761121b611bf4565b60243561122e60ff5f5460a01c16611deb565b611239811515612099565b60025460405190631c8f084760e01b8252826004830152602482015260208160448173__$8537b7efa173772577da826929141ce939$__5af49081156105dd575f9161137c575b506001600160a01b03831692836112e55761129b828461213f565b34036106fd5781816112b1856112c394336122b9565b506003546001600160a01b03166122b9565b505b60405191825260208201525f8051602061244b83398151915260403392a3005b6112ef828461213f565b604051906323b872dd60e01b825233600483015230602483015260448201526020816064815f895af19081156105dd575f91611342575b50156107a15781816112b18561133c94336122b9565b506112c5565b90506020813d602011611374575b8161135d60209383611e7e565b810103126101915761136e90611eb4565b85611326565b3d9150611350565b90506020813d6020116113a6575b8161139760209383611e7e565b81010312610191575183611280565b3d915061138a565b34610191575f36600319011261019157602060ff5f5460a01c166040519015158152f35b3461019157602036600319011261019157600435805f52600460205260405f2090600182019161140c60018060a01b03845416331461214c565b6002810190611425825461097860ff8260b01c1661217d565b600a810154335f9081526001602090815260408083206001600160a01b03909416808452939091529020546109f491611465600485015480931015611e1c565b33612212565b346101915760203660031901126101915760043560025460405190631c8f084760e01b8252826004830152602482015260208160448173__$8537b7efa173772577da826929141ce939$__5af49081156105dd575f916114da575b60206114d2838561213f565b604051908152f35b90506020813d602011611505575b816114f560209383611e7e565b81010312610191575160206114c6565b3d91506114e8565b34610191575f366003190112610191575f54611533336001600160a01b03831614612068565b60ff60a01b1916600160a01b175f55604051600181527f017904e4fe7d59bb4603c7c045bc275a05da9ea3a4ac007fc80fffeaf119186d90602090a1005b61157a36611c8c565b91959360ff5f969492965460a01c169261159384611deb565b335f52600160205260405f2060018060a01b0389165f5260205260405f2054828110611865575b506102209350611604906115cf838a33612212565b5073__$69ea93bdf3b1e5da8164bfe3d9a878d765$__97604051998a95869563652e83d760e01b8752898b3360048a016120ca565b0381865af49384156105dd575f94611844575b5060206005546102446040518096819363797d4ee160e01b835261163e600484018b611cfc565b6102248301525af49283156105dd575f93611810575b50611660600554612046565b6005555f83815260046020908152604091829020865181546001600160a01b039182166001600160a01b031991821617835592880151600183018054918316919094161790925591860151600283018054606089015160ff60a01b90151560a01b16929093166001600160a81b03199093169290921717815561020091600c916116e990610459565b60e0870151600382015561010087015160048201556101208701516005820155610140870151600680830191909155610160880151600783015561018088015160088301556101a08801516009830180546001600160a01b039283166001600160a01b0319918216179091556101c08a0151600a850180549190931691161790556101e0880151600b83015592909601519501908510156105955760209460ff801983541691161790556040519060018060a01b03169182825260018060a01b031690837f5e02698c1650d6cbe1f7e8a48609d0da45ad7f5e4c13cd8b196f82965c0ab0d5863393a4806117e1575b50604051908152f35b7f957372c0e02d2882134cc0eebbef9e446634d8ccbb1cbb112bdefdd3cf0a643c83604051848152a2826117d8565b9092506020813d60201161183c575b8161182c60209383611e7e565b8101031261019157519184611654565b3d915061181f565b61185e9194506102203d8111610612576106038183611e7e565b9284611617565b6118726118789184612132565b94611deb565b611883841515612099565b6002549060405191631c8f084760e01b8352856004840152602483015260208260448173__$8537b7efa173772577da826929141ce939$__5af49182156105dd575f926119f2575b506001600160a01b0389168061193e576118e5838761213f565b34036106fd5785611604936118fe610220988d336122b9565b506003546119189082908e906001600160a01b03166122b9565b505b60405191825260208201525f8051602061244b83398151915260403392a3906115ba565b611948838761213f565b604051906323b872dd60e01b825233600483015230602483015260448201526020816064815f865af19081156105dd575f916119b8575b50156107a1578561160493611998610220988d336122b9565b506003546119b29082908e906001600160a01b03166122b9565b5061191a565b90506020813d6020116119ea575b816119d360209383611e7e565b81010312610191576119e490611eb4565b8b61197f565b3d91506119c6565b9091506020813d602011611a1e575b81611a0e60209383611e7e565b81010312610191575190896118cb565b3d9150611a01565b3461019157610220611604611a3a36611c8c565b611a5160ff5f9a96949a9993995460a01c16611deb565b335f52600160205260405f2060018060a01b038a165f52602052611a7b8360405f20541015611e1c565b6115cf838a33612212565b3461019157604036600319011261019157600435611aa2611bde565b611ab660018060a01b035f54163314612068565b6001600160a01b03168015611b255781604091611afb6402540be4007f14bdaadaed0453e7b5b66195b42156ba995b9e5abd0da98368839851d69ad889951115612099565b81600255806bffffffffffffffffffffffff60a01b600354161760035582519182526020820152a1005b60405162461bcd60e51b8152602060048201526002602482015261433160f01b6044820152606490fd5b34610191575f366003190112610191576003546040516001600160a01b039091168152602090f35b3461019157610220610378611b8b36611c0a565b92611ba960ff5f9d99979d9c969c9b9a9b9493945460a01c16611deb565b335f52600160205260405f2060018060a01b0382165f52602052611bd38660405f20541015611e1c565b610343868233612212565b602435906001600160a01b038216820361019157565b600435906001600160a01b038216820361019157565b610140906003190112610191576004356001600160a01b038116810361019157906024356001600160a01b0381168103610191579060443590606435906084359060a4359060c4356001600160a01b0381168103610191579060e4356001600160a01b0381168103610191579061010435906101243560068110156101915790565b60e0906003190112610191576004356001600160a01b038116810361019157906024356001600160a01b0381168103610191579060443590606435906084356001600160a01b0381168103610191579060a4359060c43560068110156101915790565b9060068210156105955752565b9061020080611de99360018060a01b03815116845260018060a01b03602082015116602085015260018060a01b03604082015116604085015260608101511515606085015260808101511515608085015260a0810151151560a085015260c0810151151560c085015260e081015160e085015261010081015161010085015261012081015161012085015261014081015161014085015261016081015161016085015261018081015161018085015260018060a01b036101a0820151166101a085015260018060a01b036101c0820151166101c08501526101e08101516101e08501520151910190611cef565b565b15611df257565b60405162461bcd60e51b81526020600482015260026024820152614c3160f01b6044820152606490fd5b15611e2357565b60405162461bcd60e51b8152602060048201526002602482015261543160f01b6044820152606490fd5b610220810190811067ffffffffffffffff821117611e6a57604052565b634e487b7160e01b5f52604160045260245ffd5b90601f8019910116810190811067ffffffffffffffff821117611e6a57604052565b51906001600160a01b038216820361019157565b5190811515820361019157565b90816102209103126101915761020060405191611edd83611e4d565b611ee681611ea0565b8352611ef460208201611ea0565b6020840152611f0560408201611ea0565b6040840152611f1660608201611eb4565b6060840152611f2760808201611eb4565b6080840152611f3860a08201611eb4565b60a0840152611f4960c08201611eb4565b60c084015260e081015160e0840152610100810151610100840152610120810151610120840152610140810151610140840152610160810151610160840152610180810151610180840152611fa16101a08201611ea0565b6101a0840152611fb46101c08201611ea0565b6101c08401526101e08101516101e0840152015160068110156101915761020082015290565b6001600160a01b039182168152918116602083015291821660408201526060810192909252608082019290925260a081019290925260c082019290925291811660e083015290911661010082015261012081019190915261016081019291611de9916101400190611cef565b5f1981146120545760010190565b634e487b7160e01b5f52601160045260245ffd5b1561206f57565b60405162461bcd60e51b8152602060048201526002602482015261261960f11b6044820152606490fd5b156120a057565b60405162461bcd60e51b8152602060048201526002602482015261433560f01b6044820152606490fd5b6001600160a01b0391821681529181166020830152918216604082015260608101929092525f6080830181905260a083019390935260c0820183905290921660e083015261010082015261012081019190915261016081019291611de9916101400190611cef565b9190820391821161205457565b9190820180921161205457565b1561215357565b60405162461bcd60e51b8152602060048201526002602482015261443560f01b6044820152606490fd5b1561218457565b606460405162461bcd60e51b815260206004820152600460248201526344332e3160e01b6044820152fd5b156121b657565b606460405162461bcd60e51b815260206004820152600460248201526344322e3160e01b6044820152fd5b156121e857565b60405162461bcd60e51b8152602060048201526002602482015261443360f01b6044820152606490fd5b82156122b15760018060a01b031690815f52600160205260405f2060018060a01b0382165f526020528260405f2054106122aa577fd1398bee19313d6bf672ccb116e51f4a1a947e91c757907f51fbb5b5e56c698f60205f92848452600182526040842060018060a01b0382168552825260408420612292878254612132565b90556040519586526001600160a01b031694a4600190565b5050505f90565b505050600190565b82156122b1577fd1398bee19313d6bf672ccb116e51f4a1a947e91c757907f51fbb5b5e56c698f60205f9260018060a01b031693848452600182526040842060018060a01b038216855282526040842061229287825461213f565b919081156122b1576001600160a01b0316918261237c575f808080856001600160a01b03861682f1156105dd5760207f2717ead6b9200dd235aad468c9809ea400fe33ac69b5bfaa6d3e90fc922b6398915b6040519384526001600160a01b031692a3600190565b60405163a9059cbb60e01b81526001600160a01b0382166004820152602481018390526020816044815f885af19081156105dd575f91612410575b50156123e65760207f2717ead6b9200dd235aad468c9809ea400fe33ac69b5bfaa6d3e90fc922b639891612366565b60405162461bcd60e51b8152602060048201526002602482015261543360f01b6044820152606490fd5b90506020813d602011612442575b8161242b60209383611e7e565b810103126101915761243c90611eb4565b5f6123b7565b3d915061241e56fedcbc1c05240f31ff3ad067ef1ee35ce4997762752e3a095284754544f4c709d7a26469706673582212204f6dcf10a331528773253bdc3f6bc96fbd9f89f5598e436235e68789f4f260c964736f6c634300081a0033",
					"opcodes": "PUSH1 0x80 CALLVALUE PUSH2 0x132 JUMPI PUSH1 0x1F PUSH2 0x25EB CODESIZE DUP2 SWAP1 SUB SWAP2 DUP3 ADD PUSH1 0x1F NOT AND DUP4 ADD SWAP2 PUSH1 0x1 PUSH1 0x1 PUSH1 0x40 SHL SUB DUP4 GT DUP5 DUP5 LT OR PUSH2 0x136 JUMPI DUP1 DUP5 SWAP3 PUSH1 0x40 SWAP5 DUP6 MSTORE DUP4 CODECOPY DUP2 ADD SUB SLT PUSH2 0x132 JUMPI DUP1 MLOAD PUSH1 0x20 SWAP1 SWAP2 ADD MLOAD PUSH1 0x1 PUSH1 0x1 PUSH1 0xA0 SHL SUB DUP2 AND SWAP2 SWAP1 DUP3 SWAP1 SUB PUSH2 0x132 JUMPI PUSH0 DUP1 SLOAD PUSH1 0x1 PUSH1 0x1 PUSH1 0xA8 SHL SUB NOT AND CALLER OR PUSH1 0x1 PUSH1 0xA0 SHL OR DUP1 DUP3 SSTORE PUSH1 0x40 MLOAD SWAP2 PUSH1 0x1 PUSH1 0x1 PUSH1 0xA0 SHL SUB SWAP1 SWAP2 AND SWAP1 PUSH32 0x8BE0079C531659141344CD1FD0A4F28419497F9722A3DAAFE3B4186F6B6457E0 DUP2 DUP1 LOG3 DUP3 ISZERO PUSH2 0x10B JUMPI POP PUSH5 0x2540BE400 DUP2 GT PUSH2 0xE1 JUMPI PUSH1 0x2 SSTORE PUSH1 0x1 DUP1 PUSH1 0xA0 SHL SUB NOT PUSH1 0x3 SLOAD AND OR PUSH1 0x3 SSTORE PUSH0 PUSH1 0x5 SSTORE PUSH0 PUSH1 0x6 SSTORE PUSH1 0x40 MLOAD PUSH2 0x24A0 SWAP1 DUP2 PUSH2 0x14B DUP3 CODECOPY RETURN JUMPDEST PUSH1 0x40 MLOAD PUSH3 0x461BCD PUSH1 0xE5 SHL DUP2 MSTORE PUSH1 0x20 PUSH1 0x4 DUP3 ADD MSTORE PUSH1 0x2 PUSH1 0x24 DUP3 ADD MSTORE PUSH2 0x4335 PUSH1 0xF0 SHL PUSH1 0x44 DUP3 ADD MSTORE PUSH1 0x64 SWAP1 REVERT JUMPDEST PUSH3 0x461BCD PUSH1 0xE5 SHL DUP2 MSTORE PUSH1 0x20 PUSH1 0x4 DUP3 ADD MSTORE PUSH1 0x2 PUSH1 0x24 DUP3 ADD MSTORE PUSH2 0x4331 PUSH1 0xF0 SHL PUSH1 0x44 DUP3 ADD MSTORE PUSH1 0x64 SWAP1 REVERT JUMPDEST PUSH0 DUP1 REVERT JUMPDEST PUSH4 0x4E487B71 PUSH1 0xE0 SHL PUSH0 MSTORE PUSH1 0x41 PUSH1 0x4 MSTORE PUSH1 0x24 PUSH0 REVERT INVALID PUSH1 0x80 PUSH1 0x40 MSTORE PUSH1 0x4 CALLDATASIZE LT ISZERO PUSH2 0x11 JUMPI PUSH0 DUP1 REVERT JUMPDEST PUSH0 CALLDATALOAD PUSH1 0xE0 SHR DUP1 PUSH3 0x7E8BD3 EQ PUSH2 0x1B77 JUMPI DUP1 PUSH4 0x6FD154A EQ PUSH2 0x1B4F JUMPI DUP1 PUSH4 0x15F8A314 EQ PUSH2 0x1A86 JUMPI DUP1 PUSH4 0x17B52B50 EQ PUSH2 0x1A26 JUMPI DUP1 PUSH4 0x28D5A050 EQ PUSH2 0x1571 JUMPI DUP1 PUSH4 0x367EDD32 EQ PUSH2 0x150D JUMPI DUP1 PUSH4 0x39B3EDB0 EQ PUSH2 0x146B JUMPI DUP1 PUSH4 0x4187129C EQ PUSH2 0x13D2 JUMPI DUP1 PUSH4 0x41B3A0D9 EQ PUSH2 0x13AE JUMPI DUP1 PUSH4 0x47E7EF24 EQ PUSH2 0x1207 JUMPI DUP1 PUSH4 0x51A6FAD5 EQ PUSH2 0x1073 JUMPI DUP1 PUSH4 0x70A08231 EQ PUSH2 0x1031 JUMPI DUP1 PUSH4 0x80CCB070 EQ PUSH2 0xF65 JUMPI DUP1 PUSH4 0x81CD872A EQ PUSH2 0xE3B JUMPI DUP1 PUSH4 0x894BA833 EQ PUSH2 0xDE0 JUMPI DUP1 PUSH4 0x899A3FFD EQ PUSH2 0xDC3 JUMPI DUP1 PUSH4 0x8DA5CB5B EQ PUSH2 0xD9C JUMPI DUP1 PUSH4 0x8DEEA5FB EQ PUSH2 0xC77 JUMPI DUP1 PUSH4 0x966D1F1D EQ PUSH2 0xC5A JUMPI DUP1 PUSH4 0xBB06C1A4 EQ PUSH2 0x92A JUMPI DUP1 PUSH4 0xBEABACC8 EQ PUSH2 0x839 JUMPI DUP1 PUSH4 0xC23F001F EQ PUSH2 0x141 JUMPI DUP1 PUSH4 0xCFADF6C7 EQ PUSH2 0x2E2 JUMPI DUP1 PUSH4 0xE08560A4 EQ PUSH2 0x2C5 JUMPI DUP1 PUSH4 0xF2FDE38B EQ PUSH2 0x1FB JUMPI DUP1 PUSH4 0xF3FEF3A3 EQ PUSH2 0x195 JUMPI PUSH4 0xF7888AEC EQ PUSH2 0x141 JUMPI PUSH0 DUP1 REVERT JUMPDEST CALLVALUE PUSH2 0x191 JUMPI PUSH1 0x40 CALLDATASIZE PUSH1 0x3 NOT ADD SLT PUSH2 0x191 JUMPI PUSH2 0x15A PUSH2 0x1BF4 JUMP JUMPDEST PUSH2 0x162 PUSH2 0x1BDE JUMP JUMPDEST PUSH1 0x1 PUSH1 0x1 PUSH1 0xA0 SHL SUB SWAP2 DUP3 AND PUSH0 SWAP1 DUP2 MSTORE PUSH1 0x1 PUSH1 0x20 SWAP1 DUP2 MSTORE PUSH1 0x40 DUP1 DUP4 KECCAK256 SWAP5 SWAP1 SWAP4 AND DUP3 MSTORE SWAP3 DUP4 MSTORE DUP2 SWAP1 KECCAK256 SLOAD SWAP1 MLOAD SWAP1 DUP2 MSTORE RETURN JUMPDEST PUSH0 DUP1 REVERT JUMPDEST CALLVALUE PUSH2 0x191 JUMPI PUSH1 0x40 CALLDATASIZE PUSH1 0x3 NOT ADD SLT PUSH2 0x191 JUMPI PUSH1 0x20 PUSH2 0x1F1 PUSH2 0x1B3 PUSH2 0x1BF4 JUMP JUMPDEST PUSH1 0x24 CALLDATALOAD SWAP1 CALLER PUSH0 MSTORE PUSH1 0x1 DUP5 MSTORE PUSH1 0x40 PUSH0 KECCAK256 PUSH1 0x1 DUP1 PUSH1 0xA0 SHL SUB DUP3 AND PUSH0 MSTORE DUP5 MSTORE PUSH2 0x1DF DUP3 PUSH1 0x40 PUSH0 KECCAK256 SLOAD LT ISZERO PUSH2 0x1E1C JUMP JUMPDEST PUSH2 0x1EA DUP3 DUP3 CALLER PUSH2 0x2212 JUMP JUMPDEST POP CALLER PUSH2 0x2314 JUMP JUMPDEST PUSH1 0x40 MLOAD SWAP1 ISZERO ISZERO DUP2 MSTORE RETURN JUMPDEST CALLVALUE PUSH2 0x191 JUMPI PUSH1 0x20 CALLDATASIZE PUSH1 0x3 NOT ADD SLT PUSH2 0x191 JUMPI PUSH2 0x214 PUSH2 0x1BF4 JUMP JUMPDEST PUSH0 SLOAD PUSH1 0x1 PUSH1 0x1 PUSH1 0xA0 SHL SUB DUP2 AND SWAP2 PUSH2 0x22C CALLER DUP5 EQ PUSH2 0x2068 JUMP JUMPDEST PUSH1 0x1 PUSH1 0x1 PUSH1 0xA0 SHL SUB AND SWAP2 DUP3 ISZERO PUSH2 0x271 JUMPI DUP3 SWAP1 PUSH32 0x8BE0079C531659141344CD1FD0A4F28419497F9722A3DAAFE3B4186F6B6457E0 PUSH0 DUP1 LOG3 PUSH1 0x1 PUSH1 0x1 PUSH1 0xA0 SHL SUB NOT AND OR PUSH0 SSTORE STOP JUMPDEST PUSH1 0x40 MLOAD PUSH3 0x461BCD PUSH1 0xE5 SHL DUP2 MSTORE PUSH1 0x20 PUSH1 0x4 DUP3 ADD MSTORE PUSH1 0x26 PUSH1 0x24 DUP3 ADD MSTORE PUSH32 0x4F776E61626C653A206E6577206F776E657220697320746865207A65726F2061 PUSH1 0x44 DUP3 ADD MSTORE PUSH6 0x646472657373 PUSH1 0xD0 SHL PUSH1 0x64 DUP3 ADD MSTORE PUSH1 0x84 SWAP1 REVERT JUMPDEST CALLVALUE PUSH2 0x191 JUMPI PUSH0 CALLDATASIZE PUSH1 0x3 NOT ADD SLT PUSH2 0x191 JUMPI PUSH1 0x20 PUSH1 0x6 SLOAD PUSH1 0x40 MLOAD SWAP1 DUP2 MSTORE RETURN JUMPDEST PUSH2 0x2EB CALLDATASIZE PUSH2 0x1C0A JUMP JUMPDEST SWAP2 SWAP1 SWAP5 SWAP9 SWAP6 SWAP4 SWAP8 SWAP7 SWAP3 PUSH1 0xFF PUSH0 SLOAD PUSH1 0xA0 SHR AND PUSH2 0x305 DUP2 PUSH2 0x1DEB JUMP JUMPDEST CALLER PUSH0 MSTORE PUSH1 0x1 PUSH1 0x20 MSTORE PUSH1 0x40 PUSH0 KECCAK256 PUSH1 0x1 DUP1 PUSH1 0xA0 SHL SUB DUP4 AND PUSH0 MSTORE PUSH1 0x20 MSTORE PUSH1 0x40 PUSH0 KECCAK256 SLOAD DUP6 DUP2 LT PUSH2 0x619 JUMPI JUMPDEST POP POP SWAP5 PUSH2 0x378 SWAP3 SWAP2 DUP7 PUSH2 0x343 DUP7 PUSH2 0x220 SWAP10 CALLER PUSH2 0x2212 JUMP JUMPDEST POP PUSH20 0x0 SWAP11 PUSH1 0x40 MLOAD SWAP13 DUP14 SWAP9 DUP10 SWAP9 PUSH4 0x652E83D7 PUSH1 0xE0 SHL DUP11 MSTORE DUP14 DUP14 CALLER PUSH1 0x4 DUP14 ADD PUSH2 0x1FDA JUMP JUMPDEST SUB DUP2 DUP7 GAS DELEGATECALL SWAP4 DUP5 ISZERO PUSH2 0x5DD JUMPI PUSH0 SWAP5 PUSH2 0x5E8 JUMPI JUMPDEST POP PUSH1 0x20 PUSH1 0x5 SLOAD PUSH2 0x244 PUSH1 0x40 MLOAD DUP1 SWAP7 DUP2 SWAP4 PUSH4 0x797D4EE1 PUSH1 0xE0 SHL DUP4 MSTORE PUSH2 0x3B2 PUSH1 0x4 DUP5 ADD DUP12 PUSH2 0x1CFC JUMP JUMPDEST PUSH2 0x224 DUP4 ADD MSTORE GAS DELEGATECALL SWAP3 DUP4 ISZERO PUSH2 0x5DD JUMPI PUSH0 SWAP4 PUSH2 0x5A9 JUMPI JUMPDEST POP PUSH2 0x3D4 PUSH1 0x5 SLOAD PUSH2 0x2046 JUMP JUMPDEST PUSH1 0x5 SSTORE PUSH0 DUP4 DUP2 MSTORE PUSH1 0x4 PUSH1 0x20 SWAP1 DUP2 MSTORE PUSH1 0x40 SWAP2 DUP3 SWAP1 KECCAK256 DUP7 MLOAD DUP2 SLOAD PUSH1 0x1 PUSH1 0x1 PUSH1 0xA0 SHL SUB SWAP2 DUP3 AND PUSH1 0x1 PUSH1 0x1 PUSH1 0xA0 SHL SUB NOT SWAP2 DUP3 AND OR DUP4 SSTORE SWAP3 DUP9 ADD MLOAD PUSH1 0x1 DUP4 ADD DUP1 SLOAD SWAP2 DUP4 AND SWAP2 SWAP1 SWAP5 AND OR SWAP1 SWAP3 SSTORE SWAP2 DUP7 ADD MLOAD PUSH1 0x2 DUP4 ADD DUP1 SLOAD PUSH1 0x60 DUP10 ADD MLOAD PUSH1 0xFF PUSH1 0xA0 SHL SWAP1 ISZERO ISZERO PUSH1 0xA0 SHL AND SWAP3 SWAP1 SWAP4 AND PUSH1 0x1 PUSH1 0x1 PUSH1 0xA8 SHL SUB NOT SWAP1 SWAP4 AND SWAP3 SWAP1 SWAP3 OR OR DUP2 SSTORE PUSH2 0x200 SWAP2 PUSH1 0xC SWAP2 PUSH2 0x4A6 SWAP1 JUMPDEST PUSH1 0x80 DUP10 ADD MLOAD DUP2 SLOAD PUSH1 0xA0 DUP12 ADD MLOAD PUSH1 0xC0 DUP13 ADD MLOAD PUSH3 0xFFFFFF PUSH1 0xA8 SHL NOT SWAP1 SWAP3 AND SWAP3 ISZERO ISZERO PUSH1 0xA8 SHL PUSH1 0xFF PUSH1 0xA8 SHL AND SWAP3 SWAP1 SWAP3 OR SWAP2 ISZERO ISZERO PUSH1 0xB0 SHL PUSH1 0xFF PUSH1 0xB0 SHL AND SWAP2 SWAP1 SWAP2 OR SWAP1 ISZERO ISZERO PUSH1 0xB8 SHL PUSH1 0xFF PUSH1 0xB8 SHL AND OR SWAP1 SSTORE JUMP JUMPDEST PUSH1 0xE0 DUP8 ADD MLOAD PUSH1 0x3 DUP3 ADD SSTORE PUSH2 0x100 DUP8 ADD MLOAD PUSH1 0x4 DUP3 ADD SSTORE PUSH2 0x120 DUP8 ADD MLOAD PUSH1 0x5 DUP3 ADD SSTORE PUSH2 0x140 DUP8 ADD MLOAD PUSH1 0x6 DUP1 DUP4 ADD SWAP2 SWAP1 SWAP2 SSTORE PUSH2 0x160 DUP9 ADD MLOAD PUSH1 0x7 DUP4 ADD SSTORE PUSH2 0x180 DUP9 ADD MLOAD PUSH1 0x8 DUP4 ADD SSTORE PUSH2 0x1A0 DUP9 ADD MLOAD PUSH1 0x9 DUP4 ADD DUP1 SLOAD PUSH1 0x1 PUSH1 0x1 PUSH1 0xA0 SHL SUB SWAP3 DUP4 AND PUSH1 0x1 PUSH1 0x1 PUSH1 0xA0 SHL SUB NOT SWAP2 DUP3 AND OR SWAP1 SWAP2 SSTORE PUSH2 0x1C0 DUP11 ADD MLOAD PUSH1 0xA DUP6 ADD DUP1 SLOAD SWAP2 SWAP1 SWAP4 AND SWAP2 AND OR SWAP1 SSTORE PUSH2 0x1E0 DUP9 ADD MLOAD PUSH1 0xB DUP4 ADD SSTORE SWAP3 SWAP1 SWAP7 ADD MLOAD SWAP6 ADD SWAP1 DUP6 LT ISZERO PUSH2 0x595 JUMPI PUSH1 0x20 SWAP5 PUSH1 0xFF DUP1 NOT DUP4 SLOAD AND SWAP2 AND OR SWAP1 SSTORE PUSH1 0x40 MLOAD SWAP2 PUSH1 0x1 DUP1 PUSH1 0xA0 SHL SUB AND DUP3 MSTORE PUSH1 0x1 DUP1 PUSH1 0xA0 SHL SUB AND SWAP1 DUP3 PUSH32 0x44E1FF8E67FAD6B456BD43FF165BA4E9BB004370AA27A76881C6ACB60DFD6DD9 DUP6 CALLER SWAP4 LOG4 PUSH1 0x40 MLOAD SWAP1 DUP2 MSTORE RETURN JUMPDEST PUSH4 0x4E487B71 PUSH1 0xE0 SHL PUSH0 MSTORE PUSH1 0x21 PUSH1 0x4 MSTORE PUSH1 0x24 PUSH0 REVERT JUMPDEST SWAP1 SWAP3 POP PUSH1 0x20 DUP2 RETURNDATASIZE PUSH1 0x20 GT PUSH2 0x5D5 JUMPI JUMPDEST DUP2 PUSH2 0x5C5 PUSH1 0x20 SWAP4 DUP4 PUSH2 0x1E7E JUMP JUMPDEST DUP2 ADD SUB SLT PUSH2 0x191 JUMPI MLOAD SWAP2 DUP5 PUSH2 0x3C8 JUMP JUMPDEST RETURNDATASIZE SWAP2 POP PUSH2 0x5B8 JUMP JUMPDEST PUSH1 0x40 MLOAD RETURNDATASIZE PUSH0 DUP3 RETURNDATACOPY RETURNDATASIZE SWAP1 REVERT JUMPDEST PUSH2 0x60B SWAP2 SWAP5 POP PUSH2 0x220 RETURNDATASIZE DUP2 GT PUSH2 0x612 JUMPI JUMPDEST PUSH2 0x603 DUP2 DUP4 PUSH2 0x1E7E JUMP JUMPDEST DUP2 ADD SWAP1 PUSH2 0x1EC1 JUMP JUMPDEST SWAP3 DUP5 PUSH2 0x38B JUMP JUMPDEST POP RETURNDATASIZE PUSH2 0x5F9 JUMP JUMPDEST PUSH2 0x62C PUSH2 0x632 SWAP2 DUP8 SWAP10 SWAP5 SWAP7 SWAP6 SWAP4 SWAP10 PUSH2 0x2132 JUMP JUMPDEST SWAP8 PUSH2 0x1DEB JUMP JUMPDEST PUSH2 0x63D DUP8 ISZERO ISZERO PUSH2 0x2099 JUMP JUMPDEST PUSH1 0x2 SLOAD SWAP4 PUSH1 0x40 MLOAD SWAP5 PUSH4 0x1C8F0847 PUSH1 0xE0 SHL DUP7 MSTORE DUP9 PUSH1 0x4 DUP8 ADD MSTORE PUSH1 0x24 DUP7 ADD MSTORE PUSH1 0x20 DUP6 PUSH1 0x44 DUP2 PUSH20 0x0 GAS DELEGATECALL SWAP5 DUP6 ISZERO PUSH2 0x5DD JUMPI PUSH0 SWAP6 PUSH2 0x805 JUMPI JUMPDEST POP PUSH1 0x1 PUSH1 0x1 PUSH1 0xA0 SHL SUB DUP2 AND DUP1 PUSH2 0x727 JUMPI PUSH2 0x69F DUP7 DUP11 PUSH2 0x213F JUMP JUMPDEST CALLVALUE SUB PUSH2 0x6FD JUMPI DUP9 PUSH2 0x378 SWAP7 PUSH2 0x6B8 PUSH2 0x220 SWAP12 DUP6 CALLER PUSH2 0x22B9 JUMP JUMPDEST POP PUSH1 0x3 SLOAD PUSH2 0x6D2 SWAP1 DUP3 SWAP1 DUP7 SWAP1 PUSH1 0x1 PUSH1 0x1 PUSH1 0xA0 SHL SUB AND PUSH2 0x22B9 JUMP JUMPDEST POP JUMPDEST PUSH1 0x40 MLOAD SWAP2 DUP3 MSTORE PUSH1 0x20 DUP3 ADD MSTORE PUSH0 DUP1 MLOAD PUSH1 0x20 PUSH2 0x244B DUP4 CODECOPY DUP2 MLOAD SWAP2 MSTORE PUSH1 0x40 CALLER SWAP3 LOG3 SWAP2 SWAP7 DUP2 SWAP4 SWAP5 POP PUSH2 0x32C JUMP JUMPDEST PUSH1 0x40 MLOAD PUSH3 0x461BCD PUSH1 0xE5 SHL DUP2 MSTORE PUSH1 0x20 PUSH1 0x4 DUP3 ADD MSTORE PUSH1 0x2 PUSH1 0x24 DUP3 ADD MSTORE PUSH2 0x10CD PUSH1 0xF2 SHL PUSH1 0x44 DUP3 ADD MSTORE PUSH1 0x64 SWAP1 REVERT JUMPDEST PUSH2 0x731 DUP7 DUP11 PUSH2 0x213F JUMP JUMPDEST PUSH1 0x40 MLOAD SWAP1 PUSH4 0x23B872DD PUSH1 0xE0 SHL DUP3 MSTORE CALLER PUSH1 0x4 DUP4 ADD MSTORE ADDRESS PUSH1 0x24 DUP4 ADD MSTORE PUSH1 0x44 DUP3 ADD MSTORE PUSH1 0x20 DUP2 PUSH1 0x64 DUP2 PUSH0 DUP7 GAS CALL SWAP1 DUP2 ISZERO PUSH2 0x5DD JUMPI PUSH0 SWAP2 PUSH2 0x7CB JUMPI JUMPDEST POP ISZERO PUSH2 0x7A1 JUMPI DUP9 PUSH2 0x378 SWAP7 PUSH2 0x781 PUSH2 0x220 SWAP12 DUP6 CALLER PUSH2 0x22B9 JUMP JUMPDEST POP PUSH1 0x3 SLOAD PUSH2 0x79B SWAP1 DUP3 SWAP1 DUP7 SWAP1 PUSH1 0x1 PUSH1 0x1 PUSH1 0xA0 SHL SUB AND PUSH2 0x22B9 JUMP JUMPDEST POP PUSH2 0x6D4 JUMP JUMPDEST PUSH1 0x40 MLOAD PUSH3 0x461BCD PUSH1 0xE5 SHL DUP2 MSTORE PUSH1 0x20 PUSH1 0x4 DUP3 ADD MSTORE PUSH1 0x2 PUSH1 0x24 DUP3 ADD MSTORE PUSH2 0x2A19 PUSH1 0xF1 SHL PUSH1 0x44 DUP3 ADD MSTORE PUSH1 0x64 SWAP1 REVERT JUMPDEST SWAP1 POP PUSH1 0x20 DUP2 RETURNDATASIZE PUSH1 0x20 GT PUSH2 0x7FD JUMPI JUMPDEST DUP2 PUSH2 0x7E6 PUSH1 0x20 SWAP4 DUP4 PUSH2 0x1E7E JUMP JUMPDEST DUP2 ADD SUB SLT PUSH2 0x191 JUMPI PUSH2 0x7F7 SWAP1 PUSH2 0x1EB4 JUMP JUMPDEST DUP15 PUSH2 0x768 JUMP JUMPDEST RETURNDATASIZE SWAP2 POP PUSH2 0x7D9 JUMP JUMPDEST SWAP1 SWAP5 POP PUSH1 0x20 DUP2 RETURNDATASIZE PUSH1 0x20 GT PUSH2 0x831 JUMPI JUMPDEST DUP2 PUSH2 0x821 PUSH1 0x20 SWAP4 DUP4 PUSH2 0x1E7E JUMP JUMPDEST DUP2 ADD SUB SLT PUSH2 0x191 JUMPI MLOAD SWAP4 DUP13 PUSH2 0x685 JUMP JUMPDEST RETURNDATASIZE SWAP2 POP PUSH2 0x814 JUMP JUMPDEST CALLVALUE PUSH2 0x191 JUMPI PUSH1 0x60 CALLDATASIZE PUSH1 0x3 NOT ADD SLT PUSH2 0x191 JUMPI PUSH2 0x852 PUSH2 0x1BF4 JUMP JUMPDEST PUSH2 0x85A PUSH2 0x1BDE JUMP JUMPDEST PUSH1 0x44 CALLDATALOAD SWAP2 CALLER PUSH0 MSTORE PUSH1 0x1 PUSH1 0x20 MSTORE PUSH1 0x40 PUSH0 KECCAK256 PUSH1 0x1 DUP1 PUSH1 0xA0 SHL SUB DUP4 AND PUSH0 MSTORE PUSH1 0x20 MSTORE PUSH2 0x888 DUP4 PUSH1 0x40 PUSH0 KECCAK256 SLOAD LT ISZERO PUSH2 0x1E1C JUMP JUMPDEST CALLER PUSH0 MSTORE PUSH1 0x1 PUSH1 0x20 MSTORE PUSH1 0x40 PUSH0 KECCAK256 PUSH1 0x1 DUP1 PUSH1 0xA0 SHL SUB DUP4 AND PUSH0 MSTORE PUSH1 0x20 MSTORE PUSH1 0x40 PUSH0 KECCAK256 PUSH2 0x8B1 DUP5 DUP3 SLOAD PUSH2 0x2132 JUMP JUMPDEST SWAP1 SSTORE PUSH1 0x1 DUP1 PUSH1 0xA0 SHL SUB AND SWAP1 DUP2 PUSH0 MSTORE PUSH1 0x1 PUSH1 0x20 MSTORE PUSH1 0x40 PUSH0 KECCAK256 PUSH1 0x1 DUP1 PUSH1 0xA0 SHL SUB DUP3 AND PUSH0 MSTORE PUSH1 0x20 MSTORE PUSH1 0x40 PUSH0 KECCAK256 PUSH2 0x8E5 DUP5 DUP3 SLOAD PUSH2 0x213F JUMP JUMPDEST SWAP1 SSTORE PUSH1 0x40 MLOAD SWAP3 DUP4 MSTORE PUSH1 0x1 PUSH1 0x1 PUSH1 0xA0 SHL SUB AND SWAP2 CALLER SWAP1 PUSH32 0xD1398BEE19313D6BF672CCB116E51F4A1A947E91C757907F51FBB5B5E56C698F SWAP1 PUSH1 0x20 SWAP1 LOG4 PUSH1 0x20 PUSH1 0x40 MLOAD PUSH1 0x1 DUP2 MSTORE RETURN JUMPDEST PUSH1 0x20 CALLDATASIZE PUSH1 0x3 NOT ADD SLT PUSH2 0x191 JUMPI PUSH1 0x4 CALLDATALOAD DUP1 PUSH0 MSTORE PUSH1 0x4 PUSH1 0x20 MSTORE PUSH1 0x40 PUSH0 KECCAK256 SWAP1 PUSH1 0x1 DUP3 ADD SWAP2 PUSH2 0x95F PUSH1 0x1 DUP1 PUSH1 0xA0 SHL SUB DUP5 SLOAD AND CALLER EQ PUSH2 0x214C JUMP JUMPDEST PUSH1 0x2 DUP2 ADD SWAP1 PUSH2 0x99D DUP3 SLOAD PUSH2 0x978 PUSH1 0xFF DUP3 PUSH1 0xB0 SHR AND PUSH2 0x217D JUMP JUMPDEST PUSH2 0x988 PUSH1 0xFF DUP3 PUSH1 0xB8 SHR AND ISZERO PUSH2 0x21AF JUMP JUMPDEST PUSH1 0xFF DUP2 PUSH1 0xA0 SHR AND ISZERO SWAP1 DUP2 PUSH2 0xC4B JUMPI JUMPDEST POP PUSH2 0x21E1 JUMP JUMPDEST PUSH1 0xA DUP2 ADD DUP1 SLOAD CALLER PUSH0 SWAP1 DUP2 MSTORE PUSH1 0x1 PUSH1 0x20 SWAP1 DUP2 MSTORE PUSH1 0x40 DUP1 DUP4 KECCAK256 PUSH1 0x1 PUSH1 0x1 PUSH1 0xA0 SHL SUB SWAP1 SWAP5 AND DUP1 DUP5 MSTORE SWAP4 SWAP1 SWAP2 MSTORE SWAP1 KECCAK256 SLOAD SWAP1 SWAP2 SWAP1 PUSH1 0x6 DUP5 ADD SLOAD DUP2 LT PUSH2 0xA90 JUMPI JUMPDEST POP SLOAD PUSH1 0x4 DUP4 ADD SLOAD PUSH2 0x9F4 SWAP3 POP SWAP1 PUSH1 0x1 PUSH1 0x1 PUSH1 0xA0 SHL SUB AND CALLER PUSH2 0x2212 JUMP JUMPDEST POP DUP2 SLOAD PUSH1 0x1 PUSH1 0xB8 SHL PUSH1 0xFF PUSH1 0xB8 SHL NOT DUP3 AND OR SWAP1 SWAP3 SSTORE SLOAD SWAP3 SLOAD PUSH1 0x40 MLOAD PUSH1 0x1 PUSH1 0x1 PUSH1 0xA0 SHL SUB SWAP3 DUP4 AND DUP1 DUP3 MSTORE SWAP5 SWAP2 DUP4 AND SWAP3 SWAP1 SWAP2 AND SWAP1 DUP4 SWAP1 PUSH32 0x5E02698C1650D6CBE1F7E8A48609D0DA45AD7F5E4C13CD8B196F82965C0AB0D5 SWAP1 PUSH1 0x20 SWAP1 LOG4 DUP2 PUSH2 0xA5E JUMPI JUMPDEST PUSH1 0x20 PUSH1 0x40 MLOAD PUSH1 0x1 DUP2 MSTORE RETURN JUMPDEST PUSH1 0x20 PUSH32 0x957372C0E02D2882134CC0EEBBEF9E446634D8CCBB1CBB112BDEFDD3CF0A643C SWAP2 PUSH1 0x40 MLOAD SWAP1 DUP2 MSTORE LOG2 DUP1 DUP1 PUSH2 0xA53 JUMP JUMPDEST PUSH2 0xA9E SWAP1 PUSH1 0x4 DUP6 ADD SLOAD PUSH2 0x2132 JUMP JUMPDEST SWAP2 PUSH2 0xAAF PUSH1 0xFF PUSH0 SLOAD PUSH1 0xA0 SHR AND PUSH2 0x1DEB JUMP JUMPDEST PUSH2 0xABA DUP4 ISZERO ISZERO PUSH2 0x2099 JUMP JUMPDEST PUSH1 0x2 SLOAD SWAP3 PUSH1 0x40 MLOAD SWAP4 PUSH4 0x1C8F0847 PUSH1 0xE0 SHL DUP6 MSTORE DUP2 PUSH1 0x4 DUP7 ADD MSTORE PUSH1 0x24 DUP6 ADD MSTORE PUSH1 0x20 DUP5 PUSH1 0x44 DUP2 PUSH20 0x0 GAS DELEGATECALL SWAP4 DUP5 ISZERO PUSH2 0x5DD JUMPI PUSH0 SWAP5 PUSH2 0xC17 JUMPI JUMPDEST POP DUP2 PUSH2 0xB67 JUMPI PUSH2 0xB12 DUP5 DUP3 PUSH2 0x213F JUMP JUMPDEST CALLVALUE SUB PUSH2 0x6FD JUMPI PUSH2 0x9F4 SWAP4 PUSH2 0xB27 DUP3 DUP5 CALLER PUSH2 0x22B9 JUMP JUMPDEST POP PUSH1 0x3 SLOAD PUSH2 0xB41 SWAP1 DUP3 SWAP1 DUP6 SWAP1 PUSH1 0x1 PUSH1 0x1 PUSH1 0xA0 SHL SUB AND PUSH2 0x22B9 JUMP JUMPDEST POP JUMPDEST PUSH1 0x40 MLOAD SWAP2 DUP3 MSTORE PUSH1 0x20 DUP3 ADD MSTORE PUSH0 DUP1 MLOAD PUSH1 0x20 PUSH2 0x244B DUP4 CODECOPY DUP2 MLOAD SWAP2 MSTORE PUSH1 0x40 CALLER SWAP3 LOG3 DUP7 PUSH2 0x9D8 JUMP JUMPDEST PUSH2 0xB71 DUP5 DUP3 PUSH2 0x213F JUMP JUMPDEST PUSH1 0x40 MLOAD SWAP1 PUSH4 0x23B872DD PUSH1 0xE0 SHL DUP3 MSTORE CALLER PUSH1 0x4 DUP4 ADD MSTORE ADDRESS PUSH1 0x24 DUP4 ADD MSTORE PUSH1 0x44 DUP3 ADD MSTORE PUSH1 0x20 DUP2 PUSH1 0x64 DUP2 PUSH0 DUP8 GAS CALL SWAP1 DUP2 ISZERO PUSH2 0x5DD JUMPI PUSH0 SWAP2 PUSH2 0xBDD JUMPI JUMPDEST POP ISZERO PUSH2 0x7A1 JUMPI PUSH2 0x9F4 SWAP4 PUSH2 0xBBD DUP3 DUP5 CALLER PUSH2 0x22B9 JUMP JUMPDEST POP PUSH1 0x3 SLOAD PUSH2 0xBD7 SWAP1 DUP3 SWAP1 DUP6 SWAP1 PUSH1 0x1 PUSH1 0x1 PUSH1 0xA0 SHL SUB AND PUSH2 0x22B9 JUMP JUMPDEST POP PUSH2 0xB43 JUMP JUMPDEST SWAP1 POP PUSH1 0x20 DUP2 RETURNDATASIZE PUSH1 0x20 GT PUSH2 0xC0F JUMPI JUMPDEST DUP2 PUSH2 0xBF8 PUSH1 0x20 SWAP4 DUP4 PUSH2 0x1E7E JUMP JUMPDEST DUP2 ADD SUB SLT PUSH2 0x191 JUMPI PUSH2 0xC09 SWAP1 PUSH2 0x1EB4 JUMP JUMPDEST DUP10 PUSH2 0xBA8 JUMP JUMPDEST RETURNDATASIZE SWAP2 POP PUSH2 0xBEB JUMP JUMPDEST SWAP1 SWAP4 POP PUSH1 0x20 DUP2 RETURNDATASIZE PUSH1 0x20 GT PUSH2 0xC43 JUMPI JUMPDEST DUP2 PUSH2 0xC33 PUSH1 0x20 SWAP4 DUP4 PUSH2 0x1E7E JUMP JUMPDEST DUP2 ADD SUB SLT PUSH2 0x191 JUMPI MLOAD SWAP3 DUP9 PUSH2 0xB02 JUMP JUMPDEST RETURNDATASIZE SWAP2 POP PUSH2 0xC26 JUMP JUMPDEST PUSH1 0xFF SWAP2 POP PUSH1 0xA8 SHR AND ISZERO DUP7 PUSH2 0x997 JUMP JUMPDEST CALLVALUE PUSH2 0x191 JUMPI PUSH0 CALLDATASIZE PUSH1 0x3 NOT ADD SLT PUSH2 0x191 JUMPI PUSH1 0x20 PUSH1 0x5 SLOAD PUSH1 0x40 MLOAD SWAP1 DUP2 MSTORE RETURN JUMPDEST CALLVALUE PUSH2 0x191 JUMPI PUSH1 0x20 CALLDATASIZE PUSH1 0x3 NOT ADD SLT PUSH2 0x191 JUMPI PUSH1 0x4 CALLDATALOAD DUP1 PUSH0 MSTORE PUSH1 0x4 PUSH1 0x20 MSTORE PUSH1 0x40 PUSH0 KECCAK256 SWAP1 PUSH1 0x1 DUP3 ADD SWAP1 PUSH1 0x1 DUP1 PUSH1 0xA0 SHL SUB DUP3 SLOAD AND CALLER EQ DUP1 ISZERO PUSH2 0xD89 JUMPI JUMPDEST PUSH2 0xCB9 SWAP1 PUSH2 0x214C JUMP JUMPDEST PUSH32 0x86C61B89EF5FCDB14C243B643069C3C6A84765B27F2A696B875DDDF031AFB4D PUSH2 0xD6C PUSH1 0x2 DUP6 ADD SWAP5 PUSH2 0xD1A DUP7 SLOAD PUSH2 0xCF6 PUSH1 0xFF DUP3 PUSH1 0xB0 SHR AND PUSH2 0x217D JUMP JUMPDEST PUSH2 0xD06 PUSH1 0xFF DUP3 PUSH1 0xB8 SHR AND ISZERO PUSH2 0x21AF JUMP JUMPDEST PUSH1 0xFF DUP2 PUSH1 0xA0 SHR AND ISZERO SWAP1 DUP2 PUSH2 0xD7A JUMPI POP PUSH2 0x21E1 JUMP JUMPDEST DUP1 SLOAD PUSH1 0x9 DUP3 ADD SLOAD PUSH1 0x5 DUP4 ADD SLOAD PUSH2 0xD3E SWAP3 SWAP1 SWAP2 PUSH1 0x1 PUSH1 0x1 PUSH1 0xA0 SHL SUB SWAP1 DUP2 AND SWAP2 AND PUSH2 0x22B9 JUMP JUMPDEST POP SLOAD SWAP4 SLOAD SWAP5 SLOAD PUSH1 0x40 DUP1 MLOAD PUSH1 0x1 PUSH1 0x1 PUSH1 0xA0 SHL SUB SWAP3 DUP4 AND DUP2 MSTORE CALLER PUSH1 0x20 DUP3 ADD MSTORE SWAP7 DUP3 AND SWAP7 SWAP6 SWAP1 SWAP2 AND SWAP5 SWAP2 DUP3 SWAP2 DUP3 ADD SWAP1 JUMP JUMPDEST SUB SWAP1 LOG4 PUSH1 0x20 PUSH1 0x40 MLOAD PUSH1 0x1 DUP2 MSTORE RETURN JUMPDEST PUSH1 0xFF SWAP2 POP PUSH1 0xA8 SHR AND ISZERO DUP9 PUSH2 0x997 JUMP JUMPDEST POP DUP3 SLOAD PUSH1 0x1 PUSH1 0x1 PUSH1 0xA0 SHL SUB AND CALLER EQ PUSH2 0xCB0 JUMP JUMPDEST CALLVALUE PUSH2 0x191 JUMPI PUSH0 CALLDATASIZE PUSH1 0x3 NOT ADD SLT PUSH2 0x191 JUMPI PUSH0 SLOAD PUSH1 0x40 MLOAD PUSH1 0x1 PUSH1 0x1 PUSH1 0xA0 SHL SUB SWAP1 SWAP2 AND DUP2 MSTORE PUSH1 0x20 SWAP1 RETURN JUMPDEST CALLVALUE PUSH2 0x191 JUMPI PUSH0 CALLDATASIZE PUSH1 0x3 NOT ADD SLT PUSH2 0x191 JUMPI PUSH1 0x20 PUSH1 0x2 SLOAD PUSH1 0x40 MLOAD SWAP1 DUP2 MSTORE RETURN JUMPDEST CALLVALUE PUSH2 0x191 JUMPI PUSH0 CALLDATASIZE PUSH1 0x3 NOT ADD SLT PUSH2 0x191 JUMPI PUSH0 SLOAD PUSH2 0xE06 CALLER PUSH1 0x1 PUSH1 0x1 PUSH1 0xA0 SHL SUB DUP4 AND EQ PUSH2 0x2068 JUMP JUMPDEST PUSH1 0xFF PUSH1 0xA0 SHL NOT AND PUSH0 SSTORE PUSH32 0x17904E4FE7D59BB4603C7C045BC275A05DA9EA3A4AC007FC80FFFEAF119186D PUSH1 0x20 PUSH1 0x40 MLOAD PUSH0 DUP2 MSTORE LOG1 STOP JUMPDEST CALLVALUE PUSH2 0x191 JUMPI PUSH1 0x20 CALLDATASIZE PUSH1 0x3 NOT ADD SLT PUSH2 0x191 JUMPI PUSH1 0x4 CALLDATALOAD PUSH0 MSTORE PUSH1 0x4 PUSH1 0x20 MSTORE PUSH1 0x40 PUSH0 KECCAK256 PUSH1 0x1 PUSH1 0xA0 SHL PUSH1 0x1 SWAP1 SUB DUP2 SLOAD AND SWAP1 PUSH1 0x1 PUSH1 0xA0 SHL PUSH1 0x1 SWAP1 SUB PUSH1 0x1 DUP3 ADD SLOAD AND SWAP1 PUSH1 0x2 DUP2 ADD SLOAD PUSH1 0x3 DUP3 ADD SLOAD PUSH1 0x4 DUP4 ADD SLOAD PUSH1 0x5 DUP5 ADD SLOAD PUSH1 0x6 DUP6 ADD SLOAD PUSH1 0x7 DUP7 ADD SLOAD SWAP2 PUSH1 0x8 DUP8 ADD SLOAD SWAP4 PUSH1 0x1 PUSH1 0xA0 SHL PUSH1 0x1 SWAP1 SUB PUSH1 0x9 DUP10 ADD SLOAD AND SWAP6 PUSH1 0x1 PUSH1 0xA0 SHL PUSH1 0x1 SWAP1 SUB PUSH1 0xA DUP11 ADD SLOAD AND SWAP8 PUSH1 0xB DUP11 ADD SLOAD SWAP10 PUSH1 0xC ADD SLOAD PUSH1 0xFF AND SWAP11 PUSH1 0x40 MLOAD SWAP13 DUP14 MSTORE PUSH1 0x20 DUP14 ADD MSTORE PUSH1 0x1 PUSH1 0xA0 SHL PUSH1 0x1 SWAP1 SUB DUP2 AND PUSH1 0x40 DUP14 ADD MSTORE DUP1 PUSH1 0xA0 SHR PUSH1 0xFF AND ISZERO ISZERO PUSH1 0x60 DUP14 ADD MSTORE DUP1 PUSH1 0xA8 SHR PUSH1 0xFF AND ISZERO ISZERO PUSH1 0x80 DUP14 ADD MSTORE DUP1 PUSH1 0xB0 SHR PUSH1 0xFF AND ISZERO ISZERO PUSH1 0xA0 DUP14 ADD MSTORE PUSH1 0xB8 SHR PUSH1 0xFF AND ISZERO ISZERO PUSH1 0xC0 DUP13 ADD MSTORE PUSH1 0xE0 DUP12 ADD MSTORE PUSH2 0x100 DUP11 ADD MSTORE PUSH2 0x120 DUP10 ADD MSTORE PUSH2 0x140 DUP9 ADD MSTORE PUSH2 0x160 DUP8 ADD MSTORE PUSH2 0x180 DUP7 ADD MSTORE PUSH2 0x1A0 DUP6 ADD MSTORE PUSH2 0x1C0 DUP5 ADD MSTORE PUSH2 0x1E0 DUP4 ADD MSTORE PUSH2 0x200 DUP3 ADD PUSH2 0xF5F SWAP2 PUSH2 0x1CEF JUMP JUMPDEST PUSH2 0x220 SWAP1 RETURN JUMPDEST CALLVALUE PUSH2 0x191 JUMPI PUSH1 0x20 CALLDATASIZE PUSH1 0x3 NOT ADD SLT PUSH2 0x191 JUMPI PUSH1 0x4 CALLDATALOAD DUP1 PUSH0 MSTORE PUSH1 0x4 PUSH1 0x20 MSTORE PUSH1 0x40 PUSH0 KECCAK256 SWAP1 PUSH1 0x1 DUP3 ADD SWAP1 PUSH1 0x1 DUP1 PUSH1 0xA0 SHL SUB DUP3 SLOAD AND CALLER EQ DUP1 ISZERO PUSH2 0x101E JUMPI JUMPDEST PUSH2 0xFA7 SWAP1 PUSH2 0x214C JUMP JUMPDEST PUSH32 0x86C61B89EF5FCDB14C243B643069C3C6A84765B27F2A696B875DDDF031AFB4D PUSH2 0xD6C PUSH1 0x2 DUP6 ADD SWAP5 PUSH2 0xFEC DUP7 SLOAD PUSH1 0xFF DUP2 PUSH1 0xB8 SHR AND ISZERO DUP1 PUSH2 0x1010 JUMPI JUMPDEST PUSH2 0xD06 SWAP1 PUSH2 0x21AF JUMP JUMPDEST DUP1 SLOAD PUSH1 0x9 DUP3 ADD SLOAD PUSH1 0x5 DUP4 ADD SLOAD PUSH2 0xD3E SWAP3 SWAP1 SWAP2 PUSH1 0x1 PUSH1 0x1 PUSH1 0xA0 SHL SUB SWAP1 DUP2 AND SWAP2 AND PUSH2 0x2314 JUMP JUMPDEST POP PUSH1 0xB0 DUP2 SWAP1 SHR PUSH1 0xFF AND PUSH2 0xFE3 JUMP JUMPDEST POP DUP3 SLOAD PUSH1 0x1 PUSH1 0x1 PUSH1 0xA0 SHL SUB AND CALLER EQ PUSH2 0xF9E JUMP JUMPDEST CALLVALUE PUSH2 0x191 JUMPI PUSH1 0x20 CALLDATASIZE PUSH1 0x3 NOT ADD SLT PUSH2 0x191 JUMPI PUSH1 0x1 PUSH1 0x1 PUSH1 0xA0 SHL SUB PUSH2 0x1052 PUSH2 0x1BF4 JUMP JUMPDEST AND PUSH0 MSTORE PUSH1 0x1 PUSH1 0x20 MSTORE PUSH1 0x40 PUSH0 KECCAK256 PUSH0 DUP1 MSTORE PUSH1 0x20 MSTORE PUSH1 0x20 PUSH1 0x40 PUSH0 KECCAK256 SLOAD PUSH1 0x40 MLOAD SWAP1 DUP2 MSTORE RETURN JUMPDEST CALLVALUE PUSH2 0x191 JUMPI PUSH1 0x20 CALLDATASIZE PUSH1 0x3 NOT ADD SLT PUSH2 0x191 JUMPI PUSH0 PUSH2 0x200 PUSH1 0x40 MLOAD PUSH2 0x1094 DUP2 PUSH2 0x1E4D JUMP JUMPDEST DUP3 DUP2 MSTORE DUP3 PUSH1 0x20 DUP3 ADD MSTORE DUP3 PUSH1 0x40 DUP3 ADD MSTORE DUP3 PUSH1 0x60 DUP3 ADD MSTORE DUP3 PUSH1 0x80 DUP3 ADD MSTORE DUP3 PUSH1 0xA0 DUP3 ADD MSTORE DUP3 PUSH1 0xC0 DUP3 ADD MSTORE DUP3 PUSH1 0xE0 DUP3 ADD MSTORE DUP3 PUSH2 0x100 DUP3 ADD MSTORE DUP3 PUSH2 0x120 DUP3 ADD MSTORE DUP3 PUSH2 0x140 DUP3 ADD MSTORE DUP3 PUSH2 0x160 DUP3 ADD MSTORE DUP3 PUSH2 0x180 DUP3 ADD MSTORE DUP3 PUSH2 0x1A0 DUP3 ADD MSTORE DUP3 PUSH2 0x1C0 DUP3 ADD MSTORE DUP3 PUSH2 0x1E0 DUP3 ADD MSTORE ADD MSTORE PUSH1 0x4 CALLDATALOAD PUSH0 MSTORE PUSH1 0x4 PUSH1 0x20 MSTORE PUSH1 0x40 PUSH0 KECCAK256 PUSH1 0xFF PUSH1 0xC PUSH1 0x40 MLOAD SWAP3 PUSH2 0x111A DUP5 PUSH2 0x1E4D JUMP JUMPDEST DUP1 SLOAD PUSH1 0x1 PUSH1 0x1 PUSH1 0xA0 SHL SUB SWAP1 DUP2 AND DUP6 MSTORE PUSH1 0x1 DUP3 ADD SLOAD DUP2 AND PUSH1 0x20 DUP7 ADD MSTORE PUSH1 0x2 DUP3 ADD SLOAD DUP1 DUP3 AND PUSH1 0x40 DUP8 ADD MSTORE PUSH1 0xA0 DUP2 DUP2 SHR DUP7 AND ISZERO ISZERO PUSH1 0x60 DUP9 ADD MSTORE PUSH1 0xA8 DUP3 SWAP1 SHR DUP7 AND ISZERO ISZERO PUSH1 0x80 DUP9 ADD MSTORE PUSH1 0xB0 DUP3 SWAP1 SHR DUP7 AND ISZERO ISZERO SWAP1 DUP8 ADD MSTORE PUSH1 0xB8 SHR DUP5 AND ISZERO ISZERO PUSH1 0xC0 DUP7 ADD MSTORE PUSH1 0x3 DUP3 ADD SLOAD PUSH1 0xE0 DUP7 ADD MSTORE PUSH1 0x4 DUP3 ADD SLOAD PUSH2 0x100 DUP7 ADD MSTORE PUSH1 0x5 DUP3 ADD SLOAD PUSH2 0x120 DUP7 ADD MSTORE PUSH1 0x6 DUP1 DUP4 ADD SLOAD PUSH2 0x140 DUP8 ADD MSTORE PUSH1 0x7 DUP4 ADD SLOAD PUSH2 0x160 DUP8 ADD MSTORE PUSH1 0x8 DUP4 ADD SLOAD PUSH2 0x180 DUP8 ADD MSTORE PUSH1 0x9 DUP4 ADD SLOAD DUP3 AND PUSH2 0x1A0 DUP8 ADD MSTORE PUSH1 0xA DUP4 ADD SLOAD SWAP1 SWAP2 AND PUSH2 0x1C0 DUP7 ADD MSTORE PUSH1 0xB DUP3 ADD SLOAD PUSH2 0x1E0 DUP7 ADD MSTORE SWAP2 ADD SLOAD SWAP1 SWAP2 AND SWAP2 SWAP1 DUP3 LT ISZERO PUSH2 0x595 JUMPI PUSH2 0x220 SWAP2 PUSH2 0x200 DUP3 ADD MSTORE PUSH2 0x1205 PUSH1 0x40 MLOAD DUP1 SWAP3 PUSH2 0x1CFC JUMP JUMPDEST RETURN JUMPDEST PUSH1 0x40 CALLDATASIZE PUSH1 0x3 NOT ADD SLT PUSH2 0x191 JUMPI PUSH2 0x121B PUSH2 0x1BF4 JUMP JUMPDEST PUSH1 0x24 CALLDATALOAD PUSH2 0x122E PUSH1 0xFF PUSH0 SLOAD PUSH1 0xA0 SHR AND PUSH2 0x1DEB JUMP JUMPDEST PUSH2 0x1239 DUP2 ISZERO ISZERO PUSH2 0x2099 JUMP JUMPDEST PUSH1 0x2 SLOAD PUSH1 0x40 MLOAD SWAP1 PUSH4 0x1C8F0847 PUSH1 0xE0 SHL DUP3 MSTORE DUP3 PUSH1 0x4 DUP4 ADD MSTORE PUSH1 0x24 DUP3 ADD MSTORE PUSH1 0x20 DUP2 PUSH1 0x44 DUP2 PUSH20 0x0 GAS DELEGATECALL SWAP1 DUP2 ISZERO PUSH2 0x5DD JUMPI PUSH0 SWAP2 PUSH2 0x137C JUMPI JUMPDEST POP PUSH1 0x1 PUSH1 0x1 PUSH1 0xA0 SHL SUB DUP4 AND SWAP3 DUP4 PUSH2 0x12E5 JUMPI PUSH2 0x129B DUP3 DUP5 PUSH2 0x213F JUMP JUMPDEST CALLVALUE SUB PUSH2 0x6FD JUMPI DUP2 DUP2 PUSH2 0x12B1 DUP6 PUSH2 0x12C3 SWAP5 CALLER PUSH2 0x22B9 JUMP JUMPDEST POP PUSH1 0x3 SLOAD PUSH1 0x1 PUSH1 0x1 PUSH1 0xA0 SHL SUB AND PUSH2 0x22B9 JUMP JUMPDEST POP JUMPDEST PUSH1 0x40 MLOAD SWAP2 DUP3 MSTORE PUSH1 0x20 DUP3 ADD MSTORE PUSH0 DUP1 MLOAD PUSH1 0x20 PUSH2 0x244B DUP4 CODECOPY DUP2 MLOAD SWAP2 MSTORE PUSH1 0x40 CALLER SWAP3 LOG3 STOP JUMPDEST PUSH2 0x12EF DUP3 DUP5 PUSH2 0x213F JUMP JUMPDEST PUSH1 0x40 MLOAD SWAP1 PUSH4 0x23B872DD PUSH1 0xE0 SHL DUP3 MSTORE CALLER PUSH1 0x4 DUP4 ADD MSTORE ADDRESS PUSH1 0x24 DUP4 ADD MSTORE PUSH1 0x44 DUP3 ADD MSTORE PUSH1 0x20 DUP2 PUSH1 0x64 DUP2 PUSH0 DUP10 GAS CALL SWAP1 DUP2 ISZERO PUSH2 0x5DD JUMPI PUSH0 SWAP2 PUSH2 0x1342 JUMPI JUMPDEST POP ISZERO PUSH2 0x7A1 JUMPI DUP2 DUP2 PUSH2 0x12B1 DUP6 PUSH2 0x133C SWAP5 CALLER PUSH2 0x22B9 JUMP JUMPDEST POP PUSH2 0x12C5 JUMP JUMPDEST SWAP1 POP PUSH1 0x20 DUP2 RETURNDATASIZE PUSH1 0x20 GT PUSH2 0x1374 JUMPI JUMPDEST DUP2 PUSH2 0x135D PUSH1 0x20 SWAP4 DUP4 PUSH2 0x1E7E JUMP JUMPDEST DUP2 ADD SUB SLT PUSH2 0x191 JUMPI PUSH2 0x136E SWAP1 PUSH2 0x1EB4 JUMP JUMPDEST DUP6 PUSH2 0x1326 JUMP JUMPDEST RETURNDATASIZE SWAP2 POP PUSH2 0x1350 JUMP JUMPDEST SWAP1 POP PUSH1 0x20 DUP2 RETURNDATASIZE PUSH1 0x20 GT PUSH2 0x13A6 JUMPI JUMPDEST DUP2 PUSH2 0x1397 PUSH1 0x20 SWAP4 DUP4 PUSH2 0x1E7E JUMP JUMPDEST DUP2 ADD SUB SLT PUSH2 0x191 JUMPI MLOAD DUP4 PUSH2 0x1280 JUMP JUMPDEST RETURNDATASIZE SWAP2 POP PUSH2 0x138A JUMP JUMPDEST CALLVALUE PUSH2 0x191 JUMPI PUSH0 CALLDATASIZE PUSH1 0x3 NOT ADD SLT PUSH2 0x191 JUMPI PUSH1 0x20 PUSH1 0xFF PUSH0 SLOAD PUSH1 0xA0 SHR AND PUSH1 0x40 MLOAD SWAP1 ISZERO ISZERO DUP2 MSTORE RETURN JUMPDEST CALLVALUE PUSH2 0x191 JUMPI PUSH1 0x20 CALLDATASIZE PUSH1 0x3 NOT ADD SLT PUSH2 0x191 JUMPI PUSH1 0x4 CALLDATALOAD DUP1 PUSH0 MSTORE PUSH1 0x4 PUSH1 0x20 MSTORE PUSH1 0x40 PUSH0 KECCAK256 SWAP1 PUSH1 0x1 DUP3 ADD SWAP2 PUSH2 0x140C PUSH1 0x1 DUP1 PUSH1 0xA0 SHL SUB DUP5 SLOAD AND CALLER EQ PUSH2 0x214C JUMP JUMPDEST PUSH1 0x2 DUP2 ADD SWAP1 PUSH2 0x1425 DUP3 SLOAD PUSH2 0x978 PUSH1 0xFF DUP3 PUSH1 0xB0 SHR AND PUSH2 0x217D JUMP JUMPDEST PUSH1 0xA DUP2 ADD SLOAD CALLER PUSH0 SWAP1 DUP2 MSTORE PUSH1 0x1 PUSH1 0x20 SWAP1 DUP2 MSTORE PUSH1 0x40 DUP1 DUP4 KECCAK256 PUSH1 0x1 PUSH1 0x1 PUSH1 0xA0 SHL SUB SWAP1 SWAP5 AND DUP1 DUP5 MSTORE SWAP4 SWAP1 SWAP2 MSTORE SWAP1 KECCAK256 SLOAD PUSH2 0x9F4 SWAP2 PUSH2 0x1465 PUSH1 0x4 DUP6 ADD SLOAD DUP1 SWAP4 LT ISZERO PUSH2 0x1E1C JUMP JUMPDEST CALLER PUSH2 0x2212 JUMP JUMPDEST CALLVALUE PUSH2 0x191 JUMPI PUSH1 0x20 CALLDATASIZE PUSH1 0x3 NOT ADD SLT PUSH2 0x191 JUMPI PUSH1 0x4 CALLDATALOAD PUSH1 0x2 SLOAD PUSH1 0x40 MLOAD SWAP1 PUSH4 0x1C8F0847 PUSH1 0xE0 SHL DUP3 MSTORE DUP3 PUSH1 0x4 DUP4 ADD MSTORE PUSH1 0x24 DUP3 ADD MSTORE PUSH1 0x20 DUP2 PUSH1 0x44 DUP2 PUSH20 0x0 GAS DELEGATECALL SWAP1 DUP2 ISZERO PUSH2 0x5DD JUMPI PUSH0 SWAP2 PUSH2 0x14DA JUMPI JUMPDEST PUSH1 0x20 PUSH2 0x14D2 DUP4 DUP6 PUSH2 0x213F JUMP JUMPDEST PUSH1 0x40 MLOAD SWAP1 DUP2 MSTORE RETURN JUMPDEST SWAP1 POP PUSH1 0x20 DUP2 RETURNDATASIZE PUSH1 0x20 GT PUSH2 0x1505 JUMPI JUMPDEST DUP2 PUSH2 0x14F5 PUSH1 0x20 SWAP4 DUP4 PUSH2 0x1E7E JUMP JUMPDEST DUP2 ADD SUB SLT PUSH2 0x191 JUMPI MLOAD PUSH1 0x20 PUSH2 0x14C6 JUMP JUMPDEST RETURNDATASIZE SWAP2 POP PUSH2 0x14E8 JUMP JUMPDEST CALLVALUE PUSH2 0x191 JUMPI PUSH0 CALLDATASIZE PUSH1 0x3 NOT ADD SLT PUSH2 0x191 JUMPI PUSH0 SLOAD PUSH2 0x1533 CALLER PUSH1 0x1 PUSH1 0x1 PUSH1 0xA0 SHL SUB DUP4 AND EQ PUSH2 0x2068 JUMP JUMPDEST PUSH1 0xFF PUSH1 0xA0 SHL NOT AND PUSH1 0x1 PUSH1 0xA0 SHL OR PUSH0 SSTORE PUSH1 0x40 MLOAD PUSH1 0x1 DUP2 MSTORE PUSH32 0x17904E4FE7D59BB4603C7C045BC275A05DA9EA3A4AC007FC80FFFEAF119186D SWAP1 PUSH1 0x20 SWAP1 LOG1 STOP JUMPDEST PUSH2 0x157A CALLDATASIZE PUSH2 0x1C8C JUMP JUMPDEST SWAP2 SWAP6 SWAP4 PUSH1 0xFF PUSH0 SWAP7 SWAP5 SWAP3 SWAP7 SLOAD PUSH1 0xA0 SHR AND SWAP3 PUSH2 0x1593 DUP5 PUSH2 0x1DEB JUMP JUMPDEST CALLER PUSH0 MSTORE PUSH1 0x1 PUSH1 0x20 MSTORE PUSH1 0x40 PUSH0 KECCAK256 PUSH1 0x1 DUP1 PUSH1 0xA0 SHL SUB DUP10 AND PUSH0 MSTORE PUSH1 0x20 MSTORE PUSH1 0x40 PUSH0 KECCAK256 SLOAD DUP3 DUP2 LT PUSH2 0x1865 JUMPI JUMPDEST POP PUSH2 0x220 SWAP4 POP PUSH2 0x1604 SWAP1 PUSH2 0x15CF DUP4 DUP11 CALLER PUSH2 0x2212 JUMP JUMPDEST POP PUSH20 0x0 SWAP8 PUSH1 0x40 MLOAD SWAP10 DUP11 SWAP6 DUP7 SWAP6 PUSH4 0x652E83D7 PUSH1 0xE0 SHL DUP8 MSTORE DUP10 DUP12 CALLER PUSH1 0x4 DUP11 ADD PUSH2 0x20CA JUMP JUMPDEST SUB DUP2 DUP7 GAS DELEGATECALL SWAP4 DUP5 ISZERO PUSH2 0x5DD JUMPI PUSH0 SWAP5 PUSH2 0x1844 JUMPI JUMPDEST POP PUSH1 0x20 PUSH1 0x5 SLOAD PUSH2 0x244 PUSH1 0x40 MLOAD DUP1 SWAP7 DUP2 SWAP4 PUSH4 0x797D4EE1 PUSH1 0xE0 SHL DUP4 MSTORE PUSH2 0x163E PUSH1 0x4 DUP5 ADD DUP12 PUSH2 0x1CFC JUMP JUMPDEST PUSH2 0x224 DUP4 ADD MSTORE GAS DELEGATECALL SWAP3 DUP4 ISZERO PUSH2 0x5DD JUMPI PUSH0 SWAP4 PUSH2 0x1810 JUMPI JUMPDEST POP PUSH2 0x1660 PUSH1 0x5 SLOAD PUSH2 0x2046 JUMP JUMPDEST PUSH1 0x5 SSTORE PUSH0 DUP4 DUP2 MSTORE PUSH1 0x4 PUSH1 0x20 SWAP1 DUP2 MSTORE PUSH1 0x40 SWAP2 DUP3 SWAP1 KECCAK256 DUP7 MLOAD DUP2 SLOAD PUSH1 0x1 PUSH1 0x1 PUSH1 0xA0 SHL SUB SWAP2 DUP3 AND PUSH1 0x1 PUSH1 0x1 PUSH1 0xA0 SHL SUB NOT SWAP2 DUP3 AND OR DUP4 SSTORE SWAP3 DUP9 ADD MLOAD PUSH1 0x1 DUP4 ADD DUP1 SLOAD SWAP2 DUP4 AND SWAP2 SWAP1 SWAP5 AND OR SWAP1 SWAP3 SSTORE SWAP2 DUP7 ADD MLOAD PUSH1 0x2 DUP4 ADD DUP1 SLOAD PUSH1 0x60 DUP10 ADD MLOAD PUSH1 0xFF PUSH1 0xA0 SHL SWAP1 ISZERO ISZERO PUSH1 0xA0 SHL AND SWAP3 SWAP1 SWAP4 AND PUSH1 0x1 PUSH1 0x1 PUSH1 0xA8 SHL SUB NOT SWAP1 SWAP4 AND SWAP3 SWAP1 SWAP3 OR OR DUP2 SSTORE PUSH2 0x200 SWAP2 PUSH1 0xC SWAP2 PUSH2 0x16E9 SWAP1 PUSH2 0x459 JUMP JUMPDEST PUSH1 0xE0 DUP8 ADD MLOAD PUSH1 0x3 DUP3 ADD SSTORE PUSH2 0x100 DUP8 ADD MLOAD PUSH1 0x4 DUP3 ADD SSTORE PUSH2 0x120 DUP8 ADD MLOAD PUSH1 0x5 DUP3 ADD SSTORE PUSH2 0x140 DUP8 ADD MLOAD PUSH1 0x6 DUP1 DUP4 ADD SWAP2 SWAP1 SWAP2 SSTORE PUSH2 0x160 DUP9 ADD MLOAD PUSH1 0x7 DUP4 ADD SSTORE PUSH2 0x180 DUP9 ADD MLOAD PUSH1 0x8 DUP4 ADD SSTORE PUSH2 0x1A0 DUP9 ADD MLOAD PUSH1 0x9 DUP4 ADD DUP1 SLOAD PUSH1 0x1 PUSH1 0x1 PUSH1 0xA0 SHL SUB SWAP3 DUP4 AND PUSH1 0x1 PUSH1 0x1 PUSH1 0xA0 SHL SUB NOT SWAP2 DUP3 AND OR SWAP1 SWAP2 SSTORE PUSH2 0x1C0 DUP11 ADD MLOAD PUSH1 0xA DUP6 ADD DUP1 SLOAD SWAP2 SWAP1 SWAP4 AND SWAP2 AND OR SWAP1 SSTORE PUSH2 0x1E0 DUP9 ADD MLOAD PUSH1 0xB DUP4 ADD SSTORE SWAP3 SWAP1 SWAP7 ADD MLOAD SWAP6 ADD SWAP1 DUP6 LT ISZERO PUSH2 0x595 JUMPI PUSH1 0x20 SWAP5 PUSH1 0xFF DUP1 NOT DUP4 SLOAD AND SWAP2 AND OR SWAP1 SSTORE PUSH1 0x40 MLOAD SWAP1 PUSH1 0x1 DUP1 PUSH1 0xA0 SHL SUB AND SWAP2 DUP3 DUP3 MSTORE PUSH1 0x1 DUP1 PUSH1 0xA0 SHL SUB AND SWAP1 DUP4 PUSH32 0x5E02698C1650D6CBE1F7E8A48609D0DA45AD7F5E4C13CD8B196F82965C0AB0D5 DUP7 CALLER SWAP4 LOG4 DUP1 PUSH2 0x17E1 JUMPI JUMPDEST POP PUSH1 0x40 MLOAD SWAP1 DUP2 MSTORE RETURN JUMPDEST PUSH32 0x957372C0E02D2882134CC0EEBBEF9E446634D8CCBB1CBB112BDEFDD3CF0A643C DUP4 PUSH1 0x40 MLOAD DUP5 DUP2 MSTORE LOG2 DUP3 PUSH2 0x17D8 JUMP JUMPDEST SWAP1 SWAP3 POP PUSH1 0x20 DUP2 RETURNDATASIZE PUSH1 0x20 GT PUSH2 0x183C JUMPI JUMPDEST DUP2 PUSH2 0x182C PUSH1 0x20 SWAP4 DUP4 PUSH2 0x1E7E JUMP JUMPDEST DUP2 ADD SUB SLT PUSH2 0x191 JUMPI MLOAD SWAP2 DUP5 PUSH2 0x1654 JUMP JUMPDEST RETURNDATASIZE SWAP2 POP PUSH2 0x181F JUMP JUMPDEST PUSH2 0x185E SWAP2 SWAP5 POP PUSH2 0x220 RETURNDATASIZE DUP2 GT PUSH2 0x612 JUMPI PUSH2 0x603 DUP2 DUP4 PUSH2 0x1E7E JUMP JUMPDEST SWAP3 DUP5 PUSH2 0x1617 JUMP JUMPDEST PUSH2 0x1872 PUSH2 0x1878 SWAP2 DUP5 PUSH2 0x2132 JUMP JUMPDEST SWAP5 PUSH2 0x1DEB JUMP JUMPDEST PUSH2 0x1883 DUP5 ISZERO ISZERO PUSH2 0x2099 JUMP JUMPDEST PUSH1 0x2 SLOAD SWAP1 PUSH1 0x40 MLOAD SWAP2 PUSH4 0x1C8F0847 PUSH1 0xE0 SHL DUP4 MSTORE DUP6 PUSH1 0x4 DUP5 ADD MSTORE PUSH1 0x24 DUP4 ADD MSTORE PUSH1 0x20 DUP3 PUSH1 0x44 DUP2 PUSH20 0x0 GAS DELEGATECALL SWAP2 DUP3 ISZERO PUSH2 0x5DD JUMPI PUSH0 SWAP3 PUSH2 0x19F2 JUMPI JUMPDEST POP PUSH1 0x1 PUSH1 0x1 PUSH1 0xA0 SHL SUB DUP10 AND DUP1 PUSH2 0x193E JUMPI PUSH2 0x18E5 DUP4 DUP8 PUSH2 0x213F JUMP JUMPDEST CALLVALUE SUB PUSH2 0x6FD JUMPI DUP6 PUSH2 0x1604 SWAP4 PUSH2 0x18FE PUSH2 0x220 SWAP9 DUP14 CALLER PUSH2 0x22B9 JUMP JUMPDEST POP PUSH1 0x3 SLOAD PUSH2 0x1918 SWAP1 DUP3 SWAP1 DUP15 SWAP1 PUSH1 0x1 PUSH1 0x1 PUSH1 0xA0 SHL SUB AND PUSH2 0x22B9 JUMP JUMPDEST POP JUMPDEST PUSH1 0x40 MLOAD SWAP2 DUP3 MSTORE PUSH1 0x20 DUP3 ADD MSTORE PUSH0 DUP1 MLOAD PUSH1 0x20 PUSH2 0x244B DUP4 CODECOPY DUP2 MLOAD SWAP2 MSTORE PUSH1 0x40 CALLER SWAP3 LOG3 SWAP1 PUSH2 0x15BA JUMP JUMPDEST PUSH2 0x1948 DUP4 DUP8 PUSH2 0x213F JUMP JUMPDEST PUSH1 0x40 MLOAD SWAP1 PUSH4 0x23B872DD PUSH1 0xE0 SHL DUP3 MSTORE CALLER PUSH1 0x4 DUP4 ADD MSTORE ADDRESS PUSH1 0x24 DUP4 ADD MSTORE PUSH1 0x44 DUP3 ADD MSTORE PUSH1 0x20 DUP2 PUSH1 0x64 DUP2 PUSH0 DUP7 GAS CALL SWAP1 DUP2 ISZERO PUSH2 0x5DD JUMPI PUSH0 SWAP2 PUSH2 0x19B8 JUMPI JUMPDEST POP ISZERO PUSH2 0x7A1 JUMPI DUP6 PUSH2 0x1604 SWAP4 PUSH2 0x1998 PUSH2 0x220 SWAP9 DUP14 CALLER PUSH2 0x22B9 JUMP JUMPDEST POP PUSH1 0x3 SLOAD PUSH2 0x19B2 SWAP1 DUP3 SWAP1 DUP15 SWAP1 PUSH1 0x1 PUSH1 0x1 PUSH1 0xA0 SHL SUB AND PUSH2 0x22B9 JUMP JUMPDEST POP PUSH2 0x191A JUMP JUMPDEST SWAP1 POP PUSH1 0x20 DUP2 RETURNDATASIZE PUSH1 0x20 GT PUSH2 0x19EA JUMPI JUMPDEST DUP2 PUSH2 0x19D3 PUSH1 0x20 SWAP4 DUP4 PUSH2 0x1E7E JUMP JUMPDEST DUP2 ADD SUB SLT PUSH2 0x191 JUMPI PUSH2 0x19E4 SWAP1 PUSH2 0x1EB4 JUMP JUMPDEST DUP12 PUSH2 0x197F JUMP JUMPDEST RETURNDATASIZE SWAP2 POP PUSH2 0x19C6 JUMP JUMPDEST SWAP1 SWAP2 POP PUSH1 0x20 DUP2 RETURNDATASIZE PUSH1 0x20 GT PUSH2 0x1A1E JUMPI JUMPDEST DUP2 PUSH2 0x1A0E PUSH1 0x20 SWAP4 DUP4 PUSH2 0x1E7E JUMP JUMPDEST DUP2 ADD SUB SLT PUSH2 0x191 JUMPI MLOAD SWAP1 DUP10 PUSH2 0x18CB JUMP JUMPDEST RETURNDATASIZE SWAP2 POP PUSH2 0x1A01 JUMP JUMPDEST CALLVALUE PUSH2 0x191 JUMPI PUSH2 0x220 PUSH2 0x1604 PUSH2 0x1A3A CALLDATASIZE PUSH2 0x1C8C JUMP JUMPDEST PUSH2 0x1A51 PUSH1 0xFF PUSH0 SWAP11 SWAP7 SWAP5 SWAP11 SWAP10 SWAP4 SWAP10 SLOAD PUSH1 0xA0 SHR AND PUSH2 0x1DEB JUMP JUMPDEST CALLER PUSH0 MSTORE PUSH1 0x1 PUSH1 0x20 MSTORE PUSH1 0x40 PUSH0 KECCAK256 PUSH1 0x1 DUP1 PUSH1 0xA0 SHL SUB DUP11 AND PUSH0 MSTORE PUSH1 0x20 MSTORE PUSH2 0x1A7B DUP4 PUSH1 0x40 PUSH0 KECCAK256 SLOAD LT ISZERO PUSH2 0x1E1C JUMP JUMPDEST PUSH2 0x15CF DUP4 DUP11 CALLER PUSH2 0x2212 JUMP JUMPDEST CALLVALUE PUSH2 0x191 JUMPI PUSH1 0x40 CALLDATASIZE PUSH1 0x3 NOT ADD SLT PUSH2 0x191 JUMPI PUSH1 0x4 CALLDATALOAD PUSH2 0x1AA2 PUSH2 0x1BDE JUMP JUMPDEST PUSH2 0x1AB6 PUSH1 0x1 DUP1 PUSH1 0xA0 SHL SUB PUSH0 SLOAD AND CALLER EQ PUSH2 0x2068 JUMP JUMPDEST PUSH1 0x1 PUSH1 0x1 PUSH1 0xA0 SHL SUB AND DUP1 ISZERO PUSH2 0x1B25 JUMPI DUP2 PUSH1 0x40 SWAP2 PUSH2 0x1AFB PUSH5 0x2540BE400 PUSH32 0x14BDAADAED0453E7B5B66195B42156BA995B9E5ABD0DA98368839851D69AD889 SWAP6 GT ISZERO PUSH2 0x2099 JUMP JUMPDEST DUP2 PUSH1 0x2 SSTORE DUP1 PUSH12 0xFFFFFFFFFFFFFFFFFFFFFFFF PUSH1 0xA0 SHL PUSH1 0x3 SLOAD AND OR PUSH1 0x3 SSTORE DUP3 MLOAD SWAP2 DUP3 MSTORE PUSH1 0x20 DUP3 ADD MSTORE LOG1 STOP JUMPDEST PUSH1 0x40 MLOAD PUSH3 0x461BCD PUSH1 0xE5 SHL DUP2 MSTORE PUSH1 0x20 PUSH1 0x4 DUP3 ADD MSTORE PUSH1 0x2 PUSH1 0x24 DUP3 ADD MSTORE PUSH2 0x4331 PUSH1 0xF0 SHL PUSH1 0x44 DUP3 ADD MSTORE PUSH1 0x64 SWAP1 REVERT JUMPDEST CALLVALUE PUSH2 0x191 JUMPI PUSH0 CALLDATASIZE PUSH1 0x3 NOT ADD SLT PUSH2 0x191 JUMPI PUSH1 0x3 SLOAD PUSH1 0x40 MLOAD PUSH1 0x1 PUSH1 0x1 PUSH1 0xA0 SHL SUB SWAP1 SWAP2 AND DUP2 MSTORE PUSH1 0x20 SWAP1 RETURN JUMPDEST CALLVALUE PUSH2 0x191 JUMPI PUSH2 0x220 PUSH2 0x378 PUSH2 0x1B8B CALLDATASIZE PUSH2 0x1C0A JUMP JUMPDEST SWAP3 PUSH2 0x1BA9 PUSH1 0xFF PUSH0 SWAP14 SWAP10 SWAP8 SWAP14 SWAP13 SWAP7 SWAP13 SWAP12 SWAP11 SWAP12 SWAP5 SWAP4 SWAP5 SLOAD PUSH1 0xA0 SHR AND PUSH2 0x1DEB JUMP JUMPDEST CALLER PUSH0 MSTORE PUSH1 0x1 PUSH1 0x20 MSTORE PUSH1 0x40 PUSH0 KECCAK256 PUSH1 0x1 DUP1 PUSH1 0xA0 SHL SUB DUP3 AND PUSH0 MSTORE PUSH1 0x20 MSTORE PUSH2 0x1BD3 DUP7 PUSH1 0x40 PUSH0 KECCAK256 SLOAD LT ISZERO PUSH2 0x1E1C JUMP JUMPDEST PUSH2 0x343 DUP7 DUP3 CALLER PUSH2 0x2212 JUMP JUMPDEST PUSH1 0x24 CALLDATALOAD SWAP1 PUSH1 0x1 PUSH1 0x1 PUSH1 0xA0 SHL SUB DUP3 AND DUP3 SUB PUSH2 0x191 JUMPI JUMP JUMPDEST PUSH1 0x4 CALLDATALOAD SWAP1 PUSH1 0x1 PUSH1 0x1 PUSH1 0xA0 SHL SUB DUP3 AND DUP3 SUB PUSH2 0x191 JUMPI JUMP JUMPDEST PUSH2 0x140 SWAP1 PUSH1 0x3 NOT ADD SLT PUSH2 0x191 JUMPI PUSH1 0x4 CALLDATALOAD PUSH1 0x1 PUSH1 0x1 PUSH1 0xA0 SHL SUB DUP2 AND DUP2 SUB PUSH2 0x191 JUMPI SWAP1 PUSH1 0x24 CALLDATALOAD PUSH1 0x1 PUSH1 0x1 PUSH1 0xA0 SHL SUB DUP2 AND DUP2 SUB PUSH2 0x191 JUMPI SWAP1 PUSH1 0x44 CALLDATALOAD SWAP1 PUSH1 0x64 CALLDATALOAD SWAP1 PUSH1 0x84 CALLDATALOAD SWAP1 PUSH1 0xA4 CALLDATALOAD SWAP1 PUSH1 0xC4 CALLDATALOAD PUSH1 0x1 PUSH1 0x1 PUSH1 0xA0 SHL SUB DUP2 AND DUP2 SUB PUSH2 0x191 JUMPI SWAP1 PUSH1 0xE4 CALLDATALOAD PUSH1 0x1 PUSH1 0x1 PUSH1 0xA0 SHL SUB DUP2 AND DUP2 SUB PUSH2 0x191 JUMPI SWAP1 PUSH2 0x104 CALLDATALOAD SWAP1 PUSH2 0x124 CALLDATALOAD PUSH1 0x6 DUP2 LT ISZERO PUSH2 0x191 JUMPI SWAP1 JUMP JUMPDEST PUSH1 0xE0 SWAP1 PUSH1 0x3 NOT ADD SLT PUSH2 0x191 JUMPI PUSH1 0x4 CALLDATALOAD PUSH1 0x1 PUSH1 0x1 PUSH1 0xA0 SHL SUB DUP2 AND DUP2 SUB PUSH2 0x191 JUMPI SWAP1 PUSH1 0x24 CALLDATALOAD PUSH1 0x1 PUSH1 0x1 PUSH1 0xA0 SHL SUB DUP2 AND DUP2 SUB PUSH2 0x191 JUMPI SWAP1 PUSH1 0x44 CALLDATALOAD SWAP1 PUSH1 0x64 CALLDATALOAD SWAP1 PUSH1 0x84 CALLDATALOAD PUSH1 0x1 PUSH1 0x1 PUSH1 0xA0 SHL SUB DUP2 AND DUP2 SUB PUSH2 0x191 JUMPI SWAP1 PUSH1 0xA4 CALLDATALOAD SWAP1 PUSH1 0xC4 CALLDATALOAD PUSH1 0x6 DUP2 LT ISZERO PUSH2 0x191 JUMPI SWAP1 JUMP JUMPDEST SWAP1 PUSH1 0x6 DUP3 LT ISZERO PUSH2 0x595 JUMPI MSTORE JUMP JUMPDEST SWAP1 PUSH2 0x200 DUP1 PUSH2 0x1DE9 SWAP4 PUSH1 0x1 DUP1 PUSH1 0xA0 SHL SUB DUP2 MLOAD AND DUP5 MSTORE PUSH1 0x1 DUP1 PUSH1 0xA0 SHL SUB PUSH1 0x20 DUP3 ADD MLOAD AND PUSH1 0x20 DUP6 ADD MSTORE PUSH1 0x1 DUP1 PUSH1 0xA0 SHL SUB PUSH1 0x40 DUP3 ADD MLOAD AND PUSH1 0x40 DUP6 ADD MSTORE PUSH1 0x60 DUP2 ADD MLOAD ISZERO ISZERO PUSH1 0x60 DUP6 ADD MSTORE PUSH1 0x80 DUP2 ADD MLOAD ISZERO ISZERO PUSH1 0x80 DUP6 ADD MSTORE PUSH1 0xA0 DUP2 ADD MLOAD ISZERO ISZERO PUSH1 0xA0 DUP6 ADD MSTORE PUSH1 0xC0 DUP2 ADD MLOAD ISZERO ISZERO PUSH1 0xC0 DUP6 ADD MSTORE PUSH1 0xE0 DUP2 ADD MLOAD PUSH1 0xE0 DUP6 ADD MSTORE PUSH2 0x100 DUP2 ADD MLOAD PUSH2 0x100 DUP6 ADD MSTORE PUSH2 0x120 DUP2 ADD MLOAD PUSH2 0x120 DUP6 ADD MSTORE PUSH2 0x140 DUP2 ADD MLOAD PUSH2 0x140 DUP6 ADD MSTORE PUSH2 0x160 DUP2 ADD MLOAD PUSH2 0x160 DUP6 ADD MSTORE PUSH2 0x180 DUP2 ADD MLOAD PUSH2 0x180 DUP6 ADD MSTORE PUSH1 0x1 DUP1 PUSH1 0xA0 SHL SUB PUSH2 0x1A0 DUP3 ADD MLOAD AND PUSH2 0x1A0 DUP6 ADD MSTORE PUSH1 0x1 DUP1 PUSH1 0xA0 SHL SUB PUSH2 0x1C0 DUP3 ADD MLOAD AND PUSH2 0x1C0 DUP6 ADD MSTORE PUSH2 0x1E0 DUP2 ADD MLOAD PUSH2 0x1E0 DUP6 ADD MSTORE ADD MLOAD SWAP2 ADD SWAP1 PUSH2 0x1CEF JUMP JUMPDEST JUMP JUMPDEST ISZERO PUSH2 0x1DF2 JUMPI JUMP JUMPDEST PUSH1 0x40 MLOAD PUSH3 0x461BCD PUSH1 0xE5 SHL DUP2 MSTORE PUSH1 0x20 PUSH1 0x4 DUP3 ADD MSTORE PUSH1 0x2 PUSH1 0x24 DUP3 ADD MSTORE PUSH2 0x4C31 PUSH1 0xF0 SHL PUSH1 0x44 DUP3 ADD MSTORE PUSH1 0x64 SWAP1 REVERT JUMPDEST ISZERO PUSH2 0x1E23 JUMPI JUMP JUMPDEST PUSH1 0x40 MLOAD PUSH3 0x461BCD PUSH1 0xE5 SHL DUP2 MSTORE PUSH1 0x20 PUSH1 0x4 DUP3 ADD MSTORE PUSH1 0x2 PUSH1 0x24 DUP3 ADD MSTORE PUSH2 0x5431 PUSH1 0xF0 SHL PUSH1 0x44 DUP3 ADD MSTORE PUSH1 0x64 SWAP1 REVERT JUMPDEST PUSH2 0x220 DUP2 ADD SWAP1 DUP2 LT PUSH8 0xFFFFFFFFFFFFFFFF DUP3 GT OR PUSH2 0x1E6A JUMPI PUSH1 0x40 MSTORE JUMP JUMPDEST PUSH4 0x4E487B71 PUSH1 0xE0 SHL PUSH0 MSTORE PUSH1 0x41 PUSH1 0x4 MSTORE PUSH1 0x24 PUSH0 REVERT JUMPDEST SWAP1 PUSH1 0x1F DUP1 NOT SWAP2 ADD AND DUP2 ADD SWAP1 DUP2 LT PUSH8 0xFFFFFFFFFFFFFFFF DUP3 GT OR PUSH2 0x1E6A JUMPI PUSH1 0x40 MSTORE JUMP JUMPDEST MLOAD SWAP1 PUSH1 0x1 PUSH1 0x1 PUSH1 0xA0 SHL SUB DUP3 AND DUP3 SUB PUSH2 0x191 JUMPI JUMP JUMPDEST MLOAD SWAP1 DUP2 ISZERO ISZERO DUP3 SUB PUSH2 0x191 JUMPI JUMP JUMPDEST SWAP1 DUP2 PUSH2 0x220 SWAP2 SUB SLT PUSH2 0x191 JUMPI PUSH2 0x200 PUSH1 0x40 MLOAD SWAP2 PUSH2 0x1EDD DUP4 PUSH2 0x1E4D JUMP JUMPDEST PUSH2 0x1EE6 DUP2 PUSH2 0x1EA0 JUMP JUMPDEST DUP4 MSTORE PUSH2 0x1EF4 PUSH1 0x20 DUP3 ADD PUSH2 0x1EA0 JUMP JUMPDEST PUSH1 0x20 DUP5 ADD MSTORE PUSH2 0x1F05 PUSH1 0x40 DUP3 ADD PUSH2 0x1EA0 JUMP JUMPDEST PUSH1 0x40 DUP5 ADD MSTORE PUSH2 0x1F16 PUSH1 0x60 DUP3 ADD PUSH2 0x1EB4 JUMP JUMPDEST PUSH1 0x60 DUP5 ADD MSTORE PUSH2 0x1F27 PUSH1 0x80 DUP3 ADD PUSH2 0x1EB4 JUMP JUMPDEST PUSH1 0x80 DUP5 ADD MSTORE PUSH2 0x1F38 PUSH1 0xA0 DUP3 ADD PUSH2 0x1EB4 JUMP JUMPDEST PUSH1 0xA0 DUP5 ADD MSTORE PUSH2 0x1F49 PUSH1 0xC0 DUP3 ADD PUSH2 0x1EB4 JUMP JUMPDEST PUSH1 0xC0 DUP5 ADD MSTORE PUSH1 0xE0 DUP2 ADD MLOAD PUSH1 0xE0 DUP5 ADD MSTORE PUSH2 0x100 DUP2 ADD MLOAD PUSH2 0x100 DUP5 ADD MSTORE PUSH2 0x120 DUP2 ADD MLOAD PUSH2 0x120 DUP5 ADD MSTORE PUSH2 0x140 DUP2 ADD MLOAD PUSH2 0x140 DUP5 ADD MSTORE PUSH2 0x160 DUP2 ADD MLOAD PUSH2 0x160 DUP5 ADD MSTORE PUSH2 0x180 DUP2 ADD MLOAD PUSH2 0x180 DUP5 ADD MSTORE PUSH2 0x1FA1 PUSH2 0x1A0 DUP3 ADD PUSH2 0x1EA0 JUMP JUMPDEST PUSH2 0x1A0 DUP5 ADD MSTORE PUSH2 0x1FB4 PUSH2 0x1C0 DUP3 ADD PUSH2 0x1EA0 JUMP JUMPDEST PUSH2 0x1C0 DUP5 ADD MSTORE PUSH2 0x1E0 DUP2 ADD MLOAD PUSH2 0x1E0 DUP5 ADD MSTORE ADD MLOAD PUSH1 0x6 DUP2 LT ISZERO PUSH2 0x191 JUMPI PUSH2 0x200 DUP3 ADD MSTORE SWAP1 JUMP JUMPDEST PUSH1 0x1 PUSH1 0x1 PUSH1 0xA0 SHL SUB SWAP2 DUP3 AND DUP2 MSTORE SWAP2 DUP2 AND PUSH1 0x20 DUP4 ADD MSTORE SWAP2 DUP3 AND PUSH1 0x40 DUP3 ADD MSTORE PUSH1 0x60 DUP2 ADD SWAP3 SWAP1 SWAP3 MSTORE PUSH1 0x80 DUP3 ADD SWAP3 SWAP1 SWAP3 MSTORE PUSH1 0xA0 DUP2 ADD SWAP3 SWAP1 SWAP3 MSTORE PUSH1 0xC0 DUP3 ADD SWAP3 SWAP1 SWAP3 MSTORE SWAP2 DUP2 AND PUSH1 0xE0 DUP4 ADD MSTORE SWAP1 SWAP2 AND PUSH2 0x100 DUP3 ADD MSTORE PUSH2 0x120 DUP2 ADD SWAP2 SWAP1 SWAP2 MSTORE PUSH2 0x160 DUP2 ADD SWAP3 SWAP2 PUSH2 0x1DE9 SWAP2 PUSH2 0x140 ADD SWAP1 PUSH2 0x1CEF JUMP JUMPDEST PUSH0 NOT DUP2 EQ PUSH2 0x2054 JUMPI PUSH1 0x1 ADD SWAP1 JUMP JUMPDEST PUSH4 0x4E487B71 PUSH1 0xE0 SHL PUSH0 MSTORE PUSH1 0x11 PUSH1 0x4 MSTORE PUSH1 0x24 PUSH0 REVERT JUMPDEST ISZERO PUSH2 0x206F JUMPI JUMP JUMPDEST PUSH1 0x40 MLOAD PUSH3 0x461BCD PUSH1 0xE5 SHL DUP2 MSTORE PUSH1 0x20 PUSH1 0x4 DUP3 ADD MSTORE PUSH1 0x2 PUSH1 0x24 DUP3 ADD MSTORE PUSH2 0x2619 PUSH1 0xF1 SHL PUSH1 0x44 DUP3 ADD MSTORE PUSH1 0x64 SWAP1 REVERT JUMPDEST ISZERO PUSH2 0x20A0 JUMPI JUMP JUMPDEST PUSH1 0x40 MLOAD PUSH3 0x461BCD PUSH1 0xE5 SHL DUP2 MSTORE PUSH1 0x20 PUSH1 0x4 DUP3 ADD MSTORE PUSH1 0x2 PUSH1 0x24 DUP3 ADD MSTORE PUSH2 0x4335 PUSH1 0xF0 SHL PUSH1 0x44 DUP3 ADD MSTORE PUSH1 0x64 SWAP1 REVERT JUMPDEST PUSH1 0x1 PUSH1 0x1 PUSH1 0xA0 SHL SUB SWAP2 DUP3 AND DUP2 MSTORE SWAP2 DUP2 AND PUSH1 0x20 DUP4 ADD MSTORE SWAP2 DUP3 AND PUSH1 0x40 DUP3 ADD MSTORE PUSH1 0x60 DUP2 ADD SWAP3 SWAP1 SWAP3 MSTORE PUSH0 PUSH1 0x80 DUP4 ADD DUP2 SWAP1 MSTORE PUSH1 0xA0 DUP4 ADD SWAP4 SWAP1 SWAP4 MSTORE PUSH1 0xC0 DUP3 ADD DUP4 SWAP1 MSTORE SWAP1 SWAP3 AND PUSH1 0xE0 DUP4 ADD MSTORE PUSH2 0x100 DUP3 ADD MSTORE PUSH2 0x120 DUP2 ADD SWAP2 SWAP1 SWAP2 MSTORE PUSH2 0x160 DUP2 ADD SWAP3 SWAP2 PUSH2 0x1DE9 SWAP2 PUSH2 0x140 ADD SWAP1 PUSH2 0x1CEF JUMP JUMPDEST SWAP2 SWAP1 DUP3 SUB SWAP2 DUP3 GT PUSH2 0x2054 JUMPI JUMP JUMPDEST SWAP2 SWAP1 DUP3 ADD DUP1 SWAP3 GT PUSH2 0x2054 JUMPI JUMP JUMPDEST ISZERO PUSH2 0x2153 JUMPI JUMP JUMPDEST PUSH1 0x40 MLOAD PUSH3 0x461BCD PUSH1 0xE5 SHL DUP2 MSTORE PUSH1 0x20 PUSH1 0x4 DUP3 ADD MSTORE PUSH1 0x2 PUSH1 0x24 DUP3 ADD MSTORE PUSH2 0x4435 PUSH1 0xF0 SHL PUSH1 0x44 DUP3 ADD MSTORE PUSH1 0x64 SWAP1 REVERT JUMPDEST ISZERO PUSH2 0x2184 JUMPI JUMP JUMPDEST PUSH1 0x64 PUSH1 0x40 MLOAD PUSH3 0x461BCD PUSH1 0xE5 SHL DUP2 MSTORE PUSH1 0x20 PUSH1 0x4 DUP3 ADD MSTORE PUSH1 0x4 PUSH1 0x24 DUP3 ADD MSTORE PUSH4 0x44332E31 PUSH1 0xE0 SHL PUSH1 0x44 DUP3 ADD MSTORE REVERT JUMPDEST ISZERO PUSH2 0x21B6 JUMPI JUMP JUMPDEST PUSH1 0x64 PUSH1 0x40 MLOAD PUSH3 0x461BCD PUSH1 0xE5 SHL DUP2 MSTORE PUSH1 0x20 PUSH1 0x4 DUP3 ADD MSTORE PUSH1 0x4 PUSH1 0x24 DUP3 ADD MSTORE PUSH4 0x44322E31 PUSH1 0xE0 SHL PUSH1 0x44 DUP3 ADD MSTORE REVERT JUMPDEST ISZERO PUSH2 0x21E8 JUMPI JUMP JUMPDEST PUSH1 0x40 MLOAD PUSH3 0x461BCD PUSH1 0xE5 SHL DUP2 MSTORE PUSH1 0x20 PUSH1 0x4 DUP3 ADD MSTORE PUSH1 0x2 PUSH1 0x24 DUP3 ADD MSTORE PUSH2 0x4433 PUSH1 0xF0 SHL PUSH1 0x44 DUP3 ADD MSTORE PUSH1 0x64 SWAP1 REVERT JUMPDEST DUP3 ISZERO PUSH2 0x22B1 JUMPI PUSH1 0x1 DUP1 PUSH1 0xA0 SHL SUB AND SWAP1 DUP2 PUSH0 MSTORE PUSH1 0x1 PUSH1 0x20 MSTORE PUSH1 0x40 PUSH0 KECCAK256 PUSH1 0x1 DUP1 PUSH1 0xA0 SHL SUB DUP3 AND PUSH0 MSTORE PUSH1 0x20 MSTORE DUP3 PUSH1 0x40 PUSH0 KECCAK256 SLOAD LT PUSH2 0x22AA JUMPI PUSH32 0xD1398BEE19313D6BF672CCB116E51F4A1A947E91C757907F51FBB5B5E56C698F PUSH1 0x20 PUSH0 SWAP3 DUP5 DUP5 MSTORE PUSH1 0x1 DUP3 MSTORE PUSH1 0x40 DUP5 KECCAK256 PUSH1 0x1 DUP1 PUSH1 0xA0 SHL SUB DUP3 AND DUP6 MSTORE DUP3 MSTORE PUSH1 0x40 DUP5 KECCAK256 PUSH2 0x2292 DUP8 DUP3 SLOAD PUSH2 0x2132 JUMP JUMPDEST SWAP1 SSTORE PUSH1 0x40 MLOAD SWAP6 DUP7 MSTORE PUSH1 0x1 PUSH1 0x1 PUSH1 0xA0 SHL SUB AND SWAP5 LOG4 PUSH1 0x1 SWAP1 JUMP JUMPDEST POP POP POP PUSH0 SWAP1 JUMP JUMPDEST POP POP POP PUSH1 0x1 SWAP1 JUMP JUMPDEST DUP3 ISZERO PUSH2 0x22B1 JUMPI PUSH32 0xD1398BEE19313D6BF672CCB116E51F4A1A947E91C757907F51FBB5B5E56C698F PUSH1 0x20 PUSH0 SWAP3 PUSH1 0x1 DUP1 PUSH1 0xA0 SHL SUB AND SWAP4 DUP5 DUP5 MSTORE PUSH1 0x1 DUP3 MSTORE PUSH1 0x40 DUP5 KECCAK256 PUSH1 0x1 DUP1 PUSH1 0xA0 SHL SUB DUP3 AND DUP6 MSTORE DUP3 MSTORE PUSH1 0x40 DUP5 KECCAK256 PUSH2 0x2292 DUP8 DUP3 SLOAD PUSH2 0x213F JUMP JUMPDEST SWAP2 SWAP1 DUP2 ISZERO PUSH2 0x22B1 JUMPI PUSH1 0x1 PUSH1 0x1 PUSH1 0xA0 SHL SUB AND SWAP2 DUP3 PUSH2 0x237C JUMPI PUSH0 DUP1 DUP1 DUP1 DUP6 PUSH1 0x1 PUSH1 0x1 PUSH1 0xA0 SHL SUB DUP7 AND DUP3 CALL ISZERO PUSH2 0x5DD JUMPI PUSH1 0x20 PUSH32 0x2717EAD6B9200DD235AAD468C9809EA400FE33AC69B5BFAA6D3E90FC922B6398 SWAP2 JUMPDEST PUSH1 0x40 MLOAD SWAP4 DUP5 MSTORE PUSH1 0x1 PUSH1 0x1 PUSH1 0xA0 SHL SUB AND SWAP3 LOG3 PUSH1 0x1 SWAP1 JUMP JUMPDEST PUSH1 0x40 MLOAD PUSH4 0xA9059CBB PUSH1 0xE0 SHL DUP2 MSTORE PUSH1 0x1 PUSH1 0x1 PUSH1 0xA0 SHL SUB DUP3 AND PUSH1 0x4 DUP3 ADD MSTORE PUSH1 0x24 DUP2 ADD DUP4 SWAP1 MSTORE PUSH1 0x20 DUP2 PUSH1 0x44 DUP2 PUSH0 DUP9 GAS CALL SWAP1 DUP2 ISZERO PUSH2 0x5DD JUMPI PUSH0 SWAP2 PUSH2 0x2410 JUMPI JUMPDEST POP ISZERO PUSH2 0x23E6 JUMPI PUSH1 0x20 PUSH32 0x2717EAD6B9200DD235AAD468C9809EA400FE33AC69B5BFAA6D3E90FC922B6398 SWAP2 PUSH2 0x2366 JUMP JUMPDEST PUSH1 0x40 MLOAD PUSH3 0x461BCD PUSH1 0xE5 SHL DUP2 MSTORE PUSH1 0x20 PUSH1 0x4 DUP3 ADD MSTORE PUSH1 0x2 PUSH1 0x24 DUP3 ADD MSTORE PUSH2 0x5433 PUSH1 0xF0 SHL PUSH1 0x44 DUP3 ADD MSTORE PUSH1 0x64 SWAP1 REVERT JUMPDEST SWAP1 POP PUSH1 0x20 DUP2 RETURNDATASIZE PUSH1 0x20 GT PUSH2 0x2442 JUMPI JUMPDEST DUP2 PUSH2 0x242B PUSH1 0x20 SWAP4 DUP4 PUSH2 0x1E7E JUMP JUMPDEST DUP2 ADD SUB SLT PUSH2 0x191 JUMPI PUSH2 0x243C SWAP1 PUSH2 0x1EB4 JUMP JUMPDEST PUSH0 PUSH2 0x23B7 JUMP JUMPDEST RETURNDATASIZE SWAP2 POP PUSH2 0x241E JUMP INVALID 0xDC 0xBC SHR SDIV 0x24 0xF BALANCE SELFDESTRUCT GASPRICE 0xD0 PUSH8 0xEF1EE35CE4997762 PUSH22 0x2E3A095284754544F4C709D7A2646970667358221220 0x4F PUSH14 0xCF10A331528773253BDC3F6BC96F 0xBD SWAP16 DUP10 CREATE2 MSIZE DUP15 NUMBER PUSH3 0x35E687 DUP10 DELEGATECALL CALLCODE PUSH1 0xC9 PUSH5 0x736F6C6343 STOP ADDMOD BYTE STOP CALLER "
				},
				"gasEstimates": {
					"creation": {
						"codeDepositCost": "1875200",
						"executionCost": "infinite",
						"totalCost": "infinite"
					},
					"external": {
						"balanceOf(address)": "2701",
						"balanceOf(address,address)": "3134",
						"balances(address,address)": "3027",
						"commissionRecipient()": "2294",
						"contractEnabled()": "2441",
						"counterpartyAcceptSidedDeal(bytes32)": "72461",
						"createDeal(address,address,uint256,uint256,address,uint256,uint8)": "infinite",
						"createSidedDeal(address,address,uint256,uint256,uint256,uint256,address,address,uint256,uint8)": "infinite",
						"deals(bytes32)": "28432",
						"deposit(address,uint256)": "infinite",
						"depositCommissionPercent()": "2578",
						"disableContract()": "25746",
						"enableContract()": "25567",
						"getAmountToDepositViaComission(uint256)": "infinite",
						"getDeal(bytes32)": "infinite",
						"owner()": "2623",
						"payUpCounterpartyAcceptSidedDeal(bytes32)": "76924",
						"payUpCreateDeal(address,address,uint256,uint256,address,uint256,uint8)": "infinite",
						"payUpCreateSidedDeal(address,address,uint256,uint256,uint256,uint256,address,address,uint256,uint8)": "infinite",
						"rejectSidedDeal(bytes32)": "49116",
						"setDepositCommission(uint256,address)": "50139",
						"totalCompletedDeals()": "2754",
						"totalDeals()": "2644",
						"transfer(address,address,uint256)": "54056",
						"transferOwnership(address)": "26577",
						"withdraw(address,uint256)": "infinite",
						"withdrawRejectSidedDeal(bytes32)": "infinite"
					}
				},
				"methodIdentifiers": {
					"balanceOf(address)": "70a08231",
					"balanceOf(address,address)": "f7888aec",
					"balances(address,address)": "c23f001f",
					"commissionRecipient()": "06fd154a",
					"contractEnabled()": "41b3a0d9",
					"counterpartyAcceptSidedDeal(bytes32)": "4187129c",
					"createDeal(address,address,uint256,uint256,address,uint256,uint8)": "17b52b50",
					"createSidedDeal(address,address,uint256,uint256,uint256,uint256,address,address,uint256,uint8)": "007e8bd3",
					"deals(bytes32)": "81cd872a",
					"deposit(address,uint256)": "47e7ef24",
					"depositCommissionPercent()": "899a3ffd",
					"disableContract()": "894ba833",
					"enableContract()": "367edd32",
					"getAmountToDepositViaComission(uint256)": "39b3edb0",
					"getDeal(bytes32)": "51a6fad5",
					"owner()": "8da5cb5b",
					"payUpCounterpartyAcceptSidedDeal(bytes32)": "bb06c1a4",
					"payUpCreateDeal(address,address,uint256,uint256,address,uint256,uint8)": "28d5a050",
					"payUpCreateSidedDeal(address,address,uint256,uint256,uint256,uint256,address,address,uint256,uint8)": "cfadf6c7",
					"rejectSidedDeal(bytes32)": "8deea5fb",
					"setDepositCommission(uint256,address)": "15f8a314",
					"totalCompletedDeals()": "e08560a4",
					"totalDeals()": "966d1f1d",
					"transfer(address,address,uint256)": "beabacc8",
					"transferOwnership(address)": "f2fde38b",
					"withdraw(address,uint256)": "f3fef3a3",
					"withdrawRejectSidedDeal(bytes32)": "80ccb070"
				}
			},
			"storageLayout": {
				"storage": [
					{
						"astId": 1502,
						"contract": "DealCreationManager.sol:DealCreationManager",
						"label": "_owner",
						"offset": 0,
						"slot": "0",
						"type": "t_address"
					},
					{
						"astId": 1505,
						"contract": "DealCreationManager.sol:DealCreationManager",
						"label": "contractEnabled",
						"offset": 20,
						"slot": "0",
						"type": "t_bool"
					},
					{
						"astId": 1678,
						"contract": "DealCreationManager.sol:DealCreationManager",
						"label": "balances",
						"offset": 0,
						"slot": "1",
						"type": "t_mapping(t_address,t_mapping(t_address,t_uint256))"
					},
					{
						"astId": 1680,
						"contract": "DealCreationManager.sol:DealCreationManager",
						"label": "depositCommissionPercent",
						"offset": 0,
						"slot": "2",
						"type": "t_uint256"
					},
					{
						"astId": 1682,
						"contract": "DealCreationManager.sol:DealCreationManager",
						"label": "commissionRecipient",
						"offset": 0,
						"slot": "3",
						"type": "t_address"
					},
					{
						"astId": 331,
						"contract": "DealCreationManager.sol:DealCreationManager",
						"label": "deals",
						"offset": 0,
						"slot": "4",
						"type": "t_mapping(t_bytes32,t_struct(Deal)45_storage)"
					},
					{
						"astId": 334,
						"contract": "DealCreationManager.sol:DealCreationManager",
						"label": "totalDeals",
						"offset": 0,
						"slot": "5",
						"type": "t_uint256"
					},
					{
						"astId": 337,
						"contract": "DealCreationManager.sol:DealCreationManager",
						"label": "totalCompletedDeals",
						"offset": 0,
						"slot": "6",
						"type": "t_uint256"
					}
				],
				"types": {
					"t_address": {
						"encoding": "inplace",
						"label": "address",
						"numberOfBytes": "20"
					},
					"t_address_payable": {
						"encoding": "inplace",
						"label": "address payable",
						"numberOfBytes": "20"
					},
					"t_bool": {
						"encoding": "inplace",
						"label": "bool",
						"numberOfBytes": "1"
					},
					"t_bytes32": {
						"encoding": "inplace",
						"label": "bytes32",
						"numberOfBytes": "32"
					},
					"t_enum(MediatorAction)9": {
						"encoding": "inplace",
						"label": "enum MediatorAction",
						"numberOfBytes": "1"
					},
					"t_mapping(t_address,t_mapping(t_address,t_uint256))": {
						"encoding": "mapping",
						"key": "t_address",
						"label": "mapping(address => mapping(address => uint256))",
						"numberOfBytes": "32",
						"value": "t_mapping(t_address,t_uint256)"
					},
					"t_mapping(t_address,t_uint256)": {
						"encoding": "mapping",
						"key": "t_address",
						"label": "mapping(address => uint256)",
						"numberOfBytes": "32",
						"value": "t_uint256"
					},
					"t_mapping(t_bytes32,t_struct(Deal)45_storage)": {
						"encoding": "mapping",
						"key": "t_bytes32",
						"label": "mapping(bytes32 => struct Deal)",
						"numberOfBytes": "32",
						"value": "t_struct(Deal)45_storage"
					},
					"t_struct(Deal)45_storage": {
						"encoding": "inplace",
						"label": "struct Deal",
						"members": [
							{
								"astId": 11,
								"contract": "DealCreationManager.sol:DealCreationManager",
								"label": "initiator",
								"offset": 0,
								"slot": "0",
								"type": "t_address_payable"
							},
							{
								"astId": 13,
								"contract": "DealCreationManager.sol:DealCreationManager",
								"label": "counterparty",
								"offset": 0,
								"slot": "1",
								"type": "t_address_payable"
							},
							{
								"astId": 15,
								"contract": "DealCreationManager.sol:DealCreationManager",
								"label": "mediator",
								"offset": 0,
								"slot": "2",
								"type": "t_address_payable"
							},
							{
								"astId": 17,
								"contract": "DealCreationManager.sol:DealCreationManager",
								"label": "isCompleted",
								"offset": 20,
								"slot": "2",
								"type": "t_bool"
							},
							{
								"astId": 19,
								"contract": "DealCreationManager.sol:DealCreationManager",
								"label": "isCanceled",
								"offset": 21,
								"slot": "2",
								"type": "t_bool"
							},
							{
								"astId": 21,
								"contract": "DealCreationManager.sol:DealCreationManager",
								"label": "isTwoSided",
								"offset": 22,
								"slot": "2",
								"type": "t_bool"
							},
							{
								"astId": 23,
								"contract": "DealCreationManager.sol:DealCreationManager",
								"label": "isSignedByCounterparty",
								"offset": 23,
								"slot": "2",
								"type": "t_bool"
							},
							{
								"astId": 25,
								"contract": "DealCreationManager.sol:DealCreationManager",
								"label": "initiatorCreateAmount",
								"offset": 0,
								"slot": "3",
								"type": "t_uint256"
							},
							{
								"astId": 27,
								"contract": "DealCreationManager.sol:DealCreationManager",
								"label": "counterpartyCreateAmount",
								"offset": 0,
								"slot": "4",
								"type": "t_uint256"
							},
							{
								"astId": 29,
								"contract": "DealCreationManager.sol:DealCreationManager",
								"label": "initiatorCurrentAmount",
								"offset": 0,
								"slot": "5",
								"type": "t_uint256"
							},
							{
								"astId": 31,
								"contract": "DealCreationManager.sol:DealCreationManager",
								"label": "counterpartyCurrentAmount",
								"offset": 0,
								"slot": "6",
								"type": "t_uint256"
							},
							{
								"astId": 33,
								"contract": "DealCreationManager.sol:DealCreationManager",
								"label": "PRC_InitatorMediatorFee",
								"offset": 0,
								"slot": "7",
								"type": "t_uint256"
							},
							{
								"astId": 35,
								"contract": "DealCreationManager.sol:DealCreationManager",
								"label": "PRC_CounterpartyMediatorFee",
								"offset": 0,
								"slot": "8",
								"type": "t_uint256"
							},
							{
								"astId": 37,
								"contract": "DealCreationManager.sol:DealCreationManager",
								"label": "initiatorTokenAddress",
								"offset": 0,
								"slot": "9",
								"type": "t_address"
							},
							{
								"astId": 39,
								"contract": "DealCreationManager.sol:DealCreationManager",
								"label": "counterpartyTokenAddress",
								"offset": 0,
								"slot": "10",
								"type": "t_address"
							},
							{
								"astId": 41,
								"contract": "DealCreationManager.sol:DealCreationManager",
								"label": "expirationDate",
								"offset": 0,
								"slot": "11",
								"type": "t_uint256"
							},
							{
								"astId": 44,
								"contract": "DealCreationManager.sol:DealCreationManager",
								"label": "mediatorActionOnExpiration",
								"offset": 0,
								"slot": "12",
								"type": "t_enum(MediatorAction)9"
							}
						],
						"numberOfBytes": "416"
					},
					"t_uint256": {
						"encoding": "inplace",
						"label": "uint256",
						"numberOfBytes": "32"
					}
				}
			},
			"userdoc": {
				"kind": "user",
				"methods": {},
				"version": 1
			}
		}
	}
}