{
	"Deal.sol": {
		"DealContract": {
			"abi": [
				{
					"inputs": [],
					"name": "MaxProcent",
					"outputs": [
						{
							"internalType": "uint256",
							"name": "",
							"type": "uint256"
						}
					],
					"stateMutability": "view",
					"type": "function"
				},
				{
					"inputs": [],
					"name": "NOEXPIRATIONDATE",
					"outputs": [
						{
							"internalType": "uint256",
							"name": "",
							"type": "uint256"
						}
					],
					"stateMutability": "view",
					"type": "function"
				},
				{
					"inputs": [
						{
							"internalType": "address payable",
							"name": "_initiator",
							"type": "address"
						},
						{
							"internalType": "address payable",
							"name": "_counterparty",
							"type": "address"
						},
						{
							"internalType": "address payable",
							"name": "_mediator",
							"type": "address"
						},
						{
							"internalType": "uint256",
							"name": "_initiatorCreateAmount",
							"type": "uint256"
						},
						{
							"internalType": "uint256",
							"name": "_counterpartyCreateAmount",
							"type": "uint256"
						},
						{
							"internalType": "uint256",
							"name": "_PRC_MediatorFeeInititor",
							"type": "uint256"
						},
						{
							"internalType": "uint256",
							"name": "_PRC_MediatorFeeCounterparty",
							"type": "uint256"
						},
						{
							"internalType": "address",
							"name": "_initiatorTokenAddress",
							"type": "address"
						},
						{
							"internalType": "address",
							"name": "_counterpartyTokenAddress",
							"type": "address"
						},
						{
							"internalType": "uint256",
							"name": "_expirationDate",
							"type": "uint256"
						},
						{
							"internalType": "enum MediatorAction",
							"name": "_mediatorActionOnExpiration",
							"type": "MediatorAction"
						}
					],
					"name": "createDeal",
					"outputs": [
						{
							"components": [
								{
									"internalType": "address payable",
									"name": "initiator",
									"type": "address"
								},
								{
									"internalType": "address payable",
									"name": "counterparty",
									"type": "address"
								},
								{
									"internalType": "address payable",
									"name": "mediator",
									"type": "address"
								},
								{
									"internalType": "bool",
									"name": "isCompleted",
									"type": "bool"
								},
								{
									"internalType": "bool",
									"name": "isCanceled",
									"type": "bool"
								},
								{
									"internalType": "bool",
									"name": "isTwoSided",
									"type": "bool"
								},
								{
									"internalType": "bool",
									"name": "isSignedByCounterparty",
									"type": "bool"
								},
								{
									"internalType": "uint256",
									"name": "initiatorCreateAmount",
									"type": "uint256"
								},
								{
									"internalType": "uint256",
									"name": "counterpartyCreateAmount",
									"type": "uint256"
								},
								{
									"internalType": "uint256",
									"name": "initiatorCurrentAmount",
									"type": "uint256"
								},
								{
									"internalType": "uint256",
									"name": "counterpartyCurrentAmount",
									"type": "uint256"
								},
								{
									"internalType": "uint256",
									"name": "PRC_InitatorMediatorFee",
									"type": "uint256"
								},
								{
									"internalType": "uint256",
									"name": "PRC_CounterpartyMediatorFee",
									"type": "uint256"
								},
								{
									"internalType": "address",
									"name": "initiatorTokenAddress",
									"type": "address"
								},
								{
									"internalType": "address",
									"name": "counterpartyTokenAddress",
									"type": "address"
								},
								{
									"internalType": "uint256",
									"name": "expirationDate",
									"type": "uint256"
								},
								{
									"internalType": "enum MediatorAction",
									"name": "mediatorActionOnExpiration",
									"type": "MediatorAction"
								}
							],
							"internalType": "struct Deal",
							"name": "",
							"type": "tuple"
						}
					],
					"stateMutability": "view",
					"type": "function"
				},
				{
					"inputs": [
						{
							"components": [
								{
									"internalType": "address payable",
									"name": "initiator",
									"type": "address"
								},
								{
									"internalType": "address payable",
									"name": "counterparty",
									"type": "address"
								},
								{
									"internalType": "address payable",
									"name": "mediator",
									"type": "address"
								},
								{
									"internalType": "bool",
									"name": "isCompleted",
									"type": "bool"
								},
								{
									"internalType": "bool",
									"name": "isCanceled",
									"type": "bool"
								},
								{
									"internalType": "bool",
									"name": "isTwoSided",
									"type": "bool"
								},
								{
									"internalType": "bool",
									"name": "isSignedByCounterparty",
									"type": "bool"
								},
								{
									"internalType": "uint256",
									"name": "initiatorCreateAmount",
									"type": "uint256"
								},
								{
									"internalType": "uint256",
									"name": "counterpartyCreateAmount",
									"type": "uint256"
								},
								{
									"internalType": "uint256",
									"name": "initiatorCurrentAmount",
									"type": "uint256"
								},
								{
									"internalType": "uint256",
									"name": "counterpartyCurrentAmount",
									"type": "uint256"
								},
								{
									"internalType": "uint256",
									"name": "PRC_InitatorMediatorFee",
									"type": "uint256"
								},
								{
									"internalType": "uint256",
									"name": "PRC_CounterpartyMediatorFee",
									"type": "uint256"
								},
								{
									"internalType": "address",
									"name": "initiatorTokenAddress",
									"type": "address"
								},
								{
									"internalType": "address",
									"name": "counterpartyTokenAddress",
									"type": "address"
								},
								{
									"internalType": "uint256",
									"name": "expirationDate",
									"type": "uint256"
								},
								{
									"internalType": "enum MediatorAction",
									"name": "mediatorActionOnExpiration",
									"type": "MediatorAction"
								}
							],
							"internalType": "struct Deal",
							"name": "deal",
							"type": "tuple"
						},
						{
							"internalType": "uint256",
							"name": "totalCreated",
							"type": "uint256"
						}
					],
					"name": "createDealId",
					"outputs": [
						{
							"internalType": "bytes32",
							"name": "",
							"type": "bytes32"
						}
					],
					"stateMutability": "view",
					"type": "function"
				},
				{
					"inputs": [
						{
							"components": [
								{
									"internalType": "address payable",
									"name": "initiator",
									"type": "address"
								},
								{
									"internalType": "address payable",
									"name": "counterparty",
									"type": "address"
								},
								{
									"internalType": "address payable",
									"name": "mediator",
									"type": "address"
								},
								{
									"internalType": "bool",
									"name": "isCompleted",
									"type": "bool"
								},
								{
									"internalType": "bool",
									"name": "isCanceled",
									"type": "bool"
								},
								{
									"internalType": "bool",
									"name": "isTwoSided",
									"type": "bool"
								},
								{
									"internalType": "bool",
									"name": "isSignedByCounterparty",
									"type": "bool"
								},
								{
									"internalType": "uint256",
									"name": "initiatorCreateAmount",
									"type": "uint256"
								},
								{
									"internalType": "uint256",
									"name": "counterpartyCreateAmount",
									"type": "uint256"
								},
								{
									"internalType": "uint256",
									"name": "initiatorCurrentAmount",
									"type": "uint256"
								},
								{
									"internalType": "uint256",
									"name": "counterpartyCurrentAmount",
									"type": "uint256"
								},
								{
									"internalType": "uint256",
									"name": "PRC_InitatorMediatorFee",
									"type": "uint256"
								},
								{
									"internalType": "uint256",
									"name": "PRC_CounterpartyMediatorFee",
									"type": "uint256"
								},
								{
									"internalType": "address",
									"name": "initiatorTokenAddress",
									"type": "address"
								},
								{
									"internalType": "address",
									"name": "counterpartyTokenAddress",
									"type": "address"
								},
								{
									"internalType": "uint256",
									"name": "expirationDate",
									"type": "uint256"
								},
								{
									"internalType": "enum MediatorAction",
									"name": "mediatorActionOnExpiration",
									"type": "MediatorAction"
								}
							],
							"internalType": "struct Deal",
							"name": "deal",
							"type": "tuple"
						}
					],
					"name": "requireCanEdit",
					"outputs": [],
					"stateMutability": "view",
					"type": "function"
				}
			],
			"devdoc": {
				"kind": "dev",
				"methods": {},
				"version": 1
			},
			"evm": {
				"assembly": "    /* \"Deal.sol\":1977:6556  library DealContract {... */\n  0x80\n  dup1\n  0x40\n  mstore\n  jumpi(tag_1, callvalue)\n  dataSize(sub_0)\n  swap1\n  dup2\n  dataOffset(sub_0)\n  dup3\n  codecopy\n  address\n  dup2\n  assignImmutable(\"0xcd5a02d485074f67d63783a7acdae578618045c23ccf47fa4e3f1a01c11714ad\")\n  return\ntag_1:\n  0x00\n  dup1\n  revert\nstop\n\nsub_0: assembly {\n        /* \"Deal.sol\":1977:6556  library DealContract {... */\n      mstore(0x40, 0x80)\n      jumpi(tag_7, iszero(lt(calldatasize, 0x04)))\n      0x00\n      dup1\n      revert\n    tag_7:\n      shr(0xe0, calldataload(0x00))\n      dup1\n      0x4a550ce0\n      eq\n      tag_9\n      jumpi\n      dup1\n      0x4db5aafa\n      eq\n      tag_11\n      jumpi\n      dup1\n      0x652e83d7\n      eq\n      tag_13\n      jumpi\n      dup1\n      0x76563a41\n      eq\n      tag_15\n      jumpi\n      0x797d4ee1\n      eq\n      tag_17\n      jumpi\n      0x00\n      dup1\n      revert\n    tag_17:\n      jumpi(tag_19, slt(add(not(0x03), calldatasize), 0x0240))\n      tag_21\n      calldatasize\n      tag_2\n      jump\t// in\n    tag_21:\n      dup1\n      mload\n        /* \"Deal.sol\":6004:6021  deal.counterparty */\n      0x20\n      dup3\n      add\n        /* \"Deal.sol\":1977:6556  library DealContract {... */\n      mload\n        /* \"Deal.sol\":6036:6049  deal.mediator */\n      swap2\n        /* \"Deal.sol\":1977:6556  library DealContract {... */\n      0x40\n        /* \"Deal.sol\":6036:6049  deal.mediator */\n      dup2\n      add\n        /* \"Deal.sol\":1977:6556  library DealContract {... */\n      mload\n        /* \"Deal.sol\":6064:6090  deal.initiatorCreateAmount */\n      swap1\n        /* \"Deal.sol\":1977:6556  library DealContract {... */\n      0xe0\n        /* \"Deal.sol\":6064:6090  deal.initiatorCreateAmount */\n      dup2\n      add\n        /* \"Deal.sol\":1977:6556  library DealContract {... */\n      mload\n        /* \"Deal.sol\":6105:6134  deal.counterpartyCreateAmount */\n      0x0100\n      dup3\n      add\n        /* \"Deal.sol\":1977:6556  library DealContract {... */\n      mload\n        /* \"Deal.sol\":6149:6176  deal.initiatorCurrentAmount */\n      0x0120\n      dup4\n      add\n        /* \"Deal.sol\":1977:6556  library DealContract {... */\n      mload\n        /* \"Deal.sol\":6191:6221  deal.counterpartyCurrentAmount */\n      0x0140\n      dup5\n      add\n        /* \"Deal.sol\":1977:6556  library DealContract {... */\n      mload\n        /* \"Deal.sol\":6236:6264  deal.PRC_InitatorMediatorFee */\n      0x0160\n      dup6\n      add\n        /* \"Deal.sol\":1977:6556  library DealContract {... */\n      mload\n        /* \"Deal.sol\":6279:6311  deal.PRC_CounterpartyMediatorFee */\n      swap1\n      0x0180\n      dup7\n      add\n        /* \"Deal.sol\":1977:6556  library DealContract {... */\n      mload\n        /* \"Deal.sol\":6326:6352  deal.initiatorTokenAddress */\n      swap3\n      0x01a0\n      dup8\n      add\n        /* \"Deal.sol\":1977:6556  library DealContract {... */\n      mload\n        /* \"Deal.sol\":6367:6396  deal.counterpartyTokenAddress */\n      swap5\n      0x01c0\n      dup9\n      add\n        /* \"Deal.sol\":1977:6556  library DealContract {... */\n      mload\n        /* \"Deal.sol\":6411:6430  deal.expirationDate */\n      swap7\n        /* \"Deal.sol\":6445:6476  deal.mediatorActionOnExpiration */\n      0x0200\n        /* \"Deal.sol\":6411:6430  deal.expirationDate */\n      0x01e0\n      dup11\n      add\n        /* \"Deal.sol\":1977:6556  library DealContract {... */\n      mload\n        /* \"Deal.sol\":6445:6476  deal.mediatorActionOnExpiration */\n      swap10\n      add\n        /* \"Deal.sol\":1977:6556  library DealContract {... */\n      mload\n      swap10\n      0x06\n      dup12\n      lt\n      iszero\n      tag_22\n      jumpi\n      0x34\n      swap13\n      mload(0x40)\n        /* \"Deal.sol\":5944:6544  abi.encodePacked(... */\n      swap14\n      dup15\n      swap2\n        /* \"Deal.sol\":6004:6021  deal.counterparty */\n      0x20\n        /* \"Deal.sol\":5944:6544  abi.encodePacked(... */\n      dup4\n      add\n        /* \"Deal.sol\":1977:6556  library DealContract {... */\n      swap15\n      dup16\n      swap1\n      not(sub(shl(0x60, 0x01), 0x01))\n      swap1\n      0x60\n      shl\n      and\n      swap1\n      mstore\n      not(sub(shl(0x60, 0x01), 0x01))\n      swap1\n      0x60\n      shl\n      and\n      swap2\n      add\n      mstore\n      not(sub(shl(0x60, 0x01), 0x01))\n      swap1\n      0x60\n      shl\n      and\n      0x48\n      dup14\n      add\n      mstore\n      0x5c\n      dup13\n      add\n      mstore\n      0x7c\n      dup12\n      add\n      mstore\n      0x9c\n      dup11\n      add\n      mstore\n      0xbc\n      dup10\n      add\n      mstore\n      0xdc\n      dup9\n      add\n      mstore\n      0xfc\n      dup8\n      add\n      mstore\n      not(sub(shl(0x60, 0x01), 0x01))\n      swap1\n      0x60\n      shl\n      and\n      0x011c\n      dup7\n      add\n      mstore\n      not(sub(shl(0x60, 0x01), 0x01))\n      swap1\n      0x60\n      shl\n      and\n      0x0130\n      dup6\n      add\n      mstore\n      0x0144\n      dup5\n      add\n      mstore\n      0xf8\n      shl\n      0x0164\n      dup4\n      add\n      mstore\n        /* \"Deal.sol\":6491:6506  block.timestamp */\n      timestamp\n        /* \"Deal.sol\":1977:6556  library DealContract {... */\n      0x0165\n      dup4\n      add\n      mstore\n      calldataload(0x0224)\n      0x0185\n      dup4\n      add\n      mstore\n      0x0185\n        /* \"Deal.sol\":5944:6544  abi.encodePacked(... */\n      dup3\n      mstore\n        /* \"Deal.sol\":6367:6396  deal.counterpartyTokenAddress */\n      0x01c0\n        /* \"Deal.sol\":1977:6556  library DealContract {... */\n      dup3\n      add\n      swap2\n      dup1\n      dup4\n      lt\n      0xffffffffffffffff\n      dup5\n      gt\n      or\n      tag_24\n      jumpi\n      0x40\n      dup4\n      swap1\n      mstore\n      mload\n        /* \"Deal.sol\":5934:6545  keccak256(abi.encodePacked(... */\n      swap1\n      keccak256\n        /* \"Deal.sol\":1977:6556  library DealContract {... */\n      dup2\n      mstore\n        /* \"Deal.sol\":6004:6021  deal.counterparty */\n      0x20\n      swap1\n        /* \"Deal.sol\":1977:6556  library DealContract {... */\n      return\n    tag_24:\n      mstore(0x00, shl(0xe0, 0x4e487b71))\n      mstore(0x04, 0x41)\n      revert(0x00, 0x24)\n    tag_22:\n      mstore(0x00, shl(0xe0, 0x4e487b71))\n      mstore(0x04, 0x21)\n      revert(0x00, 0x24)\n    tag_19:\n      0x00\n      dup1\n      revert\n    tag_15:\n      jumpi(tag_19, slt(add(not(0x03), calldatasize), 0x00))\n      0x20\n      mload(0x40)\n        /* \"Percent.sol\":200:206  10**10 */\n      0x02540be400\n        /* \"Deal.sol\":1977:6556  library DealContract {... */\n      dup2\n      mstore\n      return\n    tag_13:\n      jumpi(tag_19, slt(add(not(0x03), calldatasize), 0x0160))\n      calldataload(0x04)\n      sub(shl(0xa0, 0x01), 0x01)\n      dup2\n      and\n      swap1\n      dup2\n      swap1\n      sub\n      tag_19\n      jumpi\n      calldataload(0x24)\n      sub(shl(0xa0, 0x01), 0x01)\n      dup2\n      and\n      swap1\n      dup2\n      swap1\n      sub\n      tag_19\n      jumpi\n      calldataload(0x44)\n      sub(shl(0xa0, 0x01), 0x01)\n      dup2\n      and\n      swap2\n      swap1\n      dup3\n      swap1\n      sub\n      tag_19\n      jumpi\n      calldataload(0x64)\n      calldataload(0xe4)\n      sub(shl(0xa0, 0x01), 0x01)\n      dup2\n      and\n      swap1\n      calldataload(0xc4)\n      swap1\n      calldataload(0xa4)\n      swap1\n      calldataload(0x84)\n      swap1\n      dup5\n      swap1\n      sub\n      tag_19\n      jumpi\n      calldataload(0x0104)\n      sub(shl(0xa0, 0x01), 0x01)\n      dup2\n      and\n      swap6\n      swap1\n      dup7\n      swap1\n      sub\n      tag_19\n      jumpi\n      calldataload(0x0124)\n      swap7\n      calldataload(0x0144)\n      swap9\n      0x06\n      dup11\n      lt\n      iszero\n      tag_19\n      jumpi\n      0x00\n      0x0200\n      mload(0x40)\n      tag_42\n      dup2\n      tag_1\n      jump\t// in\n    tag_42:\n      dup3\n      dup2\n      mstore\n      dup3\n      0x20\n      dup3\n      add\n      mstore\n      dup3\n      0x40\n      dup3\n      add\n      mstore\n      dup3\n      0x60\n      dup3\n      add\n      mstore\n      dup3\n      0x80\n      dup3\n      add\n      mstore\n      dup3\n      0xa0\n      dup3\n      add\n      mstore\n      dup3\n      0xc0\n      dup3\n      add\n      mstore\n      dup3\n      0xe0\n      dup3\n      add\n      mstore\n      dup3\n      0x0100\n      dup3\n      add\n      mstore\n      dup3\n      0x0120\n      dup3\n      add\n      mstore\n      dup3\n      0x0140\n      dup3\n      add\n      mstore\n      dup3\n      0x0160\n      dup3\n      add\n      mstore\n      dup3\n      0x0180\n      dup3\n      add\n      mstore\n      dup3\n      0x01a0\n      dup3\n      add\n      mstore\n      dup3\n      0x01c0\n      dup3\n      add\n      mstore\n      dup3\n      0x01e0\n      dup3\n      add\n      mstore\n      add\n      mstore\n        /* \"Deal.sol\":3215:3254  require(_initiator != address(0), \"C1\") */\n      tag_43\n        /* \"Deal.sol\":3223:3247  _initiator != address(0) */\n      dup12\n      iszero\n      iszero\n        /* \"Deal.sol\":3215:3254  require(_initiator != address(0), \"C1\") */\n      tag_3\n      jump\t// in\n    tag_43:\n        /* \"Deal.sol\":3299:3341  require(_counterparty != address(0), \"C1\") */\n      tag_44\n        /* \"Deal.sol\":3307:3334  _counterparty != address(0) */\n      dup3\n      iszero\n      iszero\n        /* \"Deal.sol\":3299:3341  require(_counterparty != address(0), \"C1\") */\n      tag_3\n      jump\t// in\n    tag_44:\n        /* \"Deal.sol\":3397:3432  _expirationDate == NOEXPIRATIONDATE */\n      dup9\n      iszero\n        /* \"Deal.sol\":3397:3470  _expirationDate == NOEXPIRATIONDATE || _expirationDate <= block.timestamp */\n      dup1\n      iszero\n      tag_45\n      jumpi\n        /* \"Deal.sol\":1977:6556  library DealContract {... */\n    tag_46:\n      iszero\n      tag_47\n      jumpi\n        /* \"Deal.sol\":3607:3630  _mediator == address(0) */\n      dup1\n      iszero\n        /* \"Deal.sol\":3603:3742  if (_mediator == address(0)) {... */\n      tag_49\n      jumpi\n        /* \"Deal.sol\":1977:6556  library DealContract {... */\n    tag_50:\n        /* \"Deal.sol\":3843:3881  require(_mediator != _initiator, \"C3\") */\n      tag_51\n        /* \"Deal.sol\":3851:3874  _mediator != _initiator */\n      dup12\n      dup3\n      eq\n      iszero\n        /* \"Deal.sol\":3843:3881  require(_mediator != _initiator, \"C3\") */\n      tag_5\n      jump\t// in\n    tag_51:\n        /* \"Deal.sol\":3892:3933  require(_mediator != _counterparty, \"C3\") */\n      tag_52\n        /* \"Deal.sol\":3900:3926  _mediator != _counterparty */\n      dup3\n      dup3\n      eq\n      iszero\n        /* \"Deal.sol\":3892:3933  require(_mediator != _counterparty, \"C3\") */\n      tag_5\n      jump\t// in\n    tag_52:\n        /* \"Deal.sol\":3944:3986  require(_initiator != _counterparty, \"C3\") */\n      tag_53\n        /* \"Deal.sol\":3952:3979  _initiator != _counterparty */\n      dup3\n      dup13\n      eq\n      iszero\n        /* \"Deal.sol\":3944:3986  require(_initiator != _counterparty, \"C3\") */\n      tag_5\n      jump\t// in\n    tag_53:\n        /* \"Deal.sol\":4217:4262  require(totalContractFee <= MaxProcent, \"C5\") */\n      tag_54\n        /* \"Percent.sol\":200:206  10**10 */\n      0x02540be400\n        /* \"Deal.sol\":4225:4255  totalContractFee <= MaxProcent */\n      dup7\n      gt\n      iszero\n        /* \"Deal.sol\":4217:4262  require(totalContractFee <= MaxProcent, \"C5\") */\n      tag_6\n      jump\t// in\n    tag_54:\n        /* \"Deal.sol\":4273:4318  require(totalMediatorFee <= MaxProcent, \"C5\") */\n      tag_55\n        /* \"Percent.sol\":200:206  10**10 */\n      0x02540be400\n        /* \"Deal.sol\":4281:4311  totalMediatorFee <= MaxProcent */\n      dup8\n      gt\n      iszero\n        /* \"Deal.sol\":4273:4318  require(totalMediatorFee <= MaxProcent, \"C5\") */\n      tag_6\n      jump\t// in\n    tag_55:\n        /* \"Deal.sol\":4331:4372  require(_initiatorCreateAmount > 0, \"C5\") */\n      tag_56\n        /* \"Deal.sol\":4339:4365  _initiatorCreateAmount > 0 */\n      dup4\n      iszero\n      iszero\n        /* \"Deal.sol\":4331:4372  require(_initiatorCreateAmount > 0, \"C5\") */\n      tag_6\n      jump\t// in\n    tag_56:\n        /* \"Deal.sol\":4403:4432  _counterpartyCreateAmount > 0 */\n      dup4\n      iszero\n        /* \"Deal.sol\":4445:4604  if(!isTwoSided)... */\n      swap2\n      dup3\n      tag_57\n      jumpi\n        /* \"Deal.sol\":1977:6556  library DealContract {... */\n    tag_58:\n      mload(0x40)\n      swap12\n      tag_59\n      dup14\n      tag_1\n      jump\t// in\n    tag_59:\n      dup13\n      mstore\n      0x20\n        /* \"Deal.sol\":4693:5621  Deal({... */\n      dup13\n      add\n        /* \"Deal.sol\":1977:6556  library DealContract {... */\n      mstore\n      0x40\n        /* \"Deal.sol\":4693:5621  Deal({... */\n      dup12\n      add\n        /* \"Deal.sol\":1977:6556  library DealContract {... */\n      mstore\n      0x00\n      0x60\n        /* \"Deal.sol\":4693:5621  Deal({... */\n      dup12\n      add\n        /* \"Deal.sol\":1977:6556  library DealContract {... */\n      mstore\n      0x00\n      0x80\n        /* \"Deal.sol\":4693:5621  Deal({... */\n      dup12\n      add\n        /* \"Deal.sol\":1977:6556  library DealContract {... */\n      mstore\n        /* \"Deal.sol\":4403:4432  _counterpartyCreateAmount > 0 */\n      dup1\n      iszero\n        /* \"Deal.sol\":1977:6556  library DealContract {... */\n      0xa0\n        /* \"Deal.sol\":4693:5621  Deal({... */\n      dup12\n      add\n        /* \"Deal.sol\":1977:6556  library DealContract {... */\n      mstore\n      0xc0\n        /* \"Deal.sol\":4693:5621  Deal({... */\n      dup11\n      add\n        /* \"Deal.sol\":1977:6556  library DealContract {... */\n      mstore\n        /* \"Deal.sol\":4693:5621  Deal({... */\n      dup1\n        /* \"Deal.sol\":1977:6556  library DealContract {... */\n      0xe0\n        /* \"Deal.sol\":4693:5621  Deal({... */\n      dup11\n      add\n        /* \"Deal.sol\":1977:6556  library DealContract {... */\n      mstore\n        /* \"Deal.sol\":4693:5621  Deal({... */\n      dup2\n        /* \"Deal.sol\":1977:6556  library DealContract {... */\n      0x0100\n        /* \"Deal.sol\":4693:5621  Deal({... */\n      dup11\n      add\n        /* \"Deal.sol\":1977:6556  library DealContract {... */\n      mstore\n      0x0120\n        /* \"Deal.sol\":4693:5621  Deal({... */\n      dup10\n      add\n        /* \"Deal.sol\":1977:6556  library DealContract {... */\n      mstore\n      0x0140\n        /* \"Deal.sol\":4693:5621  Deal({... */\n      dup9\n      add\n        /* \"Deal.sol\":1977:6556  library DealContract {... */\n      mstore\n      0x0160\n        /* \"Deal.sol\":4693:5621  Deal({... */\n      dup8\n      add\n        /* \"Deal.sol\":1977:6556  library DealContract {... */\n      mstore\n      0x0180\n        /* \"Deal.sol\":4693:5621  Deal({... */\n      dup7\n      add\n        /* \"Deal.sol\":1977:6556  library DealContract {... */\n      mstore\n      0x01a0\n        /* \"Deal.sol\":4693:5621  Deal({... */\n      dup6\n      add\n        /* \"Deal.sol\":1977:6556  library DealContract {... */\n      mstore\n      0x01c0\n        /* \"Deal.sol\":4693:5621  Deal({... */\n      dup5\n      add\n        /* \"Deal.sol\":1977:6556  library DealContract {... */\n      mstore\n      0x01e0\n        /* \"Deal.sol\":4693:5621  Deal({... */\n      dup4\n      add\n        /* \"Deal.sol\":1977:6556  library DealContract {... */\n      mstore\n      0x0200\n        /* \"Deal.sol\":4693:5621  Deal({... */\n      dup3\n      add\n        /* \"Deal.sol\":1977:6556  library DealContract {... */\n      mstore\n      0x0200\n      mload(0x40)\n      swap2\n      0x01\n      dup1\n      0xa0\n      shl\n      sub\n      dup2\n      mload\n      and\n      dup4\n      mstore\n      0x01\n      dup1\n      0xa0\n      shl\n      sub\n      0x20\n        /* \"Deal.sol\":4693:5621  Deal({... */\n      dup3\n      add\n        /* \"Deal.sol\":1977:6556  library DealContract {... */\n      mload\n      and\n      0x20\n      dup5\n      add\n      mstore\n      0x01\n      dup1\n      0xa0\n      shl\n      sub\n      0x40\n        /* \"Deal.sol\":4693:5621  Deal({... */\n      dup3\n      add\n        /* \"Deal.sol\":1977:6556  library DealContract {... */\n      mload\n      and\n      0x40\n      dup5\n      add\n      mstore\n      0x60\n        /* \"Deal.sol\":4693:5621  Deal({... */\n      dup2\n      add\n        /* \"Deal.sol\":1977:6556  library DealContract {... */\n      mload\n      iszero\n      iszero\n      0x60\n      dup5\n      add\n      mstore\n      0x80\n        /* \"Deal.sol\":4693:5621  Deal({... */\n      dup2\n      add\n        /* \"Deal.sol\":1977:6556  library DealContract {... */\n      mload\n      iszero\n      iszero\n      0x80\n      dup5\n      add\n      mstore\n      0xa0\n        /* \"Deal.sol\":4693:5621  Deal({... */\n      dup2\n      add\n        /* \"Deal.sol\":1977:6556  library DealContract {... */\n      mload\n      iszero\n      iszero\n      0xa0\n      dup5\n      add\n      mstore\n      0xc0\n        /* \"Deal.sol\":4693:5621  Deal({... */\n      dup2\n      add\n        /* \"Deal.sol\":1977:6556  library DealContract {... */\n      mload\n      iszero\n      iszero\n      0xc0\n      dup5\n      add\n      mstore\n      0xe0\n        /* \"Deal.sol\":4693:5621  Deal({... */\n      dup2\n      add\n        /* \"Deal.sol\":1977:6556  library DealContract {... */\n      mload\n      0xe0\n      dup5\n      add\n      mstore\n      0x0100\n        /* \"Deal.sol\":4693:5621  Deal({... */\n      dup2\n      add\n        /* \"Deal.sol\":1977:6556  library DealContract {... */\n      mload\n      0x0100\n      dup5\n      add\n      mstore\n      0x0120\n        /* \"Deal.sol\":4693:5621  Deal({... */\n      dup2\n      add\n        /* \"Deal.sol\":1977:6556  library DealContract {... */\n      mload\n      0x0120\n      dup5\n      add\n      mstore\n      0x0140\n        /* \"Deal.sol\":4693:5621  Deal({... */\n      dup2\n      add\n        /* \"Deal.sol\":1977:6556  library DealContract {... */\n      mload\n      0x0140\n      dup5\n      add\n      mstore\n      0x0160\n        /* \"Deal.sol\":4693:5621  Deal({... */\n      dup2\n      add\n        /* \"Deal.sol\":1977:6556  library DealContract {... */\n      mload\n      0x0160\n      dup5\n      add\n      mstore\n      0x0180\n        /* \"Deal.sol\":4693:5621  Deal({... */\n      dup2\n      add\n        /* \"Deal.sol\":1977:6556  library DealContract {... */\n      mload\n      0x0180\n      dup5\n      add\n      mstore\n      0x01\n      dup1\n      0xa0\n      shl\n      sub\n      0x01a0\n        /* \"Deal.sol\":4693:5621  Deal({... */\n      dup3\n      add\n        /* \"Deal.sol\":1977:6556  library DealContract {... */\n      mload\n      and\n      0x01a0\n      dup5\n      add\n      mstore\n      0x01\n      dup1\n      0xa0\n      shl\n      sub\n      0x01c0\n        /* \"Deal.sol\":4693:5621  Deal({... */\n      dup3\n      add\n        /* \"Deal.sol\":1977:6556  library DealContract {... */\n      mload\n      and\n      0x01c0\n      dup5\n      add\n      mstore\n      0x01e0\n        /* \"Deal.sol\":4693:5621  Deal({... */\n      dup2\n      add\n        /* \"Deal.sol\":1977:6556  library DealContract {... */\n      mload\n      0x01e0\n      dup5\n      add\n      mstore\n        /* \"Deal.sol\":4693:5621  Deal({... */\n      add\n        /* \"Deal.sol\":1977:6556  library DealContract {... */\n      mload\n      swap1\n      0x06\n      dup3\n      lt\n      iszero\n      tag_22\n      jumpi\n      0x0220\n      swap2\n      0x0200\n      dup3\n      add\n      mstore\n      return\n        /* \"Deal.sol\":4445:4604  if(!isTwoSided)... */\n    tag_57:\n        /* \"Deal.sol\":4493:4532  _counterpartyTokenAddress == address(0) */\n      dup9\n      iszero\n        /* \"Deal.sol\":4493:4583  _counterpartyTokenAddress == address(0) && ... */\n      dup1\n      tag_62\n      jumpi\n        /* \"Deal.sol\":4445:4604  if(!isTwoSided)... */\n    tag_63:\n        /* \"Deal.sol\":4485:4592  require(_counterpartyTokenAddress == address(0) && ... */\n      tag_64\n      swap1\n      tag_4\n      jump\t// in\n    tag_64:\n        /* \"Deal.sol\":4445:4604  if(!isTwoSided)... */\n      jump(tag_58)\n        /* \"Deal.sol\":4493:4583  _counterpartyTokenAddress == address(0) && ... */\n    tag_62:\n      pop\n        /* \"Deal.sol\":4550:4583  _PRC_MediatorFeeCounterparty == 0 */\n      dup7\n      iszero\n        /* \"Deal.sol\":4493:4583  _counterpartyTokenAddress == address(0) && ... */\n      jump(tag_63)\n        /* \"Deal.sol\":3603:3742  if (_mediator == address(0)) {... */\n    tag_49:\n        /* \"Deal.sol\":3655:3684  _PRC_MediatorFeeInititor == 0 */\n      dup5\n      iszero\n        /* \"Deal.sol\":3655:3721  _PRC_MediatorFeeInititor == 0 && _PRC_MediatorFeeCounterparty == 0 */\n      dup1\n      tag_65\n      jumpi\n        /* \"Deal.sol\":3603:3742  if (_mediator == address(0)) {... */\n    tag_66:\n        /* \"Deal.sol\":3647:3730  require(_PRC_MediatorFeeInititor == 0 && _PRC_MediatorFeeCounterparty == 0, \"C1.1\") */\n      tag_67\n      swap1\n      tag_4\n      jump\t// in\n    tag_67:\n        /* \"Deal.sol\":3603:3742  if (_mediator == address(0)) {... */\n      jump(tag_50)\n        /* \"Deal.sol\":3655:3721  _PRC_MediatorFeeInititor == 0 && _PRC_MediatorFeeCounterparty == 0 */\n    tag_65:\n      pop\n        /* \"Deal.sol\":3688:3721  _PRC_MediatorFeeCounterparty == 0 */\n      dup6\n      iszero\n        /* \"Deal.sol\":3655:3721  _PRC_MediatorFeeInititor == 0 && _PRC_MediatorFeeCounterparty == 0 */\n      jump(tag_66)\n        /* \"Deal.sol\":1977:6556  library DealContract {... */\n    tag_47:\n      0x64\n      mload(0x40)\n      shl(0xe5, 0x461bcd)\n      dup2\n      mstore\n      0x20\n      0x04\n      dup3\n      add\n      mstore\n      0x04\n      0x24\n      dup3\n      add\n      mstore\n      shl(0xe0, 0x44312e31)\n      0x44\n      dup3\n      add\n      mstore\n      revert\n        /* \"Deal.sol\":3397:3470  _expirationDate == NOEXPIRATIONDATE || _expirationDate <= block.timestamp */\n    tag_45:\n        /* \"Deal.sol\":3455:3470  block.timestamp */\n      pop\n      timestamp\n        /* \"Deal.sol\":3436:3470  _expirationDate <= block.timestamp */\n      dup10\n      gt\n      iszero\n        /* \"Deal.sol\":3397:3470  _expirationDate == NOEXPIRATIONDATE || _expirationDate <= block.timestamp */\n      jump(tag_46)\n        /* \"Deal.sol\":1977:6556  library DealContract {... */\n    tag_11:\n      jumpi(tag_19, slt(add(not(0x03), calldatasize), 0x00))\n      0x20\n      mload(0x40)\n      0x00\n      dup2\n      mstore\n      return\n    tag_9:\n      jumpi(tag_19, slt(add(not(0x03), calldatasize), 0x0220))\n      tag_72\n      calldatasize\n      tag_2\n      jump\t// in\n    tag_72:\n        /* \"Deal.sol\":2337:2356  deal.expirationDate */\n      0x01e0\n      dup2\n      add\n        /* \"Deal.sol\":1977:6556  library DealContract {... */\n      mload\n        /* \"Deal.sol\":2337:2376  deal.expirationDate == NOEXPIRATIONDATE */\n      dup1\n      iszero\n        /* \"Deal.sol\":2337:2417  deal.expirationDate == NOEXPIRATIONDATE || deal.expirationDate < block.timestamp */\n      swap1\n      dup2\n      iszero\n      tag_73\n      jumpi\n        /* \"Deal.sol\":1977:6556  library DealContract {... */\n    tag_74:\n      pop\n      iszero\n      tag_75\n      jumpi\n        /* \"Deal.sol\":2443:2470  deal.isSignedByCounterparty */\n      0xc0\n      dup2\n      add\n        /* \"Deal.sol\":1977:6556  library DealContract {... */\n      mload\n      iszero\n      tag_77\n      jumpi\n        /* \"Deal.sol\":2496:2512  deal.isCompleted */\n      0x60\n      dup2\n      add\n        /* \"Deal.sol\":1977:6556  library DealContract {... */\n      mload\n      iszero\n        /* \"Deal.sol\":2496:2549  deal.isCompleted == false && deal.isCanceled == false */\n      swap1\n      dup2\n      tag_79\n      jumpi\n        /* \"Deal.sol\":1977:6556  library DealContract {... */\n    tag_80:\n      pop\n      iszero\n      tag_81\n      jumpi\n      stop\n    tag_81:\n      mload(0x40)\n      shl(0xe5, 0x461bcd)\n      dup2\n      mstore\n      0x20\n      0x04\n      dup3\n      add\n      mstore\n      0x02\n      0x24\n      dup3\n      add\n      mstore\n      shl(0xf0, 0x4433)\n      0x44\n      dup3\n      add\n      mstore\n      0x64\n      swap1\n      revert\n        /* \"Deal.sol\":2496:2549  deal.isCompleted == false && deal.isCanceled == false */\n    tag_79:\n        /* \"Deal.sol\":2525:2540  deal.isCanceled */\n      0x80\n      swap2\n      pop\n      add\n        /* \"Deal.sol\":1977:6556  library DealContract {... */\n      mload\n      iszero\n        /* \"Deal.sol\":2496:2549  deal.isCompleted == false && deal.isCanceled == false */\n      dup2\n      jump(tag_80)\n        /* \"Deal.sol\":1977:6556  library DealContract {... */\n    tag_77:\n      mload(0x40)\n      shl(0xe5, 0x461bcd)\n      dup2\n      mstore\n      0x20\n      0x04\n      dup3\n      add\n      mstore\n      0x02\n      0x24\n      dup3\n      add\n      mstore\n      shl(0xf1, 0x2219)\n      0x44\n      dup3\n      add\n      mstore\n      0x64\n      swap1\n      revert\n    tag_75:\n      mload(0x40)\n      shl(0xe5, 0x461bcd)\n      dup2\n      mstore\n      0x20\n      0x04\n      dup3\n      add\n      mstore\n      0x02\n      0x24\n      dup3\n      add\n      mstore\n      shl(0xf0, 0x4431)\n      0x44\n      dup3\n      add\n      mstore\n      0x64\n      swap1\n      revert\n        /* \"Deal.sol\":2337:2417  deal.expirationDate == NOEXPIRATIONDATE || deal.expirationDate < block.timestamp */\n    tag_73:\n        /* \"Deal.sol\":2402:2417  block.timestamp */\n      swap1\n      pop\n      timestamp\n      gt\n        /* \"Deal.sol\":2337:2417  deal.expirationDate == NOEXPIRATIONDATE || deal.expirationDate < block.timestamp */\n      dup3\n      jump(tag_74)\n        /* \"Deal.sol\":1977:6556  library DealContract {... */\n    tag_1:\n      0x0220\n      dup2\n      add\n      swap1\n      dup2\n      lt\n      0xffffffffffffffff\n      dup3\n      gt\n      or\n      tag_24\n      jumpi\n      0x40\n      mstore\n      jump\t// out\n    tag_2:\n      0x0220\n      swap1\n      not(0x03)\n      add\n      slt\n      tag_19\n      jumpi\n      mload(0x40)\n      swap1\n      tag_87\n      dup3\n      tag_1\n      jump\t// in\n    tag_87:\n      dup2\n      calldataload(0x04)\n      sub(shl(0xa0, 0x01), 0x01)\n      dup2\n      and\n      dup2\n      sub\n      tag_19\n      jumpi\n      dup2\n      mstore\n      calldataload(0x24)\n      sub(shl(0xa0, 0x01), 0x01)\n      dup2\n      and\n      dup2\n      sub\n      tag_19\n      jumpi\n      0x20\n      dup3\n      add\n      mstore\n      calldataload(0x44)\n      sub(shl(0xa0, 0x01), 0x01)\n      dup2\n      and\n      dup2\n      sub\n      tag_19\n      jumpi\n      0x40\n      dup3\n      add\n      mstore\n      calldataload(0x64)\n      dup1\n      iszero\n      iszero\n      dup2\n      sub\n      tag_19\n      jumpi\n      0x60\n      dup3\n      add\n      mstore\n      calldataload(0x84)\n      dup1\n      iszero\n      iszero\n      dup2\n      sub\n      tag_19\n      jumpi\n      0x80\n      dup3\n      add\n      mstore\n      calldataload(0xa4)\n      dup1\n      iszero\n      iszero\n      dup2\n      sub\n      tag_19\n      jumpi\n      0xa0\n      dup3\n      add\n      mstore\n      calldataload(0xc4)\n      dup1\n      iszero\n      iszero\n      dup2\n      sub\n      tag_19\n      jumpi\n      0xc0\n      dup3\n      add\n      mstore\n      calldataload(0xe4)\n      0xe0\n      dup3\n      add\n      mstore\n      calldataload(0x0104)\n      0x0100\n      dup3\n      add\n      mstore\n      calldataload(0x0124)\n      0x0120\n      dup3\n      add\n      mstore\n      calldataload(0x0144)\n      0x0140\n      dup3\n      add\n      mstore\n      calldataload(0x0164)\n      0x0160\n      dup3\n      add\n      mstore\n      calldataload(0x0184)\n      0x0180\n      dup3\n      add\n      mstore\n      calldataload(0x01a4)\n      sub(shl(0xa0, 0x01), 0x01)\n      dup2\n      and\n      dup2\n      sub\n      tag_19\n      jumpi\n      0x01a0\n      dup3\n      add\n      mstore\n      calldataload(0x01c4)\n      sub(shl(0xa0, 0x01), 0x01)\n      dup2\n      and\n      dup2\n      sub\n      tag_19\n      jumpi\n      0x01c0\n      dup3\n      add\n      mstore\n      calldataload(0x01e4)\n      0x01e0\n      dup3\n      add\n      mstore\n      calldataload(0x0204)\n      swap1\n      0x06\n      dup3\n      lt\n      iszero\n      tag_19\n      jumpi\n      0x0200\n      add\n      mstore\n      jump\t// out\n    tag_3:\n      iszero\n      tag_108\n      jumpi\n      jump\t// out\n    tag_108:\n      mload(0x40)\n      shl(0xe5, 0x461bcd)\n      dup2\n      mstore\n      0x20\n      0x04\n      dup3\n      add\n      mstore\n      0x02\n      0x24\n      dup3\n      add\n      mstore\n      shl(0xf0, 0x4331)\n      0x44\n      dup3\n      add\n      mstore\n      0x64\n      swap1\n      revert\n    tag_4:\n      iszero\n      tag_110\n      jumpi\n      jump\t// out\n    tag_110:\n      0x64\n      mload(0x40)\n      shl(0xe5, 0x461bcd)\n      dup2\n      mstore\n      0x20\n      0x04\n      dup3\n      add\n      mstore\n      0x04\n      0x24\n      dup3\n      add\n      mstore\n      shl(0xe0, 0x43312e31)\n      0x44\n      dup3\n      add\n      mstore\n      revert\n    tag_5:\n      iszero\n      tag_112\n      jumpi\n      jump\t// out\n    tag_112:\n      mload(0x40)\n      shl(0xe5, 0x461bcd)\n      dup2\n      mstore\n      0x20\n      0x04\n      dup3\n      add\n      mstore\n      0x02\n      0x24\n      dup3\n      add\n      mstore\n      shl(0xf0, 0x4333)\n      0x44\n      dup3\n      add\n      mstore\n      0x64\n      swap1\n      revert\n    tag_6:\n      iszero\n      tag_114\n      jumpi\n      jump\t// out\n    tag_114:\n      mload(0x40)\n      shl(0xe5, 0x461bcd)\n      dup2\n      mstore\n      0x20\n      0x04\n      dup3\n      add\n      mstore\n      0x02\n      0x24\n      dup3\n      add\n      mstore\n      shl(0xf0, 0x4335)\n      0x44\n      dup3\n      add\n      mstore\n      0x64\n      swap1\n      revert\n\n    auxdata: 0xa264697066735822122086ca683499e314091913ac637b6055fce9c475d3a1220f2bbe14a7ea1f3c2e0864736f6c634300081a0033\n}\n",
				"bytecode": {
					"linkReferences": {},
					"object": "60808060405234601957610887908161001e823930815050f35b5f80fdfe60806040526004361015610011575f80fd5b5f3560e01c80634a550ce01461055e5780634db5aafa14610549578063652e83d7146101da57806376563a41146101c05763797d4ee114610050575f80fd5b6102403660031901126101bc576100663661065b565b805160208201519160408101519060e081015161010082015161012083015161014084015161016085015190610180860151926101a0870151946101c0880151966102006101e08a01519901519960068b10156101a85760349c6040519d8e91602083019e8f906001600160601b03199060601b1690526001600160601b03199060601b169101526001600160601b03199060601b1660488d0152605c8c0152607c8b0152609c8a015260bc89015260dc88015260fc8701526001600160601b03199060601b1661011c8601526001600160601b03199060601b1661013085015261014484015260f81b610164830152426101658301526102243561018583015261018582526101c082019180831067ffffffffffffffff8411176101945760408390525190208152602090f35b634e487b7160e01b5f52604160045260245ffd5b634e487b7160e01b5f52602160045260245ffd5b5f80fd5b5f3660031901126101bc5760206040516402540be4008152f35b6101603660031901126101bc576004356001600160a01b038116908190036101bc576024356001600160a01b038116908190036101bc576044356001600160a01b03811691908290036101bc5760643560e4356001600160a01b0381169060c4359060a43590608435908490036101bc57610104356001600160a01b03811695908690036101bc576101243596610144359860068a10156101bc575f6102006040516102858161063e565b8281528260208201528260408201528260608201528260808201528260a08201528260c08201528260e08201528261010082015282610120820152826101408201528261016082015282610180820152826101a0820152826101c0820152826101e082015201526102f78b151561078c565b61030282151561078c565b8815801561053f575b156105145780156104f6575b6103238b8214156107ef565b61032f828214156107ef565b61033b828c14156107ef565b61034c6402540be400861115610820565b61035d6402540be400871115610820565b610368831515610820565b831591826104d8575b6040519b61037e8d61063e565b8c5260208c015260408b01525f60608b01525f60808b0152801560a08b015260c08a01528060e08a0152816101008a01526101208901526101408801526101608701526101808601526101a08501526101c08401526101e08301526102008201526102006040519160018060a01b03815116835260018060a01b03602082015116602084015260018060a01b03604082015116604084015260608101511515606084015260808101511515608084015260a0810151151560a084015260c0810151151560c084015260e081015160e084015261010081015161010084015261012081015161012084015261014081015161014084015261016081015161016084015261018081015161018084015260018060a01b036101a0820151166101a084015260018060a01b036101c0820151166101c08401526101e08101516101e084015201519060068210156101a85761022091610200820152f35b8815806104ee575b6104e9906107bd565b610371565b5086156104e0565b84158061050c575b610507906107bd565b610317565b5085156104fe565b606460405162461bcd60e51b815260206004820152600460248201526344312e3160e01b6044820152fd5b504289111561030b565b5f3660031901126101bc5760206040515f8152f35b6102203660031901126101bc576105743661065b565b6101e08101518015908115610634575b501561060a5760c0810151156105e05760608101511590816105d3575b50156105a957005b60405162461bcd60e51b8152602060048201526002602482015261443360f01b6044820152606490fd5b60809150015115816105a1565b60405162461bcd60e51b8152602060048201526002602482015261221960f11b6044820152606490fd5b60405162461bcd60e51b8152602060048201526002602482015261443160f01b6044820152606490fd5b9050421182610584565b610220810190811067ffffffffffffffff82111761019457604052565b6102209060031901126101bc57604051906106758261063e565b816004356001600160a01b03811681036101bc5781526024356001600160a01b03811681036101bc5760208201526044356001600160a01b03811681036101bc57604082015260643580151581036101bc57606082015260843580151581036101bc57608082015260a43580151581036101bc5760a082015260c43580151581036101bc5760c082015260e43560e082015261010435610100820152610124356101208201526101443561014082015261016435610160820152610184356101808201526101a4356001600160a01b03811681036101bc576101a08201526101c4356001600160a01b03811681036101bc576101c08201526101e4356101e0820152610204359060068210156101bc576102000152565b1561079357565b60405162461bcd60e51b8152602060048201526002602482015261433160f01b6044820152606490fd5b156107c457565b606460405162461bcd60e51b815260206004820152600460248201526343312e3160e01b6044820152fd5b156107f657565b60405162461bcd60e51b8152602060048201526002602482015261433360f01b6044820152606490fd5b1561082757565b60405162461bcd60e51b8152602060048201526002602482015261433560f01b6044820152606490fdfea264697066735822122086ca683499e314091913ac637b6055fce9c475d3a1220f2bbe14a7ea1f3c2e0864736f6c634300081a0033",
					"opcodes": "PUSH1 0x80 DUP1 PUSH1 0x40 MSTORE CALLVALUE PUSH1 0x19 JUMPI PUSH2 0x887 SWAP1 DUP2 PUSH2 0x1E DUP3 CODECOPY ADDRESS DUP2 POP POP RETURN JUMPDEST PUSH0 DUP1 REVERT INVALID PUSH1 0x80 PUSH1 0x40 MSTORE PUSH1 0x4 CALLDATASIZE LT ISZERO PUSH2 0x11 JUMPI PUSH0 DUP1 REVERT JUMPDEST PUSH0 CALLDATALOAD PUSH1 0xE0 SHR DUP1 PUSH4 0x4A550CE0 EQ PUSH2 0x55E JUMPI DUP1 PUSH4 0x4DB5AAFA EQ PUSH2 0x549 JUMPI DUP1 PUSH4 0x652E83D7 EQ PUSH2 0x1DA JUMPI DUP1 PUSH4 0x76563A41 EQ PUSH2 0x1C0 JUMPI PUSH4 0x797D4EE1 EQ PUSH2 0x50 JUMPI PUSH0 DUP1 REVERT JUMPDEST PUSH2 0x240 CALLDATASIZE PUSH1 0x3 NOT ADD SLT PUSH2 0x1BC JUMPI PUSH2 0x66 CALLDATASIZE PUSH2 0x65B JUMP JUMPDEST DUP1 MLOAD PUSH1 0x20 DUP3 ADD MLOAD SWAP2 PUSH1 0x40 DUP2 ADD MLOAD SWAP1 PUSH1 0xE0 DUP2 ADD MLOAD PUSH2 0x100 DUP3 ADD MLOAD PUSH2 0x120 DUP4 ADD MLOAD PUSH2 0x140 DUP5 ADD MLOAD PUSH2 0x160 DUP6 ADD MLOAD SWAP1 PUSH2 0x180 DUP7 ADD MLOAD SWAP3 PUSH2 0x1A0 DUP8 ADD MLOAD SWAP5 PUSH2 0x1C0 DUP9 ADD MLOAD SWAP7 PUSH2 0x200 PUSH2 0x1E0 DUP11 ADD MLOAD SWAP10 ADD MLOAD SWAP10 PUSH1 0x6 DUP12 LT ISZERO PUSH2 0x1A8 JUMPI PUSH1 0x34 SWAP13 PUSH1 0x40 MLOAD SWAP14 DUP15 SWAP2 PUSH1 0x20 DUP4 ADD SWAP15 DUP16 SWAP1 PUSH1 0x1 PUSH1 0x1 PUSH1 0x60 SHL SUB NOT SWAP1 PUSH1 0x60 SHL AND SWAP1 MSTORE PUSH1 0x1 PUSH1 0x1 PUSH1 0x60 SHL SUB NOT SWAP1 PUSH1 0x60 SHL AND SWAP2 ADD MSTORE PUSH1 0x1 PUSH1 0x1 PUSH1 0x60 SHL SUB NOT SWAP1 PUSH1 0x60 SHL AND PUSH1 0x48 DUP14 ADD MSTORE PUSH1 0x5C DUP13 ADD MSTORE PUSH1 0x7C DUP12 ADD MSTORE PUSH1 0x9C DUP11 ADD MSTORE PUSH1 0xBC DUP10 ADD MSTORE PUSH1 0xDC DUP9 ADD MSTORE PUSH1 0xFC DUP8 ADD MSTORE PUSH1 0x1 PUSH1 0x1 PUSH1 0x60 SHL SUB NOT SWAP1 PUSH1 0x60 SHL AND PUSH2 0x11C DUP7 ADD MSTORE PUSH1 0x1 PUSH1 0x1 PUSH1 0x60 SHL SUB NOT SWAP1 PUSH1 0x60 SHL AND PUSH2 0x130 DUP6 ADD MSTORE PUSH2 0x144 DUP5 ADD MSTORE PUSH1 0xF8 SHL PUSH2 0x164 DUP4 ADD MSTORE TIMESTAMP PUSH2 0x165 DUP4 ADD MSTORE PUSH2 0x224 CALLDATALOAD PUSH2 0x185 DUP4 ADD MSTORE PUSH2 0x185 DUP3 MSTORE PUSH2 0x1C0 DUP3 ADD SWAP2 DUP1 DUP4 LT PUSH8 0xFFFFFFFFFFFFFFFF DUP5 GT OR PUSH2 0x194 JUMPI PUSH1 0x40 DUP4 SWAP1 MSTORE MLOAD SWAP1 KECCAK256 DUP2 MSTORE PUSH1 0x20 SWAP1 RETURN JUMPDEST PUSH4 0x4E487B71 PUSH1 0xE0 SHL PUSH0 MSTORE PUSH1 0x41 PUSH1 0x4 MSTORE PUSH1 0x24 PUSH0 REVERT JUMPDEST PUSH4 0x4E487B71 PUSH1 0xE0 SHL PUSH0 MSTORE PUSH1 0x21 PUSH1 0x4 MSTORE PUSH1 0x24 PUSH0 REVERT JUMPDEST PUSH0 DUP1 REVERT JUMPDEST PUSH0 CALLDATASIZE PUSH1 0x3 NOT ADD SLT PUSH2 0x1BC JUMPI PUSH1 0x20 PUSH1 0x40 MLOAD PUSH5 0x2540BE400 DUP2 MSTORE RETURN JUMPDEST PUSH2 0x160 CALLDATASIZE PUSH1 0x3 NOT ADD SLT PUSH2 0x1BC JUMPI PUSH1 0x4 CALLDATALOAD PUSH1 0x1 PUSH1 0x1 PUSH1 0xA0 SHL SUB DUP2 AND SWAP1 DUP2 SWAP1 SUB PUSH2 0x1BC JUMPI PUSH1 0x24 CALLDATALOAD PUSH1 0x1 PUSH1 0x1 PUSH1 0xA0 SHL SUB DUP2 AND SWAP1 DUP2 SWAP1 SUB PUSH2 0x1BC JUMPI PUSH1 0x44 CALLDATALOAD PUSH1 0x1 PUSH1 0x1 PUSH1 0xA0 SHL SUB DUP2 AND SWAP2 SWAP1 DUP3 SWAP1 SUB PUSH2 0x1BC JUMPI PUSH1 0x64 CALLDATALOAD PUSH1 0xE4 CALLDATALOAD PUSH1 0x1 PUSH1 0x1 PUSH1 0xA0 SHL SUB DUP2 AND SWAP1 PUSH1 0xC4 CALLDATALOAD SWAP1 PUSH1 0xA4 CALLDATALOAD SWAP1 PUSH1 0x84 CALLDATALOAD SWAP1 DUP5 SWAP1 SUB PUSH2 0x1BC JUMPI PUSH2 0x104 CALLDATALOAD PUSH1 0x1 PUSH1 0x1 PUSH1 0xA0 SHL SUB DUP2 AND SWAP6 SWAP1 DUP7 SWAP1 SUB PUSH2 0x1BC JUMPI PUSH2 0x124 CALLDATALOAD SWAP7 PUSH2 0x144 CALLDATALOAD SWAP9 PUSH1 0x6 DUP11 LT ISZERO PUSH2 0x1BC JUMPI PUSH0 PUSH2 0x200 PUSH1 0x40 MLOAD PUSH2 0x285 DUP2 PUSH2 0x63E JUMP JUMPDEST DUP3 DUP2 MSTORE DUP3 PUSH1 0x20 DUP3 ADD MSTORE DUP3 PUSH1 0x40 DUP3 ADD MSTORE DUP3 PUSH1 0x60 DUP3 ADD MSTORE DUP3 PUSH1 0x80 DUP3 ADD MSTORE DUP3 PUSH1 0xA0 DUP3 ADD MSTORE DUP3 PUSH1 0xC0 DUP3 ADD MSTORE DUP3 PUSH1 0xE0 DUP3 ADD MSTORE DUP3 PUSH2 0x100 DUP3 ADD MSTORE DUP3 PUSH2 0x120 DUP3 ADD MSTORE DUP3 PUSH2 0x140 DUP3 ADD MSTORE DUP3 PUSH2 0x160 DUP3 ADD MSTORE DUP3 PUSH2 0x180 DUP3 ADD MSTORE DUP3 PUSH2 0x1A0 DUP3 ADD MSTORE DUP3 PUSH2 0x1C0 DUP3 ADD MSTORE DUP3 PUSH2 0x1E0 DUP3 ADD MSTORE ADD MSTORE PUSH2 0x2F7 DUP12 ISZERO ISZERO PUSH2 0x78C JUMP JUMPDEST PUSH2 0x302 DUP3 ISZERO ISZERO PUSH2 0x78C JUMP JUMPDEST DUP9 ISZERO DUP1 ISZERO PUSH2 0x53F JUMPI JUMPDEST ISZERO PUSH2 0x514 JUMPI DUP1 ISZERO PUSH2 0x4F6 JUMPI JUMPDEST PUSH2 0x323 DUP12 DUP3 EQ ISZERO PUSH2 0x7EF JUMP JUMPDEST PUSH2 0x32F DUP3 DUP3 EQ ISZERO PUSH2 0x7EF JUMP JUMPDEST PUSH2 0x33B DUP3 DUP13 EQ ISZERO PUSH2 0x7EF JUMP JUMPDEST PUSH2 0x34C PUSH5 0x2540BE400 DUP7 GT ISZERO PUSH2 0x820 JUMP JUMPDEST PUSH2 0x35D PUSH5 0x2540BE400 DUP8 GT ISZERO PUSH2 0x820 JUMP JUMPDEST PUSH2 0x368 DUP4 ISZERO ISZERO PUSH2 0x820 JUMP JUMPDEST DUP4 ISZERO SWAP2 DUP3 PUSH2 0x4D8 JUMPI JUMPDEST PUSH1 0x40 MLOAD SWAP12 PUSH2 0x37E DUP14 PUSH2 0x63E JUMP JUMPDEST DUP13 MSTORE PUSH1 0x20 DUP13 ADD MSTORE PUSH1 0x40 DUP12 ADD MSTORE PUSH0 PUSH1 0x60 DUP12 ADD MSTORE PUSH0 PUSH1 0x80 DUP12 ADD MSTORE DUP1 ISZERO PUSH1 0xA0 DUP12 ADD MSTORE PUSH1 0xC0 DUP11 ADD MSTORE DUP1 PUSH1 0xE0 DUP11 ADD MSTORE DUP2 PUSH2 0x100 DUP11 ADD MSTORE PUSH2 0x120 DUP10 ADD MSTORE PUSH2 0x140 DUP9 ADD MSTORE PUSH2 0x160 DUP8 ADD MSTORE PUSH2 0x180 DUP7 ADD MSTORE PUSH2 0x1A0 DUP6 ADD MSTORE PUSH2 0x1C0 DUP5 ADD MSTORE PUSH2 0x1E0 DUP4 ADD MSTORE PUSH2 0x200 DUP3 ADD MSTORE PUSH2 0x200 PUSH1 0x40 MLOAD SWAP2 PUSH1 0x1 DUP1 PUSH1 0xA0 SHL SUB DUP2 MLOAD AND DUP4 MSTORE PUSH1 0x1 DUP1 PUSH1 0xA0 SHL SUB PUSH1 0x20 DUP3 ADD MLOAD AND PUSH1 0x20 DUP5 ADD MSTORE PUSH1 0x1 DUP1 PUSH1 0xA0 SHL SUB PUSH1 0x40 DUP3 ADD MLOAD AND PUSH1 0x40 DUP5 ADD MSTORE PUSH1 0x60 DUP2 ADD MLOAD ISZERO ISZERO PUSH1 0x60 DUP5 ADD MSTORE PUSH1 0x80 DUP2 ADD MLOAD ISZERO ISZERO PUSH1 0x80 DUP5 ADD MSTORE PUSH1 0xA0 DUP2 ADD MLOAD ISZERO ISZERO PUSH1 0xA0 DUP5 ADD MSTORE PUSH1 0xC0 DUP2 ADD MLOAD ISZERO ISZERO PUSH1 0xC0 DUP5 ADD MSTORE PUSH1 0xE0 DUP2 ADD MLOAD PUSH1 0xE0 DUP5 ADD MSTORE PUSH2 0x100 DUP2 ADD MLOAD PUSH2 0x100 DUP5 ADD MSTORE PUSH2 0x120 DUP2 ADD MLOAD PUSH2 0x120 DUP5 ADD MSTORE PUSH2 0x140 DUP2 ADD MLOAD PUSH2 0x140 DUP5 ADD MSTORE PUSH2 0x160 DUP2 ADD MLOAD PUSH2 0x160 DUP5 ADD MSTORE PUSH2 0x180 DUP2 ADD MLOAD PUSH2 0x180 DUP5 ADD MSTORE PUSH1 0x1 DUP1 PUSH1 0xA0 SHL SUB PUSH2 0x1A0 DUP3 ADD MLOAD AND PUSH2 0x1A0 DUP5 ADD MSTORE PUSH1 0x1 DUP1 PUSH1 0xA0 SHL SUB PUSH2 0x1C0 DUP3 ADD MLOAD AND PUSH2 0x1C0 DUP5 ADD MSTORE PUSH2 0x1E0 DUP2 ADD MLOAD PUSH2 0x1E0 DUP5 ADD MSTORE ADD MLOAD SWAP1 PUSH1 0x6 DUP3 LT ISZERO PUSH2 0x1A8 JUMPI PUSH2 0x220 SWAP2 PUSH2 0x200 DUP3 ADD MSTORE RETURN JUMPDEST DUP9 ISZERO DUP1 PUSH2 0x4EE JUMPI JUMPDEST PUSH2 0x4E9 SWAP1 PUSH2 0x7BD JUMP JUMPDEST PUSH2 0x371 JUMP JUMPDEST POP DUP7 ISZERO PUSH2 0x4E0 JUMP JUMPDEST DUP5 ISZERO DUP1 PUSH2 0x50C JUMPI JUMPDEST PUSH2 0x507 SWAP1 PUSH2 0x7BD JUMP JUMPDEST PUSH2 0x317 JUMP JUMPDEST POP DUP6 ISZERO PUSH2 0x4FE JUMP JUMPDEST PUSH1 0x64 PUSH1 0x40 MLOAD PUSH3 0x461BCD PUSH1 0xE5 SHL DUP2 MSTORE PUSH1 0x20 PUSH1 0x4 DUP3 ADD MSTORE PUSH1 0x4 PUSH1 0x24 DUP3 ADD MSTORE PUSH4 0x44312E31 PUSH1 0xE0 SHL PUSH1 0x44 DUP3 ADD MSTORE REVERT JUMPDEST POP TIMESTAMP DUP10 GT ISZERO PUSH2 0x30B JUMP JUMPDEST PUSH0 CALLDATASIZE PUSH1 0x3 NOT ADD SLT PUSH2 0x1BC JUMPI PUSH1 0x20 PUSH1 0x40 MLOAD PUSH0 DUP2 MSTORE RETURN JUMPDEST PUSH2 0x220 CALLDATASIZE PUSH1 0x3 NOT ADD SLT PUSH2 0x1BC JUMPI PUSH2 0x574 CALLDATASIZE PUSH2 0x65B JUMP JUMPDEST PUSH2 0x1E0 DUP2 ADD MLOAD DUP1 ISZERO SWAP1 DUP2 ISZERO PUSH2 0x634 JUMPI JUMPDEST POP ISZERO PUSH2 0x60A JUMPI PUSH1 0xC0 DUP2 ADD MLOAD ISZERO PUSH2 0x5E0 JUMPI PUSH1 0x60 DUP2 ADD MLOAD ISZERO SWAP1 DUP2 PUSH2 0x5D3 JUMPI JUMPDEST POP ISZERO PUSH2 0x5A9 JUMPI STOP JUMPDEST PUSH1 0x40 MLOAD PUSH3 0x461BCD PUSH1 0xE5 SHL DUP2 MSTORE PUSH1 0x20 PUSH1 0x4 DUP3 ADD MSTORE PUSH1 0x2 PUSH1 0x24 DUP3 ADD MSTORE PUSH2 0x4433 PUSH1 0xF0 SHL PUSH1 0x44 DUP3 ADD MSTORE PUSH1 0x64 SWAP1 REVERT JUMPDEST PUSH1 0x80 SWAP2 POP ADD MLOAD ISZERO DUP2 PUSH2 0x5A1 JUMP JUMPDEST PUSH1 0x40 MLOAD PUSH3 0x461BCD PUSH1 0xE5 SHL DUP2 MSTORE PUSH1 0x20 PUSH1 0x4 DUP3 ADD MSTORE PUSH1 0x2 PUSH1 0x24 DUP3 ADD MSTORE PUSH2 0x2219 PUSH1 0xF1 SHL PUSH1 0x44 DUP3 ADD MSTORE PUSH1 0x64 SWAP1 REVERT JUMPDEST PUSH1 0x40 MLOAD PUSH3 0x461BCD PUSH1 0xE5 SHL DUP2 MSTORE PUSH1 0x20 PUSH1 0x4 DUP3 ADD MSTORE PUSH1 0x2 PUSH1 0x24 DUP3 ADD MSTORE PUSH2 0x4431 PUSH1 0xF0 SHL PUSH1 0x44 DUP3 ADD MSTORE PUSH1 0x64 SWAP1 REVERT JUMPDEST SWAP1 POP TIMESTAMP GT DUP3 PUSH2 0x584 JUMP JUMPDEST PUSH2 0x220 DUP2 ADD SWAP1 DUP2 LT PUSH8 0xFFFFFFFFFFFFFFFF DUP3 GT OR PUSH2 0x194 JUMPI PUSH1 0x40 MSTORE JUMP JUMPDEST PUSH2 0x220 SWAP1 PUSH1 0x3 NOT ADD SLT PUSH2 0x1BC JUMPI PUSH1 0x40 MLOAD SWAP1 PUSH2 0x675 DUP3 PUSH2 0x63E JUMP JUMPDEST DUP2 PUSH1 0x4 CALLDATALOAD PUSH1 0x1 PUSH1 0x1 PUSH1 0xA0 SHL SUB DUP2 AND DUP2 SUB PUSH2 0x1BC JUMPI DUP2 MSTORE PUSH1 0x24 CALLDATALOAD PUSH1 0x1 PUSH1 0x1 PUSH1 0xA0 SHL SUB DUP2 AND DUP2 SUB PUSH2 0x1BC JUMPI PUSH1 0x20 DUP3 ADD MSTORE PUSH1 0x44 CALLDATALOAD PUSH1 0x1 PUSH1 0x1 PUSH1 0xA0 SHL SUB DUP2 AND DUP2 SUB PUSH2 0x1BC JUMPI PUSH1 0x40 DUP3 ADD MSTORE PUSH1 0x64 CALLDATALOAD DUP1 ISZERO ISZERO DUP2 SUB PUSH2 0x1BC JUMPI PUSH1 0x60 DUP3 ADD MSTORE PUSH1 0x84 CALLDATALOAD DUP1 ISZERO ISZERO DUP2 SUB PUSH2 0x1BC JUMPI PUSH1 0x80 DUP3 ADD MSTORE PUSH1 0xA4 CALLDATALOAD DUP1 ISZERO ISZERO DUP2 SUB PUSH2 0x1BC JUMPI PUSH1 0xA0 DUP3 ADD MSTORE PUSH1 0xC4 CALLDATALOAD DUP1 ISZERO ISZERO DUP2 SUB PUSH2 0x1BC JUMPI PUSH1 0xC0 DUP3 ADD MSTORE PUSH1 0xE4 CALLDATALOAD PUSH1 0xE0 DUP3 ADD MSTORE PUSH2 0x104 CALLDATALOAD PUSH2 0x100 DUP3 ADD MSTORE PUSH2 0x124 CALLDATALOAD PUSH2 0x120 DUP3 ADD MSTORE PUSH2 0x144 CALLDATALOAD PUSH2 0x140 DUP3 ADD MSTORE PUSH2 0x164 CALLDATALOAD PUSH2 0x160 DUP3 ADD MSTORE PUSH2 0x184 CALLDATALOAD PUSH2 0x180 DUP3 ADD MSTORE PUSH2 0x1A4 CALLDATALOAD PUSH1 0x1 PUSH1 0x1 PUSH1 0xA0 SHL SUB DUP2 AND DUP2 SUB PUSH2 0x1BC JUMPI PUSH2 0x1A0 DUP3 ADD MSTORE PUSH2 0x1C4 CALLDATALOAD PUSH1 0x1 PUSH1 0x1 PUSH1 0xA0 SHL SUB DUP2 AND DUP2 SUB PUSH2 0x1BC JUMPI PUSH2 0x1C0 DUP3 ADD MSTORE PUSH2 0x1E4 CALLDATALOAD PUSH2 0x1E0 DUP3 ADD MSTORE PUSH2 0x204 CALLDATALOAD SWAP1 PUSH1 0x6 DUP3 LT ISZERO PUSH2 0x1BC JUMPI PUSH2 0x200 ADD MSTORE JUMP JUMPDEST ISZERO PUSH2 0x793 JUMPI JUMP JUMPDEST PUSH1 0x40 MLOAD PUSH3 0x461BCD PUSH1 0xE5 SHL DUP2 MSTORE PUSH1 0x20 PUSH1 0x4 DUP3 ADD MSTORE PUSH1 0x2 PUSH1 0x24 DUP3 ADD MSTORE PUSH2 0x4331 PUSH1 0xF0 SHL PUSH1 0x44 DUP3 ADD MSTORE PUSH1 0x64 SWAP1 REVERT JUMPDEST ISZERO PUSH2 0x7C4 JUMPI JUMP JUMPDEST PUSH1 0x64 PUSH1 0x40 MLOAD PUSH3 0x461BCD PUSH1 0xE5 SHL DUP2 MSTORE PUSH1 0x20 PUSH1 0x4 DUP3 ADD MSTORE PUSH1 0x4 PUSH1 0x24 DUP3 ADD MSTORE PUSH4 0x43312E31 PUSH1 0xE0 SHL PUSH1 0x44 DUP3 ADD MSTORE REVERT JUMPDEST ISZERO PUSH2 0x7F6 JUMPI JUMP JUMPDEST PUSH1 0x40 MLOAD PUSH3 0x461BCD PUSH1 0xE5 SHL DUP2 MSTORE PUSH1 0x20 PUSH1 0x4 DUP3 ADD MSTORE PUSH1 0x2 PUSH1 0x24 DUP3 ADD MSTORE PUSH2 0x4333 PUSH1 0xF0 SHL PUSH1 0x44 DUP3 ADD MSTORE PUSH1 0x64 SWAP1 REVERT JUMPDEST ISZERO PUSH2 0x827 JUMPI JUMP JUMPDEST PUSH1 0x40 MLOAD PUSH3 0x461BCD PUSH1 0xE5 SHL DUP2 MSTORE PUSH1 0x20 PUSH1 0x4 DUP3 ADD MSTORE PUSH1 0x2 PUSH1 0x24 DUP3 ADD MSTORE PUSH2 0x4335 PUSH1 0xF0 SHL PUSH1 0x44 DUP3 ADD MSTORE PUSH1 0x64 SWAP1 REVERT INVALID LOG2 PUSH5 0x6970667358 0x22 SLT KECCAK256 DUP7 0xCA PUSH9 0x3499E314091913AC63 PUSH28 0x6055FCE9C475D3A1220F2BBE14A7EA1F3C2E0864736F6C634300081A STOP CALLER "
				},
				"gasEstimates": {
					"creation": {
						"codeDepositCost": "436600",
						"executionCost": "infinite",
						"totalCost": "infinite"
					},
					"external": {
						"MaxProcent()": "196",
						"NOEXPIRATIONDATE()": "151",
						"createDeal(address,address,address,uint256,uint256,uint256,uint256,address,address,uint256,MediatorAction)": "infinite",
						"createDealId(Deal,uint256)": "1838",
						"requireCanEdit(Deal)": "1232"
					}
				},
				"methodIdentifiers": {
					"MaxProcent()": "76563a41",
					"NOEXPIRATIONDATE()": "4db5aafa",
					"createDeal(address,address,address,uint256,uint256,uint256,uint256,address,address,uint256,MediatorAction)": "652e83d7",
					"createDealId(Deal,uint256)": "797d4ee1",
					"requireCanEdit(Deal)": "4a550ce0"
				}
			},
			"storageLayout": {
				"storage": [],
				"types": null
			},
			"userdoc": {
				"kind": "user",
				"methods": {},
				"version": 1
			}
		}
	}
}