{
	"Extensions/DealReport/DealReport.sol": {
		"DealReview": {
			"abi": [
				{
					"inputs": [
						{
							"internalType": "address",
							"name": "_dealContractAddress",
							"type": "address"
						}
					],
					"stateMutability": "nonpayable",
					"type": "constructor"
				},
				{
					"anonymous": false,
					"inputs": [
						{
							"indexed": true,
							"internalType": "address",
							"name": "from",
							"type": "address"
						},
						{
							"indexed": true,
							"internalType": "address",
							"name": "to",
							"type": "address"
						},
						{
							"indexed": true,
							"internalType": "bytes32",
							"name": "dealId",
							"type": "bytes32"
						},
						{
							"indexed": false,
							"internalType": "string",
							"name": "comment",
							"type": "string"
						},
						{
							"indexed": false,
							"internalType": "address",
							"name": "initiatior",
							"type": "address"
						},
						{
							"indexed": false,
							"internalType": "address",
							"name": "counterparty",
							"type": "address"
						},
						{
							"indexed": false,
							"internalType": "address",
							"name": "mediator",
							"type": "address"
						}
					],
					"name": "ReviewGiven",
					"type": "event"
				},
				{
					"inputs": [],
					"name": "dealContract",
					"outputs": [
						{
							"internalType": "contract DealCreationManager",
							"name": "",
							"type": "address"
						}
					],
					"stateMutability": "view",
					"type": "function"
				},
				{
					"inputs": [],
					"name": "dealContractAddress",
					"outputs": [
						{
							"internalType": "address",
							"name": "",
							"type": "address"
						}
					],
					"stateMutability": "view",
					"type": "function"
				},
				{
					"inputs": [
						{
							"internalType": "bytes32",
							"name": "dealId",
							"type": "bytes32"
						},
						{
							"internalType": "address",
							"name": "_to",
							"type": "address"
						},
						{
							"internalType": "string",
							"name": "_comment",
							"type": "string"
						}
					],
					"name": "leaveReview",
					"outputs": [],
					"stateMutability": "nonpayable",
					"type": "function"
				},
				{
					"inputs": [
						{
							"internalType": "bytes32",
							"name": "",
							"type": "bytes32"
						},
						{
							"internalType": "address",
							"name": "",
							"type": "address"
						},
						{
							"internalType": "address",
							"name": "",
							"type": "address"
						}
					],
					"name": "reviews",
					"outputs": [
						{
							"internalType": "string",
							"name": "",
							"type": "string"
						}
					],
					"stateMutability": "view",
					"type": "function"
				}
			],
			"devdoc": {
				"kind": "dev",
				"methods": {},
				"version": 1
			},
			"evm": {
				"assembly": "    /* \"Extensions/DealReport/DealReport.sol\":149:2027  contract DealReview {... */\n  0x80\n  jumpi(tag_7, callvalue)\n  0x1f\n  bytecodeSize\n  codesize\n  dup2\n  swap1\n  sub\n  swap2\n  dup3\n  add\n  not(0x1f)\n  and\n  dup4\n  add\n  swap2\n  sub(shl(0x40, 0x01), 0x01)\n  dup4\n  gt\n  dup5\n  dup5\n  lt\n  or\n  tag_3\n  jumpi\n  dup1\n  dup5\n  swap3\n  0x20\n  swap5\n  0x40\n  mstore\n  dup4\n  codecopy\n  dup2\n  add\n  sub\n  slt\n  tag_7\n  jumpi\n  mload\n  sub(shl(0xa0, 0x01), 0x01)\n  dup2\n  and\n  swap1\n  dup2\n  swap1\n  sub\n  tag_7\n  jumpi\n  0x01\n  dup1\n  sload\n  not(sub(shl(0xa0, 0x01), 0x01))\n  swap1\n  dup2\n  and\n  dup4\n  or\n  swap1\n  swap2\n  sstore\n    /* \"Extensions/DealReport/DealReport.sol\":1061:1103  dealContractAddress = _dealContractAddress */\n  0x02\n    /* \"Extensions/DealReport/DealReport.sol\":149:2027  contract DealReview {... */\n  dup1\n  sload\n  swap1\n  swap2\n  and\n  swap1\n  swap2\n  or\n  swap1\n  sstore\n  mload(0x40)\n  dataSize(sub_0)\n  swap1\n  dup2\n  dataOffset(sub_0)\n  dup3\n  codecopy\n  return\ntag_7:\n  0x00\n  dup1\n  revert\ntag_3:\n  mstore(0x00, shl(0xe0, 0x4e487b71))\n  mstore(0x04, 0x41)\n  revert(0x00, 0x24)\nstop\n\nsub_0: assembly {\n        /* \"Extensions/DealReport/DealReport.sol\":149:2027  contract DealReview {... */\n      0x80\n      dup1\n      0x40\n      mstore\n      jumpi(tag_8, iszero(lt(calldatasize, 0x04)))\n      0x00\n      dup1\n      revert\n    tag_8:\n      shr(0xe0, calldataload(0x00))\n      swap1\n      dup2\n      0x7e455213\n      eq\n      tag_10\n      jumpi\n      pop\n      dup1\n      0x83c784ca\n      eq\n      tag_12\n      jumpi\n      dup1\n      0xc99f3c53\n      eq\n      tag_14\n      jumpi\n      0xfa15a890\n      eq\n      tag_16\n      jumpi\n      0x00\n      dup1\n      revert\n    tag_16:\n      jumpi(tag_93, callvalue)\n      jumpi(tag_93, slt(add(not(0x03), calldatasize), 0x60))\n      calldataload(0x04)\n      tag_22\n      tag_1\n      jump\t// in\n    tag_22:\n      swap1\n      calldataload(0x44)\n      swap1\n      0xffffffffffffffff\n      dup3\n      gt\n      tag_93\n      jumpi\n      calldatasize\n      0x23\n      dup4\n      add\n      slt\n      iszero\n      tag_93\n      jumpi\n      dup2\n      0x04\n      add\n      calldataload\n      swap3\n      0xffffffffffffffff\n      dup5\n      gt\n      tag_57\n      jumpi\n      mload(0x40)\n      swap4\n      tag_29\n      0x1f\n      dup3\n      add\n      not(0x1f)\n      and\n      0x20\n      add\n      dup7\n      tag_3\n      jump\t// in\n    tag_29:\n      dup1\n      dup6\n      mstore\n      calldatasize\n      0x24\n      dup3\n      dup7\n      add\n      add\n      gt\n      tag_93\n      jumpi\n      0x20\n      dup2\n      0x00\n      swap3\n      0x24\n      dup1\n      swap8\n      add\n      dup4\n      dup10\n      add\n      calldatacopy\n      dup7\n      add\n      add\n      mstore\n      sload(0x01)\n      mload(0x40)\n      shl(0xe0, 0x51a6fad5)\n        /* \"Extensions/DealReport/DealReport.sol\":1419:1447  dealContract.getDeal(dealId) */\n      dup2\n      mstore\n        /* \"Extensions/DealReport/DealReport.sol\":149:2027  contract DealReview {... */\n      0x04\n        /* \"Extensions/DealReport/DealReport.sol\":1419:1447  dealContract.getDeal(dealId) */\n      dup2\n      add\n        /* \"Extensions/DealReport/DealReport.sol\":149:2027  contract DealReview {... */\n      dup5\n      swap1\n      mstore\n      swap4\n        /* \"Extensions/DealReport/DealReport.sol\":1419:1447  dealContract.getDeal(dealId) */\n      0x0220\n      swap2\n        /* \"Extensions/DealReport/DealReport.sol\":149:2027  contract DealReview {... */\n      dup6\n      swap2\n      swap1\n      dup3\n      swap1\n      sub(shl(0xa0, 0x01), 0x01)\n      and\n        /* \"Extensions/DealReport/DealReport.sol\":1419:1447  dealContract.getDeal(dealId) */\n      gas\n      staticcall\n      swap3\n      dup4\n      iszero\n      tag_32\n      jumpi\n        /* \"Extensions/DealReport/DealReport.sol\":149:2027  contract DealReview {... */\n      0x00\n        /* \"Extensions/DealReport/DealReport.sol\":1419:1447  dealContract.getDeal(dealId) */\n      swap4\n      tag_34\n      jumpi\n        /* \"Extensions/DealReport/DealReport.sol\":149:2027  contract DealReview {... */\n    tag_35:\n        /* \"Extensions/DealReport/DealReport.sol\":1468:1484  deal.isCompleted */\n      pop\n        /* \"Extensions/DealReport/DealReport.sol\":149:2027  contract DealReview {... */\n      0x60\n        /* \"Extensions/DealReport/DealReport.sol\":1468:1484  deal.isCompleted */\n      dup4\n      add\n        /* \"Extensions/DealReport/DealReport.sol\":149:2027  contract DealReview {... */\n      mload\n      iszero\n      dup1\n      iszero\n        /* \"Extensions/DealReport/DealReport.sol\":1468:1503  deal.isCompleted || deal.isCanceled */\n      swap1\n      tag_36\n      jumpi\n        /* \"Extensions/DealReport/DealReport.sol\":149:2027  contract DealReview {... */\n    tag_37:\n      iszero\n      tag_38\n      jumpi\n        /* \"Extensions/DealReport/DealReport.sol\":1531:1572  require(bytes(_comment).length > 0, \"C1\") */\n      tag_40\n        /* \"Extensions/DealReport/DealReport.sol\":149:2027  contract DealReview {... */\n      dup5\n      mload\n        /* \"Extensions/DealReport/DealReport.sol\":1539:1565  bytes(_comment).length > 0 */\n      iszero\n      iszero\n        /* \"Extensions/DealReport/DealReport.sol\":1531:1572  require(bytes(_comment).length > 0, \"C1\") */\n      tag_6\n      jump\t// in\n    tag_40:\n      sub(shl(0xa0, 0x01), 0x01)\n        /* \"Extensions/DealReport/DealReport.sol\":149:2027  contract DealReview {... */\n      and\n      swap2\n        /* \"Extensions/DealReport/DealReport.sol\":1583:1615  require(_to != address(0), \"C1\") */\n      tag_41\n        /* \"Extensions/DealReport/DealReport.sol\":1591:1608  _to != address(0) */\n      dup4\n      iszero\n      iszero\n        /* \"Extensions/DealReport/DealReport.sol\":1583:1615  require(_to != address(0), \"C1\") */\n      tag_6\n      jump\t// in\n    tag_41:\n        /* \"Extensions/DealReport/DealReport.sol\":1626:1658  require(_to != msg.sender, \"C3\") */\n      tag_42\n        /* \"Extensions/DealReport/DealReport.sol\":1641:1651  msg.sender */\n      caller\n        /* \"Extensions/DealReport/DealReport.sol\":1634:1651  _to != msg.sender */\n      dup5\n      eq\n      iszero\n        /* \"Extensions/DealReport/DealReport.sol\":1626:1658  require(_to != msg.sender, \"C3\") */\n      tag_7\n      jump\t// in\n    tag_42:\n        /* \"Extensions/DealReport/DealReport.sol\":149:2027  contract DealReview {... */\n      0x20\n        /* \"Extensions/DealReport/DealReport.sol\":1679:1696  deal.counterparty */\n      dup2\n      add\n        /* \"Extensions/DealReport/DealReport.sol\":149:2027  contract DealReview {... */\n      dup1\n      mload\n      sub(shl(0xa0, 0x01), 0x01)\n      and\n        /* \"Extensions/DealReport/DealReport.sol\":1641:1651  msg.sender */\n      caller\n        /* \"Extensions/DealReport/DealReport.sol\":1679:1710  deal.counterparty == msg.sender */\n      eq\n        /* \"Extensions/DealReport/DealReport.sol\":1679:1742  deal.counterparty == msg.sender || deal.initiator == msg.sender */\n      dup1\n      iszero\n      tag_43\n      jumpi\n        /* \"Extensions/DealReport/DealReport.sol\":149:2027  contract DealReview {... */\n    tag_44:\n        /* \"Extensions/DealReport/DealReport.sol\":1679:1773  deal.counterparty == msg.sender || deal.initiator == msg.sender || deal.mediator == msg.sender */\n      dup1\n      iszero\n      tag_45\n      jumpi\n        /* \"Extensions/DealReport/DealReport.sol\":149:2027  contract DealReview {... */\n    tag_46:\n      iszero\n      tag_47\n      jumpi\n      mload\n      sub(shl(0xa0, 0x01), 0x01)\n      and\n        /* \"Extensions/DealReport/DealReport.sol\":1799:1823  deal.counterparty == _to */\n      dup4\n      eq\n      swap1\n        /* \"Extensions/DealReport/DealReport.sol\":149:2027  contract DealReview {... */\n      dup4\n      swap1\n        /* \"Extensions/DealReport/DealReport.sol\":1799:1848  deal.counterparty == _to || deal.initiator == _to */\n      dup3\n      iszero\n      tag_49\n      jumpi\n        /* \"Extensions/DealReport/DealReport.sol\":149:2027  contract DealReview {... */\n    tag_50:\n        /* \"Extensions/DealReport/DealReport.sol\":1799:1872  deal.counterparty == _to || deal.initiator == _to || deal.mediator == _to */\n      dup3\n      iszero\n      tag_51\n      jumpi\n        /* \"Extensions/DealReport/DealReport.sol\":149:2027  contract DealReview {... */\n    tag_52:\n      pop\n      pop\n      iszero\n      tag_53\n      jumpi\n      0x00\n      dup2\n      dup2\n      mstore\n      0x20\n      dup2\n      dup2\n      mstore\n      0x40\n      dup1\n      dup4\n      keccak256\n        /* \"Extensions/DealReport/DealReport.sol\":1641:1651  msg.sender */\n      caller\n        /* \"Extensions/DealReport/DealReport.sol\":149:2027  contract DealReview {... */\n      dup5\n      mstore\n      dup3\n      mstore\n      dup1\n      dup4\n      keccak256\n      dup6\n      dup5\n      mstore\n      swap1\n      swap2\n      mstore\n      swap1\n      keccak256\n      sload\n        /* \"Extensions/DealReport/DealReport.sol\":1894:1960  require(bytes(reviews[dealId][msg.sender][_to]).length == 0, \"C3\") */\n      tag_55\n      swap1\n        /* \"Extensions/DealReport/DealReport.sol\":149:2027  contract DealReview {... */\n      tag_56\n      swap1\n      tag_2\n      jump\t// in\n    tag_56:\n        /* \"Extensions/DealReport/DealReport.sol\":1902:1953  bytes(reviews[dealId][msg.sender][_to]).length == 0 */\n      iszero\n        /* \"Extensions/DealReport/DealReport.sol\":1894:1960  require(bytes(reviews[dealId][msg.sender][_to]).length == 0, \"C3\") */\n      tag_7\n      jump\t// in\n    tag_55:\n        /* \"Extensions/DealReport/DealReport.sol\":149:2027  contract DealReview {... */\n      0x00\n      swap1\n      dup2\n      mstore\n      0x20\n      dup2\n      dup2\n      mstore\n      0x40\n      dup1\n      dup4\n      keccak256\n        /* \"Extensions/DealReport/DealReport.sol\":1641:1651  msg.sender */\n      caller\n        /* \"Extensions/DealReport/DealReport.sol\":149:2027  contract DealReview {... */\n      dup5\n      mstore\n      dup3\n      mstore\n      dup1\n      dup4\n      keccak256\n      swap4\n      dup4\n      mstore\n      swap3\n      swap1\n      mstore\n      keccak256\n      dup2\n      mload\n      0xffffffffffffffff\n      dup2\n      gt\n      tag_57\n      jumpi\n      tag_59\n      dup3\n      sload\n      tag_2\n      jump\t// in\n    tag_59:\n      0x1f\n      dup2\n      gt\n      tag_60\n      jumpi\n    tag_61:\n      pop\n      0x20\n      swap3\n      0x1f\n      dup3\n      gt\n      0x01\n      eq\n      tag_62\n      jumpi\n      swap3\n      dup2\n      swap3\n      swap4\n      0x00\n      swap3\n      tag_64\n      jumpi\n    tag_65:\n      pop\n      pop\n      not(0x00)\n      0x03\n      dup4\n      swap1\n      shl\n      shr\n      not\n      and\n      0x01\n      swap2\n      swap1\n      swap2\n      shl\n      or\n      swap1\n      sstore\n      stop\n    tag_64:\n      add\n      mload\n      swap1\n      pop\n      0x00\n      dup1\n      jump(tag_65)\n    tag_62:\n      not(0x1f)\n      dup3\n      and\n      swap4\n      dup4\n      0x00\n      mstore\n      dup1\n      0x00\n      keccak256\n      swap2\n      0x00\n    tag_67:\n      dup7\n      dup2\n      lt\n      tag_68\n      jumpi\n      pop\n      dup4\n      0x01\n      swap6\n      swap7\n      lt\n      tag_70\n      jumpi\n    tag_71:\n      pop\n      pop\n      pop\n      dup2\n      shl\n      add\n      swap1\n      sstore\n      stop\n    tag_70:\n      add\n      mload\n      not(0x00)\n      0xf8\n      dup5\n      0x03\n      shl\n      and\n      shr\n      not\n      and\n      swap1\n      sstore\n      0x00\n      dup1\n      dup1\n      jump(tag_71)\n    tag_68:\n      swap2\n      swap3\n      0x20\n      0x01\n      dup2\n      swap3\n      dup7\n      dup6\n      add\n      mload\n      dup2\n      sstore\n      add\n      swap5\n      add\n      swap3\n      add\n      jump(tag_67)\n    tag_60:\n      dup3\n      0x00\n      mstore\n      keccak256(0x00, 0x20)\n      0x1f\n      dup4\n      add\n      0x05\n      shr\n      dup2\n      add\n      swap2\n      0x20\n      dup5\n      lt\n      tag_72\n      jumpi\n    tag_73:\n      0x1f\n      add\n      0x05\n      shr\n      add\n      swap1\n    tag_74:\n      dup2\n      dup2\n      lt\n      tag_75\n      jumpi\n      pop\n      jump(tag_61)\n    tag_75:\n      0x00\n      dup2\n      sstore\n      0x01\n      add\n      jump(tag_74)\n    tag_72:\n      swap1\n      swap2\n      pop\n      dup2\n      swap1\n      jump(tag_73)\n    tag_57:\n      mstore(0x00, shl(0xe0, 0x4e487b71))\n      mstore(0x04, 0x41)\n      revert(0x00, 0x24)\n    tag_53:\n      0x64\n      mload(0x40)\n      shl(0xe5, 0x461bcd)\n      dup2\n      mstore\n      0x20\n      0x04\n      dup3\n      add\n      mstore\n      0x04\n      0x24\n      dup3\n      add\n      mstore\n      shl(0xe0, 0x44352e31)\n      0x44\n      dup3\n      add\n      mstore\n      revert\n        /* \"Extensions/DealReport/DealReport.sol\":1799:1872  deal.counterparty == _to || deal.initiator == _to || deal.mediator == _to */\n    tag_51:\n        /* \"Extensions/DealReport/DealReport.sol\":149:2027  contract DealReview {... */\n      0x40\n        /* \"Extensions/DealReport/DealReport.sol\":1852:1865  deal.mediator */\n      add\n        /* \"Extensions/DealReport/DealReport.sol\":149:2027  contract DealReview {... */\n      mload\n      sub(shl(0xa0, 0x01), 0x01)\n      and\n        /* \"Extensions/DealReport/DealReport.sol\":1852:1872  deal.mediator == _to */\n      eq\n      swap1\n      pop\n        /* \"Extensions/DealReport/DealReport.sol\":1799:1872  deal.counterparty == _to || deal.initiator == _to || deal.mediator == _to */\n      dup3\n      0x00\n      jump(tag_52)\n        /* \"Extensions/DealReport/DealReport.sol\":1799:1848  deal.counterparty == _to || deal.initiator == _to */\n    tag_49:\n        /* \"Extensions/DealReport/DealReport.sol\":149:2027  contract DealReview {... */\n      dup1\n      mload\n      sub(shl(0xa0, 0x01), 0x01)\n      and\n        /* \"Extensions/DealReport/DealReport.sol\":1827:1848  deal.initiator == _to */\n      dup3\n      eq\n      swap3\n      pop\n        /* \"Extensions/DealReport/DealReport.sol\":1799:1848  deal.counterparty == _to || deal.initiator == _to */\n      jump(tag_50)\n        /* \"Extensions/DealReport/DealReport.sol\":149:2027  contract DealReview {... */\n    tag_47:\n      mload(0x40)\n      shl(0xe5, 0x461bcd)\n      dup2\n      mstore\n      0x20\n      0x04\n      dup3\n      add\n      mstore\n      0x02\n      0x24\n      dup3\n      add\n      mstore\n      shl(0xf0, 0x4435)\n      0x44\n      dup3\n      add\n      mstore\n      0x64\n      swap1\n      revert\n        /* \"Extensions/DealReport/DealReport.sol\":1679:1773  deal.counterparty == msg.sender || deal.initiator == msg.sender || deal.mediator == msg.sender */\n    tag_45:\n      pop\n        /* \"Extensions/DealReport/DealReport.sol\":149:2027  contract DealReview {... */\n      0x40\n        /* \"Extensions/DealReport/DealReport.sol\":1746:1759  deal.mediator */\n      dup3\n      add\n        /* \"Extensions/DealReport/DealReport.sol\":149:2027  contract DealReview {... */\n      mload\n      sub(shl(0xa0, 0x01), 0x01)\n      and\n        /* \"Extensions/DealReport/DealReport.sol\":1641:1651  msg.sender */\n      caller\n        /* \"Extensions/DealReport/DealReport.sol\":1746:1773  deal.mediator == msg.sender */\n      eq\n        /* \"Extensions/DealReport/DealReport.sol\":1679:1773  deal.counterparty == msg.sender || deal.initiator == msg.sender || deal.mediator == msg.sender */\n      jump(tag_46)\n        /* \"Extensions/DealReport/DealReport.sol\":1679:1742  deal.counterparty == msg.sender || deal.initiator == msg.sender */\n    tag_43:\n      pop\n        /* \"Extensions/DealReport/DealReport.sol\":149:2027  contract DealReview {... */\n      dup2\n      mload\n      sub(shl(0xa0, 0x01), 0x01)\n      and\n        /* \"Extensions/DealReport/DealReport.sol\":1641:1651  msg.sender */\n      caller\n        /* \"Extensions/DealReport/DealReport.sol\":1714:1742  deal.initiator == msg.sender */\n      eq\n        /* \"Extensions/DealReport/DealReport.sol\":1679:1742  deal.counterparty == msg.sender || deal.initiator == msg.sender */\n      jump(tag_44)\n        /* \"Extensions/DealReport/DealReport.sol\":149:2027  contract DealReview {... */\n    tag_38:\n      mload(0x40)\n      shl(0xe5, 0x461bcd)\n      dup2\n      mstore\n      0x20\n      0x04\n      dup3\n      add\n      mstore\n      0x02\n      0x24\n      dup3\n      add\n      mstore\n      shl(0xf2, 0x110d)\n      0x44\n      dup3\n      add\n      mstore\n      0x64\n      swap1\n      revert\n        /* \"Extensions/DealReport/DealReport.sol\":1468:1503  deal.isCompleted || deal.isCanceled */\n    tag_36:\n        /* \"Extensions/DealReport/DealReport.sol\":1488:1503  deal.isCanceled */\n      pop\n      0x80\n      dup4\n      add\n        /* \"Extensions/DealReport/DealReport.sol\":149:2027  contract DealReview {... */\n      mload\n      iszero\n      iszero\n        /* \"Extensions/DealReport/DealReport.sol\":1468:1503  deal.isCompleted || deal.isCanceled */\n      jump(tag_37)\n        /* \"Extensions/DealReport/DealReport.sol\":1419:1447  dealContract.getDeal(dealId) */\n    tag_34:\n      swap1\n      swap3\n      pop\n      0x0220\n      dup2\n      returndatasize\n      dup3\n      gt\n      tag_77\n      jumpi\n    tag_78:\n      dup2\n      tag_79\n      0x0220\n      swap4\n      dup4\n      tag_3\n      jump\t// in\n    tag_79:\n      dup2\n      add\n        /* \"Extensions/DealReport/DealReport.sol\":149:2027  contract DealReview {... */\n      sub\n      slt\n      tag_93\n      jumpi\n      mload(0x40)\n      swap1\n        /* \"Extensions/DealReport/DealReport.sol\":1419:1447  dealContract.getDeal(dealId) */\n      0x0220\n        /* \"Extensions/DealReport/DealReport.sol\":149:2027  contract DealReview {... */\n      dup3\n      add\n      swap1\n      dup3\n      dup3\n      lt\n      0xffffffffffffffff\n      dup4\n      gt\n      or\n      tag_57\n      jumpi\n      0x0200\n      swap2\n      0x40\n      mstore\n      tag_84\n      dup2\n      tag_4\n      jump\t// in\n    tag_84:\n      dup4\n      mstore\n      tag_85\n      0x20\n      dup3\n      add\n      tag_4\n      jump\t// in\n    tag_85:\n      0x20\n      dup5\n      add\n      mstore\n      tag_86\n      0x40\n      dup3\n      add\n      tag_4\n      jump\t// in\n    tag_86:\n      0x40\n      dup5\n      add\n      mstore\n      tag_87\n      0x60\n      dup3\n      add\n      tag_5\n      jump\t// in\n    tag_87:\n      0x60\n      dup5\n      add\n      mstore\n      tag_88\n      0x80\n      dup3\n      add\n      tag_5\n      jump\t// in\n    tag_88:\n      0x80\n      dup5\n      add\n      mstore\n      tag_89\n      0xa0\n      dup3\n      add\n      tag_5\n      jump\t// in\n    tag_89:\n      0xa0\n      dup5\n      add\n      mstore\n      tag_90\n      0xc0\n      dup3\n      add\n      tag_5\n      jump\t// in\n    tag_90:\n      0xc0\n      dup5\n      add\n      mstore\n      0xe0\n      dup2\n      add\n      mload\n      0xe0\n      dup5\n      add\n      mstore\n      0x0100\n      dup2\n      add\n      mload\n      0x0100\n      dup5\n      add\n      mstore\n      0x0120\n      dup2\n      add\n      mload\n      0x0120\n      dup5\n      add\n      mstore\n      0x0140\n      dup2\n      add\n      mload\n      0x0140\n      dup5\n      add\n      mstore\n      0x0160\n      dup2\n      add\n      mload\n      0x0160\n      dup5\n      add\n      mstore\n      0x0180\n      dup2\n      add\n      mload\n      0x0180\n      dup5\n      add\n      mstore\n      tag_91\n      0x01a0\n      dup3\n      add\n      tag_4\n      jump\t// in\n    tag_91:\n      0x01a0\n      dup5\n      add\n      mstore\n      tag_92\n      0x01c0\n      dup3\n      add\n      tag_4\n      jump\t// in\n    tag_92:\n      0x01c0\n      dup5\n      add\n      mstore\n      0x01e0\n      dup2\n      add\n      mload\n      0x01e0\n      dup5\n      add\n      mstore\n      add\n      mload\n      0x06\n      dup2\n      lt\n      iszero\n      tag_93\n      jumpi\n      0x0200\n      dup3\n      add\n      mstore\n        /* \"Extensions/DealReport/DealReport.sol\":1419:1447  dealContract.getDeal(dealId) */\n      swap2\n      0x00\n      jump(tag_35)\n        /* \"Extensions/DealReport/DealReport.sol\":149:2027  contract DealReview {... */\n    tag_93:\n      0x00\n      dup1\n      revert\n        /* \"Extensions/DealReport/DealReport.sol\":1419:1447  dealContract.getDeal(dealId) */\n    tag_77:\n      returndatasize\n      swap2\n      pop\n      jump(tag_78)\n    tag_32:\n        /* \"Extensions/DealReport/DealReport.sol\":149:2027  contract DealReview {... */\n      mload(0x40)\n      returndatasize\n      0x00\n      dup3\n      returndatacopy\n      returndatasize\n      swap1\n      revert\n    tag_14:\n      jumpi(tag_93, callvalue)\n      jumpi(tag_93, slt(add(not(0x03), calldatasize), 0x60))\n      tag_99\n      tag_1\n      jump\t// in\n    tag_99:\n      calldataload(0x44)\n      swap1\n      sub(shl(0xa0, 0x01), 0x01)\n      dup3\n      and\n      dup3\n      sub\n      tag_93\n      jumpi\n      mstore(0x00, calldataload(0x04))\n      mstore(0x20, 0x00)\n      keccak256(0x00, 0x40)\n        /* \"Extensions/DealReport/DealReport.sol\":618:699  mapping(bytes32 => mapping(address => mapping(address => string))) public reviews */\n      swap1\n        /* \"Extensions/DealReport/DealReport.sol\":149:2027  contract DealReview {... */\n      0x01\n      dup1\n      0xa0\n      shl\n      sub\n      and\n      0x00\n      mstore\n      0x20\n      mstore\n      keccak256(0x00, 0x40)\n        /* \"Extensions/DealReport/DealReport.sol\":618:699  mapping(bytes32 => mapping(address => mapping(address => string))) public reviews */\n      swap1\n        /* \"Extensions/DealReport/DealReport.sol\":149:2027  contract DealReview {... */\n      0x01\n      dup1\n      0xa0\n      shl\n      sub\n      and\n      0x00\n      mstore\n      0x20\n      mstore\n      keccak256(0x00, 0x40)\n      mload(0x40)\n      0x00\n      dup3\n      sload\n      swap3\n      tag_102\n      dup5\n      tag_2\n      jump\t// in\n    tag_102:\n      swap1\n      dup2\n      dup5\n      mstore\n      0x20\n      dup5\n      add\n      swap5\n      0x01\n      dup2\n      and\n      swap1\n      dup2\n      0x00\n      eq\n      tag_103\n      jumpi\n      pop\n      0x01\n      eq\n      tag_105\n      jumpi\n    tag_106:\n      dup5\n      0x40\n      dup6\n      tag_107\n      dup2\n      dup8\n      sub\n      dup3\n      tag_3\n      jump\t// in\n    tag_107:\n      dup2\n      mload\n      swap3\n      dup4\n      swap2\n      0x20\n      dup4\n      mstore\n      mload\n      dup1\n      swap2\n      dup2\n      0x20\n      dup6\n      add\n      mstore\n      dup5\n      dup5\n      add\n      mcopy\n      0x00\n      dup3\n      dup3\n      add\n      dup5\n      add\n      mstore\n      0x1f\n      add\n      not(0x1f)\n      and\n      dup2\n      add\n      sub\n      add\n      swap1\n      return\n    tag_105:\n      0x00\n      swap1\n      dup2\n      mstore\n      0x20\n      dup2\n      keccak256\n      swap4\n      swap3\n      pop\n      swap1\n    tag_108:\n      dup1\n      dup3\n      lt\n      tag_109\n      jumpi\n      pop\n      swap1\n      swap2\n      pop\n      dup2\n      add\n      0x20\n      add\n      tag_107\n      dup3\n      jump(tag_106)\n    tag_109:\n      swap2\n      swap3\n      0x01\n      dup2\n      0x20\n      swap3\n      sload\n      dup4\n      dup6\n      dup9\n      add\n      add\n      mstore\n      add\n      swap2\n      add\n      swap1\n      swap3\n      swap2\n      jump(tag_108)\n    tag_103:\n      not(0xff)\n      and\n      dup7\n      mstore\n      pop\n      pop\n      iszero\n      iszero\n      0x05\n      shl\n      dup3\n      add\n      0x20\n      add\n      swap1\n      pop\n      tag_107\n      dup3\n      jump(tag_106)\n    tag_12:\n      jumpi(tag_93, callvalue)\n      jumpi(tag_93, slt(add(not(0x03), calldatasize), 0x00))\n        /* \"Extensions/DealReport/DealReport.sol\":846:880  address public dealContractAddress */\n      0x02\n        /* \"Extensions/DealReport/DealReport.sol\":149:2027  contract DealReview {... */\n      sload\n      mload(0x40)\n      sub(shl(0xa0, 0x01), 0x01)\n      swap1\n      swap2\n      and\n      dup2\n      mstore\n      0x20\n      swap1\n      return\n    tag_10:\n      jumpi(tag_93, callvalue)\n      jumpi(tag_93, slt(add(not(0x03), calldatasize), 0x00))\n      and(sub(shl(0xa0, 0x01), 0x01), sload(0x01))\n      dup2\n      mstore\n      0x20\n      swap1\n      return\n    tag_1:\n      calldataload(0x24)\n      swap1\n      sub(shl(0xa0, 0x01), 0x01)\n      dup3\n      and\n      dup3\n      sub\n      tag_93\n      jumpi\n      jump\t// out\n    tag_2:\n      swap1\n      0x01\n      dup3\n      dup2\n      shr\n      swap3\n      and\n      dup1\n      iszero\n      tag_121\n      jumpi\n    tag_122:\n      0x20\n      dup4\n      lt\n      eq\n      tag_123\n      jumpi\n      jump\t// out\n    tag_123:\n      mstore(0x00, shl(0xe0, 0x4e487b71))\n      mstore(0x04, 0x22)\n      revert(0x00, 0x24)\n    tag_121:\n      swap2\n      0x7f\n      and\n      swap2\n      jump(tag_122)\n    tag_3:\n      swap1\n      0x1f\n      dup1\n      not\n      swap2\n      add\n      and\n      dup2\n      add\n      swap1\n      dup2\n      lt\n      0xffffffffffffffff\n      dup3\n      gt\n      or\n      tag_57\n      jumpi\n      0x40\n      mstore\n      jump\t// out\n    tag_4:\n      mload\n      swap1\n      sub(shl(0xa0, 0x01), 0x01)\n      dup3\n      and\n      dup3\n      sub\n      tag_93\n      jumpi\n      jump\t// out\n    tag_5:\n      mload\n      swap1\n      dup2\n      iszero\n      iszero\n      dup3\n      sub\n      tag_93\n      jumpi\n      jump\t// out\n    tag_6:\n      iszero\n      tag_131\n      jumpi\n      jump\t// out\n    tag_131:\n      mload(0x40)\n      shl(0xe5, 0x461bcd)\n      dup2\n      mstore\n      0x20\n      0x04\n      dup3\n      add\n      mstore\n      0x02\n      0x24\n      dup3\n      add\n      mstore\n      shl(0xf0, 0x4331)\n      0x44\n      dup3\n      add\n      mstore\n      0x64\n      swap1\n      revert\n    tag_7:\n      iszero\n      tag_133\n      jumpi\n      jump\t// out\n    tag_133:\n      mload(0x40)\n      shl(0xe5, 0x461bcd)\n      dup2\n      mstore\n      0x20\n      0x04\n      dup3\n      add\n      mstore\n      0x02\n      0x24\n      dup3\n      add\n      mstore\n      shl(0xf0, 0x4333)\n      0x44\n      dup3\n      add\n      mstore\n      0x64\n      swap1\n      revert\n\n    auxdata: 0xa264697066735822122083523cc19343c9bf0c2a429bb2b5289c1d6d63afbd275b4a24446b74c0d5e1ed64736f6c634300081a0033\n}\n",
				"bytecode": {
					"linkReferences": {},
					"object": "608034607d57601f61086738819003918201601f19168301916001600160401b03831184841017608157808492602094604052833981010312607d57516001600160a01b03811690819003607d57600180546001600160a01b031990811683179091556002805490911690911790556040516107d190816100968239f35b5f80fd5b634e487b7160e01b5f52604160045260245ffdfe6080806040526004361015610012575f80fd5b5f3560e01c9081637e455213146106855750806383c784ca1461065d578063c99f3c53146105395763fa15a89014610048575f80fd5b34610522576060366003190112610522576004356100646106a8565b906044359067ffffffffffffffff821161052257366023830112156105225781600401359267ffffffffffffffff84116102e457604051936100b0601f8201601f1916602001866106f6565b8085523660248286010111610522576020815f92602480970183890137860101526001546040516351a6fad560e01b815260048101849052936102209185919082906001600160a01b03165afa92831561052e575f936103d8575b506060830151158015906103cb575b156103a15761012b84511515610739565b6001600160a01b031691610140831515610739565b61014c3384141561076a565b6020810180516001600160a01b03163314801561038e575b8015610378575b1561034e57516001600160a01b03168314908390821561033a575b8215610323575b5050156102f8575f8181526020818152604080832033845282528083208584529091529020546101c6906101c0906106be565b1561076a565b5f90815260208181526040808320338452825280832093835292905220815167ffffffffffffffff81116102e4576101fe82546106be565b601f811161029f575b50602092601f821160011461024357928192935f92610238575b50505f19600383901b1c191660019190911b179055005b015190505f80610221565b601f19821693835f52805f20915f5b868110610287575083600195961061026f575b505050811b019055005b01515f1960f88460031b161c191690555f8080610265565b91926020600181928685015181550194019201610252565b825f5260205f20601f830160051c810191602084106102da575b601f0160051c01905b8181106102cf5750610207565b5f81556001016102c2565b90915081906102b9565b634e487b7160e01b5f52604160045260245ffd5b606460405162461bcd60e51b815260206004820152600460248201526344352e3160e01b6044820152fd5b604001516001600160a01b0316149050825f61018d565b80516001600160a01b031682149250610186565b60405162461bcd60e51b8152602060048201526002602482015261443560f01b6044820152606490fd5b5060408201516001600160a01b0316331461016b565b5081516001600160a01b03163314610164565b60405162461bcd60e51b8152602060048201526002602482015261110d60f21b6044820152606490fd5b506080830151151561011a565b909250610220813d8211610526575b816103f561022093836106f6565b81010312610522576040519061022082019082821067ffffffffffffffff8311176102e4576102009160405261042a81610718565b835261043860208201610718565b602084015261044960408201610718565b604084015261045a6060820161072c565b606084015261046b6080820161072c565b608084015261047c60a0820161072c565b60a084015261048d60c0820161072c565b60c084015260e081015160e08401526101008101516101008401526101208101516101208401526101408101516101408401526101608101516101608401526101808101516101808401526104e56101a08201610718565b6101a08401526104f86101c08201610718565b6101c08401526101e08101516101e08401520151600681101561052257610200820152915f61010b565b5f80fd5b3d91506103e7565b6040513d5f823e3d90fd5b34610522576060366003190112610522576105526106a8565b604435906001600160a01b0382168203610522576004355f525f60205260405f209060018060a01b03165f5260205260405f209060018060a01b03165f5260205260405f206040515f8254926105a7846106be565b9081845260208401946001811690815f146106405750600114610600575b846040856105d5818703826106f6565b8151928391602083525180918160208501528484015e5f828201840152601f01601f19168101030190f35b5f90815260208120939250905b808210610626575090915081016020016105d5826105c5565b91926001816020925483858801015201910190929161060d565b60ff191686525050151560051b820160200190506105d5826105c5565b34610522575f366003190112610522576002546040516001600160a01b039091168152602090f35b34610522575f366003190112610522576001546001600160a01b03168152602090f35b602435906001600160a01b038216820361052257565b90600182811c921680156106ec575b60208310146106d857565b634e487b7160e01b5f52602260045260245ffd5b91607f16916106cd565b90601f8019910116810190811067ffffffffffffffff8211176102e457604052565b51906001600160a01b038216820361052257565b5190811515820361052257565b1561074057565b60405162461bcd60e51b8152602060048201526002602482015261433160f01b6044820152606490fd5b1561077157565b60405162461bcd60e51b8152602060048201526002602482015261433360f01b6044820152606490fdfea264697066735822122083523cc19343c9bf0c2a429bb2b5289c1d6d63afbd275b4a24446b74c0d5e1ed64736f6c634300081a0033",
					"opcodes": "PUSH1 0x80 CALLVALUE PUSH1 0x7D JUMPI PUSH1 0x1F PUSH2 0x867 CODESIZE DUP2 SWAP1 SUB SWAP2 DUP3 ADD PUSH1 0x1F NOT AND DUP4 ADD SWAP2 PUSH1 0x1 PUSH1 0x1 PUSH1 0x40 SHL SUB DUP4 GT DUP5 DUP5 LT OR PUSH1 0x81 JUMPI DUP1 DUP5 SWAP3 PUSH1 0x20 SWAP5 PUSH1 0x40 MSTORE DUP4 CODECOPY DUP2 ADD SUB SLT PUSH1 0x7D JUMPI MLOAD PUSH1 0x1 PUSH1 0x1 PUSH1 0xA0 SHL SUB DUP2 AND SWAP1 DUP2 SWAP1 SUB PUSH1 0x7D JUMPI PUSH1 0x1 DUP1 SLOAD PUSH1 0x1 PUSH1 0x1 PUSH1 0xA0 SHL SUB NOT SWAP1 DUP2 AND DUP4 OR SWAP1 SWAP2 SSTORE PUSH1 0x2 DUP1 SLOAD SWAP1 SWAP2 AND SWAP1 SWAP2 OR SWAP1 SSTORE PUSH1 0x40 MLOAD PUSH2 0x7D1 SWAP1 DUP2 PUSH2 0x96 DUP3 CODECOPY RETURN JUMPDEST PUSH0 DUP1 REVERT JUMPDEST PUSH4 0x4E487B71 PUSH1 0xE0 SHL PUSH0 MSTORE PUSH1 0x41 PUSH1 0x4 MSTORE PUSH1 0x24 PUSH0 REVERT INVALID PUSH1 0x80 DUP1 PUSH1 0x40 MSTORE PUSH1 0x4 CALLDATASIZE LT ISZERO PUSH2 0x12 JUMPI PUSH0 DUP1 REVERT JUMPDEST PUSH0 CALLDATALOAD PUSH1 0xE0 SHR SWAP1 DUP2 PUSH4 0x7E455213 EQ PUSH2 0x685 JUMPI POP DUP1 PUSH4 0x83C784CA EQ PUSH2 0x65D JUMPI DUP1 PUSH4 0xC99F3C53 EQ PUSH2 0x539 JUMPI PUSH4 0xFA15A890 EQ PUSH2 0x48 JUMPI PUSH0 DUP1 REVERT JUMPDEST CALLVALUE PUSH2 0x522 JUMPI PUSH1 0x60 CALLDATASIZE PUSH1 0x3 NOT ADD SLT PUSH2 0x522 JUMPI PUSH1 0x4 CALLDATALOAD PUSH2 0x64 PUSH2 0x6A8 JUMP JUMPDEST SWAP1 PUSH1 0x44 CALLDATALOAD SWAP1 PUSH8 0xFFFFFFFFFFFFFFFF DUP3 GT PUSH2 0x522 JUMPI CALLDATASIZE PUSH1 0x23 DUP4 ADD SLT ISZERO PUSH2 0x522 JUMPI DUP2 PUSH1 0x4 ADD CALLDATALOAD SWAP3 PUSH8 0xFFFFFFFFFFFFFFFF DUP5 GT PUSH2 0x2E4 JUMPI PUSH1 0x40 MLOAD SWAP4 PUSH2 0xB0 PUSH1 0x1F DUP3 ADD PUSH1 0x1F NOT AND PUSH1 0x20 ADD DUP7 PUSH2 0x6F6 JUMP JUMPDEST DUP1 DUP6 MSTORE CALLDATASIZE PUSH1 0x24 DUP3 DUP7 ADD ADD GT PUSH2 0x522 JUMPI PUSH1 0x20 DUP2 PUSH0 SWAP3 PUSH1 0x24 DUP1 SWAP8 ADD DUP4 DUP10 ADD CALLDATACOPY DUP7 ADD ADD MSTORE PUSH1 0x1 SLOAD PUSH1 0x40 MLOAD PUSH4 0x51A6FAD5 PUSH1 0xE0 SHL DUP2 MSTORE PUSH1 0x4 DUP2 ADD DUP5 SWAP1 MSTORE SWAP4 PUSH2 0x220 SWAP2 DUP6 SWAP2 SWAP1 DUP3 SWAP1 PUSH1 0x1 PUSH1 0x1 PUSH1 0xA0 SHL SUB AND GAS STATICCALL SWAP3 DUP4 ISZERO PUSH2 0x52E JUMPI PUSH0 SWAP4 PUSH2 0x3D8 JUMPI JUMPDEST POP PUSH1 0x60 DUP4 ADD MLOAD ISZERO DUP1 ISZERO SWAP1 PUSH2 0x3CB JUMPI JUMPDEST ISZERO PUSH2 0x3A1 JUMPI PUSH2 0x12B DUP5 MLOAD ISZERO ISZERO PUSH2 0x739 JUMP JUMPDEST PUSH1 0x1 PUSH1 0x1 PUSH1 0xA0 SHL SUB AND SWAP2 PUSH2 0x140 DUP4 ISZERO ISZERO PUSH2 0x739 JUMP JUMPDEST PUSH2 0x14C CALLER DUP5 EQ ISZERO PUSH2 0x76A JUMP JUMPDEST PUSH1 0x20 DUP2 ADD DUP1 MLOAD PUSH1 0x1 PUSH1 0x1 PUSH1 0xA0 SHL SUB AND CALLER EQ DUP1 ISZERO PUSH2 0x38E JUMPI JUMPDEST DUP1 ISZERO PUSH2 0x378 JUMPI JUMPDEST ISZERO PUSH2 0x34E JUMPI MLOAD PUSH1 0x1 PUSH1 0x1 PUSH1 0xA0 SHL SUB AND DUP4 EQ SWAP1 DUP4 SWAP1 DUP3 ISZERO PUSH2 0x33A JUMPI JUMPDEST DUP3 ISZERO PUSH2 0x323 JUMPI JUMPDEST POP POP ISZERO PUSH2 0x2F8 JUMPI PUSH0 DUP2 DUP2 MSTORE PUSH1 0x20 DUP2 DUP2 MSTORE PUSH1 0x40 DUP1 DUP4 KECCAK256 CALLER DUP5 MSTORE DUP3 MSTORE DUP1 DUP4 KECCAK256 DUP6 DUP5 MSTORE SWAP1 SWAP2 MSTORE SWAP1 KECCAK256 SLOAD PUSH2 0x1C6 SWAP1 PUSH2 0x1C0 SWAP1 PUSH2 0x6BE JUMP JUMPDEST ISZERO PUSH2 0x76A JUMP JUMPDEST PUSH0 SWAP1 DUP2 MSTORE PUSH1 0x20 DUP2 DUP2 MSTORE PUSH1 0x40 DUP1 DUP4 KECCAK256 CALLER DUP5 MSTORE DUP3 MSTORE DUP1 DUP4 KECCAK256 SWAP4 DUP4 MSTORE SWAP3 SWAP1 MSTORE KECCAK256 DUP2 MLOAD PUSH8 0xFFFFFFFFFFFFFFFF DUP2 GT PUSH2 0x2E4 JUMPI PUSH2 0x1FE DUP3 SLOAD PUSH2 0x6BE JUMP JUMPDEST PUSH1 0x1F DUP2 GT PUSH2 0x29F JUMPI JUMPDEST POP PUSH1 0x20 SWAP3 PUSH1 0x1F DUP3 GT PUSH1 0x1 EQ PUSH2 0x243 JUMPI SWAP3 DUP2 SWAP3 SWAP4 PUSH0 SWAP3 PUSH2 0x238 JUMPI JUMPDEST POP POP PUSH0 NOT PUSH1 0x3 DUP4 SWAP1 SHL SHR NOT AND PUSH1 0x1 SWAP2 SWAP1 SWAP2 SHL OR SWAP1 SSTORE STOP JUMPDEST ADD MLOAD SWAP1 POP PUSH0 DUP1 PUSH2 0x221 JUMP JUMPDEST PUSH1 0x1F NOT DUP3 AND SWAP4 DUP4 PUSH0 MSTORE DUP1 PUSH0 KECCAK256 SWAP2 PUSH0 JUMPDEST DUP7 DUP2 LT PUSH2 0x287 JUMPI POP DUP4 PUSH1 0x1 SWAP6 SWAP7 LT PUSH2 0x26F JUMPI JUMPDEST POP POP POP DUP2 SHL ADD SWAP1 SSTORE STOP JUMPDEST ADD MLOAD PUSH0 NOT PUSH1 0xF8 DUP5 PUSH1 0x3 SHL AND SHR NOT AND SWAP1 SSTORE PUSH0 DUP1 DUP1 PUSH2 0x265 JUMP JUMPDEST SWAP2 SWAP3 PUSH1 0x20 PUSH1 0x1 DUP2 SWAP3 DUP7 DUP6 ADD MLOAD DUP2 SSTORE ADD SWAP5 ADD SWAP3 ADD PUSH2 0x252 JUMP JUMPDEST DUP3 PUSH0 MSTORE PUSH1 0x20 PUSH0 KECCAK256 PUSH1 0x1F DUP4 ADD PUSH1 0x5 SHR DUP2 ADD SWAP2 PUSH1 0x20 DUP5 LT PUSH2 0x2DA JUMPI JUMPDEST PUSH1 0x1F ADD PUSH1 0x5 SHR ADD SWAP1 JUMPDEST DUP2 DUP2 LT PUSH2 0x2CF JUMPI POP PUSH2 0x207 JUMP JUMPDEST PUSH0 DUP2 SSTORE PUSH1 0x1 ADD PUSH2 0x2C2 JUMP JUMPDEST SWAP1 SWAP2 POP DUP2 SWAP1 PUSH2 0x2B9 JUMP JUMPDEST PUSH4 0x4E487B71 PUSH1 0xE0 SHL PUSH0 MSTORE PUSH1 0x41 PUSH1 0x4 MSTORE PUSH1 0x24 PUSH0 REVERT JUMPDEST PUSH1 0x64 PUSH1 0x40 MLOAD PUSH3 0x461BCD PUSH1 0xE5 SHL DUP2 MSTORE PUSH1 0x20 PUSH1 0x4 DUP3 ADD MSTORE PUSH1 0x4 PUSH1 0x24 DUP3 ADD MSTORE PUSH4 0x44352E31 PUSH1 0xE0 SHL PUSH1 0x44 DUP3 ADD MSTORE REVERT JUMPDEST PUSH1 0x40 ADD MLOAD PUSH1 0x1 PUSH1 0x1 PUSH1 0xA0 SHL SUB AND EQ SWAP1 POP DUP3 PUSH0 PUSH2 0x18D JUMP JUMPDEST DUP1 MLOAD PUSH1 0x1 PUSH1 0x1 PUSH1 0xA0 SHL SUB AND DUP3 EQ SWAP3 POP PUSH2 0x186 JUMP JUMPDEST PUSH1 0x40 MLOAD PUSH3 0x461BCD PUSH1 0xE5 SHL DUP2 MSTORE PUSH1 0x20 PUSH1 0x4 DUP3 ADD MSTORE PUSH1 0x2 PUSH1 0x24 DUP3 ADD MSTORE PUSH2 0x4435 PUSH1 0xF0 SHL PUSH1 0x44 DUP3 ADD MSTORE PUSH1 0x64 SWAP1 REVERT JUMPDEST POP PUSH1 0x40 DUP3 ADD MLOAD PUSH1 0x1 PUSH1 0x1 PUSH1 0xA0 SHL SUB AND CALLER EQ PUSH2 0x16B JUMP JUMPDEST POP DUP2 MLOAD PUSH1 0x1 PUSH1 0x1 PUSH1 0xA0 SHL SUB AND CALLER EQ PUSH2 0x164 JUMP JUMPDEST PUSH1 0x40 MLOAD PUSH3 0x461BCD PUSH1 0xE5 SHL DUP2 MSTORE PUSH1 0x20 PUSH1 0x4 DUP3 ADD MSTORE PUSH1 0x2 PUSH1 0x24 DUP3 ADD MSTORE PUSH2 0x110D PUSH1 0xF2 SHL PUSH1 0x44 DUP3 ADD MSTORE PUSH1 0x64 SWAP1 REVERT JUMPDEST POP PUSH1 0x80 DUP4 ADD MLOAD ISZERO ISZERO PUSH2 0x11A JUMP JUMPDEST SWAP1 SWAP3 POP PUSH2 0x220 DUP2 RETURNDATASIZE DUP3 GT PUSH2 0x526 JUMPI JUMPDEST DUP2 PUSH2 0x3F5 PUSH2 0x220 SWAP4 DUP4 PUSH2 0x6F6 JUMP JUMPDEST DUP2 ADD SUB SLT PUSH2 0x522 JUMPI PUSH1 0x40 MLOAD SWAP1 PUSH2 0x220 DUP3 ADD SWAP1 DUP3 DUP3 LT PUSH8 0xFFFFFFFFFFFFFFFF DUP4 GT OR PUSH2 0x2E4 JUMPI PUSH2 0x200 SWAP2 PUSH1 0x40 MSTORE PUSH2 0x42A DUP2 PUSH2 0x718 JUMP JUMPDEST DUP4 MSTORE PUSH2 0x438 PUSH1 0x20 DUP3 ADD PUSH2 0x718 JUMP JUMPDEST PUSH1 0x20 DUP5 ADD MSTORE PUSH2 0x449 PUSH1 0x40 DUP3 ADD PUSH2 0x718 JUMP JUMPDEST PUSH1 0x40 DUP5 ADD MSTORE PUSH2 0x45A PUSH1 0x60 DUP3 ADD PUSH2 0x72C JUMP JUMPDEST PUSH1 0x60 DUP5 ADD MSTORE PUSH2 0x46B PUSH1 0x80 DUP3 ADD PUSH2 0x72C JUMP JUMPDEST PUSH1 0x80 DUP5 ADD MSTORE PUSH2 0x47C PUSH1 0xA0 DUP3 ADD PUSH2 0x72C JUMP JUMPDEST PUSH1 0xA0 DUP5 ADD MSTORE PUSH2 0x48D PUSH1 0xC0 DUP3 ADD PUSH2 0x72C JUMP JUMPDEST PUSH1 0xC0 DUP5 ADD MSTORE PUSH1 0xE0 DUP2 ADD MLOAD PUSH1 0xE0 DUP5 ADD MSTORE PUSH2 0x100 DUP2 ADD MLOAD PUSH2 0x100 DUP5 ADD MSTORE PUSH2 0x120 DUP2 ADD MLOAD PUSH2 0x120 DUP5 ADD MSTORE PUSH2 0x140 DUP2 ADD MLOAD PUSH2 0x140 DUP5 ADD MSTORE PUSH2 0x160 DUP2 ADD MLOAD PUSH2 0x160 DUP5 ADD MSTORE PUSH2 0x180 DUP2 ADD MLOAD PUSH2 0x180 DUP5 ADD MSTORE PUSH2 0x4E5 PUSH2 0x1A0 DUP3 ADD PUSH2 0x718 JUMP JUMPDEST PUSH2 0x1A0 DUP5 ADD MSTORE PUSH2 0x4F8 PUSH2 0x1C0 DUP3 ADD PUSH2 0x718 JUMP JUMPDEST PUSH2 0x1C0 DUP5 ADD MSTORE PUSH2 0x1E0 DUP2 ADD MLOAD PUSH2 0x1E0 DUP5 ADD MSTORE ADD MLOAD PUSH1 0x6 DUP2 LT ISZERO PUSH2 0x522 JUMPI PUSH2 0x200 DUP3 ADD MSTORE SWAP2 PUSH0 PUSH2 0x10B JUMP JUMPDEST PUSH0 DUP1 REVERT JUMPDEST RETURNDATASIZE SWAP2 POP PUSH2 0x3E7 JUMP JUMPDEST PUSH1 0x40 MLOAD RETURNDATASIZE PUSH0 DUP3 RETURNDATACOPY RETURNDATASIZE SWAP1 REVERT JUMPDEST CALLVALUE PUSH2 0x522 JUMPI PUSH1 0x60 CALLDATASIZE PUSH1 0x3 NOT ADD SLT PUSH2 0x522 JUMPI PUSH2 0x552 PUSH2 0x6A8 JUMP JUMPDEST PUSH1 0x44 CALLDATALOAD SWAP1 PUSH1 0x1 PUSH1 0x1 PUSH1 0xA0 SHL SUB DUP3 AND DUP3 SUB PUSH2 0x522 JUMPI PUSH1 0x4 CALLDATALOAD PUSH0 MSTORE PUSH0 PUSH1 0x20 MSTORE PUSH1 0x40 PUSH0 KECCAK256 SWAP1 PUSH1 0x1 DUP1 PUSH1 0xA0 SHL SUB AND PUSH0 MSTORE PUSH1 0x20 MSTORE PUSH1 0x40 PUSH0 KECCAK256 SWAP1 PUSH1 0x1 DUP1 PUSH1 0xA0 SHL SUB AND PUSH0 MSTORE PUSH1 0x20 MSTORE PUSH1 0x40 PUSH0 KECCAK256 PUSH1 0x40 MLOAD PUSH0 DUP3 SLOAD SWAP3 PUSH2 0x5A7 DUP5 PUSH2 0x6BE JUMP JUMPDEST SWAP1 DUP2 DUP5 MSTORE PUSH1 0x20 DUP5 ADD SWAP5 PUSH1 0x1 DUP2 AND SWAP1 DUP2 PUSH0 EQ PUSH2 0x640 JUMPI POP PUSH1 0x1 EQ PUSH2 0x600 JUMPI JUMPDEST DUP5 PUSH1 0x40 DUP6 PUSH2 0x5D5 DUP2 DUP8 SUB DUP3 PUSH2 0x6F6 JUMP JUMPDEST DUP2 MLOAD SWAP3 DUP4 SWAP2 PUSH1 0x20 DUP4 MSTORE MLOAD DUP1 SWAP2 DUP2 PUSH1 0x20 DUP6 ADD MSTORE DUP5 DUP5 ADD MCOPY PUSH0 DUP3 DUP3 ADD DUP5 ADD MSTORE PUSH1 0x1F ADD PUSH1 0x1F NOT AND DUP2 ADD SUB ADD SWAP1 RETURN JUMPDEST PUSH0 SWAP1 DUP2 MSTORE PUSH1 0x20 DUP2 KECCAK256 SWAP4 SWAP3 POP SWAP1 JUMPDEST DUP1 DUP3 LT PUSH2 0x626 JUMPI POP SWAP1 SWAP2 POP DUP2 ADD PUSH1 0x20 ADD PUSH2 0x5D5 DUP3 PUSH2 0x5C5 JUMP JUMPDEST SWAP2 SWAP3 PUSH1 0x1 DUP2 PUSH1 0x20 SWAP3 SLOAD DUP4 DUP6 DUP9 ADD ADD MSTORE ADD SWAP2 ADD SWAP1 SWAP3 SWAP2 PUSH2 0x60D JUMP JUMPDEST PUSH1 0xFF NOT AND DUP7 MSTORE POP POP ISZERO ISZERO PUSH1 0x5 SHL DUP3 ADD PUSH1 0x20 ADD SWAP1 POP PUSH2 0x5D5 DUP3 PUSH2 0x5C5 JUMP JUMPDEST CALLVALUE PUSH2 0x522 JUMPI PUSH0 CALLDATASIZE PUSH1 0x3 NOT ADD SLT PUSH2 0x522 JUMPI PUSH1 0x2 SLOAD PUSH1 0x40 MLOAD PUSH1 0x1 PUSH1 0x1 PUSH1 0xA0 SHL SUB SWAP1 SWAP2 AND DUP2 MSTORE PUSH1 0x20 SWAP1 RETURN JUMPDEST CALLVALUE PUSH2 0x522 JUMPI PUSH0 CALLDATASIZE PUSH1 0x3 NOT ADD SLT PUSH2 0x522 JUMPI PUSH1 0x1 SLOAD PUSH1 0x1 PUSH1 0x1 PUSH1 0xA0 SHL SUB AND DUP2 MSTORE PUSH1 0x20 SWAP1 RETURN JUMPDEST PUSH1 0x24 CALLDATALOAD SWAP1 PUSH1 0x1 PUSH1 0x1 PUSH1 0xA0 SHL SUB DUP3 AND DUP3 SUB PUSH2 0x522 JUMPI JUMP JUMPDEST SWAP1 PUSH1 0x1 DUP3 DUP2 SHR SWAP3 AND DUP1 ISZERO PUSH2 0x6EC JUMPI JUMPDEST PUSH1 0x20 DUP4 LT EQ PUSH2 0x6D8 JUMPI JUMP JUMPDEST PUSH4 0x4E487B71 PUSH1 0xE0 SHL PUSH0 MSTORE PUSH1 0x22 PUSH1 0x4 MSTORE PUSH1 0x24 PUSH0 REVERT JUMPDEST SWAP2 PUSH1 0x7F AND SWAP2 PUSH2 0x6CD JUMP JUMPDEST SWAP1 PUSH1 0x1F DUP1 NOT SWAP2 ADD AND DUP2 ADD SWAP1 DUP2 LT PUSH8 0xFFFFFFFFFFFFFFFF DUP3 GT OR PUSH2 0x2E4 JUMPI PUSH1 0x40 MSTORE JUMP JUMPDEST MLOAD SWAP1 PUSH1 0x1 PUSH1 0x1 PUSH1 0xA0 SHL SUB DUP3 AND DUP3 SUB PUSH2 0x522 JUMPI JUMP JUMPDEST MLOAD SWAP1 DUP2 ISZERO ISZERO DUP3 SUB PUSH2 0x522 JUMPI JUMP JUMPDEST ISZERO PUSH2 0x740 JUMPI JUMP JUMPDEST PUSH1 0x40 MLOAD PUSH3 0x461BCD PUSH1 0xE5 SHL DUP2 MSTORE PUSH1 0x20 PUSH1 0x4 DUP3 ADD MSTORE PUSH1 0x2 PUSH1 0x24 DUP3 ADD MSTORE PUSH2 0x4331 PUSH1 0xF0 SHL PUSH1 0x44 DUP3 ADD MSTORE PUSH1 0x64 SWAP1 REVERT JUMPDEST ISZERO PUSH2 0x771 JUMPI JUMP JUMPDEST PUSH1 0x40 MLOAD PUSH3 0x461BCD PUSH1 0xE5 SHL DUP2 MSTORE PUSH1 0x20 PUSH1 0x4 DUP3 ADD MSTORE PUSH1 0x2 PUSH1 0x24 DUP3 ADD MSTORE PUSH2 0x4333 PUSH1 0xF0 SHL PUSH1 0x44 DUP3 ADD MSTORE PUSH1 0x64 SWAP1 REVERT INVALID LOG2 PUSH5 0x6970667358 0x22 SLT KECCAK256 DUP4 MSTORE EXTCODECOPY 0xC1 SWAP4 NUMBER 0xC9 0xBF 0xC 0x2A TIMESTAMP SWAP12 0xB2 0xB5 0x28 SWAP13 SAR PUSH14 0x63AFBD275B4A24446B74C0D5E1ED PUSH5 0x736F6C6343 STOP ADDMOD BYTE STOP CALLER "
				},
				"gasEstimates": {
					"creation": {
						"codeDepositCost": "400200",
						"executionCost": "infinite",
						"totalCost": "infinite"
					},
					"external": {
						"dealContract()": "2266",
						"dealContractAddress()": "2302",
						"leaveReview(bytes32,address,string)": "infinite",
						"reviews(bytes32,address,address)": "infinite"
					}
				},
				"methodIdentifiers": {
					"dealContract()": "7e455213",
					"dealContractAddress()": "83c784ca",
					"leaveReview(bytes32,address,string)": "fa15a890",
					"reviews(bytes32,address,address)": "c99f3c53"
				}
			},
			"storageLayout": {
				"storage": [
					{
						"astId": 1352,
						"contract": "Extensions/DealReport/DealReport.sol:DealReview",
						"label": "reviews",
						"offset": 0,
						"slot": "0",
						"type": "t_mapping(t_bytes32,t_mapping(t_address,t_mapping(t_address,t_string_storage)))"
					},
					{
						"astId": 1355,
						"contract": "Extensions/DealReport/DealReport.sol:DealReview",
						"label": "dealContract",
						"offset": 0,
						"slot": "1",
						"type": "t_contract(DealCreationManager)1325"
					},
					{
						"astId": 1357,
						"contract": "Extensions/DealReport/DealReport.sol:DealReview",
						"label": "dealContractAddress",
						"offset": 0,
						"slot": "2",
						"type": "t_address"
					}
				],
				"types": {
					"t_address": {
						"encoding": "inplace",
						"label": "address",
						"numberOfBytes": "20"
					},
					"t_bytes32": {
						"encoding": "inplace",
						"label": "bytes32",
						"numberOfBytes": "32"
					},
					"t_contract(DealCreationManager)1325": {
						"encoding": "inplace",
						"label": "contract DealCreationManager",
						"numberOfBytes": "20"
					},
					"t_mapping(t_address,t_mapping(t_address,t_string_storage))": {
						"encoding": "mapping",
						"key": "t_address",
						"label": "mapping(address => mapping(address => string))",
						"numberOfBytes": "32",
						"value": "t_mapping(t_address,t_string_storage)"
					},
					"t_mapping(t_address,t_string_storage)": {
						"encoding": "mapping",
						"key": "t_address",
						"label": "mapping(address => string)",
						"numberOfBytes": "32",
						"value": "t_string_storage"
					},
					"t_mapping(t_bytes32,t_mapping(t_address,t_mapping(t_address,t_string_storage)))": {
						"encoding": "mapping",
						"key": "t_bytes32",
						"label": "mapping(bytes32 => mapping(address => mapping(address => string)))",
						"numberOfBytes": "32",
						"value": "t_mapping(t_address,t_mapping(t_address,t_string_storage))"
					},
					"t_string_storage": {
						"encoding": "bytes",
						"label": "string",
						"numberOfBytes": "32"
					}
				}
			},
			"userdoc": {
				"kind": "user",
				"methods": {},
				"version": 1
			}
		}
	}
}