{
	"data": {
		"bytecode": {
			"linkReferences": {
				"Deal.sol": {
					"DealContract": [
						{
							"length": 20,
							"start": 3669
						},
						{
							"length": 20,
							"start": 4551
						},
						{
							"length": 20,
							"start": 5877
						},
						{
							"length": 20,
							"start": 7798
						},
						{
							"length": 20,
							"start": 9153
						},
						{
							"length": 20,
							"start": 9587
						},
						{
							"length": 20,
							"start": 11017
						},
						{
							"length": 20,
							"start": 11863
						},
						{
							"length": 20,
							"start": 12271
						},
						{
							"length": 20,
							"start": 14688
						},
						{
							"length": 20,
							"start": 16128
						},
						{
							"length": 20,
							"start": 16705
						},
						{
							"length": 20,
							"start": 17556
						},
						{
							"length": 20,
							"start": 18009
						},
						{
							"length": 20,
							"start": 21414
						}
					]
				},
				"Percent.sol": {
					"Percent": [
						{
							"length": 20,
							"start": 1516
						},
						{
							"length": 20,
							"start": 3823
						},
						{
							"length": 20,
							"start": 5327
						},
						{
							"length": 20,
							"start": 6034
						},
						{
							"length": 20,
							"start": 7133
						},
						{
							"length": 20,
							"start": 8165
						},
						{
							"length": 20,
							"start": 9304
						},
						{
							"length": 20,
							"start": 9739
						},
						{
							"length": 20,
							"start": 11363
						},
						{
							"length": 20,
							"start": 12398
						},
						{
							"length": 20,
							"start": 13718
						},
						{
							"length": 20,
							"start": 14371
						},
						{
							"length": 20,
							"start": 15386
						},
						{
							"length": 20,
							"start": 16960
						},
						{
							"length": 20,
							"start": 17703
						}
					]
				}
			},
			"object": "60803461013a57601f615a1438819003918201601f19168301916001600160401b0383118484101761013e57808492604094855283398101031261013a5780516020909101516001600160a01b038116919082900361013a575f80546001600160a81b0319163317600160a01b17808255604051916001600160a01b03909116907f8be0079c531659141344cd1fd0a4f28419497f9722a3daafe3b4186f6b6457e08180a3821561011357506402540be40081116100e95760025560018060a01b031960035416176003555f6005555f6006555f6007555f6008556040516158c190816101538239f35b60405162461bcd60e51b8152602060048201526002602482015261433560f01b6044820152606490fd5b62461bcd60e51b8152602060048201526002602482015261433160f01b6044820152606490fd5b5f80fd5b634e487b7160e01b5f52604160045260245ffdfe60806040526004361015610011575f80fd5b5f803560e01c80627e8bd31461449c57806301cafae3146142ff57806302927459146142e157806306fd154a146142b85780630934da2214613fa65780631273c16514613d5057806315f8a31414613cac57806317b52b5014613c4a57806328d5a0501461379f578063367edd321461373957806339b3edb0146136965780634187129c146135d457806341b3a0d9146135af57806347e7ef24146133ec57806351a6fad51461325a57806353a78000146131dc578063619c457e146131b55780636242c6cd14612e5357806363adb66f14612cb857806367c5545d1461298157806370a082311461294057806371ae8bcd1461291957806380ccb0701461284657806381cd872a14612723578063894ba833146126c45780638da5cb5b1461269d5780638deea5fb146125a2578063966d1f1d146125845780639905a1ea146123e25780639974f376146123c4578063a0849a331461222c578063a471ee4f14612021578063ad94b28b14611cf3578063ba343f6d14611c1d578063bb06c1a4146118d6578063beabacc8146117e8578063c15a25bf14611768578063c23f001f1461174c578063c2c257b914611564578063cfadf6c714610ffd578063d750158b14610cb4578063e08560a414610c96578063eb45732914610bbc578063ee026054146103cf578063f2fde38b14610303578063f3fef3a31461029c578063f5f6a8e41461027e5763f7888aec14610229575f80fd5b3461027b57604036600319011261027b576040610244614738565b9161024d614722565b9260018060a01b031681526001602052209060018060a01b03165f52602052602060405f2054604051908152f35b80fd5b503461027b578060031936011261027b576020600254604051908152f35b503461027b57604036600319011261027b576102f96020916102bc614738565b604060243592338152600186522060018060a01b0382165f5284526102e78260405f205410156149bf565b6102f2828233615555565b5033615675565b6040519015158152f35b503461027b57602036600319011261027b5761031d614738565b81546001600160a01b03811691610335338414614e44565b6001600160a01b031691821561037b5782907f8be0079c531659141344cd1fd0a4f28419497f9722a3daafe3b4186f6b6457e08580a36001600160a01b03191617815580f35b60405162461bcd60e51b815260206004820152602660248201527f4f776e61626c653a206e6577206f776e657220697320746865207a65726f206160448201526564647265737360d01b6064820152608490fd5b503461027b57604036600319011261027b576004356103ec6147d0565b9080835260046020526040832090600182019160018060a01b0383541633148015610ba9575b8015610b93575b61042290614c54565b6002810193845460ff8160b01c1615610b695760a01c60ff166003811015610b555760026104509114614f7f565b600b8201544210610b2a578560ff600c8401541691600584015460018060a01b036009860154169160068601549160018060a01b03600a8801541692600788015496600889015473__$8537b7efa173772577da826929141ce939$__9860405190631c8f084760e01b825285600483015260248201526020816044818d5af4988915610b1e5798610ae9575b506020906044604051809b8193631c8f084760e01b835287600484015260248301525af4978815610ade578d98610aa6575b506006811015610a925792828260048f968f96978f8f905f805160206157ec8339815191529f9d9b989161061e9f9d9b8f8f8f908f928f97948f958f968789848f8f8f8f90818e8d8f9460018f988e98888f948f8f908f8f908f91858f9194858f8f998f988a8f8a8f948f87908f928b978f948f97156109aa575b505050505050505050505060028d146108ab575b505050505050505050505050146107bd575b505050505050505050505060038d14610720575b5050505050505050505050501461062c575b50508b54600160a01b60ff60a01b19821617909c55505093549754604080516001600160a01b039b8c168152336020820152918b169a9099169890958695509085019350915050565b0390a4602060405160018152f35b85889561067d899361065b61068e966106a09b6106548860018060a01b036003541693614d6c565b918a6155fc565b506003546001600160a01b0316908890610676908b90614d6c565b91886155fc565b50546001600160a01b0316846155fc565b508b546001600160a01b0316906155fc565b50825487548954600354604080516001600160a01b03938416815233602082015291831690820152606081018590526080810186905260a081019490945260c0840194909452831692169086907f8e100dc3335e09b082c843425f71ea8ae9d91ae5bb385ef4b41d0d2c6aa872149060e090a486808088818080806105d5565b7f8e100dc3335e09b082c843425f71ea8ae9d91ae5bb385ef4b41d0d2c6aa872149761068e61075d9460e0998e60018060a01b03905416846155fc565b5060018060a01b039054169560018060a01b039054169660018060a01b0390541691604051928084523360208501526040840152606083015260808201528660a08201528660c0820152a48f8f908991888f8f8f908f928c8f8d906105c3565b5f8051602061582c8339815191529a6108375f805160206157ac8339815191529961081a89878f9e610808906108499a6108018560018060a01b0389541693614d6c565b91896155fc565b508a546001600160a01b0316866155fc565b50546001600160a01b031683610830868c614d6c565b91846155fc565b5085546001600160a01b0316906155fc565b5060018060a01b038c541696879160018060a01b0390541698899360018060a01b03905416948d610881604051928392338a85614d79565b0390a46108968b604051938493339085614d79565b0390a487898486858f8f908c918e8d8a6105af565b7ff05d33634b730e763d232b482cf835a4481835f62d0a0973b42018a8ead4f047995f805160206157cc833981519152988f9461091b8e856109098f99610948986109028f928e81889260a01b0390541693614d6c565b91876155fc565b508a546001600160a01b0316846155fc565b508654610936906001600160a01b031683610830868e614d6c565b5087546001600160a01b0316906155fc565b508c8060a01b039054169788928d8060a01b03905416998a948e8060a01b039054169561097c604051928392338a85614d79565b0390a46109918b604051938493339085614d79565b0390a488858f8f908f8f908f918d8f91948c958f61059d565b6001995f805160206157cc83398151915298610a24610a3595610a078f5f8051602061582c8339815191529f9a6109f58d82610654610a7d9f8f9d81889260a01b0390541693614d6c565b5085546001600160a01b0316876155fc565b50546001600160a01b031684610a1d878d614d6c565b91856155fc565b50546001600160a01b0316906155fc565b5089548c548e546040516001600160a01b039283169b9383169a91909216958b938b938b939290918291610a6c9190338c85614d79565b0390a4604051938493339085614d79565b0390a48a838a878a8a8f87908f8a8d91610589565b634e487b7160e01b8d52602160045260248dfd5b9097506020813d602011610ad6575b81610ac260209383614a3d565b81010312610ad25751965f61050e565b5f80fd5b3d9150610ab5565b6040513d8f823e3d90fd5b9097506020813d602011610b16575b81610b0560209383614a3d565b81010312610ad257519660206104dc565b3d9150610af8565b604051903d90823e3d90fd5b606460405162461bcd60e51b81526020600482015260046024820152632218971960e11b6044820152fd5b634e487b7160e01b87526021600452602487fd5b60405162461bcd60e51b8152602060048201526002602482015261221960f11b6044820152606490fd5b5060028101546001600160a01b03163314610419565b5080546001600160a01b03163314610412565b503461027b57602036600319011261027b57604060e091610bdb61551f565b50600435815260096020522060405190610bf4826149f0565b8054825260026001820154916020840192835201549060408301610c1b60ff841682614e38565b6060840160ff8460081c1615158152610c74608086019260ff8660101c161515845260a087019460ff8760181c161515865260ff60c089019760201c1615158752604051975188525160208801525160408701906148a0565b5115156060850152511515608084015251151560a083015251151560c0820152f35b503461027b578060031936011261027b576020600654604051908152f35b503461027b57604036600319011261027b57600435610cd16147d0565b81835260046020526040832090600182019060018060a01b0382541633148015610fe7575b610cff90614c54565b8473__$69ea93bdf3b1e5da8164bfe3d9a878d765$__803b15610fe357816040518092630252a86760e51b82528180610d3b8a60048301614c85565b03915af48015610fd857610fbf575b5050600583015460098401546006850154600a86015460078701546008880154604051631c8f084760e01b81526004810187905260248101929092526001600160a01b0394851698959791969195939473__$8537b7efa173772577da826929141ce939$__94931690602088604481885af4978815610fb4578c98610f7f575b50602090604460405180978193631c8f084760e01b83528a600484015260248301525af4938415610f74578a9b9a999a94610f34575b50825489959493929184916001600160a01b03168c610e1f8b8d614d6c565b90610e2a92866155fc565b50600284018054909c610e49918b91906001600160a01b0316866155fc565b5087546001600160a01b031681610e608880614d6c565b90610e6b92866155fc565b508b54610e83936001600160a01b03909116906155fc565b50885460ff60a01b198116600160a01b179099555493546040516001600160a01b039182169a9582169991909116968a968a9688938893919290918291610ecc91338e85614d79565b035f8051602061582c83398151915291a4604051918291610eef91338985614d79565b035f805160206157cc83398151915291a4604080516001600160a01b039290921682523360208301525f805160206157ec83398151915291a460405160018152602090f35b949350919097506020843d602011610f6c575b81610f5460209383614a3d565b81010312610ad2578997889451939492909192610e00565b3d9150610f47565b6040513d8d823e3d90fd5b9097506020813d602011610fac575b81610f9b60209383614a3d565b81010312610ad25751966020610dca565b3d9150610f8e565b6040513d8e823e3d90fd5b81610fc991614a3d565b610fd457845f610d4a565b8480fd5b6040513d84823e3d90fd5b5080fd5b5060028301546001600160a01b03163314610cf6565b506110073661474e565b9190949288948a98979a948c604060ff825460a01c16916110278361498e565b33815260016020522060018060a01b0385165f5260205260405f20548a811061132f575b50509161109894939161020098936110648b8433615555565b5060405163652e83d760e01b815273__$69ea93bdf3b1e5da8164bfe3d9a878d765$__9e909b8c9a8b9a3360048d01614b8a565b0381875af49081156112f5578591611300575b5060206005546102246040518097819363797d4ee160e01b83526110d260048401886148ad565b6102048301525af49384156112f55785946112c1575b506110f4600554614bf6565b600555838552600460209081526040808720835181546001600160a01b03199081166001600160a01b0392831617835593850151600183018054861691831691909117905591840151600282018054909416921691909117825560608301519092919060038110156112ad57816111726111ae926101e09594614c18565b6080830151815460ff60a81b191690151560a81b60ff60a81b1617815560a0830151815460ff60b01b191690151560b01b60ff60b01b16179055565b60c0810151600384015560e081015160048401556101008101516005840155610120810151600680850191909155610140820151600785015561016082015160088501556101808201516009850180546001600160a01b039283166001600160a01b0319918216179091556101a0840151600a870180549190931691161790556101c0820151600b85015591015195908610156112995750602094600c6112559201614c3c565b6040516001600160a01b039283168152911690339083907f44e1ff8e67fad6b456bd43ff165ba4e9bb004370aa27a76881c6acb60dfd6dd9908690a4604051908152f35b634e487b7160e01b81526021600452602490fd5b634e487b7160e01b88526021600452602488fd5b9093506020813d6020116112ed575b816112dd60209383614a3d565b81010312610ad25751925f6110e8565b3d91506112d0565b6040513d87823e3d90fd5b61132291506102003d8111611328575b61131a8183614a3d565b810190614a80565b5f6110ab565b503d611310565b61134c92999496959398506113469197508a614d6c565b9561498e565b611357851515614da3565b6002549360405194631c8f084760e01b8652866004870152602486015260208560448173__$8537b7efa173772577da826929141ce939$__5af4948515610ade578d95611530575b506001600160a01b0381169687611448576113ba8688614f0e565b340361141e57610200988c9888611098986113d78f9b873361561a565b506003546113f190829088906001600160a01b031661561a565b505b60405191825260208201525f8051602061584c83398151915260403392a3919398819395965061104b565b60405162461bcd60e51b815260206004820152600260248201526110cd60f21b6044820152606490fd5b8d8060208a60646114598b8d614f0e565b60405194859384926323b872dd60e01b845233600485015230602485015260448401525af1918215610b1e57916114f2575b50156114c857610200988c9888611098986114a88f9b873361561a565b506003546114c290829088906001600160a01b031661561a565b506113f3565b60405162461bcd60e51b81526020600482015260026024820152612a1960f11b6044820152606490fd5b90506020813d602011611528575b8161150d60209383614a3d565b810103126115245761151e90614a73565b5f61148b565b8e80fd5b3d9150611500565b9094506020813d60201161155c575b8161154c60209383614a3d565b81010312610ad25751935f61139f565b3d915061153f565b503461027b57611573366147df565b928281939293526004602052604081209260018060a01b0384541633148015611736575b6115a090614c54565b73__$69ea93bdf3b1e5da8164bfe3d9a878d765$__803b1561173257826040518092630252a86760e51b825281806115db8a60048301614c85565b03915af4801561172757908391611712575b5050600684016116098282546116048282106149bf565b614d6c565b905560018060a01b03600a8501541693600881015460405190631c8f084760e01b8252836004830152602482015260208160448173__$8537b7efa173772577da826929141ce939$__5af4938415610b1e57936116dc575b509161061e836116b38360015f805160206157cc83398151915297019861169d8b8260018060a01b038d5416611697868c614d6c565b926155fc565b50600284019a60018060a01b038c5416906155fc565b5054955496546040516001600160a01b0398891698978816979094859492909133911685614d79565b92506020833d60201161170a575b816116f760209383614a3d565b81010312610ad25791519161061e611661565b3d91506116ea565b8161171c91614a3d565b610fe357815f6115ed565b6040513d85823e3d90fd5b8280fd5b5060028401546001600160a01b03163314611597565b503461027b57604036600319011261027b576040610244614738565b503461027b57602036600319011261027b57604060e091600435815260096020522060ff815491600260018201549101549060405193845260208401526117b4604084018383166148a0565b818160081c1615156060840152818160101c1615156080840152818160181c16151560a084015260201c16151560c0820152f35b503461027b57606036600319011261027b57611802614738565b9061180b614722565b604060443593338452600160205281842060018060a01b0384165f5260205261183985835f205410156149bf565b338452600160205281842060018060a01b0384165f52602052815f20611860868254614d6c565b905560018060a01b03169283815260016020522060018060a01b0382165f5260205260405f20611891848254614f0e565b90556040519283526001600160a01b03169133907fd1398bee19313d6bf672ccb116e51f4a1a947e91c757907f51fbb5b5e56c698f90602090a4602060405160018152f35b50602036600319011261027b5760043580825260046020526040822091600183019261190c60018060a01b038554163314614c54565b600281019160ff8354611923828260a81c16614f1b565b611932828260b01c1615614f4d565b60a01c166003811015611c0957600261194b9114614f7f565b600a82018054335f9081526001602090815260408083206001600160a01b039094168084529390915290205460068501548110611a3c575b50505460048301546119a09250906001600160a01b031633615555565b508154600160b01b60ff60b01b198216179092555492546040516001600160a01b0392831680825294918316929091169083907f5e02698c1650d6cbe1f7e8a48609d0da45ad7f5e4c13cd8b196f82965c0ab0d590602090a481611a0a575b602060405160018152f35b60207f957372c0e02d2882134cc0eebbef9e446634d8ccbb1cbb112bdefdd3cf0a643c91604051908152a25f806119ff565b611a4a906004860154614d6c565b611a5a60ff855460a01c1661498e565b611a65811515614da3565b6002549360405194631c8f084760e01b8652826004870152602486015260208560448173__$8537b7efa173772577da826929141ce939$__5af4948515611bfc578195611bc8575b5082611b145750611abe8482614f0e565b340361141e576119a093611ad382843361561a565b50600354611aed90829085906001600160a01b031661561a565b505b60405191825260208201525f8051602061584c83398151915260403392a35f80611983565b611b1e8583614f0e565b604051906323b872dd60e01b8252336004830152306024830152604482015260208160648185885af1918215610b1e578092611b8b575b5050156114c8576119a093611b6b82843361561a565b50600354611b8590829085906001600160a01b031661561a565b50611aef565b9091506020823d602011611bc0575b81611ba760209383614a3d565b8101031261027b5750611bb990614a73565b5f80611b55565b3d9150611b9a565b9094506020813d602011611bf4575b81611be460209383614a3d565b81010312610ad25751935f611aad565b3d9150611bd7565b50604051903d90823e3d90fd5b634e487b7160e01b82526021600452602482fd5b503461027b57602036600319011261027b57604060e091611c3c61551f565b506004358152600a6020522060405190611c55826149f0565b80549182815260018060a01b036001830154166020820190815260028301549260408301938452600460038201549160608501928352015493608084019260ff86161515845260ff60c060a0870196828960081c1615158852019660101c161515865260405196875260018060a01b039051166020870152516040860152516060850152511515608084015251151560a083015251151560c0820152f35b50611cfd366147df565b82849392935260046020526040842093611d2160018060a01b038654163314614c54565b73__$69ea93bdf3b1e5da8164bfe3d9a878d765$__803b15610fe357816040518092630252a86760e51b82528180611d5c8b60048301614c85565b03915af48015610fd85790859291612008575b50600986018054335f9081526001602090815260408083206001600160a01b0390941680845293909152902054919290919415611e31575050611db782611dc79410156149bf565b546001600160a01b031633615555565b5060058301611dd7838254614f0e565b905582546001840154600290940154604080516001600160a01b0392831681526020810195909552948116949116927f3c0dd30126238eaebbb306e073222eecd03a091d41c39a4b2742759d406c8f55918190810161061e565b9093838110611e47575b5050611dc79250611db7565b611e519193614d6c565b92611e6260ff845460a01c1661498e565b611e6d841515614da3565b6002549260405193631c8f084760e01b8552856004860152602485015260208460448173__$8537b7efa173772577da826929141ce939$__5af4938415611bfc578194611fd4575b5081611f1e5750611ec68385614f0e565b340361141e57838693611edd611dc796843361561a565b50600354611ef790829085906001600160a01b031661561a565b505b60405191825260208201525f8051602061584c83398151915260403392a35f80611e3b565b611f288486614f0e565b604051906323b872dd60e01b8252336004830152306024830152604482015260208160648185875af1918215610b1e578092611f97575b5050156114c857838693611f77611dc796843361561a565b50600354611f9190829085906001600160a01b031661561a565b50611ef9565b9091506020823d602011611fcc575b81611fb360209383614a3d565b8101031261027b5750611fc590614a73565b5f80611f5f565b3d9150611fa6565b9093506020813d602011612000575b81611ff060209383614a3d565b81010312610ad25751925f611eb5565b3d9150611fe3565b8180935061201591614a3d565b61027b5783905f611d6f565b503461027b57608036600319011261027b576004359061203f614722565b6044359260643593818452600460205260ff6002604086209460018060a01b0386541633148015612216575b61207490614c54565b6120856402540be400851115614da3565b6120966402540be400891115614da3565b6001600160a01b0316946120ab861515614e75565b01546120c06001600160a01b03821615614fb0565b60a81c16156121e5575b6020946121a59161218c604051916120e1836149f0565b858352600489840193888552604081019283526060810195865260808101958a875260a08201938b855260c08301968c885260406008549d8e81528f600a9052209351845560018060a01b03905116600184019060018060a01b03166bffffffffffffffffffffffff60a01b825416179055516002830155516003820155019351151560ff80198654169116178455511515839061ff00825491151560081b169061ff001916179055565b51815462ff0000191690151560101b62ff000016179055565b6121b0600854614bf6565b600855827f3e168088da33d5ab18321345a864b58812f451c892ee951f8f70b5bead045b6985604051338152a4604051908152f35b84156120ca57606460405162461bcd60e51b815260206004820152600460248201526343312e3160e01b6044820152fd5b5060018601546001600160a01b0316331461206b565b503461027b5761223b366147df565b92919081835260046020526040832090600182019360018060a01b03855416331480156123ae575b61226c90614c54565b73__$69ea93bdf3b1e5da8164bfe3d9a878d765$__803b15610fe357816040518092630252a86760e51b825281806122a78960048301614c85565b03915af48015610fd857908291612399575b5050600583016122d08382546116048282106149bf565b905560018060a01b03600984015416600784015460405190631c8f084760e01b8252846004830152602482015260208160448173__$8537b7efa173772577da826929141ce939$__5af4928315610b1e5792612358575b505f8051602061582c833981519152936116b3838361169d8b61061e9660018060a01b03875416611697868c614d6c565b9091506020813d602011612391575b8161237460209383614a3d565b81010312610ad25751905f8051602061582c833981519152612327565b3d9150612367565b816123a391614a3d565b61027b57805f6122b9565b5060028301546001600160a01b03163314612263565b503461027b578060031936011261027b576020600754604051908152f35b503461027b576123f1366147df565b928281939293526004602052604081209260018060a01b038454163314801561256e575b61241e90614c54565b73__$69ea93bdf3b1e5da8164bfe3d9a878d765$__803b1561173257826040518092630252a86760e51b825281806124598a60048301614c85565b03915af4801561172757908391612559575b5050600584016124828282546116048282106149bf565b905560018060a01b0360098501541693600781015460405190631c8f084760e01b8252836004830152602482015260208160448173__$8537b7efa173772577da826929141ce939$__5af4938415610b1e5793612523575b509161061e836116b38360017ff05d33634b730e763d232b482cf835a4481835f62d0a0973b42018a8ead4f04797019861169d8b8260018060a01b038d5416611697868c614d6c565b92506020833d602011612551575b8161253e60209383614a3d565b81010312610ad25791519161061e6124da565b3d9150612531565b8161256391614a3d565b610fe357815f61246b565b5060028401546001600160a01b03163314612415565b503461027b578060031936011261027b576020600554604051908152f35b503461027b57602036600319011261027b5760043580825260046020526040822090600182019160018060a01b038354163314801561268a575b6125e590614c54565b600281019360ff85546125fc828260a81c16614f1b565b61260b828260b01c1615614f4d565b60a01c1690600382101561129957505f805160206157ec83398151915291612638600261061e9314614f7f565b80546009820154600583015461265c9290916001600160a01b03908116911661561a565b505493549454604080516001600160a01b039283168152336020820152968216969590911694918291820190565b5080546001600160a01b031633146125dc565b503461027b578060031936011261027b57546040516001600160a01b039091168152602090f35b503461027b578060031936011261027b5780546126eb336001600160a01b03831614614e44565b60ff60a01b191681556040518181527f017904e4fe7d59bb4603c7c045bc275a05da9ea3a4ac007fc80fffeaf119186d90602090a180f35b503461027b57602036600319011261027b576004358152600460205260409020600160a01b6001900381541690600160a01b600190036001820154169060028101546003820154600483015460058401546006850154600786015491600887015493600160a01b6001900360098901541695600160a01b60019003600a8a01541697600b8a015499600c015460ff169a6040519c8d5260208d0152600160a01b60019003811660408d015260608c018160a01c60ff16906127e391614893565b8060a81c60ff16151560808d015260b01c60ff16151560a08c015260c08b015260e08a01526101008901526101208801526101408701526101608601526101808501526101a08401526101c08301526101e08201612840916148a0565b61020090f35b503461027b57602036600319011261027b5760043580825260046020526040822090600182019160018060a01b0383541633148015612906575b61288990614c54565b600281019360ff8554818160b01c1615806128f9575b6128a890614f4d565b60a01c1690600382101561129957505f805160206157ec833981519152916128d5600261061e9314614f7f565b80546009820154600583015461265c9290916001600160a01b039081169116615675565b5060a881901c821661289f565b5080546001600160a01b03163314612880565b503461027b57604036600319011261027b5760206102f96129386147d0565b6004356151f0565b503461027b57602036600319011261027b576020906040906001600160a01b03612968614738565b1681526001835281812081805283522054604051908152f35b5061298b366147df565b8284939294526004602052604083209360018501936129b460018060a01b038654163314614c54565b73__$69ea93bdf3b1e5da8164bfe3d9a878d765$__803b15610fe357816040518092630252a86760e51b825281806129ef8c60048301614c85565b03915af48015610fd857908291612ca3575b5050600a86018054335f9081526001602090815260408083206001600160a01b0390941680845293909152902054919290919415612a9f57505081612a5a91611db7825f8051602061580c8339815191529610156149bf565b5060068501612a6a828254614f0e565b905584549354600290950154604080516001600160a01b0392831681526020810193909352958116959416938190810161061e565b9093838110612ac5575b50505f8051602061580c833981519152925081612a5a91611db7565b612acf9084614d6c565b91612ae060ff835460a01c1661498e565b612aeb831515614da3565b6002549160405192631c8f084760e01b8452846004850152602484015260208360448173__$8537b7efa173772577da826929141ce939$__5af4928315611bfc578193612c6f575b5085612baa5750612b448284614f0e565b340361141e5784838593612b6a612a5a965f8051602061580c833981519152993361561a565b50600354612b8490829085906001600160a01b031661561a565b505b60405191825260208201525f8051602061584c83398151915260403392a391612aa9565b612bb48385614f0e565b604051906323b872dd60e01b82523360048301523060248301526044820152602081606481858b5af1918215610b1e578092612c32575b5050156114c85784838593612c12612a5a965f8051602061580c833981519152993361561a565b50600354612c2c90829085906001600160a01b031661561a565b50612b86565b9091506020823d602011612c67575b81612c4e60209383614a3d565b8101031261027b5750612c6090614a73565b5f80612beb565b3d9150612c41565b9092506020813d602011612c9b575b81612c8b60209383614a3d565b81010312610ad25751915f612b33565b3d9150612c7e565b81612cad91614a3d565b61027b57805f612a01565b503461027b57612cc736614802565b83859493945260046020526040852090612ce86402540be400821115614da3565b6001820194612d0160018060a01b038754163314614c54565b8673__$69ea93bdf3b1e5da8164bfe3d9a878d765$__803b15610fe357816040518092630252a86760e51b82528180612d3d8a60048301614c85565b03915af48015610fd857612e34575b5050905f8051602061586c8339815191529383926040600260209601998a54612d7b60ff8260a81c1615614dd4565b85612e1a575b50338152600187522060018060a01b0382165f528552612da78260405f205410156149bf565b612db2828233615555565b50885460ff60a81b1916600160a81b178955600a840180546001600160a01b0319166001600160a01b039283161790556004840182905560068401919091556008830191909155905494549554604051908216815295811695941693a4602060405160018152f35b612e2e906001600160a01b03161515614e06565b5f612d81565b81612e429195949395614a3d565b612e4f579091865f612d4c565b8680fd5b503461027b57604036600319011261027b57600435612e706147d0565b81835260046020526040832080546001600160a01b03163314801561319f575b612e9990614c54565b8373__$69ea93bdf3b1e5da8164bfe3d9a878d765$__803b15610fe357816040518092630252a86760e51b82528180612ed58860048301614c85565b03915af48015610fd857613186575b505060058101549060018060a01b0360098201541660068201549260018060a01b03600a840154169260078101549560088201549473__$8537b7efa173772577da826929141ce939$__9560405198631c8f084760e01b8a528560048b015260248a01526020896044818a5af4988915610f74578b99613151575b50602090604460405180998193631c8f084760e01b83528c600484015260248301525af495861561314657918a91899a9b938c9a959498613104575b50908784939260018c9897960198600160a01b600190038a541681612fc0898b614d6c565b90612fcb92876155fc565b50600286018054909e612fe99290916001600160a01b0316866155fc565b5084546001600160a01b0316816130008d80614d6c565b9061300b92866155fc565b508c54613023936001600160a01b03909116906155fc565b5050885460ff60a01b1981169099555493546040516001600160a01b039182169a9582169991909116968a968a968893889391929091829161306791338e85614d79565b035f805160206157ac83398151915291a460405191829161308a91338985614d79565b037ff05d33634b730e763d232b482cf835a4481835f62d0a0973b42018a8ead4f04791a4604080516001600160a01b039290921682523360208301527ffaee379435b6a0c297f1a08c66517fdc202debc6d275e6dd73630e3ebd1bdd9791a46006546130f590614bf6565b60065560405160018152602090f35b9392995096509392506020823d60201161313e575b8161312660209383614a3d565b81010312610ad2579051899790959293899389612f9b565b3d9150613119565b6040513d8c823e3d90fd5b9098506020813d60201161317e575b8161316d60209383614a3d565b81010312610ad25751976020612f5f565b3d9150613160565b8161319091614a3d565b61319b57835f612ee4565b8380fd5b5060028101546001600160a01b03163314612e90565b503461027b57604036600319011261027b5760206102f96131d46147d0565b600435614fe2565b503461027b57602036600319011261027b57604060e0916004358152600a6020522060ff81549160018060a01b03600182015416906002810154600460038301549201549260405195865260208601526040850152606084015281811615156080840152818160081c16151560a084015260101c16151560c0820152f35b503461027b57602036600319011261027b57806101e060405161327c81614a20565b8281528260208201528260408201528260608201528260808201528260a08201528260c08201528260e08201528261010082015282610120820152826101408201528261016082015282610180820152826101a0820152826101c08201520152600435815260046020526040812090604051906132f882614a20565b82546001600160a01b039081168352600184015481166020840152600284015490811660408401529060a082901c60ff169060038210156112995750600c6102009460ff6133dd9481946060880152818160a81c161515608088015260b01c16151560a0860152600381015460c0860152600481015460e0860152600581015461010086015260068101546101208601526007810154610140860152600881015461016086015260018060a01b0360098201541661018086015260018060a01b03600a820154166101a0860152600b8101546101c08601520154166101e08301614e38565b6133ea60405180926148ad565bf35b50604036600319011261027b57613401614738565b60243561341460ff845460a01c1661498e565b61341f811515614da3565b60025460405190631c8f084760e01b8252826004830152602482015260208160448173__$8537b7efa173772577da826929141ce939$__5af49081156135a4578491613572575b506001600160a01b03831692836134cc576134818284614f0e565b340361141e578181613497856134a9943361561a565b506003546001600160a01b031661561a565b505b60405191825260208201525f8051602061584c83398151915260403392a380f35b6134d68284614f0e565b604051906323b872dd60e01b8252336004830152306024830152604482015260208160648189895af1908115613567578691613529575b50156114c857818161349785613523943361561a565b506134ab565b90506020813d60201161355f575b8161354460209383614a3d565b8101031261355b5761355590614a73565b5f61350d565b8580fd5b3d9150613537565b6040513d88823e3d90fd5b90506020813d60201161359c575b8161358d60209383614a3d565b81010312610ad257515f613466565b3d9150613580565b6040513d86823e3d90fd5b503461027b578060031936011261027b5760ff6020915460a01c166040519015158152f35b503461027b57602036600319011261027b5760043580825260046020526040822091600183019261360f60018060a01b038554163314614c54565b600281019160ff8354613626828260a81c16614f1b565b613635828260b01c1615614f4d565b60a01c16906003821015611299575060026136509114614f7f565b600a810154335f9081526001602090815260408083206001600160a01b03909416808452939091529020546119a0916136906004850154809310156149bf565b33615555565b503461027b57602036600319011261027b576004359060025460405190631c8f084760e01b8252836004830152602482015260208160448173__$8537b7efa173772577da826929141ce939$__5af4918215610b1e5791613706575b60206136fe8385614f0e565b604051908152f35b90506020813d602011613731575b8161372160209383614a3d565b81010312610ad2575160206136f2565b3d9150613714565b503461027b578060031936011261027b578054613760336001600160a01b03831614614e44565b60ff60a01b1916600160a01b178155604051600181527f017904e4fe7d59bb4603c7c045bc275a05da9ea3a4ac007fc80fffeaf119186d90602090a180f35b506137a936614830565b91929095949360ff885460a01c16926137c18461498e565b33895260016020526040892060018060a01b0386165f5260205260405f2054828110613a84575b506102009350613833906137fd838733615555565b5060405163652e83d760e01b815273__$69ea93bdf3b1e5da8164bfe3d9a878d765$__999096879586958a8c3360048a01614ea6565b0381875af49081156112f5578591613a65575b5060206005546102246040518097819363797d4ee160e01b835261386d60048401886148ad565b6102048301525af49384156112f5578594613a31575b5061388f600554614bf6565b600555838552600460209081526040808720835181546001600160a01b03199081166001600160a01b0392831617835593850151600183018054861691831691909117905591840151600282018054909416921691909117825560608301519092919060038110156112ad578161117261390d926101e09594614c18565b60c0810151600384015560e081015160048401556101008101516005840155610120810151600680850191909155610140820151600785015561016082015160088501556101808201516009850180546001600160a01b039283166001600160a01b0319918216179091556101a0840151600a870180549190931691161790556101c0820151600b85015591015195908610156112995750602094600c6139b49201614c3c565b6040516001600160a01b039182168082529290911690339084907f5e02698c1650d6cbe1f7e8a48609d0da45ad7f5e4c13cd8b196f82965c0ab0d5908790a480613a02575b50604051908152f35b7f957372c0e02d2882134cc0eebbef9e446634d8ccbb1cbb112bdefdd3cf0a643c83604051848152a25f6139f9565b9093506020813d602011613a5d575b81613a4d60209383614a3d565b81010312610ad25751925f613883565b3d9150613a40565b613a7e91506102003d81116113285761131a8183614a3d565b5f613846565b613a91613a979184614d6c565b9461498e565b613aa2841515614da3565b6002549060405191631c8f084760e01b8352856004840152602483015260208260448173__$8537b7efa173772577da826929141ce939$__5af4918215613146578a92613c16575b506001600160a01b03861680613b5d57613b048387614f0e565b340361141e578561383393613b1d610200988a3361561a565b50600354613b379082908b906001600160a01b031661561a565b505b60405191825260208201525f8051602061584c83398151915260403392a3906137e8565b8a6020613b6a8589614f0e565b6064604051809481936323b872dd60e01b83523360048401523060248401526044830152865af1908115610fb4578c91613bd8575b50156114c8578561383393613bb8610200988a3361561a565b50600354613bd29082908b906001600160a01b031661561a565b50613b39565b90506020813d602011613c0e575b81613bf360209383614a3d565b81010312613c0a57613c0490614a73565b5f613b9f565b8b80fd5b3d9150613be6565b9091506020813d602011613c42575b81613c3260209383614a3d565b81010312610ad25751905f613aea565b3d9150613c25565b503461027b57610200613833613c5f36614830565b613c7760ff8b9a9694979899939a5460a01c1661498e565b338a52600160205260408a2060018060a01b0387165f52602052613ca18360405f205410156149bf565b6137fd838733615555565b503461027b57604036600319011261027b577f14bdaadaed0453e7b5b66195b42156ba995b9e5abd0da98368839851d69ad8896040600435613cec614722565b613d0060018060a01b038654163314614e44565b6001600160a01b0316613d14811515614e75565b613d256402540be400831115614da3565b81600255806bffffffffffffffffffffffff60a01b600354161760035582519182526020820152a180f35b503461027b57606036600319011261027b5760043590602435906044356006811015610fe35783825260046020526040822093600185019160018060a01b0383541633148015613f93575b8015613f7d575b613dab90614c54565b73__$69ea93bdf3b1e5da8164bfe3d9a878d765$__803b15610fd457846040518092630252a86760e51b82528180613de68c60048301614c85565b03915af480156112f557908591613f68575b505084158015613f5e575b613e0c90614e06565b600286019360018060a01b038554161560405191613e29836149f0565b84835260208301978852613e41604084019485614e38565b60608301818152608084019180835260a08501938452600260c08601958287526007549b8c845260096020526040842091518255516001820155019551906006821015611299575092613ef48693613edb60609794613ec460209f987f867051316d0aafc6bf3704f0b32fa0e735bb03d37318b95179bdc1c5017467c09b614c3c565b51865461ff00191690151560081b61ff0016178655565b51845462ff0000191690151560101b62ff000016178455565b518254915164ffff0000001990921690151560181b63ff00000016179015158a1b64ff00000000161790555493549454604080516001600160a01b03928316815233818b015290810188905295811695941693a4613f53600754614bf6565b600755604051908152f35b5042851115613e03565b81613f7291614a3d565b61319b57835f613df8565b5060028601546001600160a01b03163314613da2565b5085546001600160a01b03163314613d9b565b50613fb036614802565b8385949392945260046020526040852090613fd26402540be400821115614da3565b6001820194613feb60018060a01b038754163314614c54565b8673__$69ea93bdf3b1e5da8164bfe3d9a878d765$__803b15610fe357816040518092630252a86760e51b825281806140278a60048301614c85565b03915af48015610fd8576142a3575b50506002830196875461404f60ff8260a81c1615614dd4565b83614289575b5033815260016020526040812060018060a01b0386165f5260205260405f205482811061409e575b5050908184612db2602095945f8051602061586c8339815191529733615555565b6140ac908392959493614d6c565b946140bd60ff865460a01c1661498e565b6140c8861515614da3565b6002549460405195631c8f084760e01b8752876004880152602487015260208660448173__$8537b7efa173772577da826929141ce939$__5af4958615611bfc578196614255575b506001600160a01b0382169081614193575061412c8688614f0e565b340361141e578660209661414f5f8051602061586c83398151915299853361561a565b5060035461416990829086906001600160a01b031661561a565b505b604051918252878201525f8051602061584c83398151915260403392a394819293945061407d565b61419d8789614f0e565b604051906323b872dd60e01b8252336004830152306024830152604482015260208160648185875af1918215610b1e578092614218575b5050156114c857866020966141f85f8051602061586c83398151915299853361561a565b5060035461421290829086906001600160a01b031661561a565b5061416b565b9091506020823d60201161424d575b8161423460209383614a3d565b8101031261027b575061424690614a73565b5f806141d4565b3d9150614227565b9095506020813d602011614281575b8161427160209383614a3d565b81010312610ad25751945f614110565b3d9150614264565b61429d906001600160a01b03161515614e06565b5f614055565b816142ad91614a3d565b612e4f57865f614036565b503461027b578060031936011261027b576003546040516001600160a01b039091168152602090f35b503461027b578060031936011261027b576020600854604051908152f35b5034610ad25761430e366147df565b929190815f52600460205260405f2090600182019360018060a01b0385541633148015614486575b61433f90614c54565b73__$69ea93bdf3b1e5da8164bfe3d9a878d765$__803b15610ad2575f6040518092630252a86760e51b8252818061437a8960048301614c85565b03915af4801561447b57614468575b506006830161439f8382546116048282106149bf565b905560018060a01b03600a84015416600884015460405190631c8f084760e01b8252846004830152602482015260208160448173__$8537b7efa173772577da826929141ce939$__5af4928315610b1e5792614427575b505f805160206157ac833981519152936116b3838361169d8b61061e9660018060a01b03875416611697868c614d6c565b9091506020813d602011614460575b8161444360209383614a3d565b81010312610ad25751905f805160206157ac8339815191526143f6565b3d9150614436565b61447491505f90614a3d565b5f80614389565b6040513d5f823e3d90fd5b5060028301546001600160a01b03163314614336565b34610ad2576102006145386144b03661474e565b926144ce60ff5f9d99979d9c969c9b9a9b9493945460a01c1661498e565b335f52600160205260405f2060018060a01b0382165f526020526144f88660405f205410156149bf565b614503868233615555565b5073__$69ea93bdf3b1e5da8164bfe3d9a878d765$__9a6040519c8d98899863652e83d760e01b8a528d8d3360048d01614b8a565b0381865af493841561447b575f94614701575b5060206005546102246040518096819363797d4ee160e01b8352614572600484018b6148ad565b6102048301525af492831561447b575f936146cd575b50614594600554614bf6565b6005555f83815260046020908152604091829020865181546001600160a01b03199081166001600160a01b0392831617835592880151600183018054851691831691909117905592870151600282018054909316931692909217815560608601519195909160038110156146b95782611172614613926101e095614c18565b60c0810151600387015560e081015160048701556101008101516005870155610120810151600680880191909155610140820151600788015561016082015160088801556101808201516009880180546001600160a01b039283166001600160a01b0319918216179091556101a0840151600a8a0180549190931691161790556101c0820151600b88015591015194908510156146b957602094600c6112559201614c3c565b634e487b7160e01b5f52602160045260245ffd5b9092506020813d6020116146f9575b816146e960209383614a3d565b81010312610ad257519184614588565b3d91506146dc565b61471b9194506102003d81116113285761131a8183614a3d565b928461454b565b602435906001600160a01b0382168203610ad257565b600435906001600160a01b0382168203610ad257565b610140906003190112610ad2576004356001600160a01b0381168103610ad257906024356001600160a01b0381168103610ad2579060443590606435906084359060a4359060c4356001600160a01b0381168103610ad2579060e4356001600160a01b0381168103610ad257906101043590610124356006811015610ad25790565b602435908115158203610ad257565b6060906003190112610ad25760043590602435906044358015158103610ad25790565b6080906003190112610ad257600435906024356001600160a01b0381168103610ad257906044359060643590565b60e0906003190112610ad2576004356001600160a01b0381168103610ad257906024356001600160a01b0381168103610ad2579060443590606435906084356001600160a01b0381168103610ad2579060a4359060c4356006811015610ad25790565b9060038210156146b95752565b9060068210156146b95752565b80516001600160a01b0390811683526020808301518216908401526040808301519091169083015260608082015161498c93926101e09283926148f291860190614893565b60808101511515608085015260a0810151151560a085015260c081015160c085015260e081015160e085015261010081015161010085015261012081015161012085015261014081015161014085015261016081015161016085015260018060a01b036101808201511661018085015260018060a01b036101a0820151166101a08501526101c08101516101c085015201519101906148a0565b565b1561499557565b60405162461bcd60e51b81526020600482015260026024820152614c3160f01b6044820152606490fd5b156149c657565b60405162461bcd60e51b8152602060048201526002602482015261543160f01b6044820152606490fd5b60e0810190811067ffffffffffffffff821117614a0c57604052565b634e487b7160e01b5f52604160045260245ffd5b610200810190811067ffffffffffffffff821117614a0c57604052565b90601f8019910116810190811067ffffffffffffffff821117614a0c57604052565b51906001600160a01b0382168203610ad257565b51908115158203610ad257565b9081610200910312610ad25760405190614a9982614a20565b614aa281614a5f565b8252614ab060208201614a5f565b6020830152614ac160408201614a5f565b60408301526060810151906003821015610ad2576101e0916060840152614aea60808201614a73565b6080840152614afb60a08201614a73565b60a084015260c081015160c084015260e081015160e0840152610100810151610100840152610120810151610120840152610140810151610140840152610160810151610160840152614b516101808201614a5f565b610180840152614b646101a08201614a5f565b6101a08401526101c08101516101c084015201516006811015610ad2576101e082015290565b6001600160a01b039182168152918116602083015291821660408201526060810192909252608082019290925260a081019290925260c082019290925291811660e08301529091166101008201526101208101919091526101608101929161498c9161014001906148a0565b5f198114614c045760010190565b634e487b7160e01b5f52601160045260245ffd5b9060038110156146b957815460ff60a01b191660a09190911b60ff60a01b16179055565b9060068110156146b95760ff80198354169116179055565b15614c5b57565b60405162461bcd60e51b8152602060048201526002602482015261443560f01b6044820152606490fd5b81546001600160a01b039081168252600183015481166020830152600283015490811660408301526102008201939261498c92916101e09160ff91600c91908390614cd96060880160a083901c8416614893565b60a881901c82161515608088015260b01c16151560a0860152600381015460c0860152600481015460e0860152600581015461010086015260068101546101208601526007810154610140860152600881015461016086015260098101546001600160a01b03908116610180870152600a820154166101a0860152600b8101546101c086015201549190920191166148a0565b91908203918211614c0457565b6001600160a01b039182168152911660208201526040810191909152606081019190915260800190565b15614daa57565b60405162461bcd60e51b8152602060048201526002602482015261433560f01b6044820152606490fd5b15614ddb57565b606460405162461bcd60e51b81526020600482015260046024820152632219171960e11b6044820152fd5b15614e0d57565b606460405162461bcd60e51b815260206004820152600460248201526344312e3160e01b6044820152fd5b60068210156146b95752565b15614e4b57565b60405162461bcd60e51b8152602060048201526002602482015261261960f11b6044820152606490fd5b15614e7c57565b60405162461bcd60e51b8152602060048201526002602482015261433160f01b6044820152606490fd5b6001600160a01b0391821681529181166020830152918216604082015260608101929092525f6080830181905260a083019390935260c0820183905290921660e08301526101008201526101208101919091526101608101929161498c9161014001906148a0565b91908201809211614c0457565b15614f2257565b606460405162461bcd60e51b815260206004820152600460248201526344332e3160e01b6044820152fd5b15614f5457565b606460405162461bcd60e51b815260206004820152600460248201526344322e3160e01b6044820152fd5b15614f8657565b60405162461bcd60e51b8152602060048201526002602482015261443360f01b6044820152606490fd5b15614fb757565b606460405162461bcd60e51b815260206004820152600460248201526343332e3160e01b6044820152fd5b90815f52600a60205260405f2080545f52600460205260405f2060018060a01b03815416331480156151da575b61501890614c54565b600482019283549061503060ff8360101c1615614fb0565b61517a5750600281018054909190615051906001600160a01b031615614fb0565b80546001600160a01b0316331461516a575b60018101546001600160a01b03163314615158575b835460ff8116908161514a575b506150db5750505060807fda0fdc90d2cac3c2211c13cf60368aceb049a3073b8be0b90792021888c55fc5915460ff604051913383528181161515602084015260081c16151560408201525f6060820152a25f90565b60028301546007820155600383015460089091015560018201805482546001600160a01b0319166001600160a01b0391821617909255549154604051908152911692507f957372c0e02d2882134cc0eebbef9e446634d8ccbb1cbb112bdefdd3cf0a643c9150602090a2600190565b60ff915060081c165f615085565b835461ff001916610100178455615078565b835460ff19166001178455615063565b90506080915060ff7fda0fdc90d2cac3c2211c13cf60368aceb049a3073b8be0b90792021888c55fc5936201000062ff0000198416178091558160405193338552161515602084015260081c161515604082015260016060820152a25f90565b5060018101546001600160a01b0316331461500f565b5f91815f52600960205260405f2080545f52600460205260405f2090600182019060018060a01b038254163314801561550c575b80156154f6575b61523490614c54565b600281019384549061524c60ff8360201c1615614fb0565b61547d575073__$69ea93bdf3b1e5da8164bfe3d9a878d765$__803b15610ad2575f6040518092630252a86760e51b8252818061528c8960048301614c85565b03915af4801561447b57615468575b50600181018054918215801561545e575b6152b590614e06565b84546001600160a01b0316331461544c575b83546001600160a01b03163314615438575b6002850180549093906001600160a01b03163314615422575b865460ff8160081c169081615413575b81615405575b506153705750505050505060a07fca0792b3957820bc249dd7664026ca960efe1500204314bf8161056d3847d526915460ff60405191338352818160081c1615156020840152818160101c161515604084015260181c1615156060820152846080820152a290565b8598509160ff7f932bd05aaee1f6600767846bab40eaabef608993e19645684d0a9fcb3335d37297926153ff9594600b60c09901556153b582855416600c8d01614c3c565b5499549554935491549254604080516001600160a01b039889168152958816602087015292909616918401919091523360608401526080830191909152909260a0840191166148a0565ba3600190565b60ff915060181c165f615308565b905060ff8160101c1690615302565b865463ff000000191663010000001787556152f2565b855462ff00001916620100001786556152d9565b855461ff0019166101001786556152c7565b50428311156152ac565b6154759196505f90614a3d565b5f945f61529b565b90507fca0792b3957820bc249dd7664026ca960efe1500204314bf8161056d3847d52694955060a0939250640100000000915064ff0000000019161780915560ff60405191338352818160081c1615156020840152818160101c161515604084015260181c161515606082015260016080820152a25f90565b5060028301546001600160a01b0316331461522b565b5082546001600160a01b03163314615224565b6040519061552c826149f0565b5f60c0838281528260208201528260408201528260608201528260808201528260a08201520152565b82156155f45760018060a01b031690815f52600160205260405f2060018060a01b0382165f526020528260405f2054106155ed577fd1398bee19313d6bf672ccb116e51f4a1a947e91c757907f51fbb5b5e56c698f60205f92848452600182526040842060018060a01b03821685528252604084206155d5878254614d6c565b90556040519586526001600160a01b031694a4600190565b5050505f90565b505050600190565b90929190156156115761560e9261561a565b90565b61560e92615675565b82156155f4577fd1398bee19313d6bf672ccb116e51f4a1a947e91c757907f51fbb5b5e56c698f60205f9260018060a01b031693848452600182526040842060018060a01b03821685528252604084206155d5878254614f0e565b919081156155f4576001600160a01b031691826156dd575f808080856001600160a01b03861682f11561447b5760207f2717ead6b9200dd235aad468c9809ea400fe33ac69b5bfaa6d3e90fc922b6398915b6040519384526001600160a01b031692a3600190565b60405163a9059cbb60e01b81526001600160a01b0382166004820152602481018390526020816044815f885af190811561447b575f91615771575b50156157475760207f2717ead6b9200dd235aad468c9809ea400fe33ac69b5bfaa6d3e90fc922b6398916156c7565b60405162461bcd60e51b8152602060048201526002602482015261543360f01b6044820152606490fd5b90506020813d6020116157a3575b8161578c60209383614a3d565b81010312610ad25761579d90614a73565b5f615718565b3d915061577f56fe8af39814826d4542f7fe66e6fa6ac2ac59bfc8221394f51a41dba5c54dba0ac9afbe337783658b293f1566e1790bfab9858b8cf08de944ca3cd013d4211887b8086c61b89ef5fcdb14c243b643069c3c6a84765b27f2a696b875dddf031afb4d9d5818ec36d6e85e8a30346f5fe41b65cc50cea2b868ae94f293d113c92a1338a6af192380b5ba311ac003f57efa2be0717f0e466318c7e9cf546c4937a03d94dcbc1c05240f31ff3ad067ef1ee35ce4997762752e3a095284754544f4c709d79f039f6754f2d286001d6bb50c1b3cc185b309e82f63077e29516a6a87e8e99da26469706673582212203d19424bf27cca48a4d0ee314aa019bd9da4aed5ff8b8f6467f9826c20ced15264736f6c634300081a0033",
			"opcodes": "PUSH1 0x80 CALLVALUE PUSH2 0x13A JUMPI PUSH1 0x1F PUSH2 0x5A14 CODESIZE DUP2 SWAP1 SUB SWAP2 DUP3 ADD PUSH1 0x1F NOT AND DUP4 ADD SWAP2 PUSH1 0x1 PUSH1 0x1 PUSH1 0x40 SHL SUB DUP4 GT DUP5 DUP5 LT OR PUSH2 0x13E JUMPI DUP1 DUP5 SWAP3 PUSH1 0x40 SWAP5 DUP6 MSTORE DUP4 CODECOPY DUP2 ADD SUB SLT PUSH2 0x13A JUMPI DUP1 MLOAD PUSH1 0x20 SWAP1 SWAP2 ADD MLOAD PUSH1 0x1 PUSH1 0x1 PUSH1 0xA0 SHL SUB DUP2 AND SWAP2 SWAP1 DUP3 SWAP1 SUB PUSH2 0x13A JUMPI PUSH0 DUP1 SLOAD PUSH1 0x1 PUSH1 0x1 PUSH1 0xA8 SHL SUB NOT AND CALLER OR PUSH1 0x1 PUSH1 0xA0 SHL OR DUP1 DUP3 SSTORE PUSH1 0x40 MLOAD SWAP2 PUSH1 0x1 PUSH1 0x1 PUSH1 0xA0 SHL SUB SWAP1 SWAP2 AND SWAP1 PUSH32 0x8BE0079C531659141344CD1FD0A4F28419497F9722A3DAAFE3B4186F6B6457E0 DUP2 DUP1 LOG3 DUP3 ISZERO PUSH2 0x113 JUMPI POP PUSH5 0x2540BE400 DUP2 GT PUSH2 0xE9 JUMPI PUSH1 0x2 SSTORE PUSH1 0x1 DUP1 PUSH1 0xA0 SHL SUB NOT PUSH1 0x3 SLOAD AND OR PUSH1 0x3 SSTORE PUSH0 PUSH1 0x5 SSTORE PUSH0 PUSH1 0x6 SSTORE PUSH0 PUSH1 0x7 SSTORE PUSH0 PUSH1 0x8 SSTORE PUSH1 0x40 MLOAD PUSH2 0x58C1 SWAP1 DUP2 PUSH2 0x153 DUP3 CODECOPY RETURN JUMPDEST PUSH1 0x40 MLOAD PUSH3 0x461BCD PUSH1 0xE5 SHL DUP2 MSTORE PUSH1 0x20 PUSH1 0x4 DUP3 ADD MSTORE PUSH1 0x2 PUSH1 0x24 DUP3 ADD MSTORE PUSH2 0x4335 PUSH1 0xF0 SHL PUSH1 0x44 DUP3 ADD MSTORE PUSH1 0x64 SWAP1 REVERT JUMPDEST PUSH3 0x461BCD PUSH1 0xE5 SHL DUP2 MSTORE PUSH1 0x20 PUSH1 0x4 DUP3 ADD MSTORE PUSH1 0x2 PUSH1 0x24 DUP3 ADD MSTORE PUSH2 0x4331 PUSH1 0xF0 SHL PUSH1 0x44 DUP3 ADD MSTORE PUSH1 0x64 SWAP1 REVERT JUMPDEST PUSH0 DUP1 REVERT JUMPDEST PUSH4 0x4E487B71 PUSH1 0xE0 SHL PUSH0 MSTORE PUSH1 0x41 PUSH1 0x4 MSTORE PUSH1 0x24 PUSH0 REVERT INVALID PUSH1 0x80 PUSH1 0x40 MSTORE PUSH1 0x4 CALLDATASIZE LT ISZERO PUSH2 0x11 JUMPI PUSH0 DUP1 REVERT JUMPDEST PUSH0 DUP1 CALLDATALOAD PUSH1 0xE0 SHR DUP1 PUSH3 0x7E8BD3 EQ PUSH2 0x449C JUMPI DUP1 PUSH4 0x1CAFAE3 EQ PUSH2 0x42FF JUMPI DUP1 PUSH4 0x2927459 EQ PUSH2 0x42E1 JUMPI DUP1 PUSH4 0x6FD154A EQ PUSH2 0x42B8 JUMPI DUP1 PUSH4 0x934DA22 EQ PUSH2 0x3FA6 JUMPI DUP1 PUSH4 0x1273C165 EQ PUSH2 0x3D50 JUMPI DUP1 PUSH4 0x15F8A314 EQ PUSH2 0x3CAC JUMPI DUP1 PUSH4 0x17B52B50 EQ PUSH2 0x3C4A JUMPI DUP1 PUSH4 0x28D5A050 EQ PUSH2 0x379F JUMPI DUP1 PUSH4 0x367EDD32 EQ PUSH2 0x3739 JUMPI DUP1 PUSH4 0x39B3EDB0 EQ PUSH2 0x3696 JUMPI DUP1 PUSH4 0x4187129C EQ PUSH2 0x35D4 JUMPI DUP1 PUSH4 0x41B3A0D9 EQ PUSH2 0x35AF JUMPI DUP1 PUSH4 0x47E7EF24 EQ PUSH2 0x33EC JUMPI DUP1 PUSH4 0x51A6FAD5 EQ PUSH2 0x325A JUMPI DUP1 PUSH4 0x53A78000 EQ PUSH2 0x31DC JUMPI DUP1 PUSH4 0x619C457E EQ PUSH2 0x31B5 JUMPI DUP1 PUSH4 0x6242C6CD EQ PUSH2 0x2E53 JUMPI DUP1 PUSH4 0x63ADB66F EQ PUSH2 0x2CB8 JUMPI DUP1 PUSH4 0x67C5545D EQ PUSH2 0x2981 JUMPI DUP1 PUSH4 0x70A08231 EQ PUSH2 0x2940 JUMPI DUP1 PUSH4 0x71AE8BCD EQ PUSH2 0x2919 JUMPI DUP1 PUSH4 0x80CCB070 EQ PUSH2 0x2846 JUMPI DUP1 PUSH4 0x81CD872A EQ PUSH2 0x2723 JUMPI DUP1 PUSH4 0x894BA833 EQ PUSH2 0x26C4 JUMPI DUP1 PUSH4 0x8DA5CB5B EQ PUSH2 0x269D JUMPI DUP1 PUSH4 0x8DEEA5FB EQ PUSH2 0x25A2 JUMPI DUP1 PUSH4 0x966D1F1D EQ PUSH2 0x2584 JUMPI DUP1 PUSH4 0x9905A1EA EQ PUSH2 0x23E2 JUMPI DUP1 PUSH4 0x9974F376 EQ PUSH2 0x23C4 JUMPI DUP1 PUSH4 0xA0849A33 EQ PUSH2 0x222C JUMPI DUP1 PUSH4 0xA471EE4F EQ PUSH2 0x2021 JUMPI DUP1 PUSH4 0xAD94B28B EQ PUSH2 0x1CF3 JUMPI DUP1 PUSH4 0xBA343F6D EQ PUSH2 0x1C1D JUMPI DUP1 PUSH4 0xBB06C1A4 EQ PUSH2 0x18D6 JUMPI DUP1 PUSH4 0xBEABACC8 EQ PUSH2 0x17E8 JUMPI DUP1 PUSH4 0xC15A25BF EQ PUSH2 0x1768 JUMPI DUP1 PUSH4 0xC23F001F EQ PUSH2 0x174C JUMPI DUP1 PUSH4 0xC2C257B9 EQ PUSH2 0x1564 JUMPI DUP1 PUSH4 0xCFADF6C7 EQ PUSH2 0xFFD JUMPI DUP1 PUSH4 0xD750158B EQ PUSH2 0xCB4 JUMPI DUP1 PUSH4 0xE08560A4 EQ PUSH2 0xC96 JUMPI DUP1 PUSH4 0xEB457329 EQ PUSH2 0xBBC JUMPI DUP1 PUSH4 0xEE026054 EQ PUSH2 0x3CF JUMPI DUP1 PUSH4 0xF2FDE38B EQ PUSH2 0x303 JUMPI DUP1 PUSH4 0xF3FEF3A3 EQ PUSH2 0x29C JUMPI DUP1 PUSH4 0xF5F6A8E4 EQ PUSH2 0x27E JUMPI PUSH4 0xF7888AEC EQ PUSH2 0x229 JUMPI PUSH0 DUP1 REVERT JUMPDEST CALLVALUE PUSH2 0x27B JUMPI PUSH1 0x40 CALLDATASIZE PUSH1 0x3 NOT ADD SLT PUSH2 0x27B JUMPI PUSH1 0x40 PUSH2 0x244 PUSH2 0x4738 JUMP JUMPDEST SWAP2 PUSH2 0x24D PUSH2 0x4722 JUMP JUMPDEST SWAP3 PUSH1 0x1 DUP1 PUSH1 0xA0 SHL SUB AND DUP2 MSTORE PUSH1 0x1 PUSH1 0x20 MSTORE KECCAK256 SWAP1 PUSH1 0x1 DUP1 PUSH1 0xA0 SHL SUB AND PUSH0 MSTORE PUSH1 0x20 MSTORE PUSH1 0x20 PUSH1 0x40 PUSH0 KECCAK256 SLOAD PUSH1 0x40 MLOAD SWAP1 DUP2 MSTORE RETURN JUMPDEST DUP1 REVERT JUMPDEST POP CALLVALUE PUSH2 0x27B JUMPI DUP1 PUSH1 0x3 NOT CALLDATASIZE ADD SLT PUSH2 0x27B JUMPI PUSH1 0x20 PUSH1 0x2 SLOAD PUSH1 0x40 MLOAD SWAP1 DUP2 MSTORE RETURN JUMPDEST POP CALLVALUE PUSH2 0x27B JUMPI PUSH1 0x40 CALLDATASIZE PUSH1 0x3 NOT ADD SLT PUSH2 0x27B JUMPI PUSH2 0x2F9 PUSH1 0x20 SWAP2 PUSH2 0x2BC PUSH2 0x4738 JUMP JUMPDEST PUSH1 0x40 PUSH1 0x24 CALLDATALOAD SWAP3 CALLER DUP2 MSTORE PUSH1 0x1 DUP7 MSTORE KECCAK256 PUSH1 0x1 DUP1 PUSH1 0xA0 SHL SUB DUP3 AND PUSH0 MSTORE DUP5 MSTORE PUSH2 0x2E7 DUP3 PUSH1 0x40 PUSH0 KECCAK256 SLOAD LT ISZERO PUSH2 0x49BF JUMP JUMPDEST PUSH2 0x2F2 DUP3 DUP3 CALLER PUSH2 0x5555 JUMP JUMPDEST POP CALLER PUSH2 0x5675 JUMP JUMPDEST PUSH1 0x40 MLOAD SWAP1 ISZERO ISZERO DUP2 MSTORE RETURN JUMPDEST POP CALLVALUE PUSH2 0x27B JUMPI PUSH1 0x20 CALLDATASIZE PUSH1 0x3 NOT ADD SLT PUSH2 0x27B JUMPI PUSH2 0x31D PUSH2 0x4738 JUMP JUMPDEST DUP2 SLOAD PUSH1 0x1 PUSH1 0x1 PUSH1 0xA0 SHL SUB DUP2 AND SWAP2 PUSH2 0x335 CALLER DUP5 EQ PUSH2 0x4E44 JUMP JUMPDEST PUSH1 0x1 PUSH1 0x1 PUSH1 0xA0 SHL SUB AND SWAP2 DUP3 ISZERO PUSH2 0x37B JUMPI DUP3 SWAP1 PUSH32 0x8BE0079C531659141344CD1FD0A4F28419497F9722A3DAAFE3B4186F6B6457E0 DUP6 DUP1 LOG3 PUSH1 0x1 PUSH1 0x1 PUSH1 0xA0 SHL SUB NOT AND OR DUP2 SSTORE DUP1 RETURN JUMPDEST PUSH1 0x40 MLOAD PUSH3 0x461BCD PUSH1 0xE5 SHL DUP2 MSTORE PUSH1 0x20 PUSH1 0x4 DUP3 ADD MSTORE PUSH1 0x26 PUSH1 0x24 DUP3 ADD MSTORE PUSH32 0x4F776E61626C653A206E6577206F776E657220697320746865207A65726F2061 PUSH1 0x44 DUP3 ADD MSTORE PUSH6 0x646472657373 PUSH1 0xD0 SHL PUSH1 0x64 DUP3 ADD MSTORE PUSH1 0x84 SWAP1 REVERT JUMPDEST POP CALLVALUE PUSH2 0x27B JUMPI PUSH1 0x40 CALLDATASIZE PUSH1 0x3 NOT ADD SLT PUSH2 0x27B JUMPI PUSH1 0x4 CALLDATALOAD PUSH2 0x3EC PUSH2 0x47D0 JUMP JUMPDEST SWAP1 DUP1 DUP4 MSTORE PUSH1 0x4 PUSH1 0x20 MSTORE PUSH1 0x40 DUP4 KECCAK256 SWAP1 PUSH1 0x1 DUP3 ADD SWAP2 PUSH1 0x1 DUP1 PUSH1 0xA0 SHL SUB DUP4 SLOAD AND CALLER EQ DUP1 ISZERO PUSH2 0xBA9 JUMPI JUMPDEST DUP1 ISZERO PUSH2 0xB93 JUMPI JUMPDEST PUSH2 0x422 SWAP1 PUSH2 0x4C54 JUMP JUMPDEST PUSH1 0x2 DUP2 ADD SWAP4 DUP5 SLOAD PUSH1 0xFF DUP2 PUSH1 0xB0 SHR AND ISZERO PUSH2 0xB69 JUMPI PUSH1 0xA0 SHR PUSH1 0xFF AND PUSH1 0x3 DUP2 LT ISZERO PUSH2 0xB55 JUMPI PUSH1 0x2 PUSH2 0x450 SWAP2 EQ PUSH2 0x4F7F JUMP JUMPDEST PUSH1 0xB DUP3 ADD SLOAD TIMESTAMP LT PUSH2 0xB2A JUMPI DUP6 PUSH1 0xFF PUSH1 0xC DUP5 ADD SLOAD AND SWAP2 PUSH1 0x5 DUP5 ADD SLOAD PUSH1 0x1 DUP1 PUSH1 0xA0 SHL SUB PUSH1 0x9 DUP7 ADD SLOAD AND SWAP2 PUSH1 0x6 DUP7 ADD SLOAD SWAP2 PUSH1 0x1 DUP1 PUSH1 0xA0 SHL SUB PUSH1 0xA DUP9 ADD SLOAD AND SWAP3 PUSH1 0x7 DUP9 ADD SLOAD SWAP7 PUSH1 0x8 DUP10 ADD SLOAD PUSH20 0x0 SWAP9 PUSH1 0x40 MLOAD SWAP1 PUSH4 0x1C8F0847 PUSH1 0xE0 SHL DUP3 MSTORE DUP6 PUSH1 0x4 DUP4 ADD MSTORE PUSH1 0x24 DUP3 ADD MSTORE PUSH1 0x20 DUP2 PUSH1 0x44 DUP2 DUP14 GAS DELEGATECALL SWAP9 DUP10 ISZERO PUSH2 0xB1E JUMPI SWAP9 PUSH2 0xAE9 JUMPI JUMPDEST POP PUSH1 0x20 SWAP1 PUSH1 0x44 PUSH1 0x40 MLOAD DUP1 SWAP12 DUP2 SWAP4 PUSH4 0x1C8F0847 PUSH1 0xE0 SHL DUP4 MSTORE DUP8 PUSH1 0x4 DUP5 ADD MSTORE PUSH1 0x24 DUP4 ADD MSTORE GAS DELEGATECALL SWAP8 DUP9 ISZERO PUSH2 0xADE JUMPI DUP14 SWAP9 PUSH2 0xAA6 JUMPI JUMPDEST POP PUSH1 0x6 DUP2 LT ISZERO PUSH2 0xA92 JUMPI SWAP3 DUP3 DUP3 PUSH1 0x4 DUP16 SWAP7 DUP16 SWAP7 SWAP8 DUP16 DUP16 SWAP1 PUSH0 DUP1 MLOAD PUSH1 0x20 PUSH2 0x57EC DUP4 CODECOPY DUP2 MLOAD SWAP2 MSTORE SWAP16 SWAP14 SWAP12 SWAP9 SWAP2 PUSH2 0x61E SWAP16 SWAP14 SWAP12 DUP16 DUP16 DUP16 SWAP1 DUP16 SWAP3 DUP16 SWAP8 SWAP5 DUP16 SWAP6 DUP16 SWAP7 DUP8 DUP10 DUP5 DUP16 DUP16 DUP16 DUP16 SWAP1 DUP2 DUP15 DUP14 DUP16 SWAP5 PUSH1 0x1 DUP16 SWAP9 DUP15 SWAP9 DUP9 DUP16 SWAP5 DUP16 DUP16 SWAP1 DUP16 DUP16 SWAP1 DUP16 SWAP2 DUP6 DUP16 SWAP2 SWAP5 DUP6 DUP16 DUP16 SWAP10 DUP16 SWAP9 DUP11 DUP16 DUP11 DUP16 SWAP5 DUP16 DUP8 SWAP1 DUP16 SWAP3 DUP12 SWAP8 DUP16 SWAP5 DUP16 SWAP8 ISZERO PUSH2 0x9AA JUMPI JUMPDEST POP POP POP POP POP POP POP POP POP POP POP PUSH1 0x2 DUP14 EQ PUSH2 0x8AB JUMPI JUMPDEST POP POP POP POP POP POP POP POP POP POP POP POP EQ PUSH2 0x7BD JUMPI JUMPDEST POP POP POP POP POP POP POP POP POP POP POP PUSH1 0x3 DUP14 EQ PUSH2 0x720 JUMPI JUMPDEST POP POP POP POP POP POP POP POP POP POP POP POP EQ PUSH2 0x62C JUMPI JUMPDEST POP POP DUP12 SLOAD PUSH1 0x1 PUSH1 0xA0 SHL PUSH1 0xFF PUSH1 0xA0 SHL NOT DUP3 AND OR SWAP1 SWAP13 SSTORE POP POP SWAP4 SLOAD SWAP8 SLOAD PUSH1 0x40 DUP1 MLOAD PUSH1 0x1 PUSH1 0x1 PUSH1 0xA0 SHL SUB SWAP12 DUP13 AND DUP2 MSTORE CALLER PUSH1 0x20 DUP3 ADD MSTORE SWAP2 DUP12 AND SWAP11 SWAP1 SWAP10 AND SWAP9 SWAP1 SWAP6 DUP7 SWAP6 POP SWAP1 DUP6 ADD SWAP4 POP SWAP2 POP POP JUMP JUMPDEST SUB SWAP1 LOG4 PUSH1 0x20 PUSH1 0x40 MLOAD PUSH1 0x1 DUP2 MSTORE RETURN JUMPDEST DUP6 DUP9 SWAP6 PUSH2 0x67D DUP10 SWAP4 PUSH2 0x65B PUSH2 0x68E SWAP7 PUSH2 0x6A0 SWAP12 PUSH2 0x654 DUP9 PUSH1 0x1 DUP1 PUSH1 0xA0 SHL SUB PUSH1 0x3 SLOAD AND SWAP4 PUSH2 0x4D6C JUMP JUMPDEST SWAP2 DUP11 PUSH2 0x55FC JUMP JUMPDEST POP PUSH1 0x3 SLOAD PUSH1 0x1 PUSH1 0x1 PUSH1 0xA0 SHL SUB AND SWAP1 DUP9 SWAP1 PUSH2 0x676 SWAP1 DUP12 SWAP1 PUSH2 0x4D6C JUMP JUMPDEST SWAP2 DUP9 PUSH2 0x55FC JUMP JUMPDEST POP SLOAD PUSH1 0x1 PUSH1 0x1 PUSH1 0xA0 SHL SUB AND DUP5 PUSH2 0x55FC JUMP JUMPDEST POP DUP12 SLOAD PUSH1 0x1 PUSH1 0x1 PUSH1 0xA0 SHL SUB AND SWAP1 PUSH2 0x55FC JUMP JUMPDEST POP DUP3 SLOAD DUP8 SLOAD DUP10 SLOAD PUSH1 0x3 SLOAD PUSH1 0x40 DUP1 MLOAD PUSH1 0x1 PUSH1 0x1 PUSH1 0xA0 SHL SUB SWAP4 DUP5 AND DUP2 MSTORE CALLER PUSH1 0x20 DUP3 ADD MSTORE SWAP2 DUP4 AND SWAP1 DUP3 ADD MSTORE PUSH1 0x60 DUP2 ADD DUP6 SWAP1 MSTORE PUSH1 0x80 DUP2 ADD DUP7 SWAP1 MSTORE PUSH1 0xA0 DUP2 ADD SWAP5 SWAP1 SWAP5 MSTORE PUSH1 0xC0 DUP5 ADD SWAP5 SWAP1 SWAP5 MSTORE DUP4 AND SWAP3 AND SWAP1 DUP7 SWAP1 PUSH32 0x8E100DC3335E09B082C843425F71EA8AE9D91AE5BB385EF4B41D0D2C6AA87214 SWAP1 PUSH1 0xE0 SWAP1 LOG4 DUP7 DUP1 DUP1 DUP9 DUP2 DUP1 DUP1 DUP1 PUSH2 0x5D5 JUMP JUMPDEST PUSH32 0x8E100DC3335E09B082C843425F71EA8AE9D91AE5BB385EF4B41D0D2C6AA87214 SWAP8 PUSH2 0x68E PUSH2 0x75D SWAP5 PUSH1 0xE0 SWAP10 DUP15 PUSH1 0x1 DUP1 PUSH1 0xA0 SHL SUB SWAP1 SLOAD AND DUP5 PUSH2 0x55FC JUMP JUMPDEST POP PUSH1 0x1 DUP1 PUSH1 0xA0 SHL SUB SWAP1 SLOAD AND SWAP6 PUSH1 0x1 DUP1 PUSH1 0xA0 SHL SUB SWAP1 SLOAD AND SWAP7 PUSH1 0x1 DUP1 PUSH1 0xA0 SHL SUB SWAP1 SLOAD AND SWAP2 PUSH1 0x40 MLOAD SWAP3 DUP1 DUP5 MSTORE CALLER PUSH1 0x20 DUP6 ADD MSTORE PUSH1 0x40 DUP5 ADD MSTORE PUSH1 0x60 DUP4 ADD MSTORE PUSH1 0x80 DUP3 ADD MSTORE DUP7 PUSH1 0xA0 DUP3 ADD MSTORE DUP7 PUSH1 0xC0 DUP3 ADD MSTORE LOG4 DUP16 DUP16 SWAP1 DUP10 SWAP2 DUP9 DUP16 DUP16 DUP16 SWAP1 DUP16 SWAP3 DUP13 DUP16 DUP14 SWAP1 PUSH2 0x5C3 JUMP JUMPDEST PUSH0 DUP1 MLOAD PUSH1 0x20 PUSH2 0x582C DUP4 CODECOPY DUP2 MLOAD SWAP2 MSTORE SWAP11 PUSH2 0x837 PUSH0 DUP1 MLOAD PUSH1 0x20 PUSH2 0x57AC DUP4 CODECOPY DUP2 MLOAD SWAP2 MSTORE SWAP10 PUSH2 0x81A DUP10 DUP8 DUP16 SWAP15 PUSH2 0x808 SWAP1 PUSH2 0x849 SWAP11 PUSH2 0x801 DUP6 PUSH1 0x1 DUP1 PUSH1 0xA0 SHL SUB DUP10 SLOAD AND SWAP4 PUSH2 0x4D6C JUMP JUMPDEST SWAP2 DUP10 PUSH2 0x55FC JUMP JUMPDEST POP DUP11 SLOAD PUSH1 0x1 PUSH1 0x1 PUSH1 0xA0 SHL SUB AND DUP7 PUSH2 0x55FC JUMP JUMPDEST POP SLOAD PUSH1 0x1 PUSH1 0x1 PUSH1 0xA0 SHL SUB AND DUP4 PUSH2 0x830 DUP7 DUP13 PUSH2 0x4D6C JUMP JUMPDEST SWAP2 DUP5 PUSH2 0x55FC JUMP JUMPDEST POP DUP6 SLOAD PUSH1 0x1 PUSH1 0x1 PUSH1 0xA0 SHL SUB AND SWAP1 PUSH2 0x55FC JUMP JUMPDEST POP PUSH1 0x1 DUP1 PUSH1 0xA0 SHL SUB DUP13 SLOAD AND SWAP7 DUP8 SWAP2 PUSH1 0x1 DUP1 PUSH1 0xA0 SHL SUB SWAP1 SLOAD AND SWAP9 DUP10 SWAP4 PUSH1 0x1 DUP1 PUSH1 0xA0 SHL SUB SWAP1 SLOAD AND SWAP5 DUP14 PUSH2 0x881 PUSH1 0x40 MLOAD SWAP3 DUP4 SWAP3 CALLER DUP11 DUP6 PUSH2 0x4D79 JUMP JUMPDEST SUB SWAP1 LOG4 PUSH2 0x896 DUP12 PUSH1 0x40 MLOAD SWAP4 DUP5 SWAP4 CALLER SWAP1 DUP6 PUSH2 0x4D79 JUMP JUMPDEST SUB SWAP1 LOG4 DUP8 DUP10 DUP5 DUP7 DUP6 DUP16 DUP16 SWAP1 DUP13 SWAP2 DUP15 DUP14 DUP11 PUSH2 0x5AF JUMP JUMPDEST PUSH32 0xF05D33634B730E763D232B482CF835A4481835F62D0A0973B42018A8EAD4F047 SWAP10 PUSH0 DUP1 MLOAD PUSH1 0x20 PUSH2 0x57CC DUP4 CODECOPY DUP2 MLOAD SWAP2 MSTORE SWAP9 DUP16 SWAP5 PUSH2 0x91B DUP15 DUP6 PUSH2 0x909 DUP16 SWAP10 PUSH2 0x948 SWAP9 PUSH2 0x902 DUP16 SWAP3 DUP15 DUP2 DUP9 SWAP3 PUSH1 0xA0 SHL SUB SWAP1 SLOAD AND SWAP4 PUSH2 0x4D6C JUMP JUMPDEST SWAP2 DUP8 PUSH2 0x55FC JUMP JUMPDEST POP DUP11 SLOAD PUSH1 0x1 PUSH1 0x1 PUSH1 0xA0 SHL SUB AND DUP5 PUSH2 0x55FC JUMP JUMPDEST POP DUP7 SLOAD PUSH2 0x936 SWAP1 PUSH1 0x1 PUSH1 0x1 PUSH1 0xA0 SHL SUB AND DUP4 PUSH2 0x830 DUP7 DUP15 PUSH2 0x4D6C JUMP JUMPDEST POP DUP8 SLOAD PUSH1 0x1 PUSH1 0x1 PUSH1 0xA0 SHL SUB AND SWAP1 PUSH2 0x55FC JUMP JUMPDEST POP DUP13 DUP1 PUSH1 0xA0 SHL SUB SWAP1 SLOAD AND SWAP8 DUP9 SWAP3 DUP14 DUP1 PUSH1 0xA0 SHL SUB SWAP1 SLOAD AND SWAP10 DUP11 SWAP5 DUP15 DUP1 PUSH1 0xA0 SHL SUB SWAP1 SLOAD AND SWAP6 PUSH2 0x97C PUSH1 0x40 MLOAD SWAP3 DUP4 SWAP3 CALLER DUP11 DUP6 PUSH2 0x4D79 JUMP JUMPDEST SUB SWAP1 LOG4 PUSH2 0x991 DUP12 PUSH1 0x40 MLOAD SWAP4 DUP5 SWAP4 CALLER SWAP1 DUP6 PUSH2 0x4D79 JUMP JUMPDEST SUB SWAP1 LOG4 DUP9 DUP6 DUP16 DUP16 SWAP1 DUP16 DUP16 SWAP1 DUP16 SWAP2 DUP14 DUP16 SWAP2 SWAP5 DUP13 SWAP6 DUP16 PUSH2 0x59D JUMP JUMPDEST PUSH1 0x1 SWAP10 PUSH0 DUP1 MLOAD PUSH1 0x20 PUSH2 0x57CC DUP4 CODECOPY DUP2 MLOAD SWAP2 MSTORE SWAP9 PUSH2 0xA24 PUSH2 0xA35 SWAP6 PUSH2 0xA07 DUP16 PUSH0 DUP1 MLOAD PUSH1 0x20 PUSH2 0x582C DUP4 CODECOPY DUP2 MLOAD SWAP2 MSTORE SWAP16 SWAP11 PUSH2 0x9F5 DUP14 DUP3 PUSH2 0x654 PUSH2 0xA7D SWAP16 DUP16 SWAP14 DUP2 DUP9 SWAP3 PUSH1 0xA0 SHL SUB SWAP1 SLOAD AND SWAP4 PUSH2 0x4D6C JUMP JUMPDEST POP DUP6 SLOAD PUSH1 0x1 PUSH1 0x1 PUSH1 0xA0 SHL SUB AND DUP8 PUSH2 0x55FC JUMP JUMPDEST POP SLOAD PUSH1 0x1 PUSH1 0x1 PUSH1 0xA0 SHL SUB AND DUP5 PUSH2 0xA1D DUP8 DUP14 PUSH2 0x4D6C JUMP JUMPDEST SWAP2 DUP6 PUSH2 0x55FC JUMP JUMPDEST POP SLOAD PUSH1 0x1 PUSH1 0x1 PUSH1 0xA0 SHL SUB AND SWAP1 PUSH2 0x55FC JUMP JUMPDEST POP DUP10 SLOAD DUP13 SLOAD DUP15 SLOAD PUSH1 0x40 MLOAD PUSH1 0x1 PUSH1 0x1 PUSH1 0xA0 SHL SUB SWAP3 DUP4 AND SWAP12 SWAP4 DUP4 AND SWAP11 SWAP2 SWAP1 SWAP3 AND SWAP6 DUP12 SWAP4 DUP12 SWAP4 DUP12 SWAP4 SWAP3 SWAP1 SWAP2 DUP3 SWAP2 PUSH2 0xA6C SWAP2 SWAP1 CALLER DUP13 DUP6 PUSH2 0x4D79 JUMP JUMPDEST SUB SWAP1 LOG4 PUSH1 0x40 MLOAD SWAP4 DUP5 SWAP4 CALLER SWAP1 DUP6 PUSH2 0x4D79 JUMP JUMPDEST SUB SWAP1 LOG4 DUP11 DUP4 DUP11 DUP8 DUP11 DUP11 DUP16 DUP8 SWAP1 DUP16 DUP11 DUP14 SWAP2 PUSH2 0x589 JUMP JUMPDEST PUSH4 0x4E487B71 PUSH1 0xE0 SHL DUP14 MSTORE PUSH1 0x21 PUSH1 0x4 MSTORE PUSH1 0x24 DUP14 REVERT JUMPDEST SWAP1 SWAP8 POP PUSH1 0x20 DUP2 RETURNDATASIZE PUSH1 0x20 GT PUSH2 0xAD6 JUMPI JUMPDEST DUP2 PUSH2 0xAC2 PUSH1 0x20 SWAP4 DUP4 PUSH2 0x4A3D JUMP JUMPDEST DUP2 ADD SUB SLT PUSH2 0xAD2 JUMPI MLOAD SWAP7 PUSH0 PUSH2 0x50E JUMP JUMPDEST PUSH0 DUP1 REVERT JUMPDEST RETURNDATASIZE SWAP2 POP PUSH2 0xAB5 JUMP JUMPDEST PUSH1 0x40 MLOAD RETURNDATASIZE DUP16 DUP3 RETURNDATACOPY RETURNDATASIZE SWAP1 REVERT JUMPDEST SWAP1 SWAP8 POP PUSH1 0x20 DUP2 RETURNDATASIZE PUSH1 0x20 GT PUSH2 0xB16 JUMPI JUMPDEST DUP2 PUSH2 0xB05 PUSH1 0x20 SWAP4 DUP4 PUSH2 0x4A3D JUMP JUMPDEST DUP2 ADD SUB SLT PUSH2 0xAD2 JUMPI MLOAD SWAP7 PUSH1 0x20 PUSH2 0x4DC JUMP JUMPDEST RETURNDATASIZE SWAP2 POP PUSH2 0xAF8 JUMP JUMPDEST PUSH1 0x40 MLOAD SWAP1 RETURNDATASIZE SWAP1 DUP3 RETURNDATACOPY RETURNDATASIZE SWAP1 REVERT JUMPDEST PUSH1 0x64 PUSH1 0x40 MLOAD PUSH3 0x461BCD PUSH1 0xE5 SHL DUP2 MSTORE PUSH1 0x20 PUSH1 0x4 DUP3 ADD MSTORE PUSH1 0x4 PUSH1 0x24 DUP3 ADD MSTORE PUSH4 0x22189719 PUSH1 0xE1 SHL PUSH1 0x44 DUP3 ADD MSTORE REVERT JUMPDEST PUSH4 0x4E487B71 PUSH1 0xE0 SHL DUP8 MSTORE PUSH1 0x21 PUSH1 0x4 MSTORE PUSH1 0x24 DUP8 REVERT JUMPDEST PUSH1 0x40 MLOAD PUSH3 0x461BCD PUSH1 0xE5 SHL DUP2 MSTORE PUSH1 0x20 PUSH1 0x4 DUP3 ADD MSTORE PUSH1 0x2 PUSH1 0x24 DUP3 ADD MSTORE PUSH2 0x2219 PUSH1 0xF1 SHL PUSH1 0x44 DUP3 ADD MSTORE PUSH1 0x64 SWAP1 REVERT JUMPDEST POP PUSH1 0x2 DUP2 ADD SLOAD PUSH1 0x1 PUSH1 0x1 PUSH1 0xA0 SHL SUB AND CALLER EQ PUSH2 0x419 JUMP JUMPDEST POP DUP1 SLOAD PUSH1 0x1 PUSH1 0x1 PUSH1 0xA0 SHL SUB AND CALLER EQ PUSH2 0x412 JUMP JUMPDEST POP CALLVALUE PUSH2 0x27B JUMPI PUSH1 0x20 CALLDATASIZE PUSH1 0x3 NOT ADD SLT PUSH2 0x27B JUMPI PUSH1 0x40 PUSH1 0xE0 SWAP2 PUSH2 0xBDB PUSH2 0x551F JUMP JUMPDEST POP PUSH1 0x4 CALLDATALOAD DUP2 MSTORE PUSH1 0x9 PUSH1 0x20 MSTORE KECCAK256 PUSH1 0x40 MLOAD SWAP1 PUSH2 0xBF4 DUP3 PUSH2 0x49F0 JUMP JUMPDEST DUP1 SLOAD DUP3 MSTORE PUSH1 0x2 PUSH1 0x1 DUP3 ADD SLOAD SWAP2 PUSH1 0x20 DUP5 ADD SWAP3 DUP4 MSTORE ADD SLOAD SWAP1 PUSH1 0x40 DUP4 ADD PUSH2 0xC1B PUSH1 0xFF DUP5 AND DUP3 PUSH2 0x4E38 JUMP JUMPDEST PUSH1 0x60 DUP5 ADD PUSH1 0xFF DUP5 PUSH1 0x8 SHR AND ISZERO ISZERO DUP2 MSTORE PUSH2 0xC74 PUSH1 0x80 DUP7 ADD SWAP3 PUSH1 0xFF DUP7 PUSH1 0x10 SHR AND ISZERO ISZERO DUP5 MSTORE PUSH1 0xA0 DUP8 ADD SWAP5 PUSH1 0xFF DUP8 PUSH1 0x18 SHR AND ISZERO ISZERO DUP7 MSTORE PUSH1 0xFF PUSH1 0xC0 DUP10 ADD SWAP8 PUSH1 0x20 SHR AND ISZERO ISZERO DUP8 MSTORE PUSH1 0x40 MLOAD SWAP8 MLOAD DUP9 MSTORE MLOAD PUSH1 0x20 DUP9 ADD MSTORE MLOAD PUSH1 0x40 DUP8 ADD SWAP1 PUSH2 0x48A0 JUMP JUMPDEST MLOAD ISZERO ISZERO PUSH1 0x60 DUP6 ADD MSTORE MLOAD ISZERO ISZERO PUSH1 0x80 DUP5 ADD MSTORE MLOAD ISZERO ISZERO PUSH1 0xA0 DUP4 ADD MSTORE MLOAD ISZERO ISZERO PUSH1 0xC0 DUP3 ADD MSTORE RETURN JUMPDEST POP CALLVALUE PUSH2 0x27B JUMPI DUP1 PUSH1 0x3 NOT CALLDATASIZE ADD SLT PUSH2 0x27B JUMPI PUSH1 0x20 PUSH1 0x6 SLOAD PUSH1 0x40 MLOAD SWAP1 DUP2 MSTORE RETURN JUMPDEST POP CALLVALUE PUSH2 0x27B JUMPI PUSH1 0x40 CALLDATASIZE PUSH1 0x3 NOT ADD SLT PUSH2 0x27B JUMPI PUSH1 0x4 CALLDATALOAD PUSH2 0xCD1 PUSH2 0x47D0 JUMP JUMPDEST DUP2 DUP4 MSTORE PUSH1 0x4 PUSH1 0x20 MSTORE PUSH1 0x40 DUP4 KECCAK256 SWAP1 PUSH1 0x1 DUP3 ADD SWAP1 PUSH1 0x1 DUP1 PUSH1 0xA0 SHL SUB DUP3 SLOAD AND CALLER EQ DUP1 ISZERO PUSH2 0xFE7 JUMPI JUMPDEST PUSH2 0xCFF SWAP1 PUSH2 0x4C54 JUMP JUMPDEST DUP5 PUSH20 0x0 DUP1 EXTCODESIZE ISZERO PUSH2 0xFE3 JUMPI DUP2 PUSH1 0x40 MLOAD DUP1 SWAP3 PUSH4 0x252A867 PUSH1 0xE5 SHL DUP3 MSTORE DUP2 DUP1 PUSH2 0xD3B DUP11 PUSH1 0x4 DUP4 ADD PUSH2 0x4C85 JUMP JUMPDEST SUB SWAP2 GAS DELEGATECALL DUP1 ISZERO PUSH2 0xFD8 JUMPI PUSH2 0xFBF JUMPI JUMPDEST POP POP PUSH1 0x5 DUP4 ADD SLOAD PUSH1 0x9 DUP5 ADD SLOAD PUSH1 0x6 DUP6 ADD SLOAD PUSH1 0xA DUP7 ADD SLOAD PUSH1 0x7 DUP8 ADD SLOAD PUSH1 0x8 DUP9 ADD SLOAD PUSH1 0x40 MLOAD PUSH4 0x1C8F0847 PUSH1 0xE0 SHL DUP2 MSTORE PUSH1 0x4 DUP2 ADD DUP8 SWAP1 MSTORE PUSH1 0x24 DUP2 ADD SWAP3 SWAP1 SWAP3 MSTORE PUSH1 0x1 PUSH1 0x1 PUSH1 0xA0 SHL SUB SWAP5 DUP6 AND SWAP9 SWAP6 SWAP8 SWAP2 SWAP7 SWAP2 SWAP6 SWAP4 SWAP5 PUSH20 0x0 SWAP5 SWAP4 AND SWAP1 PUSH1 0x20 DUP9 PUSH1 0x44 DUP2 DUP9 GAS DELEGATECALL SWAP8 DUP9 ISZERO PUSH2 0xFB4 JUMPI DUP13 SWAP9 PUSH2 0xF7F JUMPI JUMPDEST POP PUSH1 0x20 SWAP1 PUSH1 0x44 PUSH1 0x40 MLOAD DUP1 SWAP8 DUP2 SWAP4 PUSH4 0x1C8F0847 PUSH1 0xE0 SHL DUP4 MSTORE DUP11 PUSH1 0x4 DUP5 ADD MSTORE PUSH1 0x24 DUP4 ADD MSTORE GAS DELEGATECALL SWAP4 DUP5 ISZERO PUSH2 0xF74 JUMPI DUP11 SWAP12 SWAP11 SWAP10 SWAP11 SWAP5 PUSH2 0xF34 JUMPI JUMPDEST POP DUP3 SLOAD DUP10 SWAP6 SWAP5 SWAP4 SWAP3 SWAP2 DUP5 SWAP2 PUSH1 0x1 PUSH1 0x1 PUSH1 0xA0 SHL SUB AND DUP13 PUSH2 0xE1F DUP12 DUP14 PUSH2 0x4D6C JUMP JUMPDEST SWAP1 PUSH2 0xE2A SWAP3 DUP7 PUSH2 0x55FC JUMP JUMPDEST POP PUSH1 0x2 DUP5 ADD DUP1 SLOAD SWAP1 SWAP13 PUSH2 0xE49 SWAP2 DUP12 SWAP2 SWAP1 PUSH1 0x1 PUSH1 0x1 PUSH1 0xA0 SHL SUB AND DUP7 PUSH2 0x55FC JUMP JUMPDEST POP DUP8 SLOAD PUSH1 0x1 PUSH1 0x1 PUSH1 0xA0 SHL SUB AND DUP2 PUSH2 0xE60 DUP9 DUP1 PUSH2 0x4D6C JUMP JUMPDEST SWAP1 PUSH2 0xE6B SWAP3 DUP7 PUSH2 0x55FC JUMP JUMPDEST POP DUP12 SLOAD PUSH2 0xE83 SWAP4 PUSH1 0x1 PUSH1 0x1 PUSH1 0xA0 SHL SUB SWAP1 SWAP2 AND SWAP1 PUSH2 0x55FC JUMP JUMPDEST POP DUP9 SLOAD PUSH1 0xFF PUSH1 0xA0 SHL NOT DUP2 AND PUSH1 0x1 PUSH1 0xA0 SHL OR SWAP1 SWAP10 SSTORE SLOAD SWAP4 SLOAD PUSH1 0x40 MLOAD PUSH1 0x1 PUSH1 0x1 PUSH1 0xA0 SHL SUB SWAP2 DUP3 AND SWAP11 SWAP6 DUP3 AND SWAP10 SWAP2 SWAP1 SWAP2 AND SWAP7 DUP11 SWAP7 DUP11 SWAP7 DUP9 SWAP4 DUP9 SWAP4 SWAP2 SWAP3 SWAP1 SWAP2 DUP3 SWAP2 PUSH2 0xECC SWAP2 CALLER DUP15 DUP6 PUSH2 0x4D79 JUMP JUMPDEST SUB PUSH0 DUP1 MLOAD PUSH1 0x20 PUSH2 0x582C DUP4 CODECOPY DUP2 MLOAD SWAP2 MSTORE SWAP2 LOG4 PUSH1 0x40 MLOAD SWAP2 DUP3 SWAP2 PUSH2 0xEEF SWAP2 CALLER DUP10 DUP6 PUSH2 0x4D79 JUMP JUMPDEST SUB PUSH0 DUP1 MLOAD PUSH1 0x20 PUSH2 0x57CC DUP4 CODECOPY DUP2 MLOAD SWAP2 MSTORE SWAP2 LOG4 PUSH1 0x40 DUP1 MLOAD PUSH1 0x1 PUSH1 0x1 PUSH1 0xA0 SHL SUB SWAP3 SWAP1 SWAP3 AND DUP3 MSTORE CALLER PUSH1 0x20 DUP4 ADD MSTORE PUSH0 DUP1 MLOAD PUSH1 0x20 PUSH2 0x57EC DUP4 CODECOPY DUP2 MLOAD SWAP2 MSTORE SWAP2 LOG4 PUSH1 0x40 MLOAD PUSH1 0x1 DUP2 MSTORE PUSH1 0x20 SWAP1 RETURN JUMPDEST SWAP5 SWAP4 POP SWAP2 SWAP1 SWAP8 POP PUSH1 0x20 DUP5 RETURNDATASIZE PUSH1 0x20 GT PUSH2 0xF6C JUMPI JUMPDEST DUP2 PUSH2 0xF54 PUSH1 0x20 SWAP4 DUP4 PUSH2 0x4A3D JUMP JUMPDEST DUP2 ADD SUB SLT PUSH2 0xAD2 JUMPI DUP10 SWAP8 DUP9 SWAP5 MLOAD SWAP4 SWAP5 SWAP3 SWAP1 SWAP2 SWAP3 PUSH2 0xE00 JUMP JUMPDEST RETURNDATASIZE SWAP2 POP PUSH2 0xF47 JUMP JUMPDEST PUSH1 0x40 MLOAD RETURNDATASIZE DUP14 DUP3 RETURNDATACOPY RETURNDATASIZE SWAP1 REVERT JUMPDEST SWAP1 SWAP8 POP PUSH1 0x20 DUP2 RETURNDATASIZE PUSH1 0x20 GT PUSH2 0xFAC JUMPI JUMPDEST DUP2 PUSH2 0xF9B PUSH1 0x20 SWAP4 DUP4 PUSH2 0x4A3D JUMP JUMPDEST DUP2 ADD SUB SLT PUSH2 0xAD2 JUMPI MLOAD SWAP7 PUSH1 0x20 PUSH2 0xDCA JUMP JUMPDEST RETURNDATASIZE SWAP2 POP PUSH2 0xF8E JUMP JUMPDEST PUSH1 0x40 MLOAD RETURNDATASIZE DUP15 DUP3 RETURNDATACOPY RETURNDATASIZE SWAP1 REVERT JUMPDEST DUP2 PUSH2 0xFC9 SWAP2 PUSH2 0x4A3D JUMP JUMPDEST PUSH2 0xFD4 JUMPI DUP5 PUSH0 PUSH2 0xD4A JUMP JUMPDEST DUP5 DUP1 REVERT JUMPDEST PUSH1 0x40 MLOAD RETURNDATASIZE DUP5 DUP3 RETURNDATACOPY RETURNDATASIZE SWAP1 REVERT JUMPDEST POP DUP1 REVERT JUMPDEST POP PUSH1 0x2 DUP4 ADD SLOAD PUSH1 0x1 PUSH1 0x1 PUSH1 0xA0 SHL SUB AND CALLER EQ PUSH2 0xCF6 JUMP JUMPDEST POP PUSH2 0x1007 CALLDATASIZE PUSH2 0x474E JUMP JUMPDEST SWAP2 SWAP1 SWAP5 SWAP3 DUP9 SWAP5 DUP11 SWAP9 SWAP8 SWAP11 SWAP5 DUP13 PUSH1 0x40 PUSH1 0xFF DUP3 SLOAD PUSH1 0xA0 SHR AND SWAP2 PUSH2 0x1027 DUP4 PUSH2 0x498E JUMP JUMPDEST CALLER DUP2 MSTORE PUSH1 0x1 PUSH1 0x20 MSTORE KECCAK256 PUSH1 0x1 DUP1 PUSH1 0xA0 SHL SUB DUP6 AND PUSH0 MSTORE PUSH1 0x20 MSTORE PUSH1 0x40 PUSH0 KECCAK256 SLOAD DUP11 DUP2 LT PUSH2 0x132F JUMPI JUMPDEST POP POP SWAP2 PUSH2 0x1098 SWAP5 SWAP4 SWAP2 PUSH2 0x200 SWAP9 SWAP4 PUSH2 0x1064 DUP12 DUP5 CALLER PUSH2 0x5555 JUMP JUMPDEST POP PUSH1 0x40 MLOAD PUSH4 0x652E83D7 PUSH1 0xE0 SHL DUP2 MSTORE PUSH20 0x0 SWAP15 SWAP1 SWAP12 DUP13 SWAP11 DUP12 SWAP11 CALLER PUSH1 0x4 DUP14 ADD PUSH2 0x4B8A JUMP JUMPDEST SUB DUP2 DUP8 GAS DELEGATECALL SWAP1 DUP2 ISZERO PUSH2 0x12F5 JUMPI DUP6 SWAP2 PUSH2 0x1300 JUMPI JUMPDEST POP PUSH1 0x20 PUSH1 0x5 SLOAD PUSH2 0x224 PUSH1 0x40 MLOAD DUP1 SWAP8 DUP2 SWAP4 PUSH4 0x797D4EE1 PUSH1 0xE0 SHL DUP4 MSTORE PUSH2 0x10D2 PUSH1 0x4 DUP5 ADD DUP9 PUSH2 0x48AD JUMP JUMPDEST PUSH2 0x204 DUP4 ADD MSTORE GAS DELEGATECALL SWAP4 DUP5 ISZERO PUSH2 0x12F5 JUMPI DUP6 SWAP5 PUSH2 0x12C1 JUMPI JUMPDEST POP PUSH2 0x10F4 PUSH1 0x5 SLOAD PUSH2 0x4BF6 JUMP JUMPDEST PUSH1 0x5 SSTORE DUP4 DUP6 MSTORE PUSH1 0x4 PUSH1 0x20 SWAP1 DUP2 MSTORE PUSH1 0x40 DUP1 DUP8 KECCAK256 DUP4 MLOAD DUP2 SLOAD PUSH1 0x1 PUSH1 0x1 PUSH1 0xA0 SHL SUB NOT SWAP1 DUP2 AND PUSH1 0x1 PUSH1 0x1 PUSH1 0xA0 SHL SUB SWAP3 DUP4 AND OR DUP4 SSTORE SWAP4 DUP6 ADD MLOAD PUSH1 0x1 DUP4 ADD DUP1 SLOAD DUP7 AND SWAP2 DUP4 AND SWAP2 SWAP1 SWAP2 OR SWAP1 SSTORE SWAP2 DUP5 ADD MLOAD PUSH1 0x2 DUP3 ADD DUP1 SLOAD SWAP1 SWAP5 AND SWAP3 AND SWAP2 SWAP1 SWAP2 OR DUP3 SSTORE PUSH1 0x60 DUP4 ADD MLOAD SWAP1 SWAP3 SWAP2 SWAP1 PUSH1 0x3 DUP2 LT ISZERO PUSH2 0x12AD JUMPI DUP2 PUSH2 0x1172 PUSH2 0x11AE SWAP3 PUSH2 0x1E0 SWAP6 SWAP5 PUSH2 0x4C18 JUMP JUMPDEST PUSH1 0x80 DUP4 ADD MLOAD DUP2 SLOAD PUSH1 0xFF PUSH1 0xA8 SHL NOT AND SWAP1 ISZERO ISZERO PUSH1 0xA8 SHL PUSH1 0xFF PUSH1 0xA8 SHL AND OR DUP2 SSTORE PUSH1 0xA0 DUP4 ADD MLOAD DUP2 SLOAD PUSH1 0xFF PUSH1 0xB0 SHL NOT AND SWAP1 ISZERO ISZERO PUSH1 0xB0 SHL PUSH1 0xFF PUSH1 0xB0 SHL AND OR SWAP1 SSTORE JUMP JUMPDEST PUSH1 0xC0 DUP2 ADD MLOAD PUSH1 0x3 DUP5 ADD SSTORE PUSH1 0xE0 DUP2 ADD MLOAD PUSH1 0x4 DUP5 ADD SSTORE PUSH2 0x100 DUP2 ADD MLOAD PUSH1 0x5 DUP5 ADD SSTORE PUSH2 0x120 DUP2 ADD MLOAD PUSH1 0x6 DUP1 DUP6 ADD SWAP2 SWAP1 SWAP2 SSTORE PUSH2 0x140 DUP3 ADD MLOAD PUSH1 0x7 DUP6 ADD SSTORE PUSH2 0x160 DUP3 ADD MLOAD PUSH1 0x8 DUP6 ADD SSTORE PUSH2 0x180 DUP3 ADD MLOAD PUSH1 0x9 DUP6 ADD DUP1 SLOAD PUSH1 0x1 PUSH1 0x1 PUSH1 0xA0 SHL SUB SWAP3 DUP4 AND PUSH1 0x1 PUSH1 0x1 PUSH1 0xA0 SHL SUB NOT SWAP2 DUP3 AND OR SWAP1 SWAP2 SSTORE PUSH2 0x1A0 DUP5 ADD MLOAD PUSH1 0xA DUP8 ADD DUP1 SLOAD SWAP2 SWAP1 SWAP4 AND SWAP2 AND OR SWAP1 SSTORE PUSH2 0x1C0 DUP3 ADD MLOAD PUSH1 0xB DUP6 ADD SSTORE SWAP2 ADD MLOAD SWAP6 SWAP1 DUP7 LT ISZERO PUSH2 0x1299 JUMPI POP PUSH1 0x20 SWAP5 PUSH1 0xC PUSH2 0x1255 SWAP3 ADD PUSH2 0x4C3C JUMP JUMPDEST PUSH1 0x40 MLOAD PUSH1 0x1 PUSH1 0x1 PUSH1 0xA0 SHL SUB SWAP3 DUP4 AND DUP2 MSTORE SWAP2 AND SWAP1 CALLER SWAP1 DUP4 SWAP1 PUSH32 0x44E1FF8E67FAD6B456BD43FF165BA4E9BB004370AA27A76881C6ACB60DFD6DD9 SWAP1 DUP7 SWAP1 LOG4 PUSH1 0x40 MLOAD SWAP1 DUP2 MSTORE RETURN JUMPDEST PUSH4 0x4E487B71 PUSH1 0xE0 SHL DUP2 MSTORE PUSH1 0x21 PUSH1 0x4 MSTORE PUSH1 0x24 SWAP1 REVERT JUMPDEST PUSH4 0x4E487B71 PUSH1 0xE0 SHL DUP9 MSTORE PUSH1 0x21 PUSH1 0x4 MSTORE PUSH1 0x24 DUP9 REVERT JUMPDEST SWAP1 SWAP4 POP PUSH1 0x20 DUP2 RETURNDATASIZE PUSH1 0x20 GT PUSH2 0x12ED JUMPI JUMPDEST DUP2 PUSH2 0x12DD PUSH1 0x20 SWAP4 DUP4 PUSH2 0x4A3D JUMP JUMPDEST DUP2 ADD SUB SLT PUSH2 0xAD2 JUMPI MLOAD SWAP3 PUSH0 PUSH2 0x10E8 JUMP JUMPDEST RETURNDATASIZE SWAP2 POP PUSH2 0x12D0 JUMP JUMPDEST PUSH1 0x40 MLOAD RETURNDATASIZE DUP8 DUP3 RETURNDATACOPY RETURNDATASIZE SWAP1 REVERT JUMPDEST PUSH2 0x1322 SWAP2 POP PUSH2 0x200 RETURNDATASIZE DUP2 GT PUSH2 0x1328 JUMPI JUMPDEST PUSH2 0x131A DUP2 DUP4 PUSH2 0x4A3D JUMP JUMPDEST DUP2 ADD SWAP1 PUSH2 0x4A80 JUMP JUMPDEST PUSH0 PUSH2 0x10AB JUMP JUMPDEST POP RETURNDATASIZE PUSH2 0x1310 JUMP JUMPDEST PUSH2 0x134C SWAP3 SWAP10 SWAP5 SWAP7 SWAP6 SWAP4 SWAP9 POP PUSH2 0x1346 SWAP2 SWAP8 POP DUP11 PUSH2 0x4D6C JUMP JUMPDEST SWAP6 PUSH2 0x498E JUMP JUMPDEST PUSH2 0x1357 DUP6 ISZERO ISZERO PUSH2 0x4DA3 JUMP JUMPDEST PUSH1 0x2 SLOAD SWAP4 PUSH1 0x40 MLOAD SWAP5 PUSH4 0x1C8F0847 PUSH1 0xE0 SHL DUP7 MSTORE DUP7 PUSH1 0x4 DUP8 ADD MSTORE PUSH1 0x24 DUP7 ADD MSTORE PUSH1 0x20 DUP6 PUSH1 0x44 DUP2 PUSH20 0x0 GAS DELEGATECALL SWAP5 DUP6 ISZERO PUSH2 0xADE JUMPI DUP14 SWAP6 PUSH2 0x1530 JUMPI JUMPDEST POP PUSH1 0x1 PUSH1 0x1 PUSH1 0xA0 SHL SUB DUP2 AND SWAP7 DUP8 PUSH2 0x1448 JUMPI PUSH2 0x13BA DUP7 DUP9 PUSH2 0x4F0E JUMP JUMPDEST CALLVALUE SUB PUSH2 0x141E JUMPI PUSH2 0x200 SWAP9 DUP13 SWAP9 DUP9 PUSH2 0x1098 SWAP9 PUSH2 0x13D7 DUP16 SWAP12 DUP8 CALLER PUSH2 0x561A JUMP JUMPDEST POP PUSH1 0x3 SLOAD PUSH2 0x13F1 SWAP1 DUP3 SWAP1 DUP9 SWAP1 PUSH1 0x1 PUSH1 0x1 PUSH1 0xA0 SHL SUB AND PUSH2 0x561A JUMP JUMPDEST POP JUMPDEST PUSH1 0x40 MLOAD SWAP2 DUP3 MSTORE PUSH1 0x20 DUP3 ADD MSTORE PUSH0 DUP1 MLOAD PUSH1 0x20 PUSH2 0x584C DUP4 CODECOPY DUP2 MLOAD SWAP2 MSTORE PUSH1 0x40 CALLER SWAP3 LOG3 SWAP2 SWAP4 SWAP9 DUP2 SWAP4 SWAP6 SWAP7 POP PUSH2 0x104B JUMP JUMPDEST PUSH1 0x40 MLOAD PUSH3 0x461BCD PUSH1 0xE5 SHL DUP2 MSTORE PUSH1 0x20 PUSH1 0x4 DUP3 ADD MSTORE PUSH1 0x2 PUSH1 0x24 DUP3 ADD MSTORE PUSH2 0x10CD PUSH1 0xF2 SHL PUSH1 0x44 DUP3 ADD MSTORE PUSH1 0x64 SWAP1 REVERT JUMPDEST DUP14 DUP1 PUSH1 0x20 DUP11 PUSH1 0x64 PUSH2 0x1459 DUP12 DUP14 PUSH2 0x4F0E JUMP JUMPDEST PUSH1 0x40 MLOAD SWAP5 DUP6 SWAP4 DUP5 SWAP3 PUSH4 0x23B872DD PUSH1 0xE0 SHL DUP5 MSTORE CALLER PUSH1 0x4 DUP6 ADD MSTORE ADDRESS PUSH1 0x24 DUP6 ADD MSTORE PUSH1 0x44 DUP5 ADD MSTORE GAS CALL SWAP2 DUP3 ISZERO PUSH2 0xB1E JUMPI SWAP2 PUSH2 0x14F2 JUMPI JUMPDEST POP ISZERO PUSH2 0x14C8 JUMPI PUSH2 0x200 SWAP9 DUP13 SWAP9 DUP9 PUSH2 0x1098 SWAP9 PUSH2 0x14A8 DUP16 SWAP12 DUP8 CALLER PUSH2 0x561A JUMP JUMPDEST POP PUSH1 0x3 SLOAD PUSH2 0x14C2 SWAP1 DUP3 SWAP1 DUP9 SWAP1 PUSH1 0x1 PUSH1 0x1 PUSH1 0xA0 SHL SUB AND PUSH2 0x561A JUMP JUMPDEST POP PUSH2 0x13F3 JUMP JUMPDEST PUSH1 0x40 MLOAD PUSH3 0x461BCD PUSH1 0xE5 SHL DUP2 MSTORE PUSH1 0x20 PUSH1 0x4 DUP3 ADD MSTORE PUSH1 0x2 PUSH1 0x24 DUP3 ADD MSTORE PUSH2 0x2A19 PUSH1 0xF1 SHL PUSH1 0x44 DUP3 ADD MSTORE PUSH1 0x64 SWAP1 REVERT JUMPDEST SWAP1 POP PUSH1 0x20 DUP2 RETURNDATASIZE PUSH1 0x20 GT PUSH2 0x1528 JUMPI JUMPDEST DUP2 PUSH2 0x150D PUSH1 0x20 SWAP4 DUP4 PUSH2 0x4A3D JUMP JUMPDEST DUP2 ADD SUB SLT PUSH2 0x1524 JUMPI PUSH2 0x151E SWAP1 PUSH2 0x4A73 JUMP JUMPDEST PUSH0 PUSH2 0x148B JUMP JUMPDEST DUP15 DUP1 REVERT JUMPDEST RETURNDATASIZE SWAP2 POP PUSH2 0x1500 JUMP JUMPDEST SWAP1 SWAP5 POP PUSH1 0x20 DUP2 RETURNDATASIZE PUSH1 0x20 GT PUSH2 0x155C JUMPI JUMPDEST DUP2 PUSH2 0x154C PUSH1 0x20 SWAP4 DUP4 PUSH2 0x4A3D JUMP JUMPDEST DUP2 ADD SUB SLT PUSH2 0xAD2 JUMPI MLOAD SWAP4 PUSH0 PUSH2 0x139F JUMP JUMPDEST RETURNDATASIZE SWAP2 POP PUSH2 0x153F JUMP JUMPDEST POP CALLVALUE PUSH2 0x27B JUMPI PUSH2 0x1573 CALLDATASIZE PUSH2 0x47DF JUMP JUMPDEST SWAP3 DUP3 DUP2 SWAP4 SWAP3 SWAP4 MSTORE PUSH1 0x4 PUSH1 0x20 MSTORE PUSH1 0x40 DUP2 KECCAK256 SWAP3 PUSH1 0x1 DUP1 PUSH1 0xA0 SHL SUB DUP5 SLOAD AND CALLER EQ DUP1 ISZERO PUSH2 0x1736 JUMPI JUMPDEST PUSH2 0x15A0 SWAP1 PUSH2 0x4C54 JUMP JUMPDEST PUSH20 0x0 DUP1 EXTCODESIZE ISZERO PUSH2 0x1732 JUMPI DUP3 PUSH1 0x40 MLOAD DUP1 SWAP3 PUSH4 0x252A867 PUSH1 0xE5 SHL DUP3 MSTORE DUP2 DUP1 PUSH2 0x15DB DUP11 PUSH1 0x4 DUP4 ADD PUSH2 0x4C85 JUMP JUMPDEST SUB SWAP2 GAS DELEGATECALL DUP1 ISZERO PUSH2 0x1727 JUMPI SWAP1 DUP4 SWAP2 PUSH2 0x1712 JUMPI JUMPDEST POP POP PUSH1 0x6 DUP5 ADD PUSH2 0x1609 DUP3 DUP3 SLOAD PUSH2 0x1604 DUP3 DUP3 LT PUSH2 0x49BF JUMP JUMPDEST PUSH2 0x4D6C JUMP JUMPDEST SWAP1 SSTORE PUSH1 0x1 DUP1 PUSH1 0xA0 SHL SUB PUSH1 0xA DUP6 ADD SLOAD AND SWAP4 PUSH1 0x8 DUP2 ADD SLOAD PUSH1 0x40 MLOAD SWAP1 PUSH4 0x1C8F0847 PUSH1 0xE0 SHL DUP3 MSTORE DUP4 PUSH1 0x4 DUP4 ADD MSTORE PUSH1 0x24 DUP3 ADD MSTORE PUSH1 0x20 DUP2 PUSH1 0x44 DUP2 PUSH20 0x0 GAS DELEGATECALL SWAP4 DUP5 ISZERO PUSH2 0xB1E JUMPI SWAP4 PUSH2 0x16DC JUMPI JUMPDEST POP SWAP2 PUSH2 0x61E DUP4 PUSH2 0x16B3 DUP4 PUSH1 0x1 PUSH0 DUP1 MLOAD PUSH1 0x20 PUSH2 0x57CC DUP4 CODECOPY DUP2 MLOAD SWAP2 MSTORE SWAP8 ADD SWAP9 PUSH2 0x169D DUP12 DUP3 PUSH1 0x1 DUP1 PUSH1 0xA0 SHL SUB DUP14 SLOAD AND PUSH2 0x1697 DUP7 DUP13 PUSH2 0x4D6C JUMP JUMPDEST SWAP3 PUSH2 0x55FC JUMP JUMPDEST POP PUSH1 0x2 DUP5 ADD SWAP11 PUSH1 0x1 DUP1 PUSH1 0xA0 SHL SUB DUP13 SLOAD AND SWAP1 PUSH2 0x55FC JUMP JUMPDEST POP SLOAD SWAP6 SLOAD SWAP7 SLOAD PUSH1 0x40 MLOAD PUSH1 0x1 PUSH1 0x1 PUSH1 0xA0 SHL SUB SWAP9 DUP10 AND SWAP9 SWAP8 DUP9 AND SWAP8 SWAP1 SWAP5 DUP6 SWAP5 SWAP3 SWAP1 SWAP2 CALLER SWAP2 AND DUP6 PUSH2 0x4D79 JUMP JUMPDEST SWAP3 POP PUSH1 0x20 DUP4 RETURNDATASIZE PUSH1 0x20 GT PUSH2 0x170A JUMPI JUMPDEST DUP2 PUSH2 0x16F7 PUSH1 0x20 SWAP4 DUP4 PUSH2 0x4A3D JUMP JUMPDEST DUP2 ADD SUB SLT PUSH2 0xAD2 JUMPI SWAP2 MLOAD SWAP2 PUSH2 0x61E PUSH2 0x1661 JUMP JUMPDEST RETURNDATASIZE SWAP2 POP PUSH2 0x16EA JUMP JUMPDEST DUP2 PUSH2 0x171C SWAP2 PUSH2 0x4A3D JUMP JUMPDEST PUSH2 0xFE3 JUMPI DUP2 PUSH0 PUSH2 0x15ED JUMP JUMPDEST PUSH1 0x40 MLOAD RETURNDATASIZE DUP6 DUP3 RETURNDATACOPY RETURNDATASIZE SWAP1 REVERT JUMPDEST DUP3 DUP1 REVERT JUMPDEST POP PUSH1 0x2 DUP5 ADD SLOAD PUSH1 0x1 PUSH1 0x1 PUSH1 0xA0 SHL SUB AND CALLER EQ PUSH2 0x1597 JUMP JUMPDEST POP CALLVALUE PUSH2 0x27B JUMPI PUSH1 0x40 CALLDATASIZE PUSH1 0x3 NOT ADD SLT PUSH2 0x27B JUMPI PUSH1 0x40 PUSH2 0x244 PUSH2 0x4738 JUMP JUMPDEST POP CALLVALUE PUSH2 0x27B JUMPI PUSH1 0x20 CALLDATASIZE PUSH1 0x3 NOT ADD SLT PUSH2 0x27B JUMPI PUSH1 0x40 PUSH1 0xE0 SWAP2 PUSH1 0x4 CALLDATALOAD DUP2 MSTORE PUSH1 0x9 PUSH1 0x20 MSTORE KECCAK256 PUSH1 0xFF DUP2 SLOAD SWAP2 PUSH1 0x2 PUSH1 0x1 DUP3 ADD SLOAD SWAP2 ADD SLOAD SWAP1 PUSH1 0x40 MLOAD SWAP4 DUP5 MSTORE PUSH1 0x20 DUP5 ADD MSTORE PUSH2 0x17B4 PUSH1 0x40 DUP5 ADD DUP4 DUP4 AND PUSH2 0x48A0 JUMP JUMPDEST DUP2 DUP2 PUSH1 0x8 SHR AND ISZERO ISZERO PUSH1 0x60 DUP5 ADD MSTORE DUP2 DUP2 PUSH1 0x10 SHR AND ISZERO ISZERO PUSH1 0x80 DUP5 ADD MSTORE DUP2 DUP2 PUSH1 0x18 SHR AND ISZERO ISZERO PUSH1 0xA0 DUP5 ADD MSTORE PUSH1 0x20 SHR AND ISZERO ISZERO PUSH1 0xC0 DUP3 ADD MSTORE RETURN JUMPDEST POP CALLVALUE PUSH2 0x27B JUMPI PUSH1 0x60 CALLDATASIZE PUSH1 0x3 NOT ADD SLT PUSH2 0x27B JUMPI PUSH2 0x1802 PUSH2 0x4738 JUMP JUMPDEST SWAP1 PUSH2 0x180B PUSH2 0x4722 JUMP JUMPDEST PUSH1 0x40 PUSH1 0x44 CALLDATALOAD SWAP4 CALLER DUP5 MSTORE PUSH1 0x1 PUSH1 0x20 MSTORE DUP2 DUP5 KECCAK256 PUSH1 0x1 DUP1 PUSH1 0xA0 SHL SUB DUP5 AND PUSH0 MSTORE PUSH1 0x20 MSTORE PUSH2 0x1839 DUP6 DUP4 PUSH0 KECCAK256 SLOAD LT ISZERO PUSH2 0x49BF JUMP JUMPDEST CALLER DUP5 MSTORE PUSH1 0x1 PUSH1 0x20 MSTORE DUP2 DUP5 KECCAK256 PUSH1 0x1 DUP1 PUSH1 0xA0 SHL SUB DUP5 AND PUSH0 MSTORE PUSH1 0x20 MSTORE DUP2 PUSH0 KECCAK256 PUSH2 0x1860 DUP7 DUP3 SLOAD PUSH2 0x4D6C JUMP JUMPDEST SWAP1 SSTORE PUSH1 0x1 DUP1 PUSH1 0xA0 SHL SUB AND SWAP3 DUP4 DUP2 MSTORE PUSH1 0x1 PUSH1 0x20 MSTORE KECCAK256 PUSH1 0x1 DUP1 PUSH1 0xA0 SHL SUB DUP3 AND PUSH0 MSTORE PUSH1 0x20 MSTORE PUSH1 0x40 PUSH0 KECCAK256 PUSH2 0x1891 DUP5 DUP3 SLOAD PUSH2 0x4F0E JUMP JUMPDEST SWAP1 SSTORE PUSH1 0x40 MLOAD SWAP3 DUP4 MSTORE PUSH1 0x1 PUSH1 0x1 PUSH1 0xA0 SHL SUB AND SWAP2 CALLER SWAP1 PUSH32 0xD1398BEE19313D6BF672CCB116E51F4A1A947E91C757907F51FBB5B5E56C698F SWAP1 PUSH1 0x20 SWAP1 LOG4 PUSH1 0x20 PUSH1 0x40 MLOAD PUSH1 0x1 DUP2 MSTORE RETURN JUMPDEST POP PUSH1 0x20 CALLDATASIZE PUSH1 0x3 NOT ADD SLT PUSH2 0x27B JUMPI PUSH1 0x4 CALLDATALOAD DUP1 DUP3 MSTORE PUSH1 0x4 PUSH1 0x20 MSTORE PUSH1 0x40 DUP3 KECCAK256 SWAP2 PUSH1 0x1 DUP4 ADD SWAP3 PUSH2 0x190C PUSH1 0x1 DUP1 PUSH1 0xA0 SHL SUB DUP6 SLOAD AND CALLER EQ PUSH2 0x4C54 JUMP JUMPDEST PUSH1 0x2 DUP2 ADD SWAP2 PUSH1 0xFF DUP4 SLOAD PUSH2 0x1923 DUP3 DUP3 PUSH1 0xA8 SHR AND PUSH2 0x4F1B JUMP JUMPDEST PUSH2 0x1932 DUP3 DUP3 PUSH1 0xB0 SHR AND ISZERO PUSH2 0x4F4D JUMP JUMPDEST PUSH1 0xA0 SHR AND PUSH1 0x3 DUP2 LT ISZERO PUSH2 0x1C09 JUMPI PUSH1 0x2 PUSH2 0x194B SWAP2 EQ PUSH2 0x4F7F JUMP JUMPDEST PUSH1 0xA DUP3 ADD DUP1 SLOAD CALLER PUSH0 SWAP1 DUP2 MSTORE PUSH1 0x1 PUSH1 0x20 SWAP1 DUP2 MSTORE PUSH1 0x40 DUP1 DUP4 KECCAK256 PUSH1 0x1 PUSH1 0x1 PUSH1 0xA0 SHL SUB SWAP1 SWAP5 AND DUP1 DUP5 MSTORE SWAP4 SWAP1 SWAP2 MSTORE SWAP1 KECCAK256 SLOAD PUSH1 0x6 DUP6 ADD SLOAD DUP2 LT PUSH2 0x1A3C JUMPI JUMPDEST POP POP SLOAD PUSH1 0x4 DUP4 ADD SLOAD PUSH2 0x19A0 SWAP3 POP SWAP1 PUSH1 0x1 PUSH1 0x1 PUSH1 0xA0 SHL SUB AND CALLER PUSH2 0x5555 JUMP JUMPDEST POP DUP2 SLOAD PUSH1 0x1 PUSH1 0xB0 SHL PUSH1 0xFF PUSH1 0xB0 SHL NOT DUP3 AND OR SWAP1 SWAP3 SSTORE SLOAD SWAP3 SLOAD PUSH1 0x40 MLOAD PUSH1 0x1 PUSH1 0x1 PUSH1 0xA0 SHL SUB SWAP3 DUP4 AND DUP1 DUP3 MSTORE SWAP5 SWAP2 DUP4 AND SWAP3 SWAP1 SWAP2 AND SWAP1 DUP4 SWAP1 PUSH32 0x5E02698C1650D6CBE1F7E8A48609D0DA45AD7F5E4C13CD8B196F82965C0AB0D5 SWAP1 PUSH1 0x20 SWAP1 LOG4 DUP2 PUSH2 0x1A0A JUMPI JUMPDEST PUSH1 0x20 PUSH1 0x40 MLOAD PUSH1 0x1 DUP2 MSTORE RETURN JUMPDEST PUSH1 0x20 PUSH32 0x957372C0E02D2882134CC0EEBBEF9E446634D8CCBB1CBB112BDEFDD3CF0A643C SWAP2 PUSH1 0x40 MLOAD SWAP1 DUP2 MSTORE LOG2 PUSH0 DUP1 PUSH2 0x19FF JUMP JUMPDEST PUSH2 0x1A4A SWAP1 PUSH1 0x4 DUP7 ADD SLOAD PUSH2 0x4D6C JUMP JUMPDEST PUSH2 0x1A5A PUSH1 0xFF DUP6 SLOAD PUSH1 0xA0 SHR AND PUSH2 0x498E JUMP JUMPDEST PUSH2 0x1A65 DUP2 ISZERO ISZERO PUSH2 0x4DA3 JUMP JUMPDEST PUSH1 0x2 SLOAD SWAP4 PUSH1 0x40 MLOAD SWAP5 PUSH4 0x1C8F0847 PUSH1 0xE0 SHL DUP7 MSTORE DUP3 PUSH1 0x4 DUP8 ADD MSTORE PUSH1 0x24 DUP7 ADD MSTORE PUSH1 0x20 DUP6 PUSH1 0x44 DUP2 PUSH20 0x0 GAS DELEGATECALL SWAP5 DUP6 ISZERO PUSH2 0x1BFC JUMPI DUP2 SWAP6 PUSH2 0x1BC8 JUMPI JUMPDEST POP DUP3 PUSH2 0x1B14 JUMPI POP PUSH2 0x1ABE DUP5 DUP3 PUSH2 0x4F0E JUMP JUMPDEST CALLVALUE SUB PUSH2 0x141E JUMPI PUSH2 0x19A0 SWAP4 PUSH2 0x1AD3 DUP3 DUP5 CALLER PUSH2 0x561A JUMP JUMPDEST POP PUSH1 0x3 SLOAD PUSH2 0x1AED SWAP1 DUP3 SWAP1 DUP6 SWAP1 PUSH1 0x1 PUSH1 0x1 PUSH1 0xA0 SHL SUB AND PUSH2 0x561A JUMP JUMPDEST POP JUMPDEST PUSH1 0x40 MLOAD SWAP2 DUP3 MSTORE PUSH1 0x20 DUP3 ADD MSTORE PUSH0 DUP1 MLOAD PUSH1 0x20 PUSH2 0x584C DUP4 CODECOPY DUP2 MLOAD SWAP2 MSTORE PUSH1 0x40 CALLER SWAP3 LOG3 PUSH0 DUP1 PUSH2 0x1983 JUMP JUMPDEST PUSH2 0x1B1E DUP6 DUP4 PUSH2 0x4F0E JUMP JUMPDEST PUSH1 0x40 MLOAD SWAP1 PUSH4 0x23B872DD PUSH1 0xE0 SHL DUP3 MSTORE CALLER PUSH1 0x4 DUP4 ADD MSTORE ADDRESS PUSH1 0x24 DUP4 ADD MSTORE PUSH1 0x44 DUP3 ADD MSTORE PUSH1 0x20 DUP2 PUSH1 0x64 DUP2 DUP6 DUP9 GAS CALL SWAP2 DUP3 ISZERO PUSH2 0xB1E JUMPI DUP1 SWAP3 PUSH2 0x1B8B JUMPI JUMPDEST POP POP ISZERO PUSH2 0x14C8 JUMPI PUSH2 0x19A0 SWAP4 PUSH2 0x1B6B DUP3 DUP5 CALLER PUSH2 0x561A JUMP JUMPDEST POP PUSH1 0x3 SLOAD PUSH2 0x1B85 SWAP1 DUP3 SWAP1 DUP6 SWAP1 PUSH1 0x1 PUSH1 0x1 PUSH1 0xA0 SHL SUB AND PUSH2 0x561A JUMP JUMPDEST POP PUSH2 0x1AEF JUMP JUMPDEST SWAP1 SWAP2 POP PUSH1 0x20 DUP3 RETURNDATASIZE PUSH1 0x20 GT PUSH2 0x1BC0 JUMPI JUMPDEST DUP2 PUSH2 0x1BA7 PUSH1 0x20 SWAP4 DUP4 PUSH2 0x4A3D JUMP JUMPDEST DUP2 ADD SUB SLT PUSH2 0x27B JUMPI POP PUSH2 0x1BB9 SWAP1 PUSH2 0x4A73 JUMP JUMPDEST PUSH0 DUP1 PUSH2 0x1B55 JUMP JUMPDEST RETURNDATASIZE SWAP2 POP PUSH2 0x1B9A JUMP JUMPDEST SWAP1 SWAP5 POP PUSH1 0x20 DUP2 RETURNDATASIZE PUSH1 0x20 GT PUSH2 0x1BF4 JUMPI JUMPDEST DUP2 PUSH2 0x1BE4 PUSH1 0x20 SWAP4 DUP4 PUSH2 0x4A3D JUMP JUMPDEST DUP2 ADD SUB SLT PUSH2 0xAD2 JUMPI MLOAD SWAP4 PUSH0 PUSH2 0x1AAD JUMP JUMPDEST RETURNDATASIZE SWAP2 POP PUSH2 0x1BD7 JUMP JUMPDEST POP PUSH1 0x40 MLOAD SWAP1 RETURNDATASIZE SWAP1 DUP3 RETURNDATACOPY RETURNDATASIZE SWAP1 REVERT JUMPDEST PUSH4 0x4E487B71 PUSH1 0xE0 SHL DUP3 MSTORE PUSH1 0x21 PUSH1 0x4 MSTORE PUSH1 0x24 DUP3 REVERT JUMPDEST POP CALLVALUE PUSH2 0x27B JUMPI PUSH1 0x20 CALLDATASIZE PUSH1 0x3 NOT ADD SLT PUSH2 0x27B JUMPI PUSH1 0x40 PUSH1 0xE0 SWAP2 PUSH2 0x1C3C PUSH2 0x551F JUMP JUMPDEST POP PUSH1 0x4 CALLDATALOAD DUP2 MSTORE PUSH1 0xA PUSH1 0x20 MSTORE KECCAK256 PUSH1 0x40 MLOAD SWAP1 PUSH2 0x1C55 DUP3 PUSH2 0x49F0 JUMP JUMPDEST DUP1 SLOAD SWAP2 DUP3 DUP2 MSTORE PUSH1 0x1 DUP1 PUSH1 0xA0 SHL SUB PUSH1 0x1 DUP4 ADD SLOAD AND PUSH1 0x20 DUP3 ADD SWAP1 DUP2 MSTORE PUSH1 0x2 DUP4 ADD SLOAD SWAP3 PUSH1 0x40 DUP4 ADD SWAP4 DUP5 MSTORE PUSH1 0x4 PUSH1 0x3 DUP3 ADD SLOAD SWAP2 PUSH1 0x60 DUP6 ADD SWAP3 DUP4 MSTORE ADD SLOAD SWAP4 PUSH1 0x80 DUP5 ADD SWAP3 PUSH1 0xFF DUP7 AND ISZERO ISZERO DUP5 MSTORE PUSH1 0xFF PUSH1 0xC0 PUSH1 0xA0 DUP8 ADD SWAP7 DUP3 DUP10 PUSH1 0x8 SHR AND ISZERO ISZERO DUP9 MSTORE ADD SWAP7 PUSH1 0x10 SHR AND ISZERO ISZERO DUP7 MSTORE PUSH1 0x40 MLOAD SWAP7 DUP8 MSTORE PUSH1 0x1 DUP1 PUSH1 0xA0 SHL SUB SWAP1 MLOAD AND PUSH1 0x20 DUP8 ADD MSTORE MLOAD PUSH1 0x40 DUP7 ADD MSTORE MLOAD PUSH1 0x60 DUP6 ADD MSTORE MLOAD ISZERO ISZERO PUSH1 0x80 DUP5 ADD MSTORE MLOAD ISZERO ISZERO PUSH1 0xA0 DUP4 ADD MSTORE MLOAD ISZERO ISZERO PUSH1 0xC0 DUP3 ADD MSTORE RETURN JUMPDEST POP PUSH2 0x1CFD CALLDATASIZE PUSH2 0x47DF JUMP JUMPDEST DUP3 DUP5 SWAP4 SWAP3 SWAP4 MSTORE PUSH1 0x4 PUSH1 0x20 MSTORE PUSH1 0x40 DUP5 KECCAK256 SWAP4 PUSH2 0x1D21 PUSH1 0x1 DUP1 PUSH1 0xA0 SHL SUB DUP7 SLOAD AND CALLER EQ PUSH2 0x4C54 JUMP JUMPDEST PUSH20 0x0 DUP1 EXTCODESIZE ISZERO PUSH2 0xFE3 JUMPI DUP2 PUSH1 0x40 MLOAD DUP1 SWAP3 PUSH4 0x252A867 PUSH1 0xE5 SHL DUP3 MSTORE DUP2 DUP1 PUSH2 0x1D5C DUP12 PUSH1 0x4 DUP4 ADD PUSH2 0x4C85 JUMP JUMPDEST SUB SWAP2 GAS DELEGATECALL DUP1 ISZERO PUSH2 0xFD8 JUMPI SWAP1 DUP6 SWAP3 SWAP2 PUSH2 0x2008 JUMPI JUMPDEST POP PUSH1 0x9 DUP7 ADD DUP1 SLOAD CALLER PUSH0 SWAP1 DUP2 MSTORE PUSH1 0x1 PUSH1 0x20 SWAP1 DUP2 MSTORE PUSH1 0x40 DUP1 DUP4 KECCAK256 PUSH1 0x1 PUSH1 0x1 PUSH1 0xA0 SHL SUB SWAP1 SWAP5 AND DUP1 DUP5 MSTORE SWAP4 SWAP1 SWAP2 MSTORE SWAP1 KECCAK256 SLOAD SWAP2 SWAP3 SWAP1 SWAP2 SWAP5 ISZERO PUSH2 0x1E31 JUMPI POP POP PUSH2 0x1DB7 DUP3 PUSH2 0x1DC7 SWAP5 LT ISZERO PUSH2 0x49BF JUMP JUMPDEST SLOAD PUSH1 0x1 PUSH1 0x1 PUSH1 0xA0 SHL SUB AND CALLER PUSH2 0x5555 JUMP JUMPDEST POP PUSH1 0x5 DUP4 ADD PUSH2 0x1DD7 DUP4 DUP3 SLOAD PUSH2 0x4F0E JUMP JUMPDEST SWAP1 SSTORE DUP3 SLOAD PUSH1 0x1 DUP5 ADD SLOAD PUSH1 0x2 SWAP1 SWAP5 ADD SLOAD PUSH1 0x40 DUP1 MLOAD PUSH1 0x1 PUSH1 0x1 PUSH1 0xA0 SHL SUB SWAP3 DUP4 AND DUP2 MSTORE PUSH1 0x20 DUP2 ADD SWAP6 SWAP1 SWAP6 MSTORE SWAP5 DUP2 AND SWAP5 SWAP2 AND SWAP3 PUSH32 0x3C0DD30126238EAEBBB306E073222EECD03A091D41C39A4B2742759D406C8F55 SWAP2 DUP2 SWAP1 DUP2 ADD PUSH2 0x61E JUMP JUMPDEST SWAP1 SWAP4 DUP4 DUP2 LT PUSH2 0x1E47 JUMPI JUMPDEST POP POP PUSH2 0x1DC7 SWAP3 POP PUSH2 0x1DB7 JUMP JUMPDEST PUSH2 0x1E51 SWAP2 SWAP4 PUSH2 0x4D6C JUMP JUMPDEST SWAP3 PUSH2 0x1E62 PUSH1 0xFF DUP5 SLOAD PUSH1 0xA0 SHR AND PUSH2 0x498E JUMP JUMPDEST PUSH2 0x1E6D DUP5 ISZERO ISZERO PUSH2 0x4DA3 JUMP JUMPDEST PUSH1 0x2 SLOAD SWAP3 PUSH1 0x40 MLOAD SWAP4 PUSH4 0x1C8F0847 PUSH1 0xE0 SHL DUP6 MSTORE DUP6 PUSH1 0x4 DUP7 ADD MSTORE PUSH1 0x24 DUP6 ADD MSTORE PUSH1 0x20 DUP5 PUSH1 0x44 DUP2 PUSH20 0x0 GAS DELEGATECALL SWAP4 DUP5 ISZERO PUSH2 0x1BFC JUMPI DUP2 SWAP5 PUSH2 0x1FD4 JUMPI JUMPDEST POP DUP2 PUSH2 0x1F1E JUMPI POP PUSH2 0x1EC6 DUP4 DUP6 PUSH2 0x4F0E JUMP JUMPDEST CALLVALUE SUB PUSH2 0x141E JUMPI DUP4 DUP7 SWAP4 PUSH2 0x1EDD PUSH2 0x1DC7 SWAP7 DUP5 CALLER PUSH2 0x561A JUMP JUMPDEST POP PUSH1 0x3 SLOAD PUSH2 0x1EF7 SWAP1 DUP3 SWAP1 DUP6 SWAP1 PUSH1 0x1 PUSH1 0x1 PUSH1 0xA0 SHL SUB AND PUSH2 0x561A JUMP JUMPDEST POP JUMPDEST PUSH1 0x40 MLOAD SWAP2 DUP3 MSTORE PUSH1 0x20 DUP3 ADD MSTORE PUSH0 DUP1 MLOAD PUSH1 0x20 PUSH2 0x584C DUP4 CODECOPY DUP2 MLOAD SWAP2 MSTORE PUSH1 0x40 CALLER SWAP3 LOG3 PUSH0 DUP1 PUSH2 0x1E3B JUMP JUMPDEST PUSH2 0x1F28 DUP5 DUP7 PUSH2 0x4F0E JUMP JUMPDEST PUSH1 0x40 MLOAD SWAP1 PUSH4 0x23B872DD PUSH1 0xE0 SHL DUP3 MSTORE CALLER PUSH1 0x4 DUP4 ADD MSTORE ADDRESS PUSH1 0x24 DUP4 ADD MSTORE PUSH1 0x44 DUP3 ADD MSTORE PUSH1 0x20 DUP2 PUSH1 0x64 DUP2 DUP6 DUP8 GAS CALL SWAP2 DUP3 ISZERO PUSH2 0xB1E JUMPI DUP1 SWAP3 PUSH2 0x1F97 JUMPI JUMPDEST POP POP ISZERO PUSH2 0x14C8 JUMPI DUP4 DUP7 SWAP4 PUSH2 0x1F77 PUSH2 0x1DC7 SWAP7 DUP5 CALLER PUSH2 0x561A JUMP JUMPDEST POP PUSH1 0x3 SLOAD PUSH2 0x1F91 SWAP1 DUP3 SWAP1 DUP6 SWAP1 PUSH1 0x1 PUSH1 0x1 PUSH1 0xA0 SHL SUB AND PUSH2 0x561A JUMP JUMPDEST POP PUSH2 0x1EF9 JUMP JUMPDEST SWAP1 SWAP2 POP PUSH1 0x20 DUP3 RETURNDATASIZE PUSH1 0x20 GT PUSH2 0x1FCC JUMPI JUMPDEST DUP2 PUSH2 0x1FB3 PUSH1 0x20 SWAP4 DUP4 PUSH2 0x4A3D JUMP JUMPDEST DUP2 ADD SUB SLT PUSH2 0x27B JUMPI POP PUSH2 0x1FC5 SWAP1 PUSH2 0x4A73 JUMP JUMPDEST PUSH0 DUP1 PUSH2 0x1F5F JUMP JUMPDEST RETURNDATASIZE SWAP2 POP PUSH2 0x1FA6 JUMP JUMPDEST SWAP1 SWAP4 POP PUSH1 0x20 DUP2 RETURNDATASIZE PUSH1 0x20 GT PUSH2 0x2000 JUMPI JUMPDEST DUP2 PUSH2 0x1FF0 PUSH1 0x20 SWAP4 DUP4 PUSH2 0x4A3D JUMP JUMPDEST DUP2 ADD SUB SLT PUSH2 0xAD2 JUMPI MLOAD SWAP3 PUSH0 PUSH2 0x1EB5 JUMP JUMPDEST RETURNDATASIZE SWAP2 POP PUSH2 0x1FE3 JUMP JUMPDEST DUP2 DUP1 SWAP4 POP PUSH2 0x2015 SWAP2 PUSH2 0x4A3D JUMP JUMPDEST PUSH2 0x27B JUMPI DUP4 SWAP1 PUSH0 PUSH2 0x1D6F JUMP JUMPDEST POP CALLVALUE PUSH2 0x27B JUMPI PUSH1 0x80 CALLDATASIZE PUSH1 0x3 NOT ADD SLT PUSH2 0x27B JUMPI PUSH1 0x4 CALLDATALOAD SWAP1 PUSH2 0x203F PUSH2 0x4722 JUMP JUMPDEST PUSH1 0x44 CALLDATALOAD SWAP3 PUSH1 0x64 CALLDATALOAD SWAP4 DUP2 DUP5 MSTORE PUSH1 0x4 PUSH1 0x20 MSTORE PUSH1 0xFF PUSH1 0x2 PUSH1 0x40 DUP7 KECCAK256 SWAP5 PUSH1 0x1 DUP1 PUSH1 0xA0 SHL SUB DUP7 SLOAD AND CALLER EQ DUP1 ISZERO PUSH2 0x2216 JUMPI JUMPDEST PUSH2 0x2074 SWAP1 PUSH2 0x4C54 JUMP JUMPDEST PUSH2 0x2085 PUSH5 0x2540BE400 DUP6 GT ISZERO PUSH2 0x4DA3 JUMP JUMPDEST PUSH2 0x2096 PUSH5 0x2540BE400 DUP10 GT ISZERO PUSH2 0x4DA3 JUMP JUMPDEST PUSH1 0x1 PUSH1 0x1 PUSH1 0xA0 SHL SUB AND SWAP5 PUSH2 0x20AB DUP7 ISZERO ISZERO PUSH2 0x4E75 JUMP JUMPDEST ADD SLOAD PUSH2 0x20C0 PUSH1 0x1 PUSH1 0x1 PUSH1 0xA0 SHL SUB DUP3 AND ISZERO PUSH2 0x4FB0 JUMP JUMPDEST PUSH1 0xA8 SHR AND ISZERO PUSH2 0x21E5 JUMPI JUMPDEST PUSH1 0x20 SWAP5 PUSH2 0x21A5 SWAP2 PUSH2 0x218C PUSH1 0x40 MLOAD SWAP2 PUSH2 0x20E1 DUP4 PUSH2 0x49F0 JUMP JUMPDEST DUP6 DUP4 MSTORE PUSH1 0x4 DUP10 DUP5 ADD SWAP4 DUP9 DUP6 MSTORE PUSH1 0x40 DUP2 ADD SWAP3 DUP4 MSTORE PUSH1 0x60 DUP2 ADD SWAP6 DUP7 MSTORE PUSH1 0x80 DUP2 ADD SWAP6 DUP11 DUP8 MSTORE PUSH1 0xA0 DUP3 ADD SWAP4 DUP12 DUP6 MSTORE PUSH1 0xC0 DUP4 ADD SWAP7 DUP13 DUP9 MSTORE PUSH1 0x40 PUSH1 0x8 SLOAD SWAP14 DUP15 DUP2 MSTORE DUP16 PUSH1 0xA SWAP1 MSTORE KECCAK256 SWAP4 MLOAD DUP5 SSTORE PUSH1 0x1 DUP1 PUSH1 0xA0 SHL SUB SWAP1 MLOAD AND PUSH1 0x1 DUP5 ADD SWAP1 PUSH1 0x1 DUP1 PUSH1 0xA0 SHL SUB AND PUSH12 0xFFFFFFFFFFFFFFFFFFFFFFFF PUSH1 0xA0 SHL DUP3 SLOAD AND OR SWAP1 SSTORE MLOAD PUSH1 0x2 DUP4 ADD SSTORE MLOAD PUSH1 0x3 DUP3 ADD SSTORE ADD SWAP4 MLOAD ISZERO ISZERO PUSH1 0xFF DUP1 NOT DUP7 SLOAD AND SWAP2 AND OR DUP5 SSTORE MLOAD ISZERO ISZERO DUP4 SWAP1 PUSH2 0xFF00 DUP3 SLOAD SWAP2 ISZERO ISZERO PUSH1 0x8 SHL AND SWAP1 PUSH2 0xFF00 NOT AND OR SWAP1 SSTORE JUMP JUMPDEST MLOAD DUP2 SLOAD PUSH3 0xFF0000 NOT AND SWAP1 ISZERO ISZERO PUSH1 0x10 SHL PUSH3 0xFF0000 AND OR SWAP1 SSTORE JUMP JUMPDEST PUSH2 0x21B0 PUSH1 0x8 SLOAD PUSH2 0x4BF6 JUMP JUMPDEST PUSH1 0x8 SSTORE DUP3 PUSH32 0x3E168088DA33D5AB18321345A864B58812F451C892EE951F8F70B5BEAD045B69 DUP6 PUSH1 0x40 MLOAD CALLER DUP2 MSTORE LOG4 PUSH1 0x40 MLOAD SWAP1 DUP2 MSTORE RETURN JUMPDEST DUP5 ISZERO PUSH2 0x20CA JUMPI PUSH1 0x64 PUSH1 0x40 MLOAD PUSH3 0x461BCD PUSH1 0xE5 SHL DUP2 MSTORE PUSH1 0x20 PUSH1 0x4 DUP3 ADD MSTORE PUSH1 0x4 PUSH1 0x24 DUP3 ADD MSTORE PUSH4 0x43312E31 PUSH1 0xE0 SHL PUSH1 0x44 DUP3 ADD MSTORE REVERT JUMPDEST POP PUSH1 0x1 DUP7 ADD SLOAD PUSH1 0x1 PUSH1 0x1 PUSH1 0xA0 SHL SUB AND CALLER EQ PUSH2 0x206B JUMP JUMPDEST POP CALLVALUE PUSH2 0x27B JUMPI PUSH2 0x223B CALLDATASIZE PUSH2 0x47DF JUMP JUMPDEST SWAP3 SWAP2 SWAP1 DUP2 DUP4 MSTORE PUSH1 0x4 PUSH1 0x20 MSTORE PUSH1 0x40 DUP4 KECCAK256 SWAP1 PUSH1 0x1 DUP3 ADD SWAP4 PUSH1 0x1 DUP1 PUSH1 0xA0 SHL SUB DUP6 SLOAD AND CALLER EQ DUP1 ISZERO PUSH2 0x23AE JUMPI JUMPDEST PUSH2 0x226C SWAP1 PUSH2 0x4C54 JUMP JUMPDEST PUSH20 0x0 DUP1 EXTCODESIZE ISZERO PUSH2 0xFE3 JUMPI DUP2 PUSH1 0x40 MLOAD DUP1 SWAP3 PUSH4 0x252A867 PUSH1 0xE5 SHL DUP3 MSTORE DUP2 DUP1 PUSH2 0x22A7 DUP10 PUSH1 0x4 DUP4 ADD PUSH2 0x4C85 JUMP JUMPDEST SUB SWAP2 GAS DELEGATECALL DUP1 ISZERO PUSH2 0xFD8 JUMPI SWAP1 DUP3 SWAP2 PUSH2 0x2399 JUMPI JUMPDEST POP POP PUSH1 0x5 DUP4 ADD PUSH2 0x22D0 DUP4 DUP3 SLOAD PUSH2 0x1604 DUP3 DUP3 LT PUSH2 0x49BF JUMP JUMPDEST SWAP1 SSTORE PUSH1 0x1 DUP1 PUSH1 0xA0 SHL SUB PUSH1 0x9 DUP5 ADD SLOAD AND PUSH1 0x7 DUP5 ADD SLOAD PUSH1 0x40 MLOAD SWAP1 PUSH4 0x1C8F0847 PUSH1 0xE0 SHL DUP3 MSTORE DUP5 PUSH1 0x4 DUP4 ADD MSTORE PUSH1 0x24 DUP3 ADD MSTORE PUSH1 0x20 DUP2 PUSH1 0x44 DUP2 PUSH20 0x0 GAS DELEGATECALL SWAP3 DUP4 ISZERO PUSH2 0xB1E JUMPI SWAP3 PUSH2 0x2358 JUMPI JUMPDEST POP PUSH0 DUP1 MLOAD PUSH1 0x20 PUSH2 0x582C DUP4 CODECOPY DUP2 MLOAD SWAP2 MSTORE SWAP4 PUSH2 0x16B3 DUP4 DUP4 PUSH2 0x169D DUP12 PUSH2 0x61E SWAP7 PUSH1 0x1 DUP1 PUSH1 0xA0 SHL SUB DUP8 SLOAD AND PUSH2 0x1697 DUP7 DUP13 PUSH2 0x4D6C JUMP JUMPDEST SWAP1 SWAP2 POP PUSH1 0x20 DUP2 RETURNDATASIZE PUSH1 0x20 GT PUSH2 0x2391 JUMPI JUMPDEST DUP2 PUSH2 0x2374 PUSH1 0x20 SWAP4 DUP4 PUSH2 0x4A3D JUMP JUMPDEST DUP2 ADD SUB SLT PUSH2 0xAD2 JUMPI MLOAD SWAP1 PUSH0 DUP1 MLOAD PUSH1 0x20 PUSH2 0x582C DUP4 CODECOPY DUP2 MLOAD SWAP2 MSTORE PUSH2 0x2327 JUMP JUMPDEST RETURNDATASIZE SWAP2 POP PUSH2 0x2367 JUMP JUMPDEST DUP2 PUSH2 0x23A3 SWAP2 PUSH2 0x4A3D JUMP JUMPDEST PUSH2 0x27B JUMPI DUP1 PUSH0 PUSH2 0x22B9 JUMP JUMPDEST POP PUSH1 0x2 DUP4 ADD SLOAD PUSH1 0x1 PUSH1 0x1 PUSH1 0xA0 SHL SUB AND CALLER EQ PUSH2 0x2263 JUMP JUMPDEST POP CALLVALUE PUSH2 0x27B JUMPI DUP1 PUSH1 0x3 NOT CALLDATASIZE ADD SLT PUSH2 0x27B JUMPI PUSH1 0x20 PUSH1 0x7 SLOAD PUSH1 0x40 MLOAD SWAP1 DUP2 MSTORE RETURN JUMPDEST POP CALLVALUE PUSH2 0x27B JUMPI PUSH2 0x23F1 CALLDATASIZE PUSH2 0x47DF JUMP JUMPDEST SWAP3 DUP3 DUP2 SWAP4 SWAP3 SWAP4 MSTORE PUSH1 0x4 PUSH1 0x20 MSTORE PUSH1 0x40 DUP2 KECCAK256 SWAP3 PUSH1 0x1 DUP1 PUSH1 0xA0 SHL SUB DUP5 SLOAD AND CALLER EQ DUP1 ISZERO PUSH2 0x256E JUMPI JUMPDEST PUSH2 0x241E SWAP1 PUSH2 0x4C54 JUMP JUMPDEST PUSH20 0x0 DUP1 EXTCODESIZE ISZERO PUSH2 0x1732 JUMPI DUP3 PUSH1 0x40 MLOAD DUP1 SWAP3 PUSH4 0x252A867 PUSH1 0xE5 SHL DUP3 MSTORE DUP2 DUP1 PUSH2 0x2459 DUP11 PUSH1 0x4 DUP4 ADD PUSH2 0x4C85 JUMP JUMPDEST SUB SWAP2 GAS DELEGATECALL DUP1 ISZERO PUSH2 0x1727 JUMPI SWAP1 DUP4 SWAP2 PUSH2 0x2559 JUMPI JUMPDEST POP POP PUSH1 0x5 DUP5 ADD PUSH2 0x2482 DUP3 DUP3 SLOAD PUSH2 0x1604 DUP3 DUP3 LT PUSH2 0x49BF JUMP JUMPDEST SWAP1 SSTORE PUSH1 0x1 DUP1 PUSH1 0xA0 SHL SUB PUSH1 0x9 DUP6 ADD SLOAD AND SWAP4 PUSH1 0x7 DUP2 ADD SLOAD PUSH1 0x40 MLOAD SWAP1 PUSH4 0x1C8F0847 PUSH1 0xE0 SHL DUP3 MSTORE DUP4 PUSH1 0x4 DUP4 ADD MSTORE PUSH1 0x24 DUP3 ADD MSTORE PUSH1 0x20 DUP2 PUSH1 0x44 DUP2 PUSH20 0x0 GAS DELEGATECALL SWAP4 DUP5 ISZERO PUSH2 0xB1E JUMPI SWAP4 PUSH2 0x2523 JUMPI JUMPDEST POP SWAP2 PUSH2 0x61E DUP4 PUSH2 0x16B3 DUP4 PUSH1 0x1 PUSH32 0xF05D33634B730E763D232B482CF835A4481835F62D0A0973B42018A8EAD4F047 SWAP8 ADD SWAP9 PUSH2 0x169D DUP12 DUP3 PUSH1 0x1 DUP1 PUSH1 0xA0 SHL SUB DUP14 SLOAD AND PUSH2 0x1697 DUP7 DUP13 PUSH2 0x4D6C JUMP JUMPDEST SWAP3 POP PUSH1 0x20 DUP4 RETURNDATASIZE PUSH1 0x20 GT PUSH2 0x2551 JUMPI JUMPDEST DUP2 PUSH2 0x253E PUSH1 0x20 SWAP4 DUP4 PUSH2 0x4A3D JUMP JUMPDEST DUP2 ADD SUB SLT PUSH2 0xAD2 JUMPI SWAP2 MLOAD SWAP2 PUSH2 0x61E PUSH2 0x24DA JUMP JUMPDEST RETURNDATASIZE SWAP2 POP PUSH2 0x2531 JUMP JUMPDEST DUP2 PUSH2 0x2563 SWAP2 PUSH2 0x4A3D JUMP JUMPDEST PUSH2 0xFE3 JUMPI DUP2 PUSH0 PUSH2 0x246B JUMP JUMPDEST POP PUSH1 0x2 DUP5 ADD SLOAD PUSH1 0x1 PUSH1 0x1 PUSH1 0xA0 SHL SUB AND CALLER EQ PUSH2 0x2415 JUMP JUMPDEST POP CALLVALUE PUSH2 0x27B JUMPI DUP1 PUSH1 0x3 NOT CALLDATASIZE ADD SLT PUSH2 0x27B JUMPI PUSH1 0x20 PUSH1 0x5 SLOAD PUSH1 0x40 MLOAD SWAP1 DUP2 MSTORE RETURN JUMPDEST POP CALLVALUE PUSH2 0x27B JUMPI PUSH1 0x20 CALLDATASIZE PUSH1 0x3 NOT ADD SLT PUSH2 0x27B JUMPI PUSH1 0x4 CALLDATALOAD DUP1 DUP3 MSTORE PUSH1 0x4 PUSH1 0x20 MSTORE PUSH1 0x40 DUP3 KECCAK256 SWAP1 PUSH1 0x1 DUP3 ADD SWAP2 PUSH1 0x1 DUP1 PUSH1 0xA0 SHL SUB DUP4 SLOAD AND CALLER EQ DUP1 ISZERO PUSH2 0x268A JUMPI JUMPDEST PUSH2 0x25E5 SWAP1 PUSH2 0x4C54 JUMP JUMPDEST PUSH1 0x2 DUP2 ADD SWAP4 PUSH1 0xFF DUP6 SLOAD PUSH2 0x25FC DUP3 DUP3 PUSH1 0xA8 SHR AND PUSH2 0x4F1B JUMP JUMPDEST PUSH2 0x260B DUP3 DUP3 PUSH1 0xB0 SHR AND ISZERO PUSH2 0x4F4D JUMP JUMPDEST PUSH1 0xA0 SHR AND SWAP1 PUSH1 0x3 DUP3 LT ISZERO PUSH2 0x1299 JUMPI POP PUSH0 DUP1 MLOAD PUSH1 0x20 PUSH2 0x57EC DUP4 CODECOPY DUP2 MLOAD SWAP2 MSTORE SWAP2 PUSH2 0x2638 PUSH1 0x2 PUSH2 0x61E SWAP4 EQ PUSH2 0x4F7F JUMP JUMPDEST DUP1 SLOAD PUSH1 0x9 DUP3 ADD SLOAD PUSH1 0x5 DUP4 ADD SLOAD PUSH2 0x265C SWAP3 SWAP1 SWAP2 PUSH1 0x1 PUSH1 0x1 PUSH1 0xA0 SHL SUB SWAP1 DUP2 AND SWAP2 AND PUSH2 0x561A JUMP JUMPDEST POP SLOAD SWAP4 SLOAD SWAP5 SLOAD PUSH1 0x40 DUP1 MLOAD PUSH1 0x1 PUSH1 0x1 PUSH1 0xA0 SHL SUB SWAP3 DUP4 AND DUP2 MSTORE CALLER PUSH1 0x20 DUP3 ADD MSTORE SWAP7 DUP3 AND SWAP7 SWAP6 SWAP1 SWAP2 AND SWAP5 SWAP2 DUP3 SWAP2 DUP3 ADD SWAP1 JUMP JUMPDEST POP DUP1 SLOAD PUSH1 0x1 PUSH1 0x1 PUSH1 0xA0 SHL SUB AND CALLER EQ PUSH2 0x25DC JUMP JUMPDEST POP CALLVALUE PUSH2 0x27B JUMPI DUP1 PUSH1 0x3 NOT CALLDATASIZE ADD SLT PUSH2 0x27B JUMPI SLOAD PUSH1 0x40 MLOAD PUSH1 0x1 PUSH1 0x1 PUSH1 0xA0 SHL SUB SWAP1 SWAP2 AND DUP2 MSTORE PUSH1 0x20 SWAP1 RETURN JUMPDEST POP CALLVALUE PUSH2 0x27B JUMPI DUP1 PUSH1 0x3 NOT CALLDATASIZE ADD SLT PUSH2 0x27B JUMPI DUP1 SLOAD PUSH2 0x26EB CALLER PUSH1 0x1 PUSH1 0x1 PUSH1 0xA0 SHL SUB DUP4 AND EQ PUSH2 0x4E44 JUMP JUMPDEST PUSH1 0xFF PUSH1 0xA0 SHL NOT AND DUP2 SSTORE PUSH1 0x40 MLOAD DUP2 DUP2 MSTORE PUSH32 0x17904E4FE7D59BB4603C7C045BC275A05DA9EA3A4AC007FC80FFFEAF119186D SWAP1 PUSH1 0x20 SWAP1 LOG1 DUP1 RETURN JUMPDEST POP CALLVALUE PUSH2 0x27B JUMPI PUSH1 0x20 CALLDATASIZE PUSH1 0x3 NOT ADD SLT PUSH2 0x27B JUMPI PUSH1 0x4 CALLDATALOAD DUP2 MSTORE PUSH1 0x4 PUSH1 0x20 MSTORE PUSH1 0x40 SWAP1 KECCAK256 PUSH1 0x1 PUSH1 0xA0 SHL PUSH1 0x1 SWAP1 SUB DUP2 SLOAD AND SWAP1 PUSH1 0x1 PUSH1 0xA0 SHL PUSH1 0x1 SWAP1 SUB PUSH1 0x1 DUP3 ADD SLOAD AND SWAP1 PUSH1 0x2 DUP2 ADD SLOAD PUSH1 0x3 DUP3 ADD SLOAD PUSH1 0x4 DUP4 ADD SLOAD PUSH1 0x5 DUP5 ADD SLOAD PUSH1 0x6 DUP6 ADD SLOAD PUSH1 0x7 DUP7 ADD SLOAD SWAP2 PUSH1 0x8 DUP8 ADD SLOAD SWAP4 PUSH1 0x1 PUSH1 0xA0 SHL PUSH1 0x1 SWAP1 SUB PUSH1 0x9 DUP10 ADD SLOAD AND SWAP6 PUSH1 0x1 PUSH1 0xA0 SHL PUSH1 0x1 SWAP1 SUB PUSH1 0xA DUP11 ADD SLOAD AND SWAP8 PUSH1 0xB DUP11 ADD SLOAD SWAP10 PUSH1 0xC ADD SLOAD PUSH1 0xFF AND SWAP11 PUSH1 0x40 MLOAD SWAP13 DUP14 MSTORE PUSH1 0x20 DUP14 ADD MSTORE PUSH1 0x1 PUSH1 0xA0 SHL PUSH1 0x1 SWAP1 SUB DUP2 AND PUSH1 0x40 DUP14 ADD MSTORE PUSH1 0x60 DUP13 ADD DUP2 PUSH1 0xA0 SHR PUSH1 0xFF AND SWAP1 PUSH2 0x27E3 SWAP2 PUSH2 0x4893 JUMP JUMPDEST DUP1 PUSH1 0xA8 SHR PUSH1 0xFF AND ISZERO ISZERO PUSH1 0x80 DUP14 ADD MSTORE PUSH1 0xB0 SHR PUSH1 0xFF AND ISZERO ISZERO PUSH1 0xA0 DUP13 ADD MSTORE PUSH1 0xC0 DUP12 ADD MSTORE PUSH1 0xE0 DUP11 ADD MSTORE PUSH2 0x100 DUP10 ADD MSTORE PUSH2 0x120 DUP9 ADD MSTORE PUSH2 0x140 DUP8 ADD MSTORE PUSH2 0x160 DUP7 ADD MSTORE PUSH2 0x180 DUP6 ADD MSTORE PUSH2 0x1A0 DUP5 ADD MSTORE PUSH2 0x1C0 DUP4 ADD MSTORE PUSH2 0x1E0 DUP3 ADD PUSH2 0x2840 SWAP2 PUSH2 0x48A0 JUMP JUMPDEST PUSH2 0x200 SWAP1 RETURN JUMPDEST POP CALLVALUE PUSH2 0x27B JUMPI PUSH1 0x20 CALLDATASIZE PUSH1 0x3 NOT ADD SLT PUSH2 0x27B JUMPI PUSH1 0x4 CALLDATALOAD DUP1 DUP3 MSTORE PUSH1 0x4 PUSH1 0x20 MSTORE PUSH1 0x40 DUP3 KECCAK256 SWAP1 PUSH1 0x1 DUP3 ADD SWAP2 PUSH1 0x1 DUP1 PUSH1 0xA0 SHL SUB DUP4 SLOAD AND CALLER EQ DUP1 ISZERO PUSH2 0x2906 JUMPI JUMPDEST PUSH2 0x2889 SWAP1 PUSH2 0x4C54 JUMP JUMPDEST PUSH1 0x2 DUP2 ADD SWAP4 PUSH1 0xFF DUP6 SLOAD DUP2 DUP2 PUSH1 0xB0 SHR AND ISZERO DUP1 PUSH2 0x28F9 JUMPI JUMPDEST PUSH2 0x28A8 SWAP1 PUSH2 0x4F4D JUMP JUMPDEST PUSH1 0xA0 SHR AND SWAP1 PUSH1 0x3 DUP3 LT ISZERO PUSH2 0x1299 JUMPI POP PUSH0 DUP1 MLOAD PUSH1 0x20 PUSH2 0x57EC DUP4 CODECOPY DUP2 MLOAD SWAP2 MSTORE SWAP2 PUSH2 0x28D5 PUSH1 0x2 PUSH2 0x61E SWAP4 EQ PUSH2 0x4F7F JUMP JUMPDEST DUP1 SLOAD PUSH1 0x9 DUP3 ADD SLOAD PUSH1 0x5 DUP4 ADD SLOAD PUSH2 0x265C SWAP3 SWAP1 SWAP2 PUSH1 0x1 PUSH1 0x1 PUSH1 0xA0 SHL SUB SWAP1 DUP2 AND SWAP2 AND PUSH2 0x5675 JUMP JUMPDEST POP PUSH1 0xA8 DUP2 SWAP1 SHR DUP3 AND PUSH2 0x289F JUMP JUMPDEST POP DUP1 SLOAD PUSH1 0x1 PUSH1 0x1 PUSH1 0xA0 SHL SUB AND CALLER EQ PUSH2 0x2880 JUMP JUMPDEST POP CALLVALUE PUSH2 0x27B JUMPI PUSH1 0x40 CALLDATASIZE PUSH1 0x3 NOT ADD SLT PUSH2 0x27B JUMPI PUSH1 0x20 PUSH2 0x2F9 PUSH2 0x2938 PUSH2 0x47D0 JUMP JUMPDEST PUSH1 0x4 CALLDATALOAD PUSH2 0x51F0 JUMP JUMPDEST POP CALLVALUE PUSH2 0x27B JUMPI PUSH1 0x20 CALLDATASIZE PUSH1 0x3 NOT ADD SLT PUSH2 0x27B JUMPI PUSH1 0x20 SWAP1 PUSH1 0x40 SWAP1 PUSH1 0x1 PUSH1 0x1 PUSH1 0xA0 SHL SUB PUSH2 0x2968 PUSH2 0x4738 JUMP JUMPDEST AND DUP2 MSTORE PUSH1 0x1 DUP4 MSTORE DUP2 DUP2 KECCAK256 DUP2 DUP1 MSTORE DUP4 MSTORE KECCAK256 SLOAD PUSH1 0x40 MLOAD SWAP1 DUP2 MSTORE RETURN JUMPDEST POP PUSH2 0x298B CALLDATASIZE PUSH2 0x47DF JUMP JUMPDEST DUP3 DUP5 SWAP4 SWAP3 SWAP5 MSTORE PUSH1 0x4 PUSH1 0x20 MSTORE PUSH1 0x40 DUP4 KECCAK256 SWAP4 PUSH1 0x1 DUP6 ADD SWAP4 PUSH2 0x29B4 PUSH1 0x1 DUP1 PUSH1 0xA0 SHL SUB DUP7 SLOAD AND CALLER EQ PUSH2 0x4C54 JUMP JUMPDEST PUSH20 0x0 DUP1 EXTCODESIZE ISZERO PUSH2 0xFE3 JUMPI DUP2 PUSH1 0x40 MLOAD DUP1 SWAP3 PUSH4 0x252A867 PUSH1 0xE5 SHL DUP3 MSTORE DUP2 DUP1 PUSH2 0x29EF DUP13 PUSH1 0x4 DUP4 ADD PUSH2 0x4C85 JUMP JUMPDEST SUB SWAP2 GAS DELEGATECALL DUP1 ISZERO PUSH2 0xFD8 JUMPI SWAP1 DUP3 SWAP2 PUSH2 0x2CA3 JUMPI JUMPDEST POP POP PUSH1 0xA DUP7 ADD DUP1 SLOAD CALLER PUSH0 SWAP1 DUP2 MSTORE PUSH1 0x1 PUSH1 0x20 SWAP1 DUP2 MSTORE PUSH1 0x40 DUP1 DUP4 KECCAK256 PUSH1 0x1 PUSH1 0x1 PUSH1 0xA0 SHL SUB SWAP1 SWAP5 AND DUP1 DUP5 MSTORE SWAP4 SWAP1 SWAP2 MSTORE SWAP1 KECCAK256 SLOAD SWAP2 SWAP3 SWAP1 SWAP2 SWAP5 ISZERO PUSH2 0x2A9F JUMPI POP POP DUP2 PUSH2 0x2A5A SWAP2 PUSH2 0x1DB7 DUP3 PUSH0 DUP1 MLOAD PUSH1 0x20 PUSH2 0x580C DUP4 CODECOPY DUP2 MLOAD SWAP2 MSTORE SWAP7 LT ISZERO PUSH2 0x49BF JUMP JUMPDEST POP PUSH1 0x6 DUP6 ADD PUSH2 0x2A6A DUP3 DUP3 SLOAD PUSH2 0x4F0E JUMP JUMPDEST SWAP1 SSTORE DUP5 SLOAD SWAP4 SLOAD PUSH1 0x2 SWAP1 SWAP6 ADD SLOAD PUSH1 0x40 DUP1 MLOAD PUSH1 0x1 PUSH1 0x1 PUSH1 0xA0 SHL SUB SWAP3 DUP4 AND DUP2 MSTORE PUSH1 0x20 DUP2 ADD SWAP4 SWAP1 SWAP4 MSTORE SWAP6 DUP2 AND SWAP6 SWAP5 AND SWAP4 DUP2 SWAP1 DUP2 ADD PUSH2 0x61E JUMP JUMPDEST SWAP1 SWAP4 DUP4 DUP2 LT PUSH2 0x2AC5 JUMPI JUMPDEST POP POP PUSH0 DUP1 MLOAD PUSH1 0x20 PUSH2 0x580C DUP4 CODECOPY DUP2 MLOAD SWAP2 MSTORE SWAP3 POP DUP2 PUSH2 0x2A5A SWAP2 PUSH2 0x1DB7 JUMP JUMPDEST PUSH2 0x2ACF SWAP1 DUP5 PUSH2 0x4D6C JUMP JUMPDEST SWAP2 PUSH2 0x2AE0 PUSH1 0xFF DUP4 SLOAD PUSH1 0xA0 SHR AND PUSH2 0x498E JUMP JUMPDEST PUSH2 0x2AEB DUP4 ISZERO ISZERO PUSH2 0x4DA3 JUMP JUMPDEST PUSH1 0x2 SLOAD SWAP2 PUSH1 0x40 MLOAD SWAP3 PUSH4 0x1C8F0847 PUSH1 0xE0 SHL DUP5 MSTORE DUP5 PUSH1 0x4 DUP6 ADD MSTORE PUSH1 0x24 DUP5 ADD MSTORE PUSH1 0x20 DUP4 PUSH1 0x44 DUP2 PUSH20 0x0 GAS DELEGATECALL SWAP3 DUP4 ISZERO PUSH2 0x1BFC JUMPI DUP2 SWAP4 PUSH2 0x2C6F JUMPI JUMPDEST POP DUP6 PUSH2 0x2BAA JUMPI POP PUSH2 0x2B44 DUP3 DUP5 PUSH2 0x4F0E JUMP JUMPDEST CALLVALUE SUB PUSH2 0x141E JUMPI DUP5 DUP4 DUP6 SWAP4 PUSH2 0x2B6A PUSH2 0x2A5A SWAP7 PUSH0 DUP1 MLOAD PUSH1 0x20 PUSH2 0x580C DUP4 CODECOPY DUP2 MLOAD SWAP2 MSTORE SWAP10 CALLER PUSH2 0x561A JUMP JUMPDEST POP PUSH1 0x3 SLOAD PUSH2 0x2B84 SWAP1 DUP3 SWAP1 DUP6 SWAP1 PUSH1 0x1 PUSH1 0x1 PUSH1 0xA0 SHL SUB AND PUSH2 0x561A JUMP JUMPDEST POP JUMPDEST PUSH1 0x40 MLOAD SWAP2 DUP3 MSTORE PUSH1 0x20 DUP3 ADD MSTORE PUSH0 DUP1 MLOAD PUSH1 0x20 PUSH2 0x584C DUP4 CODECOPY DUP2 MLOAD SWAP2 MSTORE PUSH1 0x40 CALLER SWAP3 LOG3 SWAP2 PUSH2 0x2AA9 JUMP JUMPDEST PUSH2 0x2BB4 DUP4 DUP6 PUSH2 0x4F0E JUMP JUMPDEST PUSH1 0x40 MLOAD SWAP1 PUSH4 0x23B872DD PUSH1 0xE0 SHL DUP3 MSTORE CALLER PUSH1 0x4 DUP4 ADD MSTORE ADDRESS PUSH1 0x24 DUP4 ADD MSTORE PUSH1 0x44 DUP3 ADD MSTORE PUSH1 0x20 DUP2 PUSH1 0x64 DUP2 DUP6 DUP12 GAS CALL SWAP2 DUP3 ISZERO PUSH2 0xB1E JUMPI DUP1 SWAP3 PUSH2 0x2C32 JUMPI JUMPDEST POP POP ISZERO PUSH2 0x14C8 JUMPI DUP5 DUP4 DUP6 SWAP4 PUSH2 0x2C12 PUSH2 0x2A5A SWAP7 PUSH0 DUP1 MLOAD PUSH1 0x20 PUSH2 0x580C DUP4 CODECOPY DUP2 MLOAD SWAP2 MSTORE SWAP10 CALLER PUSH2 0x561A JUMP JUMPDEST POP PUSH1 0x3 SLOAD PUSH2 0x2C2C SWAP1 DUP3 SWAP1 DUP6 SWAP1 PUSH1 0x1 PUSH1 0x1 PUSH1 0xA0 SHL SUB AND PUSH2 0x561A JUMP JUMPDEST POP PUSH2 0x2B86 JUMP JUMPDEST SWAP1 SWAP2 POP PUSH1 0x20 DUP3 RETURNDATASIZE PUSH1 0x20 GT PUSH2 0x2C67 JUMPI JUMPDEST DUP2 PUSH2 0x2C4E PUSH1 0x20 SWAP4 DUP4 PUSH2 0x4A3D JUMP JUMPDEST DUP2 ADD SUB SLT PUSH2 0x27B JUMPI POP PUSH2 0x2C60 SWAP1 PUSH2 0x4A73 JUMP JUMPDEST PUSH0 DUP1 PUSH2 0x2BEB JUMP JUMPDEST RETURNDATASIZE SWAP2 POP PUSH2 0x2C41 JUMP JUMPDEST SWAP1 SWAP3 POP PUSH1 0x20 DUP2 RETURNDATASIZE PUSH1 0x20 GT PUSH2 0x2C9B JUMPI JUMPDEST DUP2 PUSH2 0x2C8B PUSH1 0x20 SWAP4 DUP4 PUSH2 0x4A3D JUMP JUMPDEST DUP2 ADD SUB SLT PUSH2 0xAD2 JUMPI MLOAD SWAP2 PUSH0 PUSH2 0x2B33 JUMP JUMPDEST RETURNDATASIZE SWAP2 POP PUSH2 0x2C7E JUMP JUMPDEST DUP2 PUSH2 0x2CAD SWAP2 PUSH2 0x4A3D JUMP JUMPDEST PUSH2 0x27B JUMPI DUP1 PUSH0 PUSH2 0x2A01 JUMP JUMPDEST POP CALLVALUE PUSH2 0x27B JUMPI PUSH2 0x2CC7 CALLDATASIZE PUSH2 0x4802 JUMP JUMPDEST DUP4 DUP6 SWAP5 SWAP4 SWAP5 MSTORE PUSH1 0x4 PUSH1 0x20 MSTORE PUSH1 0x40 DUP6 KECCAK256 SWAP1 PUSH2 0x2CE8 PUSH5 0x2540BE400 DUP3 GT ISZERO PUSH2 0x4DA3 JUMP JUMPDEST PUSH1 0x1 DUP3 ADD SWAP5 PUSH2 0x2D01 PUSH1 0x1 DUP1 PUSH1 0xA0 SHL SUB DUP8 SLOAD AND CALLER EQ PUSH2 0x4C54 JUMP JUMPDEST DUP7 PUSH20 0x0 DUP1 EXTCODESIZE ISZERO PUSH2 0xFE3 JUMPI DUP2 PUSH1 0x40 MLOAD DUP1 SWAP3 PUSH4 0x252A867 PUSH1 0xE5 SHL DUP3 MSTORE DUP2 DUP1 PUSH2 0x2D3D DUP11 PUSH1 0x4 DUP4 ADD PUSH2 0x4C85 JUMP JUMPDEST SUB SWAP2 GAS DELEGATECALL DUP1 ISZERO PUSH2 0xFD8 JUMPI PUSH2 0x2E34 JUMPI JUMPDEST POP POP SWAP1 PUSH0 DUP1 MLOAD PUSH1 0x20 PUSH2 0x586C DUP4 CODECOPY DUP2 MLOAD SWAP2 MSTORE SWAP4 DUP4 SWAP3 PUSH1 0x40 PUSH1 0x2 PUSH1 0x20 SWAP7 ADD SWAP10 DUP11 SLOAD PUSH2 0x2D7B PUSH1 0xFF DUP3 PUSH1 0xA8 SHR AND ISZERO PUSH2 0x4DD4 JUMP JUMPDEST DUP6 PUSH2 0x2E1A JUMPI JUMPDEST POP CALLER DUP2 MSTORE PUSH1 0x1 DUP8 MSTORE KECCAK256 PUSH1 0x1 DUP1 PUSH1 0xA0 SHL SUB DUP3 AND PUSH0 MSTORE DUP6 MSTORE PUSH2 0x2DA7 DUP3 PUSH1 0x40 PUSH0 KECCAK256 SLOAD LT ISZERO PUSH2 0x49BF JUMP JUMPDEST PUSH2 0x2DB2 DUP3 DUP3 CALLER PUSH2 0x5555 JUMP JUMPDEST POP DUP9 SLOAD PUSH1 0xFF PUSH1 0xA8 SHL NOT AND PUSH1 0x1 PUSH1 0xA8 SHL OR DUP10 SSTORE PUSH1 0xA DUP5 ADD DUP1 SLOAD PUSH1 0x1 PUSH1 0x1 PUSH1 0xA0 SHL SUB NOT AND PUSH1 0x1 PUSH1 0x1 PUSH1 0xA0 SHL SUB SWAP3 DUP4 AND OR SWAP1 SSTORE PUSH1 0x4 DUP5 ADD DUP3 SWAP1 SSTORE PUSH1 0x6 DUP5 ADD SWAP2 SWAP1 SWAP2 SSTORE PUSH1 0x8 DUP4 ADD SWAP2 SWAP1 SWAP2 SSTORE SWAP1 SLOAD SWAP5 SLOAD SWAP6 SLOAD PUSH1 0x40 MLOAD SWAP1 DUP3 AND DUP2 MSTORE SWAP6 DUP2 AND SWAP6 SWAP5 AND SWAP4 LOG4 PUSH1 0x20 PUSH1 0x40 MLOAD PUSH1 0x1 DUP2 MSTORE RETURN JUMPDEST PUSH2 0x2E2E SWAP1 PUSH1 0x1 PUSH1 0x1 PUSH1 0xA0 SHL SUB AND ISZERO ISZERO PUSH2 0x4E06 JUMP JUMPDEST PUSH0 PUSH2 0x2D81 JUMP JUMPDEST DUP2 PUSH2 0x2E42 SWAP2 SWAP6 SWAP5 SWAP4 SWAP6 PUSH2 0x4A3D JUMP JUMPDEST PUSH2 0x2E4F JUMPI SWAP1 SWAP2 DUP7 PUSH0 PUSH2 0x2D4C JUMP JUMPDEST DUP7 DUP1 REVERT JUMPDEST POP CALLVALUE PUSH2 0x27B JUMPI PUSH1 0x40 CALLDATASIZE PUSH1 0x3 NOT ADD SLT PUSH2 0x27B JUMPI PUSH1 0x4 CALLDATALOAD PUSH2 0x2E70 PUSH2 0x47D0 JUMP JUMPDEST DUP2 DUP4 MSTORE PUSH1 0x4 PUSH1 0x20 MSTORE PUSH1 0x40 DUP4 KECCAK256 DUP1 SLOAD PUSH1 0x1 PUSH1 0x1 PUSH1 0xA0 SHL SUB AND CALLER EQ DUP1 ISZERO PUSH2 0x319F JUMPI JUMPDEST PUSH2 0x2E99 SWAP1 PUSH2 0x4C54 JUMP JUMPDEST DUP4 PUSH20 0x0 DUP1 EXTCODESIZE ISZERO PUSH2 0xFE3 JUMPI DUP2 PUSH1 0x40 MLOAD DUP1 SWAP3 PUSH4 0x252A867 PUSH1 0xE5 SHL DUP3 MSTORE DUP2 DUP1 PUSH2 0x2ED5 DUP9 PUSH1 0x4 DUP4 ADD PUSH2 0x4C85 JUMP JUMPDEST SUB SWAP2 GAS DELEGATECALL DUP1 ISZERO PUSH2 0xFD8 JUMPI PUSH2 0x3186 JUMPI JUMPDEST POP POP PUSH1 0x5 DUP2 ADD SLOAD SWAP1 PUSH1 0x1 DUP1 PUSH1 0xA0 SHL SUB PUSH1 0x9 DUP3 ADD SLOAD AND PUSH1 0x6 DUP3 ADD SLOAD SWAP3 PUSH1 0x1 DUP1 PUSH1 0xA0 SHL SUB PUSH1 0xA DUP5 ADD SLOAD AND SWAP3 PUSH1 0x7 DUP2 ADD SLOAD SWAP6 PUSH1 0x8 DUP3 ADD SLOAD SWAP5 PUSH20 0x0 SWAP6 PUSH1 0x40 MLOAD SWAP9 PUSH4 0x1C8F0847 PUSH1 0xE0 SHL DUP11 MSTORE DUP6 PUSH1 0x4 DUP12 ADD MSTORE PUSH1 0x24 DUP11 ADD MSTORE PUSH1 0x20 DUP10 PUSH1 0x44 DUP2 DUP11 GAS DELEGATECALL SWAP9 DUP10 ISZERO PUSH2 0xF74 JUMPI DUP12 SWAP10 PUSH2 0x3151 JUMPI JUMPDEST POP PUSH1 0x20 SWAP1 PUSH1 0x44 PUSH1 0x40 MLOAD DUP1 SWAP10 DUP2 SWAP4 PUSH4 0x1C8F0847 PUSH1 0xE0 SHL DUP4 MSTORE DUP13 PUSH1 0x4 DUP5 ADD MSTORE PUSH1 0x24 DUP4 ADD MSTORE GAS DELEGATECALL SWAP6 DUP7 ISZERO PUSH2 0x3146 JUMPI SWAP2 DUP11 SWAP2 DUP10 SWAP11 SWAP12 SWAP4 DUP13 SWAP11 SWAP6 SWAP5 SWAP9 PUSH2 0x3104 JUMPI JUMPDEST POP SWAP1 DUP8 DUP5 SWAP4 SWAP3 PUSH1 0x1 DUP13 SWAP9 SWAP8 SWAP7 ADD SWAP9 PUSH1 0x1 PUSH1 0xA0 SHL PUSH1 0x1 SWAP1 SUB DUP11 SLOAD AND DUP2 PUSH2 0x2FC0 DUP10 DUP12 PUSH2 0x4D6C JUMP JUMPDEST SWAP1 PUSH2 0x2FCB SWAP3 DUP8 PUSH2 0x55FC JUMP JUMPDEST POP PUSH1 0x2 DUP7 ADD DUP1 SLOAD SWAP1 SWAP15 PUSH2 0x2FE9 SWAP3 SWAP1 SWAP2 PUSH1 0x1 PUSH1 0x1 PUSH1 0xA0 SHL SUB AND DUP7 PUSH2 0x55FC JUMP JUMPDEST POP DUP5 SLOAD PUSH1 0x1 PUSH1 0x1 PUSH1 0xA0 SHL SUB AND DUP2 PUSH2 0x3000 DUP14 DUP1 PUSH2 0x4D6C JUMP JUMPDEST SWAP1 PUSH2 0x300B SWAP3 DUP7 PUSH2 0x55FC JUMP JUMPDEST POP DUP13 SLOAD PUSH2 0x3023 SWAP4 PUSH1 0x1 PUSH1 0x1 PUSH1 0xA0 SHL SUB SWAP1 SWAP2 AND SWAP1 PUSH2 0x55FC JUMP JUMPDEST POP POP DUP9 SLOAD PUSH1 0xFF PUSH1 0xA0 SHL NOT DUP2 AND SWAP1 SWAP10 SSTORE SLOAD SWAP4 SLOAD PUSH1 0x40 MLOAD PUSH1 0x1 PUSH1 0x1 PUSH1 0xA0 SHL SUB SWAP2 DUP3 AND SWAP11 SWAP6 DUP3 AND SWAP10 SWAP2 SWAP1 SWAP2 AND SWAP7 DUP11 SWAP7 DUP11 SWAP7 DUP9 SWAP4 DUP9 SWAP4 SWAP2 SWAP3 SWAP1 SWAP2 DUP3 SWAP2 PUSH2 0x3067 SWAP2 CALLER DUP15 DUP6 PUSH2 0x4D79 JUMP JUMPDEST SUB PUSH0 DUP1 MLOAD PUSH1 0x20 PUSH2 0x57AC DUP4 CODECOPY DUP2 MLOAD SWAP2 MSTORE SWAP2 LOG4 PUSH1 0x40 MLOAD SWAP2 DUP3 SWAP2 PUSH2 0x308A SWAP2 CALLER DUP10 DUP6 PUSH2 0x4D79 JUMP JUMPDEST SUB PUSH32 0xF05D33634B730E763D232B482CF835A4481835F62D0A0973B42018A8EAD4F047 SWAP2 LOG4 PUSH1 0x40 DUP1 MLOAD PUSH1 0x1 PUSH1 0x1 PUSH1 0xA0 SHL SUB SWAP3 SWAP1 SWAP3 AND DUP3 MSTORE CALLER PUSH1 0x20 DUP4 ADD MSTORE PUSH32 0xFAEE379435B6A0C297F1A08C66517FDC202DEBC6D275E6DD73630E3EBD1BDD97 SWAP2 LOG4 PUSH1 0x6 SLOAD PUSH2 0x30F5 SWAP1 PUSH2 0x4BF6 JUMP JUMPDEST PUSH1 0x6 SSTORE PUSH1 0x40 MLOAD PUSH1 0x1 DUP2 MSTORE PUSH1 0x20 SWAP1 RETURN JUMPDEST SWAP4 SWAP3 SWAP10 POP SWAP7 POP SWAP4 SWAP3 POP PUSH1 0x20 DUP3 RETURNDATASIZE PUSH1 0x20 GT PUSH2 0x313E JUMPI JUMPDEST DUP2 PUSH2 0x3126 PUSH1 0x20 SWAP4 DUP4 PUSH2 0x4A3D JUMP JUMPDEST DUP2 ADD SUB SLT PUSH2 0xAD2 JUMPI SWAP1 MLOAD DUP10 SWAP8 SWAP1 SWAP6 SWAP3 SWAP4 DUP10 SWAP4 DUP10 PUSH2 0x2F9B JUMP JUMPDEST RETURNDATASIZE SWAP2 POP PUSH2 0x3119 JUMP JUMPDEST PUSH1 0x40 MLOAD RETURNDATASIZE DUP13 DUP3 RETURNDATACOPY RETURNDATASIZE SWAP1 REVERT JUMPDEST SWAP1 SWAP9 POP PUSH1 0x20 DUP2 RETURNDATASIZE PUSH1 0x20 GT PUSH2 0x317E JUMPI JUMPDEST DUP2 PUSH2 0x316D PUSH1 0x20 SWAP4 DUP4 PUSH2 0x4A3D JUMP JUMPDEST DUP2 ADD SUB SLT PUSH2 0xAD2 JUMPI MLOAD SWAP8 PUSH1 0x20 PUSH2 0x2F5F JUMP JUMPDEST RETURNDATASIZE SWAP2 POP PUSH2 0x3160 JUMP JUMPDEST DUP2 PUSH2 0x3190 SWAP2 PUSH2 0x4A3D JUMP JUMPDEST PUSH2 0x319B JUMPI DUP4 PUSH0 PUSH2 0x2EE4 JUMP JUMPDEST DUP4 DUP1 REVERT JUMPDEST POP PUSH1 0x2 DUP2 ADD SLOAD PUSH1 0x1 PUSH1 0x1 PUSH1 0xA0 SHL SUB AND CALLER EQ PUSH2 0x2E90 JUMP JUMPDEST POP CALLVALUE PUSH2 0x27B JUMPI PUSH1 0x40 CALLDATASIZE PUSH1 0x3 NOT ADD SLT PUSH2 0x27B JUMPI PUSH1 0x20 PUSH2 0x2F9 PUSH2 0x31D4 PUSH2 0x47D0 JUMP JUMPDEST PUSH1 0x4 CALLDATALOAD PUSH2 0x4FE2 JUMP JUMPDEST POP CALLVALUE PUSH2 0x27B JUMPI PUSH1 0x20 CALLDATASIZE PUSH1 0x3 NOT ADD SLT PUSH2 0x27B JUMPI PUSH1 0x40 PUSH1 0xE0 SWAP2 PUSH1 0x4 CALLDATALOAD DUP2 MSTORE PUSH1 0xA PUSH1 0x20 MSTORE KECCAK256 PUSH1 0xFF DUP2 SLOAD SWAP2 PUSH1 0x1 DUP1 PUSH1 0xA0 SHL SUB PUSH1 0x1 DUP3 ADD SLOAD AND SWAP1 PUSH1 0x2 DUP2 ADD SLOAD PUSH1 0x4 PUSH1 0x3 DUP4 ADD SLOAD SWAP3 ADD SLOAD SWAP3 PUSH1 0x40 MLOAD SWAP6 DUP7 MSTORE PUSH1 0x20 DUP7 ADD MSTORE PUSH1 0x40 DUP6 ADD MSTORE PUSH1 0x60 DUP5 ADD MSTORE DUP2 DUP2 AND ISZERO ISZERO PUSH1 0x80 DUP5 ADD MSTORE DUP2 DUP2 PUSH1 0x8 SHR AND ISZERO ISZERO PUSH1 0xA0 DUP5 ADD MSTORE PUSH1 0x10 SHR AND ISZERO ISZERO PUSH1 0xC0 DUP3 ADD MSTORE RETURN JUMPDEST POP CALLVALUE PUSH2 0x27B JUMPI PUSH1 0x20 CALLDATASIZE PUSH1 0x3 NOT ADD SLT PUSH2 0x27B JUMPI DUP1 PUSH2 0x1E0 PUSH1 0x40 MLOAD PUSH2 0x327C DUP2 PUSH2 0x4A20 JUMP JUMPDEST DUP3 DUP2 MSTORE DUP3 PUSH1 0x20 DUP3 ADD MSTORE DUP3 PUSH1 0x40 DUP3 ADD MSTORE DUP3 PUSH1 0x60 DUP3 ADD MSTORE DUP3 PUSH1 0x80 DUP3 ADD MSTORE DUP3 PUSH1 0xA0 DUP3 ADD MSTORE DUP3 PUSH1 0xC0 DUP3 ADD MSTORE DUP3 PUSH1 0xE0 DUP3 ADD MSTORE DUP3 PUSH2 0x100 DUP3 ADD MSTORE DUP3 PUSH2 0x120 DUP3 ADD MSTORE DUP3 PUSH2 0x140 DUP3 ADD MSTORE DUP3 PUSH2 0x160 DUP3 ADD MSTORE DUP3 PUSH2 0x180 DUP3 ADD MSTORE DUP3 PUSH2 0x1A0 DUP3 ADD MSTORE DUP3 PUSH2 0x1C0 DUP3 ADD MSTORE ADD MSTORE PUSH1 0x4 CALLDATALOAD DUP2 MSTORE PUSH1 0x4 PUSH1 0x20 MSTORE PUSH1 0x40 DUP2 KECCAK256 SWAP1 PUSH1 0x40 MLOAD SWAP1 PUSH2 0x32F8 DUP3 PUSH2 0x4A20 JUMP JUMPDEST DUP3 SLOAD PUSH1 0x1 PUSH1 0x1 PUSH1 0xA0 SHL SUB SWAP1 DUP2 AND DUP4 MSTORE PUSH1 0x1 DUP5 ADD SLOAD DUP2 AND PUSH1 0x20 DUP5 ADD MSTORE PUSH1 0x2 DUP5 ADD SLOAD SWAP1 DUP2 AND PUSH1 0x40 DUP5 ADD MSTORE SWAP1 PUSH1 0xA0 DUP3 SWAP1 SHR PUSH1 0xFF AND SWAP1 PUSH1 0x3 DUP3 LT ISZERO PUSH2 0x1299 JUMPI POP PUSH1 0xC PUSH2 0x200 SWAP5 PUSH1 0xFF PUSH2 0x33DD SWAP5 DUP2 SWAP5 PUSH1 0x60 DUP9 ADD MSTORE DUP2 DUP2 PUSH1 0xA8 SHR AND ISZERO ISZERO PUSH1 0x80 DUP9 ADD MSTORE PUSH1 0xB0 SHR AND ISZERO ISZERO PUSH1 0xA0 DUP7 ADD MSTORE PUSH1 0x3 DUP2 ADD SLOAD PUSH1 0xC0 DUP7 ADD MSTORE PUSH1 0x4 DUP2 ADD SLOAD PUSH1 0xE0 DUP7 ADD MSTORE PUSH1 0x5 DUP2 ADD SLOAD PUSH2 0x100 DUP7 ADD MSTORE PUSH1 0x6 DUP2 ADD SLOAD PUSH2 0x120 DUP7 ADD MSTORE PUSH1 0x7 DUP2 ADD SLOAD PUSH2 0x140 DUP7 ADD MSTORE PUSH1 0x8 DUP2 ADD SLOAD PUSH2 0x160 DUP7 ADD MSTORE PUSH1 0x1 DUP1 PUSH1 0xA0 SHL SUB PUSH1 0x9 DUP3 ADD SLOAD AND PUSH2 0x180 DUP7 ADD MSTORE PUSH1 0x1 DUP1 PUSH1 0xA0 SHL SUB PUSH1 0xA DUP3 ADD SLOAD AND PUSH2 0x1A0 DUP7 ADD MSTORE PUSH1 0xB DUP2 ADD SLOAD PUSH2 0x1C0 DUP7 ADD MSTORE ADD SLOAD AND PUSH2 0x1E0 DUP4 ADD PUSH2 0x4E38 JUMP JUMPDEST PUSH2 0x33EA PUSH1 0x40 MLOAD DUP1 SWAP3 PUSH2 0x48AD JUMP JUMPDEST RETURN JUMPDEST POP PUSH1 0x40 CALLDATASIZE PUSH1 0x3 NOT ADD SLT PUSH2 0x27B JUMPI PUSH2 0x3401 PUSH2 0x4738 JUMP JUMPDEST PUSH1 0x24 CALLDATALOAD PUSH2 0x3414 PUSH1 0xFF DUP5 SLOAD PUSH1 0xA0 SHR AND PUSH2 0x498E JUMP JUMPDEST PUSH2 0x341F DUP2 ISZERO ISZERO PUSH2 0x4DA3 JUMP JUMPDEST PUSH1 0x2 SLOAD PUSH1 0x40 MLOAD SWAP1 PUSH4 0x1C8F0847 PUSH1 0xE0 SHL DUP3 MSTORE DUP3 PUSH1 0x4 DUP4 ADD MSTORE PUSH1 0x24 DUP3 ADD MSTORE PUSH1 0x20 DUP2 PUSH1 0x44 DUP2 PUSH20 0x0 GAS DELEGATECALL SWAP1 DUP2 ISZERO PUSH2 0x35A4 JUMPI DUP5 SWAP2 PUSH2 0x3572 JUMPI JUMPDEST POP PUSH1 0x1 PUSH1 0x1 PUSH1 0xA0 SHL SUB DUP4 AND SWAP3 DUP4 PUSH2 0x34CC JUMPI PUSH2 0x3481 DUP3 DUP5 PUSH2 0x4F0E JUMP JUMPDEST CALLVALUE SUB PUSH2 0x141E JUMPI DUP2 DUP2 PUSH2 0x3497 DUP6 PUSH2 0x34A9 SWAP5 CALLER PUSH2 0x561A JUMP JUMPDEST POP PUSH1 0x3 SLOAD PUSH1 0x1 PUSH1 0x1 PUSH1 0xA0 SHL SUB AND PUSH2 0x561A JUMP JUMPDEST POP JUMPDEST PUSH1 0x40 MLOAD SWAP2 DUP3 MSTORE PUSH1 0x20 DUP3 ADD MSTORE PUSH0 DUP1 MLOAD PUSH1 0x20 PUSH2 0x584C DUP4 CODECOPY DUP2 MLOAD SWAP2 MSTORE PUSH1 0x40 CALLER SWAP3 LOG3 DUP1 RETURN JUMPDEST PUSH2 0x34D6 DUP3 DUP5 PUSH2 0x4F0E JUMP JUMPDEST PUSH1 0x40 MLOAD SWAP1 PUSH4 0x23B872DD PUSH1 0xE0 SHL DUP3 MSTORE CALLER PUSH1 0x4 DUP4 ADD MSTORE ADDRESS PUSH1 0x24 DUP4 ADD MSTORE PUSH1 0x44 DUP3 ADD MSTORE PUSH1 0x20 DUP2 PUSH1 0x64 DUP2 DUP10 DUP10 GAS CALL SWAP1 DUP2 ISZERO PUSH2 0x3567 JUMPI DUP7 SWAP2 PUSH2 0x3529 JUMPI JUMPDEST POP ISZERO PUSH2 0x14C8 JUMPI DUP2 DUP2 PUSH2 0x3497 DUP6 PUSH2 0x3523 SWAP5 CALLER PUSH2 0x561A JUMP JUMPDEST POP PUSH2 0x34AB JUMP JUMPDEST SWAP1 POP PUSH1 0x20 DUP2 RETURNDATASIZE PUSH1 0x20 GT PUSH2 0x355F JUMPI JUMPDEST DUP2 PUSH2 0x3544 PUSH1 0x20 SWAP4 DUP4 PUSH2 0x4A3D JUMP JUMPDEST DUP2 ADD SUB SLT PUSH2 0x355B JUMPI PUSH2 0x3555 SWAP1 PUSH2 0x4A73 JUMP JUMPDEST PUSH0 PUSH2 0x350D JUMP JUMPDEST DUP6 DUP1 REVERT JUMPDEST RETURNDATASIZE SWAP2 POP PUSH2 0x3537 JUMP JUMPDEST PUSH1 0x40 MLOAD RETURNDATASIZE DUP9 DUP3 RETURNDATACOPY RETURNDATASIZE SWAP1 REVERT JUMPDEST SWAP1 POP PUSH1 0x20 DUP2 RETURNDATASIZE PUSH1 0x20 GT PUSH2 0x359C JUMPI JUMPDEST DUP2 PUSH2 0x358D PUSH1 0x20 SWAP4 DUP4 PUSH2 0x4A3D JUMP JUMPDEST DUP2 ADD SUB SLT PUSH2 0xAD2 JUMPI MLOAD PUSH0 PUSH2 0x3466 JUMP JUMPDEST RETURNDATASIZE SWAP2 POP PUSH2 0x3580 JUMP JUMPDEST PUSH1 0x40 MLOAD RETURNDATASIZE DUP7 DUP3 RETURNDATACOPY RETURNDATASIZE SWAP1 REVERT JUMPDEST POP CALLVALUE PUSH2 0x27B JUMPI DUP1 PUSH1 0x3 NOT CALLDATASIZE ADD SLT PUSH2 0x27B JUMPI PUSH1 0xFF PUSH1 0x20 SWAP2 SLOAD PUSH1 0xA0 SHR AND PUSH1 0x40 MLOAD SWAP1 ISZERO ISZERO DUP2 MSTORE RETURN JUMPDEST POP CALLVALUE PUSH2 0x27B JUMPI PUSH1 0x20 CALLDATASIZE PUSH1 0x3 NOT ADD SLT PUSH2 0x27B JUMPI PUSH1 0x4 CALLDATALOAD DUP1 DUP3 MSTORE PUSH1 0x4 PUSH1 0x20 MSTORE PUSH1 0x40 DUP3 KECCAK256 SWAP2 PUSH1 0x1 DUP4 ADD SWAP3 PUSH2 0x360F PUSH1 0x1 DUP1 PUSH1 0xA0 SHL SUB DUP6 SLOAD AND CALLER EQ PUSH2 0x4C54 JUMP JUMPDEST PUSH1 0x2 DUP2 ADD SWAP2 PUSH1 0xFF DUP4 SLOAD PUSH2 0x3626 DUP3 DUP3 PUSH1 0xA8 SHR AND PUSH2 0x4F1B JUMP JUMPDEST PUSH2 0x3635 DUP3 DUP3 PUSH1 0xB0 SHR AND ISZERO PUSH2 0x4F4D JUMP JUMPDEST PUSH1 0xA0 SHR AND SWAP1 PUSH1 0x3 DUP3 LT ISZERO PUSH2 0x1299 JUMPI POP PUSH1 0x2 PUSH2 0x3650 SWAP2 EQ PUSH2 0x4F7F JUMP JUMPDEST PUSH1 0xA DUP2 ADD SLOAD CALLER PUSH0 SWAP1 DUP2 MSTORE PUSH1 0x1 PUSH1 0x20 SWAP1 DUP2 MSTORE PUSH1 0x40 DUP1 DUP4 KECCAK256 PUSH1 0x1 PUSH1 0x1 PUSH1 0xA0 SHL SUB SWAP1 SWAP5 AND DUP1 DUP5 MSTORE SWAP4 SWAP1 SWAP2 MSTORE SWAP1 KECCAK256 SLOAD PUSH2 0x19A0 SWAP2 PUSH2 0x3690 PUSH1 0x4 DUP6 ADD SLOAD DUP1 SWAP4 LT ISZERO PUSH2 0x49BF JUMP JUMPDEST CALLER PUSH2 0x5555 JUMP JUMPDEST POP CALLVALUE PUSH2 0x27B JUMPI PUSH1 0x20 CALLDATASIZE PUSH1 0x3 NOT ADD SLT PUSH2 0x27B JUMPI PUSH1 0x4 CALLDATALOAD SWAP1 PUSH1 0x2 SLOAD PUSH1 0x40 MLOAD SWAP1 PUSH4 0x1C8F0847 PUSH1 0xE0 SHL DUP3 MSTORE DUP4 PUSH1 0x4 DUP4 ADD MSTORE PUSH1 0x24 DUP3 ADD MSTORE PUSH1 0x20 DUP2 PUSH1 0x44 DUP2 PUSH20 0x0 GAS DELEGATECALL SWAP2 DUP3 ISZERO PUSH2 0xB1E JUMPI SWAP2 PUSH2 0x3706 JUMPI JUMPDEST PUSH1 0x20 PUSH2 0x36FE DUP4 DUP6 PUSH2 0x4F0E JUMP JUMPDEST PUSH1 0x40 MLOAD SWAP1 DUP2 MSTORE RETURN JUMPDEST SWAP1 POP PUSH1 0x20 DUP2 RETURNDATASIZE PUSH1 0x20 GT PUSH2 0x3731 JUMPI JUMPDEST DUP2 PUSH2 0x3721 PUSH1 0x20 SWAP4 DUP4 PUSH2 0x4A3D JUMP JUMPDEST DUP2 ADD SUB SLT PUSH2 0xAD2 JUMPI MLOAD PUSH1 0x20 PUSH2 0x36F2 JUMP JUMPDEST RETURNDATASIZE SWAP2 POP PUSH2 0x3714 JUMP JUMPDEST POP CALLVALUE PUSH2 0x27B JUMPI DUP1 PUSH1 0x3 NOT CALLDATASIZE ADD SLT PUSH2 0x27B JUMPI DUP1 SLOAD PUSH2 0x3760 CALLER PUSH1 0x1 PUSH1 0x1 PUSH1 0xA0 SHL SUB DUP4 AND EQ PUSH2 0x4E44 JUMP JUMPDEST PUSH1 0xFF PUSH1 0xA0 SHL NOT AND PUSH1 0x1 PUSH1 0xA0 SHL OR DUP2 SSTORE PUSH1 0x40 MLOAD PUSH1 0x1 DUP2 MSTORE PUSH32 0x17904E4FE7D59BB4603C7C045BC275A05DA9EA3A4AC007FC80FFFEAF119186D SWAP1 PUSH1 0x20 SWAP1 LOG1 DUP1 RETURN JUMPDEST POP PUSH2 0x37A9 CALLDATASIZE PUSH2 0x4830 JUMP JUMPDEST SWAP2 SWAP3 SWAP1 SWAP6 SWAP5 SWAP4 PUSH1 0xFF DUP9 SLOAD PUSH1 0xA0 SHR AND SWAP3 PUSH2 0x37C1 DUP5 PUSH2 0x498E JUMP JUMPDEST CALLER DUP10 MSTORE PUSH1 0x1 PUSH1 0x20 MSTORE PUSH1 0x40 DUP10 KECCAK256 PUSH1 0x1 DUP1 PUSH1 0xA0 SHL SUB DUP7 AND PUSH0 MSTORE PUSH1 0x20 MSTORE PUSH1 0x40 PUSH0 KECCAK256 SLOAD DUP3 DUP2 LT PUSH2 0x3A84 JUMPI JUMPDEST POP PUSH2 0x200 SWAP4 POP PUSH2 0x3833 SWAP1 PUSH2 0x37FD DUP4 DUP8 CALLER PUSH2 0x5555 JUMP JUMPDEST POP PUSH1 0x40 MLOAD PUSH4 0x652E83D7 PUSH1 0xE0 SHL DUP2 MSTORE PUSH20 0x0 SWAP10 SWAP1 SWAP7 DUP8 SWAP6 DUP7 SWAP6 DUP11 DUP13 CALLER PUSH1 0x4 DUP11 ADD PUSH2 0x4EA6 JUMP JUMPDEST SUB DUP2 DUP8 GAS DELEGATECALL SWAP1 DUP2 ISZERO PUSH2 0x12F5 JUMPI DUP6 SWAP2 PUSH2 0x3A65 JUMPI JUMPDEST POP PUSH1 0x20 PUSH1 0x5 SLOAD PUSH2 0x224 PUSH1 0x40 MLOAD DUP1 SWAP8 DUP2 SWAP4 PUSH4 0x797D4EE1 PUSH1 0xE0 SHL DUP4 MSTORE PUSH2 0x386D PUSH1 0x4 DUP5 ADD DUP9 PUSH2 0x48AD JUMP JUMPDEST PUSH2 0x204 DUP4 ADD MSTORE GAS DELEGATECALL SWAP4 DUP5 ISZERO PUSH2 0x12F5 JUMPI DUP6 SWAP5 PUSH2 0x3A31 JUMPI JUMPDEST POP PUSH2 0x388F PUSH1 0x5 SLOAD PUSH2 0x4BF6 JUMP JUMPDEST PUSH1 0x5 SSTORE DUP4 DUP6 MSTORE PUSH1 0x4 PUSH1 0x20 SWAP1 DUP2 MSTORE PUSH1 0x40 DUP1 DUP8 KECCAK256 DUP4 MLOAD DUP2 SLOAD PUSH1 0x1 PUSH1 0x1 PUSH1 0xA0 SHL SUB NOT SWAP1 DUP2 AND PUSH1 0x1 PUSH1 0x1 PUSH1 0xA0 SHL SUB SWAP3 DUP4 AND OR DUP4 SSTORE SWAP4 DUP6 ADD MLOAD PUSH1 0x1 DUP4 ADD DUP1 SLOAD DUP7 AND SWAP2 DUP4 AND SWAP2 SWAP1 SWAP2 OR SWAP1 SSTORE SWAP2 DUP5 ADD MLOAD PUSH1 0x2 DUP3 ADD DUP1 SLOAD SWAP1 SWAP5 AND SWAP3 AND SWAP2 SWAP1 SWAP2 OR DUP3 SSTORE PUSH1 0x60 DUP4 ADD MLOAD SWAP1 SWAP3 SWAP2 SWAP1 PUSH1 0x3 DUP2 LT ISZERO PUSH2 0x12AD JUMPI DUP2 PUSH2 0x1172 PUSH2 0x390D SWAP3 PUSH2 0x1E0 SWAP6 SWAP5 PUSH2 0x4C18 JUMP JUMPDEST PUSH1 0xC0 DUP2 ADD MLOAD PUSH1 0x3 DUP5 ADD SSTORE PUSH1 0xE0 DUP2 ADD MLOAD PUSH1 0x4 DUP5 ADD SSTORE PUSH2 0x100 DUP2 ADD MLOAD PUSH1 0x5 DUP5 ADD SSTORE PUSH2 0x120 DUP2 ADD MLOAD PUSH1 0x6 DUP1 DUP6 ADD SWAP2 SWAP1 SWAP2 SSTORE PUSH2 0x140 DUP3 ADD MLOAD PUSH1 0x7 DUP6 ADD SSTORE PUSH2 0x160 DUP3 ADD MLOAD PUSH1 0x8 DUP6 ADD SSTORE PUSH2 0x180 DUP3 ADD MLOAD PUSH1 0x9 DUP6 ADD DUP1 SLOAD PUSH1 0x1 PUSH1 0x1 PUSH1 0xA0 SHL SUB SWAP3 DUP4 AND PUSH1 0x1 PUSH1 0x1 PUSH1 0xA0 SHL SUB NOT SWAP2 DUP3 AND OR SWAP1 SWAP2 SSTORE PUSH2 0x1A0 DUP5 ADD MLOAD PUSH1 0xA DUP8 ADD DUP1 SLOAD SWAP2 SWAP1 SWAP4 AND SWAP2 AND OR SWAP1 SSTORE PUSH2 0x1C0 DUP3 ADD MLOAD PUSH1 0xB DUP6 ADD SSTORE SWAP2 ADD MLOAD SWAP6 SWAP1 DUP7 LT ISZERO PUSH2 0x1299 JUMPI POP PUSH1 0x20 SWAP5 PUSH1 0xC PUSH2 0x39B4 SWAP3 ADD PUSH2 0x4C3C JUMP JUMPDEST PUSH1 0x40 MLOAD PUSH1 0x1 PUSH1 0x1 PUSH1 0xA0 SHL SUB SWAP2 DUP3 AND DUP1 DUP3 MSTORE SWAP3 SWAP1 SWAP2 AND SWAP1 CALLER SWAP1 DUP5 SWAP1 PUSH32 0x5E02698C1650D6CBE1F7E8A48609D0DA45AD7F5E4C13CD8B196F82965C0AB0D5 SWAP1 DUP8 SWAP1 LOG4 DUP1 PUSH2 0x3A02 JUMPI JUMPDEST POP PUSH1 0x40 MLOAD SWAP1 DUP2 MSTORE RETURN JUMPDEST PUSH32 0x957372C0E02D2882134CC0EEBBEF9E446634D8CCBB1CBB112BDEFDD3CF0A643C DUP4 PUSH1 0x40 MLOAD DUP5 DUP2 MSTORE LOG2 PUSH0 PUSH2 0x39F9 JUMP JUMPDEST SWAP1 SWAP4 POP PUSH1 0x20 DUP2 RETURNDATASIZE PUSH1 0x20 GT PUSH2 0x3A5D JUMPI JUMPDEST DUP2 PUSH2 0x3A4D PUSH1 0x20 SWAP4 DUP4 PUSH2 0x4A3D JUMP JUMPDEST DUP2 ADD SUB SLT PUSH2 0xAD2 JUMPI MLOAD SWAP3 PUSH0 PUSH2 0x3883 JUMP JUMPDEST RETURNDATASIZE SWAP2 POP PUSH2 0x3A40 JUMP JUMPDEST PUSH2 0x3A7E SWAP2 POP PUSH2 0x200 RETURNDATASIZE DUP2 GT PUSH2 0x1328 JUMPI PUSH2 0x131A DUP2 DUP4 PUSH2 0x4A3D JUMP JUMPDEST PUSH0 PUSH2 0x3846 JUMP JUMPDEST PUSH2 0x3A91 PUSH2 0x3A97 SWAP2 DUP5 PUSH2 0x4D6C JUMP JUMPDEST SWAP5 PUSH2 0x498E JUMP JUMPDEST PUSH2 0x3AA2 DUP5 ISZERO ISZERO PUSH2 0x4DA3 JUMP JUMPDEST PUSH1 0x2 SLOAD SWAP1 PUSH1 0x40 MLOAD SWAP2 PUSH4 0x1C8F0847 PUSH1 0xE0 SHL DUP4 MSTORE DUP6 PUSH1 0x4 DUP5 ADD MSTORE PUSH1 0x24 DUP4 ADD MSTORE PUSH1 0x20 DUP3 PUSH1 0x44 DUP2 PUSH20 0x0 GAS DELEGATECALL SWAP2 DUP3 ISZERO PUSH2 0x3146 JUMPI DUP11 SWAP3 PUSH2 0x3C16 JUMPI JUMPDEST POP PUSH1 0x1 PUSH1 0x1 PUSH1 0xA0 SHL SUB DUP7 AND DUP1 PUSH2 0x3B5D JUMPI PUSH2 0x3B04 DUP4 DUP8 PUSH2 0x4F0E JUMP JUMPDEST CALLVALUE SUB PUSH2 0x141E JUMPI DUP6 PUSH2 0x3833 SWAP4 PUSH2 0x3B1D PUSH2 0x200 SWAP9 DUP11 CALLER PUSH2 0x561A JUMP JUMPDEST POP PUSH1 0x3 SLOAD PUSH2 0x3B37 SWAP1 DUP3 SWAP1 DUP12 SWAP1 PUSH1 0x1 PUSH1 0x1 PUSH1 0xA0 SHL SUB AND PUSH2 0x561A JUMP JUMPDEST POP JUMPDEST PUSH1 0x40 MLOAD SWAP2 DUP3 MSTORE PUSH1 0x20 DUP3 ADD MSTORE PUSH0 DUP1 MLOAD PUSH1 0x20 PUSH2 0x584C DUP4 CODECOPY DUP2 MLOAD SWAP2 MSTORE PUSH1 0x40 CALLER SWAP3 LOG3 SWAP1 PUSH2 0x37E8 JUMP JUMPDEST DUP11 PUSH1 0x20 PUSH2 0x3B6A DUP6 DUP10 PUSH2 0x4F0E JUMP JUMPDEST PUSH1 0x64 PUSH1 0x40 MLOAD DUP1 SWAP5 DUP2 SWAP4 PUSH4 0x23B872DD PUSH1 0xE0 SHL DUP4 MSTORE CALLER PUSH1 0x4 DUP5 ADD MSTORE ADDRESS PUSH1 0x24 DUP5 ADD MSTORE PUSH1 0x44 DUP4 ADD MSTORE DUP7 GAS CALL SWAP1 DUP2 ISZERO PUSH2 0xFB4 JUMPI DUP13 SWAP2 PUSH2 0x3BD8 JUMPI JUMPDEST POP ISZERO PUSH2 0x14C8 JUMPI DUP6 PUSH2 0x3833 SWAP4 PUSH2 0x3BB8 PUSH2 0x200 SWAP9 DUP11 CALLER PUSH2 0x561A JUMP JUMPDEST POP PUSH1 0x3 SLOAD PUSH2 0x3BD2 SWAP1 DUP3 SWAP1 DUP12 SWAP1 PUSH1 0x1 PUSH1 0x1 PUSH1 0xA0 SHL SUB AND PUSH2 0x561A JUMP JUMPDEST POP PUSH2 0x3B39 JUMP JUMPDEST SWAP1 POP PUSH1 0x20 DUP2 RETURNDATASIZE PUSH1 0x20 GT PUSH2 0x3C0E JUMPI JUMPDEST DUP2 PUSH2 0x3BF3 PUSH1 0x20 SWAP4 DUP4 PUSH2 0x4A3D JUMP JUMPDEST DUP2 ADD SUB SLT PUSH2 0x3C0A JUMPI PUSH2 0x3C04 SWAP1 PUSH2 0x4A73 JUMP JUMPDEST PUSH0 PUSH2 0x3B9F JUMP JUMPDEST DUP12 DUP1 REVERT JUMPDEST RETURNDATASIZE SWAP2 POP PUSH2 0x3BE6 JUMP JUMPDEST SWAP1 SWAP2 POP PUSH1 0x20 DUP2 RETURNDATASIZE PUSH1 0x20 GT PUSH2 0x3C42 JUMPI JUMPDEST DUP2 PUSH2 0x3C32 PUSH1 0x20 SWAP4 DUP4 PUSH2 0x4A3D JUMP JUMPDEST DUP2 ADD SUB SLT PUSH2 0xAD2 JUMPI MLOAD SWAP1 PUSH0 PUSH2 0x3AEA JUMP JUMPDEST RETURNDATASIZE SWAP2 POP PUSH2 0x3C25 JUMP JUMPDEST POP CALLVALUE PUSH2 0x27B JUMPI PUSH2 0x200 PUSH2 0x3833 PUSH2 0x3C5F CALLDATASIZE PUSH2 0x4830 JUMP JUMPDEST PUSH2 0x3C77 PUSH1 0xFF DUP12 SWAP11 SWAP7 SWAP5 SWAP8 SWAP9 SWAP10 SWAP4 SWAP11 SLOAD PUSH1 0xA0 SHR AND PUSH2 0x498E JUMP JUMPDEST CALLER DUP11 MSTORE PUSH1 0x1 PUSH1 0x20 MSTORE PUSH1 0x40 DUP11 KECCAK256 PUSH1 0x1 DUP1 PUSH1 0xA0 SHL SUB DUP8 AND PUSH0 MSTORE PUSH1 0x20 MSTORE PUSH2 0x3CA1 DUP4 PUSH1 0x40 PUSH0 KECCAK256 SLOAD LT ISZERO PUSH2 0x49BF JUMP JUMPDEST PUSH2 0x37FD DUP4 DUP8 CALLER PUSH2 0x5555 JUMP JUMPDEST POP CALLVALUE PUSH2 0x27B JUMPI PUSH1 0x40 CALLDATASIZE PUSH1 0x3 NOT ADD SLT PUSH2 0x27B JUMPI PUSH32 0x14BDAADAED0453E7B5B66195B42156BA995B9E5ABD0DA98368839851D69AD889 PUSH1 0x40 PUSH1 0x4 CALLDATALOAD PUSH2 0x3CEC PUSH2 0x4722 JUMP JUMPDEST PUSH2 0x3D00 PUSH1 0x1 DUP1 PUSH1 0xA0 SHL SUB DUP7 SLOAD AND CALLER EQ PUSH2 0x4E44 JUMP JUMPDEST PUSH1 0x1 PUSH1 0x1 PUSH1 0xA0 SHL SUB AND PUSH2 0x3D14 DUP2 ISZERO ISZERO PUSH2 0x4E75 JUMP JUMPDEST PUSH2 0x3D25 PUSH5 0x2540BE400 DUP4 GT ISZERO PUSH2 0x4DA3 JUMP JUMPDEST DUP2 PUSH1 0x2 SSTORE DUP1 PUSH12 0xFFFFFFFFFFFFFFFFFFFFFFFF PUSH1 0xA0 SHL PUSH1 0x3 SLOAD AND OR PUSH1 0x3 SSTORE DUP3 MLOAD SWAP2 DUP3 MSTORE PUSH1 0x20 DUP3 ADD MSTORE LOG1 DUP1 RETURN JUMPDEST POP CALLVALUE PUSH2 0x27B JUMPI PUSH1 0x60 CALLDATASIZE PUSH1 0x3 NOT ADD SLT PUSH2 0x27B JUMPI PUSH1 0x4 CALLDATALOAD SWAP1 PUSH1 0x24 CALLDATALOAD SWAP1 PUSH1 0x44 CALLDATALOAD PUSH1 0x6 DUP2 LT ISZERO PUSH2 0xFE3 JUMPI DUP4 DUP3 MSTORE PUSH1 0x4 PUSH1 0x20 MSTORE PUSH1 0x40 DUP3 KECCAK256 SWAP4 PUSH1 0x1 DUP6 ADD SWAP2 PUSH1 0x1 DUP1 PUSH1 0xA0 SHL SUB DUP4 SLOAD AND CALLER EQ DUP1 ISZERO PUSH2 0x3F93 JUMPI JUMPDEST DUP1 ISZERO PUSH2 0x3F7D JUMPI JUMPDEST PUSH2 0x3DAB SWAP1 PUSH2 0x4C54 JUMP JUMPDEST PUSH20 0x0 DUP1 EXTCODESIZE ISZERO PUSH2 0xFD4 JUMPI DUP5 PUSH1 0x40 MLOAD DUP1 SWAP3 PUSH4 0x252A867 PUSH1 0xE5 SHL DUP3 MSTORE DUP2 DUP1 PUSH2 0x3DE6 DUP13 PUSH1 0x4 DUP4 ADD PUSH2 0x4C85 JUMP JUMPDEST SUB SWAP2 GAS DELEGATECALL DUP1 ISZERO PUSH2 0x12F5 JUMPI SWAP1 DUP6 SWAP2 PUSH2 0x3F68 JUMPI JUMPDEST POP POP DUP5 ISZERO DUP1 ISZERO PUSH2 0x3F5E JUMPI JUMPDEST PUSH2 0x3E0C SWAP1 PUSH2 0x4E06 JUMP JUMPDEST PUSH1 0x2 DUP7 ADD SWAP4 PUSH1 0x1 DUP1 PUSH1 0xA0 SHL SUB DUP6 SLOAD AND ISZERO PUSH1 0x40 MLOAD SWAP2 PUSH2 0x3E29 DUP4 PUSH2 0x49F0 JUMP JUMPDEST DUP5 DUP4 MSTORE PUSH1 0x20 DUP4 ADD SWAP8 DUP9 MSTORE PUSH2 0x3E41 PUSH1 0x40 DUP5 ADD SWAP5 DUP6 PUSH2 0x4E38 JUMP JUMPDEST PUSH1 0x60 DUP4 ADD DUP2 DUP2 MSTORE PUSH1 0x80 DUP5 ADD SWAP2 DUP1 DUP4 MSTORE PUSH1 0xA0 DUP6 ADD SWAP4 DUP5 MSTORE PUSH1 0x2 PUSH1 0xC0 DUP7 ADD SWAP6 DUP3 DUP8 MSTORE PUSH1 0x7 SLOAD SWAP12 DUP13 DUP5 MSTORE PUSH1 0x9 PUSH1 0x20 MSTORE PUSH1 0x40 DUP5 KECCAK256 SWAP2 MLOAD DUP3 SSTORE MLOAD PUSH1 0x1 DUP3 ADD SSTORE ADD SWAP6 MLOAD SWAP1 PUSH1 0x6 DUP3 LT ISZERO PUSH2 0x1299 JUMPI POP SWAP3 PUSH2 0x3EF4 DUP7 SWAP4 PUSH2 0x3EDB PUSH1 0x60 SWAP8 SWAP5 PUSH2 0x3EC4 PUSH1 0x20 SWAP16 SWAP9 PUSH32 0x867051316D0AAFC6BF3704F0B32FA0E735BB03D37318B95179BDC1C5017467C0 SWAP12 PUSH2 0x4C3C JUMP JUMPDEST MLOAD DUP7 SLOAD PUSH2 0xFF00 NOT AND SWAP1 ISZERO ISZERO PUSH1 0x8 SHL PUSH2 0xFF00 AND OR DUP7 SSTORE JUMP JUMPDEST MLOAD DUP5 SLOAD PUSH3 0xFF0000 NOT AND SWAP1 ISZERO ISZERO PUSH1 0x10 SHL PUSH3 0xFF0000 AND OR DUP5 SSTORE JUMP JUMPDEST MLOAD DUP3 SLOAD SWAP2 MLOAD PUSH5 0xFFFF000000 NOT SWAP1 SWAP3 AND SWAP1 ISZERO ISZERO PUSH1 0x18 SHL PUSH4 0xFF000000 AND OR SWAP1 ISZERO ISZERO DUP11 SHL PUSH5 0xFF00000000 AND OR SWAP1 SSTORE SLOAD SWAP4 SLOAD SWAP5 SLOAD PUSH1 0x40 DUP1 MLOAD PUSH1 0x1 PUSH1 0x1 PUSH1 0xA0 SHL SUB SWAP3 DUP4 AND DUP2 MSTORE CALLER DUP2 DUP12 ADD MSTORE SWAP1 DUP2 ADD DUP9 SWAP1 MSTORE SWAP6 DUP2 AND SWAP6 SWAP5 AND SWAP4 LOG4 PUSH2 0x3F53 PUSH1 0x7 SLOAD PUSH2 0x4BF6 JUMP JUMPDEST PUSH1 0x7 SSTORE PUSH1 0x40 MLOAD SWAP1 DUP2 MSTORE RETURN JUMPDEST POP TIMESTAMP DUP6 GT ISZERO PUSH2 0x3E03 JUMP JUMPDEST DUP2 PUSH2 0x3F72 SWAP2 PUSH2 0x4A3D JUMP JUMPDEST PUSH2 0x319B JUMPI DUP4 PUSH0 PUSH2 0x3DF8 JUMP JUMPDEST POP PUSH1 0x2 DUP7 ADD SLOAD PUSH1 0x1 PUSH1 0x1 PUSH1 0xA0 SHL SUB AND CALLER EQ PUSH2 0x3DA2 JUMP JUMPDEST POP DUP6 SLOAD PUSH1 0x1 PUSH1 0x1 PUSH1 0xA0 SHL SUB AND CALLER EQ PUSH2 0x3D9B JUMP JUMPDEST POP PUSH2 0x3FB0 CALLDATASIZE PUSH2 0x4802 JUMP JUMPDEST DUP4 DUP6 SWAP5 SWAP4 SWAP3 SWAP5 MSTORE PUSH1 0x4 PUSH1 0x20 MSTORE PUSH1 0x40 DUP6 KECCAK256 SWAP1 PUSH2 0x3FD2 PUSH5 0x2540BE400 DUP3 GT ISZERO PUSH2 0x4DA3 JUMP JUMPDEST PUSH1 0x1 DUP3 ADD SWAP5 PUSH2 0x3FEB PUSH1 0x1 DUP1 PUSH1 0xA0 SHL SUB DUP8 SLOAD AND CALLER EQ PUSH2 0x4C54 JUMP JUMPDEST DUP7 PUSH20 0x0 DUP1 EXTCODESIZE ISZERO PUSH2 0xFE3 JUMPI DUP2 PUSH1 0x40 MLOAD DUP1 SWAP3 PUSH4 0x252A867 PUSH1 0xE5 SHL DUP3 MSTORE DUP2 DUP1 PUSH2 0x4027 DUP11 PUSH1 0x4 DUP4 ADD PUSH2 0x4C85 JUMP JUMPDEST SUB SWAP2 GAS DELEGATECALL DUP1 ISZERO PUSH2 0xFD8 JUMPI PUSH2 0x42A3 JUMPI JUMPDEST POP POP PUSH1 0x2 DUP4 ADD SWAP7 DUP8 SLOAD PUSH2 0x404F PUSH1 0xFF DUP3 PUSH1 0xA8 SHR AND ISZERO PUSH2 0x4DD4 JUMP JUMPDEST DUP4 PUSH2 0x4289 JUMPI JUMPDEST POP CALLER DUP2 MSTORE PUSH1 0x1 PUSH1 0x20 MSTORE PUSH1 0x40 DUP2 KECCAK256 PUSH1 0x1 DUP1 PUSH1 0xA0 SHL SUB DUP7 AND PUSH0 MSTORE PUSH1 0x20 MSTORE PUSH1 0x40 PUSH0 KECCAK256 SLOAD DUP3 DUP2 LT PUSH2 0x409E JUMPI JUMPDEST POP POP SWAP1 DUP2 DUP5 PUSH2 0x2DB2 PUSH1 0x20 SWAP6 SWAP5 PUSH0 DUP1 MLOAD PUSH1 0x20 PUSH2 0x586C DUP4 CODECOPY DUP2 MLOAD SWAP2 MSTORE SWAP8 CALLER PUSH2 0x5555 JUMP JUMPDEST PUSH2 0x40AC SWAP1 DUP4 SWAP3 SWAP6 SWAP5 SWAP4 PUSH2 0x4D6C JUMP JUMPDEST SWAP5 PUSH2 0x40BD PUSH1 0xFF DUP7 SLOAD PUSH1 0xA0 SHR AND PUSH2 0x498E JUMP JUMPDEST PUSH2 0x40C8 DUP7 ISZERO ISZERO PUSH2 0x4DA3 JUMP JUMPDEST PUSH1 0x2 SLOAD SWAP5 PUSH1 0x40 MLOAD SWAP6 PUSH4 0x1C8F0847 PUSH1 0xE0 SHL DUP8 MSTORE DUP8 PUSH1 0x4 DUP9 ADD MSTORE PUSH1 0x24 DUP8 ADD MSTORE PUSH1 0x20 DUP7 PUSH1 0x44 DUP2 PUSH20 0x0 GAS DELEGATECALL SWAP6 DUP7 ISZERO PUSH2 0x1BFC JUMPI DUP2 SWAP7 PUSH2 0x4255 JUMPI JUMPDEST POP PUSH1 0x1 PUSH1 0x1 PUSH1 0xA0 SHL SUB DUP3 AND SWAP1 DUP2 PUSH2 0x4193 JUMPI POP PUSH2 0x412C DUP7 DUP9 PUSH2 0x4F0E JUMP JUMPDEST CALLVALUE SUB PUSH2 0x141E JUMPI DUP7 PUSH1 0x20 SWAP7 PUSH2 0x414F PUSH0 DUP1 MLOAD PUSH1 0x20 PUSH2 0x586C DUP4 CODECOPY DUP2 MLOAD SWAP2 MSTORE SWAP10 DUP6 CALLER PUSH2 0x561A JUMP JUMPDEST POP PUSH1 0x3 SLOAD PUSH2 0x4169 SWAP1 DUP3 SWAP1 DUP7 SWAP1 PUSH1 0x1 PUSH1 0x1 PUSH1 0xA0 SHL SUB AND PUSH2 0x561A JUMP JUMPDEST POP JUMPDEST PUSH1 0x40 MLOAD SWAP2 DUP3 MSTORE DUP8 DUP3 ADD MSTORE PUSH0 DUP1 MLOAD PUSH1 0x20 PUSH2 0x584C DUP4 CODECOPY DUP2 MLOAD SWAP2 MSTORE PUSH1 0x40 CALLER SWAP3 LOG3 SWAP5 DUP2 SWAP3 SWAP4 SWAP5 POP PUSH2 0x407D JUMP JUMPDEST PUSH2 0x419D DUP8 DUP10 PUSH2 0x4F0E JUMP JUMPDEST PUSH1 0x40 MLOAD SWAP1 PUSH4 0x23B872DD PUSH1 0xE0 SHL DUP3 MSTORE CALLER PUSH1 0x4 DUP4 ADD MSTORE ADDRESS PUSH1 0x24 DUP4 ADD MSTORE PUSH1 0x44 DUP3 ADD MSTORE PUSH1 0x20 DUP2 PUSH1 0x64 DUP2 DUP6 DUP8 GAS CALL SWAP2 DUP3 ISZERO PUSH2 0xB1E JUMPI DUP1 SWAP3 PUSH2 0x4218 JUMPI JUMPDEST POP POP ISZERO PUSH2 0x14C8 JUMPI DUP7 PUSH1 0x20 SWAP7 PUSH2 0x41F8 PUSH0 DUP1 MLOAD PUSH1 0x20 PUSH2 0x586C DUP4 CODECOPY DUP2 MLOAD SWAP2 MSTORE SWAP10 DUP6 CALLER PUSH2 0x561A JUMP JUMPDEST POP PUSH1 0x3 SLOAD PUSH2 0x4212 SWAP1 DUP3 SWAP1 DUP7 SWAP1 PUSH1 0x1 PUSH1 0x1 PUSH1 0xA0 SHL SUB AND PUSH2 0x561A JUMP JUMPDEST POP PUSH2 0x416B JUMP JUMPDEST SWAP1 SWAP2 POP PUSH1 0x20 DUP3 RETURNDATASIZE PUSH1 0x20 GT PUSH2 0x424D JUMPI JUMPDEST DUP2 PUSH2 0x4234 PUSH1 0x20 SWAP4 DUP4 PUSH2 0x4A3D JUMP JUMPDEST DUP2 ADD SUB SLT PUSH2 0x27B JUMPI POP PUSH2 0x4246 SWAP1 PUSH2 0x4A73 JUMP JUMPDEST PUSH0 DUP1 PUSH2 0x41D4 JUMP JUMPDEST RETURNDATASIZE SWAP2 POP PUSH2 0x4227 JUMP JUMPDEST SWAP1 SWAP6 POP PUSH1 0x20 DUP2 RETURNDATASIZE PUSH1 0x20 GT PUSH2 0x4281 JUMPI JUMPDEST DUP2 PUSH2 0x4271 PUSH1 0x20 SWAP4 DUP4 PUSH2 0x4A3D JUMP JUMPDEST DUP2 ADD SUB SLT PUSH2 0xAD2 JUMPI MLOAD SWAP5 PUSH0 PUSH2 0x4110 JUMP JUMPDEST RETURNDATASIZE SWAP2 POP PUSH2 0x4264 JUMP JUMPDEST PUSH2 0x429D SWAP1 PUSH1 0x1 PUSH1 0x1 PUSH1 0xA0 SHL SUB AND ISZERO ISZERO PUSH2 0x4E06 JUMP JUMPDEST PUSH0 PUSH2 0x4055 JUMP JUMPDEST DUP2 PUSH2 0x42AD SWAP2 PUSH2 0x4A3D JUMP JUMPDEST PUSH2 0x2E4F JUMPI DUP7 PUSH0 PUSH2 0x4036 JUMP JUMPDEST POP CALLVALUE PUSH2 0x27B JUMPI DUP1 PUSH1 0x3 NOT CALLDATASIZE ADD SLT PUSH2 0x27B JUMPI PUSH1 0x3 SLOAD PUSH1 0x40 MLOAD PUSH1 0x1 PUSH1 0x1 PUSH1 0xA0 SHL SUB SWAP1 SWAP2 AND DUP2 MSTORE PUSH1 0x20 SWAP1 RETURN JUMPDEST POP CALLVALUE PUSH2 0x27B JUMPI DUP1 PUSH1 0x3 NOT CALLDATASIZE ADD SLT PUSH2 0x27B JUMPI PUSH1 0x20 PUSH1 0x8 SLOAD PUSH1 0x40 MLOAD SWAP1 DUP2 MSTORE RETURN JUMPDEST POP CALLVALUE PUSH2 0xAD2 JUMPI PUSH2 0x430E CALLDATASIZE PUSH2 0x47DF JUMP JUMPDEST SWAP3 SWAP2 SWAP1 DUP2 PUSH0 MSTORE PUSH1 0x4 PUSH1 0x20 MSTORE PUSH1 0x40 PUSH0 KECCAK256 SWAP1 PUSH1 0x1 DUP3 ADD SWAP4 PUSH1 0x1 DUP1 PUSH1 0xA0 SHL SUB DUP6 SLOAD AND CALLER EQ DUP1 ISZERO PUSH2 0x4486 JUMPI JUMPDEST PUSH2 0x433F SWAP1 PUSH2 0x4C54 JUMP JUMPDEST PUSH20 0x0 DUP1 EXTCODESIZE ISZERO PUSH2 0xAD2 JUMPI PUSH0 PUSH1 0x40 MLOAD DUP1 SWAP3 PUSH4 0x252A867 PUSH1 0xE5 SHL DUP3 MSTORE DUP2 DUP1 PUSH2 0x437A DUP10 PUSH1 0x4 DUP4 ADD PUSH2 0x4C85 JUMP JUMPDEST SUB SWAP2 GAS DELEGATECALL DUP1 ISZERO PUSH2 0x447B JUMPI PUSH2 0x4468 JUMPI JUMPDEST POP PUSH1 0x6 DUP4 ADD PUSH2 0x439F DUP4 DUP3 SLOAD PUSH2 0x1604 DUP3 DUP3 LT PUSH2 0x49BF JUMP JUMPDEST SWAP1 SSTORE PUSH1 0x1 DUP1 PUSH1 0xA0 SHL SUB PUSH1 0xA DUP5 ADD SLOAD AND PUSH1 0x8 DUP5 ADD SLOAD PUSH1 0x40 MLOAD SWAP1 PUSH4 0x1C8F0847 PUSH1 0xE0 SHL DUP3 MSTORE DUP5 PUSH1 0x4 DUP4 ADD MSTORE PUSH1 0x24 DUP3 ADD MSTORE PUSH1 0x20 DUP2 PUSH1 0x44 DUP2 PUSH20 0x0 GAS DELEGATECALL SWAP3 DUP4 ISZERO PUSH2 0xB1E JUMPI SWAP3 PUSH2 0x4427 JUMPI JUMPDEST POP PUSH0 DUP1 MLOAD PUSH1 0x20 PUSH2 0x57AC DUP4 CODECOPY DUP2 MLOAD SWAP2 MSTORE SWAP4 PUSH2 0x16B3 DUP4 DUP4 PUSH2 0x169D DUP12 PUSH2 0x61E SWAP7 PUSH1 0x1 DUP1 PUSH1 0xA0 SHL SUB DUP8 SLOAD AND PUSH2 0x1697 DUP7 DUP13 PUSH2 0x4D6C JUMP JUMPDEST SWAP1 SWAP2 POP PUSH1 0x20 DUP2 RETURNDATASIZE PUSH1 0x20 GT PUSH2 0x4460 JUMPI JUMPDEST DUP2 PUSH2 0x4443 PUSH1 0x20 SWAP4 DUP4 PUSH2 0x4A3D JUMP JUMPDEST DUP2 ADD SUB SLT PUSH2 0xAD2 JUMPI MLOAD SWAP1 PUSH0 DUP1 MLOAD PUSH1 0x20 PUSH2 0x57AC DUP4 CODECOPY DUP2 MLOAD SWAP2 MSTORE PUSH2 0x43F6 JUMP JUMPDEST RETURNDATASIZE SWAP2 POP PUSH2 0x4436 JUMP JUMPDEST PUSH2 0x4474 SWAP2 POP PUSH0 SWAP1 PUSH2 0x4A3D JUMP JUMPDEST PUSH0 DUP1 PUSH2 0x4389 JUMP JUMPDEST PUSH1 0x40 MLOAD RETURNDATASIZE PUSH0 DUP3 RETURNDATACOPY RETURNDATASIZE SWAP1 REVERT JUMPDEST POP PUSH1 0x2 DUP4 ADD SLOAD PUSH1 0x1 PUSH1 0x1 PUSH1 0xA0 SHL SUB AND CALLER EQ PUSH2 0x4336 JUMP JUMPDEST CALLVALUE PUSH2 0xAD2 JUMPI PUSH2 0x200 PUSH2 0x4538 PUSH2 0x44B0 CALLDATASIZE PUSH2 0x474E JUMP JUMPDEST SWAP3 PUSH2 0x44CE PUSH1 0xFF PUSH0 SWAP14 SWAP10 SWAP8 SWAP14 SWAP13 SWAP7 SWAP13 SWAP12 SWAP11 SWAP12 SWAP5 SWAP4 SWAP5 SLOAD PUSH1 0xA0 SHR AND PUSH2 0x498E JUMP JUMPDEST CALLER PUSH0 MSTORE PUSH1 0x1 PUSH1 0x20 MSTORE PUSH1 0x40 PUSH0 KECCAK256 PUSH1 0x1 DUP1 PUSH1 0xA0 SHL SUB DUP3 AND PUSH0 MSTORE PUSH1 0x20 MSTORE PUSH2 0x44F8 DUP7 PUSH1 0x40 PUSH0 KECCAK256 SLOAD LT ISZERO PUSH2 0x49BF JUMP JUMPDEST PUSH2 0x4503 DUP7 DUP3 CALLER PUSH2 0x5555 JUMP JUMPDEST POP PUSH20 0x0 SWAP11 PUSH1 0x40 MLOAD SWAP13 DUP14 SWAP9 DUP10 SWAP9 PUSH4 0x652E83D7 PUSH1 0xE0 SHL DUP11 MSTORE DUP14 DUP14 CALLER PUSH1 0x4 DUP14 ADD PUSH2 0x4B8A JUMP JUMPDEST SUB DUP2 DUP7 GAS DELEGATECALL SWAP4 DUP5 ISZERO PUSH2 0x447B JUMPI PUSH0 SWAP5 PUSH2 0x4701 JUMPI JUMPDEST POP PUSH1 0x20 PUSH1 0x5 SLOAD PUSH2 0x224 PUSH1 0x40 MLOAD DUP1 SWAP7 DUP2 SWAP4 PUSH4 0x797D4EE1 PUSH1 0xE0 SHL DUP4 MSTORE PUSH2 0x4572 PUSH1 0x4 DUP5 ADD DUP12 PUSH2 0x48AD JUMP JUMPDEST PUSH2 0x204 DUP4 ADD MSTORE GAS DELEGATECALL SWAP3 DUP4 ISZERO PUSH2 0x447B JUMPI PUSH0 SWAP4 PUSH2 0x46CD JUMPI JUMPDEST POP PUSH2 0x4594 PUSH1 0x5 SLOAD PUSH2 0x4BF6 JUMP JUMPDEST PUSH1 0x5 SSTORE PUSH0 DUP4 DUP2 MSTORE PUSH1 0x4 PUSH1 0x20 SWAP1 DUP2 MSTORE PUSH1 0x40 SWAP2 DUP3 SWAP1 KECCAK256 DUP7 MLOAD DUP2 SLOAD PUSH1 0x1 PUSH1 0x1 PUSH1 0xA0 SHL SUB NOT SWAP1 DUP2 AND PUSH1 0x1 PUSH1 0x1 PUSH1 0xA0 SHL SUB SWAP3 DUP4 AND OR DUP4 SSTORE SWAP3 DUP9 ADD MLOAD PUSH1 0x1 DUP4 ADD DUP1 SLOAD DUP6 AND SWAP2 DUP4 AND SWAP2 SWAP1 SWAP2 OR SWAP1 SSTORE SWAP3 DUP8 ADD MLOAD PUSH1 0x2 DUP3 ADD DUP1 SLOAD SWAP1 SWAP4 AND SWAP4 AND SWAP3 SWAP1 SWAP3 OR DUP2 SSTORE PUSH1 0x60 DUP7 ADD MLOAD SWAP2 SWAP6 SWAP1 SWAP2 PUSH1 0x3 DUP2 LT ISZERO PUSH2 0x46B9 JUMPI DUP3 PUSH2 0x1172 PUSH2 0x4613 SWAP3 PUSH2 0x1E0 SWAP6 PUSH2 0x4C18 JUMP JUMPDEST PUSH1 0xC0 DUP2 ADD MLOAD PUSH1 0x3 DUP8 ADD SSTORE PUSH1 0xE0 DUP2 ADD MLOAD PUSH1 0x4 DUP8 ADD SSTORE PUSH2 0x100 DUP2 ADD MLOAD PUSH1 0x5 DUP8 ADD SSTORE PUSH2 0x120 DUP2 ADD MLOAD PUSH1 0x6 DUP1 DUP9 ADD SWAP2 SWAP1 SWAP2 SSTORE PUSH2 0x140 DUP3 ADD MLOAD PUSH1 0x7 DUP9 ADD SSTORE PUSH2 0x160 DUP3 ADD MLOAD PUSH1 0x8 DUP9 ADD SSTORE PUSH2 0x180 DUP3 ADD MLOAD PUSH1 0x9 DUP9 ADD DUP1 SLOAD PUSH1 0x1 PUSH1 0x1 PUSH1 0xA0 SHL SUB SWAP3 DUP4 AND PUSH1 0x1 PUSH1 0x1 PUSH1 0xA0 SHL SUB NOT SWAP2 DUP3 AND OR SWAP1 SWAP2 SSTORE PUSH2 0x1A0 DUP5 ADD MLOAD PUSH1 0xA DUP11 ADD DUP1 SLOAD SWAP2 SWAP1 SWAP4 AND SWAP2 AND OR SWAP1 SSTORE PUSH2 0x1C0 DUP3 ADD MLOAD PUSH1 0xB DUP9 ADD SSTORE SWAP2 ADD MLOAD SWAP5 SWAP1 DUP6 LT ISZERO PUSH2 0x46B9 JUMPI PUSH1 0x20 SWAP5 PUSH1 0xC PUSH2 0x1255 SWAP3 ADD PUSH2 0x4C3C JUMP JUMPDEST PUSH4 0x4E487B71 PUSH1 0xE0 SHL PUSH0 MSTORE PUSH1 0x21 PUSH1 0x4 MSTORE PUSH1 0x24 PUSH0 REVERT JUMPDEST SWAP1 SWAP3 POP PUSH1 0x20 DUP2 RETURNDATASIZE PUSH1 0x20 GT PUSH2 0x46F9 JUMPI JUMPDEST DUP2 PUSH2 0x46E9 PUSH1 0x20 SWAP4 DUP4 PUSH2 0x4A3D JUMP JUMPDEST DUP2 ADD SUB SLT PUSH2 0xAD2 JUMPI MLOAD SWAP2 DUP5 PUSH2 0x4588 JUMP JUMPDEST RETURNDATASIZE SWAP2 POP PUSH2 0x46DC JUMP JUMPDEST PUSH2 0x471B SWAP2 SWAP5 POP PUSH2 0x200 RETURNDATASIZE DUP2 GT PUSH2 0x1328 JUMPI PUSH2 0x131A DUP2 DUP4 PUSH2 0x4A3D JUMP JUMPDEST SWAP3 DUP5 PUSH2 0x454B JUMP JUMPDEST PUSH1 0x24 CALLDATALOAD SWAP1 PUSH1 0x1 PUSH1 0x1 PUSH1 0xA0 SHL SUB DUP3 AND DUP3 SUB PUSH2 0xAD2 JUMPI JUMP JUMPDEST PUSH1 0x4 CALLDATALOAD SWAP1 PUSH1 0x1 PUSH1 0x1 PUSH1 0xA0 SHL SUB DUP3 AND DUP3 SUB PUSH2 0xAD2 JUMPI JUMP JUMPDEST PUSH2 0x140 SWAP1 PUSH1 0x3 NOT ADD SLT PUSH2 0xAD2 JUMPI PUSH1 0x4 CALLDATALOAD PUSH1 0x1 PUSH1 0x1 PUSH1 0xA0 SHL SUB DUP2 AND DUP2 SUB PUSH2 0xAD2 JUMPI SWAP1 PUSH1 0x24 CALLDATALOAD PUSH1 0x1 PUSH1 0x1 PUSH1 0xA0 SHL SUB DUP2 AND DUP2 SUB PUSH2 0xAD2 JUMPI SWAP1 PUSH1 0x44 CALLDATALOAD SWAP1 PUSH1 0x64 CALLDATALOAD SWAP1 PUSH1 0x84 CALLDATALOAD SWAP1 PUSH1 0xA4 CALLDATALOAD SWAP1 PUSH1 0xC4 CALLDATALOAD PUSH1 0x1 PUSH1 0x1 PUSH1 0xA0 SHL SUB DUP2 AND DUP2 SUB PUSH2 0xAD2 JUMPI SWAP1 PUSH1 0xE4 CALLDATALOAD PUSH1 0x1 PUSH1 0x1 PUSH1 0xA0 SHL SUB DUP2 AND DUP2 SUB PUSH2 0xAD2 JUMPI SWAP1 PUSH2 0x104 CALLDATALOAD SWAP1 PUSH2 0x124 CALLDATALOAD PUSH1 0x6 DUP2 LT ISZERO PUSH2 0xAD2 JUMPI SWAP1 JUMP JUMPDEST PUSH1 0x24 CALLDATALOAD SWAP1 DUP2 ISZERO ISZERO DUP3 SUB PUSH2 0xAD2 JUMPI JUMP JUMPDEST PUSH1 0x60 SWAP1 PUSH1 0x3 NOT ADD SLT PUSH2 0xAD2 JUMPI PUSH1 0x4 CALLDATALOAD SWAP1 PUSH1 0x24 CALLDATALOAD SWAP1 PUSH1 0x44 CALLDATALOAD DUP1 ISZERO ISZERO DUP2 SUB PUSH2 0xAD2 JUMPI SWAP1 JUMP JUMPDEST PUSH1 0x80 SWAP1 PUSH1 0x3 NOT ADD SLT PUSH2 0xAD2 JUMPI PUSH1 0x4 CALLDATALOAD SWAP1 PUSH1 0x24 CALLDATALOAD PUSH1 0x1 PUSH1 0x1 PUSH1 0xA0 SHL SUB DUP2 AND DUP2 SUB PUSH2 0xAD2 JUMPI SWAP1 PUSH1 0x44 CALLDATALOAD SWAP1 PUSH1 0x64 CALLDATALOAD SWAP1 JUMP JUMPDEST PUSH1 0xE0 SWAP1 PUSH1 0x3 NOT ADD SLT PUSH2 0xAD2 JUMPI PUSH1 0x4 CALLDATALOAD PUSH1 0x1 PUSH1 0x1 PUSH1 0xA0 SHL SUB DUP2 AND DUP2 SUB PUSH2 0xAD2 JUMPI SWAP1 PUSH1 0x24 CALLDATALOAD PUSH1 0x1 PUSH1 0x1 PUSH1 0xA0 SHL SUB DUP2 AND DUP2 SUB PUSH2 0xAD2 JUMPI SWAP1 PUSH1 0x44 CALLDATALOAD SWAP1 PUSH1 0x64 CALLDATALOAD SWAP1 PUSH1 0x84 CALLDATALOAD PUSH1 0x1 PUSH1 0x1 PUSH1 0xA0 SHL SUB DUP2 AND DUP2 SUB PUSH2 0xAD2 JUMPI SWAP1 PUSH1 0xA4 CALLDATALOAD SWAP1 PUSH1 0xC4 CALLDATALOAD PUSH1 0x6 DUP2 LT ISZERO PUSH2 0xAD2 JUMPI SWAP1 JUMP JUMPDEST SWAP1 PUSH1 0x3 DUP3 LT ISZERO PUSH2 0x46B9 JUMPI MSTORE JUMP JUMPDEST SWAP1 PUSH1 0x6 DUP3 LT ISZERO PUSH2 0x46B9 JUMPI MSTORE JUMP JUMPDEST DUP1 MLOAD PUSH1 0x1 PUSH1 0x1 PUSH1 0xA0 SHL SUB SWAP1 DUP2 AND DUP4 MSTORE PUSH1 0x20 DUP1 DUP4 ADD MLOAD DUP3 AND SWAP1 DUP5 ADD MSTORE PUSH1 0x40 DUP1 DUP4 ADD MLOAD SWAP1 SWAP2 AND SWAP1 DUP4 ADD MSTORE PUSH1 0x60 DUP1 DUP3 ADD MLOAD PUSH2 0x498C SWAP4 SWAP3 PUSH2 0x1E0 SWAP3 DUP4 SWAP3 PUSH2 0x48F2 SWAP2 DUP7 ADD SWAP1 PUSH2 0x4893 JUMP JUMPDEST PUSH1 0x80 DUP2 ADD MLOAD ISZERO ISZERO PUSH1 0x80 DUP6 ADD MSTORE PUSH1 0xA0 DUP2 ADD MLOAD ISZERO ISZERO PUSH1 0xA0 DUP6 ADD MSTORE PUSH1 0xC0 DUP2 ADD MLOAD PUSH1 0xC0 DUP6 ADD MSTORE PUSH1 0xE0 DUP2 ADD MLOAD PUSH1 0xE0 DUP6 ADD MSTORE PUSH2 0x100 DUP2 ADD MLOAD PUSH2 0x100 DUP6 ADD MSTORE PUSH2 0x120 DUP2 ADD MLOAD PUSH2 0x120 DUP6 ADD MSTORE PUSH2 0x140 DUP2 ADD MLOAD PUSH2 0x140 DUP6 ADD MSTORE PUSH2 0x160 DUP2 ADD MLOAD PUSH2 0x160 DUP6 ADD MSTORE PUSH1 0x1 DUP1 PUSH1 0xA0 SHL SUB PUSH2 0x180 DUP3 ADD MLOAD AND PUSH2 0x180 DUP6 ADD MSTORE PUSH1 0x1 DUP1 PUSH1 0xA0 SHL SUB PUSH2 0x1A0 DUP3 ADD MLOAD AND PUSH2 0x1A0 DUP6 ADD MSTORE PUSH2 0x1C0 DUP2 ADD MLOAD PUSH2 0x1C0 DUP6 ADD MSTORE ADD MLOAD SWAP2 ADD SWAP1 PUSH2 0x48A0 JUMP JUMPDEST JUMP JUMPDEST ISZERO PUSH2 0x4995 JUMPI JUMP JUMPDEST PUSH1 0x40 MLOAD PUSH3 0x461BCD PUSH1 0xE5 SHL DUP2 MSTORE PUSH1 0x20 PUSH1 0x4 DUP3 ADD MSTORE PUSH1 0x2 PUSH1 0x24 DUP3 ADD MSTORE PUSH2 0x4C31 PUSH1 0xF0 SHL PUSH1 0x44 DUP3 ADD MSTORE PUSH1 0x64 SWAP1 REVERT JUMPDEST ISZERO PUSH2 0x49C6 JUMPI JUMP JUMPDEST PUSH1 0x40 MLOAD PUSH3 0x461BCD PUSH1 0xE5 SHL DUP2 MSTORE PUSH1 0x20 PUSH1 0x4 DUP3 ADD MSTORE PUSH1 0x2 PUSH1 0x24 DUP3 ADD MSTORE PUSH2 0x5431 PUSH1 0xF0 SHL PUSH1 0x44 DUP3 ADD MSTORE PUSH1 0x64 SWAP1 REVERT JUMPDEST PUSH1 0xE0 DUP2 ADD SWAP1 DUP2 LT PUSH8 0xFFFFFFFFFFFFFFFF DUP3 GT OR PUSH2 0x4A0C JUMPI PUSH1 0x40 MSTORE JUMP JUMPDEST PUSH4 0x4E487B71 PUSH1 0xE0 SHL PUSH0 MSTORE PUSH1 0x41 PUSH1 0x4 MSTORE PUSH1 0x24 PUSH0 REVERT JUMPDEST PUSH2 0x200 DUP2 ADD SWAP1 DUP2 LT PUSH8 0xFFFFFFFFFFFFFFFF DUP3 GT OR PUSH2 0x4A0C JUMPI PUSH1 0x40 MSTORE JUMP JUMPDEST SWAP1 PUSH1 0x1F DUP1 NOT SWAP2 ADD AND DUP2 ADD SWAP1 DUP2 LT PUSH8 0xFFFFFFFFFFFFFFFF DUP3 GT OR PUSH2 0x4A0C JUMPI PUSH1 0x40 MSTORE JUMP JUMPDEST MLOAD SWAP1 PUSH1 0x1 PUSH1 0x1 PUSH1 0xA0 SHL SUB DUP3 AND DUP3 SUB PUSH2 0xAD2 JUMPI JUMP JUMPDEST MLOAD SWAP1 DUP2 ISZERO ISZERO DUP3 SUB PUSH2 0xAD2 JUMPI JUMP JUMPDEST SWAP1 DUP2 PUSH2 0x200 SWAP2 SUB SLT PUSH2 0xAD2 JUMPI PUSH1 0x40 MLOAD SWAP1 PUSH2 0x4A99 DUP3 PUSH2 0x4A20 JUMP JUMPDEST PUSH2 0x4AA2 DUP2 PUSH2 0x4A5F JUMP JUMPDEST DUP3 MSTORE PUSH2 0x4AB0 PUSH1 0x20 DUP3 ADD PUSH2 0x4A5F JUMP JUMPDEST PUSH1 0x20 DUP4 ADD MSTORE PUSH2 0x4AC1 PUSH1 0x40 DUP3 ADD PUSH2 0x4A5F JUMP JUMPDEST PUSH1 0x40 DUP4 ADD MSTORE PUSH1 0x60 DUP2 ADD MLOAD SWAP1 PUSH1 0x3 DUP3 LT ISZERO PUSH2 0xAD2 JUMPI PUSH2 0x1E0 SWAP2 PUSH1 0x60 DUP5 ADD MSTORE PUSH2 0x4AEA PUSH1 0x80 DUP3 ADD PUSH2 0x4A73 JUMP JUMPDEST PUSH1 0x80 DUP5 ADD MSTORE PUSH2 0x4AFB PUSH1 0xA0 DUP3 ADD PUSH2 0x4A73 JUMP JUMPDEST PUSH1 0xA0 DUP5 ADD MSTORE PUSH1 0xC0 DUP2 ADD MLOAD PUSH1 0xC0 DUP5 ADD MSTORE PUSH1 0xE0 DUP2 ADD MLOAD PUSH1 0xE0 DUP5 ADD MSTORE PUSH2 0x100 DUP2 ADD MLOAD PUSH2 0x100 DUP5 ADD MSTORE PUSH2 0x120 DUP2 ADD MLOAD PUSH2 0x120 DUP5 ADD MSTORE PUSH2 0x140 DUP2 ADD MLOAD PUSH2 0x140 DUP5 ADD MSTORE PUSH2 0x160 DUP2 ADD MLOAD PUSH2 0x160 DUP5 ADD MSTORE PUSH2 0x4B51 PUSH2 0x180 DUP3 ADD PUSH2 0x4A5F JUMP JUMPDEST PUSH2 0x180 DUP5 ADD MSTORE PUSH2 0x4B64 PUSH2 0x1A0 DUP3 ADD PUSH2 0x4A5F JUMP JUMPDEST PUSH2 0x1A0 DUP5 ADD MSTORE PUSH2 0x1C0 DUP2 ADD MLOAD PUSH2 0x1C0 DUP5 ADD MSTORE ADD MLOAD PUSH1 0x6 DUP2 LT ISZERO PUSH2 0xAD2 JUMPI PUSH2 0x1E0 DUP3 ADD MSTORE SWAP1 JUMP JUMPDEST PUSH1 0x1 PUSH1 0x1 PUSH1 0xA0 SHL SUB SWAP2 DUP3 AND DUP2 MSTORE SWAP2 DUP2 AND PUSH1 0x20 DUP4 ADD MSTORE SWAP2 DUP3 AND PUSH1 0x40 DUP3 ADD MSTORE PUSH1 0x60 DUP2 ADD SWAP3 SWAP1 SWAP3 MSTORE PUSH1 0x80 DUP3 ADD SWAP3 SWAP1 SWAP3 MSTORE PUSH1 0xA0 DUP2 ADD SWAP3 SWAP1 SWAP3 MSTORE PUSH1 0xC0 DUP3 ADD SWAP3 SWAP1 SWAP3 MSTORE SWAP2 DUP2 AND PUSH1 0xE0 DUP4 ADD MSTORE SWAP1 SWAP2 AND PUSH2 0x100 DUP3 ADD MSTORE PUSH2 0x120 DUP2 ADD SWAP2 SWAP1 SWAP2 MSTORE PUSH2 0x160 DUP2 ADD SWAP3 SWAP2 PUSH2 0x498C SWAP2 PUSH2 0x140 ADD SWAP1 PUSH2 0x48A0 JUMP JUMPDEST PUSH0 NOT DUP2 EQ PUSH2 0x4C04 JUMPI PUSH1 0x1 ADD SWAP1 JUMP JUMPDEST PUSH4 0x4E487B71 PUSH1 0xE0 SHL PUSH0 MSTORE PUSH1 0x11 PUSH1 0x4 MSTORE PUSH1 0x24 PUSH0 REVERT JUMPDEST SWAP1 PUSH1 0x3 DUP2 LT ISZERO PUSH2 0x46B9 JUMPI DUP2 SLOAD PUSH1 0xFF PUSH1 0xA0 SHL NOT AND PUSH1 0xA0 SWAP2 SWAP1 SWAP2 SHL PUSH1 0xFF PUSH1 0xA0 SHL AND OR SWAP1 SSTORE JUMP JUMPDEST SWAP1 PUSH1 0x6 DUP2 LT ISZERO PUSH2 0x46B9 JUMPI PUSH1 0xFF DUP1 NOT DUP4 SLOAD AND SWAP2 AND OR SWAP1 SSTORE JUMP JUMPDEST ISZERO PUSH2 0x4C5B JUMPI JUMP JUMPDEST PUSH1 0x40 MLOAD PUSH3 0x461BCD PUSH1 0xE5 SHL DUP2 MSTORE PUSH1 0x20 PUSH1 0x4 DUP3 ADD MSTORE PUSH1 0x2 PUSH1 0x24 DUP3 ADD MSTORE PUSH2 0x4435 PUSH1 0xF0 SHL PUSH1 0x44 DUP3 ADD MSTORE PUSH1 0x64 SWAP1 REVERT JUMPDEST DUP2 SLOAD PUSH1 0x1 PUSH1 0x1 PUSH1 0xA0 SHL SUB SWAP1 DUP2 AND DUP3 MSTORE PUSH1 0x1 DUP4 ADD SLOAD DUP2 AND PUSH1 0x20 DUP4 ADD MSTORE PUSH1 0x2 DUP4 ADD SLOAD SWAP1 DUP2 AND PUSH1 0x40 DUP4 ADD MSTORE PUSH2 0x200 DUP3 ADD SWAP4 SWAP3 PUSH2 0x498C SWAP3 SWAP2 PUSH2 0x1E0 SWAP2 PUSH1 0xFF SWAP2 PUSH1 0xC SWAP2 SWAP1 DUP4 SWAP1 PUSH2 0x4CD9 PUSH1 0x60 DUP9 ADD PUSH1 0xA0 DUP4 SWAP1 SHR DUP5 AND PUSH2 0x4893 JUMP JUMPDEST PUSH1 0xA8 DUP2 SWAP1 SHR DUP3 AND ISZERO ISZERO PUSH1 0x80 DUP9 ADD MSTORE PUSH1 0xB0 SHR AND ISZERO ISZERO PUSH1 0xA0 DUP7 ADD MSTORE PUSH1 0x3 DUP2 ADD SLOAD PUSH1 0xC0 DUP7 ADD MSTORE PUSH1 0x4 DUP2 ADD SLOAD PUSH1 0xE0 DUP7 ADD MSTORE PUSH1 0x5 DUP2 ADD SLOAD PUSH2 0x100 DUP7 ADD MSTORE PUSH1 0x6 DUP2 ADD SLOAD PUSH2 0x120 DUP7 ADD MSTORE PUSH1 0x7 DUP2 ADD SLOAD PUSH2 0x140 DUP7 ADD MSTORE PUSH1 0x8 DUP2 ADD SLOAD PUSH2 0x160 DUP7 ADD MSTORE PUSH1 0x9 DUP2 ADD SLOAD PUSH1 0x1 PUSH1 0x1 PUSH1 0xA0 SHL SUB SWAP1 DUP2 AND PUSH2 0x180 DUP8 ADD MSTORE PUSH1 0xA DUP3 ADD SLOAD AND PUSH2 0x1A0 DUP7 ADD MSTORE PUSH1 0xB DUP2 ADD SLOAD PUSH2 0x1C0 DUP7 ADD MSTORE ADD SLOAD SWAP2 SWAP1 SWAP3 ADD SWAP2 AND PUSH2 0x48A0 JUMP JUMPDEST SWAP2 SWAP1 DUP3 SUB SWAP2 DUP3 GT PUSH2 0x4C04 JUMPI JUMP JUMPDEST PUSH1 0x1 PUSH1 0x1 PUSH1 0xA0 SHL SUB SWAP2 DUP3 AND DUP2 MSTORE SWAP2 AND PUSH1 0x20 DUP3 ADD MSTORE PUSH1 0x40 DUP2 ADD SWAP2 SWAP1 SWAP2 MSTORE PUSH1 0x60 DUP2 ADD SWAP2 SWAP1 SWAP2 MSTORE PUSH1 0x80 ADD SWAP1 JUMP JUMPDEST ISZERO PUSH2 0x4DAA JUMPI JUMP JUMPDEST PUSH1 0x40 MLOAD PUSH3 0x461BCD PUSH1 0xE5 SHL DUP2 MSTORE PUSH1 0x20 PUSH1 0x4 DUP3 ADD MSTORE PUSH1 0x2 PUSH1 0x24 DUP3 ADD MSTORE PUSH2 0x4335 PUSH1 0xF0 SHL PUSH1 0x44 DUP3 ADD MSTORE PUSH1 0x64 SWAP1 REVERT JUMPDEST ISZERO PUSH2 0x4DDB JUMPI JUMP JUMPDEST PUSH1 0x64 PUSH1 0x40 MLOAD PUSH3 0x461BCD PUSH1 0xE5 SHL DUP2 MSTORE PUSH1 0x20 PUSH1 0x4 DUP3 ADD MSTORE PUSH1 0x4 PUSH1 0x24 DUP3 ADD MSTORE PUSH4 0x22191719 PUSH1 0xE1 SHL PUSH1 0x44 DUP3 ADD MSTORE REVERT JUMPDEST ISZERO PUSH2 0x4E0D JUMPI JUMP JUMPDEST PUSH1 0x64 PUSH1 0x40 MLOAD PUSH3 0x461BCD PUSH1 0xE5 SHL DUP2 MSTORE PUSH1 0x20 PUSH1 0x4 DUP3 ADD MSTORE PUSH1 0x4 PUSH1 0x24 DUP3 ADD MSTORE PUSH4 0x44312E31 PUSH1 0xE0 SHL PUSH1 0x44 DUP3 ADD MSTORE REVERT JUMPDEST PUSH1 0x6 DUP3 LT ISZERO PUSH2 0x46B9 JUMPI MSTORE JUMP JUMPDEST ISZERO PUSH2 0x4E4B JUMPI JUMP JUMPDEST PUSH1 0x40 MLOAD PUSH3 0x461BCD PUSH1 0xE5 SHL DUP2 MSTORE PUSH1 0x20 PUSH1 0x4 DUP3 ADD MSTORE PUSH1 0x2 PUSH1 0x24 DUP3 ADD MSTORE PUSH2 0x2619 PUSH1 0xF1 SHL PUSH1 0x44 DUP3 ADD MSTORE PUSH1 0x64 SWAP1 REVERT JUMPDEST ISZERO PUSH2 0x4E7C JUMPI JUMP JUMPDEST PUSH1 0x40 MLOAD PUSH3 0x461BCD PUSH1 0xE5 SHL DUP2 MSTORE PUSH1 0x20 PUSH1 0x4 DUP3 ADD MSTORE PUSH1 0x2 PUSH1 0x24 DUP3 ADD MSTORE PUSH2 0x4331 PUSH1 0xF0 SHL PUSH1 0x44 DUP3 ADD MSTORE PUSH1 0x64 SWAP1 REVERT JUMPDEST PUSH1 0x1 PUSH1 0x1 PUSH1 0xA0 SHL SUB SWAP2 DUP3 AND DUP2 MSTORE SWAP2 DUP2 AND PUSH1 0x20 DUP4 ADD MSTORE SWAP2 DUP3 AND PUSH1 0x40 DUP3 ADD MSTORE PUSH1 0x60 DUP2 ADD SWAP3 SWAP1 SWAP3 MSTORE PUSH0 PUSH1 0x80 DUP4 ADD DUP2 SWAP1 MSTORE PUSH1 0xA0 DUP4 ADD SWAP4 SWAP1 SWAP4 MSTORE PUSH1 0xC0 DUP3 ADD DUP4 SWAP1 MSTORE SWAP1 SWAP3 AND PUSH1 0xE0 DUP4 ADD MSTORE PUSH2 0x100 DUP3 ADD MSTORE PUSH2 0x120 DUP2 ADD SWAP2 SWAP1 SWAP2 MSTORE PUSH2 0x160 DUP2 ADD SWAP3 SWAP2 PUSH2 0x498C SWAP2 PUSH2 0x140 ADD SWAP1 PUSH2 0x48A0 JUMP JUMPDEST SWAP2 SWAP1 DUP3 ADD DUP1 SWAP3 GT PUSH2 0x4C04 JUMPI JUMP JUMPDEST ISZERO PUSH2 0x4F22 JUMPI JUMP JUMPDEST PUSH1 0x64 PUSH1 0x40 MLOAD PUSH3 0x461BCD PUSH1 0xE5 SHL DUP2 MSTORE PUSH1 0x20 PUSH1 0x4 DUP3 ADD MSTORE PUSH1 0x4 PUSH1 0x24 DUP3 ADD MSTORE PUSH4 0x44332E31 PUSH1 0xE0 SHL PUSH1 0x44 DUP3 ADD MSTORE REVERT JUMPDEST ISZERO PUSH2 0x4F54 JUMPI JUMP JUMPDEST PUSH1 0x64 PUSH1 0x40 MLOAD PUSH3 0x461BCD PUSH1 0xE5 SHL DUP2 MSTORE PUSH1 0x20 PUSH1 0x4 DUP3 ADD MSTORE PUSH1 0x4 PUSH1 0x24 DUP3 ADD MSTORE PUSH4 0x44322E31 PUSH1 0xE0 SHL PUSH1 0x44 DUP3 ADD MSTORE REVERT JUMPDEST ISZERO PUSH2 0x4F86 JUMPI JUMP JUMPDEST PUSH1 0x40 MLOAD PUSH3 0x461BCD PUSH1 0xE5 SHL DUP2 MSTORE PUSH1 0x20 PUSH1 0x4 DUP3 ADD MSTORE PUSH1 0x2 PUSH1 0x24 DUP3 ADD MSTORE PUSH2 0x4433 PUSH1 0xF0 SHL PUSH1 0x44 DUP3 ADD MSTORE PUSH1 0x64 SWAP1 REVERT JUMPDEST ISZERO PUSH2 0x4FB7 JUMPI JUMP JUMPDEST PUSH1 0x64 PUSH1 0x40 MLOAD PUSH3 0x461BCD PUSH1 0xE5 SHL DUP2 MSTORE PUSH1 0x20 PUSH1 0x4 DUP3 ADD MSTORE PUSH1 0x4 PUSH1 0x24 DUP3 ADD MSTORE PUSH4 0x43332E31 PUSH1 0xE0 SHL PUSH1 0x44 DUP3 ADD MSTORE REVERT JUMPDEST SWAP1 DUP2 PUSH0 MSTORE PUSH1 0xA PUSH1 0x20 MSTORE PUSH1 0x40 PUSH0 KECCAK256 DUP1 SLOAD PUSH0 MSTORE PUSH1 0x4 PUSH1 0x20 MSTORE PUSH1 0x40 PUSH0 KECCAK256 PUSH1 0x1 DUP1 PUSH1 0xA0 SHL SUB DUP2 SLOAD AND CALLER EQ DUP1 ISZERO PUSH2 0x51DA JUMPI JUMPDEST PUSH2 0x5018 SWAP1 PUSH2 0x4C54 JUMP JUMPDEST PUSH1 0x4 DUP3 ADD SWAP3 DUP4 SLOAD SWAP1 PUSH2 0x5030 PUSH1 0xFF DUP4 PUSH1 0x10 SHR AND ISZERO PUSH2 0x4FB0 JUMP JUMPDEST PUSH2 0x517A JUMPI POP PUSH1 0x2 DUP2 ADD DUP1 SLOAD SWAP1 SWAP2 SWAP1 PUSH2 0x5051 SWAP1 PUSH1 0x1 PUSH1 0x1 PUSH1 0xA0 SHL SUB AND ISZERO PUSH2 0x4FB0 JUMP JUMPDEST DUP1 SLOAD PUSH1 0x1 PUSH1 0x1 PUSH1 0xA0 SHL SUB AND CALLER EQ PUSH2 0x516A JUMPI JUMPDEST PUSH1 0x1 DUP2 ADD SLOAD PUSH1 0x1 PUSH1 0x1 PUSH1 0xA0 SHL SUB AND CALLER EQ PUSH2 0x5158 JUMPI JUMPDEST DUP4 SLOAD PUSH1 0xFF DUP2 AND SWAP1 DUP2 PUSH2 0x514A JUMPI JUMPDEST POP PUSH2 0x50DB JUMPI POP POP POP PUSH1 0x80 PUSH32 0xDA0FDC90D2CAC3C2211C13CF60368ACEB049A3073B8BE0B90792021888C55FC5 SWAP2 SLOAD PUSH1 0xFF PUSH1 0x40 MLOAD SWAP2 CALLER DUP4 MSTORE DUP2 DUP2 AND ISZERO ISZERO PUSH1 0x20 DUP5 ADD MSTORE PUSH1 0x8 SHR AND ISZERO ISZERO PUSH1 0x40 DUP3 ADD MSTORE PUSH0 PUSH1 0x60 DUP3 ADD MSTORE LOG2 PUSH0 SWAP1 JUMP JUMPDEST PUSH1 0x2 DUP4 ADD SLOAD PUSH1 0x7 DUP3 ADD SSTORE PUSH1 0x3 DUP4 ADD SLOAD PUSH1 0x8 SWAP1 SWAP2 ADD SSTORE PUSH1 0x1 DUP3 ADD DUP1 SLOAD DUP3 SLOAD PUSH1 0x1 PUSH1 0x1 PUSH1 0xA0 SHL SUB NOT AND PUSH1 0x1 PUSH1 0x1 PUSH1 0xA0 SHL SUB SWAP2 DUP3 AND OR SWAP1 SWAP3 SSTORE SLOAD SWAP2 SLOAD PUSH1 0x40 MLOAD SWAP1 DUP2 MSTORE SWAP2 AND SWAP3 POP PUSH32 0x957372C0E02D2882134CC0EEBBEF9E446634D8CCBB1CBB112BDEFDD3CF0A643C SWAP2 POP PUSH1 0x20 SWAP1 LOG2 PUSH1 0x1 SWAP1 JUMP JUMPDEST PUSH1 0xFF SWAP2 POP PUSH1 0x8 SHR AND PUSH0 PUSH2 0x5085 JUMP JUMPDEST DUP4 SLOAD PUSH2 0xFF00 NOT AND PUSH2 0x100 OR DUP5 SSTORE PUSH2 0x5078 JUMP JUMPDEST DUP4 SLOAD PUSH1 0xFF NOT AND PUSH1 0x1 OR DUP5 SSTORE PUSH2 0x5063 JUMP JUMPDEST SWAP1 POP PUSH1 0x80 SWAP2 POP PUSH1 0xFF PUSH32 0xDA0FDC90D2CAC3C2211C13CF60368ACEB049A3073B8BE0B90792021888C55FC5 SWAP4 PUSH3 0x10000 PUSH3 0xFF0000 NOT DUP5 AND OR DUP1 SWAP2 SSTORE DUP2 PUSH1 0x40 MLOAD SWAP4 CALLER DUP6 MSTORE AND ISZERO ISZERO PUSH1 0x20 DUP5 ADD MSTORE PUSH1 0x8 SHR AND ISZERO ISZERO PUSH1 0x40 DUP3 ADD MSTORE PUSH1 0x1 PUSH1 0x60 DUP3 ADD MSTORE LOG2 PUSH0 SWAP1 JUMP JUMPDEST POP PUSH1 0x1 DUP2 ADD SLOAD PUSH1 0x1 PUSH1 0x1 PUSH1 0xA0 SHL SUB AND CALLER EQ PUSH2 0x500F JUMP JUMPDEST PUSH0 SWAP2 DUP2 PUSH0 MSTORE PUSH1 0x9 PUSH1 0x20 MSTORE PUSH1 0x40 PUSH0 KECCAK256 DUP1 SLOAD PUSH0 MSTORE PUSH1 0x4 PUSH1 0x20 MSTORE PUSH1 0x40 PUSH0 KECCAK256 SWAP1 PUSH1 0x1 DUP3 ADD SWAP1 PUSH1 0x1 DUP1 PUSH1 0xA0 SHL SUB DUP3 SLOAD AND CALLER EQ DUP1 ISZERO PUSH2 0x550C JUMPI JUMPDEST DUP1 ISZERO PUSH2 0x54F6 JUMPI JUMPDEST PUSH2 0x5234 SWAP1 PUSH2 0x4C54 JUMP JUMPDEST PUSH1 0x2 DUP2 ADD SWAP4 DUP5 SLOAD SWAP1 PUSH2 0x524C PUSH1 0xFF DUP4 PUSH1 0x20 SHR AND ISZERO PUSH2 0x4FB0 JUMP JUMPDEST PUSH2 0x547D JUMPI POP PUSH20 0x0 DUP1 EXTCODESIZE ISZERO PUSH2 0xAD2 JUMPI PUSH0 PUSH1 0x40 MLOAD DUP1 SWAP3 PUSH4 0x252A867 PUSH1 0xE5 SHL DUP3 MSTORE DUP2 DUP1 PUSH2 0x528C DUP10 PUSH1 0x4 DUP4 ADD PUSH2 0x4C85 JUMP JUMPDEST SUB SWAP2 GAS DELEGATECALL DUP1 ISZERO PUSH2 0x447B JUMPI PUSH2 0x5468 JUMPI JUMPDEST POP PUSH1 0x1 DUP2 ADD DUP1 SLOAD SWAP2 DUP3 ISZERO DUP1 ISZERO PUSH2 0x545E JUMPI JUMPDEST PUSH2 0x52B5 SWAP1 PUSH2 0x4E06 JUMP JUMPDEST DUP5 SLOAD PUSH1 0x1 PUSH1 0x1 PUSH1 0xA0 SHL SUB AND CALLER EQ PUSH2 0x544C JUMPI JUMPDEST DUP4 SLOAD PUSH1 0x1 PUSH1 0x1 PUSH1 0xA0 SHL SUB AND CALLER EQ PUSH2 0x5438 JUMPI JUMPDEST PUSH1 0x2 DUP6 ADD DUP1 SLOAD SWAP1 SWAP4 SWAP1 PUSH1 0x1 PUSH1 0x1 PUSH1 0xA0 SHL SUB AND CALLER EQ PUSH2 0x5422 JUMPI JUMPDEST DUP7 SLOAD PUSH1 0xFF DUP2 PUSH1 0x8 SHR AND SWAP1 DUP2 PUSH2 0x5413 JUMPI JUMPDEST DUP2 PUSH2 0x5405 JUMPI JUMPDEST POP PUSH2 0x5370 JUMPI POP POP POP POP POP POP PUSH1 0xA0 PUSH32 0xCA0792B3957820BC249DD7664026CA960EFE1500204314BF8161056D3847D526 SWAP2 SLOAD PUSH1 0xFF PUSH1 0x40 MLOAD SWAP2 CALLER DUP4 MSTORE DUP2 DUP2 PUSH1 0x8 SHR AND ISZERO ISZERO PUSH1 0x20 DUP5 ADD MSTORE DUP2 DUP2 PUSH1 0x10 SHR AND ISZERO ISZERO PUSH1 0x40 DUP5 ADD MSTORE PUSH1 0x18 SHR AND ISZERO ISZERO PUSH1 0x60 DUP3 ADD MSTORE DUP5 PUSH1 0x80 DUP3 ADD MSTORE LOG2 SWAP1 JUMP JUMPDEST DUP6 SWAP9 POP SWAP2 PUSH1 0xFF PUSH32 0x932BD05AAEE1F6600767846BAB40EAABEF608993E19645684D0A9FCB3335D372 SWAP8 SWAP3 PUSH2 0x53FF SWAP6 SWAP5 PUSH1 0xB PUSH1 0xC0 SWAP10 ADD SSTORE PUSH2 0x53B5 DUP3 DUP6 SLOAD AND PUSH1 0xC DUP14 ADD PUSH2 0x4C3C JUMP JUMPDEST SLOAD SWAP10 SLOAD SWAP6 SLOAD SWAP4 SLOAD SWAP2 SLOAD SWAP3 SLOAD PUSH1 0x40 DUP1 MLOAD PUSH1 0x1 PUSH1 0x1 PUSH1 0xA0 SHL SUB SWAP9 DUP10 AND DUP2 MSTORE SWAP6 DUP9 AND PUSH1 0x20 DUP8 ADD MSTORE SWAP3 SWAP1 SWAP7 AND SWAP2 DUP5 ADD SWAP2 SWAP1 SWAP2 MSTORE CALLER PUSH1 0x60 DUP5 ADD MSTORE PUSH1 0x80 DUP4 ADD SWAP2 SWAP1 SWAP2 MSTORE SWAP1 SWAP3 PUSH1 0xA0 DUP5 ADD SWAP2 AND PUSH2 0x48A0 JUMP JUMPDEST LOG3 PUSH1 0x1 SWAP1 JUMP JUMPDEST PUSH1 0xFF SWAP2 POP PUSH1 0x18 SHR AND PUSH0 PUSH2 0x5308 JUMP JUMPDEST SWAP1 POP PUSH1 0xFF DUP2 PUSH1 0x10 SHR AND SWAP1 PUSH2 0x5302 JUMP JUMPDEST DUP7 SLOAD PUSH4 0xFF000000 NOT AND PUSH4 0x1000000 OR DUP8 SSTORE PUSH2 0x52F2 JUMP JUMPDEST DUP6 SLOAD PUSH3 0xFF0000 NOT AND PUSH3 0x10000 OR DUP7 SSTORE PUSH2 0x52D9 JUMP JUMPDEST DUP6 SLOAD PUSH2 0xFF00 NOT AND PUSH2 0x100 OR DUP7 SSTORE PUSH2 0x52C7 JUMP JUMPDEST POP TIMESTAMP DUP4 GT ISZERO PUSH2 0x52AC JUMP JUMPDEST PUSH2 0x5475 SWAP2 SWAP7 POP PUSH0 SWAP1 PUSH2 0x4A3D JUMP JUMPDEST PUSH0 SWAP5 PUSH0 PUSH2 0x529B JUMP JUMPDEST SWAP1 POP PUSH32 0xCA0792B3957820BC249DD7664026CA960EFE1500204314BF8161056D3847D526 SWAP5 SWAP6 POP PUSH1 0xA0 SWAP4 SWAP3 POP PUSH5 0x100000000 SWAP2 POP PUSH5 0xFF00000000 NOT AND OR DUP1 SWAP2 SSTORE PUSH1 0xFF PUSH1 0x40 MLOAD SWAP2 CALLER DUP4 MSTORE DUP2 DUP2 PUSH1 0x8 SHR AND ISZERO ISZERO PUSH1 0x20 DUP5 ADD MSTORE DUP2 DUP2 PUSH1 0x10 SHR AND ISZERO ISZERO PUSH1 0x40 DUP5 ADD MSTORE PUSH1 0x18 SHR AND ISZERO ISZERO PUSH1 0x60 DUP3 ADD MSTORE PUSH1 0x1 PUSH1 0x80 DUP3 ADD MSTORE LOG2 PUSH0 SWAP1 JUMP JUMPDEST POP PUSH1 0x2 DUP4 ADD SLOAD PUSH1 0x1 PUSH1 0x1 PUSH1 0xA0 SHL SUB AND CALLER EQ PUSH2 0x522B JUMP JUMPDEST POP DUP3 SLOAD PUSH1 0x1 PUSH1 0x1 PUSH1 0xA0 SHL SUB AND CALLER EQ PUSH2 0x5224 JUMP JUMPDEST PUSH1 0x40 MLOAD SWAP1 PUSH2 0x552C DUP3 PUSH2 0x49F0 JUMP JUMPDEST PUSH0 PUSH1 0xC0 DUP4 DUP3 DUP2 MSTORE DUP3 PUSH1 0x20 DUP3 ADD MSTORE DUP3 PUSH1 0x40 DUP3 ADD MSTORE DUP3 PUSH1 0x60 DUP3 ADD MSTORE DUP3 PUSH1 0x80 DUP3 ADD MSTORE DUP3 PUSH1 0xA0 DUP3 ADD MSTORE ADD MSTORE JUMP JUMPDEST DUP3 ISZERO PUSH2 0x55F4 JUMPI PUSH1 0x1 DUP1 PUSH1 0xA0 SHL SUB AND SWAP1 DUP2 PUSH0 MSTORE PUSH1 0x1 PUSH1 0x20 MSTORE PUSH1 0x40 PUSH0 KECCAK256 PUSH1 0x1 DUP1 PUSH1 0xA0 SHL SUB DUP3 AND PUSH0 MSTORE PUSH1 0x20 MSTORE DUP3 PUSH1 0x40 PUSH0 KECCAK256 SLOAD LT PUSH2 0x55ED JUMPI PUSH32 0xD1398BEE19313D6BF672CCB116E51F4A1A947E91C757907F51FBB5B5E56C698F PUSH1 0x20 PUSH0 SWAP3 DUP5 DUP5 MSTORE PUSH1 0x1 DUP3 MSTORE PUSH1 0x40 DUP5 KECCAK256 PUSH1 0x1 DUP1 PUSH1 0xA0 SHL SUB DUP3 AND DUP6 MSTORE DUP3 MSTORE PUSH1 0x40 DUP5 KECCAK256 PUSH2 0x55D5 DUP8 DUP3 SLOAD PUSH2 0x4D6C JUMP JUMPDEST SWAP1 SSTORE PUSH1 0x40 MLOAD SWAP6 DUP7 MSTORE PUSH1 0x1 PUSH1 0x1 PUSH1 0xA0 SHL SUB AND SWAP5 LOG4 PUSH1 0x1 SWAP1 JUMP JUMPDEST POP POP POP PUSH0 SWAP1 JUMP JUMPDEST POP POP POP PUSH1 0x1 SWAP1 JUMP JUMPDEST SWAP1 SWAP3 SWAP2 SWAP1 ISZERO PUSH2 0x5611 JUMPI PUSH2 0x560E SWAP3 PUSH2 0x561A JUMP JUMPDEST SWAP1 JUMP JUMPDEST PUSH2 0x560E SWAP3 PUSH2 0x5675 JUMP JUMPDEST DUP3 ISZERO PUSH2 0x55F4 JUMPI PUSH32 0xD1398BEE19313D6BF672CCB116E51F4A1A947E91C757907F51FBB5B5E56C698F PUSH1 0x20 PUSH0 SWAP3 PUSH1 0x1 DUP1 PUSH1 0xA0 SHL SUB AND SWAP4 DUP5 DUP5 MSTORE PUSH1 0x1 DUP3 MSTORE PUSH1 0x40 DUP5 KECCAK256 PUSH1 0x1 DUP1 PUSH1 0xA0 SHL SUB DUP3 AND DUP6 MSTORE DUP3 MSTORE PUSH1 0x40 DUP5 KECCAK256 PUSH2 0x55D5 DUP8 DUP3 SLOAD PUSH2 0x4F0E JUMP JUMPDEST SWAP2 SWAP1 DUP2 ISZERO PUSH2 0x55F4 JUMPI PUSH1 0x1 PUSH1 0x1 PUSH1 0xA0 SHL SUB AND SWAP2 DUP3 PUSH2 0x56DD JUMPI PUSH0 DUP1 DUP1 DUP1 DUP6 PUSH1 0x1 PUSH1 0x1 PUSH1 0xA0 SHL SUB DUP7 AND DUP3 CALL ISZERO PUSH2 0x447B JUMPI PUSH1 0x20 PUSH32 0x2717EAD6B9200DD235AAD468C9809EA400FE33AC69B5BFAA6D3E90FC922B6398 SWAP2 JUMPDEST PUSH1 0x40 MLOAD SWAP4 DUP5 MSTORE PUSH1 0x1 PUSH1 0x1 PUSH1 0xA0 SHL SUB AND SWAP3 LOG3 PUSH1 0x1 SWAP1 JUMP JUMPDEST PUSH1 0x40 MLOAD PUSH4 0xA9059CBB PUSH1 0xE0 SHL DUP2 MSTORE PUSH1 0x1 PUSH1 0x1 PUSH1 0xA0 SHL SUB DUP3 AND PUSH1 0x4 DUP3 ADD MSTORE PUSH1 0x24 DUP2 ADD DUP4 SWAP1 MSTORE PUSH1 0x20 DUP2 PUSH1 0x44 DUP2 PUSH0 DUP9 GAS CALL SWAP1 DUP2 ISZERO PUSH2 0x447B JUMPI PUSH0 SWAP2 PUSH2 0x5771 JUMPI JUMPDEST POP ISZERO PUSH2 0x5747 JUMPI PUSH1 0x20 PUSH32 0x2717EAD6B9200DD235AAD468C9809EA400FE33AC69B5BFAA6D3E90FC922B6398 SWAP2 PUSH2 0x56C7 JUMP JUMPDEST PUSH1 0x40 MLOAD PUSH3 0x461BCD PUSH1 0xE5 SHL DUP2 MSTORE PUSH1 0x20 PUSH1 0x4 DUP3 ADD MSTORE PUSH1 0x2 PUSH1 0x24 DUP3 ADD MSTORE PUSH2 0x5433 PUSH1 0xF0 SHL PUSH1 0x44 DUP3 ADD MSTORE PUSH1 0x64 SWAP1 REVERT JUMPDEST SWAP1 POP PUSH1 0x20 DUP2 RETURNDATASIZE PUSH1 0x20 GT PUSH2 0x57A3 JUMPI JUMPDEST DUP2 PUSH2 0x578C PUSH1 0x20 SWAP4 DUP4 PUSH2 0x4A3D JUMP JUMPDEST DUP2 ADD SUB SLT PUSH2 0xAD2 JUMPI PUSH2 0x579D SWAP1 PUSH2 0x4A73 JUMP JUMPDEST PUSH0 PUSH2 0x5718 JUMP JUMPDEST RETURNDATASIZE SWAP2 POP PUSH2 0x577F JUMP INVALID DUP11 RETURN SWAP9 EQ DUP3 PUSH14 0x4542F7FE66E6FA6AC2AC59BFC822 SGT SWAP5 CREATE2 BYTE COINBASE 0xDB 0xA5 0xC5 0x4D 0xBA EXP 0xC9 0xAF 0xBE CALLER PUSH24 0x83658B293F1566E1790BFAB9858B8CF08DE944CA3CD013D4 0x21 XOR DUP8 0xB8 ADDMOD PUSH13 0x61B89EF5FCDB14C243B643069C EXTCODECOPY PUSH11 0x84765B27F2A696B875DDDF SUB BYTE 0xFB 0x4D SWAP14 PC XOR 0xEC CALLDATASIZE 0xD6 0xE8 MCOPY DUP11 ADDRESS CALLVALUE PUSH16 0x5FE41B65CC50CEA2B868AE94F293D113 0xC9 0x2A SGT CODESIZE 0xA6 0xAF NOT 0x23 DUP1 0xB5 0xBA BALANCE BYTE 0xC0 SUB CREATE2 PUSH31 0xFA2BE0717F0E466318C7E9CF546C4937A03D94DCBC1C05240F31FF3AD067EF 0x1E 0xE3 TLOAD 0xE4 SWAP10 PUSH24 0x62752E3A095284754544F4C709D79F039F6754F2D286001D PUSH12 0xB50C1B3CC185B309E82F6307 PUSH31 0x29516A6A87E8E99DA26469706673582212203D19424BF27CCA48A4D0EE314A LOG0 NOT 0xBD SWAP14 LOG4 0xAE 0xD5 SELFDESTRUCT DUP12 DUP16 PUSH5 0x67F9826C20 0xCE 0xD1 MSTORE PUSH5 0x736F6C6343 STOP ADDMOD BYTE STOP CALLER "
		},
		"gasEstimates": {
			"creation": {
				"codeDepositCost": "4544200",
				"executionCost": "infinite",
				"totalCost": "infinite"
			},
			"external": {
				"PRC_DepositCommission()": "3266",
				"addDepositByCounterparty(bytes32,uint256,bool)": "infinite",
				"addDepositByInitiator(bytes32,uint256,bool)": "infinite",
				"balanceOf(address)": "2911",
				"balanceOf(address,address)": "3589",
				"balances(address,address)": "3374",
				"cancelDeal(bytes32,bool)": "infinite",
				"commissionRecipient()": "2344",
				"completeDeal(bytes32,bool)": "infinite",
				"contractEnabled()": "2536",
				"counterpartyAcceptSidedDeal(bytes32)": "72531",
				"createDeal(address,address,uint256,uint256,address,uint256,uint8)": "infinite",
				"createDealEditExpiration(bytes32,uint256,uint8)": "infinite",
				"createEditDealMediatorRequest(bytes32,address,uint256,uint256)": "infinite",
				"createSidedDeal(address,address,uint256,uint256,uint256,uint256,address,address,uint256,uint8)": "infinite",
				"deals(bytes32)": "28675",
				"deposit(address,uint256)": "infinite",
				"disableContract()": "25984",
				"editDealExpirationRequests(uint256)": "7571",
				"editDealMediatorRequests(uint256)": "11260",
				"enableContract()": "25666",
				"executeActionsAfterExpiration(bytes32,bool)": "infinite",
				"getAmountToDepositViaComission(uint256)": "infinite",
				"getDeal(bytes32)": "infinite",
				"getEditDealExpiratation(uint256)": "infinite",
				"getEditDealMediator(uint256)": "infinite",
				"givebackToConunterparty(bytes32,uint256,bool)": "infinite",
				"givebackToInitiator(bytes32,uint256,bool)": "infinite",
				"madeDealTwoSided(bytes32,address,uint256,uint256)": "infinite",
				"owner()": "2825",
				"payUpCounterpartyAcceptSidedDeal(bytes32)": "77224",
				"payUpCreateDeal(address,address,uint256,uint256,address,uint256,uint8)": "infinite",
				"payUpCreateSidedDeal(address,address,uint256,uint256,uint256,uint256,address,address,uint256,uint8)": "infinite",
				"payUpMadeDealTwoSided(bytes32,address,uint256,uint256)": "infinite",
				"rejectSidedDeal(bytes32)": "infinite",
				"setDepositCommission(uint256,address)": "50260",
				"signDealEditExpiration(uint256,bool)": "infinite",
				"signEditDealMediatorRequest(uint256,bool)": "infinite",
				"totalCompletedDeals()": "3156",
				"totalDeals()": "2848",
				"totalEditDealMediatorRequests()": "2298",
				"totalEditExpirationRequests()": "2892",
				"transfer(address,address,uint256)": "54397",
				"transferOwnership(address)": "27028",
				"transferToCounterparty(bytes32,uint256,bool)": "infinite",
				"transferToInitiator(bytes32,uint256,bool)": "infinite",
				"withdraw(address,uint256)": "infinite",
				"withdrawRejectSidedDeal(bytes32)": "infinite"
			}
		},
		"methodIdentifiers": {
			"PRC_DepositCommission()": "f5f6a8e4",
			"addDepositByCounterparty(bytes32,uint256,bool)": "67c5545d",
			"addDepositByInitiator(bytes32,uint256,bool)": "ad94b28b",
			"balanceOf(address)": "70a08231",
			"balanceOf(address,address)": "f7888aec",
			"balances(address,address)": "c23f001f",
			"cancelDeal(bytes32,bool)": "d750158b",
			"commissionRecipient()": "06fd154a",
			"completeDeal(bytes32,bool)": "6242c6cd",
			"contractEnabled()": "41b3a0d9",
			"counterpartyAcceptSidedDeal(bytes32)": "4187129c",
			"createDeal(address,address,uint256,uint256,address,uint256,uint8)": "17b52b50",
			"createDealEditExpiration(bytes32,uint256,uint8)": "1273c165",
			"createEditDealMediatorRequest(bytes32,address,uint256,uint256)": "a471ee4f",
			"createSidedDeal(address,address,uint256,uint256,uint256,uint256,address,address,uint256,uint8)": "007e8bd3",
			"deals(bytes32)": "81cd872a",
			"deposit(address,uint256)": "47e7ef24",
			"disableContract()": "894ba833",
			"editDealExpirationRequests(uint256)": "c15a25bf",
			"editDealMediatorRequests(uint256)": "53a78000",
			"enableContract()": "367edd32",
			"executeActionsAfterExpiration(bytes32,bool)": "ee026054",
			"getAmountToDepositViaComission(uint256)": "39b3edb0",
			"getDeal(bytes32)": "51a6fad5",
			"getEditDealExpiratation(uint256)": "eb457329",
			"getEditDealMediator(uint256)": "ba343f6d",
			"givebackToConunterparty(bytes32,uint256,bool)": "c2c257b9",
			"givebackToInitiator(bytes32,uint256,bool)": "a0849a33",
			"madeDealTwoSided(bytes32,address,uint256,uint256)": "63adb66f",
			"owner()": "8da5cb5b",
			"payUpCounterpartyAcceptSidedDeal(bytes32)": "bb06c1a4",
			"payUpCreateDeal(address,address,uint256,uint256,address,uint256,uint8)": "28d5a050",
			"payUpCreateSidedDeal(address,address,uint256,uint256,uint256,uint256,address,address,uint256,uint8)": "cfadf6c7",
			"payUpMadeDealTwoSided(bytes32,address,uint256,uint256)": "0934da22",
			"rejectSidedDeal(bytes32)": "8deea5fb",
			"setDepositCommission(uint256,address)": "15f8a314",
			"signDealEditExpiration(uint256,bool)": "71ae8bcd",
			"signEditDealMediatorRequest(uint256,bool)": "619c457e",
			"totalCompletedDeals()": "e08560a4",
			"totalDeals()": "966d1f1d",
			"totalEditDealMediatorRequests()": "02927459",
			"totalEditExpirationRequests()": "9974f376",
			"transfer(address,address,uint256)": "beabacc8",
			"transferOwnership(address)": "f2fde38b",
			"transferToCounterparty(bytes32,uint256,bool)": "9905a1ea",
			"transferToInitiator(bytes32,uint256,bool)": "01cafae3",
			"withdraw(address,uint256)": "f3fef3a3",
			"withdrawRejectSidedDeal(bytes32)": "80ccb070"
		}
	},
	"abi": [
		{
			"inputs": [
				{
					"internalType": "uint256",
					"name": "_depositCommissionPercent",
					"type": "uint256"
				},
				{
					"internalType": "address",
					"name": "_commissionRecipient",
					"type": "address"
				}
			],
			"stateMutability": "nonpayable",
			"type": "constructor"
		},
		{
			"anonymous": false,
			"inputs": [
				{
					"indexed": true,
					"internalType": "bytes32",
					"name": "id",
					"type": "bytes32"
				},
				{
					"indexed": true,
					"internalType": "address",
					"name": "initiator",
					"type": "address"
				},
				{
					"indexed": true,
					"internalType": "address",
					"name": "counterparty",
					"type": "address"
				},
				{
					"indexed": false,
					"internalType": "address",
					"name": "mediator",
					"type": "address"
				},
				{
					"indexed": false,
					"internalType": "uint256",
					"name": "amount",
					"type": "uint256"
				}
			],
			"name": "AddDepositByCounterparty",
			"type": "event"
		},
		{
			"anonymous": false,
			"inputs": [
				{
					"indexed": true,
					"internalType": "bytes32",
					"name": "id",
					"type": "bytes32"
				},
				{
					"indexed": true,
					"internalType": "address",
					"name": "initiator",
					"type": "address"
				},
				{
					"indexed": true,
					"internalType": "address",
					"name": "counterparty",
					"type": "address"
				},
				{
					"indexed": false,
					"internalType": "address",
					"name": "mediator",
					"type": "address"
				},
				{
					"indexed": false,
					"internalType": "uint256",
					"name": "amount",
					"type": "uint256"
				}
			],
			"name": "AddDepositByInitiator",
			"type": "event"
		},
		{
			"anonymous": false,
			"inputs": [
				{
					"indexed": false,
					"internalType": "uint256",
					"name": "newCommissionPercent",
					"type": "uint256"
				},
				{
					"indexed": false,
					"internalType": "address",
					"name": "newCommissionRecipient",
					"type": "address"
				}
			],
			"name": "CommissionChanged",
			"type": "event"
		},
		{
			"anonymous": false,
			"inputs": [
				{
					"indexed": false,
					"internalType": "bool",
					"name": "status",
					"type": "bool"
				}
			],
			"name": "ContractStatusChanged",
			"type": "event"
		},
		{
			"anonymous": false,
			"inputs": [
				{
					"indexed": true,
					"internalType": "bytes32",
					"name": "id",
					"type": "bytes32"
				},
				{
					"indexed": true,
					"internalType": "address",
					"name": "initiator",
					"type": "address"
				},
				{
					"indexed": true,
					"internalType": "address",
					"name": "counterparty",
					"type": "address"
				},
				{
					"indexed": false,
					"internalType": "address",
					"name": "mediator",
					"type": "address"
				}
			],
			"name": "DealBecomeTwoSided",
			"type": "event"
		},
		{
			"anonymous": false,
			"inputs": [
				{
					"indexed": true,
					"internalType": "bytes32",
					"name": "id",
					"type": "bytes32"
				},
				{
					"indexed": true,
					"internalType": "address",
					"name": "initiator",
					"type": "address"
				},
				{
					"indexed": true,
					"internalType": "address",
					"name": "counterparty",
					"type": "address"
				},
				{
					"indexed": false,
					"internalType": "address",
					"name": "mediator",
					"type": "address"
				},
				{
					"indexed": false,
					"internalType": "address",
					"name": "sender",
					"type": "address"
				}
			],
			"name": "DealCanceled",
			"type": "event"
		},
		{
			"anonymous": false,
			"inputs": [
				{
					"indexed": true,
					"internalType": "bytes32",
					"name": "id",
					"type": "bytes32"
				},
				{
					"indexed": true,
					"internalType": "address",
					"name": "initiator",
					"type": "address"
				},
				{
					"indexed": true,
					"internalType": "address",
					"name": "counterparty",
					"type": "address"
				},
				{
					"indexed": false,
					"internalType": "address",
					"name": "mediator",
					"type": "address"
				},
				{
					"indexed": false,
					"internalType": "address",
					"name": "sender",
					"type": "address"
				}
			],
			"name": "DealCompited",
			"type": "event"
		},
		{
			"anonymous": false,
			"inputs": [
				{
					"indexed": true,
					"internalType": "bytes32",
					"name": "id",
					"type": "bytes32"
				},
				{
					"indexed": true,
					"internalType": "address",
					"name": "initiator",
					"type": "address"
				},
				{
					"indexed": true,
					"internalType": "address",
					"name": "counterparty",
					"type": "address"
				},
				{
					"indexed": false,
					"internalType": "address",
					"name": "mediator",
					"type": "address"
				}
			],
			"name": "DealCreated",
			"type": "event"
		},
		{
			"anonymous": false,
			"inputs": [
				{
					"indexed": true,
					"internalType": "bytes32",
					"name": "id",
					"type": "bytes32"
				},
				{
					"indexed": true,
					"internalType": "address",
					"name": "initiator",
					"type": "address"
				},
				{
					"indexed": true,
					"internalType": "address",
					"name": "counterparty",
					"type": "address"
				},
				{
					"indexed": false,
					"internalType": "address",
					"name": "mediator",
					"type": "address"
				}
			],
			"name": "DealRequestCreated",
			"type": "event"
		},
		{
			"anonymous": false,
			"inputs": [
				{
					"indexed": true,
					"internalType": "address",
					"name": "user",
					"type": "address"
				},
				{
					"indexed": true,
					"internalType": "address",
					"name": "token",
					"type": "address"
				},
				{
					"indexed": false,
					"internalType": "uint256",
					"name": "amount",
					"type": "uint256"
				},
				{
					"indexed": false,
					"internalType": "uint256",
					"name": "commission",
					"type": "uint256"
				}
			],
			"name": "Deposit",
			"type": "event"
		},
		{
			"anonymous": false,
			"inputs": [
				{
					"indexed": true,
					"internalType": "bytes32",
					"name": "id",
					"type": "bytes32"
				},
				{
					"indexed": true,
					"internalType": "address",
					"name": "initiator",
					"type": "address"
				},
				{
					"indexed": true,
					"internalType": "address",
					"name": "counterparty",
					"type": "address"
				},
				{
					"indexed": false,
					"internalType": "address",
					"name": "mediator",
					"type": "address"
				},
				{
					"indexed": false,
					"internalType": "address",
					"name": "sender",
					"type": "address"
				},
				{
					"indexed": false,
					"internalType": "uint256",
					"name": "requestId",
					"type": "uint256"
				}
			],
			"name": "EditDealExpirationRequestCreated",
			"type": "event"
		},
		{
			"anonymous": false,
			"inputs": [
				{
					"indexed": true,
					"internalType": "uint256",
					"name": "id",
					"type": "uint256"
				},
				{
					"indexed": false,
					"internalType": "address",
					"name": "sender",
					"type": "address"
				},
				{
					"indexed": false,
					"internalType": "bool",
					"name": "signedInititor",
					"type": "bool"
				},
				{
					"indexed": false,
					"internalType": "bool",
					"name": "signedCounterparty",
					"type": "bool"
				},
				{
					"indexed": false,
					"internalType": "bool",
					"name": "signedMediator",
					"type": "bool"
				},
				{
					"indexed": false,
					"internalType": "bool",
					"name": "rejected",
					"type": "bool"
				}
			],
			"name": "EditDealExpirationRequestUpdated",
			"type": "event"
		},
		{
			"anonymous": false,
			"inputs": [
				{
					"indexed": true,
					"internalType": "uint256",
					"name": "id",
					"type": "uint256"
				},
				{
					"indexed": true,
					"internalType": "bytes32",
					"name": "dealId",
					"type": "bytes32"
				},
				{
					"indexed": true,
					"internalType": "address",
					"name": "newMediator",
					"type": "address"
				},
				{
					"indexed": false,
					"internalType": "address",
					"name": "sender",
					"type": "address"
				}
			],
			"name": "EditDealMediatorRequestCreated",
			"type": "event"
		},
		{
			"anonymous": false,
			"inputs": [
				{
					"indexed": true,
					"internalType": "uint256",
					"name": "reid",
					"type": "uint256"
				},
				{
					"indexed": false,
					"internalType": "address",
					"name": "sender",
					"type": "address"
				},
				{
					"indexed": false,
					"internalType": "bool",
					"name": "signedByInitiator",
					"type": "bool"
				},
				{
					"indexed": false,
					"internalType": "bool",
					"name": "signedByCounterparty",
					"type": "bool"
				},
				{
					"indexed": false,
					"internalType": "bool",
					"name": "rejected",
					"type": "bool"
				}
			],
			"name": "EditDealMediatorRequestUpdated",
			"type": "event"
		},
		{
			"anonymous": false,
			"inputs": [
				{
					"indexed": true,
					"internalType": "uint256",
					"name": "Id",
					"type": "uint256"
				},
				{
					"indexed": true,
					"internalType": "bytes32",
					"name": "dealId",
					"type": "bytes32"
				},
				{
					"indexed": false,
					"internalType": "address",
					"name": "initiator",
					"type": "address"
				},
				{
					"indexed": false,
					"internalType": "address",
					"name": "counterparty",
					"type": "address"
				},
				{
					"indexed": false,
					"internalType": "address",
					"name": "mediator",
					"type": "address"
				},
				{
					"indexed": false,
					"internalType": "address",
					"name": "sender",
					"type": "address"
				},
				{
					"indexed": false,
					"internalType": "uint256",
					"name": "newExpirationDate",
					"type": "uint256"
				},
				{
					"indexed": false,
					"internalType": "enum MediatorAction",
					"name": "mediatorActionOnExpiration",
					"type": "uint8"
				}
			],
			"name": "EditedDealExpiration",
			"type": "event"
		},
		{
			"anonymous": false,
			"inputs": [
				{
					"indexed": true,
					"internalType": "bytes32",
					"name": "id",
					"type": "bytes32"
				},
				{
					"indexed": true,
					"internalType": "address",
					"name": "initiator",
					"type": "address"
				},
				{
					"indexed": true,
					"internalType": "address",
					"name": "counterparty",
					"type": "address"
				},
				{
					"indexed": false,
					"internalType": "address",
					"name": "mediator",
					"type": "address"
				},
				{
					"indexed": false,
					"internalType": "address",
					"name": "sender",
					"type": "address"
				},
				{
					"indexed": false,
					"internalType": "uint256",
					"name": "amount",
					"type": "uint256"
				},
				{
					"indexed": false,
					"internalType": "uint256",
					"name": "fee",
					"type": "uint256"
				}
			],
			"name": "GivebackToCounterparty",
			"type": "event"
		},
		{
			"anonymous": false,
			"inputs": [
				{
					"indexed": true,
					"internalType": "bytes32",
					"name": "id",
					"type": "bytes32"
				},
				{
					"indexed": true,
					"internalType": "address",
					"name": "initiator",
					"type": "address"
				},
				{
					"indexed": true,
					"internalType": "address",
					"name": "counterparty",
					"type": "address"
				},
				{
					"indexed": false,
					"internalType": "address",
					"name": "mediator",
					"type": "address"
				},
				{
					"indexed": false,
					"internalType": "address",
					"name": "sender",
					"type": "address"
				},
				{
					"indexed": false,
					"internalType": "uint256",
					"name": "amount",
					"type": "uint256"
				},
				{
					"indexed": false,
					"internalType": "uint256",
					"name": "fee",
					"type": "uint256"
				}
			],
			"name": "GivebackToInitiator",
			"type": "event"
		},
		{
			"anonymous": false,
			"inputs": [
				{
					"indexed": true,
					"internalType": "address",
					"name": "mediator",
					"type": "address"
				},
				{
					"indexed": false,
					"internalType": "bytes32",
					"name": "dealId",
					"type": "bytes32"
				}
			],
			"name": "JoinedToDealAsMediator",
			"type": "event"
		},
		{
			"anonymous": false,
			"inputs": [
				{
					"indexed": true,
					"internalType": "address",
					"name": "previousOwner",
					"type": "address"
				},
				{
					"indexed": true,
					"internalType": "address",
					"name": "newOwner",
					"type": "address"
				}
			],
			"name": "OwnershipTransferred",
			"type": "event"
		},
		{
			"anonymous": false,
			"inputs": [
				{
					"indexed": true,
					"internalType": "address",
					"name": "from",
					"type": "address"
				},
				{
					"indexed": true,
					"internalType": "address",
					"name": "to",
					"type": "address"
				},
				{
					"indexed": true,
					"internalType": "address",
					"name": "token",
					"type": "address"
				},
				{
					"indexed": false,
					"internalType": "uint256",
					"name": "value",
					"type": "uint256"
				}
			],
			"name": "Transfer",
			"type": "event"
		},
		{
			"anonymous": false,
			"inputs": [
				{
					"indexed": true,
					"internalType": "bytes32",
					"name": "id",
					"type": "bytes32"
				},
				{
					"indexed": true,
					"internalType": "address",
					"name": "initiator",
					"type": "address"
				},
				{
					"indexed": true,
					"internalType": "address",
					"name": "counterparty",
					"type": "address"
				},
				{
					"indexed": false,
					"internalType": "address",
					"name": "mediator",
					"type": "address"
				},
				{
					"indexed": false,
					"internalType": "address",
					"name": "sender",
					"type": "address"
				},
				{
					"indexed": false,
					"internalType": "uint256",
					"name": "amount",
					"type": "uint256"
				},
				{
					"indexed": false,
					"internalType": "uint256",
					"name": "fee",
					"type": "uint256"
				}
			],
			"name": "TransferToCounterparty",
			"type": "event"
		},
		{
			"anonymous": false,
			"inputs": [
				{
					"indexed": true,
					"internalType": "bytes32",
					"name": "id",
					"type": "bytes32"
				},
				{
					"indexed": true,
					"internalType": "address",
					"name": "initiator",
					"type": "address"
				},
				{
					"indexed": true,
					"internalType": "address",
					"name": "counterparty",
					"type": "address"
				},
				{
					"indexed": false,
					"internalType": "address",
					"name": "mediator",
					"type": "address"
				},
				{
					"indexed": false,
					"internalType": "address",
					"name": "sender",
					"type": "address"
				},
				{
					"indexed": false,
					"internalType": "address",
					"name": "target",
					"type": "address"
				},
				{
					"indexed": false,
					"internalType": "uint256",
					"name": "amountInitiator",
					"type": "uint256"
				},
				{
					"indexed": false,
					"internalType": "uint256",
					"name": "amountCounterparty",
					"type": "uint256"
				},
				{
					"indexed": false,
					"internalType": "uint256",
					"name": "feeInitiator",
					"type": "uint256"
				},
				{
					"indexed": false,
					"internalType": "uint256",
					"name": "feeCounterparty",
					"type": "uint256"
				}
			],
			"name": "TransferToFromDeal",
			"type": "event"
		},
		{
			"anonymous": false,
			"inputs": [
				{
					"indexed": true,
					"internalType": "bytes32",
					"name": "id",
					"type": "bytes32"
				},
				{
					"indexed": true,
					"internalType": "address",
					"name": "initiator",
					"type": "address"
				},
				{
					"indexed": true,
					"internalType": "address",
					"name": "counterparty",
					"type": "address"
				},
				{
					"indexed": false,
					"internalType": "address",
					"name": "mediator",
					"type": "address"
				},
				{
					"indexed": false,
					"internalType": "address",
					"name": "sender",
					"type": "address"
				},
				{
					"indexed": false,
					"internalType": "uint256",
					"name": "amount",
					"type": "uint256"
				},
				{
					"indexed": false,
					"internalType": "uint256",
					"name": "fee",
					"type": "uint256"
				}
			],
			"name": "TransferToInitiator",
			"type": "event"
		},
		{
			"anonymous": false,
			"inputs": [
				{
					"indexed": true,
					"internalType": "address",
					"name": "user",
					"type": "address"
				},
				{
					"indexed": true,
					"internalType": "address",
					"name": "token",
					"type": "address"
				},
				{
					"indexed": false,
					"internalType": "uint256",
					"name": "amount",
					"type": "uint256"
				}
			],
			"name": "Withdrawal",
			"type": "event"
		},
		{
			"inputs": [],
			"name": "PRC_DepositCommission",
			"outputs": [
				{
					"internalType": "uint256",
					"name": "",
					"type": "uint256"
				}
			],
			"stateMutability": "view",
			"type": "function"
		},
		{
			"inputs": [
				{
					"internalType": "bytes32",
					"name": "dealId",
					"type": "bytes32"
				},
				{
					"internalType": "uint256",
					"name": "amount",
					"type": "uint256"
				},
				{
					"internalType": "bool",
					"name": "local",
					"type": "bool"
				}
			],
			"name": "addDepositByCounterparty",
			"outputs": [
				{
					"internalType": "bool",
					"name": "",
					"type": "bool"
				}
			],
			"stateMutability": "payable",
			"type": "function"
		},
		{
			"inputs": [
				{
					"internalType": "bytes32",
					"name": "dealId",
					"type": "bytes32"
				},
				{
					"internalType": "uint256",
					"name": "amount",
					"type": "uint256"
				},
				{
					"internalType": "bool",
					"name": "local",
					"type": "bool"
				}
			],
			"name": "addDepositByInitiator",
			"outputs": [
				{
					"internalType": "bool",
					"name": "",
					"type": "bool"
				}
			],
			"stateMutability": "payable",
			"type": "function"
		},
		{
			"inputs": [
				{
					"internalType": "address",
					"name": "user",
					"type": "address"
				}
			],
			"name": "balanceOf",
			"outputs": [
				{
					"internalType": "uint256",
					"name": "",
					"type": "uint256"
				}
			],
			"stateMutability": "view",
			"type": "function"
		},
		{
			"inputs": [
				{
					"internalType": "address",
					"name": "user",
					"type": "address"
				},
				{
					"internalType": "address",
					"name": "token",
					"type": "address"
				}
			],
			"name": "balanceOf",
			"outputs": [
				{
					"internalType": "uint256",
					"name": "",
					"type": "uint256"
				}
			],
			"stateMutability": "view",
			"type": "function"
		},
		{
			"inputs": [
				{
					"internalType": "address",
					"name": "",
					"type": "address"
				},
				{
					"internalType": "address",
					"name": "",
					"type": "address"
				}
			],
			"name": "balances",
			"outputs": [
				{
					"internalType": "uint256",
					"name": "",
					"type": "uint256"
				}
			],
			"stateMutability": "view",
			"type": "function"
		},
		{
			"inputs": [
				{
					"internalType": "bytes32",
					"name": "dealId",
					"type": "bytes32"
				},
				{
					"internalType": "bool",
					"name": "local",
					"type": "bool"
				}
			],
			"name": "cancelDeal",
			"outputs": [
				{
					"internalType": "bool",
					"name": "",
					"type": "bool"
				}
			],
			"stateMutability": "nonpayable",
			"type": "function"
		},
		{
			"inputs": [],
			"name": "commissionRecipient",
			"outputs": [
				{
					"internalType": "address",
					"name": "",
					"type": "address"
				}
			],
			"stateMutability": "view",
			"type": "function"
		},
		{
			"inputs": [
				{
					"internalType": "bytes32",
					"name": "dealId",
					"type": "bytes32"
				},
				{
					"internalType": "bool",
					"name": "local",
					"type": "bool"
				}
			],
			"name": "completeDeal",
			"outputs": [
				{
					"internalType": "bool",
					"name": "",
					"type": "bool"
				}
			],
			"stateMutability": "nonpayable",
			"type": "function"
		},
		{
			"inputs": [],
			"name": "contractEnabled",
			"outputs": [
				{
					"internalType": "bool",
					"name": "",
					"type": "bool"
				}
			],
			"stateMutability": "view",
			"type": "function"
		},
		{
			"inputs": [
				{
					"internalType": "bytes32",
					"name": "dealId",
					"type": "bytes32"
				}
			],
			"name": "counterpartyAcceptSidedDeal",
			"outputs": [
				{
					"internalType": "bool",
					"name": "",
					"type": "bool"
				}
			],
			"stateMutability": "nonpayable",
			"type": "function"
		},
		{
			"inputs": [
				{
					"internalType": "address payable",
					"name": "counterparty",
					"type": "address"
				},
				{
					"internalType": "address payable",
					"name": "mediator",
					"type": "address"
				},
				{
					"internalType": "uint256",
					"name": "amount",
					"type": "uint256"
				},
				{
					"internalType": "uint256",
					"name": "PRCMediatorFee",
					"type": "uint256"
				},
				{
					"internalType": "address",
					"name": "tokenAddress",
					"type": "address"
				},
				{
					"internalType": "uint256",
					"name": "expirationDate",
					"type": "uint256"
				},
				{
					"internalType": "enum MediatorAction",
					"name": "mediatorActionOnExpiration",
					"type": "uint8"
				}
			],
			"name": "createDeal",
			"outputs": [
				{
					"internalType": "bytes32",
					"name": "",
					"type": "bytes32"
				}
			],
			"stateMutability": "nonpayable",
			"type": "function"
		},
		{
			"inputs": [
				{
					"internalType": "bytes32",
					"name": "dealId",
					"type": "bytes32"
				},
				{
					"internalType": "uint256",
					"name": "newExpirationDate",
					"type": "uint256"
				},
				{
					"internalType": "enum MediatorAction",
					"name": "newMediatorActionOnExpiration",
					"type": "uint8"
				}
			],
			"name": "createDealEditExpiration",
			"outputs": [
				{
					"internalType": "uint256",
					"name": "",
					"type": "uint256"
				}
			],
			"stateMutability": "nonpayable",
			"type": "function"
		},
		{
			"inputs": [
				{
					"internalType": "bytes32",
					"name": "dealId",
					"type": "bytes32"
				},
				{
					"internalType": "address payable",
					"name": "newMediator",
					"type": "address"
				},
				{
					"internalType": "uint256",
					"name": "PRC_InitiatorFee",
					"type": "uint256"
				},
				{
					"internalType": "uint256",
					"name": "PRC_CounterpartyFee",
					"type": "uint256"
				}
			],
			"name": "createEditDealMediatorRequest",
			"outputs": [
				{
					"internalType": "uint256",
					"name": "",
					"type": "uint256"
				}
			],
			"stateMutability": "nonpayable",
			"type": "function"
		},
		{
			"inputs": [
				{
					"internalType": "address payable",
					"name": "counterparty",
					"type": "address"
				},
				{
					"internalType": "address payable",
					"name": "mediator",
					"type": "address"
				},
				{
					"internalType": "uint256",
					"name": "initiatorCreateAmount",
					"type": "uint256"
				},
				{
					"internalType": "uint256",
					"name": "counterpartyCreateAmount",
					"type": "uint256"
				},
				{
					"internalType": "uint256",
					"name": "PRCMediatorFeeInititor",
					"type": "uint256"
				},
				{
					"internalType": "uint256",
					"name": "PRCMediatorFeeCounterparty",
					"type": "uint256"
				},
				{
					"internalType": "address",
					"name": "initiatorTokenAddress",
					"type": "address"
				},
				{
					"internalType": "address",
					"name": "counterpartyTokenAddress",
					"type": "address"
				},
				{
					"internalType": "uint256",
					"name": "expirationDate",
					"type": "uint256"
				},
				{
					"internalType": "enum MediatorAction",
					"name": "mediatorActionOnExpiration",
					"type": "uint8"
				}
			],
			"name": "createSidedDeal",
			"outputs": [
				{
					"internalType": "bytes32",
					"name": "",
					"type": "bytes32"
				}
			],
			"stateMutability": "nonpayable",
			"type": "function"
		},
		{
			"inputs": [
				{
					"internalType": "bytes32",
					"name": "",
					"type": "bytes32"
				}
			],
			"name": "deals",
			"outputs": [
				{
					"internalType": "address payable",
					"name": "initiator",
					"type": "address"
				},
				{
					"internalType": "address payable",
					"name": "counterparty",
					"type": "address"
				},
				{
					"internalType": "address payable",
					"name": "mediator",
					"type": "address"
				},
				{
					"internalType": "enum DealStatus",
					"name": "status",
					"type": "uint8"
				},
				{
					"internalType": "bool",
					"name": "isTwoSided",
					"type": "bool"
				},
				{
					"internalType": "bool",
					"name": "isSignedByCounterparty",
					"type": "bool"
				},
				{
					"internalType": "uint256",
					"name": "initiatorCreateAmount",
					"type": "uint256"
				},
				{
					"internalType": "uint256",
					"name": "counterpartyCreateAmount",
					"type": "uint256"
				},
				{
					"internalType": "uint256",
					"name": "initiatorCurrentAmount",
					"type": "uint256"
				},
				{
					"internalType": "uint256",
					"name": "counterpartyCurrentAmount",
					"type": "uint256"
				},
				{
					"internalType": "uint256",
					"name": "PRC_InitiatorMediatorFee",
					"type": "uint256"
				},
				{
					"internalType": "uint256",
					"name": "PRC_CounterpartyMediatorFee",
					"type": "uint256"
				},
				{
					"internalType": "address",
					"name": "initiatorTokenAddress",
					"type": "address"
				},
				{
					"internalType": "address",
					"name": "counterpartyTokenAddress",
					"type": "address"
				},
				{
					"internalType": "uint256",
					"name": "expirationDate",
					"type": "uint256"
				},
				{
					"internalType": "enum MediatorAction",
					"name": "mediatorActionOnExpiration",
					"type": "uint8"
				}
			],
			"stateMutability": "view",
			"type": "function"
		},
		{
			"inputs": [
				{
					"internalType": "address",
					"name": "token",
					"type": "address"
				},
				{
					"internalType": "uint256",
					"name": "amount",
					"type": "uint256"
				}
			],
			"name": "deposit",
			"outputs": [],
			"stateMutability": "payable",
			"type": "function"
		},
		{
			"inputs": [],
			"name": "disableContract",
			"outputs": [],
			"stateMutability": "nonpayable",
			"type": "function"
		},
		{
			"inputs": [
				{
					"internalType": "uint256",
					"name": "",
					"type": "uint256"
				}
			],
			"name": "editDealExpirationRequests",
			"outputs": [
				{
					"internalType": "bytes32",
					"name": "dealId",
					"type": "bytes32"
				},
				{
					"internalType": "uint256",
					"name": "expirationDate",
					"type": "uint256"
				},
				{
					"internalType": "enum MediatorAction",
					"name": "mediatorActionOnExpiration",
					"type": "uint8"
				},
				{
					"internalType": "bool",
					"name": "singedByInitiator",
					"type": "bool"
				},
				{
					"internalType": "bool",
					"name": "signedByCounterparty",
					"type": "bool"
				},
				{
					"internalType": "bool",
					"name": "signedByMediator",
					"type": "bool"
				},
				{
					"internalType": "bool",
					"name": "rejected",
					"type": "bool"
				}
			],
			"stateMutability": "view",
			"type": "function"
		},
		{
			"inputs": [
				{
					"internalType": "uint256",
					"name": "",
					"type": "uint256"
				}
			],
			"name": "editDealMediatorRequests",
			"outputs": [
				{
					"internalType": "bytes32",
					"name": "dealId",
					"type": "bytes32"
				},
				{
					"internalType": "address payable",
					"name": "mediator",
					"type": "address"
				},
				{
					"internalType": "uint256",
					"name": "PRC_InitiatorFee",
					"type": "uint256"
				},
				{
					"internalType": "uint256",
					"name": "PRC_CounterpartyFee",
					"type": "uint256"
				},
				{
					"internalType": "bool",
					"name": "singedByInitiator",
					"type": "bool"
				},
				{
					"internalType": "bool",
					"name": "signedByCounterparty",
					"type": "bool"
				},
				{
					"internalType": "bool",
					"name": "rejected",
					"type": "bool"
				}
			],
			"stateMutability": "view",
			"type": "function"
		},
		{
			"inputs": [],
			"name": "enableContract",
			"outputs": [],
			"stateMutability": "nonpayable",
			"type": "function"
		},
		{
			"inputs": [
				{
					"internalType": "bytes32",
					"name": "dealId",
					"type": "bytes32"
				},
				{
					"internalType": "bool",
					"name": "local",
					"type": "bool"
				}
			],
			"name": "executeActionsAfterExpiration",
			"outputs": [
				{
					"internalType": "bool",
					"name": "",
					"type": "bool"
				}
			],
			"stateMutability": "nonpayable",
			"type": "function"
		},
		{
			"inputs": [
				{
					"internalType": "uint256",
					"name": "amount",
					"type": "uint256"
				}
			],
			"name": "getAmountToDepositViaComission",
			"outputs": [
				{
					"internalType": "uint256",
					"name": "",
					"type": "uint256"
				}
			],
			"stateMutability": "view",
			"type": "function"
		},
		{
			"inputs": [
				{
					"internalType": "bytes32",
					"name": "dealId",
					"type": "bytes32"
				}
			],
			"name": "getDeal",
			"outputs": [
				{
					"components": [
						{
							"internalType": "address payable",
							"name": "initiator",
							"type": "address"
						},
						{
							"internalType": "address payable",
							"name": "counterparty",
							"type": "address"
						},
						{
							"internalType": "address payable",
							"name": "mediator",
							"type": "address"
						},
						{
							"internalType": "enum DealStatus",
							"name": "status",
							"type": "uint8"
						},
						{
							"internalType": "bool",
							"name": "isTwoSided",
							"type": "bool"
						},
						{
							"internalType": "bool",
							"name": "isSignedByCounterparty",
							"type": "bool"
						},
						{
							"internalType": "uint256",
							"name": "initiatorCreateAmount",
							"type": "uint256"
						},
						{
							"internalType": "uint256",
							"name": "counterpartyCreateAmount",
							"type": "uint256"
						},
						{
							"internalType": "uint256",
							"name": "initiatorCurrentAmount",
							"type": "uint256"
						},
						{
							"internalType": "uint256",
							"name": "counterpartyCurrentAmount",
							"type": "uint256"
						},
						{
							"internalType": "uint256",
							"name": "PRC_InitiatorMediatorFee",
							"type": "uint256"
						},
						{
							"internalType": "uint256",
							"name": "PRC_CounterpartyMediatorFee",
							"type": "uint256"
						},
						{
							"internalType": "address",
							"name": "initiatorTokenAddress",
							"type": "address"
						},
						{
							"internalType": "address",
							"name": "counterpartyTokenAddress",
							"type": "address"
						},
						{
							"internalType": "uint256",
							"name": "expirationDate",
							"type": "uint256"
						},
						{
							"internalType": "enum MediatorAction",
							"name": "mediatorActionOnExpiration",
							"type": "uint8"
						}
					],
					"internalType": "struct Deal",
					"name": "",
					"type": "tuple"
				}
			],
			"stateMutability": "view",
			"type": "function"
		},
		{
			"inputs": [
				{
					"internalType": "uint256",
					"name": "id",
					"type": "uint256"
				}
			],
			"name": "getEditDealExpiratation",
			"outputs": [
				{
					"components": [
						{
							"internalType": "bytes32",
							"name": "dealId",
							"type": "bytes32"
						},
						{
							"internalType": "uint256",
							"name": "expirationDate",
							"type": "uint256"
						},
						{
							"internalType": "enum MediatorAction",
							"name": "mediatorActionOnExpiration",
							"type": "uint8"
						},
						{
							"internalType": "bool",
							"name": "singedByInitiator",
							"type": "bool"
						},
						{
							"internalType": "bool",
							"name": "signedByCounterparty",
							"type": "bool"
						},
						{
							"internalType": "bool",
							"name": "signedByMediator",
							"type": "bool"
						},
						{
							"internalType": "bool",
							"name": "rejected",
							"type": "bool"
						}
					],
					"internalType": "struct EditDealExpiratation",
					"name": "",
					"type": "tuple"
				}
			],
			"stateMutability": "view",
			"type": "function"
		},
		{
			"inputs": [
				{
					"internalType": "uint256",
					"name": "id",
					"type": "uint256"
				}
			],
			"name": "getEditDealMediator",
			"outputs": [
				{
					"components": [
						{
							"internalType": "bytes32",
							"name": "dealId",
							"type": "bytes32"
						},
						{
							"internalType": "address payable",
							"name": "mediator",
							"type": "address"
						},
						{
							"internalType": "uint256",
							"name": "PRC_InitiatorFee",
							"type": "uint256"
						},
						{
							"internalType": "uint256",
							"name": "PRC_CounterpartyFee",
							"type": "uint256"
						},
						{
							"internalType": "bool",
							"name": "singedByInitiator",
							"type": "bool"
						},
						{
							"internalType": "bool",
							"name": "signedByCounterparty",
							"type": "bool"
						},
						{
							"internalType": "bool",
							"name": "rejected",
							"type": "bool"
						}
					],
					"internalType": "struct EditDealMediator",
					"name": "",
					"type": "tuple"
				}
			],
			"stateMutability": "view",
			"type": "function"
		},
		{
			"inputs": [
				{
					"internalType": "bytes32",
					"name": "dealId",
					"type": "bytes32"
				},
				{
					"internalType": "uint256",
					"name": "amount",
					"type": "uint256"
				},
				{
					"internalType": "bool",
					"name": "local",
					"type": "bool"
				}
			],
			"name": "givebackToConunterparty",
			"outputs": [
				{
					"internalType": "bool",
					"name": "",
					"type": "bool"
				}
			],
			"stateMutability": "nonpayable",
			"type": "function"
		},
		{
			"inputs": [
				{
					"internalType": "bytes32",
					"name": "dealId",
					"type": "bytes32"
				},
				{
					"internalType": "uint256",
					"name": "amount",
					"type": "uint256"
				},
				{
					"internalType": "bool",
					"name": "local",
					"type": "bool"
				}
			],
			"name": "givebackToInitiator",
			"outputs": [
				{
					"internalType": "bool",
					"name": "",
					"type": "bool"
				}
			],
			"stateMutability": "nonpayable",
			"type": "function"
		},
		{
			"inputs": [
				{
					"internalType": "bytes32",
					"name": "dealId",
					"type": "bytes32"
				},
				{
					"internalType": "address",
					"name": "tokenAdress",
					"type": "address"
				},
				{
					"internalType": "uint256",
					"name": "amount",
					"type": "uint256"
				},
				{
					"internalType": "uint256",
					"name": "PRC_mediatorFee",
					"type": "uint256"
				}
			],
			"name": "madeDealTwoSided",
			"outputs": [
				{
					"internalType": "bool",
					"name": "",
					"type": "bool"
				}
			],
			"stateMutability": "nonpayable",
			"type": "function"
		},
		{
			"inputs": [],
			"name": "owner",
			"outputs": [
				{
					"internalType": "address",
					"name": "",
					"type": "address"
				}
			],
			"stateMutability": "view",
			"type": "function"
		},
		{
			"inputs": [
				{
					"internalType": "bytes32",
					"name": "dealId",
					"type": "bytes32"
				}
			],
			"name": "payUpCounterpartyAcceptSidedDeal",
			"outputs": [
				{
					"internalType": "bool",
					"name": "",
					"type": "bool"
				}
			],
			"stateMutability": "payable",
			"type": "function"
		},
		{
			"inputs": [
				{
					"internalType": "address payable",
					"name": "counterparty",
					"type": "address"
				},
				{
					"internalType": "address payable",
					"name": "mediator",
					"type": "address"
				},
				{
					"internalType": "uint256",
					"name": "amount",
					"type": "uint256"
				},
				{
					"internalType": "uint256",
					"name": "PRCMediatorFee",
					"type": "uint256"
				},
				{
					"internalType": "address",
					"name": "tokenAddress",
					"type": "address"
				},
				{
					"internalType": "uint256",
					"name": "expirationDate",
					"type": "uint256"
				},
				{
					"internalType": "enum MediatorAction",
					"name": "mediatorActionOnExpiration",
					"type": "uint8"
				}
			],
			"name": "payUpCreateDeal",
			"outputs": [
				{
					"internalType": "bytes32",
					"name": "",
					"type": "bytes32"
				}
			],
			"stateMutability": "payable",
			"type": "function"
		},
		{
			"inputs": [
				{
					"internalType": "address payable",
					"name": "counterparty",
					"type": "address"
				},
				{
					"internalType": "address payable",
					"name": "mediator",
					"type": "address"
				},
				{
					"internalType": "uint256",
					"name": "initiatorCreateAmount",
					"type": "uint256"
				},
				{
					"internalType": "uint256",
					"name": "counterpartyCreateAmount",
					"type": "uint256"
				},
				{
					"internalType": "uint256",
					"name": "PRCMediatorFeeInititor",
					"type": "uint256"
				},
				{
					"internalType": "uint256",
					"name": "PRCMediatorFeeCounterparty",
					"type": "uint256"
				},
				{
					"internalType": "address",
					"name": "initiatorTokenAddress",
					"type": "address"
				},
				{
					"internalType": "address",
					"name": "counterpartyTokenAddress",
					"type": "address"
				},
				{
					"internalType": "uint256",
					"name": "expirationDate",
					"type": "uint256"
				},
				{
					"internalType": "enum MediatorAction",
					"name": "mediatorActionOnExpiration",
					"type": "uint8"
				}
			],
			"name": "payUpCreateSidedDeal",
			"outputs": [
				{
					"internalType": "bytes32",
					"name": "",
					"type": "bytes32"
				}
			],
			"stateMutability": "payable",
			"type": "function"
		},
		{
			"inputs": [
				{
					"internalType": "bytes32",
					"name": "dealId",
					"type": "bytes32"
				},
				{
					"internalType": "address",
					"name": "tokenAdress",
					"type": "address"
				},
				{
					"internalType": "uint256",
					"name": "amount",
					"type": "uint256"
				},
				{
					"internalType": "uint256",
					"name": "PRC_mediatorFee",
					"type": "uint256"
				}
			],
			"name": "payUpMadeDealTwoSided",
			"outputs": [
				{
					"internalType": "bool",
					"name": "",
					"type": "bool"
				}
			],
			"stateMutability": "payable",
			"type": "function"
		},
		{
			"inputs": [
				{
					"internalType": "bytes32",
					"name": "dealId",
					"type": "bytes32"
				}
			],
			"name": "rejectSidedDeal",
			"outputs": [
				{
					"internalType": "bool",
					"name": "",
					"type": "bool"
				}
			],
			"stateMutability": "nonpayable",
			"type": "function"
		},
		{
			"inputs": [
				{
					"internalType": "uint256",
					"name": "PRC_NewCommission",
					"type": "uint256"
				},
				{
					"internalType": "address",
					"name": "newRecipient",
					"type": "address"
				}
			],
			"name": "setDepositCommission",
			"outputs": [],
			"stateMutability": "nonpayable",
			"type": "function"
		},
		{
			"inputs": [
				{
					"internalType": "uint256",
					"name": "id",
					"type": "uint256"
				},
				{
					"internalType": "bool",
					"name": "reject",
					"type": "bool"
				}
			],
			"name": "signDealEditExpiration",
			"outputs": [
				{
					"internalType": "bool",
					"name": "",
					"type": "bool"
				}
			],
			"stateMutability": "nonpayable",
			"type": "function"
		},
		{
			"inputs": [
				{
					"internalType": "uint256",
					"name": "requestId",
					"type": "uint256"
				},
				{
					"internalType": "bool",
					"name": "reject",
					"type": "bool"
				}
			],
			"name": "signEditDealMediatorRequest",
			"outputs": [
				{
					"internalType": "bool",
					"name": "",
					"type": "bool"
				}
			],
			"stateMutability": "nonpayable",
			"type": "function"
		},
		{
			"inputs": [],
			"name": "totalCompletedDeals",
			"outputs": [
				{
					"internalType": "uint256",
					"name": "",
					"type": "uint256"
				}
			],
			"stateMutability": "view",
			"type": "function"
		},
		{
			"inputs": [],
			"name": "totalDeals",
			"outputs": [
				{
					"internalType": "uint256",
					"name": "",
					"type": "uint256"
				}
			],
			"stateMutability": "view",
			"type": "function"
		},
		{
			"inputs": [],
			"name": "totalEditDealMediatorRequests",
			"outputs": [
				{
					"internalType": "uint256",
					"name": "",
					"type": "uint256"
				}
			],
			"stateMutability": "view",
			"type": "function"
		},
		{
			"inputs": [],
			"name": "totalEditExpirationRequests",
			"outputs": [
				{
					"internalType": "uint256",
					"name": "",
					"type": "uint256"
				}
			],
			"stateMutability": "view",
			"type": "function"
		},
		{
			"inputs": [
				{
					"internalType": "address",
					"name": "to",
					"type": "address"
				},
				{
					"internalType": "address",
					"name": "token",
					"type": "address"
				},
				{
					"internalType": "uint256",
					"name": "amount",
					"type": "uint256"
				}
			],
			"name": "transfer",
			"outputs": [
				{
					"internalType": "bool",
					"name": "",
					"type": "bool"
				}
			],
			"stateMutability": "nonpayable",
			"type": "function"
		},
		{
			"inputs": [
				{
					"internalType": "address",
					"name": "newOwner",
					"type": "address"
				}
			],
			"name": "transferOwnership",
			"outputs": [],
			"stateMutability": "nonpayable",
			"type": "function"
		},
		{
			"inputs": [
				{
					"internalType": "bytes32",
					"name": "dealId",
					"type": "bytes32"
				},
				{
					"internalType": "uint256",
					"name": "amount",
					"type": "uint256"
				},
				{
					"internalType": "bool",
					"name": "local",
					"type": "bool"
				}
			],
			"name": "transferToCounterparty",
			"outputs": [
				{
					"internalType": "bool",
					"name": "",
					"type": "bool"
				}
			],
			"stateMutability": "nonpayable",
			"type": "function"
		},
		{
			"inputs": [
				{
					"internalType": "bytes32",
					"name": "dealId",
					"type": "bytes32"
				},
				{
					"internalType": "uint256",
					"name": "amount",
					"type": "uint256"
				},
				{
					"internalType": "bool",
					"name": "local",
					"type": "bool"
				}
			],
			"name": "transferToInitiator",
			"outputs": [
				{
					"internalType": "bool",
					"name": "",
					"type": "bool"
				}
			],
			"stateMutability": "nonpayable",
			"type": "function"
		},
		{
			"inputs": [
				{
					"internalType": "address",
					"name": "token",
					"type": "address"
				},
				{
					"internalType": "uint256",
					"name": "amount",
					"type": "uint256"
				}
			],
			"name": "withdraw",
			"outputs": [
				{
					"internalType": "bool",
					"name": "",
					"type": "bool"
				}
			],
			"stateMutability": "nonpayable",
			"type": "function"
		},
		{
			"inputs": [
				{
					"internalType": "bytes32",
					"name": "dealId",
					"type": "bytes32"
				}
			],
			"name": "withdrawRejectSidedDeal",
			"outputs": [
				{
					"internalType": "bool",
					"name": "",
					"type": "bool"
				}
			],
			"stateMutability": "nonpayable",
			"type": "function"
		}
	]
}