{
	"data": {
		"bytecode": {
			"linkReferences": {},
			"object": "6080806040523460195761083b908161001e823930815050f35b5f80fdfe60806040526004361015610011575f80fd5b5f3560e01c80634a550ce0146105305780634db5aafa1461051b57806376563a4114610501578063797d4ee1146103aa5763d64d155014610050575f80fd5b6101403660031901126103a6576004356001600160a01b038116908190036103a6576024356001600160a01b038116908190036103a6576064359060a435906044359060c4356001600160a01b03811691608435918390036103a65760e4356001600160a01b038116908190036103a65761010435610124359160068310156103a6575f6101e06040516100e381610605565b8281528260208201528260408201528260608201528260808201528260a08201528260c08201528260e08201528261010082015282610120820152826101408201528261016082015282610180820152826101a0820152826101c0820152015261014e331515610740565b6101598a1515610740565b8115801561039c575b15610371578315610353575b61017a338514156107a3565b6101868a8514156107a3565b6101928a3314156107a3565b6101a36402540be4008611156107d4565b6101b46402540be4008911156107d4565b6101bf8715156107d4565b88159586610335575b604051986101d58a610605565b338a5260208a019b8c5260408a0195865260608a01966002885260808b019b89158d5260a08c01998a528a818d60c081019d8e5260e001526101008d01526101208c01526101408b01526101608a01526101808901526101a08801526101c08701526101e086015260405196600160a01b600190038651168852600160a01b600190039051166020880152600160a01b60019003905116604087015251936003851015610321576101e0946060870152511515608086015251151560a08501525160c084015260e081015160e084015261010081015161010084015261012081015161012084015261014081015161014084015261016081015161016084015260018060a01b036101808201511661018084015260018060a01b036101a0820151166101a08401526101c08101516101c0840152015190600682101561032157610200916101e0820152f35b634e487b7160e01b5f52602160045260245ffd5b81158061034b575b61034690610771565b6101c8565b50881561033d565b841580610369575b61036490610771565b61016e565b50871561035b565b606460405162461bcd60e51b815260206004820152600460248201526344312e3160e01b6044820152fd5b5042821115610162565b5f80fd5b6102203660031901126103a6576103c036610622565b805160208201519160408101519060c081015160e08201516101008301516101208401516101408501519061016086015192610180870151946101a0880151966101e06101c08a01519901519960068b10156103215760349c6040519d8e91602083019e8f906001600160601b03199060601b1690526001600160601b03199060601b169101526001600160601b03199060601b1660488d0152605c8c0152607c8b0152609c8a015260bc89015260dc88015260fc8701526001600160601b03199060601b1661011c8601526001600160601b03199060601b1661013085015261014484015260f81b610164830152426101658301526102043561018583015261018582526101c082019180831067ffffffffffffffff8411176104ed5760408390525190208152602090f35b634e487b7160e01b5f52604160045260245ffd5b5f3660031901126103a65760206040516402540be4008152f35b5f3660031901126103a65760206040515f8152f35b6102003660031901126103a65761054636610622565b6101c081015180159081156105fb575b50156105d15760a0810151156105a757606001516003811015610321576001190161057d57005b60405162461bcd60e51b8152602060048201526002602482015261443360f01b6044820152606490fd5b60405162461bcd60e51b8152602060048201526002602482015261221960f11b6044820152606490fd5b60405162461bcd60e51b8152602060048201526002602482015261443160f01b6044820152606490fd5b9050421182610556565b610200810190811067ffffffffffffffff8211176104ed57604052565b6102009060031901126103a6576040519061063c82610605565b816004356001600160a01b03811681036103a65781526024356001600160a01b03811681036103a65760208201526044356001600160a01b03811681036103a657604082015260643560038110156103a657606082015260843580151581036103a657608082015260a43580151581036103a65760a082015260c43560c082015260e43560e082015261010435610100820152610124356101208201526101443561014082015261016435610160820152610184356001600160a01b03811681036103a6576101808201526101a4356001600160a01b03811681036103a6576101a08201526101c4356101c08201526101e4359060068210156103a6576101e00152565b1561074757565b60405162461bcd60e51b8152602060048201526002602482015261433160f01b6044820152606490fd5b1561077857565b606460405162461bcd60e51b815260206004820152600460248201526343312e3160e01b6044820152fd5b156107aa57565b60405162461bcd60e51b8152602060048201526002602482015261433360f01b6044820152606490fd5b156107db57565b60405162461bcd60e51b8152602060048201526002602482015261433560f01b6044820152606490fdfea264697066735822122017e6fc4079b994bd11efce39d215a14fe050ae6c8d020e4f56cce55cf55867a064736f6c634300081a0033",
			"opcodes": "PUSH1 0x80 DUP1 PUSH1 0x40 MSTORE CALLVALUE PUSH1 0x19 JUMPI PUSH2 0x83B SWAP1 DUP2 PUSH2 0x1E DUP3 CODECOPY ADDRESS DUP2 POP POP RETURN JUMPDEST PUSH0 DUP1 REVERT INVALID PUSH1 0x80 PUSH1 0x40 MSTORE PUSH1 0x4 CALLDATASIZE LT ISZERO PUSH2 0x11 JUMPI PUSH0 DUP1 REVERT JUMPDEST PUSH0 CALLDATALOAD PUSH1 0xE0 SHR DUP1 PUSH4 0x4A550CE0 EQ PUSH2 0x530 JUMPI DUP1 PUSH4 0x4DB5AAFA EQ PUSH2 0x51B JUMPI DUP1 PUSH4 0x76563A41 EQ PUSH2 0x501 JUMPI DUP1 PUSH4 0x797D4EE1 EQ PUSH2 0x3AA JUMPI PUSH4 0xD64D1550 EQ PUSH2 0x50 JUMPI PUSH0 DUP1 REVERT JUMPDEST PUSH2 0x140 CALLDATASIZE PUSH1 0x3 NOT ADD SLT PUSH2 0x3A6 JUMPI PUSH1 0x4 CALLDATALOAD PUSH1 0x1 PUSH1 0x1 PUSH1 0xA0 SHL SUB DUP2 AND SWAP1 DUP2 SWAP1 SUB PUSH2 0x3A6 JUMPI PUSH1 0x24 CALLDATALOAD PUSH1 0x1 PUSH1 0x1 PUSH1 0xA0 SHL SUB DUP2 AND SWAP1 DUP2 SWAP1 SUB PUSH2 0x3A6 JUMPI PUSH1 0x64 CALLDATALOAD SWAP1 PUSH1 0xA4 CALLDATALOAD SWAP1 PUSH1 0x44 CALLDATALOAD SWAP1 PUSH1 0xC4 CALLDATALOAD PUSH1 0x1 PUSH1 0x1 PUSH1 0xA0 SHL SUB DUP2 AND SWAP2 PUSH1 0x84 CALLDATALOAD SWAP2 DUP4 SWAP1 SUB PUSH2 0x3A6 JUMPI PUSH1 0xE4 CALLDATALOAD PUSH1 0x1 PUSH1 0x1 PUSH1 0xA0 SHL SUB DUP2 AND SWAP1 DUP2 SWAP1 SUB PUSH2 0x3A6 JUMPI PUSH2 0x104 CALLDATALOAD PUSH2 0x124 CALLDATALOAD SWAP2 PUSH1 0x6 DUP4 LT ISZERO PUSH2 0x3A6 JUMPI PUSH0 PUSH2 0x1E0 PUSH1 0x40 MLOAD PUSH2 0xE3 DUP2 PUSH2 0x605 JUMP JUMPDEST DUP3 DUP2 MSTORE DUP3 PUSH1 0x20 DUP3 ADD MSTORE DUP3 PUSH1 0x40 DUP3 ADD MSTORE DUP3 PUSH1 0x60 DUP3 ADD MSTORE DUP3 PUSH1 0x80 DUP3 ADD MSTORE DUP3 PUSH1 0xA0 DUP3 ADD MSTORE DUP3 PUSH1 0xC0 DUP3 ADD MSTORE DUP3 PUSH1 0xE0 DUP3 ADD MSTORE DUP3 PUSH2 0x100 DUP3 ADD MSTORE DUP3 PUSH2 0x120 DUP3 ADD MSTORE DUP3 PUSH2 0x140 DUP3 ADD MSTORE DUP3 PUSH2 0x160 DUP3 ADD MSTORE DUP3 PUSH2 0x180 DUP3 ADD MSTORE DUP3 PUSH2 0x1A0 DUP3 ADD MSTORE DUP3 PUSH2 0x1C0 DUP3 ADD MSTORE ADD MSTORE PUSH2 0x14E CALLER ISZERO ISZERO PUSH2 0x740 JUMP JUMPDEST PUSH2 0x159 DUP11 ISZERO ISZERO PUSH2 0x740 JUMP JUMPDEST DUP2 ISZERO DUP1 ISZERO PUSH2 0x39C JUMPI JUMPDEST ISZERO PUSH2 0x371 JUMPI DUP4 ISZERO PUSH2 0x353 JUMPI JUMPDEST PUSH2 0x17A CALLER DUP6 EQ ISZERO PUSH2 0x7A3 JUMP JUMPDEST PUSH2 0x186 DUP11 DUP6 EQ ISZERO PUSH2 0x7A3 JUMP JUMPDEST PUSH2 0x192 DUP11 CALLER EQ ISZERO PUSH2 0x7A3 JUMP JUMPDEST PUSH2 0x1A3 PUSH5 0x2540BE400 DUP7 GT ISZERO PUSH2 0x7D4 JUMP JUMPDEST PUSH2 0x1B4 PUSH5 0x2540BE400 DUP10 GT ISZERO PUSH2 0x7D4 JUMP JUMPDEST PUSH2 0x1BF DUP8 ISZERO ISZERO PUSH2 0x7D4 JUMP JUMPDEST DUP9 ISZERO SWAP6 DUP7 PUSH2 0x335 JUMPI JUMPDEST PUSH1 0x40 MLOAD SWAP9 PUSH2 0x1D5 DUP11 PUSH2 0x605 JUMP JUMPDEST CALLER DUP11 MSTORE PUSH1 0x20 DUP11 ADD SWAP12 DUP13 MSTORE PUSH1 0x40 DUP11 ADD SWAP6 DUP7 MSTORE PUSH1 0x60 DUP11 ADD SWAP7 PUSH1 0x2 DUP9 MSTORE PUSH1 0x80 DUP12 ADD SWAP12 DUP10 ISZERO DUP14 MSTORE PUSH1 0xA0 DUP13 ADD SWAP10 DUP11 MSTORE DUP11 DUP2 DUP14 PUSH1 0xC0 DUP2 ADD SWAP14 DUP15 MSTORE PUSH1 0xE0 ADD MSTORE PUSH2 0x100 DUP14 ADD MSTORE PUSH2 0x120 DUP13 ADD MSTORE PUSH2 0x140 DUP12 ADD MSTORE PUSH2 0x160 DUP11 ADD MSTORE PUSH2 0x180 DUP10 ADD MSTORE PUSH2 0x1A0 DUP9 ADD MSTORE PUSH2 0x1C0 DUP8 ADD MSTORE PUSH2 0x1E0 DUP7 ADD MSTORE PUSH1 0x40 MLOAD SWAP7 PUSH1 0x1 PUSH1 0xA0 SHL PUSH1 0x1 SWAP1 SUB DUP7 MLOAD AND DUP9 MSTORE PUSH1 0x1 PUSH1 0xA0 SHL PUSH1 0x1 SWAP1 SUB SWAP1 MLOAD AND PUSH1 0x20 DUP9 ADD MSTORE PUSH1 0x1 PUSH1 0xA0 SHL PUSH1 0x1 SWAP1 SUB SWAP1 MLOAD AND PUSH1 0x40 DUP8 ADD MSTORE MLOAD SWAP4 PUSH1 0x3 DUP6 LT ISZERO PUSH2 0x321 JUMPI PUSH2 0x1E0 SWAP5 PUSH1 0x60 DUP8 ADD MSTORE MLOAD ISZERO ISZERO PUSH1 0x80 DUP7 ADD MSTORE MLOAD ISZERO ISZERO PUSH1 0xA0 DUP6 ADD MSTORE MLOAD PUSH1 0xC0 DUP5 ADD MSTORE PUSH1 0xE0 DUP2 ADD MLOAD PUSH1 0xE0 DUP5 ADD MSTORE PUSH2 0x100 DUP2 ADD MLOAD PUSH2 0x100 DUP5 ADD MSTORE PUSH2 0x120 DUP2 ADD MLOAD PUSH2 0x120 DUP5 ADD MSTORE PUSH2 0x140 DUP2 ADD MLOAD PUSH2 0x140 DUP5 ADD MSTORE PUSH2 0x160 DUP2 ADD MLOAD PUSH2 0x160 DUP5 ADD MSTORE PUSH1 0x1 DUP1 PUSH1 0xA0 SHL SUB PUSH2 0x180 DUP3 ADD MLOAD AND PUSH2 0x180 DUP5 ADD MSTORE PUSH1 0x1 DUP1 PUSH1 0xA0 SHL SUB PUSH2 0x1A0 DUP3 ADD MLOAD AND PUSH2 0x1A0 DUP5 ADD MSTORE PUSH2 0x1C0 DUP2 ADD MLOAD PUSH2 0x1C0 DUP5 ADD MSTORE ADD MLOAD SWAP1 PUSH1 0x6 DUP3 LT ISZERO PUSH2 0x321 JUMPI PUSH2 0x200 SWAP2 PUSH2 0x1E0 DUP3 ADD MSTORE RETURN JUMPDEST PUSH4 0x4E487B71 PUSH1 0xE0 SHL PUSH0 MSTORE PUSH1 0x21 PUSH1 0x4 MSTORE PUSH1 0x24 PUSH0 REVERT JUMPDEST DUP2 ISZERO DUP1 PUSH2 0x34B JUMPI JUMPDEST PUSH2 0x346 SWAP1 PUSH2 0x771 JUMP JUMPDEST PUSH2 0x1C8 JUMP JUMPDEST POP DUP9 ISZERO PUSH2 0x33D JUMP JUMPDEST DUP5 ISZERO DUP1 PUSH2 0x369 JUMPI JUMPDEST PUSH2 0x364 SWAP1 PUSH2 0x771 JUMP JUMPDEST PUSH2 0x16E JUMP JUMPDEST POP DUP8 ISZERO PUSH2 0x35B JUMP JUMPDEST PUSH1 0x64 PUSH1 0x40 MLOAD PUSH3 0x461BCD PUSH1 0xE5 SHL DUP2 MSTORE PUSH1 0x20 PUSH1 0x4 DUP3 ADD MSTORE PUSH1 0x4 PUSH1 0x24 DUP3 ADD MSTORE PUSH4 0x44312E31 PUSH1 0xE0 SHL PUSH1 0x44 DUP3 ADD MSTORE REVERT JUMPDEST POP TIMESTAMP DUP3 GT ISZERO PUSH2 0x162 JUMP JUMPDEST PUSH0 DUP1 REVERT JUMPDEST PUSH2 0x220 CALLDATASIZE PUSH1 0x3 NOT ADD SLT PUSH2 0x3A6 JUMPI PUSH2 0x3C0 CALLDATASIZE PUSH2 0x622 JUMP JUMPDEST DUP1 MLOAD PUSH1 0x20 DUP3 ADD MLOAD SWAP2 PUSH1 0x40 DUP2 ADD MLOAD SWAP1 PUSH1 0xC0 DUP2 ADD MLOAD PUSH1 0xE0 DUP3 ADD MLOAD PUSH2 0x100 DUP4 ADD MLOAD PUSH2 0x120 DUP5 ADD MLOAD PUSH2 0x140 DUP6 ADD MLOAD SWAP1 PUSH2 0x160 DUP7 ADD MLOAD SWAP3 PUSH2 0x180 DUP8 ADD MLOAD SWAP5 PUSH2 0x1A0 DUP9 ADD MLOAD SWAP7 PUSH2 0x1E0 PUSH2 0x1C0 DUP11 ADD MLOAD SWAP10 ADD MLOAD SWAP10 PUSH1 0x6 DUP12 LT ISZERO PUSH2 0x321 JUMPI PUSH1 0x34 SWAP13 PUSH1 0x40 MLOAD SWAP14 DUP15 SWAP2 PUSH1 0x20 DUP4 ADD SWAP15 DUP16 SWAP1 PUSH1 0x1 PUSH1 0x1 PUSH1 0x60 SHL SUB NOT SWAP1 PUSH1 0x60 SHL AND SWAP1 MSTORE PUSH1 0x1 PUSH1 0x1 PUSH1 0x60 SHL SUB NOT SWAP1 PUSH1 0x60 SHL AND SWAP2 ADD MSTORE PUSH1 0x1 PUSH1 0x1 PUSH1 0x60 SHL SUB NOT SWAP1 PUSH1 0x60 SHL AND PUSH1 0x48 DUP14 ADD MSTORE PUSH1 0x5C DUP13 ADD MSTORE PUSH1 0x7C DUP12 ADD MSTORE PUSH1 0x9C DUP11 ADD MSTORE PUSH1 0xBC DUP10 ADD MSTORE PUSH1 0xDC DUP9 ADD MSTORE PUSH1 0xFC DUP8 ADD MSTORE PUSH1 0x1 PUSH1 0x1 PUSH1 0x60 SHL SUB NOT SWAP1 PUSH1 0x60 SHL AND PUSH2 0x11C DUP7 ADD MSTORE PUSH1 0x1 PUSH1 0x1 PUSH1 0x60 SHL SUB NOT SWAP1 PUSH1 0x60 SHL AND PUSH2 0x130 DUP6 ADD MSTORE PUSH2 0x144 DUP5 ADD MSTORE PUSH1 0xF8 SHL PUSH2 0x164 DUP4 ADD MSTORE TIMESTAMP PUSH2 0x165 DUP4 ADD MSTORE PUSH2 0x204 CALLDATALOAD PUSH2 0x185 DUP4 ADD MSTORE PUSH2 0x185 DUP3 MSTORE PUSH2 0x1C0 DUP3 ADD SWAP2 DUP1 DUP4 LT PUSH8 0xFFFFFFFFFFFFFFFF DUP5 GT OR PUSH2 0x4ED JUMPI PUSH1 0x40 DUP4 SWAP1 MSTORE MLOAD SWAP1 KECCAK256 DUP2 MSTORE PUSH1 0x20 SWAP1 RETURN JUMPDEST PUSH4 0x4E487B71 PUSH1 0xE0 SHL PUSH0 MSTORE PUSH1 0x41 PUSH1 0x4 MSTORE PUSH1 0x24 PUSH0 REVERT JUMPDEST PUSH0 CALLDATASIZE PUSH1 0x3 NOT ADD SLT PUSH2 0x3A6 JUMPI PUSH1 0x20 PUSH1 0x40 MLOAD PUSH5 0x2540BE400 DUP2 MSTORE RETURN JUMPDEST PUSH0 CALLDATASIZE PUSH1 0x3 NOT ADD SLT PUSH2 0x3A6 JUMPI PUSH1 0x20 PUSH1 0x40 MLOAD PUSH0 DUP2 MSTORE RETURN JUMPDEST PUSH2 0x200 CALLDATASIZE PUSH1 0x3 NOT ADD SLT PUSH2 0x3A6 JUMPI PUSH2 0x546 CALLDATASIZE PUSH2 0x622 JUMP JUMPDEST PUSH2 0x1C0 DUP2 ADD MLOAD DUP1 ISZERO SWAP1 DUP2 ISZERO PUSH2 0x5FB JUMPI JUMPDEST POP ISZERO PUSH2 0x5D1 JUMPI PUSH1 0xA0 DUP2 ADD MLOAD ISZERO PUSH2 0x5A7 JUMPI PUSH1 0x60 ADD MLOAD PUSH1 0x3 DUP2 LT ISZERO PUSH2 0x321 JUMPI PUSH1 0x1 NOT ADD PUSH2 0x57D JUMPI STOP JUMPDEST PUSH1 0x40 MLOAD PUSH3 0x461BCD PUSH1 0xE5 SHL DUP2 MSTORE PUSH1 0x20 PUSH1 0x4 DUP3 ADD MSTORE PUSH1 0x2 PUSH1 0x24 DUP3 ADD MSTORE PUSH2 0x4433 PUSH1 0xF0 SHL PUSH1 0x44 DUP3 ADD MSTORE PUSH1 0x64 SWAP1 REVERT JUMPDEST PUSH1 0x40 MLOAD PUSH3 0x461BCD PUSH1 0xE5 SHL DUP2 MSTORE PUSH1 0x20 PUSH1 0x4 DUP3 ADD MSTORE PUSH1 0x2 PUSH1 0x24 DUP3 ADD MSTORE PUSH2 0x2219 PUSH1 0xF1 SHL PUSH1 0x44 DUP3 ADD MSTORE PUSH1 0x64 SWAP1 REVERT JUMPDEST PUSH1 0x40 MLOAD PUSH3 0x461BCD PUSH1 0xE5 SHL DUP2 MSTORE PUSH1 0x20 PUSH1 0x4 DUP3 ADD MSTORE PUSH1 0x2 PUSH1 0x24 DUP3 ADD MSTORE PUSH2 0x4431 PUSH1 0xF0 SHL PUSH1 0x44 DUP3 ADD MSTORE PUSH1 0x64 SWAP1 REVERT JUMPDEST SWAP1 POP TIMESTAMP GT DUP3 PUSH2 0x556 JUMP JUMPDEST PUSH2 0x200 DUP2 ADD SWAP1 DUP2 LT PUSH8 0xFFFFFFFFFFFFFFFF DUP3 GT OR PUSH2 0x4ED JUMPI PUSH1 0x40 MSTORE JUMP JUMPDEST PUSH2 0x200 SWAP1 PUSH1 0x3 NOT ADD SLT PUSH2 0x3A6 JUMPI PUSH1 0x40 MLOAD SWAP1 PUSH2 0x63C DUP3 PUSH2 0x605 JUMP JUMPDEST DUP2 PUSH1 0x4 CALLDATALOAD PUSH1 0x1 PUSH1 0x1 PUSH1 0xA0 SHL SUB DUP2 AND DUP2 SUB PUSH2 0x3A6 JUMPI DUP2 MSTORE PUSH1 0x24 CALLDATALOAD PUSH1 0x1 PUSH1 0x1 PUSH1 0xA0 SHL SUB DUP2 AND DUP2 SUB PUSH2 0x3A6 JUMPI PUSH1 0x20 DUP3 ADD MSTORE PUSH1 0x44 CALLDATALOAD PUSH1 0x1 PUSH1 0x1 PUSH1 0xA0 SHL SUB DUP2 AND DUP2 SUB PUSH2 0x3A6 JUMPI PUSH1 0x40 DUP3 ADD MSTORE PUSH1 0x64 CALLDATALOAD PUSH1 0x3 DUP2 LT ISZERO PUSH2 0x3A6 JUMPI PUSH1 0x60 DUP3 ADD MSTORE PUSH1 0x84 CALLDATALOAD DUP1 ISZERO ISZERO DUP2 SUB PUSH2 0x3A6 JUMPI PUSH1 0x80 DUP3 ADD MSTORE PUSH1 0xA4 CALLDATALOAD DUP1 ISZERO ISZERO DUP2 SUB PUSH2 0x3A6 JUMPI PUSH1 0xA0 DUP3 ADD MSTORE PUSH1 0xC4 CALLDATALOAD PUSH1 0xC0 DUP3 ADD MSTORE PUSH1 0xE4 CALLDATALOAD PUSH1 0xE0 DUP3 ADD MSTORE PUSH2 0x104 CALLDATALOAD PUSH2 0x100 DUP3 ADD MSTORE PUSH2 0x124 CALLDATALOAD PUSH2 0x120 DUP3 ADD MSTORE PUSH2 0x144 CALLDATALOAD PUSH2 0x140 DUP3 ADD MSTORE PUSH2 0x164 CALLDATALOAD PUSH2 0x160 DUP3 ADD MSTORE PUSH2 0x184 CALLDATALOAD PUSH1 0x1 PUSH1 0x1 PUSH1 0xA0 SHL SUB DUP2 AND DUP2 SUB PUSH2 0x3A6 JUMPI PUSH2 0x180 DUP3 ADD MSTORE PUSH2 0x1A4 CALLDATALOAD PUSH1 0x1 PUSH1 0x1 PUSH1 0xA0 SHL SUB DUP2 AND DUP2 SUB PUSH2 0x3A6 JUMPI PUSH2 0x1A0 DUP3 ADD MSTORE PUSH2 0x1C4 CALLDATALOAD PUSH2 0x1C0 DUP3 ADD MSTORE PUSH2 0x1E4 CALLDATALOAD SWAP1 PUSH1 0x6 DUP3 LT ISZERO PUSH2 0x3A6 JUMPI PUSH2 0x1E0 ADD MSTORE JUMP JUMPDEST ISZERO PUSH2 0x747 JUMPI JUMP JUMPDEST PUSH1 0x40 MLOAD PUSH3 0x461BCD PUSH1 0xE5 SHL DUP2 MSTORE PUSH1 0x20 PUSH1 0x4 DUP3 ADD MSTORE PUSH1 0x2 PUSH1 0x24 DUP3 ADD MSTORE PUSH2 0x4331 PUSH1 0xF0 SHL PUSH1 0x44 DUP3 ADD MSTORE PUSH1 0x64 SWAP1 REVERT JUMPDEST ISZERO PUSH2 0x778 JUMPI JUMP JUMPDEST PUSH1 0x64 PUSH1 0x40 MLOAD PUSH3 0x461BCD PUSH1 0xE5 SHL DUP2 MSTORE PUSH1 0x20 PUSH1 0x4 DUP3 ADD MSTORE PUSH1 0x4 PUSH1 0x24 DUP3 ADD MSTORE PUSH4 0x43312E31 PUSH1 0xE0 SHL PUSH1 0x44 DUP3 ADD MSTORE REVERT JUMPDEST ISZERO PUSH2 0x7AA JUMPI JUMP JUMPDEST PUSH1 0x40 MLOAD PUSH3 0x461BCD PUSH1 0xE5 SHL DUP2 MSTORE PUSH1 0x20 PUSH1 0x4 DUP3 ADD MSTORE PUSH1 0x2 PUSH1 0x24 DUP3 ADD MSTORE PUSH2 0x4333 PUSH1 0xF0 SHL PUSH1 0x44 DUP3 ADD MSTORE PUSH1 0x64 SWAP1 REVERT JUMPDEST ISZERO PUSH2 0x7DB JUMPI JUMP JUMPDEST PUSH1 0x40 MLOAD PUSH3 0x461BCD PUSH1 0xE5 SHL DUP2 MSTORE PUSH1 0x20 PUSH1 0x4 DUP3 ADD MSTORE PUSH1 0x2 PUSH1 0x24 DUP3 ADD MSTORE PUSH2 0x4335 PUSH1 0xF0 SHL PUSH1 0x44 DUP3 ADD MSTORE PUSH1 0x64 SWAP1 REVERT INVALID LOG2 PUSH5 0x6970667358 0x22 SLT KECCAK256 OR 0xE6 0xFC BLOCKHASH PUSH26 0xB994BD11EFCE39D215A14FE050AE6C8D020E4F56CCE55CF55867 LOG0 PUSH5 0x736F6C6343 STOP ADDMOD BYTE STOP CALLER "
		},
		"gasEstimates": {
			"creation": {
				"codeDepositCost": "421400",
				"executionCost": "infinite",
				"totalCost": "infinite"
			},
			"external": {
				"MaxProcent()": "174",
				"NOEXPIRATIONDATE()": "151",
				"createDeal(address,address,uint256,uint256,uint256,uint256,address,address,uint256,MediatorAction)": "infinite",
				"createDealId(Deal,uint256)": "1767",
				"requireCanEdit(Deal)": "1151"
			}
		},
		"methodIdentifiers": {
			"MaxProcent()": "76563a41",
			"NOEXPIRATIONDATE()": "4db5aafa",
			"createDeal(address,address,uint256,uint256,uint256,uint256,address,address,uint256,MediatorAction)": "d64d1550",
			"createDealId(Deal,uint256)": "797d4ee1",
			"requireCanEdit(Deal)": "4a550ce0"
		}
	},
	"abi": [
		{
			"inputs": [],
			"name": "MaxProcent",
			"outputs": [
				{
					"internalType": "uint256",
					"name": "",
					"type": "uint256"
				}
			],
			"stateMutability": "view",
			"type": "function"
		},
		{
			"inputs": [],
			"name": "NOEXPIRATIONDATE",
			"outputs": [
				{
					"internalType": "uint256",
					"name": "",
					"type": "uint256"
				}
			],
			"stateMutability": "view",
			"type": "function"
		},
		{
			"inputs": [
				{
					"internalType": "address payable",
					"name": "_counterparty",
					"type": "address"
				},
				{
					"internalType": "address payable",
					"name": "_mediator",
					"type": "address"
				},
				{
					"internalType": "uint256",
					"name": "_initiatorCreateAmount",
					"type": "uint256"
				},
				{
					"internalType": "uint256",
					"name": "_counterpartyCreateAmount",
					"type": "uint256"
				},
				{
					"internalType": "uint256",
					"name": "_PRC_MediatorFeeInititor",
					"type": "uint256"
				},
				{
					"internalType": "uint256",
					"name": "_PRC_MediatorFeeCounterparty",
					"type": "uint256"
				},
				{
					"internalType": "address",
					"name": "_initiatorTokenAddress",
					"type": "address"
				},
				{
					"internalType": "address",
					"name": "_counterpartyTokenAddress",
					"type": "address"
				},
				{
					"internalType": "uint256",
					"name": "_expirationDate",
					"type": "uint256"
				},
				{
					"internalType": "enum MediatorAction",
					"name": "_mediatorActionOnExpiration",
					"type": "MediatorAction"
				}
			],
			"name": "createDeal",
			"outputs": [
				{
					"components": [
						{
							"internalType": "address payable",
							"name": "initiator",
							"type": "address"
						},
						{
							"internalType": "address payable",
							"name": "counterparty",
							"type": "address"
						},
						{
							"internalType": "address payable",
							"name": "mediator",
							"type": "address"
						},
						{
							"internalType": "enum DealStatus",
							"name": "status",
							"type": "DealStatus"
						},
						{
							"internalType": "bool",
							"name": "isTwoSided",
							"type": "bool"
						},
						{
							"internalType": "bool",
							"name": "isSignedByCounterparty",
							"type": "bool"
						},
						{
							"internalType": "uint256",
							"name": "initiatorCreateAmount",
							"type": "uint256"
						},
						{
							"internalType": "uint256",
							"name": "counterpartyCreateAmount",
							"type": "uint256"
						},
						{
							"internalType": "uint256",
							"name": "initiatorCurrentAmount",
							"type": "uint256"
						},
						{
							"internalType": "uint256",
							"name": "counterpartyCurrentAmount",
							"type": "uint256"
						},
						{
							"internalType": "uint256",
							"name": "PRC_InitiatorMediatorFee",
							"type": "uint256"
						},
						{
							"internalType": "uint256",
							"name": "PRC_CounterpartyMediatorFee",
							"type": "uint256"
						},
						{
							"internalType": "address",
							"name": "initiatorTokenAddress",
							"type": "address"
						},
						{
							"internalType": "address",
							"name": "counterpartyTokenAddress",
							"type": "address"
						},
						{
							"internalType": "uint256",
							"name": "expirationDate",
							"type": "uint256"
						},
						{
							"internalType": "enum MediatorAction",
							"name": "mediatorActionOnExpiration",
							"type": "MediatorAction"
						}
					],
					"internalType": "struct Deal",
					"name": "",
					"type": "tuple"
				}
			],
			"stateMutability": "view",
			"type": "function"
		},
		{
			"inputs": [
				{
					"components": [
						{
							"internalType": "address payable",
							"name": "initiator",
							"type": "address"
						},
						{
							"internalType": "address payable",
							"name": "counterparty",
							"type": "address"
						},
						{
							"internalType": "address payable",
							"name": "mediator",
							"type": "address"
						},
						{
							"internalType": "enum DealStatus",
							"name": "status",
							"type": "DealStatus"
						},
						{
							"internalType": "bool",
							"name": "isTwoSided",
							"type": "bool"
						},
						{
							"internalType": "bool",
							"name": "isSignedByCounterparty",
							"type": "bool"
						},
						{
							"internalType": "uint256",
							"name": "initiatorCreateAmount",
							"type": "uint256"
						},
						{
							"internalType": "uint256",
							"name": "counterpartyCreateAmount",
							"type": "uint256"
						},
						{
							"internalType": "uint256",
							"name": "initiatorCurrentAmount",
							"type": "uint256"
						},
						{
							"internalType": "uint256",
							"name": "counterpartyCurrentAmount",
							"type": "uint256"
						},
						{
							"internalType": "uint256",
							"name": "PRC_InitiatorMediatorFee",
							"type": "uint256"
						},
						{
							"internalType": "uint256",
							"name": "PRC_CounterpartyMediatorFee",
							"type": "uint256"
						},
						{
							"internalType": "address",
							"name": "initiatorTokenAddress",
							"type": "address"
						},
						{
							"internalType": "address",
							"name": "counterpartyTokenAddress",
							"type": "address"
						},
						{
							"internalType": "uint256",
							"name": "expirationDate",
							"type": "uint256"
						},
						{
							"internalType": "enum MediatorAction",
							"name": "mediatorActionOnExpiration",
							"type": "MediatorAction"
						}
					],
					"internalType": "struct Deal",
					"name": "deal",
					"type": "tuple"
				},
				{
					"internalType": "uint256",
					"name": "totalCreated",
					"type": "uint256"
				}
			],
			"name": "createDealId",
			"outputs": [
				{
					"internalType": "bytes32",
					"name": "",
					"type": "bytes32"
				}
			],
			"stateMutability": "view",
			"type": "function"
		},
		{
			"inputs": [
				{
					"components": [
						{
							"internalType": "address payable",
							"name": "initiator",
							"type": "address"
						},
						{
							"internalType": "address payable",
							"name": "counterparty",
							"type": "address"
						},
						{
							"internalType": "address payable",
							"name": "mediator",
							"type": "address"
						},
						{
							"internalType": "enum DealStatus",
							"name": "status",
							"type": "DealStatus"
						},
						{
							"internalType": "bool",
							"name": "isTwoSided",
							"type": "bool"
						},
						{
							"internalType": "bool",
							"name": "isSignedByCounterparty",
							"type": "bool"
						},
						{
							"internalType": "uint256",
							"name": "initiatorCreateAmount",
							"type": "uint256"
						},
						{
							"internalType": "uint256",
							"name": "counterpartyCreateAmount",
							"type": "uint256"
						},
						{
							"internalType": "uint256",
							"name": "initiatorCurrentAmount",
							"type": "uint256"
						},
						{
							"internalType": "uint256",
							"name": "counterpartyCurrentAmount",
							"type": "uint256"
						},
						{
							"internalType": "uint256",
							"name": "PRC_InitiatorMediatorFee",
							"type": "uint256"
						},
						{
							"internalType": "uint256",
							"name": "PRC_CounterpartyMediatorFee",
							"type": "uint256"
						},
						{
							"internalType": "address",
							"name": "initiatorTokenAddress",
							"type": "address"
						},
						{
							"internalType": "address",
							"name": "counterpartyTokenAddress",
							"type": "address"
						},
						{
							"internalType": "uint256",
							"name": "expirationDate",
							"type": "uint256"
						},
						{
							"internalType": "enum MediatorAction",
							"name": "mediatorActionOnExpiration",
							"type": "MediatorAction"
						}
					],
					"internalType": "struct Deal",
					"name": "deal",
					"type": "tuple"
				}
			],
			"name": "requireCanEdit",
			"outputs": [],
			"stateMutability": "view",
			"type": "function"
		}
	]
}