{
	"data": {
		"bytecode": {
			"linkReferences": {
				"Deal.sol": {
					"DealContract": [
						{
							"length": 20,
							"start": 958
						},
						{
							"length": 20,
							"start": 2305
						},
						{
							"length": 20,
							"start": 3916
						},
						{
							"length": 20,
							"start": 6100
						},
						{
							"length": 20,
							"start": 8095
						},
						{
							"length": 20,
							"start": 10647
						},
						{
							"length": 20,
							"start": 11971
						},
						{
							"length": 20,
							"start": 13123
						},
						{
							"length": 20,
							"start": 13724
						},
						{
							"length": 20,
							"start": 15431
						},
						{
							"length": 20,
							"start": 15970
						}
					]
				},
				"Percent.sol": {
					"Percent": [
						{
							"length": 20,
							"start": 1109
						},
						{
							"length": 20,
							"start": 3089
						},
						{
							"length": 20,
							"start": 4283
						},
						{
							"length": 20,
							"start": 5568
						},
						{
							"length": 20,
							"start": 6462
						},
						{
							"length": 20,
							"start": 8252
						},
						{
							"length": 20,
							"start": 8862
						},
						{
							"length": 20,
							"start": 10795
						},
						{
							"length": 20,
							"start": 12123
						},
						{
							"length": 20,
							"start": 12385
						},
						{
							"length": 20,
							"start": 13276
						},
						{
							"length": 20,
							"start": 14428
						},
						{
							"length": 20,
							"start": 15580
						}
					]
				}
			},
			"object": "6080346101aa57601f614c0e38819003918201601f19168301916001600160401b038311848410176101ae5780849260409485528339810103126101aa5780516020909101516001600160a01b03811691908290036101aa573315610197575f80546040519133906001600160a01b038316907f8be0079c531659141344cd1fd0a4f28419497f9722a3daafe3b4186f6b6457e09080a36001600160a81b0319163360ff60a01b191617600160a01b175f55821561013d57506402540be40081116100ee5760025560018060a01b031960035416176003555f6005555f600655604051614a4b90816101c38239f35b60405162461bcd60e51b815260206004820152602160248201527f436f6d6d697373696f6e2070657263656e7461676520697320746f6f206869676044820152600d60fb1b6064820152608490fd5b62461bcd60e51b815260206004820152602f60248201527f436f6d6d697373696f6e20726563697069656e742063616e6e6f74206265207460448201526e6865207a65726f206164647265737360881b6064820152608490fd5b631e4fbdf760e01b5f525f60045260245ffd5b5f80fd5b634e487b7160e01b5f52604160045260245ffdfe60806040526004361015610011575f80fd5b5f5f3560e01c80627e8bd314613c0a57806306fd154a14613be2578063114aeacc14613a4857806315f8a3141461390257806317b52b501461388157806328d5a05014613358578063367edd32146132d95780633f3e8212146131445780634187129c1461308b57806341b3a0d91461306657806347e7ef2414612e4a5780635040125b14612cc057806351a6fad514612b1757806351b7d535146127985780635379719b146119b7578063706b14f51461202357806370a0823114611fe0578063715018a614611f865780637165e54214611d9c57806380ccb07014611cc357806381cd872a14611b98578063894ba83314611b20578063899a3ffd14611b025780638da5cb5b14611adb5780638deea5fb146119d5578063966d1f1d146119b7578063b4a99ccb146115e7578063bb06c1a414611232578063beabacc81461117d578063c23f001f1461053c578063c99b896514610d55578063cfadf6c7146106b5578063e08560a414610697578063ed50ab8a14610697578063f2fde38b14610611578063f3fef3a31461058f578063f7888aec1461053c5763faa86b4a146101bb575f80fd5b3461053957602036600319011261053957600435808252600460205260408220600181019060018060a01b0382541633148015610523575b156104c6578373__$69ea93bdf3b1e5da8164bfe3d9a878d765$__803b156104c257816040518092630252a86760e51b82528180610234886004830161444f565b03915af480156104b75761049e575b5050600581015460098201546006830154600a84015460078501546008860154604051631c8f084760e01b81526004810187905260248101929092526001600160a01b0394851697959691959473__$8537b7efa173772577da826929141ce939$__931690602087604481875af4968715610493578b9761045e575b50602090604460405180968193631c8f084760e01b835289600484015260248301525af492831561045357899a99989993610411575b5081548894939291906001600160a01b03168a610312898b6141cf565b9061031c9261481b565b50600282018054909a61033a918991906001600160a01b031661481b565b5085546001600160a01b03168161035186806141cf565b9061035b9261481b565b5089546103729184916001600160a01b031661481b565b5054935497546040516001600160a01b03998a169a958a1699909116968a968a96889388939192909182916103a991338e85614534565b035f5160206149d65f395f51905f5291a46040519182916103cc91338985614534565b035f5160206149765f395f51905f5291a4604080516001600160a01b039290921682523360208301525f5160206149b65f395f51905f5291a460405160018152602090f35b9392509096506020833d60201161044b575b8161043060209383614221565b8101031261044757889687935192939190916102f5565b5f80fd5b3d9150610423565b6040513d8c823e3d90fd5b9096506020813d60201161048b575b8161047a60209383614221565b8101031261044757519560206102bf565b3d915061046d565b6040513d8d823e3d90fd5b816104a891614221565b6104b357835f610243565b8380fd5b6040513d84823e3d90fd5b5080fd5b60405162461bcd60e51b815260206004820152602f60248201527f4f6e6c79206120636f756e7465727061727479206f72206d65646961746f722060448201526e18d85b8818d85b98d95b081919585b608a1b6064820152608490fd5b5060028101546001600160a01b031633146101f3565b80fd5b5034610539576040366003190112610539576040610558613f33565b91610561613f1d565b9260018060a01b031681526001602052209060018060a01b03165f52602052602060405f2054604051908152f35b5034610539576040366003190112610539576106076020916105af613f33565b6040602435923381526001865281812060018060a01b0384165f5286526105db84835f2054101561418c565b338152600186522060018060a01b0382165f52845260405f206105ff8382546141cf565b90553361481b565b6040519015158152f35b50346105395760203660031901126105395761062b613f33565b61063361494f565b6001600160a01b031680156106835781546001600160a01b03198116821783556001600160a01b03167f8be0079c531659141344cd1fd0a4f28419497f9722a3daafe3b4186f6b6457e08380a380f35b631e4fbdf760e01b82526004829052602482fd5b50346105395780600319360112610539576020600654604051908152f35b506106bf36613f49565b918997999389958c60ff815460a01c166106d881614140565b3382526001602090815260408084206001600160a01b0387165f90815292529020548e8110610a05575b50509061022098604061076e979695949333815260016020522060018060a01b0384165f526020528d61073a60405f209182546141cf565b905573__$69ea93bdf3b1e5da8164bfe3d9a878d765$__9a6040519e8f9a8b9a63652e83d760e01b8c523360048d0161437d565b0381845af49081156109c6576102249486926109d1575b50602090604051958680926363f88cdd60e11b82526107a76004830187614051565b5af49384156109c6578594610992575b50838552600460209081526040808720835181546001600160a01b039182166001600160a01b031991821617835593850151600183018054918316919095161790935590830151600282018054606086015160ff60a01b90151560a01b16929094166001600160a81b03199094169390931717825561020091600c919061088d905b6080860151815460ff60a81b191690151560a81b60ff60a81b1617815560a0860151815460c088015161ffff60b01b1990911691151560b01b60ff60b01b169190911790151560b81b60ff60b81b16179055565b60e0840151600382015561010084015160048201556101208401516005820155610140840151600680830191909155610160850151600783015561018085015160088301556101a08501516009830180546001600160a01b039283166001600160a01b0319918216179091556101c0870151600a850180549190931691161790556101e0850151600b83015592909301519201919081101561097e576020955060ff801983541691161790556040519160018060a01b0316825260018060a01b031690827f44e1ff8e67fad6b456bd43ff165ba4e9bb004370aa27a76881c6acb60dfd6dd9853393a4604051908152f35b634e487b7160e01b86526021600452602486fd5b9093506020813d6020116109be575b816109ae60209383614221565b810103126104475751925f6107b7565b3d91506109a1565b6040513d87823e3d90fd5b60209192506109f7906102203d81116109fe575b6109ef8183614221565b810190614264565b9190610785565b503d6109e5565b909750610a2392969594939850610a1d91508d6141cf565b95614140565b8415610d01576002549560405196631c8f084760e01b8852866004890152602488015260208760448173__$8537b7efa173772577da826929141ce939$__5af4968715610cf6578d97610cc2575b506001600160a01b0381169485610b7357610a8c88886146fe565b3403610b1f576102209860408f8d998f9b9961076e9a33845260016020528484205f8052602052845f20610ac18482546146fe565b905560018060a01b0360035416845260016020528484205f8052602052845f20610aec8282546146fe565b90555b84519283526020830152838201525f5160206149965f395f51905f5260603392a292939495969750819a50610702565b60405162461bcd60e51b815260206004820152602660248201527f4d61696e6e657420746f6b656e206465706f73697420616d6f756e74206d697360448201526536b0ba31b41760d11b6064820152608490fd5b8d610b7e89896146fe565b604051906323b872dd60e01b82523360048301523060248301526044820152602081606481858c5af1918215610cb65791610c78575b5015610c1b576102209860408f8d998f9b9961076e9a3384526001602052848420825f52602052845f20610be98482546146fe565b905560018060a01b036003541684526001602052848420825f52602052845f20610c148282546146fe565b9055610aef565b60405162461bcd60e51b815260206004820152602f60248201527f436f6e74726163742068617320746f6f206c6f7720616c6c6f77616e6365207460448201526e6f20726563656976652066756e647360881b6064820152608490fd5b90506020813d602011610cae575b81610c9360209383614221565b81010312610caa57610ca490614257565b5f610bb4565b8e80fd5b3d9150610c86565b604051903d90823e3d90fd5b9096506020813d602011610cee575b81610cde60209383614221565b810103126104475751955f610a71565b3d9150610cd1565b6040513d8f823e3d90fd5b60405162461bcd60e51b815260206004820152602660248201527f4465706f73697420616d6f756e74206d757374206265206772656174657220746044820152653430b710181760d11b6064820152608490fd5b503461053957610d6436613fcb565b9080835260046020526040832092600184019260018060a01b0384541633036111275773__$69ea93bdf3b1e5da8164bfe3d9a878d765$__803b156110c757826040518092630252a86760e51b82528180610dc28b6004830161444f565b03915af480156110d357908391611112575b5050600a85018054335f9081526001602090815260408083206001600160a01b0390941680845293909152902054909390838110610eb2575b503381526001602090815260409182902092546001600160a01b03165f908152929052902080547f9d5818ec36d6e85e8a30346f5fe41b65cc50cea2b868ae94f293d113c92a13389350610e629083906141cf565b905560068501610e738282546146fe565b905584549354600290950154604080516001600160a01b039283168152602081019390935295811695941693819081015b0390a4602060405160018152f35b610ebc90846141cf565b90610ecd60ff825460a01c16614140565b8115610d01576002549160405192631c8f084760e01b8452816004850152602484015260208360448173__$8537b7efa173772577da826929141ce939$__5af49283156104b75782936110de575b5085610fc857610f2b83826146fe565b610b1f577f9d5818ec36d6e85e8a30346f5fe41b65cc50cea2b868ae94f293d113c92a13389560409333845260016020528484205f8052602052845f20610f738482546146fe565b905560018060a01b0360035416845260016020528484205f8052602052845f20610f9e8282546146fe565b90555b84519283526020830152838201525f5160206149965f395f51905f5260603392a290610e0d565b610fd283826146fe565b604051906323b872dd60e01b82523360048301523060248301526044820152602081606481868b5af19081156110d3578391611095575b5015610c1b577f9d5818ec36d6e85e8a30346f5fe41b65cc50cea2b868ae94f293d113c92a133895604093338452600160205284842060018060a01b0383165f52602052845f2061105b8482546146fe565b905560018060a01b03600354168452600160205284842060018060a01b0383165f52602052845f2061108e8282546146fe565b9055610fa1565b90506020813d6020116110cb575b816110b060209383614221565b810103126110c7576110c190614257565b5f611009565b8280fd5b3d91506110a3565b6040513d85823e3d90fd5b9092506020813d60201161110a575b816110fa60209383614221565b810103126104475751915f610f1b565b3d91506110ed565b8161111c91614221565b6104c257815f610dd4565b60405162461bcd60e51b815260206004820152602860248201527f4f6e6c79206120636f756e74657270617274792063616e2063616c6c207468696044820152671cc81b595d1a1bd960c21b6064820152608490fd5b503461053957606036600319011261053957611197613f33565b9060406111a2613f1d565b9160443593338252600160205282822060018060a01b0385165f526020526111cf85845f2054101561418c565b338252600160205282822060018060a01b0385165f52602052825f206111f68682546141cf565b905560018060a01b031681526001602052209060018060a01b03165f5260205261122560405f209182546146fe565b9055602060405160018152f35b5060203660031901126105395760043580825260046020526040822091600183019261126860018060a01b0385541633146145c6565b60028101916112a6835461128160ff8260b01c16614621565b61129160ff8260b81c1615614666565b60ff8160a01c161590816115d8575b506146b2565b600a82018054335f9081526001602090815260408083206001600160a01b0390941680845293909152902054600685015481106113b4575b505060048301543383526001602090815260409384902092546001600160a01b03165f90815292905291902080549091611317916141cf565b90558154600160b81b60ff60b81b198216179092555492546040516001600160a01b0392831680825294918316929091169083907f5e02698c1650d6cbe1f7e8a48609d0da45ad7f5e4c13cd8b196f82965c0ab0d590602090a481611382575b602060405160018152f35b60207f957372c0e02d2882134cc0eebbef9e446634d8ccbb1cbb112bdefdd3cf0a643c91604051908152a25f80611377565b6113c29060048601546141cf565b906113d360ff855460a01c16614140565b8115610d015760025460405190631c8f084760e01b8252836004830152602482015260208160448173__$8537b7efa173772577da826929141ce939$__5af49081156109c65785916115a6575b50816114b15761143081846146fe565b3403610b1f573385526001602052604085205f805260205260405f206114578482546146fe565b905560018060a01b036003541685526001602052604085205f805260205260405f206114848282546146fe565b90555b604051928352602083015260408201525f5160206149965f395f51905f5260603392a25f806112de565b6114bb81846146fe565b604051906323b872dd60e01b8252336004830152306024830152604482015260208160648189875af190811561159b57869161155d575b5015610c1b5733855260016020526040852060018060a01b0383165f5260205260405f206115218482546146fe565b905560018060a01b0360035416855260016020526040852060018060a01b0383165f5260205260405f206115568282546146fe565b9055611487565b90506020813d602011611593575b8161157860209383614221565b8101031261158f5761158990614257565b5f6114f2565b8580fd5b3d915061156b565b6040513d88823e3d90fd5b90506020813d6020116115d0575b816115c160209383614221565b8101031261044757515f611420565b3d91506115b4565b60ff915060a81c16155f6112a0565b506115f136613fcb565b908083526004602052604083209260018060a01b0384541633036119645773__$69ea93bdf3b1e5da8164bfe3d9a878d765$__803b156104c257816040518092630252a86760e51b8252818061164a8a6004830161444f565b03915af480156104b75790829161194f575b5050600984018054335f9081526001602090815260408083206001600160a01b039094168084529390915290205491929091858110611736575b50604091503381526001602052209060018060a01b0390541660018060a01b03165f5260205260405f206116cb8382546141cf565b9055600583016116dc8382546146fe565b905582546001840154600290940154604080516001600160a01b0392831681526020810195909552948116949116927f3c0dd30126238eaebbb306e073222eecd03a091d41c39a4b2742759d406c8f559181908101610ea4565b61174090866141cf565b61175060ff835460a01c16614140565b8015610d01576002549260405193631c8f084760e01b8552826004860152602485015260208460448173__$8537b7efa173772577da826929141ce939$__5af49384156110d357839461191b575b508061182b576117ae84836146fe565b3403610b1f5760409333845260016020528484205f8052602052845f206117d68482546146fe565b905560018060a01b0360035416845260016020528484205f8052602052845f206118018282546146fe565b90555b84519283526020830152838201525f5160206149965f395f51905f5260603392a25f611696565b61183584836146fe565b604051906323b872dd60e01b8252336004830152306024830152604482015260208160648187865af19081156119105784916118d6575b5015610c1b57604093338452600160205284842060018060a01b0383165f52602052845f2061189c8482546146fe565b905560018060a01b03600354168452600160205284842060018060a01b0383165f52602052845f206118cf8282546146fe565b9055611804565b90506020813d602011611908575b816118f160209383614221565b810103126104b35761190290614257565b5f61186c565b3d91506118e4565b6040513d86823e3d90fd5b9093506020813d602011611947575b8161193760209383614221565b810103126104475751925f61179e565b3d915061192a565b8161195991614221565b61053957805f61165c565b60405162461bcd60e51b815260206004820152602560248201527f4f6e6c79206120696e69746174696f722063616e2063616c6c2074686973206d604482015264195d1a1bd960da1b6064820152608490fd5b50346105395780600319360112610539576020600554604051908152f35b503461053957602036600319011261053957600435808252600460205260408220905f5160206149b65f395f51905f52610ea4600184019360018060a01b0385541633148015611ac8575b611a2990614774565b6002810195611a4a875460ff8160b81c161580611aba575b611291906147cf565b600582015482546001600160a01b0390811683526001602090815260409384902060098601549092165f9081529190529190912080549091611a8b916146fe565b90555493549454604080516001600160a01b039283168152336020820152968216969590911694918291820190565b5060b081901c60ff16611a41565b5080546001600160a01b03163314611a20565b5034610539578060031936011261053957546040516001600160a01b039091168152602090f35b50346105395780600319360112610539576020600254604051908152f35b5034610539578060031936011261053957611b3961494f565b805460ff60a01b191681556040518181527f017904e4fe7d59bb4603c7c045bc275a05da9ea3a4ac007fc80fffeaf119186d90602090a1337f793bc6423dd0257d64f9d47db72fd4b2162f4541aa41740ba1c5fb5e2cd41bcd8280a280f35b5034610539576020366003190112610539576004358152600460205260409020600160a01b6001900381541690600160a01b600190036001820154169060028101546003820154600483015460058401546006850154600786015491600887015493600160a01b6001900360098901541695600160a01b60019003600a8a01541697600b8a015499600c015460ff169a6040519c8d5260208d0152600160a01b60019003811660408d01528060a01c60ff16151560608d01528060a81c60ff16151560808d01528060b01c60ff16151560a08d015260b81c60ff16151560c08c015260e08b01526101008a01526101208901526101408801526101608701526101808601526101a08501526101c08401526101e08301526102008201611cbd91614044565b61022090f35b50346105395760203660031901126105395760406004359182815260046020522090600182019060018060a01b0382541633148015611d89575b611d0690614774565b5f5160206149b65f395f51905f52610ea46002850194611d37865460ff8160b81c161580611aba57611291906147cf565b805460098201546005830154611d5b9290916001600160a01b03908116911661481b565b505493549454604080516001600160a01b039283168152336020820152968216969590911694918291820190565b5082546001600160a01b03163314611cfd565b503461053957611dab36613fcb565b9080835260046020526040832092600184019260018060a01b0384541633148015611f70575b611dda9061470b565b73__$69ea93bdf3b1e5da8164bfe3d9a878d765$__803b156110c757826040518092630252a86760e51b82528180611e158b6004830161444f565b03915af480156110d357908391611f5b575b505060068501611e43828254611e3e82821061418c565b6141cf565b905560018060a01b03600a8601541694600881015460405190631c8f084760e01b8252836004830152602482015260208160448173__$8537b7efa173772577da826929141ce939$__5af4938415610cb65793611f25575b5080547f8af39814826d4542f7fe66e6fa6ac2ac59bfc8221394f51a41dba5c54dba0ac99391610ea491611ee3906001600160a01b031689611edd86886141cf565b9161481b565b50611efc83600283019960018060a01b038b541661481b565b5054955496546040516001600160a01b0398891698978816979094859492909133911685614534565b92506020833d602011611f53575b81611f4060209383614221565b8101031261044757915191610ea4611e9b565b3d9150611f33565b81611f6591614221565b6104c257815f611e27565b5060028501546001600160a01b03163314611dd1565b5034610539578060031936011261053957611f9f61494f565b80546001600160a01b03198116825581906001600160a01b03167f8be0079c531659141344cd1fd0a4f28419497f9722a3daafe3b4186f6b6457e08280a380f35b5034610539576020366003190112610539576040906001600160a01b03612005613f33565b1681526001602052205f8052602052602060405f2054604051908152f35b50346105395760203660031901126105395760043580825260046020526040822090600182019160018060a01b0383541633148015612785575b801561276f575b1561271c576002810193845460ff8160b81c16156126e3578060ff6120949260a01c161590816115d857506146b2565b600b82015442106126a95760ff600c83015416600583015460018060a01b0360098501541660068501549160018060a01b03600a870154169060078701549460088801549673__$8537b7efa173772577da826929141ce939$__9760405197631c8f084760e01b89528460048a015260248901526020886044818c5af49788156104b7578298612674575b506020906044604051809b8193631c8f084760e01b83528b600484015260248301525af4978815612667578198612633575b50600682101561261f5791600482848e8e8e895f5160206149b65f395f51905f529f9d9b610ea49f9d9b998f8f908f928f859f888f8584898f8f8d8f9860018c8f92878b9f8d8f8c8f8f8c8b948f928e9815612554575b60028c1461248d575b5050505050505050505050146123a5575b5050505050505050505060038c1461230e575b50505050505050505050501461222c575b50508954600160a81b60ff60a81b19821617909a55505091549554604080516001600160a01b03998a168152336020820152918916989097169690938493509083019150565b848361226e6122909661225361227f958b98611edd8760018060a01b0360035416936141cf565b506003546001600160a01b0316908690611edd9089906141cf565b508d546001600160a01b031661481b565b508a546001600160a01b031661481b565b50825487548954600354604080516001600160a01b03938416815233602082015291831690820152606081018590526080810186905260a081019490945260c0840194909452831692169086907f8e100dc3335e09b082c843425f71ea8ae9d91ae5bb385ef4b41d0d2c6aa872149060e090a45f80808080806121e6565b7f8e100dc3335e09b082c843425f71ea8ae9d91ae5bb385ef4b41d0d2c6aa872149661227f61234a9360e0988d60018060a01b0390541661481b565b5060018060a01b039054169560018060a01b039054169660018060a01b0390541691604051928084523360208501526040840152606083015260808201528660a08201528660c0820152a48e8e8e87898c8f8f908b8f6121d5565b5f5160206149d65f395f51905f52996124227f8af39814826d4542f7fe66e6fa6ac2ac59bfc8221394f51a41dba5c54dba0ac99861240c88866123fb8f9e61243399611edd8560018060a01b03895416936141cf565b5089546001600160a01b031661481b565b50546001600160a01b031682611edd858b6141cf565b5084546001600160a01b031661481b565b508a54905491546040516001600160a01b039384169992841698919093169389938993918190612466908f338a85614534565b0390a461247b8a604051938493339085614534565b0390a48688838584898f8f8d8c6121c2565b6124f75f5160206149765f395f51905f529789938f8d8d6123fb5f5160206149f65f395f51905f529f8c90611edd858d886124cf9960a01b03905416936141cf565b508f806124e89160a01b0387541682611edd858d6141cf565b508f8060a01b0387541661481b565b508c8060a01b039054169788928d8060a01b03905416998a948e8060a01b039054169561252b604051928392338a85614534565b0390a46125408a604051938493339085614534565b0390a487858d8f8c8f8f8c8b948f926121b1565b61256b8d8060a01b038254168a611edd8d896141cf565b5061257f8a8a8f8060a01b0387541661481b565b506125978d8060a01b0384541683611edd8a8a6141cf565b506125ab87838f8060a01b0387541661481b565b50898d8060a01b03825416898f89898985855f5160206149d65f395f51905f52865f5160206149765f395f51905f529760a01b038d541699600194858c9660a01b0390541695612602604051928392338a85614534565b0390a46126178d604051938493339085614534565b0390a46121a8565b634e487b7160e01b81526021600452602490fd5b9097506020813d60201161265f575b8161264f60209383614221565b810103126104475751965f612151565b3d9150612642565b50604051903d90823e3d90fd5b9097506020813d6020116126a1575b8161269060209383614221565b81010312610447575196602061211f565b3d9150612683565b60405162461bcd60e51b81526020600482015260126024820152711119585b081b9bdd08195e1c1a5c985d195960721b6044820152606490fd5b60405162461bcd60e51b81526020600482015260116024820152701119585b081b5d5cdd081cdd185c9d1959607a1b6044820152606490fd5b60405162461bcd60e51b815260206004820152602560248201527f4f6e6c7920612070617274206f6620746865206465616c2063616e2072656a6560448201526418dd081a5d60da1b6064820152608490fd5b5060028101546001600160a01b03163314612064565b5080546001600160a01b0316331461205d565b50346105395760203660031901126105395760043580825260046020526040822060018060a01b0381541633148015612b01575b15612aa5578273__$69ea93bdf3b1e5da8164bfe3d9a878d765$__803b156104c257816040518092630252a86760e51b8252818061280d886004830161444f565b03915af480156104b757612a90575b5050600581015460098201546006830154600a84015460078501546008860154604051631c8f084760e01b81526004810187905260248101929092526001600160a01b0394851696939573__$8537b7efa173772577da826929141ce939$__959093169390602083604481895af4928315610453578a93612a5b575b50602090604460405180988193631c8f084760e01b83528b600484015260248301525af4948515612a5057889998979895612a15575b50600181018054909488949392916001600160a01b03168a6128f085876141cf565b906128fa9261481b565b50600282018054909a612918918591906001600160a01b031661481b565b5081546001600160a01b03168161292f8a806141cf565b906129399261481b565b5089546129509188916001600160a01b031661481b565b5054935497546040516001600160a01b03998a169a958a1699909116968a968a968893889391929091829161298791338e85614534565b037f8af39814826d4542f7fe66e6fa6ac2ac59bfc8221394f51a41dba5c54dba0ac991a46040519182916129bd91338985614534565b035f5160206149f65f395f51905f5291a4604080516001600160a01b039290921682523360208301527ffaee379435b6a0c297f1a08c66517fdc202debc6d275e6dd73630e3ebd1bdd9791a460405160018152602090f35b9291965093506020823d602011612a48575b81612a3460209383614221565b8101031261044757905187959093866128ce565b3d9150612a27565b6040513d8b823e3d90fd5b9092506020813d602011612a88575b81612a7760209383614221565b810103126104475751916020612898565b3d9150612a6a565b81612a9a91614221565b6110c757825f61281c565b60405162461bcd60e51b815260206004820152602e60248201527f4f6e6c79206120696e69746174696f72206f72206d65646961746f722063616e60448201526d0818dbdb5c1b1a5d19481919585b60921b6064820152608490fd5b5060028101546001600160a01b031633146127cc565b50346105395760203660031901126105395780610200604051612b39816141f0565b8281528260208201528260408201528260608201528260808201528260a08201528260c08201528260e08201528261010082015282610120820152826101408201528261016082015282610180820152826101a0820152826101c0820152826101e08201520152600435815260046020526040812060ff600c60405192612bbf846141f0565b80546001600160a01b0390811685526001820154811660208601526002820154808216604087015260a081811c86161515606088015260a882901c86161515608088015260b082901c861615159087015260b81c8416151560c0860152600382015460e08601526004820154610100860152600582015461012086015260068083015461014087015260078301546101608701526008830154610180870152600983015482166101a0870152600a8301549091166101c0860152600b8201546101e086015291015490911690811015612cac576102209250610200820152612caa6040518092614051565bf35b634e487b7160e01b83526021600452602483fd5b503461053957612ccf36613fcb565b9080835260046020526040832092600184019260018060a01b0384541633148015612e34575b612cfe9061470b565b73__$69ea93bdf3b1e5da8164bfe3d9a878d765$__803b156110c757826040518092630252a86760e51b82528180612d398b6004830161444f565b03915af480156110d357908391612e1f575b505060058501612d62828254611e3e82821061418c565b905560018060a01b0360098601541694600781015460405190631c8f084760e01b8252836004830152602482015260208160448173__$8537b7efa173772577da826929141ce939$__5af4938415610cb65793612de9575b5080545f5160206149d65f395f51905f529391610ea491611ee3906001600160a01b031689611edd86886141cf565b92506020833d602011612e17575b81612e0460209383614221565b8101031261044757915191610ea4612dba565b3d9150612df7565b81612e2991614221565b6104c257815f612d4b565b5060028501546001600160a01b03163314612cf5565b50604036600319011261053957612e5f613f33565b60243590612e7360ff845460a01c16614140565b8115610d01576002549060405191631c8f084760e01b8352836004840152602483015260208260448173__$8537b7efa173772577da826929141ce939$__5af4918215611910578492613032575b506001600160a01b03169081612f5857612edb81846146fe565b3403610b1f573384526001602052604084205f805260205260405f20612f028482546146fe565b905560018060a01b036003541684526001602052604084205f805260205260405f20612f2f8282546146fe565b90555b604051928352602083015260408201525f5160206149965f395f51905f5260603392a280f35b612f6281846146fe565b604051906323b872dd60e01b8252336004830152306024830152604482015260208160648188875af19081156109c6578591612ff4575b5015610c1b57338452600160205260408420825f5260205260405f20612fc08482546146fe565b905560018060a01b03600354168452600160205260408420825f5260205260405f20612fed8282546146fe565b9055612f32565b90506020813d60201161302a575b8161300f60209383614221565b810103126130265761302090614257565b5f612f99565b8480fd5b3d9150613002565b9091506020813d60201161305e575b8161304e60209383614221565b810103126104475751905f612ec1565b3d9150613041565b503461053957806003193601126105395760ff6020915460a01c166040519015158152f35b5034610539576020366003190112610539576004358082526004602052604082209160018301926130c660018060a01b0385541633146145c6565b60028101916130df835461128160ff8260b01c16614621565b600a820154335f9081526001602090815260408083206001600160a01b039094168084529390915290819020549261311e60048601548095101561418c565b3381526001602052209060018060a01b03165f5260205261131760405f209182546141cf565b50346105395761315336613fcb565b91908082526004602052604082209160018060a01b03835416331480156132c3575b61317e906143e9565b73__$69ea93bdf3b1e5da8164bfe3d9a878d765$__803b156104c257816040518092630252a86760e51b825281806131b9896004830161444f565b03915af480156104b7579082916132ae575b5050600583016131e2858254611e3e82821061418c565b905560018060a01b036009840154169360078401549160405192631c8f084760e01b8452826004850152602484015260208360448173__$8537b7efa173772577da826929141ce939$__5af4908115610cb6579061326f575b60018501805490955f5160206149f65f395f51905f529450610ea491611ee3906001600160a01b031689611edd86886141cf565b506020823d6020116132a6575b8161328960209383614221565b81010312610447575f5160206149f65f395f51905f52915161323b565b3d915061327c565b816132b891614221565b61053957805f6131cb565b5060028301546001600160a01b03163314613175565b50346105395780600319360112610539576132f261494f565b805460ff60a01b1916600160a01b178155604051600181527f017904e4fe7d59bb4603c7c045bc275a05da9ea3a4ac007fc80fffeaf119186d90602090a1337fae81c15a680e6640ba872ca44f364ad67c60a04089ad9fa100f7a3ce94da9f688280a280f35b5061336236613fe1565b9195949360ff889492945460a01c169261337b84614140565b33895260016020526040892060018060a01b0389165f5260205260405f205482811061365b575b50610220935061340b90338a52600160205260408a2060018060a01b038a165f5260205260405f206133d58482546141cf565b905573__$69ea93bdf3b1e5da8164bfe3d9a878d765$__95604051998a95869563652e83d760e01b87528a8c3360048a0161455e565b0381845af49081156109c657610224948692613637575b50602090604051958680926363f88cdd60e11b82526134446004830187614051565b5af49384156109c6578594613603575b50838552600460209081526040808720835181546001600160a01b039182166001600160a01b031991821617835593850151600183018054918316919095161790935590830151600282018054606086015160ff60a01b90151560a01b16929094166001600160a81b03199094169390931717825561020091600c91906134da90610839565b60e0840151600382015561010084015160048201556101208401516005820155610140840151600680830191909155610160850151600783015561018085015160088301556101a08501516009830180546001600160a01b039283166001600160a01b0319918216179091556101c0870151600a850180549190931691161790556101e0850151600b83015592909301519201919081101561097e576020955060ff801983541691161790556040519060018060a01b03169182825260018060a01b031690837f5e02698c1650d6cbe1f7e8a48609d0da45ad7f5e4c13cd8b196f82965c0ab0d5863393a4806135d4575b50604051908152f35b7f957372c0e02d2882134cc0eebbef9e446634d8ccbb1cbb112bdefdd3cf0a643c83604051848152a25f6135cb565b9093506020813d60201161362f575b8161361f60209383614221565b810103126104475751925f613454565b3d9150613612565b6020919250613654906102203d81116109fe576109ef8183614221565b9190613422565b61366861366e91846141cf565b94614140565b8315610d01576002549060405191631c8f084760e01b8352856004840152602483015260208260448173__$8537b7efa173772577da826929141ce939$__5af4918215610453578a9261384d575b506001600160a01b038916948561375f576136d783826146fe565b3403610b1f576102209561340b93338d52600160205260408d205f805260205260405f206137068482546146fe565b905560018060a01b03600354168d52600160205260408d205f805260205260405f206137338282546146fe565b90555b604051928352602083015260408201525f5160206149965f395f51905f5260603392a2906133a2565b8a602061376c85846146fe565b6064604051809481936323b872dd60e01b835233600484015230602484015260448301528b5af1908115613842578c91613804575b5015610c1b576102209561340b93338d52600160205260408d20825f5260205260405f206137d08482546146fe565b905560018060a01b03600354168d52600160205260408d20825f5260205260405f206137fd8282546146fe565b9055613736565b90506020813d60201161383a575b8161381f60209383614221565b810103126138365761383090614257565b5f6137a1565b8b80fd5b3d9150613812565b6040513d8e823e3d90fd5b9091506020813d602011613879575b8161386960209383614221565b810103126104475751905f6136bc565b3d915061385c565b50346105395761022061340b61389636613fe1565b6138af60ff8b9a96949a99939798995460a01c16614140565b338a52600160205260408a2060018060a01b038a165f526020526138d98360405f2054101561418c565b338a52600160205260408a2060018060a01b038a165f5260205260405f206133d58482546141cf565b50346105395760403660031901126105395760043561391f613f1d565b61392761494f565b6001600160a01b0381169182156139eb576402540be400811161399c576002819055600380546001600160a01b03191693909317909255604080519283526001600160a01b039190911660208301527f14bdaadaed0453e7b5b66195b42156ba995b9e5abd0da98368839851d69ad88991a180f35b60405162461bcd60e51b815260206004820152602160248201527f436f6d6d697373696f6e2070657263656e7461676520697320746f6f206869676044820152600d60fb1b6064820152608490fd5b60405162461bcd60e51b815260206004820152602f60248201527f436f6d6d697373696f6e20726563697069656e742063616e6e6f74206265207460448201526e6865207a65726f206164647265737360881b6064820152608490fd5b503461044757613a5736613fcb565b9190805f52600460205260405f209160018060a01b0383541633148015613bcc575b613a82906143e9565b73__$69ea93bdf3b1e5da8164bfe3d9a878d765$__803b15610447575f6040518092630252a86760e51b82528180613abd896004830161444f565b03915af48015613bc157613bae575b5060068301613ae2858254611e3e82821061418c565b905560018060a01b03600a840154169360088401549160405192631c8f084760e01b8452826004850152602484015260208360448173__$8537b7efa173772577da826929141ce939$__5af4908115610cb65790613b6f575b60018501805490955f5160206149765f395f51905f529450610ea491611ee3906001600160a01b031689611edd86886141cf565b506020823d602011613ba6575b81613b8960209383614221565b81010312610447575f5160206149765f395f51905f529151613b3b565b3d9150613b7c565b613bba91505f90614221565b5f5f613acc565b6040513d5f823e3d90fd5b5060028301546001600160a01b03163314613a79565b34610447575f366003190112610447576003546040516001600160a01b039091168152602090f35b3461044757610220613cc5613c1e36613f49565b92613c3b60ff5f9d99979c969d9b9a9b9493945460a01c16614140565b335f52600160205260405f2060018060a01b0382165f52602052613c658660405f2054101561418c565b335f52600160205260405f2060018060a01b0382165f5260205260405f20613c8e8782546141cf565b905560405163652e83d760e01b815273__$69ea93bdf3b1e5da8164bfe3d9a878d765$__9c909b8c9889988d8d3360048d0161437d565b0381875af4928315613bc1575f93613ef7575b5060206102249394604051948580926363f88cdd60e11b8252613cfe600483018a614051565b5af4928315613bc1575f93613ec3575b505f83815260046020818152604092839020875181546001600160a01b039182166001600160a01b0319918216178355928901516001830180549183169185169190911790559388015160028201805460608b015160808c015160a0808e015160c08f015192151560a81b60ff60a81b1660ff60a01b94151590921b93909316958a166001600160c01b031990941693909317949094179190911790151560b01b60ff60b01b161791151560b81b60ff60b81b1691909117905560e08801516003820155610100880151928101929092556101208701516005830155610140870151600680840191909155610160880151600784015561018088015160088401556101a088015160098401805484169186169190911790556101c0880151600a8401805490931694169390931790556101e0860151600b8201556102009095015194600c0190851015613eaf5760209460ff801983541691161790556040519160018060a01b0316825260018060a01b031690827f44e1ff8e67fad6b456bd43ff165ba4e9bb004370aa27a76881c6acb60dfd6dd9853393a4604051908152f35b634e487b7160e01b5f52602160045260245ffd5b9092506020813d602011613eef575b81613edf60209383614221565b8101031261044757519184613d0e565b3d9150613ed2565b6102249350613f166020916102203d81116109fe576109ef8183614221565b9350613cd8565b602435906001600160a01b038216820361044757565b600435906001600160a01b038216820361044757565b610140906003190112610447576004356001600160a01b038116810361044757906024356001600160a01b0381168103610447579060443590606435906084359060a4359060c4356001600160a01b0381168103610447579060e4356001600160a01b0381168103610447579061010435906101243560068110156104475790565b6040906003190112610447576004359060243590565b60e0906003190112610447576004356001600160a01b038116810361044757906024356001600160a01b0381168103610447579060443590606435906084356001600160a01b0381168103610447579060a4359060c43560068110156104475790565b906006821015613eaf5752565b906102008061413e9360018060a01b03815116845260018060a01b03602082015116602085015260018060a01b03604082015116604085015260608101511515606085015260808101511515608085015260a0810151151560a085015260c0810151151560c085015260e081015160e085015261010081015161010085015261012081015161012085015261014081015161014085015261016081015161016085015261018081015161018085015260018060a01b036101a0820151166101a085015260018060a01b036101c0820151166101c08501526101e08101516101e08501520151910190614044565b565b1561414757565b60405162461bcd60e51b815260206004820152601e60248201527f436f6e74726163742069732063757272656e746c792064697361626c656400006044820152606490fd5b1561419357565b60405162461bcd60e51b8152602060048201526014602482015273496e73756666696369656e742062616c616e636560601b6044820152606490fd5b919082039182116141dc57565b634e487b7160e01b5f52601160045260245ffd5b610220810190811067ffffffffffffffff82111761420d57604052565b634e487b7160e01b5f52604160045260245ffd5b90601f8019910116810190811067ffffffffffffffff82111761420d57604052565b51906001600160a01b038216820361044757565b5190811515820361044757565b90816102209103126104475761020060405191614280836141f0565b61428981614243565b835261429760208201614243565b60208401526142a860408201614243565b60408401526142b960608201614257565b60608401526142ca60808201614257565b60808401526142db60a08201614257565b60a08401526142ec60c08201614257565b60c084015260e081015160e08401526101008101516101008401526101208101516101208401526101408101516101408401526101608101516101608401526101808101516101808401526143446101a08201614243565b6101a08401526143576101c08201614243565b6101c08401526101e08101516101e0840152015160068110156104475761020082015290565b6001600160a01b039182168152918116602083015291821660408201526060810192909252608082019290925260a081019290925260c082019290925291811660e08301529091166101008201526101208101919091526101608101929161413e916101400190614044565b156143f057565b60405162461bcd60e51b815260206004820152603160248201527f4f6e6c79206120696e69746174696f72206f72206d65646961746f722063616e6044820152700818d85b1b081d1a1a5cc81b595d1a1bd9607a1b6064820152608490fd5b81546001600160a01b0390811682526001830154811660208301526002830154808216604084015260ff60a082811c82161515606086015260a883901c82161515608086015260b083901c821615159085015260b89190911c8116151560c0840152600384015460e084015260048401546101008401526005840154610120840152600684015461014084015260078401546101608401526008840154610180840152600984015482166101a0840152600a8401549091166101c0830152600b8301546101e0830152600c909201546102208201939261413e92610200019116614044565b6001600160a01b039182168152911660208201526040810191909152606081019190915260800190565b6001600160a01b0391821681529181166020830152918216604082015260608101929092525f6080830181905260a083019390935260c0820183905290921660e08301526101008201526101208101919091526101608101929161413e916101400190614044565b156145cd57565b60405162461bcd60e51b815260206004820152602660248201527f4f6e6c7920636f756e74657270617274792063616e2063616c6c2074686973206044820152651b595d1a1bd960d21b6064820152608490fd5b1561462857565b60405162461bcd60e51b81526020600482015260166024820152751119585b081b5d5cdd081899481d1ddbc81cda59195960521b6044820152606490fd5b1561466d57565b60405162461bcd60e51b815260206004820152601760248201527f4465616c206d757374206265206e6f74207369676e65640000000000000000006044820152606490fd5b156146b957565b60405162461bcd60e51b815260206004820152601760248201527f43616e7420656469742066696e6973686564206465616c0000000000000000006044820152606490fd5b919082018092116141dc57565b1561471257565b60405162461bcd60e51b815260206004820152603460248201527f4f6e6c79206120636f756e7465727061727479206f72206d65646961746f722060448201527318d85b8818d85b1b081d1a1a5cc81b595d1a1bd960621b6064820152608490fd5b1561477b57565b60405162461bcd60e51b815260206004820152602660248201527f4f6e6c79206120706172747920746f20746865206465616c2063616e2072656a6044820152651958dd081a5d60d21b6064820152608490fd5b156147d657565b60405162461bcd60e51b815260206004820152601860248201527f4465616c206d757374206265206e6f74207374617274656400000000000000006044820152606490fd5b908215614947576001600160a01b0381168061488a57505f808080866001600160a01b03871682f115613bc1577e1a143d5b175701cb3246058ffac3d63945192075a926ff73a19930f09d587a915b604080519485526001600160a01b039283166020860152911692a2600190565b60405163a9059cbb60e01b81526001600160a01b0384166004820152602481018590529290602090849060449082905f905af18015613bc1576148ef575b7e1a143d5b175701cb3246058ffac3d63945192075a926ff73a19930f09d587a925061486a565b6020833d60201161493f575b8161490860209383614221565b81010312610447576149397e1a143d5b175701cb3246058ffac3d63945192075a926ff73a19930f09d587a93614257565b506148c8565b3d91506148fb565b505050600190565b5f546001600160a01b0316330361496257565b63118cdaa760e01b5f523360045260245ffdfeafbe337783658b293f1566e1790bfab9858b8cf08de944ca3cd013d4211887b802d7e648dd130fc184d383e55bb126ac4c9c60e8f94bf05acdf557ba2d540b47086c61b89ef5fcdb14c243b643069c3c6a84765b27f2a696b875dddf031afb4da6af192380b5ba311ac003f57efa2be0717f0e466318c7e9cf546c4937a03d94f05d33634b730e763d232b482cf835a4481835f62d0a0973b42018a8ead4f047a2646970667358221220ea7663e038dfec2537648b187bc35eaadbff56c731b342c453be1d365a537ac464736f6c634300081c0033",
			"opcodes": "PUSH1 0x80 CALLVALUE PUSH2 0x1AA JUMPI PUSH1 0x1F PUSH2 0x4C0E CODESIZE DUP2 SWAP1 SUB SWAP2 DUP3 ADD PUSH1 0x1F NOT AND DUP4 ADD SWAP2 PUSH1 0x1 PUSH1 0x1 PUSH1 0x40 SHL SUB DUP4 GT DUP5 DUP5 LT OR PUSH2 0x1AE JUMPI DUP1 DUP5 SWAP3 PUSH1 0x40 SWAP5 DUP6 MSTORE DUP4 CODECOPY DUP2 ADD SUB SLT PUSH2 0x1AA JUMPI DUP1 MLOAD PUSH1 0x20 SWAP1 SWAP2 ADD MLOAD PUSH1 0x1 PUSH1 0x1 PUSH1 0xA0 SHL SUB DUP2 AND SWAP2 SWAP1 DUP3 SWAP1 SUB PUSH2 0x1AA JUMPI CALLER ISZERO PUSH2 0x197 JUMPI PUSH0 DUP1 SLOAD PUSH1 0x40 MLOAD SWAP2 CALLER SWAP1 PUSH1 0x1 PUSH1 0x1 PUSH1 0xA0 SHL SUB DUP4 AND SWAP1 PUSH32 0x8BE0079C531659141344CD1FD0A4F28419497F9722A3DAAFE3B4186F6B6457E0 SWAP1 DUP1 LOG3 PUSH1 0x1 PUSH1 0x1 PUSH1 0xA8 SHL SUB NOT AND CALLER PUSH1 0xFF PUSH1 0xA0 SHL NOT AND OR PUSH1 0x1 PUSH1 0xA0 SHL OR PUSH0 SSTORE DUP3 ISZERO PUSH2 0x13D JUMPI POP PUSH5 0x2540BE400 DUP2 GT PUSH2 0xEE JUMPI PUSH1 0x2 SSTORE PUSH1 0x1 DUP1 PUSH1 0xA0 SHL SUB NOT PUSH1 0x3 SLOAD AND OR PUSH1 0x3 SSTORE PUSH0 PUSH1 0x5 SSTORE PUSH0 PUSH1 0x6 SSTORE PUSH1 0x40 MLOAD PUSH2 0x4A4B SWAP1 DUP2 PUSH2 0x1C3 DUP3 CODECOPY RETURN JUMPDEST PUSH1 0x40 MLOAD PUSH3 0x461BCD PUSH1 0xE5 SHL DUP2 MSTORE PUSH1 0x20 PUSH1 0x4 DUP3 ADD MSTORE PUSH1 0x21 PUSH1 0x24 DUP3 ADD MSTORE PUSH32 0x436F6D6D697373696F6E2070657263656E7461676520697320746F6F20686967 PUSH1 0x44 DUP3 ADD MSTORE PUSH1 0xD PUSH1 0xFB SHL PUSH1 0x64 DUP3 ADD MSTORE PUSH1 0x84 SWAP1 REVERT JUMPDEST PUSH3 0x461BCD PUSH1 0xE5 SHL DUP2 MSTORE PUSH1 0x20 PUSH1 0x4 DUP3 ADD MSTORE PUSH1 0x2F PUSH1 0x24 DUP3 ADD MSTORE PUSH32 0x436F6D6D697373696F6E20726563697069656E742063616E6E6F742062652074 PUSH1 0x44 DUP3 ADD MSTORE PUSH15 0x6865207A65726F2061646472657373 PUSH1 0x88 SHL PUSH1 0x64 DUP3 ADD MSTORE PUSH1 0x84 SWAP1 REVERT JUMPDEST PUSH4 0x1E4FBDF7 PUSH1 0xE0 SHL PUSH0 MSTORE PUSH0 PUSH1 0x4 MSTORE PUSH1 0x24 PUSH0 REVERT JUMPDEST PUSH0 DUP1 REVERT JUMPDEST PUSH4 0x4E487B71 PUSH1 0xE0 SHL PUSH0 MSTORE PUSH1 0x41 PUSH1 0x4 MSTORE PUSH1 0x24 PUSH0 REVERT INVALID PUSH1 0x80 PUSH1 0x40 MSTORE PUSH1 0x4 CALLDATASIZE LT ISZERO PUSH2 0x11 JUMPI PUSH0 DUP1 REVERT JUMPDEST PUSH0 PUSH0 CALLDATALOAD PUSH1 0xE0 SHR DUP1 PUSH3 0x7E8BD3 EQ PUSH2 0x3C0A JUMPI DUP1 PUSH4 0x6FD154A EQ PUSH2 0x3BE2 JUMPI DUP1 PUSH4 0x114AEACC EQ PUSH2 0x3A48 JUMPI DUP1 PUSH4 0x15F8A314 EQ PUSH2 0x3902 JUMPI DUP1 PUSH4 0x17B52B50 EQ PUSH2 0x3881 JUMPI DUP1 PUSH4 0x28D5A050 EQ PUSH2 0x3358 JUMPI DUP1 PUSH4 0x367EDD32 EQ PUSH2 0x32D9 JUMPI DUP1 PUSH4 0x3F3E8212 EQ PUSH2 0x3144 JUMPI DUP1 PUSH4 0x4187129C EQ PUSH2 0x308B JUMPI DUP1 PUSH4 0x41B3A0D9 EQ PUSH2 0x3066 JUMPI DUP1 PUSH4 0x47E7EF24 EQ PUSH2 0x2E4A JUMPI DUP1 PUSH4 0x5040125B EQ PUSH2 0x2CC0 JUMPI DUP1 PUSH4 0x51A6FAD5 EQ PUSH2 0x2B17 JUMPI DUP1 PUSH4 0x51B7D535 EQ PUSH2 0x2798 JUMPI DUP1 PUSH4 0x5379719B EQ PUSH2 0x19B7 JUMPI DUP1 PUSH4 0x706B14F5 EQ PUSH2 0x2023 JUMPI DUP1 PUSH4 0x70A08231 EQ PUSH2 0x1FE0 JUMPI DUP1 PUSH4 0x715018A6 EQ PUSH2 0x1F86 JUMPI DUP1 PUSH4 0x7165E542 EQ PUSH2 0x1D9C JUMPI DUP1 PUSH4 0x80CCB070 EQ PUSH2 0x1CC3 JUMPI DUP1 PUSH4 0x81CD872A EQ PUSH2 0x1B98 JUMPI DUP1 PUSH4 0x894BA833 EQ PUSH2 0x1B20 JUMPI DUP1 PUSH4 0x899A3FFD EQ PUSH2 0x1B02 JUMPI DUP1 PUSH4 0x8DA5CB5B EQ PUSH2 0x1ADB JUMPI DUP1 PUSH4 0x8DEEA5FB EQ PUSH2 0x19D5 JUMPI DUP1 PUSH4 0x966D1F1D EQ PUSH2 0x19B7 JUMPI DUP1 PUSH4 0xB4A99CCB EQ PUSH2 0x15E7 JUMPI DUP1 PUSH4 0xBB06C1A4 EQ PUSH2 0x1232 JUMPI DUP1 PUSH4 0xBEABACC8 EQ PUSH2 0x117D JUMPI DUP1 PUSH4 0xC23F001F EQ PUSH2 0x53C JUMPI DUP1 PUSH4 0xC99B8965 EQ PUSH2 0xD55 JUMPI DUP1 PUSH4 0xCFADF6C7 EQ PUSH2 0x6B5 JUMPI DUP1 PUSH4 0xE08560A4 EQ PUSH2 0x697 JUMPI DUP1 PUSH4 0xED50AB8A EQ PUSH2 0x697 JUMPI DUP1 PUSH4 0xF2FDE38B EQ PUSH2 0x611 JUMPI DUP1 PUSH4 0xF3FEF3A3 EQ PUSH2 0x58F JUMPI DUP1 PUSH4 0xF7888AEC EQ PUSH2 0x53C JUMPI PUSH4 0xFAA86B4A EQ PUSH2 0x1BB JUMPI PUSH0 DUP1 REVERT JUMPDEST CALLVALUE PUSH2 0x539 JUMPI PUSH1 0x20 CALLDATASIZE PUSH1 0x3 NOT ADD SLT PUSH2 0x539 JUMPI PUSH1 0x4 CALLDATALOAD DUP1 DUP3 MSTORE PUSH1 0x4 PUSH1 0x20 MSTORE PUSH1 0x40 DUP3 KECCAK256 PUSH1 0x1 DUP2 ADD SWAP1 PUSH1 0x1 DUP1 PUSH1 0xA0 SHL SUB DUP3 SLOAD AND CALLER EQ DUP1 ISZERO PUSH2 0x523 JUMPI JUMPDEST ISZERO PUSH2 0x4C6 JUMPI DUP4 PUSH20 0x0 DUP1 EXTCODESIZE ISZERO PUSH2 0x4C2 JUMPI DUP2 PUSH1 0x40 MLOAD DUP1 SWAP3 PUSH4 0x252A867 PUSH1 0xE5 SHL DUP3 MSTORE DUP2 DUP1 PUSH2 0x234 DUP9 PUSH1 0x4 DUP4 ADD PUSH2 0x444F JUMP JUMPDEST SUB SWAP2 GAS DELEGATECALL DUP1 ISZERO PUSH2 0x4B7 JUMPI PUSH2 0x49E JUMPI JUMPDEST POP POP PUSH1 0x5 DUP2 ADD SLOAD PUSH1 0x9 DUP3 ADD SLOAD PUSH1 0x6 DUP4 ADD SLOAD PUSH1 0xA DUP5 ADD SLOAD PUSH1 0x7 DUP6 ADD SLOAD PUSH1 0x8 DUP7 ADD SLOAD PUSH1 0x40 MLOAD PUSH4 0x1C8F0847 PUSH1 0xE0 SHL DUP2 MSTORE PUSH1 0x4 DUP2 ADD DUP8 SWAP1 MSTORE PUSH1 0x24 DUP2 ADD SWAP3 SWAP1 SWAP3 MSTORE PUSH1 0x1 PUSH1 0x1 PUSH1 0xA0 SHL SUB SWAP5 DUP6 AND SWAP8 SWAP6 SWAP7 SWAP2 SWAP6 SWAP5 PUSH20 0x0 SWAP4 AND SWAP1 PUSH1 0x20 DUP8 PUSH1 0x44 DUP2 DUP8 GAS DELEGATECALL SWAP7 DUP8 ISZERO PUSH2 0x493 JUMPI DUP12 SWAP8 PUSH2 0x45E JUMPI JUMPDEST POP PUSH1 0x20 SWAP1 PUSH1 0x44 PUSH1 0x40 MLOAD DUP1 SWAP7 DUP2 SWAP4 PUSH4 0x1C8F0847 PUSH1 0xE0 SHL DUP4 MSTORE DUP10 PUSH1 0x4 DUP5 ADD MSTORE PUSH1 0x24 DUP4 ADD MSTORE GAS DELEGATECALL SWAP3 DUP4 ISZERO PUSH2 0x453 JUMPI DUP10 SWAP11 SWAP10 SWAP9 SWAP10 SWAP4 PUSH2 0x411 JUMPI JUMPDEST POP DUP2 SLOAD DUP9 SWAP5 SWAP4 SWAP3 SWAP2 SWAP1 PUSH1 0x1 PUSH1 0x1 PUSH1 0xA0 SHL SUB AND DUP11 PUSH2 0x312 DUP10 DUP12 PUSH2 0x41CF JUMP JUMPDEST SWAP1 PUSH2 0x31C SWAP3 PUSH2 0x481B JUMP JUMPDEST POP PUSH1 0x2 DUP3 ADD DUP1 SLOAD SWAP1 SWAP11 PUSH2 0x33A SWAP2 DUP10 SWAP2 SWAP1 PUSH1 0x1 PUSH1 0x1 PUSH1 0xA0 SHL SUB AND PUSH2 0x481B JUMP JUMPDEST POP DUP6 SLOAD PUSH1 0x1 PUSH1 0x1 PUSH1 0xA0 SHL SUB AND DUP2 PUSH2 0x351 DUP7 DUP1 PUSH2 0x41CF JUMP JUMPDEST SWAP1 PUSH2 0x35B SWAP3 PUSH2 0x481B JUMP JUMPDEST POP DUP10 SLOAD PUSH2 0x372 SWAP2 DUP5 SWAP2 PUSH1 0x1 PUSH1 0x1 PUSH1 0xA0 SHL SUB AND PUSH2 0x481B JUMP JUMPDEST POP SLOAD SWAP4 SLOAD SWAP8 SLOAD PUSH1 0x40 MLOAD PUSH1 0x1 PUSH1 0x1 PUSH1 0xA0 SHL SUB SWAP10 DUP11 AND SWAP11 SWAP6 DUP11 AND SWAP10 SWAP1 SWAP2 AND SWAP7 DUP11 SWAP7 DUP11 SWAP7 DUP9 SWAP4 DUP9 SWAP4 SWAP2 SWAP3 SWAP1 SWAP2 DUP3 SWAP2 PUSH2 0x3A9 SWAP2 CALLER DUP15 DUP6 PUSH2 0x4534 JUMP JUMPDEST SUB PUSH0 MLOAD PUSH1 0x20 PUSH2 0x49D6 PUSH0 CODECOPY PUSH0 MLOAD SWAP1 PUSH0 MSTORE SWAP2 LOG4 PUSH1 0x40 MLOAD SWAP2 DUP3 SWAP2 PUSH2 0x3CC SWAP2 CALLER DUP10 DUP6 PUSH2 0x4534 JUMP JUMPDEST SUB PUSH0 MLOAD PUSH1 0x20 PUSH2 0x4976 PUSH0 CODECOPY PUSH0 MLOAD SWAP1 PUSH0 MSTORE SWAP2 LOG4 PUSH1 0x40 DUP1 MLOAD PUSH1 0x1 PUSH1 0x1 PUSH1 0xA0 SHL SUB SWAP3 SWAP1 SWAP3 AND DUP3 MSTORE CALLER PUSH1 0x20 DUP4 ADD MSTORE PUSH0 MLOAD PUSH1 0x20 PUSH2 0x49B6 PUSH0 CODECOPY PUSH0 MLOAD SWAP1 PUSH0 MSTORE SWAP2 LOG4 PUSH1 0x40 MLOAD PUSH1 0x1 DUP2 MSTORE PUSH1 0x20 SWAP1 RETURN JUMPDEST SWAP4 SWAP3 POP SWAP1 SWAP7 POP PUSH1 0x20 DUP4 RETURNDATASIZE PUSH1 0x20 GT PUSH2 0x44B JUMPI JUMPDEST DUP2 PUSH2 0x430 PUSH1 0x20 SWAP4 DUP4 PUSH2 0x4221 JUMP JUMPDEST DUP2 ADD SUB SLT PUSH2 0x447 JUMPI DUP9 SWAP7 DUP8 SWAP4 MLOAD SWAP3 SWAP4 SWAP2 SWAP1 SWAP2 PUSH2 0x2F5 JUMP JUMPDEST PUSH0 DUP1 REVERT JUMPDEST RETURNDATASIZE SWAP2 POP PUSH2 0x423 JUMP JUMPDEST PUSH1 0x40 MLOAD RETURNDATASIZE DUP13 DUP3 RETURNDATACOPY RETURNDATASIZE SWAP1 REVERT JUMPDEST SWAP1 SWAP7 POP PUSH1 0x20 DUP2 RETURNDATASIZE PUSH1 0x20 GT PUSH2 0x48B JUMPI JUMPDEST DUP2 PUSH2 0x47A PUSH1 0x20 SWAP4 DUP4 PUSH2 0x4221 JUMP JUMPDEST DUP2 ADD SUB SLT PUSH2 0x447 JUMPI MLOAD SWAP6 PUSH1 0x20 PUSH2 0x2BF JUMP JUMPDEST RETURNDATASIZE SWAP2 POP PUSH2 0x46D JUMP JUMPDEST PUSH1 0x40 MLOAD RETURNDATASIZE DUP14 DUP3 RETURNDATACOPY RETURNDATASIZE SWAP1 REVERT JUMPDEST DUP2 PUSH2 0x4A8 SWAP2 PUSH2 0x4221 JUMP JUMPDEST PUSH2 0x4B3 JUMPI DUP4 PUSH0 PUSH2 0x243 JUMP JUMPDEST DUP4 DUP1 REVERT JUMPDEST PUSH1 0x40 MLOAD RETURNDATASIZE DUP5 DUP3 RETURNDATACOPY RETURNDATASIZE SWAP1 REVERT JUMPDEST POP DUP1 REVERT JUMPDEST PUSH1 0x40 MLOAD PUSH3 0x461BCD PUSH1 0xE5 SHL DUP2 MSTORE PUSH1 0x20 PUSH1 0x4 DUP3 ADD MSTORE PUSH1 0x2F PUSH1 0x24 DUP3 ADD MSTORE PUSH32 0x4F6E6C79206120636F756E7465727061727479206F72206D65646961746F7220 PUSH1 0x44 DUP3 ADD MSTORE PUSH15 0x18D85B8818D85B98D95B081919585B PUSH1 0x8A SHL PUSH1 0x64 DUP3 ADD MSTORE PUSH1 0x84 SWAP1 REVERT JUMPDEST POP PUSH1 0x2 DUP2 ADD SLOAD PUSH1 0x1 PUSH1 0x1 PUSH1 0xA0 SHL SUB AND CALLER EQ PUSH2 0x1F3 JUMP JUMPDEST DUP1 REVERT JUMPDEST POP CALLVALUE PUSH2 0x539 JUMPI PUSH1 0x40 CALLDATASIZE PUSH1 0x3 NOT ADD SLT PUSH2 0x539 JUMPI PUSH1 0x40 PUSH2 0x558 PUSH2 0x3F33 JUMP JUMPDEST SWAP2 PUSH2 0x561 PUSH2 0x3F1D JUMP JUMPDEST SWAP3 PUSH1 0x1 DUP1 PUSH1 0xA0 SHL SUB AND DUP2 MSTORE PUSH1 0x1 PUSH1 0x20 MSTORE KECCAK256 SWAP1 PUSH1 0x1 DUP1 PUSH1 0xA0 SHL SUB AND PUSH0 MSTORE PUSH1 0x20 MSTORE PUSH1 0x20 PUSH1 0x40 PUSH0 KECCAK256 SLOAD PUSH1 0x40 MLOAD SWAP1 DUP2 MSTORE RETURN JUMPDEST POP CALLVALUE PUSH2 0x539 JUMPI PUSH1 0x40 CALLDATASIZE PUSH1 0x3 NOT ADD SLT PUSH2 0x539 JUMPI PUSH2 0x607 PUSH1 0x20 SWAP2 PUSH2 0x5AF PUSH2 0x3F33 JUMP JUMPDEST PUSH1 0x40 PUSH1 0x24 CALLDATALOAD SWAP3 CALLER DUP2 MSTORE PUSH1 0x1 DUP7 MSTORE DUP2 DUP2 KECCAK256 PUSH1 0x1 DUP1 PUSH1 0xA0 SHL SUB DUP5 AND PUSH0 MSTORE DUP7 MSTORE PUSH2 0x5DB DUP5 DUP4 PUSH0 KECCAK256 SLOAD LT ISZERO PUSH2 0x418C JUMP JUMPDEST CALLER DUP2 MSTORE PUSH1 0x1 DUP7 MSTORE KECCAK256 PUSH1 0x1 DUP1 PUSH1 0xA0 SHL SUB DUP3 AND PUSH0 MSTORE DUP5 MSTORE PUSH1 0x40 PUSH0 KECCAK256 PUSH2 0x5FF DUP4 DUP3 SLOAD PUSH2 0x41CF JUMP JUMPDEST SWAP1 SSTORE CALLER PUSH2 0x481B JUMP JUMPDEST PUSH1 0x40 MLOAD SWAP1 ISZERO ISZERO DUP2 MSTORE RETURN JUMPDEST POP CALLVALUE PUSH2 0x539 JUMPI PUSH1 0x20 CALLDATASIZE PUSH1 0x3 NOT ADD SLT PUSH2 0x539 JUMPI PUSH2 0x62B PUSH2 0x3F33 JUMP JUMPDEST PUSH2 0x633 PUSH2 0x494F JUMP JUMPDEST PUSH1 0x1 PUSH1 0x1 PUSH1 0xA0 SHL SUB AND DUP1 ISZERO PUSH2 0x683 JUMPI DUP2 SLOAD PUSH1 0x1 PUSH1 0x1 PUSH1 0xA0 SHL SUB NOT DUP2 AND DUP3 OR DUP4 SSTORE PUSH1 0x1 PUSH1 0x1 PUSH1 0xA0 SHL SUB AND PUSH32 0x8BE0079C531659141344CD1FD0A4F28419497F9722A3DAAFE3B4186F6B6457E0 DUP4 DUP1 LOG3 DUP1 RETURN JUMPDEST PUSH4 0x1E4FBDF7 PUSH1 0xE0 SHL DUP3 MSTORE PUSH1 0x4 DUP3 SWAP1 MSTORE PUSH1 0x24 DUP3 REVERT JUMPDEST POP CALLVALUE PUSH2 0x539 JUMPI DUP1 PUSH1 0x3 NOT CALLDATASIZE ADD SLT PUSH2 0x539 JUMPI PUSH1 0x20 PUSH1 0x6 SLOAD PUSH1 0x40 MLOAD SWAP1 DUP2 MSTORE RETURN JUMPDEST POP PUSH2 0x6BF CALLDATASIZE PUSH2 0x3F49 JUMP JUMPDEST SWAP2 DUP10 SWAP8 SWAP10 SWAP4 DUP10 SWAP6 DUP13 PUSH1 0xFF DUP2 SLOAD PUSH1 0xA0 SHR AND PUSH2 0x6D8 DUP2 PUSH2 0x4140 JUMP JUMPDEST CALLER DUP3 MSTORE PUSH1 0x1 PUSH1 0x20 SWAP1 DUP2 MSTORE PUSH1 0x40 DUP1 DUP5 KECCAK256 PUSH1 0x1 PUSH1 0x1 PUSH1 0xA0 SHL SUB DUP8 AND PUSH0 SWAP1 DUP2 MSTORE SWAP3 MSTORE SWAP1 KECCAK256 SLOAD DUP15 DUP2 LT PUSH2 0xA05 JUMPI JUMPDEST POP POP SWAP1 PUSH2 0x220 SWAP9 PUSH1 0x40 PUSH2 0x76E SWAP8 SWAP7 SWAP6 SWAP5 SWAP4 CALLER DUP2 MSTORE PUSH1 0x1 PUSH1 0x20 MSTORE KECCAK256 PUSH1 0x1 DUP1 PUSH1 0xA0 SHL SUB DUP5 AND PUSH0 MSTORE PUSH1 0x20 MSTORE DUP14 PUSH2 0x73A PUSH1 0x40 PUSH0 KECCAK256 SWAP2 DUP3 SLOAD PUSH2 0x41CF JUMP JUMPDEST SWAP1 SSTORE PUSH20 0x0 SWAP11 PUSH1 0x40 MLOAD SWAP15 DUP16 SWAP11 DUP12 SWAP11 PUSH4 0x652E83D7 PUSH1 0xE0 SHL DUP13 MSTORE CALLER PUSH1 0x4 DUP14 ADD PUSH2 0x437D JUMP JUMPDEST SUB DUP2 DUP5 GAS DELEGATECALL SWAP1 DUP2 ISZERO PUSH2 0x9C6 JUMPI PUSH2 0x224 SWAP5 DUP7 SWAP3 PUSH2 0x9D1 JUMPI JUMPDEST POP PUSH1 0x20 SWAP1 PUSH1 0x40 MLOAD SWAP6 DUP7 DUP1 SWAP3 PUSH4 0x63F88CDD PUSH1 0xE1 SHL DUP3 MSTORE PUSH2 0x7A7 PUSH1 0x4 DUP4 ADD DUP8 PUSH2 0x4051 JUMP JUMPDEST GAS DELEGATECALL SWAP4 DUP5 ISZERO PUSH2 0x9C6 JUMPI DUP6 SWAP5 PUSH2 0x992 JUMPI JUMPDEST POP DUP4 DUP6 MSTORE PUSH1 0x4 PUSH1 0x20 SWAP1 DUP2 MSTORE PUSH1 0x40 DUP1 DUP8 KECCAK256 DUP4 MLOAD DUP2 SLOAD PUSH1 0x1 PUSH1 0x1 PUSH1 0xA0 SHL SUB SWAP2 DUP3 AND PUSH1 0x1 PUSH1 0x1 PUSH1 0xA0 SHL SUB NOT SWAP2 DUP3 AND OR DUP4 SSTORE SWAP4 DUP6 ADD MLOAD PUSH1 0x1 DUP4 ADD DUP1 SLOAD SWAP2 DUP4 AND SWAP2 SWAP1 SWAP6 AND OR SWAP1 SWAP4 SSTORE SWAP1 DUP4 ADD MLOAD PUSH1 0x2 DUP3 ADD DUP1 SLOAD PUSH1 0x60 DUP7 ADD MLOAD PUSH1 0xFF PUSH1 0xA0 SHL SWAP1 ISZERO ISZERO PUSH1 0xA0 SHL AND SWAP3 SWAP1 SWAP5 AND PUSH1 0x1 PUSH1 0x1 PUSH1 0xA8 SHL SUB NOT SWAP1 SWAP5 AND SWAP4 SWAP1 SWAP4 OR OR DUP3 SSTORE PUSH2 0x200 SWAP2 PUSH1 0xC SWAP2 SWAP1 PUSH2 0x88D SWAP1 JUMPDEST PUSH1 0x80 DUP7 ADD MLOAD DUP2 SLOAD PUSH1 0xFF PUSH1 0xA8 SHL NOT AND SWAP1 ISZERO ISZERO PUSH1 0xA8 SHL PUSH1 0xFF PUSH1 0xA8 SHL AND OR DUP2 SSTORE PUSH1 0xA0 DUP7 ADD MLOAD DUP2 SLOAD PUSH1 0xC0 DUP9 ADD MLOAD PUSH2 0xFFFF PUSH1 0xB0 SHL NOT SWAP1 SWAP2 AND SWAP2 ISZERO ISZERO PUSH1 0xB0 SHL PUSH1 0xFF PUSH1 0xB0 SHL AND SWAP2 SWAP1 SWAP2 OR SWAP1 ISZERO ISZERO PUSH1 0xB8 SHL PUSH1 0xFF PUSH1 0xB8 SHL AND OR SWAP1 SSTORE JUMP JUMPDEST PUSH1 0xE0 DUP5 ADD MLOAD PUSH1 0x3 DUP3 ADD SSTORE PUSH2 0x100 DUP5 ADD MLOAD PUSH1 0x4 DUP3 ADD SSTORE PUSH2 0x120 DUP5 ADD MLOAD PUSH1 0x5 DUP3 ADD SSTORE PUSH2 0x140 DUP5 ADD MLOAD PUSH1 0x6 DUP1 DUP4 ADD SWAP2 SWAP1 SWAP2 SSTORE PUSH2 0x160 DUP6 ADD MLOAD PUSH1 0x7 DUP4 ADD SSTORE PUSH2 0x180 DUP6 ADD MLOAD PUSH1 0x8 DUP4 ADD SSTORE PUSH2 0x1A0 DUP6 ADD MLOAD PUSH1 0x9 DUP4 ADD DUP1 SLOAD PUSH1 0x1 PUSH1 0x1 PUSH1 0xA0 SHL SUB SWAP3 DUP4 AND PUSH1 0x1 PUSH1 0x1 PUSH1 0xA0 SHL SUB NOT SWAP2 DUP3 AND OR SWAP1 SWAP2 SSTORE PUSH2 0x1C0 DUP8 ADD MLOAD PUSH1 0xA DUP6 ADD DUP1 SLOAD SWAP2 SWAP1 SWAP4 AND SWAP2 AND OR SWAP1 SSTORE PUSH2 0x1E0 DUP6 ADD MLOAD PUSH1 0xB DUP4 ADD SSTORE SWAP3 SWAP1 SWAP4 ADD MLOAD SWAP3 ADD SWAP2 SWAP1 DUP2 LT ISZERO PUSH2 0x97E JUMPI PUSH1 0x20 SWAP6 POP PUSH1 0xFF DUP1 NOT DUP4 SLOAD AND SWAP2 AND OR SWAP1 SSTORE PUSH1 0x40 MLOAD SWAP2 PUSH1 0x1 DUP1 PUSH1 0xA0 SHL SUB AND DUP3 MSTORE PUSH1 0x1 DUP1 PUSH1 0xA0 SHL SUB AND SWAP1 DUP3 PUSH32 0x44E1FF8E67FAD6B456BD43FF165BA4E9BB004370AA27A76881C6ACB60DFD6DD9 DUP6 CALLER SWAP4 LOG4 PUSH1 0x40 MLOAD SWAP1 DUP2 MSTORE RETURN JUMPDEST PUSH4 0x4E487B71 PUSH1 0xE0 SHL DUP7 MSTORE PUSH1 0x21 PUSH1 0x4 MSTORE PUSH1 0x24 DUP7 REVERT JUMPDEST SWAP1 SWAP4 POP PUSH1 0x20 DUP2 RETURNDATASIZE PUSH1 0x20 GT PUSH2 0x9BE JUMPI JUMPDEST DUP2 PUSH2 0x9AE PUSH1 0x20 SWAP4 DUP4 PUSH2 0x4221 JUMP JUMPDEST DUP2 ADD SUB SLT PUSH2 0x447 JUMPI MLOAD SWAP3 PUSH0 PUSH2 0x7B7 JUMP JUMPDEST RETURNDATASIZE SWAP2 POP PUSH2 0x9A1 JUMP JUMPDEST PUSH1 0x40 MLOAD RETURNDATASIZE DUP8 DUP3 RETURNDATACOPY RETURNDATASIZE SWAP1 REVERT JUMPDEST PUSH1 0x20 SWAP2 SWAP3 POP PUSH2 0x9F7 SWAP1 PUSH2 0x220 RETURNDATASIZE DUP2 GT PUSH2 0x9FE JUMPI JUMPDEST PUSH2 0x9EF DUP2 DUP4 PUSH2 0x4221 JUMP JUMPDEST DUP2 ADD SWAP1 PUSH2 0x4264 JUMP JUMPDEST SWAP2 SWAP1 PUSH2 0x785 JUMP JUMPDEST POP RETURNDATASIZE PUSH2 0x9E5 JUMP JUMPDEST SWAP1 SWAP8 POP PUSH2 0xA23 SWAP3 SWAP7 SWAP6 SWAP5 SWAP4 SWAP9 POP PUSH2 0xA1D SWAP2 POP DUP14 PUSH2 0x41CF JUMP JUMPDEST SWAP6 PUSH2 0x4140 JUMP JUMPDEST DUP5 ISZERO PUSH2 0xD01 JUMPI PUSH1 0x2 SLOAD SWAP6 PUSH1 0x40 MLOAD SWAP7 PUSH4 0x1C8F0847 PUSH1 0xE0 SHL DUP9 MSTORE DUP7 PUSH1 0x4 DUP10 ADD MSTORE PUSH1 0x24 DUP9 ADD MSTORE PUSH1 0x20 DUP8 PUSH1 0x44 DUP2 PUSH20 0x0 GAS DELEGATECALL SWAP7 DUP8 ISZERO PUSH2 0xCF6 JUMPI DUP14 SWAP8 PUSH2 0xCC2 JUMPI JUMPDEST POP PUSH1 0x1 PUSH1 0x1 PUSH1 0xA0 SHL SUB DUP2 AND SWAP5 DUP6 PUSH2 0xB73 JUMPI PUSH2 0xA8C DUP9 DUP9 PUSH2 0x46FE JUMP JUMPDEST CALLVALUE SUB PUSH2 0xB1F JUMPI PUSH2 0x220 SWAP9 PUSH1 0x40 DUP16 DUP14 SWAP10 DUP16 SWAP12 SWAP10 PUSH2 0x76E SWAP11 CALLER DUP5 MSTORE PUSH1 0x1 PUSH1 0x20 MSTORE DUP5 DUP5 KECCAK256 PUSH0 DUP1 MSTORE PUSH1 0x20 MSTORE DUP5 PUSH0 KECCAK256 PUSH2 0xAC1 DUP5 DUP3 SLOAD PUSH2 0x46FE JUMP JUMPDEST SWAP1 SSTORE PUSH1 0x1 DUP1 PUSH1 0xA0 SHL SUB PUSH1 0x3 SLOAD AND DUP5 MSTORE PUSH1 0x1 PUSH1 0x20 MSTORE DUP5 DUP5 KECCAK256 PUSH0 DUP1 MSTORE PUSH1 0x20 MSTORE DUP5 PUSH0 KECCAK256 PUSH2 0xAEC DUP3 DUP3 SLOAD PUSH2 0x46FE JUMP JUMPDEST SWAP1 SSTORE JUMPDEST DUP5 MLOAD SWAP3 DUP4 MSTORE PUSH1 0x20 DUP4 ADD MSTORE DUP4 DUP3 ADD MSTORE PUSH0 MLOAD PUSH1 0x20 PUSH2 0x4996 PUSH0 CODECOPY PUSH0 MLOAD SWAP1 PUSH0 MSTORE PUSH1 0x60 CALLER SWAP3 LOG2 SWAP3 SWAP4 SWAP5 SWAP6 SWAP7 SWAP8 POP DUP2 SWAP11 POP PUSH2 0x702 JUMP JUMPDEST PUSH1 0x40 MLOAD PUSH3 0x461BCD PUSH1 0xE5 SHL DUP2 MSTORE PUSH1 0x20 PUSH1 0x4 DUP3 ADD MSTORE PUSH1 0x26 PUSH1 0x24 DUP3 ADD MSTORE PUSH32 0x4D61696E6E657420746F6B656E206465706F73697420616D6F756E74206D6973 PUSH1 0x44 DUP3 ADD MSTORE PUSH6 0x36B0BA31B417 PUSH1 0xD1 SHL PUSH1 0x64 DUP3 ADD MSTORE PUSH1 0x84 SWAP1 REVERT JUMPDEST DUP14 PUSH2 0xB7E DUP10 DUP10 PUSH2 0x46FE JUMP JUMPDEST PUSH1 0x40 MLOAD SWAP1 PUSH4 0x23B872DD PUSH1 0xE0 SHL DUP3 MSTORE CALLER PUSH1 0x4 DUP4 ADD MSTORE ADDRESS PUSH1 0x24 DUP4 ADD MSTORE PUSH1 0x44 DUP3 ADD MSTORE PUSH1 0x20 DUP2 PUSH1 0x64 DUP2 DUP6 DUP13 GAS CALL SWAP2 DUP3 ISZERO PUSH2 0xCB6 JUMPI SWAP2 PUSH2 0xC78 JUMPI JUMPDEST POP ISZERO PUSH2 0xC1B JUMPI PUSH2 0x220 SWAP9 PUSH1 0x40 DUP16 DUP14 SWAP10 DUP16 SWAP12 SWAP10 PUSH2 0x76E SWAP11 CALLER DUP5 MSTORE PUSH1 0x1 PUSH1 0x20 MSTORE DUP5 DUP5 KECCAK256 DUP3 PUSH0 MSTORE PUSH1 0x20 MSTORE DUP5 PUSH0 KECCAK256 PUSH2 0xBE9 DUP5 DUP3 SLOAD PUSH2 0x46FE JUMP JUMPDEST SWAP1 SSTORE PUSH1 0x1 DUP1 PUSH1 0xA0 SHL SUB PUSH1 0x3 SLOAD AND DUP5 MSTORE PUSH1 0x1 PUSH1 0x20 MSTORE DUP5 DUP5 KECCAK256 DUP3 PUSH0 MSTORE PUSH1 0x20 MSTORE DUP5 PUSH0 KECCAK256 PUSH2 0xC14 DUP3 DUP3 SLOAD PUSH2 0x46FE JUMP JUMPDEST SWAP1 SSTORE PUSH2 0xAEF JUMP JUMPDEST PUSH1 0x40 MLOAD PUSH3 0x461BCD PUSH1 0xE5 SHL DUP2 MSTORE PUSH1 0x20 PUSH1 0x4 DUP3 ADD MSTORE PUSH1 0x2F PUSH1 0x24 DUP3 ADD MSTORE PUSH32 0x436F6E74726163742068617320746F6F206C6F7720616C6C6F77616E63652074 PUSH1 0x44 DUP3 ADD MSTORE PUSH15 0x6F20726563656976652066756E6473 PUSH1 0x88 SHL PUSH1 0x64 DUP3 ADD MSTORE PUSH1 0x84 SWAP1 REVERT JUMPDEST SWAP1 POP PUSH1 0x20 DUP2 RETURNDATASIZE PUSH1 0x20 GT PUSH2 0xCAE JUMPI JUMPDEST DUP2 PUSH2 0xC93 PUSH1 0x20 SWAP4 DUP4 PUSH2 0x4221 JUMP JUMPDEST DUP2 ADD SUB SLT PUSH2 0xCAA JUMPI PUSH2 0xCA4 SWAP1 PUSH2 0x4257 JUMP JUMPDEST PUSH0 PUSH2 0xBB4 JUMP JUMPDEST DUP15 DUP1 REVERT JUMPDEST RETURNDATASIZE SWAP2 POP PUSH2 0xC86 JUMP JUMPDEST PUSH1 0x40 MLOAD SWAP1 RETURNDATASIZE SWAP1 DUP3 RETURNDATACOPY RETURNDATASIZE SWAP1 REVERT JUMPDEST SWAP1 SWAP7 POP PUSH1 0x20 DUP2 RETURNDATASIZE PUSH1 0x20 GT PUSH2 0xCEE JUMPI JUMPDEST DUP2 PUSH2 0xCDE PUSH1 0x20 SWAP4 DUP4 PUSH2 0x4221 JUMP JUMPDEST DUP2 ADD SUB SLT PUSH2 0x447 JUMPI MLOAD SWAP6 PUSH0 PUSH2 0xA71 JUMP JUMPDEST RETURNDATASIZE SWAP2 POP PUSH2 0xCD1 JUMP JUMPDEST PUSH1 0x40 MLOAD RETURNDATASIZE DUP16 DUP3 RETURNDATACOPY RETURNDATASIZE SWAP1 REVERT JUMPDEST PUSH1 0x40 MLOAD PUSH3 0x461BCD PUSH1 0xE5 SHL DUP2 MSTORE PUSH1 0x20 PUSH1 0x4 DUP3 ADD MSTORE PUSH1 0x26 PUSH1 0x24 DUP3 ADD MSTORE PUSH32 0x4465706F73697420616D6F756E74206D75737420626520677265617465722074 PUSH1 0x44 DUP3 ADD MSTORE PUSH6 0x3430B7101817 PUSH1 0xD1 SHL PUSH1 0x64 DUP3 ADD MSTORE PUSH1 0x84 SWAP1 REVERT JUMPDEST POP CALLVALUE PUSH2 0x539 JUMPI PUSH2 0xD64 CALLDATASIZE PUSH2 0x3FCB JUMP JUMPDEST SWAP1 DUP1 DUP4 MSTORE PUSH1 0x4 PUSH1 0x20 MSTORE PUSH1 0x40 DUP4 KECCAK256 SWAP3 PUSH1 0x1 DUP5 ADD SWAP3 PUSH1 0x1 DUP1 PUSH1 0xA0 SHL SUB DUP5 SLOAD AND CALLER SUB PUSH2 0x1127 JUMPI PUSH20 0x0 DUP1 EXTCODESIZE ISZERO PUSH2 0x10C7 JUMPI DUP3 PUSH1 0x40 MLOAD DUP1 SWAP3 PUSH4 0x252A867 PUSH1 0xE5 SHL DUP3 MSTORE DUP2 DUP1 PUSH2 0xDC2 DUP12 PUSH1 0x4 DUP4 ADD PUSH2 0x444F JUMP JUMPDEST SUB SWAP2 GAS DELEGATECALL DUP1 ISZERO PUSH2 0x10D3 JUMPI SWAP1 DUP4 SWAP2 PUSH2 0x1112 JUMPI JUMPDEST POP POP PUSH1 0xA DUP6 ADD DUP1 SLOAD CALLER PUSH0 SWAP1 DUP2 MSTORE PUSH1 0x1 PUSH1 0x20 SWAP1 DUP2 MSTORE PUSH1 0x40 DUP1 DUP4 KECCAK256 PUSH1 0x1 PUSH1 0x1 PUSH1 0xA0 SHL SUB SWAP1 SWAP5 AND DUP1 DUP5 MSTORE SWAP4 SWAP1 SWAP2 MSTORE SWAP1 KECCAK256 SLOAD SWAP1 SWAP4 SWAP1 DUP4 DUP2 LT PUSH2 0xEB2 JUMPI JUMPDEST POP CALLER DUP2 MSTORE PUSH1 0x1 PUSH1 0x20 SWAP1 DUP2 MSTORE PUSH1 0x40 SWAP2 DUP3 SWAP1 KECCAK256 SWAP3 SLOAD PUSH1 0x1 PUSH1 0x1 PUSH1 0xA0 SHL SUB AND PUSH0 SWAP1 DUP2 MSTORE SWAP3 SWAP1 MSTORE SWAP1 KECCAK256 DUP1 SLOAD PUSH32 0x9D5818EC36D6E85E8A30346F5FE41B65CC50CEA2B868AE94F293D113C92A1338 SWAP4 POP PUSH2 0xE62 SWAP1 DUP4 SWAP1 PUSH2 0x41CF JUMP JUMPDEST SWAP1 SSTORE PUSH1 0x6 DUP6 ADD PUSH2 0xE73 DUP3 DUP3 SLOAD PUSH2 0x46FE JUMP JUMPDEST SWAP1 SSTORE DUP5 SLOAD SWAP4 SLOAD PUSH1 0x2 SWAP1 SWAP6 ADD SLOAD PUSH1 0x40 DUP1 MLOAD PUSH1 0x1 PUSH1 0x1 PUSH1 0xA0 SHL SUB SWAP3 DUP4 AND DUP2 MSTORE PUSH1 0x20 DUP2 ADD SWAP4 SWAP1 SWAP4 MSTORE SWAP6 DUP2 AND SWAP6 SWAP5 AND SWAP4 DUP2 SWAP1 DUP2 ADD JUMPDEST SUB SWAP1 LOG4 PUSH1 0x20 PUSH1 0x40 MLOAD PUSH1 0x1 DUP2 MSTORE RETURN JUMPDEST PUSH2 0xEBC SWAP1 DUP5 PUSH2 0x41CF JUMP JUMPDEST SWAP1 PUSH2 0xECD PUSH1 0xFF DUP3 SLOAD PUSH1 0xA0 SHR AND PUSH2 0x4140 JUMP JUMPDEST DUP2 ISZERO PUSH2 0xD01 JUMPI PUSH1 0x2 SLOAD SWAP2 PUSH1 0x40 MLOAD SWAP3 PUSH4 0x1C8F0847 PUSH1 0xE0 SHL DUP5 MSTORE DUP2 PUSH1 0x4 DUP6 ADD MSTORE PUSH1 0x24 DUP5 ADD MSTORE PUSH1 0x20 DUP4 PUSH1 0x44 DUP2 PUSH20 0x0 GAS DELEGATECALL SWAP3 DUP4 ISZERO PUSH2 0x4B7 JUMPI DUP3 SWAP4 PUSH2 0x10DE JUMPI JUMPDEST POP DUP6 PUSH2 0xFC8 JUMPI PUSH2 0xF2B DUP4 DUP3 PUSH2 0x46FE JUMP JUMPDEST PUSH2 0xB1F JUMPI PUSH32 0x9D5818EC36D6E85E8A30346F5FE41B65CC50CEA2B868AE94F293D113C92A1338 SWAP6 PUSH1 0x40 SWAP4 CALLER DUP5 MSTORE PUSH1 0x1 PUSH1 0x20 MSTORE DUP5 DUP5 KECCAK256 PUSH0 DUP1 MSTORE PUSH1 0x20 MSTORE DUP5 PUSH0 KECCAK256 PUSH2 0xF73 DUP5 DUP3 SLOAD PUSH2 0x46FE JUMP JUMPDEST SWAP1 SSTORE PUSH1 0x1 DUP1 PUSH1 0xA0 SHL SUB PUSH1 0x3 SLOAD AND DUP5 MSTORE PUSH1 0x1 PUSH1 0x20 MSTORE DUP5 DUP5 KECCAK256 PUSH0 DUP1 MSTORE PUSH1 0x20 MSTORE DUP5 PUSH0 KECCAK256 PUSH2 0xF9E DUP3 DUP3 SLOAD PUSH2 0x46FE JUMP JUMPDEST SWAP1 SSTORE JUMPDEST DUP5 MLOAD SWAP3 DUP4 MSTORE PUSH1 0x20 DUP4 ADD MSTORE DUP4 DUP3 ADD MSTORE PUSH0 MLOAD PUSH1 0x20 PUSH2 0x4996 PUSH0 CODECOPY PUSH0 MLOAD SWAP1 PUSH0 MSTORE PUSH1 0x60 CALLER SWAP3 LOG2 SWAP1 PUSH2 0xE0D JUMP JUMPDEST PUSH2 0xFD2 DUP4 DUP3 PUSH2 0x46FE JUMP JUMPDEST PUSH1 0x40 MLOAD SWAP1 PUSH4 0x23B872DD PUSH1 0xE0 SHL DUP3 MSTORE CALLER PUSH1 0x4 DUP4 ADD MSTORE ADDRESS PUSH1 0x24 DUP4 ADD MSTORE PUSH1 0x44 DUP3 ADD MSTORE PUSH1 0x20 DUP2 PUSH1 0x64 DUP2 DUP7 DUP12 GAS CALL SWAP1 DUP2 ISZERO PUSH2 0x10D3 JUMPI DUP4 SWAP2 PUSH2 0x1095 JUMPI JUMPDEST POP ISZERO PUSH2 0xC1B JUMPI PUSH32 0x9D5818EC36D6E85E8A30346F5FE41B65CC50CEA2B868AE94F293D113C92A1338 SWAP6 PUSH1 0x40 SWAP4 CALLER DUP5 MSTORE PUSH1 0x1 PUSH1 0x20 MSTORE DUP5 DUP5 KECCAK256 PUSH1 0x1 DUP1 PUSH1 0xA0 SHL SUB DUP4 AND PUSH0 MSTORE PUSH1 0x20 MSTORE DUP5 PUSH0 KECCAK256 PUSH2 0x105B DUP5 DUP3 SLOAD PUSH2 0x46FE JUMP JUMPDEST SWAP1 SSTORE PUSH1 0x1 DUP1 PUSH1 0xA0 SHL SUB PUSH1 0x3 SLOAD AND DUP5 MSTORE PUSH1 0x1 PUSH1 0x20 MSTORE DUP5 DUP5 KECCAK256 PUSH1 0x1 DUP1 PUSH1 0xA0 SHL SUB DUP4 AND PUSH0 MSTORE PUSH1 0x20 MSTORE DUP5 PUSH0 KECCAK256 PUSH2 0x108E DUP3 DUP3 SLOAD PUSH2 0x46FE JUMP JUMPDEST SWAP1 SSTORE PUSH2 0xFA1 JUMP JUMPDEST SWAP1 POP PUSH1 0x20 DUP2 RETURNDATASIZE PUSH1 0x20 GT PUSH2 0x10CB JUMPI JUMPDEST DUP2 PUSH2 0x10B0 PUSH1 0x20 SWAP4 DUP4 PUSH2 0x4221 JUMP JUMPDEST DUP2 ADD SUB SLT PUSH2 0x10C7 JUMPI PUSH2 0x10C1 SWAP1 PUSH2 0x4257 JUMP JUMPDEST PUSH0 PUSH2 0x1009 JUMP JUMPDEST DUP3 DUP1 REVERT JUMPDEST RETURNDATASIZE SWAP2 POP PUSH2 0x10A3 JUMP JUMPDEST PUSH1 0x40 MLOAD RETURNDATASIZE DUP6 DUP3 RETURNDATACOPY RETURNDATASIZE SWAP1 REVERT JUMPDEST SWAP1 SWAP3 POP PUSH1 0x20 DUP2 RETURNDATASIZE PUSH1 0x20 GT PUSH2 0x110A JUMPI JUMPDEST DUP2 PUSH2 0x10FA PUSH1 0x20 SWAP4 DUP4 PUSH2 0x4221 JUMP JUMPDEST DUP2 ADD SUB SLT PUSH2 0x447 JUMPI MLOAD SWAP2 PUSH0 PUSH2 0xF1B JUMP JUMPDEST RETURNDATASIZE SWAP2 POP PUSH2 0x10ED JUMP JUMPDEST DUP2 PUSH2 0x111C SWAP2 PUSH2 0x4221 JUMP JUMPDEST PUSH2 0x4C2 JUMPI DUP2 PUSH0 PUSH2 0xDD4 JUMP JUMPDEST PUSH1 0x40 MLOAD PUSH3 0x461BCD PUSH1 0xE5 SHL DUP2 MSTORE PUSH1 0x20 PUSH1 0x4 DUP3 ADD MSTORE PUSH1 0x28 PUSH1 0x24 DUP3 ADD MSTORE PUSH32 0x4F6E6C79206120636F756E74657270617274792063616E2063616C6C20746869 PUSH1 0x44 DUP3 ADD MSTORE PUSH8 0x1CC81B595D1A1BD9 PUSH1 0xC2 SHL PUSH1 0x64 DUP3 ADD MSTORE PUSH1 0x84 SWAP1 REVERT JUMPDEST POP CALLVALUE PUSH2 0x539 JUMPI PUSH1 0x60 CALLDATASIZE PUSH1 0x3 NOT ADD SLT PUSH2 0x539 JUMPI PUSH2 0x1197 PUSH2 0x3F33 JUMP JUMPDEST SWAP1 PUSH1 0x40 PUSH2 0x11A2 PUSH2 0x3F1D JUMP JUMPDEST SWAP2 PUSH1 0x44 CALLDATALOAD SWAP4 CALLER DUP3 MSTORE PUSH1 0x1 PUSH1 0x20 MSTORE DUP3 DUP3 KECCAK256 PUSH1 0x1 DUP1 PUSH1 0xA0 SHL SUB DUP6 AND PUSH0 MSTORE PUSH1 0x20 MSTORE PUSH2 0x11CF DUP6 DUP5 PUSH0 KECCAK256 SLOAD LT ISZERO PUSH2 0x418C JUMP JUMPDEST CALLER DUP3 MSTORE PUSH1 0x1 PUSH1 0x20 MSTORE DUP3 DUP3 KECCAK256 PUSH1 0x1 DUP1 PUSH1 0xA0 SHL SUB DUP6 AND PUSH0 MSTORE PUSH1 0x20 MSTORE DUP3 PUSH0 KECCAK256 PUSH2 0x11F6 DUP7 DUP3 SLOAD PUSH2 0x41CF JUMP JUMPDEST SWAP1 SSTORE PUSH1 0x1 DUP1 PUSH1 0xA0 SHL SUB AND DUP2 MSTORE PUSH1 0x1 PUSH1 0x20 MSTORE KECCAK256 SWAP1 PUSH1 0x1 DUP1 PUSH1 0xA0 SHL SUB AND PUSH0 MSTORE PUSH1 0x20 MSTORE PUSH2 0x1225 PUSH1 0x40 PUSH0 KECCAK256 SWAP2 DUP3 SLOAD PUSH2 0x46FE JUMP JUMPDEST SWAP1 SSTORE PUSH1 0x20 PUSH1 0x40 MLOAD PUSH1 0x1 DUP2 MSTORE RETURN JUMPDEST POP PUSH1 0x20 CALLDATASIZE PUSH1 0x3 NOT ADD SLT PUSH2 0x539 JUMPI PUSH1 0x4 CALLDATALOAD DUP1 DUP3 MSTORE PUSH1 0x4 PUSH1 0x20 MSTORE PUSH1 0x40 DUP3 KECCAK256 SWAP2 PUSH1 0x1 DUP4 ADD SWAP3 PUSH2 0x1268 PUSH1 0x1 DUP1 PUSH1 0xA0 SHL SUB DUP6 SLOAD AND CALLER EQ PUSH2 0x45C6 JUMP JUMPDEST PUSH1 0x2 DUP2 ADD SWAP2 PUSH2 0x12A6 DUP4 SLOAD PUSH2 0x1281 PUSH1 0xFF DUP3 PUSH1 0xB0 SHR AND PUSH2 0x4621 JUMP JUMPDEST PUSH2 0x1291 PUSH1 0xFF DUP3 PUSH1 0xB8 SHR AND ISZERO PUSH2 0x4666 JUMP JUMPDEST PUSH1 0xFF DUP2 PUSH1 0xA0 SHR AND ISZERO SWAP1 DUP2 PUSH2 0x15D8 JUMPI JUMPDEST POP PUSH2 0x46B2 JUMP JUMPDEST PUSH1 0xA DUP3 ADD DUP1 SLOAD CALLER PUSH0 SWAP1 DUP2 MSTORE PUSH1 0x1 PUSH1 0x20 SWAP1 DUP2 MSTORE PUSH1 0x40 DUP1 DUP4 KECCAK256 PUSH1 0x1 PUSH1 0x1 PUSH1 0xA0 SHL SUB SWAP1 SWAP5 AND DUP1 DUP5 MSTORE SWAP4 SWAP1 SWAP2 MSTORE SWAP1 KECCAK256 SLOAD PUSH1 0x6 DUP6 ADD SLOAD DUP2 LT PUSH2 0x13B4 JUMPI JUMPDEST POP POP PUSH1 0x4 DUP4 ADD SLOAD CALLER DUP4 MSTORE PUSH1 0x1 PUSH1 0x20 SWAP1 DUP2 MSTORE PUSH1 0x40 SWAP4 DUP5 SWAP1 KECCAK256 SWAP3 SLOAD PUSH1 0x1 PUSH1 0x1 PUSH1 0xA0 SHL SUB AND PUSH0 SWAP1 DUP2 MSTORE SWAP3 SWAP1 MSTORE SWAP2 SWAP1 KECCAK256 DUP1 SLOAD SWAP1 SWAP2 PUSH2 0x1317 SWAP2 PUSH2 0x41CF JUMP JUMPDEST SWAP1 SSTORE DUP2 SLOAD PUSH1 0x1 PUSH1 0xB8 SHL PUSH1 0xFF PUSH1 0xB8 SHL NOT DUP3 AND OR SWAP1 SWAP3 SSTORE SLOAD SWAP3 SLOAD PUSH1 0x40 MLOAD PUSH1 0x1 PUSH1 0x1 PUSH1 0xA0 SHL SUB SWAP3 DUP4 AND DUP1 DUP3 MSTORE SWAP5 SWAP2 DUP4 AND SWAP3 SWAP1 SWAP2 AND SWAP1 DUP4 SWAP1 PUSH32 0x5E02698C1650D6CBE1F7E8A48609D0DA45AD7F5E4C13CD8B196F82965C0AB0D5 SWAP1 PUSH1 0x20 SWAP1 LOG4 DUP2 PUSH2 0x1382 JUMPI JUMPDEST PUSH1 0x20 PUSH1 0x40 MLOAD PUSH1 0x1 DUP2 MSTORE RETURN JUMPDEST PUSH1 0x20 PUSH32 0x957372C0E02D2882134CC0EEBBEF9E446634D8CCBB1CBB112BDEFDD3CF0A643C SWAP2 PUSH1 0x40 MLOAD SWAP1 DUP2 MSTORE LOG2 PUSH0 DUP1 PUSH2 0x1377 JUMP JUMPDEST PUSH2 0x13C2 SWAP1 PUSH1 0x4 DUP7 ADD SLOAD PUSH2 0x41CF JUMP JUMPDEST SWAP1 PUSH2 0x13D3 PUSH1 0xFF DUP6 SLOAD PUSH1 0xA0 SHR AND PUSH2 0x4140 JUMP JUMPDEST DUP2 ISZERO PUSH2 0xD01 JUMPI PUSH1 0x2 SLOAD PUSH1 0x40 MLOAD SWAP1 PUSH4 0x1C8F0847 PUSH1 0xE0 SHL DUP3 MSTORE DUP4 PUSH1 0x4 DUP4 ADD MSTORE PUSH1 0x24 DUP3 ADD MSTORE PUSH1 0x20 DUP2 PUSH1 0x44 DUP2 PUSH20 0x0 GAS DELEGATECALL SWAP1 DUP2 ISZERO PUSH2 0x9C6 JUMPI DUP6 SWAP2 PUSH2 0x15A6 JUMPI JUMPDEST POP DUP2 PUSH2 0x14B1 JUMPI PUSH2 0x1430 DUP2 DUP5 PUSH2 0x46FE JUMP JUMPDEST CALLVALUE SUB PUSH2 0xB1F JUMPI CALLER DUP6 MSTORE PUSH1 0x1 PUSH1 0x20 MSTORE PUSH1 0x40 DUP6 KECCAK256 PUSH0 DUP1 MSTORE PUSH1 0x20 MSTORE PUSH1 0x40 PUSH0 KECCAK256 PUSH2 0x1457 DUP5 DUP3 SLOAD PUSH2 0x46FE JUMP JUMPDEST SWAP1 SSTORE PUSH1 0x1 DUP1 PUSH1 0xA0 SHL SUB PUSH1 0x3 SLOAD AND DUP6 MSTORE PUSH1 0x1 PUSH1 0x20 MSTORE PUSH1 0x40 DUP6 KECCAK256 PUSH0 DUP1 MSTORE PUSH1 0x20 MSTORE PUSH1 0x40 PUSH0 KECCAK256 PUSH2 0x1484 DUP3 DUP3 SLOAD PUSH2 0x46FE JUMP JUMPDEST SWAP1 SSTORE JUMPDEST PUSH1 0x40 MLOAD SWAP3 DUP4 MSTORE PUSH1 0x20 DUP4 ADD MSTORE PUSH1 0x40 DUP3 ADD MSTORE PUSH0 MLOAD PUSH1 0x20 PUSH2 0x4996 PUSH0 CODECOPY PUSH0 MLOAD SWAP1 PUSH0 MSTORE PUSH1 0x60 CALLER SWAP3 LOG2 PUSH0 DUP1 PUSH2 0x12DE JUMP JUMPDEST PUSH2 0x14BB DUP2 DUP5 PUSH2 0x46FE JUMP JUMPDEST PUSH1 0x40 MLOAD SWAP1 PUSH4 0x23B872DD PUSH1 0xE0 SHL DUP3 MSTORE CALLER PUSH1 0x4 DUP4 ADD MSTORE ADDRESS PUSH1 0x24 DUP4 ADD MSTORE PUSH1 0x44 DUP3 ADD MSTORE PUSH1 0x20 DUP2 PUSH1 0x64 DUP2 DUP10 DUP8 GAS CALL SWAP1 DUP2 ISZERO PUSH2 0x159B JUMPI DUP7 SWAP2 PUSH2 0x155D JUMPI JUMPDEST POP ISZERO PUSH2 0xC1B JUMPI CALLER DUP6 MSTORE PUSH1 0x1 PUSH1 0x20 MSTORE PUSH1 0x40 DUP6 KECCAK256 PUSH1 0x1 DUP1 PUSH1 0xA0 SHL SUB DUP4 AND PUSH0 MSTORE PUSH1 0x20 MSTORE PUSH1 0x40 PUSH0 KECCAK256 PUSH2 0x1521 DUP5 DUP3 SLOAD PUSH2 0x46FE JUMP JUMPDEST SWAP1 SSTORE PUSH1 0x1 DUP1 PUSH1 0xA0 SHL SUB PUSH1 0x3 SLOAD AND DUP6 MSTORE PUSH1 0x1 PUSH1 0x20 MSTORE PUSH1 0x40 DUP6 KECCAK256 PUSH1 0x1 DUP1 PUSH1 0xA0 SHL SUB DUP4 AND PUSH0 MSTORE PUSH1 0x20 MSTORE PUSH1 0x40 PUSH0 KECCAK256 PUSH2 0x1556 DUP3 DUP3 SLOAD PUSH2 0x46FE JUMP JUMPDEST SWAP1 SSTORE PUSH2 0x1487 JUMP JUMPDEST SWAP1 POP PUSH1 0x20 DUP2 RETURNDATASIZE PUSH1 0x20 GT PUSH2 0x1593 JUMPI JUMPDEST DUP2 PUSH2 0x1578 PUSH1 0x20 SWAP4 DUP4 PUSH2 0x4221 JUMP JUMPDEST DUP2 ADD SUB SLT PUSH2 0x158F JUMPI PUSH2 0x1589 SWAP1 PUSH2 0x4257 JUMP JUMPDEST PUSH0 PUSH2 0x14F2 JUMP JUMPDEST DUP6 DUP1 REVERT JUMPDEST RETURNDATASIZE SWAP2 POP PUSH2 0x156B JUMP JUMPDEST PUSH1 0x40 MLOAD RETURNDATASIZE DUP9 DUP3 RETURNDATACOPY RETURNDATASIZE SWAP1 REVERT JUMPDEST SWAP1 POP PUSH1 0x20 DUP2 RETURNDATASIZE PUSH1 0x20 GT PUSH2 0x15D0 JUMPI JUMPDEST DUP2 PUSH2 0x15C1 PUSH1 0x20 SWAP4 DUP4 PUSH2 0x4221 JUMP JUMPDEST DUP2 ADD SUB SLT PUSH2 0x447 JUMPI MLOAD PUSH0 PUSH2 0x1420 JUMP JUMPDEST RETURNDATASIZE SWAP2 POP PUSH2 0x15B4 JUMP JUMPDEST PUSH1 0xFF SWAP2 POP PUSH1 0xA8 SHR AND ISZERO PUSH0 PUSH2 0x12A0 JUMP JUMPDEST POP PUSH2 0x15F1 CALLDATASIZE PUSH2 0x3FCB JUMP JUMPDEST SWAP1 DUP1 DUP4 MSTORE PUSH1 0x4 PUSH1 0x20 MSTORE PUSH1 0x40 DUP4 KECCAK256 SWAP3 PUSH1 0x1 DUP1 PUSH1 0xA0 SHL SUB DUP5 SLOAD AND CALLER SUB PUSH2 0x1964 JUMPI PUSH20 0x0 DUP1 EXTCODESIZE ISZERO PUSH2 0x4C2 JUMPI DUP2 PUSH1 0x40 MLOAD DUP1 SWAP3 PUSH4 0x252A867 PUSH1 0xE5 SHL DUP3 MSTORE DUP2 DUP1 PUSH2 0x164A DUP11 PUSH1 0x4 DUP4 ADD PUSH2 0x444F JUMP JUMPDEST SUB SWAP2 GAS DELEGATECALL DUP1 ISZERO PUSH2 0x4B7 JUMPI SWAP1 DUP3 SWAP2 PUSH2 0x194F JUMPI JUMPDEST POP POP PUSH1 0x9 DUP5 ADD DUP1 SLOAD CALLER PUSH0 SWAP1 DUP2 MSTORE PUSH1 0x1 PUSH1 0x20 SWAP1 DUP2 MSTORE PUSH1 0x40 DUP1 DUP4 KECCAK256 PUSH1 0x1 PUSH1 0x1 PUSH1 0xA0 SHL SUB SWAP1 SWAP5 AND DUP1 DUP5 MSTORE SWAP4 SWAP1 SWAP2 MSTORE SWAP1 KECCAK256 SLOAD SWAP2 SWAP3 SWAP1 SWAP2 DUP6 DUP2 LT PUSH2 0x1736 JUMPI JUMPDEST POP PUSH1 0x40 SWAP2 POP CALLER DUP2 MSTORE PUSH1 0x1 PUSH1 0x20 MSTORE KECCAK256 SWAP1 PUSH1 0x1 DUP1 PUSH1 0xA0 SHL SUB SWAP1 SLOAD AND PUSH1 0x1 DUP1 PUSH1 0xA0 SHL SUB AND PUSH0 MSTORE PUSH1 0x20 MSTORE PUSH1 0x40 PUSH0 KECCAK256 PUSH2 0x16CB DUP4 DUP3 SLOAD PUSH2 0x41CF JUMP JUMPDEST SWAP1 SSTORE PUSH1 0x5 DUP4 ADD PUSH2 0x16DC DUP4 DUP3 SLOAD PUSH2 0x46FE JUMP JUMPDEST SWAP1 SSTORE DUP3 SLOAD PUSH1 0x1 DUP5 ADD SLOAD PUSH1 0x2 SWAP1 SWAP5 ADD SLOAD PUSH1 0x40 DUP1 MLOAD PUSH1 0x1 PUSH1 0x1 PUSH1 0xA0 SHL SUB SWAP3 DUP4 AND DUP2 MSTORE PUSH1 0x20 DUP2 ADD SWAP6 SWAP1 SWAP6 MSTORE SWAP5 DUP2 AND SWAP5 SWAP2 AND SWAP3 PUSH32 0x3C0DD30126238EAEBBB306E073222EECD03A091D41C39A4B2742759D406C8F55 SWAP2 DUP2 SWAP1 DUP2 ADD PUSH2 0xEA4 JUMP JUMPDEST PUSH2 0x1740 SWAP1 DUP7 PUSH2 0x41CF JUMP JUMPDEST PUSH2 0x1750 PUSH1 0xFF DUP4 SLOAD PUSH1 0xA0 SHR AND PUSH2 0x4140 JUMP JUMPDEST DUP1 ISZERO PUSH2 0xD01 JUMPI PUSH1 0x2 SLOAD SWAP3 PUSH1 0x40 MLOAD SWAP4 PUSH4 0x1C8F0847 PUSH1 0xE0 SHL DUP6 MSTORE DUP3 PUSH1 0x4 DUP7 ADD MSTORE PUSH1 0x24 DUP6 ADD MSTORE PUSH1 0x20 DUP5 PUSH1 0x44 DUP2 PUSH20 0x0 GAS DELEGATECALL SWAP4 DUP5 ISZERO PUSH2 0x10D3 JUMPI DUP4 SWAP5 PUSH2 0x191B JUMPI JUMPDEST POP DUP1 PUSH2 0x182B JUMPI PUSH2 0x17AE DUP5 DUP4 PUSH2 0x46FE JUMP JUMPDEST CALLVALUE SUB PUSH2 0xB1F JUMPI PUSH1 0x40 SWAP4 CALLER DUP5 MSTORE PUSH1 0x1 PUSH1 0x20 MSTORE DUP5 DUP5 KECCAK256 PUSH0 DUP1 MSTORE PUSH1 0x20 MSTORE DUP5 PUSH0 KECCAK256 PUSH2 0x17D6 DUP5 DUP3 SLOAD PUSH2 0x46FE JUMP JUMPDEST SWAP1 SSTORE PUSH1 0x1 DUP1 PUSH1 0xA0 SHL SUB PUSH1 0x3 SLOAD AND DUP5 MSTORE PUSH1 0x1 PUSH1 0x20 MSTORE DUP5 DUP5 KECCAK256 PUSH0 DUP1 MSTORE PUSH1 0x20 MSTORE DUP5 PUSH0 KECCAK256 PUSH2 0x1801 DUP3 DUP3 SLOAD PUSH2 0x46FE JUMP JUMPDEST SWAP1 SSTORE JUMPDEST DUP5 MLOAD SWAP3 DUP4 MSTORE PUSH1 0x20 DUP4 ADD MSTORE DUP4 DUP3 ADD MSTORE PUSH0 MLOAD PUSH1 0x20 PUSH2 0x4996 PUSH0 CODECOPY PUSH0 MLOAD SWAP1 PUSH0 MSTORE PUSH1 0x60 CALLER SWAP3 LOG2 PUSH0 PUSH2 0x1696 JUMP JUMPDEST PUSH2 0x1835 DUP5 DUP4 PUSH2 0x46FE JUMP JUMPDEST PUSH1 0x40 MLOAD SWAP1 PUSH4 0x23B872DD PUSH1 0xE0 SHL DUP3 MSTORE CALLER PUSH1 0x4 DUP4 ADD MSTORE ADDRESS PUSH1 0x24 DUP4 ADD MSTORE PUSH1 0x44 DUP3 ADD MSTORE PUSH1 0x20 DUP2 PUSH1 0x64 DUP2 DUP8 DUP7 GAS CALL SWAP1 DUP2 ISZERO PUSH2 0x1910 JUMPI DUP5 SWAP2 PUSH2 0x18D6 JUMPI JUMPDEST POP ISZERO PUSH2 0xC1B JUMPI PUSH1 0x40 SWAP4 CALLER DUP5 MSTORE PUSH1 0x1 PUSH1 0x20 MSTORE DUP5 DUP5 KECCAK256 PUSH1 0x1 DUP1 PUSH1 0xA0 SHL SUB DUP4 AND PUSH0 MSTORE PUSH1 0x20 MSTORE DUP5 PUSH0 KECCAK256 PUSH2 0x189C DUP5 DUP3 SLOAD PUSH2 0x46FE JUMP JUMPDEST SWAP1 SSTORE PUSH1 0x1 DUP1 PUSH1 0xA0 SHL SUB PUSH1 0x3 SLOAD AND DUP5 MSTORE PUSH1 0x1 PUSH1 0x20 MSTORE DUP5 DUP5 KECCAK256 PUSH1 0x1 DUP1 PUSH1 0xA0 SHL SUB DUP4 AND PUSH0 MSTORE PUSH1 0x20 MSTORE DUP5 PUSH0 KECCAK256 PUSH2 0x18CF DUP3 DUP3 SLOAD PUSH2 0x46FE JUMP JUMPDEST SWAP1 SSTORE PUSH2 0x1804 JUMP JUMPDEST SWAP1 POP PUSH1 0x20 DUP2 RETURNDATASIZE PUSH1 0x20 GT PUSH2 0x1908 JUMPI JUMPDEST DUP2 PUSH2 0x18F1 PUSH1 0x20 SWAP4 DUP4 PUSH2 0x4221 JUMP JUMPDEST DUP2 ADD SUB SLT PUSH2 0x4B3 JUMPI PUSH2 0x1902 SWAP1 PUSH2 0x4257 JUMP JUMPDEST PUSH0 PUSH2 0x186C JUMP JUMPDEST RETURNDATASIZE SWAP2 POP PUSH2 0x18E4 JUMP JUMPDEST PUSH1 0x40 MLOAD RETURNDATASIZE DUP7 DUP3 RETURNDATACOPY RETURNDATASIZE SWAP1 REVERT JUMPDEST SWAP1 SWAP4 POP PUSH1 0x20 DUP2 RETURNDATASIZE PUSH1 0x20 GT PUSH2 0x1947 JUMPI JUMPDEST DUP2 PUSH2 0x1937 PUSH1 0x20 SWAP4 DUP4 PUSH2 0x4221 JUMP JUMPDEST DUP2 ADD SUB SLT PUSH2 0x447 JUMPI MLOAD SWAP3 PUSH0 PUSH2 0x179E JUMP JUMPDEST RETURNDATASIZE SWAP2 POP PUSH2 0x192A JUMP JUMPDEST DUP2 PUSH2 0x1959 SWAP2 PUSH2 0x4221 JUMP JUMPDEST PUSH2 0x539 JUMPI DUP1 PUSH0 PUSH2 0x165C JUMP JUMPDEST PUSH1 0x40 MLOAD PUSH3 0x461BCD PUSH1 0xE5 SHL DUP2 MSTORE PUSH1 0x20 PUSH1 0x4 DUP3 ADD MSTORE PUSH1 0x25 PUSH1 0x24 DUP3 ADD MSTORE PUSH32 0x4F6E6C79206120696E69746174696F722063616E2063616C6C2074686973206D PUSH1 0x44 DUP3 ADD MSTORE PUSH5 0x195D1A1BD9 PUSH1 0xDA SHL PUSH1 0x64 DUP3 ADD MSTORE PUSH1 0x84 SWAP1 REVERT JUMPDEST POP CALLVALUE PUSH2 0x539 JUMPI DUP1 PUSH1 0x3 NOT CALLDATASIZE ADD SLT PUSH2 0x539 JUMPI PUSH1 0x20 PUSH1 0x5 SLOAD PUSH1 0x40 MLOAD SWAP1 DUP2 MSTORE RETURN JUMPDEST POP CALLVALUE PUSH2 0x539 JUMPI PUSH1 0x20 CALLDATASIZE PUSH1 0x3 NOT ADD SLT PUSH2 0x539 JUMPI PUSH1 0x4 CALLDATALOAD DUP1 DUP3 MSTORE PUSH1 0x4 PUSH1 0x20 MSTORE PUSH1 0x40 DUP3 KECCAK256 SWAP1 PUSH0 MLOAD PUSH1 0x20 PUSH2 0x49B6 PUSH0 CODECOPY PUSH0 MLOAD SWAP1 PUSH0 MSTORE PUSH2 0xEA4 PUSH1 0x1 DUP5 ADD SWAP4 PUSH1 0x1 DUP1 PUSH1 0xA0 SHL SUB DUP6 SLOAD AND CALLER EQ DUP1 ISZERO PUSH2 0x1AC8 JUMPI JUMPDEST PUSH2 0x1A29 SWAP1 PUSH2 0x4774 JUMP JUMPDEST PUSH1 0x2 DUP2 ADD SWAP6 PUSH2 0x1A4A DUP8 SLOAD PUSH1 0xFF DUP2 PUSH1 0xB8 SHR AND ISZERO DUP1 PUSH2 0x1ABA JUMPI JUMPDEST PUSH2 0x1291 SWAP1 PUSH2 0x47CF JUMP JUMPDEST PUSH1 0x5 DUP3 ADD SLOAD DUP3 SLOAD PUSH1 0x1 PUSH1 0x1 PUSH1 0xA0 SHL SUB SWAP1 DUP2 AND DUP4 MSTORE PUSH1 0x1 PUSH1 0x20 SWAP1 DUP2 MSTORE PUSH1 0x40 SWAP4 DUP5 SWAP1 KECCAK256 PUSH1 0x9 DUP7 ADD SLOAD SWAP1 SWAP3 AND PUSH0 SWAP1 DUP2 MSTORE SWAP2 SWAP1 MSTORE SWAP2 SWAP1 SWAP2 KECCAK256 DUP1 SLOAD SWAP1 SWAP2 PUSH2 0x1A8B SWAP2 PUSH2 0x46FE JUMP JUMPDEST SWAP1 SSTORE SLOAD SWAP4 SLOAD SWAP5 SLOAD PUSH1 0x40 DUP1 MLOAD PUSH1 0x1 PUSH1 0x1 PUSH1 0xA0 SHL SUB SWAP3 DUP4 AND DUP2 MSTORE CALLER PUSH1 0x20 DUP3 ADD MSTORE SWAP7 DUP3 AND SWAP7 SWAP6 SWAP1 SWAP2 AND SWAP5 SWAP2 DUP3 SWAP2 DUP3 ADD SWAP1 JUMP JUMPDEST POP PUSH1 0xB0 DUP2 SWAP1 SHR PUSH1 0xFF AND PUSH2 0x1A41 JUMP JUMPDEST POP DUP1 SLOAD PUSH1 0x1 PUSH1 0x1 PUSH1 0xA0 SHL SUB AND CALLER EQ PUSH2 0x1A20 JUMP JUMPDEST POP CALLVALUE PUSH2 0x539 JUMPI DUP1 PUSH1 0x3 NOT CALLDATASIZE ADD SLT PUSH2 0x539 JUMPI SLOAD PUSH1 0x40 MLOAD PUSH1 0x1 PUSH1 0x1 PUSH1 0xA0 SHL SUB SWAP1 SWAP2 AND DUP2 MSTORE PUSH1 0x20 SWAP1 RETURN JUMPDEST POP CALLVALUE PUSH2 0x539 JUMPI DUP1 PUSH1 0x3 NOT CALLDATASIZE ADD SLT PUSH2 0x539 JUMPI PUSH1 0x20 PUSH1 0x2 SLOAD PUSH1 0x40 MLOAD SWAP1 DUP2 MSTORE RETURN JUMPDEST POP CALLVALUE PUSH2 0x539 JUMPI DUP1 PUSH1 0x3 NOT CALLDATASIZE ADD SLT PUSH2 0x539 JUMPI PUSH2 0x1B39 PUSH2 0x494F JUMP JUMPDEST DUP1 SLOAD PUSH1 0xFF PUSH1 0xA0 SHL NOT AND DUP2 SSTORE PUSH1 0x40 MLOAD DUP2 DUP2 MSTORE PUSH32 0x17904E4FE7D59BB4603C7C045BC275A05DA9EA3A4AC007FC80FFFEAF119186D SWAP1 PUSH1 0x20 SWAP1 LOG1 CALLER PUSH32 0x793BC6423DD0257D64F9D47DB72FD4B2162F4541AA41740BA1C5FB5E2CD41BCD DUP3 DUP1 LOG2 DUP1 RETURN JUMPDEST POP CALLVALUE PUSH2 0x539 JUMPI PUSH1 0x20 CALLDATASIZE PUSH1 0x3 NOT ADD SLT PUSH2 0x539 JUMPI PUSH1 0x4 CALLDATALOAD DUP2 MSTORE PUSH1 0x4 PUSH1 0x20 MSTORE PUSH1 0x40 SWAP1 KECCAK256 PUSH1 0x1 PUSH1 0xA0 SHL PUSH1 0x1 SWAP1 SUB DUP2 SLOAD AND SWAP1 PUSH1 0x1 PUSH1 0xA0 SHL PUSH1 0x1 SWAP1 SUB PUSH1 0x1 DUP3 ADD SLOAD AND SWAP1 PUSH1 0x2 DUP2 ADD SLOAD PUSH1 0x3 DUP3 ADD SLOAD PUSH1 0x4 DUP4 ADD SLOAD PUSH1 0x5 DUP5 ADD SLOAD PUSH1 0x6 DUP6 ADD SLOAD PUSH1 0x7 DUP7 ADD SLOAD SWAP2 PUSH1 0x8 DUP8 ADD SLOAD SWAP4 PUSH1 0x1 PUSH1 0xA0 SHL PUSH1 0x1 SWAP1 SUB PUSH1 0x9 DUP10 ADD SLOAD AND SWAP6 PUSH1 0x1 PUSH1 0xA0 SHL PUSH1 0x1 SWAP1 SUB PUSH1 0xA DUP11 ADD SLOAD AND SWAP8 PUSH1 0xB DUP11 ADD SLOAD SWAP10 PUSH1 0xC ADD SLOAD PUSH1 0xFF AND SWAP11 PUSH1 0x40 MLOAD SWAP13 DUP14 MSTORE PUSH1 0x20 DUP14 ADD MSTORE PUSH1 0x1 PUSH1 0xA0 SHL PUSH1 0x1 SWAP1 SUB DUP2 AND PUSH1 0x40 DUP14 ADD MSTORE DUP1 PUSH1 0xA0 SHR PUSH1 0xFF AND ISZERO ISZERO PUSH1 0x60 DUP14 ADD MSTORE DUP1 PUSH1 0xA8 SHR PUSH1 0xFF AND ISZERO ISZERO PUSH1 0x80 DUP14 ADD MSTORE DUP1 PUSH1 0xB0 SHR PUSH1 0xFF AND ISZERO ISZERO PUSH1 0xA0 DUP14 ADD MSTORE PUSH1 0xB8 SHR PUSH1 0xFF AND ISZERO ISZERO PUSH1 0xC0 DUP13 ADD MSTORE PUSH1 0xE0 DUP12 ADD MSTORE PUSH2 0x100 DUP11 ADD MSTORE PUSH2 0x120 DUP10 ADD MSTORE PUSH2 0x140 DUP9 ADD MSTORE PUSH2 0x160 DUP8 ADD MSTORE PUSH2 0x180 DUP7 ADD MSTORE PUSH2 0x1A0 DUP6 ADD MSTORE PUSH2 0x1C0 DUP5 ADD MSTORE PUSH2 0x1E0 DUP4 ADD MSTORE PUSH2 0x200 DUP3 ADD PUSH2 0x1CBD SWAP2 PUSH2 0x4044 JUMP JUMPDEST PUSH2 0x220 SWAP1 RETURN JUMPDEST POP CALLVALUE PUSH2 0x539 JUMPI PUSH1 0x20 CALLDATASIZE PUSH1 0x3 NOT ADD SLT PUSH2 0x539 JUMPI PUSH1 0x40 PUSH1 0x4 CALLDATALOAD SWAP2 DUP3 DUP2 MSTORE PUSH1 0x4 PUSH1 0x20 MSTORE KECCAK256 SWAP1 PUSH1 0x1 DUP3 ADD SWAP1 PUSH1 0x1 DUP1 PUSH1 0xA0 SHL SUB DUP3 SLOAD AND CALLER EQ DUP1 ISZERO PUSH2 0x1D89 JUMPI JUMPDEST PUSH2 0x1D06 SWAP1 PUSH2 0x4774 JUMP JUMPDEST PUSH0 MLOAD PUSH1 0x20 PUSH2 0x49B6 PUSH0 CODECOPY PUSH0 MLOAD SWAP1 PUSH0 MSTORE PUSH2 0xEA4 PUSH1 0x2 DUP6 ADD SWAP5 PUSH2 0x1D37 DUP7 SLOAD PUSH1 0xFF DUP2 PUSH1 0xB8 SHR AND ISZERO DUP1 PUSH2 0x1ABA JUMPI PUSH2 0x1291 SWAP1 PUSH2 0x47CF JUMP JUMPDEST DUP1 SLOAD PUSH1 0x9 DUP3 ADD SLOAD PUSH1 0x5 DUP4 ADD SLOAD PUSH2 0x1D5B SWAP3 SWAP1 SWAP2 PUSH1 0x1 PUSH1 0x1 PUSH1 0xA0 SHL SUB SWAP1 DUP2 AND SWAP2 AND PUSH2 0x481B JUMP JUMPDEST POP SLOAD SWAP4 SLOAD SWAP5 SLOAD PUSH1 0x40 DUP1 MLOAD PUSH1 0x1 PUSH1 0x1 PUSH1 0xA0 SHL SUB SWAP3 DUP4 AND DUP2 MSTORE CALLER PUSH1 0x20 DUP3 ADD MSTORE SWAP7 DUP3 AND SWAP7 SWAP6 SWAP1 SWAP2 AND SWAP5 SWAP2 DUP3 SWAP2 DUP3 ADD SWAP1 JUMP JUMPDEST POP DUP3 SLOAD PUSH1 0x1 PUSH1 0x1 PUSH1 0xA0 SHL SUB AND CALLER EQ PUSH2 0x1CFD JUMP JUMPDEST POP CALLVALUE PUSH2 0x539 JUMPI PUSH2 0x1DAB CALLDATASIZE PUSH2 0x3FCB JUMP JUMPDEST SWAP1 DUP1 DUP4 MSTORE PUSH1 0x4 PUSH1 0x20 MSTORE PUSH1 0x40 DUP4 KECCAK256 SWAP3 PUSH1 0x1 DUP5 ADD SWAP3 PUSH1 0x1 DUP1 PUSH1 0xA0 SHL SUB DUP5 SLOAD AND CALLER EQ DUP1 ISZERO PUSH2 0x1F70 JUMPI JUMPDEST PUSH2 0x1DDA SWAP1 PUSH2 0x470B JUMP JUMPDEST PUSH20 0x0 DUP1 EXTCODESIZE ISZERO PUSH2 0x10C7 JUMPI DUP3 PUSH1 0x40 MLOAD DUP1 SWAP3 PUSH4 0x252A867 PUSH1 0xE5 SHL DUP3 MSTORE DUP2 DUP1 PUSH2 0x1E15 DUP12 PUSH1 0x4 DUP4 ADD PUSH2 0x444F JUMP JUMPDEST SUB SWAP2 GAS DELEGATECALL DUP1 ISZERO PUSH2 0x10D3 JUMPI SWAP1 DUP4 SWAP2 PUSH2 0x1F5B JUMPI JUMPDEST POP POP PUSH1 0x6 DUP6 ADD PUSH2 0x1E43 DUP3 DUP3 SLOAD PUSH2 0x1E3E DUP3 DUP3 LT PUSH2 0x418C JUMP JUMPDEST PUSH2 0x41CF JUMP JUMPDEST SWAP1 SSTORE PUSH1 0x1 DUP1 PUSH1 0xA0 SHL SUB PUSH1 0xA DUP7 ADD SLOAD AND SWAP5 PUSH1 0x8 DUP2 ADD SLOAD PUSH1 0x40 MLOAD SWAP1 PUSH4 0x1C8F0847 PUSH1 0xE0 SHL DUP3 MSTORE DUP4 PUSH1 0x4 DUP4 ADD MSTORE PUSH1 0x24 DUP3 ADD MSTORE PUSH1 0x20 DUP2 PUSH1 0x44 DUP2 PUSH20 0x0 GAS DELEGATECALL SWAP4 DUP5 ISZERO PUSH2 0xCB6 JUMPI SWAP4 PUSH2 0x1F25 JUMPI JUMPDEST POP DUP1 SLOAD PUSH32 0x8AF39814826D4542F7FE66E6FA6AC2AC59BFC8221394F51A41DBA5C54DBA0AC9 SWAP4 SWAP2 PUSH2 0xEA4 SWAP2 PUSH2 0x1EE3 SWAP1 PUSH1 0x1 PUSH1 0x1 PUSH1 0xA0 SHL SUB AND DUP10 PUSH2 0x1EDD DUP7 DUP9 PUSH2 0x41CF JUMP JUMPDEST SWAP2 PUSH2 0x481B JUMP JUMPDEST POP PUSH2 0x1EFC DUP4 PUSH1 0x2 DUP4 ADD SWAP10 PUSH1 0x1 DUP1 PUSH1 0xA0 SHL SUB DUP12 SLOAD AND PUSH2 0x481B JUMP JUMPDEST POP SLOAD SWAP6 SLOAD SWAP7 SLOAD PUSH1 0x40 MLOAD PUSH1 0x1 PUSH1 0x1 PUSH1 0xA0 SHL SUB SWAP9 DUP10 AND SWAP9 SWAP8 DUP9 AND SWAP8 SWAP1 SWAP5 DUP6 SWAP5 SWAP3 SWAP1 SWAP2 CALLER SWAP2 AND DUP6 PUSH2 0x4534 JUMP JUMPDEST SWAP3 POP PUSH1 0x20 DUP4 RETURNDATASIZE PUSH1 0x20 GT PUSH2 0x1F53 JUMPI JUMPDEST DUP2 PUSH2 0x1F40 PUSH1 0x20 SWAP4 DUP4 PUSH2 0x4221 JUMP JUMPDEST DUP2 ADD SUB SLT PUSH2 0x447 JUMPI SWAP2 MLOAD SWAP2 PUSH2 0xEA4 PUSH2 0x1E9B JUMP JUMPDEST RETURNDATASIZE SWAP2 POP PUSH2 0x1F33 JUMP JUMPDEST DUP2 PUSH2 0x1F65 SWAP2 PUSH2 0x4221 JUMP JUMPDEST PUSH2 0x4C2 JUMPI DUP2 PUSH0 PUSH2 0x1E27 JUMP JUMPDEST POP PUSH1 0x2 DUP6 ADD SLOAD PUSH1 0x1 PUSH1 0x1 PUSH1 0xA0 SHL SUB AND CALLER EQ PUSH2 0x1DD1 JUMP JUMPDEST POP CALLVALUE PUSH2 0x539 JUMPI DUP1 PUSH1 0x3 NOT CALLDATASIZE ADD SLT PUSH2 0x539 JUMPI PUSH2 0x1F9F PUSH2 0x494F JUMP JUMPDEST DUP1 SLOAD PUSH1 0x1 PUSH1 0x1 PUSH1 0xA0 SHL SUB NOT DUP2 AND DUP3 SSTORE DUP2 SWAP1 PUSH1 0x1 PUSH1 0x1 PUSH1 0xA0 SHL SUB AND PUSH32 0x8BE0079C531659141344CD1FD0A4F28419497F9722A3DAAFE3B4186F6B6457E0 DUP3 DUP1 LOG3 DUP1 RETURN JUMPDEST POP CALLVALUE PUSH2 0x539 JUMPI PUSH1 0x20 CALLDATASIZE PUSH1 0x3 NOT ADD SLT PUSH2 0x539 JUMPI PUSH1 0x40 SWAP1 PUSH1 0x1 PUSH1 0x1 PUSH1 0xA0 SHL SUB PUSH2 0x2005 PUSH2 0x3F33 JUMP JUMPDEST AND DUP2 MSTORE PUSH1 0x1 PUSH1 0x20 MSTORE KECCAK256 PUSH0 DUP1 MSTORE PUSH1 0x20 MSTORE PUSH1 0x20 PUSH1 0x40 PUSH0 KECCAK256 SLOAD PUSH1 0x40 MLOAD SWAP1 DUP2 MSTORE RETURN JUMPDEST POP CALLVALUE PUSH2 0x539 JUMPI PUSH1 0x20 CALLDATASIZE PUSH1 0x3 NOT ADD SLT PUSH2 0x539 JUMPI PUSH1 0x4 CALLDATALOAD DUP1 DUP3 MSTORE PUSH1 0x4 PUSH1 0x20 MSTORE PUSH1 0x40 DUP3 KECCAK256 SWAP1 PUSH1 0x1 DUP3 ADD SWAP2 PUSH1 0x1 DUP1 PUSH1 0xA0 SHL SUB DUP4 SLOAD AND CALLER EQ DUP1 ISZERO PUSH2 0x2785 JUMPI JUMPDEST DUP1 ISZERO PUSH2 0x276F JUMPI JUMPDEST ISZERO PUSH2 0x271C JUMPI PUSH1 0x2 DUP2 ADD SWAP4 DUP5 SLOAD PUSH1 0xFF DUP2 PUSH1 0xB8 SHR AND ISZERO PUSH2 0x26E3 JUMPI DUP1 PUSH1 0xFF PUSH2 0x2094 SWAP3 PUSH1 0xA0 SHR AND ISZERO SWAP1 DUP2 PUSH2 0x15D8 JUMPI POP PUSH2 0x46B2 JUMP JUMPDEST PUSH1 0xB DUP3 ADD SLOAD TIMESTAMP LT PUSH2 0x26A9 JUMPI PUSH1 0xFF PUSH1 0xC DUP4 ADD SLOAD AND PUSH1 0x5 DUP4 ADD SLOAD PUSH1 0x1 DUP1 PUSH1 0xA0 SHL SUB PUSH1 0x9 DUP6 ADD SLOAD AND PUSH1 0x6 DUP6 ADD SLOAD SWAP2 PUSH1 0x1 DUP1 PUSH1 0xA0 SHL SUB PUSH1 0xA DUP8 ADD SLOAD AND SWAP1 PUSH1 0x7 DUP8 ADD SLOAD SWAP5 PUSH1 0x8 DUP9 ADD SLOAD SWAP7 PUSH20 0x0 SWAP8 PUSH1 0x40 MLOAD SWAP8 PUSH4 0x1C8F0847 PUSH1 0xE0 SHL DUP10 MSTORE DUP5 PUSH1 0x4 DUP11 ADD MSTORE PUSH1 0x24 DUP10 ADD MSTORE PUSH1 0x20 DUP9 PUSH1 0x44 DUP2 DUP13 GAS DELEGATECALL SWAP8 DUP9 ISZERO PUSH2 0x4B7 JUMPI DUP3 SWAP9 PUSH2 0x2674 JUMPI JUMPDEST POP PUSH1 0x20 SWAP1 PUSH1 0x44 PUSH1 0x40 MLOAD DUP1 SWAP12 DUP2 SWAP4 PUSH4 0x1C8F0847 PUSH1 0xE0 SHL DUP4 MSTORE DUP12 PUSH1 0x4 DUP5 ADD MSTORE PUSH1 0x24 DUP4 ADD MSTORE GAS DELEGATECALL SWAP8 DUP9 ISZERO PUSH2 0x2667 JUMPI DUP2 SWAP9 PUSH2 0x2633 JUMPI JUMPDEST POP PUSH1 0x6 DUP3 LT ISZERO PUSH2 0x261F JUMPI SWAP2 PUSH1 0x4 DUP3 DUP5 DUP15 DUP15 DUP15 DUP10 PUSH0 MLOAD PUSH1 0x20 PUSH2 0x49B6 PUSH0 CODECOPY PUSH0 MLOAD SWAP1 PUSH0 MSTORE SWAP16 SWAP14 SWAP12 PUSH2 0xEA4 SWAP16 SWAP14 SWAP12 SWAP10 DUP16 DUP16 SWAP1 DUP16 SWAP3 DUP16 DUP6 SWAP16 DUP9 DUP16 DUP6 DUP5 DUP10 DUP16 DUP16 DUP14 DUP16 SWAP9 PUSH1 0x1 DUP13 DUP16 SWAP3 DUP8 DUP12 SWAP16 DUP14 DUP16 DUP13 DUP16 DUP16 DUP13 DUP12 SWAP5 DUP16 SWAP3 DUP15 SWAP9 ISZERO PUSH2 0x2554 JUMPI JUMPDEST PUSH1 0x2 DUP13 EQ PUSH2 0x248D JUMPI JUMPDEST POP POP POP POP POP POP POP POP POP POP POP EQ PUSH2 0x23A5 JUMPI JUMPDEST POP POP POP POP POP POP POP POP POP POP PUSH1 0x3 DUP13 EQ PUSH2 0x230E JUMPI JUMPDEST POP POP POP POP POP POP POP POP POP POP POP EQ PUSH2 0x222C JUMPI JUMPDEST POP POP DUP10 SLOAD PUSH1 0x1 PUSH1 0xA8 SHL PUSH1 0xFF PUSH1 0xA8 SHL NOT DUP3 AND OR SWAP1 SWAP11 SSTORE POP POP SWAP2 SLOAD SWAP6 SLOAD PUSH1 0x40 DUP1 MLOAD PUSH1 0x1 PUSH1 0x1 PUSH1 0xA0 SHL SUB SWAP10 DUP11 AND DUP2 MSTORE CALLER PUSH1 0x20 DUP3 ADD MSTORE SWAP2 DUP10 AND SWAP9 SWAP1 SWAP8 AND SWAP7 SWAP1 SWAP4 DUP5 SWAP4 POP SWAP1 DUP4 ADD SWAP2 POP JUMP JUMPDEST DUP5 DUP4 PUSH2 0x226E PUSH2 0x2290 SWAP7 PUSH2 0x2253 PUSH2 0x227F SWAP6 DUP12 SWAP9 PUSH2 0x1EDD DUP8 PUSH1 0x1 DUP1 PUSH1 0xA0 SHL SUB PUSH1 0x3 SLOAD AND SWAP4 PUSH2 0x41CF JUMP JUMPDEST POP PUSH1 0x3 SLOAD PUSH1 0x1 PUSH1 0x1 PUSH1 0xA0 SHL SUB AND SWAP1 DUP7 SWAP1 PUSH2 0x1EDD SWAP1 DUP10 SWAP1 PUSH2 0x41CF JUMP JUMPDEST POP DUP14 SLOAD PUSH1 0x1 PUSH1 0x1 PUSH1 0xA0 SHL SUB AND PUSH2 0x481B JUMP JUMPDEST POP DUP11 SLOAD PUSH1 0x1 PUSH1 0x1 PUSH1 0xA0 SHL SUB AND PUSH2 0x481B JUMP JUMPDEST POP DUP3 SLOAD DUP8 SLOAD DUP10 SLOAD PUSH1 0x3 SLOAD PUSH1 0x40 DUP1 MLOAD PUSH1 0x1 PUSH1 0x1 PUSH1 0xA0 SHL SUB SWAP4 DUP5 AND DUP2 MSTORE CALLER PUSH1 0x20 DUP3 ADD MSTORE SWAP2 DUP4 AND SWAP1 DUP3 ADD MSTORE PUSH1 0x60 DUP2 ADD DUP6 SWAP1 MSTORE PUSH1 0x80 DUP2 ADD DUP7 SWAP1 MSTORE PUSH1 0xA0 DUP2 ADD SWAP5 SWAP1 SWAP5 MSTORE PUSH1 0xC0 DUP5 ADD SWAP5 SWAP1 SWAP5 MSTORE DUP4 AND SWAP3 AND SWAP1 DUP7 SWAP1 PUSH32 0x8E100DC3335E09B082C843425F71EA8AE9D91AE5BB385EF4B41D0D2C6AA87214 SWAP1 PUSH1 0xE0 SWAP1 LOG4 PUSH0 DUP1 DUP1 DUP1 DUP1 DUP1 PUSH2 0x21E6 JUMP JUMPDEST PUSH32 0x8E100DC3335E09B082C843425F71EA8AE9D91AE5BB385EF4B41D0D2C6AA87214 SWAP7 PUSH2 0x227F PUSH2 0x234A SWAP4 PUSH1 0xE0 SWAP9 DUP14 PUSH1 0x1 DUP1 PUSH1 0xA0 SHL SUB SWAP1 SLOAD AND PUSH2 0x481B JUMP JUMPDEST POP PUSH1 0x1 DUP1 PUSH1 0xA0 SHL SUB SWAP1 SLOAD AND SWAP6 PUSH1 0x1 DUP1 PUSH1 0xA0 SHL SUB SWAP1 SLOAD AND SWAP7 PUSH1 0x1 DUP1 PUSH1 0xA0 SHL SUB SWAP1 SLOAD AND SWAP2 PUSH1 0x40 MLOAD SWAP3 DUP1 DUP5 MSTORE CALLER PUSH1 0x20 DUP6 ADD MSTORE PUSH1 0x40 DUP5 ADD MSTORE PUSH1 0x60 DUP4 ADD MSTORE PUSH1 0x80 DUP3 ADD MSTORE DUP7 PUSH1 0xA0 DUP3 ADD MSTORE DUP7 PUSH1 0xC0 DUP3 ADD MSTORE LOG4 DUP15 DUP15 DUP15 DUP8 DUP10 DUP13 DUP16 DUP16 SWAP1 DUP12 DUP16 PUSH2 0x21D5 JUMP JUMPDEST PUSH0 MLOAD PUSH1 0x20 PUSH2 0x49D6 PUSH0 CODECOPY PUSH0 MLOAD SWAP1 PUSH0 MSTORE SWAP10 PUSH2 0x2422 PUSH32 0x8AF39814826D4542F7FE66E6FA6AC2AC59BFC8221394F51A41DBA5C54DBA0AC9 SWAP9 PUSH2 0x240C DUP9 DUP7 PUSH2 0x23FB DUP16 SWAP15 PUSH2 0x2433 SWAP10 PUSH2 0x1EDD DUP6 PUSH1 0x1 DUP1 PUSH1 0xA0 SHL SUB DUP10 SLOAD AND SWAP4 PUSH2 0x41CF JUMP JUMPDEST POP DUP10 SLOAD PUSH1 0x1 PUSH1 0x1 PUSH1 0xA0 SHL SUB AND PUSH2 0x481B JUMP JUMPDEST POP SLOAD PUSH1 0x1 PUSH1 0x1 PUSH1 0xA0 SHL SUB AND DUP3 PUSH2 0x1EDD DUP6 DUP12 PUSH2 0x41CF JUMP JUMPDEST POP DUP5 SLOAD PUSH1 0x1 PUSH1 0x1 PUSH1 0xA0 SHL SUB AND PUSH2 0x481B JUMP JUMPDEST POP DUP11 SLOAD SWAP1 SLOAD SWAP2 SLOAD PUSH1 0x40 MLOAD PUSH1 0x1 PUSH1 0x1 PUSH1 0xA0 SHL SUB SWAP4 DUP5 AND SWAP10 SWAP3 DUP5 AND SWAP9 SWAP2 SWAP1 SWAP4 AND SWAP4 DUP10 SWAP4 DUP10 SWAP4 SWAP2 DUP2 SWAP1 PUSH2 0x2466 SWAP1 DUP16 CALLER DUP11 DUP6 PUSH2 0x4534 JUMP JUMPDEST SUB SWAP1 LOG4 PUSH2 0x247B DUP11 PUSH1 0x40 MLOAD SWAP4 DUP5 SWAP4 CALLER SWAP1 DUP6 PUSH2 0x4534 JUMP JUMPDEST SUB SWAP1 LOG4 DUP7 DUP9 DUP4 DUP6 DUP5 DUP10 DUP16 DUP16 DUP14 DUP13 PUSH2 0x21C2 JUMP JUMPDEST PUSH2 0x24F7 PUSH0 MLOAD PUSH1 0x20 PUSH2 0x4976 PUSH0 CODECOPY PUSH0 MLOAD SWAP1 PUSH0 MSTORE SWAP8 DUP10 SWAP4 DUP16 DUP14 DUP14 PUSH2 0x23FB PUSH0 MLOAD PUSH1 0x20 PUSH2 0x49F6 PUSH0 CODECOPY PUSH0 MLOAD SWAP1 PUSH0 MSTORE SWAP16 DUP13 SWAP1 PUSH2 0x1EDD DUP6 DUP14 DUP9 PUSH2 0x24CF SWAP10 PUSH1 0xA0 SHL SUB SWAP1 SLOAD AND SWAP4 PUSH2 0x41CF JUMP JUMPDEST POP DUP16 DUP1 PUSH2 0x24E8 SWAP2 PUSH1 0xA0 SHL SUB DUP8 SLOAD AND DUP3 PUSH2 0x1EDD DUP6 DUP14 PUSH2 0x41CF JUMP JUMPDEST POP DUP16 DUP1 PUSH1 0xA0 SHL SUB DUP8 SLOAD AND PUSH2 0x481B JUMP JUMPDEST POP DUP13 DUP1 PUSH1 0xA0 SHL SUB SWAP1 SLOAD AND SWAP8 DUP9 SWAP3 DUP14 DUP1 PUSH1 0xA0 SHL SUB SWAP1 SLOAD AND SWAP10 DUP11 SWAP5 DUP15 DUP1 PUSH1 0xA0 SHL SUB SWAP1 SLOAD AND SWAP6 PUSH2 0x252B PUSH1 0x40 MLOAD SWAP3 DUP4 SWAP3 CALLER DUP11 DUP6 PUSH2 0x4534 JUMP JUMPDEST SUB SWAP1 LOG4 PUSH2 0x2540 DUP11 PUSH1 0x40 MLOAD SWAP4 DUP5 SWAP4 CALLER SWAP1 DUP6 PUSH2 0x4534 JUMP JUMPDEST SUB SWAP1 LOG4 DUP8 DUP6 DUP14 DUP16 DUP13 DUP16 DUP16 DUP13 DUP12 SWAP5 DUP16 SWAP3 PUSH2 0x21B1 JUMP JUMPDEST PUSH2 0x256B DUP14 DUP1 PUSH1 0xA0 SHL SUB DUP3 SLOAD AND DUP11 PUSH2 0x1EDD DUP14 DUP10 PUSH2 0x41CF JUMP JUMPDEST POP PUSH2 0x257F DUP11 DUP11 DUP16 DUP1 PUSH1 0xA0 SHL SUB DUP8 SLOAD AND PUSH2 0x481B JUMP JUMPDEST POP PUSH2 0x2597 DUP14 DUP1 PUSH1 0xA0 SHL SUB DUP5 SLOAD AND DUP4 PUSH2 0x1EDD DUP11 DUP11 PUSH2 0x41CF JUMP JUMPDEST POP PUSH2 0x25AB DUP8 DUP4 DUP16 DUP1 PUSH1 0xA0 SHL SUB DUP8 SLOAD AND PUSH2 0x481B JUMP JUMPDEST POP DUP10 DUP14 DUP1 PUSH1 0xA0 SHL SUB DUP3 SLOAD AND DUP10 DUP16 DUP10 DUP10 DUP10 DUP6 DUP6 PUSH0 MLOAD PUSH1 0x20 PUSH2 0x49D6 PUSH0 CODECOPY PUSH0 MLOAD SWAP1 PUSH0 MSTORE DUP7 PUSH0 MLOAD PUSH1 0x20 PUSH2 0x4976 PUSH0 CODECOPY PUSH0 MLOAD SWAP1 PUSH0 MSTORE SWAP8 PUSH1 0xA0 SHL SUB DUP14 SLOAD AND SWAP10 PUSH1 0x1 SWAP5 DUP6 DUP13 SWAP7 PUSH1 0xA0 SHL SUB SWAP1 SLOAD AND SWAP6 PUSH2 0x2602 PUSH1 0x40 MLOAD SWAP3 DUP4 SWAP3 CALLER DUP11 DUP6 PUSH2 0x4534 JUMP JUMPDEST SUB SWAP1 LOG4 PUSH2 0x2617 DUP14 PUSH1 0x40 MLOAD SWAP4 DUP5 SWAP4 CALLER SWAP1 DUP6 PUSH2 0x4534 JUMP JUMPDEST SUB SWAP1 LOG4 PUSH2 0x21A8 JUMP JUMPDEST PUSH4 0x4E487B71 PUSH1 0xE0 SHL DUP2 MSTORE PUSH1 0x21 PUSH1 0x4 MSTORE PUSH1 0x24 SWAP1 REVERT JUMPDEST SWAP1 SWAP8 POP PUSH1 0x20 DUP2 RETURNDATASIZE PUSH1 0x20 GT PUSH2 0x265F JUMPI JUMPDEST DUP2 PUSH2 0x264F PUSH1 0x20 SWAP4 DUP4 PUSH2 0x4221 JUMP JUMPDEST DUP2 ADD SUB SLT PUSH2 0x447 JUMPI MLOAD SWAP7 PUSH0 PUSH2 0x2151 JUMP JUMPDEST RETURNDATASIZE SWAP2 POP PUSH2 0x2642 JUMP JUMPDEST POP PUSH1 0x40 MLOAD SWAP1 RETURNDATASIZE SWAP1 DUP3 RETURNDATACOPY RETURNDATASIZE SWAP1 REVERT JUMPDEST SWAP1 SWAP8 POP PUSH1 0x20 DUP2 RETURNDATASIZE PUSH1 0x20 GT PUSH2 0x26A1 JUMPI JUMPDEST DUP2 PUSH2 0x2690 PUSH1 0x20 SWAP4 DUP4 PUSH2 0x4221 JUMP JUMPDEST DUP2 ADD SUB SLT PUSH2 0x447 JUMPI MLOAD SWAP7 PUSH1 0x20 PUSH2 0x211F JUMP JUMPDEST RETURNDATASIZE SWAP2 POP PUSH2 0x2683 JUMP JUMPDEST PUSH1 0x40 MLOAD PUSH3 0x461BCD PUSH1 0xE5 SHL DUP2 MSTORE PUSH1 0x20 PUSH1 0x4 DUP3 ADD MSTORE PUSH1 0x12 PUSH1 0x24 DUP3 ADD MSTORE PUSH18 0x1119585B081B9BDD08195E1C1A5C985D1959 PUSH1 0x72 SHL PUSH1 0x44 DUP3 ADD MSTORE PUSH1 0x64 SWAP1 REVERT JUMPDEST PUSH1 0x40 MLOAD PUSH3 0x461BCD PUSH1 0xE5 SHL DUP2 MSTORE PUSH1 0x20 PUSH1 0x4 DUP3 ADD MSTORE PUSH1 0x11 PUSH1 0x24 DUP3 ADD MSTORE PUSH17 0x1119585B081B5D5CDD081CDD185C9D1959 PUSH1 0x7A SHL PUSH1 0x44 DUP3 ADD MSTORE PUSH1 0x64 SWAP1 REVERT JUMPDEST PUSH1 0x40 MLOAD PUSH3 0x461BCD PUSH1 0xE5 SHL DUP2 MSTORE PUSH1 0x20 PUSH1 0x4 DUP3 ADD MSTORE PUSH1 0x25 PUSH1 0x24 DUP3 ADD MSTORE PUSH32 0x4F6E6C7920612070617274206F6620746865206465616C2063616E2072656A65 PUSH1 0x44 DUP3 ADD MSTORE PUSH5 0x18DD081A5D PUSH1 0xDA SHL PUSH1 0x64 DUP3 ADD MSTORE PUSH1 0x84 SWAP1 REVERT JUMPDEST POP PUSH1 0x2 DUP2 ADD SLOAD PUSH1 0x1 PUSH1 0x1 PUSH1 0xA0 SHL SUB AND CALLER EQ PUSH2 0x2064 JUMP JUMPDEST POP DUP1 SLOAD PUSH1 0x1 PUSH1 0x1 PUSH1 0xA0 SHL SUB AND CALLER EQ PUSH2 0x205D JUMP JUMPDEST POP CALLVALUE PUSH2 0x539 JUMPI PUSH1 0x20 CALLDATASIZE PUSH1 0x3 NOT ADD SLT PUSH2 0x539 JUMPI PUSH1 0x4 CALLDATALOAD DUP1 DUP3 MSTORE PUSH1 0x4 PUSH1 0x20 MSTORE PUSH1 0x40 DUP3 KECCAK256 PUSH1 0x1 DUP1 PUSH1 0xA0 SHL SUB DUP2 SLOAD AND CALLER EQ DUP1 ISZERO PUSH2 0x2B01 JUMPI JUMPDEST ISZERO PUSH2 0x2AA5 JUMPI DUP3 PUSH20 0x0 DUP1 EXTCODESIZE ISZERO PUSH2 0x4C2 JUMPI DUP2 PUSH1 0x40 MLOAD DUP1 SWAP3 PUSH4 0x252A867 PUSH1 0xE5 SHL DUP3 MSTORE DUP2 DUP1 PUSH2 0x280D DUP9 PUSH1 0x4 DUP4 ADD PUSH2 0x444F JUMP JUMPDEST SUB SWAP2 GAS DELEGATECALL DUP1 ISZERO PUSH2 0x4B7 JUMPI PUSH2 0x2A90 JUMPI JUMPDEST POP POP PUSH1 0x5 DUP2 ADD SLOAD PUSH1 0x9 DUP3 ADD SLOAD PUSH1 0x6 DUP4 ADD SLOAD PUSH1 0xA DUP5 ADD SLOAD PUSH1 0x7 DUP6 ADD SLOAD PUSH1 0x8 DUP7 ADD SLOAD PUSH1 0x40 MLOAD PUSH4 0x1C8F0847 PUSH1 0xE0 SHL DUP2 MSTORE PUSH1 0x4 DUP2 ADD DUP8 SWAP1 MSTORE PUSH1 0x24 DUP2 ADD SWAP3 SWAP1 SWAP3 MSTORE PUSH1 0x1 PUSH1 0x1 PUSH1 0xA0 SHL SUB SWAP5 DUP6 AND SWAP7 SWAP4 SWAP6 PUSH20 0x0 SWAP6 SWAP1 SWAP4 AND SWAP4 SWAP1 PUSH1 0x20 DUP4 PUSH1 0x44 DUP2 DUP10 GAS DELEGATECALL SWAP3 DUP4 ISZERO PUSH2 0x453 JUMPI DUP11 SWAP4 PUSH2 0x2A5B JUMPI JUMPDEST POP PUSH1 0x20 SWAP1 PUSH1 0x44 PUSH1 0x40 MLOAD DUP1 SWAP9 DUP2 SWAP4 PUSH4 0x1C8F0847 PUSH1 0xE0 SHL DUP4 MSTORE DUP12 PUSH1 0x4 DUP5 ADD MSTORE PUSH1 0x24 DUP4 ADD MSTORE GAS DELEGATECALL SWAP5 DUP6 ISZERO PUSH2 0x2A50 JUMPI DUP9 SWAP10 SWAP9 SWAP8 SWAP9 SWAP6 PUSH2 0x2A15 JUMPI JUMPDEST POP PUSH1 0x1 DUP2 ADD DUP1 SLOAD SWAP1 SWAP5 DUP9 SWAP5 SWAP4 SWAP3 SWAP2 PUSH1 0x1 PUSH1 0x1 PUSH1 0xA0 SHL SUB AND DUP11 PUSH2 0x28F0 DUP6 DUP8 PUSH2 0x41CF JUMP JUMPDEST SWAP1 PUSH2 0x28FA SWAP3 PUSH2 0x481B JUMP JUMPDEST POP PUSH1 0x2 DUP3 ADD DUP1 SLOAD SWAP1 SWAP11 PUSH2 0x2918 SWAP2 DUP6 SWAP2 SWAP1 PUSH1 0x1 PUSH1 0x1 PUSH1 0xA0 SHL SUB AND PUSH2 0x481B JUMP JUMPDEST POP DUP2 SLOAD PUSH1 0x1 PUSH1 0x1 PUSH1 0xA0 SHL SUB AND DUP2 PUSH2 0x292F DUP11 DUP1 PUSH2 0x41CF JUMP JUMPDEST SWAP1 PUSH2 0x2939 SWAP3 PUSH2 0x481B JUMP JUMPDEST POP DUP10 SLOAD PUSH2 0x2950 SWAP2 DUP9 SWAP2 PUSH1 0x1 PUSH1 0x1 PUSH1 0xA0 SHL SUB AND PUSH2 0x481B JUMP JUMPDEST POP SLOAD SWAP4 SLOAD SWAP8 SLOAD PUSH1 0x40 MLOAD PUSH1 0x1 PUSH1 0x1 PUSH1 0xA0 SHL SUB SWAP10 DUP11 AND SWAP11 SWAP6 DUP11 AND SWAP10 SWAP1 SWAP2 AND SWAP7 DUP11 SWAP7 DUP11 SWAP7 DUP9 SWAP4 DUP9 SWAP4 SWAP2 SWAP3 SWAP1 SWAP2 DUP3 SWAP2 PUSH2 0x2987 SWAP2 CALLER DUP15 DUP6 PUSH2 0x4534 JUMP JUMPDEST SUB PUSH32 0x8AF39814826D4542F7FE66E6FA6AC2AC59BFC8221394F51A41DBA5C54DBA0AC9 SWAP2 LOG4 PUSH1 0x40 MLOAD SWAP2 DUP3 SWAP2 PUSH2 0x29BD SWAP2 CALLER DUP10 DUP6 PUSH2 0x4534 JUMP JUMPDEST SUB PUSH0 MLOAD PUSH1 0x20 PUSH2 0x49F6 PUSH0 CODECOPY PUSH0 MLOAD SWAP1 PUSH0 MSTORE SWAP2 LOG4 PUSH1 0x40 DUP1 MLOAD PUSH1 0x1 PUSH1 0x1 PUSH1 0xA0 SHL SUB SWAP3 SWAP1 SWAP3 AND DUP3 MSTORE CALLER PUSH1 0x20 DUP4 ADD MSTORE PUSH32 0xFAEE379435B6A0C297F1A08C66517FDC202DEBC6D275E6DD73630E3EBD1BDD97 SWAP2 LOG4 PUSH1 0x40 MLOAD PUSH1 0x1 DUP2 MSTORE PUSH1 0x20 SWAP1 RETURN JUMPDEST SWAP3 SWAP2 SWAP7 POP SWAP4 POP PUSH1 0x20 DUP3 RETURNDATASIZE PUSH1 0x20 GT PUSH2 0x2A48 JUMPI JUMPDEST DUP2 PUSH2 0x2A34 PUSH1 0x20 SWAP4 DUP4 PUSH2 0x4221 JUMP JUMPDEST DUP2 ADD SUB SLT PUSH2 0x447 JUMPI SWAP1 MLOAD DUP8 SWAP6 SWAP1 SWAP4 DUP7 PUSH2 0x28CE JUMP JUMPDEST RETURNDATASIZE SWAP2 POP PUSH2 0x2A27 JUMP JUMPDEST PUSH1 0x40 MLOAD RETURNDATASIZE DUP12 DUP3 RETURNDATACOPY RETURNDATASIZE SWAP1 REVERT JUMPDEST SWAP1 SWAP3 POP PUSH1 0x20 DUP2 RETURNDATASIZE PUSH1 0x20 GT PUSH2 0x2A88 JUMPI JUMPDEST DUP2 PUSH2 0x2A77 PUSH1 0x20 SWAP4 DUP4 PUSH2 0x4221 JUMP JUMPDEST DUP2 ADD SUB SLT PUSH2 0x447 JUMPI MLOAD SWAP2 PUSH1 0x20 PUSH2 0x2898 JUMP JUMPDEST RETURNDATASIZE SWAP2 POP PUSH2 0x2A6A JUMP JUMPDEST DUP2 PUSH2 0x2A9A SWAP2 PUSH2 0x4221 JUMP JUMPDEST PUSH2 0x10C7 JUMPI DUP3 PUSH0 PUSH2 0x281C JUMP JUMPDEST PUSH1 0x40 MLOAD PUSH3 0x461BCD PUSH1 0xE5 SHL DUP2 MSTORE PUSH1 0x20 PUSH1 0x4 DUP3 ADD MSTORE PUSH1 0x2E PUSH1 0x24 DUP3 ADD MSTORE PUSH32 0x4F6E6C79206120696E69746174696F72206F72206D65646961746F722063616E PUSH1 0x44 DUP3 ADD MSTORE PUSH14 0x818DBDB5C1B1A5D19481919585B PUSH1 0x92 SHL PUSH1 0x64 DUP3 ADD MSTORE PUSH1 0x84 SWAP1 REVERT JUMPDEST POP PUSH1 0x2 DUP2 ADD SLOAD PUSH1 0x1 PUSH1 0x1 PUSH1 0xA0 SHL SUB AND CALLER EQ PUSH2 0x27CC JUMP JUMPDEST POP CALLVALUE PUSH2 0x539 JUMPI PUSH1 0x20 CALLDATASIZE PUSH1 0x3 NOT ADD SLT PUSH2 0x539 JUMPI DUP1 PUSH2 0x200 PUSH1 0x40 MLOAD PUSH2 0x2B39 DUP2 PUSH2 0x41F0 JUMP JUMPDEST DUP3 DUP2 MSTORE DUP3 PUSH1 0x20 DUP3 ADD MSTORE DUP3 PUSH1 0x40 DUP3 ADD MSTORE DUP3 PUSH1 0x60 DUP3 ADD MSTORE DUP3 PUSH1 0x80 DUP3 ADD MSTORE DUP3 PUSH1 0xA0 DUP3 ADD MSTORE DUP3 PUSH1 0xC0 DUP3 ADD MSTORE DUP3 PUSH1 0xE0 DUP3 ADD MSTORE DUP3 PUSH2 0x100 DUP3 ADD MSTORE DUP3 PUSH2 0x120 DUP3 ADD MSTORE DUP3 PUSH2 0x140 DUP3 ADD MSTORE DUP3 PUSH2 0x160 DUP3 ADD MSTORE DUP3 PUSH2 0x180 DUP3 ADD MSTORE DUP3 PUSH2 0x1A0 DUP3 ADD MSTORE DUP3 PUSH2 0x1C0 DUP3 ADD MSTORE DUP3 PUSH2 0x1E0 DUP3 ADD MSTORE ADD MSTORE PUSH1 0x4 CALLDATALOAD DUP2 MSTORE PUSH1 0x4 PUSH1 0x20 MSTORE PUSH1 0x40 DUP2 KECCAK256 PUSH1 0xFF PUSH1 0xC PUSH1 0x40 MLOAD SWAP3 PUSH2 0x2BBF DUP5 PUSH2 0x41F0 JUMP JUMPDEST DUP1 SLOAD PUSH1 0x1 PUSH1 0x1 PUSH1 0xA0 SHL SUB SWAP1 DUP2 AND DUP6 MSTORE PUSH1 0x1 DUP3 ADD SLOAD DUP2 AND PUSH1 0x20 DUP7 ADD MSTORE PUSH1 0x2 DUP3 ADD SLOAD DUP1 DUP3 AND PUSH1 0x40 DUP8 ADD MSTORE PUSH1 0xA0 DUP2 DUP2 SHR DUP7 AND ISZERO ISZERO PUSH1 0x60 DUP9 ADD MSTORE PUSH1 0xA8 DUP3 SWAP1 SHR DUP7 AND ISZERO ISZERO PUSH1 0x80 DUP9 ADD MSTORE PUSH1 0xB0 DUP3 SWAP1 SHR DUP7 AND ISZERO ISZERO SWAP1 DUP8 ADD MSTORE PUSH1 0xB8 SHR DUP5 AND ISZERO ISZERO PUSH1 0xC0 DUP7 ADD MSTORE PUSH1 0x3 DUP3 ADD SLOAD PUSH1 0xE0 DUP7 ADD MSTORE PUSH1 0x4 DUP3 ADD SLOAD PUSH2 0x100 DUP7 ADD MSTORE PUSH1 0x5 DUP3 ADD SLOAD PUSH2 0x120 DUP7 ADD MSTORE PUSH1 0x6 DUP1 DUP4 ADD SLOAD PUSH2 0x140 DUP8 ADD MSTORE PUSH1 0x7 DUP4 ADD SLOAD PUSH2 0x160 DUP8 ADD MSTORE PUSH1 0x8 DUP4 ADD SLOAD PUSH2 0x180 DUP8 ADD MSTORE PUSH1 0x9 DUP4 ADD SLOAD DUP3 AND PUSH2 0x1A0 DUP8 ADD MSTORE PUSH1 0xA DUP4 ADD SLOAD SWAP1 SWAP2 AND PUSH2 0x1C0 DUP7 ADD MSTORE PUSH1 0xB DUP3 ADD SLOAD PUSH2 0x1E0 DUP7 ADD MSTORE SWAP2 ADD SLOAD SWAP1 SWAP2 AND SWAP1 DUP2 LT ISZERO PUSH2 0x2CAC JUMPI PUSH2 0x220 SWAP3 POP PUSH2 0x200 DUP3 ADD MSTORE PUSH2 0x2CAA PUSH1 0x40 MLOAD DUP1 SWAP3 PUSH2 0x4051 JUMP JUMPDEST RETURN JUMPDEST PUSH4 0x4E487B71 PUSH1 0xE0 SHL DUP4 MSTORE PUSH1 0x21 PUSH1 0x4 MSTORE PUSH1 0x24 DUP4 REVERT JUMPDEST POP CALLVALUE PUSH2 0x539 JUMPI PUSH2 0x2CCF CALLDATASIZE PUSH2 0x3FCB JUMP JUMPDEST SWAP1 DUP1 DUP4 MSTORE PUSH1 0x4 PUSH1 0x20 MSTORE PUSH1 0x40 DUP4 KECCAK256 SWAP3 PUSH1 0x1 DUP5 ADD SWAP3 PUSH1 0x1 DUP1 PUSH1 0xA0 SHL SUB DUP5 SLOAD AND CALLER EQ DUP1 ISZERO PUSH2 0x2E34 JUMPI JUMPDEST PUSH2 0x2CFE SWAP1 PUSH2 0x470B JUMP JUMPDEST PUSH20 0x0 DUP1 EXTCODESIZE ISZERO PUSH2 0x10C7 JUMPI DUP3 PUSH1 0x40 MLOAD DUP1 SWAP3 PUSH4 0x252A867 PUSH1 0xE5 SHL DUP3 MSTORE DUP2 DUP1 PUSH2 0x2D39 DUP12 PUSH1 0x4 DUP4 ADD PUSH2 0x444F JUMP JUMPDEST SUB SWAP2 GAS DELEGATECALL DUP1 ISZERO PUSH2 0x10D3 JUMPI SWAP1 DUP4 SWAP2 PUSH2 0x2E1F JUMPI JUMPDEST POP POP PUSH1 0x5 DUP6 ADD PUSH2 0x2D62 DUP3 DUP3 SLOAD PUSH2 0x1E3E DUP3 DUP3 LT PUSH2 0x418C JUMP JUMPDEST SWAP1 SSTORE PUSH1 0x1 DUP1 PUSH1 0xA0 SHL SUB PUSH1 0x9 DUP7 ADD SLOAD AND SWAP5 PUSH1 0x7 DUP2 ADD SLOAD PUSH1 0x40 MLOAD SWAP1 PUSH4 0x1C8F0847 PUSH1 0xE0 SHL DUP3 MSTORE DUP4 PUSH1 0x4 DUP4 ADD MSTORE PUSH1 0x24 DUP3 ADD MSTORE PUSH1 0x20 DUP2 PUSH1 0x44 DUP2 PUSH20 0x0 GAS DELEGATECALL SWAP4 DUP5 ISZERO PUSH2 0xCB6 JUMPI SWAP4 PUSH2 0x2DE9 JUMPI JUMPDEST POP DUP1 SLOAD PUSH0 MLOAD PUSH1 0x20 PUSH2 0x49D6 PUSH0 CODECOPY PUSH0 MLOAD SWAP1 PUSH0 MSTORE SWAP4 SWAP2 PUSH2 0xEA4 SWAP2 PUSH2 0x1EE3 SWAP1 PUSH1 0x1 PUSH1 0x1 PUSH1 0xA0 SHL SUB AND DUP10 PUSH2 0x1EDD DUP7 DUP9 PUSH2 0x41CF JUMP JUMPDEST SWAP3 POP PUSH1 0x20 DUP4 RETURNDATASIZE PUSH1 0x20 GT PUSH2 0x2E17 JUMPI JUMPDEST DUP2 PUSH2 0x2E04 PUSH1 0x20 SWAP4 DUP4 PUSH2 0x4221 JUMP JUMPDEST DUP2 ADD SUB SLT PUSH2 0x447 JUMPI SWAP2 MLOAD SWAP2 PUSH2 0xEA4 PUSH2 0x2DBA JUMP JUMPDEST RETURNDATASIZE SWAP2 POP PUSH2 0x2DF7 JUMP JUMPDEST DUP2 PUSH2 0x2E29 SWAP2 PUSH2 0x4221 JUMP JUMPDEST PUSH2 0x4C2 JUMPI DUP2 PUSH0 PUSH2 0x2D4B JUMP JUMPDEST POP PUSH1 0x2 DUP6 ADD SLOAD PUSH1 0x1 PUSH1 0x1 PUSH1 0xA0 SHL SUB AND CALLER EQ PUSH2 0x2CF5 JUMP JUMPDEST POP PUSH1 0x40 CALLDATASIZE PUSH1 0x3 NOT ADD SLT PUSH2 0x539 JUMPI PUSH2 0x2E5F PUSH2 0x3F33 JUMP JUMPDEST PUSH1 0x24 CALLDATALOAD SWAP1 PUSH2 0x2E73 PUSH1 0xFF DUP5 SLOAD PUSH1 0xA0 SHR AND PUSH2 0x4140 JUMP JUMPDEST DUP2 ISZERO PUSH2 0xD01 JUMPI PUSH1 0x2 SLOAD SWAP1 PUSH1 0x40 MLOAD SWAP2 PUSH4 0x1C8F0847 PUSH1 0xE0 SHL DUP4 MSTORE DUP4 PUSH1 0x4 DUP5 ADD MSTORE PUSH1 0x24 DUP4 ADD MSTORE PUSH1 0x20 DUP3 PUSH1 0x44 DUP2 PUSH20 0x0 GAS DELEGATECALL SWAP2 DUP3 ISZERO PUSH2 0x1910 JUMPI DUP5 SWAP3 PUSH2 0x3032 JUMPI JUMPDEST POP PUSH1 0x1 PUSH1 0x1 PUSH1 0xA0 SHL SUB AND SWAP1 DUP2 PUSH2 0x2F58 JUMPI PUSH2 0x2EDB DUP2 DUP5 PUSH2 0x46FE JUMP JUMPDEST CALLVALUE SUB PUSH2 0xB1F JUMPI CALLER DUP5 MSTORE PUSH1 0x1 PUSH1 0x20 MSTORE PUSH1 0x40 DUP5 KECCAK256 PUSH0 DUP1 MSTORE PUSH1 0x20 MSTORE PUSH1 0x40 PUSH0 KECCAK256 PUSH2 0x2F02 DUP5 DUP3 SLOAD PUSH2 0x46FE JUMP JUMPDEST SWAP1 SSTORE PUSH1 0x1 DUP1 PUSH1 0xA0 SHL SUB PUSH1 0x3 SLOAD AND DUP5 MSTORE PUSH1 0x1 PUSH1 0x20 MSTORE PUSH1 0x40 DUP5 KECCAK256 PUSH0 DUP1 MSTORE PUSH1 0x20 MSTORE PUSH1 0x40 PUSH0 KECCAK256 PUSH2 0x2F2F DUP3 DUP3 SLOAD PUSH2 0x46FE JUMP JUMPDEST SWAP1 SSTORE JUMPDEST PUSH1 0x40 MLOAD SWAP3 DUP4 MSTORE PUSH1 0x20 DUP4 ADD MSTORE PUSH1 0x40 DUP3 ADD MSTORE PUSH0 MLOAD PUSH1 0x20 PUSH2 0x4996 PUSH0 CODECOPY PUSH0 MLOAD SWAP1 PUSH0 MSTORE PUSH1 0x60 CALLER SWAP3 LOG2 DUP1 RETURN JUMPDEST PUSH2 0x2F62 DUP2 DUP5 PUSH2 0x46FE JUMP JUMPDEST PUSH1 0x40 MLOAD SWAP1 PUSH4 0x23B872DD PUSH1 0xE0 SHL DUP3 MSTORE CALLER PUSH1 0x4 DUP4 ADD MSTORE ADDRESS PUSH1 0x24 DUP4 ADD MSTORE PUSH1 0x44 DUP3 ADD MSTORE PUSH1 0x20 DUP2 PUSH1 0x64 DUP2 DUP9 DUP8 GAS CALL SWAP1 DUP2 ISZERO PUSH2 0x9C6 JUMPI DUP6 SWAP2 PUSH2 0x2FF4 JUMPI JUMPDEST POP ISZERO PUSH2 0xC1B JUMPI CALLER DUP5 MSTORE PUSH1 0x1 PUSH1 0x20 MSTORE PUSH1 0x40 DUP5 KECCAK256 DUP3 PUSH0 MSTORE PUSH1 0x20 MSTORE PUSH1 0x40 PUSH0 KECCAK256 PUSH2 0x2FC0 DUP5 DUP3 SLOAD PUSH2 0x46FE JUMP JUMPDEST SWAP1 SSTORE PUSH1 0x1 DUP1 PUSH1 0xA0 SHL SUB PUSH1 0x3 SLOAD AND DUP5 MSTORE PUSH1 0x1 PUSH1 0x20 MSTORE PUSH1 0x40 DUP5 KECCAK256 DUP3 PUSH0 MSTORE PUSH1 0x20 MSTORE PUSH1 0x40 PUSH0 KECCAK256 PUSH2 0x2FED DUP3 DUP3 SLOAD PUSH2 0x46FE JUMP JUMPDEST SWAP1 SSTORE PUSH2 0x2F32 JUMP JUMPDEST SWAP1 POP PUSH1 0x20 DUP2 RETURNDATASIZE PUSH1 0x20 GT PUSH2 0x302A JUMPI JUMPDEST DUP2 PUSH2 0x300F PUSH1 0x20 SWAP4 DUP4 PUSH2 0x4221 JUMP JUMPDEST DUP2 ADD SUB SLT PUSH2 0x3026 JUMPI PUSH2 0x3020 SWAP1 PUSH2 0x4257 JUMP JUMPDEST PUSH0 PUSH2 0x2F99 JUMP JUMPDEST DUP5 DUP1 REVERT JUMPDEST RETURNDATASIZE SWAP2 POP PUSH2 0x3002 JUMP JUMPDEST SWAP1 SWAP2 POP PUSH1 0x20 DUP2 RETURNDATASIZE PUSH1 0x20 GT PUSH2 0x305E JUMPI JUMPDEST DUP2 PUSH2 0x304E PUSH1 0x20 SWAP4 DUP4 PUSH2 0x4221 JUMP JUMPDEST DUP2 ADD SUB SLT PUSH2 0x447 JUMPI MLOAD SWAP1 PUSH0 PUSH2 0x2EC1 JUMP JUMPDEST RETURNDATASIZE SWAP2 POP PUSH2 0x3041 JUMP JUMPDEST POP CALLVALUE PUSH2 0x539 JUMPI DUP1 PUSH1 0x3 NOT CALLDATASIZE ADD SLT PUSH2 0x539 JUMPI PUSH1 0xFF PUSH1 0x20 SWAP2 SLOAD PUSH1 0xA0 SHR AND PUSH1 0x40 MLOAD SWAP1 ISZERO ISZERO DUP2 MSTORE RETURN JUMPDEST POP CALLVALUE PUSH2 0x539 JUMPI PUSH1 0x20 CALLDATASIZE PUSH1 0x3 NOT ADD SLT PUSH2 0x539 JUMPI PUSH1 0x4 CALLDATALOAD DUP1 DUP3 MSTORE PUSH1 0x4 PUSH1 0x20 MSTORE PUSH1 0x40 DUP3 KECCAK256 SWAP2 PUSH1 0x1 DUP4 ADD SWAP3 PUSH2 0x30C6 PUSH1 0x1 DUP1 PUSH1 0xA0 SHL SUB DUP6 SLOAD AND CALLER EQ PUSH2 0x45C6 JUMP JUMPDEST PUSH1 0x2 DUP2 ADD SWAP2 PUSH2 0x30DF DUP4 SLOAD PUSH2 0x1281 PUSH1 0xFF DUP3 PUSH1 0xB0 SHR AND PUSH2 0x4621 JUMP JUMPDEST PUSH1 0xA DUP3 ADD SLOAD CALLER PUSH0 SWAP1 DUP2 MSTORE PUSH1 0x1 PUSH1 0x20 SWAP1 DUP2 MSTORE PUSH1 0x40 DUP1 DUP4 KECCAK256 PUSH1 0x1 PUSH1 0x1 PUSH1 0xA0 SHL SUB SWAP1 SWAP5 AND DUP1 DUP5 MSTORE SWAP4 SWAP1 SWAP2 MSTORE SWAP1 DUP2 SWAP1 KECCAK256 SLOAD SWAP3 PUSH2 0x311E PUSH1 0x4 DUP7 ADD SLOAD DUP1 SWAP6 LT ISZERO PUSH2 0x418C JUMP JUMPDEST CALLER DUP2 MSTORE PUSH1 0x1 PUSH1 0x20 MSTORE KECCAK256 SWAP1 PUSH1 0x1 DUP1 PUSH1 0xA0 SHL SUB AND PUSH0 MSTORE PUSH1 0x20 MSTORE PUSH2 0x1317 PUSH1 0x40 PUSH0 KECCAK256 SWAP2 DUP3 SLOAD PUSH2 0x41CF JUMP JUMPDEST POP CALLVALUE PUSH2 0x539 JUMPI PUSH2 0x3153 CALLDATASIZE PUSH2 0x3FCB JUMP JUMPDEST SWAP2 SWAP1 DUP1 DUP3 MSTORE PUSH1 0x4 PUSH1 0x20 MSTORE PUSH1 0x40 DUP3 KECCAK256 SWAP2 PUSH1 0x1 DUP1 PUSH1 0xA0 SHL SUB DUP4 SLOAD AND CALLER EQ DUP1 ISZERO PUSH2 0x32C3 JUMPI JUMPDEST PUSH2 0x317E SWAP1 PUSH2 0x43E9 JUMP JUMPDEST PUSH20 0x0 DUP1 EXTCODESIZE ISZERO PUSH2 0x4C2 JUMPI DUP2 PUSH1 0x40 MLOAD DUP1 SWAP3 PUSH4 0x252A867 PUSH1 0xE5 SHL DUP3 MSTORE DUP2 DUP1 PUSH2 0x31B9 DUP10 PUSH1 0x4 DUP4 ADD PUSH2 0x444F JUMP JUMPDEST SUB SWAP2 GAS DELEGATECALL DUP1 ISZERO PUSH2 0x4B7 JUMPI SWAP1 DUP3 SWAP2 PUSH2 0x32AE JUMPI JUMPDEST POP POP PUSH1 0x5 DUP4 ADD PUSH2 0x31E2 DUP6 DUP3 SLOAD PUSH2 0x1E3E DUP3 DUP3 LT PUSH2 0x418C JUMP JUMPDEST SWAP1 SSTORE PUSH1 0x1 DUP1 PUSH1 0xA0 SHL SUB PUSH1 0x9 DUP5 ADD SLOAD AND SWAP4 PUSH1 0x7 DUP5 ADD SLOAD SWAP2 PUSH1 0x40 MLOAD SWAP3 PUSH4 0x1C8F0847 PUSH1 0xE0 SHL DUP5 MSTORE DUP3 PUSH1 0x4 DUP6 ADD MSTORE PUSH1 0x24 DUP5 ADD MSTORE PUSH1 0x20 DUP4 PUSH1 0x44 DUP2 PUSH20 0x0 GAS DELEGATECALL SWAP1 DUP2 ISZERO PUSH2 0xCB6 JUMPI SWAP1 PUSH2 0x326F JUMPI JUMPDEST PUSH1 0x1 DUP6 ADD DUP1 SLOAD SWAP1 SWAP6 PUSH0 MLOAD PUSH1 0x20 PUSH2 0x49F6 PUSH0 CODECOPY PUSH0 MLOAD SWAP1 PUSH0 MSTORE SWAP5 POP PUSH2 0xEA4 SWAP2 PUSH2 0x1EE3 SWAP1 PUSH1 0x1 PUSH1 0x1 PUSH1 0xA0 SHL SUB AND DUP10 PUSH2 0x1EDD DUP7 DUP9 PUSH2 0x41CF JUMP JUMPDEST POP PUSH1 0x20 DUP3 RETURNDATASIZE PUSH1 0x20 GT PUSH2 0x32A6 JUMPI JUMPDEST DUP2 PUSH2 0x3289 PUSH1 0x20 SWAP4 DUP4 PUSH2 0x4221 JUMP JUMPDEST DUP2 ADD SUB SLT PUSH2 0x447 JUMPI PUSH0 MLOAD PUSH1 0x20 PUSH2 0x49F6 PUSH0 CODECOPY PUSH0 MLOAD SWAP1 PUSH0 MSTORE SWAP2 MLOAD PUSH2 0x323B JUMP JUMPDEST RETURNDATASIZE SWAP2 POP PUSH2 0x327C JUMP JUMPDEST DUP2 PUSH2 0x32B8 SWAP2 PUSH2 0x4221 JUMP JUMPDEST PUSH2 0x539 JUMPI DUP1 PUSH0 PUSH2 0x31CB JUMP JUMPDEST POP PUSH1 0x2 DUP4 ADD SLOAD PUSH1 0x1 PUSH1 0x1 PUSH1 0xA0 SHL SUB AND CALLER EQ PUSH2 0x3175 JUMP JUMPDEST POP CALLVALUE PUSH2 0x539 JUMPI DUP1 PUSH1 0x3 NOT CALLDATASIZE ADD SLT PUSH2 0x539 JUMPI PUSH2 0x32F2 PUSH2 0x494F JUMP JUMPDEST DUP1 SLOAD PUSH1 0xFF PUSH1 0xA0 SHL NOT AND PUSH1 0x1 PUSH1 0xA0 SHL OR DUP2 SSTORE PUSH1 0x40 MLOAD PUSH1 0x1 DUP2 MSTORE PUSH32 0x17904E4FE7D59BB4603C7C045BC275A05DA9EA3A4AC007FC80FFFEAF119186D SWAP1 PUSH1 0x20 SWAP1 LOG1 CALLER PUSH32 0xAE81C15A680E6640BA872CA44F364AD67C60A04089AD9FA100F7A3CE94DA9F68 DUP3 DUP1 LOG2 DUP1 RETURN JUMPDEST POP PUSH2 0x3362 CALLDATASIZE PUSH2 0x3FE1 JUMP JUMPDEST SWAP2 SWAP6 SWAP5 SWAP4 PUSH1 0xFF DUP9 SWAP5 SWAP3 SWAP5 SLOAD PUSH1 0xA0 SHR AND SWAP3 PUSH2 0x337B DUP5 PUSH2 0x4140 JUMP JUMPDEST CALLER DUP10 MSTORE PUSH1 0x1 PUSH1 0x20 MSTORE PUSH1 0x40 DUP10 KECCAK256 PUSH1 0x1 DUP1 PUSH1 0xA0 SHL SUB DUP10 AND PUSH0 MSTORE PUSH1 0x20 MSTORE PUSH1 0x40 PUSH0 KECCAK256 SLOAD DUP3 DUP2 LT PUSH2 0x365B JUMPI JUMPDEST POP PUSH2 0x220 SWAP4 POP PUSH2 0x340B SWAP1 CALLER DUP11 MSTORE PUSH1 0x1 PUSH1 0x20 MSTORE PUSH1 0x40 DUP11 KECCAK256 PUSH1 0x1 DUP1 PUSH1 0xA0 SHL SUB DUP11 AND PUSH0 MSTORE PUSH1 0x20 MSTORE PUSH1 0x40 PUSH0 KECCAK256 PUSH2 0x33D5 DUP5 DUP3 SLOAD PUSH2 0x41CF JUMP JUMPDEST SWAP1 SSTORE PUSH20 0x0 SWAP6 PUSH1 0x40 MLOAD SWAP10 DUP11 SWAP6 DUP7 SWAP6 PUSH4 0x652E83D7 PUSH1 0xE0 SHL DUP8 MSTORE DUP11 DUP13 CALLER PUSH1 0x4 DUP11 ADD PUSH2 0x455E JUMP JUMPDEST SUB DUP2 DUP5 GAS DELEGATECALL SWAP1 DUP2 ISZERO PUSH2 0x9C6 JUMPI PUSH2 0x224 SWAP5 DUP7 SWAP3 PUSH2 0x3637 JUMPI JUMPDEST POP PUSH1 0x20 SWAP1 PUSH1 0x40 MLOAD SWAP6 DUP7 DUP1 SWAP3 PUSH4 0x63F88CDD PUSH1 0xE1 SHL DUP3 MSTORE PUSH2 0x3444 PUSH1 0x4 DUP4 ADD DUP8 PUSH2 0x4051 JUMP JUMPDEST GAS DELEGATECALL SWAP4 DUP5 ISZERO PUSH2 0x9C6 JUMPI DUP6 SWAP5 PUSH2 0x3603 JUMPI JUMPDEST POP DUP4 DUP6 MSTORE PUSH1 0x4 PUSH1 0x20 SWAP1 DUP2 MSTORE PUSH1 0x40 DUP1 DUP8 KECCAK256 DUP4 MLOAD DUP2 SLOAD PUSH1 0x1 PUSH1 0x1 PUSH1 0xA0 SHL SUB SWAP2 DUP3 AND PUSH1 0x1 PUSH1 0x1 PUSH1 0xA0 SHL SUB NOT SWAP2 DUP3 AND OR DUP4 SSTORE SWAP4 DUP6 ADD MLOAD PUSH1 0x1 DUP4 ADD DUP1 SLOAD SWAP2 DUP4 AND SWAP2 SWAP1 SWAP6 AND OR SWAP1 SWAP4 SSTORE SWAP1 DUP4 ADD MLOAD PUSH1 0x2 DUP3 ADD DUP1 SLOAD PUSH1 0x60 DUP7 ADD MLOAD PUSH1 0xFF PUSH1 0xA0 SHL SWAP1 ISZERO ISZERO PUSH1 0xA0 SHL AND SWAP3 SWAP1 SWAP5 AND PUSH1 0x1 PUSH1 0x1 PUSH1 0xA8 SHL SUB NOT SWAP1 SWAP5 AND SWAP4 SWAP1 SWAP4 OR OR DUP3 SSTORE PUSH2 0x200 SWAP2 PUSH1 0xC SWAP2 SWAP1 PUSH2 0x34DA SWAP1 PUSH2 0x839 JUMP JUMPDEST PUSH1 0xE0 DUP5 ADD MLOAD PUSH1 0x3 DUP3 ADD SSTORE PUSH2 0x100 DUP5 ADD MLOAD PUSH1 0x4 DUP3 ADD SSTORE PUSH2 0x120 DUP5 ADD MLOAD PUSH1 0x5 DUP3 ADD SSTORE PUSH2 0x140 DUP5 ADD MLOAD PUSH1 0x6 DUP1 DUP4 ADD SWAP2 SWAP1 SWAP2 SSTORE PUSH2 0x160 DUP6 ADD MLOAD PUSH1 0x7 DUP4 ADD SSTORE PUSH2 0x180 DUP6 ADD MLOAD PUSH1 0x8 DUP4 ADD SSTORE PUSH2 0x1A0 DUP6 ADD MLOAD PUSH1 0x9 DUP4 ADD DUP1 SLOAD PUSH1 0x1 PUSH1 0x1 PUSH1 0xA0 SHL SUB SWAP3 DUP4 AND PUSH1 0x1 PUSH1 0x1 PUSH1 0xA0 SHL SUB NOT SWAP2 DUP3 AND OR SWAP1 SWAP2 SSTORE PUSH2 0x1C0 DUP8 ADD MLOAD PUSH1 0xA DUP6 ADD DUP1 SLOAD SWAP2 SWAP1 SWAP4 AND SWAP2 AND OR SWAP1 SSTORE PUSH2 0x1E0 DUP6 ADD MLOAD PUSH1 0xB DUP4 ADD SSTORE SWAP3 SWAP1 SWAP4 ADD MLOAD SWAP3 ADD SWAP2 SWAP1 DUP2 LT ISZERO PUSH2 0x97E JUMPI PUSH1 0x20 SWAP6 POP PUSH1 0xFF DUP1 NOT DUP4 SLOAD AND SWAP2 AND OR SWAP1 SSTORE PUSH1 0x40 MLOAD SWAP1 PUSH1 0x1 DUP1 PUSH1 0xA0 SHL SUB AND SWAP2 DUP3 DUP3 MSTORE PUSH1 0x1 DUP1 PUSH1 0xA0 SHL SUB AND SWAP1 DUP4 PUSH32 0x5E02698C1650D6CBE1F7E8A48609D0DA45AD7F5E4C13CD8B196F82965C0AB0D5 DUP7 CALLER SWAP4 LOG4 DUP1 PUSH2 0x35D4 JUMPI JUMPDEST POP PUSH1 0x40 MLOAD SWAP1 DUP2 MSTORE RETURN JUMPDEST PUSH32 0x957372C0E02D2882134CC0EEBBEF9E446634D8CCBB1CBB112BDEFDD3CF0A643C DUP4 PUSH1 0x40 MLOAD DUP5 DUP2 MSTORE LOG2 PUSH0 PUSH2 0x35CB JUMP JUMPDEST SWAP1 SWAP4 POP PUSH1 0x20 DUP2 RETURNDATASIZE PUSH1 0x20 GT PUSH2 0x362F JUMPI JUMPDEST DUP2 PUSH2 0x361F PUSH1 0x20 SWAP4 DUP4 PUSH2 0x4221 JUMP JUMPDEST DUP2 ADD SUB SLT PUSH2 0x447 JUMPI MLOAD SWAP3 PUSH0 PUSH2 0x3454 JUMP JUMPDEST RETURNDATASIZE SWAP2 POP PUSH2 0x3612 JUMP JUMPDEST PUSH1 0x20 SWAP2 SWAP3 POP PUSH2 0x3654 SWAP1 PUSH2 0x220 RETURNDATASIZE DUP2 GT PUSH2 0x9FE JUMPI PUSH2 0x9EF DUP2 DUP4 PUSH2 0x4221 JUMP JUMPDEST SWAP2 SWAP1 PUSH2 0x3422 JUMP JUMPDEST PUSH2 0x3668 PUSH2 0x366E SWAP2 DUP5 PUSH2 0x41CF JUMP JUMPDEST SWAP5 PUSH2 0x4140 JUMP JUMPDEST DUP4 ISZERO PUSH2 0xD01 JUMPI PUSH1 0x2 SLOAD SWAP1 PUSH1 0x40 MLOAD SWAP2 PUSH4 0x1C8F0847 PUSH1 0xE0 SHL DUP4 MSTORE DUP6 PUSH1 0x4 DUP5 ADD MSTORE PUSH1 0x24 DUP4 ADD MSTORE PUSH1 0x20 DUP3 PUSH1 0x44 DUP2 PUSH20 0x0 GAS DELEGATECALL SWAP2 DUP3 ISZERO PUSH2 0x453 JUMPI DUP11 SWAP3 PUSH2 0x384D JUMPI JUMPDEST POP PUSH1 0x1 PUSH1 0x1 PUSH1 0xA0 SHL SUB DUP10 AND SWAP5 DUP6 PUSH2 0x375F JUMPI PUSH2 0x36D7 DUP4 DUP3 PUSH2 0x46FE JUMP JUMPDEST CALLVALUE SUB PUSH2 0xB1F JUMPI PUSH2 0x220 SWAP6 PUSH2 0x340B SWAP4 CALLER DUP14 MSTORE PUSH1 0x1 PUSH1 0x20 MSTORE PUSH1 0x40 DUP14 KECCAK256 PUSH0 DUP1 MSTORE PUSH1 0x20 MSTORE PUSH1 0x40 PUSH0 KECCAK256 PUSH2 0x3706 DUP5 DUP3 SLOAD PUSH2 0x46FE JUMP JUMPDEST SWAP1 SSTORE PUSH1 0x1 DUP1 PUSH1 0xA0 SHL SUB PUSH1 0x3 SLOAD AND DUP14 MSTORE PUSH1 0x1 PUSH1 0x20 MSTORE PUSH1 0x40 DUP14 KECCAK256 PUSH0 DUP1 MSTORE PUSH1 0x20 MSTORE PUSH1 0x40 PUSH0 KECCAK256 PUSH2 0x3733 DUP3 DUP3 SLOAD PUSH2 0x46FE JUMP JUMPDEST SWAP1 SSTORE JUMPDEST PUSH1 0x40 MLOAD SWAP3 DUP4 MSTORE PUSH1 0x20 DUP4 ADD MSTORE PUSH1 0x40 DUP3 ADD MSTORE PUSH0 MLOAD PUSH1 0x20 PUSH2 0x4996 PUSH0 CODECOPY PUSH0 MLOAD SWAP1 PUSH0 MSTORE PUSH1 0x60 CALLER SWAP3 LOG2 SWAP1 PUSH2 0x33A2 JUMP JUMPDEST DUP11 PUSH1 0x20 PUSH2 0x376C DUP6 DUP5 PUSH2 0x46FE JUMP JUMPDEST PUSH1 0x64 PUSH1 0x40 MLOAD DUP1 SWAP5 DUP2 SWAP4 PUSH4 0x23B872DD PUSH1 0xE0 SHL DUP4 MSTORE CALLER PUSH1 0x4 DUP5 ADD MSTORE ADDRESS PUSH1 0x24 DUP5 ADD MSTORE PUSH1 0x44 DUP4 ADD MSTORE DUP12 GAS CALL SWAP1 DUP2 ISZERO PUSH2 0x3842 JUMPI DUP13 SWAP2 PUSH2 0x3804 JUMPI JUMPDEST POP ISZERO PUSH2 0xC1B JUMPI PUSH2 0x220 SWAP6 PUSH2 0x340B SWAP4 CALLER DUP14 MSTORE PUSH1 0x1 PUSH1 0x20 MSTORE PUSH1 0x40 DUP14 KECCAK256 DUP3 PUSH0 MSTORE PUSH1 0x20 MSTORE PUSH1 0x40 PUSH0 KECCAK256 PUSH2 0x37D0 DUP5 DUP3 SLOAD PUSH2 0x46FE JUMP JUMPDEST SWAP1 SSTORE PUSH1 0x1 DUP1 PUSH1 0xA0 SHL SUB PUSH1 0x3 SLOAD AND DUP14 MSTORE PUSH1 0x1 PUSH1 0x20 MSTORE PUSH1 0x40 DUP14 KECCAK256 DUP3 PUSH0 MSTORE PUSH1 0x20 MSTORE PUSH1 0x40 PUSH0 KECCAK256 PUSH2 0x37FD DUP3 DUP3 SLOAD PUSH2 0x46FE JUMP JUMPDEST SWAP1 SSTORE PUSH2 0x3736 JUMP JUMPDEST SWAP1 POP PUSH1 0x20 DUP2 RETURNDATASIZE PUSH1 0x20 GT PUSH2 0x383A JUMPI JUMPDEST DUP2 PUSH2 0x381F PUSH1 0x20 SWAP4 DUP4 PUSH2 0x4221 JUMP JUMPDEST DUP2 ADD SUB SLT PUSH2 0x3836 JUMPI PUSH2 0x3830 SWAP1 PUSH2 0x4257 JUMP JUMPDEST PUSH0 PUSH2 0x37A1 JUMP JUMPDEST DUP12 DUP1 REVERT JUMPDEST RETURNDATASIZE SWAP2 POP PUSH2 0x3812 JUMP JUMPDEST PUSH1 0x40 MLOAD RETURNDATASIZE DUP15 DUP3 RETURNDATACOPY RETURNDATASIZE SWAP1 REVERT JUMPDEST SWAP1 SWAP2 POP PUSH1 0x20 DUP2 RETURNDATASIZE PUSH1 0x20 GT PUSH2 0x3879 JUMPI JUMPDEST DUP2 PUSH2 0x3869 PUSH1 0x20 SWAP4 DUP4 PUSH2 0x4221 JUMP JUMPDEST DUP2 ADD SUB SLT PUSH2 0x447 JUMPI MLOAD SWAP1 PUSH0 PUSH2 0x36BC JUMP JUMPDEST RETURNDATASIZE SWAP2 POP PUSH2 0x385C JUMP JUMPDEST POP CALLVALUE PUSH2 0x539 JUMPI PUSH2 0x220 PUSH2 0x340B PUSH2 0x3896 CALLDATASIZE PUSH2 0x3FE1 JUMP JUMPDEST PUSH2 0x38AF PUSH1 0xFF DUP12 SWAP11 SWAP7 SWAP5 SWAP11 SWAP10 SWAP4 SWAP8 SWAP9 SWAP10 SLOAD PUSH1 0xA0 SHR AND PUSH2 0x4140 JUMP JUMPDEST CALLER DUP11 MSTORE PUSH1 0x1 PUSH1 0x20 MSTORE PUSH1 0x40 DUP11 KECCAK256 PUSH1 0x1 DUP1 PUSH1 0xA0 SHL SUB DUP11 AND PUSH0 MSTORE PUSH1 0x20 MSTORE PUSH2 0x38D9 DUP4 PUSH1 0x40 PUSH0 KECCAK256 SLOAD LT ISZERO PUSH2 0x418C JUMP JUMPDEST CALLER DUP11 MSTORE PUSH1 0x1 PUSH1 0x20 MSTORE PUSH1 0x40 DUP11 KECCAK256 PUSH1 0x1 DUP1 PUSH1 0xA0 SHL SUB DUP11 AND PUSH0 MSTORE PUSH1 0x20 MSTORE PUSH1 0x40 PUSH0 KECCAK256 PUSH2 0x33D5 DUP5 DUP3 SLOAD PUSH2 0x41CF JUMP JUMPDEST POP CALLVALUE PUSH2 0x539 JUMPI PUSH1 0x40 CALLDATASIZE PUSH1 0x3 NOT ADD SLT PUSH2 0x539 JUMPI PUSH1 0x4 CALLDATALOAD PUSH2 0x391F PUSH2 0x3F1D JUMP JUMPDEST PUSH2 0x3927 PUSH2 0x494F JUMP JUMPDEST PUSH1 0x1 PUSH1 0x1 PUSH1 0xA0 SHL SUB DUP2 AND SWAP2 DUP3 ISZERO PUSH2 0x39EB JUMPI PUSH5 0x2540BE400 DUP2 GT PUSH2 0x399C JUMPI PUSH1 0x2 DUP2 SWAP1 SSTORE PUSH1 0x3 DUP1 SLOAD PUSH1 0x1 PUSH1 0x1 PUSH1 0xA0 SHL SUB NOT AND SWAP4 SWAP1 SWAP4 OR SWAP1 SWAP3 SSTORE PUSH1 0x40 DUP1 MLOAD SWAP3 DUP4 MSTORE PUSH1 0x1 PUSH1 0x1 PUSH1 0xA0 SHL SUB SWAP2 SWAP1 SWAP2 AND PUSH1 0x20 DUP4 ADD MSTORE PUSH32 0x14BDAADAED0453E7B5B66195B42156BA995B9E5ABD0DA98368839851D69AD889 SWAP2 LOG1 DUP1 RETURN JUMPDEST PUSH1 0x40 MLOAD PUSH3 0x461BCD PUSH1 0xE5 SHL DUP2 MSTORE PUSH1 0x20 PUSH1 0x4 DUP3 ADD MSTORE PUSH1 0x21 PUSH1 0x24 DUP3 ADD MSTORE PUSH32 0x436F6D6D697373696F6E2070657263656E7461676520697320746F6F20686967 PUSH1 0x44 DUP3 ADD MSTORE PUSH1 0xD PUSH1 0xFB SHL PUSH1 0x64 DUP3 ADD MSTORE PUSH1 0x84 SWAP1 REVERT JUMPDEST PUSH1 0x40 MLOAD PUSH3 0x461BCD PUSH1 0xE5 SHL DUP2 MSTORE PUSH1 0x20 PUSH1 0x4 DUP3 ADD MSTORE PUSH1 0x2F PUSH1 0x24 DUP3 ADD MSTORE PUSH32 0x436F6D6D697373696F6E20726563697069656E742063616E6E6F742062652074 PUSH1 0x44 DUP3 ADD MSTORE PUSH15 0x6865207A65726F2061646472657373 PUSH1 0x88 SHL PUSH1 0x64 DUP3 ADD MSTORE PUSH1 0x84 SWAP1 REVERT JUMPDEST POP CALLVALUE PUSH2 0x447 JUMPI PUSH2 0x3A57 CALLDATASIZE PUSH2 0x3FCB JUMP JUMPDEST SWAP2 SWAP1 DUP1 PUSH0 MSTORE PUSH1 0x4 PUSH1 0x20 MSTORE PUSH1 0x40 PUSH0 KECCAK256 SWAP2 PUSH1 0x1 DUP1 PUSH1 0xA0 SHL SUB DUP4 SLOAD AND CALLER EQ DUP1 ISZERO PUSH2 0x3BCC JUMPI JUMPDEST PUSH2 0x3A82 SWAP1 PUSH2 0x43E9 JUMP JUMPDEST PUSH20 0x0 DUP1 EXTCODESIZE ISZERO PUSH2 0x447 JUMPI PUSH0 PUSH1 0x40 MLOAD DUP1 SWAP3 PUSH4 0x252A867 PUSH1 0xE5 SHL DUP3 MSTORE DUP2 DUP1 PUSH2 0x3ABD DUP10 PUSH1 0x4 DUP4 ADD PUSH2 0x444F JUMP JUMPDEST SUB SWAP2 GAS DELEGATECALL DUP1 ISZERO PUSH2 0x3BC1 JUMPI PUSH2 0x3BAE JUMPI JUMPDEST POP PUSH1 0x6 DUP4 ADD PUSH2 0x3AE2 DUP6 DUP3 SLOAD PUSH2 0x1E3E DUP3 DUP3 LT PUSH2 0x418C JUMP JUMPDEST SWAP1 SSTORE PUSH1 0x1 DUP1 PUSH1 0xA0 SHL SUB PUSH1 0xA DUP5 ADD SLOAD AND SWAP4 PUSH1 0x8 DUP5 ADD SLOAD SWAP2 PUSH1 0x40 MLOAD SWAP3 PUSH4 0x1C8F0847 PUSH1 0xE0 SHL DUP5 MSTORE DUP3 PUSH1 0x4 DUP6 ADD MSTORE PUSH1 0x24 DUP5 ADD MSTORE PUSH1 0x20 DUP4 PUSH1 0x44 DUP2 PUSH20 0x0 GAS DELEGATECALL SWAP1 DUP2 ISZERO PUSH2 0xCB6 JUMPI SWAP1 PUSH2 0x3B6F JUMPI JUMPDEST PUSH1 0x1 DUP6 ADD DUP1 SLOAD SWAP1 SWAP6 PUSH0 MLOAD PUSH1 0x20 PUSH2 0x4976 PUSH0 CODECOPY PUSH0 MLOAD SWAP1 PUSH0 MSTORE SWAP5 POP PUSH2 0xEA4 SWAP2 PUSH2 0x1EE3 SWAP1 PUSH1 0x1 PUSH1 0x1 PUSH1 0xA0 SHL SUB AND DUP10 PUSH2 0x1EDD DUP7 DUP9 PUSH2 0x41CF JUMP JUMPDEST POP PUSH1 0x20 DUP3 RETURNDATASIZE PUSH1 0x20 GT PUSH2 0x3BA6 JUMPI JUMPDEST DUP2 PUSH2 0x3B89 PUSH1 0x20 SWAP4 DUP4 PUSH2 0x4221 JUMP JUMPDEST DUP2 ADD SUB SLT PUSH2 0x447 JUMPI PUSH0 MLOAD PUSH1 0x20 PUSH2 0x4976 PUSH0 CODECOPY PUSH0 MLOAD SWAP1 PUSH0 MSTORE SWAP2 MLOAD PUSH2 0x3B3B JUMP JUMPDEST RETURNDATASIZE SWAP2 POP PUSH2 0x3B7C JUMP JUMPDEST PUSH2 0x3BBA SWAP2 POP PUSH0 SWAP1 PUSH2 0x4221 JUMP JUMPDEST PUSH0 PUSH0 PUSH2 0x3ACC JUMP JUMPDEST PUSH1 0x40 MLOAD RETURNDATASIZE PUSH0 DUP3 RETURNDATACOPY RETURNDATASIZE SWAP1 REVERT JUMPDEST POP PUSH1 0x2 DUP4 ADD SLOAD PUSH1 0x1 PUSH1 0x1 PUSH1 0xA0 SHL SUB AND CALLER EQ PUSH2 0x3A79 JUMP JUMPDEST CALLVALUE PUSH2 0x447 JUMPI PUSH0 CALLDATASIZE PUSH1 0x3 NOT ADD SLT PUSH2 0x447 JUMPI PUSH1 0x3 SLOAD PUSH1 0x40 MLOAD PUSH1 0x1 PUSH1 0x1 PUSH1 0xA0 SHL SUB SWAP1 SWAP2 AND DUP2 MSTORE PUSH1 0x20 SWAP1 RETURN JUMPDEST CALLVALUE PUSH2 0x447 JUMPI PUSH2 0x220 PUSH2 0x3CC5 PUSH2 0x3C1E CALLDATASIZE PUSH2 0x3F49 JUMP JUMPDEST SWAP3 PUSH2 0x3C3B PUSH1 0xFF PUSH0 SWAP14 SWAP10 SWAP8 SWAP13 SWAP7 SWAP14 SWAP12 SWAP11 SWAP12 SWAP5 SWAP4 SWAP5 SLOAD PUSH1 0xA0 SHR AND PUSH2 0x4140 JUMP JUMPDEST CALLER PUSH0 MSTORE PUSH1 0x1 PUSH1 0x20 MSTORE PUSH1 0x40 PUSH0 KECCAK256 PUSH1 0x1 DUP1 PUSH1 0xA0 SHL SUB DUP3 AND PUSH0 MSTORE PUSH1 0x20 MSTORE PUSH2 0x3C65 DUP7 PUSH1 0x40 PUSH0 KECCAK256 SLOAD LT ISZERO PUSH2 0x418C JUMP JUMPDEST CALLER PUSH0 MSTORE PUSH1 0x1 PUSH1 0x20 MSTORE PUSH1 0x40 PUSH0 KECCAK256 PUSH1 0x1 DUP1 PUSH1 0xA0 SHL SUB DUP3 AND PUSH0 MSTORE PUSH1 0x20 MSTORE PUSH1 0x40 PUSH0 KECCAK256 PUSH2 0x3C8E DUP8 DUP3 SLOAD PUSH2 0x41CF JUMP JUMPDEST SWAP1 SSTORE PUSH1 0x40 MLOAD PUSH4 0x652E83D7 PUSH1 0xE0 SHL DUP2 MSTORE PUSH20 0x0 SWAP13 SWAP1 SWAP12 DUP13 SWAP9 DUP10 SWAP9 DUP14 DUP14 CALLER PUSH1 0x4 DUP14 ADD PUSH2 0x437D JUMP JUMPDEST SUB DUP2 DUP8 GAS DELEGATECALL SWAP3 DUP4 ISZERO PUSH2 0x3BC1 JUMPI PUSH0 SWAP4 PUSH2 0x3EF7 JUMPI JUMPDEST POP PUSH1 0x20 PUSH2 0x224 SWAP4 SWAP5 PUSH1 0x40 MLOAD SWAP5 DUP6 DUP1 SWAP3 PUSH4 0x63F88CDD PUSH1 0xE1 SHL DUP3 MSTORE PUSH2 0x3CFE PUSH1 0x4 DUP4 ADD DUP11 PUSH2 0x4051 JUMP JUMPDEST GAS DELEGATECALL SWAP3 DUP4 ISZERO PUSH2 0x3BC1 JUMPI PUSH0 SWAP4 PUSH2 0x3EC3 JUMPI JUMPDEST POP PUSH0 DUP4 DUP2 MSTORE PUSH1 0x4 PUSH1 0x20 DUP2 DUP2 MSTORE PUSH1 0x40 SWAP3 DUP4 SWAP1 KECCAK256 DUP8 MLOAD DUP2 SLOAD PUSH1 0x1 PUSH1 0x1 PUSH1 0xA0 SHL SUB SWAP2 DUP3 AND PUSH1 0x1 PUSH1 0x1 PUSH1 0xA0 SHL SUB NOT SWAP2 DUP3 AND OR DUP4 SSTORE SWAP3 DUP10 ADD MLOAD PUSH1 0x1 DUP4 ADD DUP1 SLOAD SWAP2 DUP4 AND SWAP2 DUP6 AND SWAP2 SWAP1 SWAP2 OR SWAP1 SSTORE SWAP4 DUP9 ADD MLOAD PUSH1 0x2 DUP3 ADD DUP1 SLOAD PUSH1 0x60 DUP12 ADD MLOAD PUSH1 0x80 DUP13 ADD MLOAD PUSH1 0xA0 DUP1 DUP15 ADD MLOAD PUSH1 0xC0 DUP16 ADD MLOAD SWAP3 ISZERO ISZERO PUSH1 0xA8 SHL PUSH1 0xFF PUSH1 0xA8 SHL AND PUSH1 0xFF PUSH1 0xA0 SHL SWAP5 ISZERO ISZERO SWAP1 SWAP3 SHL SWAP4 SWAP1 SWAP4 AND SWAP6 DUP11 AND PUSH1 0x1 PUSH1 0x1 PUSH1 0xC0 SHL SUB NOT SWAP1 SWAP5 AND SWAP4 SWAP1 SWAP4 OR SWAP5 SWAP1 SWAP5 OR SWAP2 SWAP1 SWAP2 OR SWAP1 ISZERO ISZERO PUSH1 0xB0 SHL PUSH1 0xFF PUSH1 0xB0 SHL AND OR SWAP2 ISZERO ISZERO PUSH1 0xB8 SHL PUSH1 0xFF PUSH1 0xB8 SHL AND SWAP2 SWAP1 SWAP2 OR SWAP1 SSTORE PUSH1 0xE0 DUP9 ADD MLOAD PUSH1 0x3 DUP3 ADD SSTORE PUSH2 0x100 DUP9 ADD MLOAD SWAP3 DUP2 ADD SWAP3 SWAP1 SWAP3 SSTORE PUSH2 0x120 DUP8 ADD MLOAD PUSH1 0x5 DUP4 ADD SSTORE PUSH2 0x140 DUP8 ADD MLOAD PUSH1 0x6 DUP1 DUP5 ADD SWAP2 SWAP1 SWAP2 SSTORE PUSH2 0x160 DUP9 ADD MLOAD PUSH1 0x7 DUP5 ADD SSTORE PUSH2 0x180 DUP9 ADD MLOAD PUSH1 0x8 DUP5 ADD SSTORE PUSH2 0x1A0 DUP9 ADD MLOAD PUSH1 0x9 DUP5 ADD DUP1 SLOAD DUP5 AND SWAP2 DUP7 AND SWAP2 SWAP1 SWAP2 OR SWAP1 SSTORE PUSH2 0x1C0 DUP9 ADD MLOAD PUSH1 0xA DUP5 ADD DUP1 SLOAD SWAP1 SWAP4 AND SWAP5 AND SWAP4 SWAP1 SWAP4 OR SWAP1 SSTORE PUSH2 0x1E0 DUP7 ADD MLOAD PUSH1 0xB DUP3 ADD SSTORE PUSH2 0x200 SWAP1 SWAP6 ADD MLOAD SWAP5 PUSH1 0xC ADD SWAP1 DUP6 LT ISZERO PUSH2 0x3EAF JUMPI PUSH1 0x20 SWAP5 PUSH1 0xFF DUP1 NOT DUP4 SLOAD AND SWAP2 AND OR SWAP1 SSTORE PUSH1 0x40 MLOAD SWAP2 PUSH1 0x1 DUP1 PUSH1 0xA0 SHL SUB AND DUP3 MSTORE PUSH1 0x1 DUP1 PUSH1 0xA0 SHL SUB AND SWAP1 DUP3 PUSH32 0x44E1FF8E67FAD6B456BD43FF165BA4E9BB004370AA27A76881C6ACB60DFD6DD9 DUP6 CALLER SWAP4 LOG4 PUSH1 0x40 MLOAD SWAP1 DUP2 MSTORE RETURN JUMPDEST PUSH4 0x4E487B71 PUSH1 0xE0 SHL PUSH0 MSTORE PUSH1 0x21 PUSH1 0x4 MSTORE PUSH1 0x24 PUSH0 REVERT JUMPDEST SWAP1 SWAP3 POP PUSH1 0x20 DUP2 RETURNDATASIZE PUSH1 0x20 GT PUSH2 0x3EEF JUMPI JUMPDEST DUP2 PUSH2 0x3EDF PUSH1 0x20 SWAP4 DUP4 PUSH2 0x4221 JUMP JUMPDEST DUP2 ADD SUB SLT PUSH2 0x447 JUMPI MLOAD SWAP2 DUP5 PUSH2 0x3D0E JUMP JUMPDEST RETURNDATASIZE SWAP2 POP PUSH2 0x3ED2 JUMP JUMPDEST PUSH2 0x224 SWAP4 POP PUSH2 0x3F16 PUSH1 0x20 SWAP2 PUSH2 0x220 RETURNDATASIZE DUP2 GT PUSH2 0x9FE JUMPI PUSH2 0x9EF DUP2 DUP4 PUSH2 0x4221 JUMP JUMPDEST SWAP4 POP PUSH2 0x3CD8 JUMP JUMPDEST PUSH1 0x24 CALLDATALOAD SWAP1 PUSH1 0x1 PUSH1 0x1 PUSH1 0xA0 SHL SUB DUP3 AND DUP3 SUB PUSH2 0x447 JUMPI JUMP JUMPDEST PUSH1 0x4 CALLDATALOAD SWAP1 PUSH1 0x1 PUSH1 0x1 PUSH1 0xA0 SHL SUB DUP3 AND DUP3 SUB PUSH2 0x447 JUMPI JUMP JUMPDEST PUSH2 0x140 SWAP1 PUSH1 0x3 NOT ADD SLT PUSH2 0x447 JUMPI PUSH1 0x4 CALLDATALOAD PUSH1 0x1 PUSH1 0x1 PUSH1 0xA0 SHL SUB DUP2 AND DUP2 SUB PUSH2 0x447 JUMPI SWAP1 PUSH1 0x24 CALLDATALOAD PUSH1 0x1 PUSH1 0x1 PUSH1 0xA0 SHL SUB DUP2 AND DUP2 SUB PUSH2 0x447 JUMPI SWAP1 PUSH1 0x44 CALLDATALOAD SWAP1 PUSH1 0x64 CALLDATALOAD SWAP1 PUSH1 0x84 CALLDATALOAD SWAP1 PUSH1 0xA4 CALLDATALOAD SWAP1 PUSH1 0xC4 CALLDATALOAD PUSH1 0x1 PUSH1 0x1 PUSH1 0xA0 SHL SUB DUP2 AND DUP2 SUB PUSH2 0x447 JUMPI SWAP1 PUSH1 0xE4 CALLDATALOAD PUSH1 0x1 PUSH1 0x1 PUSH1 0xA0 SHL SUB DUP2 AND DUP2 SUB PUSH2 0x447 JUMPI SWAP1 PUSH2 0x104 CALLDATALOAD SWAP1 PUSH2 0x124 CALLDATALOAD PUSH1 0x6 DUP2 LT ISZERO PUSH2 0x447 JUMPI SWAP1 JUMP JUMPDEST PUSH1 0x40 SWAP1 PUSH1 0x3 NOT ADD SLT PUSH2 0x447 JUMPI PUSH1 0x4 CALLDATALOAD SWAP1 PUSH1 0x24 CALLDATALOAD SWAP1 JUMP JUMPDEST PUSH1 0xE0 SWAP1 PUSH1 0x3 NOT ADD SLT PUSH2 0x447 JUMPI PUSH1 0x4 CALLDATALOAD PUSH1 0x1 PUSH1 0x1 PUSH1 0xA0 SHL SUB DUP2 AND DUP2 SUB PUSH2 0x447 JUMPI SWAP1 PUSH1 0x24 CALLDATALOAD PUSH1 0x1 PUSH1 0x1 PUSH1 0xA0 SHL SUB DUP2 AND DUP2 SUB PUSH2 0x447 JUMPI SWAP1 PUSH1 0x44 CALLDATALOAD SWAP1 PUSH1 0x64 CALLDATALOAD SWAP1 PUSH1 0x84 CALLDATALOAD PUSH1 0x1 PUSH1 0x1 PUSH1 0xA0 SHL SUB DUP2 AND DUP2 SUB PUSH2 0x447 JUMPI SWAP1 PUSH1 0xA4 CALLDATALOAD SWAP1 PUSH1 0xC4 CALLDATALOAD PUSH1 0x6 DUP2 LT ISZERO PUSH2 0x447 JUMPI SWAP1 JUMP JUMPDEST SWAP1 PUSH1 0x6 DUP3 LT ISZERO PUSH2 0x3EAF JUMPI MSTORE JUMP JUMPDEST SWAP1 PUSH2 0x200 DUP1 PUSH2 0x413E SWAP4 PUSH1 0x1 DUP1 PUSH1 0xA0 SHL SUB DUP2 MLOAD AND DUP5 MSTORE PUSH1 0x1 DUP1 PUSH1 0xA0 SHL SUB PUSH1 0x20 DUP3 ADD MLOAD AND PUSH1 0x20 DUP6 ADD MSTORE PUSH1 0x1 DUP1 PUSH1 0xA0 SHL SUB PUSH1 0x40 DUP3 ADD MLOAD AND PUSH1 0x40 DUP6 ADD MSTORE PUSH1 0x60 DUP2 ADD MLOAD ISZERO ISZERO PUSH1 0x60 DUP6 ADD MSTORE PUSH1 0x80 DUP2 ADD MLOAD ISZERO ISZERO PUSH1 0x80 DUP6 ADD MSTORE PUSH1 0xA0 DUP2 ADD MLOAD ISZERO ISZERO PUSH1 0xA0 DUP6 ADD MSTORE PUSH1 0xC0 DUP2 ADD MLOAD ISZERO ISZERO PUSH1 0xC0 DUP6 ADD MSTORE PUSH1 0xE0 DUP2 ADD MLOAD PUSH1 0xE0 DUP6 ADD MSTORE PUSH2 0x100 DUP2 ADD MLOAD PUSH2 0x100 DUP6 ADD MSTORE PUSH2 0x120 DUP2 ADD MLOAD PUSH2 0x120 DUP6 ADD MSTORE PUSH2 0x140 DUP2 ADD MLOAD PUSH2 0x140 DUP6 ADD MSTORE PUSH2 0x160 DUP2 ADD MLOAD PUSH2 0x160 DUP6 ADD MSTORE PUSH2 0x180 DUP2 ADD MLOAD PUSH2 0x180 DUP6 ADD MSTORE PUSH1 0x1 DUP1 PUSH1 0xA0 SHL SUB PUSH2 0x1A0 DUP3 ADD MLOAD AND PUSH2 0x1A0 DUP6 ADD MSTORE PUSH1 0x1 DUP1 PUSH1 0xA0 SHL SUB PUSH2 0x1C0 DUP3 ADD MLOAD AND PUSH2 0x1C0 DUP6 ADD MSTORE PUSH2 0x1E0 DUP2 ADD MLOAD PUSH2 0x1E0 DUP6 ADD MSTORE ADD MLOAD SWAP2 ADD SWAP1 PUSH2 0x4044 JUMP JUMPDEST JUMP JUMPDEST ISZERO PUSH2 0x4147 JUMPI JUMP JUMPDEST PUSH1 0x40 MLOAD PUSH3 0x461BCD PUSH1 0xE5 SHL DUP2 MSTORE PUSH1 0x20 PUSH1 0x4 DUP3 ADD MSTORE PUSH1 0x1E PUSH1 0x24 DUP3 ADD MSTORE PUSH32 0x436F6E74726163742069732063757272656E746C792064697361626C65640000 PUSH1 0x44 DUP3 ADD MSTORE PUSH1 0x64 SWAP1 REVERT JUMPDEST ISZERO PUSH2 0x4193 JUMPI JUMP JUMPDEST PUSH1 0x40 MLOAD PUSH3 0x461BCD PUSH1 0xE5 SHL DUP2 MSTORE PUSH1 0x20 PUSH1 0x4 DUP3 ADD MSTORE PUSH1 0x14 PUSH1 0x24 DUP3 ADD MSTORE PUSH20 0x496E73756666696369656E742062616C616E6365 PUSH1 0x60 SHL PUSH1 0x44 DUP3 ADD MSTORE PUSH1 0x64 SWAP1 REVERT JUMPDEST SWAP2 SWAP1 DUP3 SUB SWAP2 DUP3 GT PUSH2 0x41DC JUMPI JUMP JUMPDEST PUSH4 0x4E487B71 PUSH1 0xE0 SHL PUSH0 MSTORE PUSH1 0x11 PUSH1 0x4 MSTORE PUSH1 0x24 PUSH0 REVERT JUMPDEST PUSH2 0x220 DUP2 ADD SWAP1 DUP2 LT PUSH8 0xFFFFFFFFFFFFFFFF DUP3 GT OR PUSH2 0x420D JUMPI PUSH1 0x40 MSTORE JUMP JUMPDEST PUSH4 0x4E487B71 PUSH1 0xE0 SHL PUSH0 MSTORE PUSH1 0x41 PUSH1 0x4 MSTORE PUSH1 0x24 PUSH0 REVERT JUMPDEST SWAP1 PUSH1 0x1F DUP1 NOT SWAP2 ADD AND DUP2 ADD SWAP1 DUP2 LT PUSH8 0xFFFFFFFFFFFFFFFF DUP3 GT OR PUSH2 0x420D JUMPI PUSH1 0x40 MSTORE JUMP JUMPDEST MLOAD SWAP1 PUSH1 0x1 PUSH1 0x1 PUSH1 0xA0 SHL SUB DUP3 AND DUP3 SUB PUSH2 0x447 JUMPI JUMP JUMPDEST MLOAD SWAP1 DUP2 ISZERO ISZERO DUP3 SUB PUSH2 0x447 JUMPI JUMP JUMPDEST SWAP1 DUP2 PUSH2 0x220 SWAP2 SUB SLT PUSH2 0x447 JUMPI PUSH2 0x200 PUSH1 0x40 MLOAD SWAP2 PUSH2 0x4280 DUP4 PUSH2 0x41F0 JUMP JUMPDEST PUSH2 0x4289 DUP2 PUSH2 0x4243 JUMP JUMPDEST DUP4 MSTORE PUSH2 0x4297 PUSH1 0x20 DUP3 ADD PUSH2 0x4243 JUMP JUMPDEST PUSH1 0x20 DUP5 ADD MSTORE PUSH2 0x42A8 PUSH1 0x40 DUP3 ADD PUSH2 0x4243 JUMP JUMPDEST PUSH1 0x40 DUP5 ADD MSTORE PUSH2 0x42B9 PUSH1 0x60 DUP3 ADD PUSH2 0x4257 JUMP JUMPDEST PUSH1 0x60 DUP5 ADD MSTORE PUSH2 0x42CA PUSH1 0x80 DUP3 ADD PUSH2 0x4257 JUMP JUMPDEST PUSH1 0x80 DUP5 ADD MSTORE PUSH2 0x42DB PUSH1 0xA0 DUP3 ADD PUSH2 0x4257 JUMP JUMPDEST PUSH1 0xA0 DUP5 ADD MSTORE PUSH2 0x42EC PUSH1 0xC0 DUP3 ADD PUSH2 0x4257 JUMP JUMPDEST PUSH1 0xC0 DUP5 ADD MSTORE PUSH1 0xE0 DUP2 ADD MLOAD PUSH1 0xE0 DUP5 ADD MSTORE PUSH2 0x100 DUP2 ADD MLOAD PUSH2 0x100 DUP5 ADD MSTORE PUSH2 0x120 DUP2 ADD MLOAD PUSH2 0x120 DUP5 ADD MSTORE PUSH2 0x140 DUP2 ADD MLOAD PUSH2 0x140 DUP5 ADD MSTORE PUSH2 0x160 DUP2 ADD MLOAD PUSH2 0x160 DUP5 ADD MSTORE PUSH2 0x180 DUP2 ADD MLOAD PUSH2 0x180 DUP5 ADD MSTORE PUSH2 0x4344 PUSH2 0x1A0 DUP3 ADD PUSH2 0x4243 JUMP JUMPDEST PUSH2 0x1A0 DUP5 ADD MSTORE PUSH2 0x4357 PUSH2 0x1C0 DUP3 ADD PUSH2 0x4243 JUMP JUMPDEST PUSH2 0x1C0 DUP5 ADD MSTORE PUSH2 0x1E0 DUP2 ADD MLOAD PUSH2 0x1E0 DUP5 ADD MSTORE ADD MLOAD PUSH1 0x6 DUP2 LT ISZERO PUSH2 0x447 JUMPI PUSH2 0x200 DUP3 ADD MSTORE SWAP1 JUMP JUMPDEST PUSH1 0x1 PUSH1 0x1 PUSH1 0xA0 SHL SUB SWAP2 DUP3 AND DUP2 MSTORE SWAP2 DUP2 AND PUSH1 0x20 DUP4 ADD MSTORE SWAP2 DUP3 AND PUSH1 0x40 DUP3 ADD MSTORE PUSH1 0x60 DUP2 ADD SWAP3 SWAP1 SWAP3 MSTORE PUSH1 0x80 DUP3 ADD SWAP3 SWAP1 SWAP3 MSTORE PUSH1 0xA0 DUP2 ADD SWAP3 SWAP1 SWAP3 MSTORE PUSH1 0xC0 DUP3 ADD SWAP3 SWAP1 SWAP3 MSTORE SWAP2 DUP2 AND PUSH1 0xE0 DUP4 ADD MSTORE SWAP1 SWAP2 AND PUSH2 0x100 DUP3 ADD MSTORE PUSH2 0x120 DUP2 ADD SWAP2 SWAP1 SWAP2 MSTORE PUSH2 0x160 DUP2 ADD SWAP3 SWAP2 PUSH2 0x413E SWAP2 PUSH2 0x140 ADD SWAP1 PUSH2 0x4044 JUMP JUMPDEST ISZERO PUSH2 0x43F0 JUMPI JUMP JUMPDEST PUSH1 0x40 MLOAD PUSH3 0x461BCD PUSH1 0xE5 SHL DUP2 MSTORE PUSH1 0x20 PUSH1 0x4 DUP3 ADD MSTORE PUSH1 0x31 PUSH1 0x24 DUP3 ADD MSTORE PUSH32 0x4F6E6C79206120696E69746174696F72206F72206D65646961746F722063616E PUSH1 0x44 DUP3 ADD MSTORE PUSH17 0x818D85B1B081D1A1A5CC81B595D1A1BD9 PUSH1 0x7A SHL PUSH1 0x64 DUP3 ADD MSTORE PUSH1 0x84 SWAP1 REVERT JUMPDEST DUP2 SLOAD PUSH1 0x1 PUSH1 0x1 PUSH1 0xA0 SHL SUB SWAP1 DUP2 AND DUP3 MSTORE PUSH1 0x1 DUP4 ADD SLOAD DUP2 AND PUSH1 0x20 DUP4 ADD MSTORE PUSH1 0x2 DUP4 ADD SLOAD DUP1 DUP3 AND PUSH1 0x40 DUP5 ADD MSTORE PUSH1 0xFF PUSH1 0xA0 DUP3 DUP2 SHR DUP3 AND ISZERO ISZERO PUSH1 0x60 DUP7 ADD MSTORE PUSH1 0xA8 DUP4 SWAP1 SHR DUP3 AND ISZERO ISZERO PUSH1 0x80 DUP7 ADD MSTORE PUSH1 0xB0 DUP4 SWAP1 SHR DUP3 AND ISZERO ISZERO SWAP1 DUP6 ADD MSTORE PUSH1 0xB8 SWAP2 SWAP1 SWAP2 SHR DUP2 AND ISZERO ISZERO PUSH1 0xC0 DUP5 ADD MSTORE PUSH1 0x3 DUP5 ADD SLOAD PUSH1 0xE0 DUP5 ADD MSTORE PUSH1 0x4 DUP5 ADD SLOAD PUSH2 0x100 DUP5 ADD MSTORE PUSH1 0x5 DUP5 ADD SLOAD PUSH2 0x120 DUP5 ADD MSTORE PUSH1 0x6 DUP5 ADD SLOAD PUSH2 0x140 DUP5 ADD MSTORE PUSH1 0x7 DUP5 ADD SLOAD PUSH2 0x160 DUP5 ADD MSTORE PUSH1 0x8 DUP5 ADD SLOAD PUSH2 0x180 DUP5 ADD MSTORE PUSH1 0x9 DUP5 ADD SLOAD DUP3 AND PUSH2 0x1A0 DUP5 ADD MSTORE PUSH1 0xA DUP5 ADD SLOAD SWAP1 SWAP2 AND PUSH2 0x1C0 DUP4 ADD MSTORE PUSH1 0xB DUP4 ADD SLOAD PUSH2 0x1E0 DUP4 ADD MSTORE PUSH1 0xC SWAP1 SWAP3 ADD SLOAD PUSH2 0x220 DUP3 ADD SWAP4 SWAP3 PUSH2 0x413E SWAP3 PUSH2 0x200 ADD SWAP2 AND PUSH2 0x4044 JUMP JUMPDEST PUSH1 0x1 PUSH1 0x1 PUSH1 0xA0 SHL SUB SWAP2 DUP3 AND DUP2 MSTORE SWAP2 AND PUSH1 0x20 DUP3 ADD MSTORE PUSH1 0x40 DUP2 ADD SWAP2 SWAP1 SWAP2 MSTORE PUSH1 0x60 DUP2 ADD SWAP2 SWAP1 SWAP2 MSTORE PUSH1 0x80 ADD SWAP1 JUMP JUMPDEST PUSH1 0x1 PUSH1 0x1 PUSH1 0xA0 SHL SUB SWAP2 DUP3 AND DUP2 MSTORE SWAP2 DUP2 AND PUSH1 0x20 DUP4 ADD MSTORE SWAP2 DUP3 AND PUSH1 0x40 DUP3 ADD MSTORE PUSH1 0x60 DUP2 ADD SWAP3 SWAP1 SWAP3 MSTORE PUSH0 PUSH1 0x80 DUP4 ADD DUP2 SWAP1 MSTORE PUSH1 0xA0 DUP4 ADD SWAP4 SWAP1 SWAP4 MSTORE PUSH1 0xC0 DUP3 ADD DUP4 SWAP1 MSTORE SWAP1 SWAP3 AND PUSH1 0xE0 DUP4 ADD MSTORE PUSH2 0x100 DUP3 ADD MSTORE PUSH2 0x120 DUP2 ADD SWAP2 SWAP1 SWAP2 MSTORE PUSH2 0x160 DUP2 ADD SWAP3 SWAP2 PUSH2 0x413E SWAP2 PUSH2 0x140 ADD SWAP1 PUSH2 0x4044 JUMP JUMPDEST ISZERO PUSH2 0x45CD JUMPI JUMP JUMPDEST PUSH1 0x40 MLOAD PUSH3 0x461BCD PUSH1 0xE5 SHL DUP2 MSTORE PUSH1 0x20 PUSH1 0x4 DUP3 ADD MSTORE PUSH1 0x26 PUSH1 0x24 DUP3 ADD MSTORE PUSH32 0x4F6E6C7920636F756E74657270617274792063616E2063616C6C207468697320 PUSH1 0x44 DUP3 ADD MSTORE PUSH6 0x1B595D1A1BD9 PUSH1 0xD2 SHL PUSH1 0x64 DUP3 ADD MSTORE PUSH1 0x84 SWAP1 REVERT JUMPDEST ISZERO PUSH2 0x4628 JUMPI JUMP JUMPDEST PUSH1 0x40 MLOAD PUSH3 0x461BCD PUSH1 0xE5 SHL DUP2 MSTORE PUSH1 0x20 PUSH1 0x4 DUP3 ADD MSTORE PUSH1 0x16 PUSH1 0x24 DUP3 ADD MSTORE PUSH22 0x1119585B081B5D5CDD081899481D1DDBC81CDA591959 PUSH1 0x52 SHL PUSH1 0x44 DUP3 ADD MSTORE PUSH1 0x64 SWAP1 REVERT JUMPDEST ISZERO PUSH2 0x466D JUMPI JUMP JUMPDEST PUSH1 0x40 MLOAD PUSH3 0x461BCD PUSH1 0xE5 SHL DUP2 MSTORE PUSH1 0x20 PUSH1 0x4 DUP3 ADD MSTORE PUSH1 0x17 PUSH1 0x24 DUP3 ADD MSTORE PUSH32 0x4465616C206D757374206265206E6F74207369676E6564000000000000000000 PUSH1 0x44 DUP3 ADD MSTORE PUSH1 0x64 SWAP1 REVERT JUMPDEST ISZERO PUSH2 0x46B9 JUMPI JUMP JUMPDEST PUSH1 0x40 MLOAD PUSH3 0x461BCD PUSH1 0xE5 SHL DUP2 MSTORE PUSH1 0x20 PUSH1 0x4 DUP3 ADD MSTORE PUSH1 0x17 PUSH1 0x24 DUP3 ADD MSTORE PUSH32 0x43616E7420656469742066696E6973686564206465616C000000000000000000 PUSH1 0x44 DUP3 ADD MSTORE PUSH1 0x64 SWAP1 REVERT JUMPDEST SWAP2 SWAP1 DUP3 ADD DUP1 SWAP3 GT PUSH2 0x41DC JUMPI JUMP JUMPDEST ISZERO PUSH2 0x4712 JUMPI JUMP JUMPDEST PUSH1 0x40 MLOAD PUSH3 0x461BCD PUSH1 0xE5 SHL DUP2 MSTORE PUSH1 0x20 PUSH1 0x4 DUP3 ADD MSTORE PUSH1 0x34 PUSH1 0x24 DUP3 ADD MSTORE PUSH32 0x4F6E6C79206120636F756E7465727061727479206F72206D65646961746F7220 PUSH1 0x44 DUP3 ADD MSTORE PUSH20 0x18D85B8818D85B1B081D1A1A5CC81B595D1A1BD9 PUSH1 0x62 SHL PUSH1 0x64 DUP3 ADD MSTORE PUSH1 0x84 SWAP1 REVERT JUMPDEST ISZERO PUSH2 0x477B JUMPI JUMP JUMPDEST PUSH1 0x40 MLOAD PUSH3 0x461BCD PUSH1 0xE5 SHL DUP2 MSTORE PUSH1 0x20 PUSH1 0x4 DUP3 ADD MSTORE PUSH1 0x26 PUSH1 0x24 DUP3 ADD MSTORE PUSH32 0x4F6E6C79206120706172747920746F20746865206465616C2063616E2072656A PUSH1 0x44 DUP3 ADD MSTORE PUSH6 0x1958DD081A5D PUSH1 0xD2 SHL PUSH1 0x64 DUP3 ADD MSTORE PUSH1 0x84 SWAP1 REVERT JUMPDEST ISZERO PUSH2 0x47D6 JUMPI JUMP JUMPDEST PUSH1 0x40 MLOAD PUSH3 0x461BCD PUSH1 0xE5 SHL DUP2 MSTORE PUSH1 0x20 PUSH1 0x4 DUP3 ADD MSTORE PUSH1 0x18 PUSH1 0x24 DUP3 ADD MSTORE PUSH32 0x4465616C206D757374206265206E6F7420737461727465640000000000000000 PUSH1 0x44 DUP3 ADD MSTORE PUSH1 0x64 SWAP1 REVERT JUMPDEST SWAP1 DUP3 ISZERO PUSH2 0x4947 JUMPI PUSH1 0x1 PUSH1 0x1 PUSH1 0xA0 SHL SUB DUP2 AND DUP1 PUSH2 0x488A JUMPI POP PUSH0 DUP1 DUP1 DUP1 DUP7 PUSH1 0x1 PUSH1 0x1 PUSH1 0xA0 SHL SUB DUP8 AND DUP3 CALL ISZERO PUSH2 0x3BC1 JUMPI PUSH31 0x1A143D5B175701CB3246058FFAC3D63945192075A926FF73A19930F09D587A SWAP2 JUMPDEST PUSH1 0x40 DUP1 MLOAD SWAP5 DUP6 MSTORE PUSH1 0x1 PUSH1 0x1 PUSH1 0xA0 SHL SUB SWAP3 DUP4 AND PUSH1 0x20 DUP7 ADD MSTORE SWAP2 AND SWAP3 LOG2 PUSH1 0x1 SWAP1 JUMP JUMPDEST PUSH1 0x40 MLOAD PUSH4 0xA9059CBB PUSH1 0xE0 SHL DUP2 MSTORE PUSH1 0x1 PUSH1 0x1 PUSH1 0xA0 SHL SUB DUP5 AND PUSH1 0x4 DUP3 ADD MSTORE PUSH1 0x24 DUP2 ADD DUP6 SWAP1 MSTORE SWAP3 SWAP1 PUSH1 0x20 SWAP1 DUP5 SWAP1 PUSH1 0x44 SWAP1 DUP3 SWAP1 PUSH0 SWAP1 GAS CALL DUP1 ISZERO PUSH2 0x3BC1 JUMPI PUSH2 0x48EF JUMPI JUMPDEST PUSH31 0x1A143D5B175701CB3246058FFAC3D63945192075A926FF73A19930F09D587A SWAP3 POP PUSH2 0x486A JUMP JUMPDEST PUSH1 0x20 DUP4 RETURNDATASIZE PUSH1 0x20 GT PUSH2 0x493F JUMPI JUMPDEST DUP2 PUSH2 0x4908 PUSH1 0x20 SWAP4 DUP4 PUSH2 0x4221 JUMP JUMPDEST DUP2 ADD SUB SLT PUSH2 0x447 JUMPI PUSH2 0x4939 PUSH31 0x1A143D5B175701CB3246058FFAC3D63945192075A926FF73A19930F09D587A SWAP4 PUSH2 0x4257 JUMP JUMPDEST POP PUSH2 0x48C8 JUMP JUMPDEST RETURNDATASIZE SWAP2 POP PUSH2 0x48FB JUMP JUMPDEST POP POP POP PUSH1 0x1 SWAP1 JUMP JUMPDEST PUSH0 SLOAD PUSH1 0x1 PUSH1 0x1 PUSH1 0xA0 SHL SUB AND CALLER SUB PUSH2 0x4962 JUMPI JUMP JUMPDEST PUSH4 0x118CDAA7 PUSH1 0xE0 SHL PUSH0 MSTORE CALLER PUSH1 0x4 MSTORE PUSH1 0x24 PUSH0 REVERT INVALID 0xAF 0xBE CALLER PUSH24 0x83658B293F1566E1790BFAB9858B8CF08DE944CA3CD013D4 0x21 XOR DUP8 0xB8 MUL 0xD7 0xE6 BASEFEE 0xDD SGT 0xF 0xC1 DUP5 0xD3 DUP4 0xE5 JUMPDEST 0xB1 0x26 0xAC 0x4C SWAP13 PUSH1 0xE8 0xF9 0x4B CREATE GAS 0xCD CREATE2 JUMPI 0xBA 0x2D SLOAD SIGNEXTEND SELFBALANCE ADDMOD PUSH13 0x61B89EF5FCDB14C243B643069C EXTCODECOPY PUSH11 0x84765B27F2A696B875DDDF SUB BYTE 0xFB 0x4D 0xA6 0xAF NOT 0x23 DUP1 0xB5 0xBA BALANCE BYTE 0xC0 SUB CREATE2 PUSH31 0xFA2BE0717F0E466318C7E9CF546C4937A03D94F05D33634B730E763D232B48 0x2C 0xF8 CALLDATALOAD LOG4 BASEFEE XOR CALLDATALOAD 0xF6 0x2D EXP MULMOD PUSH20 0xB42018A8EAD4F047A2646970667358221220EA76 PUSH4 0xE038DFEC 0x25 CALLDATACOPY PUSH5 0x8B187BC35E 0xAA 0xDB SELFDESTRUCT JUMP 0xC7 BALANCE 0xB3 TIMESTAMP 0xC4 MSTORE8 0xBE SAR CALLDATASIZE GAS MSTORE8 PUSH27 0xC464736F6C634300081C0033000000000000000000000000000000 "
		},
		"gasEstimates": {
			"creation": {
				"codeDepositCost": "3803800",
				"executionCost": "infinite",
				"totalCost": "infinite"
			},
			"external": {
				"addDepositByCounterparty(bytes32,uint256)": "infinite",
				"addDepositByInitiator(bytes32,uint256)": "infinite",
				"balanceOf(address)": "2817",
				"balanceOf(address,address)": "3351",
				"balances(address,address)": "3197",
				"cancelDeal(bytes32)": "infinite",
				"commissionRecipient()": "2296",
				"completeDeal(bytes32)": "infinite",
				"contractEnabled()": "2469",
				"counterpartyAcceptSidedDeal(bytes32)": "67970",
				"createDeal(address,address,uint256,uint256,address,uint256,uint8)": "infinite",
				"createSidedDeal(address,address,uint256,uint256,uint256,uint256,address,address,uint256,uint8)": "infinite",
				"deals(bytes32)": "28592",
				"deposit(address,uint256)": "infinite",
				"depositCommissionPercent()": "2737",
				"disableContract()": "29149",
				"enableContract()": "28831",
				"executeActionsAfterExpiration(bytes32)": "infinite",
				"getCompletedDeals()": "2979",
				"getDeal(bytes32)": "infinite",
				"getTotalDeals()": "2561",
				"givebackToConunterparty(bytes32,uint256)": "infinite",
				"givebackToInitiator(bytes32,uint256)": "infinite",
				"owner()": "2780",
				"payUpCounterpartyAcceptSidedDeal(bytes32)": "72582",
				"payUpCreateDeal(address,address,uint256,uint256,address,uint256,uint8)": "infinite",
				"payUpCreateSidedDeal(address,address,uint256,uint256,uint256,uint256,address,address,uint256,uint8)": "infinite",
				"rejectSidedDeal(bytes32)": "infinite",
				"renounceOwnership()": "28428",
				"setDepositCommission(uint256,address)": "50189",
				"totalCompletedDeals()": "2957",
				"totalDeals()": "2803",
				"transfer(address,address,uint256)": "52055",
				"transferOwnership(address)": "28912",
				"transferToCounterparty(bytes32,uint256)": "infinite",
				"transferToInitiator(bytes32,uint256)": "infinite",
				"withdraw(address,uint256)": "infinite",
				"withdrawRejectSidedDeal(bytes32)": "infinite"
			}
		},
		"methodIdentifiers": {
			"addDepositByCounterparty(bytes32,uint256)": "c99b8965",
			"addDepositByInitiator(bytes32,uint256)": "b4a99ccb",
			"balanceOf(address)": "70a08231",
			"balanceOf(address,address)": "f7888aec",
			"balances(address,address)": "c23f001f",
			"cancelDeal(bytes32)": "faa86b4a",
			"commissionRecipient()": "06fd154a",
			"completeDeal(bytes32)": "51b7d535",
			"contractEnabled()": "41b3a0d9",
			"counterpartyAcceptSidedDeal(bytes32)": "4187129c",
			"createDeal(address,address,uint256,uint256,address,uint256,uint8)": "17b52b50",
			"createSidedDeal(address,address,uint256,uint256,uint256,uint256,address,address,uint256,uint8)": "007e8bd3",
			"deals(bytes32)": "81cd872a",
			"deposit(address,uint256)": "47e7ef24",
			"depositCommissionPercent()": "899a3ffd",
			"disableContract()": "894ba833",
			"enableContract()": "367edd32",
			"executeActionsAfterExpiration(bytes32)": "706b14f5",
			"getCompletedDeals()": "ed50ab8a",
			"getDeal(bytes32)": "51a6fad5",
			"getTotalDeals()": "5379719b",
			"givebackToConunterparty(bytes32,uint256)": "114aeacc",
			"givebackToInitiator(bytes32,uint256)": "5040125b",
			"owner()": "8da5cb5b",
			"payUpCounterpartyAcceptSidedDeal(bytes32)": "bb06c1a4",
			"payUpCreateDeal(address,address,uint256,uint256,address,uint256,uint8)": "28d5a050",
			"payUpCreateSidedDeal(address,address,uint256,uint256,uint256,uint256,address,address,uint256,uint8)": "cfadf6c7",
			"rejectSidedDeal(bytes32)": "8deea5fb",
			"renounceOwnership()": "715018a6",
			"setDepositCommission(uint256,address)": "15f8a314",
			"totalCompletedDeals()": "e08560a4",
			"totalDeals()": "966d1f1d",
			"transfer(address,address,uint256)": "beabacc8",
			"transferOwnership(address)": "f2fde38b",
			"transferToCounterparty(bytes32,uint256)": "3f3e8212",
			"transferToInitiator(bytes32,uint256)": "7165e542",
			"withdraw(address,uint256)": "f3fef3a3",
			"withdrawRejectSidedDeal(bytes32)": "80ccb070"
		}
	},
	"abi": [
		{
			"inputs": [
				{
					"internalType": "uint256",
					"name": "_depositCommissionPercent",
					"type": "uint256"
				},
				{
					"internalType": "address",
					"name": "_commissionRecipient",
					"type": "address"
				}
			],
			"stateMutability": "nonpayable",
			"type": "constructor"
		},
		{
			"inputs": [
				{
					"internalType": "address",
					"name": "owner",
					"type": "address"
				}
			],
			"name": "OwnableInvalidOwner",
			"type": "error"
		},
		{
			"inputs": [
				{
					"internalType": "address",
					"name": "account",
					"type": "address"
				}
			],
			"name": "OwnableUnauthorizedAccount",
			"type": "error"
		},
		{
			"anonymous": false,
			"inputs": [
				{
					"indexed": true,
					"internalType": "bytes32",
					"name": "dealHash",
					"type": "bytes32"
				},
				{
					"indexed": true,
					"internalType": "address",
					"name": "initiator",
					"type": "address"
				},
				{
					"indexed": true,
					"internalType": "address",
					"name": "counterparty",
					"type": "address"
				},
				{
					"indexed": false,
					"internalType": "address",
					"name": "mediator",
					"type": "address"
				},
				{
					"indexed": false,
					"internalType": "uint256",
					"name": "amount",
					"type": "uint256"
				}
			],
			"name": "AddDepositByCounterparty",
			"type": "event"
		},
		{
			"anonymous": false,
			"inputs": [
				{
					"indexed": true,
					"internalType": "bytes32",
					"name": "dealHash",
					"type": "bytes32"
				},
				{
					"indexed": true,
					"internalType": "address",
					"name": "initiator",
					"type": "address"
				},
				{
					"indexed": true,
					"internalType": "address",
					"name": "counterparty",
					"type": "address"
				},
				{
					"indexed": false,
					"internalType": "address",
					"name": "mediator",
					"type": "address"
				},
				{
					"indexed": false,
					"internalType": "uint256",
					"name": "amount",
					"type": "uint256"
				}
			],
			"name": "AddDepositByInitiator",
			"type": "event"
		},
		{
			"anonymous": false,
			"inputs": [
				{
					"indexed": false,
					"internalType": "uint256",
					"name": "newCommissionPercent",
					"type": "uint256"
				},
				{
					"indexed": false,
					"internalType": "address",
					"name": "newCommissionRecipient",
					"type": "address"
				}
			],
			"name": "CommissionChanged",
			"type": "event"
		},
		{
			"anonymous": false,
			"inputs": [
				{
					"indexed": true,
					"internalType": "address",
					"name": "by",
					"type": "address"
				}
			],
			"name": "ContractDisabled",
			"type": "event"
		},
		{
			"anonymous": false,
			"inputs": [
				{
					"indexed": true,
					"internalType": "address",
					"name": "by",
					"type": "address"
				}
			],
			"name": "ContractEnabled",
			"type": "event"
		},
		{
			"anonymous": false,
			"inputs": [
				{
					"indexed": false,
					"internalType": "bool",
					"name": "status",
					"type": "bool"
				}
			],
			"name": "ContractStatusChanged",
			"type": "event"
		},
		{
			"anonymous": false,
			"inputs": [
				{
					"indexed": true,
					"internalType": "bytes32",
					"name": "dealHash",
					"type": "bytes32"
				},
				{
					"indexed": true,
					"internalType": "address",
					"name": "initiator",
					"type": "address"
				},
				{
					"indexed": true,
					"internalType": "address",
					"name": "counterparty",
					"type": "address"
				},
				{
					"indexed": false,
					"internalType": "address",
					"name": "mediator",
					"type": "address"
				},
				{
					"indexed": false,
					"internalType": "address",
					"name": "sender",
					"type": "address"
				}
			],
			"name": "DealCanceled",
			"type": "event"
		},
		{
			"anonymous": false,
			"inputs": [
				{
					"indexed": true,
					"internalType": "bytes32",
					"name": "dealHash",
					"type": "bytes32"
				},
				{
					"indexed": true,
					"internalType": "address",
					"name": "initiator",
					"type": "address"
				},
				{
					"indexed": true,
					"internalType": "address",
					"name": "counterparty",
					"type": "address"
				},
				{
					"indexed": false,
					"internalType": "address",
					"name": "mediator",
					"type": "address"
				},
				{
					"indexed": false,
					"internalType": "address",
					"name": "sender",
					"type": "address"
				}
			],
			"name": "DealCompited",
			"type": "event"
		},
		{
			"anonymous": false,
			"inputs": [
				{
					"indexed": true,
					"internalType": "bytes32",
					"name": "dealHash",
					"type": "bytes32"
				},
				{
					"indexed": true,
					"internalType": "address",
					"name": "initiator",
					"type": "address"
				},
				{
					"indexed": true,
					"internalType": "address",
					"name": "counterparty",
					"type": "address"
				},
				{
					"indexed": false,
					"internalType": "address",
					"name": "mediator",
					"type": "address"
				}
			],
			"name": "DealCreated",
			"type": "event"
		},
		{
			"anonymous": false,
			"inputs": [
				{
					"indexed": true,
					"internalType": "bytes32",
					"name": "dealHash",
					"type": "bytes32"
				},
				{
					"indexed": true,
					"internalType": "address",
					"name": "initiator",
					"type": "address"
				},
				{
					"indexed": true,
					"internalType": "address",
					"name": "counterparty",
					"type": "address"
				},
				{
					"indexed": false,
					"internalType": "address",
					"name": "mediator",
					"type": "address"
				}
			],
			"name": "DealRequestCreated",
			"type": "event"
		},
		{
			"anonymous": false,
			"inputs": [
				{
					"indexed": true,
					"internalType": "address",
					"name": "user",
					"type": "address"
				},
				{
					"indexed": false,
					"internalType": "uint256",
					"name": "amount",
					"type": "uint256"
				},
				{
					"indexed": false,
					"internalType": "uint256",
					"name": "commission",
					"type": "uint256"
				},
				{
					"indexed": false,
					"internalType": "address",
					"name": "token",
					"type": "address"
				}
			],
			"name": "Deposit",
			"type": "event"
		},
		{
			"anonymous": false,
			"inputs": [
				{
					"indexed": true,
					"internalType": "bytes32",
					"name": "dealHash",
					"type": "bytes32"
				},
				{
					"indexed": true,
					"internalType": "address",
					"name": "initiator",
					"type": "address"
				},
				{
					"indexed": true,
					"internalType": "address",
					"name": "counterparty",
					"type": "address"
				},
				{
					"indexed": false,
					"internalType": "address",
					"name": "mediator",
					"type": "address"
				},
				{
					"indexed": false,
					"internalType": "address",
					"name": "sender",
					"type": "address"
				},
				{
					"indexed": false,
					"internalType": "uint256",
					"name": "amount",
					"type": "uint256"
				},
				{
					"indexed": false,
					"internalType": "uint256",
					"name": "fee",
					"type": "uint256"
				}
			],
			"name": "GivebackToCounterparty",
			"type": "event"
		},
		{
			"anonymous": false,
			"inputs": [
				{
					"indexed": true,
					"internalType": "bytes32",
					"name": "dealHash",
					"type": "bytes32"
				},
				{
					"indexed": true,
					"internalType": "address",
					"name": "initiator",
					"type": "address"
				},
				{
					"indexed": true,
					"internalType": "address",
					"name": "counterparty",
					"type": "address"
				},
				{
					"indexed": false,
					"internalType": "address",
					"name": "mediator",
					"type": "address"
				},
				{
					"indexed": false,
					"internalType": "address",
					"name": "sender",
					"type": "address"
				},
				{
					"indexed": false,
					"internalType": "uint256",
					"name": "amount",
					"type": "uint256"
				},
				{
					"indexed": false,
					"internalType": "uint256",
					"name": "fee",
					"type": "uint256"
				}
			],
			"name": "GivebackToInitiator",
			"type": "event"
		},
		{
			"anonymous": false,
			"inputs": [
				{
					"indexed": true,
					"internalType": "address",
					"name": "mediator",
					"type": "address"
				},
				{
					"indexed": false,
					"internalType": "bytes32",
					"name": "dealHash",
					"type": "bytes32"
				}
			],
			"name": "JoinedToDealAsMediator",
			"type": "event"
		},
		{
			"anonymous": false,
			"inputs": [
				{
					"indexed": true,
					"internalType": "address",
					"name": "previousOwner",
					"type": "address"
				},
				{
					"indexed": true,
					"internalType": "address",
					"name": "newOwner",
					"type": "address"
				}
			],
			"name": "OwnershipTransferred",
			"type": "event"
		},
		{
			"anonymous": false,
			"inputs": [
				{
					"indexed": true,
					"internalType": "address",
					"name": "from",
					"type": "address"
				},
				{
					"indexed": true,
					"internalType": "address",
					"name": "to",
					"type": "address"
				},
				{
					"indexed": false,
					"internalType": "uint256",
					"name": "value",
					"type": "uint256"
				}
			],
			"name": "Transfer",
			"type": "event"
		},
		{
			"anonymous": false,
			"inputs": [
				{
					"indexed": true,
					"internalType": "bytes32",
					"name": "dealHash",
					"type": "bytes32"
				},
				{
					"indexed": true,
					"internalType": "address",
					"name": "initiator",
					"type": "address"
				},
				{
					"indexed": true,
					"internalType": "address",
					"name": "counterparty",
					"type": "address"
				},
				{
					"indexed": false,
					"internalType": "address",
					"name": "mediator",
					"type": "address"
				},
				{
					"indexed": false,
					"internalType": "address",
					"name": "sender",
					"type": "address"
				},
				{
					"indexed": false,
					"internalType": "uint256",
					"name": "amount",
					"type": "uint256"
				},
				{
					"indexed": false,
					"internalType": "uint256",
					"name": "fee",
					"type": "uint256"
				}
			],
			"name": "TransferToCounterparty",
			"type": "event"
		},
		{
			"anonymous": false,
			"inputs": [
				{
					"indexed": true,
					"internalType": "bytes32",
					"name": "dealHash",
					"type": "bytes32"
				},
				{
					"indexed": true,
					"internalType": "address",
					"name": "initiator",
					"type": "address"
				},
				{
					"indexed": true,
					"internalType": "address",
					"name": "counterparty",
					"type": "address"
				},
				{
					"indexed": false,
					"internalType": "address",
					"name": "mediator",
					"type": "address"
				},
				{
					"indexed": false,
					"internalType": "address",
					"name": "sender",
					"type": "address"
				},
				{
					"indexed": false,
					"internalType": "address",
					"name": "target",
					"type": "address"
				},
				{
					"indexed": false,
					"internalType": "uint256",
					"name": "amountInitiator",
					"type": "uint256"
				},
				{
					"indexed": false,
					"internalType": "uint256",
					"name": "amountCounterparty",
					"type": "uint256"
				},
				{
					"indexed": false,
					"internalType": "uint256",
					"name": "feeInitiator",
					"type": "uint256"
				},
				{
					"indexed": false,
					"internalType": "uint256",
					"name": "feeCounterparty",
					"type": "uint256"
				}
			],
			"name": "TransferToFromDeal",
			"type": "event"
		},
		{
			"anonymous": false,
			"inputs": [
				{
					"indexed": true,
					"internalType": "bytes32",
					"name": "dealHash",
					"type": "bytes32"
				},
				{
					"indexed": true,
					"internalType": "address",
					"name": "initiator",
					"type": "address"
				},
				{
					"indexed": true,
					"internalType": "address",
					"name": "counterparty",
					"type": "address"
				},
				{
					"indexed": false,
					"internalType": "address",
					"name": "mediator",
					"type": "address"
				},
				{
					"indexed": false,
					"internalType": "address",
					"name": "sender",
					"type": "address"
				},
				{
					"indexed": false,
					"internalType": "uint256",
					"name": "amount",
					"type": "uint256"
				},
				{
					"indexed": false,
					"internalType": "uint256",
					"name": "fee",
					"type": "uint256"
				}
			],
			"name": "TransferToInitiator",
			"type": "event"
		},
		{
			"anonymous": false,
			"inputs": [
				{
					"indexed": true,
					"internalType": "address",
					"name": "user",
					"type": "address"
				},
				{
					"indexed": false,
					"internalType": "uint256",
					"name": "amount",
					"type": "uint256"
				},
				{
					"indexed": false,
					"internalType": "address",
					"name": "token",
					"type": "address"
				}
			],
			"name": "Withdrawal",
			"type": "event"
		},
		{
			"inputs": [
				{
					"internalType": "bytes32",
					"name": "dealId",
					"type": "bytes32"
				},
				{
					"internalType": "uint256",
					"name": "amount",
					"type": "uint256"
				}
			],
			"name": "addDepositByCounterparty",
			"outputs": [
				{
					"internalType": "bool",
					"name": "",
					"type": "bool"
				}
			],
			"stateMutability": "nonpayable",
			"type": "function"
		},
		{
			"inputs": [
				{
					"internalType": "bytes32",
					"name": "dealId",
					"type": "bytes32"
				},
				{
					"internalType": "uint256",
					"name": "amount",
					"type": "uint256"
				}
			],
			"name": "addDepositByInitiator",
			"outputs": [
				{
					"internalType": "bool",
					"name": "",
					"type": "bool"
				}
			],
			"stateMutability": "payable",
			"type": "function"
		},
		{
			"inputs": [
				{
					"internalType": "address",
					"name": "user",
					"type": "address"
				}
			],
			"name": "balanceOf",
			"outputs": [
				{
					"internalType": "uint256",
					"name": "",
					"type": "uint256"
				}
			],
			"stateMutability": "view",
			"type": "function"
		},
		{
			"inputs": [
				{
					"internalType": "address",
					"name": "user",
					"type": "address"
				},
				{
					"internalType": "address",
					"name": "token",
					"type": "address"
				}
			],
			"name": "balanceOf",
			"outputs": [
				{
					"internalType": "uint256",
					"name": "",
					"type": "uint256"
				}
			],
			"stateMutability": "view",
			"type": "function"
		},
		{
			"inputs": [
				{
					"internalType": "address",
					"name": "",
					"type": "address"
				},
				{
					"internalType": "address",
					"name": "",
					"type": "address"
				}
			],
			"name": "balances",
			"outputs": [
				{
					"internalType": "uint256",
					"name": "",
					"type": "uint256"
				}
			],
			"stateMutability": "view",
			"type": "function"
		},
		{
			"inputs": [
				{
					"internalType": "bytes32",
					"name": "dealId",
					"type": "bytes32"
				}
			],
			"name": "cancelDeal",
			"outputs": [
				{
					"internalType": "bool",
					"name": "",
					"type": "bool"
				}
			],
			"stateMutability": "nonpayable",
			"type": "function"
		},
		{
			"inputs": [],
			"name": "commissionRecipient",
			"outputs": [
				{
					"internalType": "address",
					"name": "",
					"type": "address"
				}
			],
			"stateMutability": "view",
			"type": "function"
		},
		{
			"inputs": [
				{
					"internalType": "bytes32",
					"name": "dealId",
					"type": "bytes32"
				}
			],
			"name": "completeDeal",
			"outputs": [
				{
					"internalType": "bool",
					"name": "",
					"type": "bool"
				}
			],
			"stateMutability": "nonpayable",
			"type": "function"
		},
		{
			"inputs": [],
			"name": "contractEnabled",
			"outputs": [
				{
					"internalType": "bool",
					"name": "",
					"type": "bool"
				}
			],
			"stateMutability": "view",
			"type": "function"
		},
		{
			"inputs": [
				{
					"internalType": "bytes32",
					"name": "dealId",
					"type": "bytes32"
				}
			],
			"name": "counterpartyAcceptSidedDeal",
			"outputs": [
				{
					"internalType": "bool",
					"name": "",
					"type": "bool"
				}
			],
			"stateMutability": "nonpayable",
			"type": "function"
		},
		{
			"inputs": [
				{
					"internalType": "address payable",
					"name": "_counterparty",
					"type": "address"
				},
				{
					"internalType": "address payable",
					"name": "_mediator",
					"type": "address"
				},
				{
					"internalType": "uint256",
					"name": "_amount",
					"type": "uint256"
				},
				{
					"internalType": "uint256",
					"name": "_PRC_MediatorFee",
					"type": "uint256"
				},
				{
					"internalType": "address",
					"name": "_tokenAddress",
					"type": "address"
				},
				{
					"internalType": "uint256",
					"name": "_expirationDate",
					"type": "uint256"
				},
				{
					"internalType": "enum MediatorAction",
					"name": "_mediatorActionOnExpiration",
					"type": "uint8"
				}
			],
			"name": "createDeal",
			"outputs": [
				{
					"internalType": "bytes32",
					"name": "",
					"type": "bytes32"
				}
			],
			"stateMutability": "nonpayable",
			"type": "function"
		},
		{
			"inputs": [
				{
					"internalType": "address payable",
					"name": "_counterparty",
					"type": "address"
				},
				{
					"internalType": "address payable",
					"name": "_mediator",
					"type": "address"
				},
				{
					"internalType": "uint256",
					"name": "_initiatorCreateAmount",
					"type": "uint256"
				},
				{
					"internalType": "uint256",
					"name": "_counterpartyCreateAmount",
					"type": "uint256"
				},
				{
					"internalType": "uint256",
					"name": "_PRC_MediatorFeeInititor",
					"type": "uint256"
				},
				{
					"internalType": "uint256",
					"name": "_PRC_MediatorFeeCounterparty",
					"type": "uint256"
				},
				{
					"internalType": "address",
					"name": "_initiatorTokenAddress",
					"type": "address"
				},
				{
					"internalType": "address",
					"name": "_counterpartyTokenAddress",
					"type": "address"
				},
				{
					"internalType": "uint256",
					"name": "_expirationDate",
					"type": "uint256"
				},
				{
					"internalType": "enum MediatorAction",
					"name": "_mediatorActionOnExpiration",
					"type": "uint8"
				}
			],
			"name": "createSidedDeal",
			"outputs": [
				{
					"internalType": "bytes32",
					"name": "",
					"type": "bytes32"
				}
			],
			"stateMutability": "nonpayable",
			"type": "function"
		},
		{
			"inputs": [
				{
					"internalType": "bytes32",
					"name": "",
					"type": "bytes32"
				}
			],
			"name": "deals",
			"outputs": [
				{
					"internalType": "address payable",
					"name": "initiator",
					"type": "address"
				},
				{
					"internalType": "address payable",
					"name": "counterparty",
					"type": "address"
				},
				{
					"internalType": "address payable",
					"name": "mediator",
					"type": "address"
				},
				{
					"internalType": "bool",
					"name": "isCompleted",
					"type": "bool"
				},
				{
					"internalType": "bool",
					"name": "isCanceled",
					"type": "bool"
				},
				{
					"internalType": "bool",
					"name": "isTwoSided",
					"type": "bool"
				},
				{
					"internalType": "bool",
					"name": "isSignedByCounterparty",
					"type": "bool"
				},
				{
					"internalType": "uint256",
					"name": "initiatorCreateAmount",
					"type": "uint256"
				},
				{
					"internalType": "uint256",
					"name": "counterpartyCreateAmount",
					"type": "uint256"
				},
				{
					"internalType": "uint256",
					"name": "initiatorCurrentAmount",
					"type": "uint256"
				},
				{
					"internalType": "uint256",
					"name": "counterpartyCurrentAmount",
					"type": "uint256"
				},
				{
					"internalType": "uint256",
					"name": "PRC_InitatorMediatorFee",
					"type": "uint256"
				},
				{
					"internalType": "uint256",
					"name": "PRC_CounterpartyMediatorFee",
					"type": "uint256"
				},
				{
					"internalType": "address",
					"name": "initiatorTokenAddress",
					"type": "address"
				},
				{
					"internalType": "address",
					"name": "counterpartyTokenAddress",
					"type": "address"
				},
				{
					"internalType": "uint256",
					"name": "expirationDate",
					"type": "uint256"
				},
				{
					"internalType": "enum MediatorAction",
					"name": "mediatorActionOnExpiration",
					"type": "uint8"
				}
			],
			"stateMutability": "view",
			"type": "function"
		},
		{
			"inputs": [
				{
					"internalType": "address",
					"name": "token",
					"type": "address"
				},
				{
					"internalType": "uint256",
					"name": "amount",
					"type": "uint256"
				}
			],
			"name": "deposit",
			"outputs": [],
			"stateMutability": "payable",
			"type": "function"
		},
		{
			"inputs": [],
			"name": "depositCommissionPercent",
			"outputs": [
				{
					"internalType": "uint256",
					"name": "",
					"type": "uint256"
				}
			],
			"stateMutability": "view",
			"type": "function"
		},
		{
			"inputs": [],
			"name": "disableContract",
			"outputs": [],
			"stateMutability": "nonpayable",
			"type": "function"
		},
		{
			"inputs": [],
			"name": "enableContract",
			"outputs": [],
			"stateMutability": "nonpayable",
			"type": "function"
		},
		{
			"inputs": [
				{
					"internalType": "bytes32",
					"name": "dealId",
					"type": "bytes32"
				}
			],
			"name": "executeActionsAfterExpiration",
			"outputs": [
				{
					"internalType": "bool",
					"name": "",
					"type": "bool"
				}
			],
			"stateMutability": "nonpayable",
			"type": "function"
		},
		{
			"inputs": [],
			"name": "getCompletedDeals",
			"outputs": [
				{
					"internalType": "uint256",
					"name": "",
					"type": "uint256"
				}
			],
			"stateMutability": "view",
			"type": "function"
		},
		{
			"inputs": [
				{
					"internalType": "bytes32",
					"name": "dealId",
					"type": "bytes32"
				}
			],
			"name": "getDeal",
			"outputs": [
				{
					"components": [
						{
							"internalType": "address payable",
							"name": "initiator",
							"type": "address"
						},
						{
							"internalType": "address payable",
							"name": "counterparty",
							"type": "address"
						},
						{
							"internalType": "address payable",
							"name": "mediator",
							"type": "address"
						},
						{
							"internalType": "bool",
							"name": "isCompleted",
							"type": "bool"
						},
						{
							"internalType": "bool",
							"name": "isCanceled",
							"type": "bool"
						},
						{
							"internalType": "bool",
							"name": "isTwoSided",
							"type": "bool"
						},
						{
							"internalType": "bool",
							"name": "isSignedByCounterparty",
							"type": "bool"
						},
						{
							"internalType": "uint256",
							"name": "initiatorCreateAmount",
							"type": "uint256"
						},
						{
							"internalType": "uint256",
							"name": "counterpartyCreateAmount",
							"type": "uint256"
						},
						{
							"internalType": "uint256",
							"name": "initiatorCurrentAmount",
							"type": "uint256"
						},
						{
							"internalType": "uint256",
							"name": "counterpartyCurrentAmount",
							"type": "uint256"
						},
						{
							"internalType": "uint256",
							"name": "PRC_InitatorMediatorFee",
							"type": "uint256"
						},
						{
							"internalType": "uint256",
							"name": "PRC_CounterpartyMediatorFee",
							"type": "uint256"
						},
						{
							"internalType": "address",
							"name": "initiatorTokenAddress",
							"type": "address"
						},
						{
							"internalType": "address",
							"name": "counterpartyTokenAddress",
							"type": "address"
						},
						{
							"internalType": "uint256",
							"name": "expirationDate",
							"type": "uint256"
						},
						{
							"internalType": "enum MediatorAction",
							"name": "mediatorActionOnExpiration",
							"type": "uint8"
						}
					],
					"internalType": "struct Deal",
					"name": "",
					"type": "tuple"
				}
			],
			"stateMutability": "view",
			"type": "function"
		},
		{
			"inputs": [],
			"name": "getTotalDeals",
			"outputs": [
				{
					"internalType": "uint256",
					"name": "",
					"type": "uint256"
				}
			],
			"stateMutability": "view",
			"type": "function"
		},
		{
			"inputs": [
				{
					"internalType": "bytes32",
					"name": "dealId",
					"type": "bytes32"
				},
				{
					"internalType": "uint256",
					"name": "amount",
					"type": "uint256"
				}
			],
			"name": "givebackToConunterparty",
			"outputs": [
				{
					"internalType": "bool",
					"name": "",
					"type": "bool"
				}
			],
			"stateMutability": "nonpayable",
			"type": "function"
		},
		{
			"inputs": [
				{
					"internalType": "bytes32",
					"name": "dealId",
					"type": "bytes32"
				},
				{
					"internalType": "uint256",
					"name": "amount",
					"type": "uint256"
				}
			],
			"name": "givebackToInitiator",
			"outputs": [
				{
					"internalType": "bool",
					"name": "",
					"type": "bool"
				}
			],
			"stateMutability": "nonpayable",
			"type": "function"
		},
		{
			"inputs": [],
			"name": "owner",
			"outputs": [
				{
					"internalType": "address",
					"name": "",
					"type": "address"
				}
			],
			"stateMutability": "view",
			"type": "function"
		},
		{
			"inputs": [
				{
					"internalType": "bytes32",
					"name": "dealId",
					"type": "bytes32"
				}
			],
			"name": "payUpCounterpartyAcceptSidedDeal",
			"outputs": [
				{
					"internalType": "bool",
					"name": "",
					"type": "bool"
				}
			],
			"stateMutability": "payable",
			"type": "function"
		},
		{
			"inputs": [
				{
					"internalType": "address payable",
					"name": "_counterparty",
					"type": "address"
				},
				{
					"internalType": "address payable",
					"name": "_mediator",
					"type": "address"
				},
				{
					"internalType": "uint256",
					"name": "_amount",
					"type": "uint256"
				},
				{
					"internalType": "uint256",
					"name": "_PRC_MediatorFee",
					"type": "uint256"
				},
				{
					"internalType": "address",
					"name": "_tokenAddress",
					"type": "address"
				},
				{
					"internalType": "uint256",
					"name": "_expirationDate",
					"type": "uint256"
				},
				{
					"internalType": "enum MediatorAction",
					"name": "_mediatorActionOnExpiration",
					"type": "uint8"
				}
			],
			"name": "payUpCreateDeal",
			"outputs": [
				{
					"internalType": "bytes32",
					"name": "",
					"type": "bytes32"
				}
			],
			"stateMutability": "payable",
			"type": "function"
		},
		{
			"inputs": [
				{
					"internalType": "address payable",
					"name": "_counterparty",
					"type": "address"
				},
				{
					"internalType": "address payable",
					"name": "_mediator",
					"type": "address"
				},
				{
					"internalType": "uint256",
					"name": "_initiatorCreateAmount",
					"type": "uint256"
				},
				{
					"internalType": "uint256",
					"name": "_counterpartyCreateAmount",
					"type": "uint256"
				},
				{
					"internalType": "uint256",
					"name": "_PRC_MediatorFeeInititor",
					"type": "uint256"
				},
				{
					"internalType": "uint256",
					"name": "_PRC_MediatorFeeCounterparty",
					"type": "uint256"
				},
				{
					"internalType": "address",
					"name": "_initiatorTokenAddress",
					"type": "address"
				},
				{
					"internalType": "address",
					"name": "_counterpartyTokenAddress",
					"type": "address"
				},
				{
					"internalType": "uint256",
					"name": "_expirationDate",
					"type": "uint256"
				},
				{
					"internalType": "enum MediatorAction",
					"name": "_mediatorActionOnExpiration",
					"type": "uint8"
				}
			],
			"name": "payUpCreateSidedDeal",
			"outputs": [
				{
					"internalType": "bytes32",
					"name": "",
					"type": "bytes32"
				}
			],
			"stateMutability": "payable",
			"type": "function"
		},
		{
			"inputs": [
				{
					"internalType": "bytes32",
					"name": "dealId",
					"type": "bytes32"
				}
			],
			"name": "rejectSidedDeal",
			"outputs": [
				{
					"internalType": "bool",
					"name": "",
					"type": "bool"
				}
			],
			"stateMutability": "nonpayable",
			"type": "function"
		},
		{
			"inputs": [],
			"name": "renounceOwnership",
			"outputs": [],
			"stateMutability": "nonpayable",
			"type": "function"
		},
		{
			"inputs": [
				{
					"internalType": "uint256",
					"name": "newCommissionPercent",
					"type": "uint256"
				},
				{
					"internalType": "address",
					"name": "newRecipient",
					"type": "address"
				}
			],
			"name": "setDepositCommission",
			"outputs": [],
			"stateMutability": "nonpayable",
			"type": "function"
		},
		{
			"inputs": [],
			"name": "totalCompletedDeals",
			"outputs": [
				{
					"internalType": "uint256",
					"name": "",
					"type": "uint256"
				}
			],
			"stateMutability": "view",
			"type": "function"
		},
		{
			"inputs": [],
			"name": "totalDeals",
			"outputs": [
				{
					"internalType": "uint256",
					"name": "",
					"type": "uint256"
				}
			],
			"stateMutability": "view",
			"type": "function"
		},
		{
			"inputs": [
				{
					"internalType": "address",
					"name": "to",
					"type": "address"
				},
				{
					"internalType": "address",
					"name": "token",
					"type": "address"
				},
				{
					"internalType": "uint256",
					"name": "amount",
					"type": "uint256"
				}
			],
			"name": "transfer",
			"outputs": [
				{
					"internalType": "bool",
					"name": "",
					"type": "bool"
				}
			],
			"stateMutability": "nonpayable",
			"type": "function"
		},
		{
			"inputs": [
				{
					"internalType": "address",
					"name": "newOwner",
					"type": "address"
				}
			],
			"name": "transferOwnership",
			"outputs": [],
			"stateMutability": "nonpayable",
			"type": "function"
		},
		{
			"inputs": [
				{
					"internalType": "bytes32",
					"name": "dealId",
					"type": "bytes32"
				},
				{
					"internalType": "uint256",
					"name": "amount",
					"type": "uint256"
				}
			],
			"name": "transferToCounterparty",
			"outputs": [
				{
					"internalType": "bool",
					"name": "",
					"type": "bool"
				}
			],
			"stateMutability": "nonpayable",
			"type": "function"
		},
		{
			"inputs": [
				{
					"internalType": "bytes32",
					"name": "dealId",
					"type": "bytes32"
				},
				{
					"internalType": "uint256",
					"name": "amount",
					"type": "uint256"
				}
			],
			"name": "transferToInitiator",
			"outputs": [
				{
					"internalType": "bool",
					"name": "",
					"type": "bool"
				}
			],
			"stateMutability": "nonpayable",
			"type": "function"
		},
		{
			"inputs": [
				{
					"internalType": "address",
					"name": "token",
					"type": "address"
				},
				{
					"internalType": "uint256",
					"name": "amount",
					"type": "uint256"
				}
			],
			"name": "withdraw",
			"outputs": [
				{
					"internalType": "bool",
					"name": "",
					"type": "bool"
				}
			],
			"stateMutability": "nonpayable",
			"type": "function"
		},
		{
			"inputs": [
				{
					"internalType": "bytes32",
					"name": "dealId",
					"type": "bytes32"
				}
			],
			"name": "withdrawRejectSidedDeal",
			"outputs": [
				{
					"internalType": "bool",
					"name": "",
					"type": "bool"
				}
			],
			"stateMutability": "nonpayable",
			"type": "function"
		}
	]
}