{
	"data": {
		"bytecode": {
			"linkReferences": {
				"Deal.sol": {
					"DealContract": [
						{
							"length": 20,
							"start": 4093
						},
						{
							"length": 20,
							"start": 4218
						},
						{
							"length": 20,
							"start": 5288
						},
						{
							"length": 20,
							"start": 5413
						}
					]
				},
				"Percent.sol": {
					"Percent": [
						{
							"length": 20,
							"start": 3167
						}
					]
				}
			},
			"object": "60806040525f805460ff60a01b1916600160a01b1781556008819055600955348015610029575f5ffd5b50604051611c74380380611c74833981016040819052610048916101c3565b8181338061007057604051631e4fbdf760e01b81525f60048201526024015b60405180910390fd5b61007981610174565b506001600160a01b0381166100e85760405162461bcd60e51b815260206004820152602f60248201527f436f6d6d697373696f6e20726563697069656e742063616e6e6f74206265207460448201526e6865207a65726f206164647265737360881b6064820152608401610067565b6402540be4008211156101475760405162461bcd60e51b815260206004820152602160248201527f436f6d6d697373696f6e2070657263656e7461676520697320746f6f206869676044820152600d60fb1b6064820152608401610067565b600291909155600380546001600160a01b0319166001600160a01b03909216919091179055506101fd9050565b5f80546001600160a01b038381166001600160a01b0319831681178455604051919092169283917f8be0079c531659141344cd1fd0a4f28419497f9722a3daafe3b4186f6b6457e09190a35050565b5f5f604083850312156101d4575f5ffd5b825160208401519092506001600160a01b03811681146101f2575f5ffd5b809150509250929050565b611a6a8061020a5f395ff3fe6080604052600436106101ba575f3560e01c806381cd872a116100f2578063beabacc811610092578063f2fde38b11610062578063f2fde38b146106d3578063f3fef3a3146106f2578063f75ce14714610711578063f7888aec14610724575f5ffd5b8063beabacc814610655578063c23f001f14610674578063e08560a4146106aa578063ed50ab8a146106bf575f5ffd5b80638da5cb5b116100cd5780638da5cb5b146105e6578063966d1f1d14610602578063b0eaa1f614610617578063b9c22b2314610636575f5ffd5b806381cd872a146104c8578063894ba833146105bd578063899a3ffd146105d1575f5ffd5b806347e7ef241161015d5780635bd447ac116101385780635bd447ac1461043757806370a0823114610456578063715018a614610495578063723a3816146104a9575f5ffd5b806347e7ef24146102d657806351a6fad5146102e95780635379719b14610423575f5ffd5b8063367edd3211610198578063367edd32146102485780633b063aa01461025c57806341b3a0d914610288578063442239c9146102b7575f5ffd5b806306fd154a146101be57806315f8a314146101fa57806319e9bfc81461021b575b5f5ffd5b3480156101c9575f5ffd5b506003546101dd906001600160a01b031681565b6040516001600160a01b0390911681526020015b60405180910390f35b348015610205575f5ffd5b5061021961021436600461159c565b610743565b005b348015610226575f5ffd5b5061023a6102353660046115ca565b61087e565b6040519081526020016101f1565b348015610253575f5ffd5b506102196108a9565b348015610267575f5ffd5b5061027b6102763660046115f4565b6108fa565b6040516101f19190611616565b348015610293575f5ffd5b505f546102a790600160a01b900460ff1681565b60405190151581526020016101f1565b3480156102c2575f5ffd5b5061023a6102d13660046115ca565b610963565b6102196102e43660046115ca565b61097c565b3480156102f4575f5ffd5b50610416610303366004611658565b60408051610180810182525f80825260208201819052918101829052606081018290526080810182905260a0810182905260c0810182905260e08101829052610100810182905261012081018290526101408101829052610160810191909152505f9081526004602081815260409283902083516101808101855281546001600160a01b0390811682526001830154811693820193909352600282015480841695820195909552600160a01b90940460ff1615156060850152600381015460808501529182015460a0840152600582015460c0840152600682015460e08401526007820154610100840152600882015461012084015260098201548116610140840152600a909101541661016082015290565b6040516101f19190611744565b34801561042e575f5ffd5b5060085461023a565b348015610442575f5ffd5b5061027b6104513660046115f4565b610c43565b348015610461575f5ffd5b5061023a6104703660046115f4565b6001600160a01b03165f90815260016020908152604080832083805290915290205490565b3480156104a0575f5ffd5b50610219610caa565b3480156104b4575f5ffd5b5061027b6104c33660046115f4565b610cbd565b3480156104d3575f5ffd5b5061054f6104e2366004611658565b600460208190525f918252604090912080546001820154600283015460038401549484015460058501546006860154600787015460088801546009890154600a909901546001600160a01b039889169a9789169989881699600160a01b90980460ff16989790811691168c565b604080516001600160a01b039d8e1681529b8d1660208d0152998c16998b019990995296151560608a0152608089019590955260a088019390935260c087019190915260e08601526101008501526101208401528316610140830152909116610160820152610180016101f1565b3480156105c8575f5ffd5b50610219610d24565b3480156105dc575f5ffd5b5061023a60025481565b3480156105f1575f5ffd5b505f546001600160a01b03166101dd565b34801561060d575f5ffd5b5061023a60085481565b348015610622575f5ffd5b5061023a6106313660046115ca565b610d68565b348015610641575f5ffd5b5061023a610650366004611753565b610d81565b348015610660575f5ffd5b506102a761066f3660046117ae565b611035565b34801561067f575f5ffd5b5061023a61068e3660046117ec565b600160209081525f928352604080842090915290825290205481565b3480156106b5575f5ffd5b5061023a60095481565b3480156106ca575f5ffd5b5060095461023a565b3480156106de575f5ffd5b506102196106ed3660046115f4565b6110dc565b3480156106fd575f5ffd5b5061021961070c3660046115ca565b611119565b61023a61071f366004611753565b61126d565b34801561072f575f5ffd5b5061023a61073e3660046117ec565b6114e1565b61074b61150d565b6001600160a01b0381166107be5760405162461bcd60e51b815260206004820152602f60248201527f436f6d6d697373696f6e20726563697069656e742063616e6e6f74206265207460448201526e6865207a65726f206164647265737360881b60648201526084015b60405180910390fd5b6402540be40082111561081d5760405162461bcd60e51b815260206004820152602160248201527f436f6d6d697373696f6e2070657263656e7461676520697320746f6f206869676044820152600d60fb1b60648201526084016107b5565b6002829055600380546001600160a01b0319166001600160a01b0383169081179091556040805184815260208101929092527f14bdaadaed0453e7b5b66195b42156ba995b9e5abd0da98368839851d69ad889910160405180910390a15050565b6007602052815f5260405f208181548110610897575f80fd5b905f5260205f20015f91509150505481565b6108b161150d565b5f805460ff60a01b1916600160a01b179055604051600181527f017904e4fe7d59bb4603c7c045bc275a05da9ea3a4ac007fc80fffeaf119186d906020015b60405180910390a1565b6001600160a01b0381165f9081526006602090815260409182902080548351818402810184019094528084526060939283018282801561095757602002820191905f5260205f20905b815481526020019060010190808311610943575b50505050509050919050565b6006602052815f5260405f208181548110610897575f80fd5b5f54600160a01b900460ff166109d45760405162461bcd60e51b815260206004820152601f60248201527f436f6e7472616374206172652063757272656e746c792064697361626c65640060448201526064016107b5565b5f8111610a325760405162461bcd60e51b815260206004820152602660248201527f4465706f73697420616d6f756e74206d757374206265206772656174657220746044820152653430b710181760d11b60648201526084016107b5565b600254604051631c8f084760e01b81526004810183905260248101919091525f9073__$8537b7efa173772577da826929141ce939$__90631c8f084790604401602060405180830381865af4158015610a8d573d5f5f3e3d5ffd5b505050506040513d601f19601f82011682018060405250810190610ab19190611818565b90506001600160a01b038316610b7d57813414610b105760405162461bcd60e51b815260206004820152601c60248201527f455448206465706f73697420616d6f756e74206d69736d617463682e0000000060448201526064016107b5565b335f90815260016020908152604080832083805290915281208054849290610b39908490611843565b90915550506003546001600160a01b03165f90815260016020908152604080832083805290915281208054839290610b72908490611843565b90915550610bf39050565b335f9081526001602090815260408083206001600160a01b038716845290915281208054849290610baf908490611843565b90915550506003546001600160a01b039081165f90815260016020908152604080832093871683529290529081208054839290610bed908490611843565b90915550505b60408051838152602081018390526001600160a01b03851681830152905133917f02d7e648dd130fc184d383e55bb126ac4c9c60e8f94bf05acdf557ba2d540b47919081900360600190a2505050565b6001600160a01b0381165f9081526007602090815260409182902080548351818402810184019094528084526060939283018282801561095757602002820191905f5260205f20908154815260200190600101908083116109435750505050509050919050565b610cb261150d565b610cbb5f611539565b565b6001600160a01b0381165f9081526005602090815260409182902080548351818402810184019094528084526060939283018282801561095757602002820191905f5260205f20908154815260200190600101908083116109435750505050509050919050565b610d2c61150d565b5f805460ff60a01b191681556040519081527f017904e4fe7d59bb4603c7c045bc275a05da9ea3a4ac007fc80fffeaf119186d906020016108f0565b6005602052815f5260405f208181548110610897575f80fd5b5f83610d8d33846114e1565b1015610dab5760405162461bcd60e51b81526004016107b590611856565b335f9081526001602090815260408083206001600160a01b038616845290915281208054869290610ddd908490611884565b9091555050604051630b20e3c160e31b81525f9073__$69ea93bdf3b1e5da8164bfe3d9a878d765$__906359071e0890610e2b9033908b908b908b9088908c9082908d908290600401611897565b61018060405180830381865af4158015610e47573d5f5f3e3d5ffd5b505050506040513d601f19601f82011682018060405250810190610e6b919061193a565b90505f73__$69ea93bdf3b1e5da8164bfe3d9a878d765$__639190437383426040518363ffffffff1660e01b8152600401610ea79291906119fe565b602060405180830381865af4158015610ec2573d5f5f3e3d5ffd5b505050506040513d601f19601f82011682018060405250810190610ee69190611818565b5f81815260046020818152604092839020865181546001600160a01b039182166001600160a01b0319918216178355928801516001830180549183169185169190911790558488015160028301805460608b01511515600160a01b026001600160a81b0319909116928416929092179190911790556080880151600383015560a08801519382019390935560c0870151600582015560e0870151600682015561010087015160078201556101208701516008820155610140870151600982018054918516918416919091179055610160870151600a9091018054919093169116179055519091507f5e02698c1650d6cbe1f7e8a48609d0da45ad7f5e4c13cd8b196f82965c0ab0d59061102290839033908c908c909384526001600160a01b039283166020850152908216604084015216606082015260800190565b60405180910390a1979650505050505050565b5f8161104133856114e1565b101561105f5760405162461bcd60e51b81526004016107b590611856565b335f8181526001602090815260408083206001600160a01b038816845290915281208054859290611091908490611884565b90915550506001600160a01b038086165f908152600160209081526040808320938816835292905290812080548592906110cc908490611843565b9091555060019695505050505050565b6110e461150d565b6001600160a01b03811661110d57604051631e4fbdf760e01b81525f60048201526024016107b5565b61111681611539565b50565b8061112433846114e1565b10156111425760405162461bcd60e51b81526004016107b590611856565b335f9081526001602090815260408083206001600160a01b038616845290915281208054839290611174908490611884565b90915550506001600160a01b0382166111b757604051339082156108fc029083905f818181858888f193505050501580156111b1573d5f5f3e3d5ffd5b50611227565b60405163a9059cbb60e01b8152336004820152602481018290526001600160a01b0383169063a9059cbb906044016020604051808303815f875af1158015611201573d5f5f3e3d5ffd5b505050506040513d601f19601f820116820180604052508101906112259190611a1b565b505b604080518281526001600160a01b038416602082015233917e1a143d5b175701cb3246058ffac3d63945192075a926ff73a19930f09d587a910160405180910390a25050565b5f5f61127933846114e1565b90508481101561128d5761128d838661097c565b604051630b20e3c160e31b81525f9073__$69ea93bdf3b1e5da8164bfe3d9a878d765$__906359071e08906112d69033908c908c908c9088908d9082908e908290600401611897565b61018060405180830381865af41580156112f2573d5f5f3e3d5ffd5b505050506040513d601f19601f82011682018060405250810190611316919061193a565b90505f73__$69ea93bdf3b1e5da8164bfe3d9a878d765$__639190437383426040518363ffffffff1660e01b81526004016113529291906119fe565b602060405180830381865af415801561136d573d5f5f3e3d5ffd5b505050506040513d601f19601f820116820180604052508101906113919190611818565b5f81815260046020818152604092839020865181546001600160a01b039182166001600160a01b0319918216178355928801516001830180549183169185169190911790558488015160028301805460608b01511515600160a01b026001600160a81b0319909116928416929092179190911790556080880151600383015560a08801519382019390935560c0870151600582015560e0870151600682015561010087015160078201556101208701516008820155610140870151600982018054918516918416919091179055610160870151600a9091018054919093169116179055519091507f5e02698c1650d6cbe1f7e8a48609d0da45ad7f5e4c13cd8b196f82965c0ab0d5906114cd90839033908d908d909384526001600160a01b039283166020850152908216604084015216606082015260800190565b60405180910390a198975050505050505050565b6001600160a01b038083165f908152600160209081526040808320938516835292905220545b92915050565b5f546001600160a01b03163314610cbb5760405163118cdaa760e01b81523360048201526024016107b5565b5f80546001600160a01b038381166001600160a01b0319831681178455604051919092169283917f8be0079c531659141344cd1fd0a4f28419497f9722a3daafe3b4186f6b6457e09190a35050565b6001600160a01b0381168114611116575f5ffd5b5f5f604083850312156115ad575f5ffd5b8235915060208301356115bf81611588565b809150509250929050565b5f5f604083850312156115db575f5ffd5b82356115e681611588565b946020939093013593505050565b5f60208284031215611604575f5ffd5b813561160f81611588565b9392505050565b602080825282518282018190525f918401906040840190835b8181101561164d57835183526020938401939092019160010161162f565b509095945050505050565b5f60208284031215611668575f5ffd5b5035919050565b80516001600160a01b03168252602081015161169660208401826001600160a01b03169052565b5060408101516116b160408401826001600160a01b03169052565b5060608101516116c5606084018215159052565b506080810151608083015260a081015160a083015260c081015160c083015260e081015160e08301526101008101516101008301526101208101516101208301526101408101516117226101408401826001600160a01b03169052565b5061016081015161173f6101608401826001600160a01b03169052565b505050565b6101808101611507828461166f565b5f5f5f5f5f60a08688031215611767575f5ffd5b853561177281611588565b9450602086013561178281611588565b9350604086013592506060860135915060808601356117a081611588565b809150509295509295909350565b5f5f5f606084860312156117c0575f5ffd5b83356117cb81611588565b925060208401356117db81611588565b929592945050506040919091013590565b5f5f604083850312156117fd575f5ffd5b823561180881611588565b915060208301356115bf81611588565b5f60208284031215611828575f5ffd5b5051919050565b634e487b7160e01b5f52601160045260245ffd5b808201808211156115075761150761182f565b602080825260149082015273496e73756666696369656e742062616c616e636560601b604082015260600190565b818103818111156115075761150761182f565b6001600160a01b03998a168152978916602089015295881660408801526060870194909452608086019290925260a085015260c0840152831660e08301529091166101008201526101200190565b604051610180810167ffffffffffffffff8111828210171561191557634e487b7160e01b5f52604160045260245ffd5b60405290565b805161192681611588565b919050565b80518015158114611926575f5ffd5b5f61018082840312801561194c575f5ffd5b506119556118e5565b61195e8361191b565b815261196c6020840161191b565b602082015261197d6040840161191b565b604082015261198e6060840161192b565b60608201526080838101519082015260a0808401519082015260c0808401519082015260e08084015190820152610100808401519082015261012080840151908201526119de610140840161191b565b6101408201526119f1610160840161191b565b6101608201529392505050565b6101a08101611a0d828561166f565b826101808301529392505050565b5f60208284031215611a2b575f5ffd5b61160f8261192b56fea26469706673582212209ef512bbb37ec6bc38c820ba5db5227a7d66ba5e74cf2fe8d9f029fec744ebf564736f6c634300081c0033",
			"opcodes": "PUSH1 0x80 PUSH1 0x40 MSTORE PUSH0 DUP1 SLOAD PUSH1 0xFF PUSH1 0xA0 SHL NOT AND PUSH1 0x1 PUSH1 0xA0 SHL OR DUP2 SSTORE PUSH1 0x8 DUP2 SWAP1 SSTORE PUSH1 0x9 SSTORE CALLVALUE DUP1 ISZERO PUSH2 0x29 JUMPI PUSH0 PUSH0 REVERT JUMPDEST POP PUSH1 0x40 MLOAD PUSH2 0x1C74 CODESIZE SUB DUP1 PUSH2 0x1C74 DUP4 CODECOPY DUP2 ADD PUSH1 0x40 DUP2 SWAP1 MSTORE PUSH2 0x48 SWAP2 PUSH2 0x1C3 JUMP JUMPDEST DUP2 DUP2 CALLER DUP1 PUSH2 0x70 JUMPI PUSH1 0x40 MLOAD PUSH4 0x1E4FBDF7 PUSH1 0xE0 SHL DUP2 MSTORE PUSH0 PUSH1 0x4 DUP3 ADD MSTORE PUSH1 0x24 ADD JUMPDEST PUSH1 0x40 MLOAD DUP1 SWAP2 SUB SWAP1 REVERT JUMPDEST PUSH2 0x79 DUP2 PUSH2 0x174 JUMP JUMPDEST POP PUSH1 0x1 PUSH1 0x1 PUSH1 0xA0 SHL SUB DUP2 AND PUSH2 0xE8 JUMPI PUSH1 0x40 MLOAD PUSH3 0x461BCD PUSH1 0xE5 SHL DUP2 MSTORE PUSH1 0x20 PUSH1 0x4 DUP3 ADD MSTORE PUSH1 0x2F PUSH1 0x24 DUP3 ADD MSTORE PUSH32 0x436F6D6D697373696F6E20726563697069656E742063616E6E6F742062652074 PUSH1 0x44 DUP3 ADD MSTORE PUSH15 0x6865207A65726F2061646472657373 PUSH1 0x88 SHL PUSH1 0x64 DUP3 ADD MSTORE PUSH1 0x84 ADD PUSH2 0x67 JUMP JUMPDEST PUSH5 0x2540BE400 DUP3 GT ISZERO PUSH2 0x147 JUMPI PUSH1 0x40 MLOAD PUSH3 0x461BCD PUSH1 0xE5 SHL DUP2 MSTORE PUSH1 0x20 PUSH1 0x4 DUP3 ADD MSTORE PUSH1 0x21 PUSH1 0x24 DUP3 ADD MSTORE PUSH32 0x436F6D6D697373696F6E2070657263656E7461676520697320746F6F20686967 PUSH1 0x44 DUP3 ADD MSTORE PUSH1 0xD PUSH1 0xFB SHL PUSH1 0x64 DUP3 ADD MSTORE PUSH1 0x84 ADD PUSH2 0x67 JUMP JUMPDEST PUSH1 0x2 SWAP2 SWAP1 SWAP2 SSTORE PUSH1 0x3 DUP1 SLOAD PUSH1 0x1 PUSH1 0x1 PUSH1 0xA0 SHL SUB NOT AND PUSH1 0x1 PUSH1 0x1 PUSH1 0xA0 SHL SUB SWAP1 SWAP3 AND SWAP2 SWAP1 SWAP2 OR SWAP1 SSTORE POP PUSH2 0x1FD SWAP1 POP JUMP JUMPDEST PUSH0 DUP1 SLOAD PUSH1 0x1 PUSH1 0x1 PUSH1 0xA0 SHL SUB DUP4 DUP2 AND PUSH1 0x1 PUSH1 0x1 PUSH1 0xA0 SHL SUB NOT DUP4 AND DUP2 OR DUP5 SSTORE PUSH1 0x40 MLOAD SWAP2 SWAP1 SWAP3 AND SWAP3 DUP4 SWAP2 PUSH32 0x8BE0079C531659141344CD1FD0A4F28419497F9722A3DAAFE3B4186F6B6457E0 SWAP2 SWAP1 LOG3 POP POP JUMP JUMPDEST PUSH0 PUSH0 PUSH1 0x40 DUP4 DUP6 SUB SLT ISZERO PUSH2 0x1D4 JUMPI PUSH0 PUSH0 REVERT JUMPDEST DUP3 MLOAD PUSH1 0x20 DUP5 ADD MLOAD SWAP1 SWAP3 POP PUSH1 0x1 PUSH1 0x1 PUSH1 0xA0 SHL SUB DUP2 AND DUP2 EQ PUSH2 0x1F2 JUMPI PUSH0 PUSH0 REVERT JUMPDEST DUP1 SWAP2 POP POP SWAP3 POP SWAP3 SWAP1 POP JUMP JUMPDEST PUSH2 0x1A6A DUP1 PUSH2 0x20A PUSH0 CODECOPY PUSH0 RETURN INVALID PUSH1 0x80 PUSH1 0x40 MSTORE PUSH1 0x4 CALLDATASIZE LT PUSH2 0x1BA JUMPI PUSH0 CALLDATALOAD PUSH1 0xE0 SHR DUP1 PUSH4 0x81CD872A GT PUSH2 0xF2 JUMPI DUP1 PUSH4 0xBEABACC8 GT PUSH2 0x92 JUMPI DUP1 PUSH4 0xF2FDE38B GT PUSH2 0x62 JUMPI DUP1 PUSH4 0xF2FDE38B EQ PUSH2 0x6D3 JUMPI DUP1 PUSH4 0xF3FEF3A3 EQ PUSH2 0x6F2 JUMPI DUP1 PUSH4 0xF75CE147 EQ PUSH2 0x711 JUMPI DUP1 PUSH4 0xF7888AEC EQ PUSH2 0x724 JUMPI PUSH0 PUSH0 REVERT JUMPDEST DUP1 PUSH4 0xBEABACC8 EQ PUSH2 0x655 JUMPI DUP1 PUSH4 0xC23F001F EQ PUSH2 0x674 JUMPI DUP1 PUSH4 0xE08560A4 EQ PUSH2 0x6AA JUMPI DUP1 PUSH4 0xED50AB8A EQ PUSH2 0x6BF JUMPI PUSH0 PUSH0 REVERT JUMPDEST DUP1 PUSH4 0x8DA5CB5B GT PUSH2 0xCD JUMPI DUP1 PUSH4 0x8DA5CB5B EQ PUSH2 0x5E6 JUMPI DUP1 PUSH4 0x966D1F1D EQ PUSH2 0x602 JUMPI DUP1 PUSH4 0xB0EAA1F6 EQ PUSH2 0x617 JUMPI DUP1 PUSH4 0xB9C22B23 EQ PUSH2 0x636 JUMPI PUSH0 PUSH0 REVERT JUMPDEST DUP1 PUSH4 0x81CD872A EQ PUSH2 0x4C8 JUMPI DUP1 PUSH4 0x894BA833 EQ PUSH2 0x5BD JUMPI DUP1 PUSH4 0x899A3FFD EQ PUSH2 0x5D1 JUMPI PUSH0 PUSH0 REVERT JUMPDEST DUP1 PUSH4 0x47E7EF24 GT PUSH2 0x15D JUMPI DUP1 PUSH4 0x5BD447AC GT PUSH2 0x138 JUMPI DUP1 PUSH4 0x5BD447AC EQ PUSH2 0x437 JUMPI DUP1 PUSH4 0x70A08231 EQ PUSH2 0x456 JUMPI DUP1 PUSH4 0x715018A6 EQ PUSH2 0x495 JUMPI DUP1 PUSH4 0x723A3816 EQ PUSH2 0x4A9 JUMPI PUSH0 PUSH0 REVERT JUMPDEST DUP1 PUSH4 0x47E7EF24 EQ PUSH2 0x2D6 JUMPI DUP1 PUSH4 0x51A6FAD5 EQ PUSH2 0x2E9 JUMPI DUP1 PUSH4 0x5379719B EQ PUSH2 0x423 JUMPI PUSH0 PUSH0 REVERT JUMPDEST DUP1 PUSH4 0x367EDD32 GT PUSH2 0x198 JUMPI DUP1 PUSH4 0x367EDD32 EQ PUSH2 0x248 JUMPI DUP1 PUSH4 0x3B063AA0 EQ PUSH2 0x25C JUMPI DUP1 PUSH4 0x41B3A0D9 EQ PUSH2 0x288 JUMPI DUP1 PUSH4 0x442239C9 EQ PUSH2 0x2B7 JUMPI PUSH0 PUSH0 REVERT JUMPDEST DUP1 PUSH4 0x6FD154A EQ PUSH2 0x1BE JUMPI DUP1 PUSH4 0x15F8A314 EQ PUSH2 0x1FA JUMPI DUP1 PUSH4 0x19E9BFC8 EQ PUSH2 0x21B JUMPI JUMPDEST PUSH0 PUSH0 REVERT JUMPDEST CALLVALUE DUP1 ISZERO PUSH2 0x1C9 JUMPI PUSH0 PUSH0 REVERT JUMPDEST POP PUSH1 0x3 SLOAD PUSH2 0x1DD SWAP1 PUSH1 0x1 PUSH1 0x1 PUSH1 0xA0 SHL SUB AND DUP2 JUMP JUMPDEST PUSH1 0x40 MLOAD PUSH1 0x1 PUSH1 0x1 PUSH1 0xA0 SHL SUB SWAP1 SWAP2 AND DUP2 MSTORE PUSH1 0x20 ADD JUMPDEST PUSH1 0x40 MLOAD DUP1 SWAP2 SUB SWAP1 RETURN JUMPDEST CALLVALUE DUP1 ISZERO PUSH2 0x205 JUMPI PUSH0 PUSH0 REVERT JUMPDEST POP PUSH2 0x219 PUSH2 0x214 CALLDATASIZE PUSH1 0x4 PUSH2 0x159C JUMP JUMPDEST PUSH2 0x743 JUMP JUMPDEST STOP JUMPDEST CALLVALUE DUP1 ISZERO PUSH2 0x226 JUMPI PUSH0 PUSH0 REVERT JUMPDEST POP PUSH2 0x23A PUSH2 0x235 CALLDATASIZE PUSH1 0x4 PUSH2 0x15CA JUMP JUMPDEST PUSH2 0x87E JUMP JUMPDEST PUSH1 0x40 MLOAD SWAP1 DUP2 MSTORE PUSH1 0x20 ADD PUSH2 0x1F1 JUMP JUMPDEST CALLVALUE DUP1 ISZERO PUSH2 0x253 JUMPI PUSH0 PUSH0 REVERT JUMPDEST POP PUSH2 0x219 PUSH2 0x8A9 JUMP JUMPDEST CALLVALUE DUP1 ISZERO PUSH2 0x267 JUMPI PUSH0 PUSH0 REVERT JUMPDEST POP PUSH2 0x27B PUSH2 0x276 CALLDATASIZE PUSH1 0x4 PUSH2 0x15F4 JUMP JUMPDEST PUSH2 0x8FA JUMP JUMPDEST PUSH1 0x40 MLOAD PUSH2 0x1F1 SWAP2 SWAP1 PUSH2 0x1616 JUMP JUMPDEST CALLVALUE DUP1 ISZERO PUSH2 0x293 JUMPI PUSH0 PUSH0 REVERT JUMPDEST POP PUSH0 SLOAD PUSH2 0x2A7 SWAP1 PUSH1 0x1 PUSH1 0xA0 SHL SWAP1 DIV PUSH1 0xFF AND DUP2 JUMP JUMPDEST PUSH1 0x40 MLOAD SWAP1 ISZERO ISZERO DUP2 MSTORE PUSH1 0x20 ADD PUSH2 0x1F1 JUMP JUMPDEST CALLVALUE DUP1 ISZERO PUSH2 0x2C2 JUMPI PUSH0 PUSH0 REVERT JUMPDEST POP PUSH2 0x23A PUSH2 0x2D1 CALLDATASIZE PUSH1 0x4 PUSH2 0x15CA JUMP JUMPDEST PUSH2 0x963 JUMP JUMPDEST PUSH2 0x219 PUSH2 0x2E4 CALLDATASIZE PUSH1 0x4 PUSH2 0x15CA JUMP JUMPDEST PUSH2 0x97C JUMP JUMPDEST CALLVALUE DUP1 ISZERO PUSH2 0x2F4 JUMPI PUSH0 PUSH0 REVERT JUMPDEST POP PUSH2 0x416 PUSH2 0x303 CALLDATASIZE PUSH1 0x4 PUSH2 0x1658 JUMP JUMPDEST PUSH1 0x40 DUP1 MLOAD PUSH2 0x180 DUP2 ADD DUP3 MSTORE PUSH0 DUP1 DUP3 MSTORE PUSH1 0x20 DUP3 ADD DUP2 SWAP1 MSTORE SWAP2 DUP2 ADD DUP3 SWAP1 MSTORE PUSH1 0x60 DUP2 ADD DUP3 SWAP1 MSTORE PUSH1 0x80 DUP2 ADD DUP3 SWAP1 MSTORE PUSH1 0xA0 DUP2 ADD DUP3 SWAP1 MSTORE PUSH1 0xC0 DUP2 ADD DUP3 SWAP1 MSTORE PUSH1 0xE0 DUP2 ADD DUP3 SWAP1 MSTORE PUSH2 0x100 DUP2 ADD DUP3 SWAP1 MSTORE PUSH2 0x120 DUP2 ADD DUP3 SWAP1 MSTORE PUSH2 0x140 DUP2 ADD DUP3 SWAP1 MSTORE PUSH2 0x160 DUP2 ADD SWAP2 SWAP1 SWAP2 MSTORE POP PUSH0 SWAP1 DUP2 MSTORE PUSH1 0x4 PUSH1 0x20 DUP2 DUP2 MSTORE PUSH1 0x40 SWAP3 DUP4 SWAP1 KECCAK256 DUP4 MLOAD PUSH2 0x180 DUP2 ADD DUP6 MSTORE DUP2 SLOAD PUSH1 0x1 PUSH1 0x1 PUSH1 0xA0 SHL SUB SWAP1 DUP2 AND DUP3 MSTORE PUSH1 0x1 DUP4 ADD SLOAD DUP2 AND SWAP4 DUP3 ADD SWAP4 SWAP1 SWAP4 MSTORE PUSH1 0x2 DUP3 ADD SLOAD DUP1 DUP5 AND SWAP6 DUP3 ADD SWAP6 SWAP1 SWAP6 MSTORE PUSH1 0x1 PUSH1 0xA0 SHL SWAP1 SWAP5 DIV PUSH1 0xFF AND ISZERO ISZERO PUSH1 0x60 DUP6 ADD MSTORE PUSH1 0x3 DUP2 ADD SLOAD PUSH1 0x80 DUP6 ADD MSTORE SWAP2 DUP3 ADD SLOAD PUSH1 0xA0 DUP5 ADD MSTORE PUSH1 0x5 DUP3 ADD SLOAD PUSH1 0xC0 DUP5 ADD MSTORE PUSH1 0x6 DUP3 ADD SLOAD PUSH1 0xE0 DUP5 ADD MSTORE PUSH1 0x7 DUP3 ADD SLOAD PUSH2 0x100 DUP5 ADD MSTORE PUSH1 0x8 DUP3 ADD SLOAD PUSH2 0x120 DUP5 ADD MSTORE PUSH1 0x9 DUP3 ADD SLOAD DUP2 AND PUSH2 0x140 DUP5 ADD MSTORE PUSH1 0xA SWAP1 SWAP2 ADD SLOAD AND PUSH2 0x160 DUP3 ADD MSTORE SWAP1 JUMP JUMPDEST PUSH1 0x40 MLOAD PUSH2 0x1F1 SWAP2 SWAP1 PUSH2 0x1744 JUMP JUMPDEST CALLVALUE DUP1 ISZERO PUSH2 0x42E JUMPI PUSH0 PUSH0 REVERT JUMPDEST POP PUSH1 0x8 SLOAD PUSH2 0x23A JUMP JUMPDEST CALLVALUE DUP1 ISZERO PUSH2 0x442 JUMPI PUSH0 PUSH0 REVERT JUMPDEST POP PUSH2 0x27B PUSH2 0x451 CALLDATASIZE PUSH1 0x4 PUSH2 0x15F4 JUMP JUMPDEST PUSH2 0xC43 JUMP JUMPDEST CALLVALUE DUP1 ISZERO PUSH2 0x461 JUMPI PUSH0 PUSH0 REVERT JUMPDEST POP PUSH2 0x23A PUSH2 0x470 CALLDATASIZE PUSH1 0x4 PUSH2 0x15F4 JUMP JUMPDEST PUSH1 0x1 PUSH1 0x1 PUSH1 0xA0 SHL SUB AND PUSH0 SWAP1 DUP2 MSTORE PUSH1 0x1 PUSH1 0x20 SWAP1 DUP2 MSTORE PUSH1 0x40 DUP1 DUP4 KECCAK256 DUP4 DUP1 MSTORE SWAP1 SWAP2 MSTORE SWAP1 KECCAK256 SLOAD SWAP1 JUMP JUMPDEST CALLVALUE DUP1 ISZERO PUSH2 0x4A0 JUMPI PUSH0 PUSH0 REVERT JUMPDEST POP PUSH2 0x219 PUSH2 0xCAA JUMP JUMPDEST CALLVALUE DUP1 ISZERO PUSH2 0x4B4 JUMPI PUSH0 PUSH0 REVERT JUMPDEST POP PUSH2 0x27B PUSH2 0x4C3 CALLDATASIZE PUSH1 0x4 PUSH2 0x15F4 JUMP JUMPDEST PUSH2 0xCBD JUMP JUMPDEST CALLVALUE DUP1 ISZERO PUSH2 0x4D3 JUMPI PUSH0 PUSH0 REVERT JUMPDEST POP PUSH2 0x54F PUSH2 0x4E2 CALLDATASIZE PUSH1 0x4 PUSH2 0x1658 JUMP JUMPDEST PUSH1 0x4 PUSH1 0x20 DUP2 SWAP1 MSTORE PUSH0 SWAP2 DUP3 MSTORE PUSH1 0x40 SWAP1 SWAP2 KECCAK256 DUP1 SLOAD PUSH1 0x1 DUP3 ADD SLOAD PUSH1 0x2 DUP4 ADD SLOAD PUSH1 0x3 DUP5 ADD SLOAD SWAP5 DUP5 ADD SLOAD PUSH1 0x5 DUP6 ADD SLOAD PUSH1 0x6 DUP7 ADD SLOAD PUSH1 0x7 DUP8 ADD SLOAD PUSH1 0x8 DUP9 ADD SLOAD PUSH1 0x9 DUP10 ADD SLOAD PUSH1 0xA SWAP1 SWAP10 ADD SLOAD PUSH1 0x1 PUSH1 0x1 PUSH1 0xA0 SHL SUB SWAP9 DUP10 AND SWAP11 SWAP8 DUP10 AND SWAP10 DUP10 DUP9 AND SWAP10 PUSH1 0x1 PUSH1 0xA0 SHL SWAP1 SWAP9 DIV PUSH1 0xFF AND SWAP9 SWAP8 SWAP1 DUP2 AND SWAP2 AND DUP13 JUMP JUMPDEST PUSH1 0x40 DUP1 MLOAD PUSH1 0x1 PUSH1 0x1 PUSH1 0xA0 SHL SUB SWAP14 DUP15 AND DUP2 MSTORE SWAP12 DUP14 AND PUSH1 0x20 DUP14 ADD MSTORE SWAP10 DUP13 AND SWAP10 DUP12 ADD SWAP10 SWAP1 SWAP10 MSTORE SWAP7 ISZERO ISZERO PUSH1 0x60 DUP11 ADD MSTORE PUSH1 0x80 DUP10 ADD SWAP6 SWAP1 SWAP6 MSTORE PUSH1 0xA0 DUP9 ADD SWAP4 SWAP1 SWAP4 MSTORE PUSH1 0xC0 DUP8 ADD SWAP2 SWAP1 SWAP2 MSTORE PUSH1 0xE0 DUP7 ADD MSTORE PUSH2 0x100 DUP6 ADD MSTORE PUSH2 0x120 DUP5 ADD MSTORE DUP4 AND PUSH2 0x140 DUP4 ADD MSTORE SWAP1 SWAP2 AND PUSH2 0x160 DUP3 ADD MSTORE PUSH2 0x180 ADD PUSH2 0x1F1 JUMP JUMPDEST CALLVALUE DUP1 ISZERO PUSH2 0x5C8 JUMPI PUSH0 PUSH0 REVERT JUMPDEST POP PUSH2 0x219 PUSH2 0xD24 JUMP JUMPDEST CALLVALUE DUP1 ISZERO PUSH2 0x5DC JUMPI PUSH0 PUSH0 REVERT JUMPDEST POP PUSH2 0x23A PUSH1 0x2 SLOAD DUP2 JUMP JUMPDEST CALLVALUE DUP1 ISZERO PUSH2 0x5F1 JUMPI PUSH0 PUSH0 REVERT JUMPDEST POP PUSH0 SLOAD PUSH1 0x1 PUSH1 0x1 PUSH1 0xA0 SHL SUB AND PUSH2 0x1DD JUMP JUMPDEST CALLVALUE DUP1 ISZERO PUSH2 0x60D JUMPI PUSH0 PUSH0 REVERT JUMPDEST POP PUSH2 0x23A PUSH1 0x8 SLOAD DUP2 JUMP JUMPDEST CALLVALUE DUP1 ISZERO PUSH2 0x622 JUMPI PUSH0 PUSH0 REVERT JUMPDEST POP PUSH2 0x23A PUSH2 0x631 CALLDATASIZE PUSH1 0x4 PUSH2 0x15CA JUMP JUMPDEST PUSH2 0xD68 JUMP JUMPDEST CALLVALUE DUP1 ISZERO PUSH2 0x641 JUMPI PUSH0 PUSH0 REVERT JUMPDEST POP PUSH2 0x23A PUSH2 0x650 CALLDATASIZE PUSH1 0x4 PUSH2 0x1753 JUMP JUMPDEST PUSH2 0xD81 JUMP JUMPDEST CALLVALUE DUP1 ISZERO PUSH2 0x660 JUMPI PUSH0 PUSH0 REVERT JUMPDEST POP PUSH2 0x2A7 PUSH2 0x66F CALLDATASIZE PUSH1 0x4 PUSH2 0x17AE JUMP JUMPDEST PUSH2 0x1035 JUMP JUMPDEST CALLVALUE DUP1 ISZERO PUSH2 0x67F JUMPI PUSH0 PUSH0 REVERT JUMPDEST POP PUSH2 0x23A PUSH2 0x68E CALLDATASIZE PUSH1 0x4 PUSH2 0x17EC JUMP JUMPDEST PUSH1 0x1 PUSH1 0x20 SWAP1 DUP2 MSTORE PUSH0 SWAP3 DUP4 MSTORE PUSH1 0x40 DUP1 DUP5 KECCAK256 SWAP1 SWAP2 MSTORE SWAP1 DUP3 MSTORE SWAP1 KECCAK256 SLOAD DUP2 JUMP JUMPDEST CALLVALUE DUP1 ISZERO PUSH2 0x6B5 JUMPI PUSH0 PUSH0 REVERT JUMPDEST POP PUSH2 0x23A PUSH1 0x9 SLOAD DUP2 JUMP JUMPDEST CALLVALUE DUP1 ISZERO PUSH2 0x6CA JUMPI PUSH0 PUSH0 REVERT JUMPDEST POP PUSH1 0x9 SLOAD PUSH2 0x23A JUMP JUMPDEST CALLVALUE DUP1 ISZERO PUSH2 0x6DE JUMPI PUSH0 PUSH0 REVERT JUMPDEST POP PUSH2 0x219 PUSH2 0x6ED CALLDATASIZE PUSH1 0x4 PUSH2 0x15F4 JUMP JUMPDEST PUSH2 0x10DC JUMP JUMPDEST CALLVALUE DUP1 ISZERO PUSH2 0x6FD JUMPI PUSH0 PUSH0 REVERT JUMPDEST POP PUSH2 0x219 PUSH2 0x70C CALLDATASIZE PUSH1 0x4 PUSH2 0x15CA JUMP JUMPDEST PUSH2 0x1119 JUMP JUMPDEST PUSH2 0x23A PUSH2 0x71F CALLDATASIZE PUSH1 0x4 PUSH2 0x1753 JUMP JUMPDEST PUSH2 0x126D JUMP JUMPDEST CALLVALUE DUP1 ISZERO PUSH2 0x72F JUMPI PUSH0 PUSH0 REVERT JUMPDEST POP PUSH2 0x23A PUSH2 0x73E CALLDATASIZE PUSH1 0x4 PUSH2 0x17EC JUMP JUMPDEST PUSH2 0x14E1 JUMP JUMPDEST PUSH2 0x74B PUSH2 0x150D JUMP JUMPDEST PUSH1 0x1 PUSH1 0x1 PUSH1 0xA0 SHL SUB DUP2 AND PUSH2 0x7BE JUMPI PUSH1 0x40 MLOAD PUSH3 0x461BCD PUSH1 0xE5 SHL DUP2 MSTORE PUSH1 0x20 PUSH1 0x4 DUP3 ADD MSTORE PUSH1 0x2F PUSH1 0x24 DUP3 ADD MSTORE PUSH32 0x436F6D6D697373696F6E20726563697069656E742063616E6E6F742062652074 PUSH1 0x44 DUP3 ADD MSTORE PUSH15 0x6865207A65726F2061646472657373 PUSH1 0x88 SHL PUSH1 0x64 DUP3 ADD MSTORE PUSH1 0x84 ADD JUMPDEST PUSH1 0x40 MLOAD DUP1 SWAP2 SUB SWAP1 REVERT JUMPDEST PUSH5 0x2540BE400 DUP3 GT ISZERO PUSH2 0x81D JUMPI PUSH1 0x40 MLOAD PUSH3 0x461BCD PUSH1 0xE5 SHL DUP2 MSTORE PUSH1 0x20 PUSH1 0x4 DUP3 ADD MSTORE PUSH1 0x21 PUSH1 0x24 DUP3 ADD MSTORE PUSH32 0x436F6D6D697373696F6E2070657263656E7461676520697320746F6F20686967 PUSH1 0x44 DUP3 ADD MSTORE PUSH1 0xD PUSH1 0xFB SHL PUSH1 0x64 DUP3 ADD MSTORE PUSH1 0x84 ADD PUSH2 0x7B5 JUMP JUMPDEST PUSH1 0x2 DUP3 SWAP1 SSTORE PUSH1 0x3 DUP1 SLOAD PUSH1 0x1 PUSH1 0x1 PUSH1 0xA0 SHL SUB NOT AND PUSH1 0x1 PUSH1 0x1 PUSH1 0xA0 SHL SUB DUP4 AND SWAP1 DUP2 OR SWAP1 SWAP2 SSTORE PUSH1 0x40 DUP1 MLOAD DUP5 DUP2 MSTORE PUSH1 0x20 DUP2 ADD SWAP3 SWAP1 SWAP3 MSTORE PUSH32 0x14BDAADAED0453E7B5B66195B42156BA995B9E5ABD0DA98368839851D69AD889 SWAP2 ADD PUSH1 0x40 MLOAD DUP1 SWAP2 SUB SWAP1 LOG1 POP POP JUMP JUMPDEST PUSH1 0x7 PUSH1 0x20 MSTORE DUP2 PUSH0 MSTORE PUSH1 0x40 PUSH0 KECCAK256 DUP2 DUP2 SLOAD DUP2 LT PUSH2 0x897 JUMPI PUSH0 DUP1 REVERT JUMPDEST SWAP1 PUSH0 MSTORE PUSH1 0x20 PUSH0 KECCAK256 ADD PUSH0 SWAP2 POP SWAP2 POP POP SLOAD DUP2 JUMP JUMPDEST PUSH2 0x8B1 PUSH2 0x150D JUMP JUMPDEST PUSH0 DUP1 SLOAD PUSH1 0xFF PUSH1 0xA0 SHL NOT AND PUSH1 0x1 PUSH1 0xA0 SHL OR SWAP1 SSTORE PUSH1 0x40 MLOAD PUSH1 0x1 DUP2 MSTORE PUSH32 0x17904E4FE7D59BB4603C7C045BC275A05DA9EA3A4AC007FC80FFFEAF119186D SWAP1 PUSH1 0x20 ADD JUMPDEST PUSH1 0x40 MLOAD DUP1 SWAP2 SUB SWAP1 LOG1 JUMP JUMPDEST PUSH1 0x1 PUSH1 0x1 PUSH1 0xA0 SHL SUB DUP2 AND PUSH0 SWAP1 DUP2 MSTORE PUSH1 0x6 PUSH1 0x20 SWAP1 DUP2 MSTORE PUSH1 0x40 SWAP2 DUP3 SWAP1 KECCAK256 DUP1 SLOAD DUP4 MLOAD DUP2 DUP5 MUL DUP2 ADD DUP5 ADD SWAP1 SWAP5 MSTORE DUP1 DUP5 MSTORE PUSH1 0x60 SWAP4 SWAP3 DUP4 ADD DUP3 DUP3 DUP1 ISZERO PUSH2 0x957 JUMPI PUSH1 0x20 MUL DUP3 ADD SWAP2 SWAP1 PUSH0 MSTORE PUSH1 0x20 PUSH0 KECCAK256 SWAP1 JUMPDEST DUP2 SLOAD DUP2 MSTORE PUSH1 0x20 ADD SWAP1 PUSH1 0x1 ADD SWAP1 DUP1 DUP4 GT PUSH2 0x943 JUMPI JUMPDEST POP POP POP POP POP SWAP1 POP SWAP2 SWAP1 POP JUMP JUMPDEST PUSH1 0x6 PUSH1 0x20 MSTORE DUP2 PUSH0 MSTORE PUSH1 0x40 PUSH0 KECCAK256 DUP2 DUP2 SLOAD DUP2 LT PUSH2 0x897 JUMPI PUSH0 DUP1 REVERT JUMPDEST PUSH0 SLOAD PUSH1 0x1 PUSH1 0xA0 SHL SWAP1 DIV PUSH1 0xFF AND PUSH2 0x9D4 JUMPI PUSH1 0x40 MLOAD PUSH3 0x461BCD PUSH1 0xE5 SHL DUP2 MSTORE PUSH1 0x20 PUSH1 0x4 DUP3 ADD MSTORE PUSH1 0x1F PUSH1 0x24 DUP3 ADD MSTORE PUSH32 0x436F6E7472616374206172652063757272656E746C792064697361626C656400 PUSH1 0x44 DUP3 ADD MSTORE PUSH1 0x64 ADD PUSH2 0x7B5 JUMP JUMPDEST PUSH0 DUP2 GT PUSH2 0xA32 JUMPI PUSH1 0x40 MLOAD PUSH3 0x461BCD PUSH1 0xE5 SHL DUP2 MSTORE PUSH1 0x20 PUSH1 0x4 DUP3 ADD MSTORE PUSH1 0x26 PUSH1 0x24 DUP3 ADD MSTORE PUSH32 0x4465706F73697420616D6F756E74206D75737420626520677265617465722074 PUSH1 0x44 DUP3 ADD MSTORE PUSH6 0x3430B7101817 PUSH1 0xD1 SHL PUSH1 0x64 DUP3 ADD MSTORE PUSH1 0x84 ADD PUSH2 0x7B5 JUMP JUMPDEST PUSH1 0x2 SLOAD PUSH1 0x40 MLOAD PUSH4 0x1C8F0847 PUSH1 0xE0 SHL DUP2 MSTORE PUSH1 0x4 DUP2 ADD DUP4 SWAP1 MSTORE PUSH1 0x24 DUP2 ADD SWAP2 SWAP1 SWAP2 MSTORE PUSH0 SWAP1 PUSH20 0x0 SWAP1 PUSH4 0x1C8F0847 SWAP1 PUSH1 0x44 ADD PUSH1 0x20 PUSH1 0x40 MLOAD DUP1 DUP4 SUB DUP2 DUP7 GAS DELEGATECALL ISZERO DUP1 ISZERO PUSH2 0xA8D JUMPI RETURNDATASIZE PUSH0 PUSH0 RETURNDATACOPY RETURNDATASIZE PUSH0 REVERT JUMPDEST POP POP POP POP PUSH1 0x40 MLOAD RETURNDATASIZE PUSH1 0x1F NOT PUSH1 0x1F DUP3 ADD AND DUP3 ADD DUP1 PUSH1 0x40 MSTORE POP DUP2 ADD SWAP1 PUSH2 0xAB1 SWAP2 SWAP1 PUSH2 0x1818 JUMP JUMPDEST SWAP1 POP PUSH1 0x1 PUSH1 0x1 PUSH1 0xA0 SHL SUB DUP4 AND PUSH2 0xB7D JUMPI DUP2 CALLVALUE EQ PUSH2 0xB10 JUMPI PUSH1 0x40 MLOAD PUSH3 0x461BCD PUSH1 0xE5 SHL DUP2 MSTORE PUSH1 0x20 PUSH1 0x4 DUP3 ADD MSTORE PUSH1 0x1C PUSH1 0x24 DUP3 ADD MSTORE PUSH32 0x455448206465706F73697420616D6F756E74206D69736D617463682E00000000 PUSH1 0x44 DUP3 ADD MSTORE PUSH1 0x64 ADD PUSH2 0x7B5 JUMP JUMPDEST CALLER PUSH0 SWAP1 DUP2 MSTORE PUSH1 0x1 PUSH1 0x20 SWAP1 DUP2 MSTORE PUSH1 0x40 DUP1 DUP4 KECCAK256 DUP4 DUP1 MSTORE SWAP1 SWAP2 MSTORE DUP2 KECCAK256 DUP1 SLOAD DUP5 SWAP3 SWAP1 PUSH2 0xB39 SWAP1 DUP5 SWAP1 PUSH2 0x1843 JUMP JUMPDEST SWAP1 SWAP2 SSTORE POP POP PUSH1 0x3 SLOAD PUSH1 0x1 PUSH1 0x1 PUSH1 0xA0 SHL SUB AND PUSH0 SWAP1 DUP2 MSTORE PUSH1 0x1 PUSH1 0x20 SWAP1 DUP2 MSTORE PUSH1 0x40 DUP1 DUP4 KECCAK256 DUP4 DUP1 MSTORE SWAP1 SWAP2 MSTORE DUP2 KECCAK256 DUP1 SLOAD DUP4 SWAP3 SWAP1 PUSH2 0xB72 SWAP1 DUP5 SWAP1 PUSH2 0x1843 JUMP JUMPDEST SWAP1 SWAP2 SSTORE POP PUSH2 0xBF3 SWAP1 POP JUMP JUMPDEST CALLER PUSH0 SWAP1 DUP2 MSTORE PUSH1 0x1 PUSH1 0x20 SWAP1 DUP2 MSTORE PUSH1 0x40 DUP1 DUP4 KECCAK256 PUSH1 0x1 PUSH1 0x1 PUSH1 0xA0 SHL SUB DUP8 AND DUP5 MSTORE SWAP1 SWAP2 MSTORE DUP2 KECCAK256 DUP1 SLOAD DUP5 SWAP3 SWAP1 PUSH2 0xBAF SWAP1 DUP5 SWAP1 PUSH2 0x1843 JUMP JUMPDEST SWAP1 SWAP2 SSTORE POP POP PUSH1 0x3 SLOAD PUSH1 0x1 PUSH1 0x1 PUSH1 0xA0 SHL SUB SWAP1 DUP2 AND PUSH0 SWAP1 DUP2 MSTORE PUSH1 0x1 PUSH1 0x20 SWAP1 DUP2 MSTORE PUSH1 0x40 DUP1 DUP4 KECCAK256 SWAP4 DUP8 AND DUP4 MSTORE SWAP3 SWAP1 MSTORE SWAP1 DUP2 KECCAK256 DUP1 SLOAD DUP4 SWAP3 SWAP1 PUSH2 0xBED SWAP1 DUP5 SWAP1 PUSH2 0x1843 JUMP JUMPDEST SWAP1 SWAP2 SSTORE POP POP JUMPDEST PUSH1 0x40 DUP1 MLOAD DUP4 DUP2 MSTORE PUSH1 0x20 DUP2 ADD DUP4 SWAP1 MSTORE PUSH1 0x1 PUSH1 0x1 PUSH1 0xA0 SHL SUB DUP6 AND DUP2 DUP4 ADD MSTORE SWAP1 MLOAD CALLER SWAP2 PUSH32 0x2D7E648DD130FC184D383E55BB126AC4C9C60E8F94BF05ACDF557BA2D540B47 SWAP2 SWAP1 DUP2 SWAP1 SUB PUSH1 0x60 ADD SWAP1 LOG2 POP POP POP JUMP JUMPDEST PUSH1 0x1 PUSH1 0x1 PUSH1 0xA0 SHL SUB DUP2 AND PUSH0 SWAP1 DUP2 MSTORE PUSH1 0x7 PUSH1 0x20 SWAP1 DUP2 MSTORE PUSH1 0x40 SWAP2 DUP3 SWAP1 KECCAK256 DUP1 SLOAD DUP4 MLOAD DUP2 DUP5 MUL DUP2 ADD DUP5 ADD SWAP1 SWAP5 MSTORE DUP1 DUP5 MSTORE PUSH1 0x60 SWAP4 SWAP3 DUP4 ADD DUP3 DUP3 DUP1 ISZERO PUSH2 0x957 JUMPI PUSH1 0x20 MUL DUP3 ADD SWAP2 SWAP1 PUSH0 MSTORE PUSH1 0x20 PUSH0 KECCAK256 SWAP1 DUP2 SLOAD DUP2 MSTORE PUSH1 0x20 ADD SWAP1 PUSH1 0x1 ADD SWAP1 DUP1 DUP4 GT PUSH2 0x943 JUMPI POP POP POP POP POP SWAP1 POP SWAP2 SWAP1 POP JUMP JUMPDEST PUSH2 0xCB2 PUSH2 0x150D JUMP JUMPDEST PUSH2 0xCBB PUSH0 PUSH2 0x1539 JUMP JUMPDEST JUMP JUMPDEST PUSH1 0x1 PUSH1 0x1 PUSH1 0xA0 SHL SUB DUP2 AND PUSH0 SWAP1 DUP2 MSTORE PUSH1 0x5 PUSH1 0x20 SWAP1 DUP2 MSTORE PUSH1 0x40 SWAP2 DUP3 SWAP1 KECCAK256 DUP1 SLOAD DUP4 MLOAD DUP2 DUP5 MUL DUP2 ADD DUP5 ADD SWAP1 SWAP5 MSTORE DUP1 DUP5 MSTORE PUSH1 0x60 SWAP4 SWAP3 DUP4 ADD DUP3 DUP3 DUP1 ISZERO PUSH2 0x957 JUMPI PUSH1 0x20 MUL DUP3 ADD SWAP2 SWAP1 PUSH0 MSTORE PUSH1 0x20 PUSH0 KECCAK256 SWAP1 DUP2 SLOAD DUP2 MSTORE PUSH1 0x20 ADD SWAP1 PUSH1 0x1 ADD SWAP1 DUP1 DUP4 GT PUSH2 0x943 JUMPI POP POP POP POP POP SWAP1 POP SWAP2 SWAP1 POP JUMP JUMPDEST PUSH2 0xD2C PUSH2 0x150D JUMP JUMPDEST PUSH0 DUP1 SLOAD PUSH1 0xFF PUSH1 0xA0 SHL NOT AND DUP2 SSTORE PUSH1 0x40 MLOAD SWAP1 DUP2 MSTORE PUSH32 0x17904E4FE7D59BB4603C7C045BC275A05DA9EA3A4AC007FC80FFFEAF119186D SWAP1 PUSH1 0x20 ADD PUSH2 0x8F0 JUMP JUMPDEST PUSH1 0x5 PUSH1 0x20 MSTORE DUP2 PUSH0 MSTORE PUSH1 0x40 PUSH0 KECCAK256 DUP2 DUP2 SLOAD DUP2 LT PUSH2 0x897 JUMPI PUSH0 DUP1 REVERT JUMPDEST PUSH0 DUP4 PUSH2 0xD8D CALLER DUP5 PUSH2 0x14E1 JUMP JUMPDEST LT ISZERO PUSH2 0xDAB JUMPI PUSH1 0x40 MLOAD PUSH3 0x461BCD PUSH1 0xE5 SHL DUP2 MSTORE PUSH1 0x4 ADD PUSH2 0x7B5 SWAP1 PUSH2 0x1856 JUMP JUMPDEST CALLER PUSH0 SWAP1 DUP2 MSTORE PUSH1 0x1 PUSH1 0x20 SWAP1 DUP2 MSTORE PUSH1 0x40 DUP1 DUP4 KECCAK256 PUSH1 0x1 PUSH1 0x1 PUSH1 0xA0 SHL SUB DUP7 AND DUP5 MSTORE SWAP1 SWAP2 MSTORE DUP2 KECCAK256 DUP1 SLOAD DUP7 SWAP3 SWAP1 PUSH2 0xDDD SWAP1 DUP5 SWAP1 PUSH2 0x1884 JUMP JUMPDEST SWAP1 SWAP2 SSTORE POP POP PUSH1 0x40 MLOAD PUSH4 0xB20E3C1 PUSH1 0xE3 SHL DUP2 MSTORE PUSH0 SWAP1 PUSH20 0x0 SWAP1 PUSH4 0x59071E08 SWAP1 PUSH2 0xE2B SWAP1 CALLER SWAP1 DUP12 SWAP1 DUP12 SWAP1 DUP12 SWAP1 DUP9 SWAP1 DUP13 SWAP1 DUP3 SWAP1 DUP14 SWAP1 DUP3 SWAP1 PUSH1 0x4 ADD PUSH2 0x1897 JUMP JUMPDEST PUSH2 0x180 PUSH1 0x40 MLOAD DUP1 DUP4 SUB DUP2 DUP7 GAS DELEGATECALL ISZERO DUP1 ISZERO PUSH2 0xE47 JUMPI RETURNDATASIZE PUSH0 PUSH0 RETURNDATACOPY RETURNDATASIZE PUSH0 REVERT JUMPDEST POP POP POP POP PUSH1 0x40 MLOAD RETURNDATASIZE PUSH1 0x1F NOT PUSH1 0x1F DUP3 ADD AND DUP3 ADD DUP1 PUSH1 0x40 MSTORE POP DUP2 ADD SWAP1 PUSH2 0xE6B SWAP2 SWAP1 PUSH2 0x193A JUMP JUMPDEST SWAP1 POP PUSH0 PUSH20 0x0 PUSH4 0x91904373 DUP4 TIMESTAMP PUSH1 0x40 MLOAD DUP4 PUSH4 0xFFFFFFFF AND PUSH1 0xE0 SHL DUP2 MSTORE PUSH1 0x4 ADD PUSH2 0xEA7 SWAP3 SWAP2 SWAP1 PUSH2 0x19FE JUMP JUMPDEST PUSH1 0x20 PUSH1 0x40 MLOAD DUP1 DUP4 SUB DUP2 DUP7 GAS DELEGATECALL ISZERO DUP1 ISZERO PUSH2 0xEC2 JUMPI RETURNDATASIZE PUSH0 PUSH0 RETURNDATACOPY RETURNDATASIZE PUSH0 REVERT JUMPDEST POP POP POP POP PUSH1 0x40 MLOAD RETURNDATASIZE PUSH1 0x1F NOT PUSH1 0x1F DUP3 ADD AND DUP3 ADD DUP1 PUSH1 0x40 MSTORE POP DUP2 ADD SWAP1 PUSH2 0xEE6 SWAP2 SWAP1 PUSH2 0x1818 JUMP JUMPDEST PUSH0 DUP2 DUP2 MSTORE PUSH1 0x4 PUSH1 0x20 DUP2 DUP2 MSTORE PUSH1 0x40 SWAP3 DUP4 SWAP1 KECCAK256 DUP7 MLOAD DUP2 SLOAD PUSH1 0x1 PUSH1 0x1 PUSH1 0xA0 SHL SUB SWAP2 DUP3 AND PUSH1 0x1 PUSH1 0x1 PUSH1 0xA0 SHL SUB NOT SWAP2 DUP3 AND OR DUP4 SSTORE SWAP3 DUP9 ADD MLOAD PUSH1 0x1 DUP4 ADD DUP1 SLOAD SWAP2 DUP4 AND SWAP2 DUP6 AND SWAP2 SWAP1 SWAP2 OR SWAP1 SSTORE DUP5 DUP9 ADD MLOAD PUSH1 0x2 DUP4 ADD DUP1 SLOAD PUSH1 0x60 DUP12 ADD MLOAD ISZERO ISZERO PUSH1 0x1 PUSH1 0xA0 SHL MUL PUSH1 0x1 PUSH1 0x1 PUSH1 0xA8 SHL SUB NOT SWAP1 SWAP2 AND SWAP3 DUP5 AND SWAP3 SWAP1 SWAP3 OR SWAP2 SWAP1 SWAP2 OR SWAP1 SSTORE PUSH1 0x80 DUP9 ADD MLOAD PUSH1 0x3 DUP4 ADD SSTORE PUSH1 0xA0 DUP9 ADD MLOAD SWAP4 DUP3 ADD SWAP4 SWAP1 SWAP4 SSTORE PUSH1 0xC0 DUP8 ADD MLOAD PUSH1 0x5 DUP3 ADD SSTORE PUSH1 0xE0 DUP8 ADD MLOAD PUSH1 0x6 DUP3 ADD SSTORE PUSH2 0x100 DUP8 ADD MLOAD PUSH1 0x7 DUP3 ADD SSTORE PUSH2 0x120 DUP8 ADD MLOAD PUSH1 0x8 DUP3 ADD SSTORE PUSH2 0x140 DUP8 ADD MLOAD PUSH1 0x9 DUP3 ADD DUP1 SLOAD SWAP2 DUP6 AND SWAP2 DUP5 AND SWAP2 SWAP1 SWAP2 OR SWAP1 SSTORE PUSH2 0x160 DUP8 ADD MLOAD PUSH1 0xA SWAP1 SWAP2 ADD DUP1 SLOAD SWAP2 SWAP1 SWAP4 AND SWAP2 AND OR SWAP1 SSTORE MLOAD SWAP1 SWAP2 POP PUSH32 0x5E02698C1650D6CBE1F7E8A48609D0DA45AD7F5E4C13CD8B196F82965C0AB0D5 SWAP1 PUSH2 0x1022 SWAP1 DUP4 SWAP1 CALLER SWAP1 DUP13 SWAP1 DUP13 SWAP1 SWAP4 DUP5 MSTORE PUSH1 0x1 PUSH1 0x1 PUSH1 0xA0 SHL SUB SWAP3 DUP4 AND PUSH1 0x20 DUP6 ADD MSTORE SWAP1 DUP3 AND PUSH1 0x40 DUP5 ADD MSTORE AND PUSH1 0x60 DUP3 ADD MSTORE PUSH1 0x80 ADD SWAP1 JUMP JUMPDEST PUSH1 0x40 MLOAD DUP1 SWAP2 SUB SWAP1 LOG1 SWAP8 SWAP7 POP POP POP POP POP POP POP JUMP JUMPDEST PUSH0 DUP2 PUSH2 0x1041 CALLER DUP6 PUSH2 0x14E1 JUMP JUMPDEST LT ISZERO PUSH2 0x105F JUMPI PUSH1 0x40 MLOAD PUSH3 0x461BCD PUSH1 0xE5 SHL DUP2 MSTORE PUSH1 0x4 ADD PUSH2 0x7B5 SWAP1 PUSH2 0x1856 JUMP JUMPDEST CALLER PUSH0 DUP2 DUP2 MSTORE PUSH1 0x1 PUSH1 0x20 SWAP1 DUP2 MSTORE PUSH1 0x40 DUP1 DUP4 KECCAK256 PUSH1 0x1 PUSH1 0x1 PUSH1 0xA0 SHL SUB DUP9 AND DUP5 MSTORE SWAP1 SWAP2 MSTORE DUP2 KECCAK256 DUP1 SLOAD DUP6 SWAP3 SWAP1 PUSH2 0x1091 SWAP1 DUP5 SWAP1 PUSH2 0x1884 JUMP JUMPDEST SWAP1 SWAP2 SSTORE POP POP PUSH1 0x1 PUSH1 0x1 PUSH1 0xA0 SHL SUB DUP1 DUP7 AND PUSH0 SWAP1 DUP2 MSTORE PUSH1 0x1 PUSH1 0x20 SWAP1 DUP2 MSTORE PUSH1 0x40 DUP1 DUP4 KECCAK256 SWAP4 DUP9 AND DUP4 MSTORE SWAP3 SWAP1 MSTORE SWAP1 DUP2 KECCAK256 DUP1 SLOAD DUP6 SWAP3 SWAP1 PUSH2 0x10CC SWAP1 DUP5 SWAP1 PUSH2 0x1843 JUMP JUMPDEST SWAP1 SWAP2 SSTORE POP PUSH1 0x1 SWAP7 SWAP6 POP POP POP POP POP POP JUMP JUMPDEST PUSH2 0x10E4 PUSH2 0x150D JUMP JUMPDEST PUSH1 0x1 PUSH1 0x1 PUSH1 0xA0 SHL SUB DUP2 AND PUSH2 0x110D JUMPI PUSH1 0x40 MLOAD PUSH4 0x1E4FBDF7 PUSH1 0xE0 SHL DUP2 MSTORE PUSH0 PUSH1 0x4 DUP3 ADD MSTORE PUSH1 0x24 ADD PUSH2 0x7B5 JUMP JUMPDEST PUSH2 0x1116 DUP2 PUSH2 0x1539 JUMP JUMPDEST POP JUMP JUMPDEST DUP1 PUSH2 0x1124 CALLER DUP5 PUSH2 0x14E1 JUMP JUMPDEST LT ISZERO PUSH2 0x1142 JUMPI PUSH1 0x40 MLOAD PUSH3 0x461BCD PUSH1 0xE5 SHL DUP2 MSTORE PUSH1 0x4 ADD PUSH2 0x7B5 SWAP1 PUSH2 0x1856 JUMP JUMPDEST CALLER PUSH0 SWAP1 DUP2 MSTORE PUSH1 0x1 PUSH1 0x20 SWAP1 DUP2 MSTORE PUSH1 0x40 DUP1 DUP4 KECCAK256 PUSH1 0x1 PUSH1 0x1 PUSH1 0xA0 SHL SUB DUP7 AND DUP5 MSTORE SWAP1 SWAP2 MSTORE DUP2 KECCAK256 DUP1 SLOAD DUP4 SWAP3 SWAP1 PUSH2 0x1174 SWAP1 DUP5 SWAP1 PUSH2 0x1884 JUMP JUMPDEST SWAP1 SWAP2 SSTORE POP POP PUSH1 0x1 PUSH1 0x1 PUSH1 0xA0 SHL SUB DUP3 AND PUSH2 0x11B7 JUMPI PUSH1 0x40 MLOAD CALLER SWAP1 DUP3 ISZERO PUSH2 0x8FC MUL SWAP1 DUP4 SWAP1 PUSH0 DUP2 DUP2 DUP2 DUP6 DUP9 DUP9 CALL SWAP4 POP POP POP POP ISZERO DUP1 ISZERO PUSH2 0x11B1 JUMPI RETURNDATASIZE PUSH0 PUSH0 RETURNDATACOPY RETURNDATASIZE PUSH0 REVERT JUMPDEST POP PUSH2 0x1227 JUMP JUMPDEST PUSH1 0x40 MLOAD PUSH4 0xA9059CBB PUSH1 0xE0 SHL DUP2 MSTORE CALLER PUSH1 0x4 DUP3 ADD MSTORE PUSH1 0x24 DUP2 ADD DUP3 SWAP1 MSTORE PUSH1 0x1 PUSH1 0x1 PUSH1 0xA0 SHL SUB DUP4 AND SWAP1 PUSH4 0xA9059CBB SWAP1 PUSH1 0x44 ADD PUSH1 0x20 PUSH1 0x40 MLOAD DUP1 DUP4 SUB DUP2 PUSH0 DUP8 GAS CALL ISZERO DUP1 ISZERO PUSH2 0x1201 JUMPI RETURNDATASIZE PUSH0 PUSH0 RETURNDATACOPY RETURNDATASIZE PUSH0 REVERT JUMPDEST POP POP POP POP PUSH1 0x40 MLOAD RETURNDATASIZE PUSH1 0x1F NOT PUSH1 0x1F DUP3 ADD AND DUP3 ADD DUP1 PUSH1 0x40 MSTORE POP DUP2 ADD SWAP1 PUSH2 0x1225 SWAP2 SWAP1 PUSH2 0x1A1B JUMP JUMPDEST POP JUMPDEST PUSH1 0x40 DUP1 MLOAD DUP3 DUP2 MSTORE PUSH1 0x1 PUSH1 0x1 PUSH1 0xA0 SHL SUB DUP5 AND PUSH1 0x20 DUP3 ADD MSTORE CALLER SWAP2 PUSH31 0x1A143D5B175701CB3246058FFAC3D63945192075A926FF73A19930F09D587A SWAP2 ADD PUSH1 0x40 MLOAD DUP1 SWAP2 SUB SWAP1 LOG2 POP POP JUMP JUMPDEST PUSH0 PUSH0 PUSH2 0x1279 CALLER DUP5 PUSH2 0x14E1 JUMP JUMPDEST SWAP1 POP DUP5 DUP2 LT ISZERO PUSH2 0x128D JUMPI PUSH2 0x128D DUP4 DUP7 PUSH2 0x97C JUMP JUMPDEST PUSH1 0x40 MLOAD PUSH4 0xB20E3C1 PUSH1 0xE3 SHL DUP2 MSTORE PUSH0 SWAP1 PUSH20 0x0 SWAP1 PUSH4 0x59071E08 SWAP1 PUSH2 0x12D6 SWAP1 CALLER SWAP1 DUP13 SWAP1 DUP13 SWAP1 DUP13 SWAP1 DUP9 SWAP1 DUP14 SWAP1 DUP3 SWAP1 DUP15 SWAP1 DUP3 SWAP1 PUSH1 0x4 ADD PUSH2 0x1897 JUMP JUMPDEST PUSH2 0x180 PUSH1 0x40 MLOAD DUP1 DUP4 SUB DUP2 DUP7 GAS DELEGATECALL ISZERO DUP1 ISZERO PUSH2 0x12F2 JUMPI RETURNDATASIZE PUSH0 PUSH0 RETURNDATACOPY RETURNDATASIZE PUSH0 REVERT JUMPDEST POP POP POP POP PUSH1 0x40 MLOAD RETURNDATASIZE PUSH1 0x1F NOT PUSH1 0x1F DUP3 ADD AND DUP3 ADD DUP1 PUSH1 0x40 MSTORE POP DUP2 ADD SWAP1 PUSH2 0x1316 SWAP2 SWAP1 PUSH2 0x193A JUMP JUMPDEST SWAP1 POP PUSH0 PUSH20 0x0 PUSH4 0x91904373 DUP4 TIMESTAMP PUSH1 0x40 MLOAD DUP4 PUSH4 0xFFFFFFFF AND PUSH1 0xE0 SHL DUP2 MSTORE PUSH1 0x4 ADD PUSH2 0x1352 SWAP3 SWAP2 SWAP1 PUSH2 0x19FE JUMP JUMPDEST PUSH1 0x20 PUSH1 0x40 MLOAD DUP1 DUP4 SUB DUP2 DUP7 GAS DELEGATECALL ISZERO DUP1 ISZERO PUSH2 0x136D JUMPI RETURNDATASIZE PUSH0 PUSH0 RETURNDATACOPY RETURNDATASIZE PUSH0 REVERT JUMPDEST POP POP POP POP PUSH1 0x40 MLOAD RETURNDATASIZE PUSH1 0x1F NOT PUSH1 0x1F DUP3 ADD AND DUP3 ADD DUP1 PUSH1 0x40 MSTORE POP DUP2 ADD SWAP1 PUSH2 0x1391 SWAP2 SWAP1 PUSH2 0x1818 JUMP JUMPDEST PUSH0 DUP2 DUP2 MSTORE PUSH1 0x4 PUSH1 0x20 DUP2 DUP2 MSTORE PUSH1 0x40 SWAP3 DUP4 SWAP1 KECCAK256 DUP7 MLOAD DUP2 SLOAD PUSH1 0x1 PUSH1 0x1 PUSH1 0xA0 SHL SUB SWAP2 DUP3 AND PUSH1 0x1 PUSH1 0x1 PUSH1 0xA0 SHL SUB NOT SWAP2 DUP3 AND OR DUP4 SSTORE SWAP3 DUP9 ADD MLOAD PUSH1 0x1 DUP4 ADD DUP1 SLOAD SWAP2 DUP4 AND SWAP2 DUP6 AND SWAP2 SWAP1 SWAP2 OR SWAP1 SSTORE DUP5 DUP9 ADD MLOAD PUSH1 0x2 DUP4 ADD DUP1 SLOAD PUSH1 0x60 DUP12 ADD MLOAD ISZERO ISZERO PUSH1 0x1 PUSH1 0xA0 SHL MUL PUSH1 0x1 PUSH1 0x1 PUSH1 0xA8 SHL SUB NOT SWAP1 SWAP2 AND SWAP3 DUP5 AND SWAP3 SWAP1 SWAP3 OR SWAP2 SWAP1 SWAP2 OR SWAP1 SSTORE PUSH1 0x80 DUP9 ADD MLOAD PUSH1 0x3 DUP4 ADD SSTORE PUSH1 0xA0 DUP9 ADD MLOAD SWAP4 DUP3 ADD SWAP4 SWAP1 SWAP4 SSTORE PUSH1 0xC0 DUP8 ADD MLOAD PUSH1 0x5 DUP3 ADD SSTORE PUSH1 0xE0 DUP8 ADD MLOAD PUSH1 0x6 DUP3 ADD SSTORE PUSH2 0x100 DUP8 ADD MLOAD PUSH1 0x7 DUP3 ADD SSTORE PUSH2 0x120 DUP8 ADD MLOAD PUSH1 0x8 DUP3 ADD SSTORE PUSH2 0x140 DUP8 ADD MLOAD PUSH1 0x9 DUP3 ADD DUP1 SLOAD SWAP2 DUP6 AND SWAP2 DUP5 AND SWAP2 SWAP1 SWAP2 OR SWAP1 SSTORE PUSH2 0x160 DUP8 ADD MLOAD PUSH1 0xA SWAP1 SWAP2 ADD DUP1 SLOAD SWAP2 SWAP1 SWAP4 AND SWAP2 AND OR SWAP1 SSTORE MLOAD SWAP1 SWAP2 POP PUSH32 0x5E02698C1650D6CBE1F7E8A48609D0DA45AD7F5E4C13CD8B196F82965C0AB0D5 SWAP1 PUSH2 0x14CD SWAP1 DUP4 SWAP1 CALLER SWAP1 DUP14 SWAP1 DUP14 SWAP1 SWAP4 DUP5 MSTORE PUSH1 0x1 PUSH1 0x1 PUSH1 0xA0 SHL SUB SWAP3 DUP4 AND PUSH1 0x20 DUP6 ADD MSTORE SWAP1 DUP3 AND PUSH1 0x40 DUP5 ADD MSTORE AND PUSH1 0x60 DUP3 ADD MSTORE PUSH1 0x80 ADD SWAP1 JUMP JUMPDEST PUSH1 0x40 MLOAD DUP1 SWAP2 SUB SWAP1 LOG1 SWAP9 SWAP8 POP POP POP POP POP POP POP POP JUMP JUMPDEST PUSH1 0x1 PUSH1 0x1 PUSH1 0xA0 SHL SUB DUP1 DUP4 AND PUSH0 SWAP1 DUP2 MSTORE PUSH1 0x1 PUSH1 0x20 SWAP1 DUP2 MSTORE PUSH1 0x40 DUP1 DUP4 KECCAK256 SWAP4 DUP6 AND DUP4 MSTORE SWAP3 SWAP1 MSTORE KECCAK256 SLOAD JUMPDEST SWAP3 SWAP2 POP POP JUMP JUMPDEST PUSH0 SLOAD PUSH1 0x1 PUSH1 0x1 PUSH1 0xA0 SHL SUB AND CALLER EQ PUSH2 0xCBB JUMPI PUSH1 0x40 MLOAD PUSH4 0x118CDAA7 PUSH1 0xE0 SHL DUP2 MSTORE CALLER PUSH1 0x4 DUP3 ADD MSTORE PUSH1 0x24 ADD PUSH2 0x7B5 JUMP JUMPDEST PUSH0 DUP1 SLOAD PUSH1 0x1 PUSH1 0x1 PUSH1 0xA0 SHL SUB DUP4 DUP2 AND PUSH1 0x1 PUSH1 0x1 PUSH1 0xA0 SHL SUB NOT DUP4 AND DUP2 OR DUP5 SSTORE PUSH1 0x40 MLOAD SWAP2 SWAP1 SWAP3 AND SWAP3 DUP4 SWAP2 PUSH32 0x8BE0079C531659141344CD1FD0A4F28419497F9722A3DAAFE3B4186F6B6457E0 SWAP2 SWAP1 LOG3 POP POP JUMP JUMPDEST PUSH1 0x1 PUSH1 0x1 PUSH1 0xA0 SHL SUB DUP2 AND DUP2 EQ PUSH2 0x1116 JUMPI PUSH0 PUSH0 REVERT JUMPDEST PUSH0 PUSH0 PUSH1 0x40 DUP4 DUP6 SUB SLT ISZERO PUSH2 0x15AD JUMPI PUSH0 PUSH0 REVERT JUMPDEST DUP3 CALLDATALOAD SWAP2 POP PUSH1 0x20 DUP4 ADD CALLDATALOAD PUSH2 0x15BF DUP2 PUSH2 0x1588 JUMP JUMPDEST DUP1 SWAP2 POP POP SWAP3 POP SWAP3 SWAP1 POP JUMP JUMPDEST PUSH0 PUSH0 PUSH1 0x40 DUP4 DUP6 SUB SLT ISZERO PUSH2 0x15DB JUMPI PUSH0 PUSH0 REVERT JUMPDEST DUP3 CALLDATALOAD PUSH2 0x15E6 DUP2 PUSH2 0x1588 JUMP JUMPDEST SWAP5 PUSH1 0x20 SWAP4 SWAP1 SWAP4 ADD CALLDATALOAD SWAP4 POP POP POP JUMP JUMPDEST PUSH0 PUSH1 0x20 DUP3 DUP5 SUB SLT ISZERO PUSH2 0x1604 JUMPI PUSH0 PUSH0 REVERT JUMPDEST DUP2 CALLDATALOAD PUSH2 0x160F DUP2 PUSH2 0x1588 JUMP JUMPDEST SWAP4 SWAP3 POP POP POP JUMP JUMPDEST PUSH1 0x20 DUP1 DUP3 MSTORE DUP3 MLOAD DUP3 DUP3 ADD DUP2 SWAP1 MSTORE PUSH0 SWAP2 DUP5 ADD SWAP1 PUSH1 0x40 DUP5 ADD SWAP1 DUP4 JUMPDEST DUP2 DUP2 LT ISZERO PUSH2 0x164D JUMPI DUP4 MLOAD DUP4 MSTORE PUSH1 0x20 SWAP4 DUP5 ADD SWAP4 SWAP1 SWAP3 ADD SWAP2 PUSH1 0x1 ADD PUSH2 0x162F JUMP JUMPDEST POP SWAP1 SWAP6 SWAP5 POP POP POP POP POP JUMP JUMPDEST PUSH0 PUSH1 0x20 DUP3 DUP5 SUB SLT ISZERO PUSH2 0x1668 JUMPI PUSH0 PUSH0 REVERT JUMPDEST POP CALLDATALOAD SWAP2 SWAP1 POP JUMP JUMPDEST DUP1 MLOAD PUSH1 0x1 PUSH1 0x1 PUSH1 0xA0 SHL SUB AND DUP3 MSTORE PUSH1 0x20 DUP2 ADD MLOAD PUSH2 0x1696 PUSH1 0x20 DUP5 ADD DUP3 PUSH1 0x1 PUSH1 0x1 PUSH1 0xA0 SHL SUB AND SWAP1 MSTORE JUMP JUMPDEST POP PUSH1 0x40 DUP2 ADD MLOAD PUSH2 0x16B1 PUSH1 0x40 DUP5 ADD DUP3 PUSH1 0x1 PUSH1 0x1 PUSH1 0xA0 SHL SUB AND SWAP1 MSTORE JUMP JUMPDEST POP PUSH1 0x60 DUP2 ADD MLOAD PUSH2 0x16C5 PUSH1 0x60 DUP5 ADD DUP3 ISZERO ISZERO SWAP1 MSTORE JUMP JUMPDEST POP PUSH1 0x80 DUP2 ADD MLOAD PUSH1 0x80 DUP4 ADD MSTORE PUSH1 0xA0 DUP2 ADD MLOAD PUSH1 0xA0 DUP4 ADD MSTORE PUSH1 0xC0 DUP2 ADD MLOAD PUSH1 0xC0 DUP4 ADD MSTORE PUSH1 0xE0 DUP2 ADD MLOAD PUSH1 0xE0 DUP4 ADD MSTORE PUSH2 0x100 DUP2 ADD MLOAD PUSH2 0x100 DUP4 ADD MSTORE PUSH2 0x120 DUP2 ADD MLOAD PUSH2 0x120 DUP4 ADD MSTORE PUSH2 0x140 DUP2 ADD MLOAD PUSH2 0x1722 PUSH2 0x140 DUP5 ADD DUP3 PUSH1 0x1 PUSH1 0x1 PUSH1 0xA0 SHL SUB AND SWAP1 MSTORE JUMP JUMPDEST POP PUSH2 0x160 DUP2 ADD MLOAD PUSH2 0x173F PUSH2 0x160 DUP5 ADD DUP3 PUSH1 0x1 PUSH1 0x1 PUSH1 0xA0 SHL SUB AND SWAP1 MSTORE JUMP JUMPDEST POP POP POP JUMP JUMPDEST PUSH2 0x180 DUP2 ADD PUSH2 0x1507 DUP3 DUP5 PUSH2 0x166F JUMP JUMPDEST PUSH0 PUSH0 PUSH0 PUSH0 PUSH0 PUSH1 0xA0 DUP7 DUP9 SUB SLT ISZERO PUSH2 0x1767 JUMPI PUSH0 PUSH0 REVERT JUMPDEST DUP6 CALLDATALOAD PUSH2 0x1772 DUP2 PUSH2 0x1588 JUMP JUMPDEST SWAP5 POP PUSH1 0x20 DUP7 ADD CALLDATALOAD PUSH2 0x1782 DUP2 PUSH2 0x1588 JUMP JUMPDEST SWAP4 POP PUSH1 0x40 DUP7 ADD CALLDATALOAD SWAP3 POP PUSH1 0x60 DUP7 ADD CALLDATALOAD SWAP2 POP PUSH1 0x80 DUP7 ADD CALLDATALOAD PUSH2 0x17A0 DUP2 PUSH2 0x1588 JUMP JUMPDEST DUP1 SWAP2 POP POP SWAP3 SWAP6 POP SWAP3 SWAP6 SWAP1 SWAP4 POP JUMP JUMPDEST PUSH0 PUSH0 PUSH0 PUSH1 0x60 DUP5 DUP7 SUB SLT ISZERO PUSH2 0x17C0 JUMPI PUSH0 PUSH0 REVERT JUMPDEST DUP4 CALLDATALOAD PUSH2 0x17CB DUP2 PUSH2 0x1588 JUMP JUMPDEST SWAP3 POP PUSH1 0x20 DUP5 ADD CALLDATALOAD PUSH2 0x17DB DUP2 PUSH2 0x1588 JUMP JUMPDEST SWAP3 SWAP6 SWAP3 SWAP5 POP POP POP PUSH1 0x40 SWAP2 SWAP1 SWAP2 ADD CALLDATALOAD SWAP1 JUMP JUMPDEST PUSH0 PUSH0 PUSH1 0x40 DUP4 DUP6 SUB SLT ISZERO PUSH2 0x17FD JUMPI PUSH0 PUSH0 REVERT JUMPDEST DUP3 CALLDATALOAD PUSH2 0x1808 DUP2 PUSH2 0x1588 JUMP JUMPDEST SWAP2 POP PUSH1 0x20 DUP4 ADD CALLDATALOAD PUSH2 0x15BF DUP2 PUSH2 0x1588 JUMP JUMPDEST PUSH0 PUSH1 0x20 DUP3 DUP5 SUB SLT ISZERO PUSH2 0x1828 JUMPI PUSH0 PUSH0 REVERT JUMPDEST POP MLOAD SWAP2 SWAP1 POP JUMP JUMPDEST PUSH4 0x4E487B71 PUSH1 0xE0 SHL PUSH0 MSTORE PUSH1 0x11 PUSH1 0x4 MSTORE PUSH1 0x24 PUSH0 REVERT JUMPDEST DUP1 DUP3 ADD DUP1 DUP3 GT ISZERO PUSH2 0x1507 JUMPI PUSH2 0x1507 PUSH2 0x182F JUMP JUMPDEST PUSH1 0x20 DUP1 DUP3 MSTORE PUSH1 0x14 SWAP1 DUP3 ADD MSTORE PUSH20 0x496E73756666696369656E742062616C616E6365 PUSH1 0x60 SHL PUSH1 0x40 DUP3 ADD MSTORE PUSH1 0x60 ADD SWAP1 JUMP JUMPDEST DUP2 DUP2 SUB DUP2 DUP2 GT ISZERO PUSH2 0x1507 JUMPI PUSH2 0x1507 PUSH2 0x182F JUMP JUMPDEST PUSH1 0x1 PUSH1 0x1 PUSH1 0xA0 SHL SUB SWAP10 DUP11 AND DUP2 MSTORE SWAP8 DUP10 AND PUSH1 0x20 DUP10 ADD MSTORE SWAP6 DUP9 AND PUSH1 0x40 DUP9 ADD MSTORE PUSH1 0x60 DUP8 ADD SWAP5 SWAP1 SWAP5 MSTORE PUSH1 0x80 DUP7 ADD SWAP3 SWAP1 SWAP3 MSTORE PUSH1 0xA0 DUP6 ADD MSTORE PUSH1 0xC0 DUP5 ADD MSTORE DUP4 AND PUSH1 0xE0 DUP4 ADD MSTORE SWAP1 SWAP2 AND PUSH2 0x100 DUP3 ADD MSTORE PUSH2 0x120 ADD SWAP1 JUMP JUMPDEST PUSH1 0x40 MLOAD PUSH2 0x180 DUP2 ADD PUSH8 0xFFFFFFFFFFFFFFFF DUP2 GT DUP3 DUP3 LT OR ISZERO PUSH2 0x1915 JUMPI PUSH4 0x4E487B71 PUSH1 0xE0 SHL PUSH0 MSTORE PUSH1 0x41 PUSH1 0x4 MSTORE PUSH1 0x24 PUSH0 REVERT JUMPDEST PUSH1 0x40 MSTORE SWAP1 JUMP JUMPDEST DUP1 MLOAD PUSH2 0x1926 DUP2 PUSH2 0x1588 JUMP JUMPDEST SWAP2 SWAP1 POP JUMP JUMPDEST DUP1 MLOAD DUP1 ISZERO ISZERO DUP2 EQ PUSH2 0x1926 JUMPI PUSH0 PUSH0 REVERT JUMPDEST PUSH0 PUSH2 0x180 DUP3 DUP5 SUB SLT DUP1 ISZERO PUSH2 0x194C JUMPI PUSH0 PUSH0 REVERT JUMPDEST POP PUSH2 0x1955 PUSH2 0x18E5 JUMP JUMPDEST PUSH2 0x195E DUP4 PUSH2 0x191B JUMP JUMPDEST DUP2 MSTORE PUSH2 0x196C PUSH1 0x20 DUP5 ADD PUSH2 0x191B JUMP JUMPDEST PUSH1 0x20 DUP3 ADD MSTORE PUSH2 0x197D PUSH1 0x40 DUP5 ADD PUSH2 0x191B JUMP JUMPDEST PUSH1 0x40 DUP3 ADD MSTORE PUSH2 0x198E PUSH1 0x60 DUP5 ADD PUSH2 0x192B JUMP JUMPDEST PUSH1 0x60 DUP3 ADD MSTORE PUSH1 0x80 DUP4 DUP2 ADD MLOAD SWAP1 DUP3 ADD MSTORE PUSH1 0xA0 DUP1 DUP5 ADD MLOAD SWAP1 DUP3 ADD MSTORE PUSH1 0xC0 DUP1 DUP5 ADD MLOAD SWAP1 DUP3 ADD MSTORE PUSH1 0xE0 DUP1 DUP5 ADD MLOAD SWAP1 DUP3 ADD MSTORE PUSH2 0x100 DUP1 DUP5 ADD MLOAD SWAP1 DUP3 ADD MSTORE PUSH2 0x120 DUP1 DUP5 ADD MLOAD SWAP1 DUP3 ADD MSTORE PUSH2 0x19DE PUSH2 0x140 DUP5 ADD PUSH2 0x191B JUMP JUMPDEST PUSH2 0x140 DUP3 ADD MSTORE PUSH2 0x19F1 PUSH2 0x160 DUP5 ADD PUSH2 0x191B JUMP JUMPDEST PUSH2 0x160 DUP3 ADD MSTORE SWAP4 SWAP3 POP POP POP JUMP JUMPDEST PUSH2 0x1A0 DUP2 ADD PUSH2 0x1A0D DUP3 DUP6 PUSH2 0x166F JUMP JUMPDEST DUP3 PUSH2 0x180 DUP4 ADD MSTORE SWAP4 SWAP3 POP POP POP JUMP JUMPDEST PUSH0 PUSH1 0x20 DUP3 DUP5 SUB SLT ISZERO PUSH2 0x1A2B JUMPI PUSH0 PUSH0 REVERT JUMPDEST PUSH2 0x160F DUP3 PUSH2 0x192B JUMP INVALID LOG2 PUSH5 0x6970667358 0x22 SLT KECCAK256 SWAP15 CREATE2 SLT 0xBB 0xB3 PUSH31 0xC6BC38C820BA5DB5227A7D66BA5E74CF2FE8D9F029FEC744EBF564736F6C63 NUMBER STOP ADDMOD SHR STOP CALLER "
		},
		"gasEstimates": {
			"creation": {
				"codeDepositCost": "1352400",
				"executionCost": "infinite",
				"totalCost": "infinite"
			},
			"external": {
				"balanceOf(address)": "2667",
				"balanceOf(address,address)": "infinite",
				"balances(address,address)": "infinite",
				"commissionRecipient()": "2372",
				"contractEnabled()": "2415",
				"createDeal(address,address,uint256,uint256,address)": "infinite",
				"deals(bytes32)": "23951",
				"dealsByCounterparty(address,uint256)": "4842",
				"dealsByInitiator(address,uint256)": "4819",
				"dealsByMediator(address,uint256)": "4821",
				"deposit(address,uint256)": "infinite",
				"depositCommissionPercent()": "2384",
				"disableContract()": "27666",
				"enableContract()": "27645",
				"getCompletedDeals()": "2402",
				"getDeal(bytes32)": "24742",
				"getDealsByCounterparty(address)": "infinite",
				"getDealsByInitiator(address)": "infinite",
				"getDealsByMediator(address)": "infinite",
				"getTotalDeals()": "2381",
				"owner()": "2363",
				"payUpCreateDeal(address,address,uint256,uint256,address)": "infinite",
				"renounceOwnership()": "infinite",
				"setDepositCommission(uint256,address)": "50330",
				"totalCompletedDeals()": "2383",
				"totalDeals()": "2361",
				"transfer(address,address,uint256)": "infinite",
				"transferOwnership(address)": "infinite",
				"withdraw(address,uint256)": "infinite"
			}
		},
		"methodIdentifiers": {
			"balanceOf(address)": "70a08231",
			"balanceOf(address,address)": "f7888aec",
			"balances(address,address)": "c23f001f",
			"commissionRecipient()": "06fd154a",
			"contractEnabled()": "41b3a0d9",
			"createDeal(address,address,uint256,uint256,address)": "b9c22b23",
			"deals(bytes32)": "81cd872a",
			"dealsByCounterparty(address,uint256)": "442239c9",
			"dealsByInitiator(address,uint256)": "b0eaa1f6",
			"dealsByMediator(address,uint256)": "19e9bfc8",
			"deposit(address,uint256)": "47e7ef24",
			"depositCommissionPercent()": "899a3ffd",
			"disableContract()": "894ba833",
			"enableContract()": "367edd32",
			"getCompletedDeals()": "ed50ab8a",
			"getDeal(bytes32)": "51a6fad5",
			"getDealsByCounterparty(address)": "3b063aa0",
			"getDealsByInitiator(address)": "723a3816",
			"getDealsByMediator(address)": "5bd447ac",
			"getTotalDeals()": "5379719b",
			"owner()": "8da5cb5b",
			"payUpCreateDeal(address,address,uint256,uint256,address)": "f75ce147",
			"renounceOwnership()": "715018a6",
			"setDepositCommission(uint256,address)": "15f8a314",
			"totalCompletedDeals()": "e08560a4",
			"totalDeals()": "966d1f1d",
			"transfer(address,address,uint256)": "beabacc8",
			"transferOwnership(address)": "f2fde38b",
			"withdraw(address,uint256)": "f3fef3a3"
		}
	},
	"abi": [
		{
			"inputs": [
				{
					"internalType": "uint256",
					"name": "_depositCommissionPercent",
					"type": "uint256"
				},
				{
					"internalType": "address",
					"name": "_commissionRecipient",
					"type": "address"
				}
			],
			"stateMutability": "nonpayable",
			"type": "constructor"
		},
		{
			"inputs": [
				{
					"internalType": "address",
					"name": "owner",
					"type": "address"
				}
			],
			"name": "OwnableInvalidOwner",
			"type": "error"
		},
		{
			"inputs": [
				{
					"internalType": "address",
					"name": "account",
					"type": "address"
				}
			],
			"name": "OwnableUnauthorizedAccount",
			"type": "error"
		},
		{
			"anonymous": false,
			"inputs": [
				{
					"indexed": false,
					"internalType": "uint256",
					"name": "newCommissionPercent",
					"type": "uint256"
				},
				{
					"indexed": false,
					"internalType": "address",
					"name": "newCommissionRecipient",
					"type": "address"
				}
			],
			"name": "CommissionChanged",
			"type": "event"
		},
		{
			"anonymous": false,
			"inputs": [
				{
					"indexed": false,
					"internalType": "bool",
					"name": "status",
					"type": "bool"
				}
			],
			"name": "ContractStatusChanged",
			"type": "event"
		},
		{
			"anonymous": false,
			"inputs": [
				{
					"indexed": false,
					"internalType": "bytes32",
					"name": "dealHash",
					"type": "bytes32"
				},
				{
					"indexed": false,
					"internalType": "address",
					"name": "initiator",
					"type": "address"
				},
				{
					"indexed": false,
					"internalType": "address",
					"name": "counterparty",
					"type": "address"
				},
				{
					"indexed": false,
					"internalType": "address",
					"name": "mediator",
					"type": "address"
				}
			],
			"name": "DealCreated",
			"type": "event"
		},
		{
			"anonymous": false,
			"inputs": [
				{
					"indexed": true,
					"internalType": "address",
					"name": "user",
					"type": "address"
				},
				{
					"indexed": false,
					"internalType": "uint256",
					"name": "amount",
					"type": "uint256"
				},
				{
					"indexed": false,
					"internalType": "uint256",
					"name": "commission",
					"type": "uint256"
				},
				{
					"indexed": false,
					"internalType": "address",
					"name": "token",
					"type": "address"
				}
			],
			"name": "Deposit",
			"type": "event"
		},
		{
			"anonymous": false,
			"inputs": [
				{
					"indexed": true,
					"internalType": "address",
					"name": "previousOwner",
					"type": "address"
				},
				{
					"indexed": true,
					"internalType": "address",
					"name": "newOwner",
					"type": "address"
				}
			],
			"name": "OwnershipTransferred",
			"type": "event"
		},
		{
			"anonymous": false,
			"inputs": [
				{
					"indexed": true,
					"internalType": "address",
					"name": "from",
					"type": "address"
				},
				{
					"indexed": true,
					"internalType": "address",
					"name": "to",
					"type": "address"
				},
				{
					"indexed": false,
					"internalType": "uint256",
					"name": "value",
					"type": "uint256"
				}
			],
			"name": "Transfer",
			"type": "event"
		},
		{
			"anonymous": false,
			"inputs": [
				{
					"indexed": true,
					"internalType": "address",
					"name": "user",
					"type": "address"
				},
				{
					"indexed": false,
					"internalType": "uint256",
					"name": "amount",
					"type": "uint256"
				},
				{
					"indexed": false,
					"internalType": "address",
					"name": "token",
					"type": "address"
				}
			],
			"name": "Withdrawal",
			"type": "event"
		},
		{
			"inputs": [
				{
					"internalType": "address",
					"name": "user",
					"type": "address"
				}
			],
			"name": "balanceOf",
			"outputs": [
				{
					"internalType": "uint256",
					"name": "",
					"type": "uint256"
				}
			],
			"stateMutability": "view",
			"type": "function"
		},
		{
			"inputs": [
				{
					"internalType": "address",
					"name": "user",
					"type": "address"
				},
				{
					"internalType": "address",
					"name": "token",
					"type": "address"
				}
			],
			"name": "balanceOf",
			"outputs": [
				{
					"internalType": "uint256",
					"name": "",
					"type": "uint256"
				}
			],
			"stateMutability": "view",
			"type": "function"
		},
		{
			"inputs": [
				{
					"internalType": "address",
					"name": "",
					"type": "address"
				},
				{
					"internalType": "address",
					"name": "",
					"type": "address"
				}
			],
			"name": "balances",
			"outputs": [
				{
					"internalType": "uint256",
					"name": "",
					"type": "uint256"
				}
			],
			"stateMutability": "view",
			"type": "function"
		},
		{
			"inputs": [],
			"name": "commissionRecipient",
			"outputs": [
				{
					"internalType": "address",
					"name": "",
					"type": "address"
				}
			],
			"stateMutability": "view",
			"type": "function"
		},
		{
			"inputs": [],
			"name": "contractEnabled",
			"outputs": [
				{
					"internalType": "bool",
					"name": "",
					"type": "bool"
				}
			],
			"stateMutability": "view",
			"type": "function"
		},
		{
			"inputs": [
				{
					"internalType": "address payable",
					"name": "_counterparty",
					"type": "address"
				},
				{
					"internalType": "address payable",
					"name": "_mediator",
					"type": "address"
				},
				{
					"internalType": "uint256",
					"name": "_amount",
					"type": "uint256"
				},
				{
					"internalType": "uint256",
					"name": "_PRC_MediatorFee",
					"type": "uint256"
				},
				{
					"internalType": "address",
					"name": "_tokenAddress",
					"type": "address"
				}
			],
			"name": "createDeal",
			"outputs": [
				{
					"internalType": "bytes32",
					"name": "",
					"type": "bytes32"
				}
			],
			"stateMutability": "nonpayable",
			"type": "function"
		},
		{
			"inputs": [
				{
					"internalType": "bytes32",
					"name": "",
					"type": "bytes32"
				}
			],
			"name": "deals",
			"outputs": [
				{
					"internalType": "address payable",
					"name": "initiator",
					"type": "address"
				},
				{
					"internalType": "address payable",
					"name": "counterparty",
					"type": "address"
				},
				{
					"internalType": "address payable",
					"name": "mediator",
					"type": "address"
				},
				{
					"internalType": "bool",
					"name": "isCompleted",
					"type": "bool"
				},
				{
					"internalType": "uint256",
					"name": "initiatorCreateAmount",
					"type": "uint256"
				},
				{
					"internalType": "uint256",
					"name": "counterpartyCreateAmount",
					"type": "uint256"
				},
				{
					"internalType": "uint256",
					"name": "initiatorCurrentAmount",
					"type": "uint256"
				},
				{
					"internalType": "uint256",
					"name": "counterpartyCurrentAmount",
					"type": "uint256"
				},
				{
					"internalType": "uint256",
					"name": "PRC_CounterpartyInitatorFee",
					"type": "uint256"
				},
				{
					"internalType": "uint256",
					"name": "PRC_CounterpartyMediatorFee",
					"type": "uint256"
				},
				{
					"internalType": "address",
					"name": "initiatorTokenAddress",
					"type": "address"
				},
				{
					"internalType": "address",
					"name": "counterpartyTokenAddress",
					"type": "address"
				}
			],
			"stateMutability": "view",
			"type": "function"
		},
		{
			"inputs": [
				{
					"internalType": "address",
					"name": "",
					"type": "address"
				},
				{
					"internalType": "uint256",
					"name": "",
					"type": "uint256"
				}
			],
			"name": "dealsByCounterparty",
			"outputs": [
				{
					"internalType": "bytes32",
					"name": "",
					"type": "bytes32"
				}
			],
			"stateMutability": "view",
			"type": "function"
		},
		{
			"inputs": [
				{
					"internalType": "address",
					"name": "",
					"type": "address"
				},
				{
					"internalType": "uint256",
					"name": "",
					"type": "uint256"
				}
			],
			"name": "dealsByInitiator",
			"outputs": [
				{
					"internalType": "bytes32",
					"name": "",
					"type": "bytes32"
				}
			],
			"stateMutability": "view",
			"type": "function"
		},
		{
			"inputs": [
				{
					"internalType": "address",
					"name": "",
					"type": "address"
				},
				{
					"internalType": "uint256",
					"name": "",
					"type": "uint256"
				}
			],
			"name": "dealsByMediator",
			"outputs": [
				{
					"internalType": "bytes32",
					"name": "",
					"type": "bytes32"
				}
			],
			"stateMutability": "view",
			"type": "function"
		},
		{
			"inputs": [
				{
					"internalType": "address",
					"name": "token",
					"type": "address"
				},
				{
					"internalType": "uint256",
					"name": "amount",
					"type": "uint256"
				}
			],
			"name": "deposit",
			"outputs": [],
			"stateMutability": "payable",
			"type": "function"
		},
		{
			"inputs": [],
			"name": "depositCommissionPercent",
			"outputs": [
				{
					"internalType": "uint256",
					"name": "",
					"type": "uint256"
				}
			],
			"stateMutability": "view",
			"type": "function"
		},
		{
			"inputs": [],
			"name": "disableContract",
			"outputs": [],
			"stateMutability": "nonpayable",
			"type": "function"
		},
		{
			"inputs": [],
			"name": "enableContract",
			"outputs": [],
			"stateMutability": "nonpayable",
			"type": "function"
		},
		{
			"inputs": [],
			"name": "getCompletedDeals",
			"outputs": [
				{
					"internalType": "uint256",
					"name": "",
					"type": "uint256"
				}
			],
			"stateMutability": "view",
			"type": "function"
		},
		{
			"inputs": [
				{
					"internalType": "bytes32",
					"name": "dealId",
					"type": "bytes32"
				}
			],
			"name": "getDeal",
			"outputs": [
				{
					"components": [
						{
							"internalType": "address payable",
							"name": "initiator",
							"type": "address"
						},
						{
							"internalType": "address payable",
							"name": "counterparty",
							"type": "address"
						},
						{
							"internalType": "address payable",
							"name": "mediator",
							"type": "address"
						},
						{
							"internalType": "bool",
							"name": "isCompleted",
							"type": "bool"
						},
						{
							"internalType": "uint256",
							"name": "initiatorCreateAmount",
							"type": "uint256"
						},
						{
							"internalType": "uint256",
							"name": "counterpartyCreateAmount",
							"type": "uint256"
						},
						{
							"internalType": "uint256",
							"name": "initiatorCurrentAmount",
							"type": "uint256"
						},
						{
							"internalType": "uint256",
							"name": "counterpartyCurrentAmount",
							"type": "uint256"
						},
						{
							"internalType": "uint256",
							"name": "PRC_CounterpartyInitatorFee",
							"type": "uint256"
						},
						{
							"internalType": "uint256",
							"name": "PRC_CounterpartyMediatorFee",
							"type": "uint256"
						},
						{
							"internalType": "address",
							"name": "initiatorTokenAddress",
							"type": "address"
						},
						{
							"internalType": "address",
							"name": "counterpartyTokenAddress",
							"type": "address"
						}
					],
					"internalType": "struct Deal",
					"name": "",
					"type": "tuple"
				}
			],
			"stateMutability": "view",
			"type": "function"
		},
		{
			"inputs": [
				{
					"internalType": "address",
					"name": "user",
					"type": "address"
				}
			],
			"name": "getDealsByCounterparty",
			"outputs": [
				{
					"internalType": "bytes32[]",
					"name": "",
					"type": "bytes32[]"
				}
			],
			"stateMutability": "view",
			"type": "function"
		},
		{
			"inputs": [
				{
					"internalType": "address",
					"name": "user",
					"type": "address"
				}
			],
			"name": "getDealsByInitiator",
			"outputs": [
				{
					"internalType": "bytes32[]",
					"name": "",
					"type": "bytes32[]"
				}
			],
			"stateMutability": "view",
			"type": "function"
		},
		{
			"inputs": [
				{
					"internalType": "address",
					"name": "user",
					"type": "address"
				}
			],
			"name": "getDealsByMediator",
			"outputs": [
				{
					"internalType": "bytes32[]",
					"name": "",
					"type": "bytes32[]"
				}
			],
			"stateMutability": "view",
			"type": "function"
		},
		{
			"inputs": [],
			"name": "getTotalDeals",
			"outputs": [
				{
					"internalType": "uint256",
					"name": "",
					"type": "uint256"
				}
			],
			"stateMutability": "view",
			"type": "function"
		},
		{
			"inputs": [],
			"name": "owner",
			"outputs": [
				{
					"internalType": "address",
					"name": "",
					"type": "address"
				}
			],
			"stateMutability": "view",
			"type": "function"
		},
		{
			"inputs": [
				{
					"internalType": "address payable",
					"name": "_counterparty",
					"type": "address"
				},
				{
					"internalType": "address payable",
					"name": "_mediator",
					"type": "address"
				},
				{
					"internalType": "uint256",
					"name": "_amount",
					"type": "uint256"
				},
				{
					"internalType": "uint256",
					"name": "_PRC_MediatorFee",
					"type": "uint256"
				},
				{
					"internalType": "address",
					"name": "_tokenAddress",
					"type": "address"
				}
			],
			"name": "payUpCreateDeal",
			"outputs": [
				{
					"internalType": "bytes32",
					"name": "",
					"type": "bytes32"
				}
			],
			"stateMutability": "payable",
			"type": "function"
		},
		{
			"inputs": [],
			"name": "renounceOwnership",
			"outputs": [],
			"stateMutability": "nonpayable",
			"type": "function"
		},
		{
			"inputs": [
				{
					"internalType": "uint256",
					"name": "newCommissionPercent",
					"type": "uint256"
				},
				{
					"internalType": "address",
					"name": "newRecipient",
					"type": "address"
				}
			],
			"name": "setDepositCommission",
			"outputs": [],
			"stateMutability": "nonpayable",
			"type": "function"
		},
		{
			"inputs": [],
			"name": "totalCompletedDeals",
			"outputs": [
				{
					"internalType": "uint256",
					"name": "",
					"type": "uint256"
				}
			],
			"stateMutability": "view",
			"type": "function"
		},
		{
			"inputs": [],
			"name": "totalDeals",
			"outputs": [
				{
					"internalType": "uint256",
					"name": "",
					"type": "uint256"
				}
			],
			"stateMutability": "view",
			"type": "function"
		},
		{
			"inputs": [
				{
					"internalType": "address",
					"name": "to",
					"type": "address"
				},
				{
					"internalType": "address",
					"name": "token",
					"type": "address"
				},
				{
					"internalType": "uint256",
					"name": "amount",
					"type": "uint256"
				}
			],
			"name": "transfer",
			"outputs": [
				{
					"internalType": "bool",
					"name": "",
					"type": "bool"
				}
			],
			"stateMutability": "nonpayable",
			"type": "function"
		},
		{
			"inputs": [
				{
					"internalType": "address",
					"name": "newOwner",
					"type": "address"
				}
			],
			"name": "transferOwnership",
			"outputs": [],
			"stateMutability": "nonpayable",
			"type": "function"
		},
		{
			"inputs": [
				{
					"internalType": "address",
					"name": "token",
					"type": "address"
				},
				{
					"internalType": "uint256",
					"name": "amount",
					"type": "uint256"
				}
			],
			"name": "withdraw",
			"outputs": [],
			"stateMutability": "nonpayable",
			"type": "function"
		}
	]
}