{
	"data": {
		"bytecode": {
			"linkReferences": {
				"Deal.sol": {
					"DealContract": [
						{
							"length": 20,
							"start": 1316
						},
						{
							"length": 20,
							"start": 6565
						},
						{
							"length": 20,
							"start": 7797
						}
					]
				},
				"Percent.sol": {
					"Percent": [
						{
							"length": 20,
							"start": 2079
						},
						{
							"length": 20,
							"start": 3379
						},
						{
							"length": 20,
							"start": 5596
						},
						{
							"length": 20,
							"start": 7183
						}
					]
				}
			},
			"object": "6080346101aa57601f612ba338819003918201601f19168301916001600160401b038311848410176101ae5780849260409485528339810103126101aa5780516020909101516001600160a01b03811691908290036101aa573315610197575f80546040519133906001600160a01b038316907f8be0079c531659141344cd1fd0a4f28419497f9722a3daafe3b4186f6b6457e09080a36001600160a81b0319163360ff60a01b191617600160a01b175f55821561013d57506402540be40081116100ee5760025560018060a01b031960035416176003555f6005555f6006556040516129e090816101c38239f35b60405162461bcd60e51b815260206004820152602160248201527f436f6d6d697373696f6e2070657263656e7461676520697320746f6f206869676044820152600d60fb1b6064820152608490fd5b62461bcd60e51b815260206004820152602f60248201527f436f6d6d697373696f6e20726563697069656e742063616e6e6f74206265207460448201526e6865207a65726f206164647265737360881b6064820152608490fd5b631e4fbdf760e01b5f525f60045260245ffd5b5f80fd5b634e487b7160e01b5f52604160045260245ffdfe60806040526004361015610011575f80fd5b5f3560e01c80627e8bd31461208257806306fd154a1461205a57806315f8a31414611f1657806317b52b5014611c2457806328d5a05014611755578063367edd32146116d75780634187129c1461160057806341b3a0d9146115dc57806347e7ef24146113c657806351a6fad5146112325780635379719b14610d6a57806370a08231146111f0578063715018a61461119957806380ccb070146110ae57806381cd872a14610f84578063894ba83314610f10578063899a3ffd14610ef35780638da5cb5b14610ecc5780638deea5fb14610d87578063966d1f1d14610d6a578063bb06c1a4146109f7578063beabacc814610940578063c23f001f14610157578063cfadf6c7146102d0578063e08560a4146102b3578063ed50ab8a146102b3578063f2fde38b1461022e578063f3fef3a3146101ab5763f7888aec14610157575f80fd5b346101a75760403660031901126101a75761017061211c565b610178612106565b6001600160a01b039182165f908152600160209081526040808320949093168252928352819020549051908152f35b5f80fd5b346101a75760403660031901126101a75760206102246101c961211c565b60243590335f526001845260405f2060018060a01b0382165f5284526101f58260405f2054101561235f565b335f526001845260405f2060018060a01b0382165f52845260405f2061021c8382546123a2565b905533612836565b6040519015158152f35b346101a75760203660031901126101a75761024761211c565b61024f612810565b6001600160a01b031680156102a0575f80546001600160a01b03198116831782556001600160a01b0316907f8be0079c531659141344cd1fd0a4f28419497f9722a3daafe3b4186f6b6457e09080a3005b631e4fbdf760e01b5f525f60045260245ffd5b346101a7575f3660031901126101a7576020600654604051908152f35b6102d936612132565b91909497969260ff5f9a97959a5460a01c166102f481612313565b335f52600160205260405f2060018060a01b0383165f5260205260405f2054858110610618575b505094610387929161022096335f52600160205260405f2060018060a01b0382165f5260205260405f206103508782546123a2565b905560405163652e83d760e01b815273__$69ea93bdf3b1e5da8164bfe3d9a878d765$__9c909b8c9889988d8d3360048d01612550565b0381875af49283156105d7575f936105e2575b5060206102249394604051948580926363f88cdd60e11b82526103c0600483018a612224565b5af49283156105d7575f936105a3575b505f83815260046020908152604091829020865181546001600160a01b039182166001600160a01b031991821617835592880151600183018054918316919094161790925591860151600283018054606089015160ff60a01b90151560a01b16929093166001600160a81b03199093169290921717815561020091600c916104a0905b6080890151815460a08b015160c08c015162ffffff60a81b1990921692151560a81b60ff60a81b169290921791151560b01b60ff60b01b169190911790151560b81b60ff60b81b16179055565b60e0870151600382015561010087015160048201556101208701516005820155610140870151600680830191909155610160880151600783015561018088015160088301556101a08801516009830180546001600160a01b039283166001600160a01b0319918216179091556101c08a0151600a850180549190931691161790556101e0880151600b830155929096015195019085101561058f5760209460ff801983541691161790556040519160018060a01b0316825260018060a01b031690827f44e1ff8e67fad6b456bd43ff165ba4e9bb004370aa27a76881c6acb60dfd6dd9853393a4604051908152f35b634e487b7160e01b5f52602160045260245ffd5b9092506020813d6020116105cf575b816105bf602093836123f4565b810103126101a7575191846103d0565b3d91506105b2565b6040513d5f823e3d90fd5b610224935061060a6020916102203d8111610611575b61060281836123f4565b810190612437565b935061039a565b503d6105f8565b61062b61063191879994969593996123a2565b97612313565b86156108ec576002549360405194631c8f084760e01b8652886004870152602486015260208560448173__$8537b7efa173772577da826929141ce939$__5af49485156105d7575f956108b8575b506001600160a01b038116978861077b5761069a868261275c565b3403610727576102209861038796335f52600160205260405f205f805260205260405f206106c984825461275c565b905560018060a01b03600354165f52600160205260405f205f805260205260405f206106f682825461275c565b90555b604051928352602083015260408201525f51602061298b5f395f51905f5260603392a291968193945061031b565b60405162461bcd60e51b815260206004820152602660248201527f4d61696e6e657420746f6b656e206465706f73697420616d6f756e74206d697360448201526536b0ba31b41760d11b6064820152608490fd5b5f60208a606461078b8a8661275c565b60405194859384926323b872dd60e01b845233600485015230602485015260448401525af19081156105d7575f9161087e575b5015610821576102209861038796335f52600160205260405f20825f5260205260405f206107ed84825461275c565b905560018060a01b03600354165f52600160205260405f20825f5260205260405f2061081a82825461275c565b90556106f9565b60405162461bcd60e51b815260206004820152602f60248201527f436f6e74726163742068617320746f6f206c6f7720616c6c6f77616e6365207460448201526e6f20726563656976652066756e647360881b6064820152608490fd5b90506020813d6020116108b0575b81610899602093836123f4565b810103126101a7576108aa9061242a565b8e6107be565b3d915061088c565b9094506020813d6020116108e4575b816108d4602093836123f4565b810103126101a75751938c61067f565b3d91506108c7565b60405162461bcd60e51b815260206004820152602660248201527f4465706f73697420616d6f756e74206d757374206265206772656174657220746044820152653430b710181760d11b6064820152608490fd5b346101a75760603660031901126101a75761095961211c565b610961612106565b60443591335f52600160205260405f2060018060a01b0383165f5260205261098f8360405f2054101561235f565b335f52600160205260405f2060018060a01b0383165f5260205260405f206109b88482546123a2565b905560018060a01b03165f52600160205260405f209060018060a01b03165f526020526109ea60405f2091825461275c565b9055602060405160018152f35b60203660031901126101a757600435805f52600460205260405f20906001820190610a2c60018060a01b038354163314612624565b6002830192610a6a8454610a4560ff8260b01c1661267f565b610a5560ff8260b81c16156126c4565b60ff8160a01c16159081610d5b575b50612710565b600a81018054335f9081526001602090815260408083206001600160a01b039094168084529390915290205460068401548110610b24575b50506004820154335f90815260016020908152604080832094546001600160a01b0316835293815292902080545f51602061296b5f395f51905f529492610ae8916123a2565b90558554600160b81b60ff60b81b198216179096555493546040516001600160a01b0396871681529086169590941693a4602060405160018152f35b610b3490600485939501546123a2565b91610b4560ff5f5460a01c16612313565b82156108ec576002549260405193631c8f084760e01b8552816004860152602485015260208460448173__$8537b7efa173772577da826929141ce939$__5af49384156105d7575f94610d27575b5084610c3357610ba3848261275c565b3403610727575f51602061296b5f395f51905f5294602094335f526001865260405f205f8052865260405f20610bda84825461275c565b905560018060a01b03600354165f526001865260405f205f8052865260405f20610c0582825461275c565b90555b6040519283528583015260408201525f51602061298b5f395f51905f5260603392a291819350610aa2565b610c3d848261275c565b604051906323b872dd60e01b825233600483015230602483015260448201526020816064815f8a5af19081156105d7575f91610ced575b5015610821575f51602061296b5f395f51905f5294602094335f526001865260405f2060018060a01b0383165f52865260405f20610cb384825461275c565b90556003546001600160a01b039081165f9081526001885260408082209285168252918852208054610ce690839061275c565b9055610c08565b90506020813d602011610d1f575b81610d08602093836123f4565b810103126101a757610d199061242a565b89610c74565b3d9150610cfb565b9093506020813d602011610d53575b81610d43602093836123f4565b810103126101a757519288610b93565b3d9150610d36565b60ff915060a81c161586610a64565b346101a7575f3660031901126101a7576020600554604051908152f35b346101a75760203660031901126101a757600435805f52600460205260405f2090600182019060018060a01b0382541633148015610eb9575b610dc990612769565b7f086c61b89ef5fcdb14c243b643069c3c6a84765b27f2a696b875dddf031afb4d610e8e6002850194610e22865460ff8160b81c161580610eab575b610e0e906127c4565b60ff8160a01c16159081610e9c5750612710565b600581015481546001600160a01b039081165f908152600160209081526040808320600987015490941683529290522080549091610e5f9161275c565b90555493549454604080513381526001600160a01b039283166020820152968216969590911694918291820190565b0390a4602060405160018152f35b60ff915060a81c161588610a64565b5060b081901c60ff16610e05565b5082546001600160a01b03163314610dc0565b346101a7575f3660031901126101a7575f546040516001600160a01b039091168152602090f35b346101a7575f3660031901126101a7576020600254604051908152f35b346101a7575f3660031901126101a757610f28612810565b60ff60a01b195f54165f557f017904e4fe7d59bb4603c7c045bc275a05da9ea3a4ac007fc80fffeaf119186d60206040515f8152a1337f793bc6423dd0257d64f9d47db72fd4b2162f4541aa41740ba1c5fb5e2cd41bcd5f80a2005b346101a75760203660031901126101a7576004355f52600460205260405f20600160a01b6001900381541690600160a01b600190036001820154169060028101546003820154600483015460058401546006850154600786015491600887015493600160a01b6001900360098901541695600160a01b60019003600a8a01541697600b8a015499600c015460ff169a6040519c8d5260208d0152600160a01b60019003811660408d01528060a01c60ff16151560608d01528060a81c60ff16151560808d01528060b01c60ff16151560a08d015260b81c60ff16151560c08c015260e08b01526101008a01526101208901526101408801526101608701526101808601526101a08501526101c08401526101e083015261020082016110a891612217565b61022090f35b346101a75760203660031901126101a757600435805f52600460205260405f2090600182019060018060a01b0382541633148015611186575b6110f090612769565b7f086c61b89ef5fcdb14c243b643069c3c6a84765b27f2a696b875dddf031afb4d610e8e6002850194611134865460ff8160b81c161580610eab57610e0e906127c4565b8054600982015460058301546111589290916001600160a01b039081169116612836565b505493549454604080513381526001600160a01b039283166020820152968216969590911694918291820190565b5082546001600160a01b031633146110e7565b346101a7575f3660031901126101a7576111b1612810565b5f80546001600160a01b0319811682556001600160a01b03167f8be0079c531659141344cd1fd0a4f28419497f9722a3daafe3b4186f6b6457e08280a3005b346101a75760203660031901126101a7576001600160a01b0361121161211c565b165f52600160205260405f205f8052602052602060405f2054604051908152f35b346101a75760203660031901126101a7575f610200604051611253816123c3565b8281528260208201528260408201528260608201528260808201528260a08201528260c08201528260e08201528261010082015282610120820152826101408201528261016082015282610180820152826101a0820152826101c0820152826101e082015201526004355f52600460205260405f2060ff600c604051926112d9846123c3565b80546001600160a01b0390811685526001820154811660208601526002820154808216604087015260a081811c86161515606088015260a882901c86161515608088015260b082901c861615159087015260b81c8416151560c0860152600382015460e08601526004820154610100860152600582015461012086015260068083015461014087015260078301546101608701526008830154610180870152600983015482166101a0870152600a8301549091166101c0860152600b8201546101e0860152910154909116919082101561058f57610220916102008201526113c46040518092612224565bf35b60403660031901126101a7576113da61211c565b602435906113ee60ff5f5460a01c16612313565b81156108ec576002549060405191631c8f084760e01b8352836004840152602483015260208260448173__$8537b7efa173772577da826929141ce939$__5af49182156105d7575f926115a8575b506001600160a01b031690816114d257611456818461275c565b340361072757335f52600160205260405f205f805260205260405f2061147d84825461275c565b905560018060a01b03600354165f52600160205260405f205f805260205260405f206114aa82825461275c565b90555b604051928352602083015260408201525f51602061298b5f395f51905f5260603392a2005b6114dc818461275c565b604051906323b872dd60e01b825233600483015230602483015260448201526020816064815f875af19081156105d7575f9161156e575b501561082157335f52600160205260405f20825f5260205260405f2061153a84825461275c565b905560018060a01b03600354165f52600160205260405f20825f5260205260405f2061156782825461275c565b90556114ad565b90506020813d6020116115a0575b81611589602093836123f4565b810103126101a75761159a9061242a565b84611513565b3d915061157c565b9091506020813d6020116115d4575b816115c4602093836123f4565b810103126101a75751908361143c565b3d91506115b7565b346101a7575f3660031901126101a757602060ff5f5460a01c166040519015158152f35b346101a75760203660031901126101a757600435805f52600460205260405f2090600182019061163a60018060a01b038354163314612624565b5f51602061296b5f395f51905f5260206002850194611673865461166360ff8260b01c1661267f565b610e0e60ff8260b81c16156126c4565b600a810154335f9081526001602090815260408083206001600160a01b0390941680845293909152902054906116b060048401548093101561235f565b335f526001845260405f209060018060a01b03165f528352610ae860405f209182546123a2565b346101a7575f3660031901126101a7576116ef612810565b5f805460ff60a01b1916600160a01b179055604051600181527f017904e4fe7d59bb4603c7c045bc275a05da9ea3a4ac007fc80fffeaf119186d90602090a1337fae81c15a680e6640ba872ca44f364ad67c60a04089ad9fa100f7a3ce94da9f685f80a2005b61175e366121b4565b91949360ff5f979492975460a01c169261177784612313565b335f52600160205260405f2060018060a01b0388165f5260205260405f2054828110611a0e575b50610220935061180890335f52600160205260405f2060018060a01b0389165f5260205260405f206117d18482546123a2565b905560405163652e83d760e01b815273__$69ea93bdf3b1e5da8164bfe3d9a878d765$__999098899586958a8a3360048a016125bc565b0381875af49283156105d7575f936119e8575b5060206102249394604051948580926363f88cdd60e11b8252611841600483018a612224565b5af49283156105d7575f936119b4575b505f83815260046020908152604091829020865181546001600160a01b039182166001600160a01b031991821617835592880151600183018054918316919094161790925591860151600283018054606089015160ff60a01b90151560a01b16929093166001600160a81b03199093169290921717815561020091600c916118d890610453565b60e0870151600382015561010087015160048201556101208701516005820155610140870151600680830191909155610160880151600783015561018088015160088301556101a08801516009830180546001600160a01b039283166001600160a01b0319918216179091556101c08a0151600a850180549190931691161790556101e0880151600b830155929096015195019085101561058f5760209460ff801983541691161790556040519160018060a01b0316825260018060a01b031690825f51602061296b5f395f51905f52853393a4604051908152f35b9092506020813d6020116119e0575b816119d0602093836123f4565b810103126101a757519184611851565b3d91506119c3565b6102249350611a076020916102203d81116106115761060281836123f4565b935061181b565b611a1b611a2191846123a2565b94612313565b83156108ec576002549060405191631c8f084760e01b8352856004840152602483015260208260448173__$8537b7efa173772577da826929141ce939$__5af49182156105d7575f92611bf0575b506001600160a01b0388169485611b1257611a8a838261275c565b3403610727576102209561180893335f52600160205260405f205f805260205260405f20611ab984825461275c565b905560018060a01b03600354165f52600160205260405f205f805260205260405f20611ae682825461275c565b90555b604051928352602083015260408201525f51602061298b5f395f51905f5260603392a29061179e565b611b1c838261275c565b604051906323b872dd60e01b825233600483015230602483015260448201526020816064815f8b5af19081156105d7575f91611bb6575b5015610821576102209561180893335f52600160205260405f20825f5260205260405f20611b8284825461275c565b905560018060a01b03600354165f52600160205260405f20825f5260205260405f20611baf82825461275c565b9055611ae9565b90506020813d602011611be8575b81611bd1602093836123f4565b810103126101a757611be29061242a565b8b611b53565b3d9150611bc4565b9091506020813d602011611c1c575b81611c0c602093836123f4565b810103126101a757519089611a6f565b3d9150611bff565b346101a757610220611cd8611c38366121b4565b611c4e60ff5f9a969499939a5460a01c16612313565b335f52600160205260405f2060018060a01b0389165f52602052611c788360405f2054101561235f565b335f52600160205260405f2060018060a01b0389165f5260205260405f20611ca18482546123a2565b905560405163652e83d760e01b815273__$69ea93bdf3b1e5da8164bfe3d9a878d765$__99909889958695898b3360048a016125bc565b0381875af49283156105d7575f93611ef0575b5060206102249394604051948580926363f88cdd60e11b8252611d11600483018a612224565b5af49283156105d7575f93611ebc575b505f83815260046020908152604091829020865181546001600160a01b039182166001600160a01b031991821617835592880151600183018054918316919094161790925591860151600283018054606089015160ff60a01b90151560a01b16929093166001600160a81b03199093169290921717815561020091600c91611da890610453565b60e0870151600382015561010087015160048201556101208701516005820155610140870151600680830191909155610160880151600783015561018088015160088301556101a08801516009830180546001600160a01b039283166001600160a01b0319918216179091556101c08a0151600a850180549190931691161790556101e0880151600b830155929096015195019085101561058f5760209460ff801983541691161790556040519060018060a01b03169182825260018060a01b031690835f51602061296b5f395f51905f52863393a480611e8d575b50604051908152f35b7f957372c0e02d2882134cc0eebbef9e446634d8ccbb1cbb112bdefdd3cf0a643c83604051848152a282611e84565b9092506020813d602011611ee8575b81611ed8602093836123f4565b810103126101a757519184611d21565b3d9150611ecb565b6102249350611f0f6020916102203d81116106115761060281836123f4565b9350611ceb565b346101a75760403660031901126101a757600435611f32612106565b611f3a612810565b6001600160a01b038116918215611ffd576402540be4008111611fae576002819055600380546001600160a01b03191693909317909255604080519283526001600160a01b039190911660208301527f14bdaadaed0453e7b5b66195b42156ba995b9e5abd0da98368839851d69ad88991a1005b60405162461bcd60e51b815260206004820152602160248201527f436f6d6d697373696f6e2070657263656e7461676520697320746f6f206869676044820152600d60fb1b6064820152608490fd5b60405162461bcd60e51b815260206004820152602f60248201527f436f6d6d697373696f6e20726563697069656e742063616e6e6f74206265207460448201526e6865207a65726f206164647265737360881b6064820152608490fd5b346101a7575f3660031901126101a7576003546040516001600160a01b039091168152602090f35b346101a75761022061038761209636612132565b926120b360ff5f9d99979c969d9b9a9b9493945460a01c16612313565b335f52600160205260405f2060018060a01b0382165f526020526120dd8660405f2054101561235f565b335f52600160205260405f2060018060a01b0382165f5260205260405f206103508782546123a2565b602435906001600160a01b03821682036101a757565b600435906001600160a01b03821682036101a757565b6101409060031901126101a7576004356001600160a01b03811681036101a757906024356001600160a01b03811681036101a7579060443590606435906084359060a4359060c4356001600160a01b03811681036101a7579060e4356001600160a01b03811681036101a7579061010435906101243560068110156101a75790565b60e09060031901126101a7576004356001600160a01b03811681036101a757906024356001600160a01b03811681036101a7579060443590606435906084356001600160a01b03811681036101a7579060a4359060c43560068110156101a75790565b90600682101561058f5752565b90610200806123119360018060a01b03815116845260018060a01b03602082015116602085015260018060a01b03604082015116604085015260608101511515606085015260808101511515608085015260a0810151151560a085015260c0810151151560c085015260e081015160e085015261010081015161010085015261012081015161012085015261014081015161014085015261016081015161016085015261018081015161018085015260018060a01b036101a0820151166101a085015260018060a01b036101c0820151166101c08501526101e08101516101e08501520151910190612217565b565b1561231a57565b60405162461bcd60e51b815260206004820152601e60248201527f436f6e74726163742069732063757272656e746c792064697361626c656400006044820152606490fd5b1561236657565b60405162461bcd60e51b8152602060048201526014602482015273496e73756666696369656e742062616c616e636560601b6044820152606490fd5b919082039182116123af57565b634e487b7160e01b5f52601160045260245ffd5b610220810190811067ffffffffffffffff8211176123e057604052565b634e487b7160e01b5f52604160045260245ffd5b90601f8019910116810190811067ffffffffffffffff8211176123e057604052565b51906001600160a01b03821682036101a757565b519081151582036101a757565b90816102209103126101a75761020060405191612453836123c3565b61245c81612416565b835261246a60208201612416565b602084015261247b60408201612416565b604084015261248c6060820161242a565b606084015261249d6080820161242a565b60808401526124ae60a0820161242a565b60a08401526124bf60c0820161242a565b60c084015260e081015160e08401526101008101516101008401526101208101516101208401526101408101516101408401526101608101516101608401526101808101516101808401526125176101a08201612416565b6101a084015261252a6101c08201612416565b6101c08401526101e08101516101e0840152015160068110156101a75761020082015290565b6001600160a01b039182168152918116602083015291821660408201526060810192909252608082019290925260a081019290925260c082019290925291811660e083015290911661010082015261012081019190915261016081019291612311916101400190612217565b6001600160a01b0391821681529181166020830152918216604082015260608101929092525f6080830181905260a083019390935260c0820183905290921660e083015261010082015261012081019190915261016081019291612311916101400190612217565b1561262b57565b60405162461bcd60e51b815260206004820152602660248201527f4f6e6c7920636f756e74657270617274792063616e2063616c6c2074686973206044820152651b595d1a1bd960d21b6064820152608490fd5b1561268657565b60405162461bcd60e51b81526020600482015260166024820152751119585b081b5d5cdd081899481d1ddbc81cda59195960521b6044820152606490fd5b156126cb57565b60405162461bcd60e51b815260206004820152601760248201527f4465616c206d757374206265206e6f74207369676e65640000000000000000006044820152606490fd5b1561271757565b60405162461bcd60e51b815260206004820152601760248201527f43616e7420656469742066696e6973686564206465616c0000000000000000006044820152606490fd5b919082018092116123af57565b1561277057565b60405162461bcd60e51b815260206004820152602660248201527f4f6e6c79206120706172747920746f20746865206465616c2063616e2072656a6044820152651958dd081a5d60d21b6064820152608490fd5b156127cb57565b60405162461bcd60e51b815260206004820152601860248201527f4465616c206d757374206265206e6f74207374617274656400000000000000006044820152606490fd5b5f546001600160a01b0316330361282357565b63118cdaa760e01b5f523360045260245ffd5b908215612962576001600160a01b038116806128a557505f808080866001600160a01b03871682f1156105d7577e1a143d5b175701cb3246058ffac3d63945192075a926ff73a19930f09d587a915b604080519485526001600160a01b039283166020860152911692a2600190565b60405163a9059cbb60e01b81526001600160a01b0384166004820152602481018590529290602090849060449082905f905af180156105d75761290a575b7e1a143d5b175701cb3246058ffac3d63945192075a926ff73a19930f09d587a9250612885565b6020833d60201161295a575b81612923602093836123f4565b810103126101a7576129547e1a143d5b175701cb3246058ffac3d63945192075a926ff73a19930f09d587a9361242a565b506128e3565b3d9150612916565b50505060019056fe5e02698c1650d6cbe1f7e8a48609d0da45ad7f5e4c13cd8b196f82965c0ab0d502d7e648dd130fc184d383e55bb126ac4c9c60e8f94bf05acdf557ba2d540b47a26469706673582212203e6a6a0e6500472fa75753a9ad32c647e725573dc451910d4d68e2341cc0c25f64736f6c634300081c0033",
			"opcodes": "PUSH1 0x80 CALLVALUE PUSH2 0x1AA JUMPI PUSH1 0x1F PUSH2 0x2BA3 CODESIZE DUP2 SWAP1 SUB SWAP2 DUP3 ADD PUSH1 0x1F NOT AND DUP4 ADD SWAP2 PUSH1 0x1 PUSH1 0x1 PUSH1 0x40 SHL SUB DUP4 GT DUP5 DUP5 LT OR PUSH2 0x1AE JUMPI DUP1 DUP5 SWAP3 PUSH1 0x40 SWAP5 DUP6 MSTORE DUP4 CODECOPY DUP2 ADD SUB SLT PUSH2 0x1AA JUMPI DUP1 MLOAD PUSH1 0x20 SWAP1 SWAP2 ADD MLOAD PUSH1 0x1 PUSH1 0x1 PUSH1 0xA0 SHL SUB DUP2 AND SWAP2 SWAP1 DUP3 SWAP1 SUB PUSH2 0x1AA JUMPI CALLER ISZERO PUSH2 0x197 JUMPI PUSH0 DUP1 SLOAD PUSH1 0x40 MLOAD SWAP2 CALLER SWAP1 PUSH1 0x1 PUSH1 0x1 PUSH1 0xA0 SHL SUB DUP4 AND SWAP1 PUSH32 0x8BE0079C531659141344CD1FD0A4F28419497F9722A3DAAFE3B4186F6B6457E0 SWAP1 DUP1 LOG3 PUSH1 0x1 PUSH1 0x1 PUSH1 0xA8 SHL SUB NOT AND CALLER PUSH1 0xFF PUSH1 0xA0 SHL NOT AND OR PUSH1 0x1 PUSH1 0xA0 SHL OR PUSH0 SSTORE DUP3 ISZERO PUSH2 0x13D JUMPI POP PUSH5 0x2540BE400 DUP2 GT PUSH2 0xEE JUMPI PUSH1 0x2 SSTORE PUSH1 0x1 DUP1 PUSH1 0xA0 SHL SUB NOT PUSH1 0x3 SLOAD AND OR PUSH1 0x3 SSTORE PUSH0 PUSH1 0x5 SSTORE PUSH0 PUSH1 0x6 SSTORE PUSH1 0x40 MLOAD PUSH2 0x29E0 SWAP1 DUP2 PUSH2 0x1C3 DUP3 CODECOPY RETURN JUMPDEST PUSH1 0x40 MLOAD PUSH3 0x461BCD PUSH1 0xE5 SHL DUP2 MSTORE PUSH1 0x20 PUSH1 0x4 DUP3 ADD MSTORE PUSH1 0x21 PUSH1 0x24 DUP3 ADD MSTORE PUSH32 0x436F6D6D697373696F6E2070657263656E7461676520697320746F6F20686967 PUSH1 0x44 DUP3 ADD MSTORE PUSH1 0xD PUSH1 0xFB SHL PUSH1 0x64 DUP3 ADD MSTORE PUSH1 0x84 SWAP1 REVERT JUMPDEST PUSH3 0x461BCD PUSH1 0xE5 SHL DUP2 MSTORE PUSH1 0x20 PUSH1 0x4 DUP3 ADD MSTORE PUSH1 0x2F PUSH1 0x24 DUP3 ADD MSTORE PUSH32 0x436F6D6D697373696F6E20726563697069656E742063616E6E6F742062652074 PUSH1 0x44 DUP3 ADD MSTORE PUSH15 0x6865207A65726F2061646472657373 PUSH1 0x88 SHL PUSH1 0x64 DUP3 ADD MSTORE PUSH1 0x84 SWAP1 REVERT JUMPDEST PUSH4 0x1E4FBDF7 PUSH1 0xE0 SHL PUSH0 MSTORE PUSH0 PUSH1 0x4 MSTORE PUSH1 0x24 PUSH0 REVERT JUMPDEST PUSH0 DUP1 REVERT JUMPDEST PUSH4 0x4E487B71 PUSH1 0xE0 SHL PUSH0 MSTORE PUSH1 0x41 PUSH1 0x4 MSTORE PUSH1 0x24 PUSH0 REVERT INVALID PUSH1 0x80 PUSH1 0x40 MSTORE PUSH1 0x4 CALLDATASIZE LT ISZERO PUSH2 0x11 JUMPI PUSH0 DUP1 REVERT JUMPDEST PUSH0 CALLDATALOAD PUSH1 0xE0 SHR DUP1 PUSH3 0x7E8BD3 EQ PUSH2 0x2082 JUMPI DUP1 PUSH4 0x6FD154A EQ PUSH2 0x205A JUMPI DUP1 PUSH4 0x15F8A314 EQ PUSH2 0x1F16 JUMPI DUP1 PUSH4 0x17B52B50 EQ PUSH2 0x1C24 JUMPI DUP1 PUSH4 0x28D5A050 EQ PUSH2 0x1755 JUMPI DUP1 PUSH4 0x367EDD32 EQ PUSH2 0x16D7 JUMPI DUP1 PUSH4 0x4187129C EQ PUSH2 0x1600 JUMPI DUP1 PUSH4 0x41B3A0D9 EQ PUSH2 0x15DC JUMPI DUP1 PUSH4 0x47E7EF24 EQ PUSH2 0x13C6 JUMPI DUP1 PUSH4 0x51A6FAD5 EQ PUSH2 0x1232 JUMPI DUP1 PUSH4 0x5379719B EQ PUSH2 0xD6A JUMPI DUP1 PUSH4 0x70A08231 EQ PUSH2 0x11F0 JUMPI DUP1 PUSH4 0x715018A6 EQ PUSH2 0x1199 JUMPI DUP1 PUSH4 0x80CCB070 EQ PUSH2 0x10AE JUMPI DUP1 PUSH4 0x81CD872A EQ PUSH2 0xF84 JUMPI DUP1 PUSH4 0x894BA833 EQ PUSH2 0xF10 JUMPI DUP1 PUSH4 0x899A3FFD EQ PUSH2 0xEF3 JUMPI DUP1 PUSH4 0x8DA5CB5B EQ PUSH2 0xECC JUMPI DUP1 PUSH4 0x8DEEA5FB EQ PUSH2 0xD87 JUMPI DUP1 PUSH4 0x966D1F1D EQ PUSH2 0xD6A JUMPI DUP1 PUSH4 0xBB06C1A4 EQ PUSH2 0x9F7 JUMPI DUP1 PUSH4 0xBEABACC8 EQ PUSH2 0x940 JUMPI DUP1 PUSH4 0xC23F001F EQ PUSH2 0x157 JUMPI DUP1 PUSH4 0xCFADF6C7 EQ PUSH2 0x2D0 JUMPI DUP1 PUSH4 0xE08560A4 EQ PUSH2 0x2B3 JUMPI DUP1 PUSH4 0xED50AB8A EQ PUSH2 0x2B3 JUMPI DUP1 PUSH4 0xF2FDE38B EQ PUSH2 0x22E JUMPI DUP1 PUSH4 0xF3FEF3A3 EQ PUSH2 0x1AB JUMPI PUSH4 0xF7888AEC EQ PUSH2 0x157 JUMPI PUSH0 DUP1 REVERT JUMPDEST CALLVALUE PUSH2 0x1A7 JUMPI PUSH1 0x40 CALLDATASIZE PUSH1 0x3 NOT ADD SLT PUSH2 0x1A7 JUMPI PUSH2 0x170 PUSH2 0x211C JUMP JUMPDEST PUSH2 0x178 PUSH2 0x2106 JUMP JUMPDEST PUSH1 0x1 PUSH1 0x1 PUSH1 0xA0 SHL SUB SWAP2 DUP3 AND PUSH0 SWAP1 DUP2 MSTORE PUSH1 0x1 PUSH1 0x20 SWAP1 DUP2 MSTORE PUSH1 0x40 DUP1 DUP4 KECCAK256 SWAP5 SWAP1 SWAP4 AND DUP3 MSTORE SWAP3 DUP4 MSTORE DUP2 SWAP1 KECCAK256 SLOAD SWAP1 MLOAD SWAP1 DUP2 MSTORE RETURN JUMPDEST PUSH0 DUP1 REVERT JUMPDEST CALLVALUE PUSH2 0x1A7 JUMPI PUSH1 0x40 CALLDATASIZE PUSH1 0x3 NOT ADD SLT PUSH2 0x1A7 JUMPI PUSH1 0x20 PUSH2 0x224 PUSH2 0x1C9 PUSH2 0x211C JUMP JUMPDEST PUSH1 0x24 CALLDATALOAD SWAP1 CALLER PUSH0 MSTORE PUSH1 0x1 DUP5 MSTORE PUSH1 0x40 PUSH0 KECCAK256 PUSH1 0x1 DUP1 PUSH1 0xA0 SHL SUB DUP3 AND PUSH0 MSTORE DUP5 MSTORE PUSH2 0x1F5 DUP3 PUSH1 0x40 PUSH0 KECCAK256 SLOAD LT ISZERO PUSH2 0x235F JUMP JUMPDEST CALLER PUSH0 MSTORE PUSH1 0x1 DUP5 MSTORE PUSH1 0x40 PUSH0 KECCAK256 PUSH1 0x1 DUP1 PUSH1 0xA0 SHL SUB DUP3 AND PUSH0 MSTORE DUP5 MSTORE PUSH1 0x40 PUSH0 KECCAK256 PUSH2 0x21C DUP4 DUP3 SLOAD PUSH2 0x23A2 JUMP JUMPDEST SWAP1 SSTORE CALLER PUSH2 0x2836 JUMP JUMPDEST PUSH1 0x40 MLOAD SWAP1 ISZERO ISZERO DUP2 MSTORE RETURN JUMPDEST CALLVALUE PUSH2 0x1A7 JUMPI PUSH1 0x20 CALLDATASIZE PUSH1 0x3 NOT ADD SLT PUSH2 0x1A7 JUMPI PUSH2 0x247 PUSH2 0x211C JUMP JUMPDEST PUSH2 0x24F PUSH2 0x2810 JUMP JUMPDEST PUSH1 0x1 PUSH1 0x1 PUSH1 0xA0 SHL SUB AND DUP1 ISZERO PUSH2 0x2A0 JUMPI PUSH0 DUP1 SLOAD PUSH1 0x1 PUSH1 0x1 PUSH1 0xA0 SHL SUB NOT DUP2 AND DUP4 OR DUP3 SSTORE PUSH1 0x1 PUSH1 0x1 PUSH1 0xA0 SHL SUB AND SWAP1 PUSH32 0x8BE0079C531659141344CD1FD0A4F28419497F9722A3DAAFE3B4186F6B6457E0 SWAP1 DUP1 LOG3 STOP JUMPDEST PUSH4 0x1E4FBDF7 PUSH1 0xE0 SHL PUSH0 MSTORE PUSH0 PUSH1 0x4 MSTORE PUSH1 0x24 PUSH0 REVERT JUMPDEST CALLVALUE PUSH2 0x1A7 JUMPI PUSH0 CALLDATASIZE PUSH1 0x3 NOT ADD SLT PUSH2 0x1A7 JUMPI PUSH1 0x20 PUSH1 0x6 SLOAD PUSH1 0x40 MLOAD SWAP1 DUP2 MSTORE RETURN JUMPDEST PUSH2 0x2D9 CALLDATASIZE PUSH2 0x2132 JUMP JUMPDEST SWAP2 SWAP1 SWAP5 SWAP8 SWAP7 SWAP3 PUSH1 0xFF PUSH0 SWAP11 SWAP8 SWAP6 SWAP11 SLOAD PUSH1 0xA0 SHR AND PUSH2 0x2F4 DUP2 PUSH2 0x2313 JUMP JUMPDEST CALLER PUSH0 MSTORE PUSH1 0x1 PUSH1 0x20 MSTORE PUSH1 0x40 PUSH0 KECCAK256 PUSH1 0x1 DUP1 PUSH1 0xA0 SHL SUB DUP4 AND PUSH0 MSTORE PUSH1 0x20 MSTORE PUSH1 0x40 PUSH0 KECCAK256 SLOAD DUP6 DUP2 LT PUSH2 0x618 JUMPI JUMPDEST POP POP SWAP5 PUSH2 0x387 SWAP3 SWAP2 PUSH2 0x220 SWAP7 CALLER PUSH0 MSTORE PUSH1 0x1 PUSH1 0x20 MSTORE PUSH1 0x40 PUSH0 KECCAK256 PUSH1 0x1 DUP1 PUSH1 0xA0 SHL SUB DUP3 AND PUSH0 MSTORE PUSH1 0x20 MSTORE PUSH1 0x40 PUSH0 KECCAK256 PUSH2 0x350 DUP8 DUP3 SLOAD PUSH2 0x23A2 JUMP JUMPDEST SWAP1 SSTORE PUSH1 0x40 MLOAD PUSH4 0x652E83D7 PUSH1 0xE0 SHL DUP2 MSTORE PUSH20 0x0 SWAP13 SWAP1 SWAP12 DUP13 SWAP9 DUP10 SWAP9 DUP14 DUP14 CALLER PUSH1 0x4 DUP14 ADD PUSH2 0x2550 JUMP JUMPDEST SUB DUP2 DUP8 GAS DELEGATECALL SWAP3 DUP4 ISZERO PUSH2 0x5D7 JUMPI PUSH0 SWAP4 PUSH2 0x5E2 JUMPI JUMPDEST POP PUSH1 0x20 PUSH2 0x224 SWAP4 SWAP5 PUSH1 0x40 MLOAD SWAP5 DUP6 DUP1 SWAP3 PUSH4 0x63F88CDD PUSH1 0xE1 SHL DUP3 MSTORE PUSH2 0x3C0 PUSH1 0x4 DUP4 ADD DUP11 PUSH2 0x2224 JUMP JUMPDEST GAS DELEGATECALL SWAP3 DUP4 ISZERO PUSH2 0x5D7 JUMPI PUSH0 SWAP4 PUSH2 0x5A3 JUMPI JUMPDEST POP PUSH0 DUP4 DUP2 MSTORE PUSH1 0x4 PUSH1 0x20 SWAP1 DUP2 MSTORE PUSH1 0x40 SWAP2 DUP3 SWAP1 KECCAK256 DUP7 MLOAD DUP2 SLOAD PUSH1 0x1 PUSH1 0x1 PUSH1 0xA0 SHL SUB SWAP2 DUP3 AND PUSH1 0x1 PUSH1 0x1 PUSH1 0xA0 SHL SUB NOT SWAP2 DUP3 AND OR DUP4 SSTORE SWAP3 DUP9 ADD MLOAD PUSH1 0x1 DUP4 ADD DUP1 SLOAD SWAP2 DUP4 AND SWAP2 SWAP1 SWAP5 AND OR SWAP1 SWAP3 SSTORE SWAP2 DUP7 ADD MLOAD PUSH1 0x2 DUP4 ADD DUP1 SLOAD PUSH1 0x60 DUP10 ADD MLOAD PUSH1 0xFF PUSH1 0xA0 SHL SWAP1 ISZERO ISZERO PUSH1 0xA0 SHL AND SWAP3 SWAP1 SWAP4 AND PUSH1 0x1 PUSH1 0x1 PUSH1 0xA8 SHL SUB NOT SWAP1 SWAP4 AND SWAP3 SWAP1 SWAP3 OR OR DUP2 SSTORE PUSH2 0x200 SWAP2 PUSH1 0xC SWAP2 PUSH2 0x4A0 SWAP1 JUMPDEST PUSH1 0x80 DUP10 ADD MLOAD DUP2 SLOAD PUSH1 0xA0 DUP12 ADD MLOAD PUSH1 0xC0 DUP13 ADD MLOAD PUSH3 0xFFFFFF PUSH1 0xA8 SHL NOT SWAP1 SWAP3 AND SWAP3 ISZERO ISZERO PUSH1 0xA8 SHL PUSH1 0xFF PUSH1 0xA8 SHL AND SWAP3 SWAP1 SWAP3 OR SWAP2 ISZERO ISZERO PUSH1 0xB0 SHL PUSH1 0xFF PUSH1 0xB0 SHL AND SWAP2 SWAP1 SWAP2 OR SWAP1 ISZERO ISZERO PUSH1 0xB8 SHL PUSH1 0xFF PUSH1 0xB8 SHL AND OR SWAP1 SSTORE JUMP JUMPDEST PUSH1 0xE0 DUP8 ADD MLOAD PUSH1 0x3 DUP3 ADD SSTORE PUSH2 0x100 DUP8 ADD MLOAD PUSH1 0x4 DUP3 ADD SSTORE PUSH2 0x120 DUP8 ADD MLOAD PUSH1 0x5 DUP3 ADD SSTORE PUSH2 0x140 DUP8 ADD MLOAD PUSH1 0x6 DUP1 DUP4 ADD SWAP2 SWAP1 SWAP2 SSTORE PUSH2 0x160 DUP9 ADD MLOAD PUSH1 0x7 DUP4 ADD SSTORE PUSH2 0x180 DUP9 ADD MLOAD PUSH1 0x8 DUP4 ADD SSTORE PUSH2 0x1A0 DUP9 ADD MLOAD PUSH1 0x9 DUP4 ADD DUP1 SLOAD PUSH1 0x1 PUSH1 0x1 PUSH1 0xA0 SHL SUB SWAP3 DUP4 AND PUSH1 0x1 PUSH1 0x1 PUSH1 0xA0 SHL SUB NOT SWAP2 DUP3 AND OR SWAP1 SWAP2 SSTORE PUSH2 0x1C0 DUP11 ADD MLOAD PUSH1 0xA DUP6 ADD DUP1 SLOAD SWAP2 SWAP1 SWAP4 AND SWAP2 AND OR SWAP1 SSTORE PUSH2 0x1E0 DUP9 ADD MLOAD PUSH1 0xB DUP4 ADD SSTORE SWAP3 SWAP1 SWAP7 ADD MLOAD SWAP6 ADD SWAP1 DUP6 LT ISZERO PUSH2 0x58F JUMPI PUSH1 0x20 SWAP5 PUSH1 0xFF DUP1 NOT DUP4 SLOAD AND SWAP2 AND OR SWAP1 SSTORE PUSH1 0x40 MLOAD SWAP2 PUSH1 0x1 DUP1 PUSH1 0xA0 SHL SUB AND DUP3 MSTORE PUSH1 0x1 DUP1 PUSH1 0xA0 SHL SUB AND SWAP1 DUP3 PUSH32 0x44E1FF8E67FAD6B456BD43FF165BA4E9BB004370AA27A76881C6ACB60DFD6DD9 DUP6 CALLER SWAP4 LOG4 PUSH1 0x40 MLOAD SWAP1 DUP2 MSTORE RETURN JUMPDEST PUSH4 0x4E487B71 PUSH1 0xE0 SHL PUSH0 MSTORE PUSH1 0x21 PUSH1 0x4 MSTORE PUSH1 0x24 PUSH0 REVERT JUMPDEST SWAP1 SWAP3 POP PUSH1 0x20 DUP2 RETURNDATASIZE PUSH1 0x20 GT PUSH2 0x5CF JUMPI JUMPDEST DUP2 PUSH2 0x5BF PUSH1 0x20 SWAP4 DUP4 PUSH2 0x23F4 JUMP JUMPDEST DUP2 ADD SUB SLT PUSH2 0x1A7 JUMPI MLOAD SWAP2 DUP5 PUSH2 0x3D0 JUMP JUMPDEST RETURNDATASIZE SWAP2 POP PUSH2 0x5B2 JUMP JUMPDEST PUSH1 0x40 MLOAD RETURNDATASIZE PUSH0 DUP3 RETURNDATACOPY RETURNDATASIZE SWAP1 REVERT JUMPDEST PUSH2 0x224 SWAP4 POP PUSH2 0x60A PUSH1 0x20 SWAP2 PUSH2 0x220 RETURNDATASIZE DUP2 GT PUSH2 0x611 JUMPI JUMPDEST PUSH2 0x602 DUP2 DUP4 PUSH2 0x23F4 JUMP JUMPDEST DUP2 ADD SWAP1 PUSH2 0x2437 JUMP JUMPDEST SWAP4 POP PUSH2 0x39A JUMP JUMPDEST POP RETURNDATASIZE PUSH2 0x5F8 JUMP JUMPDEST PUSH2 0x62B PUSH2 0x631 SWAP2 DUP8 SWAP10 SWAP5 SWAP7 SWAP6 SWAP4 SWAP10 PUSH2 0x23A2 JUMP JUMPDEST SWAP8 PUSH2 0x2313 JUMP JUMPDEST DUP7 ISZERO PUSH2 0x8EC JUMPI PUSH1 0x2 SLOAD SWAP4 PUSH1 0x40 MLOAD SWAP5 PUSH4 0x1C8F0847 PUSH1 0xE0 SHL DUP7 MSTORE DUP9 PUSH1 0x4 DUP8 ADD MSTORE PUSH1 0x24 DUP7 ADD MSTORE PUSH1 0x20 DUP6 PUSH1 0x44 DUP2 PUSH20 0x0 GAS DELEGATECALL SWAP5 DUP6 ISZERO PUSH2 0x5D7 JUMPI PUSH0 SWAP6 PUSH2 0x8B8 JUMPI JUMPDEST POP PUSH1 0x1 PUSH1 0x1 PUSH1 0xA0 SHL SUB DUP2 AND SWAP8 DUP9 PUSH2 0x77B JUMPI PUSH2 0x69A DUP7 DUP3 PUSH2 0x275C JUMP JUMPDEST CALLVALUE SUB PUSH2 0x727 JUMPI PUSH2 0x220 SWAP9 PUSH2 0x387 SWAP7 CALLER PUSH0 MSTORE PUSH1 0x1 PUSH1 0x20 MSTORE PUSH1 0x40 PUSH0 KECCAK256 PUSH0 DUP1 MSTORE PUSH1 0x20 MSTORE PUSH1 0x40 PUSH0 KECCAK256 PUSH2 0x6C9 DUP5 DUP3 SLOAD PUSH2 0x275C JUMP JUMPDEST SWAP1 SSTORE PUSH1 0x1 DUP1 PUSH1 0xA0 SHL SUB PUSH1 0x3 SLOAD AND PUSH0 MSTORE PUSH1 0x1 PUSH1 0x20 MSTORE PUSH1 0x40 PUSH0 KECCAK256 PUSH0 DUP1 MSTORE PUSH1 0x20 MSTORE PUSH1 0x40 PUSH0 KECCAK256 PUSH2 0x6F6 DUP3 DUP3 SLOAD PUSH2 0x275C JUMP JUMPDEST SWAP1 SSTORE JUMPDEST PUSH1 0x40 MLOAD SWAP3 DUP4 MSTORE PUSH1 0x20 DUP4 ADD MSTORE PUSH1 0x40 DUP3 ADD MSTORE PUSH0 MLOAD PUSH1 0x20 PUSH2 0x298B PUSH0 CODECOPY PUSH0 MLOAD SWAP1 PUSH0 MSTORE PUSH1 0x60 CALLER SWAP3 LOG2 SWAP2 SWAP7 DUP2 SWAP4 SWAP5 POP PUSH2 0x31B JUMP JUMPDEST PUSH1 0x40 MLOAD PUSH3 0x461BCD PUSH1 0xE5 SHL DUP2 MSTORE PUSH1 0x20 PUSH1 0x4 DUP3 ADD MSTORE PUSH1 0x26 PUSH1 0x24 DUP3 ADD MSTORE PUSH32 0x4D61696E6E657420746F6B656E206465706F73697420616D6F756E74206D6973 PUSH1 0x44 DUP3 ADD MSTORE PUSH6 0x36B0BA31B417 PUSH1 0xD1 SHL PUSH1 0x64 DUP3 ADD MSTORE PUSH1 0x84 SWAP1 REVERT JUMPDEST PUSH0 PUSH1 0x20 DUP11 PUSH1 0x64 PUSH2 0x78B DUP11 DUP7 PUSH2 0x275C JUMP JUMPDEST PUSH1 0x40 MLOAD SWAP5 DUP6 SWAP4 DUP5 SWAP3 PUSH4 0x23B872DD PUSH1 0xE0 SHL DUP5 MSTORE CALLER PUSH1 0x4 DUP6 ADD MSTORE ADDRESS PUSH1 0x24 DUP6 ADD MSTORE PUSH1 0x44 DUP5 ADD MSTORE GAS CALL SWAP1 DUP2 ISZERO PUSH2 0x5D7 JUMPI PUSH0 SWAP2 PUSH2 0x87E JUMPI JUMPDEST POP ISZERO PUSH2 0x821 JUMPI PUSH2 0x220 SWAP9 PUSH2 0x387 SWAP7 CALLER PUSH0 MSTORE PUSH1 0x1 PUSH1 0x20 MSTORE PUSH1 0x40 PUSH0 KECCAK256 DUP3 PUSH0 MSTORE PUSH1 0x20 MSTORE PUSH1 0x40 PUSH0 KECCAK256 PUSH2 0x7ED DUP5 DUP3 SLOAD PUSH2 0x275C JUMP JUMPDEST SWAP1 SSTORE PUSH1 0x1 DUP1 PUSH1 0xA0 SHL SUB PUSH1 0x3 SLOAD AND PUSH0 MSTORE PUSH1 0x1 PUSH1 0x20 MSTORE PUSH1 0x40 PUSH0 KECCAK256 DUP3 PUSH0 MSTORE PUSH1 0x20 MSTORE PUSH1 0x40 PUSH0 KECCAK256 PUSH2 0x81A DUP3 DUP3 SLOAD PUSH2 0x275C JUMP JUMPDEST SWAP1 SSTORE PUSH2 0x6F9 JUMP JUMPDEST PUSH1 0x40 MLOAD PUSH3 0x461BCD PUSH1 0xE5 SHL DUP2 MSTORE PUSH1 0x20 PUSH1 0x4 DUP3 ADD MSTORE PUSH1 0x2F PUSH1 0x24 DUP3 ADD MSTORE PUSH32 0x436F6E74726163742068617320746F6F206C6F7720616C6C6F77616E63652074 PUSH1 0x44 DUP3 ADD MSTORE PUSH15 0x6F20726563656976652066756E6473 PUSH1 0x88 SHL PUSH1 0x64 DUP3 ADD MSTORE PUSH1 0x84 SWAP1 REVERT JUMPDEST SWAP1 POP PUSH1 0x20 DUP2 RETURNDATASIZE PUSH1 0x20 GT PUSH2 0x8B0 JUMPI JUMPDEST DUP2 PUSH2 0x899 PUSH1 0x20 SWAP4 DUP4 PUSH2 0x23F4 JUMP JUMPDEST DUP2 ADD SUB SLT PUSH2 0x1A7 JUMPI PUSH2 0x8AA SWAP1 PUSH2 0x242A JUMP JUMPDEST DUP15 PUSH2 0x7BE JUMP JUMPDEST RETURNDATASIZE SWAP2 POP PUSH2 0x88C JUMP JUMPDEST SWAP1 SWAP5 POP PUSH1 0x20 DUP2 RETURNDATASIZE PUSH1 0x20 GT PUSH2 0x8E4 JUMPI JUMPDEST DUP2 PUSH2 0x8D4 PUSH1 0x20 SWAP4 DUP4 PUSH2 0x23F4 JUMP JUMPDEST DUP2 ADD SUB SLT PUSH2 0x1A7 JUMPI MLOAD SWAP4 DUP13 PUSH2 0x67F JUMP JUMPDEST RETURNDATASIZE SWAP2 POP PUSH2 0x8C7 JUMP JUMPDEST PUSH1 0x40 MLOAD PUSH3 0x461BCD PUSH1 0xE5 SHL DUP2 MSTORE PUSH1 0x20 PUSH1 0x4 DUP3 ADD MSTORE PUSH1 0x26 PUSH1 0x24 DUP3 ADD MSTORE PUSH32 0x4465706F73697420616D6F756E74206D75737420626520677265617465722074 PUSH1 0x44 DUP3 ADD MSTORE PUSH6 0x3430B7101817 PUSH1 0xD1 SHL PUSH1 0x64 DUP3 ADD MSTORE PUSH1 0x84 SWAP1 REVERT JUMPDEST CALLVALUE PUSH2 0x1A7 JUMPI PUSH1 0x60 CALLDATASIZE PUSH1 0x3 NOT ADD SLT PUSH2 0x1A7 JUMPI PUSH2 0x959 PUSH2 0x211C JUMP JUMPDEST PUSH2 0x961 PUSH2 0x2106 JUMP JUMPDEST PUSH1 0x44 CALLDATALOAD SWAP2 CALLER PUSH0 MSTORE PUSH1 0x1 PUSH1 0x20 MSTORE PUSH1 0x40 PUSH0 KECCAK256 PUSH1 0x1 DUP1 PUSH1 0xA0 SHL SUB DUP4 AND PUSH0 MSTORE PUSH1 0x20 MSTORE PUSH2 0x98F DUP4 PUSH1 0x40 PUSH0 KECCAK256 SLOAD LT ISZERO PUSH2 0x235F JUMP JUMPDEST CALLER PUSH0 MSTORE PUSH1 0x1 PUSH1 0x20 MSTORE PUSH1 0x40 PUSH0 KECCAK256 PUSH1 0x1 DUP1 PUSH1 0xA0 SHL SUB DUP4 AND PUSH0 MSTORE PUSH1 0x20 MSTORE PUSH1 0x40 PUSH0 KECCAK256 PUSH2 0x9B8 DUP5 DUP3 SLOAD PUSH2 0x23A2 JUMP JUMPDEST SWAP1 SSTORE PUSH1 0x1 DUP1 PUSH1 0xA0 SHL SUB AND PUSH0 MSTORE PUSH1 0x1 PUSH1 0x20 MSTORE PUSH1 0x40 PUSH0 KECCAK256 SWAP1 PUSH1 0x1 DUP1 PUSH1 0xA0 SHL SUB AND PUSH0 MSTORE PUSH1 0x20 MSTORE PUSH2 0x9EA PUSH1 0x40 PUSH0 KECCAK256 SWAP2 DUP3 SLOAD PUSH2 0x275C JUMP JUMPDEST SWAP1 SSTORE PUSH1 0x20 PUSH1 0x40 MLOAD PUSH1 0x1 DUP2 MSTORE RETURN JUMPDEST PUSH1 0x20 CALLDATASIZE PUSH1 0x3 NOT ADD SLT PUSH2 0x1A7 JUMPI PUSH1 0x4 CALLDATALOAD DUP1 PUSH0 MSTORE PUSH1 0x4 PUSH1 0x20 MSTORE PUSH1 0x40 PUSH0 KECCAK256 SWAP1 PUSH1 0x1 DUP3 ADD SWAP1 PUSH2 0xA2C PUSH1 0x1 DUP1 PUSH1 0xA0 SHL SUB DUP4 SLOAD AND CALLER EQ PUSH2 0x2624 JUMP JUMPDEST PUSH1 0x2 DUP4 ADD SWAP3 PUSH2 0xA6A DUP5 SLOAD PUSH2 0xA45 PUSH1 0xFF DUP3 PUSH1 0xB0 SHR AND PUSH2 0x267F JUMP JUMPDEST PUSH2 0xA55 PUSH1 0xFF DUP3 PUSH1 0xB8 SHR AND ISZERO PUSH2 0x26C4 JUMP JUMPDEST PUSH1 0xFF DUP2 PUSH1 0xA0 SHR AND ISZERO SWAP1 DUP2 PUSH2 0xD5B JUMPI JUMPDEST POP PUSH2 0x2710 JUMP JUMPDEST PUSH1 0xA DUP2 ADD DUP1 SLOAD CALLER PUSH0 SWAP1 DUP2 MSTORE PUSH1 0x1 PUSH1 0x20 SWAP1 DUP2 MSTORE PUSH1 0x40 DUP1 DUP4 KECCAK256 PUSH1 0x1 PUSH1 0x1 PUSH1 0xA0 SHL SUB SWAP1 SWAP5 AND DUP1 DUP5 MSTORE SWAP4 SWAP1 SWAP2 MSTORE SWAP1 KECCAK256 SLOAD PUSH1 0x6 DUP5 ADD SLOAD DUP2 LT PUSH2 0xB24 JUMPI JUMPDEST POP POP PUSH1 0x4 DUP3 ADD SLOAD CALLER PUSH0 SWAP1 DUP2 MSTORE PUSH1 0x1 PUSH1 0x20 SWAP1 DUP2 MSTORE PUSH1 0x40 DUP1 DUP4 KECCAK256 SWAP5 SLOAD PUSH1 0x1 PUSH1 0x1 PUSH1 0xA0 SHL SUB AND DUP4 MSTORE SWAP4 DUP2 MSTORE SWAP3 SWAP1 KECCAK256 DUP1 SLOAD PUSH0 MLOAD PUSH1 0x20 PUSH2 0x296B PUSH0 CODECOPY PUSH0 MLOAD SWAP1 PUSH0 MSTORE SWAP5 SWAP3 PUSH2 0xAE8 SWAP2 PUSH2 0x23A2 JUMP JUMPDEST SWAP1 SSTORE DUP6 SLOAD PUSH1 0x1 PUSH1 0xB8 SHL PUSH1 0xFF PUSH1 0xB8 SHL NOT DUP3 AND OR SWAP1 SWAP7 SSTORE SLOAD SWAP4 SLOAD PUSH1 0x40 MLOAD PUSH1 0x1 PUSH1 0x1 PUSH1 0xA0 SHL SUB SWAP7 DUP8 AND DUP2 MSTORE SWAP1 DUP7 AND SWAP6 SWAP1 SWAP5 AND SWAP4 LOG4 PUSH1 0x20 PUSH1 0x40 MLOAD PUSH1 0x1 DUP2 MSTORE RETURN JUMPDEST PUSH2 0xB34 SWAP1 PUSH1 0x4 DUP6 SWAP4 SWAP6 ADD SLOAD PUSH2 0x23A2 JUMP JUMPDEST SWAP2 PUSH2 0xB45 PUSH1 0xFF PUSH0 SLOAD PUSH1 0xA0 SHR AND PUSH2 0x2313 JUMP JUMPDEST DUP3 ISZERO PUSH2 0x8EC JUMPI PUSH1 0x2 SLOAD SWAP3 PUSH1 0x40 MLOAD SWAP4 PUSH4 0x1C8F0847 PUSH1 0xE0 SHL DUP6 MSTORE DUP2 PUSH1 0x4 DUP7 ADD MSTORE PUSH1 0x24 DUP6 ADD MSTORE PUSH1 0x20 DUP5 PUSH1 0x44 DUP2 PUSH20 0x0 GAS DELEGATECALL SWAP4 DUP5 ISZERO PUSH2 0x5D7 JUMPI PUSH0 SWAP5 PUSH2 0xD27 JUMPI JUMPDEST POP DUP5 PUSH2 0xC33 JUMPI PUSH2 0xBA3 DUP5 DUP3 PUSH2 0x275C JUMP JUMPDEST CALLVALUE SUB PUSH2 0x727 JUMPI PUSH0 MLOAD PUSH1 0x20 PUSH2 0x296B PUSH0 CODECOPY PUSH0 MLOAD SWAP1 PUSH0 MSTORE SWAP5 PUSH1 0x20 SWAP5 CALLER PUSH0 MSTORE PUSH1 0x1 DUP7 MSTORE PUSH1 0x40 PUSH0 KECCAK256 PUSH0 DUP1 MSTORE DUP7 MSTORE PUSH1 0x40 PUSH0 KECCAK256 PUSH2 0xBDA DUP5 DUP3 SLOAD PUSH2 0x275C JUMP JUMPDEST SWAP1 SSTORE PUSH1 0x1 DUP1 PUSH1 0xA0 SHL SUB PUSH1 0x3 SLOAD AND PUSH0 MSTORE PUSH1 0x1 DUP7 MSTORE PUSH1 0x40 PUSH0 KECCAK256 PUSH0 DUP1 MSTORE DUP7 MSTORE PUSH1 0x40 PUSH0 KECCAK256 PUSH2 0xC05 DUP3 DUP3 SLOAD PUSH2 0x275C JUMP JUMPDEST SWAP1 SSTORE JUMPDEST PUSH1 0x40 MLOAD SWAP3 DUP4 MSTORE DUP6 DUP4 ADD MSTORE PUSH1 0x40 DUP3 ADD MSTORE PUSH0 MLOAD PUSH1 0x20 PUSH2 0x298B PUSH0 CODECOPY PUSH0 MLOAD SWAP1 PUSH0 MSTORE PUSH1 0x60 CALLER SWAP3 LOG2 SWAP2 DUP2 SWAP4 POP PUSH2 0xAA2 JUMP JUMPDEST PUSH2 0xC3D DUP5 DUP3 PUSH2 0x275C JUMP JUMPDEST PUSH1 0x40 MLOAD SWAP1 PUSH4 0x23B872DD PUSH1 0xE0 SHL DUP3 MSTORE CALLER PUSH1 0x4 DUP4 ADD MSTORE ADDRESS PUSH1 0x24 DUP4 ADD MSTORE PUSH1 0x44 DUP3 ADD MSTORE PUSH1 0x20 DUP2 PUSH1 0x64 DUP2 PUSH0 DUP11 GAS CALL SWAP1 DUP2 ISZERO PUSH2 0x5D7 JUMPI PUSH0 SWAP2 PUSH2 0xCED JUMPI JUMPDEST POP ISZERO PUSH2 0x821 JUMPI PUSH0 MLOAD PUSH1 0x20 PUSH2 0x296B PUSH0 CODECOPY PUSH0 MLOAD SWAP1 PUSH0 MSTORE SWAP5 PUSH1 0x20 SWAP5 CALLER PUSH0 MSTORE PUSH1 0x1 DUP7 MSTORE PUSH1 0x40 PUSH0 KECCAK256 PUSH1 0x1 DUP1 PUSH1 0xA0 SHL SUB DUP4 AND PUSH0 MSTORE DUP7 MSTORE PUSH1 0x40 PUSH0 KECCAK256 PUSH2 0xCB3 DUP5 DUP3 SLOAD PUSH2 0x275C JUMP JUMPDEST SWAP1 SSTORE PUSH1 0x3 SLOAD PUSH1 0x1 PUSH1 0x1 PUSH1 0xA0 SHL SUB SWAP1 DUP2 AND PUSH0 SWAP1 DUP2 MSTORE PUSH1 0x1 DUP9 MSTORE PUSH1 0x40 DUP1 DUP3 KECCAK256 SWAP3 DUP6 AND DUP3 MSTORE SWAP2 DUP9 MSTORE KECCAK256 DUP1 SLOAD PUSH2 0xCE6 SWAP1 DUP4 SWAP1 PUSH2 0x275C JUMP JUMPDEST SWAP1 SSTORE PUSH2 0xC08 JUMP JUMPDEST SWAP1 POP PUSH1 0x20 DUP2 RETURNDATASIZE PUSH1 0x20 GT PUSH2 0xD1F JUMPI JUMPDEST DUP2 PUSH2 0xD08 PUSH1 0x20 SWAP4 DUP4 PUSH2 0x23F4 JUMP JUMPDEST DUP2 ADD SUB SLT PUSH2 0x1A7 JUMPI PUSH2 0xD19 SWAP1 PUSH2 0x242A JUMP JUMPDEST DUP10 PUSH2 0xC74 JUMP JUMPDEST RETURNDATASIZE SWAP2 POP PUSH2 0xCFB JUMP JUMPDEST SWAP1 SWAP4 POP PUSH1 0x20 DUP2 RETURNDATASIZE PUSH1 0x20 GT PUSH2 0xD53 JUMPI JUMPDEST DUP2 PUSH2 0xD43 PUSH1 0x20 SWAP4 DUP4 PUSH2 0x23F4 JUMP JUMPDEST DUP2 ADD SUB SLT PUSH2 0x1A7 JUMPI MLOAD SWAP3 DUP9 PUSH2 0xB93 JUMP JUMPDEST RETURNDATASIZE SWAP2 POP PUSH2 0xD36 JUMP JUMPDEST PUSH1 0xFF SWAP2 POP PUSH1 0xA8 SHR AND ISZERO DUP7 PUSH2 0xA64 JUMP JUMPDEST CALLVALUE PUSH2 0x1A7 JUMPI PUSH0 CALLDATASIZE PUSH1 0x3 NOT ADD SLT PUSH2 0x1A7 JUMPI PUSH1 0x20 PUSH1 0x5 SLOAD PUSH1 0x40 MLOAD SWAP1 DUP2 MSTORE RETURN JUMPDEST CALLVALUE PUSH2 0x1A7 JUMPI PUSH1 0x20 CALLDATASIZE PUSH1 0x3 NOT ADD SLT PUSH2 0x1A7 JUMPI PUSH1 0x4 CALLDATALOAD DUP1 PUSH0 MSTORE PUSH1 0x4 PUSH1 0x20 MSTORE PUSH1 0x40 PUSH0 KECCAK256 SWAP1 PUSH1 0x1 DUP3 ADD SWAP1 PUSH1 0x1 DUP1 PUSH1 0xA0 SHL SUB DUP3 SLOAD AND CALLER EQ DUP1 ISZERO PUSH2 0xEB9 JUMPI JUMPDEST PUSH2 0xDC9 SWAP1 PUSH2 0x2769 JUMP JUMPDEST PUSH32 0x86C61B89EF5FCDB14C243B643069C3C6A84765B27F2A696B875DDDF031AFB4D PUSH2 0xE8E PUSH1 0x2 DUP6 ADD SWAP5 PUSH2 0xE22 DUP7 SLOAD PUSH1 0xFF DUP2 PUSH1 0xB8 SHR AND ISZERO DUP1 PUSH2 0xEAB JUMPI JUMPDEST PUSH2 0xE0E SWAP1 PUSH2 0x27C4 JUMP JUMPDEST PUSH1 0xFF DUP2 PUSH1 0xA0 SHR AND ISZERO SWAP1 DUP2 PUSH2 0xE9C JUMPI POP PUSH2 0x2710 JUMP JUMPDEST PUSH1 0x5 DUP2 ADD SLOAD DUP2 SLOAD PUSH1 0x1 PUSH1 0x1 PUSH1 0xA0 SHL SUB SWAP1 DUP2 AND PUSH0 SWAP1 DUP2 MSTORE PUSH1 0x1 PUSH1 0x20 SWAP1 DUP2 MSTORE PUSH1 0x40 DUP1 DUP4 KECCAK256 PUSH1 0x9 DUP8 ADD SLOAD SWAP1 SWAP5 AND DUP4 MSTORE SWAP3 SWAP1 MSTORE KECCAK256 DUP1 SLOAD SWAP1 SWAP2 PUSH2 0xE5F SWAP2 PUSH2 0x275C JUMP JUMPDEST SWAP1 SSTORE SLOAD SWAP4 SLOAD SWAP5 SLOAD PUSH1 0x40 DUP1 MLOAD CALLER DUP2 MSTORE PUSH1 0x1 PUSH1 0x1 PUSH1 0xA0 SHL SUB SWAP3 DUP4 AND PUSH1 0x20 DUP3 ADD MSTORE SWAP7 DUP3 AND SWAP7 SWAP6 SWAP1 SWAP2 AND SWAP5 SWAP2 DUP3 SWAP2 DUP3 ADD SWAP1 JUMP JUMPDEST SUB SWAP1 LOG4 PUSH1 0x20 PUSH1 0x40 MLOAD PUSH1 0x1 DUP2 MSTORE RETURN JUMPDEST PUSH1 0xFF SWAP2 POP PUSH1 0xA8 SHR AND ISZERO DUP9 PUSH2 0xA64 JUMP JUMPDEST POP PUSH1 0xB0 DUP2 SWAP1 SHR PUSH1 0xFF AND PUSH2 0xE05 JUMP JUMPDEST POP DUP3 SLOAD PUSH1 0x1 PUSH1 0x1 PUSH1 0xA0 SHL SUB AND CALLER EQ PUSH2 0xDC0 JUMP JUMPDEST CALLVALUE PUSH2 0x1A7 JUMPI PUSH0 CALLDATASIZE PUSH1 0x3 NOT ADD SLT PUSH2 0x1A7 JUMPI PUSH0 SLOAD PUSH1 0x40 MLOAD PUSH1 0x1 PUSH1 0x1 PUSH1 0xA0 SHL SUB SWAP1 SWAP2 AND DUP2 MSTORE PUSH1 0x20 SWAP1 RETURN JUMPDEST CALLVALUE PUSH2 0x1A7 JUMPI PUSH0 CALLDATASIZE PUSH1 0x3 NOT ADD SLT PUSH2 0x1A7 JUMPI PUSH1 0x20 PUSH1 0x2 SLOAD PUSH1 0x40 MLOAD SWAP1 DUP2 MSTORE RETURN JUMPDEST CALLVALUE PUSH2 0x1A7 JUMPI PUSH0 CALLDATASIZE PUSH1 0x3 NOT ADD SLT PUSH2 0x1A7 JUMPI PUSH2 0xF28 PUSH2 0x2810 JUMP JUMPDEST PUSH1 0xFF PUSH1 0xA0 SHL NOT PUSH0 SLOAD AND PUSH0 SSTORE PUSH32 0x17904E4FE7D59BB4603C7C045BC275A05DA9EA3A4AC007FC80FFFEAF119186D PUSH1 0x20 PUSH1 0x40 MLOAD PUSH0 DUP2 MSTORE LOG1 CALLER PUSH32 0x793BC6423DD0257D64F9D47DB72FD4B2162F4541AA41740BA1C5FB5E2CD41BCD PUSH0 DUP1 LOG2 STOP JUMPDEST CALLVALUE PUSH2 0x1A7 JUMPI PUSH1 0x20 CALLDATASIZE PUSH1 0x3 NOT ADD SLT PUSH2 0x1A7 JUMPI PUSH1 0x4 CALLDATALOAD PUSH0 MSTORE PUSH1 0x4 PUSH1 0x20 MSTORE PUSH1 0x40 PUSH0 KECCAK256 PUSH1 0x1 PUSH1 0xA0 SHL PUSH1 0x1 SWAP1 SUB DUP2 SLOAD AND SWAP1 PUSH1 0x1 PUSH1 0xA0 SHL PUSH1 0x1 SWAP1 SUB PUSH1 0x1 DUP3 ADD SLOAD AND SWAP1 PUSH1 0x2 DUP2 ADD SLOAD PUSH1 0x3 DUP3 ADD SLOAD PUSH1 0x4 DUP4 ADD SLOAD PUSH1 0x5 DUP5 ADD SLOAD PUSH1 0x6 DUP6 ADD SLOAD PUSH1 0x7 DUP7 ADD SLOAD SWAP2 PUSH1 0x8 DUP8 ADD SLOAD SWAP4 PUSH1 0x1 PUSH1 0xA0 SHL PUSH1 0x1 SWAP1 SUB PUSH1 0x9 DUP10 ADD SLOAD AND SWAP6 PUSH1 0x1 PUSH1 0xA0 SHL PUSH1 0x1 SWAP1 SUB PUSH1 0xA DUP11 ADD SLOAD AND SWAP8 PUSH1 0xB DUP11 ADD SLOAD SWAP10 PUSH1 0xC ADD SLOAD PUSH1 0xFF AND SWAP11 PUSH1 0x40 MLOAD SWAP13 DUP14 MSTORE PUSH1 0x20 DUP14 ADD MSTORE PUSH1 0x1 PUSH1 0xA0 SHL PUSH1 0x1 SWAP1 SUB DUP2 AND PUSH1 0x40 DUP14 ADD MSTORE DUP1 PUSH1 0xA0 SHR PUSH1 0xFF AND ISZERO ISZERO PUSH1 0x60 DUP14 ADD MSTORE DUP1 PUSH1 0xA8 SHR PUSH1 0xFF AND ISZERO ISZERO PUSH1 0x80 DUP14 ADD MSTORE DUP1 PUSH1 0xB0 SHR PUSH1 0xFF AND ISZERO ISZERO PUSH1 0xA0 DUP14 ADD MSTORE PUSH1 0xB8 SHR PUSH1 0xFF AND ISZERO ISZERO PUSH1 0xC0 DUP13 ADD MSTORE PUSH1 0xE0 DUP12 ADD MSTORE PUSH2 0x100 DUP11 ADD MSTORE PUSH2 0x120 DUP10 ADD MSTORE PUSH2 0x140 DUP9 ADD MSTORE PUSH2 0x160 DUP8 ADD MSTORE PUSH2 0x180 DUP7 ADD MSTORE PUSH2 0x1A0 DUP6 ADD MSTORE PUSH2 0x1C0 DUP5 ADD MSTORE PUSH2 0x1E0 DUP4 ADD MSTORE PUSH2 0x200 DUP3 ADD PUSH2 0x10A8 SWAP2 PUSH2 0x2217 JUMP JUMPDEST PUSH2 0x220 SWAP1 RETURN JUMPDEST CALLVALUE PUSH2 0x1A7 JUMPI PUSH1 0x20 CALLDATASIZE PUSH1 0x3 NOT ADD SLT PUSH2 0x1A7 JUMPI PUSH1 0x4 CALLDATALOAD DUP1 PUSH0 MSTORE PUSH1 0x4 PUSH1 0x20 MSTORE PUSH1 0x40 PUSH0 KECCAK256 SWAP1 PUSH1 0x1 DUP3 ADD SWAP1 PUSH1 0x1 DUP1 PUSH1 0xA0 SHL SUB DUP3 SLOAD AND CALLER EQ DUP1 ISZERO PUSH2 0x1186 JUMPI JUMPDEST PUSH2 0x10F0 SWAP1 PUSH2 0x2769 JUMP JUMPDEST PUSH32 0x86C61B89EF5FCDB14C243B643069C3C6A84765B27F2A696B875DDDF031AFB4D PUSH2 0xE8E PUSH1 0x2 DUP6 ADD SWAP5 PUSH2 0x1134 DUP7 SLOAD PUSH1 0xFF DUP2 PUSH1 0xB8 SHR AND ISZERO DUP1 PUSH2 0xEAB JUMPI PUSH2 0xE0E SWAP1 PUSH2 0x27C4 JUMP JUMPDEST DUP1 SLOAD PUSH1 0x9 DUP3 ADD SLOAD PUSH1 0x5 DUP4 ADD SLOAD PUSH2 0x1158 SWAP3 SWAP1 SWAP2 PUSH1 0x1 PUSH1 0x1 PUSH1 0xA0 SHL SUB SWAP1 DUP2 AND SWAP2 AND PUSH2 0x2836 JUMP JUMPDEST POP SLOAD SWAP4 SLOAD SWAP5 SLOAD PUSH1 0x40 DUP1 MLOAD CALLER DUP2 MSTORE PUSH1 0x1 PUSH1 0x1 PUSH1 0xA0 SHL SUB SWAP3 DUP4 AND PUSH1 0x20 DUP3 ADD MSTORE SWAP7 DUP3 AND SWAP7 SWAP6 SWAP1 SWAP2 AND SWAP5 SWAP2 DUP3 SWAP2 DUP3 ADD SWAP1 JUMP JUMPDEST POP DUP3 SLOAD PUSH1 0x1 PUSH1 0x1 PUSH1 0xA0 SHL SUB AND CALLER EQ PUSH2 0x10E7 JUMP JUMPDEST CALLVALUE PUSH2 0x1A7 JUMPI PUSH0 CALLDATASIZE PUSH1 0x3 NOT ADD SLT PUSH2 0x1A7 JUMPI PUSH2 0x11B1 PUSH2 0x2810 JUMP JUMPDEST PUSH0 DUP1 SLOAD PUSH1 0x1 PUSH1 0x1 PUSH1 0xA0 SHL SUB NOT DUP2 AND DUP3 SSTORE PUSH1 0x1 PUSH1 0x1 PUSH1 0xA0 SHL SUB AND PUSH32 0x8BE0079C531659141344CD1FD0A4F28419497F9722A3DAAFE3B4186F6B6457E0 DUP3 DUP1 LOG3 STOP JUMPDEST CALLVALUE PUSH2 0x1A7 JUMPI PUSH1 0x20 CALLDATASIZE PUSH1 0x3 NOT ADD SLT PUSH2 0x1A7 JUMPI PUSH1 0x1 PUSH1 0x1 PUSH1 0xA0 SHL SUB PUSH2 0x1211 PUSH2 0x211C JUMP JUMPDEST AND PUSH0 MSTORE PUSH1 0x1 PUSH1 0x20 MSTORE PUSH1 0x40 PUSH0 KECCAK256 PUSH0 DUP1 MSTORE PUSH1 0x20 MSTORE PUSH1 0x20 PUSH1 0x40 PUSH0 KECCAK256 SLOAD PUSH1 0x40 MLOAD SWAP1 DUP2 MSTORE RETURN JUMPDEST CALLVALUE PUSH2 0x1A7 JUMPI PUSH1 0x20 CALLDATASIZE PUSH1 0x3 NOT ADD SLT PUSH2 0x1A7 JUMPI PUSH0 PUSH2 0x200 PUSH1 0x40 MLOAD PUSH2 0x1253 DUP2 PUSH2 0x23C3 JUMP JUMPDEST DUP3 DUP2 MSTORE DUP3 PUSH1 0x20 DUP3 ADD MSTORE DUP3 PUSH1 0x40 DUP3 ADD MSTORE DUP3 PUSH1 0x60 DUP3 ADD MSTORE DUP3 PUSH1 0x80 DUP3 ADD MSTORE DUP3 PUSH1 0xA0 DUP3 ADD MSTORE DUP3 PUSH1 0xC0 DUP3 ADD MSTORE DUP3 PUSH1 0xE0 DUP3 ADD MSTORE DUP3 PUSH2 0x100 DUP3 ADD MSTORE DUP3 PUSH2 0x120 DUP3 ADD MSTORE DUP3 PUSH2 0x140 DUP3 ADD MSTORE DUP3 PUSH2 0x160 DUP3 ADD MSTORE DUP3 PUSH2 0x180 DUP3 ADD MSTORE DUP3 PUSH2 0x1A0 DUP3 ADD MSTORE DUP3 PUSH2 0x1C0 DUP3 ADD MSTORE DUP3 PUSH2 0x1E0 DUP3 ADD MSTORE ADD MSTORE PUSH1 0x4 CALLDATALOAD PUSH0 MSTORE PUSH1 0x4 PUSH1 0x20 MSTORE PUSH1 0x40 PUSH0 KECCAK256 PUSH1 0xFF PUSH1 0xC PUSH1 0x40 MLOAD SWAP3 PUSH2 0x12D9 DUP5 PUSH2 0x23C3 JUMP JUMPDEST DUP1 SLOAD PUSH1 0x1 PUSH1 0x1 PUSH1 0xA0 SHL SUB SWAP1 DUP2 AND DUP6 MSTORE PUSH1 0x1 DUP3 ADD SLOAD DUP2 AND PUSH1 0x20 DUP7 ADD MSTORE PUSH1 0x2 DUP3 ADD SLOAD DUP1 DUP3 AND PUSH1 0x40 DUP8 ADD MSTORE PUSH1 0xA0 DUP2 DUP2 SHR DUP7 AND ISZERO ISZERO PUSH1 0x60 DUP9 ADD MSTORE PUSH1 0xA8 DUP3 SWAP1 SHR DUP7 AND ISZERO ISZERO PUSH1 0x80 DUP9 ADD MSTORE PUSH1 0xB0 DUP3 SWAP1 SHR DUP7 AND ISZERO ISZERO SWAP1 DUP8 ADD MSTORE PUSH1 0xB8 SHR DUP5 AND ISZERO ISZERO PUSH1 0xC0 DUP7 ADD MSTORE PUSH1 0x3 DUP3 ADD SLOAD PUSH1 0xE0 DUP7 ADD MSTORE PUSH1 0x4 DUP3 ADD SLOAD PUSH2 0x100 DUP7 ADD MSTORE PUSH1 0x5 DUP3 ADD SLOAD PUSH2 0x120 DUP7 ADD MSTORE PUSH1 0x6 DUP1 DUP4 ADD SLOAD PUSH2 0x140 DUP8 ADD MSTORE PUSH1 0x7 DUP4 ADD SLOAD PUSH2 0x160 DUP8 ADD MSTORE PUSH1 0x8 DUP4 ADD SLOAD PUSH2 0x180 DUP8 ADD MSTORE PUSH1 0x9 DUP4 ADD SLOAD DUP3 AND PUSH2 0x1A0 DUP8 ADD MSTORE PUSH1 0xA DUP4 ADD SLOAD SWAP1 SWAP2 AND PUSH2 0x1C0 DUP7 ADD MSTORE PUSH1 0xB DUP3 ADD SLOAD PUSH2 0x1E0 DUP7 ADD MSTORE SWAP2 ADD SLOAD SWAP1 SWAP2 AND SWAP2 SWAP1 DUP3 LT ISZERO PUSH2 0x58F JUMPI PUSH2 0x220 SWAP2 PUSH2 0x200 DUP3 ADD MSTORE PUSH2 0x13C4 PUSH1 0x40 MLOAD DUP1 SWAP3 PUSH2 0x2224 JUMP JUMPDEST RETURN JUMPDEST PUSH1 0x40 CALLDATASIZE PUSH1 0x3 NOT ADD SLT PUSH2 0x1A7 JUMPI PUSH2 0x13DA PUSH2 0x211C JUMP JUMPDEST PUSH1 0x24 CALLDATALOAD SWAP1 PUSH2 0x13EE PUSH1 0xFF PUSH0 SLOAD PUSH1 0xA0 SHR AND PUSH2 0x2313 JUMP JUMPDEST DUP2 ISZERO PUSH2 0x8EC JUMPI PUSH1 0x2 SLOAD SWAP1 PUSH1 0x40 MLOAD SWAP2 PUSH4 0x1C8F0847 PUSH1 0xE0 SHL DUP4 MSTORE DUP4 PUSH1 0x4 DUP5 ADD MSTORE PUSH1 0x24 DUP4 ADD MSTORE PUSH1 0x20 DUP3 PUSH1 0x44 DUP2 PUSH20 0x0 GAS DELEGATECALL SWAP2 DUP3 ISZERO PUSH2 0x5D7 JUMPI PUSH0 SWAP3 PUSH2 0x15A8 JUMPI JUMPDEST POP PUSH1 0x1 PUSH1 0x1 PUSH1 0xA0 SHL SUB AND SWAP1 DUP2 PUSH2 0x14D2 JUMPI PUSH2 0x1456 DUP2 DUP5 PUSH2 0x275C JUMP JUMPDEST CALLVALUE SUB PUSH2 0x727 JUMPI CALLER PUSH0 MSTORE PUSH1 0x1 PUSH1 0x20 MSTORE PUSH1 0x40 PUSH0 KECCAK256 PUSH0 DUP1 MSTORE PUSH1 0x20 MSTORE PUSH1 0x40 PUSH0 KECCAK256 PUSH2 0x147D DUP5 DUP3 SLOAD PUSH2 0x275C JUMP JUMPDEST SWAP1 SSTORE PUSH1 0x1 DUP1 PUSH1 0xA0 SHL SUB PUSH1 0x3 SLOAD AND PUSH0 MSTORE PUSH1 0x1 PUSH1 0x20 MSTORE PUSH1 0x40 PUSH0 KECCAK256 PUSH0 DUP1 MSTORE PUSH1 0x20 MSTORE PUSH1 0x40 PUSH0 KECCAK256 PUSH2 0x14AA DUP3 DUP3 SLOAD PUSH2 0x275C JUMP JUMPDEST SWAP1 SSTORE JUMPDEST PUSH1 0x40 MLOAD SWAP3 DUP4 MSTORE PUSH1 0x20 DUP4 ADD MSTORE PUSH1 0x40 DUP3 ADD MSTORE PUSH0 MLOAD PUSH1 0x20 PUSH2 0x298B PUSH0 CODECOPY PUSH0 MLOAD SWAP1 PUSH0 MSTORE PUSH1 0x60 CALLER SWAP3 LOG2 STOP JUMPDEST PUSH2 0x14DC DUP2 DUP5 PUSH2 0x275C JUMP JUMPDEST PUSH1 0x40 MLOAD SWAP1 PUSH4 0x23B872DD PUSH1 0xE0 SHL DUP3 MSTORE CALLER PUSH1 0x4 DUP4 ADD MSTORE ADDRESS PUSH1 0x24 DUP4 ADD MSTORE PUSH1 0x44 DUP3 ADD MSTORE PUSH1 0x20 DUP2 PUSH1 0x64 DUP2 PUSH0 DUP8 GAS CALL SWAP1 DUP2 ISZERO PUSH2 0x5D7 JUMPI PUSH0 SWAP2 PUSH2 0x156E JUMPI JUMPDEST POP ISZERO PUSH2 0x821 JUMPI CALLER PUSH0 MSTORE PUSH1 0x1 PUSH1 0x20 MSTORE PUSH1 0x40 PUSH0 KECCAK256 DUP3 PUSH0 MSTORE PUSH1 0x20 MSTORE PUSH1 0x40 PUSH0 KECCAK256 PUSH2 0x153A DUP5 DUP3 SLOAD PUSH2 0x275C JUMP JUMPDEST SWAP1 SSTORE PUSH1 0x1 DUP1 PUSH1 0xA0 SHL SUB PUSH1 0x3 SLOAD AND PUSH0 MSTORE PUSH1 0x1 PUSH1 0x20 MSTORE PUSH1 0x40 PUSH0 KECCAK256 DUP3 PUSH0 MSTORE PUSH1 0x20 MSTORE PUSH1 0x40 PUSH0 KECCAK256 PUSH2 0x1567 DUP3 DUP3 SLOAD PUSH2 0x275C JUMP JUMPDEST SWAP1 SSTORE PUSH2 0x14AD JUMP JUMPDEST SWAP1 POP PUSH1 0x20 DUP2 RETURNDATASIZE PUSH1 0x20 GT PUSH2 0x15A0 JUMPI JUMPDEST DUP2 PUSH2 0x1589 PUSH1 0x20 SWAP4 DUP4 PUSH2 0x23F4 JUMP JUMPDEST DUP2 ADD SUB SLT PUSH2 0x1A7 JUMPI PUSH2 0x159A SWAP1 PUSH2 0x242A JUMP JUMPDEST DUP5 PUSH2 0x1513 JUMP JUMPDEST RETURNDATASIZE SWAP2 POP PUSH2 0x157C JUMP JUMPDEST SWAP1 SWAP2 POP PUSH1 0x20 DUP2 RETURNDATASIZE PUSH1 0x20 GT PUSH2 0x15D4 JUMPI JUMPDEST DUP2 PUSH2 0x15C4 PUSH1 0x20 SWAP4 DUP4 PUSH2 0x23F4 JUMP JUMPDEST DUP2 ADD SUB SLT PUSH2 0x1A7 JUMPI MLOAD SWAP1 DUP4 PUSH2 0x143C JUMP JUMPDEST RETURNDATASIZE SWAP2 POP PUSH2 0x15B7 JUMP JUMPDEST CALLVALUE PUSH2 0x1A7 JUMPI PUSH0 CALLDATASIZE PUSH1 0x3 NOT ADD SLT PUSH2 0x1A7 JUMPI PUSH1 0x20 PUSH1 0xFF PUSH0 SLOAD PUSH1 0xA0 SHR AND PUSH1 0x40 MLOAD SWAP1 ISZERO ISZERO DUP2 MSTORE RETURN JUMPDEST CALLVALUE PUSH2 0x1A7 JUMPI PUSH1 0x20 CALLDATASIZE PUSH1 0x3 NOT ADD SLT PUSH2 0x1A7 JUMPI PUSH1 0x4 CALLDATALOAD DUP1 PUSH0 MSTORE PUSH1 0x4 PUSH1 0x20 MSTORE PUSH1 0x40 PUSH0 KECCAK256 SWAP1 PUSH1 0x1 DUP3 ADD SWAP1 PUSH2 0x163A PUSH1 0x1 DUP1 PUSH1 0xA0 SHL SUB DUP4 SLOAD AND CALLER EQ PUSH2 0x2624 JUMP JUMPDEST PUSH0 MLOAD PUSH1 0x20 PUSH2 0x296B PUSH0 CODECOPY PUSH0 MLOAD SWAP1 PUSH0 MSTORE PUSH1 0x20 PUSH1 0x2 DUP6 ADD SWAP5 PUSH2 0x1673 DUP7 SLOAD PUSH2 0x1663 PUSH1 0xFF DUP3 PUSH1 0xB0 SHR AND PUSH2 0x267F JUMP JUMPDEST PUSH2 0xE0E PUSH1 0xFF DUP3 PUSH1 0xB8 SHR AND ISZERO PUSH2 0x26C4 JUMP JUMPDEST PUSH1 0xA DUP2 ADD SLOAD CALLER PUSH0 SWAP1 DUP2 MSTORE PUSH1 0x1 PUSH1 0x20 SWAP1 DUP2 MSTORE PUSH1 0x40 DUP1 DUP4 KECCAK256 PUSH1 0x1 PUSH1 0x1 PUSH1 0xA0 SHL SUB SWAP1 SWAP5 AND DUP1 DUP5 MSTORE SWAP4 SWAP1 SWAP2 MSTORE SWAP1 KECCAK256 SLOAD SWAP1 PUSH2 0x16B0 PUSH1 0x4 DUP5 ADD SLOAD DUP1 SWAP4 LT ISZERO PUSH2 0x235F JUMP JUMPDEST CALLER PUSH0 MSTORE PUSH1 0x1 DUP5 MSTORE PUSH1 0x40 PUSH0 KECCAK256 SWAP1 PUSH1 0x1 DUP1 PUSH1 0xA0 SHL SUB AND PUSH0 MSTORE DUP4 MSTORE PUSH2 0xAE8 PUSH1 0x40 PUSH0 KECCAK256 SWAP2 DUP3 SLOAD PUSH2 0x23A2 JUMP JUMPDEST CALLVALUE PUSH2 0x1A7 JUMPI PUSH0 CALLDATASIZE PUSH1 0x3 NOT ADD SLT PUSH2 0x1A7 JUMPI PUSH2 0x16EF PUSH2 0x2810 JUMP JUMPDEST PUSH0 DUP1 SLOAD PUSH1 0xFF PUSH1 0xA0 SHL NOT AND PUSH1 0x1 PUSH1 0xA0 SHL OR SWAP1 SSTORE PUSH1 0x40 MLOAD PUSH1 0x1 DUP2 MSTORE PUSH32 0x17904E4FE7D59BB4603C7C045BC275A05DA9EA3A4AC007FC80FFFEAF119186D SWAP1 PUSH1 0x20 SWAP1 LOG1 CALLER PUSH32 0xAE81C15A680E6640BA872CA44F364AD67C60A04089AD9FA100F7A3CE94DA9F68 PUSH0 DUP1 LOG2 STOP JUMPDEST PUSH2 0x175E CALLDATASIZE PUSH2 0x21B4 JUMP JUMPDEST SWAP2 SWAP5 SWAP4 PUSH1 0xFF PUSH0 SWAP8 SWAP5 SWAP3 SWAP8 SLOAD PUSH1 0xA0 SHR AND SWAP3 PUSH2 0x1777 DUP5 PUSH2 0x2313 JUMP JUMPDEST CALLER PUSH0 MSTORE PUSH1 0x1 PUSH1 0x20 MSTORE PUSH1 0x40 PUSH0 KECCAK256 PUSH1 0x1 DUP1 PUSH1 0xA0 SHL SUB DUP9 AND PUSH0 MSTORE PUSH1 0x20 MSTORE PUSH1 0x40 PUSH0 KECCAK256 SLOAD DUP3 DUP2 LT PUSH2 0x1A0E JUMPI JUMPDEST POP PUSH2 0x220 SWAP4 POP PUSH2 0x1808 SWAP1 CALLER PUSH0 MSTORE PUSH1 0x1 PUSH1 0x20 MSTORE PUSH1 0x40 PUSH0 KECCAK256 PUSH1 0x1 DUP1 PUSH1 0xA0 SHL SUB DUP10 AND PUSH0 MSTORE PUSH1 0x20 MSTORE PUSH1 0x40 PUSH0 KECCAK256 PUSH2 0x17D1 DUP5 DUP3 SLOAD PUSH2 0x23A2 JUMP JUMPDEST SWAP1 SSTORE PUSH1 0x40 MLOAD PUSH4 0x652E83D7 PUSH1 0xE0 SHL DUP2 MSTORE PUSH20 0x0 SWAP10 SWAP1 SWAP9 DUP10 SWAP6 DUP7 SWAP6 DUP11 DUP11 CALLER PUSH1 0x4 DUP11 ADD PUSH2 0x25BC JUMP JUMPDEST SUB DUP2 DUP8 GAS DELEGATECALL SWAP3 DUP4 ISZERO PUSH2 0x5D7 JUMPI PUSH0 SWAP4 PUSH2 0x19E8 JUMPI JUMPDEST POP PUSH1 0x20 PUSH2 0x224 SWAP4 SWAP5 PUSH1 0x40 MLOAD SWAP5 DUP6 DUP1 SWAP3 PUSH4 0x63F88CDD PUSH1 0xE1 SHL DUP3 MSTORE PUSH2 0x1841 PUSH1 0x4 DUP4 ADD DUP11 PUSH2 0x2224 JUMP JUMPDEST GAS DELEGATECALL SWAP3 DUP4 ISZERO PUSH2 0x5D7 JUMPI PUSH0 SWAP4 PUSH2 0x19B4 JUMPI JUMPDEST POP PUSH0 DUP4 DUP2 MSTORE PUSH1 0x4 PUSH1 0x20 SWAP1 DUP2 MSTORE PUSH1 0x40 SWAP2 DUP3 SWAP1 KECCAK256 DUP7 MLOAD DUP2 SLOAD PUSH1 0x1 PUSH1 0x1 PUSH1 0xA0 SHL SUB SWAP2 DUP3 AND PUSH1 0x1 PUSH1 0x1 PUSH1 0xA0 SHL SUB NOT SWAP2 DUP3 AND OR DUP4 SSTORE SWAP3 DUP9 ADD MLOAD PUSH1 0x1 DUP4 ADD DUP1 SLOAD SWAP2 DUP4 AND SWAP2 SWAP1 SWAP5 AND OR SWAP1 SWAP3 SSTORE SWAP2 DUP7 ADD MLOAD PUSH1 0x2 DUP4 ADD DUP1 SLOAD PUSH1 0x60 DUP10 ADD MLOAD PUSH1 0xFF PUSH1 0xA0 SHL SWAP1 ISZERO ISZERO PUSH1 0xA0 SHL AND SWAP3 SWAP1 SWAP4 AND PUSH1 0x1 PUSH1 0x1 PUSH1 0xA8 SHL SUB NOT SWAP1 SWAP4 AND SWAP3 SWAP1 SWAP3 OR OR DUP2 SSTORE PUSH2 0x200 SWAP2 PUSH1 0xC SWAP2 PUSH2 0x18D8 SWAP1 PUSH2 0x453 JUMP JUMPDEST PUSH1 0xE0 DUP8 ADD MLOAD PUSH1 0x3 DUP3 ADD SSTORE PUSH2 0x100 DUP8 ADD MLOAD PUSH1 0x4 DUP3 ADD SSTORE PUSH2 0x120 DUP8 ADD MLOAD PUSH1 0x5 DUP3 ADD SSTORE PUSH2 0x140 DUP8 ADD MLOAD PUSH1 0x6 DUP1 DUP4 ADD SWAP2 SWAP1 SWAP2 SSTORE PUSH2 0x160 DUP9 ADD MLOAD PUSH1 0x7 DUP4 ADD SSTORE PUSH2 0x180 DUP9 ADD MLOAD PUSH1 0x8 DUP4 ADD SSTORE PUSH2 0x1A0 DUP9 ADD MLOAD PUSH1 0x9 DUP4 ADD DUP1 SLOAD PUSH1 0x1 PUSH1 0x1 PUSH1 0xA0 SHL SUB SWAP3 DUP4 AND PUSH1 0x1 PUSH1 0x1 PUSH1 0xA0 SHL SUB NOT SWAP2 DUP3 AND OR SWAP1 SWAP2 SSTORE PUSH2 0x1C0 DUP11 ADD MLOAD PUSH1 0xA DUP6 ADD DUP1 SLOAD SWAP2 SWAP1 SWAP4 AND SWAP2 AND OR SWAP1 SSTORE PUSH2 0x1E0 DUP9 ADD MLOAD PUSH1 0xB DUP4 ADD SSTORE SWAP3 SWAP1 SWAP7 ADD MLOAD SWAP6 ADD SWAP1 DUP6 LT ISZERO PUSH2 0x58F JUMPI PUSH1 0x20 SWAP5 PUSH1 0xFF DUP1 NOT DUP4 SLOAD AND SWAP2 AND OR SWAP1 SSTORE PUSH1 0x40 MLOAD SWAP2 PUSH1 0x1 DUP1 PUSH1 0xA0 SHL SUB AND DUP3 MSTORE PUSH1 0x1 DUP1 PUSH1 0xA0 SHL SUB AND SWAP1 DUP3 PUSH0 MLOAD PUSH1 0x20 PUSH2 0x296B PUSH0 CODECOPY PUSH0 MLOAD SWAP1 PUSH0 MSTORE DUP6 CALLER SWAP4 LOG4 PUSH1 0x40 MLOAD SWAP1 DUP2 MSTORE RETURN JUMPDEST SWAP1 SWAP3 POP PUSH1 0x20 DUP2 RETURNDATASIZE PUSH1 0x20 GT PUSH2 0x19E0 JUMPI JUMPDEST DUP2 PUSH2 0x19D0 PUSH1 0x20 SWAP4 DUP4 PUSH2 0x23F4 JUMP JUMPDEST DUP2 ADD SUB SLT PUSH2 0x1A7 JUMPI MLOAD SWAP2 DUP5 PUSH2 0x1851 JUMP JUMPDEST RETURNDATASIZE SWAP2 POP PUSH2 0x19C3 JUMP JUMPDEST PUSH2 0x224 SWAP4 POP PUSH2 0x1A07 PUSH1 0x20 SWAP2 PUSH2 0x220 RETURNDATASIZE DUP2 GT PUSH2 0x611 JUMPI PUSH2 0x602 DUP2 DUP4 PUSH2 0x23F4 JUMP JUMPDEST SWAP4 POP PUSH2 0x181B JUMP JUMPDEST PUSH2 0x1A1B PUSH2 0x1A21 SWAP2 DUP5 PUSH2 0x23A2 JUMP JUMPDEST SWAP5 PUSH2 0x2313 JUMP JUMPDEST DUP4 ISZERO PUSH2 0x8EC JUMPI PUSH1 0x2 SLOAD SWAP1 PUSH1 0x40 MLOAD SWAP2 PUSH4 0x1C8F0847 PUSH1 0xE0 SHL DUP4 MSTORE DUP6 PUSH1 0x4 DUP5 ADD MSTORE PUSH1 0x24 DUP4 ADD MSTORE PUSH1 0x20 DUP3 PUSH1 0x44 DUP2 PUSH20 0x0 GAS DELEGATECALL SWAP2 DUP3 ISZERO PUSH2 0x5D7 JUMPI PUSH0 SWAP3 PUSH2 0x1BF0 JUMPI JUMPDEST POP PUSH1 0x1 PUSH1 0x1 PUSH1 0xA0 SHL SUB DUP9 AND SWAP5 DUP6 PUSH2 0x1B12 JUMPI PUSH2 0x1A8A DUP4 DUP3 PUSH2 0x275C JUMP JUMPDEST CALLVALUE SUB PUSH2 0x727 JUMPI PUSH2 0x220 SWAP6 PUSH2 0x1808 SWAP4 CALLER PUSH0 MSTORE PUSH1 0x1 PUSH1 0x20 MSTORE PUSH1 0x40 PUSH0 KECCAK256 PUSH0 DUP1 MSTORE PUSH1 0x20 MSTORE PUSH1 0x40 PUSH0 KECCAK256 PUSH2 0x1AB9 DUP5 DUP3 SLOAD PUSH2 0x275C JUMP JUMPDEST SWAP1 SSTORE PUSH1 0x1 DUP1 PUSH1 0xA0 SHL SUB PUSH1 0x3 SLOAD AND PUSH0 MSTORE PUSH1 0x1 PUSH1 0x20 MSTORE PUSH1 0x40 PUSH0 KECCAK256 PUSH0 DUP1 MSTORE PUSH1 0x20 MSTORE PUSH1 0x40 PUSH0 KECCAK256 PUSH2 0x1AE6 DUP3 DUP3 SLOAD PUSH2 0x275C JUMP JUMPDEST SWAP1 SSTORE JUMPDEST PUSH1 0x40 MLOAD SWAP3 DUP4 MSTORE PUSH1 0x20 DUP4 ADD MSTORE PUSH1 0x40 DUP3 ADD MSTORE PUSH0 MLOAD PUSH1 0x20 PUSH2 0x298B PUSH0 CODECOPY PUSH0 MLOAD SWAP1 PUSH0 MSTORE PUSH1 0x60 CALLER SWAP3 LOG2 SWAP1 PUSH2 0x179E JUMP JUMPDEST PUSH2 0x1B1C DUP4 DUP3 PUSH2 0x275C JUMP JUMPDEST PUSH1 0x40 MLOAD SWAP1 PUSH4 0x23B872DD PUSH1 0xE0 SHL DUP3 MSTORE CALLER PUSH1 0x4 DUP4 ADD MSTORE ADDRESS PUSH1 0x24 DUP4 ADD MSTORE PUSH1 0x44 DUP3 ADD MSTORE PUSH1 0x20 DUP2 PUSH1 0x64 DUP2 PUSH0 DUP12 GAS CALL SWAP1 DUP2 ISZERO PUSH2 0x5D7 JUMPI PUSH0 SWAP2 PUSH2 0x1BB6 JUMPI JUMPDEST POP ISZERO PUSH2 0x821 JUMPI PUSH2 0x220 SWAP6 PUSH2 0x1808 SWAP4 CALLER PUSH0 MSTORE PUSH1 0x1 PUSH1 0x20 MSTORE PUSH1 0x40 PUSH0 KECCAK256 DUP3 PUSH0 MSTORE PUSH1 0x20 MSTORE PUSH1 0x40 PUSH0 KECCAK256 PUSH2 0x1B82 DUP5 DUP3 SLOAD PUSH2 0x275C JUMP JUMPDEST SWAP1 SSTORE PUSH1 0x1 DUP1 PUSH1 0xA0 SHL SUB PUSH1 0x3 SLOAD AND PUSH0 MSTORE PUSH1 0x1 PUSH1 0x20 MSTORE PUSH1 0x40 PUSH0 KECCAK256 DUP3 PUSH0 MSTORE PUSH1 0x20 MSTORE PUSH1 0x40 PUSH0 KECCAK256 PUSH2 0x1BAF DUP3 DUP3 SLOAD PUSH2 0x275C JUMP JUMPDEST SWAP1 SSTORE PUSH2 0x1AE9 JUMP JUMPDEST SWAP1 POP PUSH1 0x20 DUP2 RETURNDATASIZE PUSH1 0x20 GT PUSH2 0x1BE8 JUMPI JUMPDEST DUP2 PUSH2 0x1BD1 PUSH1 0x20 SWAP4 DUP4 PUSH2 0x23F4 JUMP JUMPDEST DUP2 ADD SUB SLT PUSH2 0x1A7 JUMPI PUSH2 0x1BE2 SWAP1 PUSH2 0x242A JUMP JUMPDEST DUP12 PUSH2 0x1B53 JUMP JUMPDEST RETURNDATASIZE SWAP2 POP PUSH2 0x1BC4 JUMP JUMPDEST SWAP1 SWAP2 POP PUSH1 0x20 DUP2 RETURNDATASIZE PUSH1 0x20 GT PUSH2 0x1C1C JUMPI JUMPDEST DUP2 PUSH2 0x1C0C PUSH1 0x20 SWAP4 DUP4 PUSH2 0x23F4 JUMP JUMPDEST DUP2 ADD SUB SLT PUSH2 0x1A7 JUMPI MLOAD SWAP1 DUP10 PUSH2 0x1A6F JUMP JUMPDEST RETURNDATASIZE SWAP2 POP PUSH2 0x1BFF JUMP JUMPDEST CALLVALUE PUSH2 0x1A7 JUMPI PUSH2 0x220 PUSH2 0x1CD8 PUSH2 0x1C38 CALLDATASIZE PUSH2 0x21B4 JUMP JUMPDEST PUSH2 0x1C4E PUSH1 0xFF PUSH0 SWAP11 SWAP7 SWAP5 SWAP10 SWAP4 SWAP11 SLOAD PUSH1 0xA0 SHR AND PUSH2 0x2313 JUMP JUMPDEST CALLER PUSH0 MSTORE PUSH1 0x1 PUSH1 0x20 MSTORE PUSH1 0x40 PUSH0 KECCAK256 PUSH1 0x1 DUP1 PUSH1 0xA0 SHL SUB DUP10 AND PUSH0 MSTORE PUSH1 0x20 MSTORE PUSH2 0x1C78 DUP4 PUSH1 0x40 PUSH0 KECCAK256 SLOAD LT ISZERO PUSH2 0x235F JUMP JUMPDEST CALLER PUSH0 MSTORE PUSH1 0x1 PUSH1 0x20 MSTORE PUSH1 0x40 PUSH0 KECCAK256 PUSH1 0x1 DUP1 PUSH1 0xA0 SHL SUB DUP10 AND PUSH0 MSTORE PUSH1 0x20 MSTORE PUSH1 0x40 PUSH0 KECCAK256 PUSH2 0x1CA1 DUP5 DUP3 SLOAD PUSH2 0x23A2 JUMP JUMPDEST SWAP1 SSTORE PUSH1 0x40 MLOAD PUSH4 0x652E83D7 PUSH1 0xE0 SHL DUP2 MSTORE PUSH20 0x0 SWAP10 SWAP1 SWAP9 DUP10 SWAP6 DUP7 SWAP6 DUP10 DUP12 CALLER PUSH1 0x4 DUP11 ADD PUSH2 0x25BC JUMP JUMPDEST SUB DUP2 DUP8 GAS DELEGATECALL SWAP3 DUP4 ISZERO PUSH2 0x5D7 JUMPI PUSH0 SWAP4 PUSH2 0x1EF0 JUMPI JUMPDEST POP PUSH1 0x20 PUSH2 0x224 SWAP4 SWAP5 PUSH1 0x40 MLOAD SWAP5 DUP6 DUP1 SWAP3 PUSH4 0x63F88CDD PUSH1 0xE1 SHL DUP3 MSTORE PUSH2 0x1D11 PUSH1 0x4 DUP4 ADD DUP11 PUSH2 0x2224 JUMP JUMPDEST GAS DELEGATECALL SWAP3 DUP4 ISZERO PUSH2 0x5D7 JUMPI PUSH0 SWAP4 PUSH2 0x1EBC JUMPI JUMPDEST POP PUSH0 DUP4 DUP2 MSTORE PUSH1 0x4 PUSH1 0x20 SWAP1 DUP2 MSTORE PUSH1 0x40 SWAP2 DUP3 SWAP1 KECCAK256 DUP7 MLOAD DUP2 SLOAD PUSH1 0x1 PUSH1 0x1 PUSH1 0xA0 SHL SUB SWAP2 DUP3 AND PUSH1 0x1 PUSH1 0x1 PUSH1 0xA0 SHL SUB NOT SWAP2 DUP3 AND OR DUP4 SSTORE SWAP3 DUP9 ADD MLOAD PUSH1 0x1 DUP4 ADD DUP1 SLOAD SWAP2 DUP4 AND SWAP2 SWAP1 SWAP5 AND OR SWAP1 SWAP3 SSTORE SWAP2 DUP7 ADD MLOAD PUSH1 0x2 DUP4 ADD DUP1 SLOAD PUSH1 0x60 DUP10 ADD MLOAD PUSH1 0xFF PUSH1 0xA0 SHL SWAP1 ISZERO ISZERO PUSH1 0xA0 SHL AND SWAP3 SWAP1 SWAP4 AND PUSH1 0x1 PUSH1 0x1 PUSH1 0xA8 SHL SUB NOT SWAP1 SWAP4 AND SWAP3 SWAP1 SWAP3 OR OR DUP2 SSTORE PUSH2 0x200 SWAP2 PUSH1 0xC SWAP2 PUSH2 0x1DA8 SWAP1 PUSH2 0x453 JUMP JUMPDEST PUSH1 0xE0 DUP8 ADD MLOAD PUSH1 0x3 DUP3 ADD SSTORE PUSH2 0x100 DUP8 ADD MLOAD PUSH1 0x4 DUP3 ADD SSTORE PUSH2 0x120 DUP8 ADD MLOAD PUSH1 0x5 DUP3 ADD SSTORE PUSH2 0x140 DUP8 ADD MLOAD PUSH1 0x6 DUP1 DUP4 ADD SWAP2 SWAP1 SWAP2 SSTORE PUSH2 0x160 DUP9 ADD MLOAD PUSH1 0x7 DUP4 ADD SSTORE PUSH2 0x180 DUP9 ADD MLOAD PUSH1 0x8 DUP4 ADD SSTORE PUSH2 0x1A0 DUP9 ADD MLOAD PUSH1 0x9 DUP4 ADD DUP1 SLOAD PUSH1 0x1 PUSH1 0x1 PUSH1 0xA0 SHL SUB SWAP3 DUP4 AND PUSH1 0x1 PUSH1 0x1 PUSH1 0xA0 SHL SUB NOT SWAP2 DUP3 AND OR SWAP1 SWAP2 SSTORE PUSH2 0x1C0 DUP11 ADD MLOAD PUSH1 0xA DUP6 ADD DUP1 SLOAD SWAP2 SWAP1 SWAP4 AND SWAP2 AND OR SWAP1 SSTORE PUSH2 0x1E0 DUP9 ADD MLOAD PUSH1 0xB DUP4 ADD SSTORE SWAP3 SWAP1 SWAP7 ADD MLOAD SWAP6 ADD SWAP1 DUP6 LT ISZERO PUSH2 0x58F JUMPI PUSH1 0x20 SWAP5 PUSH1 0xFF DUP1 NOT DUP4 SLOAD AND SWAP2 AND OR SWAP1 SSTORE PUSH1 0x40 MLOAD SWAP1 PUSH1 0x1 DUP1 PUSH1 0xA0 SHL SUB AND SWAP2 DUP3 DUP3 MSTORE PUSH1 0x1 DUP1 PUSH1 0xA0 SHL SUB AND SWAP1 DUP4 PUSH0 MLOAD PUSH1 0x20 PUSH2 0x296B PUSH0 CODECOPY PUSH0 MLOAD SWAP1 PUSH0 MSTORE DUP7 CALLER SWAP4 LOG4 DUP1 PUSH2 0x1E8D JUMPI JUMPDEST POP PUSH1 0x40 MLOAD SWAP1 DUP2 MSTORE RETURN JUMPDEST PUSH32 0x957372C0E02D2882134CC0EEBBEF9E446634D8CCBB1CBB112BDEFDD3CF0A643C DUP4 PUSH1 0x40 MLOAD DUP5 DUP2 MSTORE LOG2 DUP3 PUSH2 0x1E84 JUMP JUMPDEST SWAP1 SWAP3 POP PUSH1 0x20 DUP2 RETURNDATASIZE PUSH1 0x20 GT PUSH2 0x1EE8 JUMPI JUMPDEST DUP2 PUSH2 0x1ED8 PUSH1 0x20 SWAP4 DUP4 PUSH2 0x23F4 JUMP JUMPDEST DUP2 ADD SUB SLT PUSH2 0x1A7 JUMPI MLOAD SWAP2 DUP5 PUSH2 0x1D21 JUMP JUMPDEST RETURNDATASIZE SWAP2 POP PUSH2 0x1ECB JUMP JUMPDEST PUSH2 0x224 SWAP4 POP PUSH2 0x1F0F PUSH1 0x20 SWAP2 PUSH2 0x220 RETURNDATASIZE DUP2 GT PUSH2 0x611 JUMPI PUSH2 0x602 DUP2 DUP4 PUSH2 0x23F4 JUMP JUMPDEST SWAP4 POP PUSH2 0x1CEB JUMP JUMPDEST CALLVALUE PUSH2 0x1A7 JUMPI PUSH1 0x40 CALLDATASIZE PUSH1 0x3 NOT ADD SLT PUSH2 0x1A7 JUMPI PUSH1 0x4 CALLDATALOAD PUSH2 0x1F32 PUSH2 0x2106 JUMP JUMPDEST PUSH2 0x1F3A PUSH2 0x2810 JUMP JUMPDEST PUSH1 0x1 PUSH1 0x1 PUSH1 0xA0 SHL SUB DUP2 AND SWAP2 DUP3 ISZERO PUSH2 0x1FFD JUMPI PUSH5 0x2540BE400 DUP2 GT PUSH2 0x1FAE JUMPI PUSH1 0x2 DUP2 SWAP1 SSTORE PUSH1 0x3 DUP1 SLOAD PUSH1 0x1 PUSH1 0x1 PUSH1 0xA0 SHL SUB NOT AND SWAP4 SWAP1 SWAP4 OR SWAP1 SWAP3 SSTORE PUSH1 0x40 DUP1 MLOAD SWAP3 DUP4 MSTORE PUSH1 0x1 PUSH1 0x1 PUSH1 0xA0 SHL SUB SWAP2 SWAP1 SWAP2 AND PUSH1 0x20 DUP4 ADD MSTORE PUSH32 0x14BDAADAED0453E7B5B66195B42156BA995B9E5ABD0DA98368839851D69AD889 SWAP2 LOG1 STOP JUMPDEST PUSH1 0x40 MLOAD PUSH3 0x461BCD PUSH1 0xE5 SHL DUP2 MSTORE PUSH1 0x20 PUSH1 0x4 DUP3 ADD MSTORE PUSH1 0x21 PUSH1 0x24 DUP3 ADD MSTORE PUSH32 0x436F6D6D697373696F6E2070657263656E7461676520697320746F6F20686967 PUSH1 0x44 DUP3 ADD MSTORE PUSH1 0xD PUSH1 0xFB SHL PUSH1 0x64 DUP3 ADD MSTORE PUSH1 0x84 SWAP1 REVERT JUMPDEST PUSH1 0x40 MLOAD PUSH3 0x461BCD PUSH1 0xE5 SHL DUP2 MSTORE PUSH1 0x20 PUSH1 0x4 DUP3 ADD MSTORE PUSH1 0x2F PUSH1 0x24 DUP3 ADD MSTORE PUSH32 0x436F6D6D697373696F6E20726563697069656E742063616E6E6F742062652074 PUSH1 0x44 DUP3 ADD MSTORE PUSH15 0x6865207A65726F2061646472657373 PUSH1 0x88 SHL PUSH1 0x64 DUP3 ADD MSTORE PUSH1 0x84 SWAP1 REVERT JUMPDEST CALLVALUE PUSH2 0x1A7 JUMPI PUSH0 CALLDATASIZE PUSH1 0x3 NOT ADD SLT PUSH2 0x1A7 JUMPI PUSH1 0x3 SLOAD PUSH1 0x40 MLOAD PUSH1 0x1 PUSH1 0x1 PUSH1 0xA0 SHL SUB SWAP1 SWAP2 AND DUP2 MSTORE PUSH1 0x20 SWAP1 RETURN JUMPDEST CALLVALUE PUSH2 0x1A7 JUMPI PUSH2 0x220 PUSH2 0x387 PUSH2 0x2096 CALLDATASIZE PUSH2 0x2132 JUMP JUMPDEST SWAP3 PUSH2 0x20B3 PUSH1 0xFF PUSH0 SWAP14 SWAP10 SWAP8 SWAP13 SWAP7 SWAP14 SWAP12 SWAP11 SWAP12 SWAP5 SWAP4 SWAP5 SLOAD PUSH1 0xA0 SHR AND PUSH2 0x2313 JUMP JUMPDEST CALLER PUSH0 MSTORE PUSH1 0x1 PUSH1 0x20 MSTORE PUSH1 0x40 PUSH0 KECCAK256 PUSH1 0x1 DUP1 PUSH1 0xA0 SHL SUB DUP3 AND PUSH0 MSTORE PUSH1 0x20 MSTORE PUSH2 0x20DD DUP7 PUSH1 0x40 PUSH0 KECCAK256 SLOAD LT ISZERO PUSH2 0x235F JUMP JUMPDEST CALLER PUSH0 MSTORE PUSH1 0x1 PUSH1 0x20 MSTORE PUSH1 0x40 PUSH0 KECCAK256 PUSH1 0x1 DUP1 PUSH1 0xA0 SHL SUB DUP3 AND PUSH0 MSTORE PUSH1 0x20 MSTORE PUSH1 0x40 PUSH0 KECCAK256 PUSH2 0x350 DUP8 DUP3 SLOAD PUSH2 0x23A2 JUMP JUMPDEST PUSH1 0x24 CALLDATALOAD SWAP1 PUSH1 0x1 PUSH1 0x1 PUSH1 0xA0 SHL SUB DUP3 AND DUP3 SUB PUSH2 0x1A7 JUMPI JUMP JUMPDEST PUSH1 0x4 CALLDATALOAD SWAP1 PUSH1 0x1 PUSH1 0x1 PUSH1 0xA0 SHL SUB DUP3 AND DUP3 SUB PUSH2 0x1A7 JUMPI JUMP JUMPDEST PUSH2 0x140 SWAP1 PUSH1 0x3 NOT ADD SLT PUSH2 0x1A7 JUMPI PUSH1 0x4 CALLDATALOAD PUSH1 0x1 PUSH1 0x1 PUSH1 0xA0 SHL SUB DUP2 AND DUP2 SUB PUSH2 0x1A7 JUMPI SWAP1 PUSH1 0x24 CALLDATALOAD PUSH1 0x1 PUSH1 0x1 PUSH1 0xA0 SHL SUB DUP2 AND DUP2 SUB PUSH2 0x1A7 JUMPI SWAP1 PUSH1 0x44 CALLDATALOAD SWAP1 PUSH1 0x64 CALLDATALOAD SWAP1 PUSH1 0x84 CALLDATALOAD SWAP1 PUSH1 0xA4 CALLDATALOAD SWAP1 PUSH1 0xC4 CALLDATALOAD PUSH1 0x1 PUSH1 0x1 PUSH1 0xA0 SHL SUB DUP2 AND DUP2 SUB PUSH2 0x1A7 JUMPI SWAP1 PUSH1 0xE4 CALLDATALOAD PUSH1 0x1 PUSH1 0x1 PUSH1 0xA0 SHL SUB DUP2 AND DUP2 SUB PUSH2 0x1A7 JUMPI SWAP1 PUSH2 0x104 CALLDATALOAD SWAP1 PUSH2 0x124 CALLDATALOAD PUSH1 0x6 DUP2 LT ISZERO PUSH2 0x1A7 JUMPI SWAP1 JUMP JUMPDEST PUSH1 0xE0 SWAP1 PUSH1 0x3 NOT ADD SLT PUSH2 0x1A7 JUMPI PUSH1 0x4 CALLDATALOAD PUSH1 0x1 PUSH1 0x1 PUSH1 0xA0 SHL SUB DUP2 AND DUP2 SUB PUSH2 0x1A7 JUMPI SWAP1 PUSH1 0x24 CALLDATALOAD PUSH1 0x1 PUSH1 0x1 PUSH1 0xA0 SHL SUB DUP2 AND DUP2 SUB PUSH2 0x1A7 JUMPI SWAP1 PUSH1 0x44 CALLDATALOAD SWAP1 PUSH1 0x64 CALLDATALOAD SWAP1 PUSH1 0x84 CALLDATALOAD PUSH1 0x1 PUSH1 0x1 PUSH1 0xA0 SHL SUB DUP2 AND DUP2 SUB PUSH2 0x1A7 JUMPI SWAP1 PUSH1 0xA4 CALLDATALOAD SWAP1 PUSH1 0xC4 CALLDATALOAD PUSH1 0x6 DUP2 LT ISZERO PUSH2 0x1A7 JUMPI SWAP1 JUMP JUMPDEST SWAP1 PUSH1 0x6 DUP3 LT ISZERO PUSH2 0x58F JUMPI MSTORE JUMP JUMPDEST SWAP1 PUSH2 0x200 DUP1 PUSH2 0x2311 SWAP4 PUSH1 0x1 DUP1 PUSH1 0xA0 SHL SUB DUP2 MLOAD AND DUP5 MSTORE PUSH1 0x1 DUP1 PUSH1 0xA0 SHL SUB PUSH1 0x20 DUP3 ADD MLOAD AND PUSH1 0x20 DUP6 ADD MSTORE PUSH1 0x1 DUP1 PUSH1 0xA0 SHL SUB PUSH1 0x40 DUP3 ADD MLOAD AND PUSH1 0x40 DUP6 ADD MSTORE PUSH1 0x60 DUP2 ADD MLOAD ISZERO ISZERO PUSH1 0x60 DUP6 ADD MSTORE PUSH1 0x80 DUP2 ADD MLOAD ISZERO ISZERO PUSH1 0x80 DUP6 ADD MSTORE PUSH1 0xA0 DUP2 ADD MLOAD ISZERO ISZERO PUSH1 0xA0 DUP6 ADD MSTORE PUSH1 0xC0 DUP2 ADD MLOAD ISZERO ISZERO PUSH1 0xC0 DUP6 ADD MSTORE PUSH1 0xE0 DUP2 ADD MLOAD PUSH1 0xE0 DUP6 ADD MSTORE PUSH2 0x100 DUP2 ADD MLOAD PUSH2 0x100 DUP6 ADD MSTORE PUSH2 0x120 DUP2 ADD MLOAD PUSH2 0x120 DUP6 ADD MSTORE PUSH2 0x140 DUP2 ADD MLOAD PUSH2 0x140 DUP6 ADD MSTORE PUSH2 0x160 DUP2 ADD MLOAD PUSH2 0x160 DUP6 ADD MSTORE PUSH2 0x180 DUP2 ADD MLOAD PUSH2 0x180 DUP6 ADD MSTORE PUSH1 0x1 DUP1 PUSH1 0xA0 SHL SUB PUSH2 0x1A0 DUP3 ADD MLOAD AND PUSH2 0x1A0 DUP6 ADD MSTORE PUSH1 0x1 DUP1 PUSH1 0xA0 SHL SUB PUSH2 0x1C0 DUP3 ADD MLOAD AND PUSH2 0x1C0 DUP6 ADD MSTORE PUSH2 0x1E0 DUP2 ADD MLOAD PUSH2 0x1E0 DUP6 ADD MSTORE ADD MLOAD SWAP2 ADD SWAP1 PUSH2 0x2217 JUMP JUMPDEST JUMP JUMPDEST ISZERO PUSH2 0x231A JUMPI JUMP JUMPDEST PUSH1 0x40 MLOAD PUSH3 0x461BCD PUSH1 0xE5 SHL DUP2 MSTORE PUSH1 0x20 PUSH1 0x4 DUP3 ADD MSTORE PUSH1 0x1E PUSH1 0x24 DUP3 ADD MSTORE PUSH32 0x436F6E74726163742069732063757272656E746C792064697361626C65640000 PUSH1 0x44 DUP3 ADD MSTORE PUSH1 0x64 SWAP1 REVERT JUMPDEST ISZERO PUSH2 0x2366 JUMPI JUMP JUMPDEST PUSH1 0x40 MLOAD PUSH3 0x461BCD PUSH1 0xE5 SHL DUP2 MSTORE PUSH1 0x20 PUSH1 0x4 DUP3 ADD MSTORE PUSH1 0x14 PUSH1 0x24 DUP3 ADD MSTORE PUSH20 0x496E73756666696369656E742062616C616E6365 PUSH1 0x60 SHL PUSH1 0x44 DUP3 ADD MSTORE PUSH1 0x64 SWAP1 REVERT JUMPDEST SWAP2 SWAP1 DUP3 SUB SWAP2 DUP3 GT PUSH2 0x23AF JUMPI JUMP JUMPDEST PUSH4 0x4E487B71 PUSH1 0xE0 SHL PUSH0 MSTORE PUSH1 0x11 PUSH1 0x4 MSTORE PUSH1 0x24 PUSH0 REVERT JUMPDEST PUSH2 0x220 DUP2 ADD SWAP1 DUP2 LT PUSH8 0xFFFFFFFFFFFFFFFF DUP3 GT OR PUSH2 0x23E0 JUMPI PUSH1 0x40 MSTORE JUMP JUMPDEST PUSH4 0x4E487B71 PUSH1 0xE0 SHL PUSH0 MSTORE PUSH1 0x41 PUSH1 0x4 MSTORE PUSH1 0x24 PUSH0 REVERT JUMPDEST SWAP1 PUSH1 0x1F DUP1 NOT SWAP2 ADD AND DUP2 ADD SWAP1 DUP2 LT PUSH8 0xFFFFFFFFFFFFFFFF DUP3 GT OR PUSH2 0x23E0 JUMPI PUSH1 0x40 MSTORE JUMP JUMPDEST MLOAD SWAP1 PUSH1 0x1 PUSH1 0x1 PUSH1 0xA0 SHL SUB DUP3 AND DUP3 SUB PUSH2 0x1A7 JUMPI JUMP JUMPDEST MLOAD SWAP1 DUP2 ISZERO ISZERO DUP3 SUB PUSH2 0x1A7 JUMPI JUMP JUMPDEST SWAP1 DUP2 PUSH2 0x220 SWAP2 SUB SLT PUSH2 0x1A7 JUMPI PUSH2 0x200 PUSH1 0x40 MLOAD SWAP2 PUSH2 0x2453 DUP4 PUSH2 0x23C3 JUMP JUMPDEST PUSH2 0x245C DUP2 PUSH2 0x2416 JUMP JUMPDEST DUP4 MSTORE PUSH2 0x246A PUSH1 0x20 DUP3 ADD PUSH2 0x2416 JUMP JUMPDEST PUSH1 0x20 DUP5 ADD MSTORE PUSH2 0x247B PUSH1 0x40 DUP3 ADD PUSH2 0x2416 JUMP JUMPDEST PUSH1 0x40 DUP5 ADD MSTORE PUSH2 0x248C PUSH1 0x60 DUP3 ADD PUSH2 0x242A JUMP JUMPDEST PUSH1 0x60 DUP5 ADD MSTORE PUSH2 0x249D PUSH1 0x80 DUP3 ADD PUSH2 0x242A JUMP JUMPDEST PUSH1 0x80 DUP5 ADD MSTORE PUSH2 0x24AE PUSH1 0xA0 DUP3 ADD PUSH2 0x242A JUMP JUMPDEST PUSH1 0xA0 DUP5 ADD MSTORE PUSH2 0x24BF PUSH1 0xC0 DUP3 ADD PUSH2 0x242A JUMP JUMPDEST PUSH1 0xC0 DUP5 ADD MSTORE PUSH1 0xE0 DUP2 ADD MLOAD PUSH1 0xE0 DUP5 ADD MSTORE PUSH2 0x100 DUP2 ADD MLOAD PUSH2 0x100 DUP5 ADD MSTORE PUSH2 0x120 DUP2 ADD MLOAD PUSH2 0x120 DUP5 ADD MSTORE PUSH2 0x140 DUP2 ADD MLOAD PUSH2 0x140 DUP5 ADD MSTORE PUSH2 0x160 DUP2 ADD MLOAD PUSH2 0x160 DUP5 ADD MSTORE PUSH2 0x180 DUP2 ADD MLOAD PUSH2 0x180 DUP5 ADD MSTORE PUSH2 0x2517 PUSH2 0x1A0 DUP3 ADD PUSH2 0x2416 JUMP JUMPDEST PUSH2 0x1A0 DUP5 ADD MSTORE PUSH2 0x252A PUSH2 0x1C0 DUP3 ADD PUSH2 0x2416 JUMP JUMPDEST PUSH2 0x1C0 DUP5 ADD MSTORE PUSH2 0x1E0 DUP2 ADD MLOAD PUSH2 0x1E0 DUP5 ADD MSTORE ADD MLOAD PUSH1 0x6 DUP2 LT ISZERO PUSH2 0x1A7 JUMPI PUSH2 0x200 DUP3 ADD MSTORE SWAP1 JUMP JUMPDEST PUSH1 0x1 PUSH1 0x1 PUSH1 0xA0 SHL SUB SWAP2 DUP3 AND DUP2 MSTORE SWAP2 DUP2 AND PUSH1 0x20 DUP4 ADD MSTORE SWAP2 DUP3 AND PUSH1 0x40 DUP3 ADD MSTORE PUSH1 0x60 DUP2 ADD SWAP3 SWAP1 SWAP3 MSTORE PUSH1 0x80 DUP3 ADD SWAP3 SWAP1 SWAP3 MSTORE PUSH1 0xA0 DUP2 ADD SWAP3 SWAP1 SWAP3 MSTORE PUSH1 0xC0 DUP3 ADD SWAP3 SWAP1 SWAP3 MSTORE SWAP2 DUP2 AND PUSH1 0xE0 DUP4 ADD MSTORE SWAP1 SWAP2 AND PUSH2 0x100 DUP3 ADD MSTORE PUSH2 0x120 DUP2 ADD SWAP2 SWAP1 SWAP2 MSTORE PUSH2 0x160 DUP2 ADD SWAP3 SWAP2 PUSH2 0x2311 SWAP2 PUSH2 0x140 ADD SWAP1 PUSH2 0x2217 JUMP JUMPDEST PUSH1 0x1 PUSH1 0x1 PUSH1 0xA0 SHL SUB SWAP2 DUP3 AND DUP2 MSTORE SWAP2 DUP2 AND PUSH1 0x20 DUP4 ADD MSTORE SWAP2 DUP3 AND PUSH1 0x40 DUP3 ADD MSTORE PUSH1 0x60 DUP2 ADD SWAP3 SWAP1 SWAP3 MSTORE PUSH0 PUSH1 0x80 DUP4 ADD DUP2 SWAP1 MSTORE PUSH1 0xA0 DUP4 ADD SWAP4 SWAP1 SWAP4 MSTORE PUSH1 0xC0 DUP3 ADD DUP4 SWAP1 MSTORE SWAP1 SWAP3 AND PUSH1 0xE0 DUP4 ADD MSTORE PUSH2 0x100 DUP3 ADD MSTORE PUSH2 0x120 DUP2 ADD SWAP2 SWAP1 SWAP2 MSTORE PUSH2 0x160 DUP2 ADD SWAP3 SWAP2 PUSH2 0x2311 SWAP2 PUSH2 0x140 ADD SWAP1 PUSH2 0x2217 JUMP JUMPDEST ISZERO PUSH2 0x262B JUMPI JUMP JUMPDEST PUSH1 0x40 MLOAD PUSH3 0x461BCD PUSH1 0xE5 SHL DUP2 MSTORE PUSH1 0x20 PUSH1 0x4 DUP3 ADD MSTORE PUSH1 0x26 PUSH1 0x24 DUP3 ADD MSTORE PUSH32 0x4F6E6C7920636F756E74657270617274792063616E2063616C6C207468697320 PUSH1 0x44 DUP3 ADD MSTORE PUSH6 0x1B595D1A1BD9 PUSH1 0xD2 SHL PUSH1 0x64 DUP3 ADD MSTORE PUSH1 0x84 SWAP1 REVERT JUMPDEST ISZERO PUSH2 0x2686 JUMPI JUMP JUMPDEST PUSH1 0x40 MLOAD PUSH3 0x461BCD PUSH1 0xE5 SHL DUP2 MSTORE PUSH1 0x20 PUSH1 0x4 DUP3 ADD MSTORE PUSH1 0x16 PUSH1 0x24 DUP3 ADD MSTORE PUSH22 0x1119585B081B5D5CDD081899481D1DDBC81CDA591959 PUSH1 0x52 SHL PUSH1 0x44 DUP3 ADD MSTORE PUSH1 0x64 SWAP1 REVERT JUMPDEST ISZERO PUSH2 0x26CB JUMPI JUMP JUMPDEST PUSH1 0x40 MLOAD PUSH3 0x461BCD PUSH1 0xE5 SHL DUP2 MSTORE PUSH1 0x20 PUSH1 0x4 DUP3 ADD MSTORE PUSH1 0x17 PUSH1 0x24 DUP3 ADD MSTORE PUSH32 0x4465616C206D757374206265206E6F74207369676E6564000000000000000000 PUSH1 0x44 DUP3 ADD MSTORE PUSH1 0x64 SWAP1 REVERT JUMPDEST ISZERO PUSH2 0x2717 JUMPI JUMP JUMPDEST PUSH1 0x40 MLOAD PUSH3 0x461BCD PUSH1 0xE5 SHL DUP2 MSTORE PUSH1 0x20 PUSH1 0x4 DUP3 ADD MSTORE PUSH1 0x17 PUSH1 0x24 DUP3 ADD MSTORE PUSH32 0x43616E7420656469742066696E6973686564206465616C000000000000000000 PUSH1 0x44 DUP3 ADD MSTORE PUSH1 0x64 SWAP1 REVERT JUMPDEST SWAP2 SWAP1 DUP3 ADD DUP1 SWAP3 GT PUSH2 0x23AF JUMPI JUMP JUMPDEST ISZERO PUSH2 0x2770 JUMPI JUMP JUMPDEST PUSH1 0x40 MLOAD PUSH3 0x461BCD PUSH1 0xE5 SHL DUP2 MSTORE PUSH1 0x20 PUSH1 0x4 DUP3 ADD MSTORE PUSH1 0x26 PUSH1 0x24 DUP3 ADD MSTORE PUSH32 0x4F6E6C79206120706172747920746F20746865206465616C2063616E2072656A PUSH1 0x44 DUP3 ADD MSTORE PUSH6 0x1958DD081A5D PUSH1 0xD2 SHL PUSH1 0x64 DUP3 ADD MSTORE PUSH1 0x84 SWAP1 REVERT JUMPDEST ISZERO PUSH2 0x27CB JUMPI JUMP JUMPDEST PUSH1 0x40 MLOAD PUSH3 0x461BCD PUSH1 0xE5 SHL DUP2 MSTORE PUSH1 0x20 PUSH1 0x4 DUP3 ADD MSTORE PUSH1 0x18 PUSH1 0x24 DUP3 ADD MSTORE PUSH32 0x4465616C206D757374206265206E6F7420737461727465640000000000000000 PUSH1 0x44 DUP3 ADD MSTORE PUSH1 0x64 SWAP1 REVERT JUMPDEST PUSH0 SLOAD PUSH1 0x1 PUSH1 0x1 PUSH1 0xA0 SHL SUB AND CALLER SUB PUSH2 0x2823 JUMPI JUMP JUMPDEST PUSH4 0x118CDAA7 PUSH1 0xE0 SHL PUSH0 MSTORE CALLER PUSH1 0x4 MSTORE PUSH1 0x24 PUSH0 REVERT JUMPDEST SWAP1 DUP3 ISZERO PUSH2 0x2962 JUMPI PUSH1 0x1 PUSH1 0x1 PUSH1 0xA0 SHL SUB DUP2 AND DUP1 PUSH2 0x28A5 JUMPI POP PUSH0 DUP1 DUP1 DUP1 DUP7 PUSH1 0x1 PUSH1 0x1 PUSH1 0xA0 SHL SUB DUP8 AND DUP3 CALL ISZERO PUSH2 0x5D7 JUMPI PUSH31 0x1A143D5B175701CB3246058FFAC3D63945192075A926FF73A19930F09D587A SWAP2 JUMPDEST PUSH1 0x40 DUP1 MLOAD SWAP5 DUP6 MSTORE PUSH1 0x1 PUSH1 0x1 PUSH1 0xA0 SHL SUB SWAP3 DUP4 AND PUSH1 0x20 DUP7 ADD MSTORE SWAP2 AND SWAP3 LOG2 PUSH1 0x1 SWAP1 JUMP JUMPDEST PUSH1 0x40 MLOAD PUSH4 0xA9059CBB PUSH1 0xE0 SHL DUP2 MSTORE PUSH1 0x1 PUSH1 0x1 PUSH1 0xA0 SHL SUB DUP5 AND PUSH1 0x4 DUP3 ADD MSTORE PUSH1 0x24 DUP2 ADD DUP6 SWAP1 MSTORE SWAP3 SWAP1 PUSH1 0x20 SWAP1 DUP5 SWAP1 PUSH1 0x44 SWAP1 DUP3 SWAP1 PUSH0 SWAP1 GAS CALL DUP1 ISZERO PUSH2 0x5D7 JUMPI PUSH2 0x290A JUMPI JUMPDEST PUSH31 0x1A143D5B175701CB3246058FFAC3D63945192075A926FF73A19930F09D587A SWAP3 POP PUSH2 0x2885 JUMP JUMPDEST PUSH1 0x20 DUP4 RETURNDATASIZE PUSH1 0x20 GT PUSH2 0x295A JUMPI JUMPDEST DUP2 PUSH2 0x2923 PUSH1 0x20 SWAP4 DUP4 PUSH2 0x23F4 JUMP JUMPDEST DUP2 ADD SUB SLT PUSH2 0x1A7 JUMPI PUSH2 0x2954 PUSH31 0x1A143D5B175701CB3246058FFAC3D63945192075A926FF73A19930F09D587A SWAP4 PUSH2 0x242A JUMP JUMPDEST POP PUSH2 0x28E3 JUMP JUMPDEST RETURNDATASIZE SWAP2 POP PUSH2 0x2916 JUMP JUMPDEST POP POP POP PUSH1 0x1 SWAP1 JUMP INVALID MCOPY MUL PUSH10 0x8C1650D6CBE1F7E8A486 MULMOD 0xD0 0xDA GASLIMIT 0xAD PUSH32 0x5E4C13CD8B196F82965C0AB0D502D7E648DD130FC184D383E55BB126AC4C9C60 0xE8 0xF9 0x4B CREATE GAS 0xCD CREATE2 JUMPI 0xBA 0x2D SLOAD SIGNEXTEND SELFBALANCE LOG2 PUSH5 0x6970667358 0x22 SLT KECCAK256 RETURNDATACOPY PUSH11 0x6A0E6500472FA75753A9AD ORIGIN 0xC6 SELFBALANCE 0xE7 0x25 JUMPI RETURNDATASIZE 0xC4 MLOAD SWAP2 0xD 0x4D PUSH9 0xE2341CC0C25F64736F PUSH13 0x634300081C0033000000000000 "
		},
		"gasEstimates": {
			"creation": {
				"codeDepositCost": "2144000",
				"executionCost": "infinite",
				"totalCost": "infinite"
			},
			"external": {
				"balanceOf(address)": "2701",
				"balanceOf(address,address)": "3178",
				"balances(address,address)": "3049",
				"commissionRecipient()": "2294",
				"contractEnabled()": "2419",
				"counterpartyAcceptSidedDeal(bytes32)": "infinite",
				"createDeal(address,address,uint256,uint256,address,uint256,uint8)": "infinite",
				"createSidedDeal(address,address,uint256,uint256,uint256,uint256,address,address,uint256,uint8)": "infinite",
				"deals(bytes32)": "28454",
				"deposit(address,uint256)": "infinite",
				"depositCommissionPercent()": "2600",
				"disableContract()": "28999",
				"enableContract()": "28802",
				"getCompletedDeals()": "2798",
				"getDeal(bytes32)": "infinite",
				"getTotalDeals()": "2468",
				"owner()": "2645",
				"payUpCounterpartyAcceptSidedDeal(bytes32)": "infinite",
				"payUpCreateDeal(address,address,uint256,uint256,address,uint256,uint8)": "infinite",
				"payUpCreateSidedDeal(address,address,uint256,uint256,uint256,uint256,address,address,uint256,uint8)": "infinite",
				"rejectSidedDeal(bytes32)": "46872",
				"renounceOwnership()": "28306",
				"setDepositCommission(uint256,address)": "50160",
				"totalCompletedDeals()": "2776",
				"totalDeals()": "2666",
				"transfer(address,address,uint256)": "51888",
				"transferOwnership(address)": "28734",
				"withdraw(address,uint256)": "infinite",
				"withdrawRejectSidedDeal(bytes32)": "infinite"
			}
		},
		"methodIdentifiers": {
			"balanceOf(address)": "70a08231",
			"balanceOf(address,address)": "f7888aec",
			"balances(address,address)": "c23f001f",
			"commissionRecipient()": "06fd154a",
			"contractEnabled()": "41b3a0d9",
			"counterpartyAcceptSidedDeal(bytes32)": "4187129c",
			"createDeal(address,address,uint256,uint256,address,uint256,uint8)": "17b52b50",
			"createSidedDeal(address,address,uint256,uint256,uint256,uint256,address,address,uint256,uint8)": "007e8bd3",
			"deals(bytes32)": "81cd872a",
			"deposit(address,uint256)": "47e7ef24",
			"depositCommissionPercent()": "899a3ffd",
			"disableContract()": "894ba833",
			"enableContract()": "367edd32",
			"getCompletedDeals()": "ed50ab8a",
			"getDeal(bytes32)": "51a6fad5",
			"getTotalDeals()": "5379719b",
			"owner()": "8da5cb5b",
			"payUpCounterpartyAcceptSidedDeal(bytes32)": "bb06c1a4",
			"payUpCreateDeal(address,address,uint256,uint256,address,uint256,uint8)": "28d5a050",
			"payUpCreateSidedDeal(address,address,uint256,uint256,uint256,uint256,address,address,uint256,uint8)": "cfadf6c7",
			"rejectSidedDeal(bytes32)": "8deea5fb",
			"renounceOwnership()": "715018a6",
			"setDepositCommission(uint256,address)": "15f8a314",
			"totalCompletedDeals()": "e08560a4",
			"totalDeals()": "966d1f1d",
			"transfer(address,address,uint256)": "beabacc8",
			"transferOwnership(address)": "f2fde38b",
			"withdraw(address,uint256)": "f3fef3a3",
			"withdrawRejectSidedDeal(bytes32)": "80ccb070"
		}
	},
	"abi": [
		{
			"inputs": [
				{
					"internalType": "uint256",
					"name": "_depositCommissionPercent",
					"type": "uint256"
				},
				{
					"internalType": "address",
					"name": "_commissionRecipient",
					"type": "address"
				}
			],
			"stateMutability": "nonpayable",
			"type": "constructor"
		},
		{
			"inputs": [
				{
					"internalType": "address",
					"name": "owner",
					"type": "address"
				}
			],
			"name": "OwnableInvalidOwner",
			"type": "error"
		},
		{
			"inputs": [
				{
					"internalType": "address",
					"name": "account",
					"type": "address"
				}
			],
			"name": "OwnableUnauthorizedAccount",
			"type": "error"
		},
		{
			"anonymous": false,
			"inputs": [
				{
					"indexed": true,
					"internalType": "bytes32",
					"name": "dealHash",
					"type": "bytes32"
				},
				{
					"indexed": true,
					"internalType": "address",
					"name": "initiator",
					"type": "address"
				},
				{
					"indexed": true,
					"internalType": "address",
					"name": "counterparty",
					"type": "address"
				},
				{
					"indexed": false,
					"internalType": "address",
					"name": "mediator",
					"type": "address"
				},
				{
					"indexed": false,
					"internalType": "uint256",
					"name": "amount",
					"type": "uint256"
				}
			],
			"name": "AddDepositByCounterparty",
			"type": "event"
		},
		{
			"anonymous": false,
			"inputs": [
				{
					"indexed": true,
					"internalType": "bytes32",
					"name": "dealHash",
					"type": "bytes32"
				},
				{
					"indexed": true,
					"internalType": "address",
					"name": "initiator",
					"type": "address"
				},
				{
					"indexed": true,
					"internalType": "address",
					"name": "counterparty",
					"type": "address"
				},
				{
					"indexed": false,
					"internalType": "address",
					"name": "mediator",
					"type": "address"
				},
				{
					"indexed": false,
					"internalType": "uint256",
					"name": "amount",
					"type": "uint256"
				}
			],
			"name": "AddDepositByInitiator",
			"type": "event"
		},
		{
			"anonymous": false,
			"inputs": [
				{
					"indexed": false,
					"internalType": "uint256",
					"name": "newCommissionPercent",
					"type": "uint256"
				},
				{
					"indexed": false,
					"internalType": "address",
					"name": "newCommissionRecipient",
					"type": "address"
				}
			],
			"name": "CommissionChanged",
			"type": "event"
		},
		{
			"anonymous": false,
			"inputs": [
				{
					"indexed": true,
					"internalType": "address",
					"name": "by",
					"type": "address"
				}
			],
			"name": "ContractDisabled",
			"type": "event"
		},
		{
			"anonymous": false,
			"inputs": [
				{
					"indexed": true,
					"internalType": "address",
					"name": "by",
					"type": "address"
				}
			],
			"name": "ContractEnabled",
			"type": "event"
		},
		{
			"anonymous": false,
			"inputs": [
				{
					"indexed": false,
					"internalType": "bool",
					"name": "status",
					"type": "bool"
				}
			],
			"name": "ContractStatusChanged",
			"type": "event"
		},
		{
			"anonymous": false,
			"inputs": [
				{
					"indexed": true,
					"internalType": "bytes32",
					"name": "dealHash",
					"type": "bytes32"
				},
				{
					"indexed": true,
					"internalType": "address",
					"name": "initiator",
					"type": "address"
				},
				{
					"indexed": true,
					"internalType": "address",
					"name": "counterparty",
					"type": "address"
				},
				{
					"indexed": false,
					"internalType": "address",
					"name": "sender",
					"type": "address"
				},
				{
					"indexed": false,
					"internalType": "address",
					"name": "mediator",
					"type": "address"
				}
			],
			"name": "DealCanceled",
			"type": "event"
		},
		{
			"anonymous": false,
			"inputs": [
				{
					"indexed": true,
					"internalType": "bytes32",
					"name": "dealHash",
					"type": "bytes32"
				},
				{
					"indexed": true,
					"internalType": "address",
					"name": "initiator",
					"type": "address"
				},
				{
					"indexed": true,
					"internalType": "address",
					"name": "counterparty",
					"type": "address"
				},
				{
					"indexed": false,
					"internalType": "address",
					"name": "sender",
					"type": "address"
				},
				{
					"indexed": false,
					"internalType": "address",
					"name": "mediator",
					"type": "address"
				}
			],
			"name": "DealCompited",
			"type": "event"
		},
		{
			"anonymous": false,
			"inputs": [
				{
					"indexed": true,
					"internalType": "bytes32",
					"name": "dealHash",
					"type": "bytes32"
				},
				{
					"indexed": true,
					"internalType": "address",
					"name": "initiator",
					"type": "address"
				},
				{
					"indexed": true,
					"internalType": "address",
					"name": "counterparty",
					"type": "address"
				},
				{
					"indexed": false,
					"internalType": "address",
					"name": "mediator",
					"type": "address"
				}
			],
			"name": "DealCreated",
			"type": "event"
		},
		{
			"anonymous": false,
			"inputs": [
				{
					"indexed": true,
					"internalType": "bytes32",
					"name": "dealHash",
					"type": "bytes32"
				},
				{
					"indexed": true,
					"internalType": "address",
					"name": "initiator",
					"type": "address"
				},
				{
					"indexed": true,
					"internalType": "address",
					"name": "counterparty",
					"type": "address"
				},
				{
					"indexed": false,
					"internalType": "address",
					"name": "mediator",
					"type": "address"
				}
			],
			"name": "DealRequestCreated",
			"type": "event"
		},
		{
			"anonymous": false,
			"inputs": [
				{
					"indexed": true,
					"internalType": "address",
					"name": "user",
					"type": "address"
				},
				{
					"indexed": false,
					"internalType": "uint256",
					"name": "amount",
					"type": "uint256"
				},
				{
					"indexed": false,
					"internalType": "uint256",
					"name": "commission",
					"type": "uint256"
				},
				{
					"indexed": false,
					"internalType": "address",
					"name": "token",
					"type": "address"
				}
			],
			"name": "Deposit",
			"type": "event"
		},
		{
			"anonymous": false,
			"inputs": [
				{
					"indexed": true,
					"internalType": "bytes32",
					"name": "dealHash",
					"type": "bytes32"
				},
				{
					"indexed": true,
					"internalType": "address",
					"name": "initiator",
					"type": "address"
				},
				{
					"indexed": true,
					"internalType": "address",
					"name": "counterparty",
					"type": "address"
				},
				{
					"indexed": false,
					"internalType": "address",
					"name": "mediator",
					"type": "address"
				},
				{
					"indexed": false,
					"internalType": "address",
					"name": "sender",
					"type": "address"
				},
				{
					"indexed": false,
					"internalType": "uint256",
					"name": "amount",
					"type": "uint256"
				},
				{
					"indexed": false,
					"internalType": "uint256",
					"name": "fee",
					"type": "uint256"
				}
			],
			"name": "GivebackToCounterparty",
			"type": "event"
		},
		{
			"anonymous": false,
			"inputs": [
				{
					"indexed": true,
					"internalType": "bytes32",
					"name": "dealHash",
					"type": "bytes32"
				},
				{
					"indexed": true,
					"internalType": "address",
					"name": "initiator",
					"type": "address"
				},
				{
					"indexed": true,
					"internalType": "address",
					"name": "counterparty",
					"type": "address"
				},
				{
					"indexed": false,
					"internalType": "address",
					"name": "mediator",
					"type": "address"
				},
				{
					"indexed": false,
					"internalType": "address",
					"name": "sender",
					"type": "address"
				},
				{
					"indexed": false,
					"internalType": "uint256",
					"name": "amount",
					"type": "uint256"
				},
				{
					"indexed": false,
					"internalType": "uint256",
					"name": "fee",
					"type": "uint256"
				}
			],
			"name": "GivebackToInitiator",
			"type": "event"
		},
		{
			"anonymous": false,
			"inputs": [
				{
					"indexed": true,
					"internalType": "address",
					"name": "mediator",
					"type": "address"
				},
				{
					"indexed": false,
					"internalType": "bytes32",
					"name": "dealHash",
					"type": "bytes32"
				}
			],
			"name": "JoinedToDealAsMediator",
			"type": "event"
		},
		{
			"anonymous": false,
			"inputs": [
				{
					"indexed": true,
					"internalType": "address",
					"name": "previousOwner",
					"type": "address"
				},
				{
					"indexed": true,
					"internalType": "address",
					"name": "newOwner",
					"type": "address"
				}
			],
			"name": "OwnershipTransferred",
			"type": "event"
		},
		{
			"anonymous": false,
			"inputs": [
				{
					"indexed": true,
					"internalType": "address",
					"name": "from",
					"type": "address"
				},
				{
					"indexed": true,
					"internalType": "address",
					"name": "to",
					"type": "address"
				},
				{
					"indexed": false,
					"internalType": "uint256",
					"name": "value",
					"type": "uint256"
				}
			],
			"name": "Transfer",
			"type": "event"
		},
		{
			"anonymous": false,
			"inputs": [
				{
					"indexed": true,
					"internalType": "bytes32",
					"name": "dealHash",
					"type": "bytes32"
				},
				{
					"indexed": true,
					"internalType": "address",
					"name": "initiator",
					"type": "address"
				},
				{
					"indexed": true,
					"internalType": "address",
					"name": "counterparty",
					"type": "address"
				},
				{
					"indexed": false,
					"internalType": "address",
					"name": "mediator",
					"type": "address"
				},
				{
					"indexed": false,
					"internalType": "address",
					"name": "sender",
					"type": "address"
				},
				{
					"indexed": false,
					"internalType": "uint256",
					"name": "amount",
					"type": "uint256"
				},
				{
					"indexed": false,
					"internalType": "uint256",
					"name": "fee",
					"type": "uint256"
				}
			],
			"name": "TransferToCounterparty",
			"type": "event"
		},
		{
			"anonymous": false,
			"inputs": [
				{
					"indexed": true,
					"internalType": "bytes32",
					"name": "dealHash",
					"type": "bytes32"
				},
				{
					"indexed": true,
					"internalType": "address",
					"name": "initiator",
					"type": "address"
				},
				{
					"indexed": true,
					"internalType": "address",
					"name": "counterparty",
					"type": "address"
				},
				{
					"indexed": false,
					"internalType": "address",
					"name": "mediator",
					"type": "address"
				},
				{
					"indexed": false,
					"internalType": "address",
					"name": "sender",
					"type": "address"
				},
				{
					"indexed": false,
					"internalType": "address",
					"name": "target",
					"type": "address"
				},
				{
					"indexed": false,
					"internalType": "uint256",
					"name": "amountInitiator",
					"type": "uint256"
				},
				{
					"indexed": false,
					"internalType": "uint256",
					"name": "amountCounterparty",
					"type": "uint256"
				},
				{
					"indexed": false,
					"internalType": "uint256",
					"name": "feeInitiator",
					"type": "uint256"
				},
				{
					"indexed": false,
					"internalType": "uint256",
					"name": "feeCounterparty",
					"type": "uint256"
				}
			],
			"name": "TransferToFromDeal",
			"type": "event"
		},
		{
			"anonymous": false,
			"inputs": [
				{
					"indexed": true,
					"internalType": "bytes32",
					"name": "dealHash",
					"type": "bytes32"
				},
				{
					"indexed": true,
					"internalType": "address",
					"name": "initiator",
					"type": "address"
				},
				{
					"indexed": true,
					"internalType": "address",
					"name": "counterparty",
					"type": "address"
				},
				{
					"indexed": false,
					"internalType": "address",
					"name": "mediator",
					"type": "address"
				},
				{
					"indexed": false,
					"internalType": "address",
					"name": "sender",
					"type": "address"
				},
				{
					"indexed": false,
					"internalType": "uint256",
					"name": "amount",
					"type": "uint256"
				},
				{
					"indexed": false,
					"internalType": "uint256",
					"name": "fee",
					"type": "uint256"
				}
			],
			"name": "TransferToInitiator",
			"type": "event"
		},
		{
			"anonymous": false,
			"inputs": [
				{
					"indexed": true,
					"internalType": "address",
					"name": "user",
					"type": "address"
				},
				{
					"indexed": false,
					"internalType": "uint256",
					"name": "amount",
					"type": "uint256"
				},
				{
					"indexed": false,
					"internalType": "address",
					"name": "token",
					"type": "address"
				}
			],
			"name": "Withdrawal",
			"type": "event"
		},
		{
			"inputs": [
				{
					"internalType": "address",
					"name": "user",
					"type": "address"
				}
			],
			"name": "balanceOf",
			"outputs": [
				{
					"internalType": "uint256",
					"name": "",
					"type": "uint256"
				}
			],
			"stateMutability": "view",
			"type": "function"
		},
		{
			"inputs": [
				{
					"internalType": "address",
					"name": "user",
					"type": "address"
				},
				{
					"internalType": "address",
					"name": "token",
					"type": "address"
				}
			],
			"name": "balanceOf",
			"outputs": [
				{
					"internalType": "uint256",
					"name": "",
					"type": "uint256"
				}
			],
			"stateMutability": "view",
			"type": "function"
		},
		{
			"inputs": [
				{
					"internalType": "address",
					"name": "",
					"type": "address"
				},
				{
					"internalType": "address",
					"name": "",
					"type": "address"
				}
			],
			"name": "balances",
			"outputs": [
				{
					"internalType": "uint256",
					"name": "",
					"type": "uint256"
				}
			],
			"stateMutability": "view",
			"type": "function"
		},
		{
			"inputs": [],
			"name": "commissionRecipient",
			"outputs": [
				{
					"internalType": "address",
					"name": "",
					"type": "address"
				}
			],
			"stateMutability": "view",
			"type": "function"
		},
		{
			"inputs": [],
			"name": "contractEnabled",
			"outputs": [
				{
					"internalType": "bool",
					"name": "",
					"type": "bool"
				}
			],
			"stateMutability": "view",
			"type": "function"
		},
		{
			"inputs": [
				{
					"internalType": "bytes32",
					"name": "dealId",
					"type": "bytes32"
				}
			],
			"name": "counterpartyAcceptSidedDeal",
			"outputs": [
				{
					"internalType": "bool",
					"name": "",
					"type": "bool"
				}
			],
			"stateMutability": "nonpayable",
			"type": "function"
		},
		{
			"inputs": [
				{
					"internalType": "address payable",
					"name": "_counterparty",
					"type": "address"
				},
				{
					"internalType": "address payable",
					"name": "_mediator",
					"type": "address"
				},
				{
					"internalType": "uint256",
					"name": "_amount",
					"type": "uint256"
				},
				{
					"internalType": "uint256",
					"name": "_PRC_MediatorFee",
					"type": "uint256"
				},
				{
					"internalType": "address",
					"name": "_tokenAddress",
					"type": "address"
				},
				{
					"internalType": "uint256",
					"name": "_expirationDate",
					"type": "uint256"
				},
				{
					"internalType": "enum MediatorAction",
					"name": "_mediatorActionOnExpiration",
					"type": "uint8"
				}
			],
			"name": "createDeal",
			"outputs": [
				{
					"internalType": "bytes32",
					"name": "",
					"type": "bytes32"
				}
			],
			"stateMutability": "nonpayable",
			"type": "function"
		},
		{
			"inputs": [
				{
					"internalType": "address payable",
					"name": "_counterparty",
					"type": "address"
				},
				{
					"internalType": "address payable",
					"name": "_mediator",
					"type": "address"
				},
				{
					"internalType": "uint256",
					"name": "_initiatorCreateAmount",
					"type": "uint256"
				},
				{
					"internalType": "uint256",
					"name": "_counterpartyCreateAmount",
					"type": "uint256"
				},
				{
					"internalType": "uint256",
					"name": "_PRC_MediatorFeeInititor",
					"type": "uint256"
				},
				{
					"internalType": "uint256",
					"name": "_PRC_MediatorFeeCounterparty",
					"type": "uint256"
				},
				{
					"internalType": "address",
					"name": "_initiatorTokenAddress",
					"type": "address"
				},
				{
					"internalType": "address",
					"name": "_counterpartyTokenAddress",
					"type": "address"
				},
				{
					"internalType": "uint256",
					"name": "_expirationDate",
					"type": "uint256"
				},
				{
					"internalType": "enum MediatorAction",
					"name": "_mediatorActionOnExpiration",
					"type": "uint8"
				}
			],
			"name": "createSidedDeal",
			"outputs": [
				{
					"internalType": "bytes32",
					"name": "",
					"type": "bytes32"
				}
			],
			"stateMutability": "nonpayable",
			"type": "function"
		},
		{
			"inputs": [
				{
					"internalType": "bytes32",
					"name": "",
					"type": "bytes32"
				}
			],
			"name": "deals",
			"outputs": [
				{
					"internalType": "address payable",
					"name": "initiator",
					"type": "address"
				},
				{
					"internalType": "address payable",
					"name": "counterparty",
					"type": "address"
				},
				{
					"internalType": "address payable",
					"name": "mediator",
					"type": "address"
				},
				{
					"internalType": "bool",
					"name": "isCompleted",
					"type": "bool"
				},
				{
					"internalType": "bool",
					"name": "isCanceled",
					"type": "bool"
				},
				{
					"internalType": "bool",
					"name": "isTwoSided",
					"type": "bool"
				},
				{
					"internalType": "bool",
					"name": "isSignedByCounterparty",
					"type": "bool"
				},
				{
					"internalType": "uint256",
					"name": "initiatorCreateAmount",
					"type": "uint256"
				},
				{
					"internalType": "uint256",
					"name": "counterpartyCreateAmount",
					"type": "uint256"
				},
				{
					"internalType": "uint256",
					"name": "initiatorCurrentAmount",
					"type": "uint256"
				},
				{
					"internalType": "uint256",
					"name": "counterpartyCurrentAmount",
					"type": "uint256"
				},
				{
					"internalType": "uint256",
					"name": "PRC_InitatorMediatorFee",
					"type": "uint256"
				},
				{
					"internalType": "uint256",
					"name": "PRC_CounterpartyMediatorFee",
					"type": "uint256"
				},
				{
					"internalType": "address",
					"name": "initiatorTokenAddress",
					"type": "address"
				},
				{
					"internalType": "address",
					"name": "counterpartyTokenAddress",
					"type": "address"
				},
				{
					"internalType": "uint256",
					"name": "expirationDate",
					"type": "uint256"
				},
				{
					"internalType": "enum MediatorAction",
					"name": "mediatorActionOnExpiration",
					"type": "uint8"
				}
			],
			"stateMutability": "view",
			"type": "function"
		},
		{
			"inputs": [
				{
					"internalType": "address",
					"name": "token",
					"type": "address"
				},
				{
					"internalType": "uint256",
					"name": "amount",
					"type": "uint256"
				}
			],
			"name": "deposit",
			"outputs": [],
			"stateMutability": "payable",
			"type": "function"
		},
		{
			"inputs": [],
			"name": "depositCommissionPercent",
			"outputs": [
				{
					"internalType": "uint256",
					"name": "",
					"type": "uint256"
				}
			],
			"stateMutability": "view",
			"type": "function"
		},
		{
			"inputs": [],
			"name": "disableContract",
			"outputs": [],
			"stateMutability": "nonpayable",
			"type": "function"
		},
		{
			"inputs": [],
			"name": "enableContract",
			"outputs": [],
			"stateMutability": "nonpayable",
			"type": "function"
		},
		{
			"inputs": [],
			"name": "getCompletedDeals",
			"outputs": [
				{
					"internalType": "uint256",
					"name": "",
					"type": "uint256"
				}
			],
			"stateMutability": "view",
			"type": "function"
		},
		{
			"inputs": [
				{
					"internalType": "bytes32",
					"name": "dealId",
					"type": "bytes32"
				}
			],
			"name": "getDeal",
			"outputs": [
				{
					"components": [
						{
							"internalType": "address payable",
							"name": "initiator",
							"type": "address"
						},
						{
							"internalType": "address payable",
							"name": "counterparty",
							"type": "address"
						},
						{
							"internalType": "address payable",
							"name": "mediator",
							"type": "address"
						},
						{
							"internalType": "bool",
							"name": "isCompleted",
							"type": "bool"
						},
						{
							"internalType": "bool",
							"name": "isCanceled",
							"type": "bool"
						},
						{
							"internalType": "bool",
							"name": "isTwoSided",
							"type": "bool"
						},
						{
							"internalType": "bool",
							"name": "isSignedByCounterparty",
							"type": "bool"
						},
						{
							"internalType": "uint256",
							"name": "initiatorCreateAmount",
							"type": "uint256"
						},
						{
							"internalType": "uint256",
							"name": "counterpartyCreateAmount",
							"type": "uint256"
						},
						{
							"internalType": "uint256",
							"name": "initiatorCurrentAmount",
							"type": "uint256"
						},
						{
							"internalType": "uint256",
							"name": "counterpartyCurrentAmount",
							"type": "uint256"
						},
						{
							"internalType": "uint256",
							"name": "PRC_InitatorMediatorFee",
							"type": "uint256"
						},
						{
							"internalType": "uint256",
							"name": "PRC_CounterpartyMediatorFee",
							"type": "uint256"
						},
						{
							"internalType": "address",
							"name": "initiatorTokenAddress",
							"type": "address"
						},
						{
							"internalType": "address",
							"name": "counterpartyTokenAddress",
							"type": "address"
						},
						{
							"internalType": "uint256",
							"name": "expirationDate",
							"type": "uint256"
						},
						{
							"internalType": "enum MediatorAction",
							"name": "mediatorActionOnExpiration",
							"type": "uint8"
						}
					],
					"internalType": "struct Deal",
					"name": "",
					"type": "tuple"
				}
			],
			"stateMutability": "view",
			"type": "function"
		},
		{
			"inputs": [],
			"name": "getTotalDeals",
			"outputs": [
				{
					"internalType": "uint256",
					"name": "",
					"type": "uint256"
				}
			],
			"stateMutability": "view",
			"type": "function"
		},
		{
			"inputs": [],
			"name": "owner",
			"outputs": [
				{
					"internalType": "address",
					"name": "",
					"type": "address"
				}
			],
			"stateMutability": "view",
			"type": "function"
		},
		{
			"inputs": [
				{
					"internalType": "bytes32",
					"name": "dealId",
					"type": "bytes32"
				}
			],
			"name": "payUpCounterpartyAcceptSidedDeal",
			"outputs": [
				{
					"internalType": "bool",
					"name": "",
					"type": "bool"
				}
			],
			"stateMutability": "payable",
			"type": "function"
		},
		{
			"inputs": [
				{
					"internalType": "address payable",
					"name": "_counterparty",
					"type": "address"
				},
				{
					"internalType": "address payable",
					"name": "_mediator",
					"type": "address"
				},
				{
					"internalType": "uint256",
					"name": "_amount",
					"type": "uint256"
				},
				{
					"internalType": "uint256",
					"name": "_PRC_MediatorFee",
					"type": "uint256"
				},
				{
					"internalType": "address",
					"name": "_tokenAddress",
					"type": "address"
				},
				{
					"internalType": "uint256",
					"name": "_expirationDate",
					"type": "uint256"
				},
				{
					"internalType": "enum MediatorAction",
					"name": "_mediatorActionOnExpiration",
					"type": "uint8"
				}
			],
			"name": "payUpCreateDeal",
			"outputs": [
				{
					"internalType": "bytes32",
					"name": "",
					"type": "bytes32"
				}
			],
			"stateMutability": "payable",
			"type": "function"
		},
		{
			"inputs": [
				{
					"internalType": "address payable",
					"name": "_counterparty",
					"type": "address"
				},
				{
					"internalType": "address payable",
					"name": "_mediator",
					"type": "address"
				},
				{
					"internalType": "uint256",
					"name": "_initiatorCreateAmount",
					"type": "uint256"
				},
				{
					"internalType": "uint256",
					"name": "_counterpartyCreateAmount",
					"type": "uint256"
				},
				{
					"internalType": "uint256",
					"name": "_PRC_MediatorFeeInititor",
					"type": "uint256"
				},
				{
					"internalType": "uint256",
					"name": "_PRC_MediatorFeeCounterparty",
					"type": "uint256"
				},
				{
					"internalType": "address",
					"name": "_initiatorTokenAddress",
					"type": "address"
				},
				{
					"internalType": "address",
					"name": "_counterpartyTokenAddress",
					"type": "address"
				},
				{
					"internalType": "uint256",
					"name": "_expirationDate",
					"type": "uint256"
				},
				{
					"internalType": "enum MediatorAction",
					"name": "_mediatorActionOnExpiration",
					"type": "uint8"
				}
			],
			"name": "payUpCreateSidedDeal",
			"outputs": [
				{
					"internalType": "bytes32",
					"name": "",
					"type": "bytes32"
				}
			],
			"stateMutability": "payable",
			"type": "function"
		},
		{
			"inputs": [
				{
					"internalType": "bytes32",
					"name": "dealId",
					"type": "bytes32"
				}
			],
			"name": "rejectSidedDeal",
			"outputs": [
				{
					"internalType": "bool",
					"name": "",
					"type": "bool"
				}
			],
			"stateMutability": "nonpayable",
			"type": "function"
		},
		{
			"inputs": [],
			"name": "renounceOwnership",
			"outputs": [],
			"stateMutability": "nonpayable",
			"type": "function"
		},
		{
			"inputs": [
				{
					"internalType": "uint256",
					"name": "newCommissionPercent",
					"type": "uint256"
				},
				{
					"internalType": "address",
					"name": "newRecipient",
					"type": "address"
				}
			],
			"name": "setDepositCommission",
			"outputs": [],
			"stateMutability": "nonpayable",
			"type": "function"
		},
		{
			"inputs": [],
			"name": "totalCompletedDeals",
			"outputs": [
				{
					"internalType": "uint256",
					"name": "",
					"type": "uint256"
				}
			],
			"stateMutability": "view",
			"type": "function"
		},
		{
			"inputs": [],
			"name": "totalDeals",
			"outputs": [
				{
					"internalType": "uint256",
					"name": "",
					"type": "uint256"
				}
			],
			"stateMutability": "view",
			"type": "function"
		},
		{
			"inputs": [
				{
					"internalType": "address",
					"name": "to",
					"type": "address"
				},
				{
					"internalType": "address",
					"name": "token",
					"type": "address"
				},
				{
					"internalType": "uint256",
					"name": "amount",
					"type": "uint256"
				}
			],
			"name": "transfer",
			"outputs": [
				{
					"internalType": "bool",
					"name": "",
					"type": "bool"
				}
			],
			"stateMutability": "nonpayable",
			"type": "function"
		},
		{
			"inputs": [
				{
					"internalType": "address",
					"name": "newOwner",
					"type": "address"
				}
			],
			"name": "transferOwnership",
			"outputs": [],
			"stateMutability": "nonpayable",
			"type": "function"
		},
		{
			"inputs": [
				{
					"internalType": "address",
					"name": "token",
					"type": "address"
				},
				{
					"internalType": "uint256",
					"name": "amount",
					"type": "uint256"
				}
			],
			"name": "withdraw",
			"outputs": [
				{
					"internalType": "bool",
					"name": "",
					"type": "bool"
				}
			],
			"stateMutability": "nonpayable",
			"type": "function"
		},
		{
			"inputs": [
				{
					"internalType": "bytes32",
					"name": "dealId",
					"type": "bytes32"
				}
			],
			"name": "withdrawRejectSidedDeal",
			"outputs": [
				{
					"internalType": "bool",
					"name": "",
					"type": "bool"
				}
			],
			"stateMutability": "nonpayable",
			"type": "function"
		}
	]
}