{
	"data": {
		"bytecode": {
			"linkReferences": {
				"Deal.sol": {
					"DealContract": [
						{
							"length": 20,
							"start": 3669
						},
						{
							"length": 20,
							"start": 4551
						},
						{
							"length": 20,
							"start": 5877
						},
						{
							"length": 20,
							"start": 7798
						},
						{
							"length": 20,
							"start": 9181
						},
						{
							"length": 20,
							"start": 9615
						},
						{
							"length": 20,
							"start": 11045
						},
						{
							"length": 20,
							"start": 11891
						},
						{
							"length": 20,
							"start": 12299
						},
						{
							"length": 20,
							"start": 14716
						},
						{
							"length": 20,
							"start": 16156
						},
						{
							"length": 20,
							"start": 16777
						},
						{
							"length": 20,
							"start": 17628
						},
						{
							"length": 20,
							"start": 18081
						},
						{
							"length": 20,
							"start": 21486
						}
					]
				},
				"Percent.sol": {
					"Percent": [
						{
							"length": 20,
							"start": 1516
						},
						{
							"length": 20,
							"start": 3823
						},
						{
							"length": 20,
							"start": 5327
						},
						{
							"length": 20,
							"start": 6034
						},
						{
							"length": 20,
							"start": 7133
						},
						{
							"length": 20,
							"start": 8165
						},
						{
							"length": 20,
							"start": 9332
						},
						{
							"length": 20,
							"start": 9767
						},
						{
							"length": 20,
							"start": 11391
						},
						{
							"length": 20,
							"start": 12426
						},
						{
							"length": 20,
							"start": 13746
						},
						{
							"length": 20,
							"start": 14399
						},
						{
							"length": 20,
							"start": 15414
						},
						{
							"length": 20,
							"start": 17032
						},
						{
							"length": 20,
							"start": 17775
						}
					]
				}
			},
			"object": "60803461013a57601f615a5c38819003918201601f19168301916001600160401b0383118484101761013e57808492604094855283398101031261013a5780516020909101516001600160a01b038116919082900361013a575f80546001600160a81b0319163317600160a01b17808255604051916001600160a01b03909116907f8be0079c531659141344cd1fd0a4f28419497f9722a3daafe3b4186f6b6457e08180a3821561011357506402540be40081116100e95760025560018060a01b031960035416176003555f6005555f6006555f6007555f60085560405161590990816101538239f35b60405162461bcd60e51b8152602060048201526002602482015261433560f01b6044820152606490fd5b62461bcd60e51b8152602060048201526002602482015261433160f01b6044820152606490fd5b5f80fd5b634e487b7160e01b5f52604160045260245ffdfe60806040526004361015610011575f80fd5b5f803560e01c80627e8bd3146144e457806301cafae314614347578063029274591461432957806306fd154a146143005780630934da2214613fee5780631273c16514613d6c57806315f8a31414613cc857806317b52b5014613c6657806328d5a050146137bb578063367edd321461375557806339b3edb0146136b25780634187129c146135f057806341b3a0d9146135cb57806347e7ef241461340857806351a6fad51461327657806353a78000146131f8578063619c457e146131d15780636242c6cd14612e6f57806363adb66f14612cd457806367c5545d1461299d57806370a082311461295c57806371ae8bcd1461293557806380ccb0701461286257806381cd872a1461273f578063894ba833146126e05780638da5cb5b146126b95780638deea5fb146125be578063966d1f1d146125a05780639905a1ea146123fe5780639974f376146123e0578063a0849a3314612248578063a471ee4f14612021578063ad94b28b14611cf3578063ba343f6d14611c1d578063bb06c1a4146118d6578063beabacc8146117e8578063c15a25bf14611768578063c23f001f1461174c578063c2c257b914611564578063cfadf6c714610ffd578063d750158b14610cb4578063e08560a414610c96578063eb45732914610bbc578063ee026054146103cf578063f2fde38b14610303578063f3fef3a31461029c578063f5f6a8e41461027e5763f7888aec14610229575f80fd5b3461027b57604036600319011261027b576040610244614780565b9161024d61476a565b9260018060a01b031681526001602052209060018060a01b03165f52602052602060405f2054604051908152f35b80fd5b503461027b578060031936011261027b576020600254604051908152f35b503461027b57604036600319011261027b576102f96020916102bc614780565b604060243592338152600186522060018060a01b0382165f5284526102e78260405f20541015614a07565b6102f282823361559d565b50336156bd565b6040519015158152f35b503461027b57602036600319011261027b5761031d614780565b81546001600160a01b03811691610335338414614e8c565b6001600160a01b031691821561037b5782907f8be0079c531659141344cd1fd0a4f28419497f9722a3daafe3b4186f6b6457e08580a36001600160a01b03191617815580f35b60405162461bcd60e51b815260206004820152602660248201527f4f776e61626c653a206e6577206f776e657220697320746865207a65726f206160448201526564647265737360d01b6064820152608490fd5b503461027b57604036600319011261027b576004356103ec614818565b9080835260046020526040832090600182019160018060a01b0383541633148015610ba9575b8015610b93575b61042290614c9c565b6002810193845460ff8160b01c1615610b695760a01c60ff166003811015610b555760026104509114614fc7565b600b8201544210610b2a578560ff600c8401541691600584015460018060a01b036009860154169160068601549160018060a01b03600a8801541692600788015496600889015473__$8537b7efa173772577da826929141ce939$__9860405190631c8f084760e01b825285600483015260248201526020816044818d5af4988915610b1e5798610ae9575b506020906044604051809b8193631c8f084760e01b835287600484015260248301525af4978815610ade578d98610aa6575b506006811015610a925792828260048f968f96978f8f905f805160206158348339815191529f9d9b989161061e9f9d9b8f8f8f908f928f97948f958f968789848f8f8f8f90818e8d8f9460018f988e98888f948f8f908f8f908f91858f9194858f8f998f988a8f8a8f948f87908f928b978f948f97156109aa575b505050505050505050505060028d146108ab575b505050505050505050505050146107bd575b505050505050505050505060038d14610720575b5050505050505050505050501461062c575b50508b54600160a01b60ff60a01b19821617909c55505093549754604080516001600160a01b039b8c168152336020820152918b169a9099169890958695509085019350915050565b0390a4602060405160018152f35b85889561067d899361065b61068e966106a09b6106548860018060a01b036003541693614db4565b918a615644565b506003546001600160a01b0316908890610676908b90614db4565b9188615644565b50546001600160a01b031684615644565b508b546001600160a01b031690615644565b50825487548954600354604080516001600160a01b03938416815233602082015291831690820152606081018590526080810186905260a081019490945260c0840194909452831692169086907f8e100dc3335e09b082c843425f71ea8ae9d91ae5bb385ef4b41d0d2c6aa872149060e090a486808088818080806105d5565b7f8e100dc3335e09b082c843425f71ea8ae9d91ae5bb385ef4b41d0d2c6aa872149761068e61075d9460e0998e60018060a01b0390541684615644565b5060018060a01b039054169560018060a01b039054169660018060a01b0390541691604051928084523360208501526040840152606083015260808201528660a08201528660c0820152a48f8f908991888f8f8f908f928c8f8d906105c3565b5f805160206158748339815191529a6108375f805160206157f48339815191529961081a89878f9e610808906108499a6108018560018060a01b0389541693614db4565b9189615644565b508a546001600160a01b031686615644565b50546001600160a01b031683610830868c614db4565b9184615644565b5085546001600160a01b031690615644565b5060018060a01b038c541696879160018060a01b0390541698899360018060a01b03905416948d610881604051928392338a85614dc1565b0390a46108968b604051938493339085614dc1565b0390a487898486858f8f908c918e8d8a6105af565b7ff05d33634b730e763d232b482cf835a4481835f62d0a0973b42018a8ead4f047995f80516020615814833981519152988f9461091b8e856109098f99610948986109028f928e81889260a01b0390541693614db4565b9187615644565b508a546001600160a01b031684615644565b508654610936906001600160a01b031683610830868e614db4565b5087546001600160a01b031690615644565b508c8060a01b039054169788928d8060a01b03905416998a948e8060a01b039054169561097c604051928392338a85614dc1565b0390a46109918b604051938493339085614dc1565b0390a488858f8f908f8f908f918d8f91948c958f61059d565b6001995f8051602061581483398151915298610a24610a3595610a078f5f805160206158748339815191529f9a6109f58d82610654610a7d9f8f9d81889260a01b0390541693614db4565b5085546001600160a01b031687615644565b50546001600160a01b031684610a1d878d614db4565b9185615644565b50546001600160a01b031690615644565b5089548c548e546040516001600160a01b039283169b9383169a91909216958b938b938b939290918291610a6c9190338c85614dc1565b0390a4604051938493339085614dc1565b0390a48a838a878a8a8f87908f8a8d91610589565b634e487b7160e01b8d52602160045260248dfd5b9097506020813d602011610ad6575b81610ac260209383614a85565b81010312610ad25751965f61050e565b5f80fd5b3d9150610ab5565b6040513d8f823e3d90fd5b9097506020813d602011610b16575b81610b0560209383614a85565b81010312610ad257519660206104dc565b3d9150610af8565b604051903d90823e3d90fd5b606460405162461bcd60e51b81526020600482015260046024820152632218971960e11b6044820152fd5b634e487b7160e01b87526021600452602487fd5b60405162461bcd60e51b8152602060048201526002602482015261221960f11b6044820152606490fd5b5060028101546001600160a01b03163314610419565b5080546001600160a01b03163314610412565b503461027b57602036600319011261027b57604060e091610bdb615567565b50600435815260096020522060405190610bf482614a38565b8054825260026001820154916020840192835201549060408301610c1b60ff841682614e80565b6060840160ff8460081c1615158152610c74608086019260ff8660101c161515845260a087019460ff8760181c161515865260ff60c089019760201c1615158752604051975188525160208801525160408701906148e8565b5115156060850152511515608084015251151560a083015251151560c0820152f35b503461027b578060031936011261027b576020600654604051908152f35b503461027b57604036600319011261027b57600435610cd1614818565b81835260046020526040832090600182019060018060a01b0382541633148015610fe7575b610cff90614c9c565b8473__$69ea93bdf3b1e5da8164bfe3d9a878d765$__803b15610fe357816040518092630252a86760e51b82528180610d3b8a60048301614ccd565b03915af48015610fd857610fbf575b5050600583015460098401546006850154600a86015460078701546008880154604051631c8f084760e01b81526004810187905260248101929092526001600160a01b0394851698959791969195939473__$8537b7efa173772577da826929141ce939$__94931690602088604481885af4978815610fb4578c98610f7f575b50602090604460405180978193631c8f084760e01b83528a600484015260248301525af4938415610f74578a9b9a999a94610f34575b50825489959493929184916001600160a01b03168c610e1f8b8d614db4565b90610e2a9286615644565b50600284018054909c610e49918b91906001600160a01b031686615644565b5087546001600160a01b031681610e608880614db4565b90610e6b9286615644565b508b54610e83936001600160a01b0390911690615644565b50885460ff60a01b198116600160a01b179099555493546040516001600160a01b039182169a9582169991909116968a968a9688938893919290918291610ecc91338e85614dc1565b035f8051602061587483398151915291a4604051918291610eef91338985614dc1565b035f8051602061581483398151915291a4604080516001600160a01b039290921682523360208301525f8051602061583483398151915291a460405160018152602090f35b949350919097506020843d602011610f6c575b81610f5460209383614a85565b81010312610ad2578997889451939492909192610e00565b3d9150610f47565b6040513d8d823e3d90fd5b9097506020813d602011610fac575b81610f9b60209383614a85565b81010312610ad25751966020610dca565b3d9150610f8e565b6040513d8e823e3d90fd5b81610fc991614a85565b610fd457845f610d4a565b8480fd5b6040513d84823e3d90fd5b5080fd5b5060028301546001600160a01b03163314610cf6565b5061100736614796565b9190949288948a98979a948c604060ff825460a01c1691611027836149d6565b33815260016020522060018060a01b0385165f5260205260405f20548a811061132f575b50509161109894939161020098936110648b843361559d565b5060405163652e83d760e01b815273__$69ea93bdf3b1e5da8164bfe3d9a878d765$__9e909b8c9a8b9a3360048d01614bd2565b0381875af49081156112f5578591611300575b5060206005546102246040518097819363797d4ee160e01b83526110d260048401886148f5565b6102048301525af49384156112f55785946112c1575b506110f4600554614c3e565b600555838552600460209081526040808720835181546001600160a01b03199081166001600160a01b0392831617835593850151600183018054861691831691909117905591840151600282018054909416921691909117825560608301519092919060038110156112ad57816111726111ae926101e09594614c60565b6080830151815460ff60a81b191690151560a81b60ff60a81b1617815560a0830151815460ff60b01b191690151560b01b60ff60b01b16179055565b60c0810151600384015560e081015160048401556101008101516005840155610120810151600680850191909155610140820151600785015561016082015160088501556101808201516009850180546001600160a01b039283166001600160a01b0319918216179091556101a0840151600a870180549190931691161790556101c0820151600b85015591015195908610156112995750602094600c6112559201614c84565b6040516001600160a01b039283168152911690339083907f44e1ff8e67fad6b456bd43ff165ba4e9bb004370aa27a76881c6acb60dfd6dd9908690a4604051908152f35b634e487b7160e01b81526021600452602490fd5b634e487b7160e01b88526021600452602488fd5b9093506020813d6020116112ed575b816112dd60209383614a85565b81010312610ad25751925f6110e8565b3d91506112d0565b6040513d87823e3d90fd5b61132291506102003d8111611328575b61131a8183614a85565b810190614ac8565b5f6110ab565b503d611310565b61134c92999496959398506113469197508a614db4565b956149d6565b611357851515614deb565b6002549360405194631c8f084760e01b8652866004870152602486015260208560448173__$8537b7efa173772577da826929141ce939$__5af4948515610ade578d95611530575b506001600160a01b0381169687611448576113ba8688614f56565b340361141e57610200988c9888611098986113d78f9b8733615662565b506003546113f190829088906001600160a01b0316615662565b505b60405191825260208201525f8051602061589483398151915260403392a3919398819395965061104b565b60405162461bcd60e51b815260206004820152600260248201526110cd60f21b6044820152606490fd5b8d8060208a60646114598b8d614f56565b60405194859384926323b872dd60e01b845233600485015230602485015260448401525af1918215610b1e57916114f2575b50156114c857610200988c9888611098986114a88f9b8733615662565b506003546114c290829088906001600160a01b0316615662565b506113f3565b60405162461bcd60e51b81526020600482015260026024820152612a1960f11b6044820152606490fd5b90506020813d602011611528575b8161150d60209383614a85565b810103126115245761151e90614abb565b5f61148b565b8e80fd5b3d9150611500565b9094506020813d60201161155c575b8161154c60209383614a85565b81010312610ad25751935f61139f565b3d915061153f565b503461027b5761157336614827565b928281939293526004602052604081209260018060a01b0384541633148015611736575b6115a090614c9c565b73__$69ea93bdf3b1e5da8164bfe3d9a878d765$__803b1561173257826040518092630252a86760e51b825281806115db8a60048301614ccd565b03915af4801561172757908391611712575b505060068401611609828254611604828210614a07565b614db4565b905560018060a01b03600a8501541693600881015460405190631c8f084760e01b8252836004830152602482015260208160448173__$8537b7efa173772577da826929141ce939$__5af4938415610b1e57936116dc575b509161061e836116b38360015f8051602061581483398151915297019861169d8b8260018060a01b038d5416611697868c614db4565b92615644565b50600284019a60018060a01b038c541690615644565b5054955496546040516001600160a01b0398891698978816979094859492909133911685614dc1565b92506020833d60201161170a575b816116f760209383614a85565b81010312610ad25791519161061e611661565b3d91506116ea565b8161171c91614a85565b610fe357815f6115ed565b6040513d85823e3d90fd5b8280fd5b5060028401546001600160a01b03163314611597565b503461027b57604036600319011261027b576040610244614780565b503461027b57602036600319011261027b57604060e091600435815260096020522060ff815491600260018201549101549060405193845260208401526117b4604084018383166148e8565b818160081c1615156060840152818160101c1615156080840152818160181c16151560a084015260201c16151560c0820152f35b503461027b57606036600319011261027b57611802614780565b9061180b61476a565b604060443593338452600160205281842060018060a01b0384165f5260205261183985835f20541015614a07565b338452600160205281842060018060a01b0384165f52602052815f20611860868254614db4565b905560018060a01b03169283815260016020522060018060a01b0382165f5260205260405f20611891848254614f56565b90556040519283526001600160a01b03169133907fd1398bee19313d6bf672ccb116e51f4a1a947e91c757907f51fbb5b5e56c698f90602090a4602060405160018152f35b50602036600319011261027b5760043580825260046020526040822091600183019261190c60018060a01b038554163314614c9c565b600281019160ff8354611923828260a81c16614f63565b611932828260b01c1615614f95565b60a01c166003811015611c0957600261194b9114614fc7565b600a82018054335f9081526001602090815260408083206001600160a01b039094168084529390915290205460068501548110611a3c575b50505460048301546119a09250906001600160a01b03163361559d565b508154600160b01b60ff60b01b198216179092555492546040516001600160a01b0392831680825294918316929091169083907f5e02698c1650d6cbe1f7e8a48609d0da45ad7f5e4c13cd8b196f82965c0ab0d590602090a481611a0a575b602060405160018152f35b60207f957372c0e02d2882134cc0eebbef9e446634d8ccbb1cbb112bdefdd3cf0a643c91604051908152a25f806119ff565b611a4a906004860154614db4565b611a5a60ff855460a01c166149d6565b611a65811515614deb565b6002549360405194631c8f084760e01b8652826004870152602486015260208560448173__$8537b7efa173772577da826929141ce939$__5af4948515611bfc578195611bc8575b5082611b145750611abe8482614f56565b340361141e576119a093611ad3828433615662565b50600354611aed90829085906001600160a01b0316615662565b505b60405191825260208201525f8051602061589483398151915260403392a35f80611983565b611b1e8583614f56565b604051906323b872dd60e01b8252336004830152306024830152604482015260208160648185885af1918215610b1e578092611b8b575b5050156114c8576119a093611b6b828433615662565b50600354611b8590829085906001600160a01b0316615662565b50611aef565b9091506020823d602011611bc0575b81611ba760209383614a85565b8101031261027b5750611bb990614abb565b5f80611b55565b3d9150611b9a565b9094506020813d602011611bf4575b81611be460209383614a85565b81010312610ad25751935f611aad565b3d9150611bd7565b50604051903d90823e3d90fd5b634e487b7160e01b82526021600452602482fd5b503461027b57602036600319011261027b57604060e091611c3c615567565b506004358152600a6020522060405190611c5582614a38565b80549182815260018060a01b036001830154166020820190815260028301549260408301938452600460038201549160608501928352015493608084019260ff86161515845260ff60c060a0870196828960081c1615158852019660101c161515865260405196875260018060a01b039051166020870152516040860152516060850152511515608084015251151560a083015251151560c0820152f35b50611cfd36614827565b82849392935260046020526040842093611d2160018060a01b038654163314614c9c565b73__$69ea93bdf3b1e5da8164bfe3d9a878d765$__803b15610fe357816040518092630252a86760e51b82528180611d5c8b60048301614ccd565b03915af48015610fd85790859291612008575b50600986018054335f9081526001602090815260408083206001600160a01b0390941680845293909152902054919290919415611e31575050611db782611dc7941015614a07565b546001600160a01b03163361559d565b5060058301611dd7838254614f56565b905582546001840154600290940154604080516001600160a01b0392831681526020810195909552948116949116927f3c0dd30126238eaebbb306e073222eecd03a091d41c39a4b2742759d406c8f55918190810161061e565b9093838110611e47575b5050611dc79250611db7565b611e519193614db4565b92611e6260ff845460a01c166149d6565b611e6d841515614deb565b6002549260405193631c8f084760e01b8552856004860152602485015260208460448173__$8537b7efa173772577da826929141ce939$__5af4938415611bfc578194611fd4575b5081611f1e5750611ec68385614f56565b340361141e57838693611edd611dc7968433615662565b50600354611ef790829085906001600160a01b0316615662565b505b60405191825260208201525f8051602061589483398151915260403392a35f80611e3b565b611f288486614f56565b604051906323b872dd60e01b8252336004830152306024830152604482015260208160648185875af1918215610b1e578092611f97575b5050156114c857838693611f77611dc7968433615662565b50600354611f9190829085906001600160a01b0316615662565b50611ef9565b9091506020823d602011611fcc575b81611fb360209383614a85565b8101031261027b5750611fc590614abb565b5f80611f5f565b3d9150611fa6565b9093506020813d602011612000575b81611ff060209383614a85565b81010312610ad25751925f611eb5565b3d9150611fe3565b8180935061201591614a85565b61027b5783905f611d6f565b503461027b57608036600319011261027b576004359061203f61476a565b60443592606435918184526004602052604084209460018060a01b03865416331491828015612232575b61207290614c9c565b6120836402540be400831115614deb565b6120946402540be400861115614deb565b6001600160a01b0316936120a9851515614ebd565b600287015460ff906120c46001600160a01b03821615614ff8565b60a81c16156121f9575b906121a06121b99392600460209933906001808060a01b03910154161491604051906120f982614a38565b8882528b8201958a875260408301908152606083019182526080830197885260a0830194855260c08301968c885260406008549d8e81528f600a9052209351845560018060a01b03905116600184019060018060a01b03166bffffffffffffffffffffffff60a01b825416179055516002830155516003820155019351151560ff80198654169116178455511515839061ff00825491151560081b169061ff001916179055565b51815462ff0000191690151560101b62ff000016179055565b6121c4600854614c3e565b600855827f3e168088da33d5ab18321345a864b58812f451c892ee951f8f70b5bead045b6985604051338152a4604051908152f35b9190826122075790916120ce565b606460405162461bcd60e51b815260206004820152600460248201526343312e3160e01b6044820152fd5b5060018701546001600160a01b03163314612069565b503461027b5761225736614827565b92919081835260046020526040832090600182019360018060a01b03855416331480156123ca575b61228890614c9c565b73__$69ea93bdf3b1e5da8164bfe3d9a878d765$__803b15610fe357816040518092630252a86760e51b825281806122c38960048301614ccd565b03915af48015610fd8579082916123b5575b5050600583016122ec838254611604828210614a07565b905560018060a01b03600984015416600784015460405190631c8f084760e01b8252846004830152602482015260208160448173__$8537b7efa173772577da826929141ce939$__5af4928315610b1e5792612374575b505f80516020615874833981519152936116b3838361169d8b61061e9660018060a01b03875416611697868c614db4565b9091506020813d6020116123ad575b8161239060209383614a85565b81010312610ad25751905f80516020615874833981519152612343565b3d9150612383565b816123bf91614a85565b61027b57805f6122d5565b5060028301546001600160a01b0316331461227f565b503461027b578060031936011261027b576020600754604051908152f35b503461027b5761240d36614827565b928281939293526004602052604081209260018060a01b038454163314801561258a575b61243a90614c9c565b73__$69ea93bdf3b1e5da8164bfe3d9a878d765$__803b1561173257826040518092630252a86760e51b825281806124758a60048301614ccd565b03915af4801561172757908391612575575b50506005840161249e828254611604828210614a07565b905560018060a01b0360098501541693600781015460405190631c8f084760e01b8252836004830152602482015260208160448173__$8537b7efa173772577da826929141ce939$__5af4938415610b1e579361253f575b509161061e836116b38360017ff05d33634b730e763d232b482cf835a4481835f62d0a0973b42018a8ead4f04797019861169d8b8260018060a01b038d5416611697868c614db4565b92506020833d60201161256d575b8161255a60209383614a85565b81010312610ad25791519161061e6124f6565b3d915061254d565b8161257f91614a85565b610fe357815f612487565b5060028401546001600160a01b03163314612431565b503461027b578060031936011261027b576020600554604051908152f35b503461027b57602036600319011261027b5760043580825260046020526040822090600182019160018060a01b03835416331480156126a6575b61260190614c9c565b600281019360ff8554612618828260a81c16614f63565b612627828260b01c1615614f95565b60a01c1690600382101561129957505f8051602061583483398151915291612654600261061e9314614fc7565b8054600982015460058301546126789290916001600160a01b039081169116615662565b505493549454604080516001600160a01b039283168152336020820152968216969590911694918291820190565b5080546001600160a01b031633146125f8565b503461027b578060031936011261027b57546040516001600160a01b039091168152602090f35b503461027b578060031936011261027b578054612707336001600160a01b03831614614e8c565b60ff60a01b191681556040518181527f017904e4fe7d59bb4603c7c045bc275a05da9ea3a4ac007fc80fffeaf119186d90602090a180f35b503461027b57602036600319011261027b576004358152600460205260409020600160a01b6001900381541690600160a01b600190036001820154169060028101546003820154600483015460058401546006850154600786015491600887015493600160a01b6001900360098901541695600160a01b60019003600a8a01541697600b8a015499600c015460ff169a6040519c8d5260208d0152600160a01b60019003811660408d015260608c018160a01c60ff16906127ff916148db565b8060a81c60ff16151560808d015260b01c60ff16151560a08c015260c08b015260e08a01526101008901526101208801526101408701526101608601526101808501526101a08401526101c08301526101e0820161285c916148e8565b61020090f35b503461027b57602036600319011261027b5760043580825260046020526040822090600182019160018060a01b0383541633148015612922575b6128a590614c9c565b600281019360ff8554818160b01c161580612915575b6128c490614f95565b60a01c1690600382101561129957505f80516020615834833981519152916128f1600261061e9314614fc7565b8054600982015460058301546126789290916001600160a01b0390811691166156bd565b5060a881901c82166128bb565b5080546001600160a01b0316331461289c565b503461027b57604036600319011261027b5760206102f9612954614818565b600435615238565b503461027b57602036600319011261027b576020906040906001600160a01b03612984614780565b1681526001835281812081805283522054604051908152f35b506129a736614827565b8284939294526004602052604083209360018501936129d060018060a01b038654163314614c9c565b73__$69ea93bdf3b1e5da8164bfe3d9a878d765$__803b15610fe357816040518092630252a86760e51b82528180612a0b8c60048301614ccd565b03915af48015610fd857908291612cbf575b5050600a86018054335f9081526001602090815260408083206001600160a01b0390941680845293909152902054919290919415612abb57505081612a7691611db7825f80516020615854833981519152961015614a07565b5060068501612a86828254614f56565b905584549354600290950154604080516001600160a01b0392831681526020810193909352958116959416938190810161061e565b9093838110612ae1575b50505f80516020615854833981519152925081612a7691611db7565b612aeb9084614db4565b91612afc60ff835460a01c166149d6565b612b07831515614deb565b6002549160405192631c8f084760e01b8452846004850152602484015260208360448173__$8537b7efa173772577da826929141ce939$__5af4928315611bfc578193612c8b575b5085612bc65750612b608284614f56565b340361141e5784838593612b86612a76965f805160206158548339815191529933615662565b50600354612ba090829085906001600160a01b0316615662565b505b60405191825260208201525f8051602061589483398151915260403392a391612ac5565b612bd08385614f56565b604051906323b872dd60e01b82523360048301523060248301526044820152602081606481858b5af1918215610b1e578092612c4e575b5050156114c85784838593612c2e612a76965f805160206158548339815191529933615662565b50600354612c4890829085906001600160a01b0316615662565b50612ba2565b9091506020823d602011612c83575b81612c6a60209383614a85565b8101031261027b5750612c7c90614abb565b5f80612c07565b3d9150612c5d565b9092506020813d602011612cb7575b81612ca760209383614a85565b81010312610ad25751915f612b4f565b3d9150612c9a565b81612cc991614a85565b61027b57805f612a1d565b503461027b57612ce33661484a565b83859493945260046020526040852090612d046402540be400821115614deb565b6001820194612d1d60018060a01b038754163314614c9c565b8673__$69ea93bdf3b1e5da8164bfe3d9a878d765$__803b15610fe357816040518092630252a86760e51b82528180612d598a60048301614ccd565b03915af48015610fd857612e50575b5050905f805160206158b48339815191529383926040600260209601998a54612d9760ff8260a81c1615614e1c565b85612e36575b50338152600187522060018060a01b0382165f528552612dc38260405f20541015614a07565b612dce82823361559d565b50885460ff60a81b1916600160a81b178955600a840180546001600160a01b0319166001600160a01b039283161790556004840182905560068401919091556008830191909155905494549554604051908216815295811695941693a4602060405160018152f35b612e4a906001600160a01b03161515614e4e565b5f612d9d565b81612e5e9195949395614a85565b612e6b579091865f612d68565b8680fd5b503461027b57604036600319011261027b57600435612e8c614818565b81835260046020526040832080546001600160a01b0316331480156131bb575b612eb590614c9c565b8373__$69ea93bdf3b1e5da8164bfe3d9a878d765$__803b15610fe357816040518092630252a86760e51b82528180612ef18860048301614ccd565b03915af48015610fd8576131a2575b505060058101549060018060a01b0360098201541660068201549260018060a01b03600a840154169260078101549560088201549473__$8537b7efa173772577da826929141ce939$__9560405198631c8f084760e01b8a528560048b015260248a01526020896044818a5af4988915610f74578b9961316d575b50602090604460405180998193631c8f084760e01b83528c600484015260248301525af495861561316257918a91899a9b938c9a959498613120575b50908784939260018c9897960198600160a01b600190038a541681612fdc898b614db4565b90612fe79287615644565b50600286018054909e6130059290916001600160a01b031686615644565b5084546001600160a01b03168161301c8d80614db4565b906130279286615644565b508c5461303f936001600160a01b0390911690615644565b5050885460ff60a01b1981169099555493546040516001600160a01b039182169a9582169991909116968a968a968893889391929091829161308391338e85614dc1565b035f805160206157f483398151915291a46040519182916130a691338985614dc1565b037ff05d33634b730e763d232b482cf835a4481835f62d0a0973b42018a8ead4f04791a4604080516001600160a01b039290921682523360208301527ffaee379435b6a0c297f1a08c66517fdc202debc6d275e6dd73630e3ebd1bdd9791a460065461311190614c3e565b60065560405160018152602090f35b9392995096509392506020823d60201161315a575b8161314260209383614a85565b81010312610ad2579051899790959293899389612fb7565b3d9150613135565b6040513d8c823e3d90fd5b9098506020813d60201161319a575b8161318960209383614a85565b81010312610ad25751976020612f7b565b3d915061317c565b816131ac91614a85565b6131b757835f612f00565b8380fd5b5060028101546001600160a01b03163314612eac565b503461027b57604036600319011261027b5760206102f96131f0614818565b60043561502a565b503461027b57602036600319011261027b57604060e0916004358152600a6020522060ff81549160018060a01b03600182015416906002810154600460038301549201549260405195865260208601526040850152606084015281811615156080840152818160081c16151560a084015260101c16151560c0820152f35b503461027b57602036600319011261027b57806101e060405161329881614a68565b8281528260208201528260408201528260608201528260808201528260a08201528260c08201528260e08201528261010082015282610120820152826101408201528261016082015282610180820152826101a0820152826101c082015201526004358152600460205260408120906040519061331482614a68565b82546001600160a01b039081168352600184015481166020840152600284015490811660408401529060a082901c60ff169060038210156112995750600c6102009460ff6133f99481946060880152818160a81c161515608088015260b01c16151560a0860152600381015460c0860152600481015460e0860152600581015461010086015260068101546101208601526007810154610140860152600881015461016086015260018060a01b0360098201541661018086015260018060a01b03600a820154166101a0860152600b8101546101c08601520154166101e08301614e80565b61340660405180926148f5565bf35b50604036600319011261027b5761341d614780565b60243561343060ff845460a01c166149d6565b61343b811515614deb565b60025460405190631c8f084760e01b8252826004830152602482015260208160448173__$8537b7efa173772577da826929141ce939$__5af49081156135c057849161358e575b506001600160a01b03831692836134e85761349d8284614f56565b340361141e5781816134b3856134c59433615662565b506003546001600160a01b0316615662565b505b60405191825260208201525f8051602061589483398151915260403392a380f35b6134f28284614f56565b604051906323b872dd60e01b8252336004830152306024830152604482015260208160648189895af1908115613583578691613545575b50156114c85781816134b38561353f9433615662565b506134c7565b90506020813d60201161357b575b8161356060209383614a85565b810103126135775761357190614abb565b5f613529565b8580fd5b3d9150613553565b6040513d88823e3d90fd5b90506020813d6020116135b8575b816135a960209383614a85565b81010312610ad257515f613482565b3d915061359c565b6040513d86823e3d90fd5b503461027b578060031936011261027b5760ff6020915460a01c166040519015158152f35b503461027b57602036600319011261027b5760043580825260046020526040822091600183019261362b60018060a01b038554163314614c9c565b600281019160ff8354613642828260a81c16614f63565b613651828260b01c1615614f95565b60a01c169060038210156112995750600261366c9114614fc7565b600a810154335f9081526001602090815260408083206001600160a01b03909416808452939091529020546119a0916136ac600485015480931015614a07565b3361559d565b503461027b57602036600319011261027b576004359060025460405190631c8f084760e01b8252836004830152602482015260208160448173__$8537b7efa173772577da826929141ce939$__5af4918215610b1e5791613722575b602061371a8385614f56565b604051908152f35b90506020813d60201161374d575b8161373d60209383614a85565b81010312610ad25751602061370e565b3d9150613730565b503461027b578060031936011261027b57805461377c336001600160a01b03831614614e8c565b60ff60a01b1916600160a01b178155604051600181527f017904e4fe7d59bb4603c7c045bc275a05da9ea3a4ac007fc80fffeaf119186d90602090a180f35b506137c536614878565b91929095949360ff885460a01c16926137dd846149d6565b33895260016020526040892060018060a01b0386165f5260205260405f2054828110613aa0575b50610200935061384f9061381983873361559d565b5060405163652e83d760e01b815273__$69ea93bdf3b1e5da8164bfe3d9a878d765$__999096879586958a8c3360048a01614eee565b0381875af49081156112f5578591613a81575b5060206005546102246040518097819363797d4ee160e01b835261388960048401886148f5565b6102048301525af49384156112f5578594613a4d575b506138ab600554614c3e565b600555838552600460209081526040808720835181546001600160a01b03199081166001600160a01b0392831617835593850151600183018054861691831691909117905591840151600282018054909416921691909117825560608301519092919060038110156112ad5781611172613929926101e09594614c60565b60c0810151600384015560e081015160048401556101008101516005840155610120810151600680850191909155610140820151600785015561016082015160088501556101808201516009850180546001600160a01b039283166001600160a01b0319918216179091556101a0840151600a870180549190931691161790556101c0820151600b85015591015195908610156112995750602094600c6139d09201614c84565b6040516001600160a01b039182168082529290911690339084907f5e02698c1650d6cbe1f7e8a48609d0da45ad7f5e4c13cd8b196f82965c0ab0d5908790a480613a1e575b50604051908152f35b7f957372c0e02d2882134cc0eebbef9e446634d8ccbb1cbb112bdefdd3cf0a643c83604051848152a25f613a15565b9093506020813d602011613a79575b81613a6960209383614a85565b81010312610ad25751925f61389f565b3d9150613a5c565b613a9a91506102003d81116113285761131a8183614a85565b5f613862565b613aad613ab39184614db4565b946149d6565b613abe841515614deb565b6002549060405191631c8f084760e01b8352856004840152602483015260208260448173__$8537b7efa173772577da826929141ce939$__5af4918215613162578a92613c32575b506001600160a01b03861680613b7957613b208387614f56565b340361141e578561384f93613b39610200988a33615662565b50600354613b539082908b906001600160a01b0316615662565b505b60405191825260208201525f8051602061589483398151915260403392a390613804565b8a6020613b868589614f56565b6064604051809481936323b872dd60e01b83523360048401523060248401526044830152865af1908115610fb4578c91613bf4575b50156114c8578561384f93613bd4610200988a33615662565b50600354613bee9082908b906001600160a01b0316615662565b50613b55565b90506020813d602011613c2a575b81613c0f60209383614a85565b81010312613c2657613c2090614abb565b5f613bbb565b8b80fd5b3d9150613c02565b9091506020813d602011613c5e575b81613c4e60209383614a85565b81010312610ad25751905f613b06565b3d9150613c41565b503461027b5761020061384f613c7b36614878565b613c9360ff8b9a9694979899939a5460a01c166149d6565b338a52600160205260408a2060018060a01b0387165f52602052613cbd8360405f20541015614a07565b61381983873361559d565b503461027b57604036600319011261027b577f14bdaadaed0453e7b5b66195b42156ba995b9e5abd0da98368839851d69ad8896040600435613d0861476a565b613d1c60018060a01b038654163314614e8c565b6001600160a01b0316613d30811515614ebd565b613d416402540be400831115614deb565b81600255806bffffffffffffffffffffffff60a01b600354161760035582519182526020820152a180f35b503461027b57606036600319011261027b5760043590602435906044356006811015610fe35783825260046020526040822093600185019160018060a01b0383541633148015613fdb575b8015613fc5575b613dc790614c9c565b73__$69ea93bdf3b1e5da8164bfe3d9a878d765$__803b15610fd457846040518092630252a86760e51b82528180613e028c60048301614ccd565b03915af480156112f557908591613fb0575b505084158015613fa6575b613e2890614e4e565b855483546002880180549096926001600160a01b0391821680159333908416811493909216909114908315613f9c575b5060405193613e6685614a38565b86855260208501998a52613e7e604086019687614e80565b606085019182526080850192835260a085019315158452600260c08601958287526007549b8c845260096020526040842091518255516001820155019551906006821015611299575092613f328693613f1960609794613f0260209f987f867051316d0aafc6bf3704f0b32fa0e735bb03d37318b95179bdc1c5017467c09b614c84565b51865461ff00191690151560081b61ff0016178655565b51845462ff0000191690151560101b62ff000016178455565b518254915164ffff0000001990921690151560181b63ff00000016179015158a1b64ff00000000161790555493549454604080516001600160a01b03928316815233818b015290810188905295811695941693a4613f91600754614c3e565b600755604051908152f35b331492505f613e58565b5042851115613e1f565b81613fba91614a85565b6131b757835f613e14565b5060028601546001600160a01b03163314613dbe565b5085546001600160a01b03163314613db7565b50613ff83661484a565b838594939294526004602052604085209061401a6402540be400821115614deb565b600182019461403360018060a01b038754163314614c9c565b8673__$69ea93bdf3b1e5da8164bfe3d9a878d765$__803b15610fe357816040518092630252a86760e51b8252818061406f8a60048301614ccd565b03915af48015610fd8576142eb575b50506002830196875461409760ff8260a81c1615614e1c565b836142d1575b5033815260016020526040812060018060a01b0386165f5260205260405f20548281106140e6575b5050908184612dce602095945f805160206158b4833981519152973361559d565b6140f4908392959493614db4565b9461410560ff865460a01c166149d6565b614110861515614deb565b6002549460405195631c8f084760e01b8752876004880152602487015260208660448173__$8537b7efa173772577da826929141ce939$__5af4958615611bfc57819661429d575b506001600160a01b03821690816141db57506141748688614f56565b340361141e57866020966141975f805160206158b4833981519152998533615662565b506003546141b190829086906001600160a01b0316615662565b505b604051918252878201525f8051602061589483398151915260403392a39481929394506140c5565b6141e58789614f56565b604051906323b872dd60e01b8252336004830152306024830152604482015260208160648185875af1918215610b1e578092614260575b5050156114c857866020966142405f805160206158b4833981519152998533615662565b5060035461425a90829086906001600160a01b0316615662565b506141b3565b9091506020823d602011614295575b8161427c60209383614a85565b8101031261027b575061428e90614abb565b5f8061421c565b3d915061426f565b9095506020813d6020116142c9575b816142b960209383614a85565b81010312610ad25751945f614158565b3d91506142ac565b6142e5906001600160a01b03161515614e4e565b5f61409d565b816142f591614a85565b612e6b57865f61407e565b503461027b578060031936011261027b576003546040516001600160a01b039091168152602090f35b503461027b578060031936011261027b576020600854604051908152f35b5034610ad25761435636614827565b929190815f52600460205260405f2090600182019360018060a01b03855416331480156144ce575b61438790614c9c565b73__$69ea93bdf3b1e5da8164bfe3d9a878d765$__803b15610ad2575f6040518092630252a86760e51b825281806143c28960048301614ccd565b03915af480156144c3576144b0575b50600683016143e7838254611604828210614a07565b905560018060a01b03600a84015416600884015460405190631c8f084760e01b8252846004830152602482015260208160448173__$8537b7efa173772577da826929141ce939$__5af4928315610b1e579261446f575b505f805160206157f4833981519152936116b3838361169d8b61061e9660018060a01b03875416611697868c614db4565b9091506020813d6020116144a8575b8161448b60209383614a85565b81010312610ad25751905f805160206157f483398151915261443e565b3d915061447e565b6144bc91505f90614a85565b5f806143d1565b6040513d5f823e3d90fd5b5060028301546001600160a01b0316331461437e565b34610ad2576102006145806144f836614796565b9261451660ff5f9d99979d9c969c9b9a9b9493945460a01c166149d6565b335f52600160205260405f2060018060a01b0382165f526020526145408660405f20541015614a07565b61454b86823361559d565b5073__$69ea93bdf3b1e5da8164bfe3d9a878d765$__9a6040519c8d98899863652e83d760e01b8a528d8d3360048d01614bd2565b0381865af49384156144c3575f94614749575b5060206005546102246040518096819363797d4ee160e01b83526145ba600484018b6148f5565b6102048301525af49283156144c3575f93614715575b506145dc600554614c3e565b6005555f83815260046020908152604091829020865181546001600160a01b03199081166001600160a01b039283161783559288015160018301805485169183169190911790559287015160028201805490931693169290921781556060860151919590916003811015614701578261117261465b926101e095614c60565b60c0810151600387015560e081015160048701556101008101516005870155610120810151600680880191909155610140820151600788015561016082015160088801556101808201516009880180546001600160a01b039283166001600160a01b0319918216179091556101a0840151600a8a0180549190931691161790556101c0820151600b880155910151949085101561470157602094600c6112559201614c84565b634e487b7160e01b5f52602160045260245ffd5b9092506020813d602011614741575b8161473160209383614a85565b81010312610ad2575191846145d0565b3d9150614724565b6147639194506102003d81116113285761131a8183614a85565b9284614593565b602435906001600160a01b0382168203610ad257565b600435906001600160a01b0382168203610ad257565b610140906003190112610ad2576004356001600160a01b0381168103610ad257906024356001600160a01b0381168103610ad2579060443590606435906084359060a4359060c4356001600160a01b0381168103610ad2579060e4356001600160a01b0381168103610ad257906101043590610124356006811015610ad25790565b602435908115158203610ad257565b6060906003190112610ad25760043590602435906044358015158103610ad25790565b6080906003190112610ad257600435906024356001600160a01b0381168103610ad257906044359060643590565b60e0906003190112610ad2576004356001600160a01b0381168103610ad257906024356001600160a01b0381168103610ad2579060443590606435906084356001600160a01b0381168103610ad2579060a4359060c4356006811015610ad25790565b9060038210156147015752565b9060068210156147015752565b80516001600160a01b039081168352602080830151821690840152604080830151909116908301526060808201516149d493926101e092839261493a918601906148db565b60808101511515608085015260a0810151151560a085015260c081015160c085015260e081015160e085015261010081015161010085015261012081015161012085015261014081015161014085015261016081015161016085015260018060a01b036101808201511661018085015260018060a01b036101a0820151166101a08501526101c08101516101c085015201519101906148e8565b565b156149dd57565b60405162461bcd60e51b81526020600482015260026024820152614c3160f01b6044820152606490fd5b15614a0e57565b60405162461bcd60e51b8152602060048201526002602482015261543160f01b6044820152606490fd5b60e0810190811067ffffffffffffffff821117614a5457604052565b634e487b7160e01b5f52604160045260245ffd5b610200810190811067ffffffffffffffff821117614a5457604052565b90601f8019910116810190811067ffffffffffffffff821117614a5457604052565b51906001600160a01b0382168203610ad257565b51908115158203610ad257565b9081610200910312610ad25760405190614ae182614a68565b614aea81614aa7565b8252614af860208201614aa7565b6020830152614b0960408201614aa7565b60408301526060810151906003821015610ad2576101e0916060840152614b3260808201614abb565b6080840152614b4360a08201614abb565b60a084015260c081015160c084015260e081015160e0840152610100810151610100840152610120810151610120840152610140810151610140840152610160810151610160840152614b996101808201614aa7565b610180840152614bac6101a08201614aa7565b6101a08401526101c08101516101c084015201516006811015610ad2576101e082015290565b6001600160a01b039182168152918116602083015291821660408201526060810192909252608082019290925260a081019290925260c082019290925291811660e0830152909116610100820152610120810191909152610160810192916149d49161014001906148e8565b5f198114614c4c5760010190565b634e487b7160e01b5f52601160045260245ffd5b90600381101561470157815460ff60a01b191660a09190911b60ff60a01b16179055565b9060068110156147015760ff80198354169116179055565b15614ca357565b60405162461bcd60e51b8152602060048201526002602482015261443560f01b6044820152606490fd5b81546001600160a01b03908116825260018301548116602083015260028301549081166040830152610200820193926149d492916101e09160ff91600c91908390614d216060880160a083901c84166148db565b60a881901c82161515608088015260b01c16151560a0860152600381015460c0860152600481015460e0860152600581015461010086015260068101546101208601526007810154610140860152600881015461016086015260098101546001600160a01b03908116610180870152600a820154166101a0860152600b8101546101c086015201549190920191166148e8565b91908203918211614c4c57565b6001600160a01b039182168152911660208201526040810191909152606081019190915260800190565b15614df257565b60405162461bcd60e51b8152602060048201526002602482015261433560f01b6044820152606490fd5b15614e2357565b606460405162461bcd60e51b81526020600482015260046024820152632219171960e11b6044820152fd5b15614e5557565b606460405162461bcd60e51b815260206004820152600460248201526344312e3160e01b6044820152fd5b60068210156147015752565b15614e9357565b60405162461bcd60e51b8152602060048201526002602482015261261960f11b6044820152606490fd5b15614ec457565b60405162461bcd60e51b8152602060048201526002602482015261433160f01b6044820152606490fd5b6001600160a01b0391821681529181166020830152918216604082015260608101929092525f6080830181905260a083019390935260c0820183905290921660e0830152610100820152610120810191909152610160810192916149d49161014001906148e8565b91908201809211614c4c57565b15614f6a57565b606460405162461bcd60e51b815260206004820152600460248201526344332e3160e01b6044820152fd5b15614f9c57565b606460405162461bcd60e51b815260206004820152600460248201526344322e3160e01b6044820152fd5b15614fce57565b60405162461bcd60e51b8152602060048201526002602482015261443360f01b6044820152606490fd5b15614fff57565b606460405162461bcd60e51b815260206004820152600460248201526343332e3160e01b6044820152fd5b90815f52600a60205260405f2080545f52600460205260405f2060018060a01b0381541633148015615222575b61506090614c9c565b600482019283549061507860ff8360101c1615614ff8565b6151c25750600281018054909190615099906001600160a01b031615614ff8565b80546001600160a01b031633146151b2575b60018101546001600160a01b031633146151a0575b835460ff81169081615192575b506151235750505060807fda0fdc90d2cac3c2211c13cf60368aceb049a3073b8be0b90792021888c55fc5915460ff604051913383528181161515602084015260081c16151560408201525f6060820152a25f90565b60028301546007820155600383015460089091015560018201805482546001600160a01b0319166001600160a01b0391821617909255549154604051908152911692507f957372c0e02d2882134cc0eebbef9e446634d8ccbb1cbb112bdefdd3cf0a643c9150602090a2600190565b60ff915060081c165f6150cd565b835461ff0019166101001784556150c0565b835460ff191660011784556150ab565b90506080915060ff7fda0fdc90d2cac3c2211c13cf60368aceb049a3073b8be0b90792021888c55fc5936201000062ff0000198416178091558160405193338552161515602084015260081c161515604082015260016060820152a25f90565b5060018101546001600160a01b03163314615057565b5f91815f52600960205260405f2080545f52600460205260405f2090600182019060018060a01b0382541633148015615554575b801561553e575b61527c90614c9c565b600281019384549061529460ff8360201c1615614ff8565b6154c5575073__$69ea93bdf3b1e5da8164bfe3d9a878d765$__803b15610ad2575f6040518092630252a86760e51b825281806152d48960048301614ccd565b03915af480156144c3576154b0575b5060018101805491821580156154a6575b6152fd90614e4e565b84546001600160a01b03163314615494575b83546001600160a01b03163314615480575b6002850180549093906001600160a01b0316331461546a575b865460ff8160081c16908161545b575b8161544d575b506153b85750505050505060a07fca0792b3957820bc249dd7664026ca960efe1500204314bf8161056d3847d526915460ff60405191338352818160081c1615156020840152818160101c161515604084015260181c1615156060820152846080820152a290565b8598509160ff7f932bd05aaee1f6600767846bab40eaabef608993e19645684d0a9fcb3335d37297926154479594600b60c09901556153fd82855416600c8d01614c84565b5499549554935491549254604080516001600160a01b039889168152958816602087015292909616918401919091523360608401526080830191909152909260a0840191166148e8565ba3600190565b60ff915060181c165f615350565b905060ff8160101c169061534a565b865463ff0000001916630100000017875561533a565b855462ff0000191662010000178655615321565b855461ff00191661010017865561530f565b50428311156152f4565b6154bd9196505f90614a85565b5f945f6152e3565b90507fca0792b3957820bc249dd7664026ca960efe1500204314bf8161056d3847d52694955060a0939250640100000000915064ff0000000019161780915560ff60405191338352818160081c1615156020840152818160101c161515604084015260181c161515606082015260016080820152a25f90565b5060028301546001600160a01b03163314615273565b5082546001600160a01b0316331461526c565b6040519061557482614a38565b5f60c0838281528260208201528260408201528260608201528260808201528260a08201520152565b821561563c5760018060a01b031690815f52600160205260405f2060018060a01b0382165f526020528260405f205410615635577fd1398bee19313d6bf672ccb116e51f4a1a947e91c757907f51fbb5b5e56c698f60205f92848452600182526040842060018060a01b038216855282526040842061561d878254614db4565b90556040519586526001600160a01b031694a4600190565b5050505f90565b505050600190565b90929190156156595761565692615662565b90565b615656926156bd565b821561563c577fd1398bee19313d6bf672ccb116e51f4a1a947e91c757907f51fbb5b5e56c698f60205f9260018060a01b031693848452600182526040842060018060a01b038216855282526040842061561d878254614f56565b9190811561563c576001600160a01b03169182615725575f808080856001600160a01b03861682f1156144c35760207f2717ead6b9200dd235aad468c9809ea400fe33ac69b5bfaa6d3e90fc922b6398915b6040519384526001600160a01b031692a3600190565b60405163a9059cbb60e01b81526001600160a01b0382166004820152602481018390526020816044815f885af19081156144c3575f916157b9575b501561578f5760207f2717ead6b9200dd235aad468c9809ea400fe33ac69b5bfaa6d3e90fc922b63989161570f565b60405162461bcd60e51b8152602060048201526002602482015261543360f01b6044820152606490fd5b90506020813d6020116157eb575b816157d460209383614a85565b81010312610ad2576157e590614abb565b5f615760565b3d91506157c756fe8af39814826d4542f7fe66e6fa6ac2ac59bfc8221394f51a41dba5c54dba0ac9afbe337783658b293f1566e1790bfab9858b8cf08de944ca3cd013d4211887b8086c61b89ef5fcdb14c243b643069c3c6a84765b27f2a696b875dddf031afb4d9d5818ec36d6e85e8a30346f5fe41b65cc50cea2b868ae94f293d113c92a1338a6af192380b5ba311ac003f57efa2be0717f0e466318c7e9cf546c4937a03d94dcbc1c05240f31ff3ad067ef1ee35ce4997762752e3a095284754544f4c709d79f039f6754f2d286001d6bb50c1b3cc185b309e82f63077e29516a6a87e8e99da26469706673582212209216fcb85ef668680a58cde254e86b69d95e4cf1f4f7d8ebbd7f205a4c111a2c64736f6c634300081a0033",
			"opcodes": "PUSH1 0x80 CALLVALUE PUSH2 0x13A JUMPI PUSH1 0x1F PUSH2 0x5A5C CODESIZE DUP2 SWAP1 SUB SWAP2 DUP3 ADD PUSH1 0x1F NOT AND DUP4 ADD SWAP2 PUSH1 0x1 PUSH1 0x1 PUSH1 0x40 SHL SUB DUP4 GT DUP5 DUP5 LT OR PUSH2 0x13E JUMPI DUP1 DUP5 SWAP3 PUSH1 0x40 SWAP5 DUP6 MSTORE DUP4 CODECOPY DUP2 ADD SUB SLT PUSH2 0x13A JUMPI DUP1 MLOAD PUSH1 0x20 SWAP1 SWAP2 ADD MLOAD PUSH1 0x1 PUSH1 0x1 PUSH1 0xA0 SHL SUB DUP2 AND SWAP2 SWAP1 DUP3 SWAP1 SUB PUSH2 0x13A JUMPI PUSH0 DUP1 SLOAD PUSH1 0x1 PUSH1 0x1 PUSH1 0xA8 SHL SUB NOT AND CALLER OR PUSH1 0x1 PUSH1 0xA0 SHL OR DUP1 DUP3 SSTORE PUSH1 0x40 MLOAD SWAP2 PUSH1 0x1 PUSH1 0x1 PUSH1 0xA0 SHL SUB SWAP1 SWAP2 AND SWAP1 PUSH32 0x8BE0079C531659141344CD1FD0A4F28419497F9722A3DAAFE3B4186F6B6457E0 DUP2 DUP1 LOG3 DUP3 ISZERO PUSH2 0x113 JUMPI POP PUSH5 0x2540BE400 DUP2 GT PUSH2 0xE9 JUMPI PUSH1 0x2 SSTORE PUSH1 0x1 DUP1 PUSH1 0xA0 SHL SUB NOT PUSH1 0x3 SLOAD AND OR PUSH1 0x3 SSTORE PUSH0 PUSH1 0x5 SSTORE PUSH0 PUSH1 0x6 SSTORE PUSH0 PUSH1 0x7 SSTORE PUSH0 PUSH1 0x8 SSTORE PUSH1 0x40 MLOAD PUSH2 0x5909 SWAP1 DUP2 PUSH2 0x153 DUP3 CODECOPY RETURN JUMPDEST PUSH1 0x40 MLOAD PUSH3 0x461BCD PUSH1 0xE5 SHL DUP2 MSTORE PUSH1 0x20 PUSH1 0x4 DUP3 ADD MSTORE PUSH1 0x2 PUSH1 0x24 DUP3 ADD MSTORE PUSH2 0x4335 PUSH1 0xF0 SHL PUSH1 0x44 DUP3 ADD MSTORE PUSH1 0x64 SWAP1 REVERT JUMPDEST PUSH3 0x461BCD PUSH1 0xE5 SHL DUP2 MSTORE PUSH1 0x20 PUSH1 0x4 DUP3 ADD MSTORE PUSH1 0x2 PUSH1 0x24 DUP3 ADD MSTORE PUSH2 0x4331 PUSH1 0xF0 SHL PUSH1 0x44 DUP3 ADD MSTORE PUSH1 0x64 SWAP1 REVERT JUMPDEST PUSH0 DUP1 REVERT JUMPDEST PUSH4 0x4E487B71 PUSH1 0xE0 SHL PUSH0 MSTORE PUSH1 0x41 PUSH1 0x4 MSTORE PUSH1 0x24 PUSH0 REVERT INVALID PUSH1 0x80 PUSH1 0x40 MSTORE PUSH1 0x4 CALLDATASIZE LT ISZERO PUSH2 0x11 JUMPI PUSH0 DUP1 REVERT JUMPDEST PUSH0 DUP1 CALLDATALOAD PUSH1 0xE0 SHR DUP1 PUSH3 0x7E8BD3 EQ PUSH2 0x44E4 JUMPI DUP1 PUSH4 0x1CAFAE3 EQ PUSH2 0x4347 JUMPI DUP1 PUSH4 0x2927459 EQ PUSH2 0x4329 JUMPI DUP1 PUSH4 0x6FD154A EQ PUSH2 0x4300 JUMPI DUP1 PUSH4 0x934DA22 EQ PUSH2 0x3FEE JUMPI DUP1 PUSH4 0x1273C165 EQ PUSH2 0x3D6C JUMPI DUP1 PUSH4 0x15F8A314 EQ PUSH2 0x3CC8 JUMPI DUP1 PUSH4 0x17B52B50 EQ PUSH2 0x3C66 JUMPI DUP1 PUSH4 0x28D5A050 EQ PUSH2 0x37BB JUMPI DUP1 PUSH4 0x367EDD32 EQ PUSH2 0x3755 JUMPI DUP1 PUSH4 0x39B3EDB0 EQ PUSH2 0x36B2 JUMPI DUP1 PUSH4 0x4187129C EQ PUSH2 0x35F0 JUMPI DUP1 PUSH4 0x41B3A0D9 EQ PUSH2 0x35CB JUMPI DUP1 PUSH4 0x47E7EF24 EQ PUSH2 0x3408 JUMPI DUP1 PUSH4 0x51A6FAD5 EQ PUSH2 0x3276 JUMPI DUP1 PUSH4 0x53A78000 EQ PUSH2 0x31F8 JUMPI DUP1 PUSH4 0x619C457E EQ PUSH2 0x31D1 JUMPI DUP1 PUSH4 0x6242C6CD EQ PUSH2 0x2E6F JUMPI DUP1 PUSH4 0x63ADB66F EQ PUSH2 0x2CD4 JUMPI DUP1 PUSH4 0x67C5545D EQ PUSH2 0x299D JUMPI DUP1 PUSH4 0x70A08231 EQ PUSH2 0x295C JUMPI DUP1 PUSH4 0x71AE8BCD EQ PUSH2 0x2935 JUMPI DUP1 PUSH4 0x80CCB070 EQ PUSH2 0x2862 JUMPI DUP1 PUSH4 0x81CD872A EQ PUSH2 0x273F JUMPI DUP1 PUSH4 0x894BA833 EQ PUSH2 0x26E0 JUMPI DUP1 PUSH4 0x8DA5CB5B EQ PUSH2 0x26B9 JUMPI DUP1 PUSH4 0x8DEEA5FB EQ PUSH2 0x25BE JUMPI DUP1 PUSH4 0x966D1F1D EQ PUSH2 0x25A0 JUMPI DUP1 PUSH4 0x9905A1EA EQ PUSH2 0x23FE JUMPI DUP1 PUSH4 0x9974F376 EQ PUSH2 0x23E0 JUMPI DUP1 PUSH4 0xA0849A33 EQ PUSH2 0x2248 JUMPI DUP1 PUSH4 0xA471EE4F EQ PUSH2 0x2021 JUMPI DUP1 PUSH4 0xAD94B28B EQ PUSH2 0x1CF3 JUMPI DUP1 PUSH4 0xBA343F6D EQ PUSH2 0x1C1D JUMPI DUP1 PUSH4 0xBB06C1A4 EQ PUSH2 0x18D6 JUMPI DUP1 PUSH4 0xBEABACC8 EQ PUSH2 0x17E8 JUMPI DUP1 PUSH4 0xC15A25BF EQ PUSH2 0x1768 JUMPI DUP1 PUSH4 0xC23F001F EQ PUSH2 0x174C JUMPI DUP1 PUSH4 0xC2C257B9 EQ PUSH2 0x1564 JUMPI DUP1 PUSH4 0xCFADF6C7 EQ PUSH2 0xFFD JUMPI DUP1 PUSH4 0xD750158B EQ PUSH2 0xCB4 JUMPI DUP1 PUSH4 0xE08560A4 EQ PUSH2 0xC96 JUMPI DUP1 PUSH4 0xEB457329 EQ PUSH2 0xBBC JUMPI DUP1 PUSH4 0xEE026054 EQ PUSH2 0x3CF JUMPI DUP1 PUSH4 0xF2FDE38B EQ PUSH2 0x303 JUMPI DUP1 PUSH4 0xF3FEF3A3 EQ PUSH2 0x29C JUMPI DUP1 PUSH4 0xF5F6A8E4 EQ PUSH2 0x27E JUMPI PUSH4 0xF7888AEC EQ PUSH2 0x229 JUMPI PUSH0 DUP1 REVERT JUMPDEST CALLVALUE PUSH2 0x27B JUMPI PUSH1 0x40 CALLDATASIZE PUSH1 0x3 NOT ADD SLT PUSH2 0x27B JUMPI PUSH1 0x40 PUSH2 0x244 PUSH2 0x4780 JUMP JUMPDEST SWAP2 PUSH2 0x24D PUSH2 0x476A JUMP JUMPDEST SWAP3 PUSH1 0x1 DUP1 PUSH1 0xA0 SHL SUB AND DUP2 MSTORE PUSH1 0x1 PUSH1 0x20 MSTORE KECCAK256 SWAP1 PUSH1 0x1 DUP1 PUSH1 0xA0 SHL SUB AND PUSH0 MSTORE PUSH1 0x20 MSTORE PUSH1 0x20 PUSH1 0x40 PUSH0 KECCAK256 SLOAD PUSH1 0x40 MLOAD SWAP1 DUP2 MSTORE RETURN JUMPDEST DUP1 REVERT JUMPDEST POP CALLVALUE PUSH2 0x27B JUMPI DUP1 PUSH1 0x3 NOT CALLDATASIZE ADD SLT PUSH2 0x27B JUMPI PUSH1 0x20 PUSH1 0x2 SLOAD PUSH1 0x40 MLOAD SWAP1 DUP2 MSTORE RETURN JUMPDEST POP CALLVALUE PUSH2 0x27B JUMPI PUSH1 0x40 CALLDATASIZE PUSH1 0x3 NOT ADD SLT PUSH2 0x27B JUMPI PUSH2 0x2F9 PUSH1 0x20 SWAP2 PUSH2 0x2BC PUSH2 0x4780 JUMP JUMPDEST PUSH1 0x40 PUSH1 0x24 CALLDATALOAD SWAP3 CALLER DUP2 MSTORE PUSH1 0x1 DUP7 MSTORE KECCAK256 PUSH1 0x1 DUP1 PUSH1 0xA0 SHL SUB DUP3 AND PUSH0 MSTORE DUP5 MSTORE PUSH2 0x2E7 DUP3 PUSH1 0x40 PUSH0 KECCAK256 SLOAD LT ISZERO PUSH2 0x4A07 JUMP JUMPDEST PUSH2 0x2F2 DUP3 DUP3 CALLER PUSH2 0x559D JUMP JUMPDEST POP CALLER PUSH2 0x56BD JUMP JUMPDEST PUSH1 0x40 MLOAD SWAP1 ISZERO ISZERO DUP2 MSTORE RETURN JUMPDEST POP CALLVALUE PUSH2 0x27B JUMPI PUSH1 0x20 CALLDATASIZE PUSH1 0x3 NOT ADD SLT PUSH2 0x27B JUMPI PUSH2 0x31D PUSH2 0x4780 JUMP JUMPDEST DUP2 SLOAD PUSH1 0x1 PUSH1 0x1 PUSH1 0xA0 SHL SUB DUP2 AND SWAP2 PUSH2 0x335 CALLER DUP5 EQ PUSH2 0x4E8C JUMP JUMPDEST PUSH1 0x1 PUSH1 0x1 PUSH1 0xA0 SHL SUB AND SWAP2 DUP3 ISZERO PUSH2 0x37B JUMPI DUP3 SWAP1 PUSH32 0x8BE0079C531659141344CD1FD0A4F28419497F9722A3DAAFE3B4186F6B6457E0 DUP6 DUP1 LOG3 PUSH1 0x1 PUSH1 0x1 PUSH1 0xA0 SHL SUB NOT AND OR DUP2 SSTORE DUP1 RETURN JUMPDEST PUSH1 0x40 MLOAD PUSH3 0x461BCD PUSH1 0xE5 SHL DUP2 MSTORE PUSH1 0x20 PUSH1 0x4 DUP3 ADD MSTORE PUSH1 0x26 PUSH1 0x24 DUP3 ADD MSTORE PUSH32 0x4F776E61626C653A206E6577206F776E657220697320746865207A65726F2061 PUSH1 0x44 DUP3 ADD MSTORE PUSH6 0x646472657373 PUSH1 0xD0 SHL PUSH1 0x64 DUP3 ADD MSTORE PUSH1 0x84 SWAP1 REVERT JUMPDEST POP CALLVALUE PUSH2 0x27B JUMPI PUSH1 0x40 CALLDATASIZE PUSH1 0x3 NOT ADD SLT PUSH2 0x27B JUMPI PUSH1 0x4 CALLDATALOAD PUSH2 0x3EC PUSH2 0x4818 JUMP JUMPDEST SWAP1 DUP1 DUP4 MSTORE PUSH1 0x4 PUSH1 0x20 MSTORE PUSH1 0x40 DUP4 KECCAK256 SWAP1 PUSH1 0x1 DUP3 ADD SWAP2 PUSH1 0x1 DUP1 PUSH1 0xA0 SHL SUB DUP4 SLOAD AND CALLER EQ DUP1 ISZERO PUSH2 0xBA9 JUMPI JUMPDEST DUP1 ISZERO PUSH2 0xB93 JUMPI JUMPDEST PUSH2 0x422 SWAP1 PUSH2 0x4C9C JUMP JUMPDEST PUSH1 0x2 DUP2 ADD SWAP4 DUP5 SLOAD PUSH1 0xFF DUP2 PUSH1 0xB0 SHR AND ISZERO PUSH2 0xB69 JUMPI PUSH1 0xA0 SHR PUSH1 0xFF AND PUSH1 0x3 DUP2 LT ISZERO PUSH2 0xB55 JUMPI PUSH1 0x2 PUSH2 0x450 SWAP2 EQ PUSH2 0x4FC7 JUMP JUMPDEST PUSH1 0xB DUP3 ADD SLOAD TIMESTAMP LT PUSH2 0xB2A JUMPI DUP6 PUSH1 0xFF PUSH1 0xC DUP5 ADD SLOAD AND SWAP2 PUSH1 0x5 DUP5 ADD SLOAD PUSH1 0x1 DUP1 PUSH1 0xA0 SHL SUB PUSH1 0x9 DUP7 ADD SLOAD AND SWAP2 PUSH1 0x6 DUP7 ADD SLOAD SWAP2 PUSH1 0x1 DUP1 PUSH1 0xA0 SHL SUB PUSH1 0xA DUP9 ADD SLOAD AND SWAP3 PUSH1 0x7 DUP9 ADD SLOAD SWAP7 PUSH1 0x8 DUP10 ADD SLOAD PUSH20 0x0 SWAP9 PUSH1 0x40 MLOAD SWAP1 PUSH4 0x1C8F0847 PUSH1 0xE0 SHL DUP3 MSTORE DUP6 PUSH1 0x4 DUP4 ADD MSTORE PUSH1 0x24 DUP3 ADD MSTORE PUSH1 0x20 DUP2 PUSH1 0x44 DUP2 DUP14 GAS DELEGATECALL SWAP9 DUP10 ISZERO PUSH2 0xB1E JUMPI SWAP9 PUSH2 0xAE9 JUMPI JUMPDEST POP PUSH1 0x20 SWAP1 PUSH1 0x44 PUSH1 0x40 MLOAD DUP1 SWAP12 DUP2 SWAP4 PUSH4 0x1C8F0847 PUSH1 0xE0 SHL DUP4 MSTORE DUP8 PUSH1 0x4 DUP5 ADD MSTORE PUSH1 0x24 DUP4 ADD MSTORE GAS DELEGATECALL SWAP8 DUP9 ISZERO PUSH2 0xADE JUMPI DUP14 SWAP9 PUSH2 0xAA6 JUMPI JUMPDEST POP PUSH1 0x6 DUP2 LT ISZERO PUSH2 0xA92 JUMPI SWAP3 DUP3 DUP3 PUSH1 0x4 DUP16 SWAP7 DUP16 SWAP7 SWAP8 DUP16 DUP16 SWAP1 PUSH0 DUP1 MLOAD PUSH1 0x20 PUSH2 0x5834 DUP4 CODECOPY DUP2 MLOAD SWAP2 MSTORE SWAP16 SWAP14 SWAP12 SWAP9 SWAP2 PUSH2 0x61E SWAP16 SWAP14 SWAP12 DUP16 DUP16 DUP16 SWAP1 DUP16 SWAP3 DUP16 SWAP8 SWAP5 DUP16 SWAP6 DUP16 SWAP7 DUP8 DUP10 DUP5 DUP16 DUP16 DUP16 DUP16 SWAP1 DUP2 DUP15 DUP14 DUP16 SWAP5 PUSH1 0x1 DUP16 SWAP9 DUP15 SWAP9 DUP9 DUP16 SWAP5 DUP16 DUP16 SWAP1 DUP16 DUP16 SWAP1 DUP16 SWAP2 DUP6 DUP16 SWAP2 SWAP5 DUP6 DUP16 DUP16 SWAP10 DUP16 SWAP9 DUP11 DUP16 DUP11 DUP16 SWAP5 DUP16 DUP8 SWAP1 DUP16 SWAP3 DUP12 SWAP8 DUP16 SWAP5 DUP16 SWAP8 ISZERO PUSH2 0x9AA JUMPI JUMPDEST POP POP POP POP POP POP POP POP POP POP POP PUSH1 0x2 DUP14 EQ PUSH2 0x8AB JUMPI JUMPDEST POP POP POP POP POP POP POP POP POP POP POP POP EQ PUSH2 0x7BD JUMPI JUMPDEST POP POP POP POP POP POP POP POP POP POP POP PUSH1 0x3 DUP14 EQ PUSH2 0x720 JUMPI JUMPDEST POP POP POP POP POP POP POP POP POP POP POP POP EQ PUSH2 0x62C JUMPI JUMPDEST POP POP DUP12 SLOAD PUSH1 0x1 PUSH1 0xA0 SHL PUSH1 0xFF PUSH1 0xA0 SHL NOT DUP3 AND OR SWAP1 SWAP13 SSTORE POP POP SWAP4 SLOAD SWAP8 SLOAD PUSH1 0x40 DUP1 MLOAD PUSH1 0x1 PUSH1 0x1 PUSH1 0xA0 SHL SUB SWAP12 DUP13 AND DUP2 MSTORE CALLER PUSH1 0x20 DUP3 ADD MSTORE SWAP2 DUP12 AND SWAP11 SWAP1 SWAP10 AND SWAP9 SWAP1 SWAP6 DUP7 SWAP6 POP SWAP1 DUP6 ADD SWAP4 POP SWAP2 POP POP JUMP JUMPDEST SUB SWAP1 LOG4 PUSH1 0x20 PUSH1 0x40 MLOAD PUSH1 0x1 DUP2 MSTORE RETURN JUMPDEST DUP6 DUP9 SWAP6 PUSH2 0x67D DUP10 SWAP4 PUSH2 0x65B PUSH2 0x68E SWAP7 PUSH2 0x6A0 SWAP12 PUSH2 0x654 DUP9 PUSH1 0x1 DUP1 PUSH1 0xA0 SHL SUB PUSH1 0x3 SLOAD AND SWAP4 PUSH2 0x4DB4 JUMP JUMPDEST SWAP2 DUP11 PUSH2 0x5644 JUMP JUMPDEST POP PUSH1 0x3 SLOAD PUSH1 0x1 PUSH1 0x1 PUSH1 0xA0 SHL SUB AND SWAP1 DUP9 SWAP1 PUSH2 0x676 SWAP1 DUP12 SWAP1 PUSH2 0x4DB4 JUMP JUMPDEST SWAP2 DUP9 PUSH2 0x5644 JUMP JUMPDEST POP SLOAD PUSH1 0x1 PUSH1 0x1 PUSH1 0xA0 SHL SUB AND DUP5 PUSH2 0x5644 JUMP JUMPDEST POP DUP12 SLOAD PUSH1 0x1 PUSH1 0x1 PUSH1 0xA0 SHL SUB AND SWAP1 PUSH2 0x5644 JUMP JUMPDEST POP DUP3 SLOAD DUP8 SLOAD DUP10 SLOAD PUSH1 0x3 SLOAD PUSH1 0x40 DUP1 MLOAD PUSH1 0x1 PUSH1 0x1 PUSH1 0xA0 SHL SUB SWAP4 DUP5 AND DUP2 MSTORE CALLER PUSH1 0x20 DUP3 ADD MSTORE SWAP2 DUP4 AND SWAP1 DUP3 ADD MSTORE PUSH1 0x60 DUP2 ADD DUP6 SWAP1 MSTORE PUSH1 0x80 DUP2 ADD DUP7 SWAP1 MSTORE PUSH1 0xA0 DUP2 ADD SWAP5 SWAP1 SWAP5 MSTORE PUSH1 0xC0 DUP5 ADD SWAP5 SWAP1 SWAP5 MSTORE DUP4 AND SWAP3 AND SWAP1 DUP7 SWAP1 PUSH32 0x8E100DC3335E09B082C843425F71EA8AE9D91AE5BB385EF4B41D0D2C6AA87214 SWAP1 PUSH1 0xE0 SWAP1 LOG4 DUP7 DUP1 DUP1 DUP9 DUP2 DUP1 DUP1 DUP1 PUSH2 0x5D5 JUMP JUMPDEST PUSH32 0x8E100DC3335E09B082C843425F71EA8AE9D91AE5BB385EF4B41D0D2C6AA87214 SWAP8 PUSH2 0x68E PUSH2 0x75D SWAP5 PUSH1 0xE0 SWAP10 DUP15 PUSH1 0x1 DUP1 PUSH1 0xA0 SHL SUB SWAP1 SLOAD AND DUP5 PUSH2 0x5644 JUMP JUMPDEST POP PUSH1 0x1 DUP1 PUSH1 0xA0 SHL SUB SWAP1 SLOAD AND SWAP6 PUSH1 0x1 DUP1 PUSH1 0xA0 SHL SUB SWAP1 SLOAD AND SWAP7 PUSH1 0x1 DUP1 PUSH1 0xA0 SHL SUB SWAP1 SLOAD AND SWAP2 PUSH1 0x40 MLOAD SWAP3 DUP1 DUP5 MSTORE CALLER PUSH1 0x20 DUP6 ADD MSTORE PUSH1 0x40 DUP5 ADD MSTORE PUSH1 0x60 DUP4 ADD MSTORE PUSH1 0x80 DUP3 ADD MSTORE DUP7 PUSH1 0xA0 DUP3 ADD MSTORE DUP7 PUSH1 0xC0 DUP3 ADD MSTORE LOG4 DUP16 DUP16 SWAP1 DUP10 SWAP2 DUP9 DUP16 DUP16 DUP16 SWAP1 DUP16 SWAP3 DUP13 DUP16 DUP14 SWAP1 PUSH2 0x5C3 JUMP JUMPDEST PUSH0 DUP1 MLOAD PUSH1 0x20 PUSH2 0x5874 DUP4 CODECOPY DUP2 MLOAD SWAP2 MSTORE SWAP11 PUSH2 0x837 PUSH0 DUP1 MLOAD PUSH1 0x20 PUSH2 0x57F4 DUP4 CODECOPY DUP2 MLOAD SWAP2 MSTORE SWAP10 PUSH2 0x81A DUP10 DUP8 DUP16 SWAP15 PUSH2 0x808 SWAP1 PUSH2 0x849 SWAP11 PUSH2 0x801 DUP6 PUSH1 0x1 DUP1 PUSH1 0xA0 SHL SUB DUP10 SLOAD AND SWAP4 PUSH2 0x4DB4 JUMP JUMPDEST SWAP2 DUP10 PUSH2 0x5644 JUMP JUMPDEST POP DUP11 SLOAD PUSH1 0x1 PUSH1 0x1 PUSH1 0xA0 SHL SUB AND DUP7 PUSH2 0x5644 JUMP JUMPDEST POP SLOAD PUSH1 0x1 PUSH1 0x1 PUSH1 0xA0 SHL SUB AND DUP4 PUSH2 0x830 DUP7 DUP13 PUSH2 0x4DB4 JUMP JUMPDEST SWAP2 DUP5 PUSH2 0x5644 JUMP JUMPDEST POP DUP6 SLOAD PUSH1 0x1 PUSH1 0x1 PUSH1 0xA0 SHL SUB AND SWAP1 PUSH2 0x5644 JUMP JUMPDEST POP PUSH1 0x1 DUP1 PUSH1 0xA0 SHL SUB DUP13 SLOAD AND SWAP7 DUP8 SWAP2 PUSH1 0x1 DUP1 PUSH1 0xA0 SHL SUB SWAP1 SLOAD AND SWAP9 DUP10 SWAP4 PUSH1 0x1 DUP1 PUSH1 0xA0 SHL SUB SWAP1 SLOAD AND SWAP5 DUP14 PUSH2 0x881 PUSH1 0x40 MLOAD SWAP3 DUP4 SWAP3 CALLER DUP11 DUP6 PUSH2 0x4DC1 JUMP JUMPDEST SUB SWAP1 LOG4 PUSH2 0x896 DUP12 PUSH1 0x40 MLOAD SWAP4 DUP5 SWAP4 CALLER SWAP1 DUP6 PUSH2 0x4DC1 JUMP JUMPDEST SUB SWAP1 LOG4 DUP8 DUP10 DUP5 DUP7 DUP6 DUP16 DUP16 SWAP1 DUP13 SWAP2 DUP15 DUP14 DUP11 PUSH2 0x5AF JUMP JUMPDEST PUSH32 0xF05D33634B730E763D232B482CF835A4481835F62D0A0973B42018A8EAD4F047 SWAP10 PUSH0 DUP1 MLOAD PUSH1 0x20 PUSH2 0x5814 DUP4 CODECOPY DUP2 MLOAD SWAP2 MSTORE SWAP9 DUP16 SWAP5 PUSH2 0x91B DUP15 DUP6 PUSH2 0x909 DUP16 SWAP10 PUSH2 0x948 SWAP9 PUSH2 0x902 DUP16 SWAP3 DUP15 DUP2 DUP9 SWAP3 PUSH1 0xA0 SHL SUB SWAP1 SLOAD AND SWAP4 PUSH2 0x4DB4 JUMP JUMPDEST SWAP2 DUP8 PUSH2 0x5644 JUMP JUMPDEST POP DUP11 SLOAD PUSH1 0x1 PUSH1 0x1 PUSH1 0xA0 SHL SUB AND DUP5 PUSH2 0x5644 JUMP JUMPDEST POP DUP7 SLOAD PUSH2 0x936 SWAP1 PUSH1 0x1 PUSH1 0x1 PUSH1 0xA0 SHL SUB AND DUP4 PUSH2 0x830 DUP7 DUP15 PUSH2 0x4DB4 JUMP JUMPDEST POP DUP8 SLOAD PUSH1 0x1 PUSH1 0x1 PUSH1 0xA0 SHL SUB AND SWAP1 PUSH2 0x5644 JUMP JUMPDEST POP DUP13 DUP1 PUSH1 0xA0 SHL SUB SWAP1 SLOAD AND SWAP8 DUP9 SWAP3 DUP14 DUP1 PUSH1 0xA0 SHL SUB SWAP1 SLOAD AND SWAP10 DUP11 SWAP5 DUP15 DUP1 PUSH1 0xA0 SHL SUB SWAP1 SLOAD AND SWAP6 PUSH2 0x97C PUSH1 0x40 MLOAD SWAP3 DUP4 SWAP3 CALLER DUP11 DUP6 PUSH2 0x4DC1 JUMP JUMPDEST SUB SWAP1 LOG4 PUSH2 0x991 DUP12 PUSH1 0x40 MLOAD SWAP4 DUP5 SWAP4 CALLER SWAP1 DUP6 PUSH2 0x4DC1 JUMP JUMPDEST SUB SWAP1 LOG4 DUP9 DUP6 DUP16 DUP16 SWAP1 DUP16 DUP16 SWAP1 DUP16 SWAP2 DUP14 DUP16 SWAP2 SWAP5 DUP13 SWAP6 DUP16 PUSH2 0x59D JUMP JUMPDEST PUSH1 0x1 SWAP10 PUSH0 DUP1 MLOAD PUSH1 0x20 PUSH2 0x5814 DUP4 CODECOPY DUP2 MLOAD SWAP2 MSTORE SWAP9 PUSH2 0xA24 PUSH2 0xA35 SWAP6 PUSH2 0xA07 DUP16 PUSH0 DUP1 MLOAD PUSH1 0x20 PUSH2 0x5874 DUP4 CODECOPY DUP2 MLOAD SWAP2 MSTORE SWAP16 SWAP11 PUSH2 0x9F5 DUP14 DUP3 PUSH2 0x654 PUSH2 0xA7D SWAP16 DUP16 SWAP14 DUP2 DUP9 SWAP3 PUSH1 0xA0 SHL SUB SWAP1 SLOAD AND SWAP4 PUSH2 0x4DB4 JUMP JUMPDEST POP DUP6 SLOAD PUSH1 0x1 PUSH1 0x1 PUSH1 0xA0 SHL SUB AND DUP8 PUSH2 0x5644 JUMP JUMPDEST POP SLOAD PUSH1 0x1 PUSH1 0x1 PUSH1 0xA0 SHL SUB AND DUP5 PUSH2 0xA1D DUP8 DUP14 PUSH2 0x4DB4 JUMP JUMPDEST SWAP2 DUP6 PUSH2 0x5644 JUMP JUMPDEST POP SLOAD PUSH1 0x1 PUSH1 0x1 PUSH1 0xA0 SHL SUB AND SWAP1 PUSH2 0x5644 JUMP JUMPDEST POP DUP10 SLOAD DUP13 SLOAD DUP15 SLOAD PUSH1 0x40 MLOAD PUSH1 0x1 PUSH1 0x1 PUSH1 0xA0 SHL SUB SWAP3 DUP4 AND SWAP12 SWAP4 DUP4 AND SWAP11 SWAP2 SWAP1 SWAP3 AND SWAP6 DUP12 SWAP4 DUP12 SWAP4 DUP12 SWAP4 SWAP3 SWAP1 SWAP2 DUP3 SWAP2 PUSH2 0xA6C SWAP2 SWAP1 CALLER DUP13 DUP6 PUSH2 0x4DC1 JUMP JUMPDEST SUB SWAP1 LOG4 PUSH1 0x40 MLOAD SWAP4 DUP5 SWAP4 CALLER SWAP1 DUP6 PUSH2 0x4DC1 JUMP JUMPDEST SUB SWAP1 LOG4 DUP11 DUP4 DUP11 DUP8 DUP11 DUP11 DUP16 DUP8 SWAP1 DUP16 DUP11 DUP14 SWAP2 PUSH2 0x589 JUMP JUMPDEST PUSH4 0x4E487B71 PUSH1 0xE0 SHL DUP14 MSTORE PUSH1 0x21 PUSH1 0x4 MSTORE PUSH1 0x24 DUP14 REVERT JUMPDEST SWAP1 SWAP8 POP PUSH1 0x20 DUP2 RETURNDATASIZE PUSH1 0x20 GT PUSH2 0xAD6 JUMPI JUMPDEST DUP2 PUSH2 0xAC2 PUSH1 0x20 SWAP4 DUP4 PUSH2 0x4A85 JUMP JUMPDEST DUP2 ADD SUB SLT PUSH2 0xAD2 JUMPI MLOAD SWAP7 PUSH0 PUSH2 0x50E JUMP JUMPDEST PUSH0 DUP1 REVERT JUMPDEST RETURNDATASIZE SWAP2 POP PUSH2 0xAB5 JUMP JUMPDEST PUSH1 0x40 MLOAD RETURNDATASIZE DUP16 DUP3 RETURNDATACOPY RETURNDATASIZE SWAP1 REVERT JUMPDEST SWAP1 SWAP8 POP PUSH1 0x20 DUP2 RETURNDATASIZE PUSH1 0x20 GT PUSH2 0xB16 JUMPI JUMPDEST DUP2 PUSH2 0xB05 PUSH1 0x20 SWAP4 DUP4 PUSH2 0x4A85 JUMP JUMPDEST DUP2 ADD SUB SLT PUSH2 0xAD2 JUMPI MLOAD SWAP7 PUSH1 0x20 PUSH2 0x4DC JUMP JUMPDEST RETURNDATASIZE SWAP2 POP PUSH2 0xAF8 JUMP JUMPDEST PUSH1 0x40 MLOAD SWAP1 RETURNDATASIZE SWAP1 DUP3 RETURNDATACOPY RETURNDATASIZE SWAP1 REVERT JUMPDEST PUSH1 0x64 PUSH1 0x40 MLOAD PUSH3 0x461BCD PUSH1 0xE5 SHL DUP2 MSTORE PUSH1 0x20 PUSH1 0x4 DUP3 ADD MSTORE PUSH1 0x4 PUSH1 0x24 DUP3 ADD MSTORE PUSH4 0x22189719 PUSH1 0xE1 SHL PUSH1 0x44 DUP3 ADD MSTORE REVERT JUMPDEST PUSH4 0x4E487B71 PUSH1 0xE0 SHL DUP8 MSTORE PUSH1 0x21 PUSH1 0x4 MSTORE PUSH1 0x24 DUP8 REVERT JUMPDEST PUSH1 0x40 MLOAD PUSH3 0x461BCD PUSH1 0xE5 SHL DUP2 MSTORE PUSH1 0x20 PUSH1 0x4 DUP3 ADD MSTORE PUSH1 0x2 PUSH1 0x24 DUP3 ADD MSTORE PUSH2 0x2219 PUSH1 0xF1 SHL PUSH1 0x44 DUP3 ADD MSTORE PUSH1 0x64 SWAP1 REVERT JUMPDEST POP PUSH1 0x2 DUP2 ADD SLOAD PUSH1 0x1 PUSH1 0x1 PUSH1 0xA0 SHL SUB AND CALLER EQ PUSH2 0x419 JUMP JUMPDEST POP DUP1 SLOAD PUSH1 0x1 PUSH1 0x1 PUSH1 0xA0 SHL SUB AND CALLER EQ PUSH2 0x412 JUMP JUMPDEST POP CALLVALUE PUSH2 0x27B JUMPI PUSH1 0x20 CALLDATASIZE PUSH1 0x3 NOT ADD SLT PUSH2 0x27B JUMPI PUSH1 0x40 PUSH1 0xE0 SWAP2 PUSH2 0xBDB PUSH2 0x5567 JUMP JUMPDEST POP PUSH1 0x4 CALLDATALOAD DUP2 MSTORE PUSH1 0x9 PUSH1 0x20 MSTORE KECCAK256 PUSH1 0x40 MLOAD SWAP1 PUSH2 0xBF4 DUP3 PUSH2 0x4A38 JUMP JUMPDEST DUP1 SLOAD DUP3 MSTORE PUSH1 0x2 PUSH1 0x1 DUP3 ADD SLOAD SWAP2 PUSH1 0x20 DUP5 ADD SWAP3 DUP4 MSTORE ADD SLOAD SWAP1 PUSH1 0x40 DUP4 ADD PUSH2 0xC1B PUSH1 0xFF DUP5 AND DUP3 PUSH2 0x4E80 JUMP JUMPDEST PUSH1 0x60 DUP5 ADD PUSH1 0xFF DUP5 PUSH1 0x8 SHR AND ISZERO ISZERO DUP2 MSTORE PUSH2 0xC74 PUSH1 0x80 DUP7 ADD SWAP3 PUSH1 0xFF DUP7 PUSH1 0x10 SHR AND ISZERO ISZERO DUP5 MSTORE PUSH1 0xA0 DUP8 ADD SWAP5 PUSH1 0xFF DUP8 PUSH1 0x18 SHR AND ISZERO ISZERO DUP7 MSTORE PUSH1 0xFF PUSH1 0xC0 DUP10 ADD SWAP8 PUSH1 0x20 SHR AND ISZERO ISZERO DUP8 MSTORE PUSH1 0x40 MLOAD SWAP8 MLOAD DUP9 MSTORE MLOAD PUSH1 0x20 DUP9 ADD MSTORE MLOAD PUSH1 0x40 DUP8 ADD SWAP1 PUSH2 0x48E8 JUMP JUMPDEST MLOAD ISZERO ISZERO PUSH1 0x60 DUP6 ADD MSTORE MLOAD ISZERO ISZERO PUSH1 0x80 DUP5 ADD MSTORE MLOAD ISZERO ISZERO PUSH1 0xA0 DUP4 ADD MSTORE MLOAD ISZERO ISZERO PUSH1 0xC0 DUP3 ADD MSTORE RETURN JUMPDEST POP CALLVALUE PUSH2 0x27B JUMPI DUP1 PUSH1 0x3 NOT CALLDATASIZE ADD SLT PUSH2 0x27B JUMPI PUSH1 0x20 PUSH1 0x6 SLOAD PUSH1 0x40 MLOAD SWAP1 DUP2 MSTORE RETURN JUMPDEST POP CALLVALUE PUSH2 0x27B JUMPI PUSH1 0x40 CALLDATASIZE PUSH1 0x3 NOT ADD SLT PUSH2 0x27B JUMPI PUSH1 0x4 CALLDATALOAD PUSH2 0xCD1 PUSH2 0x4818 JUMP JUMPDEST DUP2 DUP4 MSTORE PUSH1 0x4 PUSH1 0x20 MSTORE PUSH1 0x40 DUP4 KECCAK256 SWAP1 PUSH1 0x1 DUP3 ADD SWAP1 PUSH1 0x1 DUP1 PUSH1 0xA0 SHL SUB DUP3 SLOAD AND CALLER EQ DUP1 ISZERO PUSH2 0xFE7 JUMPI JUMPDEST PUSH2 0xCFF SWAP1 PUSH2 0x4C9C JUMP JUMPDEST DUP5 PUSH20 0x0 DUP1 EXTCODESIZE ISZERO PUSH2 0xFE3 JUMPI DUP2 PUSH1 0x40 MLOAD DUP1 SWAP3 PUSH4 0x252A867 PUSH1 0xE5 SHL DUP3 MSTORE DUP2 DUP1 PUSH2 0xD3B DUP11 PUSH1 0x4 DUP4 ADD PUSH2 0x4CCD JUMP JUMPDEST SUB SWAP2 GAS DELEGATECALL DUP1 ISZERO PUSH2 0xFD8 JUMPI PUSH2 0xFBF JUMPI JUMPDEST POP POP PUSH1 0x5 DUP4 ADD SLOAD PUSH1 0x9 DUP5 ADD SLOAD PUSH1 0x6 DUP6 ADD SLOAD PUSH1 0xA DUP7 ADD SLOAD PUSH1 0x7 DUP8 ADD SLOAD PUSH1 0x8 DUP9 ADD SLOAD PUSH1 0x40 MLOAD PUSH4 0x1C8F0847 PUSH1 0xE0 SHL DUP2 MSTORE PUSH1 0x4 DUP2 ADD DUP8 SWAP1 MSTORE PUSH1 0x24 DUP2 ADD SWAP3 SWAP1 SWAP3 MSTORE PUSH1 0x1 PUSH1 0x1 PUSH1 0xA0 SHL SUB SWAP5 DUP6 AND SWAP9 SWAP6 SWAP8 SWAP2 SWAP7 SWAP2 SWAP6 SWAP4 SWAP5 PUSH20 0x0 SWAP5 SWAP4 AND SWAP1 PUSH1 0x20 DUP9 PUSH1 0x44 DUP2 DUP9 GAS DELEGATECALL SWAP8 DUP9 ISZERO PUSH2 0xFB4 JUMPI DUP13 SWAP9 PUSH2 0xF7F JUMPI JUMPDEST POP PUSH1 0x20 SWAP1 PUSH1 0x44 PUSH1 0x40 MLOAD DUP1 SWAP8 DUP2 SWAP4 PUSH4 0x1C8F0847 PUSH1 0xE0 SHL DUP4 MSTORE DUP11 PUSH1 0x4 DUP5 ADD MSTORE PUSH1 0x24 DUP4 ADD MSTORE GAS DELEGATECALL SWAP4 DUP5 ISZERO PUSH2 0xF74 JUMPI DUP11 SWAP12 SWAP11 SWAP10 SWAP11 SWAP5 PUSH2 0xF34 JUMPI JUMPDEST POP DUP3 SLOAD DUP10 SWAP6 SWAP5 SWAP4 SWAP3 SWAP2 DUP5 SWAP2 PUSH1 0x1 PUSH1 0x1 PUSH1 0xA0 SHL SUB AND DUP13 PUSH2 0xE1F DUP12 DUP14 PUSH2 0x4DB4 JUMP JUMPDEST SWAP1 PUSH2 0xE2A SWAP3 DUP7 PUSH2 0x5644 JUMP JUMPDEST POP PUSH1 0x2 DUP5 ADD DUP1 SLOAD SWAP1 SWAP13 PUSH2 0xE49 SWAP2 DUP12 SWAP2 SWAP1 PUSH1 0x1 PUSH1 0x1 PUSH1 0xA0 SHL SUB AND DUP7 PUSH2 0x5644 JUMP JUMPDEST POP DUP8 SLOAD PUSH1 0x1 PUSH1 0x1 PUSH1 0xA0 SHL SUB AND DUP2 PUSH2 0xE60 DUP9 DUP1 PUSH2 0x4DB4 JUMP JUMPDEST SWAP1 PUSH2 0xE6B SWAP3 DUP7 PUSH2 0x5644 JUMP JUMPDEST POP DUP12 SLOAD PUSH2 0xE83 SWAP4 PUSH1 0x1 PUSH1 0x1 PUSH1 0xA0 SHL SUB SWAP1 SWAP2 AND SWAP1 PUSH2 0x5644 JUMP JUMPDEST POP DUP9 SLOAD PUSH1 0xFF PUSH1 0xA0 SHL NOT DUP2 AND PUSH1 0x1 PUSH1 0xA0 SHL OR SWAP1 SWAP10 SSTORE SLOAD SWAP4 SLOAD PUSH1 0x40 MLOAD PUSH1 0x1 PUSH1 0x1 PUSH1 0xA0 SHL SUB SWAP2 DUP3 AND SWAP11 SWAP6 DUP3 AND SWAP10 SWAP2 SWAP1 SWAP2 AND SWAP7 DUP11 SWAP7 DUP11 SWAP7 DUP9 SWAP4 DUP9 SWAP4 SWAP2 SWAP3 SWAP1 SWAP2 DUP3 SWAP2 PUSH2 0xECC SWAP2 CALLER DUP15 DUP6 PUSH2 0x4DC1 JUMP JUMPDEST SUB PUSH0 DUP1 MLOAD PUSH1 0x20 PUSH2 0x5874 DUP4 CODECOPY DUP2 MLOAD SWAP2 MSTORE SWAP2 LOG4 PUSH1 0x40 MLOAD SWAP2 DUP3 SWAP2 PUSH2 0xEEF SWAP2 CALLER DUP10 DUP6 PUSH2 0x4DC1 JUMP JUMPDEST SUB PUSH0 DUP1 MLOAD PUSH1 0x20 PUSH2 0x5814 DUP4 CODECOPY DUP2 MLOAD SWAP2 MSTORE SWAP2 LOG4 PUSH1 0x40 DUP1 MLOAD PUSH1 0x1 PUSH1 0x1 PUSH1 0xA0 SHL SUB SWAP3 SWAP1 SWAP3 AND DUP3 MSTORE CALLER PUSH1 0x20 DUP4 ADD MSTORE PUSH0 DUP1 MLOAD PUSH1 0x20 PUSH2 0x5834 DUP4 CODECOPY DUP2 MLOAD SWAP2 MSTORE SWAP2 LOG4 PUSH1 0x40 MLOAD PUSH1 0x1 DUP2 MSTORE PUSH1 0x20 SWAP1 RETURN JUMPDEST SWAP5 SWAP4 POP SWAP2 SWAP1 SWAP8 POP PUSH1 0x20 DUP5 RETURNDATASIZE PUSH1 0x20 GT PUSH2 0xF6C JUMPI JUMPDEST DUP2 PUSH2 0xF54 PUSH1 0x20 SWAP4 DUP4 PUSH2 0x4A85 JUMP JUMPDEST DUP2 ADD SUB SLT PUSH2 0xAD2 JUMPI DUP10 SWAP8 DUP9 SWAP5 MLOAD SWAP4 SWAP5 SWAP3 SWAP1 SWAP2 SWAP3 PUSH2 0xE00 JUMP JUMPDEST RETURNDATASIZE SWAP2 POP PUSH2 0xF47 JUMP JUMPDEST PUSH1 0x40 MLOAD RETURNDATASIZE DUP14 DUP3 RETURNDATACOPY RETURNDATASIZE SWAP1 REVERT JUMPDEST SWAP1 SWAP8 POP PUSH1 0x20 DUP2 RETURNDATASIZE PUSH1 0x20 GT PUSH2 0xFAC JUMPI JUMPDEST DUP2 PUSH2 0xF9B PUSH1 0x20 SWAP4 DUP4 PUSH2 0x4A85 JUMP JUMPDEST DUP2 ADD SUB SLT PUSH2 0xAD2 JUMPI MLOAD SWAP7 PUSH1 0x20 PUSH2 0xDCA JUMP JUMPDEST RETURNDATASIZE SWAP2 POP PUSH2 0xF8E JUMP JUMPDEST PUSH1 0x40 MLOAD RETURNDATASIZE DUP15 DUP3 RETURNDATACOPY RETURNDATASIZE SWAP1 REVERT JUMPDEST DUP2 PUSH2 0xFC9 SWAP2 PUSH2 0x4A85 JUMP JUMPDEST PUSH2 0xFD4 JUMPI DUP5 PUSH0 PUSH2 0xD4A JUMP JUMPDEST DUP5 DUP1 REVERT JUMPDEST PUSH1 0x40 MLOAD RETURNDATASIZE DUP5 DUP3 RETURNDATACOPY RETURNDATASIZE SWAP1 REVERT JUMPDEST POP DUP1 REVERT JUMPDEST POP PUSH1 0x2 DUP4 ADD SLOAD PUSH1 0x1 PUSH1 0x1 PUSH1 0xA0 SHL SUB AND CALLER EQ PUSH2 0xCF6 JUMP JUMPDEST POP PUSH2 0x1007 CALLDATASIZE PUSH2 0x4796 JUMP JUMPDEST SWAP2 SWAP1 SWAP5 SWAP3 DUP9 SWAP5 DUP11 SWAP9 SWAP8 SWAP11 SWAP5 DUP13 PUSH1 0x40 PUSH1 0xFF DUP3 SLOAD PUSH1 0xA0 SHR AND SWAP2 PUSH2 0x1027 DUP4 PUSH2 0x49D6 JUMP JUMPDEST CALLER DUP2 MSTORE PUSH1 0x1 PUSH1 0x20 MSTORE KECCAK256 PUSH1 0x1 DUP1 PUSH1 0xA0 SHL SUB DUP6 AND PUSH0 MSTORE PUSH1 0x20 MSTORE PUSH1 0x40 PUSH0 KECCAK256 SLOAD DUP11 DUP2 LT PUSH2 0x132F JUMPI JUMPDEST POP POP SWAP2 PUSH2 0x1098 SWAP5 SWAP4 SWAP2 PUSH2 0x200 SWAP9 SWAP4 PUSH2 0x1064 DUP12 DUP5 CALLER PUSH2 0x559D JUMP JUMPDEST POP PUSH1 0x40 MLOAD PUSH4 0x652E83D7 PUSH1 0xE0 SHL DUP2 MSTORE PUSH20 0x0 SWAP15 SWAP1 SWAP12 DUP13 SWAP11 DUP12 SWAP11 CALLER PUSH1 0x4 DUP14 ADD PUSH2 0x4BD2 JUMP JUMPDEST SUB DUP2 DUP8 GAS DELEGATECALL SWAP1 DUP2 ISZERO PUSH2 0x12F5 JUMPI DUP6 SWAP2 PUSH2 0x1300 JUMPI JUMPDEST POP PUSH1 0x20 PUSH1 0x5 SLOAD PUSH2 0x224 PUSH1 0x40 MLOAD DUP1 SWAP8 DUP2 SWAP4 PUSH4 0x797D4EE1 PUSH1 0xE0 SHL DUP4 MSTORE PUSH2 0x10D2 PUSH1 0x4 DUP5 ADD DUP9 PUSH2 0x48F5 JUMP JUMPDEST PUSH2 0x204 DUP4 ADD MSTORE GAS DELEGATECALL SWAP4 DUP5 ISZERO PUSH2 0x12F5 JUMPI DUP6 SWAP5 PUSH2 0x12C1 JUMPI JUMPDEST POP PUSH2 0x10F4 PUSH1 0x5 SLOAD PUSH2 0x4C3E JUMP JUMPDEST PUSH1 0x5 SSTORE DUP4 DUP6 MSTORE PUSH1 0x4 PUSH1 0x20 SWAP1 DUP2 MSTORE PUSH1 0x40 DUP1 DUP8 KECCAK256 DUP4 MLOAD DUP2 SLOAD PUSH1 0x1 PUSH1 0x1 PUSH1 0xA0 SHL SUB NOT SWAP1 DUP2 AND PUSH1 0x1 PUSH1 0x1 PUSH1 0xA0 SHL SUB SWAP3 DUP4 AND OR DUP4 SSTORE SWAP4 DUP6 ADD MLOAD PUSH1 0x1 DUP4 ADD DUP1 SLOAD DUP7 AND SWAP2 DUP4 AND SWAP2 SWAP1 SWAP2 OR SWAP1 SSTORE SWAP2 DUP5 ADD MLOAD PUSH1 0x2 DUP3 ADD DUP1 SLOAD SWAP1 SWAP5 AND SWAP3 AND SWAP2 SWAP1 SWAP2 OR DUP3 SSTORE PUSH1 0x60 DUP4 ADD MLOAD SWAP1 SWAP3 SWAP2 SWAP1 PUSH1 0x3 DUP2 LT ISZERO PUSH2 0x12AD JUMPI DUP2 PUSH2 0x1172 PUSH2 0x11AE SWAP3 PUSH2 0x1E0 SWAP6 SWAP5 PUSH2 0x4C60 JUMP JUMPDEST PUSH1 0x80 DUP4 ADD MLOAD DUP2 SLOAD PUSH1 0xFF PUSH1 0xA8 SHL NOT AND SWAP1 ISZERO ISZERO PUSH1 0xA8 SHL PUSH1 0xFF PUSH1 0xA8 SHL AND OR DUP2 SSTORE PUSH1 0xA0 DUP4 ADD MLOAD DUP2 SLOAD PUSH1 0xFF PUSH1 0xB0 SHL NOT AND SWAP1 ISZERO ISZERO PUSH1 0xB0 SHL PUSH1 0xFF PUSH1 0xB0 SHL AND OR SWAP1 SSTORE JUMP JUMPDEST PUSH1 0xC0 DUP2 ADD MLOAD PUSH1 0x3 DUP5 ADD SSTORE PUSH1 0xE0 DUP2 ADD MLOAD PUSH1 0x4 DUP5 ADD SSTORE PUSH2 0x100 DUP2 ADD MLOAD PUSH1 0x5 DUP5 ADD SSTORE PUSH2 0x120 DUP2 ADD MLOAD PUSH1 0x6 DUP1 DUP6 ADD SWAP2 SWAP1 SWAP2 SSTORE PUSH2 0x140 DUP3 ADD MLOAD PUSH1 0x7 DUP6 ADD SSTORE PUSH2 0x160 DUP3 ADD MLOAD PUSH1 0x8 DUP6 ADD SSTORE PUSH2 0x180 DUP3 ADD MLOAD PUSH1 0x9 DUP6 ADD DUP1 SLOAD PUSH1 0x1 PUSH1 0x1 PUSH1 0xA0 SHL SUB SWAP3 DUP4 AND PUSH1 0x1 PUSH1 0x1 PUSH1 0xA0 SHL SUB NOT SWAP2 DUP3 AND OR SWAP1 SWAP2 SSTORE PUSH2 0x1A0 DUP5 ADD MLOAD PUSH1 0xA DUP8 ADD DUP1 SLOAD SWAP2 SWAP1 SWAP4 AND SWAP2 AND OR SWAP1 SSTORE PUSH2 0x1C0 DUP3 ADD MLOAD PUSH1 0xB DUP6 ADD SSTORE SWAP2 ADD MLOAD SWAP6 SWAP1 DUP7 LT ISZERO PUSH2 0x1299 JUMPI POP PUSH1 0x20 SWAP5 PUSH1 0xC PUSH2 0x1255 SWAP3 ADD PUSH2 0x4C84 JUMP JUMPDEST PUSH1 0x40 MLOAD PUSH1 0x1 PUSH1 0x1 PUSH1 0xA0 SHL SUB SWAP3 DUP4 AND DUP2 MSTORE SWAP2 AND SWAP1 CALLER SWAP1 DUP4 SWAP1 PUSH32 0x44E1FF8E67FAD6B456BD43FF165BA4E9BB004370AA27A76881C6ACB60DFD6DD9 SWAP1 DUP7 SWAP1 LOG4 PUSH1 0x40 MLOAD SWAP1 DUP2 MSTORE RETURN JUMPDEST PUSH4 0x4E487B71 PUSH1 0xE0 SHL DUP2 MSTORE PUSH1 0x21 PUSH1 0x4 MSTORE PUSH1 0x24 SWAP1 REVERT JUMPDEST PUSH4 0x4E487B71 PUSH1 0xE0 SHL DUP9 MSTORE PUSH1 0x21 PUSH1 0x4 MSTORE PUSH1 0x24 DUP9 REVERT JUMPDEST SWAP1 SWAP4 POP PUSH1 0x20 DUP2 RETURNDATASIZE PUSH1 0x20 GT PUSH2 0x12ED JUMPI JUMPDEST DUP2 PUSH2 0x12DD PUSH1 0x20 SWAP4 DUP4 PUSH2 0x4A85 JUMP JUMPDEST DUP2 ADD SUB SLT PUSH2 0xAD2 JUMPI MLOAD SWAP3 PUSH0 PUSH2 0x10E8 JUMP JUMPDEST RETURNDATASIZE SWAP2 POP PUSH2 0x12D0 JUMP JUMPDEST PUSH1 0x40 MLOAD RETURNDATASIZE DUP8 DUP3 RETURNDATACOPY RETURNDATASIZE SWAP1 REVERT JUMPDEST PUSH2 0x1322 SWAP2 POP PUSH2 0x200 RETURNDATASIZE DUP2 GT PUSH2 0x1328 JUMPI JUMPDEST PUSH2 0x131A DUP2 DUP4 PUSH2 0x4A85 JUMP JUMPDEST DUP2 ADD SWAP1 PUSH2 0x4AC8 JUMP JUMPDEST PUSH0 PUSH2 0x10AB JUMP JUMPDEST POP RETURNDATASIZE PUSH2 0x1310 JUMP JUMPDEST PUSH2 0x134C SWAP3 SWAP10 SWAP5 SWAP7 SWAP6 SWAP4 SWAP9 POP PUSH2 0x1346 SWAP2 SWAP8 POP DUP11 PUSH2 0x4DB4 JUMP JUMPDEST SWAP6 PUSH2 0x49D6 JUMP JUMPDEST PUSH2 0x1357 DUP6 ISZERO ISZERO PUSH2 0x4DEB JUMP JUMPDEST PUSH1 0x2 SLOAD SWAP4 PUSH1 0x40 MLOAD SWAP5 PUSH4 0x1C8F0847 PUSH1 0xE0 SHL DUP7 MSTORE DUP7 PUSH1 0x4 DUP8 ADD MSTORE PUSH1 0x24 DUP7 ADD MSTORE PUSH1 0x20 DUP6 PUSH1 0x44 DUP2 PUSH20 0x0 GAS DELEGATECALL SWAP5 DUP6 ISZERO PUSH2 0xADE JUMPI DUP14 SWAP6 PUSH2 0x1530 JUMPI JUMPDEST POP PUSH1 0x1 PUSH1 0x1 PUSH1 0xA0 SHL SUB DUP2 AND SWAP7 DUP8 PUSH2 0x1448 JUMPI PUSH2 0x13BA DUP7 DUP9 PUSH2 0x4F56 JUMP JUMPDEST CALLVALUE SUB PUSH2 0x141E JUMPI PUSH2 0x200 SWAP9 DUP13 SWAP9 DUP9 PUSH2 0x1098 SWAP9 PUSH2 0x13D7 DUP16 SWAP12 DUP8 CALLER PUSH2 0x5662 JUMP JUMPDEST POP PUSH1 0x3 SLOAD PUSH2 0x13F1 SWAP1 DUP3 SWAP1 DUP9 SWAP1 PUSH1 0x1 PUSH1 0x1 PUSH1 0xA0 SHL SUB AND PUSH2 0x5662 JUMP JUMPDEST POP JUMPDEST PUSH1 0x40 MLOAD SWAP2 DUP3 MSTORE PUSH1 0x20 DUP3 ADD MSTORE PUSH0 DUP1 MLOAD PUSH1 0x20 PUSH2 0x5894 DUP4 CODECOPY DUP2 MLOAD SWAP2 MSTORE PUSH1 0x40 CALLER SWAP3 LOG3 SWAP2 SWAP4 SWAP9 DUP2 SWAP4 SWAP6 SWAP7 POP PUSH2 0x104B JUMP JUMPDEST PUSH1 0x40 MLOAD PUSH3 0x461BCD PUSH1 0xE5 SHL DUP2 MSTORE PUSH1 0x20 PUSH1 0x4 DUP3 ADD MSTORE PUSH1 0x2 PUSH1 0x24 DUP3 ADD MSTORE PUSH2 0x10CD PUSH1 0xF2 SHL PUSH1 0x44 DUP3 ADD MSTORE PUSH1 0x64 SWAP1 REVERT JUMPDEST DUP14 DUP1 PUSH1 0x20 DUP11 PUSH1 0x64 PUSH2 0x1459 DUP12 DUP14 PUSH2 0x4F56 JUMP JUMPDEST PUSH1 0x40 MLOAD SWAP5 DUP6 SWAP4 DUP5 SWAP3 PUSH4 0x23B872DD PUSH1 0xE0 SHL DUP5 MSTORE CALLER PUSH1 0x4 DUP6 ADD MSTORE ADDRESS PUSH1 0x24 DUP6 ADD MSTORE PUSH1 0x44 DUP5 ADD MSTORE GAS CALL SWAP2 DUP3 ISZERO PUSH2 0xB1E JUMPI SWAP2 PUSH2 0x14F2 JUMPI JUMPDEST POP ISZERO PUSH2 0x14C8 JUMPI PUSH2 0x200 SWAP9 DUP13 SWAP9 DUP9 PUSH2 0x1098 SWAP9 PUSH2 0x14A8 DUP16 SWAP12 DUP8 CALLER PUSH2 0x5662 JUMP JUMPDEST POP PUSH1 0x3 SLOAD PUSH2 0x14C2 SWAP1 DUP3 SWAP1 DUP9 SWAP1 PUSH1 0x1 PUSH1 0x1 PUSH1 0xA0 SHL SUB AND PUSH2 0x5662 JUMP JUMPDEST POP PUSH2 0x13F3 JUMP JUMPDEST PUSH1 0x40 MLOAD PUSH3 0x461BCD PUSH1 0xE5 SHL DUP2 MSTORE PUSH1 0x20 PUSH1 0x4 DUP3 ADD MSTORE PUSH1 0x2 PUSH1 0x24 DUP3 ADD MSTORE PUSH2 0x2A19 PUSH1 0xF1 SHL PUSH1 0x44 DUP3 ADD MSTORE PUSH1 0x64 SWAP1 REVERT JUMPDEST SWAP1 POP PUSH1 0x20 DUP2 RETURNDATASIZE PUSH1 0x20 GT PUSH2 0x1528 JUMPI JUMPDEST DUP2 PUSH2 0x150D PUSH1 0x20 SWAP4 DUP4 PUSH2 0x4A85 JUMP JUMPDEST DUP2 ADD SUB SLT PUSH2 0x1524 JUMPI PUSH2 0x151E SWAP1 PUSH2 0x4ABB JUMP JUMPDEST PUSH0 PUSH2 0x148B JUMP JUMPDEST DUP15 DUP1 REVERT JUMPDEST RETURNDATASIZE SWAP2 POP PUSH2 0x1500 JUMP JUMPDEST SWAP1 SWAP5 POP PUSH1 0x20 DUP2 RETURNDATASIZE PUSH1 0x20 GT PUSH2 0x155C JUMPI JUMPDEST DUP2 PUSH2 0x154C PUSH1 0x20 SWAP4 DUP4 PUSH2 0x4A85 JUMP JUMPDEST DUP2 ADD SUB SLT PUSH2 0xAD2 JUMPI MLOAD SWAP4 PUSH0 PUSH2 0x139F JUMP JUMPDEST RETURNDATASIZE SWAP2 POP PUSH2 0x153F JUMP JUMPDEST POP CALLVALUE PUSH2 0x27B JUMPI PUSH2 0x1573 CALLDATASIZE PUSH2 0x4827 JUMP JUMPDEST SWAP3 DUP3 DUP2 SWAP4 SWAP3 SWAP4 MSTORE PUSH1 0x4 PUSH1 0x20 MSTORE PUSH1 0x40 DUP2 KECCAK256 SWAP3 PUSH1 0x1 DUP1 PUSH1 0xA0 SHL SUB DUP5 SLOAD AND CALLER EQ DUP1 ISZERO PUSH2 0x1736 JUMPI JUMPDEST PUSH2 0x15A0 SWAP1 PUSH2 0x4C9C JUMP JUMPDEST PUSH20 0x0 DUP1 EXTCODESIZE ISZERO PUSH2 0x1732 JUMPI DUP3 PUSH1 0x40 MLOAD DUP1 SWAP3 PUSH4 0x252A867 PUSH1 0xE5 SHL DUP3 MSTORE DUP2 DUP1 PUSH2 0x15DB DUP11 PUSH1 0x4 DUP4 ADD PUSH2 0x4CCD JUMP JUMPDEST SUB SWAP2 GAS DELEGATECALL DUP1 ISZERO PUSH2 0x1727 JUMPI SWAP1 DUP4 SWAP2 PUSH2 0x1712 JUMPI JUMPDEST POP POP PUSH1 0x6 DUP5 ADD PUSH2 0x1609 DUP3 DUP3 SLOAD PUSH2 0x1604 DUP3 DUP3 LT PUSH2 0x4A07 JUMP JUMPDEST PUSH2 0x4DB4 JUMP JUMPDEST SWAP1 SSTORE PUSH1 0x1 DUP1 PUSH1 0xA0 SHL SUB PUSH1 0xA DUP6 ADD SLOAD AND SWAP4 PUSH1 0x8 DUP2 ADD SLOAD PUSH1 0x40 MLOAD SWAP1 PUSH4 0x1C8F0847 PUSH1 0xE0 SHL DUP3 MSTORE DUP4 PUSH1 0x4 DUP4 ADD MSTORE PUSH1 0x24 DUP3 ADD MSTORE PUSH1 0x20 DUP2 PUSH1 0x44 DUP2 PUSH20 0x0 GAS DELEGATECALL SWAP4 DUP5 ISZERO PUSH2 0xB1E JUMPI SWAP4 PUSH2 0x16DC JUMPI JUMPDEST POP SWAP2 PUSH2 0x61E DUP4 PUSH2 0x16B3 DUP4 PUSH1 0x1 PUSH0 DUP1 MLOAD PUSH1 0x20 PUSH2 0x5814 DUP4 CODECOPY DUP2 MLOAD SWAP2 MSTORE SWAP8 ADD SWAP9 PUSH2 0x169D DUP12 DUP3 PUSH1 0x1 DUP1 PUSH1 0xA0 SHL SUB DUP14 SLOAD AND PUSH2 0x1697 DUP7 DUP13 PUSH2 0x4DB4 JUMP JUMPDEST SWAP3 PUSH2 0x5644 JUMP JUMPDEST POP PUSH1 0x2 DUP5 ADD SWAP11 PUSH1 0x1 DUP1 PUSH1 0xA0 SHL SUB DUP13 SLOAD AND SWAP1 PUSH2 0x5644 JUMP JUMPDEST POP SLOAD SWAP6 SLOAD SWAP7 SLOAD PUSH1 0x40 MLOAD PUSH1 0x1 PUSH1 0x1 PUSH1 0xA0 SHL SUB SWAP9 DUP10 AND SWAP9 SWAP8 DUP9 AND SWAP8 SWAP1 SWAP5 DUP6 SWAP5 SWAP3 SWAP1 SWAP2 CALLER SWAP2 AND DUP6 PUSH2 0x4DC1 JUMP JUMPDEST SWAP3 POP PUSH1 0x20 DUP4 RETURNDATASIZE PUSH1 0x20 GT PUSH2 0x170A JUMPI JUMPDEST DUP2 PUSH2 0x16F7 PUSH1 0x20 SWAP4 DUP4 PUSH2 0x4A85 JUMP JUMPDEST DUP2 ADD SUB SLT PUSH2 0xAD2 JUMPI SWAP2 MLOAD SWAP2 PUSH2 0x61E PUSH2 0x1661 JUMP JUMPDEST RETURNDATASIZE SWAP2 POP PUSH2 0x16EA JUMP JUMPDEST DUP2 PUSH2 0x171C SWAP2 PUSH2 0x4A85 JUMP JUMPDEST PUSH2 0xFE3 JUMPI DUP2 PUSH0 PUSH2 0x15ED JUMP JUMPDEST PUSH1 0x40 MLOAD RETURNDATASIZE DUP6 DUP3 RETURNDATACOPY RETURNDATASIZE SWAP1 REVERT JUMPDEST DUP3 DUP1 REVERT JUMPDEST POP PUSH1 0x2 DUP5 ADD SLOAD PUSH1 0x1 PUSH1 0x1 PUSH1 0xA0 SHL SUB AND CALLER EQ PUSH2 0x1597 JUMP JUMPDEST POP CALLVALUE PUSH2 0x27B JUMPI PUSH1 0x40 CALLDATASIZE PUSH1 0x3 NOT ADD SLT PUSH2 0x27B JUMPI PUSH1 0x40 PUSH2 0x244 PUSH2 0x4780 JUMP JUMPDEST POP CALLVALUE PUSH2 0x27B JUMPI PUSH1 0x20 CALLDATASIZE PUSH1 0x3 NOT ADD SLT PUSH2 0x27B JUMPI PUSH1 0x40 PUSH1 0xE0 SWAP2 PUSH1 0x4 CALLDATALOAD DUP2 MSTORE PUSH1 0x9 PUSH1 0x20 MSTORE KECCAK256 PUSH1 0xFF DUP2 SLOAD SWAP2 PUSH1 0x2 PUSH1 0x1 DUP3 ADD SLOAD SWAP2 ADD SLOAD SWAP1 PUSH1 0x40 MLOAD SWAP4 DUP5 MSTORE PUSH1 0x20 DUP5 ADD MSTORE PUSH2 0x17B4 PUSH1 0x40 DUP5 ADD DUP4 DUP4 AND PUSH2 0x48E8 JUMP JUMPDEST DUP2 DUP2 PUSH1 0x8 SHR AND ISZERO ISZERO PUSH1 0x60 DUP5 ADD MSTORE DUP2 DUP2 PUSH1 0x10 SHR AND ISZERO ISZERO PUSH1 0x80 DUP5 ADD MSTORE DUP2 DUP2 PUSH1 0x18 SHR AND ISZERO ISZERO PUSH1 0xA0 DUP5 ADD MSTORE PUSH1 0x20 SHR AND ISZERO ISZERO PUSH1 0xC0 DUP3 ADD MSTORE RETURN JUMPDEST POP CALLVALUE PUSH2 0x27B JUMPI PUSH1 0x60 CALLDATASIZE PUSH1 0x3 NOT ADD SLT PUSH2 0x27B JUMPI PUSH2 0x1802 PUSH2 0x4780 JUMP JUMPDEST SWAP1 PUSH2 0x180B PUSH2 0x476A JUMP JUMPDEST PUSH1 0x40 PUSH1 0x44 CALLDATALOAD SWAP4 CALLER DUP5 MSTORE PUSH1 0x1 PUSH1 0x20 MSTORE DUP2 DUP5 KECCAK256 PUSH1 0x1 DUP1 PUSH1 0xA0 SHL SUB DUP5 AND PUSH0 MSTORE PUSH1 0x20 MSTORE PUSH2 0x1839 DUP6 DUP4 PUSH0 KECCAK256 SLOAD LT ISZERO PUSH2 0x4A07 JUMP JUMPDEST CALLER DUP5 MSTORE PUSH1 0x1 PUSH1 0x20 MSTORE DUP2 DUP5 KECCAK256 PUSH1 0x1 DUP1 PUSH1 0xA0 SHL SUB DUP5 AND PUSH0 MSTORE PUSH1 0x20 MSTORE DUP2 PUSH0 KECCAK256 PUSH2 0x1860 DUP7 DUP3 SLOAD PUSH2 0x4DB4 JUMP JUMPDEST SWAP1 SSTORE PUSH1 0x1 DUP1 PUSH1 0xA0 SHL SUB AND SWAP3 DUP4 DUP2 MSTORE PUSH1 0x1 PUSH1 0x20 MSTORE KECCAK256 PUSH1 0x1 DUP1 PUSH1 0xA0 SHL SUB DUP3 AND PUSH0 MSTORE PUSH1 0x20 MSTORE PUSH1 0x40 PUSH0 KECCAK256 PUSH2 0x1891 DUP5 DUP3 SLOAD PUSH2 0x4F56 JUMP JUMPDEST SWAP1 SSTORE PUSH1 0x40 MLOAD SWAP3 DUP4 MSTORE PUSH1 0x1 PUSH1 0x1 PUSH1 0xA0 SHL SUB AND SWAP2 CALLER SWAP1 PUSH32 0xD1398BEE19313D6BF672CCB116E51F4A1A947E91C757907F51FBB5B5E56C698F SWAP1 PUSH1 0x20 SWAP1 LOG4 PUSH1 0x20 PUSH1 0x40 MLOAD PUSH1 0x1 DUP2 MSTORE RETURN JUMPDEST POP PUSH1 0x20 CALLDATASIZE PUSH1 0x3 NOT ADD SLT PUSH2 0x27B JUMPI PUSH1 0x4 CALLDATALOAD DUP1 DUP3 MSTORE PUSH1 0x4 PUSH1 0x20 MSTORE PUSH1 0x40 DUP3 KECCAK256 SWAP2 PUSH1 0x1 DUP4 ADD SWAP3 PUSH2 0x190C PUSH1 0x1 DUP1 PUSH1 0xA0 SHL SUB DUP6 SLOAD AND CALLER EQ PUSH2 0x4C9C JUMP JUMPDEST PUSH1 0x2 DUP2 ADD SWAP2 PUSH1 0xFF DUP4 SLOAD PUSH2 0x1923 DUP3 DUP3 PUSH1 0xA8 SHR AND PUSH2 0x4F63 JUMP JUMPDEST PUSH2 0x1932 DUP3 DUP3 PUSH1 0xB0 SHR AND ISZERO PUSH2 0x4F95 JUMP JUMPDEST PUSH1 0xA0 SHR AND PUSH1 0x3 DUP2 LT ISZERO PUSH2 0x1C09 JUMPI PUSH1 0x2 PUSH2 0x194B SWAP2 EQ PUSH2 0x4FC7 JUMP JUMPDEST PUSH1 0xA DUP3 ADD DUP1 SLOAD CALLER PUSH0 SWAP1 DUP2 MSTORE PUSH1 0x1 PUSH1 0x20 SWAP1 DUP2 MSTORE PUSH1 0x40 DUP1 DUP4 KECCAK256 PUSH1 0x1 PUSH1 0x1 PUSH1 0xA0 SHL SUB SWAP1 SWAP5 AND DUP1 DUP5 MSTORE SWAP4 SWAP1 SWAP2 MSTORE SWAP1 KECCAK256 SLOAD PUSH1 0x6 DUP6 ADD SLOAD DUP2 LT PUSH2 0x1A3C JUMPI JUMPDEST POP POP SLOAD PUSH1 0x4 DUP4 ADD SLOAD PUSH2 0x19A0 SWAP3 POP SWAP1 PUSH1 0x1 PUSH1 0x1 PUSH1 0xA0 SHL SUB AND CALLER PUSH2 0x559D JUMP JUMPDEST POP DUP2 SLOAD PUSH1 0x1 PUSH1 0xB0 SHL PUSH1 0xFF PUSH1 0xB0 SHL NOT DUP3 AND OR SWAP1 SWAP3 SSTORE SLOAD SWAP3 SLOAD PUSH1 0x40 MLOAD PUSH1 0x1 PUSH1 0x1 PUSH1 0xA0 SHL SUB SWAP3 DUP4 AND DUP1 DUP3 MSTORE SWAP5 SWAP2 DUP4 AND SWAP3 SWAP1 SWAP2 AND SWAP1 DUP4 SWAP1 PUSH32 0x5E02698C1650D6CBE1F7E8A48609D0DA45AD7F5E4C13CD8B196F82965C0AB0D5 SWAP1 PUSH1 0x20 SWAP1 LOG4 DUP2 PUSH2 0x1A0A JUMPI JUMPDEST PUSH1 0x20 PUSH1 0x40 MLOAD PUSH1 0x1 DUP2 MSTORE RETURN JUMPDEST PUSH1 0x20 PUSH32 0x957372C0E02D2882134CC0EEBBEF9E446634D8CCBB1CBB112BDEFDD3CF0A643C SWAP2 PUSH1 0x40 MLOAD SWAP1 DUP2 MSTORE LOG2 PUSH0 DUP1 PUSH2 0x19FF JUMP JUMPDEST PUSH2 0x1A4A SWAP1 PUSH1 0x4 DUP7 ADD SLOAD PUSH2 0x4DB4 JUMP JUMPDEST PUSH2 0x1A5A PUSH1 0xFF DUP6 SLOAD PUSH1 0xA0 SHR AND PUSH2 0x49D6 JUMP JUMPDEST PUSH2 0x1A65 DUP2 ISZERO ISZERO PUSH2 0x4DEB JUMP JUMPDEST PUSH1 0x2 SLOAD SWAP4 PUSH1 0x40 MLOAD SWAP5 PUSH4 0x1C8F0847 PUSH1 0xE0 SHL DUP7 MSTORE DUP3 PUSH1 0x4 DUP8 ADD MSTORE PUSH1 0x24 DUP7 ADD MSTORE PUSH1 0x20 DUP6 PUSH1 0x44 DUP2 PUSH20 0x0 GAS DELEGATECALL SWAP5 DUP6 ISZERO PUSH2 0x1BFC JUMPI DUP2 SWAP6 PUSH2 0x1BC8 JUMPI JUMPDEST POP DUP3 PUSH2 0x1B14 JUMPI POP PUSH2 0x1ABE DUP5 DUP3 PUSH2 0x4F56 JUMP JUMPDEST CALLVALUE SUB PUSH2 0x141E JUMPI PUSH2 0x19A0 SWAP4 PUSH2 0x1AD3 DUP3 DUP5 CALLER PUSH2 0x5662 JUMP JUMPDEST POP PUSH1 0x3 SLOAD PUSH2 0x1AED SWAP1 DUP3 SWAP1 DUP6 SWAP1 PUSH1 0x1 PUSH1 0x1 PUSH1 0xA0 SHL SUB AND PUSH2 0x5662 JUMP JUMPDEST POP JUMPDEST PUSH1 0x40 MLOAD SWAP2 DUP3 MSTORE PUSH1 0x20 DUP3 ADD MSTORE PUSH0 DUP1 MLOAD PUSH1 0x20 PUSH2 0x5894 DUP4 CODECOPY DUP2 MLOAD SWAP2 MSTORE PUSH1 0x40 CALLER SWAP3 LOG3 PUSH0 DUP1 PUSH2 0x1983 JUMP JUMPDEST PUSH2 0x1B1E DUP6 DUP4 PUSH2 0x4F56 JUMP JUMPDEST PUSH1 0x40 MLOAD SWAP1 PUSH4 0x23B872DD PUSH1 0xE0 SHL DUP3 MSTORE CALLER PUSH1 0x4 DUP4 ADD MSTORE ADDRESS PUSH1 0x24 DUP4 ADD MSTORE PUSH1 0x44 DUP3 ADD MSTORE PUSH1 0x20 DUP2 PUSH1 0x64 DUP2 DUP6 DUP9 GAS CALL SWAP2 DUP3 ISZERO PUSH2 0xB1E JUMPI DUP1 SWAP3 PUSH2 0x1B8B JUMPI JUMPDEST POP POP ISZERO PUSH2 0x14C8 JUMPI PUSH2 0x19A0 SWAP4 PUSH2 0x1B6B DUP3 DUP5 CALLER PUSH2 0x5662 JUMP JUMPDEST POP PUSH1 0x3 SLOAD PUSH2 0x1B85 SWAP1 DUP3 SWAP1 DUP6 SWAP1 PUSH1 0x1 PUSH1 0x1 PUSH1 0xA0 SHL SUB AND PUSH2 0x5662 JUMP JUMPDEST POP PUSH2 0x1AEF JUMP JUMPDEST SWAP1 SWAP2 POP PUSH1 0x20 DUP3 RETURNDATASIZE PUSH1 0x20 GT PUSH2 0x1BC0 JUMPI JUMPDEST DUP2 PUSH2 0x1BA7 PUSH1 0x20 SWAP4 DUP4 PUSH2 0x4A85 JUMP JUMPDEST DUP2 ADD SUB SLT PUSH2 0x27B JUMPI POP PUSH2 0x1BB9 SWAP1 PUSH2 0x4ABB JUMP JUMPDEST PUSH0 DUP1 PUSH2 0x1B55 JUMP JUMPDEST RETURNDATASIZE SWAP2 POP PUSH2 0x1B9A JUMP JUMPDEST SWAP1 SWAP5 POP PUSH1 0x20 DUP2 RETURNDATASIZE PUSH1 0x20 GT PUSH2 0x1BF4 JUMPI JUMPDEST DUP2 PUSH2 0x1BE4 PUSH1 0x20 SWAP4 DUP4 PUSH2 0x4A85 JUMP JUMPDEST DUP2 ADD SUB SLT PUSH2 0xAD2 JUMPI MLOAD SWAP4 PUSH0 PUSH2 0x1AAD JUMP JUMPDEST RETURNDATASIZE SWAP2 POP PUSH2 0x1BD7 JUMP JUMPDEST POP PUSH1 0x40 MLOAD SWAP1 RETURNDATASIZE SWAP1 DUP3 RETURNDATACOPY RETURNDATASIZE SWAP1 REVERT JUMPDEST PUSH4 0x4E487B71 PUSH1 0xE0 SHL DUP3 MSTORE PUSH1 0x21 PUSH1 0x4 MSTORE PUSH1 0x24 DUP3 REVERT JUMPDEST POP CALLVALUE PUSH2 0x27B JUMPI PUSH1 0x20 CALLDATASIZE PUSH1 0x3 NOT ADD SLT PUSH2 0x27B JUMPI PUSH1 0x40 PUSH1 0xE0 SWAP2 PUSH2 0x1C3C PUSH2 0x5567 JUMP JUMPDEST POP PUSH1 0x4 CALLDATALOAD DUP2 MSTORE PUSH1 0xA PUSH1 0x20 MSTORE KECCAK256 PUSH1 0x40 MLOAD SWAP1 PUSH2 0x1C55 DUP3 PUSH2 0x4A38 JUMP JUMPDEST DUP1 SLOAD SWAP2 DUP3 DUP2 MSTORE PUSH1 0x1 DUP1 PUSH1 0xA0 SHL SUB PUSH1 0x1 DUP4 ADD SLOAD AND PUSH1 0x20 DUP3 ADD SWAP1 DUP2 MSTORE PUSH1 0x2 DUP4 ADD SLOAD SWAP3 PUSH1 0x40 DUP4 ADD SWAP4 DUP5 MSTORE PUSH1 0x4 PUSH1 0x3 DUP3 ADD SLOAD SWAP2 PUSH1 0x60 DUP6 ADD SWAP3 DUP4 MSTORE ADD SLOAD SWAP4 PUSH1 0x80 DUP5 ADD SWAP3 PUSH1 0xFF DUP7 AND ISZERO ISZERO DUP5 MSTORE PUSH1 0xFF PUSH1 0xC0 PUSH1 0xA0 DUP8 ADD SWAP7 DUP3 DUP10 PUSH1 0x8 SHR AND ISZERO ISZERO DUP9 MSTORE ADD SWAP7 PUSH1 0x10 SHR AND ISZERO ISZERO DUP7 MSTORE PUSH1 0x40 MLOAD SWAP7 DUP8 MSTORE PUSH1 0x1 DUP1 PUSH1 0xA0 SHL SUB SWAP1 MLOAD AND PUSH1 0x20 DUP8 ADD MSTORE MLOAD PUSH1 0x40 DUP7 ADD MSTORE MLOAD PUSH1 0x60 DUP6 ADD MSTORE MLOAD ISZERO ISZERO PUSH1 0x80 DUP5 ADD MSTORE MLOAD ISZERO ISZERO PUSH1 0xA0 DUP4 ADD MSTORE MLOAD ISZERO ISZERO PUSH1 0xC0 DUP3 ADD MSTORE RETURN JUMPDEST POP PUSH2 0x1CFD CALLDATASIZE PUSH2 0x4827 JUMP JUMPDEST DUP3 DUP5 SWAP4 SWAP3 SWAP4 MSTORE PUSH1 0x4 PUSH1 0x20 MSTORE PUSH1 0x40 DUP5 KECCAK256 SWAP4 PUSH2 0x1D21 PUSH1 0x1 DUP1 PUSH1 0xA0 SHL SUB DUP7 SLOAD AND CALLER EQ PUSH2 0x4C9C JUMP JUMPDEST PUSH20 0x0 DUP1 EXTCODESIZE ISZERO PUSH2 0xFE3 JUMPI DUP2 PUSH1 0x40 MLOAD DUP1 SWAP3 PUSH4 0x252A867 PUSH1 0xE5 SHL DUP3 MSTORE DUP2 DUP1 PUSH2 0x1D5C DUP12 PUSH1 0x4 DUP4 ADD PUSH2 0x4CCD JUMP JUMPDEST SUB SWAP2 GAS DELEGATECALL DUP1 ISZERO PUSH2 0xFD8 JUMPI SWAP1 DUP6 SWAP3 SWAP2 PUSH2 0x2008 JUMPI JUMPDEST POP PUSH1 0x9 DUP7 ADD DUP1 SLOAD CALLER PUSH0 SWAP1 DUP2 MSTORE PUSH1 0x1 PUSH1 0x20 SWAP1 DUP2 MSTORE PUSH1 0x40 DUP1 DUP4 KECCAK256 PUSH1 0x1 PUSH1 0x1 PUSH1 0xA0 SHL SUB SWAP1 SWAP5 AND DUP1 DUP5 MSTORE SWAP4 SWAP1 SWAP2 MSTORE SWAP1 KECCAK256 SLOAD SWAP2 SWAP3 SWAP1 SWAP2 SWAP5 ISZERO PUSH2 0x1E31 JUMPI POP POP PUSH2 0x1DB7 DUP3 PUSH2 0x1DC7 SWAP5 LT ISZERO PUSH2 0x4A07 JUMP JUMPDEST SLOAD PUSH1 0x1 PUSH1 0x1 PUSH1 0xA0 SHL SUB AND CALLER PUSH2 0x559D JUMP JUMPDEST POP PUSH1 0x5 DUP4 ADD PUSH2 0x1DD7 DUP4 DUP3 SLOAD PUSH2 0x4F56 JUMP JUMPDEST SWAP1 SSTORE DUP3 SLOAD PUSH1 0x1 DUP5 ADD SLOAD PUSH1 0x2 SWAP1 SWAP5 ADD SLOAD PUSH1 0x40 DUP1 MLOAD PUSH1 0x1 PUSH1 0x1 PUSH1 0xA0 SHL SUB SWAP3 DUP4 AND DUP2 MSTORE PUSH1 0x20 DUP2 ADD SWAP6 SWAP1 SWAP6 MSTORE SWAP5 DUP2 AND SWAP5 SWAP2 AND SWAP3 PUSH32 0x3C0DD30126238EAEBBB306E073222EECD03A091D41C39A4B2742759D406C8F55 SWAP2 DUP2 SWAP1 DUP2 ADD PUSH2 0x61E JUMP JUMPDEST SWAP1 SWAP4 DUP4 DUP2 LT PUSH2 0x1E47 JUMPI JUMPDEST POP POP PUSH2 0x1DC7 SWAP3 POP PUSH2 0x1DB7 JUMP JUMPDEST PUSH2 0x1E51 SWAP2 SWAP4 PUSH2 0x4DB4 JUMP JUMPDEST SWAP3 PUSH2 0x1E62 PUSH1 0xFF DUP5 SLOAD PUSH1 0xA0 SHR AND PUSH2 0x49D6 JUMP JUMPDEST PUSH2 0x1E6D DUP5 ISZERO ISZERO PUSH2 0x4DEB JUMP JUMPDEST PUSH1 0x2 SLOAD SWAP3 PUSH1 0x40 MLOAD SWAP4 PUSH4 0x1C8F0847 PUSH1 0xE0 SHL DUP6 MSTORE DUP6 PUSH1 0x4 DUP7 ADD MSTORE PUSH1 0x24 DUP6 ADD MSTORE PUSH1 0x20 DUP5 PUSH1 0x44 DUP2 PUSH20 0x0 GAS DELEGATECALL SWAP4 DUP5 ISZERO PUSH2 0x1BFC JUMPI DUP2 SWAP5 PUSH2 0x1FD4 JUMPI JUMPDEST POP DUP2 PUSH2 0x1F1E JUMPI POP PUSH2 0x1EC6 DUP4 DUP6 PUSH2 0x4F56 JUMP JUMPDEST CALLVALUE SUB PUSH2 0x141E JUMPI DUP4 DUP7 SWAP4 PUSH2 0x1EDD PUSH2 0x1DC7 SWAP7 DUP5 CALLER PUSH2 0x5662 JUMP JUMPDEST POP PUSH1 0x3 SLOAD PUSH2 0x1EF7 SWAP1 DUP3 SWAP1 DUP6 SWAP1 PUSH1 0x1 PUSH1 0x1 PUSH1 0xA0 SHL SUB AND PUSH2 0x5662 JUMP JUMPDEST POP JUMPDEST PUSH1 0x40 MLOAD SWAP2 DUP3 MSTORE PUSH1 0x20 DUP3 ADD MSTORE PUSH0 DUP1 MLOAD PUSH1 0x20 PUSH2 0x5894 DUP4 CODECOPY DUP2 MLOAD SWAP2 MSTORE PUSH1 0x40 CALLER SWAP3 LOG3 PUSH0 DUP1 PUSH2 0x1E3B JUMP JUMPDEST PUSH2 0x1F28 DUP5 DUP7 PUSH2 0x4F56 JUMP JUMPDEST PUSH1 0x40 MLOAD SWAP1 PUSH4 0x23B872DD PUSH1 0xE0 SHL DUP3 MSTORE CALLER PUSH1 0x4 DUP4 ADD MSTORE ADDRESS PUSH1 0x24 DUP4 ADD MSTORE PUSH1 0x44 DUP3 ADD MSTORE PUSH1 0x20 DUP2 PUSH1 0x64 DUP2 DUP6 DUP8 GAS CALL SWAP2 DUP3 ISZERO PUSH2 0xB1E JUMPI DUP1 SWAP3 PUSH2 0x1F97 JUMPI JUMPDEST POP POP ISZERO PUSH2 0x14C8 JUMPI DUP4 DUP7 SWAP4 PUSH2 0x1F77 PUSH2 0x1DC7 SWAP7 DUP5 CALLER PUSH2 0x5662 JUMP JUMPDEST POP PUSH1 0x3 SLOAD PUSH2 0x1F91 SWAP1 DUP3 SWAP1 DUP6 SWAP1 PUSH1 0x1 PUSH1 0x1 PUSH1 0xA0 SHL SUB AND PUSH2 0x5662 JUMP JUMPDEST POP PUSH2 0x1EF9 JUMP JUMPDEST SWAP1 SWAP2 POP PUSH1 0x20 DUP3 RETURNDATASIZE PUSH1 0x20 GT PUSH2 0x1FCC JUMPI JUMPDEST DUP2 PUSH2 0x1FB3 PUSH1 0x20 SWAP4 DUP4 PUSH2 0x4A85 JUMP JUMPDEST DUP2 ADD SUB SLT PUSH2 0x27B JUMPI POP PUSH2 0x1FC5 SWAP1 PUSH2 0x4ABB JUMP JUMPDEST PUSH0 DUP1 PUSH2 0x1F5F JUMP JUMPDEST RETURNDATASIZE SWAP2 POP PUSH2 0x1FA6 JUMP JUMPDEST SWAP1 SWAP4 POP PUSH1 0x20 DUP2 RETURNDATASIZE PUSH1 0x20 GT PUSH2 0x2000 JUMPI JUMPDEST DUP2 PUSH2 0x1FF0 PUSH1 0x20 SWAP4 DUP4 PUSH2 0x4A85 JUMP JUMPDEST DUP2 ADD SUB SLT PUSH2 0xAD2 JUMPI MLOAD SWAP3 PUSH0 PUSH2 0x1EB5 JUMP JUMPDEST RETURNDATASIZE SWAP2 POP PUSH2 0x1FE3 JUMP JUMPDEST DUP2 DUP1 SWAP4 POP PUSH2 0x2015 SWAP2 PUSH2 0x4A85 JUMP JUMPDEST PUSH2 0x27B JUMPI DUP4 SWAP1 PUSH0 PUSH2 0x1D6F JUMP JUMPDEST POP CALLVALUE PUSH2 0x27B JUMPI PUSH1 0x80 CALLDATASIZE PUSH1 0x3 NOT ADD SLT PUSH2 0x27B JUMPI PUSH1 0x4 CALLDATALOAD SWAP1 PUSH2 0x203F PUSH2 0x476A JUMP JUMPDEST PUSH1 0x44 CALLDATALOAD SWAP3 PUSH1 0x64 CALLDATALOAD SWAP2 DUP2 DUP5 MSTORE PUSH1 0x4 PUSH1 0x20 MSTORE PUSH1 0x40 DUP5 KECCAK256 SWAP5 PUSH1 0x1 DUP1 PUSH1 0xA0 SHL SUB DUP7 SLOAD AND CALLER EQ SWAP2 DUP3 DUP1 ISZERO PUSH2 0x2232 JUMPI JUMPDEST PUSH2 0x2072 SWAP1 PUSH2 0x4C9C JUMP JUMPDEST PUSH2 0x2083 PUSH5 0x2540BE400 DUP4 GT ISZERO PUSH2 0x4DEB JUMP JUMPDEST PUSH2 0x2094 PUSH5 0x2540BE400 DUP7 GT ISZERO PUSH2 0x4DEB JUMP JUMPDEST PUSH1 0x1 PUSH1 0x1 PUSH1 0xA0 SHL SUB AND SWAP4 PUSH2 0x20A9 DUP6 ISZERO ISZERO PUSH2 0x4EBD JUMP JUMPDEST PUSH1 0x2 DUP8 ADD SLOAD PUSH1 0xFF SWAP1 PUSH2 0x20C4 PUSH1 0x1 PUSH1 0x1 PUSH1 0xA0 SHL SUB DUP3 AND ISZERO PUSH2 0x4FF8 JUMP JUMPDEST PUSH1 0xA8 SHR AND ISZERO PUSH2 0x21F9 JUMPI JUMPDEST SWAP1 PUSH2 0x21A0 PUSH2 0x21B9 SWAP4 SWAP3 PUSH1 0x4 PUSH1 0x20 SWAP10 CALLER SWAP1 PUSH1 0x1 DUP1 DUP1 PUSH1 0xA0 SHL SUB SWAP2 ADD SLOAD AND EQ SWAP2 PUSH1 0x40 MLOAD SWAP1 PUSH2 0x20F9 DUP3 PUSH2 0x4A38 JUMP JUMPDEST DUP9 DUP3 MSTORE DUP12 DUP3 ADD SWAP6 DUP11 DUP8 MSTORE PUSH1 0x40 DUP4 ADD SWAP1 DUP2 MSTORE PUSH1 0x60 DUP4 ADD SWAP2 DUP3 MSTORE PUSH1 0x80 DUP4 ADD SWAP8 DUP9 MSTORE PUSH1 0xA0 DUP4 ADD SWAP5 DUP6 MSTORE PUSH1 0xC0 DUP4 ADD SWAP7 DUP13 DUP9 MSTORE PUSH1 0x40 PUSH1 0x8 SLOAD SWAP14 DUP15 DUP2 MSTORE DUP16 PUSH1 0xA SWAP1 MSTORE KECCAK256 SWAP4 MLOAD DUP5 SSTORE PUSH1 0x1 DUP1 PUSH1 0xA0 SHL SUB SWAP1 MLOAD AND PUSH1 0x1 DUP5 ADD SWAP1 PUSH1 0x1 DUP1 PUSH1 0xA0 SHL SUB AND PUSH12 0xFFFFFFFFFFFFFFFFFFFFFFFF PUSH1 0xA0 SHL DUP3 SLOAD AND OR SWAP1 SSTORE MLOAD PUSH1 0x2 DUP4 ADD SSTORE MLOAD PUSH1 0x3 DUP3 ADD SSTORE ADD SWAP4 MLOAD ISZERO ISZERO PUSH1 0xFF DUP1 NOT DUP7 SLOAD AND SWAP2 AND OR DUP5 SSTORE MLOAD ISZERO ISZERO DUP4 SWAP1 PUSH2 0xFF00 DUP3 SLOAD SWAP2 ISZERO ISZERO PUSH1 0x8 SHL AND SWAP1 PUSH2 0xFF00 NOT AND OR SWAP1 SSTORE JUMP JUMPDEST MLOAD DUP2 SLOAD PUSH3 0xFF0000 NOT AND SWAP1 ISZERO ISZERO PUSH1 0x10 SHL PUSH3 0xFF0000 AND OR SWAP1 SSTORE JUMP JUMPDEST PUSH2 0x21C4 PUSH1 0x8 SLOAD PUSH2 0x4C3E JUMP JUMPDEST PUSH1 0x8 SSTORE DUP3 PUSH32 0x3E168088DA33D5AB18321345A864B58812F451C892EE951F8F70B5BEAD045B69 DUP6 PUSH1 0x40 MLOAD CALLER DUP2 MSTORE LOG4 PUSH1 0x40 MLOAD SWAP1 DUP2 MSTORE RETURN JUMPDEST SWAP2 SWAP1 DUP3 PUSH2 0x2207 JUMPI SWAP1 SWAP2 PUSH2 0x20CE JUMP JUMPDEST PUSH1 0x64 PUSH1 0x40 MLOAD PUSH3 0x461BCD PUSH1 0xE5 SHL DUP2 MSTORE PUSH1 0x20 PUSH1 0x4 DUP3 ADD MSTORE PUSH1 0x4 PUSH1 0x24 DUP3 ADD MSTORE PUSH4 0x43312E31 PUSH1 0xE0 SHL PUSH1 0x44 DUP3 ADD MSTORE REVERT JUMPDEST POP PUSH1 0x1 DUP8 ADD SLOAD PUSH1 0x1 PUSH1 0x1 PUSH1 0xA0 SHL SUB AND CALLER EQ PUSH2 0x2069 JUMP JUMPDEST POP CALLVALUE PUSH2 0x27B JUMPI PUSH2 0x2257 CALLDATASIZE PUSH2 0x4827 JUMP JUMPDEST SWAP3 SWAP2 SWAP1 DUP2 DUP4 MSTORE PUSH1 0x4 PUSH1 0x20 MSTORE PUSH1 0x40 DUP4 KECCAK256 SWAP1 PUSH1 0x1 DUP3 ADD SWAP4 PUSH1 0x1 DUP1 PUSH1 0xA0 SHL SUB DUP6 SLOAD AND CALLER EQ DUP1 ISZERO PUSH2 0x23CA JUMPI JUMPDEST PUSH2 0x2288 SWAP1 PUSH2 0x4C9C JUMP JUMPDEST PUSH20 0x0 DUP1 EXTCODESIZE ISZERO PUSH2 0xFE3 JUMPI DUP2 PUSH1 0x40 MLOAD DUP1 SWAP3 PUSH4 0x252A867 PUSH1 0xE5 SHL DUP3 MSTORE DUP2 DUP1 PUSH2 0x22C3 DUP10 PUSH1 0x4 DUP4 ADD PUSH2 0x4CCD JUMP JUMPDEST SUB SWAP2 GAS DELEGATECALL DUP1 ISZERO PUSH2 0xFD8 JUMPI SWAP1 DUP3 SWAP2 PUSH2 0x23B5 JUMPI JUMPDEST POP POP PUSH1 0x5 DUP4 ADD PUSH2 0x22EC DUP4 DUP3 SLOAD PUSH2 0x1604 DUP3 DUP3 LT PUSH2 0x4A07 JUMP JUMPDEST SWAP1 SSTORE PUSH1 0x1 DUP1 PUSH1 0xA0 SHL SUB PUSH1 0x9 DUP5 ADD SLOAD AND PUSH1 0x7 DUP5 ADD SLOAD PUSH1 0x40 MLOAD SWAP1 PUSH4 0x1C8F0847 PUSH1 0xE0 SHL DUP3 MSTORE DUP5 PUSH1 0x4 DUP4 ADD MSTORE PUSH1 0x24 DUP3 ADD MSTORE PUSH1 0x20 DUP2 PUSH1 0x44 DUP2 PUSH20 0x0 GAS DELEGATECALL SWAP3 DUP4 ISZERO PUSH2 0xB1E JUMPI SWAP3 PUSH2 0x2374 JUMPI JUMPDEST POP PUSH0 DUP1 MLOAD PUSH1 0x20 PUSH2 0x5874 DUP4 CODECOPY DUP2 MLOAD SWAP2 MSTORE SWAP4 PUSH2 0x16B3 DUP4 DUP4 PUSH2 0x169D DUP12 PUSH2 0x61E SWAP7 PUSH1 0x1 DUP1 PUSH1 0xA0 SHL SUB DUP8 SLOAD AND PUSH2 0x1697 DUP7 DUP13 PUSH2 0x4DB4 JUMP JUMPDEST SWAP1 SWAP2 POP PUSH1 0x20 DUP2 RETURNDATASIZE PUSH1 0x20 GT PUSH2 0x23AD JUMPI JUMPDEST DUP2 PUSH2 0x2390 PUSH1 0x20 SWAP4 DUP4 PUSH2 0x4A85 JUMP JUMPDEST DUP2 ADD SUB SLT PUSH2 0xAD2 JUMPI MLOAD SWAP1 PUSH0 DUP1 MLOAD PUSH1 0x20 PUSH2 0x5874 DUP4 CODECOPY DUP2 MLOAD SWAP2 MSTORE PUSH2 0x2343 JUMP JUMPDEST RETURNDATASIZE SWAP2 POP PUSH2 0x2383 JUMP JUMPDEST DUP2 PUSH2 0x23BF SWAP2 PUSH2 0x4A85 JUMP JUMPDEST PUSH2 0x27B JUMPI DUP1 PUSH0 PUSH2 0x22D5 JUMP JUMPDEST POP PUSH1 0x2 DUP4 ADD SLOAD PUSH1 0x1 PUSH1 0x1 PUSH1 0xA0 SHL SUB AND CALLER EQ PUSH2 0x227F JUMP JUMPDEST POP CALLVALUE PUSH2 0x27B JUMPI DUP1 PUSH1 0x3 NOT CALLDATASIZE ADD SLT PUSH2 0x27B JUMPI PUSH1 0x20 PUSH1 0x7 SLOAD PUSH1 0x40 MLOAD SWAP1 DUP2 MSTORE RETURN JUMPDEST POP CALLVALUE PUSH2 0x27B JUMPI PUSH2 0x240D CALLDATASIZE PUSH2 0x4827 JUMP JUMPDEST SWAP3 DUP3 DUP2 SWAP4 SWAP3 SWAP4 MSTORE PUSH1 0x4 PUSH1 0x20 MSTORE PUSH1 0x40 DUP2 KECCAK256 SWAP3 PUSH1 0x1 DUP1 PUSH1 0xA0 SHL SUB DUP5 SLOAD AND CALLER EQ DUP1 ISZERO PUSH2 0x258A JUMPI JUMPDEST PUSH2 0x243A SWAP1 PUSH2 0x4C9C JUMP JUMPDEST PUSH20 0x0 DUP1 EXTCODESIZE ISZERO PUSH2 0x1732 JUMPI DUP3 PUSH1 0x40 MLOAD DUP1 SWAP3 PUSH4 0x252A867 PUSH1 0xE5 SHL DUP3 MSTORE DUP2 DUP1 PUSH2 0x2475 DUP11 PUSH1 0x4 DUP4 ADD PUSH2 0x4CCD JUMP JUMPDEST SUB SWAP2 GAS DELEGATECALL DUP1 ISZERO PUSH2 0x1727 JUMPI SWAP1 DUP4 SWAP2 PUSH2 0x2575 JUMPI JUMPDEST POP POP PUSH1 0x5 DUP5 ADD PUSH2 0x249E DUP3 DUP3 SLOAD PUSH2 0x1604 DUP3 DUP3 LT PUSH2 0x4A07 JUMP JUMPDEST SWAP1 SSTORE PUSH1 0x1 DUP1 PUSH1 0xA0 SHL SUB PUSH1 0x9 DUP6 ADD SLOAD AND SWAP4 PUSH1 0x7 DUP2 ADD SLOAD PUSH1 0x40 MLOAD SWAP1 PUSH4 0x1C8F0847 PUSH1 0xE0 SHL DUP3 MSTORE DUP4 PUSH1 0x4 DUP4 ADD MSTORE PUSH1 0x24 DUP3 ADD MSTORE PUSH1 0x20 DUP2 PUSH1 0x44 DUP2 PUSH20 0x0 GAS DELEGATECALL SWAP4 DUP5 ISZERO PUSH2 0xB1E JUMPI SWAP4 PUSH2 0x253F JUMPI JUMPDEST POP SWAP2 PUSH2 0x61E DUP4 PUSH2 0x16B3 DUP4 PUSH1 0x1 PUSH32 0xF05D33634B730E763D232B482CF835A4481835F62D0A0973B42018A8EAD4F047 SWAP8 ADD SWAP9 PUSH2 0x169D DUP12 DUP3 PUSH1 0x1 DUP1 PUSH1 0xA0 SHL SUB DUP14 SLOAD AND PUSH2 0x1697 DUP7 DUP13 PUSH2 0x4DB4 JUMP JUMPDEST SWAP3 POP PUSH1 0x20 DUP4 RETURNDATASIZE PUSH1 0x20 GT PUSH2 0x256D JUMPI JUMPDEST DUP2 PUSH2 0x255A PUSH1 0x20 SWAP4 DUP4 PUSH2 0x4A85 JUMP JUMPDEST DUP2 ADD SUB SLT PUSH2 0xAD2 JUMPI SWAP2 MLOAD SWAP2 PUSH2 0x61E PUSH2 0x24F6 JUMP JUMPDEST RETURNDATASIZE SWAP2 POP PUSH2 0x254D JUMP JUMPDEST DUP2 PUSH2 0x257F SWAP2 PUSH2 0x4A85 JUMP JUMPDEST PUSH2 0xFE3 JUMPI DUP2 PUSH0 PUSH2 0x2487 JUMP JUMPDEST POP PUSH1 0x2 DUP5 ADD SLOAD PUSH1 0x1 PUSH1 0x1 PUSH1 0xA0 SHL SUB AND CALLER EQ PUSH2 0x2431 JUMP JUMPDEST POP CALLVALUE PUSH2 0x27B JUMPI DUP1 PUSH1 0x3 NOT CALLDATASIZE ADD SLT PUSH2 0x27B JUMPI PUSH1 0x20 PUSH1 0x5 SLOAD PUSH1 0x40 MLOAD SWAP1 DUP2 MSTORE RETURN JUMPDEST POP CALLVALUE PUSH2 0x27B JUMPI PUSH1 0x20 CALLDATASIZE PUSH1 0x3 NOT ADD SLT PUSH2 0x27B JUMPI PUSH1 0x4 CALLDATALOAD DUP1 DUP3 MSTORE PUSH1 0x4 PUSH1 0x20 MSTORE PUSH1 0x40 DUP3 KECCAK256 SWAP1 PUSH1 0x1 DUP3 ADD SWAP2 PUSH1 0x1 DUP1 PUSH1 0xA0 SHL SUB DUP4 SLOAD AND CALLER EQ DUP1 ISZERO PUSH2 0x26A6 JUMPI JUMPDEST PUSH2 0x2601 SWAP1 PUSH2 0x4C9C JUMP JUMPDEST PUSH1 0x2 DUP2 ADD SWAP4 PUSH1 0xFF DUP6 SLOAD PUSH2 0x2618 DUP3 DUP3 PUSH1 0xA8 SHR AND PUSH2 0x4F63 JUMP JUMPDEST PUSH2 0x2627 DUP3 DUP3 PUSH1 0xB0 SHR AND ISZERO PUSH2 0x4F95 JUMP JUMPDEST PUSH1 0xA0 SHR AND SWAP1 PUSH1 0x3 DUP3 LT ISZERO PUSH2 0x1299 JUMPI POP PUSH0 DUP1 MLOAD PUSH1 0x20 PUSH2 0x5834 DUP4 CODECOPY DUP2 MLOAD SWAP2 MSTORE SWAP2 PUSH2 0x2654 PUSH1 0x2 PUSH2 0x61E SWAP4 EQ PUSH2 0x4FC7 JUMP JUMPDEST DUP1 SLOAD PUSH1 0x9 DUP3 ADD SLOAD PUSH1 0x5 DUP4 ADD SLOAD PUSH2 0x2678 SWAP3 SWAP1 SWAP2 PUSH1 0x1 PUSH1 0x1 PUSH1 0xA0 SHL SUB SWAP1 DUP2 AND SWAP2 AND PUSH2 0x5662 JUMP JUMPDEST POP SLOAD SWAP4 SLOAD SWAP5 SLOAD PUSH1 0x40 DUP1 MLOAD PUSH1 0x1 PUSH1 0x1 PUSH1 0xA0 SHL SUB SWAP3 DUP4 AND DUP2 MSTORE CALLER PUSH1 0x20 DUP3 ADD MSTORE SWAP7 DUP3 AND SWAP7 SWAP6 SWAP1 SWAP2 AND SWAP5 SWAP2 DUP3 SWAP2 DUP3 ADD SWAP1 JUMP JUMPDEST POP DUP1 SLOAD PUSH1 0x1 PUSH1 0x1 PUSH1 0xA0 SHL SUB AND CALLER EQ PUSH2 0x25F8 JUMP JUMPDEST POP CALLVALUE PUSH2 0x27B JUMPI DUP1 PUSH1 0x3 NOT CALLDATASIZE ADD SLT PUSH2 0x27B JUMPI SLOAD PUSH1 0x40 MLOAD PUSH1 0x1 PUSH1 0x1 PUSH1 0xA0 SHL SUB SWAP1 SWAP2 AND DUP2 MSTORE PUSH1 0x20 SWAP1 RETURN JUMPDEST POP CALLVALUE PUSH2 0x27B JUMPI DUP1 PUSH1 0x3 NOT CALLDATASIZE ADD SLT PUSH2 0x27B JUMPI DUP1 SLOAD PUSH2 0x2707 CALLER PUSH1 0x1 PUSH1 0x1 PUSH1 0xA0 SHL SUB DUP4 AND EQ PUSH2 0x4E8C JUMP JUMPDEST PUSH1 0xFF PUSH1 0xA0 SHL NOT AND DUP2 SSTORE PUSH1 0x40 MLOAD DUP2 DUP2 MSTORE PUSH32 0x17904E4FE7D59BB4603C7C045BC275A05DA9EA3A4AC007FC80FFFEAF119186D SWAP1 PUSH1 0x20 SWAP1 LOG1 DUP1 RETURN JUMPDEST POP CALLVALUE PUSH2 0x27B JUMPI PUSH1 0x20 CALLDATASIZE PUSH1 0x3 NOT ADD SLT PUSH2 0x27B JUMPI PUSH1 0x4 CALLDATALOAD DUP2 MSTORE PUSH1 0x4 PUSH1 0x20 MSTORE PUSH1 0x40 SWAP1 KECCAK256 PUSH1 0x1 PUSH1 0xA0 SHL PUSH1 0x1 SWAP1 SUB DUP2 SLOAD AND SWAP1 PUSH1 0x1 PUSH1 0xA0 SHL PUSH1 0x1 SWAP1 SUB PUSH1 0x1 DUP3 ADD SLOAD AND SWAP1 PUSH1 0x2 DUP2 ADD SLOAD PUSH1 0x3 DUP3 ADD SLOAD PUSH1 0x4 DUP4 ADD SLOAD PUSH1 0x5 DUP5 ADD SLOAD PUSH1 0x6 DUP6 ADD SLOAD PUSH1 0x7 DUP7 ADD SLOAD SWAP2 PUSH1 0x8 DUP8 ADD SLOAD SWAP4 PUSH1 0x1 PUSH1 0xA0 SHL PUSH1 0x1 SWAP1 SUB PUSH1 0x9 DUP10 ADD SLOAD AND SWAP6 PUSH1 0x1 PUSH1 0xA0 SHL PUSH1 0x1 SWAP1 SUB PUSH1 0xA DUP11 ADD SLOAD AND SWAP8 PUSH1 0xB DUP11 ADD SLOAD SWAP10 PUSH1 0xC ADD SLOAD PUSH1 0xFF AND SWAP11 PUSH1 0x40 MLOAD SWAP13 DUP14 MSTORE PUSH1 0x20 DUP14 ADD MSTORE PUSH1 0x1 PUSH1 0xA0 SHL PUSH1 0x1 SWAP1 SUB DUP2 AND PUSH1 0x40 DUP14 ADD MSTORE PUSH1 0x60 DUP13 ADD DUP2 PUSH1 0xA0 SHR PUSH1 0xFF AND SWAP1 PUSH2 0x27FF SWAP2 PUSH2 0x48DB JUMP JUMPDEST DUP1 PUSH1 0xA8 SHR PUSH1 0xFF AND ISZERO ISZERO PUSH1 0x80 DUP14 ADD MSTORE PUSH1 0xB0 SHR PUSH1 0xFF AND ISZERO ISZERO PUSH1 0xA0 DUP13 ADD MSTORE PUSH1 0xC0 DUP12 ADD MSTORE PUSH1 0xE0 DUP11 ADD MSTORE PUSH2 0x100 DUP10 ADD MSTORE PUSH2 0x120 DUP9 ADD MSTORE PUSH2 0x140 DUP8 ADD MSTORE PUSH2 0x160 DUP7 ADD MSTORE PUSH2 0x180 DUP6 ADD MSTORE PUSH2 0x1A0 DUP5 ADD MSTORE PUSH2 0x1C0 DUP4 ADD MSTORE PUSH2 0x1E0 DUP3 ADD PUSH2 0x285C SWAP2 PUSH2 0x48E8 JUMP JUMPDEST PUSH2 0x200 SWAP1 RETURN JUMPDEST POP CALLVALUE PUSH2 0x27B JUMPI PUSH1 0x20 CALLDATASIZE PUSH1 0x3 NOT ADD SLT PUSH2 0x27B JUMPI PUSH1 0x4 CALLDATALOAD DUP1 DUP3 MSTORE PUSH1 0x4 PUSH1 0x20 MSTORE PUSH1 0x40 DUP3 KECCAK256 SWAP1 PUSH1 0x1 DUP3 ADD SWAP2 PUSH1 0x1 DUP1 PUSH1 0xA0 SHL SUB DUP4 SLOAD AND CALLER EQ DUP1 ISZERO PUSH2 0x2922 JUMPI JUMPDEST PUSH2 0x28A5 SWAP1 PUSH2 0x4C9C JUMP JUMPDEST PUSH1 0x2 DUP2 ADD SWAP4 PUSH1 0xFF DUP6 SLOAD DUP2 DUP2 PUSH1 0xB0 SHR AND ISZERO DUP1 PUSH2 0x2915 JUMPI JUMPDEST PUSH2 0x28C4 SWAP1 PUSH2 0x4F95 JUMP JUMPDEST PUSH1 0xA0 SHR AND SWAP1 PUSH1 0x3 DUP3 LT ISZERO PUSH2 0x1299 JUMPI POP PUSH0 DUP1 MLOAD PUSH1 0x20 PUSH2 0x5834 DUP4 CODECOPY DUP2 MLOAD SWAP2 MSTORE SWAP2 PUSH2 0x28F1 PUSH1 0x2 PUSH2 0x61E SWAP4 EQ PUSH2 0x4FC7 JUMP JUMPDEST DUP1 SLOAD PUSH1 0x9 DUP3 ADD SLOAD PUSH1 0x5 DUP4 ADD SLOAD PUSH2 0x2678 SWAP3 SWAP1 SWAP2 PUSH1 0x1 PUSH1 0x1 PUSH1 0xA0 SHL SUB SWAP1 DUP2 AND SWAP2 AND PUSH2 0x56BD JUMP JUMPDEST POP PUSH1 0xA8 DUP2 SWAP1 SHR DUP3 AND PUSH2 0x28BB JUMP JUMPDEST POP DUP1 SLOAD PUSH1 0x1 PUSH1 0x1 PUSH1 0xA0 SHL SUB AND CALLER EQ PUSH2 0x289C JUMP JUMPDEST POP CALLVALUE PUSH2 0x27B JUMPI PUSH1 0x40 CALLDATASIZE PUSH1 0x3 NOT ADD SLT PUSH2 0x27B JUMPI PUSH1 0x20 PUSH2 0x2F9 PUSH2 0x2954 PUSH2 0x4818 JUMP JUMPDEST PUSH1 0x4 CALLDATALOAD PUSH2 0x5238 JUMP JUMPDEST POP CALLVALUE PUSH2 0x27B JUMPI PUSH1 0x20 CALLDATASIZE PUSH1 0x3 NOT ADD SLT PUSH2 0x27B JUMPI PUSH1 0x20 SWAP1 PUSH1 0x40 SWAP1 PUSH1 0x1 PUSH1 0x1 PUSH1 0xA0 SHL SUB PUSH2 0x2984 PUSH2 0x4780 JUMP JUMPDEST AND DUP2 MSTORE PUSH1 0x1 DUP4 MSTORE DUP2 DUP2 KECCAK256 DUP2 DUP1 MSTORE DUP4 MSTORE KECCAK256 SLOAD PUSH1 0x40 MLOAD SWAP1 DUP2 MSTORE RETURN JUMPDEST POP PUSH2 0x29A7 CALLDATASIZE PUSH2 0x4827 JUMP JUMPDEST DUP3 DUP5 SWAP4 SWAP3 SWAP5 MSTORE PUSH1 0x4 PUSH1 0x20 MSTORE PUSH1 0x40 DUP4 KECCAK256 SWAP4 PUSH1 0x1 DUP6 ADD SWAP4 PUSH2 0x29D0 PUSH1 0x1 DUP1 PUSH1 0xA0 SHL SUB DUP7 SLOAD AND CALLER EQ PUSH2 0x4C9C JUMP JUMPDEST PUSH20 0x0 DUP1 EXTCODESIZE ISZERO PUSH2 0xFE3 JUMPI DUP2 PUSH1 0x40 MLOAD DUP1 SWAP3 PUSH4 0x252A867 PUSH1 0xE5 SHL DUP3 MSTORE DUP2 DUP1 PUSH2 0x2A0B DUP13 PUSH1 0x4 DUP4 ADD PUSH2 0x4CCD JUMP JUMPDEST SUB SWAP2 GAS DELEGATECALL DUP1 ISZERO PUSH2 0xFD8 JUMPI SWAP1 DUP3 SWAP2 PUSH2 0x2CBF JUMPI JUMPDEST POP POP PUSH1 0xA DUP7 ADD DUP1 SLOAD CALLER PUSH0 SWAP1 DUP2 MSTORE PUSH1 0x1 PUSH1 0x20 SWAP1 DUP2 MSTORE PUSH1 0x40 DUP1 DUP4 KECCAK256 PUSH1 0x1 PUSH1 0x1 PUSH1 0xA0 SHL SUB SWAP1 SWAP5 AND DUP1 DUP5 MSTORE SWAP4 SWAP1 SWAP2 MSTORE SWAP1 KECCAK256 SLOAD SWAP2 SWAP3 SWAP1 SWAP2 SWAP5 ISZERO PUSH2 0x2ABB JUMPI POP POP DUP2 PUSH2 0x2A76 SWAP2 PUSH2 0x1DB7 DUP3 PUSH0 DUP1 MLOAD PUSH1 0x20 PUSH2 0x5854 DUP4 CODECOPY DUP2 MLOAD SWAP2 MSTORE SWAP7 LT ISZERO PUSH2 0x4A07 JUMP JUMPDEST POP PUSH1 0x6 DUP6 ADD PUSH2 0x2A86 DUP3 DUP3 SLOAD PUSH2 0x4F56 JUMP JUMPDEST SWAP1 SSTORE DUP5 SLOAD SWAP4 SLOAD PUSH1 0x2 SWAP1 SWAP6 ADD SLOAD PUSH1 0x40 DUP1 MLOAD PUSH1 0x1 PUSH1 0x1 PUSH1 0xA0 SHL SUB SWAP3 DUP4 AND DUP2 MSTORE PUSH1 0x20 DUP2 ADD SWAP4 SWAP1 SWAP4 MSTORE SWAP6 DUP2 AND SWAP6 SWAP5 AND SWAP4 DUP2 SWAP1 DUP2 ADD PUSH2 0x61E JUMP JUMPDEST SWAP1 SWAP4 DUP4 DUP2 LT PUSH2 0x2AE1 JUMPI JUMPDEST POP POP PUSH0 DUP1 MLOAD PUSH1 0x20 PUSH2 0x5854 DUP4 CODECOPY DUP2 MLOAD SWAP2 MSTORE SWAP3 POP DUP2 PUSH2 0x2A76 SWAP2 PUSH2 0x1DB7 JUMP JUMPDEST PUSH2 0x2AEB SWAP1 DUP5 PUSH2 0x4DB4 JUMP JUMPDEST SWAP2 PUSH2 0x2AFC PUSH1 0xFF DUP4 SLOAD PUSH1 0xA0 SHR AND PUSH2 0x49D6 JUMP JUMPDEST PUSH2 0x2B07 DUP4 ISZERO ISZERO PUSH2 0x4DEB JUMP JUMPDEST PUSH1 0x2 SLOAD SWAP2 PUSH1 0x40 MLOAD SWAP3 PUSH4 0x1C8F0847 PUSH1 0xE0 SHL DUP5 MSTORE DUP5 PUSH1 0x4 DUP6 ADD MSTORE PUSH1 0x24 DUP5 ADD MSTORE PUSH1 0x20 DUP4 PUSH1 0x44 DUP2 PUSH20 0x0 GAS DELEGATECALL SWAP3 DUP4 ISZERO PUSH2 0x1BFC JUMPI DUP2 SWAP4 PUSH2 0x2C8B JUMPI JUMPDEST POP DUP6 PUSH2 0x2BC6 JUMPI POP PUSH2 0x2B60 DUP3 DUP5 PUSH2 0x4F56 JUMP JUMPDEST CALLVALUE SUB PUSH2 0x141E JUMPI DUP5 DUP4 DUP6 SWAP4 PUSH2 0x2B86 PUSH2 0x2A76 SWAP7 PUSH0 DUP1 MLOAD PUSH1 0x20 PUSH2 0x5854 DUP4 CODECOPY DUP2 MLOAD SWAP2 MSTORE SWAP10 CALLER PUSH2 0x5662 JUMP JUMPDEST POP PUSH1 0x3 SLOAD PUSH2 0x2BA0 SWAP1 DUP3 SWAP1 DUP6 SWAP1 PUSH1 0x1 PUSH1 0x1 PUSH1 0xA0 SHL SUB AND PUSH2 0x5662 JUMP JUMPDEST POP JUMPDEST PUSH1 0x40 MLOAD SWAP2 DUP3 MSTORE PUSH1 0x20 DUP3 ADD MSTORE PUSH0 DUP1 MLOAD PUSH1 0x20 PUSH2 0x5894 DUP4 CODECOPY DUP2 MLOAD SWAP2 MSTORE PUSH1 0x40 CALLER SWAP3 LOG3 SWAP2 PUSH2 0x2AC5 JUMP JUMPDEST PUSH2 0x2BD0 DUP4 DUP6 PUSH2 0x4F56 JUMP JUMPDEST PUSH1 0x40 MLOAD SWAP1 PUSH4 0x23B872DD PUSH1 0xE0 SHL DUP3 MSTORE CALLER PUSH1 0x4 DUP4 ADD MSTORE ADDRESS PUSH1 0x24 DUP4 ADD MSTORE PUSH1 0x44 DUP3 ADD MSTORE PUSH1 0x20 DUP2 PUSH1 0x64 DUP2 DUP6 DUP12 GAS CALL SWAP2 DUP3 ISZERO PUSH2 0xB1E JUMPI DUP1 SWAP3 PUSH2 0x2C4E JUMPI JUMPDEST POP POP ISZERO PUSH2 0x14C8 JUMPI DUP5 DUP4 DUP6 SWAP4 PUSH2 0x2C2E PUSH2 0x2A76 SWAP7 PUSH0 DUP1 MLOAD PUSH1 0x20 PUSH2 0x5854 DUP4 CODECOPY DUP2 MLOAD SWAP2 MSTORE SWAP10 CALLER PUSH2 0x5662 JUMP JUMPDEST POP PUSH1 0x3 SLOAD PUSH2 0x2C48 SWAP1 DUP3 SWAP1 DUP6 SWAP1 PUSH1 0x1 PUSH1 0x1 PUSH1 0xA0 SHL SUB AND PUSH2 0x5662 JUMP JUMPDEST POP PUSH2 0x2BA2 JUMP JUMPDEST SWAP1 SWAP2 POP PUSH1 0x20 DUP3 RETURNDATASIZE PUSH1 0x20 GT PUSH2 0x2C83 JUMPI JUMPDEST DUP2 PUSH2 0x2C6A PUSH1 0x20 SWAP4 DUP4 PUSH2 0x4A85 JUMP JUMPDEST DUP2 ADD SUB SLT PUSH2 0x27B JUMPI POP PUSH2 0x2C7C SWAP1 PUSH2 0x4ABB JUMP JUMPDEST PUSH0 DUP1 PUSH2 0x2C07 JUMP JUMPDEST RETURNDATASIZE SWAP2 POP PUSH2 0x2C5D JUMP JUMPDEST SWAP1 SWAP3 POP PUSH1 0x20 DUP2 RETURNDATASIZE PUSH1 0x20 GT PUSH2 0x2CB7 JUMPI JUMPDEST DUP2 PUSH2 0x2CA7 PUSH1 0x20 SWAP4 DUP4 PUSH2 0x4A85 JUMP JUMPDEST DUP2 ADD SUB SLT PUSH2 0xAD2 JUMPI MLOAD SWAP2 PUSH0 PUSH2 0x2B4F JUMP JUMPDEST RETURNDATASIZE SWAP2 POP PUSH2 0x2C9A JUMP JUMPDEST DUP2 PUSH2 0x2CC9 SWAP2 PUSH2 0x4A85 JUMP JUMPDEST PUSH2 0x27B JUMPI DUP1 PUSH0 PUSH2 0x2A1D JUMP JUMPDEST POP CALLVALUE PUSH2 0x27B JUMPI PUSH2 0x2CE3 CALLDATASIZE PUSH2 0x484A JUMP JUMPDEST DUP4 DUP6 SWAP5 SWAP4 SWAP5 MSTORE PUSH1 0x4 PUSH1 0x20 MSTORE PUSH1 0x40 DUP6 KECCAK256 SWAP1 PUSH2 0x2D04 PUSH5 0x2540BE400 DUP3 GT ISZERO PUSH2 0x4DEB JUMP JUMPDEST PUSH1 0x1 DUP3 ADD SWAP5 PUSH2 0x2D1D PUSH1 0x1 DUP1 PUSH1 0xA0 SHL SUB DUP8 SLOAD AND CALLER EQ PUSH2 0x4C9C JUMP JUMPDEST DUP7 PUSH20 0x0 DUP1 EXTCODESIZE ISZERO PUSH2 0xFE3 JUMPI DUP2 PUSH1 0x40 MLOAD DUP1 SWAP3 PUSH4 0x252A867 PUSH1 0xE5 SHL DUP3 MSTORE DUP2 DUP1 PUSH2 0x2D59 DUP11 PUSH1 0x4 DUP4 ADD PUSH2 0x4CCD JUMP JUMPDEST SUB SWAP2 GAS DELEGATECALL DUP1 ISZERO PUSH2 0xFD8 JUMPI PUSH2 0x2E50 JUMPI JUMPDEST POP POP SWAP1 PUSH0 DUP1 MLOAD PUSH1 0x20 PUSH2 0x58B4 DUP4 CODECOPY DUP2 MLOAD SWAP2 MSTORE SWAP4 DUP4 SWAP3 PUSH1 0x40 PUSH1 0x2 PUSH1 0x20 SWAP7 ADD SWAP10 DUP11 SLOAD PUSH2 0x2D97 PUSH1 0xFF DUP3 PUSH1 0xA8 SHR AND ISZERO PUSH2 0x4E1C JUMP JUMPDEST DUP6 PUSH2 0x2E36 JUMPI JUMPDEST POP CALLER DUP2 MSTORE PUSH1 0x1 DUP8 MSTORE KECCAK256 PUSH1 0x1 DUP1 PUSH1 0xA0 SHL SUB DUP3 AND PUSH0 MSTORE DUP6 MSTORE PUSH2 0x2DC3 DUP3 PUSH1 0x40 PUSH0 KECCAK256 SLOAD LT ISZERO PUSH2 0x4A07 JUMP JUMPDEST PUSH2 0x2DCE DUP3 DUP3 CALLER PUSH2 0x559D JUMP JUMPDEST POP DUP9 SLOAD PUSH1 0xFF PUSH1 0xA8 SHL NOT AND PUSH1 0x1 PUSH1 0xA8 SHL OR DUP10 SSTORE PUSH1 0xA DUP5 ADD DUP1 SLOAD PUSH1 0x1 PUSH1 0x1 PUSH1 0xA0 SHL SUB NOT AND PUSH1 0x1 PUSH1 0x1 PUSH1 0xA0 SHL SUB SWAP3 DUP4 AND OR SWAP1 SSTORE PUSH1 0x4 DUP5 ADD DUP3 SWAP1 SSTORE PUSH1 0x6 DUP5 ADD SWAP2 SWAP1 SWAP2 SSTORE PUSH1 0x8 DUP4 ADD SWAP2 SWAP1 SWAP2 SSTORE SWAP1 SLOAD SWAP5 SLOAD SWAP6 SLOAD PUSH1 0x40 MLOAD SWAP1 DUP3 AND DUP2 MSTORE SWAP6 DUP2 AND SWAP6 SWAP5 AND SWAP4 LOG4 PUSH1 0x20 PUSH1 0x40 MLOAD PUSH1 0x1 DUP2 MSTORE RETURN JUMPDEST PUSH2 0x2E4A SWAP1 PUSH1 0x1 PUSH1 0x1 PUSH1 0xA0 SHL SUB AND ISZERO ISZERO PUSH2 0x4E4E JUMP JUMPDEST PUSH0 PUSH2 0x2D9D JUMP JUMPDEST DUP2 PUSH2 0x2E5E SWAP2 SWAP6 SWAP5 SWAP4 SWAP6 PUSH2 0x4A85 JUMP JUMPDEST PUSH2 0x2E6B JUMPI SWAP1 SWAP2 DUP7 PUSH0 PUSH2 0x2D68 JUMP JUMPDEST DUP7 DUP1 REVERT JUMPDEST POP CALLVALUE PUSH2 0x27B JUMPI PUSH1 0x40 CALLDATASIZE PUSH1 0x3 NOT ADD SLT PUSH2 0x27B JUMPI PUSH1 0x4 CALLDATALOAD PUSH2 0x2E8C PUSH2 0x4818 JUMP JUMPDEST DUP2 DUP4 MSTORE PUSH1 0x4 PUSH1 0x20 MSTORE PUSH1 0x40 DUP4 KECCAK256 DUP1 SLOAD PUSH1 0x1 PUSH1 0x1 PUSH1 0xA0 SHL SUB AND CALLER EQ DUP1 ISZERO PUSH2 0x31BB JUMPI JUMPDEST PUSH2 0x2EB5 SWAP1 PUSH2 0x4C9C JUMP JUMPDEST DUP4 PUSH20 0x0 DUP1 EXTCODESIZE ISZERO PUSH2 0xFE3 JUMPI DUP2 PUSH1 0x40 MLOAD DUP1 SWAP3 PUSH4 0x252A867 PUSH1 0xE5 SHL DUP3 MSTORE DUP2 DUP1 PUSH2 0x2EF1 DUP9 PUSH1 0x4 DUP4 ADD PUSH2 0x4CCD JUMP JUMPDEST SUB SWAP2 GAS DELEGATECALL DUP1 ISZERO PUSH2 0xFD8 JUMPI PUSH2 0x31A2 JUMPI JUMPDEST POP POP PUSH1 0x5 DUP2 ADD SLOAD SWAP1 PUSH1 0x1 DUP1 PUSH1 0xA0 SHL SUB PUSH1 0x9 DUP3 ADD SLOAD AND PUSH1 0x6 DUP3 ADD SLOAD SWAP3 PUSH1 0x1 DUP1 PUSH1 0xA0 SHL SUB PUSH1 0xA DUP5 ADD SLOAD AND SWAP3 PUSH1 0x7 DUP2 ADD SLOAD SWAP6 PUSH1 0x8 DUP3 ADD SLOAD SWAP5 PUSH20 0x0 SWAP6 PUSH1 0x40 MLOAD SWAP9 PUSH4 0x1C8F0847 PUSH1 0xE0 SHL DUP11 MSTORE DUP6 PUSH1 0x4 DUP12 ADD MSTORE PUSH1 0x24 DUP11 ADD MSTORE PUSH1 0x20 DUP10 PUSH1 0x44 DUP2 DUP11 GAS DELEGATECALL SWAP9 DUP10 ISZERO PUSH2 0xF74 JUMPI DUP12 SWAP10 PUSH2 0x316D JUMPI JUMPDEST POP PUSH1 0x20 SWAP1 PUSH1 0x44 PUSH1 0x40 MLOAD DUP1 SWAP10 DUP2 SWAP4 PUSH4 0x1C8F0847 PUSH1 0xE0 SHL DUP4 MSTORE DUP13 PUSH1 0x4 DUP5 ADD MSTORE PUSH1 0x24 DUP4 ADD MSTORE GAS DELEGATECALL SWAP6 DUP7 ISZERO PUSH2 0x3162 JUMPI SWAP2 DUP11 SWAP2 DUP10 SWAP11 SWAP12 SWAP4 DUP13 SWAP11 SWAP6 SWAP5 SWAP9 PUSH2 0x3120 JUMPI JUMPDEST POP SWAP1 DUP8 DUP5 SWAP4 SWAP3 PUSH1 0x1 DUP13 SWAP9 SWAP8 SWAP7 ADD SWAP9 PUSH1 0x1 PUSH1 0xA0 SHL PUSH1 0x1 SWAP1 SUB DUP11 SLOAD AND DUP2 PUSH2 0x2FDC DUP10 DUP12 PUSH2 0x4DB4 JUMP JUMPDEST SWAP1 PUSH2 0x2FE7 SWAP3 DUP8 PUSH2 0x5644 JUMP JUMPDEST POP PUSH1 0x2 DUP7 ADD DUP1 SLOAD SWAP1 SWAP15 PUSH2 0x3005 SWAP3 SWAP1 SWAP2 PUSH1 0x1 PUSH1 0x1 PUSH1 0xA0 SHL SUB AND DUP7 PUSH2 0x5644 JUMP JUMPDEST POP DUP5 SLOAD PUSH1 0x1 PUSH1 0x1 PUSH1 0xA0 SHL SUB AND DUP2 PUSH2 0x301C DUP14 DUP1 PUSH2 0x4DB4 JUMP JUMPDEST SWAP1 PUSH2 0x3027 SWAP3 DUP7 PUSH2 0x5644 JUMP JUMPDEST POP DUP13 SLOAD PUSH2 0x303F SWAP4 PUSH1 0x1 PUSH1 0x1 PUSH1 0xA0 SHL SUB SWAP1 SWAP2 AND SWAP1 PUSH2 0x5644 JUMP JUMPDEST POP POP DUP9 SLOAD PUSH1 0xFF PUSH1 0xA0 SHL NOT DUP2 AND SWAP1 SWAP10 SSTORE SLOAD SWAP4 SLOAD PUSH1 0x40 MLOAD PUSH1 0x1 PUSH1 0x1 PUSH1 0xA0 SHL SUB SWAP2 DUP3 AND SWAP11 SWAP6 DUP3 AND SWAP10 SWAP2 SWAP1 SWAP2 AND SWAP7 DUP11 SWAP7 DUP11 SWAP7 DUP9 SWAP4 DUP9 SWAP4 SWAP2 SWAP3 SWAP1 SWAP2 DUP3 SWAP2 PUSH2 0x3083 SWAP2 CALLER DUP15 DUP6 PUSH2 0x4DC1 JUMP JUMPDEST SUB PUSH0 DUP1 MLOAD PUSH1 0x20 PUSH2 0x57F4 DUP4 CODECOPY DUP2 MLOAD SWAP2 MSTORE SWAP2 LOG4 PUSH1 0x40 MLOAD SWAP2 DUP3 SWAP2 PUSH2 0x30A6 SWAP2 CALLER DUP10 DUP6 PUSH2 0x4DC1 JUMP JUMPDEST SUB PUSH32 0xF05D33634B730E763D232B482CF835A4481835F62D0A0973B42018A8EAD4F047 SWAP2 LOG4 PUSH1 0x40 DUP1 MLOAD PUSH1 0x1 PUSH1 0x1 PUSH1 0xA0 SHL SUB SWAP3 SWAP1 SWAP3 AND DUP3 MSTORE CALLER PUSH1 0x20 DUP4 ADD MSTORE PUSH32 0xFAEE379435B6A0C297F1A08C66517FDC202DEBC6D275E6DD73630E3EBD1BDD97 SWAP2 LOG4 PUSH1 0x6 SLOAD PUSH2 0x3111 SWAP1 PUSH2 0x4C3E JUMP JUMPDEST PUSH1 0x6 SSTORE PUSH1 0x40 MLOAD PUSH1 0x1 DUP2 MSTORE PUSH1 0x20 SWAP1 RETURN JUMPDEST SWAP4 SWAP3 SWAP10 POP SWAP7 POP SWAP4 SWAP3 POP PUSH1 0x20 DUP3 RETURNDATASIZE PUSH1 0x20 GT PUSH2 0x315A JUMPI JUMPDEST DUP2 PUSH2 0x3142 PUSH1 0x20 SWAP4 DUP4 PUSH2 0x4A85 JUMP JUMPDEST DUP2 ADD SUB SLT PUSH2 0xAD2 JUMPI SWAP1 MLOAD DUP10 SWAP8 SWAP1 SWAP6 SWAP3 SWAP4 DUP10 SWAP4 DUP10 PUSH2 0x2FB7 JUMP JUMPDEST RETURNDATASIZE SWAP2 POP PUSH2 0x3135 JUMP JUMPDEST PUSH1 0x40 MLOAD RETURNDATASIZE DUP13 DUP3 RETURNDATACOPY RETURNDATASIZE SWAP1 REVERT JUMPDEST SWAP1 SWAP9 POP PUSH1 0x20 DUP2 RETURNDATASIZE PUSH1 0x20 GT PUSH2 0x319A JUMPI JUMPDEST DUP2 PUSH2 0x3189 PUSH1 0x20 SWAP4 DUP4 PUSH2 0x4A85 JUMP JUMPDEST DUP2 ADD SUB SLT PUSH2 0xAD2 JUMPI MLOAD SWAP8 PUSH1 0x20 PUSH2 0x2F7B JUMP JUMPDEST RETURNDATASIZE SWAP2 POP PUSH2 0x317C JUMP JUMPDEST DUP2 PUSH2 0x31AC SWAP2 PUSH2 0x4A85 JUMP JUMPDEST PUSH2 0x31B7 JUMPI DUP4 PUSH0 PUSH2 0x2F00 JUMP JUMPDEST DUP4 DUP1 REVERT JUMPDEST POP PUSH1 0x2 DUP2 ADD SLOAD PUSH1 0x1 PUSH1 0x1 PUSH1 0xA0 SHL SUB AND CALLER EQ PUSH2 0x2EAC JUMP JUMPDEST POP CALLVALUE PUSH2 0x27B JUMPI PUSH1 0x40 CALLDATASIZE PUSH1 0x3 NOT ADD SLT PUSH2 0x27B JUMPI PUSH1 0x20 PUSH2 0x2F9 PUSH2 0x31F0 PUSH2 0x4818 JUMP JUMPDEST PUSH1 0x4 CALLDATALOAD PUSH2 0x502A JUMP JUMPDEST POP CALLVALUE PUSH2 0x27B JUMPI PUSH1 0x20 CALLDATASIZE PUSH1 0x3 NOT ADD SLT PUSH2 0x27B JUMPI PUSH1 0x40 PUSH1 0xE0 SWAP2 PUSH1 0x4 CALLDATALOAD DUP2 MSTORE PUSH1 0xA PUSH1 0x20 MSTORE KECCAK256 PUSH1 0xFF DUP2 SLOAD SWAP2 PUSH1 0x1 DUP1 PUSH1 0xA0 SHL SUB PUSH1 0x1 DUP3 ADD SLOAD AND SWAP1 PUSH1 0x2 DUP2 ADD SLOAD PUSH1 0x4 PUSH1 0x3 DUP4 ADD SLOAD SWAP3 ADD SLOAD SWAP3 PUSH1 0x40 MLOAD SWAP6 DUP7 MSTORE PUSH1 0x20 DUP7 ADD MSTORE PUSH1 0x40 DUP6 ADD MSTORE PUSH1 0x60 DUP5 ADD MSTORE DUP2 DUP2 AND ISZERO ISZERO PUSH1 0x80 DUP5 ADD MSTORE DUP2 DUP2 PUSH1 0x8 SHR AND ISZERO ISZERO PUSH1 0xA0 DUP5 ADD MSTORE PUSH1 0x10 SHR AND ISZERO ISZERO PUSH1 0xC0 DUP3 ADD MSTORE RETURN JUMPDEST POP CALLVALUE PUSH2 0x27B JUMPI PUSH1 0x20 CALLDATASIZE PUSH1 0x3 NOT ADD SLT PUSH2 0x27B JUMPI DUP1 PUSH2 0x1E0 PUSH1 0x40 MLOAD PUSH2 0x3298 DUP2 PUSH2 0x4A68 JUMP JUMPDEST DUP3 DUP2 MSTORE DUP3 PUSH1 0x20 DUP3 ADD MSTORE DUP3 PUSH1 0x40 DUP3 ADD MSTORE DUP3 PUSH1 0x60 DUP3 ADD MSTORE DUP3 PUSH1 0x80 DUP3 ADD MSTORE DUP3 PUSH1 0xA0 DUP3 ADD MSTORE DUP3 PUSH1 0xC0 DUP3 ADD MSTORE DUP3 PUSH1 0xE0 DUP3 ADD MSTORE DUP3 PUSH2 0x100 DUP3 ADD MSTORE DUP3 PUSH2 0x120 DUP3 ADD MSTORE DUP3 PUSH2 0x140 DUP3 ADD MSTORE DUP3 PUSH2 0x160 DUP3 ADD MSTORE DUP3 PUSH2 0x180 DUP3 ADD MSTORE DUP3 PUSH2 0x1A0 DUP3 ADD MSTORE DUP3 PUSH2 0x1C0 DUP3 ADD MSTORE ADD MSTORE PUSH1 0x4 CALLDATALOAD DUP2 MSTORE PUSH1 0x4 PUSH1 0x20 MSTORE PUSH1 0x40 DUP2 KECCAK256 SWAP1 PUSH1 0x40 MLOAD SWAP1 PUSH2 0x3314 DUP3 PUSH2 0x4A68 JUMP JUMPDEST DUP3 SLOAD PUSH1 0x1 PUSH1 0x1 PUSH1 0xA0 SHL SUB SWAP1 DUP2 AND DUP4 MSTORE PUSH1 0x1 DUP5 ADD SLOAD DUP2 AND PUSH1 0x20 DUP5 ADD MSTORE PUSH1 0x2 DUP5 ADD SLOAD SWAP1 DUP2 AND PUSH1 0x40 DUP5 ADD MSTORE SWAP1 PUSH1 0xA0 DUP3 SWAP1 SHR PUSH1 0xFF AND SWAP1 PUSH1 0x3 DUP3 LT ISZERO PUSH2 0x1299 JUMPI POP PUSH1 0xC PUSH2 0x200 SWAP5 PUSH1 0xFF PUSH2 0x33F9 SWAP5 DUP2 SWAP5 PUSH1 0x60 DUP9 ADD MSTORE DUP2 DUP2 PUSH1 0xA8 SHR AND ISZERO ISZERO PUSH1 0x80 DUP9 ADD MSTORE PUSH1 0xB0 SHR AND ISZERO ISZERO PUSH1 0xA0 DUP7 ADD MSTORE PUSH1 0x3 DUP2 ADD SLOAD PUSH1 0xC0 DUP7 ADD MSTORE PUSH1 0x4 DUP2 ADD SLOAD PUSH1 0xE0 DUP7 ADD MSTORE PUSH1 0x5 DUP2 ADD SLOAD PUSH2 0x100 DUP7 ADD MSTORE PUSH1 0x6 DUP2 ADD SLOAD PUSH2 0x120 DUP7 ADD MSTORE PUSH1 0x7 DUP2 ADD SLOAD PUSH2 0x140 DUP7 ADD MSTORE PUSH1 0x8 DUP2 ADD SLOAD PUSH2 0x160 DUP7 ADD MSTORE PUSH1 0x1 DUP1 PUSH1 0xA0 SHL SUB PUSH1 0x9 DUP3 ADD SLOAD AND PUSH2 0x180 DUP7 ADD MSTORE PUSH1 0x1 DUP1 PUSH1 0xA0 SHL SUB PUSH1 0xA DUP3 ADD SLOAD AND PUSH2 0x1A0 DUP7 ADD MSTORE PUSH1 0xB DUP2 ADD SLOAD PUSH2 0x1C0 DUP7 ADD MSTORE ADD SLOAD AND PUSH2 0x1E0 DUP4 ADD PUSH2 0x4E80 JUMP JUMPDEST PUSH2 0x3406 PUSH1 0x40 MLOAD DUP1 SWAP3 PUSH2 0x48F5 JUMP JUMPDEST RETURN JUMPDEST POP PUSH1 0x40 CALLDATASIZE PUSH1 0x3 NOT ADD SLT PUSH2 0x27B JUMPI PUSH2 0x341D PUSH2 0x4780 JUMP JUMPDEST PUSH1 0x24 CALLDATALOAD PUSH2 0x3430 PUSH1 0xFF DUP5 SLOAD PUSH1 0xA0 SHR AND PUSH2 0x49D6 JUMP JUMPDEST PUSH2 0x343B DUP2 ISZERO ISZERO PUSH2 0x4DEB JUMP JUMPDEST PUSH1 0x2 SLOAD PUSH1 0x40 MLOAD SWAP1 PUSH4 0x1C8F0847 PUSH1 0xE0 SHL DUP3 MSTORE DUP3 PUSH1 0x4 DUP4 ADD MSTORE PUSH1 0x24 DUP3 ADD MSTORE PUSH1 0x20 DUP2 PUSH1 0x44 DUP2 PUSH20 0x0 GAS DELEGATECALL SWAP1 DUP2 ISZERO PUSH2 0x35C0 JUMPI DUP5 SWAP2 PUSH2 0x358E JUMPI JUMPDEST POP PUSH1 0x1 PUSH1 0x1 PUSH1 0xA0 SHL SUB DUP4 AND SWAP3 DUP4 PUSH2 0x34E8 JUMPI PUSH2 0x349D DUP3 DUP5 PUSH2 0x4F56 JUMP JUMPDEST CALLVALUE SUB PUSH2 0x141E JUMPI DUP2 DUP2 PUSH2 0x34B3 DUP6 PUSH2 0x34C5 SWAP5 CALLER PUSH2 0x5662 JUMP JUMPDEST POP PUSH1 0x3 SLOAD PUSH1 0x1 PUSH1 0x1 PUSH1 0xA0 SHL SUB AND PUSH2 0x5662 JUMP JUMPDEST POP JUMPDEST PUSH1 0x40 MLOAD SWAP2 DUP3 MSTORE PUSH1 0x20 DUP3 ADD MSTORE PUSH0 DUP1 MLOAD PUSH1 0x20 PUSH2 0x5894 DUP4 CODECOPY DUP2 MLOAD SWAP2 MSTORE PUSH1 0x40 CALLER SWAP3 LOG3 DUP1 RETURN JUMPDEST PUSH2 0x34F2 DUP3 DUP5 PUSH2 0x4F56 JUMP JUMPDEST PUSH1 0x40 MLOAD SWAP1 PUSH4 0x23B872DD PUSH1 0xE0 SHL DUP3 MSTORE CALLER PUSH1 0x4 DUP4 ADD MSTORE ADDRESS PUSH1 0x24 DUP4 ADD MSTORE PUSH1 0x44 DUP3 ADD MSTORE PUSH1 0x20 DUP2 PUSH1 0x64 DUP2 DUP10 DUP10 GAS CALL SWAP1 DUP2 ISZERO PUSH2 0x3583 JUMPI DUP7 SWAP2 PUSH2 0x3545 JUMPI JUMPDEST POP ISZERO PUSH2 0x14C8 JUMPI DUP2 DUP2 PUSH2 0x34B3 DUP6 PUSH2 0x353F SWAP5 CALLER PUSH2 0x5662 JUMP JUMPDEST POP PUSH2 0x34C7 JUMP JUMPDEST SWAP1 POP PUSH1 0x20 DUP2 RETURNDATASIZE PUSH1 0x20 GT PUSH2 0x357B JUMPI JUMPDEST DUP2 PUSH2 0x3560 PUSH1 0x20 SWAP4 DUP4 PUSH2 0x4A85 JUMP JUMPDEST DUP2 ADD SUB SLT PUSH2 0x3577 JUMPI PUSH2 0x3571 SWAP1 PUSH2 0x4ABB JUMP JUMPDEST PUSH0 PUSH2 0x3529 JUMP JUMPDEST DUP6 DUP1 REVERT JUMPDEST RETURNDATASIZE SWAP2 POP PUSH2 0x3553 JUMP JUMPDEST PUSH1 0x40 MLOAD RETURNDATASIZE DUP9 DUP3 RETURNDATACOPY RETURNDATASIZE SWAP1 REVERT JUMPDEST SWAP1 POP PUSH1 0x20 DUP2 RETURNDATASIZE PUSH1 0x20 GT PUSH2 0x35B8 JUMPI JUMPDEST DUP2 PUSH2 0x35A9 PUSH1 0x20 SWAP4 DUP4 PUSH2 0x4A85 JUMP JUMPDEST DUP2 ADD SUB SLT PUSH2 0xAD2 JUMPI MLOAD PUSH0 PUSH2 0x3482 JUMP JUMPDEST RETURNDATASIZE SWAP2 POP PUSH2 0x359C JUMP JUMPDEST PUSH1 0x40 MLOAD RETURNDATASIZE DUP7 DUP3 RETURNDATACOPY RETURNDATASIZE SWAP1 REVERT JUMPDEST POP CALLVALUE PUSH2 0x27B JUMPI DUP1 PUSH1 0x3 NOT CALLDATASIZE ADD SLT PUSH2 0x27B JUMPI PUSH1 0xFF PUSH1 0x20 SWAP2 SLOAD PUSH1 0xA0 SHR AND PUSH1 0x40 MLOAD SWAP1 ISZERO ISZERO DUP2 MSTORE RETURN JUMPDEST POP CALLVALUE PUSH2 0x27B JUMPI PUSH1 0x20 CALLDATASIZE PUSH1 0x3 NOT ADD SLT PUSH2 0x27B JUMPI PUSH1 0x4 CALLDATALOAD DUP1 DUP3 MSTORE PUSH1 0x4 PUSH1 0x20 MSTORE PUSH1 0x40 DUP3 KECCAK256 SWAP2 PUSH1 0x1 DUP4 ADD SWAP3 PUSH2 0x362B PUSH1 0x1 DUP1 PUSH1 0xA0 SHL SUB DUP6 SLOAD AND CALLER EQ PUSH2 0x4C9C JUMP JUMPDEST PUSH1 0x2 DUP2 ADD SWAP2 PUSH1 0xFF DUP4 SLOAD PUSH2 0x3642 DUP3 DUP3 PUSH1 0xA8 SHR AND PUSH2 0x4F63 JUMP JUMPDEST PUSH2 0x3651 DUP3 DUP3 PUSH1 0xB0 SHR AND ISZERO PUSH2 0x4F95 JUMP JUMPDEST PUSH1 0xA0 SHR AND SWAP1 PUSH1 0x3 DUP3 LT ISZERO PUSH2 0x1299 JUMPI POP PUSH1 0x2 PUSH2 0x366C SWAP2 EQ PUSH2 0x4FC7 JUMP JUMPDEST PUSH1 0xA DUP2 ADD SLOAD CALLER PUSH0 SWAP1 DUP2 MSTORE PUSH1 0x1 PUSH1 0x20 SWAP1 DUP2 MSTORE PUSH1 0x40 DUP1 DUP4 KECCAK256 PUSH1 0x1 PUSH1 0x1 PUSH1 0xA0 SHL SUB SWAP1 SWAP5 AND DUP1 DUP5 MSTORE SWAP4 SWAP1 SWAP2 MSTORE SWAP1 KECCAK256 SLOAD PUSH2 0x19A0 SWAP2 PUSH2 0x36AC PUSH1 0x4 DUP6 ADD SLOAD DUP1 SWAP4 LT ISZERO PUSH2 0x4A07 JUMP JUMPDEST CALLER PUSH2 0x559D JUMP JUMPDEST POP CALLVALUE PUSH2 0x27B JUMPI PUSH1 0x20 CALLDATASIZE PUSH1 0x3 NOT ADD SLT PUSH2 0x27B JUMPI PUSH1 0x4 CALLDATALOAD SWAP1 PUSH1 0x2 SLOAD PUSH1 0x40 MLOAD SWAP1 PUSH4 0x1C8F0847 PUSH1 0xE0 SHL DUP3 MSTORE DUP4 PUSH1 0x4 DUP4 ADD MSTORE PUSH1 0x24 DUP3 ADD MSTORE PUSH1 0x20 DUP2 PUSH1 0x44 DUP2 PUSH20 0x0 GAS DELEGATECALL SWAP2 DUP3 ISZERO PUSH2 0xB1E JUMPI SWAP2 PUSH2 0x3722 JUMPI JUMPDEST PUSH1 0x20 PUSH2 0x371A DUP4 DUP6 PUSH2 0x4F56 JUMP JUMPDEST PUSH1 0x40 MLOAD SWAP1 DUP2 MSTORE RETURN JUMPDEST SWAP1 POP PUSH1 0x20 DUP2 RETURNDATASIZE PUSH1 0x20 GT PUSH2 0x374D JUMPI JUMPDEST DUP2 PUSH2 0x373D PUSH1 0x20 SWAP4 DUP4 PUSH2 0x4A85 JUMP JUMPDEST DUP2 ADD SUB SLT PUSH2 0xAD2 JUMPI MLOAD PUSH1 0x20 PUSH2 0x370E JUMP JUMPDEST RETURNDATASIZE SWAP2 POP PUSH2 0x3730 JUMP JUMPDEST POP CALLVALUE PUSH2 0x27B JUMPI DUP1 PUSH1 0x3 NOT CALLDATASIZE ADD SLT PUSH2 0x27B JUMPI DUP1 SLOAD PUSH2 0x377C CALLER PUSH1 0x1 PUSH1 0x1 PUSH1 0xA0 SHL SUB DUP4 AND EQ PUSH2 0x4E8C JUMP JUMPDEST PUSH1 0xFF PUSH1 0xA0 SHL NOT AND PUSH1 0x1 PUSH1 0xA0 SHL OR DUP2 SSTORE PUSH1 0x40 MLOAD PUSH1 0x1 DUP2 MSTORE PUSH32 0x17904E4FE7D59BB4603C7C045BC275A05DA9EA3A4AC007FC80FFFEAF119186D SWAP1 PUSH1 0x20 SWAP1 LOG1 DUP1 RETURN JUMPDEST POP PUSH2 0x37C5 CALLDATASIZE PUSH2 0x4878 JUMP JUMPDEST SWAP2 SWAP3 SWAP1 SWAP6 SWAP5 SWAP4 PUSH1 0xFF DUP9 SLOAD PUSH1 0xA0 SHR AND SWAP3 PUSH2 0x37DD DUP5 PUSH2 0x49D6 JUMP JUMPDEST CALLER DUP10 MSTORE PUSH1 0x1 PUSH1 0x20 MSTORE PUSH1 0x40 DUP10 KECCAK256 PUSH1 0x1 DUP1 PUSH1 0xA0 SHL SUB DUP7 AND PUSH0 MSTORE PUSH1 0x20 MSTORE PUSH1 0x40 PUSH0 KECCAK256 SLOAD DUP3 DUP2 LT PUSH2 0x3AA0 JUMPI JUMPDEST POP PUSH2 0x200 SWAP4 POP PUSH2 0x384F SWAP1 PUSH2 0x3819 DUP4 DUP8 CALLER PUSH2 0x559D JUMP JUMPDEST POP PUSH1 0x40 MLOAD PUSH4 0x652E83D7 PUSH1 0xE0 SHL DUP2 MSTORE PUSH20 0x0 SWAP10 SWAP1 SWAP7 DUP8 SWAP6 DUP7 SWAP6 DUP11 DUP13 CALLER PUSH1 0x4 DUP11 ADD PUSH2 0x4EEE JUMP JUMPDEST SUB DUP2 DUP8 GAS DELEGATECALL SWAP1 DUP2 ISZERO PUSH2 0x12F5 JUMPI DUP6 SWAP2 PUSH2 0x3A81 JUMPI JUMPDEST POP PUSH1 0x20 PUSH1 0x5 SLOAD PUSH2 0x224 PUSH1 0x40 MLOAD DUP1 SWAP8 DUP2 SWAP4 PUSH4 0x797D4EE1 PUSH1 0xE0 SHL DUP4 MSTORE PUSH2 0x3889 PUSH1 0x4 DUP5 ADD DUP9 PUSH2 0x48F5 JUMP JUMPDEST PUSH2 0x204 DUP4 ADD MSTORE GAS DELEGATECALL SWAP4 DUP5 ISZERO PUSH2 0x12F5 JUMPI DUP6 SWAP5 PUSH2 0x3A4D JUMPI JUMPDEST POP PUSH2 0x38AB PUSH1 0x5 SLOAD PUSH2 0x4C3E JUMP JUMPDEST PUSH1 0x5 SSTORE DUP4 DUP6 MSTORE PUSH1 0x4 PUSH1 0x20 SWAP1 DUP2 MSTORE PUSH1 0x40 DUP1 DUP8 KECCAK256 DUP4 MLOAD DUP2 SLOAD PUSH1 0x1 PUSH1 0x1 PUSH1 0xA0 SHL SUB NOT SWAP1 DUP2 AND PUSH1 0x1 PUSH1 0x1 PUSH1 0xA0 SHL SUB SWAP3 DUP4 AND OR DUP4 SSTORE SWAP4 DUP6 ADD MLOAD PUSH1 0x1 DUP4 ADD DUP1 SLOAD DUP7 AND SWAP2 DUP4 AND SWAP2 SWAP1 SWAP2 OR SWAP1 SSTORE SWAP2 DUP5 ADD MLOAD PUSH1 0x2 DUP3 ADD DUP1 SLOAD SWAP1 SWAP5 AND SWAP3 AND SWAP2 SWAP1 SWAP2 OR DUP3 SSTORE PUSH1 0x60 DUP4 ADD MLOAD SWAP1 SWAP3 SWAP2 SWAP1 PUSH1 0x3 DUP2 LT ISZERO PUSH2 0x12AD JUMPI DUP2 PUSH2 0x1172 PUSH2 0x3929 SWAP3 PUSH2 0x1E0 SWAP6 SWAP5 PUSH2 0x4C60 JUMP JUMPDEST PUSH1 0xC0 DUP2 ADD MLOAD PUSH1 0x3 DUP5 ADD SSTORE PUSH1 0xE0 DUP2 ADD MLOAD PUSH1 0x4 DUP5 ADD SSTORE PUSH2 0x100 DUP2 ADD MLOAD PUSH1 0x5 DUP5 ADD SSTORE PUSH2 0x120 DUP2 ADD MLOAD PUSH1 0x6 DUP1 DUP6 ADD SWAP2 SWAP1 SWAP2 SSTORE PUSH2 0x140 DUP3 ADD MLOAD PUSH1 0x7 DUP6 ADD SSTORE PUSH2 0x160 DUP3 ADD MLOAD PUSH1 0x8 DUP6 ADD SSTORE PUSH2 0x180 DUP3 ADD MLOAD PUSH1 0x9 DUP6 ADD DUP1 SLOAD PUSH1 0x1 PUSH1 0x1 PUSH1 0xA0 SHL SUB SWAP3 DUP4 AND PUSH1 0x1 PUSH1 0x1 PUSH1 0xA0 SHL SUB NOT SWAP2 DUP3 AND OR SWAP1 SWAP2 SSTORE PUSH2 0x1A0 DUP5 ADD MLOAD PUSH1 0xA DUP8 ADD DUP1 SLOAD SWAP2 SWAP1 SWAP4 AND SWAP2 AND OR SWAP1 SSTORE PUSH2 0x1C0 DUP3 ADD MLOAD PUSH1 0xB DUP6 ADD SSTORE SWAP2 ADD MLOAD SWAP6 SWAP1 DUP7 LT ISZERO PUSH2 0x1299 JUMPI POP PUSH1 0x20 SWAP5 PUSH1 0xC PUSH2 0x39D0 SWAP3 ADD PUSH2 0x4C84 JUMP JUMPDEST PUSH1 0x40 MLOAD PUSH1 0x1 PUSH1 0x1 PUSH1 0xA0 SHL SUB SWAP2 DUP3 AND DUP1 DUP3 MSTORE SWAP3 SWAP1 SWAP2 AND SWAP1 CALLER SWAP1 DUP5 SWAP1 PUSH32 0x5E02698C1650D6CBE1F7E8A48609D0DA45AD7F5E4C13CD8B196F82965C0AB0D5 SWAP1 DUP8 SWAP1 LOG4 DUP1 PUSH2 0x3A1E JUMPI JUMPDEST POP PUSH1 0x40 MLOAD SWAP1 DUP2 MSTORE RETURN JUMPDEST PUSH32 0x957372C0E02D2882134CC0EEBBEF9E446634D8CCBB1CBB112BDEFDD3CF0A643C DUP4 PUSH1 0x40 MLOAD DUP5 DUP2 MSTORE LOG2 PUSH0 PUSH2 0x3A15 JUMP JUMPDEST SWAP1 SWAP4 POP PUSH1 0x20 DUP2 RETURNDATASIZE PUSH1 0x20 GT PUSH2 0x3A79 JUMPI JUMPDEST DUP2 PUSH2 0x3A69 PUSH1 0x20 SWAP4 DUP4 PUSH2 0x4A85 JUMP JUMPDEST DUP2 ADD SUB SLT PUSH2 0xAD2 JUMPI MLOAD SWAP3 PUSH0 PUSH2 0x389F JUMP JUMPDEST RETURNDATASIZE SWAP2 POP PUSH2 0x3A5C JUMP JUMPDEST PUSH2 0x3A9A SWAP2 POP PUSH2 0x200 RETURNDATASIZE DUP2 GT PUSH2 0x1328 JUMPI PUSH2 0x131A DUP2 DUP4 PUSH2 0x4A85 JUMP JUMPDEST PUSH0 PUSH2 0x3862 JUMP JUMPDEST PUSH2 0x3AAD PUSH2 0x3AB3 SWAP2 DUP5 PUSH2 0x4DB4 JUMP JUMPDEST SWAP5 PUSH2 0x49D6 JUMP JUMPDEST PUSH2 0x3ABE DUP5 ISZERO ISZERO PUSH2 0x4DEB JUMP JUMPDEST PUSH1 0x2 SLOAD SWAP1 PUSH1 0x40 MLOAD SWAP2 PUSH4 0x1C8F0847 PUSH1 0xE0 SHL DUP4 MSTORE DUP6 PUSH1 0x4 DUP5 ADD MSTORE PUSH1 0x24 DUP4 ADD MSTORE PUSH1 0x20 DUP3 PUSH1 0x44 DUP2 PUSH20 0x0 GAS DELEGATECALL SWAP2 DUP3 ISZERO PUSH2 0x3162 JUMPI DUP11 SWAP3 PUSH2 0x3C32 JUMPI JUMPDEST POP PUSH1 0x1 PUSH1 0x1 PUSH1 0xA0 SHL SUB DUP7 AND DUP1 PUSH2 0x3B79 JUMPI PUSH2 0x3B20 DUP4 DUP8 PUSH2 0x4F56 JUMP JUMPDEST CALLVALUE SUB PUSH2 0x141E JUMPI DUP6 PUSH2 0x384F SWAP4 PUSH2 0x3B39 PUSH2 0x200 SWAP9 DUP11 CALLER PUSH2 0x5662 JUMP JUMPDEST POP PUSH1 0x3 SLOAD PUSH2 0x3B53 SWAP1 DUP3 SWAP1 DUP12 SWAP1 PUSH1 0x1 PUSH1 0x1 PUSH1 0xA0 SHL SUB AND PUSH2 0x5662 JUMP JUMPDEST POP JUMPDEST PUSH1 0x40 MLOAD SWAP2 DUP3 MSTORE PUSH1 0x20 DUP3 ADD MSTORE PUSH0 DUP1 MLOAD PUSH1 0x20 PUSH2 0x5894 DUP4 CODECOPY DUP2 MLOAD SWAP2 MSTORE PUSH1 0x40 CALLER SWAP3 LOG3 SWAP1 PUSH2 0x3804 JUMP JUMPDEST DUP11 PUSH1 0x20 PUSH2 0x3B86 DUP6 DUP10 PUSH2 0x4F56 JUMP JUMPDEST PUSH1 0x64 PUSH1 0x40 MLOAD DUP1 SWAP5 DUP2 SWAP4 PUSH4 0x23B872DD PUSH1 0xE0 SHL DUP4 MSTORE CALLER PUSH1 0x4 DUP5 ADD MSTORE ADDRESS PUSH1 0x24 DUP5 ADD MSTORE PUSH1 0x44 DUP4 ADD MSTORE DUP7 GAS CALL SWAP1 DUP2 ISZERO PUSH2 0xFB4 JUMPI DUP13 SWAP2 PUSH2 0x3BF4 JUMPI JUMPDEST POP ISZERO PUSH2 0x14C8 JUMPI DUP6 PUSH2 0x384F SWAP4 PUSH2 0x3BD4 PUSH2 0x200 SWAP9 DUP11 CALLER PUSH2 0x5662 JUMP JUMPDEST POP PUSH1 0x3 SLOAD PUSH2 0x3BEE SWAP1 DUP3 SWAP1 DUP12 SWAP1 PUSH1 0x1 PUSH1 0x1 PUSH1 0xA0 SHL SUB AND PUSH2 0x5662 JUMP JUMPDEST POP PUSH2 0x3B55 JUMP JUMPDEST SWAP1 POP PUSH1 0x20 DUP2 RETURNDATASIZE PUSH1 0x20 GT PUSH2 0x3C2A JUMPI JUMPDEST DUP2 PUSH2 0x3C0F PUSH1 0x20 SWAP4 DUP4 PUSH2 0x4A85 JUMP JUMPDEST DUP2 ADD SUB SLT PUSH2 0x3C26 JUMPI PUSH2 0x3C20 SWAP1 PUSH2 0x4ABB JUMP JUMPDEST PUSH0 PUSH2 0x3BBB JUMP JUMPDEST DUP12 DUP1 REVERT JUMPDEST RETURNDATASIZE SWAP2 POP PUSH2 0x3C02 JUMP JUMPDEST SWAP1 SWAP2 POP PUSH1 0x20 DUP2 RETURNDATASIZE PUSH1 0x20 GT PUSH2 0x3C5E JUMPI JUMPDEST DUP2 PUSH2 0x3C4E PUSH1 0x20 SWAP4 DUP4 PUSH2 0x4A85 JUMP JUMPDEST DUP2 ADD SUB SLT PUSH2 0xAD2 JUMPI MLOAD SWAP1 PUSH0 PUSH2 0x3B06 JUMP JUMPDEST RETURNDATASIZE SWAP2 POP PUSH2 0x3C41 JUMP JUMPDEST POP CALLVALUE PUSH2 0x27B JUMPI PUSH2 0x200 PUSH2 0x384F PUSH2 0x3C7B CALLDATASIZE PUSH2 0x4878 JUMP JUMPDEST PUSH2 0x3C93 PUSH1 0xFF DUP12 SWAP11 SWAP7 SWAP5 SWAP8 SWAP9 SWAP10 SWAP4 SWAP11 SLOAD PUSH1 0xA0 SHR AND PUSH2 0x49D6 JUMP JUMPDEST CALLER DUP11 MSTORE PUSH1 0x1 PUSH1 0x20 MSTORE PUSH1 0x40 DUP11 KECCAK256 PUSH1 0x1 DUP1 PUSH1 0xA0 SHL SUB DUP8 AND PUSH0 MSTORE PUSH1 0x20 MSTORE PUSH2 0x3CBD DUP4 PUSH1 0x40 PUSH0 KECCAK256 SLOAD LT ISZERO PUSH2 0x4A07 JUMP JUMPDEST PUSH2 0x3819 DUP4 DUP8 CALLER PUSH2 0x559D JUMP JUMPDEST POP CALLVALUE PUSH2 0x27B JUMPI PUSH1 0x40 CALLDATASIZE PUSH1 0x3 NOT ADD SLT PUSH2 0x27B JUMPI PUSH32 0x14BDAADAED0453E7B5B66195B42156BA995B9E5ABD0DA98368839851D69AD889 PUSH1 0x40 PUSH1 0x4 CALLDATALOAD PUSH2 0x3D08 PUSH2 0x476A JUMP JUMPDEST PUSH2 0x3D1C PUSH1 0x1 DUP1 PUSH1 0xA0 SHL SUB DUP7 SLOAD AND CALLER EQ PUSH2 0x4E8C JUMP JUMPDEST PUSH1 0x1 PUSH1 0x1 PUSH1 0xA0 SHL SUB AND PUSH2 0x3D30 DUP2 ISZERO ISZERO PUSH2 0x4EBD JUMP JUMPDEST PUSH2 0x3D41 PUSH5 0x2540BE400 DUP4 GT ISZERO PUSH2 0x4DEB JUMP JUMPDEST DUP2 PUSH1 0x2 SSTORE DUP1 PUSH12 0xFFFFFFFFFFFFFFFFFFFFFFFF PUSH1 0xA0 SHL PUSH1 0x3 SLOAD AND OR PUSH1 0x3 SSTORE DUP3 MLOAD SWAP2 DUP3 MSTORE PUSH1 0x20 DUP3 ADD MSTORE LOG1 DUP1 RETURN JUMPDEST POP CALLVALUE PUSH2 0x27B JUMPI PUSH1 0x60 CALLDATASIZE PUSH1 0x3 NOT ADD SLT PUSH2 0x27B JUMPI PUSH1 0x4 CALLDATALOAD SWAP1 PUSH1 0x24 CALLDATALOAD SWAP1 PUSH1 0x44 CALLDATALOAD PUSH1 0x6 DUP2 LT ISZERO PUSH2 0xFE3 JUMPI DUP4 DUP3 MSTORE PUSH1 0x4 PUSH1 0x20 MSTORE PUSH1 0x40 DUP3 KECCAK256 SWAP4 PUSH1 0x1 DUP6 ADD SWAP2 PUSH1 0x1 DUP1 PUSH1 0xA0 SHL SUB DUP4 SLOAD AND CALLER EQ DUP1 ISZERO PUSH2 0x3FDB JUMPI JUMPDEST DUP1 ISZERO PUSH2 0x3FC5 JUMPI JUMPDEST PUSH2 0x3DC7 SWAP1 PUSH2 0x4C9C JUMP JUMPDEST PUSH20 0x0 DUP1 EXTCODESIZE ISZERO PUSH2 0xFD4 JUMPI DUP5 PUSH1 0x40 MLOAD DUP1 SWAP3 PUSH4 0x252A867 PUSH1 0xE5 SHL DUP3 MSTORE DUP2 DUP1 PUSH2 0x3E02 DUP13 PUSH1 0x4 DUP4 ADD PUSH2 0x4CCD JUMP JUMPDEST SUB SWAP2 GAS DELEGATECALL DUP1 ISZERO PUSH2 0x12F5 JUMPI SWAP1 DUP6 SWAP2 PUSH2 0x3FB0 JUMPI JUMPDEST POP POP DUP5 ISZERO DUP1 ISZERO PUSH2 0x3FA6 JUMPI JUMPDEST PUSH2 0x3E28 SWAP1 PUSH2 0x4E4E JUMP JUMPDEST DUP6 SLOAD DUP4 SLOAD PUSH1 0x2 DUP9 ADD DUP1 SLOAD SWAP1 SWAP7 SWAP3 PUSH1 0x1 PUSH1 0x1 PUSH1 0xA0 SHL SUB SWAP2 DUP3 AND DUP1 ISZERO SWAP4 CALLER SWAP1 DUP5 AND DUP2 EQ SWAP4 SWAP1 SWAP3 AND SWAP1 SWAP2 EQ SWAP1 DUP4 ISZERO PUSH2 0x3F9C JUMPI JUMPDEST POP PUSH1 0x40 MLOAD SWAP4 PUSH2 0x3E66 DUP6 PUSH2 0x4A38 JUMP JUMPDEST DUP7 DUP6 MSTORE PUSH1 0x20 DUP6 ADD SWAP10 DUP11 MSTORE PUSH2 0x3E7E PUSH1 0x40 DUP7 ADD SWAP7 DUP8 PUSH2 0x4E80 JUMP JUMPDEST PUSH1 0x60 DUP6 ADD SWAP2 DUP3 MSTORE PUSH1 0x80 DUP6 ADD SWAP3 DUP4 MSTORE PUSH1 0xA0 DUP6 ADD SWAP4 ISZERO ISZERO DUP5 MSTORE PUSH1 0x2 PUSH1 0xC0 DUP7 ADD SWAP6 DUP3 DUP8 MSTORE PUSH1 0x7 SLOAD SWAP12 DUP13 DUP5 MSTORE PUSH1 0x9 PUSH1 0x20 MSTORE PUSH1 0x40 DUP5 KECCAK256 SWAP2 MLOAD DUP3 SSTORE MLOAD PUSH1 0x1 DUP3 ADD SSTORE ADD SWAP6 MLOAD SWAP1 PUSH1 0x6 DUP3 LT ISZERO PUSH2 0x1299 JUMPI POP SWAP3 PUSH2 0x3F32 DUP7 SWAP4 PUSH2 0x3F19 PUSH1 0x60 SWAP8 SWAP5 PUSH2 0x3F02 PUSH1 0x20 SWAP16 SWAP9 PUSH32 0x867051316D0AAFC6BF3704F0B32FA0E735BB03D37318B95179BDC1C5017467C0 SWAP12 PUSH2 0x4C84 JUMP JUMPDEST MLOAD DUP7 SLOAD PUSH2 0xFF00 NOT AND SWAP1 ISZERO ISZERO PUSH1 0x8 SHL PUSH2 0xFF00 AND OR DUP7 SSTORE JUMP JUMPDEST MLOAD DUP5 SLOAD PUSH3 0xFF0000 NOT AND SWAP1 ISZERO ISZERO PUSH1 0x10 SHL PUSH3 0xFF0000 AND OR DUP5 SSTORE JUMP JUMPDEST MLOAD DUP3 SLOAD SWAP2 MLOAD PUSH5 0xFFFF000000 NOT SWAP1 SWAP3 AND SWAP1 ISZERO ISZERO PUSH1 0x18 SHL PUSH4 0xFF000000 AND OR SWAP1 ISZERO ISZERO DUP11 SHL PUSH5 0xFF00000000 AND OR SWAP1 SSTORE SLOAD SWAP4 SLOAD SWAP5 SLOAD PUSH1 0x40 DUP1 MLOAD PUSH1 0x1 PUSH1 0x1 PUSH1 0xA0 SHL SUB SWAP3 DUP4 AND DUP2 MSTORE CALLER DUP2 DUP12 ADD MSTORE SWAP1 DUP2 ADD DUP9 SWAP1 MSTORE SWAP6 DUP2 AND SWAP6 SWAP5 AND SWAP4 LOG4 PUSH2 0x3F91 PUSH1 0x7 SLOAD PUSH2 0x4C3E JUMP JUMPDEST PUSH1 0x7 SSTORE PUSH1 0x40 MLOAD SWAP1 DUP2 MSTORE RETURN JUMPDEST CALLER EQ SWAP3 POP PUSH0 PUSH2 0x3E58 JUMP JUMPDEST POP TIMESTAMP DUP6 GT ISZERO PUSH2 0x3E1F JUMP JUMPDEST DUP2 PUSH2 0x3FBA SWAP2 PUSH2 0x4A85 JUMP JUMPDEST PUSH2 0x31B7 JUMPI DUP4 PUSH0 PUSH2 0x3E14 JUMP JUMPDEST POP PUSH1 0x2 DUP7 ADD SLOAD PUSH1 0x1 PUSH1 0x1 PUSH1 0xA0 SHL SUB AND CALLER EQ PUSH2 0x3DBE JUMP JUMPDEST POP DUP6 SLOAD PUSH1 0x1 PUSH1 0x1 PUSH1 0xA0 SHL SUB AND CALLER EQ PUSH2 0x3DB7 JUMP JUMPDEST POP PUSH2 0x3FF8 CALLDATASIZE PUSH2 0x484A JUMP JUMPDEST DUP4 DUP6 SWAP5 SWAP4 SWAP3 SWAP5 MSTORE PUSH1 0x4 PUSH1 0x20 MSTORE PUSH1 0x40 DUP6 KECCAK256 SWAP1 PUSH2 0x401A PUSH5 0x2540BE400 DUP3 GT ISZERO PUSH2 0x4DEB JUMP JUMPDEST PUSH1 0x1 DUP3 ADD SWAP5 PUSH2 0x4033 PUSH1 0x1 DUP1 PUSH1 0xA0 SHL SUB DUP8 SLOAD AND CALLER EQ PUSH2 0x4C9C JUMP JUMPDEST DUP7 PUSH20 0x0 DUP1 EXTCODESIZE ISZERO PUSH2 0xFE3 JUMPI DUP2 PUSH1 0x40 MLOAD DUP1 SWAP3 PUSH4 0x252A867 PUSH1 0xE5 SHL DUP3 MSTORE DUP2 DUP1 PUSH2 0x406F DUP11 PUSH1 0x4 DUP4 ADD PUSH2 0x4CCD JUMP JUMPDEST SUB SWAP2 GAS DELEGATECALL DUP1 ISZERO PUSH2 0xFD8 JUMPI PUSH2 0x42EB JUMPI JUMPDEST POP POP PUSH1 0x2 DUP4 ADD SWAP7 DUP8 SLOAD PUSH2 0x4097 PUSH1 0xFF DUP3 PUSH1 0xA8 SHR AND ISZERO PUSH2 0x4E1C JUMP JUMPDEST DUP4 PUSH2 0x42D1 JUMPI JUMPDEST POP CALLER DUP2 MSTORE PUSH1 0x1 PUSH1 0x20 MSTORE PUSH1 0x40 DUP2 KECCAK256 PUSH1 0x1 DUP1 PUSH1 0xA0 SHL SUB DUP7 AND PUSH0 MSTORE PUSH1 0x20 MSTORE PUSH1 0x40 PUSH0 KECCAK256 SLOAD DUP3 DUP2 LT PUSH2 0x40E6 JUMPI JUMPDEST POP POP SWAP1 DUP2 DUP5 PUSH2 0x2DCE PUSH1 0x20 SWAP6 SWAP5 PUSH0 DUP1 MLOAD PUSH1 0x20 PUSH2 0x58B4 DUP4 CODECOPY DUP2 MLOAD SWAP2 MSTORE SWAP8 CALLER PUSH2 0x559D JUMP JUMPDEST PUSH2 0x40F4 SWAP1 DUP4 SWAP3 SWAP6 SWAP5 SWAP4 PUSH2 0x4DB4 JUMP JUMPDEST SWAP5 PUSH2 0x4105 PUSH1 0xFF DUP7 SLOAD PUSH1 0xA0 SHR AND PUSH2 0x49D6 JUMP JUMPDEST PUSH2 0x4110 DUP7 ISZERO ISZERO PUSH2 0x4DEB JUMP JUMPDEST PUSH1 0x2 SLOAD SWAP5 PUSH1 0x40 MLOAD SWAP6 PUSH4 0x1C8F0847 PUSH1 0xE0 SHL DUP8 MSTORE DUP8 PUSH1 0x4 DUP9 ADD MSTORE PUSH1 0x24 DUP8 ADD MSTORE PUSH1 0x20 DUP7 PUSH1 0x44 DUP2 PUSH20 0x0 GAS DELEGATECALL SWAP6 DUP7 ISZERO PUSH2 0x1BFC JUMPI DUP2 SWAP7 PUSH2 0x429D JUMPI JUMPDEST POP PUSH1 0x1 PUSH1 0x1 PUSH1 0xA0 SHL SUB DUP3 AND SWAP1 DUP2 PUSH2 0x41DB JUMPI POP PUSH2 0x4174 DUP7 DUP9 PUSH2 0x4F56 JUMP JUMPDEST CALLVALUE SUB PUSH2 0x141E JUMPI DUP7 PUSH1 0x20 SWAP7 PUSH2 0x4197 PUSH0 DUP1 MLOAD PUSH1 0x20 PUSH2 0x58B4 DUP4 CODECOPY DUP2 MLOAD SWAP2 MSTORE SWAP10 DUP6 CALLER PUSH2 0x5662 JUMP JUMPDEST POP PUSH1 0x3 SLOAD PUSH2 0x41B1 SWAP1 DUP3 SWAP1 DUP7 SWAP1 PUSH1 0x1 PUSH1 0x1 PUSH1 0xA0 SHL SUB AND PUSH2 0x5662 JUMP JUMPDEST POP JUMPDEST PUSH1 0x40 MLOAD SWAP2 DUP3 MSTORE DUP8 DUP3 ADD MSTORE PUSH0 DUP1 MLOAD PUSH1 0x20 PUSH2 0x5894 DUP4 CODECOPY DUP2 MLOAD SWAP2 MSTORE PUSH1 0x40 CALLER SWAP3 LOG3 SWAP5 DUP2 SWAP3 SWAP4 SWAP5 POP PUSH2 0x40C5 JUMP JUMPDEST PUSH2 0x41E5 DUP8 DUP10 PUSH2 0x4F56 JUMP JUMPDEST PUSH1 0x40 MLOAD SWAP1 PUSH4 0x23B872DD PUSH1 0xE0 SHL DUP3 MSTORE CALLER PUSH1 0x4 DUP4 ADD MSTORE ADDRESS PUSH1 0x24 DUP4 ADD MSTORE PUSH1 0x44 DUP3 ADD MSTORE PUSH1 0x20 DUP2 PUSH1 0x64 DUP2 DUP6 DUP8 GAS CALL SWAP2 DUP3 ISZERO PUSH2 0xB1E JUMPI DUP1 SWAP3 PUSH2 0x4260 JUMPI JUMPDEST POP POP ISZERO PUSH2 0x14C8 JUMPI DUP7 PUSH1 0x20 SWAP7 PUSH2 0x4240 PUSH0 DUP1 MLOAD PUSH1 0x20 PUSH2 0x58B4 DUP4 CODECOPY DUP2 MLOAD SWAP2 MSTORE SWAP10 DUP6 CALLER PUSH2 0x5662 JUMP JUMPDEST POP PUSH1 0x3 SLOAD PUSH2 0x425A SWAP1 DUP3 SWAP1 DUP7 SWAP1 PUSH1 0x1 PUSH1 0x1 PUSH1 0xA0 SHL SUB AND PUSH2 0x5662 JUMP JUMPDEST POP PUSH2 0x41B3 JUMP JUMPDEST SWAP1 SWAP2 POP PUSH1 0x20 DUP3 RETURNDATASIZE PUSH1 0x20 GT PUSH2 0x4295 JUMPI JUMPDEST DUP2 PUSH2 0x427C PUSH1 0x20 SWAP4 DUP4 PUSH2 0x4A85 JUMP JUMPDEST DUP2 ADD SUB SLT PUSH2 0x27B JUMPI POP PUSH2 0x428E SWAP1 PUSH2 0x4ABB JUMP JUMPDEST PUSH0 DUP1 PUSH2 0x421C JUMP JUMPDEST RETURNDATASIZE SWAP2 POP PUSH2 0x426F JUMP JUMPDEST SWAP1 SWAP6 POP PUSH1 0x20 DUP2 RETURNDATASIZE PUSH1 0x20 GT PUSH2 0x42C9 JUMPI JUMPDEST DUP2 PUSH2 0x42B9 PUSH1 0x20 SWAP4 DUP4 PUSH2 0x4A85 JUMP JUMPDEST DUP2 ADD SUB SLT PUSH2 0xAD2 JUMPI MLOAD SWAP5 PUSH0 PUSH2 0x4158 JUMP JUMPDEST RETURNDATASIZE SWAP2 POP PUSH2 0x42AC JUMP JUMPDEST PUSH2 0x42E5 SWAP1 PUSH1 0x1 PUSH1 0x1 PUSH1 0xA0 SHL SUB AND ISZERO ISZERO PUSH2 0x4E4E JUMP JUMPDEST PUSH0 PUSH2 0x409D JUMP JUMPDEST DUP2 PUSH2 0x42F5 SWAP2 PUSH2 0x4A85 JUMP JUMPDEST PUSH2 0x2E6B JUMPI DUP7 PUSH0 PUSH2 0x407E JUMP JUMPDEST POP CALLVALUE PUSH2 0x27B JUMPI DUP1 PUSH1 0x3 NOT CALLDATASIZE ADD SLT PUSH2 0x27B JUMPI PUSH1 0x3 SLOAD PUSH1 0x40 MLOAD PUSH1 0x1 PUSH1 0x1 PUSH1 0xA0 SHL SUB SWAP1 SWAP2 AND DUP2 MSTORE PUSH1 0x20 SWAP1 RETURN JUMPDEST POP CALLVALUE PUSH2 0x27B JUMPI DUP1 PUSH1 0x3 NOT CALLDATASIZE ADD SLT PUSH2 0x27B JUMPI PUSH1 0x20 PUSH1 0x8 SLOAD PUSH1 0x40 MLOAD SWAP1 DUP2 MSTORE RETURN JUMPDEST POP CALLVALUE PUSH2 0xAD2 JUMPI PUSH2 0x4356 CALLDATASIZE PUSH2 0x4827 JUMP JUMPDEST SWAP3 SWAP2 SWAP1 DUP2 PUSH0 MSTORE PUSH1 0x4 PUSH1 0x20 MSTORE PUSH1 0x40 PUSH0 KECCAK256 SWAP1 PUSH1 0x1 DUP3 ADD SWAP4 PUSH1 0x1 DUP1 PUSH1 0xA0 SHL SUB DUP6 SLOAD AND CALLER EQ DUP1 ISZERO PUSH2 0x44CE JUMPI JUMPDEST PUSH2 0x4387 SWAP1 PUSH2 0x4C9C JUMP JUMPDEST PUSH20 0x0 DUP1 EXTCODESIZE ISZERO PUSH2 0xAD2 JUMPI PUSH0 PUSH1 0x40 MLOAD DUP1 SWAP3 PUSH4 0x252A867 PUSH1 0xE5 SHL DUP3 MSTORE DUP2 DUP1 PUSH2 0x43C2 DUP10 PUSH1 0x4 DUP4 ADD PUSH2 0x4CCD JUMP JUMPDEST SUB SWAP2 GAS DELEGATECALL DUP1 ISZERO PUSH2 0x44C3 JUMPI PUSH2 0x44B0 JUMPI JUMPDEST POP PUSH1 0x6 DUP4 ADD PUSH2 0x43E7 DUP4 DUP3 SLOAD PUSH2 0x1604 DUP3 DUP3 LT PUSH2 0x4A07 JUMP JUMPDEST SWAP1 SSTORE PUSH1 0x1 DUP1 PUSH1 0xA0 SHL SUB PUSH1 0xA DUP5 ADD SLOAD AND PUSH1 0x8 DUP5 ADD SLOAD PUSH1 0x40 MLOAD SWAP1 PUSH4 0x1C8F0847 PUSH1 0xE0 SHL DUP3 MSTORE DUP5 PUSH1 0x4 DUP4 ADD MSTORE PUSH1 0x24 DUP3 ADD MSTORE PUSH1 0x20 DUP2 PUSH1 0x44 DUP2 PUSH20 0x0 GAS DELEGATECALL SWAP3 DUP4 ISZERO PUSH2 0xB1E JUMPI SWAP3 PUSH2 0x446F JUMPI JUMPDEST POP PUSH0 DUP1 MLOAD PUSH1 0x20 PUSH2 0x57F4 DUP4 CODECOPY DUP2 MLOAD SWAP2 MSTORE SWAP4 PUSH2 0x16B3 DUP4 DUP4 PUSH2 0x169D DUP12 PUSH2 0x61E SWAP7 PUSH1 0x1 DUP1 PUSH1 0xA0 SHL SUB DUP8 SLOAD AND PUSH2 0x1697 DUP7 DUP13 PUSH2 0x4DB4 JUMP JUMPDEST SWAP1 SWAP2 POP PUSH1 0x20 DUP2 RETURNDATASIZE PUSH1 0x20 GT PUSH2 0x44A8 JUMPI JUMPDEST DUP2 PUSH2 0x448B PUSH1 0x20 SWAP4 DUP4 PUSH2 0x4A85 JUMP JUMPDEST DUP2 ADD SUB SLT PUSH2 0xAD2 JUMPI MLOAD SWAP1 PUSH0 DUP1 MLOAD PUSH1 0x20 PUSH2 0x57F4 DUP4 CODECOPY DUP2 MLOAD SWAP2 MSTORE PUSH2 0x443E JUMP JUMPDEST RETURNDATASIZE SWAP2 POP PUSH2 0x447E JUMP JUMPDEST PUSH2 0x44BC SWAP2 POP PUSH0 SWAP1 PUSH2 0x4A85 JUMP JUMPDEST PUSH0 DUP1 PUSH2 0x43D1 JUMP JUMPDEST PUSH1 0x40 MLOAD RETURNDATASIZE PUSH0 DUP3 RETURNDATACOPY RETURNDATASIZE SWAP1 REVERT JUMPDEST POP PUSH1 0x2 DUP4 ADD SLOAD PUSH1 0x1 PUSH1 0x1 PUSH1 0xA0 SHL SUB AND CALLER EQ PUSH2 0x437E JUMP JUMPDEST CALLVALUE PUSH2 0xAD2 JUMPI PUSH2 0x200 PUSH2 0x4580 PUSH2 0x44F8 CALLDATASIZE PUSH2 0x4796 JUMP JUMPDEST SWAP3 PUSH2 0x4516 PUSH1 0xFF PUSH0 SWAP14 SWAP10 SWAP8 SWAP14 SWAP13 SWAP7 SWAP13 SWAP12 SWAP11 SWAP12 SWAP5 SWAP4 SWAP5 SLOAD PUSH1 0xA0 SHR AND PUSH2 0x49D6 JUMP JUMPDEST CALLER PUSH0 MSTORE PUSH1 0x1 PUSH1 0x20 MSTORE PUSH1 0x40 PUSH0 KECCAK256 PUSH1 0x1 DUP1 PUSH1 0xA0 SHL SUB DUP3 AND PUSH0 MSTORE PUSH1 0x20 MSTORE PUSH2 0x4540 DUP7 PUSH1 0x40 PUSH0 KECCAK256 SLOAD LT ISZERO PUSH2 0x4A07 JUMP JUMPDEST PUSH2 0x454B DUP7 DUP3 CALLER PUSH2 0x559D JUMP JUMPDEST POP PUSH20 0x0 SWAP11 PUSH1 0x40 MLOAD SWAP13 DUP14 SWAP9 DUP10 SWAP9 PUSH4 0x652E83D7 PUSH1 0xE0 SHL DUP11 MSTORE DUP14 DUP14 CALLER PUSH1 0x4 DUP14 ADD PUSH2 0x4BD2 JUMP JUMPDEST SUB DUP2 DUP7 GAS DELEGATECALL SWAP4 DUP5 ISZERO PUSH2 0x44C3 JUMPI PUSH0 SWAP5 PUSH2 0x4749 JUMPI JUMPDEST POP PUSH1 0x20 PUSH1 0x5 SLOAD PUSH2 0x224 PUSH1 0x40 MLOAD DUP1 SWAP7 DUP2 SWAP4 PUSH4 0x797D4EE1 PUSH1 0xE0 SHL DUP4 MSTORE PUSH2 0x45BA PUSH1 0x4 DUP5 ADD DUP12 PUSH2 0x48F5 JUMP JUMPDEST PUSH2 0x204 DUP4 ADD MSTORE GAS DELEGATECALL SWAP3 DUP4 ISZERO PUSH2 0x44C3 JUMPI PUSH0 SWAP4 PUSH2 0x4715 JUMPI JUMPDEST POP PUSH2 0x45DC PUSH1 0x5 SLOAD PUSH2 0x4C3E JUMP JUMPDEST PUSH1 0x5 SSTORE PUSH0 DUP4 DUP2 MSTORE PUSH1 0x4 PUSH1 0x20 SWAP1 DUP2 MSTORE PUSH1 0x40 SWAP2 DUP3 SWAP1 KECCAK256 DUP7 MLOAD DUP2 SLOAD PUSH1 0x1 PUSH1 0x1 PUSH1 0xA0 SHL SUB NOT SWAP1 DUP2 AND PUSH1 0x1 PUSH1 0x1 PUSH1 0xA0 SHL SUB SWAP3 DUP4 AND OR DUP4 SSTORE SWAP3 DUP9 ADD MLOAD PUSH1 0x1 DUP4 ADD DUP1 SLOAD DUP6 AND SWAP2 DUP4 AND SWAP2 SWAP1 SWAP2 OR SWAP1 SSTORE SWAP3 DUP8 ADD MLOAD PUSH1 0x2 DUP3 ADD DUP1 SLOAD SWAP1 SWAP4 AND SWAP4 AND SWAP3 SWAP1 SWAP3 OR DUP2 SSTORE PUSH1 0x60 DUP7 ADD MLOAD SWAP2 SWAP6 SWAP1 SWAP2 PUSH1 0x3 DUP2 LT ISZERO PUSH2 0x4701 JUMPI DUP3 PUSH2 0x1172 PUSH2 0x465B SWAP3 PUSH2 0x1E0 SWAP6 PUSH2 0x4C60 JUMP JUMPDEST PUSH1 0xC0 DUP2 ADD MLOAD PUSH1 0x3 DUP8 ADD SSTORE PUSH1 0xE0 DUP2 ADD MLOAD PUSH1 0x4 DUP8 ADD SSTORE PUSH2 0x100 DUP2 ADD MLOAD PUSH1 0x5 DUP8 ADD SSTORE PUSH2 0x120 DUP2 ADD MLOAD PUSH1 0x6 DUP1 DUP9 ADD SWAP2 SWAP1 SWAP2 SSTORE PUSH2 0x140 DUP3 ADD MLOAD PUSH1 0x7 DUP9 ADD SSTORE PUSH2 0x160 DUP3 ADD MLOAD PUSH1 0x8 DUP9 ADD SSTORE PUSH2 0x180 DUP3 ADD MLOAD PUSH1 0x9 DUP9 ADD DUP1 SLOAD PUSH1 0x1 PUSH1 0x1 PUSH1 0xA0 SHL SUB SWAP3 DUP4 AND PUSH1 0x1 PUSH1 0x1 PUSH1 0xA0 SHL SUB NOT SWAP2 DUP3 AND OR SWAP1 SWAP2 SSTORE PUSH2 0x1A0 DUP5 ADD MLOAD PUSH1 0xA DUP11 ADD DUP1 SLOAD SWAP2 SWAP1 SWAP4 AND SWAP2 AND OR SWAP1 SSTORE PUSH2 0x1C0 DUP3 ADD MLOAD PUSH1 0xB DUP9 ADD SSTORE SWAP2 ADD MLOAD SWAP5 SWAP1 DUP6 LT ISZERO PUSH2 0x4701 JUMPI PUSH1 0x20 SWAP5 PUSH1 0xC PUSH2 0x1255 SWAP3 ADD PUSH2 0x4C84 JUMP JUMPDEST PUSH4 0x4E487B71 PUSH1 0xE0 SHL PUSH0 MSTORE PUSH1 0x21 PUSH1 0x4 MSTORE PUSH1 0x24 PUSH0 REVERT JUMPDEST SWAP1 SWAP3 POP PUSH1 0x20 DUP2 RETURNDATASIZE PUSH1 0x20 GT PUSH2 0x4741 JUMPI JUMPDEST DUP2 PUSH2 0x4731 PUSH1 0x20 SWAP4 DUP4 PUSH2 0x4A85 JUMP JUMPDEST DUP2 ADD SUB SLT PUSH2 0xAD2 JUMPI MLOAD SWAP2 DUP5 PUSH2 0x45D0 JUMP JUMPDEST RETURNDATASIZE SWAP2 POP PUSH2 0x4724 JUMP JUMPDEST PUSH2 0x4763 SWAP2 SWAP5 POP PUSH2 0x200 RETURNDATASIZE DUP2 GT PUSH2 0x1328 JUMPI PUSH2 0x131A DUP2 DUP4 PUSH2 0x4A85 JUMP JUMPDEST SWAP3 DUP5 PUSH2 0x4593 JUMP JUMPDEST PUSH1 0x24 CALLDATALOAD SWAP1 PUSH1 0x1 PUSH1 0x1 PUSH1 0xA0 SHL SUB DUP3 AND DUP3 SUB PUSH2 0xAD2 JUMPI JUMP JUMPDEST PUSH1 0x4 CALLDATALOAD SWAP1 PUSH1 0x1 PUSH1 0x1 PUSH1 0xA0 SHL SUB DUP3 AND DUP3 SUB PUSH2 0xAD2 JUMPI JUMP JUMPDEST PUSH2 0x140 SWAP1 PUSH1 0x3 NOT ADD SLT PUSH2 0xAD2 JUMPI PUSH1 0x4 CALLDATALOAD PUSH1 0x1 PUSH1 0x1 PUSH1 0xA0 SHL SUB DUP2 AND DUP2 SUB PUSH2 0xAD2 JUMPI SWAP1 PUSH1 0x24 CALLDATALOAD PUSH1 0x1 PUSH1 0x1 PUSH1 0xA0 SHL SUB DUP2 AND DUP2 SUB PUSH2 0xAD2 JUMPI SWAP1 PUSH1 0x44 CALLDATALOAD SWAP1 PUSH1 0x64 CALLDATALOAD SWAP1 PUSH1 0x84 CALLDATALOAD SWAP1 PUSH1 0xA4 CALLDATALOAD SWAP1 PUSH1 0xC4 CALLDATALOAD PUSH1 0x1 PUSH1 0x1 PUSH1 0xA0 SHL SUB DUP2 AND DUP2 SUB PUSH2 0xAD2 JUMPI SWAP1 PUSH1 0xE4 CALLDATALOAD PUSH1 0x1 PUSH1 0x1 PUSH1 0xA0 SHL SUB DUP2 AND DUP2 SUB PUSH2 0xAD2 JUMPI SWAP1 PUSH2 0x104 CALLDATALOAD SWAP1 PUSH2 0x124 CALLDATALOAD PUSH1 0x6 DUP2 LT ISZERO PUSH2 0xAD2 JUMPI SWAP1 JUMP JUMPDEST PUSH1 0x24 CALLDATALOAD SWAP1 DUP2 ISZERO ISZERO DUP3 SUB PUSH2 0xAD2 JUMPI JUMP JUMPDEST PUSH1 0x60 SWAP1 PUSH1 0x3 NOT ADD SLT PUSH2 0xAD2 JUMPI PUSH1 0x4 CALLDATALOAD SWAP1 PUSH1 0x24 CALLDATALOAD SWAP1 PUSH1 0x44 CALLDATALOAD DUP1 ISZERO ISZERO DUP2 SUB PUSH2 0xAD2 JUMPI SWAP1 JUMP JUMPDEST PUSH1 0x80 SWAP1 PUSH1 0x3 NOT ADD SLT PUSH2 0xAD2 JUMPI PUSH1 0x4 CALLDATALOAD SWAP1 PUSH1 0x24 CALLDATALOAD PUSH1 0x1 PUSH1 0x1 PUSH1 0xA0 SHL SUB DUP2 AND DUP2 SUB PUSH2 0xAD2 JUMPI SWAP1 PUSH1 0x44 CALLDATALOAD SWAP1 PUSH1 0x64 CALLDATALOAD SWAP1 JUMP JUMPDEST PUSH1 0xE0 SWAP1 PUSH1 0x3 NOT ADD SLT PUSH2 0xAD2 JUMPI PUSH1 0x4 CALLDATALOAD PUSH1 0x1 PUSH1 0x1 PUSH1 0xA0 SHL SUB DUP2 AND DUP2 SUB PUSH2 0xAD2 JUMPI SWAP1 PUSH1 0x24 CALLDATALOAD PUSH1 0x1 PUSH1 0x1 PUSH1 0xA0 SHL SUB DUP2 AND DUP2 SUB PUSH2 0xAD2 JUMPI SWAP1 PUSH1 0x44 CALLDATALOAD SWAP1 PUSH1 0x64 CALLDATALOAD SWAP1 PUSH1 0x84 CALLDATALOAD PUSH1 0x1 PUSH1 0x1 PUSH1 0xA0 SHL SUB DUP2 AND DUP2 SUB PUSH2 0xAD2 JUMPI SWAP1 PUSH1 0xA4 CALLDATALOAD SWAP1 PUSH1 0xC4 CALLDATALOAD PUSH1 0x6 DUP2 LT ISZERO PUSH2 0xAD2 JUMPI SWAP1 JUMP JUMPDEST SWAP1 PUSH1 0x3 DUP3 LT ISZERO PUSH2 0x4701 JUMPI MSTORE JUMP JUMPDEST SWAP1 PUSH1 0x6 DUP3 LT ISZERO PUSH2 0x4701 JUMPI MSTORE JUMP JUMPDEST DUP1 MLOAD PUSH1 0x1 PUSH1 0x1 PUSH1 0xA0 SHL SUB SWAP1 DUP2 AND DUP4 MSTORE PUSH1 0x20 DUP1 DUP4 ADD MLOAD DUP3 AND SWAP1 DUP5 ADD MSTORE PUSH1 0x40 DUP1 DUP4 ADD MLOAD SWAP1 SWAP2 AND SWAP1 DUP4 ADD MSTORE PUSH1 0x60 DUP1 DUP3 ADD MLOAD PUSH2 0x49D4 SWAP4 SWAP3 PUSH2 0x1E0 SWAP3 DUP4 SWAP3 PUSH2 0x493A SWAP2 DUP7 ADD SWAP1 PUSH2 0x48DB JUMP JUMPDEST PUSH1 0x80 DUP2 ADD MLOAD ISZERO ISZERO PUSH1 0x80 DUP6 ADD MSTORE PUSH1 0xA0 DUP2 ADD MLOAD ISZERO ISZERO PUSH1 0xA0 DUP6 ADD MSTORE PUSH1 0xC0 DUP2 ADD MLOAD PUSH1 0xC0 DUP6 ADD MSTORE PUSH1 0xE0 DUP2 ADD MLOAD PUSH1 0xE0 DUP6 ADD MSTORE PUSH2 0x100 DUP2 ADD MLOAD PUSH2 0x100 DUP6 ADD MSTORE PUSH2 0x120 DUP2 ADD MLOAD PUSH2 0x120 DUP6 ADD MSTORE PUSH2 0x140 DUP2 ADD MLOAD PUSH2 0x140 DUP6 ADD MSTORE PUSH2 0x160 DUP2 ADD MLOAD PUSH2 0x160 DUP6 ADD MSTORE PUSH1 0x1 DUP1 PUSH1 0xA0 SHL SUB PUSH2 0x180 DUP3 ADD MLOAD AND PUSH2 0x180 DUP6 ADD MSTORE PUSH1 0x1 DUP1 PUSH1 0xA0 SHL SUB PUSH2 0x1A0 DUP3 ADD MLOAD AND PUSH2 0x1A0 DUP6 ADD MSTORE PUSH2 0x1C0 DUP2 ADD MLOAD PUSH2 0x1C0 DUP6 ADD MSTORE ADD MLOAD SWAP2 ADD SWAP1 PUSH2 0x48E8 JUMP JUMPDEST JUMP JUMPDEST ISZERO PUSH2 0x49DD JUMPI JUMP JUMPDEST PUSH1 0x40 MLOAD PUSH3 0x461BCD PUSH1 0xE5 SHL DUP2 MSTORE PUSH1 0x20 PUSH1 0x4 DUP3 ADD MSTORE PUSH1 0x2 PUSH1 0x24 DUP3 ADD MSTORE PUSH2 0x4C31 PUSH1 0xF0 SHL PUSH1 0x44 DUP3 ADD MSTORE PUSH1 0x64 SWAP1 REVERT JUMPDEST ISZERO PUSH2 0x4A0E JUMPI JUMP JUMPDEST PUSH1 0x40 MLOAD PUSH3 0x461BCD PUSH1 0xE5 SHL DUP2 MSTORE PUSH1 0x20 PUSH1 0x4 DUP3 ADD MSTORE PUSH1 0x2 PUSH1 0x24 DUP3 ADD MSTORE PUSH2 0x5431 PUSH1 0xF0 SHL PUSH1 0x44 DUP3 ADD MSTORE PUSH1 0x64 SWAP1 REVERT JUMPDEST PUSH1 0xE0 DUP2 ADD SWAP1 DUP2 LT PUSH8 0xFFFFFFFFFFFFFFFF DUP3 GT OR PUSH2 0x4A54 JUMPI PUSH1 0x40 MSTORE JUMP JUMPDEST PUSH4 0x4E487B71 PUSH1 0xE0 SHL PUSH0 MSTORE PUSH1 0x41 PUSH1 0x4 MSTORE PUSH1 0x24 PUSH0 REVERT JUMPDEST PUSH2 0x200 DUP2 ADD SWAP1 DUP2 LT PUSH8 0xFFFFFFFFFFFFFFFF DUP3 GT OR PUSH2 0x4A54 JUMPI PUSH1 0x40 MSTORE JUMP JUMPDEST SWAP1 PUSH1 0x1F DUP1 NOT SWAP2 ADD AND DUP2 ADD SWAP1 DUP2 LT PUSH8 0xFFFFFFFFFFFFFFFF DUP3 GT OR PUSH2 0x4A54 JUMPI PUSH1 0x40 MSTORE JUMP JUMPDEST MLOAD SWAP1 PUSH1 0x1 PUSH1 0x1 PUSH1 0xA0 SHL SUB DUP3 AND DUP3 SUB PUSH2 0xAD2 JUMPI JUMP JUMPDEST MLOAD SWAP1 DUP2 ISZERO ISZERO DUP3 SUB PUSH2 0xAD2 JUMPI JUMP JUMPDEST SWAP1 DUP2 PUSH2 0x200 SWAP2 SUB SLT PUSH2 0xAD2 JUMPI PUSH1 0x40 MLOAD SWAP1 PUSH2 0x4AE1 DUP3 PUSH2 0x4A68 JUMP JUMPDEST PUSH2 0x4AEA DUP2 PUSH2 0x4AA7 JUMP JUMPDEST DUP3 MSTORE PUSH2 0x4AF8 PUSH1 0x20 DUP3 ADD PUSH2 0x4AA7 JUMP JUMPDEST PUSH1 0x20 DUP4 ADD MSTORE PUSH2 0x4B09 PUSH1 0x40 DUP3 ADD PUSH2 0x4AA7 JUMP JUMPDEST PUSH1 0x40 DUP4 ADD MSTORE PUSH1 0x60 DUP2 ADD MLOAD SWAP1 PUSH1 0x3 DUP3 LT ISZERO PUSH2 0xAD2 JUMPI PUSH2 0x1E0 SWAP2 PUSH1 0x60 DUP5 ADD MSTORE PUSH2 0x4B32 PUSH1 0x80 DUP3 ADD PUSH2 0x4ABB JUMP JUMPDEST PUSH1 0x80 DUP5 ADD MSTORE PUSH2 0x4B43 PUSH1 0xA0 DUP3 ADD PUSH2 0x4ABB JUMP JUMPDEST PUSH1 0xA0 DUP5 ADD MSTORE PUSH1 0xC0 DUP2 ADD MLOAD PUSH1 0xC0 DUP5 ADD MSTORE PUSH1 0xE0 DUP2 ADD MLOAD PUSH1 0xE0 DUP5 ADD MSTORE PUSH2 0x100 DUP2 ADD MLOAD PUSH2 0x100 DUP5 ADD MSTORE PUSH2 0x120 DUP2 ADD MLOAD PUSH2 0x120 DUP5 ADD MSTORE PUSH2 0x140 DUP2 ADD MLOAD PUSH2 0x140 DUP5 ADD MSTORE PUSH2 0x160 DUP2 ADD MLOAD PUSH2 0x160 DUP5 ADD MSTORE PUSH2 0x4B99 PUSH2 0x180 DUP3 ADD PUSH2 0x4AA7 JUMP JUMPDEST PUSH2 0x180 DUP5 ADD MSTORE PUSH2 0x4BAC PUSH2 0x1A0 DUP3 ADD PUSH2 0x4AA7 JUMP JUMPDEST PUSH2 0x1A0 DUP5 ADD MSTORE PUSH2 0x1C0 DUP2 ADD MLOAD PUSH2 0x1C0 DUP5 ADD MSTORE ADD MLOAD PUSH1 0x6 DUP2 LT ISZERO PUSH2 0xAD2 JUMPI PUSH2 0x1E0 DUP3 ADD MSTORE SWAP1 JUMP JUMPDEST PUSH1 0x1 PUSH1 0x1 PUSH1 0xA0 SHL SUB SWAP2 DUP3 AND DUP2 MSTORE SWAP2 DUP2 AND PUSH1 0x20 DUP4 ADD MSTORE SWAP2 DUP3 AND PUSH1 0x40 DUP3 ADD MSTORE PUSH1 0x60 DUP2 ADD SWAP3 SWAP1 SWAP3 MSTORE PUSH1 0x80 DUP3 ADD SWAP3 SWAP1 SWAP3 MSTORE PUSH1 0xA0 DUP2 ADD SWAP3 SWAP1 SWAP3 MSTORE PUSH1 0xC0 DUP3 ADD SWAP3 SWAP1 SWAP3 MSTORE SWAP2 DUP2 AND PUSH1 0xE0 DUP4 ADD MSTORE SWAP1 SWAP2 AND PUSH2 0x100 DUP3 ADD MSTORE PUSH2 0x120 DUP2 ADD SWAP2 SWAP1 SWAP2 MSTORE PUSH2 0x160 DUP2 ADD SWAP3 SWAP2 PUSH2 0x49D4 SWAP2 PUSH2 0x140 ADD SWAP1 PUSH2 0x48E8 JUMP JUMPDEST PUSH0 NOT DUP2 EQ PUSH2 0x4C4C JUMPI PUSH1 0x1 ADD SWAP1 JUMP JUMPDEST PUSH4 0x4E487B71 PUSH1 0xE0 SHL PUSH0 MSTORE PUSH1 0x11 PUSH1 0x4 MSTORE PUSH1 0x24 PUSH0 REVERT JUMPDEST SWAP1 PUSH1 0x3 DUP2 LT ISZERO PUSH2 0x4701 JUMPI DUP2 SLOAD PUSH1 0xFF PUSH1 0xA0 SHL NOT AND PUSH1 0xA0 SWAP2 SWAP1 SWAP2 SHL PUSH1 0xFF PUSH1 0xA0 SHL AND OR SWAP1 SSTORE JUMP JUMPDEST SWAP1 PUSH1 0x6 DUP2 LT ISZERO PUSH2 0x4701 JUMPI PUSH1 0xFF DUP1 NOT DUP4 SLOAD AND SWAP2 AND OR SWAP1 SSTORE JUMP JUMPDEST ISZERO PUSH2 0x4CA3 JUMPI JUMP JUMPDEST PUSH1 0x40 MLOAD PUSH3 0x461BCD PUSH1 0xE5 SHL DUP2 MSTORE PUSH1 0x20 PUSH1 0x4 DUP3 ADD MSTORE PUSH1 0x2 PUSH1 0x24 DUP3 ADD MSTORE PUSH2 0x4435 PUSH1 0xF0 SHL PUSH1 0x44 DUP3 ADD MSTORE PUSH1 0x64 SWAP1 REVERT JUMPDEST DUP2 SLOAD PUSH1 0x1 PUSH1 0x1 PUSH1 0xA0 SHL SUB SWAP1 DUP2 AND DUP3 MSTORE PUSH1 0x1 DUP4 ADD SLOAD DUP2 AND PUSH1 0x20 DUP4 ADD MSTORE PUSH1 0x2 DUP4 ADD SLOAD SWAP1 DUP2 AND PUSH1 0x40 DUP4 ADD MSTORE PUSH2 0x200 DUP3 ADD SWAP4 SWAP3 PUSH2 0x49D4 SWAP3 SWAP2 PUSH2 0x1E0 SWAP2 PUSH1 0xFF SWAP2 PUSH1 0xC SWAP2 SWAP1 DUP4 SWAP1 PUSH2 0x4D21 PUSH1 0x60 DUP9 ADD PUSH1 0xA0 DUP4 SWAP1 SHR DUP5 AND PUSH2 0x48DB JUMP JUMPDEST PUSH1 0xA8 DUP2 SWAP1 SHR DUP3 AND ISZERO ISZERO PUSH1 0x80 DUP9 ADD MSTORE PUSH1 0xB0 SHR AND ISZERO ISZERO PUSH1 0xA0 DUP7 ADD MSTORE PUSH1 0x3 DUP2 ADD SLOAD PUSH1 0xC0 DUP7 ADD MSTORE PUSH1 0x4 DUP2 ADD SLOAD PUSH1 0xE0 DUP7 ADD MSTORE PUSH1 0x5 DUP2 ADD SLOAD PUSH2 0x100 DUP7 ADD MSTORE PUSH1 0x6 DUP2 ADD SLOAD PUSH2 0x120 DUP7 ADD MSTORE PUSH1 0x7 DUP2 ADD SLOAD PUSH2 0x140 DUP7 ADD MSTORE PUSH1 0x8 DUP2 ADD SLOAD PUSH2 0x160 DUP7 ADD MSTORE PUSH1 0x9 DUP2 ADD SLOAD PUSH1 0x1 PUSH1 0x1 PUSH1 0xA0 SHL SUB SWAP1 DUP2 AND PUSH2 0x180 DUP8 ADD MSTORE PUSH1 0xA DUP3 ADD SLOAD AND PUSH2 0x1A0 DUP7 ADD MSTORE PUSH1 0xB DUP2 ADD SLOAD PUSH2 0x1C0 DUP7 ADD MSTORE ADD SLOAD SWAP2 SWAP1 SWAP3 ADD SWAP2 AND PUSH2 0x48E8 JUMP JUMPDEST SWAP2 SWAP1 DUP3 SUB SWAP2 DUP3 GT PUSH2 0x4C4C JUMPI JUMP JUMPDEST PUSH1 0x1 PUSH1 0x1 PUSH1 0xA0 SHL SUB SWAP2 DUP3 AND DUP2 MSTORE SWAP2 AND PUSH1 0x20 DUP3 ADD MSTORE PUSH1 0x40 DUP2 ADD SWAP2 SWAP1 SWAP2 MSTORE PUSH1 0x60 DUP2 ADD SWAP2 SWAP1 SWAP2 MSTORE PUSH1 0x80 ADD SWAP1 JUMP JUMPDEST ISZERO PUSH2 0x4DF2 JUMPI JUMP JUMPDEST PUSH1 0x40 MLOAD PUSH3 0x461BCD PUSH1 0xE5 SHL DUP2 MSTORE PUSH1 0x20 PUSH1 0x4 DUP3 ADD MSTORE PUSH1 0x2 PUSH1 0x24 DUP3 ADD MSTORE PUSH2 0x4335 PUSH1 0xF0 SHL PUSH1 0x44 DUP3 ADD MSTORE PUSH1 0x64 SWAP1 REVERT JUMPDEST ISZERO PUSH2 0x4E23 JUMPI JUMP JUMPDEST PUSH1 0x64 PUSH1 0x40 MLOAD PUSH3 0x461BCD PUSH1 0xE5 SHL DUP2 MSTORE PUSH1 0x20 PUSH1 0x4 DUP3 ADD MSTORE PUSH1 0x4 PUSH1 0x24 DUP3 ADD MSTORE PUSH4 0x22191719 PUSH1 0xE1 SHL PUSH1 0x44 DUP3 ADD MSTORE REVERT JUMPDEST ISZERO PUSH2 0x4E55 JUMPI JUMP JUMPDEST PUSH1 0x64 PUSH1 0x40 MLOAD PUSH3 0x461BCD PUSH1 0xE5 SHL DUP2 MSTORE PUSH1 0x20 PUSH1 0x4 DUP3 ADD MSTORE PUSH1 0x4 PUSH1 0x24 DUP3 ADD MSTORE PUSH4 0x44312E31 PUSH1 0xE0 SHL PUSH1 0x44 DUP3 ADD MSTORE REVERT JUMPDEST PUSH1 0x6 DUP3 LT ISZERO PUSH2 0x4701 JUMPI MSTORE JUMP JUMPDEST ISZERO PUSH2 0x4E93 JUMPI JUMP JUMPDEST PUSH1 0x40 MLOAD PUSH3 0x461BCD PUSH1 0xE5 SHL DUP2 MSTORE PUSH1 0x20 PUSH1 0x4 DUP3 ADD MSTORE PUSH1 0x2 PUSH1 0x24 DUP3 ADD MSTORE PUSH2 0x2619 PUSH1 0xF1 SHL PUSH1 0x44 DUP3 ADD MSTORE PUSH1 0x64 SWAP1 REVERT JUMPDEST ISZERO PUSH2 0x4EC4 JUMPI JUMP JUMPDEST PUSH1 0x40 MLOAD PUSH3 0x461BCD PUSH1 0xE5 SHL DUP2 MSTORE PUSH1 0x20 PUSH1 0x4 DUP3 ADD MSTORE PUSH1 0x2 PUSH1 0x24 DUP3 ADD MSTORE PUSH2 0x4331 PUSH1 0xF0 SHL PUSH1 0x44 DUP3 ADD MSTORE PUSH1 0x64 SWAP1 REVERT JUMPDEST PUSH1 0x1 PUSH1 0x1 PUSH1 0xA0 SHL SUB SWAP2 DUP3 AND DUP2 MSTORE SWAP2 DUP2 AND PUSH1 0x20 DUP4 ADD MSTORE SWAP2 DUP3 AND PUSH1 0x40 DUP3 ADD MSTORE PUSH1 0x60 DUP2 ADD SWAP3 SWAP1 SWAP3 MSTORE PUSH0 PUSH1 0x80 DUP4 ADD DUP2 SWAP1 MSTORE PUSH1 0xA0 DUP4 ADD SWAP4 SWAP1 SWAP4 MSTORE PUSH1 0xC0 DUP3 ADD DUP4 SWAP1 MSTORE SWAP1 SWAP3 AND PUSH1 0xE0 DUP4 ADD MSTORE PUSH2 0x100 DUP3 ADD MSTORE PUSH2 0x120 DUP2 ADD SWAP2 SWAP1 SWAP2 MSTORE PUSH2 0x160 DUP2 ADD SWAP3 SWAP2 PUSH2 0x49D4 SWAP2 PUSH2 0x140 ADD SWAP1 PUSH2 0x48E8 JUMP JUMPDEST SWAP2 SWAP1 DUP3 ADD DUP1 SWAP3 GT PUSH2 0x4C4C JUMPI JUMP JUMPDEST ISZERO PUSH2 0x4F6A JUMPI JUMP JUMPDEST PUSH1 0x64 PUSH1 0x40 MLOAD PUSH3 0x461BCD PUSH1 0xE5 SHL DUP2 MSTORE PUSH1 0x20 PUSH1 0x4 DUP3 ADD MSTORE PUSH1 0x4 PUSH1 0x24 DUP3 ADD MSTORE PUSH4 0x44332E31 PUSH1 0xE0 SHL PUSH1 0x44 DUP3 ADD MSTORE REVERT JUMPDEST ISZERO PUSH2 0x4F9C JUMPI JUMP JUMPDEST PUSH1 0x64 PUSH1 0x40 MLOAD PUSH3 0x461BCD PUSH1 0xE5 SHL DUP2 MSTORE PUSH1 0x20 PUSH1 0x4 DUP3 ADD MSTORE PUSH1 0x4 PUSH1 0x24 DUP3 ADD MSTORE PUSH4 0x44322E31 PUSH1 0xE0 SHL PUSH1 0x44 DUP3 ADD MSTORE REVERT JUMPDEST ISZERO PUSH2 0x4FCE JUMPI JUMP JUMPDEST PUSH1 0x40 MLOAD PUSH3 0x461BCD PUSH1 0xE5 SHL DUP2 MSTORE PUSH1 0x20 PUSH1 0x4 DUP3 ADD MSTORE PUSH1 0x2 PUSH1 0x24 DUP3 ADD MSTORE PUSH2 0x4433 PUSH1 0xF0 SHL PUSH1 0x44 DUP3 ADD MSTORE PUSH1 0x64 SWAP1 REVERT JUMPDEST ISZERO PUSH2 0x4FFF JUMPI JUMP JUMPDEST PUSH1 0x64 PUSH1 0x40 MLOAD PUSH3 0x461BCD PUSH1 0xE5 SHL DUP2 MSTORE PUSH1 0x20 PUSH1 0x4 DUP3 ADD MSTORE PUSH1 0x4 PUSH1 0x24 DUP3 ADD MSTORE PUSH4 0x43332E31 PUSH1 0xE0 SHL PUSH1 0x44 DUP3 ADD MSTORE REVERT JUMPDEST SWAP1 DUP2 PUSH0 MSTORE PUSH1 0xA PUSH1 0x20 MSTORE PUSH1 0x40 PUSH0 KECCAK256 DUP1 SLOAD PUSH0 MSTORE PUSH1 0x4 PUSH1 0x20 MSTORE PUSH1 0x40 PUSH0 KECCAK256 PUSH1 0x1 DUP1 PUSH1 0xA0 SHL SUB DUP2 SLOAD AND CALLER EQ DUP1 ISZERO PUSH2 0x5222 JUMPI JUMPDEST PUSH2 0x5060 SWAP1 PUSH2 0x4C9C JUMP JUMPDEST PUSH1 0x4 DUP3 ADD SWAP3 DUP4 SLOAD SWAP1 PUSH2 0x5078 PUSH1 0xFF DUP4 PUSH1 0x10 SHR AND ISZERO PUSH2 0x4FF8 JUMP JUMPDEST PUSH2 0x51C2 JUMPI POP PUSH1 0x2 DUP2 ADD DUP1 SLOAD SWAP1 SWAP2 SWAP1 PUSH2 0x5099 SWAP1 PUSH1 0x1 PUSH1 0x1 PUSH1 0xA0 SHL SUB AND ISZERO PUSH2 0x4FF8 JUMP JUMPDEST DUP1 SLOAD PUSH1 0x1 PUSH1 0x1 PUSH1 0xA0 SHL SUB AND CALLER EQ PUSH2 0x51B2 JUMPI JUMPDEST PUSH1 0x1 DUP2 ADD SLOAD PUSH1 0x1 PUSH1 0x1 PUSH1 0xA0 SHL SUB AND CALLER EQ PUSH2 0x51A0 JUMPI JUMPDEST DUP4 SLOAD PUSH1 0xFF DUP2 AND SWAP1 DUP2 PUSH2 0x5192 JUMPI JUMPDEST POP PUSH2 0x5123 JUMPI POP POP POP PUSH1 0x80 PUSH32 0xDA0FDC90D2CAC3C2211C13CF60368ACEB049A3073B8BE0B90792021888C55FC5 SWAP2 SLOAD PUSH1 0xFF PUSH1 0x40 MLOAD SWAP2 CALLER DUP4 MSTORE DUP2 DUP2 AND ISZERO ISZERO PUSH1 0x20 DUP5 ADD MSTORE PUSH1 0x8 SHR AND ISZERO ISZERO PUSH1 0x40 DUP3 ADD MSTORE PUSH0 PUSH1 0x60 DUP3 ADD MSTORE LOG2 PUSH0 SWAP1 JUMP JUMPDEST PUSH1 0x2 DUP4 ADD SLOAD PUSH1 0x7 DUP3 ADD SSTORE PUSH1 0x3 DUP4 ADD SLOAD PUSH1 0x8 SWAP1 SWAP2 ADD SSTORE PUSH1 0x1 DUP3 ADD DUP1 SLOAD DUP3 SLOAD PUSH1 0x1 PUSH1 0x1 PUSH1 0xA0 SHL SUB NOT AND PUSH1 0x1 PUSH1 0x1 PUSH1 0xA0 SHL SUB SWAP2 DUP3 AND OR SWAP1 SWAP3 SSTORE SLOAD SWAP2 SLOAD PUSH1 0x40 MLOAD SWAP1 DUP2 MSTORE SWAP2 AND SWAP3 POP PUSH32 0x957372C0E02D2882134CC0EEBBEF9E446634D8CCBB1CBB112BDEFDD3CF0A643C SWAP2 POP PUSH1 0x20 SWAP1 LOG2 PUSH1 0x1 SWAP1 JUMP JUMPDEST PUSH1 0xFF SWAP2 POP PUSH1 0x8 SHR AND PUSH0 PUSH2 0x50CD JUMP JUMPDEST DUP4 SLOAD PUSH2 0xFF00 NOT AND PUSH2 0x100 OR DUP5 SSTORE PUSH2 0x50C0 JUMP JUMPDEST DUP4 SLOAD PUSH1 0xFF NOT AND PUSH1 0x1 OR DUP5 SSTORE PUSH2 0x50AB JUMP JUMPDEST SWAP1 POP PUSH1 0x80 SWAP2 POP PUSH1 0xFF PUSH32 0xDA0FDC90D2CAC3C2211C13CF60368ACEB049A3073B8BE0B90792021888C55FC5 SWAP4 PUSH3 0x10000 PUSH3 0xFF0000 NOT DUP5 AND OR DUP1 SWAP2 SSTORE DUP2 PUSH1 0x40 MLOAD SWAP4 CALLER DUP6 MSTORE AND ISZERO ISZERO PUSH1 0x20 DUP5 ADD MSTORE PUSH1 0x8 SHR AND ISZERO ISZERO PUSH1 0x40 DUP3 ADD MSTORE PUSH1 0x1 PUSH1 0x60 DUP3 ADD MSTORE LOG2 PUSH0 SWAP1 JUMP JUMPDEST POP PUSH1 0x1 DUP2 ADD SLOAD PUSH1 0x1 PUSH1 0x1 PUSH1 0xA0 SHL SUB AND CALLER EQ PUSH2 0x5057 JUMP JUMPDEST PUSH0 SWAP2 DUP2 PUSH0 MSTORE PUSH1 0x9 PUSH1 0x20 MSTORE PUSH1 0x40 PUSH0 KECCAK256 DUP1 SLOAD PUSH0 MSTORE PUSH1 0x4 PUSH1 0x20 MSTORE PUSH1 0x40 PUSH0 KECCAK256 SWAP1 PUSH1 0x1 DUP3 ADD SWAP1 PUSH1 0x1 DUP1 PUSH1 0xA0 SHL SUB DUP3 SLOAD AND CALLER EQ DUP1 ISZERO PUSH2 0x5554 JUMPI JUMPDEST DUP1 ISZERO PUSH2 0x553E JUMPI JUMPDEST PUSH2 0x527C SWAP1 PUSH2 0x4C9C JUMP JUMPDEST PUSH1 0x2 DUP2 ADD SWAP4 DUP5 SLOAD SWAP1 PUSH2 0x5294 PUSH1 0xFF DUP4 PUSH1 0x20 SHR AND ISZERO PUSH2 0x4FF8 JUMP JUMPDEST PUSH2 0x54C5 JUMPI POP PUSH20 0x0 DUP1 EXTCODESIZE ISZERO PUSH2 0xAD2 JUMPI PUSH0 PUSH1 0x40 MLOAD DUP1 SWAP3 PUSH4 0x252A867 PUSH1 0xE5 SHL DUP3 MSTORE DUP2 DUP1 PUSH2 0x52D4 DUP10 PUSH1 0x4 DUP4 ADD PUSH2 0x4CCD JUMP JUMPDEST SUB SWAP2 GAS DELEGATECALL DUP1 ISZERO PUSH2 0x44C3 JUMPI PUSH2 0x54B0 JUMPI JUMPDEST POP PUSH1 0x1 DUP2 ADD DUP1 SLOAD SWAP2 DUP3 ISZERO DUP1 ISZERO PUSH2 0x54A6 JUMPI JUMPDEST PUSH2 0x52FD SWAP1 PUSH2 0x4E4E JUMP JUMPDEST DUP5 SLOAD PUSH1 0x1 PUSH1 0x1 PUSH1 0xA0 SHL SUB AND CALLER EQ PUSH2 0x5494 JUMPI JUMPDEST DUP4 SLOAD PUSH1 0x1 PUSH1 0x1 PUSH1 0xA0 SHL SUB AND CALLER EQ PUSH2 0x5480 JUMPI JUMPDEST PUSH1 0x2 DUP6 ADD DUP1 SLOAD SWAP1 SWAP4 SWAP1 PUSH1 0x1 PUSH1 0x1 PUSH1 0xA0 SHL SUB AND CALLER EQ PUSH2 0x546A JUMPI JUMPDEST DUP7 SLOAD PUSH1 0xFF DUP2 PUSH1 0x8 SHR AND SWAP1 DUP2 PUSH2 0x545B JUMPI JUMPDEST DUP2 PUSH2 0x544D JUMPI JUMPDEST POP PUSH2 0x53B8 JUMPI POP POP POP POP POP POP PUSH1 0xA0 PUSH32 0xCA0792B3957820BC249DD7664026CA960EFE1500204314BF8161056D3847D526 SWAP2 SLOAD PUSH1 0xFF PUSH1 0x40 MLOAD SWAP2 CALLER DUP4 MSTORE DUP2 DUP2 PUSH1 0x8 SHR AND ISZERO ISZERO PUSH1 0x20 DUP5 ADD MSTORE DUP2 DUP2 PUSH1 0x10 SHR AND ISZERO ISZERO PUSH1 0x40 DUP5 ADD MSTORE PUSH1 0x18 SHR AND ISZERO ISZERO PUSH1 0x60 DUP3 ADD MSTORE DUP5 PUSH1 0x80 DUP3 ADD MSTORE LOG2 SWAP1 JUMP JUMPDEST DUP6 SWAP9 POP SWAP2 PUSH1 0xFF PUSH32 0x932BD05AAEE1F6600767846BAB40EAABEF608993E19645684D0A9FCB3335D372 SWAP8 SWAP3 PUSH2 0x5447 SWAP6 SWAP5 PUSH1 0xB PUSH1 0xC0 SWAP10 ADD SSTORE PUSH2 0x53FD DUP3 DUP6 SLOAD AND PUSH1 0xC DUP14 ADD PUSH2 0x4C84 JUMP JUMPDEST SLOAD SWAP10 SLOAD SWAP6 SLOAD SWAP4 SLOAD SWAP2 SLOAD SWAP3 SLOAD PUSH1 0x40 DUP1 MLOAD PUSH1 0x1 PUSH1 0x1 PUSH1 0xA0 SHL SUB SWAP9 DUP10 AND DUP2 MSTORE SWAP6 DUP9 AND PUSH1 0x20 DUP8 ADD MSTORE SWAP3 SWAP1 SWAP7 AND SWAP2 DUP5 ADD SWAP2 SWAP1 SWAP2 MSTORE CALLER PUSH1 0x60 DUP5 ADD MSTORE PUSH1 0x80 DUP4 ADD SWAP2 SWAP1 SWAP2 MSTORE SWAP1 SWAP3 PUSH1 0xA0 DUP5 ADD SWAP2 AND PUSH2 0x48E8 JUMP JUMPDEST LOG3 PUSH1 0x1 SWAP1 JUMP JUMPDEST PUSH1 0xFF SWAP2 POP PUSH1 0x18 SHR AND PUSH0 PUSH2 0x5350 JUMP JUMPDEST SWAP1 POP PUSH1 0xFF DUP2 PUSH1 0x10 SHR AND SWAP1 PUSH2 0x534A JUMP JUMPDEST DUP7 SLOAD PUSH4 0xFF000000 NOT AND PUSH4 0x1000000 OR DUP8 SSTORE PUSH2 0x533A JUMP JUMPDEST DUP6 SLOAD PUSH3 0xFF0000 NOT AND PUSH3 0x10000 OR DUP7 SSTORE PUSH2 0x5321 JUMP JUMPDEST DUP6 SLOAD PUSH2 0xFF00 NOT AND PUSH2 0x100 OR DUP7 SSTORE PUSH2 0x530F JUMP JUMPDEST POP TIMESTAMP DUP4 GT ISZERO PUSH2 0x52F4 JUMP JUMPDEST PUSH2 0x54BD SWAP2 SWAP7 POP PUSH0 SWAP1 PUSH2 0x4A85 JUMP JUMPDEST PUSH0 SWAP5 PUSH0 PUSH2 0x52E3 JUMP JUMPDEST SWAP1 POP PUSH32 0xCA0792B3957820BC249DD7664026CA960EFE1500204314BF8161056D3847D526 SWAP5 SWAP6 POP PUSH1 0xA0 SWAP4 SWAP3 POP PUSH5 0x100000000 SWAP2 POP PUSH5 0xFF00000000 NOT AND OR DUP1 SWAP2 SSTORE PUSH1 0xFF PUSH1 0x40 MLOAD SWAP2 CALLER DUP4 MSTORE DUP2 DUP2 PUSH1 0x8 SHR AND ISZERO ISZERO PUSH1 0x20 DUP5 ADD MSTORE DUP2 DUP2 PUSH1 0x10 SHR AND ISZERO ISZERO PUSH1 0x40 DUP5 ADD MSTORE PUSH1 0x18 SHR AND ISZERO ISZERO PUSH1 0x60 DUP3 ADD MSTORE PUSH1 0x1 PUSH1 0x80 DUP3 ADD MSTORE LOG2 PUSH0 SWAP1 JUMP JUMPDEST POP PUSH1 0x2 DUP4 ADD SLOAD PUSH1 0x1 PUSH1 0x1 PUSH1 0xA0 SHL SUB AND CALLER EQ PUSH2 0x5273 JUMP JUMPDEST POP DUP3 SLOAD PUSH1 0x1 PUSH1 0x1 PUSH1 0xA0 SHL SUB AND CALLER EQ PUSH2 0x526C JUMP JUMPDEST PUSH1 0x40 MLOAD SWAP1 PUSH2 0x5574 DUP3 PUSH2 0x4A38 JUMP JUMPDEST PUSH0 PUSH1 0xC0 DUP4 DUP3 DUP2 MSTORE DUP3 PUSH1 0x20 DUP3 ADD MSTORE DUP3 PUSH1 0x40 DUP3 ADD MSTORE DUP3 PUSH1 0x60 DUP3 ADD MSTORE DUP3 PUSH1 0x80 DUP3 ADD MSTORE DUP3 PUSH1 0xA0 DUP3 ADD MSTORE ADD MSTORE JUMP JUMPDEST DUP3 ISZERO PUSH2 0x563C JUMPI PUSH1 0x1 DUP1 PUSH1 0xA0 SHL SUB AND SWAP1 DUP2 PUSH0 MSTORE PUSH1 0x1 PUSH1 0x20 MSTORE PUSH1 0x40 PUSH0 KECCAK256 PUSH1 0x1 DUP1 PUSH1 0xA0 SHL SUB DUP3 AND PUSH0 MSTORE PUSH1 0x20 MSTORE DUP3 PUSH1 0x40 PUSH0 KECCAK256 SLOAD LT PUSH2 0x5635 JUMPI PUSH32 0xD1398BEE19313D6BF672CCB116E51F4A1A947E91C757907F51FBB5B5E56C698F PUSH1 0x20 PUSH0 SWAP3 DUP5 DUP5 MSTORE PUSH1 0x1 DUP3 MSTORE PUSH1 0x40 DUP5 KECCAK256 PUSH1 0x1 DUP1 PUSH1 0xA0 SHL SUB DUP3 AND DUP6 MSTORE DUP3 MSTORE PUSH1 0x40 DUP5 KECCAK256 PUSH2 0x561D DUP8 DUP3 SLOAD PUSH2 0x4DB4 JUMP JUMPDEST SWAP1 SSTORE PUSH1 0x40 MLOAD SWAP6 DUP7 MSTORE PUSH1 0x1 PUSH1 0x1 PUSH1 0xA0 SHL SUB AND SWAP5 LOG4 PUSH1 0x1 SWAP1 JUMP JUMPDEST POP POP POP PUSH0 SWAP1 JUMP JUMPDEST POP POP POP PUSH1 0x1 SWAP1 JUMP JUMPDEST SWAP1 SWAP3 SWAP2 SWAP1 ISZERO PUSH2 0x5659 JUMPI PUSH2 0x5656 SWAP3 PUSH2 0x5662 JUMP JUMPDEST SWAP1 JUMP JUMPDEST PUSH2 0x5656 SWAP3 PUSH2 0x56BD JUMP JUMPDEST DUP3 ISZERO PUSH2 0x563C JUMPI PUSH32 0xD1398BEE19313D6BF672CCB116E51F4A1A947E91C757907F51FBB5B5E56C698F PUSH1 0x20 PUSH0 SWAP3 PUSH1 0x1 DUP1 PUSH1 0xA0 SHL SUB AND SWAP4 DUP5 DUP5 MSTORE PUSH1 0x1 DUP3 MSTORE PUSH1 0x40 DUP5 KECCAK256 PUSH1 0x1 DUP1 PUSH1 0xA0 SHL SUB DUP3 AND DUP6 MSTORE DUP3 MSTORE PUSH1 0x40 DUP5 KECCAK256 PUSH2 0x561D DUP8 DUP3 SLOAD PUSH2 0x4F56 JUMP JUMPDEST SWAP2 SWAP1 DUP2 ISZERO PUSH2 0x563C JUMPI PUSH1 0x1 PUSH1 0x1 PUSH1 0xA0 SHL SUB AND SWAP2 DUP3 PUSH2 0x5725 JUMPI PUSH0 DUP1 DUP1 DUP1 DUP6 PUSH1 0x1 PUSH1 0x1 PUSH1 0xA0 SHL SUB DUP7 AND DUP3 CALL ISZERO PUSH2 0x44C3 JUMPI PUSH1 0x20 PUSH32 0x2717EAD6B9200DD235AAD468C9809EA400FE33AC69B5BFAA6D3E90FC922B6398 SWAP2 JUMPDEST PUSH1 0x40 MLOAD SWAP4 DUP5 MSTORE PUSH1 0x1 PUSH1 0x1 PUSH1 0xA0 SHL SUB AND SWAP3 LOG3 PUSH1 0x1 SWAP1 JUMP JUMPDEST PUSH1 0x40 MLOAD PUSH4 0xA9059CBB PUSH1 0xE0 SHL DUP2 MSTORE PUSH1 0x1 PUSH1 0x1 PUSH1 0xA0 SHL SUB DUP3 AND PUSH1 0x4 DUP3 ADD MSTORE PUSH1 0x24 DUP2 ADD DUP4 SWAP1 MSTORE PUSH1 0x20 DUP2 PUSH1 0x44 DUP2 PUSH0 DUP9 GAS CALL SWAP1 DUP2 ISZERO PUSH2 0x44C3 JUMPI PUSH0 SWAP2 PUSH2 0x57B9 JUMPI JUMPDEST POP ISZERO PUSH2 0x578F JUMPI PUSH1 0x20 PUSH32 0x2717EAD6B9200DD235AAD468C9809EA400FE33AC69B5BFAA6D3E90FC922B6398 SWAP2 PUSH2 0x570F JUMP JUMPDEST PUSH1 0x40 MLOAD PUSH3 0x461BCD PUSH1 0xE5 SHL DUP2 MSTORE PUSH1 0x20 PUSH1 0x4 DUP3 ADD MSTORE PUSH1 0x2 PUSH1 0x24 DUP3 ADD MSTORE PUSH2 0x5433 PUSH1 0xF0 SHL PUSH1 0x44 DUP3 ADD MSTORE PUSH1 0x64 SWAP1 REVERT JUMPDEST SWAP1 POP PUSH1 0x20 DUP2 RETURNDATASIZE PUSH1 0x20 GT PUSH2 0x57EB JUMPI JUMPDEST DUP2 PUSH2 0x57D4 PUSH1 0x20 SWAP4 DUP4 PUSH2 0x4A85 JUMP JUMPDEST DUP2 ADD SUB SLT PUSH2 0xAD2 JUMPI PUSH2 0x57E5 SWAP1 PUSH2 0x4ABB JUMP JUMPDEST PUSH0 PUSH2 0x5760 JUMP JUMPDEST RETURNDATASIZE SWAP2 POP PUSH2 0x57C7 JUMP INVALID DUP11 RETURN SWAP9 EQ DUP3 PUSH14 0x4542F7FE66E6FA6AC2AC59BFC822 SGT SWAP5 CREATE2 BYTE COINBASE 0xDB 0xA5 0xC5 0x4D 0xBA EXP 0xC9 0xAF 0xBE CALLER PUSH24 0x83658B293F1566E1790BFAB9858B8CF08DE944CA3CD013D4 0x21 XOR DUP8 0xB8 ADDMOD PUSH13 0x61B89EF5FCDB14C243B643069C EXTCODECOPY PUSH11 0x84765B27F2A696B875DDDF SUB BYTE 0xFB 0x4D SWAP14 PC XOR 0xEC CALLDATASIZE 0xD6 0xE8 MCOPY DUP11 ADDRESS CALLVALUE PUSH16 0x5FE41B65CC50CEA2B868AE94F293D113 0xC9 0x2A SGT CODESIZE 0xA6 0xAF NOT 0x23 DUP1 0xB5 0xBA BALANCE BYTE 0xC0 SUB CREATE2 PUSH31 0xFA2BE0717F0E466318C7E9CF546C4937A03D94DCBC1C05240F31FF3AD067EF 0x1E 0xE3 TLOAD 0xE4 SWAP10 PUSH24 0x62752E3A095284754544F4C709D79F039F6754F2D286001D PUSH12 0xB50C1B3CC185B309E82F6307 PUSH31 0x29516A6A87E8E99DA26469706673582212209216FCB85EF668680A58CDE254 0xE8 PUSH12 0x69D95E4CF1F4F7D8EBBD7F20 GAS 0x4C GT BYTE 0x2C PUSH5 0x736F6C6343 STOP ADDMOD BYTE STOP CALLER "
		},
		"gasEstimates": {
			"creation": {
				"codeDepositCost": "4558600",
				"executionCost": "infinite",
				"totalCost": "infinite"
			},
			"external": {
				"PRC_DepositCommission()": "3266",
				"addDepositByCounterparty(bytes32,uint256,bool)": "infinite",
				"addDepositByInitiator(bytes32,uint256,bool)": "infinite",
				"balanceOf(address)": "2911",
				"balanceOf(address,address)": "3589",
				"balances(address,address)": "3374",
				"cancelDeal(bytes32,bool)": "infinite",
				"commissionRecipient()": "2344",
				"completeDeal(bytes32,bool)": "infinite",
				"contractEnabled()": "2536",
				"counterpartyAcceptSidedDeal(bytes32)": "72531",
				"createDeal(address,address,uint256,uint256,address,uint256,uint8)": "infinite",
				"createDealEditExpiration(bytes32,uint256,uint8)": "infinite",
				"createEditDealMediatorRequest(bytes32,address,uint256,uint256)": "infinite",
				"createSidedDeal(address,address,uint256,uint256,uint256,uint256,address,address,uint256,uint8)": "infinite",
				"deals(bytes32)": "28675",
				"deposit(address,uint256)": "infinite",
				"disableContract()": "25984",
				"editDealExpirationRequests(uint256)": "7571",
				"editDealMediatorRequests(uint256)": "11260",
				"enableContract()": "25666",
				"executeActionsAfterExpiration(bytes32,bool)": "infinite",
				"getAmountToDepositViaComission(uint256)": "infinite",
				"getDeal(bytes32)": "infinite",
				"getEditDealExpiratation(uint256)": "infinite",
				"getEditDealMediator(uint256)": "infinite",
				"givebackToConunterparty(bytes32,uint256,bool)": "infinite",
				"givebackToInitiator(bytes32,uint256,bool)": "infinite",
				"madeDealTwoSided(bytes32,address,uint256,uint256)": "infinite",
				"owner()": "2825",
				"payUpCounterpartyAcceptSidedDeal(bytes32)": "77224",
				"payUpCreateDeal(address,address,uint256,uint256,address,uint256,uint8)": "infinite",
				"payUpCreateSidedDeal(address,address,uint256,uint256,uint256,uint256,address,address,uint256,uint8)": "infinite",
				"payUpMadeDealTwoSided(bytes32,address,uint256,uint256)": "infinite",
				"rejectSidedDeal(bytes32)": "infinite",
				"setDepositCommission(uint256,address)": "50260",
				"signDealEditExpiration(uint256,bool)": "infinite",
				"signEditDealMediatorRequest(uint256,bool)": "infinite",
				"totalCompletedDeals()": "3156",
				"totalDeals()": "2848",
				"totalEditDealMediatorRequests()": "2298",
				"totalEditExpirationRequests()": "2892",
				"transfer(address,address,uint256)": "54397",
				"transferOwnership(address)": "27028",
				"transferToCounterparty(bytes32,uint256,bool)": "infinite",
				"transferToInitiator(bytes32,uint256,bool)": "infinite",
				"withdraw(address,uint256)": "infinite",
				"withdrawRejectSidedDeal(bytes32)": "infinite"
			}
		},
		"methodIdentifiers": {
			"PRC_DepositCommission()": "f5f6a8e4",
			"addDepositByCounterparty(bytes32,uint256,bool)": "67c5545d",
			"addDepositByInitiator(bytes32,uint256,bool)": "ad94b28b",
			"balanceOf(address)": "70a08231",
			"balanceOf(address,address)": "f7888aec",
			"balances(address,address)": "c23f001f",
			"cancelDeal(bytes32,bool)": "d750158b",
			"commissionRecipient()": "06fd154a",
			"completeDeal(bytes32,bool)": "6242c6cd",
			"contractEnabled()": "41b3a0d9",
			"counterpartyAcceptSidedDeal(bytes32)": "4187129c",
			"createDeal(address,address,uint256,uint256,address,uint256,uint8)": "17b52b50",
			"createDealEditExpiration(bytes32,uint256,uint8)": "1273c165",
			"createEditDealMediatorRequest(bytes32,address,uint256,uint256)": "a471ee4f",
			"createSidedDeal(address,address,uint256,uint256,uint256,uint256,address,address,uint256,uint8)": "007e8bd3",
			"deals(bytes32)": "81cd872a",
			"deposit(address,uint256)": "47e7ef24",
			"disableContract()": "894ba833",
			"editDealExpirationRequests(uint256)": "c15a25bf",
			"editDealMediatorRequests(uint256)": "53a78000",
			"enableContract()": "367edd32",
			"executeActionsAfterExpiration(bytes32,bool)": "ee026054",
			"getAmountToDepositViaComission(uint256)": "39b3edb0",
			"getDeal(bytes32)": "51a6fad5",
			"getEditDealExpiratation(uint256)": "eb457329",
			"getEditDealMediator(uint256)": "ba343f6d",
			"givebackToConunterparty(bytes32,uint256,bool)": "c2c257b9",
			"givebackToInitiator(bytes32,uint256,bool)": "a0849a33",
			"madeDealTwoSided(bytes32,address,uint256,uint256)": "63adb66f",
			"owner()": "8da5cb5b",
			"payUpCounterpartyAcceptSidedDeal(bytes32)": "bb06c1a4",
			"payUpCreateDeal(address,address,uint256,uint256,address,uint256,uint8)": "28d5a050",
			"payUpCreateSidedDeal(address,address,uint256,uint256,uint256,uint256,address,address,uint256,uint8)": "cfadf6c7",
			"payUpMadeDealTwoSided(bytes32,address,uint256,uint256)": "0934da22",
			"rejectSidedDeal(bytes32)": "8deea5fb",
			"setDepositCommission(uint256,address)": "15f8a314",
			"signDealEditExpiration(uint256,bool)": "71ae8bcd",
			"signEditDealMediatorRequest(uint256,bool)": "619c457e",
			"totalCompletedDeals()": "e08560a4",
			"totalDeals()": "966d1f1d",
			"totalEditDealMediatorRequests()": "02927459",
			"totalEditExpirationRequests()": "9974f376",
			"transfer(address,address,uint256)": "beabacc8",
			"transferOwnership(address)": "f2fde38b",
			"transferToCounterparty(bytes32,uint256,bool)": "9905a1ea",
			"transferToInitiator(bytes32,uint256,bool)": "01cafae3",
			"withdraw(address,uint256)": "f3fef3a3",
			"withdrawRejectSidedDeal(bytes32)": "80ccb070"
		}
	},
	"abi": [
		{
			"inputs": [
				{
					"internalType": "uint256",
					"name": "_depositCommissionPercent",
					"type": "uint256"
				},
				{
					"internalType": "address",
					"name": "_commissionRecipient",
					"type": "address"
				}
			],
			"stateMutability": "nonpayable",
			"type": "constructor"
		},
		{
			"anonymous": false,
			"inputs": [
				{
					"indexed": true,
					"internalType": "bytes32",
					"name": "id",
					"type": "bytes32"
				},
				{
					"indexed": true,
					"internalType": "address",
					"name": "initiator",
					"type": "address"
				},
				{
					"indexed": true,
					"internalType": "address",
					"name": "counterparty",
					"type": "address"
				},
				{
					"indexed": false,
					"internalType": "address",
					"name": "mediator",
					"type": "address"
				},
				{
					"indexed": false,
					"internalType": "uint256",
					"name": "amount",
					"type": "uint256"
				}
			],
			"name": "AddDepositByCounterparty",
			"type": "event"
		},
		{
			"anonymous": false,
			"inputs": [
				{
					"indexed": true,
					"internalType": "bytes32",
					"name": "id",
					"type": "bytes32"
				},
				{
					"indexed": true,
					"internalType": "address",
					"name": "initiator",
					"type": "address"
				},
				{
					"indexed": true,
					"internalType": "address",
					"name": "counterparty",
					"type": "address"
				},
				{
					"indexed": false,
					"internalType": "address",
					"name": "mediator",
					"type": "address"
				},
				{
					"indexed": false,
					"internalType": "uint256",
					"name": "amount",
					"type": "uint256"
				}
			],
			"name": "AddDepositByInitiator",
			"type": "event"
		},
		{
			"anonymous": false,
			"inputs": [
				{
					"indexed": false,
					"internalType": "uint256",
					"name": "newCommissionPercent",
					"type": "uint256"
				},
				{
					"indexed": false,
					"internalType": "address",
					"name": "newCommissionRecipient",
					"type": "address"
				}
			],
			"name": "CommissionChanged",
			"type": "event"
		},
		{
			"anonymous": false,
			"inputs": [
				{
					"indexed": false,
					"internalType": "bool",
					"name": "status",
					"type": "bool"
				}
			],
			"name": "ContractStatusChanged",
			"type": "event"
		},
		{
			"anonymous": false,
			"inputs": [
				{
					"indexed": true,
					"internalType": "bytes32",
					"name": "id",
					"type": "bytes32"
				},
				{
					"indexed": true,
					"internalType": "address",
					"name": "initiator",
					"type": "address"
				},
				{
					"indexed": true,
					"internalType": "address",
					"name": "counterparty",
					"type": "address"
				},
				{
					"indexed": false,
					"internalType": "address",
					"name": "mediator",
					"type": "address"
				}
			],
			"name": "DealBecomeTwoSided",
			"type": "event"
		},
		{
			"anonymous": false,
			"inputs": [
				{
					"indexed": true,
					"internalType": "bytes32",
					"name": "id",
					"type": "bytes32"
				},
				{
					"indexed": true,
					"internalType": "address",
					"name": "initiator",
					"type": "address"
				},
				{
					"indexed": true,
					"internalType": "address",
					"name": "counterparty",
					"type": "address"
				},
				{
					"indexed": false,
					"internalType": "address",
					"name": "mediator",
					"type": "address"
				},
				{
					"indexed": false,
					"internalType": "address",
					"name": "sender",
					"type": "address"
				}
			],
			"name": "DealCanceled",
			"type": "event"
		},
		{
			"anonymous": false,
			"inputs": [
				{
					"indexed": true,
					"internalType": "bytes32",
					"name": "id",
					"type": "bytes32"
				},
				{
					"indexed": true,
					"internalType": "address",
					"name": "initiator",
					"type": "address"
				},
				{
					"indexed": true,
					"internalType": "address",
					"name": "counterparty",
					"type": "address"
				},
				{
					"indexed": false,
					"internalType": "address",
					"name": "mediator",
					"type": "address"
				},
				{
					"indexed": false,
					"internalType": "address",
					"name": "sender",
					"type": "address"
				}
			],
			"name": "DealCompited",
			"type": "event"
		},
		{
			"anonymous": false,
			"inputs": [
				{
					"indexed": true,
					"internalType": "bytes32",
					"name": "id",
					"type": "bytes32"
				},
				{
					"indexed": true,
					"internalType": "address",
					"name": "initiator",
					"type": "address"
				},
				{
					"indexed": true,
					"internalType": "address",
					"name": "counterparty",
					"type": "address"
				},
				{
					"indexed": false,
					"internalType": "address",
					"name": "mediator",
					"type": "address"
				}
			],
			"name": "DealCreated",
			"type": "event"
		},
		{
			"anonymous": false,
			"inputs": [
				{
					"indexed": true,
					"internalType": "bytes32",
					"name": "id",
					"type": "bytes32"
				},
				{
					"indexed": true,
					"internalType": "address",
					"name": "initiator",
					"type": "address"
				},
				{
					"indexed": true,
					"internalType": "address",
					"name": "counterparty",
					"type": "address"
				},
				{
					"indexed": false,
					"internalType": "address",
					"name": "mediator",
					"type": "address"
				}
			],
			"name": "DealRequestCreated",
			"type": "event"
		},
		{
			"anonymous": false,
			"inputs": [
				{
					"indexed": true,
					"internalType": "address",
					"name": "user",
					"type": "address"
				},
				{
					"indexed": true,
					"internalType": "address",
					"name": "token",
					"type": "address"
				},
				{
					"indexed": false,
					"internalType": "uint256",
					"name": "amount",
					"type": "uint256"
				},
				{
					"indexed": false,
					"internalType": "uint256",
					"name": "commission",
					"type": "uint256"
				}
			],
			"name": "Deposit",
			"type": "event"
		},
		{
			"anonymous": false,
			"inputs": [
				{
					"indexed": true,
					"internalType": "bytes32",
					"name": "id",
					"type": "bytes32"
				},
				{
					"indexed": true,
					"internalType": "address",
					"name": "initiator",
					"type": "address"
				},
				{
					"indexed": true,
					"internalType": "address",
					"name": "counterparty",
					"type": "address"
				},
				{
					"indexed": false,
					"internalType": "address",
					"name": "mediator",
					"type": "address"
				},
				{
					"indexed": false,
					"internalType": "address",
					"name": "sender",
					"type": "address"
				},
				{
					"indexed": false,
					"internalType": "uint256",
					"name": "requestId",
					"type": "uint256"
				}
			],
			"name": "EditDealExpirationRequestCreated",
			"type": "event"
		},
		{
			"anonymous": false,
			"inputs": [
				{
					"indexed": true,
					"internalType": "uint256",
					"name": "id",
					"type": "uint256"
				},
				{
					"indexed": false,
					"internalType": "address",
					"name": "sender",
					"type": "address"
				},
				{
					"indexed": false,
					"internalType": "bool",
					"name": "signedInititor",
					"type": "bool"
				},
				{
					"indexed": false,
					"internalType": "bool",
					"name": "signedCounterparty",
					"type": "bool"
				},
				{
					"indexed": false,
					"internalType": "bool",
					"name": "signedMediator",
					"type": "bool"
				},
				{
					"indexed": false,
					"internalType": "bool",
					"name": "rejected",
					"type": "bool"
				}
			],
			"name": "EditDealExpirationRequestUpdated",
			"type": "event"
		},
		{
			"anonymous": false,
			"inputs": [
				{
					"indexed": true,
					"internalType": "uint256",
					"name": "id",
					"type": "uint256"
				},
				{
					"indexed": true,
					"internalType": "bytes32",
					"name": "dealId",
					"type": "bytes32"
				},
				{
					"indexed": true,
					"internalType": "address",
					"name": "newMediator",
					"type": "address"
				},
				{
					"indexed": false,
					"internalType": "address",
					"name": "sender",
					"type": "address"
				}
			],
			"name": "EditDealMediatorRequestCreated",
			"type": "event"
		},
		{
			"anonymous": false,
			"inputs": [
				{
					"indexed": true,
					"internalType": "uint256",
					"name": "reid",
					"type": "uint256"
				},
				{
					"indexed": false,
					"internalType": "address",
					"name": "sender",
					"type": "address"
				},
				{
					"indexed": false,
					"internalType": "bool",
					"name": "signedByInitiator",
					"type": "bool"
				},
				{
					"indexed": false,
					"internalType": "bool",
					"name": "signedByCounterparty",
					"type": "bool"
				},
				{
					"indexed": false,
					"internalType": "bool",
					"name": "rejected",
					"type": "bool"
				}
			],
			"name": "EditDealMediatorRequestUpdated",
			"type": "event"
		},
		{
			"anonymous": false,
			"inputs": [
				{
					"indexed": true,
					"internalType": "uint256",
					"name": "Id",
					"type": "uint256"
				},
				{
					"indexed": true,
					"internalType": "bytes32",
					"name": "dealId",
					"type": "bytes32"
				},
				{
					"indexed": false,
					"internalType": "address",
					"name": "initiator",
					"type": "address"
				},
				{
					"indexed": false,
					"internalType": "address",
					"name": "counterparty",
					"type": "address"
				},
				{
					"indexed": false,
					"internalType": "address",
					"name": "mediator",
					"type": "address"
				},
				{
					"indexed": false,
					"internalType": "address",
					"name": "sender",
					"type": "address"
				},
				{
					"indexed": false,
					"internalType": "uint256",
					"name": "newExpirationDate",
					"type": "uint256"
				},
				{
					"indexed": false,
					"internalType": "enum MediatorAction",
					"name": "mediatorActionOnExpiration",
					"type": "uint8"
				}
			],
			"name": "EditedDealExpiration",
			"type": "event"
		},
		{
			"anonymous": false,
			"inputs": [
				{
					"indexed": true,
					"internalType": "bytes32",
					"name": "id",
					"type": "bytes32"
				},
				{
					"indexed": true,
					"internalType": "address",
					"name": "initiator",
					"type": "address"
				},
				{
					"indexed": true,
					"internalType": "address",
					"name": "counterparty",
					"type": "address"
				},
				{
					"indexed": false,
					"internalType": "address",
					"name": "mediator",
					"type": "address"
				},
				{
					"indexed": false,
					"internalType": "address",
					"name": "sender",
					"type": "address"
				},
				{
					"indexed": false,
					"internalType": "uint256",
					"name": "amount",
					"type": "uint256"
				},
				{
					"indexed": false,
					"internalType": "uint256",
					"name": "fee",
					"type": "uint256"
				}
			],
			"name": "GivebackToCounterparty",
			"type": "event"
		},
		{
			"anonymous": false,
			"inputs": [
				{
					"indexed": true,
					"internalType": "bytes32",
					"name": "id",
					"type": "bytes32"
				},
				{
					"indexed": true,
					"internalType": "address",
					"name": "initiator",
					"type": "address"
				},
				{
					"indexed": true,
					"internalType": "address",
					"name": "counterparty",
					"type": "address"
				},
				{
					"indexed": false,
					"internalType": "address",
					"name": "mediator",
					"type": "address"
				},
				{
					"indexed": false,
					"internalType": "address",
					"name": "sender",
					"type": "address"
				},
				{
					"indexed": false,
					"internalType": "uint256",
					"name": "amount",
					"type": "uint256"
				},
				{
					"indexed": false,
					"internalType": "uint256",
					"name": "fee",
					"type": "uint256"
				}
			],
			"name": "GivebackToInitiator",
			"type": "event"
		},
		{
			"anonymous": false,
			"inputs": [
				{
					"indexed": true,
					"internalType": "address",
					"name": "mediator",
					"type": "address"
				},
				{
					"indexed": false,
					"internalType": "bytes32",
					"name": "dealId",
					"type": "bytes32"
				}
			],
			"name": "JoinedToDealAsMediator",
			"type": "event"
		},
		{
			"anonymous": false,
			"inputs": [
				{
					"indexed": true,
					"internalType": "address",
					"name": "previousOwner",
					"type": "address"
				},
				{
					"indexed": true,
					"internalType": "address",
					"name": "newOwner",
					"type": "address"
				}
			],
			"name": "OwnershipTransferred",
			"type": "event"
		},
		{
			"anonymous": false,
			"inputs": [
				{
					"indexed": true,
					"internalType": "address",
					"name": "from",
					"type": "address"
				},
				{
					"indexed": true,
					"internalType": "address",
					"name": "to",
					"type": "address"
				},
				{
					"indexed": true,
					"internalType": "address",
					"name": "token",
					"type": "address"
				},
				{
					"indexed": false,
					"internalType": "uint256",
					"name": "value",
					"type": "uint256"
				}
			],
			"name": "Transfer",
			"type": "event"
		},
		{
			"anonymous": false,
			"inputs": [
				{
					"indexed": true,
					"internalType": "bytes32",
					"name": "id",
					"type": "bytes32"
				},
				{
					"indexed": true,
					"internalType": "address",
					"name": "initiator",
					"type": "address"
				},
				{
					"indexed": true,
					"internalType": "address",
					"name": "counterparty",
					"type": "address"
				},
				{
					"indexed": false,
					"internalType": "address",
					"name": "mediator",
					"type": "address"
				},
				{
					"indexed": false,
					"internalType": "address",
					"name": "sender",
					"type": "address"
				},
				{
					"indexed": false,
					"internalType": "uint256",
					"name": "amount",
					"type": "uint256"
				},
				{
					"indexed": false,
					"internalType": "uint256",
					"name": "fee",
					"type": "uint256"
				}
			],
			"name": "TransferToCounterparty",
			"type": "event"
		},
		{
			"anonymous": false,
			"inputs": [
				{
					"indexed": true,
					"internalType": "bytes32",
					"name": "id",
					"type": "bytes32"
				},
				{
					"indexed": true,
					"internalType": "address",
					"name": "initiator",
					"type": "address"
				},
				{
					"indexed": true,
					"internalType": "address",
					"name": "counterparty",
					"type": "address"
				},
				{
					"indexed": false,
					"internalType": "address",
					"name": "mediator",
					"type": "address"
				},
				{
					"indexed": false,
					"internalType": "address",
					"name": "sender",
					"type": "address"
				},
				{
					"indexed": false,
					"internalType": "address",
					"name": "target",
					"type": "address"
				},
				{
					"indexed": false,
					"internalType": "uint256",
					"name": "amountInitiator",
					"type": "uint256"
				},
				{
					"indexed": false,
					"internalType": "uint256",
					"name": "amountCounterparty",
					"type": "uint256"
				},
				{
					"indexed": false,
					"internalType": "uint256",
					"name": "feeInitiator",
					"type": "uint256"
				},
				{
					"indexed": false,
					"internalType": "uint256",
					"name": "feeCounterparty",
					"type": "uint256"
				}
			],
			"name": "TransferToFromDeal",
			"type": "event"
		},
		{
			"anonymous": false,
			"inputs": [
				{
					"indexed": true,
					"internalType": "bytes32",
					"name": "id",
					"type": "bytes32"
				},
				{
					"indexed": true,
					"internalType": "address",
					"name": "initiator",
					"type": "address"
				},
				{
					"indexed": true,
					"internalType": "address",
					"name": "counterparty",
					"type": "address"
				},
				{
					"indexed": false,
					"internalType": "address",
					"name": "mediator",
					"type": "address"
				},
				{
					"indexed": false,
					"internalType": "address",
					"name": "sender",
					"type": "address"
				},
				{
					"indexed": false,
					"internalType": "uint256",
					"name": "amount",
					"type": "uint256"
				},
				{
					"indexed": false,
					"internalType": "uint256",
					"name": "fee",
					"type": "uint256"
				}
			],
			"name": "TransferToInitiator",
			"type": "event"
		},
		{
			"anonymous": false,
			"inputs": [
				{
					"indexed": true,
					"internalType": "address",
					"name": "user",
					"type": "address"
				},
				{
					"indexed": true,
					"internalType": "address",
					"name": "token",
					"type": "address"
				},
				{
					"indexed": false,
					"internalType": "uint256",
					"name": "amount",
					"type": "uint256"
				}
			],
			"name": "Withdrawal",
			"type": "event"
		},
		{
			"inputs": [],
			"name": "PRC_DepositCommission",
			"outputs": [
				{
					"internalType": "uint256",
					"name": "",
					"type": "uint256"
				}
			],
			"stateMutability": "view",
			"type": "function"
		},
		{
			"inputs": [
				{
					"internalType": "bytes32",
					"name": "dealId",
					"type": "bytes32"
				},
				{
					"internalType": "uint256",
					"name": "amount",
					"type": "uint256"
				},
				{
					"internalType": "bool",
					"name": "local",
					"type": "bool"
				}
			],
			"name": "addDepositByCounterparty",
			"outputs": [
				{
					"internalType": "bool",
					"name": "",
					"type": "bool"
				}
			],
			"stateMutability": "payable",
			"type": "function"
		},
		{
			"inputs": [
				{
					"internalType": "bytes32",
					"name": "dealId",
					"type": "bytes32"
				},
				{
					"internalType": "uint256",
					"name": "amount",
					"type": "uint256"
				},
				{
					"internalType": "bool",
					"name": "local",
					"type": "bool"
				}
			],
			"name": "addDepositByInitiator",
			"outputs": [
				{
					"internalType": "bool",
					"name": "",
					"type": "bool"
				}
			],
			"stateMutability": "payable",
			"type": "function"
		},
		{
			"inputs": [
				{
					"internalType": "address",
					"name": "user",
					"type": "address"
				}
			],
			"name": "balanceOf",
			"outputs": [
				{
					"internalType": "uint256",
					"name": "",
					"type": "uint256"
				}
			],
			"stateMutability": "view",
			"type": "function"
		},
		{
			"inputs": [
				{
					"internalType": "address",
					"name": "user",
					"type": "address"
				},
				{
					"internalType": "address",
					"name": "token",
					"type": "address"
				}
			],
			"name": "balanceOf",
			"outputs": [
				{
					"internalType": "uint256",
					"name": "",
					"type": "uint256"
				}
			],
			"stateMutability": "view",
			"type": "function"
		},
		{
			"inputs": [
				{
					"internalType": "address",
					"name": "",
					"type": "address"
				},
				{
					"internalType": "address",
					"name": "",
					"type": "address"
				}
			],
			"name": "balances",
			"outputs": [
				{
					"internalType": "uint256",
					"name": "",
					"type": "uint256"
				}
			],
			"stateMutability": "view",
			"type": "function"
		},
		{
			"inputs": [
				{
					"internalType": "bytes32",
					"name": "dealId",
					"type": "bytes32"
				},
				{
					"internalType": "bool",
					"name": "local",
					"type": "bool"
				}
			],
			"name": "cancelDeal",
			"outputs": [
				{
					"internalType": "bool",
					"name": "",
					"type": "bool"
				}
			],
			"stateMutability": "nonpayable",
			"type": "function"
		},
		{
			"inputs": [],
			"name": "commissionRecipient",
			"outputs": [
				{
					"internalType": "address",
					"name": "",
					"type": "address"
				}
			],
			"stateMutability": "view",
			"type": "function"
		},
		{
			"inputs": [
				{
					"internalType": "bytes32",
					"name": "dealId",
					"type": "bytes32"
				},
				{
					"internalType": "bool",
					"name": "local",
					"type": "bool"
				}
			],
			"name": "completeDeal",
			"outputs": [
				{
					"internalType": "bool",
					"name": "",
					"type": "bool"
				}
			],
			"stateMutability": "nonpayable",
			"type": "function"
		},
		{
			"inputs": [],
			"name": "contractEnabled",
			"outputs": [
				{
					"internalType": "bool",
					"name": "",
					"type": "bool"
				}
			],
			"stateMutability": "view",
			"type": "function"
		},
		{
			"inputs": [
				{
					"internalType": "bytes32",
					"name": "dealId",
					"type": "bytes32"
				}
			],
			"name": "counterpartyAcceptSidedDeal",
			"outputs": [
				{
					"internalType": "bool",
					"name": "",
					"type": "bool"
				}
			],
			"stateMutability": "nonpayable",
			"type": "function"
		},
		{
			"inputs": [
				{
					"internalType": "address payable",
					"name": "counterparty",
					"type": "address"
				},
				{
					"internalType": "address payable",
					"name": "mediator",
					"type": "address"
				},
				{
					"internalType": "uint256",
					"name": "amount",
					"type": "uint256"
				},
				{
					"internalType": "uint256",
					"name": "PRCMediatorFee",
					"type": "uint256"
				},
				{
					"internalType": "address",
					"name": "tokenAddress",
					"type": "address"
				},
				{
					"internalType": "uint256",
					"name": "expirationDate",
					"type": "uint256"
				},
				{
					"internalType": "enum MediatorAction",
					"name": "mediatorActionOnExpiration",
					"type": "uint8"
				}
			],
			"name": "createDeal",
			"outputs": [
				{
					"internalType": "bytes32",
					"name": "",
					"type": "bytes32"
				}
			],
			"stateMutability": "nonpayable",
			"type": "function"
		},
		{
			"inputs": [
				{
					"internalType": "bytes32",
					"name": "dealId",
					"type": "bytes32"
				},
				{
					"internalType": "uint256",
					"name": "newExpirationDate",
					"type": "uint256"
				},
				{
					"internalType": "enum MediatorAction",
					"name": "newMediatorActionOnExpiration",
					"type": "uint8"
				}
			],
			"name": "createDealEditExpiration",
			"outputs": [
				{
					"internalType": "uint256",
					"name": "",
					"type": "uint256"
				}
			],
			"stateMutability": "nonpayable",
			"type": "function"
		},
		{
			"inputs": [
				{
					"internalType": "bytes32",
					"name": "dealId",
					"type": "bytes32"
				},
				{
					"internalType": "address payable",
					"name": "newMediator",
					"type": "address"
				},
				{
					"internalType": "uint256",
					"name": "PRC_InitiatorFee",
					"type": "uint256"
				},
				{
					"internalType": "uint256",
					"name": "PRC_CounterpartyFee",
					"type": "uint256"
				}
			],
			"name": "createEditDealMediatorRequest",
			"outputs": [
				{
					"internalType": "uint256",
					"name": "",
					"type": "uint256"
				}
			],
			"stateMutability": "nonpayable",
			"type": "function"
		},
		{
			"inputs": [
				{
					"internalType": "address payable",
					"name": "counterparty",
					"type": "address"
				},
				{
					"internalType": "address payable",
					"name": "mediator",
					"type": "address"
				},
				{
					"internalType": "uint256",
					"name": "initiatorCreateAmount",
					"type": "uint256"
				},
				{
					"internalType": "uint256",
					"name": "counterpartyCreateAmount",
					"type": "uint256"
				},
				{
					"internalType": "uint256",
					"name": "PRCMediatorFeeInititor",
					"type": "uint256"
				},
				{
					"internalType": "uint256",
					"name": "PRCMediatorFeeCounterparty",
					"type": "uint256"
				},
				{
					"internalType": "address",
					"name": "initiatorTokenAddress",
					"type": "address"
				},
				{
					"internalType": "address",
					"name": "counterpartyTokenAddress",
					"type": "address"
				},
				{
					"internalType": "uint256",
					"name": "expirationDate",
					"type": "uint256"
				},
				{
					"internalType": "enum MediatorAction",
					"name": "mediatorActionOnExpiration",
					"type": "uint8"
				}
			],
			"name": "createSidedDeal",
			"outputs": [
				{
					"internalType": "bytes32",
					"name": "",
					"type": "bytes32"
				}
			],
			"stateMutability": "nonpayable",
			"type": "function"
		},
		{
			"inputs": [
				{
					"internalType": "bytes32",
					"name": "",
					"type": "bytes32"
				}
			],
			"name": "deals",
			"outputs": [
				{
					"internalType": "address payable",
					"name": "initiator",
					"type": "address"
				},
				{
					"internalType": "address payable",
					"name": "counterparty",
					"type": "address"
				},
				{
					"internalType": "address payable",
					"name": "mediator",
					"type": "address"
				},
				{
					"internalType": "enum DealStatus",
					"name": "status",
					"type": "uint8"
				},
				{
					"internalType": "bool",
					"name": "isTwoSided",
					"type": "bool"
				},
				{
					"internalType": "bool",
					"name": "isSignedByCounterparty",
					"type": "bool"
				},
				{
					"internalType": "uint256",
					"name": "initiatorCreateAmount",
					"type": "uint256"
				},
				{
					"internalType": "uint256",
					"name": "counterpartyCreateAmount",
					"type": "uint256"
				},
				{
					"internalType": "uint256",
					"name": "initiatorCurrentAmount",
					"type": "uint256"
				},
				{
					"internalType": "uint256",
					"name": "counterpartyCurrentAmount",
					"type": "uint256"
				},
				{
					"internalType": "uint256",
					"name": "PRC_InitiatorMediatorFee",
					"type": "uint256"
				},
				{
					"internalType": "uint256",
					"name": "PRC_CounterpartyMediatorFee",
					"type": "uint256"
				},
				{
					"internalType": "address",
					"name": "initiatorTokenAddress",
					"type": "address"
				},
				{
					"internalType": "address",
					"name": "counterpartyTokenAddress",
					"type": "address"
				},
				{
					"internalType": "uint256",
					"name": "expirationDate",
					"type": "uint256"
				},
				{
					"internalType": "enum MediatorAction",
					"name": "mediatorActionOnExpiration",
					"type": "uint8"
				}
			],
			"stateMutability": "view",
			"type": "function"
		},
		{
			"inputs": [
				{
					"internalType": "address",
					"name": "token",
					"type": "address"
				},
				{
					"internalType": "uint256",
					"name": "amount",
					"type": "uint256"
				}
			],
			"name": "deposit",
			"outputs": [],
			"stateMutability": "payable",
			"type": "function"
		},
		{
			"inputs": [],
			"name": "disableContract",
			"outputs": [],
			"stateMutability": "nonpayable",
			"type": "function"
		},
		{
			"inputs": [
				{
					"internalType": "uint256",
					"name": "",
					"type": "uint256"
				}
			],
			"name": "editDealExpirationRequests",
			"outputs": [
				{
					"internalType": "bytes32",
					"name": "dealId",
					"type": "bytes32"
				},
				{
					"internalType": "uint256",
					"name": "expirationDate",
					"type": "uint256"
				},
				{
					"internalType": "enum MediatorAction",
					"name": "mediatorActionOnExpiration",
					"type": "uint8"
				},
				{
					"internalType": "bool",
					"name": "singedByInitiator",
					"type": "bool"
				},
				{
					"internalType": "bool",
					"name": "signedByCounterparty",
					"type": "bool"
				},
				{
					"internalType": "bool",
					"name": "signedByMediator",
					"type": "bool"
				},
				{
					"internalType": "bool",
					"name": "rejected",
					"type": "bool"
				}
			],
			"stateMutability": "view",
			"type": "function"
		},
		{
			"inputs": [
				{
					"internalType": "uint256",
					"name": "",
					"type": "uint256"
				}
			],
			"name": "editDealMediatorRequests",
			"outputs": [
				{
					"internalType": "bytes32",
					"name": "dealId",
					"type": "bytes32"
				},
				{
					"internalType": "address payable",
					"name": "mediator",
					"type": "address"
				},
				{
					"internalType": "uint256",
					"name": "PRC_InitiatorFee",
					"type": "uint256"
				},
				{
					"internalType": "uint256",
					"name": "PRC_CounterpartyFee",
					"type": "uint256"
				},
				{
					"internalType": "bool",
					"name": "singedByInitiator",
					"type": "bool"
				},
				{
					"internalType": "bool",
					"name": "signedByCounterparty",
					"type": "bool"
				},
				{
					"internalType": "bool",
					"name": "rejected",
					"type": "bool"
				}
			],
			"stateMutability": "view",
			"type": "function"
		},
		{
			"inputs": [],
			"name": "enableContract",
			"outputs": [],
			"stateMutability": "nonpayable",
			"type": "function"
		},
		{
			"inputs": [
				{
					"internalType": "bytes32",
					"name": "dealId",
					"type": "bytes32"
				},
				{
					"internalType": "bool",
					"name": "local",
					"type": "bool"
				}
			],
			"name": "executeActionsAfterExpiration",
			"outputs": [
				{
					"internalType": "bool",
					"name": "",
					"type": "bool"
				}
			],
			"stateMutability": "nonpayable",
			"type": "function"
		},
		{
			"inputs": [
				{
					"internalType": "uint256",
					"name": "amount",
					"type": "uint256"
				}
			],
			"name": "getAmountToDepositViaComission",
			"outputs": [
				{
					"internalType": "uint256",
					"name": "",
					"type": "uint256"
				}
			],
			"stateMutability": "view",
			"type": "function"
		},
		{
			"inputs": [
				{
					"internalType": "bytes32",
					"name": "dealId",
					"type": "bytes32"
				}
			],
			"name": "getDeal",
			"outputs": [
				{
					"components": [
						{
							"internalType": "address payable",
							"name": "initiator",
							"type": "address"
						},
						{
							"internalType": "address payable",
							"name": "counterparty",
							"type": "address"
						},
						{
							"internalType": "address payable",
							"name": "mediator",
							"type": "address"
						},
						{
							"internalType": "enum DealStatus",
							"name": "status",
							"type": "uint8"
						},
						{
							"internalType": "bool",
							"name": "isTwoSided",
							"type": "bool"
						},
						{
							"internalType": "bool",
							"name": "isSignedByCounterparty",
							"type": "bool"
						},
						{
							"internalType": "uint256",
							"name": "initiatorCreateAmount",
							"type": "uint256"
						},
						{
							"internalType": "uint256",
							"name": "counterpartyCreateAmount",
							"type": "uint256"
						},
						{
							"internalType": "uint256",
							"name": "initiatorCurrentAmount",
							"type": "uint256"
						},
						{
							"internalType": "uint256",
							"name": "counterpartyCurrentAmount",
							"type": "uint256"
						},
						{
							"internalType": "uint256",
							"name": "PRC_InitiatorMediatorFee",
							"type": "uint256"
						},
						{
							"internalType": "uint256",
							"name": "PRC_CounterpartyMediatorFee",
							"type": "uint256"
						},
						{
							"internalType": "address",
							"name": "initiatorTokenAddress",
							"type": "address"
						},
						{
							"internalType": "address",
							"name": "counterpartyTokenAddress",
							"type": "address"
						},
						{
							"internalType": "uint256",
							"name": "expirationDate",
							"type": "uint256"
						},
						{
							"internalType": "enum MediatorAction",
							"name": "mediatorActionOnExpiration",
							"type": "uint8"
						}
					],
					"internalType": "struct Deal",
					"name": "",
					"type": "tuple"
				}
			],
			"stateMutability": "view",
			"type": "function"
		},
		{
			"inputs": [
				{
					"internalType": "uint256",
					"name": "id",
					"type": "uint256"
				}
			],
			"name": "getEditDealExpiratation",
			"outputs": [
				{
					"components": [
						{
							"internalType": "bytes32",
							"name": "dealId",
							"type": "bytes32"
						},
						{
							"internalType": "uint256",
							"name": "expirationDate",
							"type": "uint256"
						},
						{
							"internalType": "enum MediatorAction",
							"name": "mediatorActionOnExpiration",
							"type": "uint8"
						},
						{
							"internalType": "bool",
							"name": "singedByInitiator",
							"type": "bool"
						},
						{
							"internalType": "bool",
							"name": "signedByCounterparty",
							"type": "bool"
						},
						{
							"internalType": "bool",
							"name": "signedByMediator",
							"type": "bool"
						},
						{
							"internalType": "bool",
							"name": "rejected",
							"type": "bool"
						}
					],
					"internalType": "struct EditDealExpiratation",
					"name": "",
					"type": "tuple"
				}
			],
			"stateMutability": "view",
			"type": "function"
		},
		{
			"inputs": [
				{
					"internalType": "uint256",
					"name": "id",
					"type": "uint256"
				}
			],
			"name": "getEditDealMediator",
			"outputs": [
				{
					"components": [
						{
							"internalType": "bytes32",
							"name": "dealId",
							"type": "bytes32"
						},
						{
							"internalType": "address payable",
							"name": "mediator",
							"type": "address"
						},
						{
							"internalType": "uint256",
							"name": "PRC_InitiatorFee",
							"type": "uint256"
						},
						{
							"internalType": "uint256",
							"name": "PRC_CounterpartyFee",
							"type": "uint256"
						},
						{
							"internalType": "bool",
							"name": "singedByInitiator",
							"type": "bool"
						},
						{
							"internalType": "bool",
							"name": "signedByCounterparty",
							"type": "bool"
						},
						{
							"internalType": "bool",
							"name": "rejected",
							"type": "bool"
						}
					],
					"internalType": "struct EditDealMediator",
					"name": "",
					"type": "tuple"
				}
			],
			"stateMutability": "view",
			"type": "function"
		},
		{
			"inputs": [
				{
					"internalType": "bytes32",
					"name": "dealId",
					"type": "bytes32"
				},
				{
					"internalType": "uint256",
					"name": "amount",
					"type": "uint256"
				},
				{
					"internalType": "bool",
					"name": "local",
					"type": "bool"
				}
			],
			"name": "givebackToConunterparty",
			"outputs": [
				{
					"internalType": "bool",
					"name": "",
					"type": "bool"
				}
			],
			"stateMutability": "nonpayable",
			"type": "function"
		},
		{
			"inputs": [
				{
					"internalType": "bytes32",
					"name": "dealId",
					"type": "bytes32"
				},
				{
					"internalType": "uint256",
					"name": "amount",
					"type": "uint256"
				},
				{
					"internalType": "bool",
					"name": "local",
					"type": "bool"
				}
			],
			"name": "givebackToInitiator",
			"outputs": [
				{
					"internalType": "bool",
					"name": "",
					"type": "bool"
				}
			],
			"stateMutability": "nonpayable",
			"type": "function"
		},
		{
			"inputs": [
				{
					"internalType": "bytes32",
					"name": "dealId",
					"type": "bytes32"
				},
				{
					"internalType": "address",
					"name": "tokenAdress",
					"type": "address"
				},
				{
					"internalType": "uint256",
					"name": "amount",
					"type": "uint256"
				},
				{
					"internalType": "uint256",
					"name": "PRC_mediatorFee",
					"type": "uint256"
				}
			],
			"name": "madeDealTwoSided",
			"outputs": [
				{
					"internalType": "bool",
					"name": "",
					"type": "bool"
				}
			],
			"stateMutability": "nonpayable",
			"type": "function"
		},
		{
			"inputs": [],
			"name": "owner",
			"outputs": [
				{
					"internalType": "address",
					"name": "",
					"type": "address"
				}
			],
			"stateMutability": "view",
			"type": "function"
		},
		{
			"inputs": [
				{
					"internalType": "bytes32",
					"name": "dealId",
					"type": "bytes32"
				}
			],
			"name": "payUpCounterpartyAcceptSidedDeal",
			"outputs": [
				{
					"internalType": "bool",
					"name": "",
					"type": "bool"
				}
			],
			"stateMutability": "payable",
			"type": "function"
		},
		{
			"inputs": [
				{
					"internalType": "address payable",
					"name": "counterparty",
					"type": "address"
				},
				{
					"internalType": "address payable",
					"name": "mediator",
					"type": "address"
				},
				{
					"internalType": "uint256",
					"name": "amount",
					"type": "uint256"
				},
				{
					"internalType": "uint256",
					"name": "PRCMediatorFee",
					"type": "uint256"
				},
				{
					"internalType": "address",
					"name": "tokenAddress",
					"type": "address"
				},
				{
					"internalType": "uint256",
					"name": "expirationDate",
					"type": "uint256"
				},
				{
					"internalType": "enum MediatorAction",
					"name": "mediatorActionOnExpiration",
					"type": "uint8"
				}
			],
			"name": "payUpCreateDeal",
			"outputs": [
				{
					"internalType": "bytes32",
					"name": "",
					"type": "bytes32"
				}
			],
			"stateMutability": "payable",
			"type": "function"
		},
		{
			"inputs": [
				{
					"internalType": "address payable",
					"name": "counterparty",
					"type": "address"
				},
				{
					"internalType": "address payable",
					"name": "mediator",
					"type": "address"
				},
				{
					"internalType": "uint256",
					"name": "initiatorCreateAmount",
					"type": "uint256"
				},
				{
					"internalType": "uint256",
					"name": "counterpartyCreateAmount",
					"type": "uint256"
				},
				{
					"internalType": "uint256",
					"name": "PRCMediatorFeeInititor",
					"type": "uint256"
				},
				{
					"internalType": "uint256",
					"name": "PRCMediatorFeeCounterparty",
					"type": "uint256"
				},
				{
					"internalType": "address",
					"name": "initiatorTokenAddress",
					"type": "address"
				},
				{
					"internalType": "address",
					"name": "counterpartyTokenAddress",
					"type": "address"
				},
				{
					"internalType": "uint256",
					"name": "expirationDate",
					"type": "uint256"
				},
				{
					"internalType": "enum MediatorAction",
					"name": "mediatorActionOnExpiration",
					"type": "uint8"
				}
			],
			"name": "payUpCreateSidedDeal",
			"outputs": [
				{
					"internalType": "bytes32",
					"name": "",
					"type": "bytes32"
				}
			],
			"stateMutability": "payable",
			"type": "function"
		},
		{
			"inputs": [
				{
					"internalType": "bytes32",
					"name": "dealId",
					"type": "bytes32"
				},
				{
					"internalType": "address",
					"name": "tokenAdress",
					"type": "address"
				},
				{
					"internalType": "uint256",
					"name": "amount",
					"type": "uint256"
				},
				{
					"internalType": "uint256",
					"name": "PRC_mediatorFee",
					"type": "uint256"
				}
			],
			"name": "payUpMadeDealTwoSided",
			"outputs": [
				{
					"internalType": "bool",
					"name": "",
					"type": "bool"
				}
			],
			"stateMutability": "payable",
			"type": "function"
		},
		{
			"inputs": [
				{
					"internalType": "bytes32",
					"name": "dealId",
					"type": "bytes32"
				}
			],
			"name": "rejectSidedDeal",
			"outputs": [
				{
					"internalType": "bool",
					"name": "",
					"type": "bool"
				}
			],
			"stateMutability": "nonpayable",
			"type": "function"
		},
		{
			"inputs": [
				{
					"internalType": "uint256",
					"name": "PRC_NewCommission",
					"type": "uint256"
				},
				{
					"internalType": "address",
					"name": "newRecipient",
					"type": "address"
				}
			],
			"name": "setDepositCommission",
			"outputs": [],
			"stateMutability": "nonpayable",
			"type": "function"
		},
		{
			"inputs": [
				{
					"internalType": "uint256",
					"name": "id",
					"type": "uint256"
				},
				{
					"internalType": "bool",
					"name": "reject",
					"type": "bool"
				}
			],
			"name": "signDealEditExpiration",
			"outputs": [
				{
					"internalType": "bool",
					"name": "",
					"type": "bool"
				}
			],
			"stateMutability": "nonpayable",
			"type": "function"
		},
		{
			"inputs": [
				{
					"internalType": "uint256",
					"name": "requestId",
					"type": "uint256"
				},
				{
					"internalType": "bool",
					"name": "reject",
					"type": "bool"
				}
			],
			"name": "signEditDealMediatorRequest",
			"outputs": [
				{
					"internalType": "bool",
					"name": "",
					"type": "bool"
				}
			],
			"stateMutability": "nonpayable",
			"type": "function"
		},
		{
			"inputs": [],
			"name": "totalCompletedDeals",
			"outputs": [
				{
					"internalType": "uint256",
					"name": "",
					"type": "uint256"
				}
			],
			"stateMutability": "view",
			"type": "function"
		},
		{
			"inputs": [],
			"name": "totalDeals",
			"outputs": [
				{
					"internalType": "uint256",
					"name": "",
					"type": "uint256"
				}
			],
			"stateMutability": "view",
			"type": "function"
		},
		{
			"inputs": [],
			"name": "totalEditDealMediatorRequests",
			"outputs": [
				{
					"internalType": "uint256",
					"name": "",
					"type": "uint256"
				}
			],
			"stateMutability": "view",
			"type": "function"
		},
		{
			"inputs": [],
			"name": "totalEditExpirationRequests",
			"outputs": [
				{
					"internalType": "uint256",
					"name": "",
					"type": "uint256"
				}
			],
			"stateMutability": "view",
			"type": "function"
		},
		{
			"inputs": [
				{
					"internalType": "address",
					"name": "to",
					"type": "address"
				},
				{
					"internalType": "address",
					"name": "token",
					"type": "address"
				},
				{
					"internalType": "uint256",
					"name": "amount",
					"type": "uint256"
				}
			],
			"name": "transfer",
			"outputs": [
				{
					"internalType": "bool",
					"name": "",
					"type": "bool"
				}
			],
			"stateMutability": "nonpayable",
			"type": "function"
		},
		{
			"inputs": [
				{
					"internalType": "address",
					"name": "newOwner",
					"type": "address"
				}
			],
			"name": "transferOwnership",
			"outputs": [],
			"stateMutability": "nonpayable",
			"type": "function"
		},
		{
			"inputs": [
				{
					"internalType": "bytes32",
					"name": "dealId",
					"type": "bytes32"
				},
				{
					"internalType": "uint256",
					"name": "amount",
					"type": "uint256"
				},
				{
					"internalType": "bool",
					"name": "local",
					"type": "bool"
				}
			],
			"name": "transferToCounterparty",
			"outputs": [
				{
					"internalType": "bool",
					"name": "",
					"type": "bool"
				}
			],
			"stateMutability": "nonpayable",
			"type": "function"
		},
		{
			"inputs": [
				{
					"internalType": "bytes32",
					"name": "dealId",
					"type": "bytes32"
				},
				{
					"internalType": "uint256",
					"name": "amount",
					"type": "uint256"
				},
				{
					"internalType": "bool",
					"name": "local",
					"type": "bool"
				}
			],
			"name": "transferToInitiator",
			"outputs": [
				{
					"internalType": "bool",
					"name": "",
					"type": "bool"
				}
			],
			"stateMutability": "nonpayable",
			"type": "function"
		},
		{
			"inputs": [
				{
					"internalType": "address",
					"name": "token",
					"type": "address"
				},
				{
					"internalType": "uint256",
					"name": "amount",
					"type": "uint256"
				}
			],
			"name": "withdraw",
			"outputs": [
				{
					"internalType": "bool",
					"name": "",
					"type": "bool"
				}
			],
			"stateMutability": "nonpayable",
			"type": "function"
		},
		{
			"inputs": [
				{
					"internalType": "bytes32",
					"name": "dealId",
					"type": "bytes32"
				}
			],
			"name": "withdrawRejectSidedDeal",
			"outputs": [
				{
					"internalType": "bool",
					"name": "",
					"type": "bool"
				}
			],
			"stateMutability": "nonpayable",
			"type": "function"
		}
	]
}