{
	"data": {
		"bytecode": {
			"linkReferences": {
				"Deal.sol": {
					"DealContract": [
						{
							"length": 20,
							"start": 840
						},
						{
							"length": 20,
							"start": 2098
						},
						{
							"length": 20,
							"start": 2614
						},
						{
							"length": 20,
							"start": 3082
						},
						{
							"length": 20,
							"start": 5396
						},
						{
							"length": 20,
							"start": 6165
						},
						{
							"length": 20,
							"start": 7022
						},
						{
							"length": 20,
							"start": 8921
						},
						{
							"length": 20,
							"start": 10261
						},
						{
							"length": 20,
							"start": 11126
						},
						{
							"length": 20,
							"start": 14551
						}
					]
				},
				"Percent.sol": {
					"Percent": [
						{
							"length": 20,
							"start": 1188
						},
						{
							"length": 20,
							"start": 2255
						},
						{
							"length": 20,
							"start": 2766
						},
						{
							"length": 20,
							"start": 3854
						},
						{
							"length": 20,
							"start": 4942
						},
						{
							"length": 20,
							"start": 5547
						},
						{
							"length": 20,
							"start": 6500
						},
						{
							"length": 20,
							"start": 7175
						},
						{
							"length": 20,
							"start": 9074
						},
						{
							"length": 20,
							"start": 9353
						},
						{
							"length": 20,
							"start": 9966
						},
						{
							"length": 20,
							"start": 10408
						},
						{
							"length": 20,
							"start": 11952
						},
						{
							"length": 20,
							"start": 12847
						}
					]
				}
			},
			"object": "60803461015257601f61458038819003918201601f19168301916001600160401b038311848410176101565780849260409485528339810103126101525780516020909101516001600160a01b038116919082900361015257331561013f575f80546040519133906001600160a01b038316907f8be0079c531659141344cd1fd0a4f28419497f9722a3daafe3b4186f6b6457e09080a36001600160a81b0319163360ff60a01b191617600160a01b175f55821561011857506402540be40081116100ee5760025560018060a01b031960035416176003555f6005555f600655604051614415908161016b8239f35b60405162461bcd60e51b8152602060048201526002602482015261433560f01b6044820152606490fd5b62461bcd60e51b8152602060048201526002602482015261433160f01b6044820152606490fd5b631e4fbdf760e01b5f525f60045260245ffd5b5f80fd5b634e487b7160e01b5f52604160045260245ffdfe60806040526004361015610011575f80fd5b5f5f3560e01c80627e8bd314613702578063044a6da11461300857806306fd154a14612fe057806315f8a31414612f2357806317b52b5014612ec357806328d5a050146129aa57806330e97ae11461266b578063367edd32146125ec57806339b3edb0146125495780634187129c146124af57806341b3a0d91461248a57806347e7ef24146122c75780634dff00361461213257806351a6fad514611f8957806370a0823114611f48578063715018a614611eee57806380ccb07014611e3457806381cd872a14611d09578063894ba83314611c91578063899a3ffd14611c735780638da5cb5b14611c4c5780638deea5fb14611b7a578063966d1f1d14611b5c578063a4f60b16146119c7578063a717010614611677578063b7dc14fe14611364578063bb06c1a414611030578063beabacc814610f42578063c23f001f14610547578063cfadf6c714610a28578063d747b8111461088b578063e08560a41461086d578063f2d5ec3d14610687578063f2fde38b14610601578063f3fef3a31461059a578063f7888aec146105475763fbb405db146101b0575f80fd5b6101b936613ad8565b90808352600460205260408320926101db60018060a01b038554163314613e67565b73__$69ea93bdf3b1e5da8164bfe3d9a878d765$__803b1561054357816040518092630252a86760e51b825281806102168a60048301613f99565b03915af4801561053857908291610523575b5050600984018054335f9081526001602090815260408083206001600160a01b039094168084529390915290205490928592918381106102ee575b50505461027a92506001600160a01b0316336140ef565b506005830161028a83825461407e565b905582546001840154600290940154604080516001600160a01b0392831681526020810195909552948116949116927f3c0dd30126238eaebbb306e073222eecd03a091d41c39a4b2742759d406c8f5591819081015b0390a4602060405160018152f35b6102f89193613ec9565b9261030960ff845460a01c16613bea565b610314841515613f00565b6002549260405193631c8f084760e01b8552856004860152602485015260208460448173__$8537b7efa173772577da826929141ce939$__5af49384156105165781946104de575b50816103ef575061036d838561407e565b34036103c55783869361038461027a9684336142e4565b5060035461039e90829085906001600160a01b03166142e4565b505b60405191825260208201525f5160206143c05f395f51905f5260403392a35f80610263565b60405162461bcd60e51b815260206004820152600260248201526110cd60f21b6044820152606490fd5b6103f9848661407e565b604051906323b872dd60e01b8252336004830152306024830152604482015260208160648185875af19182156104d2578092610492575b5050156104685783869361044861027a9684336142e4565b5060035461046290829085906001600160a01b03166142e4565b506103a0565b60405162461bcd60e51b81526020600482015260026024820152612a1960f11b6044820152606490fd5b9091506020823d6020116104ca575b816104ae60209383613c7d565b810103126104c757506104c090613cb3565b5f80610430565b80fd5b3d91506104a1565b604051903d90823e3d90fd5b9093506020813d60201161050e575b816104fa60209383613c7d565b8101031261050a5751925f61035c565b5f80fd5b3d91506104ed565b50604051903d90823e3d90fd5b8161052d91613c7d565b6104c757805f610228565b6040513d84823e3d90fd5b5080fd5b50346104c75760403660031901126104c75760406105636139dd565b9161056c6139c7565b9260018060a01b031681526001602052209060018060a01b03165f52602052602060405f2054604051908152f35b50346104c75760403660031901126104c7576105f76020916105ba6139dd565b604060243592338152600186522060018060a01b0382165f5284526105e58260405f20541015613c1b565b6105f08282336140ef565b5033614196565b6040519015158152f35b50346104c75760203660031901126104c75761061b6139dd565b6106236142be565b6001600160a01b031680156106735781546001600160a01b03198116821783556001600160a01b03167f8be0079c531659141344cd1fd0a4f28419497f9722a3daafe3b4186f6b6457e08380a380f35b631e4fbdf760e01b82526004829052602482fd5b50346104c75761069636613ad8565b9080835260046020526040832092600184019260018060a01b0384541633148015610857575b6106c590613e67565b73__$69ea93bdf3b1e5da8164bfe3d9a878d765$__803b1561085357826040518092630252a86760e51b825281806107008b60048301613f99565b03915af4801561084857908391610833575b50506005850161072e828254610729828210613c1b565b613ec9565b905560018060a01b0360098601541694600781015460405190631c8f084760e01b8252836004830152602482015260208160448173__$8537b7efa173772577da826929141ce939$__5af49384156104d257936107fd575b5080545f5160206143805f395f51905f5293916102e0916107bb906001600160a01b0316896107b58688613ec9565b91614196565b506107d483600283019960018060a01b038b5416614196565b5054955496546040516001600160a01b0398891698978816979094859492909133911685613ed6565b92506020833d60201161082b575b8161081860209383613c7d565b8101031261050a579151916102e0610786565b3d915061080b565b8161083d91613c7d565b61054357815f610712565b6040513d85823e3d90fd5b8280fd5b5060028501546001600160a01b031633146106bc565b50346104c757806003193601126104c7576020600654604051908152f35b50346104c75761089a36613ad8565b9080835260046020526040832092600184019260018060a01b0384541633148015610a12575b6108c990613e67565b73__$69ea93bdf3b1e5da8164bfe3d9a878d765$__803b1561085357826040518092630252a86760e51b825281806109048b60048301613f99565b03915af48015610848579083916109fd575b50506006850161092d828254610729828210613c1b565b905560018060a01b03600a8601541694600881015460405190631c8f084760e01b8252836004830152602482015260208160448173__$8537b7efa173772577da826929141ce939$__5af49384156104d257936109c7575b5080547f8af39814826d4542f7fe66e6fa6ac2ac59bfc8221394f51a41dba5c54dba0ac993916102e0916107bb906001600160a01b0316896107b58688613ec9565b92506020833d6020116109f5575b816109e260209383613c7d565b8101031261050a579151916102e0610985565b3d91506109d5565b81610a0791613c7d565b61054357815f610916565b5060028501546001600160a01b031633146108c0565b50610a32366139f3565b9190949288948a98979a948c604060ff825460a01c1691610a5283613bea565b33815260016020522060018060a01b0385165f5260205260405f20548a8110610d56575b505091610ac39493916102209893610a8f8b84336140ef565b5060405163652e83d760e01b815273__$69ea93bdf3b1e5da8164bfe3d9a878d765$__9e909b8c9a8b9a3360048d01613dd9565b0381875af4908115610d1c578591610d27575b5060206005546102446040518097819363797d4ee160e01b8352610afd6004840188613afb565b6102248301525af4938415610d1c578594610ce8575b50610b1f600554613e45565b600555838552600460209081526040808720835181546001600160a01b03199081166001600160a01b039283161783559385015160018301805490951690821617909355908301516002820180546060860151608087015160a08089015160c08a015160ff60b81b90151560b81b1660ff60b01b91151560b01b919091166001600160c01b0319909516969098169590951791151590941b60ff60a01b161760ff60a81b93151560a81b9390931692909217919091179290921790915561020090600c9060e0840151600382015561010084015160048201556101208401516005820155610140840151600680830191909155610160850151600783015561018085015160088301556101a08501516009830180546001600160a01b039283166001600160a01b0319918216179091556101c0870151600a850180549190931691161790556101e0850151600b830155929093015192019190811015610cd4576020955060ff801983541691161790556040519160018060a01b0316825260018060a01b031690827f44e1ff8e67fad6b456bd43ff165ba4e9bb004370aa27a76881c6acb60dfd6dd9853393a4604051908152f35b634e487b7160e01b86526021600452602486fd5b9093506020813d602011610d14575b81610d0460209383613c7d565b8101031261050a5751925f610b13565b3d9150610cf7565b6040513d87823e3d90fd5b610d4991506102203d8111610d4f575b610d418183613c7d565b810190613cc0565b5f610ad6565b503d610d37565b610d739299949695939850610d6d9197508a613ec9565b95613bea565b610d7e851515613f00565b6002549360405194631c8f084760e01b8652866004870152602486015260208560448173__$8537b7efa173772577da826929141ce939$__5af4948515610f37578d95610f03575b506001600160a01b0381169687610e4557610de1868861407e565b34036103c557610220988c9888610ac398610dfe8f9b87336142e4565b50600354610e1890829088906001600160a01b03166142e4565b505b60405191825260208201525f5160206143c05f395f51905f5260403392a39193988193959650610a76565b8d8060208a6064610e568b8d61407e565b60405194859384926323b872dd60e01b845233600485015230602485015260448401525af19182156104d25791610ec5575b501561046857610220988c9888610ac398610ea58f9b87336142e4565b50600354610ebf90829088906001600160a01b03166142e4565b50610e1a565b90506020813d602011610efb575b81610ee060209383613c7d565b81010312610ef757610ef190613cb3565b5f610e88565b8e80fd5b3d9150610ed3565b9094506020813d602011610f2f575b81610f1f60209383613c7d565b8101031261050a5751935f610dc6565b3d9150610f12565b6040513d8f823e3d90fd5b50346104c75760603660031901126104c757610f5c6139dd565b90610f656139c7565b604060443593338452600160205281842060018060a01b0384165f52602052610f9385835f20541015613c1b565b338452600160205281842060018060a01b0384165f52602052815f20610fba868254613ec9565b905560018060a01b03169283815260016020522060018060a01b0382165f5260205260405f20610feb84825461407e565b90556040519283526001600160a01b03169133907fd1398bee19313d6bf672ccb116e51f4a1a947e91c757907f51fbb5b5e56c698f90602090a4602060405160018152f35b5060203660031901126104c75760043580825260046020526040822091600183019261106660018060a01b038554163314613e67565b60028101916110a4835461107f60ff8260b01c1661408b565b61108f60ff8260b81c16156140bd565b60ff8160a01c16159081611355575b50613e98565b600a82018054335f9081526001602090815260408083206001600160a01b039094168084529390915290205460068501548110611195575b50505460048301546110f99250906001600160a01b0316336140ef565b508154600160b81b60ff60b81b198216179092555492546040516001600160a01b0392831680825294918316929091169083907f5e02698c1650d6cbe1f7e8a48609d0da45ad7f5e4c13cd8b196f82965c0ab0d590602090a481611163575b602060405160018152f35b60207f957372c0e02d2882134cc0eebbef9e446634d8ccbb1cbb112bdefdd3cf0a643c91604051908152a25f80611158565b6111a3906004860154613ec9565b6111b360ff855460a01c16613bea565b6111be811515613f00565b6002549360405194631c8f084760e01b8652826004870152602486015260208560448173__$8537b7efa173772577da826929141ce939$__5af4948515610516578195611321575b508261126d5750611217848261407e565b34036103c5576110f99361122c8284336142e4565b5060035461124690829085906001600160a01b03166142e4565b505b60405191825260208201525f5160206143c05f395f51905f5260403392a35f806110dc565b611277858361407e565b604051906323b872dd60e01b8252336004830152306024830152604482015260208160648185885af19182156104d25780926112e4575b505015610468576110f9936112c48284336142e4565b506003546112de90829085906001600160a01b03166142e4565b50611248565b9091506020823d602011611319575b8161130060209383613c7d565b810103126104c7575061131290613cb3565b5f806112ae565b3d91506112f3565b9094506020813d60201161134d575b8161133d60209383613c7d565b8101031261050a5751935f611206565b3d9150611330565b60ff915060a81c16155f61109e565b50346104c75760203660031901126104c757600435808252600460205260408220600181019060018060a01b0382541633148015611661575b6113a690613e67565b8373__$69ea93bdf3b1e5da8164bfe3d9a878d765$__803b1561054357816040518092630252a86760e51b825281806113e28860048301613f99565b03915af4801561053857611648575b5050600581015460098201546006830154600a84015460078501546008860154604051631c8f084760e01b81526004810187905260248101929092526001600160a01b0394851697959691959473__$8537b7efa173772577da826929141ce939$__931690602087604481875af496871561163d578b97611608575b50602090604460405180968193631c8f084760e01b835289600484015260248301525af49283156115fd57899a999899936115bf575b5081548894939291906001600160a01b03168a6114c0898b613ec9565b906114ca92614196565b50600282018054909a6114e8918991906001600160a01b0316614196565b5085546001600160a01b0316816114ff8680613ec9565b9061150992614196565b5089546115209184916001600160a01b0316614196565b5054935497546040516001600160a01b03998a169a958a1699909116968a968a968893889391929091829161155791338e85613ed6565b035f5160206143805f395f51905f5291a460405191829161157a91338985613ed6565b035f5160206143405f395f51905f5291a4604080516001600160a01b039290921682523360208301525f5160206143605f395f51905f5291a460405160018152602090f35b9392509096506020833d6020116115f5575b816115de60209383613c7d565b8101031261050a57889687935192939190916114a3565b3d91506115d1565b6040513d8c823e3d90fd5b9096506020813d602011611635575b8161162460209383613c7d565b8101031261050a575195602061146d565b3d9150611617565b6040513d8d823e3d90fd5b8161165291613c7d565b61165d57835f6113f1565b8380fd5b5060028101546001600160a01b0316331461139d565b5061168136613ad8565b908083526004602052604083209260018401926116a860018060a01b038554163314613e67565b73__$69ea93bdf3b1e5da8164bfe3d9a878d765$__803b1561085357826040518092630252a86760e51b825281806116e38b60048301613f99565b03915af48015610848579083916119b2575b5050600a85018054335f9081526001602090815260408083206001600160a01b03909416808452939091529020549093908381106117ae575b5050547f9d5818ec36d6e85e8a30346f5fe41b65cc50cea2b868ae94f293d113c92a133892506117699082906001600160a01b0316336140ef565b506006850161177982825461407e565b905584549354600290950154604080516001600160a01b039283168152602081019390935295811695941693819081016102e0565b6117b89084613ec9565b916117c960ff835460a01c16613bea565b6117d4831515613f00565b6002549160405192631c8f084760e01b8452846004850152602484015260208360448173__$8537b7efa173772577da826929141ce939$__5af492831561051657819361197e575b50856118a6575061182d828461407e565b34036103c55784838593611866611769967f9d5818ec36d6e85e8a30346f5fe41b65cc50cea2b868ae94f293d113c92a133899336142e4565b5060035461188090829085906001600160a01b03166142e4565b505b60405191825260208201525f5160206143c05f395f51905f5260403392a39161172e565b6118b0838561407e565b604051906323b872dd60e01b82523360048301523060248301526044820152602081606481858b5af19182156104d2578092611941575b5050156104685784838593611921611769967f9d5818ec36d6e85e8a30346f5fe41b65cc50cea2b868ae94f293d113c92a133899336142e4565b5060035461193b90829085906001600160a01b03166142e4565b50611882565b9091506020823d602011611976575b8161195d60209383613c7d565b810103126104c7575061196f90613cb3565b5f806118e7565b3d9150611950565b9092506020813d6020116119aa575b8161199a60209383613c7d565b8101031261050a5751915f61181c565b3d915061198d565b816119bc91613c7d565b61054357815f6116f5565b50346104c7576119d636613ad8565b91908082526004602052604082209160018060a01b0383541633148015611b46575b611a0190613e67565b73__$69ea93bdf3b1e5da8164bfe3d9a878d765$__803b1561054357816040518092630252a86760e51b82528180611a3c8960048301613f99565b03915af4801561053857908291611b31575b505060068301611a65858254610729828210613c1b565b905560018060a01b03600a840154169360088401549160405192631c8f084760e01b8452826004850152602484015260208360448173__$8537b7efa173772577da826929141ce939$__5af49081156104d25790611af2575b60018501805490955f5160206143405f395f51905f5294506102e0916107bb906001600160a01b0316896107b58688613ec9565b506020823d602011611b29575b81611b0c60209383613c7d565b8101031261050a575f5160206143405f395f51905f529151611abe565b3d9150611aff565b81611b3b91613c7d565b6104c757805f611a4e565b5060028301546001600160a01b031633146119f8565b50346104c757806003193601126104c7576020600554604051908152f35b50346104c75760203660031901126104c75760406004359182815260046020522090600182019060018060a01b0382541633148015611c39575b611bbd90613e67565b5f5160206143605f395f51905f526102e06002850194611be7865461107f60ff8260b01c1661408b565b805460098201546005830154611c0b9290916001600160a01b0390811691166142e4565b505493549454604080516001600160a01b039283168152336020820152968216969590911694918291820190565b5082546001600160a01b03163314611bb4565b50346104c757806003193601126104c757546040516001600160a01b039091168152602090f35b50346104c757806003193601126104c7576020600254604051908152f35b50346104c757806003193601126104c757611caa6142be565b805460ff60a01b191681556040518181527f017904e4fe7d59bb4603c7c045bc275a05da9ea3a4ac007fc80fffeaf119186d90602090a1337f793bc6423dd0257d64f9d47db72fd4b2162f4541aa41740ba1c5fb5e2cd41bcd8280a280f35b50346104c75760203660031901126104c7576004358152600460205260409020600160a01b6001900381541690600160a01b600190036001820154169060028101546003820154600483015460058401546006850154600786015491600887015493600160a01b6001900360098901541695600160a01b60019003600a8a01541697600b8a015499600c015460ff169a6040519c8d5260208d0152600160a01b60019003811660408d01528060a01c60ff16151560608d01528060a81c60ff16151560808d01528060b01c60ff16151560a08d015260b81c60ff16151560c08c015260e08b01526101008a01526101208901526101408801526101608701526101808601526101a08501526101c08401526101e08301526102008201611e2e91613aee565b61022090f35b50346104c75760203660031901126104c75760406004359182815260046020522090600182019060018060a01b0382541633148015611edb575b611e7790613e67565b5f5160206143605f395f51905f526102e06002850194611ea9865460ff8160b81c161580611ecd575b61108f906140bd565b805460098201546005830154611c0b9290916001600160a01b039081169116614196565b5060b081901c60ff16611ea0565b5082546001600160a01b03163314611e6e565b50346104c757806003193601126104c757611f076142be565b80546001600160a01b03198116825581906001600160a01b03167f8be0079c531659141344cd1fd0a4f28419497f9722a3daafe3b4186f6b6457e08280a380f35b50346104c75760203660031901126104c7576020906040906001600160a01b03611f706139dd565b1681526001835281812081805283522054604051908152f35b50346104c75760203660031901126104c75780610200604051611fab81613c4c565b8281528260208201528260408201528260608201528260808201528260a08201528260c08201528260e08201528261010082015282610120820152826101408201528261016082015282610180820152826101a0820152826101c0820152826101e08201520152600435815260046020526040812060ff600c6040519261203184613c4c565b80546001600160a01b0390811685526001820154811660208601526002820154808216604087015260a081811c86161515606088015260a882901c86161515608088015260b082901c861615159087015260b81c8416151560c0860152600382015460e08601526004820154610100860152600582015461012086015260068083015461014087015260078301546101608701526008830154610180870152600983015482166101a0870152600a8301549091166101c0860152600b8201546101e08601529101549091169081101561211e57610220925061020082015261211c6040518092613afb565bf35b634e487b7160e01b83526021600452602483fd5b50346104c75761214136613ad8565b91908082526004602052604082209160018060a01b03835416331480156122b1575b61216c90613e67565b73__$69ea93bdf3b1e5da8164bfe3d9a878d765$__803b1561054357816040518092630252a86760e51b825281806121a78960048301613f99565b03915af480156105385790829161229c575b5050600583016121d0858254610729828210613c1b565b905560018060a01b036009840154169360078401549160405192631c8f084760e01b8452826004850152602484015260208360448173__$8537b7efa173772577da826929141ce939$__5af49081156104d2579061225d575b60018501805490955f5160206143a05f395f51905f5294506102e0916107bb906001600160a01b0316896107b58688613ec9565b506020823d602011612294575b8161227760209383613c7d565b8101031261050a575f5160206143a05f395f51905f529151612229565b3d915061226a565b816122a691613c7d565b6104c757805f6121b9565b5060028301546001600160a01b03163314612163565b5060403660031901126104c7576122dc6139dd565b6024356122ef60ff845460a01c16613bea565b6122fa811515613f00565b60025460405190631c8f084760e01b8252826004830152602482015260208160448173__$8537b7efa173772577da826929141ce939$__5af490811561247f57849161244d575b506001600160a01b03831692836123a75761235c828461407e565b34036103c55781816123728561238494336142e4565b506003546001600160a01b03166142e4565b505b60405191825260208201525f5160206143c05f395f51905f5260403392a380f35b6123b1828461407e565b604051906323b872dd60e01b8252336004830152306024830152604482015260208160648189895af1908115612442578691612404575b5015610468578181612372856123fe94336142e4565b50612386565b90506020813d60201161243a575b8161241f60209383613c7d565b810103126124365761243090613cb3565b5f6123e8565b8580fd5b3d9150612412565b6040513d88823e3d90fd5b90506020813d602011612477575b8161246860209383613c7d565b8101031261050a57515f612341565b3d915061245b565b6040513d86823e3d90fd5b50346104c757806003193601126104c75760ff6020915460a01c166040519015158152f35b50346104c75760203660031901126104c7576040600435918281526004602052209060018201916124ea60018060a01b038454163314613e67565b6002810190612503825461107f60ff8260b01c1661408b565b600a810154335f9081526001602090815260408083206001600160a01b03909416808452939091529020546110f991612543600485015480931015613c1b565b336140ef565b50346104c75760203660031901126104c7576004359060025460405190631c8f084760e01b8252836004830152602482015260208160448173__$8537b7efa173772577da826929141ce939$__5af49182156104d257916125b9575b60206125b1838561407e565b604051908152f35b90506020813d6020116125e4575b816125d460209383613c7d565b8101031261050a575160206125a5565b3d91506125c7565b50346104c757806003193601126104c7576126056142be565b805460ff60a01b1916600160a01b178155604051600181527f017904e4fe7d59bb4603c7c045bc275a05da9ea3a4ac007fc80fffeaf119186d90602090a1337fae81c15a680e6640ba872ca44f364ad67c60a04089ad9fa100f7a3ce94da9f688280a280f35b503461050a57602036600319011261050a57600435805f52600460205260405f2060018060a01b0381541633148015612994575b6126a890613e67565b73__$69ea93bdf3b1e5da8164bfe3d9a878d765$__803b1561050a575f6040518092630252a86760e51b825281806126e38760048301613f99565b03915af4801561298957612974575b50600581015460098201546006830154600a84015460078501546008860154604051631c8f084760e01b81526004810187905260248101929092526001600160a01b0394851696939573__$8537b7efa173772577da826929141ce939$__959093169390602083604481895af49283156115fd578a9361293f575b50602090604460405180988193631c8f084760e01b83528b600484015260248301525af4948515612934578899989798956128f9575b50600181018054909488949392916001600160a01b03168a6127c58587613ec9565b906127cf92614196565b50600282018054909a6127ed918591906001600160a01b0316614196565b5081546001600160a01b0316816128048a80613ec9565b9061280e92614196565b5089546128259188916001600160a01b0316614196565b5054935497546040516001600160a01b03998a169a958a1699909116968a968a968893889391929091829161285c91338e85613ed6565b037f8af39814826d4542f7fe66e6fa6ac2ac59bfc8221394f51a41dba5c54dba0ac991a460405191829161289291338985613ed6565b035f5160206143a05f395f51905f5291a4604080516001600160a01b039290921682523360208301527ffaee379435b6a0c297f1a08c66517fdc202debc6d275e6dd73630e3ebd1bdd9791a46006546128ea90613e45565b60065560405160018152602090f35b9291965093506020823d60201161292c575b8161291860209383613c7d565b8101031261050a57905187959093866127a3565b3d915061290b565b6040513d8b823e3d90fd5b9092506020813d60201161296c575b8161295b60209383613c7d565b8101031261050a575191602061276d565b3d915061294e565b6129819193505f90613c7d565b5f915f6126f2565b6040513d5f823e3d90fd5b5060028101546001600160a01b0316331461269f565b6129b336613a75565b91959360ff5f969492965460a01c16926129cc84613bea565b335f52600160205260405f2060018060a01b0389165f5260205260405f2054828110612d02575b506102209350612a3d90612a08838a336140ef565b5073__$69ea93bdf3b1e5da8164bfe3d9a878d765$__97604051998a95869563652e83d760e01b8752898b3360048a01613f31565b0381865af4938415612989575f94612ce1575b5060206005546102446040518096819363797d4ee160e01b8352612a77600484018b613afb565b6102248301525af4928315612989575f93612cad575b50612a99600554613e45565b6005555f83815260046020908152604091829020865181546001600160a01b039182166001600160a01b031991821617835592880151600183018054918316919094161790925591860151600283018054606089015160ff60a01b90151560a01b16929093166001600160a81b03199093169290921717815561020091600c91612b72905b6080890151815460ff60a81b191690151560a81b60ff60a81b1617815560a0890151815460c08b015161ffff60b01b1990911691151560b01b60ff60b01b169190911790151560b81b60ff60b81b16179055565b60e0870151600382015561010087015160048201556101208701516005820155610140870151600680830191909155610160880151600783015561018088015160088301556101a08801516009830180546001600160a01b039283166001600160a01b0319918216179091556101c08a0151600a850180549190931691161790556101e0880151600b8301559290960151950190851015612c995760209460ff801983541691161790556040519060018060a01b03169182825260018060a01b031690837f5e02698c1650d6cbe1f7e8a48609d0da45ad7f5e4c13cd8b196f82965c0ab0d5863393a480612c6a575b50604051908152f35b7f957372c0e02d2882134cc0eebbef9e446634d8ccbb1cbb112bdefdd3cf0a643c83604051848152a282612c61565b634e487b7160e01b5f52602160045260245ffd5b9092506020813d602011612cd9575b81612cc960209383613c7d565b8101031261050a57519184612a8d565b3d9150612cbc565b612cfb9194506102203d8111610d4f57610d418183613c7d565b9284612a50565b612d0f612d159184613ec9565b94613bea565b612d20841515613f00565b6002549060405191631c8f084760e01b8352856004840152602483015260208260448173__$8537b7efa173772577da826929141ce939$__5af4918215612989575f92612e8f575b506001600160a01b03891680612ddb57612d82838761407e565b34036103c55785612a3d93612d9b610220988d336142e4565b50600354612db59082908e906001600160a01b03166142e4565b505b60405191825260208201525f5160206143c05f395f51905f5260403392a3906129f3565b612de5838761407e565b604051906323b872dd60e01b825233600483015230602483015260448201526020816064815f865af1908115612989575f91612e55575b50156104685785612a3d93612e35610220988d336142e4565b50600354612e4f9082908e906001600160a01b03166142e4565b50612db7565b90506020813d602011612e87575b81612e7060209383613c7d565b8101031261050a57612e8190613cb3565b8b612e1c565b3d9150612e63565b9091506020813d602011612ebb575b81612eab60209383613c7d565b8101031261050a57519089612d68565b3d9150612e9e565b3461050a57610220612a3d612ed736613a75565b612eee60ff5f9a96949a9993995460a01c16613bea565b335f52600160205260405f2060018060a01b038a165f52602052612f188360405f20541015613c1b565b612a08838a336140ef565b3461050a57604036600319011261050a57600435612f3f6139c7565b612f476142be565b6001600160a01b03168015612fb65781604091612f8c6402540be4007f14bdaadaed0453e7b5b66195b42156ba995b9e5abd0da98368839851d69ad889951115613f00565b81600255806bffffffffffffffffffffffff60a01b600354161760035582519182526020820152a1005b60405162461bcd60e51b8152602060048201526002602482015261433160f01b6044820152606490fd5b3461050a575f36600319011261050a576003546040516001600160a01b039091168152602090f35b3461050a57602036600319011261050a57600435805f52600460205260405f2090600182019060018060a01b03825416331480156136ef575b80156136d9575b61305190613e67565b6002830192835460ff8160b81c16156136af578060ff61307c9260a01c161590816136a05750613e98565b600b81015442106136755760ff600c8201541660058201549160018060a01b0360098201541660068201549060018060a01b03600a840154169160078401549160088501549373__$8537b7efa173772577da826929141ce939$__9460405194631c8f084760e01b86528960048701526024860152602085604481895af4948515612989575f95613640575b50602090604460405180988193631c8f084760e01b835288600484015260248301525af4948515612989575f9561360c575b506006871015612c99578760048886858f8f8f915f5160206143605f395f51905f529f6102e09f8f938f90938e948d9315613531575b60028b14613456575b60018b14613368575b505050505050505050508d8685600384146132c9575b505050146131e7575b50508954600160a81b60ff60a81b19821617909a55505091549554604080516001600160a01b03998a168152336020820152918916989097169690938493509083019150565b848361322961324b9661320e61323a958b986107b58760018060a01b036003541693613ec9565b506003546001600160a01b03169086906107b5908990613ec9565b508d546001600160a01b0316614196565b508a546001600160a01b0316614196565b50825487548954600354604080516001600160a01b03938416815233602082015291831690820152606081018590526080810186905260a081019490945260c0840194909452831692169086907f8e100dc3335e09b082c843425f71ea8ae9d91ae5bb385ef4b41d0d2c6aa872149060e090a48680808080806131a1565b6132f1926132e1878a60018060a01b03845416614196565b50546001600160a01b0316614196565b5088548d548f54604080516001600160a01b0392831680825233602083015291810191909152606081018b9052608081018c90525f60a0820181905260c08201529181169216908e907f8e100dc3335e09b082c843425f71ea8ae9d91ae5bb385ef4b41d0d2c6aa872149060e090a48d8685613198565b877f8af39814826d4542f7fe66e6fa6ac2ac59bfc8221394f51a41dba5c54dba0ac9976133fc8561343f976133d08f5f5160206143805f395f51905f529f6133bf8d826107b58560018060a01b038c541693613ec9565b5089546001600160a01b0316614196565b5083546133eb906001600160a01b0316826107b5858f613ec9565b5086546001600160a01b0316614196565b5054915492546040516001600160a01b039485169c9385169b91909416968c948c949091829161342e91338c85613ed6565b0390a4604051938493339085613ed6565b0390a486858f8f8f9187898f938f90938e94613182565b8054613470906001600160a01b03168a6107b58d89613ec9565b508154613489908b908b906001600160a01b0316614196565b5080546134a4906001600160a01b0316856107b5868a613ec9565b5081546134bd90849086906001600160a01b0316614196565b505f5160206143a05f395f51905f528a895f5160206143405f395f51905f52898960018060a01b038d541694858560018060a01b038a541698899360018060a01b038d541695613514604051928392338a85613ed6565b0390a461352989604051938493339085613ed6565b0390a4613179565b865461354b906001600160a01b03168a6107b58d89613ec9565b508154613564908b908b906001600160a01b0316614196565b50805461357f906001600160a01b0316856107b5868a613ec9565b50815461359890849086906001600160a01b0316614196565b505f5160206143805f395f51905f528a895f5160206143405f395f51905f52898960018060a01b038d541694858560018060a01b038a541698899360018060a01b038d5416956135ef604051928392338a85613ed6565b0390a461360489604051938493339085613ed6565b0390a4613170565b9094506020813d602011613638575b8161362860209383613c7d565b8101031261050a5751938b61313a565b3d915061361b565b9094506020813d60201161366d575b8161365c60209383613c7d565b8101031261050a5751936020613108565b3d915061364f565b606460405162461bcd60e51b815260206004820152600460248201526344312e3160e01b6044820152fd5b60ff915060a81c16158661109e565b60405162461bcd60e51b8152602060048201526002602482015261221960f11b6044820152606490fd5b5060028301546001600160a01b03163314613048565b5082546001600160a01b03163314613041565b3461050a5761022061379e613716366139f3565b9261373460ff5f9d99979d9c969c9b9a9b9493945460a01c16613bea565b335f52600160205260405f2060018060a01b0382165f5260205261375e8660405f20541015613c1b565b6137698682336140ef565b5073__$69ea93bdf3b1e5da8164bfe3d9a878d765$__9a6040519c8d98899863652e83d760e01b8a528d8d3360048d01613dd9565b0381865af4938415612989575f946139a6575b5060206005546102446040518096819363797d4ee160e01b83526137d8600484018b613afb565b6102248301525af4928315612989575f93613972575b506137fa600554613e45565b6005555f83815260046020908152604091829020865181546001600160a01b039182166001600160a01b031991821617835592880151600183018054918316919094161790925591860151600283018054606089015160ff60a01b90151560a01b16929093166001600160a81b03199093169290921717815561020091600c9161388390612b1e565b60e0870151600382015561010087015160048201556101208701516005820155610140870151600680830191909155610160880151600783015561018088015160088301556101a08801516009830180546001600160a01b039283166001600160a01b0319918216179091556101c08a0151600a850180549190931691161790556101e0880151600b8301559290960151950190851015612c995760209460ff801983541691161790556040519160018060a01b0316825260018060a01b031690827f44e1ff8e67fad6b456bd43ff165ba4e9bb004370aa27a76881c6acb60dfd6dd9853393a4604051908152f35b9092506020813d60201161399e575b8161398e60209383613c7d565b8101031261050a575191846137ee565b3d9150613981565b6139c09194506102203d8111610d4f57610d418183613c7d565b92846137b1565b602435906001600160a01b038216820361050a57565b600435906001600160a01b038216820361050a57565b61014090600319011261050a576004356001600160a01b038116810361050a57906024356001600160a01b038116810361050a579060443590606435906084359060a4359060c4356001600160a01b038116810361050a579060e4356001600160a01b038116810361050a5790610104359061012435600681101561050a5790565b60e090600319011261050a576004356001600160a01b038116810361050a57906024356001600160a01b038116810361050a579060443590606435906084356001600160a01b038116810361050a579060a4359060c435600681101561050a5790565b604090600319011261050a576004359060243590565b906006821015612c995752565b9061020080613be89360018060a01b03815116845260018060a01b03602082015116602085015260018060a01b03604082015116604085015260608101511515606085015260808101511515608085015260a0810151151560a085015260c0810151151560c085015260e081015160e085015261010081015161010085015261012081015161012085015261014081015161014085015261016081015161016085015261018081015161018085015260018060a01b036101a0820151166101a085015260018060a01b036101c0820151166101c08501526101e08101516101e08501520151910190613aee565b565b15613bf157565b60405162461bcd60e51b81526020600482015260026024820152614c3160f01b6044820152606490fd5b15613c2257565b60405162461bcd60e51b8152602060048201526002602482015261543160f01b6044820152606490fd5b610220810190811067ffffffffffffffff821117613c6957604052565b634e487b7160e01b5f52604160045260245ffd5b90601f8019910116810190811067ffffffffffffffff821117613c6957604052565b51906001600160a01b038216820361050a57565b5190811515820361050a57565b908161022091031261050a5761020060405191613cdc83613c4c565b613ce581613c9f565b8352613cf360208201613c9f565b6020840152613d0460408201613c9f565b6040840152613d1560608201613cb3565b6060840152613d2660808201613cb3565b6080840152613d3760a08201613cb3565b60a0840152613d4860c08201613cb3565b60c084015260e081015160e0840152610100810151610100840152610120810151610120840152610140810151610140840152610160810151610160840152610180810151610180840152613da06101a08201613c9f565b6101a0840152613db36101c08201613c9f565b6101c08401526101e08101516101e08401520151600681101561050a5761020082015290565b6001600160a01b039182168152918116602083015291821660408201526060810192909252608082019290925260a081019290925260c082019290925291811660e083015290911661010082015261012081019190915261016081019291613be8916101400190613aee565b5f198114613e535760010190565b634e487b7160e01b5f52601160045260245ffd5b15613e6e57565b60405162461bcd60e51b8152602060048201526002602482015261443560f01b6044820152606490fd5b15613e9f57565b60405162461bcd60e51b8152602060048201526002602482015261443360f01b6044820152606490fd5b91908203918211613e5357565b6001600160a01b039182168152911660208201526040810191909152606081019190915260800190565b15613f0757565b60405162461bcd60e51b8152602060048201526002602482015261433560f01b6044820152606490fd5b6001600160a01b0391821681529181166020830152918216604082015260608101929092525f6080830181905260a083019390935260c0820183905290921660e083015261010082015261012081019190915261016081019291613be8916101400190613aee565b81546001600160a01b0390811682526001830154811660208301526002830154808216604084015260ff60a082811c82161515606086015260a883901c82161515608086015260b083901c821615159085015260b89190911c8116151560c0840152600384015460e084015260048401546101008401526005840154610120840152600684015461014084015260078401546101608401526008840154610180840152600984015482166101a0840152600a8401549091166101c0830152600b8301546101e0830152600c9092015461022082019392613be892610200019116613aee565b91908201809211613e5357565b1561409257565b606460405162461bcd60e51b815260206004820152600460248201526344332e3160e01b6044820152fd5b156140c457565b606460405162461bcd60e51b815260206004820152600460248201526344322e3160e01b6044820152fd5b821561418e5760018060a01b031690815f52600160205260405f2060018060a01b0382165f526020528260405f205410614187577fd1398bee19313d6bf672ccb116e51f4a1a947e91c757907f51fbb5b5e56c698f60205f92848452600182526040842060018060a01b038216855282526040842061416f878254613ec9565b90556040519586526001600160a01b031694a4600190565b5050505f90565b505050600190565b9190811561418e576001600160a01b031691826141fe575f808080856001600160a01b03861682f1156129895760207f2717ead6b9200dd235aad468c9809ea400fe33ac69b5bfaa6d3e90fc922b6398915b6040519384526001600160a01b031692a3600190565b60405163a9059cbb60e01b81526001600160a01b0382166004820152602481018390526020816044815f885af1801561298957614260575b5060207f2717ead6b9200dd235aad468c9809ea400fe33ac69b5bfaa6d3e90fc922b6398916141e8565b6020813d6020116142b6575b8161427960209383613c7d565b8101031261050a577f2717ead6b9200dd235aad468c9809ea400fe33ac69b5bfaa6d3e90fc922b6398916142ae602092613cb3565b509150614236565b3d915061426c565b5f546001600160a01b031633036142d157565b63118cdaa760e01b5f523360045260245ffd5b821561418e577fd1398bee19313d6bf672ccb116e51f4a1a947e91c757907f51fbb5b5e56c698f60205f9260018060a01b031693848452600182526040842060018060a01b038216855282526040842061416f87825461407e56feafbe337783658b293f1566e1790bfab9858b8cf08de944ca3cd013d4211887b8086c61b89ef5fcdb14c243b643069c3c6a84765b27f2a696b875dddf031afb4da6af192380b5ba311ac003f57efa2be0717f0e466318c7e9cf546c4937a03d94f05d33634b730e763d232b482cf835a4481835f62d0a0973b42018a8ead4f047dcbc1c05240f31ff3ad067ef1ee35ce4997762752e3a095284754544f4c709d7a2646970667358221220267b3f2fb995c100a30a1def7612ac0e764921edf870b98f7a88a7be5a4dcbeb64736f6c634300081c0033",
			"opcodes": "PUSH1 0x80 CALLVALUE PUSH2 0x152 JUMPI PUSH1 0x1F PUSH2 0x4580 CODESIZE DUP2 SWAP1 SUB SWAP2 DUP3 ADD PUSH1 0x1F NOT AND DUP4 ADD SWAP2 PUSH1 0x1 PUSH1 0x1 PUSH1 0x40 SHL SUB DUP4 GT DUP5 DUP5 LT OR PUSH2 0x156 JUMPI DUP1 DUP5 SWAP3 PUSH1 0x40 SWAP5 DUP6 MSTORE DUP4 CODECOPY DUP2 ADD SUB SLT PUSH2 0x152 JUMPI DUP1 MLOAD PUSH1 0x20 SWAP1 SWAP2 ADD MLOAD PUSH1 0x1 PUSH1 0x1 PUSH1 0xA0 SHL SUB DUP2 AND SWAP2 SWAP1 DUP3 SWAP1 SUB PUSH2 0x152 JUMPI CALLER ISZERO PUSH2 0x13F JUMPI PUSH0 DUP1 SLOAD PUSH1 0x40 MLOAD SWAP2 CALLER SWAP1 PUSH1 0x1 PUSH1 0x1 PUSH1 0xA0 SHL SUB DUP4 AND SWAP1 PUSH32 0x8BE0079C531659141344CD1FD0A4F28419497F9722A3DAAFE3B4186F6B6457E0 SWAP1 DUP1 LOG3 PUSH1 0x1 PUSH1 0x1 PUSH1 0xA8 SHL SUB NOT AND CALLER PUSH1 0xFF PUSH1 0xA0 SHL NOT AND OR PUSH1 0x1 PUSH1 0xA0 SHL OR PUSH0 SSTORE DUP3 ISZERO PUSH2 0x118 JUMPI POP PUSH5 0x2540BE400 DUP2 GT PUSH2 0xEE JUMPI PUSH1 0x2 SSTORE PUSH1 0x1 DUP1 PUSH1 0xA0 SHL SUB NOT PUSH1 0x3 SLOAD AND OR PUSH1 0x3 SSTORE PUSH0 PUSH1 0x5 SSTORE PUSH0 PUSH1 0x6 SSTORE PUSH1 0x40 MLOAD PUSH2 0x4415 SWAP1 DUP2 PUSH2 0x16B DUP3 CODECOPY RETURN JUMPDEST PUSH1 0x40 MLOAD PUSH3 0x461BCD PUSH1 0xE5 SHL DUP2 MSTORE PUSH1 0x20 PUSH1 0x4 DUP3 ADD MSTORE PUSH1 0x2 PUSH1 0x24 DUP3 ADD MSTORE PUSH2 0x4335 PUSH1 0xF0 SHL PUSH1 0x44 DUP3 ADD MSTORE PUSH1 0x64 SWAP1 REVERT JUMPDEST PUSH3 0x461BCD PUSH1 0xE5 SHL DUP2 MSTORE PUSH1 0x20 PUSH1 0x4 DUP3 ADD MSTORE PUSH1 0x2 PUSH1 0x24 DUP3 ADD MSTORE PUSH2 0x4331 PUSH1 0xF0 SHL PUSH1 0x44 DUP3 ADD MSTORE PUSH1 0x64 SWAP1 REVERT JUMPDEST PUSH4 0x1E4FBDF7 PUSH1 0xE0 SHL PUSH0 MSTORE PUSH0 PUSH1 0x4 MSTORE PUSH1 0x24 PUSH0 REVERT JUMPDEST PUSH0 DUP1 REVERT JUMPDEST PUSH4 0x4E487B71 PUSH1 0xE0 SHL PUSH0 MSTORE PUSH1 0x41 PUSH1 0x4 MSTORE PUSH1 0x24 PUSH0 REVERT INVALID PUSH1 0x80 PUSH1 0x40 MSTORE PUSH1 0x4 CALLDATASIZE LT ISZERO PUSH2 0x11 JUMPI PUSH0 DUP1 REVERT JUMPDEST PUSH0 PUSH0 CALLDATALOAD PUSH1 0xE0 SHR DUP1 PUSH3 0x7E8BD3 EQ PUSH2 0x3702 JUMPI DUP1 PUSH4 0x44A6DA1 EQ PUSH2 0x3008 JUMPI DUP1 PUSH4 0x6FD154A EQ PUSH2 0x2FE0 JUMPI DUP1 PUSH4 0x15F8A314 EQ PUSH2 0x2F23 JUMPI DUP1 PUSH4 0x17B52B50 EQ PUSH2 0x2EC3 JUMPI DUP1 PUSH4 0x28D5A050 EQ PUSH2 0x29AA JUMPI DUP1 PUSH4 0x30E97AE1 EQ PUSH2 0x266B JUMPI DUP1 PUSH4 0x367EDD32 EQ PUSH2 0x25EC JUMPI DUP1 PUSH4 0x39B3EDB0 EQ PUSH2 0x2549 JUMPI DUP1 PUSH4 0x4187129C EQ PUSH2 0x24AF JUMPI DUP1 PUSH4 0x41B3A0D9 EQ PUSH2 0x248A JUMPI DUP1 PUSH4 0x47E7EF24 EQ PUSH2 0x22C7 JUMPI DUP1 PUSH4 0x4DFF0036 EQ PUSH2 0x2132 JUMPI DUP1 PUSH4 0x51A6FAD5 EQ PUSH2 0x1F89 JUMPI DUP1 PUSH4 0x70A08231 EQ PUSH2 0x1F48 JUMPI DUP1 PUSH4 0x715018A6 EQ PUSH2 0x1EEE JUMPI DUP1 PUSH4 0x80CCB070 EQ PUSH2 0x1E34 JUMPI DUP1 PUSH4 0x81CD872A EQ PUSH2 0x1D09 JUMPI DUP1 PUSH4 0x894BA833 EQ PUSH2 0x1C91 JUMPI DUP1 PUSH4 0x899A3FFD EQ PUSH2 0x1C73 JUMPI DUP1 PUSH4 0x8DA5CB5B EQ PUSH2 0x1C4C JUMPI DUP1 PUSH4 0x8DEEA5FB EQ PUSH2 0x1B7A JUMPI DUP1 PUSH4 0x966D1F1D EQ PUSH2 0x1B5C JUMPI DUP1 PUSH4 0xA4F60B16 EQ PUSH2 0x19C7 JUMPI DUP1 PUSH4 0xA7170106 EQ PUSH2 0x1677 JUMPI DUP1 PUSH4 0xB7DC14FE EQ PUSH2 0x1364 JUMPI DUP1 PUSH4 0xBB06C1A4 EQ PUSH2 0x1030 JUMPI DUP1 PUSH4 0xBEABACC8 EQ PUSH2 0xF42 JUMPI DUP1 PUSH4 0xC23F001F EQ PUSH2 0x547 JUMPI DUP1 PUSH4 0xCFADF6C7 EQ PUSH2 0xA28 JUMPI DUP1 PUSH4 0xD747B811 EQ PUSH2 0x88B JUMPI DUP1 PUSH4 0xE08560A4 EQ PUSH2 0x86D JUMPI DUP1 PUSH4 0xF2D5EC3D EQ PUSH2 0x687 JUMPI DUP1 PUSH4 0xF2FDE38B EQ PUSH2 0x601 JUMPI DUP1 PUSH4 0xF3FEF3A3 EQ PUSH2 0x59A JUMPI DUP1 PUSH4 0xF7888AEC EQ PUSH2 0x547 JUMPI PUSH4 0xFBB405DB EQ PUSH2 0x1B0 JUMPI PUSH0 DUP1 REVERT JUMPDEST PUSH2 0x1B9 CALLDATASIZE PUSH2 0x3AD8 JUMP JUMPDEST SWAP1 DUP1 DUP4 MSTORE PUSH1 0x4 PUSH1 0x20 MSTORE PUSH1 0x40 DUP4 KECCAK256 SWAP3 PUSH2 0x1DB PUSH1 0x1 DUP1 PUSH1 0xA0 SHL SUB DUP6 SLOAD AND CALLER EQ PUSH2 0x3E67 JUMP JUMPDEST PUSH20 0x0 DUP1 EXTCODESIZE ISZERO PUSH2 0x543 JUMPI DUP2 PUSH1 0x40 MLOAD DUP1 SWAP3 PUSH4 0x252A867 PUSH1 0xE5 SHL DUP3 MSTORE DUP2 DUP1 PUSH2 0x216 DUP11 PUSH1 0x4 DUP4 ADD PUSH2 0x3F99 JUMP JUMPDEST SUB SWAP2 GAS DELEGATECALL DUP1 ISZERO PUSH2 0x538 JUMPI SWAP1 DUP3 SWAP2 PUSH2 0x523 JUMPI JUMPDEST POP POP PUSH1 0x9 DUP5 ADD DUP1 SLOAD CALLER PUSH0 SWAP1 DUP2 MSTORE PUSH1 0x1 PUSH1 0x20 SWAP1 DUP2 MSTORE PUSH1 0x40 DUP1 DUP4 KECCAK256 PUSH1 0x1 PUSH1 0x1 PUSH1 0xA0 SHL SUB SWAP1 SWAP5 AND DUP1 DUP5 MSTORE SWAP4 SWAP1 SWAP2 MSTORE SWAP1 KECCAK256 SLOAD SWAP1 SWAP3 DUP6 SWAP3 SWAP2 DUP4 DUP2 LT PUSH2 0x2EE JUMPI JUMPDEST POP POP SLOAD PUSH2 0x27A SWAP3 POP PUSH1 0x1 PUSH1 0x1 PUSH1 0xA0 SHL SUB AND CALLER PUSH2 0x40EF JUMP JUMPDEST POP PUSH1 0x5 DUP4 ADD PUSH2 0x28A DUP4 DUP3 SLOAD PUSH2 0x407E JUMP JUMPDEST SWAP1 SSTORE DUP3 SLOAD PUSH1 0x1 DUP5 ADD SLOAD PUSH1 0x2 SWAP1 SWAP5 ADD SLOAD PUSH1 0x40 DUP1 MLOAD PUSH1 0x1 PUSH1 0x1 PUSH1 0xA0 SHL SUB SWAP3 DUP4 AND DUP2 MSTORE PUSH1 0x20 DUP2 ADD SWAP6 SWAP1 SWAP6 MSTORE SWAP5 DUP2 AND SWAP5 SWAP2 AND SWAP3 PUSH32 0x3C0DD30126238EAEBBB306E073222EECD03A091D41C39A4B2742759D406C8F55 SWAP2 DUP2 SWAP1 DUP2 ADD JUMPDEST SUB SWAP1 LOG4 PUSH1 0x20 PUSH1 0x40 MLOAD PUSH1 0x1 DUP2 MSTORE RETURN JUMPDEST PUSH2 0x2F8 SWAP2 SWAP4 PUSH2 0x3EC9 JUMP JUMPDEST SWAP3 PUSH2 0x309 PUSH1 0xFF DUP5 SLOAD PUSH1 0xA0 SHR AND PUSH2 0x3BEA JUMP JUMPDEST PUSH2 0x314 DUP5 ISZERO ISZERO PUSH2 0x3F00 JUMP JUMPDEST PUSH1 0x2 SLOAD SWAP3 PUSH1 0x40 MLOAD SWAP4 PUSH4 0x1C8F0847 PUSH1 0xE0 SHL DUP6 MSTORE DUP6 PUSH1 0x4 DUP7 ADD MSTORE PUSH1 0x24 DUP6 ADD MSTORE PUSH1 0x20 DUP5 PUSH1 0x44 DUP2 PUSH20 0x0 GAS DELEGATECALL SWAP4 DUP5 ISZERO PUSH2 0x516 JUMPI DUP2 SWAP5 PUSH2 0x4DE JUMPI JUMPDEST POP DUP2 PUSH2 0x3EF JUMPI POP PUSH2 0x36D DUP4 DUP6 PUSH2 0x407E JUMP JUMPDEST CALLVALUE SUB PUSH2 0x3C5 JUMPI DUP4 DUP7 SWAP4 PUSH2 0x384 PUSH2 0x27A SWAP7 DUP5 CALLER PUSH2 0x42E4 JUMP JUMPDEST POP PUSH1 0x3 SLOAD PUSH2 0x39E SWAP1 DUP3 SWAP1 DUP6 SWAP1 PUSH1 0x1 PUSH1 0x1 PUSH1 0xA0 SHL SUB AND PUSH2 0x42E4 JUMP JUMPDEST POP JUMPDEST PUSH1 0x40 MLOAD SWAP2 DUP3 MSTORE PUSH1 0x20 DUP3 ADD MSTORE PUSH0 MLOAD PUSH1 0x20 PUSH2 0x43C0 PUSH0 CODECOPY PUSH0 MLOAD SWAP1 PUSH0 MSTORE PUSH1 0x40 CALLER SWAP3 LOG3 PUSH0 DUP1 PUSH2 0x263 JUMP JUMPDEST PUSH1 0x40 MLOAD PUSH3 0x461BCD PUSH1 0xE5 SHL DUP2 MSTORE PUSH1 0x20 PUSH1 0x4 DUP3 ADD MSTORE PUSH1 0x2 PUSH1 0x24 DUP3 ADD MSTORE PUSH2 0x10CD PUSH1 0xF2 SHL PUSH1 0x44 DUP3 ADD MSTORE PUSH1 0x64 SWAP1 REVERT JUMPDEST PUSH2 0x3F9 DUP5 DUP7 PUSH2 0x407E JUMP JUMPDEST PUSH1 0x40 MLOAD SWAP1 PUSH4 0x23B872DD PUSH1 0xE0 SHL DUP3 MSTORE CALLER PUSH1 0x4 DUP4 ADD MSTORE ADDRESS PUSH1 0x24 DUP4 ADD MSTORE PUSH1 0x44 DUP3 ADD MSTORE PUSH1 0x20 DUP2 PUSH1 0x64 DUP2 DUP6 DUP8 GAS CALL SWAP2 DUP3 ISZERO PUSH2 0x4D2 JUMPI DUP1 SWAP3 PUSH2 0x492 JUMPI JUMPDEST POP POP ISZERO PUSH2 0x468 JUMPI DUP4 DUP7 SWAP4 PUSH2 0x448 PUSH2 0x27A SWAP7 DUP5 CALLER PUSH2 0x42E4 JUMP JUMPDEST POP PUSH1 0x3 SLOAD PUSH2 0x462 SWAP1 DUP3 SWAP1 DUP6 SWAP1 PUSH1 0x1 PUSH1 0x1 PUSH1 0xA0 SHL SUB AND PUSH2 0x42E4 JUMP JUMPDEST POP PUSH2 0x3A0 JUMP JUMPDEST PUSH1 0x40 MLOAD PUSH3 0x461BCD PUSH1 0xE5 SHL DUP2 MSTORE PUSH1 0x20 PUSH1 0x4 DUP3 ADD MSTORE PUSH1 0x2 PUSH1 0x24 DUP3 ADD MSTORE PUSH2 0x2A19 PUSH1 0xF1 SHL PUSH1 0x44 DUP3 ADD MSTORE PUSH1 0x64 SWAP1 REVERT JUMPDEST SWAP1 SWAP2 POP PUSH1 0x20 DUP3 RETURNDATASIZE PUSH1 0x20 GT PUSH2 0x4CA JUMPI JUMPDEST DUP2 PUSH2 0x4AE PUSH1 0x20 SWAP4 DUP4 PUSH2 0x3C7D JUMP JUMPDEST DUP2 ADD SUB SLT PUSH2 0x4C7 JUMPI POP PUSH2 0x4C0 SWAP1 PUSH2 0x3CB3 JUMP JUMPDEST PUSH0 DUP1 PUSH2 0x430 JUMP JUMPDEST DUP1 REVERT JUMPDEST RETURNDATASIZE SWAP2 POP PUSH2 0x4A1 JUMP JUMPDEST PUSH1 0x40 MLOAD SWAP1 RETURNDATASIZE SWAP1 DUP3 RETURNDATACOPY RETURNDATASIZE SWAP1 REVERT JUMPDEST SWAP1 SWAP4 POP PUSH1 0x20 DUP2 RETURNDATASIZE PUSH1 0x20 GT PUSH2 0x50E JUMPI JUMPDEST DUP2 PUSH2 0x4FA PUSH1 0x20 SWAP4 DUP4 PUSH2 0x3C7D JUMP JUMPDEST DUP2 ADD SUB SLT PUSH2 0x50A JUMPI MLOAD SWAP3 PUSH0 PUSH2 0x35C JUMP JUMPDEST PUSH0 DUP1 REVERT JUMPDEST RETURNDATASIZE SWAP2 POP PUSH2 0x4ED JUMP JUMPDEST POP PUSH1 0x40 MLOAD SWAP1 RETURNDATASIZE SWAP1 DUP3 RETURNDATACOPY RETURNDATASIZE SWAP1 REVERT JUMPDEST DUP2 PUSH2 0x52D SWAP2 PUSH2 0x3C7D JUMP JUMPDEST PUSH2 0x4C7 JUMPI DUP1 PUSH0 PUSH2 0x228 JUMP JUMPDEST PUSH1 0x40 MLOAD RETURNDATASIZE DUP5 DUP3 RETURNDATACOPY RETURNDATASIZE SWAP1 REVERT JUMPDEST POP DUP1 REVERT JUMPDEST POP CALLVALUE PUSH2 0x4C7 JUMPI PUSH1 0x40 CALLDATASIZE PUSH1 0x3 NOT ADD SLT PUSH2 0x4C7 JUMPI PUSH1 0x40 PUSH2 0x563 PUSH2 0x39DD JUMP JUMPDEST SWAP2 PUSH2 0x56C PUSH2 0x39C7 JUMP JUMPDEST SWAP3 PUSH1 0x1 DUP1 PUSH1 0xA0 SHL SUB AND DUP2 MSTORE PUSH1 0x1 PUSH1 0x20 MSTORE KECCAK256 SWAP1 PUSH1 0x1 DUP1 PUSH1 0xA0 SHL SUB AND PUSH0 MSTORE PUSH1 0x20 MSTORE PUSH1 0x20 PUSH1 0x40 PUSH0 KECCAK256 SLOAD PUSH1 0x40 MLOAD SWAP1 DUP2 MSTORE RETURN JUMPDEST POP CALLVALUE PUSH2 0x4C7 JUMPI PUSH1 0x40 CALLDATASIZE PUSH1 0x3 NOT ADD SLT PUSH2 0x4C7 JUMPI PUSH2 0x5F7 PUSH1 0x20 SWAP2 PUSH2 0x5BA PUSH2 0x39DD JUMP JUMPDEST PUSH1 0x40 PUSH1 0x24 CALLDATALOAD SWAP3 CALLER DUP2 MSTORE PUSH1 0x1 DUP7 MSTORE KECCAK256 PUSH1 0x1 DUP1 PUSH1 0xA0 SHL SUB DUP3 AND PUSH0 MSTORE DUP5 MSTORE PUSH2 0x5E5 DUP3 PUSH1 0x40 PUSH0 KECCAK256 SLOAD LT ISZERO PUSH2 0x3C1B JUMP JUMPDEST PUSH2 0x5F0 DUP3 DUP3 CALLER PUSH2 0x40EF JUMP JUMPDEST POP CALLER PUSH2 0x4196 JUMP JUMPDEST PUSH1 0x40 MLOAD SWAP1 ISZERO ISZERO DUP2 MSTORE RETURN JUMPDEST POP CALLVALUE PUSH2 0x4C7 JUMPI PUSH1 0x20 CALLDATASIZE PUSH1 0x3 NOT ADD SLT PUSH2 0x4C7 JUMPI PUSH2 0x61B PUSH2 0x39DD JUMP JUMPDEST PUSH2 0x623 PUSH2 0x42BE JUMP JUMPDEST PUSH1 0x1 PUSH1 0x1 PUSH1 0xA0 SHL SUB AND DUP1 ISZERO PUSH2 0x673 JUMPI DUP2 SLOAD PUSH1 0x1 PUSH1 0x1 PUSH1 0xA0 SHL SUB NOT DUP2 AND DUP3 OR DUP4 SSTORE PUSH1 0x1 PUSH1 0x1 PUSH1 0xA0 SHL SUB AND PUSH32 0x8BE0079C531659141344CD1FD0A4F28419497F9722A3DAAFE3B4186F6B6457E0 DUP4 DUP1 LOG3 DUP1 RETURN JUMPDEST PUSH4 0x1E4FBDF7 PUSH1 0xE0 SHL DUP3 MSTORE PUSH1 0x4 DUP3 SWAP1 MSTORE PUSH1 0x24 DUP3 REVERT JUMPDEST POP CALLVALUE PUSH2 0x4C7 JUMPI PUSH2 0x696 CALLDATASIZE PUSH2 0x3AD8 JUMP JUMPDEST SWAP1 DUP1 DUP4 MSTORE PUSH1 0x4 PUSH1 0x20 MSTORE PUSH1 0x40 DUP4 KECCAK256 SWAP3 PUSH1 0x1 DUP5 ADD SWAP3 PUSH1 0x1 DUP1 PUSH1 0xA0 SHL SUB DUP5 SLOAD AND CALLER EQ DUP1 ISZERO PUSH2 0x857 JUMPI JUMPDEST PUSH2 0x6C5 SWAP1 PUSH2 0x3E67 JUMP JUMPDEST PUSH20 0x0 DUP1 EXTCODESIZE ISZERO PUSH2 0x853 JUMPI DUP3 PUSH1 0x40 MLOAD DUP1 SWAP3 PUSH4 0x252A867 PUSH1 0xE5 SHL DUP3 MSTORE DUP2 DUP1 PUSH2 0x700 DUP12 PUSH1 0x4 DUP4 ADD PUSH2 0x3F99 JUMP JUMPDEST SUB SWAP2 GAS DELEGATECALL DUP1 ISZERO PUSH2 0x848 JUMPI SWAP1 DUP4 SWAP2 PUSH2 0x833 JUMPI JUMPDEST POP POP PUSH1 0x5 DUP6 ADD PUSH2 0x72E DUP3 DUP3 SLOAD PUSH2 0x729 DUP3 DUP3 LT PUSH2 0x3C1B JUMP JUMPDEST PUSH2 0x3EC9 JUMP JUMPDEST SWAP1 SSTORE PUSH1 0x1 DUP1 PUSH1 0xA0 SHL SUB PUSH1 0x9 DUP7 ADD SLOAD AND SWAP5 PUSH1 0x7 DUP2 ADD SLOAD PUSH1 0x40 MLOAD SWAP1 PUSH4 0x1C8F0847 PUSH1 0xE0 SHL DUP3 MSTORE DUP4 PUSH1 0x4 DUP4 ADD MSTORE PUSH1 0x24 DUP3 ADD MSTORE PUSH1 0x20 DUP2 PUSH1 0x44 DUP2 PUSH20 0x0 GAS DELEGATECALL SWAP4 DUP5 ISZERO PUSH2 0x4D2 JUMPI SWAP4 PUSH2 0x7FD JUMPI JUMPDEST POP DUP1 SLOAD PUSH0 MLOAD PUSH1 0x20 PUSH2 0x4380 PUSH0 CODECOPY PUSH0 MLOAD SWAP1 PUSH0 MSTORE SWAP4 SWAP2 PUSH2 0x2E0 SWAP2 PUSH2 0x7BB SWAP1 PUSH1 0x1 PUSH1 0x1 PUSH1 0xA0 SHL SUB AND DUP10 PUSH2 0x7B5 DUP7 DUP9 PUSH2 0x3EC9 JUMP JUMPDEST SWAP2 PUSH2 0x4196 JUMP JUMPDEST POP PUSH2 0x7D4 DUP4 PUSH1 0x2 DUP4 ADD SWAP10 PUSH1 0x1 DUP1 PUSH1 0xA0 SHL SUB DUP12 SLOAD AND PUSH2 0x4196 JUMP JUMPDEST POP SLOAD SWAP6 SLOAD SWAP7 SLOAD PUSH1 0x40 MLOAD PUSH1 0x1 PUSH1 0x1 PUSH1 0xA0 SHL SUB SWAP9 DUP10 AND SWAP9 SWAP8 DUP9 AND SWAP8 SWAP1 SWAP5 DUP6 SWAP5 SWAP3 SWAP1 SWAP2 CALLER SWAP2 AND DUP6 PUSH2 0x3ED6 JUMP JUMPDEST SWAP3 POP PUSH1 0x20 DUP4 RETURNDATASIZE PUSH1 0x20 GT PUSH2 0x82B JUMPI JUMPDEST DUP2 PUSH2 0x818 PUSH1 0x20 SWAP4 DUP4 PUSH2 0x3C7D JUMP JUMPDEST DUP2 ADD SUB SLT PUSH2 0x50A JUMPI SWAP2 MLOAD SWAP2 PUSH2 0x2E0 PUSH2 0x786 JUMP JUMPDEST RETURNDATASIZE SWAP2 POP PUSH2 0x80B JUMP JUMPDEST DUP2 PUSH2 0x83D SWAP2 PUSH2 0x3C7D JUMP JUMPDEST PUSH2 0x543 JUMPI DUP2 PUSH0 PUSH2 0x712 JUMP JUMPDEST PUSH1 0x40 MLOAD RETURNDATASIZE DUP6 DUP3 RETURNDATACOPY RETURNDATASIZE SWAP1 REVERT JUMPDEST DUP3 DUP1 REVERT JUMPDEST POP PUSH1 0x2 DUP6 ADD SLOAD PUSH1 0x1 PUSH1 0x1 PUSH1 0xA0 SHL SUB AND CALLER EQ PUSH2 0x6BC JUMP JUMPDEST POP CALLVALUE PUSH2 0x4C7 JUMPI DUP1 PUSH1 0x3 NOT CALLDATASIZE ADD SLT PUSH2 0x4C7 JUMPI PUSH1 0x20 PUSH1 0x6 SLOAD PUSH1 0x40 MLOAD SWAP1 DUP2 MSTORE RETURN JUMPDEST POP CALLVALUE PUSH2 0x4C7 JUMPI PUSH2 0x89A CALLDATASIZE PUSH2 0x3AD8 JUMP JUMPDEST SWAP1 DUP1 DUP4 MSTORE PUSH1 0x4 PUSH1 0x20 MSTORE PUSH1 0x40 DUP4 KECCAK256 SWAP3 PUSH1 0x1 DUP5 ADD SWAP3 PUSH1 0x1 DUP1 PUSH1 0xA0 SHL SUB DUP5 SLOAD AND CALLER EQ DUP1 ISZERO PUSH2 0xA12 JUMPI JUMPDEST PUSH2 0x8C9 SWAP1 PUSH2 0x3E67 JUMP JUMPDEST PUSH20 0x0 DUP1 EXTCODESIZE ISZERO PUSH2 0x853 JUMPI DUP3 PUSH1 0x40 MLOAD DUP1 SWAP3 PUSH4 0x252A867 PUSH1 0xE5 SHL DUP3 MSTORE DUP2 DUP1 PUSH2 0x904 DUP12 PUSH1 0x4 DUP4 ADD PUSH2 0x3F99 JUMP JUMPDEST SUB SWAP2 GAS DELEGATECALL DUP1 ISZERO PUSH2 0x848 JUMPI SWAP1 DUP4 SWAP2 PUSH2 0x9FD JUMPI JUMPDEST POP POP PUSH1 0x6 DUP6 ADD PUSH2 0x92D DUP3 DUP3 SLOAD PUSH2 0x729 DUP3 DUP3 LT PUSH2 0x3C1B JUMP JUMPDEST SWAP1 SSTORE PUSH1 0x1 DUP1 PUSH1 0xA0 SHL SUB PUSH1 0xA DUP7 ADD SLOAD AND SWAP5 PUSH1 0x8 DUP2 ADD SLOAD PUSH1 0x40 MLOAD SWAP1 PUSH4 0x1C8F0847 PUSH1 0xE0 SHL DUP3 MSTORE DUP4 PUSH1 0x4 DUP4 ADD MSTORE PUSH1 0x24 DUP3 ADD MSTORE PUSH1 0x20 DUP2 PUSH1 0x44 DUP2 PUSH20 0x0 GAS DELEGATECALL SWAP4 DUP5 ISZERO PUSH2 0x4D2 JUMPI SWAP4 PUSH2 0x9C7 JUMPI JUMPDEST POP DUP1 SLOAD PUSH32 0x8AF39814826D4542F7FE66E6FA6AC2AC59BFC8221394F51A41DBA5C54DBA0AC9 SWAP4 SWAP2 PUSH2 0x2E0 SWAP2 PUSH2 0x7BB SWAP1 PUSH1 0x1 PUSH1 0x1 PUSH1 0xA0 SHL SUB AND DUP10 PUSH2 0x7B5 DUP7 DUP9 PUSH2 0x3EC9 JUMP JUMPDEST SWAP3 POP PUSH1 0x20 DUP4 RETURNDATASIZE PUSH1 0x20 GT PUSH2 0x9F5 JUMPI JUMPDEST DUP2 PUSH2 0x9E2 PUSH1 0x20 SWAP4 DUP4 PUSH2 0x3C7D JUMP JUMPDEST DUP2 ADD SUB SLT PUSH2 0x50A JUMPI SWAP2 MLOAD SWAP2 PUSH2 0x2E0 PUSH2 0x985 JUMP JUMPDEST RETURNDATASIZE SWAP2 POP PUSH2 0x9D5 JUMP JUMPDEST DUP2 PUSH2 0xA07 SWAP2 PUSH2 0x3C7D JUMP JUMPDEST PUSH2 0x543 JUMPI DUP2 PUSH0 PUSH2 0x916 JUMP JUMPDEST POP PUSH1 0x2 DUP6 ADD SLOAD PUSH1 0x1 PUSH1 0x1 PUSH1 0xA0 SHL SUB AND CALLER EQ PUSH2 0x8C0 JUMP JUMPDEST POP PUSH2 0xA32 CALLDATASIZE PUSH2 0x39F3 JUMP JUMPDEST SWAP2 SWAP1 SWAP5 SWAP3 DUP9 SWAP5 DUP11 SWAP9 SWAP8 SWAP11 SWAP5 DUP13 PUSH1 0x40 PUSH1 0xFF DUP3 SLOAD PUSH1 0xA0 SHR AND SWAP2 PUSH2 0xA52 DUP4 PUSH2 0x3BEA JUMP JUMPDEST CALLER DUP2 MSTORE PUSH1 0x1 PUSH1 0x20 MSTORE KECCAK256 PUSH1 0x1 DUP1 PUSH1 0xA0 SHL SUB DUP6 AND PUSH0 MSTORE PUSH1 0x20 MSTORE PUSH1 0x40 PUSH0 KECCAK256 SLOAD DUP11 DUP2 LT PUSH2 0xD56 JUMPI JUMPDEST POP POP SWAP2 PUSH2 0xAC3 SWAP5 SWAP4 SWAP2 PUSH2 0x220 SWAP9 SWAP4 PUSH2 0xA8F DUP12 DUP5 CALLER PUSH2 0x40EF JUMP JUMPDEST POP PUSH1 0x40 MLOAD PUSH4 0x652E83D7 PUSH1 0xE0 SHL DUP2 MSTORE PUSH20 0x0 SWAP15 SWAP1 SWAP12 DUP13 SWAP11 DUP12 SWAP11 CALLER PUSH1 0x4 DUP14 ADD PUSH2 0x3DD9 JUMP JUMPDEST SUB DUP2 DUP8 GAS DELEGATECALL SWAP1 DUP2 ISZERO PUSH2 0xD1C JUMPI DUP6 SWAP2 PUSH2 0xD27 JUMPI JUMPDEST POP PUSH1 0x20 PUSH1 0x5 SLOAD PUSH2 0x244 PUSH1 0x40 MLOAD DUP1 SWAP8 DUP2 SWAP4 PUSH4 0x797D4EE1 PUSH1 0xE0 SHL DUP4 MSTORE PUSH2 0xAFD PUSH1 0x4 DUP5 ADD DUP9 PUSH2 0x3AFB JUMP JUMPDEST PUSH2 0x224 DUP4 ADD MSTORE GAS DELEGATECALL SWAP4 DUP5 ISZERO PUSH2 0xD1C JUMPI DUP6 SWAP5 PUSH2 0xCE8 JUMPI JUMPDEST POP PUSH2 0xB1F PUSH1 0x5 SLOAD PUSH2 0x3E45 JUMP JUMPDEST PUSH1 0x5 SSTORE DUP4 DUP6 MSTORE PUSH1 0x4 PUSH1 0x20 SWAP1 DUP2 MSTORE PUSH1 0x40 DUP1 DUP8 KECCAK256 DUP4 MLOAD DUP2 SLOAD PUSH1 0x1 PUSH1 0x1 PUSH1 0xA0 SHL SUB NOT SWAP1 DUP2 AND PUSH1 0x1 PUSH1 0x1 PUSH1 0xA0 SHL SUB SWAP3 DUP4 AND OR DUP4 SSTORE SWAP4 DUP6 ADD MLOAD PUSH1 0x1 DUP4 ADD DUP1 SLOAD SWAP1 SWAP6 AND SWAP1 DUP3 AND OR SWAP1 SWAP4 SSTORE SWAP1 DUP4 ADD MLOAD PUSH1 0x2 DUP3 ADD DUP1 SLOAD PUSH1 0x60 DUP7 ADD MLOAD PUSH1 0x80 DUP8 ADD MLOAD PUSH1 0xA0 DUP1 DUP10 ADD MLOAD PUSH1 0xC0 DUP11 ADD MLOAD PUSH1 0xFF PUSH1 0xB8 SHL SWAP1 ISZERO ISZERO PUSH1 0xB8 SHL AND PUSH1 0xFF PUSH1 0xB0 SHL SWAP2 ISZERO ISZERO PUSH1 0xB0 SHL SWAP2 SWAP1 SWAP2 AND PUSH1 0x1 PUSH1 0x1 PUSH1 0xC0 SHL SUB NOT SWAP1 SWAP6 AND SWAP7 SWAP1 SWAP9 AND SWAP6 SWAP1 SWAP6 OR SWAP2 ISZERO ISZERO SWAP1 SWAP5 SHL PUSH1 0xFF PUSH1 0xA0 SHL AND OR PUSH1 0xFF PUSH1 0xA8 SHL SWAP4 ISZERO ISZERO PUSH1 0xA8 SHL SWAP4 SWAP1 SWAP4 AND SWAP3 SWAP1 SWAP3 OR SWAP2 SWAP1 SWAP2 OR SWAP3 SWAP1 SWAP3 OR SWAP1 SWAP2 SSTORE PUSH2 0x200 SWAP1 PUSH1 0xC SWAP1 PUSH1 0xE0 DUP5 ADD MLOAD PUSH1 0x3 DUP3 ADD SSTORE PUSH2 0x100 DUP5 ADD MLOAD PUSH1 0x4 DUP3 ADD SSTORE PUSH2 0x120 DUP5 ADD MLOAD PUSH1 0x5 DUP3 ADD SSTORE PUSH2 0x140 DUP5 ADD MLOAD PUSH1 0x6 DUP1 DUP4 ADD SWAP2 SWAP1 SWAP2 SSTORE PUSH2 0x160 DUP6 ADD MLOAD PUSH1 0x7 DUP4 ADD SSTORE PUSH2 0x180 DUP6 ADD MLOAD PUSH1 0x8 DUP4 ADD SSTORE PUSH2 0x1A0 DUP6 ADD MLOAD PUSH1 0x9 DUP4 ADD DUP1 SLOAD PUSH1 0x1 PUSH1 0x1 PUSH1 0xA0 SHL SUB SWAP3 DUP4 AND PUSH1 0x1 PUSH1 0x1 PUSH1 0xA0 SHL SUB NOT SWAP2 DUP3 AND OR SWAP1 SWAP2 SSTORE PUSH2 0x1C0 DUP8 ADD MLOAD PUSH1 0xA DUP6 ADD DUP1 SLOAD SWAP2 SWAP1 SWAP4 AND SWAP2 AND OR SWAP1 SSTORE PUSH2 0x1E0 DUP6 ADD MLOAD PUSH1 0xB DUP4 ADD SSTORE SWAP3 SWAP1 SWAP4 ADD MLOAD SWAP3 ADD SWAP2 SWAP1 DUP2 LT ISZERO PUSH2 0xCD4 JUMPI PUSH1 0x20 SWAP6 POP PUSH1 0xFF DUP1 NOT DUP4 SLOAD AND SWAP2 AND OR SWAP1 SSTORE PUSH1 0x40 MLOAD SWAP2 PUSH1 0x1 DUP1 PUSH1 0xA0 SHL SUB AND DUP3 MSTORE PUSH1 0x1 DUP1 PUSH1 0xA0 SHL SUB AND SWAP1 DUP3 PUSH32 0x44E1FF8E67FAD6B456BD43FF165BA4E9BB004370AA27A76881C6ACB60DFD6DD9 DUP6 CALLER SWAP4 LOG4 PUSH1 0x40 MLOAD SWAP1 DUP2 MSTORE RETURN JUMPDEST PUSH4 0x4E487B71 PUSH1 0xE0 SHL DUP7 MSTORE PUSH1 0x21 PUSH1 0x4 MSTORE PUSH1 0x24 DUP7 REVERT JUMPDEST SWAP1 SWAP4 POP PUSH1 0x20 DUP2 RETURNDATASIZE PUSH1 0x20 GT PUSH2 0xD14 JUMPI JUMPDEST DUP2 PUSH2 0xD04 PUSH1 0x20 SWAP4 DUP4 PUSH2 0x3C7D JUMP JUMPDEST DUP2 ADD SUB SLT PUSH2 0x50A JUMPI MLOAD SWAP3 PUSH0 PUSH2 0xB13 JUMP JUMPDEST RETURNDATASIZE SWAP2 POP PUSH2 0xCF7 JUMP JUMPDEST PUSH1 0x40 MLOAD RETURNDATASIZE DUP8 DUP3 RETURNDATACOPY RETURNDATASIZE SWAP1 REVERT JUMPDEST PUSH2 0xD49 SWAP2 POP PUSH2 0x220 RETURNDATASIZE DUP2 GT PUSH2 0xD4F JUMPI JUMPDEST PUSH2 0xD41 DUP2 DUP4 PUSH2 0x3C7D JUMP JUMPDEST DUP2 ADD SWAP1 PUSH2 0x3CC0 JUMP JUMPDEST PUSH0 PUSH2 0xAD6 JUMP JUMPDEST POP RETURNDATASIZE PUSH2 0xD37 JUMP JUMPDEST PUSH2 0xD73 SWAP3 SWAP10 SWAP5 SWAP7 SWAP6 SWAP4 SWAP9 POP PUSH2 0xD6D SWAP2 SWAP8 POP DUP11 PUSH2 0x3EC9 JUMP JUMPDEST SWAP6 PUSH2 0x3BEA JUMP JUMPDEST PUSH2 0xD7E DUP6 ISZERO ISZERO PUSH2 0x3F00 JUMP JUMPDEST PUSH1 0x2 SLOAD SWAP4 PUSH1 0x40 MLOAD SWAP5 PUSH4 0x1C8F0847 PUSH1 0xE0 SHL DUP7 MSTORE DUP7 PUSH1 0x4 DUP8 ADD MSTORE PUSH1 0x24 DUP7 ADD MSTORE PUSH1 0x20 DUP6 PUSH1 0x44 DUP2 PUSH20 0x0 GAS DELEGATECALL SWAP5 DUP6 ISZERO PUSH2 0xF37 JUMPI DUP14 SWAP6 PUSH2 0xF03 JUMPI JUMPDEST POP PUSH1 0x1 PUSH1 0x1 PUSH1 0xA0 SHL SUB DUP2 AND SWAP7 DUP8 PUSH2 0xE45 JUMPI PUSH2 0xDE1 DUP7 DUP9 PUSH2 0x407E JUMP JUMPDEST CALLVALUE SUB PUSH2 0x3C5 JUMPI PUSH2 0x220 SWAP9 DUP13 SWAP9 DUP9 PUSH2 0xAC3 SWAP9 PUSH2 0xDFE DUP16 SWAP12 DUP8 CALLER PUSH2 0x42E4 JUMP JUMPDEST POP PUSH1 0x3 SLOAD PUSH2 0xE18 SWAP1 DUP3 SWAP1 DUP9 SWAP1 PUSH1 0x1 PUSH1 0x1 PUSH1 0xA0 SHL SUB AND PUSH2 0x42E4 JUMP JUMPDEST POP JUMPDEST PUSH1 0x40 MLOAD SWAP2 DUP3 MSTORE PUSH1 0x20 DUP3 ADD MSTORE PUSH0 MLOAD PUSH1 0x20 PUSH2 0x43C0 PUSH0 CODECOPY PUSH0 MLOAD SWAP1 PUSH0 MSTORE PUSH1 0x40 CALLER SWAP3 LOG3 SWAP2 SWAP4 SWAP9 DUP2 SWAP4 SWAP6 SWAP7 POP PUSH2 0xA76 JUMP JUMPDEST DUP14 DUP1 PUSH1 0x20 DUP11 PUSH1 0x64 PUSH2 0xE56 DUP12 DUP14 PUSH2 0x407E JUMP JUMPDEST PUSH1 0x40 MLOAD SWAP5 DUP6 SWAP4 DUP5 SWAP3 PUSH4 0x23B872DD PUSH1 0xE0 SHL DUP5 MSTORE CALLER PUSH1 0x4 DUP6 ADD MSTORE ADDRESS PUSH1 0x24 DUP6 ADD MSTORE PUSH1 0x44 DUP5 ADD MSTORE GAS CALL SWAP2 DUP3 ISZERO PUSH2 0x4D2 JUMPI SWAP2 PUSH2 0xEC5 JUMPI JUMPDEST POP ISZERO PUSH2 0x468 JUMPI PUSH2 0x220 SWAP9 DUP13 SWAP9 DUP9 PUSH2 0xAC3 SWAP9 PUSH2 0xEA5 DUP16 SWAP12 DUP8 CALLER PUSH2 0x42E4 JUMP JUMPDEST POP PUSH1 0x3 SLOAD PUSH2 0xEBF SWAP1 DUP3 SWAP1 DUP9 SWAP1 PUSH1 0x1 PUSH1 0x1 PUSH1 0xA0 SHL SUB AND PUSH2 0x42E4 JUMP JUMPDEST POP PUSH2 0xE1A JUMP JUMPDEST SWAP1 POP PUSH1 0x20 DUP2 RETURNDATASIZE PUSH1 0x20 GT PUSH2 0xEFB JUMPI JUMPDEST DUP2 PUSH2 0xEE0 PUSH1 0x20 SWAP4 DUP4 PUSH2 0x3C7D JUMP JUMPDEST DUP2 ADD SUB SLT PUSH2 0xEF7 JUMPI PUSH2 0xEF1 SWAP1 PUSH2 0x3CB3 JUMP JUMPDEST PUSH0 PUSH2 0xE88 JUMP JUMPDEST DUP15 DUP1 REVERT JUMPDEST RETURNDATASIZE SWAP2 POP PUSH2 0xED3 JUMP JUMPDEST SWAP1 SWAP5 POP PUSH1 0x20 DUP2 RETURNDATASIZE PUSH1 0x20 GT PUSH2 0xF2F JUMPI JUMPDEST DUP2 PUSH2 0xF1F PUSH1 0x20 SWAP4 DUP4 PUSH2 0x3C7D JUMP JUMPDEST DUP2 ADD SUB SLT PUSH2 0x50A JUMPI MLOAD SWAP4 PUSH0 PUSH2 0xDC6 JUMP JUMPDEST RETURNDATASIZE SWAP2 POP PUSH2 0xF12 JUMP JUMPDEST PUSH1 0x40 MLOAD RETURNDATASIZE DUP16 DUP3 RETURNDATACOPY RETURNDATASIZE SWAP1 REVERT JUMPDEST POP CALLVALUE PUSH2 0x4C7 JUMPI PUSH1 0x60 CALLDATASIZE PUSH1 0x3 NOT ADD SLT PUSH2 0x4C7 JUMPI PUSH2 0xF5C PUSH2 0x39DD JUMP JUMPDEST SWAP1 PUSH2 0xF65 PUSH2 0x39C7 JUMP JUMPDEST PUSH1 0x40 PUSH1 0x44 CALLDATALOAD SWAP4 CALLER DUP5 MSTORE PUSH1 0x1 PUSH1 0x20 MSTORE DUP2 DUP5 KECCAK256 PUSH1 0x1 DUP1 PUSH1 0xA0 SHL SUB DUP5 AND PUSH0 MSTORE PUSH1 0x20 MSTORE PUSH2 0xF93 DUP6 DUP4 PUSH0 KECCAK256 SLOAD LT ISZERO PUSH2 0x3C1B JUMP JUMPDEST CALLER DUP5 MSTORE PUSH1 0x1 PUSH1 0x20 MSTORE DUP2 DUP5 KECCAK256 PUSH1 0x1 DUP1 PUSH1 0xA0 SHL SUB DUP5 AND PUSH0 MSTORE PUSH1 0x20 MSTORE DUP2 PUSH0 KECCAK256 PUSH2 0xFBA DUP7 DUP3 SLOAD PUSH2 0x3EC9 JUMP JUMPDEST SWAP1 SSTORE PUSH1 0x1 DUP1 PUSH1 0xA0 SHL SUB AND SWAP3 DUP4 DUP2 MSTORE PUSH1 0x1 PUSH1 0x20 MSTORE KECCAK256 PUSH1 0x1 DUP1 PUSH1 0xA0 SHL SUB DUP3 AND PUSH0 MSTORE PUSH1 0x20 MSTORE PUSH1 0x40 PUSH0 KECCAK256 PUSH2 0xFEB DUP5 DUP3 SLOAD PUSH2 0x407E JUMP JUMPDEST SWAP1 SSTORE PUSH1 0x40 MLOAD SWAP3 DUP4 MSTORE PUSH1 0x1 PUSH1 0x1 PUSH1 0xA0 SHL SUB AND SWAP2 CALLER SWAP1 PUSH32 0xD1398BEE19313D6BF672CCB116E51F4A1A947E91C757907F51FBB5B5E56C698F SWAP1 PUSH1 0x20 SWAP1 LOG4 PUSH1 0x20 PUSH1 0x40 MLOAD PUSH1 0x1 DUP2 MSTORE RETURN JUMPDEST POP PUSH1 0x20 CALLDATASIZE PUSH1 0x3 NOT ADD SLT PUSH2 0x4C7 JUMPI PUSH1 0x4 CALLDATALOAD DUP1 DUP3 MSTORE PUSH1 0x4 PUSH1 0x20 MSTORE PUSH1 0x40 DUP3 KECCAK256 SWAP2 PUSH1 0x1 DUP4 ADD SWAP3 PUSH2 0x1066 PUSH1 0x1 DUP1 PUSH1 0xA0 SHL SUB DUP6 SLOAD AND CALLER EQ PUSH2 0x3E67 JUMP JUMPDEST PUSH1 0x2 DUP2 ADD SWAP2 PUSH2 0x10A4 DUP4 SLOAD PUSH2 0x107F PUSH1 0xFF DUP3 PUSH1 0xB0 SHR AND PUSH2 0x408B JUMP JUMPDEST PUSH2 0x108F PUSH1 0xFF DUP3 PUSH1 0xB8 SHR AND ISZERO PUSH2 0x40BD JUMP JUMPDEST PUSH1 0xFF DUP2 PUSH1 0xA0 SHR AND ISZERO SWAP1 DUP2 PUSH2 0x1355 JUMPI JUMPDEST POP PUSH2 0x3E98 JUMP JUMPDEST PUSH1 0xA DUP3 ADD DUP1 SLOAD CALLER PUSH0 SWAP1 DUP2 MSTORE PUSH1 0x1 PUSH1 0x20 SWAP1 DUP2 MSTORE PUSH1 0x40 DUP1 DUP4 KECCAK256 PUSH1 0x1 PUSH1 0x1 PUSH1 0xA0 SHL SUB SWAP1 SWAP5 AND DUP1 DUP5 MSTORE SWAP4 SWAP1 SWAP2 MSTORE SWAP1 KECCAK256 SLOAD PUSH1 0x6 DUP6 ADD SLOAD DUP2 LT PUSH2 0x1195 JUMPI JUMPDEST POP POP SLOAD PUSH1 0x4 DUP4 ADD SLOAD PUSH2 0x10F9 SWAP3 POP SWAP1 PUSH1 0x1 PUSH1 0x1 PUSH1 0xA0 SHL SUB AND CALLER PUSH2 0x40EF JUMP JUMPDEST POP DUP2 SLOAD PUSH1 0x1 PUSH1 0xB8 SHL PUSH1 0xFF PUSH1 0xB8 SHL NOT DUP3 AND OR SWAP1 SWAP3 SSTORE SLOAD SWAP3 SLOAD PUSH1 0x40 MLOAD PUSH1 0x1 PUSH1 0x1 PUSH1 0xA0 SHL SUB SWAP3 DUP4 AND DUP1 DUP3 MSTORE SWAP5 SWAP2 DUP4 AND SWAP3 SWAP1 SWAP2 AND SWAP1 DUP4 SWAP1 PUSH32 0x5E02698C1650D6CBE1F7E8A48609D0DA45AD7F5E4C13CD8B196F82965C0AB0D5 SWAP1 PUSH1 0x20 SWAP1 LOG4 DUP2 PUSH2 0x1163 JUMPI JUMPDEST PUSH1 0x20 PUSH1 0x40 MLOAD PUSH1 0x1 DUP2 MSTORE RETURN JUMPDEST PUSH1 0x20 PUSH32 0x957372C0E02D2882134CC0EEBBEF9E446634D8CCBB1CBB112BDEFDD3CF0A643C SWAP2 PUSH1 0x40 MLOAD SWAP1 DUP2 MSTORE LOG2 PUSH0 DUP1 PUSH2 0x1158 JUMP JUMPDEST PUSH2 0x11A3 SWAP1 PUSH1 0x4 DUP7 ADD SLOAD PUSH2 0x3EC9 JUMP JUMPDEST PUSH2 0x11B3 PUSH1 0xFF DUP6 SLOAD PUSH1 0xA0 SHR AND PUSH2 0x3BEA JUMP JUMPDEST PUSH2 0x11BE DUP2 ISZERO ISZERO PUSH2 0x3F00 JUMP JUMPDEST PUSH1 0x2 SLOAD SWAP4 PUSH1 0x40 MLOAD SWAP5 PUSH4 0x1C8F0847 PUSH1 0xE0 SHL DUP7 MSTORE DUP3 PUSH1 0x4 DUP8 ADD MSTORE PUSH1 0x24 DUP7 ADD MSTORE PUSH1 0x20 DUP6 PUSH1 0x44 DUP2 PUSH20 0x0 GAS DELEGATECALL SWAP5 DUP6 ISZERO PUSH2 0x516 JUMPI DUP2 SWAP6 PUSH2 0x1321 JUMPI JUMPDEST POP DUP3 PUSH2 0x126D JUMPI POP PUSH2 0x1217 DUP5 DUP3 PUSH2 0x407E JUMP JUMPDEST CALLVALUE SUB PUSH2 0x3C5 JUMPI PUSH2 0x10F9 SWAP4 PUSH2 0x122C DUP3 DUP5 CALLER PUSH2 0x42E4 JUMP JUMPDEST POP PUSH1 0x3 SLOAD PUSH2 0x1246 SWAP1 DUP3 SWAP1 DUP6 SWAP1 PUSH1 0x1 PUSH1 0x1 PUSH1 0xA0 SHL SUB AND PUSH2 0x42E4 JUMP JUMPDEST POP JUMPDEST PUSH1 0x40 MLOAD SWAP2 DUP3 MSTORE PUSH1 0x20 DUP3 ADD MSTORE PUSH0 MLOAD PUSH1 0x20 PUSH2 0x43C0 PUSH0 CODECOPY PUSH0 MLOAD SWAP1 PUSH0 MSTORE PUSH1 0x40 CALLER SWAP3 LOG3 PUSH0 DUP1 PUSH2 0x10DC JUMP JUMPDEST PUSH2 0x1277 DUP6 DUP4 PUSH2 0x407E JUMP JUMPDEST PUSH1 0x40 MLOAD SWAP1 PUSH4 0x23B872DD PUSH1 0xE0 SHL DUP3 MSTORE CALLER PUSH1 0x4 DUP4 ADD MSTORE ADDRESS PUSH1 0x24 DUP4 ADD MSTORE PUSH1 0x44 DUP3 ADD MSTORE PUSH1 0x20 DUP2 PUSH1 0x64 DUP2 DUP6 DUP9 GAS CALL SWAP2 DUP3 ISZERO PUSH2 0x4D2 JUMPI DUP1 SWAP3 PUSH2 0x12E4 JUMPI JUMPDEST POP POP ISZERO PUSH2 0x468 JUMPI PUSH2 0x10F9 SWAP4 PUSH2 0x12C4 DUP3 DUP5 CALLER PUSH2 0x42E4 JUMP JUMPDEST POP PUSH1 0x3 SLOAD PUSH2 0x12DE SWAP1 DUP3 SWAP1 DUP6 SWAP1 PUSH1 0x1 PUSH1 0x1 PUSH1 0xA0 SHL SUB AND PUSH2 0x42E4 JUMP JUMPDEST POP PUSH2 0x1248 JUMP JUMPDEST SWAP1 SWAP2 POP PUSH1 0x20 DUP3 RETURNDATASIZE PUSH1 0x20 GT PUSH2 0x1319 JUMPI JUMPDEST DUP2 PUSH2 0x1300 PUSH1 0x20 SWAP4 DUP4 PUSH2 0x3C7D JUMP JUMPDEST DUP2 ADD SUB SLT PUSH2 0x4C7 JUMPI POP PUSH2 0x1312 SWAP1 PUSH2 0x3CB3 JUMP JUMPDEST PUSH0 DUP1 PUSH2 0x12AE JUMP JUMPDEST RETURNDATASIZE SWAP2 POP PUSH2 0x12F3 JUMP JUMPDEST SWAP1 SWAP5 POP PUSH1 0x20 DUP2 RETURNDATASIZE PUSH1 0x20 GT PUSH2 0x134D JUMPI JUMPDEST DUP2 PUSH2 0x133D PUSH1 0x20 SWAP4 DUP4 PUSH2 0x3C7D JUMP JUMPDEST DUP2 ADD SUB SLT PUSH2 0x50A JUMPI MLOAD SWAP4 PUSH0 PUSH2 0x1206 JUMP JUMPDEST RETURNDATASIZE SWAP2 POP PUSH2 0x1330 JUMP JUMPDEST PUSH1 0xFF SWAP2 POP PUSH1 0xA8 SHR AND ISZERO PUSH0 PUSH2 0x109E JUMP JUMPDEST POP CALLVALUE PUSH2 0x4C7 JUMPI PUSH1 0x20 CALLDATASIZE PUSH1 0x3 NOT ADD SLT PUSH2 0x4C7 JUMPI PUSH1 0x4 CALLDATALOAD DUP1 DUP3 MSTORE PUSH1 0x4 PUSH1 0x20 MSTORE PUSH1 0x40 DUP3 KECCAK256 PUSH1 0x1 DUP2 ADD SWAP1 PUSH1 0x1 DUP1 PUSH1 0xA0 SHL SUB DUP3 SLOAD AND CALLER EQ DUP1 ISZERO PUSH2 0x1661 JUMPI JUMPDEST PUSH2 0x13A6 SWAP1 PUSH2 0x3E67 JUMP JUMPDEST DUP4 PUSH20 0x0 DUP1 EXTCODESIZE ISZERO PUSH2 0x543 JUMPI DUP2 PUSH1 0x40 MLOAD DUP1 SWAP3 PUSH4 0x252A867 PUSH1 0xE5 SHL DUP3 MSTORE DUP2 DUP1 PUSH2 0x13E2 DUP9 PUSH1 0x4 DUP4 ADD PUSH2 0x3F99 JUMP JUMPDEST SUB SWAP2 GAS DELEGATECALL DUP1 ISZERO PUSH2 0x538 JUMPI PUSH2 0x1648 JUMPI JUMPDEST POP POP PUSH1 0x5 DUP2 ADD SLOAD PUSH1 0x9 DUP3 ADD SLOAD PUSH1 0x6 DUP4 ADD SLOAD PUSH1 0xA DUP5 ADD SLOAD PUSH1 0x7 DUP6 ADD SLOAD PUSH1 0x8 DUP7 ADD SLOAD PUSH1 0x40 MLOAD PUSH4 0x1C8F0847 PUSH1 0xE0 SHL DUP2 MSTORE PUSH1 0x4 DUP2 ADD DUP8 SWAP1 MSTORE PUSH1 0x24 DUP2 ADD SWAP3 SWAP1 SWAP3 MSTORE PUSH1 0x1 PUSH1 0x1 PUSH1 0xA0 SHL SUB SWAP5 DUP6 AND SWAP8 SWAP6 SWAP7 SWAP2 SWAP6 SWAP5 PUSH20 0x0 SWAP4 AND SWAP1 PUSH1 0x20 DUP8 PUSH1 0x44 DUP2 DUP8 GAS DELEGATECALL SWAP7 DUP8 ISZERO PUSH2 0x163D JUMPI DUP12 SWAP8 PUSH2 0x1608 JUMPI JUMPDEST POP PUSH1 0x20 SWAP1 PUSH1 0x44 PUSH1 0x40 MLOAD DUP1 SWAP7 DUP2 SWAP4 PUSH4 0x1C8F0847 PUSH1 0xE0 SHL DUP4 MSTORE DUP10 PUSH1 0x4 DUP5 ADD MSTORE PUSH1 0x24 DUP4 ADD MSTORE GAS DELEGATECALL SWAP3 DUP4 ISZERO PUSH2 0x15FD JUMPI DUP10 SWAP11 SWAP10 SWAP9 SWAP10 SWAP4 PUSH2 0x15BF JUMPI JUMPDEST POP DUP2 SLOAD DUP9 SWAP5 SWAP4 SWAP3 SWAP2 SWAP1 PUSH1 0x1 PUSH1 0x1 PUSH1 0xA0 SHL SUB AND DUP11 PUSH2 0x14C0 DUP10 DUP12 PUSH2 0x3EC9 JUMP JUMPDEST SWAP1 PUSH2 0x14CA SWAP3 PUSH2 0x4196 JUMP JUMPDEST POP PUSH1 0x2 DUP3 ADD DUP1 SLOAD SWAP1 SWAP11 PUSH2 0x14E8 SWAP2 DUP10 SWAP2 SWAP1 PUSH1 0x1 PUSH1 0x1 PUSH1 0xA0 SHL SUB AND PUSH2 0x4196 JUMP JUMPDEST POP DUP6 SLOAD PUSH1 0x1 PUSH1 0x1 PUSH1 0xA0 SHL SUB AND DUP2 PUSH2 0x14FF DUP7 DUP1 PUSH2 0x3EC9 JUMP JUMPDEST SWAP1 PUSH2 0x1509 SWAP3 PUSH2 0x4196 JUMP JUMPDEST POP DUP10 SLOAD PUSH2 0x1520 SWAP2 DUP5 SWAP2 PUSH1 0x1 PUSH1 0x1 PUSH1 0xA0 SHL SUB AND PUSH2 0x4196 JUMP JUMPDEST POP SLOAD SWAP4 SLOAD SWAP8 SLOAD PUSH1 0x40 MLOAD PUSH1 0x1 PUSH1 0x1 PUSH1 0xA0 SHL SUB SWAP10 DUP11 AND SWAP11 SWAP6 DUP11 AND SWAP10 SWAP1 SWAP2 AND SWAP7 DUP11 SWAP7 DUP11 SWAP7 DUP9 SWAP4 DUP9 SWAP4 SWAP2 SWAP3 SWAP1 SWAP2 DUP3 SWAP2 PUSH2 0x1557 SWAP2 CALLER DUP15 DUP6 PUSH2 0x3ED6 JUMP JUMPDEST SUB PUSH0 MLOAD PUSH1 0x20 PUSH2 0x4380 PUSH0 CODECOPY PUSH0 MLOAD SWAP1 PUSH0 MSTORE SWAP2 LOG4 PUSH1 0x40 MLOAD SWAP2 DUP3 SWAP2 PUSH2 0x157A SWAP2 CALLER DUP10 DUP6 PUSH2 0x3ED6 JUMP JUMPDEST SUB PUSH0 MLOAD PUSH1 0x20 PUSH2 0x4340 PUSH0 CODECOPY PUSH0 MLOAD SWAP1 PUSH0 MSTORE SWAP2 LOG4 PUSH1 0x40 DUP1 MLOAD PUSH1 0x1 PUSH1 0x1 PUSH1 0xA0 SHL SUB SWAP3 SWAP1 SWAP3 AND DUP3 MSTORE CALLER PUSH1 0x20 DUP4 ADD MSTORE PUSH0 MLOAD PUSH1 0x20 PUSH2 0x4360 PUSH0 CODECOPY PUSH0 MLOAD SWAP1 PUSH0 MSTORE SWAP2 LOG4 PUSH1 0x40 MLOAD PUSH1 0x1 DUP2 MSTORE PUSH1 0x20 SWAP1 RETURN JUMPDEST SWAP4 SWAP3 POP SWAP1 SWAP7 POP PUSH1 0x20 DUP4 RETURNDATASIZE PUSH1 0x20 GT PUSH2 0x15F5 JUMPI JUMPDEST DUP2 PUSH2 0x15DE PUSH1 0x20 SWAP4 DUP4 PUSH2 0x3C7D JUMP JUMPDEST DUP2 ADD SUB SLT PUSH2 0x50A JUMPI DUP9 SWAP7 DUP8 SWAP4 MLOAD SWAP3 SWAP4 SWAP2 SWAP1 SWAP2 PUSH2 0x14A3 JUMP JUMPDEST RETURNDATASIZE SWAP2 POP PUSH2 0x15D1 JUMP JUMPDEST PUSH1 0x40 MLOAD RETURNDATASIZE DUP13 DUP3 RETURNDATACOPY RETURNDATASIZE SWAP1 REVERT JUMPDEST SWAP1 SWAP7 POP PUSH1 0x20 DUP2 RETURNDATASIZE PUSH1 0x20 GT PUSH2 0x1635 JUMPI JUMPDEST DUP2 PUSH2 0x1624 PUSH1 0x20 SWAP4 DUP4 PUSH2 0x3C7D JUMP JUMPDEST DUP2 ADD SUB SLT PUSH2 0x50A JUMPI MLOAD SWAP6 PUSH1 0x20 PUSH2 0x146D JUMP JUMPDEST RETURNDATASIZE SWAP2 POP PUSH2 0x1617 JUMP JUMPDEST PUSH1 0x40 MLOAD RETURNDATASIZE DUP14 DUP3 RETURNDATACOPY RETURNDATASIZE SWAP1 REVERT JUMPDEST DUP2 PUSH2 0x1652 SWAP2 PUSH2 0x3C7D JUMP JUMPDEST PUSH2 0x165D JUMPI DUP4 PUSH0 PUSH2 0x13F1 JUMP JUMPDEST DUP4 DUP1 REVERT JUMPDEST POP PUSH1 0x2 DUP2 ADD SLOAD PUSH1 0x1 PUSH1 0x1 PUSH1 0xA0 SHL SUB AND CALLER EQ PUSH2 0x139D JUMP JUMPDEST POP PUSH2 0x1681 CALLDATASIZE PUSH2 0x3AD8 JUMP JUMPDEST SWAP1 DUP1 DUP4 MSTORE PUSH1 0x4 PUSH1 0x20 MSTORE PUSH1 0x40 DUP4 KECCAK256 SWAP3 PUSH1 0x1 DUP5 ADD SWAP3 PUSH2 0x16A8 PUSH1 0x1 DUP1 PUSH1 0xA0 SHL SUB DUP6 SLOAD AND CALLER EQ PUSH2 0x3E67 JUMP JUMPDEST PUSH20 0x0 DUP1 EXTCODESIZE ISZERO PUSH2 0x853 JUMPI DUP3 PUSH1 0x40 MLOAD DUP1 SWAP3 PUSH4 0x252A867 PUSH1 0xE5 SHL DUP3 MSTORE DUP2 DUP1 PUSH2 0x16E3 DUP12 PUSH1 0x4 DUP4 ADD PUSH2 0x3F99 JUMP JUMPDEST SUB SWAP2 GAS DELEGATECALL DUP1 ISZERO PUSH2 0x848 JUMPI SWAP1 DUP4 SWAP2 PUSH2 0x19B2 JUMPI JUMPDEST POP POP PUSH1 0xA DUP6 ADD DUP1 SLOAD CALLER PUSH0 SWAP1 DUP2 MSTORE PUSH1 0x1 PUSH1 0x20 SWAP1 DUP2 MSTORE PUSH1 0x40 DUP1 DUP4 KECCAK256 PUSH1 0x1 PUSH1 0x1 PUSH1 0xA0 SHL SUB SWAP1 SWAP5 AND DUP1 DUP5 MSTORE SWAP4 SWAP1 SWAP2 MSTORE SWAP1 KECCAK256 SLOAD SWAP1 SWAP4 SWAP1 DUP4 DUP2 LT PUSH2 0x17AE JUMPI JUMPDEST POP POP SLOAD PUSH32 0x9D5818EC36D6E85E8A30346F5FE41B65CC50CEA2B868AE94F293D113C92A1338 SWAP3 POP PUSH2 0x1769 SWAP1 DUP3 SWAP1 PUSH1 0x1 PUSH1 0x1 PUSH1 0xA0 SHL SUB AND CALLER PUSH2 0x40EF JUMP JUMPDEST POP PUSH1 0x6 DUP6 ADD PUSH2 0x1779 DUP3 DUP3 SLOAD PUSH2 0x407E JUMP JUMPDEST SWAP1 SSTORE DUP5 SLOAD SWAP4 SLOAD PUSH1 0x2 SWAP1 SWAP6 ADD SLOAD PUSH1 0x40 DUP1 MLOAD PUSH1 0x1 PUSH1 0x1 PUSH1 0xA0 SHL SUB SWAP3 DUP4 AND DUP2 MSTORE PUSH1 0x20 DUP2 ADD SWAP4 SWAP1 SWAP4 MSTORE SWAP6 DUP2 AND SWAP6 SWAP5 AND SWAP4 DUP2 SWAP1 DUP2 ADD PUSH2 0x2E0 JUMP JUMPDEST PUSH2 0x17B8 SWAP1 DUP5 PUSH2 0x3EC9 JUMP JUMPDEST SWAP2 PUSH2 0x17C9 PUSH1 0xFF DUP4 SLOAD PUSH1 0xA0 SHR AND PUSH2 0x3BEA JUMP JUMPDEST PUSH2 0x17D4 DUP4 ISZERO ISZERO PUSH2 0x3F00 JUMP JUMPDEST PUSH1 0x2 SLOAD SWAP2 PUSH1 0x40 MLOAD SWAP3 PUSH4 0x1C8F0847 PUSH1 0xE0 SHL DUP5 MSTORE DUP5 PUSH1 0x4 DUP6 ADD MSTORE PUSH1 0x24 DUP5 ADD MSTORE PUSH1 0x20 DUP4 PUSH1 0x44 DUP2 PUSH20 0x0 GAS DELEGATECALL SWAP3 DUP4 ISZERO PUSH2 0x516 JUMPI DUP2 SWAP4 PUSH2 0x197E JUMPI JUMPDEST POP DUP6 PUSH2 0x18A6 JUMPI POP PUSH2 0x182D DUP3 DUP5 PUSH2 0x407E JUMP JUMPDEST CALLVALUE SUB PUSH2 0x3C5 JUMPI DUP5 DUP4 DUP6 SWAP4 PUSH2 0x1866 PUSH2 0x1769 SWAP7 PUSH32 0x9D5818EC36D6E85E8A30346F5FE41B65CC50CEA2B868AE94F293D113C92A1338 SWAP10 CALLER PUSH2 0x42E4 JUMP JUMPDEST POP PUSH1 0x3 SLOAD PUSH2 0x1880 SWAP1 DUP3 SWAP1 DUP6 SWAP1 PUSH1 0x1 PUSH1 0x1 PUSH1 0xA0 SHL SUB AND PUSH2 0x42E4 JUMP JUMPDEST POP JUMPDEST PUSH1 0x40 MLOAD SWAP2 DUP3 MSTORE PUSH1 0x20 DUP3 ADD MSTORE PUSH0 MLOAD PUSH1 0x20 PUSH2 0x43C0 PUSH0 CODECOPY PUSH0 MLOAD SWAP1 PUSH0 MSTORE PUSH1 0x40 CALLER SWAP3 LOG3 SWAP2 PUSH2 0x172E JUMP JUMPDEST PUSH2 0x18B0 DUP4 DUP6 PUSH2 0x407E JUMP JUMPDEST PUSH1 0x40 MLOAD SWAP1 PUSH4 0x23B872DD PUSH1 0xE0 SHL DUP3 MSTORE CALLER PUSH1 0x4 DUP4 ADD MSTORE ADDRESS PUSH1 0x24 DUP4 ADD MSTORE PUSH1 0x44 DUP3 ADD MSTORE PUSH1 0x20 DUP2 PUSH1 0x64 DUP2 DUP6 DUP12 GAS CALL SWAP2 DUP3 ISZERO PUSH2 0x4D2 JUMPI DUP1 SWAP3 PUSH2 0x1941 JUMPI JUMPDEST POP POP ISZERO PUSH2 0x468 JUMPI DUP5 DUP4 DUP6 SWAP4 PUSH2 0x1921 PUSH2 0x1769 SWAP7 PUSH32 0x9D5818EC36D6E85E8A30346F5FE41B65CC50CEA2B868AE94F293D113C92A1338 SWAP10 CALLER PUSH2 0x42E4 JUMP JUMPDEST POP PUSH1 0x3 SLOAD PUSH2 0x193B SWAP1 DUP3 SWAP1 DUP6 SWAP1 PUSH1 0x1 PUSH1 0x1 PUSH1 0xA0 SHL SUB AND PUSH2 0x42E4 JUMP JUMPDEST POP PUSH2 0x1882 JUMP JUMPDEST SWAP1 SWAP2 POP PUSH1 0x20 DUP3 RETURNDATASIZE PUSH1 0x20 GT PUSH2 0x1976 JUMPI JUMPDEST DUP2 PUSH2 0x195D PUSH1 0x20 SWAP4 DUP4 PUSH2 0x3C7D JUMP JUMPDEST DUP2 ADD SUB SLT PUSH2 0x4C7 JUMPI POP PUSH2 0x196F SWAP1 PUSH2 0x3CB3 JUMP JUMPDEST PUSH0 DUP1 PUSH2 0x18E7 JUMP JUMPDEST RETURNDATASIZE SWAP2 POP PUSH2 0x1950 JUMP JUMPDEST SWAP1 SWAP3 POP PUSH1 0x20 DUP2 RETURNDATASIZE PUSH1 0x20 GT PUSH2 0x19AA JUMPI JUMPDEST DUP2 PUSH2 0x199A PUSH1 0x20 SWAP4 DUP4 PUSH2 0x3C7D JUMP JUMPDEST DUP2 ADD SUB SLT PUSH2 0x50A JUMPI MLOAD SWAP2 PUSH0 PUSH2 0x181C JUMP JUMPDEST RETURNDATASIZE SWAP2 POP PUSH2 0x198D JUMP JUMPDEST DUP2 PUSH2 0x19BC SWAP2 PUSH2 0x3C7D JUMP JUMPDEST PUSH2 0x543 JUMPI DUP2 PUSH0 PUSH2 0x16F5 JUMP JUMPDEST POP CALLVALUE PUSH2 0x4C7 JUMPI PUSH2 0x19D6 CALLDATASIZE PUSH2 0x3AD8 JUMP JUMPDEST SWAP2 SWAP1 DUP1 DUP3 MSTORE PUSH1 0x4 PUSH1 0x20 MSTORE PUSH1 0x40 DUP3 KECCAK256 SWAP2 PUSH1 0x1 DUP1 PUSH1 0xA0 SHL SUB DUP4 SLOAD AND CALLER EQ DUP1 ISZERO PUSH2 0x1B46 JUMPI JUMPDEST PUSH2 0x1A01 SWAP1 PUSH2 0x3E67 JUMP JUMPDEST PUSH20 0x0 DUP1 EXTCODESIZE ISZERO PUSH2 0x543 JUMPI DUP2 PUSH1 0x40 MLOAD DUP1 SWAP3 PUSH4 0x252A867 PUSH1 0xE5 SHL DUP3 MSTORE DUP2 DUP1 PUSH2 0x1A3C DUP10 PUSH1 0x4 DUP4 ADD PUSH2 0x3F99 JUMP JUMPDEST SUB SWAP2 GAS DELEGATECALL DUP1 ISZERO PUSH2 0x538 JUMPI SWAP1 DUP3 SWAP2 PUSH2 0x1B31 JUMPI JUMPDEST POP POP PUSH1 0x6 DUP4 ADD PUSH2 0x1A65 DUP6 DUP3 SLOAD PUSH2 0x729 DUP3 DUP3 LT PUSH2 0x3C1B JUMP JUMPDEST SWAP1 SSTORE PUSH1 0x1 DUP1 PUSH1 0xA0 SHL SUB PUSH1 0xA DUP5 ADD SLOAD AND SWAP4 PUSH1 0x8 DUP5 ADD SLOAD SWAP2 PUSH1 0x40 MLOAD SWAP3 PUSH4 0x1C8F0847 PUSH1 0xE0 SHL DUP5 MSTORE DUP3 PUSH1 0x4 DUP6 ADD MSTORE PUSH1 0x24 DUP5 ADD MSTORE PUSH1 0x20 DUP4 PUSH1 0x44 DUP2 PUSH20 0x0 GAS DELEGATECALL SWAP1 DUP2 ISZERO PUSH2 0x4D2 JUMPI SWAP1 PUSH2 0x1AF2 JUMPI JUMPDEST PUSH1 0x1 DUP6 ADD DUP1 SLOAD SWAP1 SWAP6 PUSH0 MLOAD PUSH1 0x20 PUSH2 0x4340 PUSH0 CODECOPY PUSH0 MLOAD SWAP1 PUSH0 MSTORE SWAP5 POP PUSH2 0x2E0 SWAP2 PUSH2 0x7BB SWAP1 PUSH1 0x1 PUSH1 0x1 PUSH1 0xA0 SHL SUB AND DUP10 PUSH2 0x7B5 DUP7 DUP9 PUSH2 0x3EC9 JUMP JUMPDEST POP PUSH1 0x20 DUP3 RETURNDATASIZE PUSH1 0x20 GT PUSH2 0x1B29 JUMPI JUMPDEST DUP2 PUSH2 0x1B0C PUSH1 0x20 SWAP4 DUP4 PUSH2 0x3C7D JUMP JUMPDEST DUP2 ADD SUB SLT PUSH2 0x50A JUMPI PUSH0 MLOAD PUSH1 0x20 PUSH2 0x4340 PUSH0 CODECOPY PUSH0 MLOAD SWAP1 PUSH0 MSTORE SWAP2 MLOAD PUSH2 0x1ABE JUMP JUMPDEST RETURNDATASIZE SWAP2 POP PUSH2 0x1AFF JUMP JUMPDEST DUP2 PUSH2 0x1B3B SWAP2 PUSH2 0x3C7D JUMP JUMPDEST PUSH2 0x4C7 JUMPI DUP1 PUSH0 PUSH2 0x1A4E JUMP JUMPDEST POP PUSH1 0x2 DUP4 ADD SLOAD PUSH1 0x1 PUSH1 0x1 PUSH1 0xA0 SHL SUB AND CALLER EQ PUSH2 0x19F8 JUMP JUMPDEST POP CALLVALUE PUSH2 0x4C7 JUMPI DUP1 PUSH1 0x3 NOT CALLDATASIZE ADD SLT PUSH2 0x4C7 JUMPI PUSH1 0x20 PUSH1 0x5 SLOAD PUSH1 0x40 MLOAD SWAP1 DUP2 MSTORE RETURN JUMPDEST POP CALLVALUE PUSH2 0x4C7 JUMPI PUSH1 0x20 CALLDATASIZE PUSH1 0x3 NOT ADD SLT PUSH2 0x4C7 JUMPI PUSH1 0x40 PUSH1 0x4 CALLDATALOAD SWAP2 DUP3 DUP2 MSTORE PUSH1 0x4 PUSH1 0x20 MSTORE KECCAK256 SWAP1 PUSH1 0x1 DUP3 ADD SWAP1 PUSH1 0x1 DUP1 PUSH1 0xA0 SHL SUB DUP3 SLOAD AND CALLER EQ DUP1 ISZERO PUSH2 0x1C39 JUMPI JUMPDEST PUSH2 0x1BBD SWAP1 PUSH2 0x3E67 JUMP JUMPDEST PUSH0 MLOAD PUSH1 0x20 PUSH2 0x4360 PUSH0 CODECOPY PUSH0 MLOAD SWAP1 PUSH0 MSTORE PUSH2 0x2E0 PUSH1 0x2 DUP6 ADD SWAP5 PUSH2 0x1BE7 DUP7 SLOAD PUSH2 0x107F PUSH1 0xFF DUP3 PUSH1 0xB0 SHR AND PUSH2 0x408B JUMP JUMPDEST DUP1 SLOAD PUSH1 0x9 DUP3 ADD SLOAD PUSH1 0x5 DUP4 ADD SLOAD PUSH2 0x1C0B SWAP3 SWAP1 SWAP2 PUSH1 0x1 PUSH1 0x1 PUSH1 0xA0 SHL SUB SWAP1 DUP2 AND SWAP2 AND PUSH2 0x42E4 JUMP JUMPDEST POP SLOAD SWAP4 SLOAD SWAP5 SLOAD PUSH1 0x40 DUP1 MLOAD PUSH1 0x1 PUSH1 0x1 PUSH1 0xA0 SHL SUB SWAP3 DUP4 AND DUP2 MSTORE CALLER PUSH1 0x20 DUP3 ADD MSTORE SWAP7 DUP3 AND SWAP7 SWAP6 SWAP1 SWAP2 AND SWAP5 SWAP2 DUP3 SWAP2 DUP3 ADD SWAP1 JUMP JUMPDEST POP DUP3 SLOAD PUSH1 0x1 PUSH1 0x1 PUSH1 0xA0 SHL SUB AND CALLER EQ PUSH2 0x1BB4 JUMP JUMPDEST POP CALLVALUE PUSH2 0x4C7 JUMPI DUP1 PUSH1 0x3 NOT CALLDATASIZE ADD SLT PUSH2 0x4C7 JUMPI SLOAD PUSH1 0x40 MLOAD PUSH1 0x1 PUSH1 0x1 PUSH1 0xA0 SHL SUB SWAP1 SWAP2 AND DUP2 MSTORE PUSH1 0x20 SWAP1 RETURN JUMPDEST POP CALLVALUE PUSH2 0x4C7 JUMPI DUP1 PUSH1 0x3 NOT CALLDATASIZE ADD SLT PUSH2 0x4C7 JUMPI PUSH1 0x20 PUSH1 0x2 SLOAD PUSH1 0x40 MLOAD SWAP1 DUP2 MSTORE RETURN JUMPDEST POP CALLVALUE PUSH2 0x4C7 JUMPI DUP1 PUSH1 0x3 NOT CALLDATASIZE ADD SLT PUSH2 0x4C7 JUMPI PUSH2 0x1CAA PUSH2 0x42BE JUMP JUMPDEST DUP1 SLOAD PUSH1 0xFF PUSH1 0xA0 SHL NOT AND DUP2 SSTORE PUSH1 0x40 MLOAD DUP2 DUP2 MSTORE PUSH32 0x17904E4FE7D59BB4603C7C045BC275A05DA9EA3A4AC007FC80FFFEAF119186D SWAP1 PUSH1 0x20 SWAP1 LOG1 CALLER PUSH32 0x793BC6423DD0257D64F9D47DB72FD4B2162F4541AA41740BA1C5FB5E2CD41BCD DUP3 DUP1 LOG2 DUP1 RETURN JUMPDEST POP CALLVALUE PUSH2 0x4C7 JUMPI PUSH1 0x20 CALLDATASIZE PUSH1 0x3 NOT ADD SLT PUSH2 0x4C7 JUMPI PUSH1 0x4 CALLDATALOAD DUP2 MSTORE PUSH1 0x4 PUSH1 0x20 MSTORE PUSH1 0x40 SWAP1 KECCAK256 PUSH1 0x1 PUSH1 0xA0 SHL PUSH1 0x1 SWAP1 SUB DUP2 SLOAD AND SWAP1 PUSH1 0x1 PUSH1 0xA0 SHL PUSH1 0x1 SWAP1 SUB PUSH1 0x1 DUP3 ADD SLOAD AND SWAP1 PUSH1 0x2 DUP2 ADD SLOAD PUSH1 0x3 DUP3 ADD SLOAD PUSH1 0x4 DUP4 ADD SLOAD PUSH1 0x5 DUP5 ADD SLOAD PUSH1 0x6 DUP6 ADD SLOAD PUSH1 0x7 DUP7 ADD SLOAD SWAP2 PUSH1 0x8 DUP8 ADD SLOAD SWAP4 PUSH1 0x1 PUSH1 0xA0 SHL PUSH1 0x1 SWAP1 SUB PUSH1 0x9 DUP10 ADD SLOAD AND SWAP6 PUSH1 0x1 PUSH1 0xA0 SHL PUSH1 0x1 SWAP1 SUB PUSH1 0xA DUP11 ADD SLOAD AND SWAP8 PUSH1 0xB DUP11 ADD SLOAD SWAP10 PUSH1 0xC ADD SLOAD PUSH1 0xFF AND SWAP11 PUSH1 0x40 MLOAD SWAP13 DUP14 MSTORE PUSH1 0x20 DUP14 ADD MSTORE PUSH1 0x1 PUSH1 0xA0 SHL PUSH1 0x1 SWAP1 SUB DUP2 AND PUSH1 0x40 DUP14 ADD MSTORE DUP1 PUSH1 0xA0 SHR PUSH1 0xFF AND ISZERO ISZERO PUSH1 0x60 DUP14 ADD MSTORE DUP1 PUSH1 0xA8 SHR PUSH1 0xFF AND ISZERO ISZERO PUSH1 0x80 DUP14 ADD MSTORE DUP1 PUSH1 0xB0 SHR PUSH1 0xFF AND ISZERO ISZERO PUSH1 0xA0 DUP14 ADD MSTORE PUSH1 0xB8 SHR PUSH1 0xFF AND ISZERO ISZERO PUSH1 0xC0 DUP13 ADD MSTORE PUSH1 0xE0 DUP12 ADD MSTORE PUSH2 0x100 DUP11 ADD MSTORE PUSH2 0x120 DUP10 ADD MSTORE PUSH2 0x140 DUP9 ADD MSTORE PUSH2 0x160 DUP8 ADD MSTORE PUSH2 0x180 DUP7 ADD MSTORE PUSH2 0x1A0 DUP6 ADD MSTORE PUSH2 0x1C0 DUP5 ADD MSTORE PUSH2 0x1E0 DUP4 ADD MSTORE PUSH2 0x200 DUP3 ADD PUSH2 0x1E2E SWAP2 PUSH2 0x3AEE JUMP JUMPDEST PUSH2 0x220 SWAP1 RETURN JUMPDEST POP CALLVALUE PUSH2 0x4C7 JUMPI PUSH1 0x20 CALLDATASIZE PUSH1 0x3 NOT ADD SLT PUSH2 0x4C7 JUMPI PUSH1 0x40 PUSH1 0x4 CALLDATALOAD SWAP2 DUP3 DUP2 MSTORE PUSH1 0x4 PUSH1 0x20 MSTORE KECCAK256 SWAP1 PUSH1 0x1 DUP3 ADD SWAP1 PUSH1 0x1 DUP1 PUSH1 0xA0 SHL SUB DUP3 SLOAD AND CALLER EQ DUP1 ISZERO PUSH2 0x1EDB JUMPI JUMPDEST PUSH2 0x1E77 SWAP1 PUSH2 0x3E67 JUMP JUMPDEST PUSH0 MLOAD PUSH1 0x20 PUSH2 0x4360 PUSH0 CODECOPY PUSH0 MLOAD SWAP1 PUSH0 MSTORE PUSH2 0x2E0 PUSH1 0x2 DUP6 ADD SWAP5 PUSH2 0x1EA9 DUP7 SLOAD PUSH1 0xFF DUP2 PUSH1 0xB8 SHR AND ISZERO DUP1 PUSH2 0x1ECD JUMPI JUMPDEST PUSH2 0x108F SWAP1 PUSH2 0x40BD JUMP JUMPDEST DUP1 SLOAD PUSH1 0x9 DUP3 ADD SLOAD PUSH1 0x5 DUP4 ADD SLOAD PUSH2 0x1C0B SWAP3 SWAP1 SWAP2 PUSH1 0x1 PUSH1 0x1 PUSH1 0xA0 SHL SUB SWAP1 DUP2 AND SWAP2 AND PUSH2 0x4196 JUMP JUMPDEST POP PUSH1 0xB0 DUP2 SWAP1 SHR PUSH1 0xFF AND PUSH2 0x1EA0 JUMP JUMPDEST POP DUP3 SLOAD PUSH1 0x1 PUSH1 0x1 PUSH1 0xA0 SHL SUB AND CALLER EQ PUSH2 0x1E6E JUMP JUMPDEST POP CALLVALUE PUSH2 0x4C7 JUMPI DUP1 PUSH1 0x3 NOT CALLDATASIZE ADD SLT PUSH2 0x4C7 JUMPI PUSH2 0x1F07 PUSH2 0x42BE JUMP JUMPDEST DUP1 SLOAD PUSH1 0x1 PUSH1 0x1 PUSH1 0xA0 SHL SUB NOT DUP2 AND DUP3 SSTORE DUP2 SWAP1 PUSH1 0x1 PUSH1 0x1 PUSH1 0xA0 SHL SUB AND PUSH32 0x8BE0079C531659141344CD1FD0A4F28419497F9722A3DAAFE3B4186F6B6457E0 DUP3 DUP1 LOG3 DUP1 RETURN JUMPDEST POP CALLVALUE PUSH2 0x4C7 JUMPI PUSH1 0x20 CALLDATASIZE PUSH1 0x3 NOT ADD SLT PUSH2 0x4C7 JUMPI PUSH1 0x20 SWAP1 PUSH1 0x40 SWAP1 PUSH1 0x1 PUSH1 0x1 PUSH1 0xA0 SHL SUB PUSH2 0x1F70 PUSH2 0x39DD JUMP JUMPDEST AND DUP2 MSTORE PUSH1 0x1 DUP4 MSTORE DUP2 DUP2 KECCAK256 DUP2 DUP1 MSTORE DUP4 MSTORE KECCAK256 SLOAD PUSH1 0x40 MLOAD SWAP1 DUP2 MSTORE RETURN JUMPDEST POP CALLVALUE PUSH2 0x4C7 JUMPI PUSH1 0x20 CALLDATASIZE PUSH1 0x3 NOT ADD SLT PUSH2 0x4C7 JUMPI DUP1 PUSH2 0x200 PUSH1 0x40 MLOAD PUSH2 0x1FAB DUP2 PUSH2 0x3C4C JUMP JUMPDEST DUP3 DUP2 MSTORE DUP3 PUSH1 0x20 DUP3 ADD MSTORE DUP3 PUSH1 0x40 DUP3 ADD MSTORE DUP3 PUSH1 0x60 DUP3 ADD MSTORE DUP3 PUSH1 0x80 DUP3 ADD MSTORE DUP3 PUSH1 0xA0 DUP3 ADD MSTORE DUP3 PUSH1 0xC0 DUP3 ADD MSTORE DUP3 PUSH1 0xE0 DUP3 ADD MSTORE DUP3 PUSH2 0x100 DUP3 ADD MSTORE DUP3 PUSH2 0x120 DUP3 ADD MSTORE DUP3 PUSH2 0x140 DUP3 ADD MSTORE DUP3 PUSH2 0x160 DUP3 ADD MSTORE DUP3 PUSH2 0x180 DUP3 ADD MSTORE DUP3 PUSH2 0x1A0 DUP3 ADD MSTORE DUP3 PUSH2 0x1C0 DUP3 ADD MSTORE DUP3 PUSH2 0x1E0 DUP3 ADD MSTORE ADD MSTORE PUSH1 0x4 CALLDATALOAD DUP2 MSTORE PUSH1 0x4 PUSH1 0x20 MSTORE PUSH1 0x40 DUP2 KECCAK256 PUSH1 0xFF PUSH1 0xC PUSH1 0x40 MLOAD SWAP3 PUSH2 0x2031 DUP5 PUSH2 0x3C4C JUMP JUMPDEST DUP1 SLOAD PUSH1 0x1 PUSH1 0x1 PUSH1 0xA0 SHL SUB SWAP1 DUP2 AND DUP6 MSTORE PUSH1 0x1 DUP3 ADD SLOAD DUP2 AND PUSH1 0x20 DUP7 ADD MSTORE PUSH1 0x2 DUP3 ADD SLOAD DUP1 DUP3 AND PUSH1 0x40 DUP8 ADD MSTORE PUSH1 0xA0 DUP2 DUP2 SHR DUP7 AND ISZERO ISZERO PUSH1 0x60 DUP9 ADD MSTORE PUSH1 0xA8 DUP3 SWAP1 SHR DUP7 AND ISZERO ISZERO PUSH1 0x80 DUP9 ADD MSTORE PUSH1 0xB0 DUP3 SWAP1 SHR DUP7 AND ISZERO ISZERO SWAP1 DUP8 ADD MSTORE PUSH1 0xB8 SHR DUP5 AND ISZERO ISZERO PUSH1 0xC0 DUP7 ADD MSTORE PUSH1 0x3 DUP3 ADD SLOAD PUSH1 0xE0 DUP7 ADD MSTORE PUSH1 0x4 DUP3 ADD SLOAD PUSH2 0x100 DUP7 ADD MSTORE PUSH1 0x5 DUP3 ADD SLOAD PUSH2 0x120 DUP7 ADD MSTORE PUSH1 0x6 DUP1 DUP4 ADD SLOAD PUSH2 0x140 DUP8 ADD MSTORE PUSH1 0x7 DUP4 ADD SLOAD PUSH2 0x160 DUP8 ADD MSTORE PUSH1 0x8 DUP4 ADD SLOAD PUSH2 0x180 DUP8 ADD MSTORE PUSH1 0x9 DUP4 ADD SLOAD DUP3 AND PUSH2 0x1A0 DUP8 ADD MSTORE PUSH1 0xA DUP4 ADD SLOAD SWAP1 SWAP2 AND PUSH2 0x1C0 DUP7 ADD MSTORE PUSH1 0xB DUP3 ADD SLOAD PUSH2 0x1E0 DUP7 ADD MSTORE SWAP2 ADD SLOAD SWAP1 SWAP2 AND SWAP1 DUP2 LT ISZERO PUSH2 0x211E JUMPI PUSH2 0x220 SWAP3 POP PUSH2 0x200 DUP3 ADD MSTORE PUSH2 0x211C PUSH1 0x40 MLOAD DUP1 SWAP3 PUSH2 0x3AFB JUMP JUMPDEST RETURN JUMPDEST PUSH4 0x4E487B71 PUSH1 0xE0 SHL DUP4 MSTORE PUSH1 0x21 PUSH1 0x4 MSTORE PUSH1 0x24 DUP4 REVERT JUMPDEST POP CALLVALUE PUSH2 0x4C7 JUMPI PUSH2 0x2141 CALLDATASIZE PUSH2 0x3AD8 JUMP JUMPDEST SWAP2 SWAP1 DUP1 DUP3 MSTORE PUSH1 0x4 PUSH1 0x20 MSTORE PUSH1 0x40 DUP3 KECCAK256 SWAP2 PUSH1 0x1 DUP1 PUSH1 0xA0 SHL SUB DUP4 SLOAD AND CALLER EQ DUP1 ISZERO PUSH2 0x22B1 JUMPI JUMPDEST PUSH2 0x216C SWAP1 PUSH2 0x3E67 JUMP JUMPDEST PUSH20 0x0 DUP1 EXTCODESIZE ISZERO PUSH2 0x543 JUMPI DUP2 PUSH1 0x40 MLOAD DUP1 SWAP3 PUSH4 0x252A867 PUSH1 0xE5 SHL DUP3 MSTORE DUP2 DUP1 PUSH2 0x21A7 DUP10 PUSH1 0x4 DUP4 ADD PUSH2 0x3F99 JUMP JUMPDEST SUB SWAP2 GAS DELEGATECALL DUP1 ISZERO PUSH2 0x538 JUMPI SWAP1 DUP3 SWAP2 PUSH2 0x229C JUMPI JUMPDEST POP POP PUSH1 0x5 DUP4 ADD PUSH2 0x21D0 DUP6 DUP3 SLOAD PUSH2 0x729 DUP3 DUP3 LT PUSH2 0x3C1B JUMP JUMPDEST SWAP1 SSTORE PUSH1 0x1 DUP1 PUSH1 0xA0 SHL SUB PUSH1 0x9 DUP5 ADD SLOAD AND SWAP4 PUSH1 0x7 DUP5 ADD SLOAD SWAP2 PUSH1 0x40 MLOAD SWAP3 PUSH4 0x1C8F0847 PUSH1 0xE0 SHL DUP5 MSTORE DUP3 PUSH1 0x4 DUP6 ADD MSTORE PUSH1 0x24 DUP5 ADD MSTORE PUSH1 0x20 DUP4 PUSH1 0x44 DUP2 PUSH20 0x0 GAS DELEGATECALL SWAP1 DUP2 ISZERO PUSH2 0x4D2 JUMPI SWAP1 PUSH2 0x225D JUMPI JUMPDEST PUSH1 0x1 DUP6 ADD DUP1 SLOAD SWAP1 SWAP6 PUSH0 MLOAD PUSH1 0x20 PUSH2 0x43A0 PUSH0 CODECOPY PUSH0 MLOAD SWAP1 PUSH0 MSTORE SWAP5 POP PUSH2 0x2E0 SWAP2 PUSH2 0x7BB SWAP1 PUSH1 0x1 PUSH1 0x1 PUSH1 0xA0 SHL SUB AND DUP10 PUSH2 0x7B5 DUP7 DUP9 PUSH2 0x3EC9 JUMP JUMPDEST POP PUSH1 0x20 DUP3 RETURNDATASIZE PUSH1 0x20 GT PUSH2 0x2294 JUMPI JUMPDEST DUP2 PUSH2 0x2277 PUSH1 0x20 SWAP4 DUP4 PUSH2 0x3C7D JUMP JUMPDEST DUP2 ADD SUB SLT PUSH2 0x50A JUMPI PUSH0 MLOAD PUSH1 0x20 PUSH2 0x43A0 PUSH0 CODECOPY PUSH0 MLOAD SWAP1 PUSH0 MSTORE SWAP2 MLOAD PUSH2 0x2229 JUMP JUMPDEST RETURNDATASIZE SWAP2 POP PUSH2 0x226A JUMP JUMPDEST DUP2 PUSH2 0x22A6 SWAP2 PUSH2 0x3C7D JUMP JUMPDEST PUSH2 0x4C7 JUMPI DUP1 PUSH0 PUSH2 0x21B9 JUMP JUMPDEST POP PUSH1 0x2 DUP4 ADD SLOAD PUSH1 0x1 PUSH1 0x1 PUSH1 0xA0 SHL SUB AND CALLER EQ PUSH2 0x2163 JUMP JUMPDEST POP PUSH1 0x40 CALLDATASIZE PUSH1 0x3 NOT ADD SLT PUSH2 0x4C7 JUMPI PUSH2 0x22DC PUSH2 0x39DD JUMP JUMPDEST PUSH1 0x24 CALLDATALOAD PUSH2 0x22EF PUSH1 0xFF DUP5 SLOAD PUSH1 0xA0 SHR AND PUSH2 0x3BEA JUMP JUMPDEST PUSH2 0x22FA DUP2 ISZERO ISZERO PUSH2 0x3F00 JUMP JUMPDEST PUSH1 0x2 SLOAD PUSH1 0x40 MLOAD SWAP1 PUSH4 0x1C8F0847 PUSH1 0xE0 SHL DUP3 MSTORE DUP3 PUSH1 0x4 DUP4 ADD MSTORE PUSH1 0x24 DUP3 ADD MSTORE PUSH1 0x20 DUP2 PUSH1 0x44 DUP2 PUSH20 0x0 GAS DELEGATECALL SWAP1 DUP2 ISZERO PUSH2 0x247F JUMPI DUP5 SWAP2 PUSH2 0x244D JUMPI JUMPDEST POP PUSH1 0x1 PUSH1 0x1 PUSH1 0xA0 SHL SUB DUP4 AND SWAP3 DUP4 PUSH2 0x23A7 JUMPI PUSH2 0x235C DUP3 DUP5 PUSH2 0x407E JUMP JUMPDEST CALLVALUE SUB PUSH2 0x3C5 JUMPI DUP2 DUP2 PUSH2 0x2372 DUP6 PUSH2 0x2384 SWAP5 CALLER PUSH2 0x42E4 JUMP JUMPDEST POP PUSH1 0x3 SLOAD PUSH1 0x1 PUSH1 0x1 PUSH1 0xA0 SHL SUB AND PUSH2 0x42E4 JUMP JUMPDEST POP JUMPDEST PUSH1 0x40 MLOAD SWAP2 DUP3 MSTORE PUSH1 0x20 DUP3 ADD MSTORE PUSH0 MLOAD PUSH1 0x20 PUSH2 0x43C0 PUSH0 CODECOPY PUSH0 MLOAD SWAP1 PUSH0 MSTORE PUSH1 0x40 CALLER SWAP3 LOG3 DUP1 RETURN JUMPDEST PUSH2 0x23B1 DUP3 DUP5 PUSH2 0x407E JUMP JUMPDEST PUSH1 0x40 MLOAD SWAP1 PUSH4 0x23B872DD PUSH1 0xE0 SHL DUP3 MSTORE CALLER PUSH1 0x4 DUP4 ADD MSTORE ADDRESS PUSH1 0x24 DUP4 ADD MSTORE PUSH1 0x44 DUP3 ADD MSTORE PUSH1 0x20 DUP2 PUSH1 0x64 DUP2 DUP10 DUP10 GAS CALL SWAP1 DUP2 ISZERO PUSH2 0x2442 JUMPI DUP7 SWAP2 PUSH2 0x2404 JUMPI JUMPDEST POP ISZERO PUSH2 0x468 JUMPI DUP2 DUP2 PUSH2 0x2372 DUP6 PUSH2 0x23FE SWAP5 CALLER PUSH2 0x42E4 JUMP JUMPDEST POP PUSH2 0x2386 JUMP JUMPDEST SWAP1 POP PUSH1 0x20 DUP2 RETURNDATASIZE PUSH1 0x20 GT PUSH2 0x243A JUMPI JUMPDEST DUP2 PUSH2 0x241F PUSH1 0x20 SWAP4 DUP4 PUSH2 0x3C7D JUMP JUMPDEST DUP2 ADD SUB SLT PUSH2 0x2436 JUMPI PUSH2 0x2430 SWAP1 PUSH2 0x3CB3 JUMP JUMPDEST PUSH0 PUSH2 0x23E8 JUMP JUMPDEST DUP6 DUP1 REVERT JUMPDEST RETURNDATASIZE SWAP2 POP PUSH2 0x2412 JUMP JUMPDEST PUSH1 0x40 MLOAD RETURNDATASIZE DUP9 DUP3 RETURNDATACOPY RETURNDATASIZE SWAP1 REVERT JUMPDEST SWAP1 POP PUSH1 0x20 DUP2 RETURNDATASIZE PUSH1 0x20 GT PUSH2 0x2477 JUMPI JUMPDEST DUP2 PUSH2 0x2468 PUSH1 0x20 SWAP4 DUP4 PUSH2 0x3C7D JUMP JUMPDEST DUP2 ADD SUB SLT PUSH2 0x50A JUMPI MLOAD PUSH0 PUSH2 0x2341 JUMP JUMPDEST RETURNDATASIZE SWAP2 POP PUSH2 0x245B JUMP JUMPDEST PUSH1 0x40 MLOAD RETURNDATASIZE DUP7 DUP3 RETURNDATACOPY RETURNDATASIZE SWAP1 REVERT JUMPDEST POP CALLVALUE PUSH2 0x4C7 JUMPI DUP1 PUSH1 0x3 NOT CALLDATASIZE ADD SLT PUSH2 0x4C7 JUMPI PUSH1 0xFF PUSH1 0x20 SWAP2 SLOAD PUSH1 0xA0 SHR AND PUSH1 0x40 MLOAD SWAP1 ISZERO ISZERO DUP2 MSTORE RETURN JUMPDEST POP CALLVALUE PUSH2 0x4C7 JUMPI PUSH1 0x20 CALLDATASIZE PUSH1 0x3 NOT ADD SLT PUSH2 0x4C7 JUMPI PUSH1 0x40 PUSH1 0x4 CALLDATALOAD SWAP2 DUP3 DUP2 MSTORE PUSH1 0x4 PUSH1 0x20 MSTORE KECCAK256 SWAP1 PUSH1 0x1 DUP3 ADD SWAP2 PUSH2 0x24EA PUSH1 0x1 DUP1 PUSH1 0xA0 SHL SUB DUP5 SLOAD AND CALLER EQ PUSH2 0x3E67 JUMP JUMPDEST PUSH1 0x2 DUP2 ADD SWAP1 PUSH2 0x2503 DUP3 SLOAD PUSH2 0x107F PUSH1 0xFF DUP3 PUSH1 0xB0 SHR AND PUSH2 0x408B JUMP JUMPDEST PUSH1 0xA DUP2 ADD SLOAD CALLER PUSH0 SWAP1 DUP2 MSTORE PUSH1 0x1 PUSH1 0x20 SWAP1 DUP2 MSTORE PUSH1 0x40 DUP1 DUP4 KECCAK256 PUSH1 0x1 PUSH1 0x1 PUSH1 0xA0 SHL SUB SWAP1 SWAP5 AND DUP1 DUP5 MSTORE SWAP4 SWAP1 SWAP2 MSTORE SWAP1 KECCAK256 SLOAD PUSH2 0x10F9 SWAP2 PUSH2 0x2543 PUSH1 0x4 DUP6 ADD SLOAD DUP1 SWAP4 LT ISZERO PUSH2 0x3C1B JUMP JUMPDEST CALLER PUSH2 0x40EF JUMP JUMPDEST POP CALLVALUE PUSH2 0x4C7 JUMPI PUSH1 0x20 CALLDATASIZE PUSH1 0x3 NOT ADD SLT PUSH2 0x4C7 JUMPI PUSH1 0x4 CALLDATALOAD SWAP1 PUSH1 0x2 SLOAD PUSH1 0x40 MLOAD SWAP1 PUSH4 0x1C8F0847 PUSH1 0xE0 SHL DUP3 MSTORE DUP4 PUSH1 0x4 DUP4 ADD MSTORE PUSH1 0x24 DUP3 ADD MSTORE PUSH1 0x20 DUP2 PUSH1 0x44 DUP2 PUSH20 0x0 GAS DELEGATECALL SWAP2 DUP3 ISZERO PUSH2 0x4D2 JUMPI SWAP2 PUSH2 0x25B9 JUMPI JUMPDEST PUSH1 0x20 PUSH2 0x25B1 DUP4 DUP6 PUSH2 0x407E JUMP JUMPDEST PUSH1 0x40 MLOAD SWAP1 DUP2 MSTORE RETURN JUMPDEST SWAP1 POP PUSH1 0x20 DUP2 RETURNDATASIZE PUSH1 0x20 GT PUSH2 0x25E4 JUMPI JUMPDEST DUP2 PUSH2 0x25D4 PUSH1 0x20 SWAP4 DUP4 PUSH2 0x3C7D JUMP JUMPDEST DUP2 ADD SUB SLT PUSH2 0x50A JUMPI MLOAD PUSH1 0x20 PUSH2 0x25A5 JUMP JUMPDEST RETURNDATASIZE SWAP2 POP PUSH2 0x25C7 JUMP JUMPDEST POP CALLVALUE PUSH2 0x4C7 JUMPI DUP1 PUSH1 0x3 NOT CALLDATASIZE ADD SLT PUSH2 0x4C7 JUMPI PUSH2 0x2605 PUSH2 0x42BE JUMP JUMPDEST DUP1 SLOAD PUSH1 0xFF PUSH1 0xA0 SHL NOT AND PUSH1 0x1 PUSH1 0xA0 SHL OR DUP2 SSTORE PUSH1 0x40 MLOAD PUSH1 0x1 DUP2 MSTORE PUSH32 0x17904E4FE7D59BB4603C7C045BC275A05DA9EA3A4AC007FC80FFFEAF119186D SWAP1 PUSH1 0x20 SWAP1 LOG1 CALLER PUSH32 0xAE81C15A680E6640BA872CA44F364AD67C60A04089AD9FA100F7A3CE94DA9F68 DUP3 DUP1 LOG2 DUP1 RETURN JUMPDEST POP CALLVALUE PUSH2 0x50A JUMPI PUSH1 0x20 CALLDATASIZE PUSH1 0x3 NOT ADD SLT PUSH2 0x50A JUMPI PUSH1 0x4 CALLDATALOAD DUP1 PUSH0 MSTORE PUSH1 0x4 PUSH1 0x20 MSTORE PUSH1 0x40 PUSH0 KECCAK256 PUSH1 0x1 DUP1 PUSH1 0xA0 SHL SUB DUP2 SLOAD AND CALLER EQ DUP1 ISZERO PUSH2 0x2994 JUMPI JUMPDEST PUSH2 0x26A8 SWAP1 PUSH2 0x3E67 JUMP JUMPDEST PUSH20 0x0 DUP1 EXTCODESIZE ISZERO PUSH2 0x50A JUMPI PUSH0 PUSH1 0x40 MLOAD DUP1 SWAP3 PUSH4 0x252A867 PUSH1 0xE5 SHL DUP3 MSTORE DUP2 DUP1 PUSH2 0x26E3 DUP8 PUSH1 0x4 DUP4 ADD PUSH2 0x3F99 JUMP JUMPDEST SUB SWAP2 GAS DELEGATECALL DUP1 ISZERO PUSH2 0x2989 JUMPI PUSH2 0x2974 JUMPI JUMPDEST POP PUSH1 0x5 DUP2 ADD SLOAD PUSH1 0x9 DUP3 ADD SLOAD PUSH1 0x6 DUP4 ADD SLOAD PUSH1 0xA DUP5 ADD SLOAD PUSH1 0x7 DUP6 ADD SLOAD PUSH1 0x8 DUP7 ADD SLOAD PUSH1 0x40 MLOAD PUSH4 0x1C8F0847 PUSH1 0xE0 SHL DUP2 MSTORE PUSH1 0x4 DUP2 ADD DUP8 SWAP1 MSTORE PUSH1 0x24 DUP2 ADD SWAP3 SWAP1 SWAP3 MSTORE PUSH1 0x1 PUSH1 0x1 PUSH1 0xA0 SHL SUB SWAP5 DUP6 AND SWAP7 SWAP4 SWAP6 PUSH20 0x0 SWAP6 SWAP1 SWAP4 AND SWAP4 SWAP1 PUSH1 0x20 DUP4 PUSH1 0x44 DUP2 DUP10 GAS DELEGATECALL SWAP3 DUP4 ISZERO PUSH2 0x15FD JUMPI DUP11 SWAP4 PUSH2 0x293F JUMPI JUMPDEST POP PUSH1 0x20 SWAP1 PUSH1 0x44 PUSH1 0x40 MLOAD DUP1 SWAP9 DUP2 SWAP4 PUSH4 0x1C8F0847 PUSH1 0xE0 SHL DUP4 MSTORE DUP12 PUSH1 0x4 DUP5 ADD MSTORE PUSH1 0x24 DUP4 ADD MSTORE GAS DELEGATECALL SWAP5 DUP6 ISZERO PUSH2 0x2934 JUMPI DUP9 SWAP10 SWAP9 SWAP8 SWAP9 SWAP6 PUSH2 0x28F9 JUMPI JUMPDEST POP PUSH1 0x1 DUP2 ADD DUP1 SLOAD SWAP1 SWAP5 DUP9 SWAP5 SWAP4 SWAP3 SWAP2 PUSH1 0x1 PUSH1 0x1 PUSH1 0xA0 SHL SUB AND DUP11 PUSH2 0x27C5 DUP6 DUP8 PUSH2 0x3EC9 JUMP JUMPDEST SWAP1 PUSH2 0x27CF SWAP3 PUSH2 0x4196 JUMP JUMPDEST POP PUSH1 0x2 DUP3 ADD DUP1 SLOAD SWAP1 SWAP11 PUSH2 0x27ED SWAP2 DUP6 SWAP2 SWAP1 PUSH1 0x1 PUSH1 0x1 PUSH1 0xA0 SHL SUB AND PUSH2 0x4196 JUMP JUMPDEST POP DUP2 SLOAD PUSH1 0x1 PUSH1 0x1 PUSH1 0xA0 SHL SUB AND DUP2 PUSH2 0x2804 DUP11 DUP1 PUSH2 0x3EC9 JUMP JUMPDEST SWAP1 PUSH2 0x280E SWAP3 PUSH2 0x4196 JUMP JUMPDEST POP DUP10 SLOAD PUSH2 0x2825 SWAP2 DUP9 SWAP2 PUSH1 0x1 PUSH1 0x1 PUSH1 0xA0 SHL SUB AND PUSH2 0x4196 JUMP JUMPDEST POP SLOAD SWAP4 SLOAD SWAP8 SLOAD PUSH1 0x40 MLOAD PUSH1 0x1 PUSH1 0x1 PUSH1 0xA0 SHL SUB SWAP10 DUP11 AND SWAP11 SWAP6 DUP11 AND SWAP10 SWAP1 SWAP2 AND SWAP7 DUP11 SWAP7 DUP11 SWAP7 DUP9 SWAP4 DUP9 SWAP4 SWAP2 SWAP3 SWAP1 SWAP2 DUP3 SWAP2 PUSH2 0x285C SWAP2 CALLER DUP15 DUP6 PUSH2 0x3ED6 JUMP JUMPDEST SUB PUSH32 0x8AF39814826D4542F7FE66E6FA6AC2AC59BFC8221394F51A41DBA5C54DBA0AC9 SWAP2 LOG4 PUSH1 0x40 MLOAD SWAP2 DUP3 SWAP2 PUSH2 0x2892 SWAP2 CALLER DUP10 DUP6 PUSH2 0x3ED6 JUMP JUMPDEST SUB PUSH0 MLOAD PUSH1 0x20 PUSH2 0x43A0 PUSH0 CODECOPY PUSH0 MLOAD SWAP1 PUSH0 MSTORE SWAP2 LOG4 PUSH1 0x40 DUP1 MLOAD PUSH1 0x1 PUSH1 0x1 PUSH1 0xA0 SHL SUB SWAP3 SWAP1 SWAP3 AND DUP3 MSTORE CALLER PUSH1 0x20 DUP4 ADD MSTORE PUSH32 0xFAEE379435B6A0C297F1A08C66517FDC202DEBC6D275E6DD73630E3EBD1BDD97 SWAP2 LOG4 PUSH1 0x6 SLOAD PUSH2 0x28EA SWAP1 PUSH2 0x3E45 JUMP JUMPDEST PUSH1 0x6 SSTORE PUSH1 0x40 MLOAD PUSH1 0x1 DUP2 MSTORE PUSH1 0x20 SWAP1 RETURN JUMPDEST SWAP3 SWAP2 SWAP7 POP SWAP4 POP PUSH1 0x20 DUP3 RETURNDATASIZE PUSH1 0x20 GT PUSH2 0x292C JUMPI JUMPDEST DUP2 PUSH2 0x2918 PUSH1 0x20 SWAP4 DUP4 PUSH2 0x3C7D JUMP JUMPDEST DUP2 ADD SUB SLT PUSH2 0x50A JUMPI SWAP1 MLOAD DUP8 SWAP6 SWAP1 SWAP4 DUP7 PUSH2 0x27A3 JUMP JUMPDEST RETURNDATASIZE SWAP2 POP PUSH2 0x290B JUMP JUMPDEST PUSH1 0x40 MLOAD RETURNDATASIZE DUP12 DUP3 RETURNDATACOPY RETURNDATASIZE SWAP1 REVERT JUMPDEST SWAP1 SWAP3 POP PUSH1 0x20 DUP2 RETURNDATASIZE PUSH1 0x20 GT PUSH2 0x296C JUMPI JUMPDEST DUP2 PUSH2 0x295B PUSH1 0x20 SWAP4 DUP4 PUSH2 0x3C7D JUMP JUMPDEST DUP2 ADD SUB SLT PUSH2 0x50A JUMPI MLOAD SWAP2 PUSH1 0x20 PUSH2 0x276D JUMP JUMPDEST RETURNDATASIZE SWAP2 POP PUSH2 0x294E JUMP JUMPDEST PUSH2 0x2981 SWAP2 SWAP4 POP PUSH0 SWAP1 PUSH2 0x3C7D JUMP JUMPDEST PUSH0 SWAP2 PUSH0 PUSH2 0x26F2 JUMP JUMPDEST PUSH1 0x40 MLOAD RETURNDATASIZE PUSH0 DUP3 RETURNDATACOPY RETURNDATASIZE SWAP1 REVERT JUMPDEST POP PUSH1 0x2 DUP2 ADD SLOAD PUSH1 0x1 PUSH1 0x1 PUSH1 0xA0 SHL SUB AND CALLER EQ PUSH2 0x269F JUMP JUMPDEST PUSH2 0x29B3 CALLDATASIZE PUSH2 0x3A75 JUMP JUMPDEST SWAP2 SWAP6 SWAP4 PUSH1 0xFF PUSH0 SWAP7 SWAP5 SWAP3 SWAP7 SLOAD PUSH1 0xA0 SHR AND SWAP3 PUSH2 0x29CC DUP5 PUSH2 0x3BEA JUMP JUMPDEST CALLER PUSH0 MSTORE PUSH1 0x1 PUSH1 0x20 MSTORE PUSH1 0x40 PUSH0 KECCAK256 PUSH1 0x1 DUP1 PUSH1 0xA0 SHL SUB DUP10 AND PUSH0 MSTORE PUSH1 0x20 MSTORE PUSH1 0x40 PUSH0 KECCAK256 SLOAD DUP3 DUP2 LT PUSH2 0x2D02 JUMPI JUMPDEST POP PUSH2 0x220 SWAP4 POP PUSH2 0x2A3D SWAP1 PUSH2 0x2A08 DUP4 DUP11 CALLER PUSH2 0x40EF JUMP JUMPDEST POP PUSH20 0x0 SWAP8 PUSH1 0x40 MLOAD SWAP10 DUP11 SWAP6 DUP7 SWAP6 PUSH4 0x652E83D7 PUSH1 0xE0 SHL DUP8 MSTORE DUP10 DUP12 CALLER PUSH1 0x4 DUP11 ADD PUSH2 0x3F31 JUMP JUMPDEST SUB DUP2 DUP7 GAS DELEGATECALL SWAP4 DUP5 ISZERO PUSH2 0x2989 JUMPI PUSH0 SWAP5 PUSH2 0x2CE1 JUMPI JUMPDEST POP PUSH1 0x20 PUSH1 0x5 SLOAD PUSH2 0x244 PUSH1 0x40 MLOAD DUP1 SWAP7 DUP2 SWAP4 PUSH4 0x797D4EE1 PUSH1 0xE0 SHL DUP4 MSTORE PUSH2 0x2A77 PUSH1 0x4 DUP5 ADD DUP12 PUSH2 0x3AFB JUMP JUMPDEST PUSH2 0x224 DUP4 ADD MSTORE GAS DELEGATECALL SWAP3 DUP4 ISZERO PUSH2 0x2989 JUMPI PUSH0 SWAP4 PUSH2 0x2CAD JUMPI JUMPDEST POP PUSH2 0x2A99 PUSH1 0x5 SLOAD PUSH2 0x3E45 JUMP JUMPDEST PUSH1 0x5 SSTORE PUSH0 DUP4 DUP2 MSTORE PUSH1 0x4 PUSH1 0x20 SWAP1 DUP2 MSTORE PUSH1 0x40 SWAP2 DUP3 SWAP1 KECCAK256 DUP7 MLOAD DUP2 SLOAD PUSH1 0x1 PUSH1 0x1 PUSH1 0xA0 SHL SUB SWAP2 DUP3 AND PUSH1 0x1 PUSH1 0x1 PUSH1 0xA0 SHL SUB NOT SWAP2 DUP3 AND OR DUP4 SSTORE SWAP3 DUP9 ADD MLOAD PUSH1 0x1 DUP4 ADD DUP1 SLOAD SWAP2 DUP4 AND SWAP2 SWAP1 SWAP5 AND OR SWAP1 SWAP3 SSTORE SWAP2 DUP7 ADD MLOAD PUSH1 0x2 DUP4 ADD DUP1 SLOAD PUSH1 0x60 DUP10 ADD MLOAD PUSH1 0xFF PUSH1 0xA0 SHL SWAP1 ISZERO ISZERO PUSH1 0xA0 SHL AND SWAP3 SWAP1 SWAP4 AND PUSH1 0x1 PUSH1 0x1 PUSH1 0xA8 SHL SUB NOT SWAP1 SWAP4 AND SWAP3 SWAP1 SWAP3 OR OR DUP2 SSTORE PUSH2 0x200 SWAP2 PUSH1 0xC SWAP2 PUSH2 0x2B72 SWAP1 JUMPDEST PUSH1 0x80 DUP10 ADD MLOAD DUP2 SLOAD PUSH1 0xFF PUSH1 0xA8 SHL NOT AND SWAP1 ISZERO ISZERO PUSH1 0xA8 SHL PUSH1 0xFF PUSH1 0xA8 SHL AND OR DUP2 SSTORE PUSH1 0xA0 DUP10 ADD MLOAD DUP2 SLOAD PUSH1 0xC0 DUP12 ADD MLOAD PUSH2 0xFFFF PUSH1 0xB0 SHL NOT SWAP1 SWAP2 AND SWAP2 ISZERO ISZERO PUSH1 0xB0 SHL PUSH1 0xFF PUSH1 0xB0 SHL AND SWAP2 SWAP1 SWAP2 OR SWAP1 ISZERO ISZERO PUSH1 0xB8 SHL PUSH1 0xFF PUSH1 0xB8 SHL AND OR SWAP1 SSTORE JUMP JUMPDEST PUSH1 0xE0 DUP8 ADD MLOAD PUSH1 0x3 DUP3 ADD SSTORE PUSH2 0x100 DUP8 ADD MLOAD PUSH1 0x4 DUP3 ADD SSTORE PUSH2 0x120 DUP8 ADD MLOAD PUSH1 0x5 DUP3 ADD SSTORE PUSH2 0x140 DUP8 ADD MLOAD PUSH1 0x6 DUP1 DUP4 ADD SWAP2 SWAP1 SWAP2 SSTORE PUSH2 0x160 DUP9 ADD MLOAD PUSH1 0x7 DUP4 ADD SSTORE PUSH2 0x180 DUP9 ADD MLOAD PUSH1 0x8 DUP4 ADD SSTORE PUSH2 0x1A0 DUP9 ADD MLOAD PUSH1 0x9 DUP4 ADD DUP1 SLOAD PUSH1 0x1 PUSH1 0x1 PUSH1 0xA0 SHL SUB SWAP3 DUP4 AND PUSH1 0x1 PUSH1 0x1 PUSH1 0xA0 SHL SUB NOT SWAP2 DUP3 AND OR SWAP1 SWAP2 SSTORE PUSH2 0x1C0 DUP11 ADD MLOAD PUSH1 0xA DUP6 ADD DUP1 SLOAD SWAP2 SWAP1 SWAP4 AND SWAP2 AND OR SWAP1 SSTORE PUSH2 0x1E0 DUP9 ADD MLOAD PUSH1 0xB DUP4 ADD SSTORE SWAP3 SWAP1 SWAP7 ADD MLOAD SWAP6 ADD SWAP1 DUP6 LT ISZERO PUSH2 0x2C99 JUMPI PUSH1 0x20 SWAP5 PUSH1 0xFF DUP1 NOT DUP4 SLOAD AND SWAP2 AND OR SWAP1 SSTORE PUSH1 0x40 MLOAD SWAP1 PUSH1 0x1 DUP1 PUSH1 0xA0 SHL SUB AND SWAP2 DUP3 DUP3 MSTORE PUSH1 0x1 DUP1 PUSH1 0xA0 SHL SUB AND SWAP1 DUP4 PUSH32 0x5E02698C1650D6CBE1F7E8A48609D0DA45AD7F5E4C13CD8B196F82965C0AB0D5 DUP7 CALLER SWAP4 LOG4 DUP1 PUSH2 0x2C6A JUMPI JUMPDEST POP PUSH1 0x40 MLOAD SWAP1 DUP2 MSTORE RETURN JUMPDEST PUSH32 0x957372C0E02D2882134CC0EEBBEF9E446634D8CCBB1CBB112BDEFDD3CF0A643C DUP4 PUSH1 0x40 MLOAD DUP5 DUP2 MSTORE LOG2 DUP3 PUSH2 0x2C61 JUMP JUMPDEST PUSH4 0x4E487B71 PUSH1 0xE0 SHL PUSH0 MSTORE PUSH1 0x21 PUSH1 0x4 MSTORE PUSH1 0x24 PUSH0 REVERT JUMPDEST SWAP1 SWAP3 POP PUSH1 0x20 DUP2 RETURNDATASIZE PUSH1 0x20 GT PUSH2 0x2CD9 JUMPI JUMPDEST DUP2 PUSH2 0x2CC9 PUSH1 0x20 SWAP4 DUP4 PUSH2 0x3C7D JUMP JUMPDEST DUP2 ADD SUB SLT PUSH2 0x50A JUMPI MLOAD SWAP2 DUP5 PUSH2 0x2A8D JUMP JUMPDEST RETURNDATASIZE SWAP2 POP PUSH2 0x2CBC JUMP JUMPDEST PUSH2 0x2CFB SWAP2 SWAP5 POP PUSH2 0x220 RETURNDATASIZE DUP2 GT PUSH2 0xD4F JUMPI PUSH2 0xD41 DUP2 DUP4 PUSH2 0x3C7D JUMP JUMPDEST SWAP3 DUP5 PUSH2 0x2A50 JUMP JUMPDEST PUSH2 0x2D0F PUSH2 0x2D15 SWAP2 DUP5 PUSH2 0x3EC9 JUMP JUMPDEST SWAP5 PUSH2 0x3BEA JUMP JUMPDEST PUSH2 0x2D20 DUP5 ISZERO ISZERO PUSH2 0x3F00 JUMP JUMPDEST PUSH1 0x2 SLOAD SWAP1 PUSH1 0x40 MLOAD SWAP2 PUSH4 0x1C8F0847 PUSH1 0xE0 SHL DUP4 MSTORE DUP6 PUSH1 0x4 DUP5 ADD MSTORE PUSH1 0x24 DUP4 ADD MSTORE PUSH1 0x20 DUP3 PUSH1 0x44 DUP2 PUSH20 0x0 GAS DELEGATECALL SWAP2 DUP3 ISZERO PUSH2 0x2989 JUMPI PUSH0 SWAP3 PUSH2 0x2E8F JUMPI JUMPDEST POP PUSH1 0x1 PUSH1 0x1 PUSH1 0xA0 SHL SUB DUP10 AND DUP1 PUSH2 0x2DDB JUMPI PUSH2 0x2D82 DUP4 DUP8 PUSH2 0x407E JUMP JUMPDEST CALLVALUE SUB PUSH2 0x3C5 JUMPI DUP6 PUSH2 0x2A3D SWAP4 PUSH2 0x2D9B PUSH2 0x220 SWAP9 DUP14 CALLER PUSH2 0x42E4 JUMP JUMPDEST POP PUSH1 0x3 SLOAD PUSH2 0x2DB5 SWAP1 DUP3 SWAP1 DUP15 SWAP1 PUSH1 0x1 PUSH1 0x1 PUSH1 0xA0 SHL SUB AND PUSH2 0x42E4 JUMP JUMPDEST POP JUMPDEST PUSH1 0x40 MLOAD SWAP2 DUP3 MSTORE PUSH1 0x20 DUP3 ADD MSTORE PUSH0 MLOAD PUSH1 0x20 PUSH2 0x43C0 PUSH0 CODECOPY PUSH0 MLOAD SWAP1 PUSH0 MSTORE PUSH1 0x40 CALLER SWAP3 LOG3 SWAP1 PUSH2 0x29F3 JUMP JUMPDEST PUSH2 0x2DE5 DUP4 DUP8 PUSH2 0x407E JUMP JUMPDEST PUSH1 0x40 MLOAD SWAP1 PUSH4 0x23B872DD PUSH1 0xE0 SHL DUP3 MSTORE CALLER PUSH1 0x4 DUP4 ADD MSTORE ADDRESS PUSH1 0x24 DUP4 ADD MSTORE PUSH1 0x44 DUP3 ADD MSTORE PUSH1 0x20 DUP2 PUSH1 0x64 DUP2 PUSH0 DUP7 GAS CALL SWAP1 DUP2 ISZERO PUSH2 0x2989 JUMPI PUSH0 SWAP2 PUSH2 0x2E55 JUMPI JUMPDEST POP ISZERO PUSH2 0x468 JUMPI DUP6 PUSH2 0x2A3D SWAP4 PUSH2 0x2E35 PUSH2 0x220 SWAP9 DUP14 CALLER PUSH2 0x42E4 JUMP JUMPDEST POP PUSH1 0x3 SLOAD PUSH2 0x2E4F SWAP1 DUP3 SWAP1 DUP15 SWAP1 PUSH1 0x1 PUSH1 0x1 PUSH1 0xA0 SHL SUB AND PUSH2 0x42E4 JUMP JUMPDEST POP PUSH2 0x2DB7 JUMP JUMPDEST SWAP1 POP PUSH1 0x20 DUP2 RETURNDATASIZE PUSH1 0x20 GT PUSH2 0x2E87 JUMPI JUMPDEST DUP2 PUSH2 0x2E70 PUSH1 0x20 SWAP4 DUP4 PUSH2 0x3C7D JUMP JUMPDEST DUP2 ADD SUB SLT PUSH2 0x50A JUMPI PUSH2 0x2E81 SWAP1 PUSH2 0x3CB3 JUMP JUMPDEST DUP12 PUSH2 0x2E1C JUMP JUMPDEST RETURNDATASIZE SWAP2 POP PUSH2 0x2E63 JUMP JUMPDEST SWAP1 SWAP2 POP PUSH1 0x20 DUP2 RETURNDATASIZE PUSH1 0x20 GT PUSH2 0x2EBB JUMPI JUMPDEST DUP2 PUSH2 0x2EAB PUSH1 0x20 SWAP4 DUP4 PUSH2 0x3C7D JUMP JUMPDEST DUP2 ADD SUB SLT PUSH2 0x50A JUMPI MLOAD SWAP1 DUP10 PUSH2 0x2D68 JUMP JUMPDEST RETURNDATASIZE SWAP2 POP PUSH2 0x2E9E JUMP JUMPDEST CALLVALUE PUSH2 0x50A JUMPI PUSH2 0x220 PUSH2 0x2A3D PUSH2 0x2ED7 CALLDATASIZE PUSH2 0x3A75 JUMP JUMPDEST PUSH2 0x2EEE PUSH1 0xFF PUSH0 SWAP11 SWAP7 SWAP5 SWAP11 SWAP10 SWAP4 SWAP10 SLOAD PUSH1 0xA0 SHR AND PUSH2 0x3BEA JUMP JUMPDEST CALLER PUSH0 MSTORE PUSH1 0x1 PUSH1 0x20 MSTORE PUSH1 0x40 PUSH0 KECCAK256 PUSH1 0x1 DUP1 PUSH1 0xA0 SHL SUB DUP11 AND PUSH0 MSTORE PUSH1 0x20 MSTORE PUSH2 0x2F18 DUP4 PUSH1 0x40 PUSH0 KECCAK256 SLOAD LT ISZERO PUSH2 0x3C1B JUMP JUMPDEST PUSH2 0x2A08 DUP4 DUP11 CALLER PUSH2 0x40EF JUMP JUMPDEST CALLVALUE PUSH2 0x50A JUMPI PUSH1 0x40 CALLDATASIZE PUSH1 0x3 NOT ADD SLT PUSH2 0x50A JUMPI PUSH1 0x4 CALLDATALOAD PUSH2 0x2F3F PUSH2 0x39C7 JUMP JUMPDEST PUSH2 0x2F47 PUSH2 0x42BE JUMP JUMPDEST PUSH1 0x1 PUSH1 0x1 PUSH1 0xA0 SHL SUB AND DUP1 ISZERO PUSH2 0x2FB6 JUMPI DUP2 PUSH1 0x40 SWAP2 PUSH2 0x2F8C PUSH5 0x2540BE400 PUSH32 0x14BDAADAED0453E7B5B66195B42156BA995B9E5ABD0DA98368839851D69AD889 SWAP6 GT ISZERO PUSH2 0x3F00 JUMP JUMPDEST DUP2 PUSH1 0x2 SSTORE DUP1 PUSH12 0xFFFFFFFFFFFFFFFFFFFFFFFF PUSH1 0xA0 SHL PUSH1 0x3 SLOAD AND OR PUSH1 0x3 SSTORE DUP3 MLOAD SWAP2 DUP3 MSTORE PUSH1 0x20 DUP3 ADD MSTORE LOG1 STOP JUMPDEST PUSH1 0x40 MLOAD PUSH3 0x461BCD PUSH1 0xE5 SHL DUP2 MSTORE PUSH1 0x20 PUSH1 0x4 DUP3 ADD MSTORE PUSH1 0x2 PUSH1 0x24 DUP3 ADD MSTORE PUSH2 0x4331 PUSH1 0xF0 SHL PUSH1 0x44 DUP3 ADD MSTORE PUSH1 0x64 SWAP1 REVERT JUMPDEST CALLVALUE PUSH2 0x50A JUMPI PUSH0 CALLDATASIZE PUSH1 0x3 NOT ADD SLT PUSH2 0x50A JUMPI PUSH1 0x3 SLOAD PUSH1 0x40 MLOAD PUSH1 0x1 PUSH1 0x1 PUSH1 0xA0 SHL SUB SWAP1 SWAP2 AND DUP2 MSTORE PUSH1 0x20 SWAP1 RETURN JUMPDEST CALLVALUE PUSH2 0x50A JUMPI PUSH1 0x20 CALLDATASIZE PUSH1 0x3 NOT ADD SLT PUSH2 0x50A JUMPI PUSH1 0x4 CALLDATALOAD DUP1 PUSH0 MSTORE PUSH1 0x4 PUSH1 0x20 MSTORE PUSH1 0x40 PUSH0 KECCAK256 SWAP1 PUSH1 0x1 DUP3 ADD SWAP1 PUSH1 0x1 DUP1 PUSH1 0xA0 SHL SUB DUP3 SLOAD AND CALLER EQ DUP1 ISZERO PUSH2 0x36EF JUMPI JUMPDEST DUP1 ISZERO PUSH2 0x36D9 JUMPI JUMPDEST PUSH2 0x3051 SWAP1 PUSH2 0x3E67 JUMP JUMPDEST PUSH1 0x2 DUP4 ADD SWAP3 DUP4 SLOAD PUSH1 0xFF DUP2 PUSH1 0xB8 SHR AND ISZERO PUSH2 0x36AF JUMPI DUP1 PUSH1 0xFF PUSH2 0x307C SWAP3 PUSH1 0xA0 SHR AND ISZERO SWAP1 DUP2 PUSH2 0x36A0 JUMPI POP PUSH2 0x3E98 JUMP JUMPDEST PUSH1 0xB DUP2 ADD SLOAD TIMESTAMP LT PUSH2 0x3675 JUMPI PUSH1 0xFF PUSH1 0xC DUP3 ADD SLOAD AND PUSH1 0x5 DUP3 ADD SLOAD SWAP2 PUSH1 0x1 DUP1 PUSH1 0xA0 SHL SUB PUSH1 0x9 DUP3 ADD SLOAD AND PUSH1 0x6 DUP3 ADD SLOAD SWAP1 PUSH1 0x1 DUP1 PUSH1 0xA0 SHL SUB PUSH1 0xA DUP5 ADD SLOAD AND SWAP2 PUSH1 0x7 DUP5 ADD SLOAD SWAP2 PUSH1 0x8 DUP6 ADD SLOAD SWAP4 PUSH20 0x0 SWAP5 PUSH1 0x40 MLOAD SWAP5 PUSH4 0x1C8F0847 PUSH1 0xE0 SHL DUP7 MSTORE DUP10 PUSH1 0x4 DUP8 ADD MSTORE PUSH1 0x24 DUP7 ADD MSTORE PUSH1 0x20 DUP6 PUSH1 0x44 DUP2 DUP10 GAS DELEGATECALL SWAP5 DUP6 ISZERO PUSH2 0x2989 JUMPI PUSH0 SWAP6 PUSH2 0x3640 JUMPI JUMPDEST POP PUSH1 0x20 SWAP1 PUSH1 0x44 PUSH1 0x40 MLOAD DUP1 SWAP9 DUP2 SWAP4 PUSH4 0x1C8F0847 PUSH1 0xE0 SHL DUP4 MSTORE DUP9 PUSH1 0x4 DUP5 ADD MSTORE PUSH1 0x24 DUP4 ADD MSTORE GAS DELEGATECALL SWAP5 DUP6 ISZERO PUSH2 0x2989 JUMPI PUSH0 SWAP6 PUSH2 0x360C JUMPI JUMPDEST POP PUSH1 0x6 DUP8 LT ISZERO PUSH2 0x2C99 JUMPI DUP8 PUSH1 0x4 DUP9 DUP7 DUP6 DUP16 DUP16 DUP16 SWAP2 PUSH0 MLOAD PUSH1 0x20 PUSH2 0x4360 PUSH0 CODECOPY PUSH0 MLOAD SWAP1 PUSH0 MSTORE SWAP16 PUSH2 0x2E0 SWAP16 DUP16 SWAP4 DUP16 SWAP1 SWAP4 DUP15 SWAP5 DUP14 SWAP4 ISZERO PUSH2 0x3531 JUMPI JUMPDEST PUSH1 0x2 DUP12 EQ PUSH2 0x3456 JUMPI JUMPDEST PUSH1 0x1 DUP12 EQ PUSH2 0x3368 JUMPI JUMPDEST POP POP POP POP POP POP POP POP POP POP DUP14 DUP7 DUP6 PUSH1 0x3 DUP5 EQ PUSH2 0x32C9 JUMPI JUMPDEST POP POP POP EQ PUSH2 0x31E7 JUMPI JUMPDEST POP POP DUP10 SLOAD PUSH1 0x1 PUSH1 0xA8 SHL PUSH1 0xFF PUSH1 0xA8 SHL NOT DUP3 AND OR SWAP1 SWAP11 SSTORE POP POP SWAP2 SLOAD SWAP6 SLOAD PUSH1 0x40 DUP1 MLOAD PUSH1 0x1 PUSH1 0x1 PUSH1 0xA0 SHL SUB SWAP10 DUP11 AND DUP2 MSTORE CALLER PUSH1 0x20 DUP3 ADD MSTORE SWAP2 DUP10 AND SWAP9 SWAP1 SWAP8 AND SWAP7 SWAP1 SWAP4 DUP5 SWAP4 POP SWAP1 DUP4 ADD SWAP2 POP JUMP JUMPDEST DUP5 DUP4 PUSH2 0x3229 PUSH2 0x324B SWAP7 PUSH2 0x320E PUSH2 0x323A SWAP6 DUP12 SWAP9 PUSH2 0x7B5 DUP8 PUSH1 0x1 DUP1 PUSH1 0xA0 SHL SUB PUSH1 0x3 SLOAD AND SWAP4 PUSH2 0x3EC9 JUMP JUMPDEST POP PUSH1 0x3 SLOAD PUSH1 0x1 PUSH1 0x1 PUSH1 0xA0 SHL SUB AND SWAP1 DUP7 SWAP1 PUSH2 0x7B5 SWAP1 DUP10 SWAP1 PUSH2 0x3EC9 JUMP JUMPDEST POP DUP14 SLOAD PUSH1 0x1 PUSH1 0x1 PUSH1 0xA0 SHL SUB AND PUSH2 0x4196 JUMP JUMPDEST POP DUP11 SLOAD PUSH1 0x1 PUSH1 0x1 PUSH1 0xA0 SHL SUB AND PUSH2 0x4196 JUMP JUMPDEST POP DUP3 SLOAD DUP8 SLOAD DUP10 SLOAD PUSH1 0x3 SLOAD PUSH1 0x40 DUP1 MLOAD PUSH1 0x1 PUSH1 0x1 PUSH1 0xA0 SHL SUB SWAP4 DUP5 AND DUP2 MSTORE CALLER PUSH1 0x20 DUP3 ADD MSTORE SWAP2 DUP4 AND SWAP1 DUP3 ADD MSTORE PUSH1 0x60 DUP2 ADD DUP6 SWAP1 MSTORE PUSH1 0x80 DUP2 ADD DUP7 SWAP1 MSTORE PUSH1 0xA0 DUP2 ADD SWAP5 SWAP1 SWAP5 MSTORE PUSH1 0xC0 DUP5 ADD SWAP5 SWAP1 SWAP5 MSTORE DUP4 AND SWAP3 AND SWAP1 DUP7 SWAP1 PUSH32 0x8E100DC3335E09B082C843425F71EA8AE9D91AE5BB385EF4B41D0D2C6AA87214 SWAP1 PUSH1 0xE0 SWAP1 LOG4 DUP7 DUP1 DUP1 DUP1 DUP1 DUP1 PUSH2 0x31A1 JUMP JUMPDEST PUSH2 0x32F1 SWAP3 PUSH2 0x32E1 DUP8 DUP11 PUSH1 0x1 DUP1 PUSH1 0xA0 SHL SUB DUP5 SLOAD AND PUSH2 0x4196 JUMP JUMPDEST POP SLOAD PUSH1 0x1 PUSH1 0x1 PUSH1 0xA0 SHL SUB AND PUSH2 0x4196 JUMP JUMPDEST POP DUP9 SLOAD DUP14 SLOAD DUP16 SLOAD PUSH1 0x40 DUP1 MLOAD PUSH1 0x1 PUSH1 0x1 PUSH1 0xA0 SHL SUB SWAP3 DUP4 AND DUP1 DUP3 MSTORE CALLER PUSH1 0x20 DUP4 ADD MSTORE SWAP2 DUP2 ADD SWAP2 SWAP1 SWAP2 MSTORE PUSH1 0x60 DUP2 ADD DUP12 SWAP1 MSTORE PUSH1 0x80 DUP2 ADD DUP13 SWAP1 MSTORE PUSH0 PUSH1 0xA0 DUP3 ADD DUP2 SWAP1 MSTORE PUSH1 0xC0 DUP3 ADD MSTORE SWAP2 DUP2 AND SWAP3 AND SWAP1 DUP15 SWAP1 PUSH32 0x8E100DC3335E09B082C843425F71EA8AE9D91AE5BB385EF4B41D0D2C6AA87214 SWAP1 PUSH1 0xE0 SWAP1 LOG4 DUP14 DUP7 DUP6 PUSH2 0x3198 JUMP JUMPDEST DUP8 PUSH32 0x8AF39814826D4542F7FE66E6FA6AC2AC59BFC8221394F51A41DBA5C54DBA0AC9 SWAP8 PUSH2 0x33FC DUP6 PUSH2 0x343F SWAP8 PUSH2 0x33D0 DUP16 PUSH0 MLOAD PUSH1 0x20 PUSH2 0x4380 PUSH0 CODECOPY PUSH0 MLOAD SWAP1 PUSH0 MSTORE SWAP16 PUSH2 0x33BF DUP14 DUP3 PUSH2 0x7B5 DUP6 PUSH1 0x1 DUP1 PUSH1 0xA0 SHL SUB DUP13 SLOAD AND SWAP4 PUSH2 0x3EC9 JUMP JUMPDEST POP DUP10 SLOAD PUSH1 0x1 PUSH1 0x1 PUSH1 0xA0 SHL SUB AND PUSH2 0x4196 JUMP JUMPDEST POP DUP4 SLOAD PUSH2 0x33EB SWAP1 PUSH1 0x1 PUSH1 0x1 PUSH1 0xA0 SHL SUB AND DUP3 PUSH2 0x7B5 DUP6 DUP16 PUSH2 0x3EC9 JUMP JUMPDEST POP DUP7 SLOAD PUSH1 0x1 PUSH1 0x1 PUSH1 0xA0 SHL SUB AND PUSH2 0x4196 JUMP JUMPDEST POP SLOAD SWAP2 SLOAD SWAP3 SLOAD PUSH1 0x40 MLOAD PUSH1 0x1 PUSH1 0x1 PUSH1 0xA0 SHL SUB SWAP5 DUP6 AND SWAP13 SWAP4 DUP6 AND SWAP12 SWAP2 SWAP1 SWAP5 AND SWAP7 DUP13 SWAP5 DUP13 SWAP5 SWAP1 SWAP2 DUP3 SWAP2 PUSH2 0x342E SWAP2 CALLER DUP13 DUP6 PUSH2 0x3ED6 JUMP JUMPDEST SUB SWAP1 LOG4 PUSH1 0x40 MLOAD SWAP4 DUP5 SWAP4 CALLER SWAP1 DUP6 PUSH2 0x3ED6 JUMP JUMPDEST SUB SWAP1 LOG4 DUP7 DUP6 DUP16 DUP16 DUP16 SWAP2 DUP8 DUP10 DUP16 SWAP4 DUP16 SWAP1 SWAP4 DUP15 SWAP5 PUSH2 0x3182 JUMP JUMPDEST DUP1 SLOAD PUSH2 0x3470 SWAP1 PUSH1 0x1 PUSH1 0x1 PUSH1 0xA0 SHL SUB AND DUP11 PUSH2 0x7B5 DUP14 DUP10 PUSH2 0x3EC9 JUMP JUMPDEST POP DUP2 SLOAD PUSH2 0x3489 SWAP1 DUP12 SWAP1 DUP12 SWAP1 PUSH1 0x1 PUSH1 0x1 PUSH1 0xA0 SHL SUB AND PUSH2 0x4196 JUMP JUMPDEST POP DUP1 SLOAD PUSH2 0x34A4 SWAP1 PUSH1 0x1 PUSH1 0x1 PUSH1 0xA0 SHL SUB AND DUP6 PUSH2 0x7B5 DUP7 DUP11 PUSH2 0x3EC9 JUMP JUMPDEST POP DUP2 SLOAD PUSH2 0x34BD SWAP1 DUP5 SWAP1 DUP7 SWAP1 PUSH1 0x1 PUSH1 0x1 PUSH1 0xA0 SHL SUB AND PUSH2 0x4196 JUMP JUMPDEST POP PUSH0 MLOAD PUSH1 0x20 PUSH2 0x43A0 PUSH0 CODECOPY PUSH0 MLOAD SWAP1 PUSH0 MSTORE DUP11 DUP10 PUSH0 MLOAD PUSH1 0x20 PUSH2 0x4340 PUSH0 CODECOPY PUSH0 MLOAD SWAP1 PUSH0 MSTORE DUP10 DUP10 PUSH1 0x1 DUP1 PUSH1 0xA0 SHL SUB DUP14 SLOAD AND SWAP5 DUP6 DUP6 PUSH1 0x1 DUP1 PUSH1 0xA0 SHL SUB DUP11 SLOAD AND SWAP9 DUP10 SWAP4 PUSH1 0x1 DUP1 PUSH1 0xA0 SHL SUB DUP14 SLOAD AND SWAP6 PUSH2 0x3514 PUSH1 0x40 MLOAD SWAP3 DUP4 SWAP3 CALLER DUP11 DUP6 PUSH2 0x3ED6 JUMP JUMPDEST SUB SWAP1 LOG4 PUSH2 0x3529 DUP10 PUSH1 0x40 MLOAD SWAP4 DUP5 SWAP4 CALLER SWAP1 DUP6 PUSH2 0x3ED6 JUMP JUMPDEST SUB SWAP1 LOG4 PUSH2 0x3179 JUMP JUMPDEST DUP7 SLOAD PUSH2 0x354B SWAP1 PUSH1 0x1 PUSH1 0x1 PUSH1 0xA0 SHL SUB AND DUP11 PUSH2 0x7B5 DUP14 DUP10 PUSH2 0x3EC9 JUMP JUMPDEST POP DUP2 SLOAD PUSH2 0x3564 SWAP1 DUP12 SWAP1 DUP12 SWAP1 PUSH1 0x1 PUSH1 0x1 PUSH1 0xA0 SHL SUB AND PUSH2 0x4196 JUMP JUMPDEST POP DUP1 SLOAD PUSH2 0x357F SWAP1 PUSH1 0x1 PUSH1 0x1 PUSH1 0xA0 SHL SUB AND DUP6 PUSH2 0x7B5 DUP7 DUP11 PUSH2 0x3EC9 JUMP JUMPDEST POP DUP2 SLOAD PUSH2 0x3598 SWAP1 DUP5 SWAP1 DUP7 SWAP1 PUSH1 0x1 PUSH1 0x1 PUSH1 0xA0 SHL SUB AND PUSH2 0x4196 JUMP JUMPDEST POP PUSH0 MLOAD PUSH1 0x20 PUSH2 0x4380 PUSH0 CODECOPY PUSH0 MLOAD SWAP1 PUSH0 MSTORE DUP11 DUP10 PUSH0 MLOAD PUSH1 0x20 PUSH2 0x4340 PUSH0 CODECOPY PUSH0 MLOAD SWAP1 PUSH0 MSTORE DUP10 DUP10 PUSH1 0x1 DUP1 PUSH1 0xA0 SHL SUB DUP14 SLOAD AND SWAP5 DUP6 DUP6 PUSH1 0x1 DUP1 PUSH1 0xA0 SHL SUB DUP11 SLOAD AND SWAP9 DUP10 SWAP4 PUSH1 0x1 DUP1 PUSH1 0xA0 SHL SUB DUP14 SLOAD AND SWAP6 PUSH2 0x35EF PUSH1 0x40 MLOAD SWAP3 DUP4 SWAP3 CALLER DUP11 DUP6 PUSH2 0x3ED6 JUMP JUMPDEST SUB SWAP1 LOG4 PUSH2 0x3604 DUP10 PUSH1 0x40 MLOAD SWAP4 DUP5 SWAP4 CALLER SWAP1 DUP6 PUSH2 0x3ED6 JUMP JUMPDEST SUB SWAP1 LOG4 PUSH2 0x3170 JUMP JUMPDEST SWAP1 SWAP5 POP PUSH1 0x20 DUP2 RETURNDATASIZE PUSH1 0x20 GT PUSH2 0x3638 JUMPI JUMPDEST DUP2 PUSH2 0x3628 PUSH1 0x20 SWAP4 DUP4 PUSH2 0x3C7D JUMP JUMPDEST DUP2 ADD SUB SLT PUSH2 0x50A JUMPI MLOAD SWAP4 DUP12 PUSH2 0x313A JUMP JUMPDEST RETURNDATASIZE SWAP2 POP PUSH2 0x361B JUMP JUMPDEST SWAP1 SWAP5 POP PUSH1 0x20 DUP2 RETURNDATASIZE PUSH1 0x20 GT PUSH2 0x366D JUMPI JUMPDEST DUP2 PUSH2 0x365C PUSH1 0x20 SWAP4 DUP4 PUSH2 0x3C7D JUMP JUMPDEST DUP2 ADD SUB SLT PUSH2 0x50A JUMPI MLOAD SWAP4 PUSH1 0x20 PUSH2 0x3108 JUMP JUMPDEST RETURNDATASIZE SWAP2 POP PUSH2 0x364F JUMP JUMPDEST PUSH1 0x64 PUSH1 0x40 MLOAD PUSH3 0x461BCD PUSH1 0xE5 SHL DUP2 MSTORE PUSH1 0x20 PUSH1 0x4 DUP3 ADD MSTORE PUSH1 0x4 PUSH1 0x24 DUP3 ADD MSTORE PUSH4 0x44312E31 PUSH1 0xE0 SHL PUSH1 0x44 DUP3 ADD MSTORE REVERT JUMPDEST PUSH1 0xFF SWAP2 POP PUSH1 0xA8 SHR AND ISZERO DUP7 PUSH2 0x109E JUMP JUMPDEST PUSH1 0x40 MLOAD PUSH3 0x461BCD PUSH1 0xE5 SHL DUP2 MSTORE PUSH1 0x20 PUSH1 0x4 DUP3 ADD MSTORE PUSH1 0x2 PUSH1 0x24 DUP3 ADD MSTORE PUSH2 0x2219 PUSH1 0xF1 SHL PUSH1 0x44 DUP3 ADD MSTORE PUSH1 0x64 SWAP1 REVERT JUMPDEST POP PUSH1 0x2 DUP4 ADD SLOAD PUSH1 0x1 PUSH1 0x1 PUSH1 0xA0 SHL SUB AND CALLER EQ PUSH2 0x3048 JUMP JUMPDEST POP DUP3 SLOAD PUSH1 0x1 PUSH1 0x1 PUSH1 0xA0 SHL SUB AND CALLER EQ PUSH2 0x3041 JUMP JUMPDEST CALLVALUE PUSH2 0x50A JUMPI PUSH2 0x220 PUSH2 0x379E PUSH2 0x3716 CALLDATASIZE PUSH2 0x39F3 JUMP JUMPDEST SWAP3 PUSH2 0x3734 PUSH1 0xFF PUSH0 SWAP14 SWAP10 SWAP8 SWAP14 SWAP13 SWAP7 SWAP13 SWAP12 SWAP11 SWAP12 SWAP5 SWAP4 SWAP5 SLOAD PUSH1 0xA0 SHR AND PUSH2 0x3BEA JUMP JUMPDEST CALLER PUSH0 MSTORE PUSH1 0x1 PUSH1 0x20 MSTORE PUSH1 0x40 PUSH0 KECCAK256 PUSH1 0x1 DUP1 PUSH1 0xA0 SHL SUB DUP3 AND PUSH0 MSTORE PUSH1 0x20 MSTORE PUSH2 0x375E DUP7 PUSH1 0x40 PUSH0 KECCAK256 SLOAD LT ISZERO PUSH2 0x3C1B JUMP JUMPDEST PUSH2 0x3769 DUP7 DUP3 CALLER PUSH2 0x40EF JUMP JUMPDEST POP PUSH20 0x0 SWAP11 PUSH1 0x40 MLOAD SWAP13 DUP14 SWAP9 DUP10 SWAP9 PUSH4 0x652E83D7 PUSH1 0xE0 SHL DUP11 MSTORE DUP14 DUP14 CALLER PUSH1 0x4 DUP14 ADD PUSH2 0x3DD9 JUMP JUMPDEST SUB DUP2 DUP7 GAS DELEGATECALL SWAP4 DUP5 ISZERO PUSH2 0x2989 JUMPI PUSH0 SWAP5 PUSH2 0x39A6 JUMPI JUMPDEST POP PUSH1 0x20 PUSH1 0x5 SLOAD PUSH2 0x244 PUSH1 0x40 MLOAD DUP1 SWAP7 DUP2 SWAP4 PUSH4 0x797D4EE1 PUSH1 0xE0 SHL DUP4 MSTORE PUSH2 0x37D8 PUSH1 0x4 DUP5 ADD DUP12 PUSH2 0x3AFB JUMP JUMPDEST PUSH2 0x224 DUP4 ADD MSTORE GAS DELEGATECALL SWAP3 DUP4 ISZERO PUSH2 0x2989 JUMPI PUSH0 SWAP4 PUSH2 0x3972 JUMPI JUMPDEST POP PUSH2 0x37FA PUSH1 0x5 SLOAD PUSH2 0x3E45 JUMP JUMPDEST PUSH1 0x5 SSTORE PUSH0 DUP4 DUP2 MSTORE PUSH1 0x4 PUSH1 0x20 SWAP1 DUP2 MSTORE PUSH1 0x40 SWAP2 DUP3 SWAP1 KECCAK256 DUP7 MLOAD DUP2 SLOAD PUSH1 0x1 PUSH1 0x1 PUSH1 0xA0 SHL SUB SWAP2 DUP3 AND PUSH1 0x1 PUSH1 0x1 PUSH1 0xA0 SHL SUB NOT SWAP2 DUP3 AND OR DUP4 SSTORE SWAP3 DUP9 ADD MLOAD PUSH1 0x1 DUP4 ADD DUP1 SLOAD SWAP2 DUP4 AND SWAP2 SWAP1 SWAP5 AND OR SWAP1 SWAP3 SSTORE SWAP2 DUP7 ADD MLOAD PUSH1 0x2 DUP4 ADD DUP1 SLOAD PUSH1 0x60 DUP10 ADD MLOAD PUSH1 0xFF PUSH1 0xA0 SHL SWAP1 ISZERO ISZERO PUSH1 0xA0 SHL AND SWAP3 SWAP1 SWAP4 AND PUSH1 0x1 PUSH1 0x1 PUSH1 0xA8 SHL SUB NOT SWAP1 SWAP4 AND SWAP3 SWAP1 SWAP3 OR OR DUP2 SSTORE PUSH2 0x200 SWAP2 PUSH1 0xC SWAP2 PUSH2 0x3883 SWAP1 PUSH2 0x2B1E JUMP JUMPDEST PUSH1 0xE0 DUP8 ADD MLOAD PUSH1 0x3 DUP3 ADD SSTORE PUSH2 0x100 DUP8 ADD MLOAD PUSH1 0x4 DUP3 ADD SSTORE PUSH2 0x120 DUP8 ADD MLOAD PUSH1 0x5 DUP3 ADD SSTORE PUSH2 0x140 DUP8 ADD MLOAD PUSH1 0x6 DUP1 DUP4 ADD SWAP2 SWAP1 SWAP2 SSTORE PUSH2 0x160 DUP9 ADD MLOAD PUSH1 0x7 DUP4 ADD SSTORE PUSH2 0x180 DUP9 ADD MLOAD PUSH1 0x8 DUP4 ADD SSTORE PUSH2 0x1A0 DUP9 ADD MLOAD PUSH1 0x9 DUP4 ADD DUP1 SLOAD PUSH1 0x1 PUSH1 0x1 PUSH1 0xA0 SHL SUB SWAP3 DUP4 AND PUSH1 0x1 PUSH1 0x1 PUSH1 0xA0 SHL SUB NOT SWAP2 DUP3 AND OR SWAP1 SWAP2 SSTORE PUSH2 0x1C0 DUP11 ADD MLOAD PUSH1 0xA DUP6 ADD DUP1 SLOAD SWAP2 SWAP1 SWAP4 AND SWAP2 AND OR SWAP1 SSTORE PUSH2 0x1E0 DUP9 ADD MLOAD PUSH1 0xB DUP4 ADD SSTORE SWAP3 SWAP1 SWAP7 ADD MLOAD SWAP6 ADD SWAP1 DUP6 LT ISZERO PUSH2 0x2C99 JUMPI PUSH1 0x20 SWAP5 PUSH1 0xFF DUP1 NOT DUP4 SLOAD AND SWAP2 AND OR SWAP1 SSTORE PUSH1 0x40 MLOAD SWAP2 PUSH1 0x1 DUP1 PUSH1 0xA0 SHL SUB AND DUP3 MSTORE PUSH1 0x1 DUP1 PUSH1 0xA0 SHL SUB AND SWAP1 DUP3 PUSH32 0x44E1FF8E67FAD6B456BD43FF165BA4E9BB004370AA27A76881C6ACB60DFD6DD9 DUP6 CALLER SWAP4 LOG4 PUSH1 0x40 MLOAD SWAP1 DUP2 MSTORE RETURN JUMPDEST SWAP1 SWAP3 POP PUSH1 0x20 DUP2 RETURNDATASIZE PUSH1 0x20 GT PUSH2 0x399E JUMPI JUMPDEST DUP2 PUSH2 0x398E PUSH1 0x20 SWAP4 DUP4 PUSH2 0x3C7D JUMP JUMPDEST DUP2 ADD SUB SLT PUSH2 0x50A JUMPI MLOAD SWAP2 DUP5 PUSH2 0x37EE JUMP JUMPDEST RETURNDATASIZE SWAP2 POP PUSH2 0x3981 JUMP JUMPDEST PUSH2 0x39C0 SWAP2 SWAP5 POP PUSH2 0x220 RETURNDATASIZE DUP2 GT PUSH2 0xD4F JUMPI PUSH2 0xD41 DUP2 DUP4 PUSH2 0x3C7D JUMP JUMPDEST SWAP3 DUP5 PUSH2 0x37B1 JUMP JUMPDEST PUSH1 0x24 CALLDATALOAD SWAP1 PUSH1 0x1 PUSH1 0x1 PUSH1 0xA0 SHL SUB DUP3 AND DUP3 SUB PUSH2 0x50A JUMPI JUMP JUMPDEST PUSH1 0x4 CALLDATALOAD SWAP1 PUSH1 0x1 PUSH1 0x1 PUSH1 0xA0 SHL SUB DUP3 AND DUP3 SUB PUSH2 0x50A JUMPI JUMP JUMPDEST PUSH2 0x140 SWAP1 PUSH1 0x3 NOT ADD SLT PUSH2 0x50A JUMPI PUSH1 0x4 CALLDATALOAD PUSH1 0x1 PUSH1 0x1 PUSH1 0xA0 SHL SUB DUP2 AND DUP2 SUB PUSH2 0x50A JUMPI SWAP1 PUSH1 0x24 CALLDATALOAD PUSH1 0x1 PUSH1 0x1 PUSH1 0xA0 SHL SUB DUP2 AND DUP2 SUB PUSH2 0x50A JUMPI SWAP1 PUSH1 0x44 CALLDATALOAD SWAP1 PUSH1 0x64 CALLDATALOAD SWAP1 PUSH1 0x84 CALLDATALOAD SWAP1 PUSH1 0xA4 CALLDATALOAD SWAP1 PUSH1 0xC4 CALLDATALOAD PUSH1 0x1 PUSH1 0x1 PUSH1 0xA0 SHL SUB DUP2 AND DUP2 SUB PUSH2 0x50A JUMPI SWAP1 PUSH1 0xE4 CALLDATALOAD PUSH1 0x1 PUSH1 0x1 PUSH1 0xA0 SHL SUB DUP2 AND DUP2 SUB PUSH2 0x50A JUMPI SWAP1 PUSH2 0x104 CALLDATALOAD SWAP1 PUSH2 0x124 CALLDATALOAD PUSH1 0x6 DUP2 LT ISZERO PUSH2 0x50A JUMPI SWAP1 JUMP JUMPDEST PUSH1 0xE0 SWAP1 PUSH1 0x3 NOT ADD SLT PUSH2 0x50A JUMPI PUSH1 0x4 CALLDATALOAD PUSH1 0x1 PUSH1 0x1 PUSH1 0xA0 SHL SUB DUP2 AND DUP2 SUB PUSH2 0x50A JUMPI SWAP1 PUSH1 0x24 CALLDATALOAD PUSH1 0x1 PUSH1 0x1 PUSH1 0xA0 SHL SUB DUP2 AND DUP2 SUB PUSH2 0x50A JUMPI SWAP1 PUSH1 0x44 CALLDATALOAD SWAP1 PUSH1 0x64 CALLDATALOAD SWAP1 PUSH1 0x84 CALLDATALOAD PUSH1 0x1 PUSH1 0x1 PUSH1 0xA0 SHL SUB DUP2 AND DUP2 SUB PUSH2 0x50A JUMPI SWAP1 PUSH1 0xA4 CALLDATALOAD SWAP1 PUSH1 0xC4 CALLDATALOAD PUSH1 0x6 DUP2 LT ISZERO PUSH2 0x50A JUMPI SWAP1 JUMP JUMPDEST PUSH1 0x40 SWAP1 PUSH1 0x3 NOT ADD SLT PUSH2 0x50A JUMPI PUSH1 0x4 CALLDATALOAD SWAP1 PUSH1 0x24 CALLDATALOAD SWAP1 JUMP JUMPDEST SWAP1 PUSH1 0x6 DUP3 LT ISZERO PUSH2 0x2C99 JUMPI MSTORE JUMP JUMPDEST SWAP1 PUSH2 0x200 DUP1 PUSH2 0x3BE8 SWAP4 PUSH1 0x1 DUP1 PUSH1 0xA0 SHL SUB DUP2 MLOAD AND DUP5 MSTORE PUSH1 0x1 DUP1 PUSH1 0xA0 SHL SUB PUSH1 0x20 DUP3 ADD MLOAD AND PUSH1 0x20 DUP6 ADD MSTORE PUSH1 0x1 DUP1 PUSH1 0xA0 SHL SUB PUSH1 0x40 DUP3 ADD MLOAD AND PUSH1 0x40 DUP6 ADD MSTORE PUSH1 0x60 DUP2 ADD MLOAD ISZERO ISZERO PUSH1 0x60 DUP6 ADD MSTORE PUSH1 0x80 DUP2 ADD MLOAD ISZERO ISZERO PUSH1 0x80 DUP6 ADD MSTORE PUSH1 0xA0 DUP2 ADD MLOAD ISZERO ISZERO PUSH1 0xA0 DUP6 ADD MSTORE PUSH1 0xC0 DUP2 ADD MLOAD ISZERO ISZERO PUSH1 0xC0 DUP6 ADD MSTORE PUSH1 0xE0 DUP2 ADD MLOAD PUSH1 0xE0 DUP6 ADD MSTORE PUSH2 0x100 DUP2 ADD MLOAD PUSH2 0x100 DUP6 ADD MSTORE PUSH2 0x120 DUP2 ADD MLOAD PUSH2 0x120 DUP6 ADD MSTORE PUSH2 0x140 DUP2 ADD MLOAD PUSH2 0x140 DUP6 ADD MSTORE PUSH2 0x160 DUP2 ADD MLOAD PUSH2 0x160 DUP6 ADD MSTORE PUSH2 0x180 DUP2 ADD MLOAD PUSH2 0x180 DUP6 ADD MSTORE PUSH1 0x1 DUP1 PUSH1 0xA0 SHL SUB PUSH2 0x1A0 DUP3 ADD MLOAD AND PUSH2 0x1A0 DUP6 ADD MSTORE PUSH1 0x1 DUP1 PUSH1 0xA0 SHL SUB PUSH2 0x1C0 DUP3 ADD MLOAD AND PUSH2 0x1C0 DUP6 ADD MSTORE PUSH2 0x1E0 DUP2 ADD MLOAD PUSH2 0x1E0 DUP6 ADD MSTORE ADD MLOAD SWAP2 ADD SWAP1 PUSH2 0x3AEE JUMP JUMPDEST JUMP JUMPDEST ISZERO PUSH2 0x3BF1 JUMPI JUMP JUMPDEST PUSH1 0x40 MLOAD PUSH3 0x461BCD PUSH1 0xE5 SHL DUP2 MSTORE PUSH1 0x20 PUSH1 0x4 DUP3 ADD MSTORE PUSH1 0x2 PUSH1 0x24 DUP3 ADD MSTORE PUSH2 0x4C31 PUSH1 0xF0 SHL PUSH1 0x44 DUP3 ADD MSTORE PUSH1 0x64 SWAP1 REVERT JUMPDEST ISZERO PUSH2 0x3C22 JUMPI JUMP JUMPDEST PUSH1 0x40 MLOAD PUSH3 0x461BCD PUSH1 0xE5 SHL DUP2 MSTORE PUSH1 0x20 PUSH1 0x4 DUP3 ADD MSTORE PUSH1 0x2 PUSH1 0x24 DUP3 ADD MSTORE PUSH2 0x5431 PUSH1 0xF0 SHL PUSH1 0x44 DUP3 ADD MSTORE PUSH1 0x64 SWAP1 REVERT JUMPDEST PUSH2 0x220 DUP2 ADD SWAP1 DUP2 LT PUSH8 0xFFFFFFFFFFFFFFFF DUP3 GT OR PUSH2 0x3C69 JUMPI PUSH1 0x40 MSTORE JUMP JUMPDEST PUSH4 0x4E487B71 PUSH1 0xE0 SHL PUSH0 MSTORE PUSH1 0x41 PUSH1 0x4 MSTORE PUSH1 0x24 PUSH0 REVERT JUMPDEST SWAP1 PUSH1 0x1F DUP1 NOT SWAP2 ADD AND DUP2 ADD SWAP1 DUP2 LT PUSH8 0xFFFFFFFFFFFFFFFF DUP3 GT OR PUSH2 0x3C69 JUMPI PUSH1 0x40 MSTORE JUMP JUMPDEST MLOAD SWAP1 PUSH1 0x1 PUSH1 0x1 PUSH1 0xA0 SHL SUB DUP3 AND DUP3 SUB PUSH2 0x50A JUMPI JUMP JUMPDEST MLOAD SWAP1 DUP2 ISZERO ISZERO DUP3 SUB PUSH2 0x50A JUMPI JUMP JUMPDEST SWAP1 DUP2 PUSH2 0x220 SWAP2 SUB SLT PUSH2 0x50A JUMPI PUSH2 0x200 PUSH1 0x40 MLOAD SWAP2 PUSH2 0x3CDC DUP4 PUSH2 0x3C4C JUMP JUMPDEST PUSH2 0x3CE5 DUP2 PUSH2 0x3C9F JUMP JUMPDEST DUP4 MSTORE PUSH2 0x3CF3 PUSH1 0x20 DUP3 ADD PUSH2 0x3C9F JUMP JUMPDEST PUSH1 0x20 DUP5 ADD MSTORE PUSH2 0x3D04 PUSH1 0x40 DUP3 ADD PUSH2 0x3C9F JUMP JUMPDEST PUSH1 0x40 DUP5 ADD MSTORE PUSH2 0x3D15 PUSH1 0x60 DUP3 ADD PUSH2 0x3CB3 JUMP JUMPDEST PUSH1 0x60 DUP5 ADD MSTORE PUSH2 0x3D26 PUSH1 0x80 DUP3 ADD PUSH2 0x3CB3 JUMP JUMPDEST PUSH1 0x80 DUP5 ADD MSTORE PUSH2 0x3D37 PUSH1 0xA0 DUP3 ADD PUSH2 0x3CB3 JUMP JUMPDEST PUSH1 0xA0 DUP5 ADD MSTORE PUSH2 0x3D48 PUSH1 0xC0 DUP3 ADD PUSH2 0x3CB3 JUMP JUMPDEST PUSH1 0xC0 DUP5 ADD MSTORE PUSH1 0xE0 DUP2 ADD MLOAD PUSH1 0xE0 DUP5 ADD MSTORE PUSH2 0x100 DUP2 ADD MLOAD PUSH2 0x100 DUP5 ADD MSTORE PUSH2 0x120 DUP2 ADD MLOAD PUSH2 0x120 DUP5 ADD MSTORE PUSH2 0x140 DUP2 ADD MLOAD PUSH2 0x140 DUP5 ADD MSTORE PUSH2 0x160 DUP2 ADD MLOAD PUSH2 0x160 DUP5 ADD MSTORE PUSH2 0x180 DUP2 ADD MLOAD PUSH2 0x180 DUP5 ADD MSTORE PUSH2 0x3DA0 PUSH2 0x1A0 DUP3 ADD PUSH2 0x3C9F JUMP JUMPDEST PUSH2 0x1A0 DUP5 ADD MSTORE PUSH2 0x3DB3 PUSH2 0x1C0 DUP3 ADD PUSH2 0x3C9F JUMP JUMPDEST PUSH2 0x1C0 DUP5 ADD MSTORE PUSH2 0x1E0 DUP2 ADD MLOAD PUSH2 0x1E0 DUP5 ADD MSTORE ADD MLOAD PUSH1 0x6 DUP2 LT ISZERO PUSH2 0x50A JUMPI PUSH2 0x200 DUP3 ADD MSTORE SWAP1 JUMP JUMPDEST PUSH1 0x1 PUSH1 0x1 PUSH1 0xA0 SHL SUB SWAP2 DUP3 AND DUP2 MSTORE SWAP2 DUP2 AND PUSH1 0x20 DUP4 ADD MSTORE SWAP2 DUP3 AND PUSH1 0x40 DUP3 ADD MSTORE PUSH1 0x60 DUP2 ADD SWAP3 SWAP1 SWAP3 MSTORE PUSH1 0x80 DUP3 ADD SWAP3 SWAP1 SWAP3 MSTORE PUSH1 0xA0 DUP2 ADD SWAP3 SWAP1 SWAP3 MSTORE PUSH1 0xC0 DUP3 ADD SWAP3 SWAP1 SWAP3 MSTORE SWAP2 DUP2 AND PUSH1 0xE0 DUP4 ADD MSTORE SWAP1 SWAP2 AND PUSH2 0x100 DUP3 ADD MSTORE PUSH2 0x120 DUP2 ADD SWAP2 SWAP1 SWAP2 MSTORE PUSH2 0x160 DUP2 ADD SWAP3 SWAP2 PUSH2 0x3BE8 SWAP2 PUSH2 0x140 ADD SWAP1 PUSH2 0x3AEE JUMP JUMPDEST PUSH0 NOT DUP2 EQ PUSH2 0x3E53 JUMPI PUSH1 0x1 ADD SWAP1 JUMP JUMPDEST PUSH4 0x4E487B71 PUSH1 0xE0 SHL PUSH0 MSTORE PUSH1 0x11 PUSH1 0x4 MSTORE PUSH1 0x24 PUSH0 REVERT JUMPDEST ISZERO PUSH2 0x3E6E JUMPI JUMP JUMPDEST PUSH1 0x40 MLOAD PUSH3 0x461BCD PUSH1 0xE5 SHL DUP2 MSTORE PUSH1 0x20 PUSH1 0x4 DUP3 ADD MSTORE PUSH1 0x2 PUSH1 0x24 DUP3 ADD MSTORE PUSH2 0x4435 PUSH1 0xF0 SHL PUSH1 0x44 DUP3 ADD MSTORE PUSH1 0x64 SWAP1 REVERT JUMPDEST ISZERO PUSH2 0x3E9F JUMPI JUMP JUMPDEST PUSH1 0x40 MLOAD PUSH3 0x461BCD PUSH1 0xE5 SHL DUP2 MSTORE PUSH1 0x20 PUSH1 0x4 DUP3 ADD MSTORE PUSH1 0x2 PUSH1 0x24 DUP3 ADD MSTORE PUSH2 0x4433 PUSH1 0xF0 SHL PUSH1 0x44 DUP3 ADD MSTORE PUSH1 0x64 SWAP1 REVERT JUMPDEST SWAP2 SWAP1 DUP3 SUB SWAP2 DUP3 GT PUSH2 0x3E53 JUMPI JUMP JUMPDEST PUSH1 0x1 PUSH1 0x1 PUSH1 0xA0 SHL SUB SWAP2 DUP3 AND DUP2 MSTORE SWAP2 AND PUSH1 0x20 DUP3 ADD MSTORE PUSH1 0x40 DUP2 ADD SWAP2 SWAP1 SWAP2 MSTORE PUSH1 0x60 DUP2 ADD SWAP2 SWAP1 SWAP2 MSTORE PUSH1 0x80 ADD SWAP1 JUMP JUMPDEST ISZERO PUSH2 0x3F07 JUMPI JUMP JUMPDEST PUSH1 0x40 MLOAD PUSH3 0x461BCD PUSH1 0xE5 SHL DUP2 MSTORE PUSH1 0x20 PUSH1 0x4 DUP3 ADD MSTORE PUSH1 0x2 PUSH1 0x24 DUP3 ADD MSTORE PUSH2 0x4335 PUSH1 0xF0 SHL PUSH1 0x44 DUP3 ADD MSTORE PUSH1 0x64 SWAP1 REVERT JUMPDEST PUSH1 0x1 PUSH1 0x1 PUSH1 0xA0 SHL SUB SWAP2 DUP3 AND DUP2 MSTORE SWAP2 DUP2 AND PUSH1 0x20 DUP4 ADD MSTORE SWAP2 DUP3 AND PUSH1 0x40 DUP3 ADD MSTORE PUSH1 0x60 DUP2 ADD SWAP3 SWAP1 SWAP3 MSTORE PUSH0 PUSH1 0x80 DUP4 ADD DUP2 SWAP1 MSTORE PUSH1 0xA0 DUP4 ADD SWAP4 SWAP1 SWAP4 MSTORE PUSH1 0xC0 DUP3 ADD DUP4 SWAP1 MSTORE SWAP1 SWAP3 AND PUSH1 0xE0 DUP4 ADD MSTORE PUSH2 0x100 DUP3 ADD MSTORE PUSH2 0x120 DUP2 ADD SWAP2 SWAP1 SWAP2 MSTORE PUSH2 0x160 DUP2 ADD SWAP3 SWAP2 PUSH2 0x3BE8 SWAP2 PUSH2 0x140 ADD SWAP1 PUSH2 0x3AEE JUMP JUMPDEST DUP2 SLOAD PUSH1 0x1 PUSH1 0x1 PUSH1 0xA0 SHL SUB SWAP1 DUP2 AND DUP3 MSTORE PUSH1 0x1 DUP4 ADD SLOAD DUP2 AND PUSH1 0x20 DUP4 ADD MSTORE PUSH1 0x2 DUP4 ADD SLOAD DUP1 DUP3 AND PUSH1 0x40 DUP5 ADD MSTORE PUSH1 0xFF PUSH1 0xA0 DUP3 DUP2 SHR DUP3 AND ISZERO ISZERO PUSH1 0x60 DUP7 ADD MSTORE PUSH1 0xA8 DUP4 SWAP1 SHR DUP3 AND ISZERO ISZERO PUSH1 0x80 DUP7 ADD MSTORE PUSH1 0xB0 DUP4 SWAP1 SHR DUP3 AND ISZERO ISZERO SWAP1 DUP6 ADD MSTORE PUSH1 0xB8 SWAP2 SWAP1 SWAP2 SHR DUP2 AND ISZERO ISZERO PUSH1 0xC0 DUP5 ADD MSTORE PUSH1 0x3 DUP5 ADD SLOAD PUSH1 0xE0 DUP5 ADD MSTORE PUSH1 0x4 DUP5 ADD SLOAD PUSH2 0x100 DUP5 ADD MSTORE PUSH1 0x5 DUP5 ADD SLOAD PUSH2 0x120 DUP5 ADD MSTORE PUSH1 0x6 DUP5 ADD SLOAD PUSH2 0x140 DUP5 ADD MSTORE PUSH1 0x7 DUP5 ADD SLOAD PUSH2 0x160 DUP5 ADD MSTORE PUSH1 0x8 DUP5 ADD SLOAD PUSH2 0x180 DUP5 ADD MSTORE PUSH1 0x9 DUP5 ADD SLOAD DUP3 AND PUSH2 0x1A0 DUP5 ADD MSTORE PUSH1 0xA DUP5 ADD SLOAD SWAP1 SWAP2 AND PUSH2 0x1C0 DUP4 ADD MSTORE PUSH1 0xB DUP4 ADD SLOAD PUSH2 0x1E0 DUP4 ADD MSTORE PUSH1 0xC SWAP1 SWAP3 ADD SLOAD PUSH2 0x220 DUP3 ADD SWAP4 SWAP3 PUSH2 0x3BE8 SWAP3 PUSH2 0x200 ADD SWAP2 AND PUSH2 0x3AEE JUMP JUMPDEST SWAP2 SWAP1 DUP3 ADD DUP1 SWAP3 GT PUSH2 0x3E53 JUMPI JUMP JUMPDEST ISZERO PUSH2 0x4092 JUMPI JUMP JUMPDEST PUSH1 0x64 PUSH1 0x40 MLOAD PUSH3 0x461BCD PUSH1 0xE5 SHL DUP2 MSTORE PUSH1 0x20 PUSH1 0x4 DUP3 ADD MSTORE PUSH1 0x4 PUSH1 0x24 DUP3 ADD MSTORE PUSH4 0x44332E31 PUSH1 0xE0 SHL PUSH1 0x44 DUP3 ADD MSTORE REVERT JUMPDEST ISZERO PUSH2 0x40C4 JUMPI JUMP JUMPDEST PUSH1 0x64 PUSH1 0x40 MLOAD PUSH3 0x461BCD PUSH1 0xE5 SHL DUP2 MSTORE PUSH1 0x20 PUSH1 0x4 DUP3 ADD MSTORE PUSH1 0x4 PUSH1 0x24 DUP3 ADD MSTORE PUSH4 0x44322E31 PUSH1 0xE0 SHL PUSH1 0x44 DUP3 ADD MSTORE REVERT JUMPDEST DUP3 ISZERO PUSH2 0x418E JUMPI PUSH1 0x1 DUP1 PUSH1 0xA0 SHL SUB AND SWAP1 DUP2 PUSH0 MSTORE PUSH1 0x1 PUSH1 0x20 MSTORE PUSH1 0x40 PUSH0 KECCAK256 PUSH1 0x1 DUP1 PUSH1 0xA0 SHL SUB DUP3 AND PUSH0 MSTORE PUSH1 0x20 MSTORE DUP3 PUSH1 0x40 PUSH0 KECCAK256 SLOAD LT PUSH2 0x4187 JUMPI PUSH32 0xD1398BEE19313D6BF672CCB116E51F4A1A947E91C757907F51FBB5B5E56C698F PUSH1 0x20 PUSH0 SWAP3 DUP5 DUP5 MSTORE PUSH1 0x1 DUP3 MSTORE PUSH1 0x40 DUP5 KECCAK256 PUSH1 0x1 DUP1 PUSH1 0xA0 SHL SUB DUP3 AND DUP6 MSTORE DUP3 MSTORE PUSH1 0x40 DUP5 KECCAK256 PUSH2 0x416F DUP8 DUP3 SLOAD PUSH2 0x3EC9 JUMP JUMPDEST SWAP1 SSTORE PUSH1 0x40 MLOAD SWAP6 DUP7 MSTORE PUSH1 0x1 PUSH1 0x1 PUSH1 0xA0 SHL SUB AND SWAP5 LOG4 PUSH1 0x1 SWAP1 JUMP JUMPDEST POP POP POP PUSH0 SWAP1 JUMP JUMPDEST POP POP POP PUSH1 0x1 SWAP1 JUMP JUMPDEST SWAP2 SWAP1 DUP2 ISZERO PUSH2 0x418E JUMPI PUSH1 0x1 PUSH1 0x1 PUSH1 0xA0 SHL SUB AND SWAP2 DUP3 PUSH2 0x41FE JUMPI PUSH0 DUP1 DUP1 DUP1 DUP6 PUSH1 0x1 PUSH1 0x1 PUSH1 0xA0 SHL SUB DUP7 AND DUP3 CALL ISZERO PUSH2 0x2989 JUMPI PUSH1 0x20 PUSH32 0x2717EAD6B9200DD235AAD468C9809EA400FE33AC69B5BFAA6D3E90FC922B6398 SWAP2 JUMPDEST PUSH1 0x40 MLOAD SWAP4 DUP5 MSTORE PUSH1 0x1 PUSH1 0x1 PUSH1 0xA0 SHL SUB AND SWAP3 LOG3 PUSH1 0x1 SWAP1 JUMP JUMPDEST PUSH1 0x40 MLOAD PUSH4 0xA9059CBB PUSH1 0xE0 SHL DUP2 MSTORE PUSH1 0x1 PUSH1 0x1 PUSH1 0xA0 SHL SUB DUP3 AND PUSH1 0x4 DUP3 ADD MSTORE PUSH1 0x24 DUP2 ADD DUP4 SWAP1 MSTORE PUSH1 0x20 DUP2 PUSH1 0x44 DUP2 PUSH0 DUP9 GAS CALL DUP1 ISZERO PUSH2 0x2989 JUMPI PUSH2 0x4260 JUMPI JUMPDEST POP PUSH1 0x20 PUSH32 0x2717EAD6B9200DD235AAD468C9809EA400FE33AC69B5BFAA6D3E90FC922B6398 SWAP2 PUSH2 0x41E8 JUMP JUMPDEST PUSH1 0x20 DUP2 RETURNDATASIZE PUSH1 0x20 GT PUSH2 0x42B6 JUMPI JUMPDEST DUP2 PUSH2 0x4279 PUSH1 0x20 SWAP4 DUP4 PUSH2 0x3C7D JUMP JUMPDEST DUP2 ADD SUB SLT PUSH2 0x50A JUMPI PUSH32 0x2717EAD6B9200DD235AAD468C9809EA400FE33AC69B5BFAA6D3E90FC922B6398 SWAP2 PUSH2 0x42AE PUSH1 0x20 SWAP3 PUSH2 0x3CB3 JUMP JUMPDEST POP SWAP2 POP PUSH2 0x4236 JUMP JUMPDEST RETURNDATASIZE SWAP2 POP PUSH2 0x426C JUMP JUMPDEST PUSH0 SLOAD PUSH1 0x1 PUSH1 0x1 PUSH1 0xA0 SHL SUB AND CALLER SUB PUSH2 0x42D1 JUMPI JUMP JUMPDEST PUSH4 0x118CDAA7 PUSH1 0xE0 SHL PUSH0 MSTORE CALLER PUSH1 0x4 MSTORE PUSH1 0x24 PUSH0 REVERT JUMPDEST DUP3 ISZERO PUSH2 0x418E JUMPI PUSH32 0xD1398BEE19313D6BF672CCB116E51F4A1A947E91C757907F51FBB5B5E56C698F PUSH1 0x20 PUSH0 SWAP3 PUSH1 0x1 DUP1 PUSH1 0xA0 SHL SUB AND SWAP4 DUP5 DUP5 MSTORE PUSH1 0x1 DUP3 MSTORE PUSH1 0x40 DUP5 KECCAK256 PUSH1 0x1 DUP1 PUSH1 0xA0 SHL SUB DUP3 AND DUP6 MSTORE DUP3 MSTORE PUSH1 0x40 DUP5 KECCAK256 PUSH2 0x416F DUP8 DUP3 SLOAD PUSH2 0x407E JUMP INVALID 0xAF 0xBE CALLER PUSH24 0x83658B293F1566E1790BFAB9858B8CF08DE944CA3CD013D4 0x21 XOR DUP8 0xB8 ADDMOD PUSH13 0x61B89EF5FCDB14C243B643069C EXTCODECOPY PUSH11 0x84765B27F2A696B875DDDF SUB BYTE 0xFB 0x4D 0xA6 0xAF NOT 0x23 DUP1 0xB5 0xBA BALANCE BYTE 0xC0 SUB CREATE2 PUSH31 0xFA2BE0717F0E466318C7E9CF546C4937A03D94F05D33634B730E763D232B48 0x2C 0xF8 CALLDATALOAD LOG4 BASEFEE XOR CALLDATALOAD 0xF6 0x2D EXP MULMOD PUSH20 0xB42018A8EAD4F047DCBC1C05240F31FF3AD067EF 0x1E 0xE3 TLOAD 0xE4 SWAP10 PUSH24 0x62752E3A095284754544F4C709D7A2646970667358221220 0x26 PUSH28 0x3F2FB995C100A30A1DEF7612AC0E764921EDF870B98F7A88A7BE5A4D 0xCB 0xEB PUSH5 0x736F6C6343 STOP ADDMOD SHR STOP CALLER "
		},
		"gasEstimates": {
			"creation": {
				"codeDepositCost": "3485800",
				"executionCost": "infinite",
				"totalCost": "infinite"
			},
			"external": {
				"balanceOf(address)": "2778",
				"balanceOf(address,address)": "3329",
				"balances(address,address)": "3175",
				"commissionRecipient()": "2318",
				"contractEnabled()": "2491",
				"counterpartyAcceptSidedDeal(bytes32)": "72509",
				"createDeal(address,address,uint256,uint256,address,uint256,uint8)": "infinite",
				"createSidedDeal(address,address,uint256,uint256,uint256,uint256,address,address,uint256,uint8)": "infinite",
				"deals(bytes32)": "28526",
				"deposit(address,uint256)": "infinite",
				"depositCommissionPercent()": "2671",
				"disableContract()": "29083",
				"enableContract()": "28853",
				"getAmountToDepositViaComission(uint256)": "infinite",
				"getDeal(bytes32)": "infinite",
				"owner()": "2714",
				"payUpAddDepositByCounterparty(bytes32,uint256)": "infinite",
				"payUpAddDepositByInitiator(bytes32,uint256)": "infinite",
				"payUpCounterpartyAcceptSidedDeal(bytes32)": "77075",
				"payUpCreateDeal(address,address,uint256,uint256,address,uint256,uint8)": "infinite",
				"payUpCreateSidedDeal(address,address,uint256,uint256,uint256,uint256,address,address,uint256,uint8)": "infinite",
				"rejectSidedDeal(bytes32)": "infinite",
				"renounceOwnership()": "28384",
				"setDepositCommission(uint256,address)": "50160",
				"totalCompletedDeals()": "2935",
				"totalDeals()": "2737",
				"transfer(address,address,uint256)": "54220",
				"transferOwnership(address)": "28890",
				"withdraw(address,uint256)": "infinite",
				"withdrawCancelDeal(bytes32)": "infinite",
				"withdrawCompleteDeal(bytes32)": "infinite",
				"withdrawExecuteActionsAfterExpiration(bytes32)": "infinite",
				"withdrawGivebackToConunterparty(bytes32,uint256)": "infinite",
				"withdrawGivebackToInitiator(bytes32,uint256)": "infinite",
				"withdrawRejectSidedDeal(bytes32)": "infinite",
				"withdrawTransferToCounterparty(bytes32,uint256)": "infinite",
				"withdrawTransferToInitiator(bytes32,uint256)": "infinite"
			}
		},
		"methodIdentifiers": {
			"balanceOf(address)": "70a08231",
			"balanceOf(address,address)": "f7888aec",
			"balances(address,address)": "c23f001f",
			"commissionRecipient()": "06fd154a",
			"contractEnabled()": "41b3a0d9",
			"counterpartyAcceptSidedDeal(bytes32)": "4187129c",
			"createDeal(address,address,uint256,uint256,address,uint256,uint8)": "17b52b50",
			"createSidedDeal(address,address,uint256,uint256,uint256,uint256,address,address,uint256,uint8)": "007e8bd3",
			"deals(bytes32)": "81cd872a",
			"deposit(address,uint256)": "47e7ef24",
			"depositCommissionPercent()": "899a3ffd",
			"disableContract()": "894ba833",
			"enableContract()": "367edd32",
			"getAmountToDepositViaComission(uint256)": "39b3edb0",
			"getDeal(bytes32)": "51a6fad5",
			"owner()": "8da5cb5b",
			"payUpAddDepositByCounterparty(bytes32,uint256)": "a7170106",
			"payUpAddDepositByInitiator(bytes32,uint256)": "fbb405db",
			"payUpCounterpartyAcceptSidedDeal(bytes32)": "bb06c1a4",
			"payUpCreateDeal(address,address,uint256,uint256,address,uint256,uint8)": "28d5a050",
			"payUpCreateSidedDeal(address,address,uint256,uint256,uint256,uint256,address,address,uint256,uint8)": "cfadf6c7",
			"rejectSidedDeal(bytes32)": "8deea5fb",
			"renounceOwnership()": "715018a6",
			"setDepositCommission(uint256,address)": "15f8a314",
			"totalCompletedDeals()": "e08560a4",
			"totalDeals()": "966d1f1d",
			"transfer(address,address,uint256)": "beabacc8",
			"transferOwnership(address)": "f2fde38b",
			"withdraw(address,uint256)": "f3fef3a3",
			"withdrawCancelDeal(bytes32)": "b7dc14fe",
			"withdrawCompleteDeal(bytes32)": "30e97ae1",
			"withdrawExecuteActionsAfterExpiration(bytes32)": "044a6da1",
			"withdrawGivebackToConunterparty(bytes32,uint256)": "a4f60b16",
			"withdrawGivebackToInitiator(bytes32,uint256)": "f2d5ec3d",
			"withdrawRejectSidedDeal(bytes32)": "80ccb070",
			"withdrawTransferToCounterparty(bytes32,uint256)": "4dff0036",
			"withdrawTransferToInitiator(bytes32,uint256)": "d747b811"
		}
	},
	"abi": [
		{
			"inputs": [
				{
					"internalType": "uint256",
					"name": "_depositCommissionPercent",
					"type": "uint256"
				},
				{
					"internalType": "address",
					"name": "_commissionRecipient",
					"type": "address"
				}
			],
			"stateMutability": "nonpayable",
			"type": "constructor"
		},
		{
			"inputs": [
				{
					"internalType": "address",
					"name": "owner",
					"type": "address"
				}
			],
			"name": "OwnableInvalidOwner",
			"type": "error"
		},
		{
			"inputs": [
				{
					"internalType": "address",
					"name": "account",
					"type": "address"
				}
			],
			"name": "OwnableUnauthorizedAccount",
			"type": "error"
		},
		{
			"anonymous": false,
			"inputs": [
				{
					"indexed": true,
					"internalType": "bytes32",
					"name": "id",
					"type": "bytes32"
				},
				{
					"indexed": true,
					"internalType": "address",
					"name": "initiator",
					"type": "address"
				},
				{
					"indexed": true,
					"internalType": "address",
					"name": "counterparty",
					"type": "address"
				},
				{
					"indexed": false,
					"internalType": "address",
					"name": "mediator",
					"type": "address"
				},
				{
					"indexed": false,
					"internalType": "uint256",
					"name": "amount",
					"type": "uint256"
				}
			],
			"name": "AddDepositByCounterparty",
			"type": "event"
		},
		{
			"anonymous": false,
			"inputs": [
				{
					"indexed": true,
					"internalType": "bytes32",
					"name": "id",
					"type": "bytes32"
				},
				{
					"indexed": true,
					"internalType": "address",
					"name": "initiator",
					"type": "address"
				},
				{
					"indexed": true,
					"internalType": "address",
					"name": "counterparty",
					"type": "address"
				},
				{
					"indexed": false,
					"internalType": "address",
					"name": "mediator",
					"type": "address"
				},
				{
					"indexed": false,
					"internalType": "uint256",
					"name": "amount",
					"type": "uint256"
				}
			],
			"name": "AddDepositByInitiator",
			"type": "event"
		},
		{
			"anonymous": false,
			"inputs": [
				{
					"indexed": false,
					"internalType": "uint256",
					"name": "newCommissionPercent",
					"type": "uint256"
				},
				{
					"indexed": false,
					"internalType": "address",
					"name": "newCommissionRecipient",
					"type": "address"
				}
			],
			"name": "CommissionChanged",
			"type": "event"
		},
		{
			"anonymous": false,
			"inputs": [
				{
					"indexed": true,
					"internalType": "address",
					"name": "by",
					"type": "address"
				}
			],
			"name": "ContractDisabled",
			"type": "event"
		},
		{
			"anonymous": false,
			"inputs": [
				{
					"indexed": true,
					"internalType": "address",
					"name": "by",
					"type": "address"
				}
			],
			"name": "ContractEnabled",
			"type": "event"
		},
		{
			"anonymous": false,
			"inputs": [
				{
					"indexed": false,
					"internalType": "bool",
					"name": "status",
					"type": "bool"
				}
			],
			"name": "ContractStatusChanged",
			"type": "event"
		},
		{
			"anonymous": false,
			"inputs": [
				{
					"indexed": true,
					"internalType": "bytes32",
					"name": "id",
					"type": "bytes32"
				},
				{
					"indexed": true,
					"internalType": "address",
					"name": "initiator",
					"type": "address"
				},
				{
					"indexed": true,
					"internalType": "address",
					"name": "counterparty",
					"type": "address"
				},
				{
					"indexed": false,
					"internalType": "address",
					"name": "mediator",
					"type": "address"
				},
				{
					"indexed": false,
					"internalType": "address",
					"name": "sender",
					"type": "address"
				}
			],
			"name": "DealCanceled",
			"type": "event"
		},
		{
			"anonymous": false,
			"inputs": [
				{
					"indexed": true,
					"internalType": "bytes32",
					"name": "id",
					"type": "bytes32"
				},
				{
					"indexed": true,
					"internalType": "address",
					"name": "initiator",
					"type": "address"
				},
				{
					"indexed": true,
					"internalType": "address",
					"name": "counterparty",
					"type": "address"
				},
				{
					"indexed": false,
					"internalType": "address",
					"name": "mediator",
					"type": "address"
				},
				{
					"indexed": false,
					"internalType": "address",
					"name": "sender",
					"type": "address"
				}
			],
			"name": "DealCompited",
			"type": "event"
		},
		{
			"anonymous": false,
			"inputs": [
				{
					"indexed": true,
					"internalType": "bytes32",
					"name": "id",
					"type": "bytes32"
				},
				{
					"indexed": true,
					"internalType": "address",
					"name": "initiator",
					"type": "address"
				},
				{
					"indexed": true,
					"internalType": "address",
					"name": "counterparty",
					"type": "address"
				},
				{
					"indexed": false,
					"internalType": "address",
					"name": "mediator",
					"type": "address"
				}
			],
			"name": "DealCreated",
			"type": "event"
		},
		{
			"anonymous": false,
			"inputs": [
				{
					"indexed": true,
					"internalType": "bytes32",
					"name": "id",
					"type": "bytes32"
				},
				{
					"indexed": true,
					"internalType": "address",
					"name": "initiator",
					"type": "address"
				},
				{
					"indexed": true,
					"internalType": "address",
					"name": "counterparty",
					"type": "address"
				},
				{
					"indexed": false,
					"internalType": "address",
					"name": "mediator",
					"type": "address"
				}
			],
			"name": "DealRequestCreated",
			"type": "event"
		},
		{
			"anonymous": false,
			"inputs": [
				{
					"indexed": true,
					"internalType": "address",
					"name": "user",
					"type": "address"
				},
				{
					"indexed": true,
					"internalType": "address",
					"name": "token",
					"type": "address"
				},
				{
					"indexed": false,
					"internalType": "uint256",
					"name": "amount",
					"type": "uint256"
				},
				{
					"indexed": false,
					"internalType": "uint256",
					"name": "commission",
					"type": "uint256"
				}
			],
			"name": "Deposit",
			"type": "event"
		},
		{
			"anonymous": false,
			"inputs": [
				{
					"indexed": true,
					"internalType": "bytes32",
					"name": "id",
					"type": "bytes32"
				},
				{
					"indexed": true,
					"internalType": "address",
					"name": "initiator",
					"type": "address"
				},
				{
					"indexed": true,
					"internalType": "address",
					"name": "counterparty",
					"type": "address"
				},
				{
					"indexed": false,
					"internalType": "address",
					"name": "mediator",
					"type": "address"
				},
				{
					"indexed": false,
					"internalType": "address",
					"name": "sender",
					"type": "address"
				},
				{
					"indexed": false,
					"internalType": "uint256",
					"name": "amount",
					"type": "uint256"
				},
				{
					"indexed": false,
					"internalType": "uint256",
					"name": "fee",
					"type": "uint256"
				}
			],
			"name": "GivebackToCounterparty",
			"type": "event"
		},
		{
			"anonymous": false,
			"inputs": [
				{
					"indexed": true,
					"internalType": "bytes32",
					"name": "id",
					"type": "bytes32"
				},
				{
					"indexed": true,
					"internalType": "address",
					"name": "initiator",
					"type": "address"
				},
				{
					"indexed": true,
					"internalType": "address",
					"name": "counterparty",
					"type": "address"
				},
				{
					"indexed": false,
					"internalType": "address",
					"name": "mediator",
					"type": "address"
				},
				{
					"indexed": false,
					"internalType": "address",
					"name": "sender",
					"type": "address"
				},
				{
					"indexed": false,
					"internalType": "uint256",
					"name": "amount",
					"type": "uint256"
				},
				{
					"indexed": false,
					"internalType": "uint256",
					"name": "fee",
					"type": "uint256"
				}
			],
			"name": "GivebackToInitiator",
			"type": "event"
		},
		{
			"anonymous": false,
			"inputs": [
				{
					"indexed": true,
					"internalType": "address",
					"name": "mediator",
					"type": "address"
				},
				{
					"indexed": false,
					"internalType": "bytes32",
					"name": "dealId",
					"type": "bytes32"
				}
			],
			"name": "JoinedToDealAsMediator",
			"type": "event"
		},
		{
			"anonymous": false,
			"inputs": [
				{
					"indexed": true,
					"internalType": "address",
					"name": "previousOwner",
					"type": "address"
				},
				{
					"indexed": true,
					"internalType": "address",
					"name": "newOwner",
					"type": "address"
				}
			],
			"name": "OwnershipTransferred",
			"type": "event"
		},
		{
			"anonymous": false,
			"inputs": [
				{
					"indexed": true,
					"internalType": "address",
					"name": "from",
					"type": "address"
				},
				{
					"indexed": true,
					"internalType": "address",
					"name": "to",
					"type": "address"
				},
				{
					"indexed": true,
					"internalType": "address",
					"name": "token",
					"type": "address"
				},
				{
					"indexed": false,
					"internalType": "uint256",
					"name": "value",
					"type": "uint256"
				}
			],
			"name": "Transfer",
			"type": "event"
		},
		{
			"anonymous": false,
			"inputs": [
				{
					"indexed": true,
					"internalType": "bytes32",
					"name": "id",
					"type": "bytes32"
				},
				{
					"indexed": true,
					"internalType": "address",
					"name": "initiator",
					"type": "address"
				},
				{
					"indexed": true,
					"internalType": "address",
					"name": "counterparty",
					"type": "address"
				},
				{
					"indexed": false,
					"internalType": "address",
					"name": "mediator",
					"type": "address"
				},
				{
					"indexed": false,
					"internalType": "address",
					"name": "sender",
					"type": "address"
				},
				{
					"indexed": false,
					"internalType": "uint256",
					"name": "amount",
					"type": "uint256"
				},
				{
					"indexed": false,
					"internalType": "uint256",
					"name": "fee",
					"type": "uint256"
				}
			],
			"name": "TransferToCounterparty",
			"type": "event"
		},
		{
			"anonymous": false,
			"inputs": [
				{
					"indexed": true,
					"internalType": "bytes32",
					"name": "id",
					"type": "bytes32"
				},
				{
					"indexed": true,
					"internalType": "address",
					"name": "initiator",
					"type": "address"
				},
				{
					"indexed": true,
					"internalType": "address",
					"name": "counterparty",
					"type": "address"
				},
				{
					"indexed": false,
					"internalType": "address",
					"name": "mediator",
					"type": "address"
				},
				{
					"indexed": false,
					"internalType": "address",
					"name": "sender",
					"type": "address"
				},
				{
					"indexed": false,
					"internalType": "address",
					"name": "target",
					"type": "address"
				},
				{
					"indexed": false,
					"internalType": "uint256",
					"name": "amountInitiator",
					"type": "uint256"
				},
				{
					"indexed": false,
					"internalType": "uint256",
					"name": "amountCounterparty",
					"type": "uint256"
				},
				{
					"indexed": false,
					"internalType": "uint256",
					"name": "feeInitiator",
					"type": "uint256"
				},
				{
					"indexed": false,
					"internalType": "uint256",
					"name": "feeCounterparty",
					"type": "uint256"
				}
			],
			"name": "TransferToFromDeal",
			"type": "event"
		},
		{
			"anonymous": false,
			"inputs": [
				{
					"indexed": true,
					"internalType": "bytes32",
					"name": "id",
					"type": "bytes32"
				},
				{
					"indexed": true,
					"internalType": "address",
					"name": "initiator",
					"type": "address"
				},
				{
					"indexed": true,
					"internalType": "address",
					"name": "counterparty",
					"type": "address"
				},
				{
					"indexed": false,
					"internalType": "address",
					"name": "mediator",
					"type": "address"
				},
				{
					"indexed": false,
					"internalType": "address",
					"name": "sender",
					"type": "address"
				},
				{
					"indexed": false,
					"internalType": "uint256",
					"name": "amount",
					"type": "uint256"
				},
				{
					"indexed": false,
					"internalType": "uint256",
					"name": "fee",
					"type": "uint256"
				}
			],
			"name": "TransferToInitiator",
			"type": "event"
		},
		{
			"anonymous": false,
			"inputs": [
				{
					"indexed": true,
					"internalType": "address",
					"name": "user",
					"type": "address"
				},
				{
					"indexed": true,
					"internalType": "address",
					"name": "token",
					"type": "address"
				},
				{
					"indexed": false,
					"internalType": "uint256",
					"name": "amount",
					"type": "uint256"
				}
			],
			"name": "Withdrawal",
			"type": "event"
		},
		{
			"inputs": [
				{
					"internalType": "address",
					"name": "user",
					"type": "address"
				}
			],
			"name": "balanceOf",
			"outputs": [
				{
					"internalType": "uint256",
					"name": "",
					"type": "uint256"
				}
			],
			"stateMutability": "view",
			"type": "function"
		},
		{
			"inputs": [
				{
					"internalType": "address",
					"name": "user",
					"type": "address"
				},
				{
					"internalType": "address",
					"name": "token",
					"type": "address"
				}
			],
			"name": "balanceOf",
			"outputs": [
				{
					"internalType": "uint256",
					"name": "",
					"type": "uint256"
				}
			],
			"stateMutability": "view",
			"type": "function"
		},
		{
			"inputs": [
				{
					"internalType": "address",
					"name": "",
					"type": "address"
				},
				{
					"internalType": "address",
					"name": "",
					"type": "address"
				}
			],
			"name": "balances",
			"outputs": [
				{
					"internalType": "uint256",
					"name": "",
					"type": "uint256"
				}
			],
			"stateMutability": "view",
			"type": "function"
		},
		{
			"inputs": [],
			"name": "commissionRecipient",
			"outputs": [
				{
					"internalType": "address",
					"name": "",
					"type": "address"
				}
			],
			"stateMutability": "view",
			"type": "function"
		},
		{
			"inputs": [],
			"name": "contractEnabled",
			"outputs": [
				{
					"internalType": "bool",
					"name": "",
					"type": "bool"
				}
			],
			"stateMutability": "view",
			"type": "function"
		},
		{
			"inputs": [
				{
					"internalType": "bytes32",
					"name": "dealId",
					"type": "bytes32"
				}
			],
			"name": "counterpartyAcceptSidedDeal",
			"outputs": [
				{
					"internalType": "bool",
					"name": "",
					"type": "bool"
				}
			],
			"stateMutability": "nonpayable",
			"type": "function"
		},
		{
			"inputs": [
				{
					"internalType": "address payable",
					"name": "counterparty",
					"type": "address"
				},
				{
					"internalType": "address payable",
					"name": "mediator",
					"type": "address"
				},
				{
					"internalType": "uint256",
					"name": "amount",
					"type": "uint256"
				},
				{
					"internalType": "uint256",
					"name": "PRCMediatorFee",
					"type": "uint256"
				},
				{
					"internalType": "address",
					"name": "tokenAddress",
					"type": "address"
				},
				{
					"internalType": "uint256",
					"name": "expirationDate",
					"type": "uint256"
				},
				{
					"internalType": "enum MediatorAction",
					"name": "mediatorActionOnExpiration",
					"type": "uint8"
				}
			],
			"name": "createDeal",
			"outputs": [
				{
					"internalType": "bytes32",
					"name": "",
					"type": "bytes32"
				}
			],
			"stateMutability": "nonpayable",
			"type": "function"
		},
		{
			"inputs": [
				{
					"internalType": "address payable",
					"name": "counterparty",
					"type": "address"
				},
				{
					"internalType": "address payable",
					"name": "mediator",
					"type": "address"
				},
				{
					"internalType": "uint256",
					"name": "initiatorCreateAmount",
					"type": "uint256"
				},
				{
					"internalType": "uint256",
					"name": "counterpartyCreateAmount",
					"type": "uint256"
				},
				{
					"internalType": "uint256",
					"name": "PRCMediatorFeeInititor",
					"type": "uint256"
				},
				{
					"internalType": "uint256",
					"name": "PRCMediatorFeeCounterparty",
					"type": "uint256"
				},
				{
					"internalType": "address",
					"name": "initiatorTokenAddress",
					"type": "address"
				},
				{
					"internalType": "address",
					"name": "counterpartyTokenAddress",
					"type": "address"
				},
				{
					"internalType": "uint256",
					"name": "expirationDate",
					"type": "uint256"
				},
				{
					"internalType": "enum MediatorAction",
					"name": "mediatorActionOnExpiration",
					"type": "uint8"
				}
			],
			"name": "createSidedDeal",
			"outputs": [
				{
					"internalType": "bytes32",
					"name": "",
					"type": "bytes32"
				}
			],
			"stateMutability": "nonpayable",
			"type": "function"
		},
		{
			"inputs": [
				{
					"internalType": "bytes32",
					"name": "",
					"type": "bytes32"
				}
			],
			"name": "deals",
			"outputs": [
				{
					"internalType": "address payable",
					"name": "initiator",
					"type": "address"
				},
				{
					"internalType": "address payable",
					"name": "counterparty",
					"type": "address"
				},
				{
					"internalType": "address payable",
					"name": "mediator",
					"type": "address"
				},
				{
					"internalType": "bool",
					"name": "isCompleted",
					"type": "bool"
				},
				{
					"internalType": "bool",
					"name": "isCanceled",
					"type": "bool"
				},
				{
					"internalType": "bool",
					"name": "isTwoSided",
					"type": "bool"
				},
				{
					"internalType": "bool",
					"name": "isSignedByCounterparty",
					"type": "bool"
				},
				{
					"internalType": "uint256",
					"name": "initiatorCreateAmount",
					"type": "uint256"
				},
				{
					"internalType": "uint256",
					"name": "counterpartyCreateAmount",
					"type": "uint256"
				},
				{
					"internalType": "uint256",
					"name": "initiatorCurrentAmount",
					"type": "uint256"
				},
				{
					"internalType": "uint256",
					"name": "counterpartyCurrentAmount",
					"type": "uint256"
				},
				{
					"internalType": "uint256",
					"name": "PRC_InitatorMediatorFee",
					"type": "uint256"
				},
				{
					"internalType": "uint256",
					"name": "PRC_CounterpartyMediatorFee",
					"type": "uint256"
				},
				{
					"internalType": "address",
					"name": "initiatorTokenAddress",
					"type": "address"
				},
				{
					"internalType": "address",
					"name": "counterpartyTokenAddress",
					"type": "address"
				},
				{
					"internalType": "uint256",
					"name": "expirationDate",
					"type": "uint256"
				},
				{
					"internalType": "enum MediatorAction",
					"name": "mediatorActionOnExpiration",
					"type": "uint8"
				}
			],
			"stateMutability": "view",
			"type": "function"
		},
		{
			"inputs": [
				{
					"internalType": "address",
					"name": "token",
					"type": "address"
				},
				{
					"internalType": "uint256",
					"name": "amount",
					"type": "uint256"
				}
			],
			"name": "deposit",
			"outputs": [],
			"stateMutability": "payable",
			"type": "function"
		},
		{
			"inputs": [],
			"name": "depositCommissionPercent",
			"outputs": [
				{
					"internalType": "uint256",
					"name": "",
					"type": "uint256"
				}
			],
			"stateMutability": "view",
			"type": "function"
		},
		{
			"inputs": [],
			"name": "disableContract",
			"outputs": [],
			"stateMutability": "nonpayable",
			"type": "function"
		},
		{
			"inputs": [],
			"name": "enableContract",
			"outputs": [],
			"stateMutability": "nonpayable",
			"type": "function"
		},
		{
			"inputs": [
				{
					"internalType": "uint256",
					"name": "amount",
					"type": "uint256"
				}
			],
			"name": "getAmountToDepositViaComission",
			"outputs": [
				{
					"internalType": "uint256",
					"name": "",
					"type": "uint256"
				}
			],
			"stateMutability": "view",
			"type": "function"
		},
		{
			"inputs": [
				{
					"internalType": "bytes32",
					"name": "dealId",
					"type": "bytes32"
				}
			],
			"name": "getDeal",
			"outputs": [
				{
					"components": [
						{
							"internalType": "address payable",
							"name": "initiator",
							"type": "address"
						},
						{
							"internalType": "address payable",
							"name": "counterparty",
							"type": "address"
						},
						{
							"internalType": "address payable",
							"name": "mediator",
							"type": "address"
						},
						{
							"internalType": "bool",
							"name": "isCompleted",
							"type": "bool"
						},
						{
							"internalType": "bool",
							"name": "isCanceled",
							"type": "bool"
						},
						{
							"internalType": "bool",
							"name": "isTwoSided",
							"type": "bool"
						},
						{
							"internalType": "bool",
							"name": "isSignedByCounterparty",
							"type": "bool"
						},
						{
							"internalType": "uint256",
							"name": "initiatorCreateAmount",
							"type": "uint256"
						},
						{
							"internalType": "uint256",
							"name": "counterpartyCreateAmount",
							"type": "uint256"
						},
						{
							"internalType": "uint256",
							"name": "initiatorCurrentAmount",
							"type": "uint256"
						},
						{
							"internalType": "uint256",
							"name": "counterpartyCurrentAmount",
							"type": "uint256"
						},
						{
							"internalType": "uint256",
							"name": "PRC_InitatorMediatorFee",
							"type": "uint256"
						},
						{
							"internalType": "uint256",
							"name": "PRC_CounterpartyMediatorFee",
							"type": "uint256"
						},
						{
							"internalType": "address",
							"name": "initiatorTokenAddress",
							"type": "address"
						},
						{
							"internalType": "address",
							"name": "counterpartyTokenAddress",
							"type": "address"
						},
						{
							"internalType": "uint256",
							"name": "expirationDate",
							"type": "uint256"
						},
						{
							"internalType": "enum MediatorAction",
							"name": "mediatorActionOnExpiration",
							"type": "uint8"
						}
					],
					"internalType": "struct Deal",
					"name": "",
					"type": "tuple"
				}
			],
			"stateMutability": "view",
			"type": "function"
		},
		{
			"inputs": [],
			"name": "owner",
			"outputs": [
				{
					"internalType": "address",
					"name": "",
					"type": "address"
				}
			],
			"stateMutability": "view",
			"type": "function"
		},
		{
			"inputs": [
				{
					"internalType": "bytes32",
					"name": "dealId",
					"type": "bytes32"
				},
				{
					"internalType": "uint256",
					"name": "amount",
					"type": "uint256"
				}
			],
			"name": "payUpAddDepositByCounterparty",
			"outputs": [
				{
					"internalType": "bool",
					"name": "",
					"type": "bool"
				}
			],
			"stateMutability": "payable",
			"type": "function"
		},
		{
			"inputs": [
				{
					"internalType": "bytes32",
					"name": "dealId",
					"type": "bytes32"
				},
				{
					"internalType": "uint256",
					"name": "amount",
					"type": "uint256"
				}
			],
			"name": "payUpAddDepositByInitiator",
			"outputs": [
				{
					"internalType": "bool",
					"name": "",
					"type": "bool"
				}
			],
			"stateMutability": "payable",
			"type": "function"
		},
		{
			"inputs": [
				{
					"internalType": "bytes32",
					"name": "dealId",
					"type": "bytes32"
				}
			],
			"name": "payUpCounterpartyAcceptSidedDeal",
			"outputs": [
				{
					"internalType": "bool",
					"name": "",
					"type": "bool"
				}
			],
			"stateMutability": "payable",
			"type": "function"
		},
		{
			"inputs": [
				{
					"internalType": "address payable",
					"name": "counterparty",
					"type": "address"
				},
				{
					"internalType": "address payable",
					"name": "mediator",
					"type": "address"
				},
				{
					"internalType": "uint256",
					"name": "amount",
					"type": "uint256"
				},
				{
					"internalType": "uint256",
					"name": "PRCMediatorFee",
					"type": "uint256"
				},
				{
					"internalType": "address",
					"name": "tokenAddress",
					"type": "address"
				},
				{
					"internalType": "uint256",
					"name": "expirationDate",
					"type": "uint256"
				},
				{
					"internalType": "enum MediatorAction",
					"name": "mediatorActionOnExpiration",
					"type": "uint8"
				}
			],
			"name": "payUpCreateDeal",
			"outputs": [
				{
					"internalType": "bytes32",
					"name": "",
					"type": "bytes32"
				}
			],
			"stateMutability": "payable",
			"type": "function"
		},
		{
			"inputs": [
				{
					"internalType": "address payable",
					"name": "counterparty",
					"type": "address"
				},
				{
					"internalType": "address payable",
					"name": "mediator",
					"type": "address"
				},
				{
					"internalType": "uint256",
					"name": "initiatorCreateAmount",
					"type": "uint256"
				},
				{
					"internalType": "uint256",
					"name": "counterpartyCreateAmount",
					"type": "uint256"
				},
				{
					"internalType": "uint256",
					"name": "PRCMediatorFeeInititor",
					"type": "uint256"
				},
				{
					"internalType": "uint256",
					"name": "PRCMediatorFeeCounterparty",
					"type": "uint256"
				},
				{
					"internalType": "address",
					"name": "initiatorTokenAddress",
					"type": "address"
				},
				{
					"internalType": "address",
					"name": "counterpartyTokenAddress",
					"type": "address"
				},
				{
					"internalType": "uint256",
					"name": "expirationDate",
					"type": "uint256"
				},
				{
					"internalType": "enum MediatorAction",
					"name": "mediatorActionOnExpiration",
					"type": "uint8"
				}
			],
			"name": "payUpCreateSidedDeal",
			"outputs": [
				{
					"internalType": "bytes32",
					"name": "",
					"type": "bytes32"
				}
			],
			"stateMutability": "payable",
			"type": "function"
		},
		{
			"inputs": [
				{
					"internalType": "bytes32",
					"name": "dealId",
					"type": "bytes32"
				}
			],
			"name": "rejectSidedDeal",
			"outputs": [
				{
					"internalType": "bool",
					"name": "",
					"type": "bool"
				}
			],
			"stateMutability": "nonpayable",
			"type": "function"
		},
		{
			"inputs": [],
			"name": "renounceOwnership",
			"outputs": [],
			"stateMutability": "nonpayable",
			"type": "function"
		},
		{
			"inputs": [
				{
					"internalType": "uint256",
					"name": "newCommissionPercent",
					"type": "uint256"
				},
				{
					"internalType": "address",
					"name": "newRecipient",
					"type": "address"
				}
			],
			"name": "setDepositCommission",
			"outputs": [],
			"stateMutability": "nonpayable",
			"type": "function"
		},
		{
			"inputs": [],
			"name": "totalCompletedDeals",
			"outputs": [
				{
					"internalType": "uint256",
					"name": "",
					"type": "uint256"
				}
			],
			"stateMutability": "view",
			"type": "function"
		},
		{
			"inputs": [],
			"name": "totalDeals",
			"outputs": [
				{
					"internalType": "uint256",
					"name": "",
					"type": "uint256"
				}
			],
			"stateMutability": "view",
			"type": "function"
		},
		{
			"inputs": [
				{
					"internalType": "address",
					"name": "to",
					"type": "address"
				},
				{
					"internalType": "address",
					"name": "token",
					"type": "address"
				},
				{
					"internalType": "uint256",
					"name": "amount",
					"type": "uint256"
				}
			],
			"name": "transfer",
			"outputs": [
				{
					"internalType": "bool",
					"name": "",
					"type": "bool"
				}
			],
			"stateMutability": "nonpayable",
			"type": "function"
		},
		{
			"inputs": [
				{
					"internalType": "address",
					"name": "newOwner",
					"type": "address"
				}
			],
			"name": "transferOwnership",
			"outputs": [],
			"stateMutability": "nonpayable",
			"type": "function"
		},
		{
			"inputs": [
				{
					"internalType": "address",
					"name": "token",
					"type": "address"
				},
				{
					"internalType": "uint256",
					"name": "amount",
					"type": "uint256"
				}
			],
			"name": "withdraw",
			"outputs": [
				{
					"internalType": "bool",
					"name": "",
					"type": "bool"
				}
			],
			"stateMutability": "nonpayable",
			"type": "function"
		},
		{
			"inputs": [
				{
					"internalType": "bytes32",
					"name": "dealId",
					"type": "bytes32"
				}
			],
			"name": "withdrawCancelDeal",
			"outputs": [
				{
					"internalType": "bool",
					"name": "",
					"type": "bool"
				}
			],
			"stateMutability": "nonpayable",
			"type": "function"
		},
		{
			"inputs": [
				{
					"internalType": "bytes32",
					"name": "dealId",
					"type": "bytes32"
				}
			],
			"name": "withdrawCompleteDeal",
			"outputs": [
				{
					"internalType": "bool",
					"name": "",
					"type": "bool"
				}
			],
			"stateMutability": "nonpayable",
			"type": "function"
		},
		{
			"inputs": [
				{
					"internalType": "bytes32",
					"name": "dealId",
					"type": "bytes32"
				}
			],
			"name": "withdrawExecuteActionsAfterExpiration",
			"outputs": [
				{
					"internalType": "bool",
					"name": "",
					"type": "bool"
				}
			],
			"stateMutability": "nonpayable",
			"type": "function"
		},
		{
			"inputs": [
				{
					"internalType": "bytes32",
					"name": "dealId",
					"type": "bytes32"
				},
				{
					"internalType": "uint256",
					"name": "amount",
					"type": "uint256"
				}
			],
			"name": "withdrawGivebackToConunterparty",
			"outputs": [
				{
					"internalType": "bool",
					"name": "",
					"type": "bool"
				}
			],
			"stateMutability": "nonpayable",
			"type": "function"
		},
		{
			"inputs": [
				{
					"internalType": "bytes32",
					"name": "dealId",
					"type": "bytes32"
				},
				{
					"internalType": "uint256",
					"name": "amount",
					"type": "uint256"
				}
			],
			"name": "withdrawGivebackToInitiator",
			"outputs": [
				{
					"internalType": "bool",
					"name": "",
					"type": "bool"
				}
			],
			"stateMutability": "nonpayable",
			"type": "function"
		},
		{
			"inputs": [
				{
					"internalType": "bytes32",
					"name": "dealId",
					"type": "bytes32"
				}
			],
			"name": "withdrawRejectSidedDeal",
			"outputs": [
				{
					"internalType": "bool",
					"name": "",
					"type": "bool"
				}
			],
			"stateMutability": "nonpayable",
			"type": "function"
		},
		{
			"inputs": [
				{
					"internalType": "bytes32",
					"name": "dealId",
					"type": "bytes32"
				},
				{
					"internalType": "uint256",
					"name": "amount",
					"type": "uint256"
				}
			],
			"name": "withdrawTransferToCounterparty",
			"outputs": [
				{
					"internalType": "bool",
					"name": "",
					"type": "bool"
				}
			],
			"stateMutability": "nonpayable",
			"type": "function"
		},
		{
			"inputs": [
				{
					"internalType": "bytes32",
					"name": "dealId",
					"type": "bytes32"
				},
				{
					"internalType": "uint256",
					"name": "amount",
					"type": "uint256"
				}
			],
			"name": "withdrawTransferToInitiator",
			"outputs": [
				{
					"internalType": "bool",
					"name": "",
					"type": "bool"
				}
			],
			"stateMutability": "nonpayable",
			"type": "function"
		}
	]
}