{
	"data": {
		"bytecode": {
			"linkReferences": {
				"Deal.sol": {
					"DealContract": [
						{
							"length": 20,
							"start": 1079
						},
						{
							"length": 20,
							"start": 2002
						},
						{
							"length": 20,
							"start": 3104
						},
						{
							"length": 20,
							"start": 3877
						},
						{
							"length": 20,
							"start": 4326
						},
						{
							"length": 20,
							"start": 5968
						},
						{
							"length": 20,
							"start": 7628
						},
						{
							"length": 20,
							"start": 8212
						},
						{
							"length": 20,
							"start": 8392
						},
						{
							"length": 20,
							"start": 9102
						},
						{
							"length": 20,
							"start": 10481
						},
						{
							"length": 20,
							"start": 12698
						},
						{
							"length": 20,
							"start": 13761
						},
						{
							"length": 20,
							"start": 14958
						},
						{
							"length": 20,
							"start": 15348
						},
						{
							"length": 20,
							"start": 16371
						},
						{
							"length": 20,
							"start": 17070
						},
						{
							"length": 20,
							"start": 17715
						},
						{
							"length": 20,
							"start": 19161
						},
						{
							"length": 20,
							"start": 19686
						},
						{
							"length": 20,
							"start": 20085
						},
						{
							"length": 20,
							"start": 22291
						},
						{
							"length": 20,
							"start": 25716
						}
					]
				},
				"Percent.sol": {
					"Percent": [
						{
							"length": 20,
							"start": 1407
						},
						{
							"length": 20,
							"start": 2153
						},
						{
							"length": 20,
							"start": 3261
						},
						{
							"length": 20,
							"start": 4029
						},
						{
							"length": 20,
							"start": 5115
						},
						{
							"length": 20,
							"start": 6977
						},
						{
							"length": 20,
							"start": 7779
						},
						{
							"length": 20,
							"start": 8618
						},
						{
							"length": 20,
							"start": 9255
						},
						{
							"length": 20,
							"start": 10633
						},
						{
							"length": 20,
							"start": 11167
						},
						{
							"length": 20,
							"start": 13109
						},
						{
							"length": 20,
							"start": 13909
						},
						{
							"length": 20,
							"start": 15110
						},
						{
							"length": 20,
							"start": 15501
						},
						{
							"length": 20,
							"start": 15780
						},
						{
							"length": 20,
							"start": 16524
						},
						{
							"length": 20,
							"start": 16774
						},
						{
							"length": 20,
							"start": 17218
						},
						{
							"length": 20,
							"start": 18421
						},
						{
							"length": 20,
							"start": 19839
						},
						{
							"length": 20,
							"start": 20330
						},
						{
							"length": 20,
							"start": 20747
						}
					]
				}
			},
			"object": "60803461015a57601f616b3038819003918201601f19168301916001600160401b0383118484101761015e57808492604094855283398101031261015a5780516020909101516001600160a01b038116919082900361015a573315610147575f80546040519133906001600160a01b038316907f8be0079c531659141344cd1fd0a4f28419497f9722a3daafe3b4186f6b6457e09080a36001600160a81b0319163360ff60a01b191617600160a01b175f55821561012057506402540be40081116100f65760025560018060a01b031960035416176003555f6005555f6006555f6007555f6008556040516169bd90816101738239f35b60405162461bcd60e51b8152602060048201526002602482015261433560f01b6044820152606490fd5b62461bcd60e51b8152602060048201526002602482015261433160f01b6044820152606490fd5b631e4fbdf760e01b5f525f60045260245ffd5b5f80fd5b634e487b7160e01b5f52604160045260245ffdfe60806040526004361015610011575f80fd5b5f5f3560e01c80627e8bd3146155365780630292745914615519578063044a6da114614ed557806306fd154a14614ead5780630934da2214614ccc578063114aeacc14614b375780631273c1651461490a57806315f8a3141461487257806317b52b501461481057806328d5a0501461435257806330e97ae1146140fb578063367edd321461407c57806339b3edb014613fd95780633f3e821214613e445780634187129c14613dc257806341b3a0d914613d9d57806347e7ef2414613bda5780634dff003614613a455780635040125b146138bb57806351a6fad51461373157806351b7d5351461340e57806353a78000146133aa578063619c457e1461339057806363adb66f14612feb578063706b14f51461298257806370a0823114612941578063715018a6146128e75780637165e5421461273e57806371ae8bcd1461272457806380ccb0701461266a57806381cd872a1461253f578063894ba833146124c7578063899a3ffd146124a95780638da5cb5b146124825780638deea5fb146123b0578063966d1f1d146123925780639974f37614612374578063a4f60b16146121df578063a717010614611f22578063b4a99ccb14611e6e578063b7dc14fe14611c14578063ba343f6d14611b4f578063bb06c1a41461182e578063beabacc814611740578063c15a25bf146116c0578063c23f001f1461092d578063c99b8965146115a4578063cfaaf23514611427578063cfadf6c714610efc578063d747b81114610d72578063e08560a414610d54578063eb45732914610c53578063f2d5ec3d14610a6d578063f2fde38b146109e7578063f3fef3a314610980578063f7888aec1461092d578063faa86b4a1461061a5763fbb405db14610297575f80fd5b6102a03661588e565b90808352600460205260408320926102c260018060a01b038554163314615cef565b73__$69ea93bdf3b1e5da8164bfe3d9a878d765$__803b1561061657816040518092630252a86760e51b825281806102fd8a60048301615e2e565b03915af4801561060b579082916105f6575b50506009840180546001600160a01b03169184919061032e84336165e0565b8381106103c1575b50505461034d92506001600160a01b031633616609565b506005830161035d83825461601b565b905582546001840154600290940154604080516001600160a01b0392831681526020810195909552948116949116927f3c0dd30126238eaebbb306e073222eecd03a091d41c39a4b2742759d406c8f5591819081015b0390a4602060405160018152f35b6103cb9193615db4565b926103dc60ff845460a01c16615a22565b6103e7841515615f82565b6002549260405193631c8f084760e01b8552856004860152602485015260208460448173__$8537b7efa173772577da826929141ce939$__5af49384156105e95781946105b1575b50816104c25750610440838561601b565b34036104985783869361045761034d9684336167e6565b5060035461047190829085906001600160a01b03166167e6565b505b60405191825260208201525f5160206169485f395f51905f5260403392a35f80610336565b60405162461bcd60e51b815260206004820152600260248201526110cd60f21b6044820152606490fd5b6104cc848661601b565b604051906323b872dd60e01b8252336004830152306024830152604482015260208160648185875af19182156105a5578092610565575b50501561053b5783869361051b61034d9684336167e6565b5060035461053590829085906001600160a01b03166167e6565b50610473565b60405162461bcd60e51b81526020600482015260026024820152612a1960f11b6044820152606490fd5b9091506020823d60201161059d575b8161058160209383615aed565b8101031261059a575061059390615b23565b5f80610503565b80fd5b3d9150610574565b604051903d90823e3d90fd5b9093506020813d6020116105e1575b816105cd60209383615aed565b810103126105dd5751925f61042f565b5f80fd5b3d91506105c0565b50604051903d90823e3d90fd5b8161060091615aed565b61059a57805f61030f565b6040513d84823e3d90fd5b5080fd5b503461059a57602036600319011261059a57600435808252600460205260408220600181019060018060a01b0382541633148015610917575b61065c90615cef565b8373__$69ea93bdf3b1e5da8164bfe3d9a878d765$__803b1561061657816040518092630252a86760e51b825281806106988860048301615e2e565b03915af4801561060b576108fe575b5050600581015460098201546006830154600a84015460078501546008860154604051631c8f084760e01b81526004810187905260248101929092526001600160a01b0394851697959691959473__$8537b7efa173772577da826929141ce939$__931690602087604481875af49687156108f3578b976108be575b50602090604460405180968193631c8f084760e01b835289600484015260248301525af49283156108b357899a99989993610875575b5081548894939291906001600160a01b03168a610776898b615db4565b90610780926167e6565b50600282018054909a61079e918991906001600160a01b03166167e6565b5085546001600160a01b0316816107b58680615db4565b906107bf926167e6565b5089546107d69184916001600160a01b03166167e6565b5054935497546040516001600160a01b03998a169a958a1699909116968a968a968893889391929091829161080d91338e85615dc1565b035f5160206169085f395f51905f5291a460405191829161083091338985615dc1565b035f5160206168a85f395f51905f5291a4604080516001600160a01b039290921682523360208301525f5160206168c85f395f51905f5291a460405160018152602090f35b9392509096506020833d6020116108ab575b8161089460209383615aed565b810103126105dd5788968793519293919091610759565b3d9150610887565b6040513d8c823e3d90fd5b9096506020813d6020116108eb575b816108da60209383615aed565b810103126105dd5751956020610723565b3d91506108cd565b6040513d8d823e3d90fd5b8161090891615aed565b61091357835f6106a7565b8380fd5b5060028101546001600160a01b03163314610653565b503461059a57604036600319011261059a5760406109496157c8565b916109526157b2565b9260018060a01b031681526001602052209060018060a01b03165f52602052602060405f2054604051908152f35b503461059a57604036600319011261059a576109dd6020916109a06157c8565b604060243592338152600186522060018060a01b0382165f5284526109cb8260405f20541015615a53565b6109d6828233616609565b50336166b0565b6040519015158152f35b503461059a57602036600319011261059a57610a016157c8565b610a09616841565b6001600160a01b03168015610a595781546001600160a01b03198116821783556001600160a01b03167f8be0079c531659141344cd1fd0a4f28419497f9722a3daafe3b4186f6b6457e08380a380f35b631e4fbdf760e01b82526004829052602482fd5b503461059a57610a7c3661588e565b9080835260046020526040832092600184019260018060a01b0384541633148015610c3d575b610aab90615cef565b73__$69ea93bdf3b1e5da8164bfe3d9a878d765$__803b15610c3957826040518092630252a86760e51b82528180610ae68b60048301615e2e565b03915af48015610c2e57908391610c19575b505060058501610b14828254610b0f828210615a53565b615db4565b905560018060a01b0360098601541694600781015460405190631c8f084760e01b8252836004830152602482015260208160448173__$8537b7efa173772577da826929141ce939$__5af49384156105a55793610be3575b5080545f5160206169085f395f51905f5293916103b391610ba1906001600160a01b031689610b9b8688615db4565b916166b0565b50610bba83600283019960018060a01b038b54166166b0565b5054955496546040516001600160a01b0398891698978816979094859492909133911685615dc1565b92506020833d602011610c11575b81610bfe60209383615aed565b810103126105dd579151916103b3610b6c565b3d9150610bf1565b81610c2391615aed565b61061657815f610af8565b6040513d85823e3d90fd5b8280fd5b5060028501546001600160a01b03163314610aa2565b503461059a57602036600319011261059a5760408160e09260c08351610c7881615a84565b82815282602082015282858201528260608201528260808201528260a08201520152600435815260096020522060405190610cb282615a84565b8054825260026001820154916020840192835201549060408301610cd960ff841682615f45565b6060840160ff8460081c1615158152610d32608086019260ff8660101c161515845260a087019460ff8760181c161515865260ff60c089019760201c161515875260405197518852516020880152516040870190615907565b5115156060850152511515608084015251151560a083015251151560c0820152f35b503461059a578060031936011261059a576020600654604051908152f35b503461059a57610d813661588e565b9080835260046020526040832092600184019260018060a01b0384541633148015610ee6575b610db090615cef565b73__$69ea93bdf3b1e5da8164bfe3d9a878d765$__803b15610c3957826040518092630252a86760e51b82528180610deb8b60048301615e2e565b03915af48015610c2e57908391610ed1575b505060068501610e14828254610b0f828210615a53565b905560018060a01b03600a8601541694600881015460405190631c8f084760e01b8252836004830152602482015260208160448173__$8537b7efa173772577da826929141ce939$__5af49384156105a55793610e9b575b5080545f5160206168885f395f51905f5293916103b391610ba1906001600160a01b031689610b9b8688615db4565b92506020833d602011610ec9575b81610eb660209383615aed565b810103126105dd579151916103b3610e6c565b3d9150610ea9565b81610edb91615aed565b61061657815f610dfd565b5060028501546001600160a01b03163314610da7565b50610f06366157de565b9190949288948a98979a948c604060ff825460a01c1691610f2683615a22565b33815260016020522060018060a01b0385165f5260205260405f20548a811061123b575b505091610f979493916102209893610f638b8433616609565b5060405163652e83d760e01b815273__$69ea93bdf3b1e5da8164bfe3d9a878d765$__9e909b8c9a8b9a3360048d01615c49565b0381875af490811561120157859161120c575b5060206005546102446040518097819363797d4ee160e01b8352610fd16004840188615914565b6102248301525af49384156112015785946111cd575b50610ff3600554615cb5565b600555838552600460209081526040808720835181546001600160a01b039182166001600160a01b031991821617835593850151600183018054918316919095161790935590830151600282018054606086015160ff60a01b90151560a01b16929094166001600160a81b03199094169390931717825591610200916110cd905b6080830151815460ff60a81b191690151560a81b60ff60a81b1617815560a0830151815460ff60b01b191690151560b01b60ff60b01b1617815560c0830151815460ff60b81b191690151560b81b60ff60b81b16179055565b60e0810151600384015561010081015160048401556101208101516005840155610140810151600680850191909155610160820151600785015561018082015160088501556101a08201516009850180546001600160a01b039283166001600160a01b0319918216179091556101c0840151600a870180549190931691161790556101e0820151600b85015591015195908610156111b95750602094600c6111759201615cd7565b6040516001600160a01b039283168152911690339083907f44e1ff8e67fad6b456bd43ff165ba4e9bb004370aa27a76881c6acb60dfd6dd9908690a4604051908152f35b634e487b7160e01b81526021600452602490fd5b9093506020813d6020116111f9575b816111e960209383615aed565b810103126105dd5751925f610fe7565b3d91506111dc565b6040513d87823e3d90fd5b61122e91506102203d8111611234575b6112268183615aed565b810190615b30565b5f610faa565b503d61121c565b61125892999496959398506112529197508a615db4565b95615a22565b611263851515615f82565b6002549360405194631c8f084760e01b8652866004870152602486015260208560448173__$8537b7efa173772577da826929141ce939$__5af494851561141c578d956113e8575b506001600160a01b038116968761132a576112c6868861601b565b340361049857610220988c9888610f97986112e38f9b87336167e6565b506003546112fd90829088906001600160a01b03166167e6565b505b60405191825260208201525f5160206169485f395f51905f5260403392a39193988193959650610f4a565b8d8060208a606461133b8b8d61601b565b60405194859384926323b872dd60e01b845233600485015230602485015260448401525af19182156105a557916113aa575b501561053b57610220988c9888610f979861138a8f9b87336167e6565b506003546113a490829088906001600160a01b03166167e6565b506112ff565b90506020813d6020116113e0575b816113c560209383615aed565b810103126113dc576113d690615b23565b5f61136d565b8e80fd5b3d91506113b8565b9094506020813d602011611414575b8161140460209383615aed565b810103126105dd5751935f6112ab565b3d91506113f7565b6040513d8f823e3d90fd5b503461059a57604036600319011261059a576020906004356114476157b2565b908083526004845261149b604084209260018060a01b038454163314801561158e575b61147390615cef565b6001600160a01b031692611488841515615f51565b600201546001600160a01b03161561608c565b61154e6040516114aa81615ad1565b82815285810184815260408083018781526060840188815260808501898152600854808b52600a8c5293909920945185559251600194909401805491516001600160a81b03199092166001600160a01b03959095169490941790151560a01b60ff60a01b1617835595906115339051835460ff60a81b191690151560a81b60ff60a81b16178355565b51815460ff60b01b191690151560b01b60ff60b01b16179055565b611559600854615cb5565b600855827f3e168088da33d5ab18321345a864b58812f451c892ee951f8f70b5bead045b6985604051338152a4604051908152f35b5060018401546001600160a01b0316331461146a565b503461059a576115b33661588e565b91908082526004602052604082209260018401926115db60018060a01b038554163314615cef565b73__$69ea93bdf3b1e5da8164bfe3d9a878d765$__803b1561061657816040518092630252a86760e51b825281806116168b60048301615e2e565b03915af4801561060b576116ab575b5050600a8401545f5160206168e85f395f51905f5291906116669082906001600160a01b03166116608261165983336165e0565b1015615a53565b33616609565b506006850161167682825461601b565b905584549354600290950154604080516001600160a01b039283168152602081019390935295811695941693819081016103b3565b6116b6828092615aed565b61059a5780611625565b503461059a57602036600319011261059a57604060e091600435815260096020522060ff8154916002600182015491015490604051938452602084015261170c60408401838316615907565b818160081c1615156060840152818160101c1615156080840152818160181c16151560a084015260201c16151560c0820152f35b503461059a57606036600319011261059a5761175a6157c8565b906117636157b2565b604060443593338452600160205281842060018060a01b0384165f5260205261179185835f20541015615a53565b338452600160205281842060018060a01b0384165f52602052815f206117b8868254615db4565b905560018060a01b03169283815260016020522060018060a01b0382165f5260205260405f206117e984825461601b565b90556040519283526001600160a01b03169133907fd1398bee19313d6bf672ccb116e51f4a1a947e91c757907f51fbb5b5e56c698f90602090a4602060405160018152f35b50602036600319011261059a5760043580825260046020526040822091600183019261186460018060a01b038554163314615cef565b60028101916118a2835461187d60ff8260b01c16616028565b61188d60ff8260b81c161561605a565b60ff8160a01c16159081611b40575b50615d51565b600a820180546001600160a01b03166118bb81336165e0565b60068501548110611980575b50505460048301546118e49250906001600160a01b031633616609565b508154600160b81b60ff60b81b198216179092555492546040516001600160a01b0392831680825294918316929091169083907f5e02698c1650d6cbe1f7e8a48609d0da45ad7f5e4c13cd8b196f82965c0ab0d590602090a48161194e575b602060405160018152f35b60207f957372c0e02d2882134cc0eebbef9e446634d8ccbb1cbb112bdefdd3cf0a643c91604051908152a25f80611943565b61198e906004860154615db4565b61199e60ff855460a01c16615a22565b6119a9811515615f82565b6002549360405194631c8f084760e01b8652826004870152602486015260208560448173__$8537b7efa173772577da826929141ce939$__5af49485156105e9578195611b0c575b5082611a585750611a02848261601b565b3403610498576118e493611a178284336167e6565b50600354611a3190829085906001600160a01b03166167e6565b505b60405191825260208201525f5160206169485f395f51905f5260403392a35f806118c7565b611a62858361601b565b604051906323b872dd60e01b8252336004830152306024830152604482015260208160648185885af19182156105a5578092611acf575b50501561053b576118e493611aaf8284336167e6565b50600354611ac990829085906001600160a01b03166167e6565b50611a33565b9091506020823d602011611b04575b81611aeb60209383615aed565b8101031261059a5750611afd90615b23565b5f80611a99565b3d9150611ade565b9094506020813d602011611b38575b81611b2860209383615aed565b810103126105dd5751935f6119f1565b3d9150611b1b565b60ff915060a81c16155f61189c565b503461059a57602036600319011261059a5760408160a09260808351611b7481615ad1565b828152826020820152828582015282606082015201526004358152600a60205220604051611ba181615ad1565b600182549283835201549060208101600180861b0383168152604082019060ff84871c161515825260ff60806060850194828760a81c1615158652019460b01c1615158452604051948552600180871b039051166020850152511515604084015251151560608301525115156080820152f35b503461059a57602036600319011261059a57600435808252600460205260408220600181019060018060a01b0382541633148015611e58575b611c5690615cef565b8373__$69ea93bdf3b1e5da8164bfe3d9a878d765$__803b1561061657816040518092630252a86760e51b82528180611c928860048301615e2e565b03915af4801561060b57611e43575b5050600581015460098201546006830154600a84015460078501546008860154604051631c8f084760e01b81526004810187905260248101929092526001600160a01b0394851697959691959473__$8537b7efa173772577da826929141ce939$__931690602087604481875af49687156108f3578b97611e0e575b50602090604460405180968193631c8f084760e01b835289600484015260248301525af49283156108b357899a99989993611dd0575b5081548894939291906001600160a01b03168a611d70898b615db4565b90611d7a926166b0565b50600282018054909a611d98918991906001600160a01b03166166b0565b5085546001600160a01b031681611daf8680615db4565b90611db9926166b0565b5089546107d69184916001600160a01b03166166b0565b9392509096506020833d602011611e06575b81611def60209383615aed565b810103126105dd5788968793519293919091611d53565b3d9150611de2565b9096506020813d602011611e3b575b81611e2a60209383615aed565b810103126105dd5751956020611d1d565b3d9150611e1d565b81611e4d91615aed565b61091357835f611ca1565b5060028101546001600160a01b03163314611c4d565b503461059a57611e7d3661588e565b9080835260046020526040832092611e9f60018060a01b038554163314615cef565b73__$69ea93bdf3b1e5da8164bfe3d9a878d765$__803b1561061657816040518092630252a86760e51b82528180611eda8a60048301615e2e565b03915af4801561060b57611f0d575b5050600983015461034d9083906001600160a01b03166116608261165983336165e0565b611f18828092615aed565b61059a5780611ee9565b50611f2c3661588e565b90808352600460205260408320926001840192611f5360018060a01b038554163314615cef565b73__$69ea93bdf3b1e5da8164bfe3d9a878d765$__803b15610c3957826040518092630252a86760e51b82528180611f8e8b60048301615e2e565b03915af48015610c2e579083916121ca575b5050600a850180546001600160a01b031692611fbc84336165e0565b838110611fec575b5050545f5160206168e85f395f51905f5292506116669082906001600160a01b031633616609565b611ff69084615db4565b9161200760ff835460a01c16615a22565b612012831515615f82565b6002549160405192631c8f084760e01b8452846004850152602484015260208360448173__$8537b7efa173772577da826929141ce939$__5af49283156105e9578193612196575b50856120d1575061206b828461601b565b34036104985784838593612091611666965f5160206168e85f395f51905f5299336167e6565b506003546120ab90829085906001600160a01b03166167e6565b505b60405191825260208201525f5160206169485f395f51905f5260403392a391611fc4565b6120db838561601b565b604051906323b872dd60e01b82523360048301523060248301526044820152602081606481858b5af19182156105a5578092612159575b50501561053b5784838593612139611666965f5160206168e85f395f51905f5299336167e6565b5060035461215390829085906001600160a01b03166167e6565b506120ad565b9091506020823d60201161218e575b8161217560209383615aed565b8101031261059a575061218790615b23565b5f80612112565b3d9150612168565b9092506020813d6020116121c2575b816121b260209383615aed565b810103126105dd5751915f61205a565b3d91506121a5565b816121d491615aed565b61061657815f611fa0565b503461059a576121ee3661588e565b91908082526004602052604082209160018060a01b038354163314801561235e575b61221990615cef565b73__$69ea93bdf3b1e5da8164bfe3d9a878d765$__803b1561061657816040518092630252a86760e51b825281806122548960048301615e2e565b03915af4801561060b57908291612349575b50506006830161227d858254610b0f828210615a53565b905560018060a01b03600a840154169360088401549160405192631c8f084760e01b8452826004850152602484015260208360448173__$8537b7efa173772577da826929141ce939$__5af49081156105a5579061230a575b60018501805490955f5160206168a85f395f51905f5294506103b391610ba1906001600160a01b031689610b9b8688615db4565b506020823d602011612341575b8161232460209383615aed565b810103126105dd575f5160206168a85f395f51905f5291516122d6565b3d9150612317565b8161235391615aed565b61059a57805f612266565b5060028301546001600160a01b03163314612210565b503461059a578060031936011261059a576020600754604051908152f35b503461059a578060031936011261059a576020600554604051908152f35b503461059a57602036600319011261059a5760406004359182815260046020522090600182019060018060a01b038254163314801561246f575b6123f390615cef565b5f5160206168c85f395f51905f526103b3600285019461241d865461187d60ff8260b01c16616028565b8054600982015460058301546124419290916001600160a01b0390811691166167e6565b505493549454604080516001600160a01b039283168152336020820152968216969590911694918291820190565b5082546001600160a01b031633146123ea565b503461059a578060031936011261059a57546040516001600160a01b039091168152602090f35b503461059a578060031936011261059a576020600254604051908152f35b503461059a578060031936011261059a576124e0616841565b805460ff60a01b191681556040518181527f017904e4fe7d59bb4603c7c045bc275a05da9ea3a4ac007fc80fffeaf119186d90602090a1337f793bc6423dd0257d64f9d47db72fd4b2162f4541aa41740ba1c5fb5e2cd41bcd8280a280f35b503461059a57602036600319011261059a576004358152600460205260409020600160a01b6001900381541690600160a01b600190036001820154169060028101546003820154600483015460058401546006850154600786015491600887015493600160a01b6001900360098901541695600160a01b60019003600a8a01541697600b8a015499600c015460ff169a6040519c8d5260208d0152600160a01b60019003811660408d01528060a01c60ff16151560608d01528060a81c60ff16151560808d01528060b01c60ff16151560a08d015260b81c60ff16151560c08c015260e08b01526101008a01526101208901526101408801526101608701526101808601526101a08501526101c08401526101e0830152610200820161266491615907565b61022090f35b503461059a57602036600319011261059a5760406004359182815260046020522090600182019060018060a01b0382541633148015612711575b6126ad90615cef565b5f5160206168c85f395f51905f526103b360028501946126df865460ff8160b81c161580612703575b61188d9061605a565b8054600982015460058301546124419290916001600160a01b0390811691166166b0565b5060b081901c60ff166126d6565b5082546001600160a01b031633146126a4565b503461059a5760206109dd61273836615a03565b906162ba565b503461059a5761274d3661588e565b9080835260046020526040832092600184019260018060a01b03845416331480156128d1575b61277c90615cef565b73__$69ea93bdf3b1e5da8164bfe3d9a878d765$__803b15610c3957826040518092630252a86760e51b825281806127b78b60048301615e2e565b03915af48015610c2e579083916128bc575b5050600685016127e0828254610b0f828210615a53565b905560018060a01b03600a8601541694600881015460405190631c8f084760e01b8252836004830152602482015260208160448173__$8537b7efa173772577da826929141ce939$__5af49384156105a55793612886575b5080545f5160206168885f395f51905f5293916103b39161286d906001600160a01b0316896128678688615db4565b916167e6565b50610bba83600283019960018060a01b038b54166167e6565b92506020833d6020116128b4575b816128a160209383615aed565b810103126105dd579151916103b3612838565b3d9150612894565b816128c691615aed565b61061657815f6127c9565b5060028501546001600160a01b03163314612773565b503461059a578060031936011261059a57612900616841565b80546001600160a01b03198116825581906001600160a01b03167f8be0079c531659141344cd1fd0a4f28419497f9722a3daafe3b4186f6b6457e08280a380f35b503461059a57602036600319011261059a576020906040906001600160a01b036129696157c8565b1681526001835281812081805283522054604051908152f35b503461059a57602036600319011261059a5760043580825260046020526040822090600182019160018060a01b0383541633148015612fd8575b8015612fc2575b6129cc90615cef565b60028101936129e5855461188d60ff8260b81c16615d20565b600b8201544210612f975760ff600c83015416600583015460018060a01b0360098501541660068501549160018060a01b03600a870154169060078701549460088801549673__$8537b7efa173772577da826929141ce939$__9760405197631c8f084760e01b89528460048a015260248901526020886044818c5af497881561060b578298612f62575b506020906044604051809b8193631c8f084760e01b83528b600484015260248301525af49788156105e9578198612f2e575b5060068210156111b95791600482848e8e8e895f5160206168c85f395f51905f529f9d6103b39f8f9d819f9d9b9e839f8f839f888f85848a8f8f8b8f9860018f919c899d87858d8f8c8f8f8c8b948f928b15612e63575b60028c14612d9c575b505050505050505050505014612cc7575b5050505050505050505060038c14612c38575b505050505050505050505014612b7d575b50508954600160a81b60ff60a81b19821617909a55505091549554604080516001600160a01b03998a168152336020820152918916989097169690938493509083019150565b8483612bbf612be196612ba4612bd0958b986128678760018060a01b036003541693615db4565b506003546001600160a01b0316908690612867908990615db4565b508d546001600160a01b03166167e6565b508a546001600160a01b03166167e6565b508254875489546003546040516001600160a01b0393841696948416958b955f5160206168685f395f51905f529592948594612c2a949293928492849282169133911688615deb565b0390a45f8080808080612b37565b5f5160206168685f395f51905f5296612bd0612c6293612cb4968d60018060a01b039054166167e6565b505495549654604080516001600160a01b0392831680825233602083015291810191909152606081019490945260808401929092525f60a0840181905260c084015295811695941693819060e0820190565b0390a48e8e8e878b8d8f8c908b8f612b26565b5f5160206169085f395f51905f5299612d315f5160206168885f395f51905f5298612d1b8886612d0a8f9e612d42996128678560018060a01b0389541693615db4565b5089546001600160a01b03166167e6565b50546001600160a01b031682612867858b615db4565b5084546001600160a01b03166167e6565b508a54905491546040516001600160a01b039384169992841698919093169389938993918190612d75908f338a85615dc1565b0390a4612d8a8b604051938493339085615dc1565b0390a486888385848a8f8f8b8d612b13565b612e065f5160206168a85f395f51905f529789938f8d8d612d0a5f5160206169285f395f51905f529f8c90612867858d88612dde9960a01b0390541693615db4565b508f80612df79160a01b0387541682612867858d615db4565b508f8060a01b038754166167e6565b508c8060a01b039054169788928d8060a01b03905416998a948e8060a01b0390541695612e3a604051928392338a85615dc1565b0390a4612e4f8a604051938493339085615dc1565b0390a487858d8f8c8f8f8c8b948f92612b02565b612e7a8d8060a01b038254168a6128678d89615db4565b50612e8e8a8a8f8060a01b038754166167e6565b50612ea68d8060a01b03845416836128678a8a615db4565b50612eba87838f8060a01b038754166167e6565b50898d8060a01b03825416898f89898985855f5160206169085f395f51905f52865f5160206168a85f395f51905f529760a01b038d541699600194858c9660a01b0390541695612f11604051928392338a85615dc1565b0390a4612f268d604051938493339085615dc1565b0390a4612af9565b9097506020813d602011612f5a575b81612f4a60209383615aed565b810103126105dd5751965f612aa2565b3d9150612f3d565b9097506020813d602011612f8f575b81612f7e60209383615aed565b810103126105dd5751966020612a70565b3d9150612f71565b606460405162461bcd60e51b81526020600482015260046024820152632218971960e11b6044820152fd5b5060028101546001600160a01b031633146129c3565b5080546001600160a01b031633146129bc565b503461059a57612ffa36615860565b8385949392945260046020526040852090600182019461302460018060a01b038754163314615cef565b8673__$69ea93bdf3b1e5da8164bfe3d9a878d765$__803b1561061657816040518092630252a86760e51b825281806130608a60048301615e2e565b03915af4801561060b57613377575b5050600283019661308760ff895460b01c1615615f13565b33815260016020526040812060018060a01b0386165f526020526130b18260405f20541015615a53565b6130bc828633616609565b508261335c575b33815260016020526040812060018060a01b0386165f5260205260405f2054828110613173575b505090818461310b602095945f5160206169685f395f51905f529733616609565b50885460ff60b01b1916600160b01b178955600a840180546001600160a01b0319166001600160a01b039283161790556004840182905560068401919091556008830191909155905494549554604051908216815295811695941693a4602060405160018152f35b613181908392959493615db4565b9461319260ff865460a01c16615a22565b61319d861515615f82565b6002549460405195631c8f084760e01b8752876004880152602487015260208660448173__$8537b7efa173772577da826929141ce939$__5af49586156105e9578196613328575b506001600160a01b03821690816132665750613201868861601b565b61049857866020966132225f5160206169685f395f51905f529985336167e6565b5060035461323c90829086906001600160a01b03166167e6565b505b604051918252878201525f5160206169485f395f51905f5260403392a39481929394506130ea565b613270878961601b565b604051906323b872dd60e01b8252336004830152306024830152604482015260208160648185875af19182156105a55780926132eb575b50501561053b57866020966132cb5f5160206169685f395f51905f529985336167e6565b506003546132e590829086906001600160a01b03166167e6565b5061323e565b9091506020823d602011613320575b8161330760209383615aed565b8101031261059a575061331990615b23565b5f806132a7565b3d91506132fa565b9095506020813d602011613354575b8161334460209383615aed565b810103126105dd5751945f6131e5565b3d9150613337565b8754613372906001600160a01b03161515615d82565b6130c3565b8161338191615aed565b61338c57865f61306f565b8680fd5b503461059a5760206109dd6133a436615a03565b906160be565b503461059a57602036600319011261059a57604060a0916004358152600a6020522060ff60018254920154604051928352600180851b03811660208401528181851c1615156040840152818160a81c161515606084015260b01c1615156080820152f35b503461059a57602036600319011261059a5760043580825260046020526040822060018060a01b038154163314801561371b575b61344b90615cef565b8273__$69ea93bdf3b1e5da8164bfe3d9a878d765$__803b1561061657816040518092630252a86760e51b825281806134878860048301615e2e565b03915af4801561060b57613706575b5050600581015460098201546006830154600a84015460078501546008860154604051631c8f084760e01b81526004810187905260248101929092526001600160a01b0394851696939573__$8537b7efa173772577da826929141ce939$__959093169390602083604481895af49283156108b3578a936136d1575b50602090604460405180988193631c8f084760e01b83528b600484015260248301525af49485156136c65788999897989561368b575b50600181018054909488949392916001600160a01b03168a61356a8587615db4565b90613574926167e6565b50600282018054909a613592918591906001600160a01b03166167e6565b5081546001600160a01b0316816135a98a80615db4565b906135b3926167e6565b5089546135ca9188916001600160a01b03166167e6565b5054935497546040516001600160a01b03998a169a958a1699909116968a968a968893889391929091829161360191338e85615dc1565b035f5160206168885f395f51905f5291a460405191829161362491338985615dc1565b035f5160206169285f395f51905f5291a4604080516001600160a01b039290921682523360208301527ffaee379435b6a0c297f1a08c66517fdc202debc6d275e6dd73630e3ebd1bdd9791a460065461367c90615cb5565b60065560405160018152602090f35b9291965093506020823d6020116136be575b816136aa60209383615aed565b810103126105dd5790518795909386613548565b3d915061369d565b6040513d8b823e3d90fd5b9092506020813d6020116136fe575b816136ed60209383615aed565b810103126105dd5751916020613512565b3d91506136e0565b8161371091615aed565b610c3957825f613496565b5060028101546001600160a01b03163314613442565b503461059a57602036600319011261059a5760408161022092610200835161375881615ab4565b82815282602082015282858201528260608201528260808201528260a08201528260c08201528260e08201528261010082015282610120820152826101408201528261016082015282610180820152826101a0820152826101c0820152826101e0820152015260043581526004602052206138ac60ff600c604051936137dd85615ab4565b80546001600160a01b0390811686526001820154811660208701526002820154808216604088015260a081811c86161515606089015260a882901c86161515608089015260b082901c861615159088015260b81c8416151560c0870152600382015460e087015260048201546101008701526005820154610120870152600682015461014087015260078201546101608701526008820154610180870152600982015481166101a0870152600a820154166101c0860152600b8101546101e08601520154166102008301615f45565b6138b96040518092615914565bf35b503461059a576138ca3661588e565b9080835260046020526040832092600184019260018060a01b0384541633148015613a2f575b6138f990615cef565b73__$69ea93bdf3b1e5da8164bfe3d9a878d765$__803b15610c3957826040518092630252a86760e51b825281806139348b60048301615e2e565b03915af48015610c2e57908391613a1a575b50506005850161395d828254610b0f828210615a53565b905560018060a01b0360098601541694600781015460405190631c8f084760e01b8252836004830152602482015260208160448173__$8537b7efa173772577da826929141ce939$__5af49384156105a557936139e4575b5080545f5160206169085f395f51905f5293916103b39161286d906001600160a01b0316896128678688615db4565b92506020833d602011613a12575b816139ff60209383615aed565b810103126105dd579151916103b36139b5565b3d91506139f2565b81613a2491615aed565b61061657815f613946565b5060028501546001600160a01b031633146138f0565b503461059a57613a543661588e565b91908082526004602052604082209160018060a01b0383541633148015613bc4575b613a7f90615cef565b73__$69ea93bdf3b1e5da8164bfe3d9a878d765$__803b1561061657816040518092630252a86760e51b82528180613aba8960048301615e2e565b03915af4801561060b57908291613baf575b505060058301613ae3858254610b0f828210615a53565b905560018060a01b036009840154169360078401549160405192631c8f084760e01b8452826004850152602484015260208360448173__$8537b7efa173772577da826929141ce939$__5af49081156105a55790613b70575b60018501805490955f5160206169285f395f51905f5294506103b391610ba1906001600160a01b031689610b9b8688615db4565b506020823d602011613ba7575b81613b8a60209383615aed565b810103126105dd575f5160206169285f395f51905f529151613b3c565b3d9150613b7d565b81613bb991615aed565b61059a57805f613acc565b5060028301546001600160a01b03163314613a76565b50604036600319011261059a57613bef6157c8565b602435613c0260ff845460a01c16615a22565b613c0d811515615f82565b60025460405190631c8f084760e01b8252826004830152602482015260208160448173__$8537b7efa173772577da826929141ce939$__5af4908115613d92578491613d60575b506001600160a01b0383169283613cba57613c6f828461601b565b3403610498578181613c8585613c9794336167e6565b506003546001600160a01b03166167e6565b505b60405191825260208201525f5160206169485f395f51905f5260403392a380f35b613cc4828461601b565b604051906323b872dd60e01b8252336004830152306024830152604482015260208160648189895af1908115613d55578691613d17575b501561053b578181613c8585613d1194336167e6565b50613c99565b90506020813d602011613d4d575b81613d3260209383615aed565b81010312613d4957613d4390615b23565b5f613cfb565b8580fd5b3d9150613d25565b6040513d88823e3d90fd5b90506020813d602011613d8a575b81613d7b60209383615aed565b810103126105dd57515f613c54565b3d9150613d6e565b6040513d86823e3d90fd5b503461059a578060031936011261059a5760ff6020915460a01c166040519015158152f35b503461059a57602036600319011261059a57604060043591828152600460205220906001820191613dfd60018060a01b038454163314615cef565b6002810190613e16825461187d60ff8260b01c16616028565b600a8101546118e4906001600160a01b0316613e3281336165e0565b90611660600485015480931015615a53565b503461059a57613e533661588e565b91908082526004602052604082209160018060a01b0383541633148015613fc3575b613e7e90615cef565b73__$69ea93bdf3b1e5da8164bfe3d9a878d765$__803b1561061657816040518092630252a86760e51b82528180613eb98960048301615e2e565b03915af4801561060b57908291613fae575b505060058301613ee2858254610b0f828210615a53565b905560018060a01b036009840154169360078401549160405192631c8f084760e01b8452826004850152602484015260208360448173__$8537b7efa173772577da826929141ce939$__5af49081156105a55790613f6f575b60018501805490955f5160206169285f395f51905f5294506103b39161286d906001600160a01b0316896128678688615db4565b506020823d602011613fa6575b81613f8960209383615aed565b810103126105dd575f5160206169285f395f51905f529151613f3b565b3d9150613f7c565b81613fb891615aed565b61059a57805f613ecb565b5060028301546001600160a01b03163314613e75565b503461059a57602036600319011261059a576004359060025460405190631c8f084760e01b8252836004830152602482015260208160448173__$8537b7efa173772577da826929141ce939$__5af49182156105a55791614049575b6020614041838561601b565b604051908152f35b90506020813d602011614074575b8161406460209383615aed565b810103126105dd57516020614035565b3d9150614057565b503461059a578060031936011261059a57614095616841565b805460ff60a01b1916600160a01b178155604051600181527f017904e4fe7d59bb4603c7c045bc275a05da9ea3a4ac007fc80fffeaf119186d90602090a1337fae81c15a680e6640ba872ca44f364ad67c60a04089ad9fa100f7a3ce94da9f688280a280f35b503461059a57602036600319011261059a5760043580825260046020526040822060018060a01b038154163314801561433c575b61413890615cef565b8273__$69ea93bdf3b1e5da8164bfe3d9a878d765$__803b1561061657816040518092630252a86760e51b825281806141748860048301615e2e565b03915af4801561060b57614327575b5050600581015460098201546006830154600a84015460078501546008860154604051631c8f084760e01b81526004810187905260248101929092526001600160a01b0394851696939573__$8537b7efa173772577da826929141ce939$__959093169390602083604481895af49283156108b3578a936142f2575b50602090604460405180988193631c8f084760e01b83528b600484015260248301525af49485156136c6578899989798956142b7575b50600181018054909488949392916001600160a01b03168a6142578587615db4565b90614261926166b0565b50600282018054909a61427f918591906001600160a01b03166166b0565b5081546001600160a01b0316816142968a80615db4565b906142a0926166b0565b5089546135ca9188916001600160a01b03166166b0565b9291965093506020823d6020116142ea575b816142d660209383615aed565b810103126105dd5790518795909386614235565b3d91506142c9565b9092506020813d60201161431f575b8161430e60209383615aed565b810103126105dd57519160206141ff565b3d9150614301565b8161433191615aed565b610c3957825f614183565b5060028101546001600160a01b0316331461412f565b5061435c366158a4565b91929095949360ff885460a01c169261437484615a22565b33895260016020526040892060018060a01b0386165f5260205260405f205482811061463f575b5061022093506143e6906143b0838733616609565b5060405163652e83d760e01b815273__$69ea93bdf3b1e5da8164bfe3d9a878d765$__999096879586958a8c3360048a01615fb3565b0381875af4908115611201578591614620575b5060206005546102446040518097819363797d4ee160e01b83526144206004840188615914565b6102248301525af49384156112015785946145ec575b50614442600554615cb5565b600555838552600460209081526040808720835181546001600160a01b039182166001600160a01b031991821617835593850151600183018054918316919095161790935590830151600282018054606086015160ff60a01b90151560a01b16929094166001600160a81b03199094169390931717825591610200916144c790611074565b60e0810151600384015561010081015160048401556101208101516005840155610140810151600680850191909155610160820151600785015561018082015160088501556101a08201516009850180546001600160a01b039283166001600160a01b0319918216179091556101c0840151600a870180549190931691161790556101e0820151600b85015591015195908610156111b95750602094600c61456f9201615cd7565b6040516001600160a01b039182168082529290911690339084907f5e02698c1650d6cbe1f7e8a48609d0da45ad7f5e4c13cd8b196f82965c0ab0d5908790a4806145bd575b50604051908152f35b7f957372c0e02d2882134cc0eebbef9e446634d8ccbb1cbb112bdefdd3cf0a643c83604051848152a25f6145b4565b9093506020813d602011614618575b8161460860209383615aed565b810103126105dd5751925f614436565b3d91506145fb565b61463991506102203d8111611234576112268183615aed565b5f6143f9565b61464c6146529184615db4565b94615a22565b61465d841515615f82565b6002549060405191631c8f084760e01b8352856004840152602483015260208260448173__$8537b7efa173772577da826929141ce939$__5af49182156108b3578a926147dc575b506001600160a01b03861680614718576146bf838761601b565b340361049857856143e6936146d8610220988a336167e6565b506003546146f29082908b906001600160a01b03166167e6565b505b60405191825260208201525f5160206169485f395f51905f5260403392a39061439b565b8a6020614725858961601b565b6064604051809481936323b872dd60e01b83523360048401523060248401526044830152865af19081156147d1578c91614793575b501561053b57856143e693614773610220988a336167e6565b5060035461478d9082908b906001600160a01b03166167e6565b506146f4565b90506020813d6020116147c9575b816147ae60209383615aed565b810103126147c5576147bf90615b23565b5f61475a565b8b80fd5b3d91506147a1565b6040513d8e823e3d90fd5b9091506020813d602011614808575b816147f860209383615aed565b810103126105dd5751905f6146a5565b3d91506147eb565b503461059a576102206143e6614825366158a4565b61483d60ff8b9a9694979899939a5460a01c16615a22565b338a52600160205260408a2060018060a01b0387165f526020526148678360405f20541015615a53565b6143b0838733616609565b503461059a57604036600319011261059a577f14bdaadaed0453e7b5b66195b42156ba995b9e5abd0da98368839851d69ad88960406004356148b26157b2565b6148ba616841565b6001600160a01b03166148ce811515615f51565b6148df6402540be400831115615f82565b81600255806bffffffffffffffffffffffff60a01b600354161760035582519182526020820152a180f35b503461059a57606036600319011261059a5760243560043560443560068110156109135781845260046020526040842091600183019160018060a01b0383541633148015614b24575b8015614b0e575b61496390615cef565b8573__$69ea93bdf3b1e5da8164bfe3d9a878d765$__803b1561061657816040518092630252a86760e51b8252818061499f8b60048301615e2e565b03915af4801561060b57614af9575b505084158015614aef575b6149c290615d82565b6040516149ce81615a84565b828152602081019586526149e6604082019283615f45565b606081018781526080820188815260a0830191898352600260c08501948b86526007549a8b8d52600960205260408d20915182555160018201550194519960068b10156111b95750614a3a60209a86615cd7565b51845491519251935164ffffffff001990921690151560081b61ff00161791151560101b62ff0000169190911791151560181b63ff0000001691909117901515871b64ff000000001617905582549154600290930154604080516001600160a01b0392831681523381890152908101869052938116939216917f867051316d0aafc6bf3704f0b32fa0e735bb03d37318b95179bdc1c5017467c090606090a4614ae4600754615cb5565b600755604051908152f35b50428511156149b9565b81614b0391615aed565b613d4957855f6149ae565b5060028401546001600160a01b0316331461495a565b5083546001600160a01b03163314614953565b503461059a57614b463661588e565b91908082526004602052604082209160018060a01b0383541633148015614cb6575b614b7190615cef565b73__$69ea93bdf3b1e5da8164bfe3d9a878d765$__803b1561061657816040518092630252a86760e51b82528180614bac8960048301615e2e565b03915af4801561060b57908291614ca1575b505060068301614bd5858254610b0f828210615a53565b905560018060a01b03600a840154169360088401549160405192631c8f084760e01b8452826004850152602484015260208360448173__$8537b7efa173772577da826929141ce939$__5af49081156105a55790614c62575b60018501805490955f5160206168a85f395f51905f5294506103b39161286d906001600160a01b0316896128678688615db4565b506020823d602011614c99575b81614c7c60209383615aed565b810103126105dd575f5160206168a85f395f51905f529151614c2e565b3d9150614c6f565b81614cab91615aed565b61059a57805f614bbe565b5060028301546001600160a01b03163314614b68565b50614cd636615860565b835f9493929452600460205260405f20906001820194614d0060018060a01b038754163314615cef565b73__$69ea93bdf3b1e5da8164bfe3d9a878d765$__803b156105dd575f6040518092630252a86760e51b82528180614d3b8960048301615e2e565b03915af48015614ea257614e8d575b506002830196614d6160ff895460b01c1615615f13565b33815260016020526040812060018060a01b0386165f5260205260405f2054828110614da857505090818461310b602095945f5160206169685f395f51905f529733616609565b614db6908392959493615db4565b94614dc760ff865460a01c16615a22565b614dd2861515615f82565b6002549460405195631c8f084760e01b8752876004880152602487015260208660448173__$8537b7efa173772577da826929141ce939$__5af49586156105e9578196614e59575b506001600160a01b03821690816132665750614e36868861601b565b340361049857866020966132225f5160206169685f395f51905f529985336167e6565b9095506020813d602011614e85575b81614e7560209383615aed565b810103126105dd5751945f614e1a565b3d9150614e68565b614e9a9197505f90615aed565b5f955f614d4a565b6040513d5f823e3d90fd5b346105dd575f3660031901126105dd576003546040516001600160a01b039091168152602090f35b346105dd5760203660031901126105dd57600435805f52600460205260405f2090600182019060018060a01b0382541633148015615506575b80156154f0575b614f1e90615cef565b6002830192614f4b8454614f3760ff8260b81c16615d20565b60ff8160a01c161590816154e15750615d51565b614f5b600b820154421015615d82565b60ff600c8201541660058201549160018060a01b0360098201541660068201549060018060a01b03600a840154169160078401549160088501549373__$8537b7efa173772577da826929141ce939$__9460405194631c8f084760e01b86528960048701526024860152602085604481895af4948515614ea2575f956154ac575b50602090604460405180988193631c8f084760e01b835288600484015260248301525af4948515614ea2575f95615478575b50600687101561546457876004888d8d8d888a5f5160206168c85f395f51905f529f6103b39f8f8f9283878f948f90848d6001838f8b8f968f9b888e918b8f968f908f96908c9115615397575b60028b146152ba575b50505050505050505050146151e1575b505050505050508a60038a14615194575b505050505050505050146150d95750508954600160a81b60ff60a81b19821617909a55505091549554604080516001600160a01b03998a168152336020820152918916989097169690938493509083019150565b848361511b61513d9661510061512c958b98610b9b8760018060a01b036003541693615db4565b506003546001600160a01b0316908690610b9b908990615db4565b508d546001600160a01b03166166b0565b508a546001600160a01b03166166b0565b508254875489546003546040516001600160a01b0393841696948416958b955f5160206168685f395f51905f529592948594615186949293928492849282169133911688615deb565b0390a4868080808080612b37565b5f5160206168685f395f51905f52956151bd612c62926151d09560018060a01b038d54166166b0565b5089548e906001600160a01b03166166b0565b0390a48d8d8d888a8c8a8f8a615085565b5f5160206169085f395f51905f52955f5160206168885f395f51905f529461525f9261521b60018060a01b038c54168d610b9b8d89615db4565b508054615234908b908e906001600160a01b03166166b0565b508a5461524f906001600160a01b031683610b9b868a615db4565b50546001600160a01b03166166b0565b5086548d548f546040516001600160a01b039283169993831698919092169389938993899392909182916152969190338a85615dc1565b0390a46152ab89604051938493339085615dc1565b0390a48383878e888f8d615074565b875f5160206168a85f395f51905f529761533d858f976153118f5f5160206169285f395f51905f529f6153008d82610b9b6153829f8d81889260a01b0390541693615db4565b5089546001600160a01b03166166b0565b50855461532c906001600160a01b031682610b9b858f615db4565b5086546001600160a01b03166166b0565b508d8060a01b03905416998a928e8060a01b039054169b8c948f8060a01b0390541697615371604051928392338c85615dc1565b0390a4604051938493339085615dc1565b0390a48f8b888c88888b8f968f908b90615064565b6153ae8c8060a01b038854168a610b9b8d89615db4565b506153c28a8a8e8060a01b038554166166b0565b506153da8c8060a01b0382541685610b9b868a615db4565b506153ee83858e8060a01b038554166166b0565b505f5160206169085f395f51905f528a895f5160206168a85f395f51905f528f89818c9260a01b038d54169460018581889260a01b038a541698600193848b9560a01b038d541695615447604051928392338a85615dc1565b0390a461545c89604051938493339085615dc1565b0390a461505b565b634e487b7160e01b5f52602160045260245ffd5b9094506020813d6020116154a4575b8161549460209383615aed565b810103126105dd5751938b61500e565b3d9150615487565b9094506020813d6020116154d9575b816154c860209383615aed565b810103126105dd5751936020614fdc565b3d91506154bb565b60ff915060a81c16158661189c565b5060028301546001600160a01b03163314614f15565b5082546001600160a01b03163314614f0e565b346105dd575f3660031901126105dd576020600854604051908152f35b346105dd576102206155d261554a366157de565b9261556860ff5f9d99979d9c969c9b9a9b9493945460a01c16615a22565b335f52600160205260405f2060018060a01b0382165f526020526155928660405f20541015615a53565b61559d868233616609565b5073__$69ea93bdf3b1e5da8164bfe3d9a878d765$__9a6040519c8d98899863652e83d760e01b8a528d8d3360048d01615c49565b0381865af4938415614ea2575f94615791575b5060206005546102446040518096819363797d4ee160e01b835261560c600484018b615914565b6102248301525af4928315614ea2575f9361575d575b5061562e600554615cb5565b6005555f83815260046020908152604091829020865181546001600160a01b039182166001600160a01b031991821617835592880151600183018054918316919094161790925591860151600283018054606089015160ff60a01b90151560a01b16929093166001600160a81b0319909316929092171781559094610200916156b690611074565b60e0810151600387015561010081015160048701556101208101516005870155610140810151600680880191909155610160820151600788015561018082015160088801556101a08201516009880180546001600160a01b039283166001600160a01b0319918216179091556101c0840151600a8a0180549190931691161790556101e0820151600b880155910151949085101561546457602094600c6111759201615cd7565b9092506020813d602011615789575b8161577960209383615aed565b810103126105dd57519184615622565b3d915061576c565b6157ab9194506102203d8111611234576112268183615aed565b92846155e5565b602435906001600160a01b03821682036105dd57565b600435906001600160a01b03821682036105dd57565b6101409060031901126105dd576004356001600160a01b03811681036105dd57906024356001600160a01b03811681036105dd579060443590606435906084359060a4359060c4356001600160a01b03811681036105dd579060e4356001600160a01b03811681036105dd579061010435906101243560068110156105dd5790565b60809060031901126105dd57600435906024356001600160a01b03811681036105dd57906044359060643590565b60409060031901126105dd576004359060243590565b60e09060031901126105dd576004356001600160a01b03811681036105dd57906024356001600160a01b03811681036105dd579060443590606435906084356001600160a01b03811681036105dd579060a4359060c43560068110156105dd5790565b9060068210156154645752565b9061020080615a019360018060a01b03815116845260018060a01b03602082015116602085015260018060a01b03604082015116604085015260608101511515606085015260808101511515608085015260a0810151151560a085015260c0810151151560c085015260e081015160e085015261010081015161010085015261012081015161012085015261014081015161014085015261016081015161016085015261018081015161018085015260018060a01b036101a0820151166101a085015260018060a01b036101c0820151166101c08501526101e08101516101e08501520151910190615907565b565b60409060031901126105dd576004359060243580151581036105dd5790565b15615a2957565b60405162461bcd60e51b81526020600482015260026024820152614c3160f01b6044820152606490fd5b15615a5a57565b60405162461bcd60e51b8152602060048201526002602482015261543160f01b6044820152606490fd5b60e0810190811067ffffffffffffffff821117615aa057604052565b634e487b7160e01b5f52604160045260245ffd5b610220810190811067ffffffffffffffff821117615aa057604052565b60a0810190811067ffffffffffffffff821117615aa057604052565b90601f8019910116810190811067ffffffffffffffff821117615aa057604052565b51906001600160a01b03821682036105dd57565b519081151582036105dd57565b90816102209103126105dd5761020060405191615b4c83615ab4565b615b5581615b0f565b8352615b6360208201615b0f565b6020840152615b7460408201615b0f565b6040840152615b8560608201615b23565b6060840152615b9660808201615b23565b6080840152615ba760a08201615b23565b60a0840152615bb860c08201615b23565b60c084015260e081015160e0840152610100810151610100840152610120810151610120840152610140810151610140840152610160810151610160840152610180810151610180840152615c106101a08201615b0f565b6101a0840152615c236101c08201615b0f565b6101c08401526101e08101516101e0840152015160068110156105dd5761020082015290565b6001600160a01b039182168152918116602083015291821660408201526060810192909252608082019290925260a081019290925260c082019290925291811660e083015290911661010082015261012081019190915261016081019291615a01916101400190615907565b5f198114615cc35760010190565b634e487b7160e01b5f52601160045260245ffd5b9060068110156154645760ff80198354169116179055565b15615cf657565b60405162461bcd60e51b8152602060048201526002602482015261443560f01b6044820152606490fd5b15615d2757565b60405162461bcd60e51b8152602060048201526002602482015261221960f11b6044820152606490fd5b15615d5857565b60405162461bcd60e51b8152602060048201526002602482015261443360f01b6044820152606490fd5b15615d8957565b606460405162461bcd60e51b815260206004820152600460248201526344312e3160e01b6044820152fd5b91908203918211615cc357565b6001600160a01b039182168152911660208201526040810191909152606081019190915260800190565b6001600160a01b039182168152918116602083015290911660408201526060810191909152608081019190915260a081019190915260c081019190915260e00190565b81546001600160a01b0390811682526001830154811660208301526002830154808216604084015260ff60a082811c82161515606086015260a883901c82161515608086015260b083901c821615159085015260b89190911c8116151560c0840152600384015460e084015260048401546101008401526005840154610120840152600684015461014084015260078401546101608401526008840154610180840152600984015482166101a0840152600a8401549091166101c0830152600b8301546101e0830152600c9092015461022082019392615a0192610200019116615907565b15615f1a57565b606460405162461bcd60e51b81526020600482015260046024820152632219171960e11b6044820152fd5b60068210156154645752565b15615f5857565b60405162461bcd60e51b8152602060048201526002602482015261433160f01b6044820152606490fd5b15615f8957565b60405162461bcd60e51b8152602060048201526002602482015261433560f01b6044820152606490fd5b6001600160a01b0391821681529181166020830152918216604082015260608101929092525f6080830181905260a083019390935260c0820183905290921660e083015261010082015261012081019190915261016081019291615a01916101400190615907565b91908201809211615cc357565b1561602f57565b606460405162461bcd60e51b815260206004820152600460248201526344332e3160e01b6044820152fd5b1561606157565b606460405162461bcd60e51b815260206004820152600460248201526344322e3160e01b6044820152fd5b1561609357565b606460405162461bcd60e51b815260206004820152600460248201526343332e3160e01b6044820152fd5b90815f52600a60205260405f2080545f52600460205260405f209160018060a01b03835416331480156162a4575b6160f590615cef565b61623c57600282018054909290616115906001600160a01b03161561608c565b80546001600160a01b03163314616222575b600101546001600160a01b03163314616208575b6001810191825460ff8160a01c16806161fb575b6161a75750505060807fda0fdc90d2cac3c2211c13cf60368aceb049a3073b8be0b90792021888c55fc5915460ff60405191338352818160a01c161515602084015260a81c16151560408201525f6060820152a25f90565b81546001600160a01b0319166001600160a01b039182161790915591549054604051908152911691507f957372c0e02d2882134cc0eebbef9e446634d8ccbb1cbb112bdefdd3cf0a643c90602090a2600190565b5060ff8160a81c1661614f565b60018101805460ff60a81b1916600160a81b17905561613b565b60018201805460ff60a01b1916600160a01b179055616127565b7fda0fdc90d2cac3c2211c13cf60368aceb049a3073b8be0b90792021888c55fc59150600160809101600160b01b60ff60b01b198254161780915560ff60405191338352818160a01c161515602084015260a81c161515604082015260016060820152a25f90565b5060018301546001600160a01b031633146160ec565b5f91815f52600960205260405f209081545f52600460205260405f2090600182019060018060a01b03825416331480156165cd575b80156165b7575b6162ff90615cef565b73__$69ea93bdf3b1e5da8164bfe3d9a878d765$__803b156105dd575f6040518092630252a86760e51b8252818061633a8960048301615e2e565b03915af48015614ea2576165a2575b5061652c57600183019283549384158015616522575b61636890615d82565b83546001600160a01b0316331461650c575b82546001600160a01b031633146164f4575b6002840180549092906001600160a01b031633146164da575b6002810195865460ff8160081c1690816164cb575b816164bd575b506164285750505050505060a07fca0792b3957820bc249dd7664026ca960efe1500204314bf8161056d3847d526915460ff60405191338352818160081c1615156020840152818160101c161515604084015260181c1615156060820152846080820152a290565b8598509160ff7f932bd05aaee1f6600767846bab40eaabef608993e19645684d0a9fcb3335d37297926164b79594600b60c099015561646d82855416600c8d01615cd7565b5499549554935491549254604080516001600160a01b039889168152958816602087015292909616918401919091523360608401526080830191909152909260a084019116615907565ba3600190565b60ff915060181c165f6163c0565b905060ff8160101c16906163ba565b60028101805463ff000000191663010000001790556163a5565b60028201805462ff000019166201000017905561638c565b60028201805461ff00191661010017905561637a565b504285111561635f565b505060a060027fca0792b3957820bc249dd7664026ca960efe1500204314bf8161056d3847d526920164010000000064ff00000000198254161780915560ff60405191338352818160081c1615156020840152818160101c161515604084015260181c161515606082015260016080820152a290565b6165af9196505f90615aed565b5f945f616349565b5060028301546001600160a01b031633146162f6565b5082546001600160a01b031633146162ef565b60018060a01b03165f52600160205260405f209060018060a01b03165f5260205260405f205490565b82156166a85760018060a01b031690815f52600160205260405f2060018060a01b0382165f526020528260405f2054106166a1577fd1398bee19313d6bf672ccb116e51f4a1a947e91c757907f51fbb5b5e56c698f60205f92848452600182526040842060018060a01b0382168552825260408420616689878254615db4565b90556040519586526001600160a01b031694a4600190565b5050505f90565b505050600190565b919081156166a8576001600160a01b03169182616718575f808080856001600160a01b03861682f115614ea25760207f2717ead6b9200dd235aad468c9809ea400fe33ac69b5bfaa6d3e90fc922b6398915b6040519384526001600160a01b031692a3600190565b60405163a9059cbb60e01b81526001600160a01b0382166004820152602481018390526020816044815f885af1908115614ea2575f916167ac575b50156167825760207f2717ead6b9200dd235aad468c9809ea400fe33ac69b5bfaa6d3e90fc922b639891616702565b60405162461bcd60e51b8152602060048201526002602482015261543360f01b6044820152606490fd5b90506020813d6020116167de575b816167c760209383615aed565b810103126105dd576167d890615b23565b5f616753565b3d91506167ba565b82156166a8577fd1398bee19313d6bf672ccb116e51f4a1a947e91c757907f51fbb5b5e56c698f60205f9260018060a01b031693848452600182526040842060018060a01b038216855282526040842061668987825461601b565b5f546001600160a01b0316330361685457565b63118cdaa760e01b5f523360045260245ffdfe8e100dc3335e09b082c843425f71ea8ae9d91ae5bb385ef4b41d0d2c6aa872148af39814826d4542f7fe66e6fa6ac2ac59bfc8221394f51a41dba5c54dba0ac9afbe337783658b293f1566e1790bfab9858b8cf08de944ca3cd013d4211887b8086c61b89ef5fcdb14c243b643069c3c6a84765b27f2a696b875dddf031afb4d9d5818ec36d6e85e8a30346f5fe41b65cc50cea2b868ae94f293d113c92a1338a6af192380b5ba311ac003f57efa2be0717f0e466318c7e9cf546c4937a03d94f05d33634b730e763d232b482cf835a4481835f62d0a0973b42018a8ead4f047dcbc1c05240f31ff3ad067ef1ee35ce4997762752e3a095284754544f4c709d79f039f6754f2d286001d6bb50c1b3cc185b309e82f63077e29516a6a87e8e99da2646970667358221220f33e5cefef3dc4e8581670616ad3ef9a3c0610e24002742d75f088e9ce80360164736f6c634300081c0033",
			"opcodes": "PUSH1 0x80 CALLVALUE PUSH2 0x15A JUMPI PUSH1 0x1F PUSH2 0x6B30 CODESIZE DUP2 SWAP1 SUB SWAP2 DUP3 ADD PUSH1 0x1F NOT AND DUP4 ADD SWAP2 PUSH1 0x1 PUSH1 0x1 PUSH1 0x40 SHL SUB DUP4 GT DUP5 DUP5 LT OR PUSH2 0x15E JUMPI DUP1 DUP5 SWAP3 PUSH1 0x40 SWAP5 DUP6 MSTORE DUP4 CODECOPY DUP2 ADD SUB SLT PUSH2 0x15A JUMPI DUP1 MLOAD PUSH1 0x20 SWAP1 SWAP2 ADD MLOAD PUSH1 0x1 PUSH1 0x1 PUSH1 0xA0 SHL SUB DUP2 AND SWAP2 SWAP1 DUP3 SWAP1 SUB PUSH2 0x15A JUMPI CALLER ISZERO PUSH2 0x147 JUMPI PUSH0 DUP1 SLOAD PUSH1 0x40 MLOAD SWAP2 CALLER SWAP1 PUSH1 0x1 PUSH1 0x1 PUSH1 0xA0 SHL SUB DUP4 AND SWAP1 PUSH32 0x8BE0079C531659141344CD1FD0A4F28419497F9722A3DAAFE3B4186F6B6457E0 SWAP1 DUP1 LOG3 PUSH1 0x1 PUSH1 0x1 PUSH1 0xA8 SHL SUB NOT AND CALLER PUSH1 0xFF PUSH1 0xA0 SHL NOT AND OR PUSH1 0x1 PUSH1 0xA0 SHL OR PUSH0 SSTORE DUP3 ISZERO PUSH2 0x120 JUMPI POP PUSH5 0x2540BE400 DUP2 GT PUSH2 0xF6 JUMPI PUSH1 0x2 SSTORE PUSH1 0x1 DUP1 PUSH1 0xA0 SHL SUB NOT PUSH1 0x3 SLOAD AND OR PUSH1 0x3 SSTORE PUSH0 PUSH1 0x5 SSTORE PUSH0 PUSH1 0x6 SSTORE PUSH0 PUSH1 0x7 SSTORE PUSH0 PUSH1 0x8 SSTORE PUSH1 0x40 MLOAD PUSH2 0x69BD SWAP1 DUP2 PUSH2 0x173 DUP3 CODECOPY RETURN JUMPDEST PUSH1 0x40 MLOAD PUSH3 0x461BCD PUSH1 0xE5 SHL DUP2 MSTORE PUSH1 0x20 PUSH1 0x4 DUP3 ADD MSTORE PUSH1 0x2 PUSH1 0x24 DUP3 ADD MSTORE PUSH2 0x4335 PUSH1 0xF0 SHL PUSH1 0x44 DUP3 ADD MSTORE PUSH1 0x64 SWAP1 REVERT JUMPDEST PUSH3 0x461BCD PUSH1 0xE5 SHL DUP2 MSTORE PUSH1 0x20 PUSH1 0x4 DUP3 ADD MSTORE PUSH1 0x2 PUSH1 0x24 DUP3 ADD MSTORE PUSH2 0x4331 PUSH1 0xF0 SHL PUSH1 0x44 DUP3 ADD MSTORE PUSH1 0x64 SWAP1 REVERT JUMPDEST PUSH4 0x1E4FBDF7 PUSH1 0xE0 SHL PUSH0 MSTORE PUSH0 PUSH1 0x4 MSTORE PUSH1 0x24 PUSH0 REVERT JUMPDEST PUSH0 DUP1 REVERT JUMPDEST PUSH4 0x4E487B71 PUSH1 0xE0 SHL PUSH0 MSTORE PUSH1 0x41 PUSH1 0x4 MSTORE PUSH1 0x24 PUSH0 REVERT INVALID PUSH1 0x80 PUSH1 0x40 MSTORE PUSH1 0x4 CALLDATASIZE LT ISZERO PUSH2 0x11 JUMPI PUSH0 DUP1 REVERT JUMPDEST PUSH0 PUSH0 CALLDATALOAD PUSH1 0xE0 SHR DUP1 PUSH3 0x7E8BD3 EQ PUSH2 0x5536 JUMPI DUP1 PUSH4 0x2927459 EQ PUSH2 0x5519 JUMPI DUP1 PUSH4 0x44A6DA1 EQ PUSH2 0x4ED5 JUMPI DUP1 PUSH4 0x6FD154A EQ PUSH2 0x4EAD JUMPI DUP1 PUSH4 0x934DA22 EQ PUSH2 0x4CCC JUMPI DUP1 PUSH4 0x114AEACC EQ PUSH2 0x4B37 JUMPI DUP1 PUSH4 0x1273C165 EQ PUSH2 0x490A JUMPI DUP1 PUSH4 0x15F8A314 EQ PUSH2 0x4872 JUMPI DUP1 PUSH4 0x17B52B50 EQ PUSH2 0x4810 JUMPI DUP1 PUSH4 0x28D5A050 EQ PUSH2 0x4352 JUMPI DUP1 PUSH4 0x30E97AE1 EQ PUSH2 0x40FB JUMPI DUP1 PUSH4 0x367EDD32 EQ PUSH2 0x407C JUMPI DUP1 PUSH4 0x39B3EDB0 EQ PUSH2 0x3FD9 JUMPI DUP1 PUSH4 0x3F3E8212 EQ PUSH2 0x3E44 JUMPI DUP1 PUSH4 0x4187129C EQ PUSH2 0x3DC2 JUMPI DUP1 PUSH4 0x41B3A0D9 EQ PUSH2 0x3D9D JUMPI DUP1 PUSH4 0x47E7EF24 EQ PUSH2 0x3BDA JUMPI DUP1 PUSH4 0x4DFF0036 EQ PUSH2 0x3A45 JUMPI DUP1 PUSH4 0x5040125B EQ PUSH2 0x38BB JUMPI DUP1 PUSH4 0x51A6FAD5 EQ PUSH2 0x3731 JUMPI DUP1 PUSH4 0x51B7D535 EQ PUSH2 0x340E JUMPI DUP1 PUSH4 0x53A78000 EQ PUSH2 0x33AA JUMPI DUP1 PUSH4 0x619C457E EQ PUSH2 0x3390 JUMPI DUP1 PUSH4 0x63ADB66F EQ PUSH2 0x2FEB JUMPI DUP1 PUSH4 0x706B14F5 EQ PUSH2 0x2982 JUMPI DUP1 PUSH4 0x70A08231 EQ PUSH2 0x2941 JUMPI DUP1 PUSH4 0x715018A6 EQ PUSH2 0x28E7 JUMPI DUP1 PUSH4 0x7165E542 EQ PUSH2 0x273E JUMPI DUP1 PUSH4 0x71AE8BCD EQ PUSH2 0x2724 JUMPI DUP1 PUSH4 0x80CCB070 EQ PUSH2 0x266A JUMPI DUP1 PUSH4 0x81CD872A EQ PUSH2 0x253F JUMPI DUP1 PUSH4 0x894BA833 EQ PUSH2 0x24C7 JUMPI DUP1 PUSH4 0x899A3FFD EQ PUSH2 0x24A9 JUMPI DUP1 PUSH4 0x8DA5CB5B EQ PUSH2 0x2482 JUMPI DUP1 PUSH4 0x8DEEA5FB EQ PUSH2 0x23B0 JUMPI DUP1 PUSH4 0x966D1F1D EQ PUSH2 0x2392 JUMPI DUP1 PUSH4 0x9974F376 EQ PUSH2 0x2374 JUMPI DUP1 PUSH4 0xA4F60B16 EQ PUSH2 0x21DF JUMPI DUP1 PUSH4 0xA7170106 EQ PUSH2 0x1F22 JUMPI DUP1 PUSH4 0xB4A99CCB EQ PUSH2 0x1E6E JUMPI DUP1 PUSH4 0xB7DC14FE EQ PUSH2 0x1C14 JUMPI DUP1 PUSH4 0xBA343F6D EQ PUSH2 0x1B4F JUMPI DUP1 PUSH4 0xBB06C1A4 EQ PUSH2 0x182E JUMPI DUP1 PUSH4 0xBEABACC8 EQ PUSH2 0x1740 JUMPI DUP1 PUSH4 0xC15A25BF EQ PUSH2 0x16C0 JUMPI DUP1 PUSH4 0xC23F001F EQ PUSH2 0x92D JUMPI DUP1 PUSH4 0xC99B8965 EQ PUSH2 0x15A4 JUMPI DUP1 PUSH4 0xCFAAF235 EQ PUSH2 0x1427 JUMPI DUP1 PUSH4 0xCFADF6C7 EQ PUSH2 0xEFC JUMPI DUP1 PUSH4 0xD747B811 EQ PUSH2 0xD72 JUMPI DUP1 PUSH4 0xE08560A4 EQ PUSH2 0xD54 JUMPI DUP1 PUSH4 0xEB457329 EQ PUSH2 0xC53 JUMPI DUP1 PUSH4 0xF2D5EC3D EQ PUSH2 0xA6D JUMPI DUP1 PUSH4 0xF2FDE38B EQ PUSH2 0x9E7 JUMPI DUP1 PUSH4 0xF3FEF3A3 EQ PUSH2 0x980 JUMPI DUP1 PUSH4 0xF7888AEC EQ PUSH2 0x92D JUMPI DUP1 PUSH4 0xFAA86B4A EQ PUSH2 0x61A JUMPI PUSH4 0xFBB405DB EQ PUSH2 0x297 JUMPI PUSH0 DUP1 REVERT JUMPDEST PUSH2 0x2A0 CALLDATASIZE PUSH2 0x588E JUMP JUMPDEST SWAP1 DUP1 DUP4 MSTORE PUSH1 0x4 PUSH1 0x20 MSTORE PUSH1 0x40 DUP4 KECCAK256 SWAP3 PUSH2 0x2C2 PUSH1 0x1 DUP1 PUSH1 0xA0 SHL SUB DUP6 SLOAD AND CALLER EQ PUSH2 0x5CEF JUMP JUMPDEST PUSH20 0x0 DUP1 EXTCODESIZE ISZERO PUSH2 0x616 JUMPI DUP2 PUSH1 0x40 MLOAD DUP1 SWAP3 PUSH4 0x252A867 PUSH1 0xE5 SHL DUP3 MSTORE DUP2 DUP1 PUSH2 0x2FD DUP11 PUSH1 0x4 DUP4 ADD PUSH2 0x5E2E JUMP JUMPDEST SUB SWAP2 GAS DELEGATECALL DUP1 ISZERO PUSH2 0x60B JUMPI SWAP1 DUP3 SWAP2 PUSH2 0x5F6 JUMPI JUMPDEST POP POP PUSH1 0x9 DUP5 ADD DUP1 SLOAD PUSH1 0x1 PUSH1 0x1 PUSH1 0xA0 SHL SUB AND SWAP2 DUP5 SWAP2 SWAP1 PUSH2 0x32E DUP5 CALLER PUSH2 0x65E0 JUMP JUMPDEST DUP4 DUP2 LT PUSH2 0x3C1 JUMPI JUMPDEST POP POP SLOAD PUSH2 0x34D SWAP3 POP PUSH1 0x1 PUSH1 0x1 PUSH1 0xA0 SHL SUB AND CALLER PUSH2 0x6609 JUMP JUMPDEST POP PUSH1 0x5 DUP4 ADD PUSH2 0x35D DUP4 DUP3 SLOAD PUSH2 0x601B JUMP JUMPDEST SWAP1 SSTORE DUP3 SLOAD PUSH1 0x1 DUP5 ADD SLOAD PUSH1 0x2 SWAP1 SWAP5 ADD SLOAD PUSH1 0x40 DUP1 MLOAD PUSH1 0x1 PUSH1 0x1 PUSH1 0xA0 SHL SUB SWAP3 DUP4 AND DUP2 MSTORE PUSH1 0x20 DUP2 ADD SWAP6 SWAP1 SWAP6 MSTORE SWAP5 DUP2 AND SWAP5 SWAP2 AND SWAP3 PUSH32 0x3C0DD30126238EAEBBB306E073222EECD03A091D41C39A4B2742759D406C8F55 SWAP2 DUP2 SWAP1 DUP2 ADD JUMPDEST SUB SWAP1 LOG4 PUSH1 0x20 PUSH1 0x40 MLOAD PUSH1 0x1 DUP2 MSTORE RETURN JUMPDEST PUSH2 0x3CB SWAP2 SWAP4 PUSH2 0x5DB4 JUMP JUMPDEST SWAP3 PUSH2 0x3DC PUSH1 0xFF DUP5 SLOAD PUSH1 0xA0 SHR AND PUSH2 0x5A22 JUMP JUMPDEST PUSH2 0x3E7 DUP5 ISZERO ISZERO PUSH2 0x5F82 JUMP JUMPDEST PUSH1 0x2 SLOAD SWAP3 PUSH1 0x40 MLOAD SWAP4 PUSH4 0x1C8F0847 PUSH1 0xE0 SHL DUP6 MSTORE DUP6 PUSH1 0x4 DUP7 ADD MSTORE PUSH1 0x24 DUP6 ADD MSTORE PUSH1 0x20 DUP5 PUSH1 0x44 DUP2 PUSH20 0x0 GAS DELEGATECALL SWAP4 DUP5 ISZERO PUSH2 0x5E9 JUMPI DUP2 SWAP5 PUSH2 0x5B1 JUMPI JUMPDEST POP DUP2 PUSH2 0x4C2 JUMPI POP PUSH2 0x440 DUP4 DUP6 PUSH2 0x601B JUMP JUMPDEST CALLVALUE SUB PUSH2 0x498 JUMPI DUP4 DUP7 SWAP4 PUSH2 0x457 PUSH2 0x34D SWAP7 DUP5 CALLER PUSH2 0x67E6 JUMP JUMPDEST POP PUSH1 0x3 SLOAD PUSH2 0x471 SWAP1 DUP3 SWAP1 DUP6 SWAP1 PUSH1 0x1 PUSH1 0x1 PUSH1 0xA0 SHL SUB AND PUSH2 0x67E6 JUMP JUMPDEST POP JUMPDEST PUSH1 0x40 MLOAD SWAP2 DUP3 MSTORE PUSH1 0x20 DUP3 ADD MSTORE PUSH0 MLOAD PUSH1 0x20 PUSH2 0x6948 PUSH0 CODECOPY PUSH0 MLOAD SWAP1 PUSH0 MSTORE PUSH1 0x40 CALLER SWAP3 LOG3 PUSH0 DUP1 PUSH2 0x336 JUMP JUMPDEST PUSH1 0x40 MLOAD PUSH3 0x461BCD PUSH1 0xE5 SHL DUP2 MSTORE PUSH1 0x20 PUSH1 0x4 DUP3 ADD MSTORE PUSH1 0x2 PUSH1 0x24 DUP3 ADD MSTORE PUSH2 0x10CD PUSH1 0xF2 SHL PUSH1 0x44 DUP3 ADD MSTORE PUSH1 0x64 SWAP1 REVERT JUMPDEST PUSH2 0x4CC DUP5 DUP7 PUSH2 0x601B JUMP JUMPDEST PUSH1 0x40 MLOAD SWAP1 PUSH4 0x23B872DD PUSH1 0xE0 SHL DUP3 MSTORE CALLER PUSH1 0x4 DUP4 ADD MSTORE ADDRESS PUSH1 0x24 DUP4 ADD MSTORE PUSH1 0x44 DUP3 ADD MSTORE PUSH1 0x20 DUP2 PUSH1 0x64 DUP2 DUP6 DUP8 GAS CALL SWAP2 DUP3 ISZERO PUSH2 0x5A5 JUMPI DUP1 SWAP3 PUSH2 0x565 JUMPI JUMPDEST POP POP ISZERO PUSH2 0x53B JUMPI DUP4 DUP7 SWAP4 PUSH2 0x51B PUSH2 0x34D SWAP7 DUP5 CALLER PUSH2 0x67E6 JUMP JUMPDEST POP PUSH1 0x3 SLOAD PUSH2 0x535 SWAP1 DUP3 SWAP1 DUP6 SWAP1 PUSH1 0x1 PUSH1 0x1 PUSH1 0xA0 SHL SUB AND PUSH2 0x67E6 JUMP JUMPDEST POP PUSH2 0x473 JUMP JUMPDEST PUSH1 0x40 MLOAD PUSH3 0x461BCD PUSH1 0xE5 SHL DUP2 MSTORE PUSH1 0x20 PUSH1 0x4 DUP3 ADD MSTORE PUSH1 0x2 PUSH1 0x24 DUP3 ADD MSTORE PUSH2 0x2A19 PUSH1 0xF1 SHL PUSH1 0x44 DUP3 ADD MSTORE PUSH1 0x64 SWAP1 REVERT JUMPDEST SWAP1 SWAP2 POP PUSH1 0x20 DUP3 RETURNDATASIZE PUSH1 0x20 GT PUSH2 0x59D JUMPI JUMPDEST DUP2 PUSH2 0x581 PUSH1 0x20 SWAP4 DUP4 PUSH2 0x5AED JUMP JUMPDEST DUP2 ADD SUB SLT PUSH2 0x59A JUMPI POP PUSH2 0x593 SWAP1 PUSH2 0x5B23 JUMP JUMPDEST PUSH0 DUP1 PUSH2 0x503 JUMP JUMPDEST DUP1 REVERT JUMPDEST RETURNDATASIZE SWAP2 POP PUSH2 0x574 JUMP JUMPDEST PUSH1 0x40 MLOAD SWAP1 RETURNDATASIZE SWAP1 DUP3 RETURNDATACOPY RETURNDATASIZE SWAP1 REVERT JUMPDEST SWAP1 SWAP4 POP PUSH1 0x20 DUP2 RETURNDATASIZE PUSH1 0x20 GT PUSH2 0x5E1 JUMPI JUMPDEST DUP2 PUSH2 0x5CD PUSH1 0x20 SWAP4 DUP4 PUSH2 0x5AED JUMP JUMPDEST DUP2 ADD SUB SLT PUSH2 0x5DD JUMPI MLOAD SWAP3 PUSH0 PUSH2 0x42F JUMP JUMPDEST PUSH0 DUP1 REVERT JUMPDEST RETURNDATASIZE SWAP2 POP PUSH2 0x5C0 JUMP JUMPDEST POP PUSH1 0x40 MLOAD SWAP1 RETURNDATASIZE SWAP1 DUP3 RETURNDATACOPY RETURNDATASIZE SWAP1 REVERT JUMPDEST DUP2 PUSH2 0x600 SWAP2 PUSH2 0x5AED JUMP JUMPDEST PUSH2 0x59A JUMPI DUP1 PUSH0 PUSH2 0x30F JUMP JUMPDEST PUSH1 0x40 MLOAD RETURNDATASIZE DUP5 DUP3 RETURNDATACOPY RETURNDATASIZE SWAP1 REVERT JUMPDEST POP DUP1 REVERT JUMPDEST POP CALLVALUE PUSH2 0x59A JUMPI PUSH1 0x20 CALLDATASIZE PUSH1 0x3 NOT ADD SLT PUSH2 0x59A JUMPI PUSH1 0x4 CALLDATALOAD DUP1 DUP3 MSTORE PUSH1 0x4 PUSH1 0x20 MSTORE PUSH1 0x40 DUP3 KECCAK256 PUSH1 0x1 DUP2 ADD SWAP1 PUSH1 0x1 DUP1 PUSH1 0xA0 SHL SUB DUP3 SLOAD AND CALLER EQ DUP1 ISZERO PUSH2 0x917 JUMPI JUMPDEST PUSH2 0x65C SWAP1 PUSH2 0x5CEF JUMP JUMPDEST DUP4 PUSH20 0x0 DUP1 EXTCODESIZE ISZERO PUSH2 0x616 JUMPI DUP2 PUSH1 0x40 MLOAD DUP1 SWAP3 PUSH4 0x252A867 PUSH1 0xE5 SHL DUP3 MSTORE DUP2 DUP1 PUSH2 0x698 DUP9 PUSH1 0x4 DUP4 ADD PUSH2 0x5E2E JUMP JUMPDEST SUB SWAP2 GAS DELEGATECALL DUP1 ISZERO PUSH2 0x60B JUMPI PUSH2 0x8FE JUMPI JUMPDEST POP POP PUSH1 0x5 DUP2 ADD SLOAD PUSH1 0x9 DUP3 ADD SLOAD PUSH1 0x6 DUP4 ADD SLOAD PUSH1 0xA DUP5 ADD SLOAD PUSH1 0x7 DUP6 ADD SLOAD PUSH1 0x8 DUP7 ADD SLOAD PUSH1 0x40 MLOAD PUSH4 0x1C8F0847 PUSH1 0xE0 SHL DUP2 MSTORE PUSH1 0x4 DUP2 ADD DUP8 SWAP1 MSTORE PUSH1 0x24 DUP2 ADD SWAP3 SWAP1 SWAP3 MSTORE PUSH1 0x1 PUSH1 0x1 PUSH1 0xA0 SHL SUB SWAP5 DUP6 AND SWAP8 SWAP6 SWAP7 SWAP2 SWAP6 SWAP5 PUSH20 0x0 SWAP4 AND SWAP1 PUSH1 0x20 DUP8 PUSH1 0x44 DUP2 DUP8 GAS DELEGATECALL SWAP7 DUP8 ISZERO PUSH2 0x8F3 JUMPI DUP12 SWAP8 PUSH2 0x8BE JUMPI JUMPDEST POP PUSH1 0x20 SWAP1 PUSH1 0x44 PUSH1 0x40 MLOAD DUP1 SWAP7 DUP2 SWAP4 PUSH4 0x1C8F0847 PUSH1 0xE0 SHL DUP4 MSTORE DUP10 PUSH1 0x4 DUP5 ADD MSTORE PUSH1 0x24 DUP4 ADD MSTORE GAS DELEGATECALL SWAP3 DUP4 ISZERO PUSH2 0x8B3 JUMPI DUP10 SWAP11 SWAP10 SWAP9 SWAP10 SWAP4 PUSH2 0x875 JUMPI JUMPDEST POP DUP2 SLOAD DUP9 SWAP5 SWAP4 SWAP3 SWAP2 SWAP1 PUSH1 0x1 PUSH1 0x1 PUSH1 0xA0 SHL SUB AND DUP11 PUSH2 0x776 DUP10 DUP12 PUSH2 0x5DB4 JUMP JUMPDEST SWAP1 PUSH2 0x780 SWAP3 PUSH2 0x67E6 JUMP JUMPDEST POP PUSH1 0x2 DUP3 ADD DUP1 SLOAD SWAP1 SWAP11 PUSH2 0x79E SWAP2 DUP10 SWAP2 SWAP1 PUSH1 0x1 PUSH1 0x1 PUSH1 0xA0 SHL SUB AND PUSH2 0x67E6 JUMP JUMPDEST POP DUP6 SLOAD PUSH1 0x1 PUSH1 0x1 PUSH1 0xA0 SHL SUB AND DUP2 PUSH2 0x7B5 DUP7 DUP1 PUSH2 0x5DB4 JUMP JUMPDEST SWAP1 PUSH2 0x7BF SWAP3 PUSH2 0x67E6 JUMP JUMPDEST POP DUP10 SLOAD PUSH2 0x7D6 SWAP2 DUP5 SWAP2 PUSH1 0x1 PUSH1 0x1 PUSH1 0xA0 SHL SUB AND PUSH2 0x67E6 JUMP JUMPDEST POP SLOAD SWAP4 SLOAD SWAP8 SLOAD PUSH1 0x40 MLOAD PUSH1 0x1 PUSH1 0x1 PUSH1 0xA0 SHL SUB SWAP10 DUP11 AND SWAP11 SWAP6 DUP11 AND SWAP10 SWAP1 SWAP2 AND SWAP7 DUP11 SWAP7 DUP11 SWAP7 DUP9 SWAP4 DUP9 SWAP4 SWAP2 SWAP3 SWAP1 SWAP2 DUP3 SWAP2 PUSH2 0x80D SWAP2 CALLER DUP15 DUP6 PUSH2 0x5DC1 JUMP JUMPDEST SUB PUSH0 MLOAD PUSH1 0x20 PUSH2 0x6908 PUSH0 CODECOPY PUSH0 MLOAD SWAP1 PUSH0 MSTORE SWAP2 LOG4 PUSH1 0x40 MLOAD SWAP2 DUP3 SWAP2 PUSH2 0x830 SWAP2 CALLER DUP10 DUP6 PUSH2 0x5DC1 JUMP JUMPDEST SUB PUSH0 MLOAD PUSH1 0x20 PUSH2 0x68A8 PUSH0 CODECOPY PUSH0 MLOAD SWAP1 PUSH0 MSTORE SWAP2 LOG4 PUSH1 0x40 DUP1 MLOAD PUSH1 0x1 PUSH1 0x1 PUSH1 0xA0 SHL SUB SWAP3 SWAP1 SWAP3 AND DUP3 MSTORE CALLER PUSH1 0x20 DUP4 ADD MSTORE PUSH0 MLOAD PUSH1 0x20 PUSH2 0x68C8 PUSH0 CODECOPY PUSH0 MLOAD SWAP1 PUSH0 MSTORE SWAP2 LOG4 PUSH1 0x40 MLOAD PUSH1 0x1 DUP2 MSTORE PUSH1 0x20 SWAP1 RETURN JUMPDEST SWAP4 SWAP3 POP SWAP1 SWAP7 POP PUSH1 0x20 DUP4 RETURNDATASIZE PUSH1 0x20 GT PUSH2 0x8AB JUMPI JUMPDEST DUP2 PUSH2 0x894 PUSH1 0x20 SWAP4 DUP4 PUSH2 0x5AED JUMP JUMPDEST DUP2 ADD SUB SLT PUSH2 0x5DD JUMPI DUP9 SWAP7 DUP8 SWAP4 MLOAD SWAP3 SWAP4 SWAP2 SWAP1 SWAP2 PUSH2 0x759 JUMP JUMPDEST RETURNDATASIZE SWAP2 POP PUSH2 0x887 JUMP JUMPDEST PUSH1 0x40 MLOAD RETURNDATASIZE DUP13 DUP3 RETURNDATACOPY RETURNDATASIZE SWAP1 REVERT JUMPDEST SWAP1 SWAP7 POP PUSH1 0x20 DUP2 RETURNDATASIZE PUSH1 0x20 GT PUSH2 0x8EB JUMPI JUMPDEST DUP2 PUSH2 0x8DA PUSH1 0x20 SWAP4 DUP4 PUSH2 0x5AED JUMP JUMPDEST DUP2 ADD SUB SLT PUSH2 0x5DD JUMPI MLOAD SWAP6 PUSH1 0x20 PUSH2 0x723 JUMP JUMPDEST RETURNDATASIZE SWAP2 POP PUSH2 0x8CD JUMP JUMPDEST PUSH1 0x40 MLOAD RETURNDATASIZE DUP14 DUP3 RETURNDATACOPY RETURNDATASIZE SWAP1 REVERT JUMPDEST DUP2 PUSH2 0x908 SWAP2 PUSH2 0x5AED JUMP JUMPDEST PUSH2 0x913 JUMPI DUP4 PUSH0 PUSH2 0x6A7 JUMP JUMPDEST DUP4 DUP1 REVERT JUMPDEST POP PUSH1 0x2 DUP2 ADD SLOAD PUSH1 0x1 PUSH1 0x1 PUSH1 0xA0 SHL SUB AND CALLER EQ PUSH2 0x653 JUMP JUMPDEST POP CALLVALUE PUSH2 0x59A JUMPI PUSH1 0x40 CALLDATASIZE PUSH1 0x3 NOT ADD SLT PUSH2 0x59A JUMPI PUSH1 0x40 PUSH2 0x949 PUSH2 0x57C8 JUMP JUMPDEST SWAP2 PUSH2 0x952 PUSH2 0x57B2 JUMP JUMPDEST SWAP3 PUSH1 0x1 DUP1 PUSH1 0xA0 SHL SUB AND DUP2 MSTORE PUSH1 0x1 PUSH1 0x20 MSTORE KECCAK256 SWAP1 PUSH1 0x1 DUP1 PUSH1 0xA0 SHL SUB AND PUSH0 MSTORE PUSH1 0x20 MSTORE PUSH1 0x20 PUSH1 0x40 PUSH0 KECCAK256 SLOAD PUSH1 0x40 MLOAD SWAP1 DUP2 MSTORE RETURN JUMPDEST POP CALLVALUE PUSH2 0x59A JUMPI PUSH1 0x40 CALLDATASIZE PUSH1 0x3 NOT ADD SLT PUSH2 0x59A JUMPI PUSH2 0x9DD PUSH1 0x20 SWAP2 PUSH2 0x9A0 PUSH2 0x57C8 JUMP JUMPDEST PUSH1 0x40 PUSH1 0x24 CALLDATALOAD SWAP3 CALLER DUP2 MSTORE PUSH1 0x1 DUP7 MSTORE KECCAK256 PUSH1 0x1 DUP1 PUSH1 0xA0 SHL SUB DUP3 AND PUSH0 MSTORE DUP5 MSTORE PUSH2 0x9CB DUP3 PUSH1 0x40 PUSH0 KECCAK256 SLOAD LT ISZERO PUSH2 0x5A53 JUMP JUMPDEST PUSH2 0x9D6 DUP3 DUP3 CALLER PUSH2 0x6609 JUMP JUMPDEST POP CALLER PUSH2 0x66B0 JUMP JUMPDEST PUSH1 0x40 MLOAD SWAP1 ISZERO ISZERO DUP2 MSTORE RETURN JUMPDEST POP CALLVALUE PUSH2 0x59A JUMPI PUSH1 0x20 CALLDATASIZE PUSH1 0x3 NOT ADD SLT PUSH2 0x59A JUMPI PUSH2 0xA01 PUSH2 0x57C8 JUMP JUMPDEST PUSH2 0xA09 PUSH2 0x6841 JUMP JUMPDEST PUSH1 0x1 PUSH1 0x1 PUSH1 0xA0 SHL SUB AND DUP1 ISZERO PUSH2 0xA59 JUMPI DUP2 SLOAD PUSH1 0x1 PUSH1 0x1 PUSH1 0xA0 SHL SUB NOT DUP2 AND DUP3 OR DUP4 SSTORE PUSH1 0x1 PUSH1 0x1 PUSH1 0xA0 SHL SUB AND PUSH32 0x8BE0079C531659141344CD1FD0A4F28419497F9722A3DAAFE3B4186F6B6457E0 DUP4 DUP1 LOG3 DUP1 RETURN JUMPDEST PUSH4 0x1E4FBDF7 PUSH1 0xE0 SHL DUP3 MSTORE PUSH1 0x4 DUP3 SWAP1 MSTORE PUSH1 0x24 DUP3 REVERT JUMPDEST POP CALLVALUE PUSH2 0x59A JUMPI PUSH2 0xA7C CALLDATASIZE PUSH2 0x588E JUMP JUMPDEST SWAP1 DUP1 DUP4 MSTORE PUSH1 0x4 PUSH1 0x20 MSTORE PUSH1 0x40 DUP4 KECCAK256 SWAP3 PUSH1 0x1 DUP5 ADD SWAP3 PUSH1 0x1 DUP1 PUSH1 0xA0 SHL SUB DUP5 SLOAD AND CALLER EQ DUP1 ISZERO PUSH2 0xC3D JUMPI JUMPDEST PUSH2 0xAAB SWAP1 PUSH2 0x5CEF JUMP JUMPDEST PUSH20 0x0 DUP1 EXTCODESIZE ISZERO PUSH2 0xC39 JUMPI DUP3 PUSH1 0x40 MLOAD DUP1 SWAP3 PUSH4 0x252A867 PUSH1 0xE5 SHL DUP3 MSTORE DUP2 DUP1 PUSH2 0xAE6 DUP12 PUSH1 0x4 DUP4 ADD PUSH2 0x5E2E JUMP JUMPDEST SUB SWAP2 GAS DELEGATECALL DUP1 ISZERO PUSH2 0xC2E JUMPI SWAP1 DUP4 SWAP2 PUSH2 0xC19 JUMPI JUMPDEST POP POP PUSH1 0x5 DUP6 ADD PUSH2 0xB14 DUP3 DUP3 SLOAD PUSH2 0xB0F DUP3 DUP3 LT PUSH2 0x5A53 JUMP JUMPDEST PUSH2 0x5DB4 JUMP JUMPDEST SWAP1 SSTORE PUSH1 0x1 DUP1 PUSH1 0xA0 SHL SUB PUSH1 0x9 DUP7 ADD SLOAD AND SWAP5 PUSH1 0x7 DUP2 ADD SLOAD PUSH1 0x40 MLOAD SWAP1 PUSH4 0x1C8F0847 PUSH1 0xE0 SHL DUP3 MSTORE DUP4 PUSH1 0x4 DUP4 ADD MSTORE PUSH1 0x24 DUP3 ADD MSTORE PUSH1 0x20 DUP2 PUSH1 0x44 DUP2 PUSH20 0x0 GAS DELEGATECALL SWAP4 DUP5 ISZERO PUSH2 0x5A5 JUMPI SWAP4 PUSH2 0xBE3 JUMPI JUMPDEST POP DUP1 SLOAD PUSH0 MLOAD PUSH1 0x20 PUSH2 0x6908 PUSH0 CODECOPY PUSH0 MLOAD SWAP1 PUSH0 MSTORE SWAP4 SWAP2 PUSH2 0x3B3 SWAP2 PUSH2 0xBA1 SWAP1 PUSH1 0x1 PUSH1 0x1 PUSH1 0xA0 SHL SUB AND DUP10 PUSH2 0xB9B DUP7 DUP9 PUSH2 0x5DB4 JUMP JUMPDEST SWAP2 PUSH2 0x66B0 JUMP JUMPDEST POP PUSH2 0xBBA DUP4 PUSH1 0x2 DUP4 ADD SWAP10 PUSH1 0x1 DUP1 PUSH1 0xA0 SHL SUB DUP12 SLOAD AND PUSH2 0x66B0 JUMP JUMPDEST POP SLOAD SWAP6 SLOAD SWAP7 SLOAD PUSH1 0x40 MLOAD PUSH1 0x1 PUSH1 0x1 PUSH1 0xA0 SHL SUB SWAP9 DUP10 AND SWAP9 SWAP8 DUP9 AND SWAP8 SWAP1 SWAP5 DUP6 SWAP5 SWAP3 SWAP1 SWAP2 CALLER SWAP2 AND DUP6 PUSH2 0x5DC1 JUMP JUMPDEST SWAP3 POP PUSH1 0x20 DUP4 RETURNDATASIZE PUSH1 0x20 GT PUSH2 0xC11 JUMPI JUMPDEST DUP2 PUSH2 0xBFE PUSH1 0x20 SWAP4 DUP4 PUSH2 0x5AED JUMP JUMPDEST DUP2 ADD SUB SLT PUSH2 0x5DD JUMPI SWAP2 MLOAD SWAP2 PUSH2 0x3B3 PUSH2 0xB6C JUMP JUMPDEST RETURNDATASIZE SWAP2 POP PUSH2 0xBF1 JUMP JUMPDEST DUP2 PUSH2 0xC23 SWAP2 PUSH2 0x5AED JUMP JUMPDEST PUSH2 0x616 JUMPI DUP2 PUSH0 PUSH2 0xAF8 JUMP JUMPDEST PUSH1 0x40 MLOAD RETURNDATASIZE DUP6 DUP3 RETURNDATACOPY RETURNDATASIZE SWAP1 REVERT JUMPDEST DUP3 DUP1 REVERT JUMPDEST POP PUSH1 0x2 DUP6 ADD SLOAD PUSH1 0x1 PUSH1 0x1 PUSH1 0xA0 SHL SUB AND CALLER EQ PUSH2 0xAA2 JUMP JUMPDEST POP CALLVALUE PUSH2 0x59A JUMPI PUSH1 0x20 CALLDATASIZE PUSH1 0x3 NOT ADD SLT PUSH2 0x59A JUMPI PUSH1 0x40 DUP2 PUSH1 0xE0 SWAP3 PUSH1 0xC0 DUP4 MLOAD PUSH2 0xC78 DUP2 PUSH2 0x5A84 JUMP JUMPDEST DUP3 DUP2 MSTORE DUP3 PUSH1 0x20 DUP3 ADD MSTORE DUP3 DUP6 DUP3 ADD MSTORE DUP3 PUSH1 0x60 DUP3 ADD MSTORE DUP3 PUSH1 0x80 DUP3 ADD MSTORE DUP3 PUSH1 0xA0 DUP3 ADD MSTORE ADD MSTORE PUSH1 0x4 CALLDATALOAD DUP2 MSTORE PUSH1 0x9 PUSH1 0x20 MSTORE KECCAK256 PUSH1 0x40 MLOAD SWAP1 PUSH2 0xCB2 DUP3 PUSH2 0x5A84 JUMP JUMPDEST DUP1 SLOAD DUP3 MSTORE PUSH1 0x2 PUSH1 0x1 DUP3 ADD SLOAD SWAP2 PUSH1 0x20 DUP5 ADD SWAP3 DUP4 MSTORE ADD SLOAD SWAP1 PUSH1 0x40 DUP4 ADD PUSH2 0xCD9 PUSH1 0xFF DUP5 AND DUP3 PUSH2 0x5F45 JUMP JUMPDEST PUSH1 0x60 DUP5 ADD PUSH1 0xFF DUP5 PUSH1 0x8 SHR AND ISZERO ISZERO DUP2 MSTORE PUSH2 0xD32 PUSH1 0x80 DUP7 ADD SWAP3 PUSH1 0xFF DUP7 PUSH1 0x10 SHR AND ISZERO ISZERO DUP5 MSTORE PUSH1 0xA0 DUP8 ADD SWAP5 PUSH1 0xFF DUP8 PUSH1 0x18 SHR AND ISZERO ISZERO DUP7 MSTORE PUSH1 0xFF PUSH1 0xC0 DUP10 ADD SWAP8 PUSH1 0x20 SHR AND ISZERO ISZERO DUP8 MSTORE PUSH1 0x40 MLOAD SWAP8 MLOAD DUP9 MSTORE MLOAD PUSH1 0x20 DUP9 ADD MSTORE MLOAD PUSH1 0x40 DUP8 ADD SWAP1 PUSH2 0x5907 JUMP JUMPDEST MLOAD ISZERO ISZERO PUSH1 0x60 DUP6 ADD MSTORE MLOAD ISZERO ISZERO PUSH1 0x80 DUP5 ADD MSTORE MLOAD ISZERO ISZERO PUSH1 0xA0 DUP4 ADD MSTORE MLOAD ISZERO ISZERO PUSH1 0xC0 DUP3 ADD MSTORE RETURN JUMPDEST POP CALLVALUE PUSH2 0x59A JUMPI DUP1 PUSH1 0x3 NOT CALLDATASIZE ADD SLT PUSH2 0x59A JUMPI PUSH1 0x20 PUSH1 0x6 SLOAD PUSH1 0x40 MLOAD SWAP1 DUP2 MSTORE RETURN JUMPDEST POP CALLVALUE PUSH2 0x59A JUMPI PUSH2 0xD81 CALLDATASIZE PUSH2 0x588E JUMP JUMPDEST SWAP1 DUP1 DUP4 MSTORE PUSH1 0x4 PUSH1 0x20 MSTORE PUSH1 0x40 DUP4 KECCAK256 SWAP3 PUSH1 0x1 DUP5 ADD SWAP3 PUSH1 0x1 DUP1 PUSH1 0xA0 SHL SUB DUP5 SLOAD AND CALLER EQ DUP1 ISZERO PUSH2 0xEE6 JUMPI JUMPDEST PUSH2 0xDB0 SWAP1 PUSH2 0x5CEF JUMP JUMPDEST PUSH20 0x0 DUP1 EXTCODESIZE ISZERO PUSH2 0xC39 JUMPI DUP3 PUSH1 0x40 MLOAD DUP1 SWAP3 PUSH4 0x252A867 PUSH1 0xE5 SHL DUP3 MSTORE DUP2 DUP1 PUSH2 0xDEB DUP12 PUSH1 0x4 DUP4 ADD PUSH2 0x5E2E JUMP JUMPDEST SUB SWAP2 GAS DELEGATECALL DUP1 ISZERO PUSH2 0xC2E JUMPI SWAP1 DUP4 SWAP2 PUSH2 0xED1 JUMPI JUMPDEST POP POP PUSH1 0x6 DUP6 ADD PUSH2 0xE14 DUP3 DUP3 SLOAD PUSH2 0xB0F DUP3 DUP3 LT PUSH2 0x5A53 JUMP JUMPDEST SWAP1 SSTORE PUSH1 0x1 DUP1 PUSH1 0xA0 SHL SUB PUSH1 0xA DUP7 ADD SLOAD AND SWAP5 PUSH1 0x8 DUP2 ADD SLOAD PUSH1 0x40 MLOAD SWAP1 PUSH4 0x1C8F0847 PUSH1 0xE0 SHL DUP3 MSTORE DUP4 PUSH1 0x4 DUP4 ADD MSTORE PUSH1 0x24 DUP3 ADD MSTORE PUSH1 0x20 DUP2 PUSH1 0x44 DUP2 PUSH20 0x0 GAS DELEGATECALL SWAP4 DUP5 ISZERO PUSH2 0x5A5 JUMPI SWAP4 PUSH2 0xE9B JUMPI JUMPDEST POP DUP1 SLOAD PUSH0 MLOAD PUSH1 0x20 PUSH2 0x6888 PUSH0 CODECOPY PUSH0 MLOAD SWAP1 PUSH0 MSTORE SWAP4 SWAP2 PUSH2 0x3B3 SWAP2 PUSH2 0xBA1 SWAP1 PUSH1 0x1 PUSH1 0x1 PUSH1 0xA0 SHL SUB AND DUP10 PUSH2 0xB9B DUP7 DUP9 PUSH2 0x5DB4 JUMP JUMPDEST SWAP3 POP PUSH1 0x20 DUP4 RETURNDATASIZE PUSH1 0x20 GT PUSH2 0xEC9 JUMPI JUMPDEST DUP2 PUSH2 0xEB6 PUSH1 0x20 SWAP4 DUP4 PUSH2 0x5AED JUMP JUMPDEST DUP2 ADD SUB SLT PUSH2 0x5DD JUMPI SWAP2 MLOAD SWAP2 PUSH2 0x3B3 PUSH2 0xE6C JUMP JUMPDEST RETURNDATASIZE SWAP2 POP PUSH2 0xEA9 JUMP JUMPDEST DUP2 PUSH2 0xEDB SWAP2 PUSH2 0x5AED JUMP JUMPDEST PUSH2 0x616 JUMPI DUP2 PUSH0 PUSH2 0xDFD JUMP JUMPDEST POP PUSH1 0x2 DUP6 ADD SLOAD PUSH1 0x1 PUSH1 0x1 PUSH1 0xA0 SHL SUB AND CALLER EQ PUSH2 0xDA7 JUMP JUMPDEST POP PUSH2 0xF06 CALLDATASIZE PUSH2 0x57DE JUMP JUMPDEST SWAP2 SWAP1 SWAP5 SWAP3 DUP9 SWAP5 DUP11 SWAP9 SWAP8 SWAP11 SWAP5 DUP13 PUSH1 0x40 PUSH1 0xFF DUP3 SLOAD PUSH1 0xA0 SHR AND SWAP2 PUSH2 0xF26 DUP4 PUSH2 0x5A22 JUMP JUMPDEST CALLER DUP2 MSTORE PUSH1 0x1 PUSH1 0x20 MSTORE KECCAK256 PUSH1 0x1 DUP1 PUSH1 0xA0 SHL SUB DUP6 AND PUSH0 MSTORE PUSH1 0x20 MSTORE PUSH1 0x40 PUSH0 KECCAK256 SLOAD DUP11 DUP2 LT PUSH2 0x123B JUMPI JUMPDEST POP POP SWAP2 PUSH2 0xF97 SWAP5 SWAP4 SWAP2 PUSH2 0x220 SWAP9 SWAP4 PUSH2 0xF63 DUP12 DUP5 CALLER PUSH2 0x6609 JUMP JUMPDEST POP PUSH1 0x40 MLOAD PUSH4 0x652E83D7 PUSH1 0xE0 SHL DUP2 MSTORE PUSH20 0x0 SWAP15 SWAP1 SWAP12 DUP13 SWAP11 DUP12 SWAP11 CALLER PUSH1 0x4 DUP14 ADD PUSH2 0x5C49 JUMP JUMPDEST SUB DUP2 DUP8 GAS DELEGATECALL SWAP1 DUP2 ISZERO PUSH2 0x1201 JUMPI DUP6 SWAP2 PUSH2 0x120C JUMPI JUMPDEST POP PUSH1 0x20 PUSH1 0x5 SLOAD PUSH2 0x244 PUSH1 0x40 MLOAD DUP1 SWAP8 DUP2 SWAP4 PUSH4 0x797D4EE1 PUSH1 0xE0 SHL DUP4 MSTORE PUSH2 0xFD1 PUSH1 0x4 DUP5 ADD DUP9 PUSH2 0x5914 JUMP JUMPDEST PUSH2 0x224 DUP4 ADD MSTORE GAS DELEGATECALL SWAP4 DUP5 ISZERO PUSH2 0x1201 JUMPI DUP6 SWAP5 PUSH2 0x11CD JUMPI JUMPDEST POP PUSH2 0xFF3 PUSH1 0x5 SLOAD PUSH2 0x5CB5 JUMP JUMPDEST PUSH1 0x5 SSTORE DUP4 DUP6 MSTORE PUSH1 0x4 PUSH1 0x20 SWAP1 DUP2 MSTORE PUSH1 0x40 DUP1 DUP8 KECCAK256 DUP4 MLOAD DUP2 SLOAD PUSH1 0x1 PUSH1 0x1 PUSH1 0xA0 SHL SUB SWAP2 DUP3 AND PUSH1 0x1 PUSH1 0x1 PUSH1 0xA0 SHL SUB NOT SWAP2 DUP3 AND OR DUP4 SSTORE SWAP4 DUP6 ADD MLOAD PUSH1 0x1 DUP4 ADD DUP1 SLOAD SWAP2 DUP4 AND SWAP2 SWAP1 SWAP6 AND OR SWAP1 SWAP4 SSTORE SWAP1 DUP4 ADD MLOAD PUSH1 0x2 DUP3 ADD DUP1 SLOAD PUSH1 0x60 DUP7 ADD MLOAD PUSH1 0xFF PUSH1 0xA0 SHL SWAP1 ISZERO ISZERO PUSH1 0xA0 SHL AND SWAP3 SWAP1 SWAP5 AND PUSH1 0x1 PUSH1 0x1 PUSH1 0xA8 SHL SUB NOT SWAP1 SWAP5 AND SWAP4 SWAP1 SWAP4 OR OR DUP3 SSTORE SWAP2 PUSH2 0x200 SWAP2 PUSH2 0x10CD SWAP1 JUMPDEST PUSH1 0x80 DUP4 ADD MLOAD DUP2 SLOAD PUSH1 0xFF PUSH1 0xA8 SHL NOT AND SWAP1 ISZERO ISZERO PUSH1 0xA8 SHL PUSH1 0xFF PUSH1 0xA8 SHL AND OR DUP2 SSTORE PUSH1 0xA0 DUP4 ADD MLOAD DUP2 SLOAD PUSH1 0xFF PUSH1 0xB0 SHL NOT AND SWAP1 ISZERO ISZERO PUSH1 0xB0 SHL PUSH1 0xFF PUSH1 0xB0 SHL AND OR DUP2 SSTORE PUSH1 0xC0 DUP4 ADD MLOAD DUP2 SLOAD PUSH1 0xFF PUSH1 0xB8 SHL NOT AND SWAP1 ISZERO ISZERO PUSH1 0xB8 SHL PUSH1 0xFF PUSH1 0xB8 SHL AND OR SWAP1 SSTORE JUMP JUMPDEST PUSH1 0xE0 DUP2 ADD MLOAD PUSH1 0x3 DUP5 ADD SSTORE PUSH2 0x100 DUP2 ADD MLOAD PUSH1 0x4 DUP5 ADD SSTORE PUSH2 0x120 DUP2 ADD MLOAD PUSH1 0x5 DUP5 ADD SSTORE PUSH2 0x140 DUP2 ADD MLOAD PUSH1 0x6 DUP1 DUP6 ADD SWAP2 SWAP1 SWAP2 SSTORE PUSH2 0x160 DUP3 ADD MLOAD PUSH1 0x7 DUP6 ADD SSTORE PUSH2 0x180 DUP3 ADD MLOAD PUSH1 0x8 DUP6 ADD SSTORE PUSH2 0x1A0 DUP3 ADD MLOAD PUSH1 0x9 DUP6 ADD DUP1 SLOAD PUSH1 0x1 PUSH1 0x1 PUSH1 0xA0 SHL SUB SWAP3 DUP4 AND PUSH1 0x1 PUSH1 0x1 PUSH1 0xA0 SHL SUB NOT SWAP2 DUP3 AND OR SWAP1 SWAP2 SSTORE PUSH2 0x1C0 DUP5 ADD MLOAD PUSH1 0xA DUP8 ADD DUP1 SLOAD SWAP2 SWAP1 SWAP4 AND SWAP2 AND OR SWAP1 SSTORE PUSH2 0x1E0 DUP3 ADD MLOAD PUSH1 0xB DUP6 ADD SSTORE SWAP2 ADD MLOAD SWAP6 SWAP1 DUP7 LT ISZERO PUSH2 0x11B9 JUMPI POP PUSH1 0x20 SWAP5 PUSH1 0xC PUSH2 0x1175 SWAP3 ADD PUSH2 0x5CD7 JUMP JUMPDEST PUSH1 0x40 MLOAD PUSH1 0x1 PUSH1 0x1 PUSH1 0xA0 SHL SUB SWAP3 DUP4 AND DUP2 MSTORE SWAP2 AND SWAP1 CALLER SWAP1 DUP4 SWAP1 PUSH32 0x44E1FF8E67FAD6B456BD43FF165BA4E9BB004370AA27A76881C6ACB60DFD6DD9 SWAP1 DUP7 SWAP1 LOG4 PUSH1 0x40 MLOAD SWAP1 DUP2 MSTORE RETURN JUMPDEST PUSH4 0x4E487B71 PUSH1 0xE0 SHL DUP2 MSTORE PUSH1 0x21 PUSH1 0x4 MSTORE PUSH1 0x24 SWAP1 REVERT JUMPDEST SWAP1 SWAP4 POP PUSH1 0x20 DUP2 RETURNDATASIZE PUSH1 0x20 GT PUSH2 0x11F9 JUMPI JUMPDEST DUP2 PUSH2 0x11E9 PUSH1 0x20 SWAP4 DUP4 PUSH2 0x5AED JUMP JUMPDEST DUP2 ADD SUB SLT PUSH2 0x5DD JUMPI MLOAD SWAP3 PUSH0 PUSH2 0xFE7 JUMP JUMPDEST RETURNDATASIZE SWAP2 POP PUSH2 0x11DC JUMP JUMPDEST PUSH1 0x40 MLOAD RETURNDATASIZE DUP8 DUP3 RETURNDATACOPY RETURNDATASIZE SWAP1 REVERT JUMPDEST PUSH2 0x122E SWAP2 POP PUSH2 0x220 RETURNDATASIZE DUP2 GT PUSH2 0x1234 JUMPI JUMPDEST PUSH2 0x1226 DUP2 DUP4 PUSH2 0x5AED JUMP JUMPDEST DUP2 ADD SWAP1 PUSH2 0x5B30 JUMP JUMPDEST PUSH0 PUSH2 0xFAA JUMP JUMPDEST POP RETURNDATASIZE PUSH2 0x121C JUMP JUMPDEST PUSH2 0x1258 SWAP3 SWAP10 SWAP5 SWAP7 SWAP6 SWAP4 SWAP9 POP PUSH2 0x1252 SWAP2 SWAP8 POP DUP11 PUSH2 0x5DB4 JUMP JUMPDEST SWAP6 PUSH2 0x5A22 JUMP JUMPDEST PUSH2 0x1263 DUP6 ISZERO ISZERO PUSH2 0x5F82 JUMP JUMPDEST PUSH1 0x2 SLOAD SWAP4 PUSH1 0x40 MLOAD SWAP5 PUSH4 0x1C8F0847 PUSH1 0xE0 SHL DUP7 MSTORE DUP7 PUSH1 0x4 DUP8 ADD MSTORE PUSH1 0x24 DUP7 ADD MSTORE PUSH1 0x20 DUP6 PUSH1 0x44 DUP2 PUSH20 0x0 GAS DELEGATECALL SWAP5 DUP6 ISZERO PUSH2 0x141C JUMPI DUP14 SWAP6 PUSH2 0x13E8 JUMPI JUMPDEST POP PUSH1 0x1 PUSH1 0x1 PUSH1 0xA0 SHL SUB DUP2 AND SWAP7 DUP8 PUSH2 0x132A JUMPI PUSH2 0x12C6 DUP7 DUP9 PUSH2 0x601B JUMP JUMPDEST CALLVALUE SUB PUSH2 0x498 JUMPI PUSH2 0x220 SWAP9 DUP13 SWAP9 DUP9 PUSH2 0xF97 SWAP9 PUSH2 0x12E3 DUP16 SWAP12 DUP8 CALLER PUSH2 0x67E6 JUMP JUMPDEST POP PUSH1 0x3 SLOAD PUSH2 0x12FD SWAP1 DUP3 SWAP1 DUP9 SWAP1 PUSH1 0x1 PUSH1 0x1 PUSH1 0xA0 SHL SUB AND PUSH2 0x67E6 JUMP JUMPDEST POP JUMPDEST PUSH1 0x40 MLOAD SWAP2 DUP3 MSTORE PUSH1 0x20 DUP3 ADD MSTORE PUSH0 MLOAD PUSH1 0x20 PUSH2 0x6948 PUSH0 CODECOPY PUSH0 MLOAD SWAP1 PUSH0 MSTORE PUSH1 0x40 CALLER SWAP3 LOG3 SWAP2 SWAP4 SWAP9 DUP2 SWAP4 SWAP6 SWAP7 POP PUSH2 0xF4A JUMP JUMPDEST DUP14 DUP1 PUSH1 0x20 DUP11 PUSH1 0x64 PUSH2 0x133B DUP12 DUP14 PUSH2 0x601B JUMP JUMPDEST PUSH1 0x40 MLOAD SWAP5 DUP6 SWAP4 DUP5 SWAP3 PUSH4 0x23B872DD PUSH1 0xE0 SHL DUP5 MSTORE CALLER PUSH1 0x4 DUP6 ADD MSTORE ADDRESS PUSH1 0x24 DUP6 ADD MSTORE PUSH1 0x44 DUP5 ADD MSTORE GAS CALL SWAP2 DUP3 ISZERO PUSH2 0x5A5 JUMPI SWAP2 PUSH2 0x13AA JUMPI JUMPDEST POP ISZERO PUSH2 0x53B JUMPI PUSH2 0x220 SWAP9 DUP13 SWAP9 DUP9 PUSH2 0xF97 SWAP9 PUSH2 0x138A DUP16 SWAP12 DUP8 CALLER PUSH2 0x67E6 JUMP JUMPDEST POP PUSH1 0x3 SLOAD PUSH2 0x13A4 SWAP1 DUP3 SWAP1 DUP9 SWAP1 PUSH1 0x1 PUSH1 0x1 PUSH1 0xA0 SHL SUB AND PUSH2 0x67E6 JUMP JUMPDEST POP PUSH2 0x12FF JUMP JUMPDEST SWAP1 POP PUSH1 0x20 DUP2 RETURNDATASIZE PUSH1 0x20 GT PUSH2 0x13E0 JUMPI JUMPDEST DUP2 PUSH2 0x13C5 PUSH1 0x20 SWAP4 DUP4 PUSH2 0x5AED JUMP JUMPDEST DUP2 ADD SUB SLT PUSH2 0x13DC JUMPI PUSH2 0x13D6 SWAP1 PUSH2 0x5B23 JUMP JUMPDEST PUSH0 PUSH2 0x136D JUMP JUMPDEST DUP15 DUP1 REVERT JUMPDEST RETURNDATASIZE SWAP2 POP PUSH2 0x13B8 JUMP JUMPDEST SWAP1 SWAP5 POP PUSH1 0x20 DUP2 RETURNDATASIZE PUSH1 0x20 GT PUSH2 0x1414 JUMPI JUMPDEST DUP2 PUSH2 0x1404 PUSH1 0x20 SWAP4 DUP4 PUSH2 0x5AED JUMP JUMPDEST DUP2 ADD SUB SLT PUSH2 0x5DD JUMPI MLOAD SWAP4 PUSH0 PUSH2 0x12AB JUMP JUMPDEST RETURNDATASIZE SWAP2 POP PUSH2 0x13F7 JUMP JUMPDEST PUSH1 0x40 MLOAD RETURNDATASIZE DUP16 DUP3 RETURNDATACOPY RETURNDATASIZE SWAP1 REVERT JUMPDEST POP CALLVALUE PUSH2 0x59A JUMPI PUSH1 0x40 CALLDATASIZE PUSH1 0x3 NOT ADD SLT PUSH2 0x59A JUMPI PUSH1 0x20 SWAP1 PUSH1 0x4 CALLDATALOAD PUSH2 0x1447 PUSH2 0x57B2 JUMP JUMPDEST SWAP1 DUP1 DUP4 MSTORE PUSH1 0x4 DUP5 MSTORE PUSH2 0x149B PUSH1 0x40 DUP5 KECCAK256 SWAP3 PUSH1 0x1 DUP1 PUSH1 0xA0 SHL SUB DUP5 SLOAD AND CALLER EQ DUP1 ISZERO PUSH2 0x158E JUMPI JUMPDEST PUSH2 0x1473 SWAP1 PUSH2 0x5CEF JUMP JUMPDEST PUSH1 0x1 PUSH1 0x1 PUSH1 0xA0 SHL SUB AND SWAP3 PUSH2 0x1488 DUP5 ISZERO ISZERO PUSH2 0x5F51 JUMP JUMPDEST PUSH1 0x2 ADD SLOAD PUSH1 0x1 PUSH1 0x1 PUSH1 0xA0 SHL SUB AND ISZERO PUSH2 0x608C JUMP JUMPDEST PUSH2 0x154E PUSH1 0x40 MLOAD PUSH2 0x14AA DUP2 PUSH2 0x5AD1 JUMP JUMPDEST DUP3 DUP2 MSTORE DUP6 DUP2 ADD DUP5 DUP2 MSTORE PUSH1 0x40 DUP1 DUP4 ADD DUP8 DUP2 MSTORE PUSH1 0x60 DUP5 ADD DUP9 DUP2 MSTORE PUSH1 0x80 DUP6 ADD DUP10 DUP2 MSTORE PUSH1 0x8 SLOAD DUP1 DUP12 MSTORE PUSH1 0xA DUP13 MSTORE SWAP4 SWAP1 SWAP10 KECCAK256 SWAP5 MLOAD DUP6 SSTORE SWAP3 MLOAD PUSH1 0x1 SWAP5 SWAP1 SWAP5 ADD DUP1 SLOAD SWAP2 MLOAD PUSH1 0x1 PUSH1 0x1 PUSH1 0xA8 SHL SUB NOT SWAP1 SWAP3 AND PUSH1 0x1 PUSH1 0x1 PUSH1 0xA0 SHL SUB SWAP6 SWAP1 SWAP6 AND SWAP5 SWAP1 SWAP5 OR SWAP1 ISZERO ISZERO PUSH1 0xA0 SHL PUSH1 0xFF PUSH1 0xA0 SHL AND OR DUP4 SSTORE SWAP6 SWAP1 PUSH2 0x1533 SWAP1 MLOAD DUP4 SLOAD PUSH1 0xFF PUSH1 0xA8 SHL NOT AND SWAP1 ISZERO ISZERO PUSH1 0xA8 SHL PUSH1 0xFF PUSH1 0xA8 SHL AND OR DUP4 SSTORE JUMP JUMPDEST MLOAD DUP2 SLOAD PUSH1 0xFF PUSH1 0xB0 SHL NOT AND SWAP1 ISZERO ISZERO PUSH1 0xB0 SHL PUSH1 0xFF PUSH1 0xB0 SHL AND OR SWAP1 SSTORE JUMP JUMPDEST PUSH2 0x1559 PUSH1 0x8 SLOAD PUSH2 0x5CB5 JUMP JUMPDEST PUSH1 0x8 SSTORE DUP3 PUSH32 0x3E168088DA33D5AB18321345A864B58812F451C892EE951F8F70B5BEAD045B69 DUP6 PUSH1 0x40 MLOAD CALLER DUP2 MSTORE LOG4 PUSH1 0x40 MLOAD SWAP1 DUP2 MSTORE RETURN JUMPDEST POP PUSH1 0x1 DUP5 ADD SLOAD PUSH1 0x1 PUSH1 0x1 PUSH1 0xA0 SHL SUB AND CALLER EQ PUSH2 0x146A JUMP JUMPDEST POP CALLVALUE PUSH2 0x59A JUMPI PUSH2 0x15B3 CALLDATASIZE PUSH2 0x588E JUMP JUMPDEST SWAP2 SWAP1 DUP1 DUP3 MSTORE PUSH1 0x4 PUSH1 0x20 MSTORE PUSH1 0x40 DUP3 KECCAK256 SWAP3 PUSH1 0x1 DUP5 ADD SWAP3 PUSH2 0x15DB PUSH1 0x1 DUP1 PUSH1 0xA0 SHL SUB DUP6 SLOAD AND CALLER EQ PUSH2 0x5CEF JUMP JUMPDEST PUSH20 0x0 DUP1 EXTCODESIZE ISZERO PUSH2 0x616 JUMPI DUP2 PUSH1 0x40 MLOAD DUP1 SWAP3 PUSH4 0x252A867 PUSH1 0xE5 SHL DUP3 MSTORE DUP2 DUP1 PUSH2 0x1616 DUP12 PUSH1 0x4 DUP4 ADD PUSH2 0x5E2E JUMP JUMPDEST SUB SWAP2 GAS DELEGATECALL DUP1 ISZERO PUSH2 0x60B JUMPI PUSH2 0x16AB JUMPI JUMPDEST POP POP PUSH1 0xA DUP5 ADD SLOAD PUSH0 MLOAD PUSH1 0x20 PUSH2 0x68E8 PUSH0 CODECOPY PUSH0 MLOAD SWAP1 PUSH0 MSTORE SWAP2 SWAP1 PUSH2 0x1666 SWAP1 DUP3 SWAP1 PUSH1 0x1 PUSH1 0x1 PUSH1 0xA0 SHL SUB AND PUSH2 0x1660 DUP3 PUSH2 0x1659 DUP4 CALLER PUSH2 0x65E0 JUMP JUMPDEST LT ISZERO PUSH2 0x5A53 JUMP JUMPDEST CALLER PUSH2 0x6609 JUMP JUMPDEST POP PUSH1 0x6 DUP6 ADD PUSH2 0x1676 DUP3 DUP3 SLOAD PUSH2 0x601B JUMP JUMPDEST SWAP1 SSTORE DUP5 SLOAD SWAP4 SLOAD PUSH1 0x2 SWAP1 SWAP6 ADD SLOAD PUSH1 0x40 DUP1 MLOAD PUSH1 0x1 PUSH1 0x1 PUSH1 0xA0 SHL SUB SWAP3 DUP4 AND DUP2 MSTORE PUSH1 0x20 DUP2 ADD SWAP4 SWAP1 SWAP4 MSTORE SWAP6 DUP2 AND SWAP6 SWAP5 AND SWAP4 DUP2 SWAP1 DUP2 ADD PUSH2 0x3B3 JUMP JUMPDEST PUSH2 0x16B6 DUP3 DUP1 SWAP3 PUSH2 0x5AED JUMP JUMPDEST PUSH2 0x59A JUMPI DUP1 PUSH2 0x1625 JUMP JUMPDEST POP CALLVALUE PUSH2 0x59A JUMPI PUSH1 0x20 CALLDATASIZE PUSH1 0x3 NOT ADD SLT PUSH2 0x59A JUMPI PUSH1 0x40 PUSH1 0xE0 SWAP2 PUSH1 0x4 CALLDATALOAD DUP2 MSTORE PUSH1 0x9 PUSH1 0x20 MSTORE KECCAK256 PUSH1 0xFF DUP2 SLOAD SWAP2 PUSH1 0x2 PUSH1 0x1 DUP3 ADD SLOAD SWAP2 ADD SLOAD SWAP1 PUSH1 0x40 MLOAD SWAP4 DUP5 MSTORE PUSH1 0x20 DUP5 ADD MSTORE PUSH2 0x170C PUSH1 0x40 DUP5 ADD DUP4 DUP4 AND PUSH2 0x5907 JUMP JUMPDEST DUP2 DUP2 PUSH1 0x8 SHR AND ISZERO ISZERO PUSH1 0x60 DUP5 ADD MSTORE DUP2 DUP2 PUSH1 0x10 SHR AND ISZERO ISZERO PUSH1 0x80 DUP5 ADD MSTORE DUP2 DUP2 PUSH1 0x18 SHR AND ISZERO ISZERO PUSH1 0xA0 DUP5 ADD MSTORE PUSH1 0x20 SHR AND ISZERO ISZERO PUSH1 0xC0 DUP3 ADD MSTORE RETURN JUMPDEST POP CALLVALUE PUSH2 0x59A JUMPI PUSH1 0x60 CALLDATASIZE PUSH1 0x3 NOT ADD SLT PUSH2 0x59A JUMPI PUSH2 0x175A PUSH2 0x57C8 JUMP JUMPDEST SWAP1 PUSH2 0x1763 PUSH2 0x57B2 JUMP JUMPDEST PUSH1 0x40 PUSH1 0x44 CALLDATALOAD SWAP4 CALLER DUP5 MSTORE PUSH1 0x1 PUSH1 0x20 MSTORE DUP2 DUP5 KECCAK256 PUSH1 0x1 DUP1 PUSH1 0xA0 SHL SUB DUP5 AND PUSH0 MSTORE PUSH1 0x20 MSTORE PUSH2 0x1791 DUP6 DUP4 PUSH0 KECCAK256 SLOAD LT ISZERO PUSH2 0x5A53 JUMP JUMPDEST CALLER DUP5 MSTORE PUSH1 0x1 PUSH1 0x20 MSTORE DUP2 DUP5 KECCAK256 PUSH1 0x1 DUP1 PUSH1 0xA0 SHL SUB DUP5 AND PUSH0 MSTORE PUSH1 0x20 MSTORE DUP2 PUSH0 KECCAK256 PUSH2 0x17B8 DUP7 DUP3 SLOAD PUSH2 0x5DB4 JUMP JUMPDEST SWAP1 SSTORE PUSH1 0x1 DUP1 PUSH1 0xA0 SHL SUB AND SWAP3 DUP4 DUP2 MSTORE PUSH1 0x1 PUSH1 0x20 MSTORE KECCAK256 PUSH1 0x1 DUP1 PUSH1 0xA0 SHL SUB DUP3 AND PUSH0 MSTORE PUSH1 0x20 MSTORE PUSH1 0x40 PUSH0 KECCAK256 PUSH2 0x17E9 DUP5 DUP3 SLOAD PUSH2 0x601B JUMP JUMPDEST SWAP1 SSTORE PUSH1 0x40 MLOAD SWAP3 DUP4 MSTORE PUSH1 0x1 PUSH1 0x1 PUSH1 0xA0 SHL SUB AND SWAP2 CALLER SWAP1 PUSH32 0xD1398BEE19313D6BF672CCB116E51F4A1A947E91C757907F51FBB5B5E56C698F SWAP1 PUSH1 0x20 SWAP1 LOG4 PUSH1 0x20 PUSH1 0x40 MLOAD PUSH1 0x1 DUP2 MSTORE RETURN JUMPDEST POP PUSH1 0x20 CALLDATASIZE PUSH1 0x3 NOT ADD SLT PUSH2 0x59A JUMPI PUSH1 0x4 CALLDATALOAD DUP1 DUP3 MSTORE PUSH1 0x4 PUSH1 0x20 MSTORE PUSH1 0x40 DUP3 KECCAK256 SWAP2 PUSH1 0x1 DUP4 ADD SWAP3 PUSH2 0x1864 PUSH1 0x1 DUP1 PUSH1 0xA0 SHL SUB DUP6 SLOAD AND CALLER EQ PUSH2 0x5CEF JUMP JUMPDEST PUSH1 0x2 DUP2 ADD SWAP2 PUSH2 0x18A2 DUP4 SLOAD PUSH2 0x187D PUSH1 0xFF DUP3 PUSH1 0xB0 SHR AND PUSH2 0x6028 JUMP JUMPDEST PUSH2 0x188D PUSH1 0xFF DUP3 PUSH1 0xB8 SHR AND ISZERO PUSH2 0x605A JUMP JUMPDEST PUSH1 0xFF DUP2 PUSH1 0xA0 SHR AND ISZERO SWAP1 DUP2 PUSH2 0x1B40 JUMPI JUMPDEST POP PUSH2 0x5D51 JUMP JUMPDEST PUSH1 0xA DUP3 ADD DUP1 SLOAD PUSH1 0x1 PUSH1 0x1 PUSH1 0xA0 SHL SUB AND PUSH2 0x18BB DUP2 CALLER PUSH2 0x65E0 JUMP JUMPDEST PUSH1 0x6 DUP6 ADD SLOAD DUP2 LT PUSH2 0x1980 JUMPI JUMPDEST POP POP SLOAD PUSH1 0x4 DUP4 ADD SLOAD PUSH2 0x18E4 SWAP3 POP SWAP1 PUSH1 0x1 PUSH1 0x1 PUSH1 0xA0 SHL SUB AND CALLER PUSH2 0x6609 JUMP JUMPDEST POP DUP2 SLOAD PUSH1 0x1 PUSH1 0xB8 SHL PUSH1 0xFF PUSH1 0xB8 SHL NOT DUP3 AND OR SWAP1 SWAP3 SSTORE SLOAD SWAP3 SLOAD PUSH1 0x40 MLOAD PUSH1 0x1 PUSH1 0x1 PUSH1 0xA0 SHL SUB SWAP3 DUP4 AND DUP1 DUP3 MSTORE SWAP5 SWAP2 DUP4 AND SWAP3 SWAP1 SWAP2 AND SWAP1 DUP4 SWAP1 PUSH32 0x5E02698C1650D6CBE1F7E8A48609D0DA45AD7F5E4C13CD8B196F82965C0AB0D5 SWAP1 PUSH1 0x20 SWAP1 LOG4 DUP2 PUSH2 0x194E JUMPI JUMPDEST PUSH1 0x20 PUSH1 0x40 MLOAD PUSH1 0x1 DUP2 MSTORE RETURN JUMPDEST PUSH1 0x20 PUSH32 0x957372C0E02D2882134CC0EEBBEF9E446634D8CCBB1CBB112BDEFDD3CF0A643C SWAP2 PUSH1 0x40 MLOAD SWAP1 DUP2 MSTORE LOG2 PUSH0 DUP1 PUSH2 0x1943 JUMP JUMPDEST PUSH2 0x198E SWAP1 PUSH1 0x4 DUP7 ADD SLOAD PUSH2 0x5DB4 JUMP JUMPDEST PUSH2 0x199E PUSH1 0xFF DUP6 SLOAD PUSH1 0xA0 SHR AND PUSH2 0x5A22 JUMP JUMPDEST PUSH2 0x19A9 DUP2 ISZERO ISZERO PUSH2 0x5F82 JUMP JUMPDEST PUSH1 0x2 SLOAD SWAP4 PUSH1 0x40 MLOAD SWAP5 PUSH4 0x1C8F0847 PUSH1 0xE0 SHL DUP7 MSTORE DUP3 PUSH1 0x4 DUP8 ADD MSTORE PUSH1 0x24 DUP7 ADD MSTORE PUSH1 0x20 DUP6 PUSH1 0x44 DUP2 PUSH20 0x0 GAS DELEGATECALL SWAP5 DUP6 ISZERO PUSH2 0x5E9 JUMPI DUP2 SWAP6 PUSH2 0x1B0C JUMPI JUMPDEST POP DUP3 PUSH2 0x1A58 JUMPI POP PUSH2 0x1A02 DUP5 DUP3 PUSH2 0x601B JUMP JUMPDEST CALLVALUE SUB PUSH2 0x498 JUMPI PUSH2 0x18E4 SWAP4 PUSH2 0x1A17 DUP3 DUP5 CALLER PUSH2 0x67E6 JUMP JUMPDEST POP PUSH1 0x3 SLOAD PUSH2 0x1A31 SWAP1 DUP3 SWAP1 DUP6 SWAP1 PUSH1 0x1 PUSH1 0x1 PUSH1 0xA0 SHL SUB AND PUSH2 0x67E6 JUMP JUMPDEST POP JUMPDEST PUSH1 0x40 MLOAD SWAP2 DUP3 MSTORE PUSH1 0x20 DUP3 ADD MSTORE PUSH0 MLOAD PUSH1 0x20 PUSH2 0x6948 PUSH0 CODECOPY PUSH0 MLOAD SWAP1 PUSH0 MSTORE PUSH1 0x40 CALLER SWAP3 LOG3 PUSH0 DUP1 PUSH2 0x18C7 JUMP JUMPDEST PUSH2 0x1A62 DUP6 DUP4 PUSH2 0x601B JUMP JUMPDEST PUSH1 0x40 MLOAD SWAP1 PUSH4 0x23B872DD PUSH1 0xE0 SHL DUP3 MSTORE CALLER PUSH1 0x4 DUP4 ADD MSTORE ADDRESS PUSH1 0x24 DUP4 ADD MSTORE PUSH1 0x44 DUP3 ADD MSTORE PUSH1 0x20 DUP2 PUSH1 0x64 DUP2 DUP6 DUP9 GAS CALL SWAP2 DUP3 ISZERO PUSH2 0x5A5 JUMPI DUP1 SWAP3 PUSH2 0x1ACF JUMPI JUMPDEST POP POP ISZERO PUSH2 0x53B JUMPI PUSH2 0x18E4 SWAP4 PUSH2 0x1AAF DUP3 DUP5 CALLER PUSH2 0x67E6 JUMP JUMPDEST POP PUSH1 0x3 SLOAD PUSH2 0x1AC9 SWAP1 DUP3 SWAP1 DUP6 SWAP1 PUSH1 0x1 PUSH1 0x1 PUSH1 0xA0 SHL SUB AND PUSH2 0x67E6 JUMP JUMPDEST POP PUSH2 0x1A33 JUMP JUMPDEST SWAP1 SWAP2 POP PUSH1 0x20 DUP3 RETURNDATASIZE PUSH1 0x20 GT PUSH2 0x1B04 JUMPI JUMPDEST DUP2 PUSH2 0x1AEB PUSH1 0x20 SWAP4 DUP4 PUSH2 0x5AED JUMP JUMPDEST DUP2 ADD SUB SLT PUSH2 0x59A JUMPI POP PUSH2 0x1AFD SWAP1 PUSH2 0x5B23 JUMP JUMPDEST PUSH0 DUP1 PUSH2 0x1A99 JUMP JUMPDEST RETURNDATASIZE SWAP2 POP PUSH2 0x1ADE JUMP JUMPDEST SWAP1 SWAP5 POP PUSH1 0x20 DUP2 RETURNDATASIZE PUSH1 0x20 GT PUSH2 0x1B38 JUMPI JUMPDEST DUP2 PUSH2 0x1B28 PUSH1 0x20 SWAP4 DUP4 PUSH2 0x5AED JUMP JUMPDEST DUP2 ADD SUB SLT PUSH2 0x5DD JUMPI MLOAD SWAP4 PUSH0 PUSH2 0x19F1 JUMP JUMPDEST RETURNDATASIZE SWAP2 POP PUSH2 0x1B1B JUMP JUMPDEST PUSH1 0xFF SWAP2 POP PUSH1 0xA8 SHR AND ISZERO PUSH0 PUSH2 0x189C JUMP JUMPDEST POP CALLVALUE PUSH2 0x59A JUMPI PUSH1 0x20 CALLDATASIZE PUSH1 0x3 NOT ADD SLT PUSH2 0x59A JUMPI PUSH1 0x40 DUP2 PUSH1 0xA0 SWAP3 PUSH1 0x80 DUP4 MLOAD PUSH2 0x1B74 DUP2 PUSH2 0x5AD1 JUMP JUMPDEST DUP3 DUP2 MSTORE DUP3 PUSH1 0x20 DUP3 ADD MSTORE DUP3 DUP6 DUP3 ADD MSTORE DUP3 PUSH1 0x60 DUP3 ADD MSTORE ADD MSTORE PUSH1 0x4 CALLDATALOAD DUP2 MSTORE PUSH1 0xA PUSH1 0x20 MSTORE KECCAK256 PUSH1 0x40 MLOAD PUSH2 0x1BA1 DUP2 PUSH2 0x5AD1 JUMP JUMPDEST PUSH1 0x1 DUP3 SLOAD SWAP3 DUP4 DUP4 MSTORE ADD SLOAD SWAP1 PUSH1 0x20 DUP2 ADD PUSH1 0x1 DUP1 DUP7 SHL SUB DUP4 AND DUP2 MSTORE PUSH1 0x40 DUP3 ADD SWAP1 PUSH1 0xFF DUP5 DUP8 SHR AND ISZERO ISZERO DUP3 MSTORE PUSH1 0xFF PUSH1 0x80 PUSH1 0x60 DUP6 ADD SWAP5 DUP3 DUP8 PUSH1 0xA8 SHR AND ISZERO ISZERO DUP7 MSTORE ADD SWAP5 PUSH1 0xB0 SHR AND ISZERO ISZERO DUP5 MSTORE PUSH1 0x40 MLOAD SWAP5 DUP6 MSTORE PUSH1 0x1 DUP1 DUP8 SHL SUB SWAP1 MLOAD AND PUSH1 0x20 DUP6 ADD MSTORE MLOAD ISZERO ISZERO PUSH1 0x40 DUP5 ADD MSTORE MLOAD ISZERO ISZERO PUSH1 0x60 DUP4 ADD MSTORE MLOAD ISZERO ISZERO PUSH1 0x80 DUP3 ADD MSTORE RETURN JUMPDEST POP CALLVALUE PUSH2 0x59A JUMPI PUSH1 0x20 CALLDATASIZE PUSH1 0x3 NOT ADD SLT PUSH2 0x59A JUMPI PUSH1 0x4 CALLDATALOAD DUP1 DUP3 MSTORE PUSH1 0x4 PUSH1 0x20 MSTORE PUSH1 0x40 DUP3 KECCAK256 PUSH1 0x1 DUP2 ADD SWAP1 PUSH1 0x1 DUP1 PUSH1 0xA0 SHL SUB DUP3 SLOAD AND CALLER EQ DUP1 ISZERO PUSH2 0x1E58 JUMPI JUMPDEST PUSH2 0x1C56 SWAP1 PUSH2 0x5CEF JUMP JUMPDEST DUP4 PUSH20 0x0 DUP1 EXTCODESIZE ISZERO PUSH2 0x616 JUMPI DUP2 PUSH1 0x40 MLOAD DUP1 SWAP3 PUSH4 0x252A867 PUSH1 0xE5 SHL DUP3 MSTORE DUP2 DUP1 PUSH2 0x1C92 DUP9 PUSH1 0x4 DUP4 ADD PUSH2 0x5E2E JUMP JUMPDEST SUB SWAP2 GAS DELEGATECALL DUP1 ISZERO PUSH2 0x60B JUMPI PUSH2 0x1E43 JUMPI JUMPDEST POP POP PUSH1 0x5 DUP2 ADD SLOAD PUSH1 0x9 DUP3 ADD SLOAD PUSH1 0x6 DUP4 ADD SLOAD PUSH1 0xA DUP5 ADD SLOAD PUSH1 0x7 DUP6 ADD SLOAD PUSH1 0x8 DUP7 ADD SLOAD PUSH1 0x40 MLOAD PUSH4 0x1C8F0847 PUSH1 0xE0 SHL DUP2 MSTORE PUSH1 0x4 DUP2 ADD DUP8 SWAP1 MSTORE PUSH1 0x24 DUP2 ADD SWAP3 SWAP1 SWAP3 MSTORE PUSH1 0x1 PUSH1 0x1 PUSH1 0xA0 SHL SUB SWAP5 DUP6 AND SWAP8 SWAP6 SWAP7 SWAP2 SWAP6 SWAP5 PUSH20 0x0 SWAP4 AND SWAP1 PUSH1 0x20 DUP8 PUSH1 0x44 DUP2 DUP8 GAS DELEGATECALL SWAP7 DUP8 ISZERO PUSH2 0x8F3 JUMPI DUP12 SWAP8 PUSH2 0x1E0E JUMPI JUMPDEST POP PUSH1 0x20 SWAP1 PUSH1 0x44 PUSH1 0x40 MLOAD DUP1 SWAP7 DUP2 SWAP4 PUSH4 0x1C8F0847 PUSH1 0xE0 SHL DUP4 MSTORE DUP10 PUSH1 0x4 DUP5 ADD MSTORE PUSH1 0x24 DUP4 ADD MSTORE GAS DELEGATECALL SWAP3 DUP4 ISZERO PUSH2 0x8B3 JUMPI DUP10 SWAP11 SWAP10 SWAP9 SWAP10 SWAP4 PUSH2 0x1DD0 JUMPI JUMPDEST POP DUP2 SLOAD DUP9 SWAP5 SWAP4 SWAP3 SWAP2 SWAP1 PUSH1 0x1 PUSH1 0x1 PUSH1 0xA0 SHL SUB AND DUP11 PUSH2 0x1D70 DUP10 DUP12 PUSH2 0x5DB4 JUMP JUMPDEST SWAP1 PUSH2 0x1D7A SWAP3 PUSH2 0x66B0 JUMP JUMPDEST POP PUSH1 0x2 DUP3 ADD DUP1 SLOAD SWAP1 SWAP11 PUSH2 0x1D98 SWAP2 DUP10 SWAP2 SWAP1 PUSH1 0x1 PUSH1 0x1 PUSH1 0xA0 SHL SUB AND PUSH2 0x66B0 JUMP JUMPDEST POP DUP6 SLOAD PUSH1 0x1 PUSH1 0x1 PUSH1 0xA0 SHL SUB AND DUP2 PUSH2 0x1DAF DUP7 DUP1 PUSH2 0x5DB4 JUMP JUMPDEST SWAP1 PUSH2 0x1DB9 SWAP3 PUSH2 0x66B0 JUMP JUMPDEST POP DUP10 SLOAD PUSH2 0x7D6 SWAP2 DUP5 SWAP2 PUSH1 0x1 PUSH1 0x1 PUSH1 0xA0 SHL SUB AND PUSH2 0x66B0 JUMP JUMPDEST SWAP4 SWAP3 POP SWAP1 SWAP7 POP PUSH1 0x20 DUP4 RETURNDATASIZE PUSH1 0x20 GT PUSH2 0x1E06 JUMPI JUMPDEST DUP2 PUSH2 0x1DEF PUSH1 0x20 SWAP4 DUP4 PUSH2 0x5AED JUMP JUMPDEST DUP2 ADD SUB SLT PUSH2 0x5DD JUMPI DUP9 SWAP7 DUP8 SWAP4 MLOAD SWAP3 SWAP4 SWAP2 SWAP1 SWAP2 PUSH2 0x1D53 JUMP JUMPDEST RETURNDATASIZE SWAP2 POP PUSH2 0x1DE2 JUMP JUMPDEST SWAP1 SWAP7 POP PUSH1 0x20 DUP2 RETURNDATASIZE PUSH1 0x20 GT PUSH2 0x1E3B JUMPI JUMPDEST DUP2 PUSH2 0x1E2A PUSH1 0x20 SWAP4 DUP4 PUSH2 0x5AED JUMP JUMPDEST DUP2 ADD SUB SLT PUSH2 0x5DD JUMPI MLOAD SWAP6 PUSH1 0x20 PUSH2 0x1D1D JUMP JUMPDEST RETURNDATASIZE SWAP2 POP PUSH2 0x1E1D JUMP JUMPDEST DUP2 PUSH2 0x1E4D SWAP2 PUSH2 0x5AED JUMP JUMPDEST PUSH2 0x913 JUMPI DUP4 PUSH0 PUSH2 0x1CA1 JUMP JUMPDEST POP PUSH1 0x2 DUP2 ADD SLOAD PUSH1 0x1 PUSH1 0x1 PUSH1 0xA0 SHL SUB AND CALLER EQ PUSH2 0x1C4D JUMP JUMPDEST POP CALLVALUE PUSH2 0x59A JUMPI PUSH2 0x1E7D CALLDATASIZE PUSH2 0x588E JUMP JUMPDEST SWAP1 DUP1 DUP4 MSTORE PUSH1 0x4 PUSH1 0x20 MSTORE PUSH1 0x40 DUP4 KECCAK256 SWAP3 PUSH2 0x1E9F PUSH1 0x1 DUP1 PUSH1 0xA0 SHL SUB DUP6 SLOAD AND CALLER EQ PUSH2 0x5CEF JUMP JUMPDEST PUSH20 0x0 DUP1 EXTCODESIZE ISZERO PUSH2 0x616 JUMPI DUP2 PUSH1 0x40 MLOAD DUP1 SWAP3 PUSH4 0x252A867 PUSH1 0xE5 SHL DUP3 MSTORE DUP2 DUP1 PUSH2 0x1EDA DUP11 PUSH1 0x4 DUP4 ADD PUSH2 0x5E2E JUMP JUMPDEST SUB SWAP2 GAS DELEGATECALL DUP1 ISZERO PUSH2 0x60B JUMPI PUSH2 0x1F0D JUMPI JUMPDEST POP POP PUSH1 0x9 DUP4 ADD SLOAD PUSH2 0x34D SWAP1 DUP4 SWAP1 PUSH1 0x1 PUSH1 0x1 PUSH1 0xA0 SHL SUB AND PUSH2 0x1660 DUP3 PUSH2 0x1659 DUP4 CALLER PUSH2 0x65E0 JUMP JUMPDEST PUSH2 0x1F18 DUP3 DUP1 SWAP3 PUSH2 0x5AED JUMP JUMPDEST PUSH2 0x59A JUMPI DUP1 PUSH2 0x1EE9 JUMP JUMPDEST POP PUSH2 0x1F2C CALLDATASIZE PUSH2 0x588E JUMP JUMPDEST SWAP1 DUP1 DUP4 MSTORE PUSH1 0x4 PUSH1 0x20 MSTORE PUSH1 0x40 DUP4 KECCAK256 SWAP3 PUSH1 0x1 DUP5 ADD SWAP3 PUSH2 0x1F53 PUSH1 0x1 DUP1 PUSH1 0xA0 SHL SUB DUP6 SLOAD AND CALLER EQ PUSH2 0x5CEF JUMP JUMPDEST PUSH20 0x0 DUP1 EXTCODESIZE ISZERO PUSH2 0xC39 JUMPI DUP3 PUSH1 0x40 MLOAD DUP1 SWAP3 PUSH4 0x252A867 PUSH1 0xE5 SHL DUP3 MSTORE DUP2 DUP1 PUSH2 0x1F8E DUP12 PUSH1 0x4 DUP4 ADD PUSH2 0x5E2E JUMP JUMPDEST SUB SWAP2 GAS DELEGATECALL DUP1 ISZERO PUSH2 0xC2E JUMPI SWAP1 DUP4 SWAP2 PUSH2 0x21CA JUMPI JUMPDEST POP POP PUSH1 0xA DUP6 ADD DUP1 SLOAD PUSH1 0x1 PUSH1 0x1 PUSH1 0xA0 SHL SUB AND SWAP3 PUSH2 0x1FBC DUP5 CALLER PUSH2 0x65E0 JUMP JUMPDEST DUP4 DUP2 LT PUSH2 0x1FEC JUMPI JUMPDEST POP POP SLOAD PUSH0 MLOAD PUSH1 0x20 PUSH2 0x68E8 PUSH0 CODECOPY PUSH0 MLOAD SWAP1 PUSH0 MSTORE SWAP3 POP PUSH2 0x1666 SWAP1 DUP3 SWAP1 PUSH1 0x1 PUSH1 0x1 PUSH1 0xA0 SHL SUB AND CALLER PUSH2 0x6609 JUMP JUMPDEST PUSH2 0x1FF6 SWAP1 DUP5 PUSH2 0x5DB4 JUMP JUMPDEST SWAP2 PUSH2 0x2007 PUSH1 0xFF DUP4 SLOAD PUSH1 0xA0 SHR AND PUSH2 0x5A22 JUMP JUMPDEST PUSH2 0x2012 DUP4 ISZERO ISZERO PUSH2 0x5F82 JUMP JUMPDEST PUSH1 0x2 SLOAD SWAP2 PUSH1 0x40 MLOAD SWAP3 PUSH4 0x1C8F0847 PUSH1 0xE0 SHL DUP5 MSTORE DUP5 PUSH1 0x4 DUP6 ADD MSTORE PUSH1 0x24 DUP5 ADD MSTORE PUSH1 0x20 DUP4 PUSH1 0x44 DUP2 PUSH20 0x0 GAS DELEGATECALL SWAP3 DUP4 ISZERO PUSH2 0x5E9 JUMPI DUP2 SWAP4 PUSH2 0x2196 JUMPI JUMPDEST POP DUP6 PUSH2 0x20D1 JUMPI POP PUSH2 0x206B DUP3 DUP5 PUSH2 0x601B JUMP JUMPDEST CALLVALUE SUB PUSH2 0x498 JUMPI DUP5 DUP4 DUP6 SWAP4 PUSH2 0x2091 PUSH2 0x1666 SWAP7 PUSH0 MLOAD PUSH1 0x20 PUSH2 0x68E8 PUSH0 CODECOPY PUSH0 MLOAD SWAP1 PUSH0 MSTORE SWAP10 CALLER PUSH2 0x67E6 JUMP JUMPDEST POP PUSH1 0x3 SLOAD PUSH2 0x20AB SWAP1 DUP3 SWAP1 DUP6 SWAP1 PUSH1 0x1 PUSH1 0x1 PUSH1 0xA0 SHL SUB AND PUSH2 0x67E6 JUMP JUMPDEST POP JUMPDEST PUSH1 0x40 MLOAD SWAP2 DUP3 MSTORE PUSH1 0x20 DUP3 ADD MSTORE PUSH0 MLOAD PUSH1 0x20 PUSH2 0x6948 PUSH0 CODECOPY PUSH0 MLOAD SWAP1 PUSH0 MSTORE PUSH1 0x40 CALLER SWAP3 LOG3 SWAP2 PUSH2 0x1FC4 JUMP JUMPDEST PUSH2 0x20DB DUP4 DUP6 PUSH2 0x601B JUMP JUMPDEST PUSH1 0x40 MLOAD SWAP1 PUSH4 0x23B872DD PUSH1 0xE0 SHL DUP3 MSTORE CALLER PUSH1 0x4 DUP4 ADD MSTORE ADDRESS PUSH1 0x24 DUP4 ADD MSTORE PUSH1 0x44 DUP3 ADD MSTORE PUSH1 0x20 DUP2 PUSH1 0x64 DUP2 DUP6 DUP12 GAS CALL SWAP2 DUP3 ISZERO PUSH2 0x5A5 JUMPI DUP1 SWAP3 PUSH2 0x2159 JUMPI JUMPDEST POP POP ISZERO PUSH2 0x53B JUMPI DUP5 DUP4 DUP6 SWAP4 PUSH2 0x2139 PUSH2 0x1666 SWAP7 PUSH0 MLOAD PUSH1 0x20 PUSH2 0x68E8 PUSH0 CODECOPY PUSH0 MLOAD SWAP1 PUSH0 MSTORE SWAP10 CALLER PUSH2 0x67E6 JUMP JUMPDEST POP PUSH1 0x3 SLOAD PUSH2 0x2153 SWAP1 DUP3 SWAP1 DUP6 SWAP1 PUSH1 0x1 PUSH1 0x1 PUSH1 0xA0 SHL SUB AND PUSH2 0x67E6 JUMP JUMPDEST POP PUSH2 0x20AD JUMP JUMPDEST SWAP1 SWAP2 POP PUSH1 0x20 DUP3 RETURNDATASIZE PUSH1 0x20 GT PUSH2 0x218E JUMPI JUMPDEST DUP2 PUSH2 0x2175 PUSH1 0x20 SWAP4 DUP4 PUSH2 0x5AED JUMP JUMPDEST DUP2 ADD SUB SLT PUSH2 0x59A JUMPI POP PUSH2 0x2187 SWAP1 PUSH2 0x5B23 JUMP JUMPDEST PUSH0 DUP1 PUSH2 0x2112 JUMP JUMPDEST RETURNDATASIZE SWAP2 POP PUSH2 0x2168 JUMP JUMPDEST SWAP1 SWAP3 POP PUSH1 0x20 DUP2 RETURNDATASIZE PUSH1 0x20 GT PUSH2 0x21C2 JUMPI JUMPDEST DUP2 PUSH2 0x21B2 PUSH1 0x20 SWAP4 DUP4 PUSH2 0x5AED JUMP JUMPDEST DUP2 ADD SUB SLT PUSH2 0x5DD JUMPI MLOAD SWAP2 PUSH0 PUSH2 0x205A JUMP JUMPDEST RETURNDATASIZE SWAP2 POP PUSH2 0x21A5 JUMP JUMPDEST DUP2 PUSH2 0x21D4 SWAP2 PUSH2 0x5AED JUMP JUMPDEST PUSH2 0x616 JUMPI DUP2 PUSH0 PUSH2 0x1FA0 JUMP JUMPDEST POP CALLVALUE PUSH2 0x59A JUMPI PUSH2 0x21EE CALLDATASIZE PUSH2 0x588E JUMP JUMPDEST SWAP2 SWAP1 DUP1 DUP3 MSTORE PUSH1 0x4 PUSH1 0x20 MSTORE PUSH1 0x40 DUP3 KECCAK256 SWAP2 PUSH1 0x1 DUP1 PUSH1 0xA0 SHL SUB DUP4 SLOAD AND CALLER EQ DUP1 ISZERO PUSH2 0x235E JUMPI JUMPDEST PUSH2 0x2219 SWAP1 PUSH2 0x5CEF JUMP JUMPDEST PUSH20 0x0 DUP1 EXTCODESIZE ISZERO PUSH2 0x616 JUMPI DUP2 PUSH1 0x40 MLOAD DUP1 SWAP3 PUSH4 0x252A867 PUSH1 0xE5 SHL DUP3 MSTORE DUP2 DUP1 PUSH2 0x2254 DUP10 PUSH1 0x4 DUP4 ADD PUSH2 0x5E2E JUMP JUMPDEST SUB SWAP2 GAS DELEGATECALL DUP1 ISZERO PUSH2 0x60B JUMPI SWAP1 DUP3 SWAP2 PUSH2 0x2349 JUMPI JUMPDEST POP POP PUSH1 0x6 DUP4 ADD PUSH2 0x227D DUP6 DUP3 SLOAD PUSH2 0xB0F DUP3 DUP3 LT PUSH2 0x5A53 JUMP JUMPDEST SWAP1 SSTORE PUSH1 0x1 DUP1 PUSH1 0xA0 SHL SUB PUSH1 0xA DUP5 ADD SLOAD AND SWAP4 PUSH1 0x8 DUP5 ADD SLOAD SWAP2 PUSH1 0x40 MLOAD SWAP3 PUSH4 0x1C8F0847 PUSH1 0xE0 SHL DUP5 MSTORE DUP3 PUSH1 0x4 DUP6 ADD MSTORE PUSH1 0x24 DUP5 ADD MSTORE PUSH1 0x20 DUP4 PUSH1 0x44 DUP2 PUSH20 0x0 GAS DELEGATECALL SWAP1 DUP2 ISZERO PUSH2 0x5A5 JUMPI SWAP1 PUSH2 0x230A JUMPI JUMPDEST PUSH1 0x1 DUP6 ADD DUP1 SLOAD SWAP1 SWAP6 PUSH0 MLOAD PUSH1 0x20 PUSH2 0x68A8 PUSH0 CODECOPY PUSH0 MLOAD SWAP1 PUSH0 MSTORE SWAP5 POP PUSH2 0x3B3 SWAP2 PUSH2 0xBA1 SWAP1 PUSH1 0x1 PUSH1 0x1 PUSH1 0xA0 SHL SUB AND DUP10 PUSH2 0xB9B DUP7 DUP9 PUSH2 0x5DB4 JUMP JUMPDEST POP PUSH1 0x20 DUP3 RETURNDATASIZE PUSH1 0x20 GT PUSH2 0x2341 JUMPI JUMPDEST DUP2 PUSH2 0x2324 PUSH1 0x20 SWAP4 DUP4 PUSH2 0x5AED JUMP JUMPDEST DUP2 ADD SUB SLT PUSH2 0x5DD JUMPI PUSH0 MLOAD PUSH1 0x20 PUSH2 0x68A8 PUSH0 CODECOPY PUSH0 MLOAD SWAP1 PUSH0 MSTORE SWAP2 MLOAD PUSH2 0x22D6 JUMP JUMPDEST RETURNDATASIZE SWAP2 POP PUSH2 0x2317 JUMP JUMPDEST DUP2 PUSH2 0x2353 SWAP2 PUSH2 0x5AED JUMP JUMPDEST PUSH2 0x59A JUMPI DUP1 PUSH0 PUSH2 0x2266 JUMP JUMPDEST POP PUSH1 0x2 DUP4 ADD SLOAD PUSH1 0x1 PUSH1 0x1 PUSH1 0xA0 SHL SUB AND CALLER EQ PUSH2 0x2210 JUMP JUMPDEST POP CALLVALUE PUSH2 0x59A JUMPI DUP1 PUSH1 0x3 NOT CALLDATASIZE ADD SLT PUSH2 0x59A JUMPI PUSH1 0x20 PUSH1 0x7 SLOAD PUSH1 0x40 MLOAD SWAP1 DUP2 MSTORE RETURN JUMPDEST POP CALLVALUE PUSH2 0x59A JUMPI DUP1 PUSH1 0x3 NOT CALLDATASIZE ADD SLT PUSH2 0x59A JUMPI PUSH1 0x20 PUSH1 0x5 SLOAD PUSH1 0x40 MLOAD SWAP1 DUP2 MSTORE RETURN JUMPDEST POP CALLVALUE PUSH2 0x59A JUMPI PUSH1 0x20 CALLDATASIZE PUSH1 0x3 NOT ADD SLT PUSH2 0x59A JUMPI PUSH1 0x40 PUSH1 0x4 CALLDATALOAD SWAP2 DUP3 DUP2 MSTORE PUSH1 0x4 PUSH1 0x20 MSTORE KECCAK256 SWAP1 PUSH1 0x1 DUP3 ADD SWAP1 PUSH1 0x1 DUP1 PUSH1 0xA0 SHL SUB DUP3 SLOAD AND CALLER EQ DUP1 ISZERO PUSH2 0x246F JUMPI JUMPDEST PUSH2 0x23F3 SWAP1 PUSH2 0x5CEF JUMP JUMPDEST PUSH0 MLOAD PUSH1 0x20 PUSH2 0x68C8 PUSH0 CODECOPY PUSH0 MLOAD SWAP1 PUSH0 MSTORE PUSH2 0x3B3 PUSH1 0x2 DUP6 ADD SWAP5 PUSH2 0x241D DUP7 SLOAD PUSH2 0x187D PUSH1 0xFF DUP3 PUSH1 0xB0 SHR AND PUSH2 0x6028 JUMP JUMPDEST DUP1 SLOAD PUSH1 0x9 DUP3 ADD SLOAD PUSH1 0x5 DUP4 ADD SLOAD PUSH2 0x2441 SWAP3 SWAP1 SWAP2 PUSH1 0x1 PUSH1 0x1 PUSH1 0xA0 SHL SUB SWAP1 DUP2 AND SWAP2 AND PUSH2 0x67E6 JUMP JUMPDEST POP SLOAD SWAP4 SLOAD SWAP5 SLOAD PUSH1 0x40 DUP1 MLOAD PUSH1 0x1 PUSH1 0x1 PUSH1 0xA0 SHL SUB SWAP3 DUP4 AND DUP2 MSTORE CALLER PUSH1 0x20 DUP3 ADD MSTORE SWAP7 DUP3 AND SWAP7 SWAP6 SWAP1 SWAP2 AND SWAP5 SWAP2 DUP3 SWAP2 DUP3 ADD SWAP1 JUMP JUMPDEST POP DUP3 SLOAD PUSH1 0x1 PUSH1 0x1 PUSH1 0xA0 SHL SUB AND CALLER EQ PUSH2 0x23EA JUMP JUMPDEST POP CALLVALUE PUSH2 0x59A JUMPI DUP1 PUSH1 0x3 NOT CALLDATASIZE ADD SLT PUSH2 0x59A JUMPI SLOAD PUSH1 0x40 MLOAD PUSH1 0x1 PUSH1 0x1 PUSH1 0xA0 SHL SUB SWAP1 SWAP2 AND DUP2 MSTORE PUSH1 0x20 SWAP1 RETURN JUMPDEST POP CALLVALUE PUSH2 0x59A JUMPI DUP1 PUSH1 0x3 NOT CALLDATASIZE ADD SLT PUSH2 0x59A JUMPI PUSH1 0x20 PUSH1 0x2 SLOAD PUSH1 0x40 MLOAD SWAP1 DUP2 MSTORE RETURN JUMPDEST POP CALLVALUE PUSH2 0x59A JUMPI DUP1 PUSH1 0x3 NOT CALLDATASIZE ADD SLT PUSH2 0x59A JUMPI PUSH2 0x24E0 PUSH2 0x6841 JUMP JUMPDEST DUP1 SLOAD PUSH1 0xFF PUSH1 0xA0 SHL NOT AND DUP2 SSTORE PUSH1 0x40 MLOAD DUP2 DUP2 MSTORE PUSH32 0x17904E4FE7D59BB4603C7C045BC275A05DA9EA3A4AC007FC80FFFEAF119186D SWAP1 PUSH1 0x20 SWAP1 LOG1 CALLER PUSH32 0x793BC6423DD0257D64F9D47DB72FD4B2162F4541AA41740BA1C5FB5E2CD41BCD DUP3 DUP1 LOG2 DUP1 RETURN JUMPDEST POP CALLVALUE PUSH2 0x59A JUMPI PUSH1 0x20 CALLDATASIZE PUSH1 0x3 NOT ADD SLT PUSH2 0x59A JUMPI PUSH1 0x4 CALLDATALOAD DUP2 MSTORE PUSH1 0x4 PUSH1 0x20 MSTORE PUSH1 0x40 SWAP1 KECCAK256 PUSH1 0x1 PUSH1 0xA0 SHL PUSH1 0x1 SWAP1 SUB DUP2 SLOAD AND SWAP1 PUSH1 0x1 PUSH1 0xA0 SHL PUSH1 0x1 SWAP1 SUB PUSH1 0x1 DUP3 ADD SLOAD AND SWAP1 PUSH1 0x2 DUP2 ADD SLOAD PUSH1 0x3 DUP3 ADD SLOAD PUSH1 0x4 DUP4 ADD SLOAD PUSH1 0x5 DUP5 ADD SLOAD PUSH1 0x6 DUP6 ADD SLOAD PUSH1 0x7 DUP7 ADD SLOAD SWAP2 PUSH1 0x8 DUP8 ADD SLOAD SWAP4 PUSH1 0x1 PUSH1 0xA0 SHL PUSH1 0x1 SWAP1 SUB PUSH1 0x9 DUP10 ADD SLOAD AND SWAP6 PUSH1 0x1 PUSH1 0xA0 SHL PUSH1 0x1 SWAP1 SUB PUSH1 0xA DUP11 ADD SLOAD AND SWAP8 PUSH1 0xB DUP11 ADD SLOAD SWAP10 PUSH1 0xC ADD SLOAD PUSH1 0xFF AND SWAP11 PUSH1 0x40 MLOAD SWAP13 DUP14 MSTORE PUSH1 0x20 DUP14 ADD MSTORE PUSH1 0x1 PUSH1 0xA0 SHL PUSH1 0x1 SWAP1 SUB DUP2 AND PUSH1 0x40 DUP14 ADD MSTORE DUP1 PUSH1 0xA0 SHR PUSH1 0xFF AND ISZERO ISZERO PUSH1 0x60 DUP14 ADD MSTORE DUP1 PUSH1 0xA8 SHR PUSH1 0xFF AND ISZERO ISZERO PUSH1 0x80 DUP14 ADD MSTORE DUP1 PUSH1 0xB0 SHR PUSH1 0xFF AND ISZERO ISZERO PUSH1 0xA0 DUP14 ADD MSTORE PUSH1 0xB8 SHR PUSH1 0xFF AND ISZERO ISZERO PUSH1 0xC0 DUP13 ADD MSTORE PUSH1 0xE0 DUP12 ADD MSTORE PUSH2 0x100 DUP11 ADD MSTORE PUSH2 0x120 DUP10 ADD MSTORE PUSH2 0x140 DUP9 ADD MSTORE PUSH2 0x160 DUP8 ADD MSTORE PUSH2 0x180 DUP7 ADD MSTORE PUSH2 0x1A0 DUP6 ADD MSTORE PUSH2 0x1C0 DUP5 ADD MSTORE PUSH2 0x1E0 DUP4 ADD MSTORE PUSH2 0x200 DUP3 ADD PUSH2 0x2664 SWAP2 PUSH2 0x5907 JUMP JUMPDEST PUSH2 0x220 SWAP1 RETURN JUMPDEST POP CALLVALUE PUSH2 0x59A JUMPI PUSH1 0x20 CALLDATASIZE PUSH1 0x3 NOT ADD SLT PUSH2 0x59A JUMPI PUSH1 0x40 PUSH1 0x4 CALLDATALOAD SWAP2 DUP3 DUP2 MSTORE PUSH1 0x4 PUSH1 0x20 MSTORE KECCAK256 SWAP1 PUSH1 0x1 DUP3 ADD SWAP1 PUSH1 0x1 DUP1 PUSH1 0xA0 SHL SUB DUP3 SLOAD AND CALLER EQ DUP1 ISZERO PUSH2 0x2711 JUMPI JUMPDEST PUSH2 0x26AD SWAP1 PUSH2 0x5CEF JUMP JUMPDEST PUSH0 MLOAD PUSH1 0x20 PUSH2 0x68C8 PUSH0 CODECOPY PUSH0 MLOAD SWAP1 PUSH0 MSTORE PUSH2 0x3B3 PUSH1 0x2 DUP6 ADD SWAP5 PUSH2 0x26DF DUP7 SLOAD PUSH1 0xFF DUP2 PUSH1 0xB8 SHR AND ISZERO DUP1 PUSH2 0x2703 JUMPI JUMPDEST PUSH2 0x188D SWAP1 PUSH2 0x605A JUMP JUMPDEST DUP1 SLOAD PUSH1 0x9 DUP3 ADD SLOAD PUSH1 0x5 DUP4 ADD SLOAD PUSH2 0x2441 SWAP3 SWAP1 SWAP2 PUSH1 0x1 PUSH1 0x1 PUSH1 0xA0 SHL SUB SWAP1 DUP2 AND SWAP2 AND PUSH2 0x66B0 JUMP JUMPDEST POP PUSH1 0xB0 DUP2 SWAP1 SHR PUSH1 0xFF AND PUSH2 0x26D6 JUMP JUMPDEST POP DUP3 SLOAD PUSH1 0x1 PUSH1 0x1 PUSH1 0xA0 SHL SUB AND CALLER EQ PUSH2 0x26A4 JUMP JUMPDEST POP CALLVALUE PUSH2 0x59A JUMPI PUSH1 0x20 PUSH2 0x9DD PUSH2 0x2738 CALLDATASIZE PUSH2 0x5A03 JUMP JUMPDEST SWAP1 PUSH2 0x62BA JUMP JUMPDEST POP CALLVALUE PUSH2 0x59A JUMPI PUSH2 0x274D CALLDATASIZE PUSH2 0x588E JUMP JUMPDEST SWAP1 DUP1 DUP4 MSTORE PUSH1 0x4 PUSH1 0x20 MSTORE PUSH1 0x40 DUP4 KECCAK256 SWAP3 PUSH1 0x1 DUP5 ADD SWAP3 PUSH1 0x1 DUP1 PUSH1 0xA0 SHL SUB DUP5 SLOAD AND CALLER EQ DUP1 ISZERO PUSH2 0x28D1 JUMPI JUMPDEST PUSH2 0x277C SWAP1 PUSH2 0x5CEF JUMP JUMPDEST PUSH20 0x0 DUP1 EXTCODESIZE ISZERO PUSH2 0xC39 JUMPI DUP3 PUSH1 0x40 MLOAD DUP1 SWAP3 PUSH4 0x252A867 PUSH1 0xE5 SHL DUP3 MSTORE DUP2 DUP1 PUSH2 0x27B7 DUP12 PUSH1 0x4 DUP4 ADD PUSH2 0x5E2E JUMP JUMPDEST SUB SWAP2 GAS DELEGATECALL DUP1 ISZERO PUSH2 0xC2E JUMPI SWAP1 DUP4 SWAP2 PUSH2 0x28BC JUMPI JUMPDEST POP POP PUSH1 0x6 DUP6 ADD PUSH2 0x27E0 DUP3 DUP3 SLOAD PUSH2 0xB0F DUP3 DUP3 LT PUSH2 0x5A53 JUMP JUMPDEST SWAP1 SSTORE PUSH1 0x1 DUP1 PUSH1 0xA0 SHL SUB PUSH1 0xA DUP7 ADD SLOAD AND SWAP5 PUSH1 0x8 DUP2 ADD SLOAD PUSH1 0x40 MLOAD SWAP1 PUSH4 0x1C8F0847 PUSH1 0xE0 SHL DUP3 MSTORE DUP4 PUSH1 0x4 DUP4 ADD MSTORE PUSH1 0x24 DUP3 ADD MSTORE PUSH1 0x20 DUP2 PUSH1 0x44 DUP2 PUSH20 0x0 GAS DELEGATECALL SWAP4 DUP5 ISZERO PUSH2 0x5A5 JUMPI SWAP4 PUSH2 0x2886 JUMPI JUMPDEST POP DUP1 SLOAD PUSH0 MLOAD PUSH1 0x20 PUSH2 0x6888 PUSH0 CODECOPY PUSH0 MLOAD SWAP1 PUSH0 MSTORE SWAP4 SWAP2 PUSH2 0x3B3 SWAP2 PUSH2 0x286D SWAP1 PUSH1 0x1 PUSH1 0x1 PUSH1 0xA0 SHL SUB AND DUP10 PUSH2 0x2867 DUP7 DUP9 PUSH2 0x5DB4 JUMP JUMPDEST SWAP2 PUSH2 0x67E6 JUMP JUMPDEST POP PUSH2 0xBBA DUP4 PUSH1 0x2 DUP4 ADD SWAP10 PUSH1 0x1 DUP1 PUSH1 0xA0 SHL SUB DUP12 SLOAD AND PUSH2 0x67E6 JUMP JUMPDEST SWAP3 POP PUSH1 0x20 DUP4 RETURNDATASIZE PUSH1 0x20 GT PUSH2 0x28B4 JUMPI JUMPDEST DUP2 PUSH2 0x28A1 PUSH1 0x20 SWAP4 DUP4 PUSH2 0x5AED JUMP JUMPDEST DUP2 ADD SUB SLT PUSH2 0x5DD JUMPI SWAP2 MLOAD SWAP2 PUSH2 0x3B3 PUSH2 0x2838 JUMP JUMPDEST RETURNDATASIZE SWAP2 POP PUSH2 0x2894 JUMP JUMPDEST DUP2 PUSH2 0x28C6 SWAP2 PUSH2 0x5AED JUMP JUMPDEST PUSH2 0x616 JUMPI DUP2 PUSH0 PUSH2 0x27C9 JUMP JUMPDEST POP PUSH1 0x2 DUP6 ADD SLOAD PUSH1 0x1 PUSH1 0x1 PUSH1 0xA0 SHL SUB AND CALLER EQ PUSH2 0x2773 JUMP JUMPDEST POP CALLVALUE PUSH2 0x59A JUMPI DUP1 PUSH1 0x3 NOT CALLDATASIZE ADD SLT PUSH2 0x59A JUMPI PUSH2 0x2900 PUSH2 0x6841 JUMP JUMPDEST DUP1 SLOAD PUSH1 0x1 PUSH1 0x1 PUSH1 0xA0 SHL SUB NOT DUP2 AND DUP3 SSTORE DUP2 SWAP1 PUSH1 0x1 PUSH1 0x1 PUSH1 0xA0 SHL SUB AND PUSH32 0x8BE0079C531659141344CD1FD0A4F28419497F9722A3DAAFE3B4186F6B6457E0 DUP3 DUP1 LOG3 DUP1 RETURN JUMPDEST POP CALLVALUE PUSH2 0x59A JUMPI PUSH1 0x20 CALLDATASIZE PUSH1 0x3 NOT ADD SLT PUSH2 0x59A JUMPI PUSH1 0x20 SWAP1 PUSH1 0x40 SWAP1 PUSH1 0x1 PUSH1 0x1 PUSH1 0xA0 SHL SUB PUSH2 0x2969 PUSH2 0x57C8 JUMP JUMPDEST AND DUP2 MSTORE PUSH1 0x1 DUP4 MSTORE DUP2 DUP2 KECCAK256 DUP2 DUP1 MSTORE DUP4 MSTORE KECCAK256 SLOAD PUSH1 0x40 MLOAD SWAP1 DUP2 MSTORE RETURN JUMPDEST POP CALLVALUE PUSH2 0x59A JUMPI PUSH1 0x20 CALLDATASIZE PUSH1 0x3 NOT ADD SLT PUSH2 0x59A JUMPI PUSH1 0x4 CALLDATALOAD DUP1 DUP3 MSTORE PUSH1 0x4 PUSH1 0x20 MSTORE PUSH1 0x40 DUP3 KECCAK256 SWAP1 PUSH1 0x1 DUP3 ADD SWAP2 PUSH1 0x1 DUP1 PUSH1 0xA0 SHL SUB DUP4 SLOAD AND CALLER EQ DUP1 ISZERO PUSH2 0x2FD8 JUMPI JUMPDEST DUP1 ISZERO PUSH2 0x2FC2 JUMPI JUMPDEST PUSH2 0x29CC SWAP1 PUSH2 0x5CEF JUMP JUMPDEST PUSH1 0x2 DUP2 ADD SWAP4 PUSH2 0x29E5 DUP6 SLOAD PUSH2 0x188D PUSH1 0xFF DUP3 PUSH1 0xB8 SHR AND PUSH2 0x5D20 JUMP JUMPDEST PUSH1 0xB DUP3 ADD SLOAD TIMESTAMP LT PUSH2 0x2F97 JUMPI PUSH1 0xFF PUSH1 0xC DUP4 ADD SLOAD AND PUSH1 0x5 DUP4 ADD SLOAD PUSH1 0x1 DUP1 PUSH1 0xA0 SHL SUB PUSH1 0x9 DUP6 ADD SLOAD AND PUSH1 0x6 DUP6 ADD SLOAD SWAP2 PUSH1 0x1 DUP1 PUSH1 0xA0 SHL SUB PUSH1 0xA DUP8 ADD SLOAD AND SWAP1 PUSH1 0x7 DUP8 ADD SLOAD SWAP5 PUSH1 0x8 DUP9 ADD SLOAD SWAP7 PUSH20 0x0 SWAP8 PUSH1 0x40 MLOAD SWAP8 PUSH4 0x1C8F0847 PUSH1 0xE0 SHL DUP10 MSTORE DUP5 PUSH1 0x4 DUP11 ADD MSTORE PUSH1 0x24 DUP10 ADD MSTORE PUSH1 0x20 DUP9 PUSH1 0x44 DUP2 DUP13 GAS DELEGATECALL SWAP8 DUP9 ISZERO PUSH2 0x60B JUMPI DUP3 SWAP9 PUSH2 0x2F62 JUMPI JUMPDEST POP PUSH1 0x20 SWAP1 PUSH1 0x44 PUSH1 0x40 MLOAD DUP1 SWAP12 DUP2 SWAP4 PUSH4 0x1C8F0847 PUSH1 0xE0 SHL DUP4 MSTORE DUP12 PUSH1 0x4 DUP5 ADD MSTORE PUSH1 0x24 DUP4 ADD MSTORE GAS DELEGATECALL SWAP8 DUP9 ISZERO PUSH2 0x5E9 JUMPI DUP2 SWAP9 PUSH2 0x2F2E JUMPI JUMPDEST POP PUSH1 0x6 DUP3 LT ISZERO PUSH2 0x11B9 JUMPI SWAP2 PUSH1 0x4 DUP3 DUP5 DUP15 DUP15 DUP15 DUP10 PUSH0 MLOAD PUSH1 0x20 PUSH2 0x68C8 PUSH0 CODECOPY PUSH0 MLOAD SWAP1 PUSH0 MSTORE SWAP16 SWAP14 PUSH2 0x3B3 SWAP16 DUP16 SWAP14 DUP2 SWAP16 SWAP14 SWAP12 SWAP15 DUP4 SWAP16 DUP16 DUP4 SWAP16 DUP9 DUP16 DUP6 DUP5 DUP11 DUP16 DUP16 DUP12 DUP16 SWAP9 PUSH1 0x1 DUP16 SWAP2 SWAP13 DUP10 SWAP14 DUP8 DUP6 DUP14 DUP16 DUP13 DUP16 DUP16 DUP13 DUP12 SWAP5 DUP16 SWAP3 DUP12 ISZERO PUSH2 0x2E63 JUMPI JUMPDEST PUSH1 0x2 DUP13 EQ PUSH2 0x2D9C JUMPI JUMPDEST POP POP POP POP POP POP POP POP POP POP POP EQ PUSH2 0x2CC7 JUMPI JUMPDEST POP POP POP POP POP POP POP POP POP POP PUSH1 0x3 DUP13 EQ PUSH2 0x2C38 JUMPI JUMPDEST POP POP POP POP POP POP POP POP POP POP POP EQ PUSH2 0x2B7D JUMPI JUMPDEST POP POP DUP10 SLOAD PUSH1 0x1 PUSH1 0xA8 SHL PUSH1 0xFF PUSH1 0xA8 SHL NOT DUP3 AND OR SWAP1 SWAP11 SSTORE POP POP SWAP2 SLOAD SWAP6 SLOAD PUSH1 0x40 DUP1 MLOAD PUSH1 0x1 PUSH1 0x1 PUSH1 0xA0 SHL SUB SWAP10 DUP11 AND DUP2 MSTORE CALLER PUSH1 0x20 DUP3 ADD MSTORE SWAP2 DUP10 AND SWAP9 SWAP1 SWAP8 AND SWAP7 SWAP1 SWAP4 DUP5 SWAP4 POP SWAP1 DUP4 ADD SWAP2 POP JUMP JUMPDEST DUP5 DUP4 PUSH2 0x2BBF PUSH2 0x2BE1 SWAP7 PUSH2 0x2BA4 PUSH2 0x2BD0 SWAP6 DUP12 SWAP9 PUSH2 0x2867 DUP8 PUSH1 0x1 DUP1 PUSH1 0xA0 SHL SUB PUSH1 0x3 SLOAD AND SWAP4 PUSH2 0x5DB4 JUMP JUMPDEST POP PUSH1 0x3 SLOAD PUSH1 0x1 PUSH1 0x1 PUSH1 0xA0 SHL SUB AND SWAP1 DUP7 SWAP1 PUSH2 0x2867 SWAP1 DUP10 SWAP1 PUSH2 0x5DB4 JUMP JUMPDEST POP DUP14 SLOAD PUSH1 0x1 PUSH1 0x1 PUSH1 0xA0 SHL SUB AND PUSH2 0x67E6 JUMP JUMPDEST POP DUP11 SLOAD PUSH1 0x1 PUSH1 0x1 PUSH1 0xA0 SHL SUB AND PUSH2 0x67E6 JUMP JUMPDEST POP DUP3 SLOAD DUP8 SLOAD DUP10 SLOAD PUSH1 0x3 SLOAD PUSH1 0x40 MLOAD PUSH1 0x1 PUSH1 0x1 PUSH1 0xA0 SHL SUB SWAP4 DUP5 AND SWAP7 SWAP5 DUP5 AND SWAP6 DUP12 SWAP6 PUSH0 MLOAD PUSH1 0x20 PUSH2 0x6868 PUSH0 CODECOPY PUSH0 MLOAD SWAP1 PUSH0 MSTORE SWAP6 SWAP3 SWAP5 DUP6 SWAP5 PUSH2 0x2C2A SWAP5 SWAP3 SWAP4 SWAP3 DUP5 SWAP3 DUP5 SWAP3 DUP3 AND SWAP2 CALLER SWAP2 AND DUP9 PUSH2 0x5DEB JUMP JUMPDEST SUB SWAP1 LOG4 PUSH0 DUP1 DUP1 DUP1 DUP1 DUP1 PUSH2 0x2B37 JUMP JUMPDEST PUSH0 MLOAD PUSH1 0x20 PUSH2 0x6868 PUSH0 CODECOPY PUSH0 MLOAD SWAP1 PUSH0 MSTORE SWAP7 PUSH2 0x2BD0 PUSH2 0x2C62 SWAP4 PUSH2 0x2CB4 SWAP7 DUP14 PUSH1 0x1 DUP1 PUSH1 0xA0 SHL SUB SWAP1 SLOAD AND PUSH2 0x67E6 JUMP JUMPDEST POP SLOAD SWAP6 SLOAD SWAP7 SLOAD PUSH1 0x40 DUP1 MLOAD PUSH1 0x1 PUSH1 0x1 PUSH1 0xA0 SHL SUB SWAP3 DUP4 AND DUP1 DUP3 MSTORE CALLER PUSH1 0x20 DUP4 ADD MSTORE SWAP2 DUP2 ADD SWAP2 SWAP1 SWAP2 MSTORE PUSH1 0x60 DUP2 ADD SWAP5 SWAP1 SWAP5 MSTORE PUSH1 0x80 DUP5 ADD SWAP3 SWAP1 SWAP3 MSTORE PUSH0 PUSH1 0xA0 DUP5 ADD DUP2 SWAP1 MSTORE PUSH1 0xC0 DUP5 ADD MSTORE SWAP6 DUP2 AND SWAP6 SWAP5 AND SWAP4 DUP2 SWAP1 PUSH1 0xE0 DUP3 ADD SWAP1 JUMP JUMPDEST SUB SWAP1 LOG4 DUP15 DUP15 DUP15 DUP8 DUP12 DUP14 DUP16 DUP13 SWAP1 DUP12 DUP16 PUSH2 0x2B26 JUMP JUMPDEST PUSH0 MLOAD PUSH1 0x20 PUSH2 0x6908 PUSH0 CODECOPY PUSH0 MLOAD SWAP1 PUSH0 MSTORE SWAP10 PUSH2 0x2D31 PUSH0 MLOAD PUSH1 0x20 PUSH2 0x6888 PUSH0 CODECOPY PUSH0 MLOAD SWAP1 PUSH0 MSTORE SWAP9 PUSH2 0x2D1B DUP9 DUP7 PUSH2 0x2D0A DUP16 SWAP15 PUSH2 0x2D42 SWAP10 PUSH2 0x2867 DUP6 PUSH1 0x1 DUP1 PUSH1 0xA0 SHL SUB DUP10 SLOAD AND SWAP4 PUSH2 0x5DB4 JUMP JUMPDEST POP DUP10 SLOAD PUSH1 0x1 PUSH1 0x1 PUSH1 0xA0 SHL SUB AND PUSH2 0x67E6 JUMP JUMPDEST POP SLOAD PUSH1 0x1 PUSH1 0x1 PUSH1 0xA0 SHL SUB AND DUP3 PUSH2 0x2867 DUP6 DUP12 PUSH2 0x5DB4 JUMP JUMPDEST POP DUP5 SLOAD PUSH1 0x1 PUSH1 0x1 PUSH1 0xA0 SHL SUB AND PUSH2 0x67E6 JUMP JUMPDEST POP DUP11 SLOAD SWAP1 SLOAD SWAP2 SLOAD PUSH1 0x40 MLOAD PUSH1 0x1 PUSH1 0x1 PUSH1 0xA0 SHL SUB SWAP4 DUP5 AND SWAP10 SWAP3 DUP5 AND SWAP9 SWAP2 SWAP1 SWAP4 AND SWAP4 DUP10 SWAP4 DUP10 SWAP4 SWAP2 DUP2 SWAP1 PUSH2 0x2D75 SWAP1 DUP16 CALLER DUP11 DUP6 PUSH2 0x5DC1 JUMP JUMPDEST SUB SWAP1 LOG4 PUSH2 0x2D8A DUP12 PUSH1 0x40 MLOAD SWAP4 DUP5 SWAP4 CALLER SWAP1 DUP6 PUSH2 0x5DC1 JUMP JUMPDEST SUB SWAP1 LOG4 DUP7 DUP9 DUP4 DUP6 DUP5 DUP11 DUP16 DUP16 DUP12 DUP14 PUSH2 0x2B13 JUMP JUMPDEST PUSH2 0x2E06 PUSH0 MLOAD PUSH1 0x20 PUSH2 0x68A8 PUSH0 CODECOPY PUSH0 MLOAD SWAP1 PUSH0 MSTORE SWAP8 DUP10 SWAP4 DUP16 DUP14 DUP14 PUSH2 0x2D0A PUSH0 MLOAD PUSH1 0x20 PUSH2 0x6928 PUSH0 CODECOPY PUSH0 MLOAD SWAP1 PUSH0 MSTORE SWAP16 DUP13 SWAP1 PUSH2 0x2867 DUP6 DUP14 DUP9 PUSH2 0x2DDE SWAP10 PUSH1 0xA0 SHL SUB SWAP1 SLOAD AND SWAP4 PUSH2 0x5DB4 JUMP JUMPDEST POP DUP16 DUP1 PUSH2 0x2DF7 SWAP2 PUSH1 0xA0 SHL SUB DUP8 SLOAD AND DUP3 PUSH2 0x2867 DUP6 DUP14 PUSH2 0x5DB4 JUMP JUMPDEST POP DUP16 DUP1 PUSH1 0xA0 SHL SUB DUP8 SLOAD AND PUSH2 0x67E6 JUMP JUMPDEST POP DUP13 DUP1 PUSH1 0xA0 SHL SUB SWAP1 SLOAD AND SWAP8 DUP9 SWAP3 DUP14 DUP1 PUSH1 0xA0 SHL SUB SWAP1 SLOAD AND SWAP10 DUP11 SWAP5 DUP15 DUP1 PUSH1 0xA0 SHL SUB SWAP1 SLOAD AND SWAP6 PUSH2 0x2E3A PUSH1 0x40 MLOAD SWAP3 DUP4 SWAP3 CALLER DUP11 DUP6 PUSH2 0x5DC1 JUMP JUMPDEST SUB SWAP1 LOG4 PUSH2 0x2E4F DUP11 PUSH1 0x40 MLOAD SWAP4 DUP5 SWAP4 CALLER SWAP1 DUP6 PUSH2 0x5DC1 JUMP JUMPDEST SUB SWAP1 LOG4 DUP8 DUP6 DUP14 DUP16 DUP13 DUP16 DUP16 DUP13 DUP12 SWAP5 DUP16 SWAP3 PUSH2 0x2B02 JUMP JUMPDEST PUSH2 0x2E7A DUP14 DUP1 PUSH1 0xA0 SHL SUB DUP3 SLOAD AND DUP11 PUSH2 0x2867 DUP14 DUP10 PUSH2 0x5DB4 JUMP JUMPDEST POP PUSH2 0x2E8E DUP11 DUP11 DUP16 DUP1 PUSH1 0xA0 SHL SUB DUP8 SLOAD AND PUSH2 0x67E6 JUMP JUMPDEST POP PUSH2 0x2EA6 DUP14 DUP1 PUSH1 0xA0 SHL SUB DUP5 SLOAD AND DUP4 PUSH2 0x2867 DUP11 DUP11 PUSH2 0x5DB4 JUMP JUMPDEST POP PUSH2 0x2EBA DUP8 DUP4 DUP16 DUP1 PUSH1 0xA0 SHL SUB DUP8 SLOAD AND PUSH2 0x67E6 JUMP JUMPDEST POP DUP10 DUP14 DUP1 PUSH1 0xA0 SHL SUB DUP3 SLOAD AND DUP10 DUP16 DUP10 DUP10 DUP10 DUP6 DUP6 PUSH0 MLOAD PUSH1 0x20 PUSH2 0x6908 PUSH0 CODECOPY PUSH0 MLOAD SWAP1 PUSH0 MSTORE DUP7 PUSH0 MLOAD PUSH1 0x20 PUSH2 0x68A8 PUSH0 CODECOPY PUSH0 MLOAD SWAP1 PUSH0 MSTORE SWAP8 PUSH1 0xA0 SHL SUB DUP14 SLOAD AND SWAP10 PUSH1 0x1 SWAP5 DUP6 DUP13 SWAP7 PUSH1 0xA0 SHL SUB SWAP1 SLOAD AND SWAP6 PUSH2 0x2F11 PUSH1 0x40 MLOAD SWAP3 DUP4 SWAP3 CALLER DUP11 DUP6 PUSH2 0x5DC1 JUMP JUMPDEST SUB SWAP1 LOG4 PUSH2 0x2F26 DUP14 PUSH1 0x40 MLOAD SWAP4 DUP5 SWAP4 CALLER SWAP1 DUP6 PUSH2 0x5DC1 JUMP JUMPDEST SUB SWAP1 LOG4 PUSH2 0x2AF9 JUMP JUMPDEST SWAP1 SWAP8 POP PUSH1 0x20 DUP2 RETURNDATASIZE PUSH1 0x20 GT PUSH2 0x2F5A JUMPI JUMPDEST DUP2 PUSH2 0x2F4A PUSH1 0x20 SWAP4 DUP4 PUSH2 0x5AED JUMP JUMPDEST DUP2 ADD SUB SLT PUSH2 0x5DD JUMPI MLOAD SWAP7 PUSH0 PUSH2 0x2AA2 JUMP JUMPDEST RETURNDATASIZE SWAP2 POP PUSH2 0x2F3D JUMP JUMPDEST SWAP1 SWAP8 POP PUSH1 0x20 DUP2 RETURNDATASIZE PUSH1 0x20 GT PUSH2 0x2F8F JUMPI JUMPDEST DUP2 PUSH2 0x2F7E PUSH1 0x20 SWAP4 DUP4 PUSH2 0x5AED JUMP JUMPDEST DUP2 ADD SUB SLT PUSH2 0x5DD JUMPI MLOAD SWAP7 PUSH1 0x20 PUSH2 0x2A70 JUMP JUMPDEST RETURNDATASIZE SWAP2 POP PUSH2 0x2F71 JUMP JUMPDEST PUSH1 0x64 PUSH1 0x40 MLOAD PUSH3 0x461BCD PUSH1 0xE5 SHL DUP2 MSTORE PUSH1 0x20 PUSH1 0x4 DUP3 ADD MSTORE PUSH1 0x4 PUSH1 0x24 DUP3 ADD MSTORE PUSH4 0x22189719 PUSH1 0xE1 SHL PUSH1 0x44 DUP3 ADD MSTORE REVERT JUMPDEST POP PUSH1 0x2 DUP2 ADD SLOAD PUSH1 0x1 PUSH1 0x1 PUSH1 0xA0 SHL SUB AND CALLER EQ PUSH2 0x29C3 JUMP JUMPDEST POP DUP1 SLOAD PUSH1 0x1 PUSH1 0x1 PUSH1 0xA0 SHL SUB AND CALLER EQ PUSH2 0x29BC JUMP JUMPDEST POP CALLVALUE PUSH2 0x59A JUMPI PUSH2 0x2FFA CALLDATASIZE PUSH2 0x5860 JUMP JUMPDEST DUP4 DUP6 SWAP5 SWAP4 SWAP3 SWAP5 MSTORE PUSH1 0x4 PUSH1 0x20 MSTORE PUSH1 0x40 DUP6 KECCAK256 SWAP1 PUSH1 0x1 DUP3 ADD SWAP5 PUSH2 0x3024 PUSH1 0x1 DUP1 PUSH1 0xA0 SHL SUB DUP8 SLOAD AND CALLER EQ PUSH2 0x5CEF JUMP JUMPDEST DUP7 PUSH20 0x0 DUP1 EXTCODESIZE ISZERO PUSH2 0x616 JUMPI DUP2 PUSH1 0x40 MLOAD DUP1 SWAP3 PUSH4 0x252A867 PUSH1 0xE5 SHL DUP3 MSTORE DUP2 DUP1 PUSH2 0x3060 DUP11 PUSH1 0x4 DUP4 ADD PUSH2 0x5E2E JUMP JUMPDEST SUB SWAP2 GAS DELEGATECALL DUP1 ISZERO PUSH2 0x60B JUMPI PUSH2 0x3377 JUMPI JUMPDEST POP POP PUSH1 0x2 DUP4 ADD SWAP7 PUSH2 0x3087 PUSH1 0xFF DUP10 SLOAD PUSH1 0xB0 SHR AND ISZERO PUSH2 0x5F13 JUMP JUMPDEST CALLER DUP2 MSTORE PUSH1 0x1 PUSH1 0x20 MSTORE PUSH1 0x40 DUP2 KECCAK256 PUSH1 0x1 DUP1 PUSH1 0xA0 SHL SUB DUP7 AND PUSH0 MSTORE PUSH1 0x20 MSTORE PUSH2 0x30B1 DUP3 PUSH1 0x40 PUSH0 KECCAK256 SLOAD LT ISZERO PUSH2 0x5A53 JUMP JUMPDEST PUSH2 0x30BC DUP3 DUP7 CALLER PUSH2 0x6609 JUMP JUMPDEST POP DUP3 PUSH2 0x335C JUMPI JUMPDEST CALLER DUP2 MSTORE PUSH1 0x1 PUSH1 0x20 MSTORE PUSH1 0x40 DUP2 KECCAK256 PUSH1 0x1 DUP1 PUSH1 0xA0 SHL SUB DUP7 AND PUSH0 MSTORE PUSH1 0x20 MSTORE PUSH1 0x40 PUSH0 KECCAK256 SLOAD DUP3 DUP2 LT PUSH2 0x3173 JUMPI JUMPDEST POP POP SWAP1 DUP2 DUP5 PUSH2 0x310B PUSH1 0x20 SWAP6 SWAP5 PUSH0 MLOAD PUSH1 0x20 PUSH2 0x6968 PUSH0 CODECOPY PUSH0 MLOAD SWAP1 PUSH0 MSTORE SWAP8 CALLER PUSH2 0x6609 JUMP JUMPDEST POP DUP9 SLOAD PUSH1 0xFF PUSH1 0xB0 SHL NOT AND PUSH1 0x1 PUSH1 0xB0 SHL OR DUP10 SSTORE PUSH1 0xA DUP5 ADD DUP1 SLOAD PUSH1 0x1 PUSH1 0x1 PUSH1 0xA0 SHL SUB NOT AND PUSH1 0x1 PUSH1 0x1 PUSH1 0xA0 SHL SUB SWAP3 DUP4 AND OR SWAP1 SSTORE PUSH1 0x4 DUP5 ADD DUP3 SWAP1 SSTORE PUSH1 0x6 DUP5 ADD SWAP2 SWAP1 SWAP2 SSTORE PUSH1 0x8 DUP4 ADD SWAP2 SWAP1 SWAP2 SSTORE SWAP1 SLOAD SWAP5 SLOAD SWAP6 SLOAD PUSH1 0x40 MLOAD SWAP1 DUP3 AND DUP2 MSTORE SWAP6 DUP2 AND SWAP6 SWAP5 AND SWAP4 LOG4 PUSH1 0x20 PUSH1 0x40 MLOAD PUSH1 0x1 DUP2 MSTORE RETURN JUMPDEST PUSH2 0x3181 SWAP1 DUP4 SWAP3 SWAP6 SWAP5 SWAP4 PUSH2 0x5DB4 JUMP JUMPDEST SWAP5 PUSH2 0x3192 PUSH1 0xFF DUP7 SLOAD PUSH1 0xA0 SHR AND PUSH2 0x5A22 JUMP JUMPDEST PUSH2 0x319D DUP7 ISZERO ISZERO PUSH2 0x5F82 JUMP JUMPDEST PUSH1 0x2 SLOAD SWAP5 PUSH1 0x40 MLOAD SWAP6 PUSH4 0x1C8F0847 PUSH1 0xE0 SHL DUP8 MSTORE DUP8 PUSH1 0x4 DUP9 ADD MSTORE PUSH1 0x24 DUP8 ADD MSTORE PUSH1 0x20 DUP7 PUSH1 0x44 DUP2 PUSH20 0x0 GAS DELEGATECALL SWAP6 DUP7 ISZERO PUSH2 0x5E9 JUMPI DUP2 SWAP7 PUSH2 0x3328 JUMPI JUMPDEST POP PUSH1 0x1 PUSH1 0x1 PUSH1 0xA0 SHL SUB DUP3 AND SWAP1 DUP2 PUSH2 0x3266 JUMPI POP PUSH2 0x3201 DUP7 DUP9 PUSH2 0x601B JUMP JUMPDEST PUSH2 0x498 JUMPI DUP7 PUSH1 0x20 SWAP7 PUSH2 0x3222 PUSH0 MLOAD PUSH1 0x20 PUSH2 0x6968 PUSH0 CODECOPY PUSH0 MLOAD SWAP1 PUSH0 MSTORE SWAP10 DUP6 CALLER PUSH2 0x67E6 JUMP JUMPDEST POP PUSH1 0x3 SLOAD PUSH2 0x323C SWAP1 DUP3 SWAP1 DUP7 SWAP1 PUSH1 0x1 PUSH1 0x1 PUSH1 0xA0 SHL SUB AND PUSH2 0x67E6 JUMP JUMPDEST POP JUMPDEST PUSH1 0x40 MLOAD SWAP2 DUP3 MSTORE DUP8 DUP3 ADD MSTORE PUSH0 MLOAD PUSH1 0x20 PUSH2 0x6948 PUSH0 CODECOPY PUSH0 MLOAD SWAP1 PUSH0 MSTORE PUSH1 0x40 CALLER SWAP3 LOG3 SWAP5 DUP2 SWAP3 SWAP4 SWAP5 POP PUSH2 0x30EA JUMP JUMPDEST PUSH2 0x3270 DUP8 DUP10 PUSH2 0x601B JUMP JUMPDEST PUSH1 0x40 MLOAD SWAP1 PUSH4 0x23B872DD PUSH1 0xE0 SHL DUP3 MSTORE CALLER PUSH1 0x4 DUP4 ADD MSTORE ADDRESS PUSH1 0x24 DUP4 ADD MSTORE PUSH1 0x44 DUP3 ADD MSTORE PUSH1 0x20 DUP2 PUSH1 0x64 DUP2 DUP6 DUP8 GAS CALL SWAP2 DUP3 ISZERO PUSH2 0x5A5 JUMPI DUP1 SWAP3 PUSH2 0x32EB JUMPI JUMPDEST POP POP ISZERO PUSH2 0x53B JUMPI DUP7 PUSH1 0x20 SWAP7 PUSH2 0x32CB PUSH0 MLOAD PUSH1 0x20 PUSH2 0x6968 PUSH0 CODECOPY PUSH0 MLOAD SWAP1 PUSH0 MSTORE SWAP10 DUP6 CALLER PUSH2 0x67E6 JUMP JUMPDEST POP PUSH1 0x3 SLOAD PUSH2 0x32E5 SWAP1 DUP3 SWAP1 DUP7 SWAP1 PUSH1 0x1 PUSH1 0x1 PUSH1 0xA0 SHL SUB AND PUSH2 0x67E6 JUMP JUMPDEST POP PUSH2 0x323E JUMP JUMPDEST SWAP1 SWAP2 POP PUSH1 0x20 DUP3 RETURNDATASIZE PUSH1 0x20 GT PUSH2 0x3320 JUMPI JUMPDEST DUP2 PUSH2 0x3307 PUSH1 0x20 SWAP4 DUP4 PUSH2 0x5AED JUMP JUMPDEST DUP2 ADD SUB SLT PUSH2 0x59A JUMPI POP PUSH2 0x3319 SWAP1 PUSH2 0x5B23 JUMP JUMPDEST PUSH0 DUP1 PUSH2 0x32A7 JUMP JUMPDEST RETURNDATASIZE SWAP2 POP PUSH2 0x32FA JUMP JUMPDEST SWAP1 SWAP6 POP PUSH1 0x20 DUP2 RETURNDATASIZE PUSH1 0x20 GT PUSH2 0x3354 JUMPI JUMPDEST DUP2 PUSH2 0x3344 PUSH1 0x20 SWAP4 DUP4 PUSH2 0x5AED JUMP JUMPDEST DUP2 ADD SUB SLT PUSH2 0x5DD JUMPI MLOAD SWAP5 PUSH0 PUSH2 0x31E5 JUMP JUMPDEST RETURNDATASIZE SWAP2 POP PUSH2 0x3337 JUMP JUMPDEST DUP8 SLOAD PUSH2 0x3372 SWAP1 PUSH1 0x1 PUSH1 0x1 PUSH1 0xA0 SHL SUB AND ISZERO ISZERO PUSH2 0x5D82 JUMP JUMPDEST PUSH2 0x30C3 JUMP JUMPDEST DUP2 PUSH2 0x3381 SWAP2 PUSH2 0x5AED JUMP JUMPDEST PUSH2 0x338C JUMPI DUP7 PUSH0 PUSH2 0x306F JUMP JUMPDEST DUP7 DUP1 REVERT JUMPDEST POP CALLVALUE PUSH2 0x59A JUMPI PUSH1 0x20 PUSH2 0x9DD PUSH2 0x33A4 CALLDATASIZE PUSH2 0x5A03 JUMP JUMPDEST SWAP1 PUSH2 0x60BE JUMP JUMPDEST POP CALLVALUE PUSH2 0x59A JUMPI PUSH1 0x20 CALLDATASIZE PUSH1 0x3 NOT ADD SLT PUSH2 0x59A JUMPI PUSH1 0x40 PUSH1 0xA0 SWAP2 PUSH1 0x4 CALLDATALOAD DUP2 MSTORE PUSH1 0xA PUSH1 0x20 MSTORE KECCAK256 PUSH1 0xFF PUSH1 0x1 DUP3 SLOAD SWAP3 ADD SLOAD PUSH1 0x40 MLOAD SWAP3 DUP4 MSTORE PUSH1 0x1 DUP1 DUP6 SHL SUB DUP2 AND PUSH1 0x20 DUP5 ADD MSTORE DUP2 DUP2 DUP6 SHR AND ISZERO ISZERO PUSH1 0x40 DUP5 ADD MSTORE DUP2 DUP2 PUSH1 0xA8 SHR AND ISZERO ISZERO PUSH1 0x60 DUP5 ADD MSTORE PUSH1 0xB0 SHR AND ISZERO ISZERO PUSH1 0x80 DUP3 ADD MSTORE RETURN JUMPDEST POP CALLVALUE PUSH2 0x59A JUMPI PUSH1 0x20 CALLDATASIZE PUSH1 0x3 NOT ADD SLT PUSH2 0x59A JUMPI PUSH1 0x4 CALLDATALOAD DUP1 DUP3 MSTORE PUSH1 0x4 PUSH1 0x20 MSTORE PUSH1 0x40 DUP3 KECCAK256 PUSH1 0x1 DUP1 PUSH1 0xA0 SHL SUB DUP2 SLOAD AND CALLER EQ DUP1 ISZERO PUSH2 0x371B JUMPI JUMPDEST PUSH2 0x344B SWAP1 PUSH2 0x5CEF JUMP JUMPDEST DUP3 PUSH20 0x0 DUP1 EXTCODESIZE ISZERO PUSH2 0x616 JUMPI DUP2 PUSH1 0x40 MLOAD DUP1 SWAP3 PUSH4 0x252A867 PUSH1 0xE5 SHL DUP3 MSTORE DUP2 DUP1 PUSH2 0x3487 DUP9 PUSH1 0x4 DUP4 ADD PUSH2 0x5E2E JUMP JUMPDEST SUB SWAP2 GAS DELEGATECALL DUP1 ISZERO PUSH2 0x60B JUMPI PUSH2 0x3706 JUMPI JUMPDEST POP POP PUSH1 0x5 DUP2 ADD SLOAD PUSH1 0x9 DUP3 ADD SLOAD PUSH1 0x6 DUP4 ADD SLOAD PUSH1 0xA DUP5 ADD SLOAD PUSH1 0x7 DUP6 ADD SLOAD PUSH1 0x8 DUP7 ADD SLOAD PUSH1 0x40 MLOAD PUSH4 0x1C8F0847 PUSH1 0xE0 SHL DUP2 MSTORE PUSH1 0x4 DUP2 ADD DUP8 SWAP1 MSTORE PUSH1 0x24 DUP2 ADD SWAP3 SWAP1 SWAP3 MSTORE PUSH1 0x1 PUSH1 0x1 PUSH1 0xA0 SHL SUB SWAP5 DUP6 AND SWAP7 SWAP4 SWAP6 PUSH20 0x0 SWAP6 SWAP1 SWAP4 AND SWAP4 SWAP1 PUSH1 0x20 DUP4 PUSH1 0x44 DUP2 DUP10 GAS DELEGATECALL SWAP3 DUP4 ISZERO PUSH2 0x8B3 JUMPI DUP11 SWAP4 PUSH2 0x36D1 JUMPI JUMPDEST POP PUSH1 0x20 SWAP1 PUSH1 0x44 PUSH1 0x40 MLOAD DUP1 SWAP9 DUP2 SWAP4 PUSH4 0x1C8F0847 PUSH1 0xE0 SHL DUP4 MSTORE DUP12 PUSH1 0x4 DUP5 ADD MSTORE PUSH1 0x24 DUP4 ADD MSTORE GAS DELEGATECALL SWAP5 DUP6 ISZERO PUSH2 0x36C6 JUMPI DUP9 SWAP10 SWAP9 SWAP8 SWAP9 SWAP6 PUSH2 0x368B JUMPI JUMPDEST POP PUSH1 0x1 DUP2 ADD DUP1 SLOAD SWAP1 SWAP5 DUP9 SWAP5 SWAP4 SWAP3 SWAP2 PUSH1 0x1 PUSH1 0x1 PUSH1 0xA0 SHL SUB AND DUP11 PUSH2 0x356A DUP6 DUP8 PUSH2 0x5DB4 JUMP JUMPDEST SWAP1 PUSH2 0x3574 SWAP3 PUSH2 0x67E6 JUMP JUMPDEST POP PUSH1 0x2 DUP3 ADD DUP1 SLOAD SWAP1 SWAP11 PUSH2 0x3592 SWAP2 DUP6 SWAP2 SWAP1 PUSH1 0x1 PUSH1 0x1 PUSH1 0xA0 SHL SUB AND PUSH2 0x67E6 JUMP JUMPDEST POP DUP2 SLOAD PUSH1 0x1 PUSH1 0x1 PUSH1 0xA0 SHL SUB AND DUP2 PUSH2 0x35A9 DUP11 DUP1 PUSH2 0x5DB4 JUMP JUMPDEST SWAP1 PUSH2 0x35B3 SWAP3 PUSH2 0x67E6 JUMP JUMPDEST POP DUP10 SLOAD PUSH2 0x35CA SWAP2 DUP9 SWAP2 PUSH1 0x1 PUSH1 0x1 PUSH1 0xA0 SHL SUB AND PUSH2 0x67E6 JUMP JUMPDEST POP SLOAD SWAP4 SLOAD SWAP8 SLOAD PUSH1 0x40 MLOAD PUSH1 0x1 PUSH1 0x1 PUSH1 0xA0 SHL SUB SWAP10 DUP11 AND SWAP11 SWAP6 DUP11 AND SWAP10 SWAP1 SWAP2 AND SWAP7 DUP11 SWAP7 DUP11 SWAP7 DUP9 SWAP4 DUP9 SWAP4 SWAP2 SWAP3 SWAP1 SWAP2 DUP3 SWAP2 PUSH2 0x3601 SWAP2 CALLER DUP15 DUP6 PUSH2 0x5DC1 JUMP JUMPDEST SUB PUSH0 MLOAD PUSH1 0x20 PUSH2 0x6888 PUSH0 CODECOPY PUSH0 MLOAD SWAP1 PUSH0 MSTORE SWAP2 LOG4 PUSH1 0x40 MLOAD SWAP2 DUP3 SWAP2 PUSH2 0x3624 SWAP2 CALLER DUP10 DUP6 PUSH2 0x5DC1 JUMP JUMPDEST SUB PUSH0 MLOAD PUSH1 0x20 PUSH2 0x6928 PUSH0 CODECOPY PUSH0 MLOAD SWAP1 PUSH0 MSTORE SWAP2 LOG4 PUSH1 0x40 DUP1 MLOAD PUSH1 0x1 PUSH1 0x1 PUSH1 0xA0 SHL SUB SWAP3 SWAP1 SWAP3 AND DUP3 MSTORE CALLER PUSH1 0x20 DUP4 ADD MSTORE PUSH32 0xFAEE379435B6A0C297F1A08C66517FDC202DEBC6D275E6DD73630E3EBD1BDD97 SWAP2 LOG4 PUSH1 0x6 SLOAD PUSH2 0x367C SWAP1 PUSH2 0x5CB5 JUMP JUMPDEST PUSH1 0x6 SSTORE PUSH1 0x40 MLOAD PUSH1 0x1 DUP2 MSTORE PUSH1 0x20 SWAP1 RETURN JUMPDEST SWAP3 SWAP2 SWAP7 POP SWAP4 POP PUSH1 0x20 DUP3 RETURNDATASIZE PUSH1 0x20 GT PUSH2 0x36BE JUMPI JUMPDEST DUP2 PUSH2 0x36AA PUSH1 0x20 SWAP4 DUP4 PUSH2 0x5AED JUMP JUMPDEST DUP2 ADD SUB SLT PUSH2 0x5DD JUMPI SWAP1 MLOAD DUP8 SWAP6 SWAP1 SWAP4 DUP7 PUSH2 0x3548 JUMP JUMPDEST RETURNDATASIZE SWAP2 POP PUSH2 0x369D JUMP JUMPDEST PUSH1 0x40 MLOAD RETURNDATASIZE DUP12 DUP3 RETURNDATACOPY RETURNDATASIZE SWAP1 REVERT JUMPDEST SWAP1 SWAP3 POP PUSH1 0x20 DUP2 RETURNDATASIZE PUSH1 0x20 GT PUSH2 0x36FE JUMPI JUMPDEST DUP2 PUSH2 0x36ED PUSH1 0x20 SWAP4 DUP4 PUSH2 0x5AED JUMP JUMPDEST DUP2 ADD SUB SLT PUSH2 0x5DD JUMPI MLOAD SWAP2 PUSH1 0x20 PUSH2 0x3512 JUMP JUMPDEST RETURNDATASIZE SWAP2 POP PUSH2 0x36E0 JUMP JUMPDEST DUP2 PUSH2 0x3710 SWAP2 PUSH2 0x5AED JUMP JUMPDEST PUSH2 0xC39 JUMPI DUP3 PUSH0 PUSH2 0x3496 JUMP JUMPDEST POP PUSH1 0x2 DUP2 ADD SLOAD PUSH1 0x1 PUSH1 0x1 PUSH1 0xA0 SHL SUB AND CALLER EQ PUSH2 0x3442 JUMP JUMPDEST POP CALLVALUE PUSH2 0x59A JUMPI PUSH1 0x20 CALLDATASIZE PUSH1 0x3 NOT ADD SLT PUSH2 0x59A JUMPI PUSH1 0x40 DUP2 PUSH2 0x220 SWAP3 PUSH2 0x200 DUP4 MLOAD PUSH2 0x3758 DUP2 PUSH2 0x5AB4 JUMP JUMPDEST DUP3 DUP2 MSTORE DUP3 PUSH1 0x20 DUP3 ADD MSTORE DUP3 DUP6 DUP3 ADD MSTORE DUP3 PUSH1 0x60 DUP3 ADD MSTORE DUP3 PUSH1 0x80 DUP3 ADD MSTORE DUP3 PUSH1 0xA0 DUP3 ADD MSTORE DUP3 PUSH1 0xC0 DUP3 ADD MSTORE DUP3 PUSH1 0xE0 DUP3 ADD MSTORE DUP3 PUSH2 0x100 DUP3 ADD MSTORE DUP3 PUSH2 0x120 DUP3 ADD MSTORE DUP3 PUSH2 0x140 DUP3 ADD MSTORE DUP3 PUSH2 0x160 DUP3 ADD MSTORE DUP3 PUSH2 0x180 DUP3 ADD MSTORE DUP3 PUSH2 0x1A0 DUP3 ADD MSTORE DUP3 PUSH2 0x1C0 DUP3 ADD MSTORE DUP3 PUSH2 0x1E0 DUP3 ADD MSTORE ADD MSTORE PUSH1 0x4 CALLDATALOAD DUP2 MSTORE PUSH1 0x4 PUSH1 0x20 MSTORE KECCAK256 PUSH2 0x38AC PUSH1 0xFF PUSH1 0xC PUSH1 0x40 MLOAD SWAP4 PUSH2 0x37DD DUP6 PUSH2 0x5AB4 JUMP JUMPDEST DUP1 SLOAD PUSH1 0x1 PUSH1 0x1 PUSH1 0xA0 SHL SUB SWAP1 DUP2 AND DUP7 MSTORE PUSH1 0x1 DUP3 ADD SLOAD DUP2 AND PUSH1 0x20 DUP8 ADD MSTORE PUSH1 0x2 DUP3 ADD SLOAD DUP1 DUP3 AND PUSH1 0x40 DUP9 ADD MSTORE PUSH1 0xA0 DUP2 DUP2 SHR DUP7 AND ISZERO ISZERO PUSH1 0x60 DUP10 ADD MSTORE PUSH1 0xA8 DUP3 SWAP1 SHR DUP7 AND ISZERO ISZERO PUSH1 0x80 DUP10 ADD MSTORE PUSH1 0xB0 DUP3 SWAP1 SHR DUP7 AND ISZERO ISZERO SWAP1 DUP9 ADD MSTORE PUSH1 0xB8 SHR DUP5 AND ISZERO ISZERO PUSH1 0xC0 DUP8 ADD MSTORE PUSH1 0x3 DUP3 ADD SLOAD PUSH1 0xE0 DUP8 ADD MSTORE PUSH1 0x4 DUP3 ADD SLOAD PUSH2 0x100 DUP8 ADD MSTORE PUSH1 0x5 DUP3 ADD SLOAD PUSH2 0x120 DUP8 ADD MSTORE PUSH1 0x6 DUP3 ADD SLOAD PUSH2 0x140 DUP8 ADD MSTORE PUSH1 0x7 DUP3 ADD SLOAD PUSH2 0x160 DUP8 ADD MSTORE PUSH1 0x8 DUP3 ADD SLOAD PUSH2 0x180 DUP8 ADD MSTORE PUSH1 0x9 DUP3 ADD SLOAD DUP2 AND PUSH2 0x1A0 DUP8 ADD MSTORE PUSH1 0xA DUP3 ADD SLOAD AND PUSH2 0x1C0 DUP7 ADD MSTORE PUSH1 0xB DUP2 ADD SLOAD PUSH2 0x1E0 DUP7 ADD MSTORE ADD SLOAD AND PUSH2 0x200 DUP4 ADD PUSH2 0x5F45 JUMP JUMPDEST PUSH2 0x38B9 PUSH1 0x40 MLOAD DUP1 SWAP3 PUSH2 0x5914 JUMP JUMPDEST RETURN JUMPDEST POP CALLVALUE PUSH2 0x59A JUMPI PUSH2 0x38CA CALLDATASIZE PUSH2 0x588E JUMP JUMPDEST SWAP1 DUP1 DUP4 MSTORE PUSH1 0x4 PUSH1 0x20 MSTORE PUSH1 0x40 DUP4 KECCAK256 SWAP3 PUSH1 0x1 DUP5 ADD SWAP3 PUSH1 0x1 DUP1 PUSH1 0xA0 SHL SUB DUP5 SLOAD AND CALLER EQ DUP1 ISZERO PUSH2 0x3A2F JUMPI JUMPDEST PUSH2 0x38F9 SWAP1 PUSH2 0x5CEF JUMP JUMPDEST PUSH20 0x0 DUP1 EXTCODESIZE ISZERO PUSH2 0xC39 JUMPI DUP3 PUSH1 0x40 MLOAD DUP1 SWAP3 PUSH4 0x252A867 PUSH1 0xE5 SHL DUP3 MSTORE DUP2 DUP1 PUSH2 0x3934 DUP12 PUSH1 0x4 DUP4 ADD PUSH2 0x5E2E JUMP JUMPDEST SUB SWAP2 GAS DELEGATECALL DUP1 ISZERO PUSH2 0xC2E JUMPI SWAP1 DUP4 SWAP2 PUSH2 0x3A1A JUMPI JUMPDEST POP POP PUSH1 0x5 DUP6 ADD PUSH2 0x395D DUP3 DUP3 SLOAD PUSH2 0xB0F DUP3 DUP3 LT PUSH2 0x5A53 JUMP JUMPDEST SWAP1 SSTORE PUSH1 0x1 DUP1 PUSH1 0xA0 SHL SUB PUSH1 0x9 DUP7 ADD SLOAD AND SWAP5 PUSH1 0x7 DUP2 ADD SLOAD PUSH1 0x40 MLOAD SWAP1 PUSH4 0x1C8F0847 PUSH1 0xE0 SHL DUP3 MSTORE DUP4 PUSH1 0x4 DUP4 ADD MSTORE PUSH1 0x24 DUP3 ADD MSTORE PUSH1 0x20 DUP2 PUSH1 0x44 DUP2 PUSH20 0x0 GAS DELEGATECALL SWAP4 DUP5 ISZERO PUSH2 0x5A5 JUMPI SWAP4 PUSH2 0x39E4 JUMPI JUMPDEST POP DUP1 SLOAD PUSH0 MLOAD PUSH1 0x20 PUSH2 0x6908 PUSH0 CODECOPY PUSH0 MLOAD SWAP1 PUSH0 MSTORE SWAP4 SWAP2 PUSH2 0x3B3 SWAP2 PUSH2 0x286D SWAP1 PUSH1 0x1 PUSH1 0x1 PUSH1 0xA0 SHL SUB AND DUP10 PUSH2 0x2867 DUP7 DUP9 PUSH2 0x5DB4 JUMP JUMPDEST SWAP3 POP PUSH1 0x20 DUP4 RETURNDATASIZE PUSH1 0x20 GT PUSH2 0x3A12 JUMPI JUMPDEST DUP2 PUSH2 0x39FF PUSH1 0x20 SWAP4 DUP4 PUSH2 0x5AED JUMP JUMPDEST DUP2 ADD SUB SLT PUSH2 0x5DD JUMPI SWAP2 MLOAD SWAP2 PUSH2 0x3B3 PUSH2 0x39B5 JUMP JUMPDEST RETURNDATASIZE SWAP2 POP PUSH2 0x39F2 JUMP JUMPDEST DUP2 PUSH2 0x3A24 SWAP2 PUSH2 0x5AED JUMP JUMPDEST PUSH2 0x616 JUMPI DUP2 PUSH0 PUSH2 0x3946 JUMP JUMPDEST POP PUSH1 0x2 DUP6 ADD SLOAD PUSH1 0x1 PUSH1 0x1 PUSH1 0xA0 SHL SUB AND CALLER EQ PUSH2 0x38F0 JUMP JUMPDEST POP CALLVALUE PUSH2 0x59A JUMPI PUSH2 0x3A54 CALLDATASIZE PUSH2 0x588E JUMP JUMPDEST SWAP2 SWAP1 DUP1 DUP3 MSTORE PUSH1 0x4 PUSH1 0x20 MSTORE PUSH1 0x40 DUP3 KECCAK256 SWAP2 PUSH1 0x1 DUP1 PUSH1 0xA0 SHL SUB DUP4 SLOAD AND CALLER EQ DUP1 ISZERO PUSH2 0x3BC4 JUMPI JUMPDEST PUSH2 0x3A7F SWAP1 PUSH2 0x5CEF JUMP JUMPDEST PUSH20 0x0 DUP1 EXTCODESIZE ISZERO PUSH2 0x616 JUMPI DUP2 PUSH1 0x40 MLOAD DUP1 SWAP3 PUSH4 0x252A867 PUSH1 0xE5 SHL DUP3 MSTORE DUP2 DUP1 PUSH2 0x3ABA DUP10 PUSH1 0x4 DUP4 ADD PUSH2 0x5E2E JUMP JUMPDEST SUB SWAP2 GAS DELEGATECALL DUP1 ISZERO PUSH2 0x60B JUMPI SWAP1 DUP3 SWAP2 PUSH2 0x3BAF JUMPI JUMPDEST POP POP PUSH1 0x5 DUP4 ADD PUSH2 0x3AE3 DUP6 DUP3 SLOAD PUSH2 0xB0F DUP3 DUP3 LT PUSH2 0x5A53 JUMP JUMPDEST SWAP1 SSTORE PUSH1 0x1 DUP1 PUSH1 0xA0 SHL SUB PUSH1 0x9 DUP5 ADD SLOAD AND SWAP4 PUSH1 0x7 DUP5 ADD SLOAD SWAP2 PUSH1 0x40 MLOAD SWAP3 PUSH4 0x1C8F0847 PUSH1 0xE0 SHL DUP5 MSTORE DUP3 PUSH1 0x4 DUP6 ADD MSTORE PUSH1 0x24 DUP5 ADD MSTORE PUSH1 0x20 DUP4 PUSH1 0x44 DUP2 PUSH20 0x0 GAS DELEGATECALL SWAP1 DUP2 ISZERO PUSH2 0x5A5 JUMPI SWAP1 PUSH2 0x3B70 JUMPI JUMPDEST PUSH1 0x1 DUP6 ADD DUP1 SLOAD SWAP1 SWAP6 PUSH0 MLOAD PUSH1 0x20 PUSH2 0x6928 PUSH0 CODECOPY PUSH0 MLOAD SWAP1 PUSH0 MSTORE SWAP5 POP PUSH2 0x3B3 SWAP2 PUSH2 0xBA1 SWAP1 PUSH1 0x1 PUSH1 0x1 PUSH1 0xA0 SHL SUB AND DUP10 PUSH2 0xB9B DUP7 DUP9 PUSH2 0x5DB4 JUMP JUMPDEST POP PUSH1 0x20 DUP3 RETURNDATASIZE PUSH1 0x20 GT PUSH2 0x3BA7 JUMPI JUMPDEST DUP2 PUSH2 0x3B8A PUSH1 0x20 SWAP4 DUP4 PUSH2 0x5AED JUMP JUMPDEST DUP2 ADD SUB SLT PUSH2 0x5DD JUMPI PUSH0 MLOAD PUSH1 0x20 PUSH2 0x6928 PUSH0 CODECOPY PUSH0 MLOAD SWAP1 PUSH0 MSTORE SWAP2 MLOAD PUSH2 0x3B3C JUMP JUMPDEST RETURNDATASIZE SWAP2 POP PUSH2 0x3B7D JUMP JUMPDEST DUP2 PUSH2 0x3BB9 SWAP2 PUSH2 0x5AED JUMP JUMPDEST PUSH2 0x59A JUMPI DUP1 PUSH0 PUSH2 0x3ACC JUMP JUMPDEST POP PUSH1 0x2 DUP4 ADD SLOAD PUSH1 0x1 PUSH1 0x1 PUSH1 0xA0 SHL SUB AND CALLER EQ PUSH2 0x3A76 JUMP JUMPDEST POP PUSH1 0x40 CALLDATASIZE PUSH1 0x3 NOT ADD SLT PUSH2 0x59A JUMPI PUSH2 0x3BEF PUSH2 0x57C8 JUMP JUMPDEST PUSH1 0x24 CALLDATALOAD PUSH2 0x3C02 PUSH1 0xFF DUP5 SLOAD PUSH1 0xA0 SHR AND PUSH2 0x5A22 JUMP JUMPDEST PUSH2 0x3C0D DUP2 ISZERO ISZERO PUSH2 0x5F82 JUMP JUMPDEST PUSH1 0x2 SLOAD PUSH1 0x40 MLOAD SWAP1 PUSH4 0x1C8F0847 PUSH1 0xE0 SHL DUP3 MSTORE DUP3 PUSH1 0x4 DUP4 ADD MSTORE PUSH1 0x24 DUP3 ADD MSTORE PUSH1 0x20 DUP2 PUSH1 0x44 DUP2 PUSH20 0x0 GAS DELEGATECALL SWAP1 DUP2 ISZERO PUSH2 0x3D92 JUMPI DUP5 SWAP2 PUSH2 0x3D60 JUMPI JUMPDEST POP PUSH1 0x1 PUSH1 0x1 PUSH1 0xA0 SHL SUB DUP4 AND SWAP3 DUP4 PUSH2 0x3CBA JUMPI PUSH2 0x3C6F DUP3 DUP5 PUSH2 0x601B JUMP JUMPDEST CALLVALUE SUB PUSH2 0x498 JUMPI DUP2 DUP2 PUSH2 0x3C85 DUP6 PUSH2 0x3C97 SWAP5 CALLER PUSH2 0x67E6 JUMP JUMPDEST POP PUSH1 0x3 SLOAD PUSH1 0x1 PUSH1 0x1 PUSH1 0xA0 SHL SUB AND PUSH2 0x67E6 JUMP JUMPDEST POP JUMPDEST PUSH1 0x40 MLOAD SWAP2 DUP3 MSTORE PUSH1 0x20 DUP3 ADD MSTORE PUSH0 MLOAD PUSH1 0x20 PUSH2 0x6948 PUSH0 CODECOPY PUSH0 MLOAD SWAP1 PUSH0 MSTORE PUSH1 0x40 CALLER SWAP3 LOG3 DUP1 RETURN JUMPDEST PUSH2 0x3CC4 DUP3 DUP5 PUSH2 0x601B JUMP JUMPDEST PUSH1 0x40 MLOAD SWAP1 PUSH4 0x23B872DD PUSH1 0xE0 SHL DUP3 MSTORE CALLER PUSH1 0x4 DUP4 ADD MSTORE ADDRESS PUSH1 0x24 DUP4 ADD MSTORE PUSH1 0x44 DUP3 ADD MSTORE PUSH1 0x20 DUP2 PUSH1 0x64 DUP2 DUP10 DUP10 GAS CALL SWAP1 DUP2 ISZERO PUSH2 0x3D55 JUMPI DUP7 SWAP2 PUSH2 0x3D17 JUMPI JUMPDEST POP ISZERO PUSH2 0x53B JUMPI DUP2 DUP2 PUSH2 0x3C85 DUP6 PUSH2 0x3D11 SWAP5 CALLER PUSH2 0x67E6 JUMP JUMPDEST POP PUSH2 0x3C99 JUMP JUMPDEST SWAP1 POP PUSH1 0x20 DUP2 RETURNDATASIZE PUSH1 0x20 GT PUSH2 0x3D4D JUMPI JUMPDEST DUP2 PUSH2 0x3D32 PUSH1 0x20 SWAP4 DUP4 PUSH2 0x5AED JUMP JUMPDEST DUP2 ADD SUB SLT PUSH2 0x3D49 JUMPI PUSH2 0x3D43 SWAP1 PUSH2 0x5B23 JUMP JUMPDEST PUSH0 PUSH2 0x3CFB JUMP JUMPDEST DUP6 DUP1 REVERT JUMPDEST RETURNDATASIZE SWAP2 POP PUSH2 0x3D25 JUMP JUMPDEST PUSH1 0x40 MLOAD RETURNDATASIZE DUP9 DUP3 RETURNDATACOPY RETURNDATASIZE SWAP1 REVERT JUMPDEST SWAP1 POP PUSH1 0x20 DUP2 RETURNDATASIZE PUSH1 0x20 GT PUSH2 0x3D8A JUMPI JUMPDEST DUP2 PUSH2 0x3D7B PUSH1 0x20 SWAP4 DUP4 PUSH2 0x5AED JUMP JUMPDEST DUP2 ADD SUB SLT PUSH2 0x5DD JUMPI MLOAD PUSH0 PUSH2 0x3C54 JUMP JUMPDEST RETURNDATASIZE SWAP2 POP PUSH2 0x3D6E JUMP JUMPDEST PUSH1 0x40 MLOAD RETURNDATASIZE DUP7 DUP3 RETURNDATACOPY RETURNDATASIZE SWAP1 REVERT JUMPDEST POP CALLVALUE PUSH2 0x59A JUMPI DUP1 PUSH1 0x3 NOT CALLDATASIZE ADD SLT PUSH2 0x59A JUMPI PUSH1 0xFF PUSH1 0x20 SWAP2 SLOAD PUSH1 0xA0 SHR AND PUSH1 0x40 MLOAD SWAP1 ISZERO ISZERO DUP2 MSTORE RETURN JUMPDEST POP CALLVALUE PUSH2 0x59A JUMPI PUSH1 0x20 CALLDATASIZE PUSH1 0x3 NOT ADD SLT PUSH2 0x59A JUMPI PUSH1 0x40 PUSH1 0x4 CALLDATALOAD SWAP2 DUP3 DUP2 MSTORE PUSH1 0x4 PUSH1 0x20 MSTORE KECCAK256 SWAP1 PUSH1 0x1 DUP3 ADD SWAP2 PUSH2 0x3DFD PUSH1 0x1 DUP1 PUSH1 0xA0 SHL SUB DUP5 SLOAD AND CALLER EQ PUSH2 0x5CEF JUMP JUMPDEST PUSH1 0x2 DUP2 ADD SWAP1 PUSH2 0x3E16 DUP3 SLOAD PUSH2 0x187D PUSH1 0xFF DUP3 PUSH1 0xB0 SHR AND PUSH2 0x6028 JUMP JUMPDEST PUSH1 0xA DUP2 ADD SLOAD PUSH2 0x18E4 SWAP1 PUSH1 0x1 PUSH1 0x1 PUSH1 0xA0 SHL SUB AND PUSH2 0x3E32 DUP2 CALLER PUSH2 0x65E0 JUMP JUMPDEST SWAP1 PUSH2 0x1660 PUSH1 0x4 DUP6 ADD SLOAD DUP1 SWAP4 LT ISZERO PUSH2 0x5A53 JUMP JUMPDEST POP CALLVALUE PUSH2 0x59A JUMPI PUSH2 0x3E53 CALLDATASIZE PUSH2 0x588E JUMP JUMPDEST SWAP2 SWAP1 DUP1 DUP3 MSTORE PUSH1 0x4 PUSH1 0x20 MSTORE PUSH1 0x40 DUP3 KECCAK256 SWAP2 PUSH1 0x1 DUP1 PUSH1 0xA0 SHL SUB DUP4 SLOAD AND CALLER EQ DUP1 ISZERO PUSH2 0x3FC3 JUMPI JUMPDEST PUSH2 0x3E7E SWAP1 PUSH2 0x5CEF JUMP JUMPDEST PUSH20 0x0 DUP1 EXTCODESIZE ISZERO PUSH2 0x616 JUMPI DUP2 PUSH1 0x40 MLOAD DUP1 SWAP3 PUSH4 0x252A867 PUSH1 0xE5 SHL DUP3 MSTORE DUP2 DUP1 PUSH2 0x3EB9 DUP10 PUSH1 0x4 DUP4 ADD PUSH2 0x5E2E JUMP JUMPDEST SUB SWAP2 GAS DELEGATECALL DUP1 ISZERO PUSH2 0x60B JUMPI SWAP1 DUP3 SWAP2 PUSH2 0x3FAE JUMPI JUMPDEST POP POP PUSH1 0x5 DUP4 ADD PUSH2 0x3EE2 DUP6 DUP3 SLOAD PUSH2 0xB0F DUP3 DUP3 LT PUSH2 0x5A53 JUMP JUMPDEST SWAP1 SSTORE PUSH1 0x1 DUP1 PUSH1 0xA0 SHL SUB PUSH1 0x9 DUP5 ADD SLOAD AND SWAP4 PUSH1 0x7 DUP5 ADD SLOAD SWAP2 PUSH1 0x40 MLOAD SWAP3 PUSH4 0x1C8F0847 PUSH1 0xE0 SHL DUP5 MSTORE DUP3 PUSH1 0x4 DUP6 ADD MSTORE PUSH1 0x24 DUP5 ADD MSTORE PUSH1 0x20 DUP4 PUSH1 0x44 DUP2 PUSH20 0x0 GAS DELEGATECALL SWAP1 DUP2 ISZERO PUSH2 0x5A5 JUMPI SWAP1 PUSH2 0x3F6F JUMPI JUMPDEST PUSH1 0x1 DUP6 ADD DUP1 SLOAD SWAP1 SWAP6 PUSH0 MLOAD PUSH1 0x20 PUSH2 0x6928 PUSH0 CODECOPY PUSH0 MLOAD SWAP1 PUSH0 MSTORE SWAP5 POP PUSH2 0x3B3 SWAP2 PUSH2 0x286D SWAP1 PUSH1 0x1 PUSH1 0x1 PUSH1 0xA0 SHL SUB AND DUP10 PUSH2 0x2867 DUP7 DUP9 PUSH2 0x5DB4 JUMP JUMPDEST POP PUSH1 0x20 DUP3 RETURNDATASIZE PUSH1 0x20 GT PUSH2 0x3FA6 JUMPI JUMPDEST DUP2 PUSH2 0x3F89 PUSH1 0x20 SWAP4 DUP4 PUSH2 0x5AED JUMP JUMPDEST DUP2 ADD SUB SLT PUSH2 0x5DD JUMPI PUSH0 MLOAD PUSH1 0x20 PUSH2 0x6928 PUSH0 CODECOPY PUSH0 MLOAD SWAP1 PUSH0 MSTORE SWAP2 MLOAD PUSH2 0x3F3B JUMP JUMPDEST RETURNDATASIZE SWAP2 POP PUSH2 0x3F7C JUMP JUMPDEST DUP2 PUSH2 0x3FB8 SWAP2 PUSH2 0x5AED JUMP JUMPDEST PUSH2 0x59A JUMPI DUP1 PUSH0 PUSH2 0x3ECB JUMP JUMPDEST POP PUSH1 0x2 DUP4 ADD SLOAD PUSH1 0x1 PUSH1 0x1 PUSH1 0xA0 SHL SUB AND CALLER EQ PUSH2 0x3E75 JUMP JUMPDEST POP CALLVALUE PUSH2 0x59A JUMPI PUSH1 0x20 CALLDATASIZE PUSH1 0x3 NOT ADD SLT PUSH2 0x59A JUMPI PUSH1 0x4 CALLDATALOAD SWAP1 PUSH1 0x2 SLOAD PUSH1 0x40 MLOAD SWAP1 PUSH4 0x1C8F0847 PUSH1 0xE0 SHL DUP3 MSTORE DUP4 PUSH1 0x4 DUP4 ADD MSTORE PUSH1 0x24 DUP3 ADD MSTORE PUSH1 0x20 DUP2 PUSH1 0x44 DUP2 PUSH20 0x0 GAS DELEGATECALL SWAP2 DUP3 ISZERO PUSH2 0x5A5 JUMPI SWAP2 PUSH2 0x4049 JUMPI JUMPDEST PUSH1 0x20 PUSH2 0x4041 DUP4 DUP6 PUSH2 0x601B JUMP JUMPDEST PUSH1 0x40 MLOAD SWAP1 DUP2 MSTORE RETURN JUMPDEST SWAP1 POP PUSH1 0x20 DUP2 RETURNDATASIZE PUSH1 0x20 GT PUSH2 0x4074 JUMPI JUMPDEST DUP2 PUSH2 0x4064 PUSH1 0x20 SWAP4 DUP4 PUSH2 0x5AED JUMP JUMPDEST DUP2 ADD SUB SLT PUSH2 0x5DD JUMPI MLOAD PUSH1 0x20 PUSH2 0x4035 JUMP JUMPDEST RETURNDATASIZE SWAP2 POP PUSH2 0x4057 JUMP JUMPDEST POP CALLVALUE PUSH2 0x59A JUMPI DUP1 PUSH1 0x3 NOT CALLDATASIZE ADD SLT PUSH2 0x59A JUMPI PUSH2 0x4095 PUSH2 0x6841 JUMP JUMPDEST DUP1 SLOAD PUSH1 0xFF PUSH1 0xA0 SHL NOT AND PUSH1 0x1 PUSH1 0xA0 SHL OR DUP2 SSTORE PUSH1 0x40 MLOAD PUSH1 0x1 DUP2 MSTORE PUSH32 0x17904E4FE7D59BB4603C7C045BC275A05DA9EA3A4AC007FC80FFFEAF119186D SWAP1 PUSH1 0x20 SWAP1 LOG1 CALLER PUSH32 0xAE81C15A680E6640BA872CA44F364AD67C60A04089AD9FA100F7A3CE94DA9F68 DUP3 DUP1 LOG2 DUP1 RETURN JUMPDEST POP CALLVALUE PUSH2 0x59A JUMPI PUSH1 0x20 CALLDATASIZE PUSH1 0x3 NOT ADD SLT PUSH2 0x59A JUMPI PUSH1 0x4 CALLDATALOAD DUP1 DUP3 MSTORE PUSH1 0x4 PUSH1 0x20 MSTORE PUSH1 0x40 DUP3 KECCAK256 PUSH1 0x1 DUP1 PUSH1 0xA0 SHL SUB DUP2 SLOAD AND CALLER EQ DUP1 ISZERO PUSH2 0x433C JUMPI JUMPDEST PUSH2 0x4138 SWAP1 PUSH2 0x5CEF JUMP JUMPDEST DUP3 PUSH20 0x0 DUP1 EXTCODESIZE ISZERO PUSH2 0x616 JUMPI DUP2 PUSH1 0x40 MLOAD DUP1 SWAP3 PUSH4 0x252A867 PUSH1 0xE5 SHL DUP3 MSTORE DUP2 DUP1 PUSH2 0x4174 DUP9 PUSH1 0x4 DUP4 ADD PUSH2 0x5E2E JUMP JUMPDEST SUB SWAP2 GAS DELEGATECALL DUP1 ISZERO PUSH2 0x60B JUMPI PUSH2 0x4327 JUMPI JUMPDEST POP POP PUSH1 0x5 DUP2 ADD SLOAD PUSH1 0x9 DUP3 ADD SLOAD PUSH1 0x6 DUP4 ADD SLOAD PUSH1 0xA DUP5 ADD SLOAD PUSH1 0x7 DUP6 ADD SLOAD PUSH1 0x8 DUP7 ADD SLOAD PUSH1 0x40 MLOAD PUSH4 0x1C8F0847 PUSH1 0xE0 SHL DUP2 MSTORE PUSH1 0x4 DUP2 ADD DUP8 SWAP1 MSTORE PUSH1 0x24 DUP2 ADD SWAP3 SWAP1 SWAP3 MSTORE PUSH1 0x1 PUSH1 0x1 PUSH1 0xA0 SHL SUB SWAP5 DUP6 AND SWAP7 SWAP4 SWAP6 PUSH20 0x0 SWAP6 SWAP1 SWAP4 AND SWAP4 SWAP1 PUSH1 0x20 DUP4 PUSH1 0x44 DUP2 DUP10 GAS DELEGATECALL SWAP3 DUP4 ISZERO PUSH2 0x8B3 JUMPI DUP11 SWAP4 PUSH2 0x42F2 JUMPI JUMPDEST POP PUSH1 0x20 SWAP1 PUSH1 0x44 PUSH1 0x40 MLOAD DUP1 SWAP9 DUP2 SWAP4 PUSH4 0x1C8F0847 PUSH1 0xE0 SHL DUP4 MSTORE DUP12 PUSH1 0x4 DUP5 ADD MSTORE PUSH1 0x24 DUP4 ADD MSTORE GAS DELEGATECALL SWAP5 DUP6 ISZERO PUSH2 0x36C6 JUMPI DUP9 SWAP10 SWAP9 SWAP8 SWAP9 SWAP6 PUSH2 0x42B7 JUMPI JUMPDEST POP PUSH1 0x1 DUP2 ADD DUP1 SLOAD SWAP1 SWAP5 DUP9 SWAP5 SWAP4 SWAP3 SWAP2 PUSH1 0x1 PUSH1 0x1 PUSH1 0xA0 SHL SUB AND DUP11 PUSH2 0x4257 DUP6 DUP8 PUSH2 0x5DB4 JUMP JUMPDEST SWAP1 PUSH2 0x4261 SWAP3 PUSH2 0x66B0 JUMP JUMPDEST POP PUSH1 0x2 DUP3 ADD DUP1 SLOAD SWAP1 SWAP11 PUSH2 0x427F SWAP2 DUP6 SWAP2 SWAP1 PUSH1 0x1 PUSH1 0x1 PUSH1 0xA0 SHL SUB AND PUSH2 0x66B0 JUMP JUMPDEST POP DUP2 SLOAD PUSH1 0x1 PUSH1 0x1 PUSH1 0xA0 SHL SUB AND DUP2 PUSH2 0x4296 DUP11 DUP1 PUSH2 0x5DB4 JUMP JUMPDEST SWAP1 PUSH2 0x42A0 SWAP3 PUSH2 0x66B0 JUMP JUMPDEST POP DUP10 SLOAD PUSH2 0x35CA SWAP2 DUP9 SWAP2 PUSH1 0x1 PUSH1 0x1 PUSH1 0xA0 SHL SUB AND PUSH2 0x66B0 JUMP JUMPDEST SWAP3 SWAP2 SWAP7 POP SWAP4 POP PUSH1 0x20 DUP3 RETURNDATASIZE PUSH1 0x20 GT PUSH2 0x42EA JUMPI JUMPDEST DUP2 PUSH2 0x42D6 PUSH1 0x20 SWAP4 DUP4 PUSH2 0x5AED JUMP JUMPDEST DUP2 ADD SUB SLT PUSH2 0x5DD JUMPI SWAP1 MLOAD DUP8 SWAP6 SWAP1 SWAP4 DUP7 PUSH2 0x4235 JUMP JUMPDEST RETURNDATASIZE SWAP2 POP PUSH2 0x42C9 JUMP JUMPDEST SWAP1 SWAP3 POP PUSH1 0x20 DUP2 RETURNDATASIZE PUSH1 0x20 GT PUSH2 0x431F JUMPI JUMPDEST DUP2 PUSH2 0x430E PUSH1 0x20 SWAP4 DUP4 PUSH2 0x5AED JUMP JUMPDEST DUP2 ADD SUB SLT PUSH2 0x5DD JUMPI MLOAD SWAP2 PUSH1 0x20 PUSH2 0x41FF JUMP JUMPDEST RETURNDATASIZE SWAP2 POP PUSH2 0x4301 JUMP JUMPDEST DUP2 PUSH2 0x4331 SWAP2 PUSH2 0x5AED JUMP JUMPDEST PUSH2 0xC39 JUMPI DUP3 PUSH0 PUSH2 0x4183 JUMP JUMPDEST POP PUSH1 0x2 DUP2 ADD SLOAD PUSH1 0x1 PUSH1 0x1 PUSH1 0xA0 SHL SUB AND CALLER EQ PUSH2 0x412F JUMP JUMPDEST POP PUSH2 0x435C CALLDATASIZE PUSH2 0x58A4 JUMP JUMPDEST SWAP2 SWAP3 SWAP1 SWAP6 SWAP5 SWAP4 PUSH1 0xFF DUP9 SLOAD PUSH1 0xA0 SHR AND SWAP3 PUSH2 0x4374 DUP5 PUSH2 0x5A22 JUMP JUMPDEST CALLER DUP10 MSTORE PUSH1 0x1 PUSH1 0x20 MSTORE PUSH1 0x40 DUP10 KECCAK256 PUSH1 0x1 DUP1 PUSH1 0xA0 SHL SUB DUP7 AND PUSH0 MSTORE PUSH1 0x20 MSTORE PUSH1 0x40 PUSH0 KECCAK256 SLOAD DUP3 DUP2 LT PUSH2 0x463F JUMPI JUMPDEST POP PUSH2 0x220 SWAP4 POP PUSH2 0x43E6 SWAP1 PUSH2 0x43B0 DUP4 DUP8 CALLER PUSH2 0x6609 JUMP JUMPDEST POP PUSH1 0x40 MLOAD PUSH4 0x652E83D7 PUSH1 0xE0 SHL DUP2 MSTORE PUSH20 0x0 SWAP10 SWAP1 SWAP7 DUP8 SWAP6 DUP7 SWAP6 DUP11 DUP13 CALLER PUSH1 0x4 DUP11 ADD PUSH2 0x5FB3 JUMP JUMPDEST SUB DUP2 DUP8 GAS DELEGATECALL SWAP1 DUP2 ISZERO PUSH2 0x1201 JUMPI DUP6 SWAP2 PUSH2 0x4620 JUMPI JUMPDEST POP PUSH1 0x20 PUSH1 0x5 SLOAD PUSH2 0x244 PUSH1 0x40 MLOAD DUP1 SWAP8 DUP2 SWAP4 PUSH4 0x797D4EE1 PUSH1 0xE0 SHL DUP4 MSTORE PUSH2 0x4420 PUSH1 0x4 DUP5 ADD DUP9 PUSH2 0x5914 JUMP JUMPDEST PUSH2 0x224 DUP4 ADD MSTORE GAS DELEGATECALL SWAP4 DUP5 ISZERO PUSH2 0x1201 JUMPI DUP6 SWAP5 PUSH2 0x45EC JUMPI JUMPDEST POP PUSH2 0x4442 PUSH1 0x5 SLOAD PUSH2 0x5CB5 JUMP JUMPDEST PUSH1 0x5 SSTORE DUP4 DUP6 MSTORE PUSH1 0x4 PUSH1 0x20 SWAP1 DUP2 MSTORE PUSH1 0x40 DUP1 DUP8 KECCAK256 DUP4 MLOAD DUP2 SLOAD PUSH1 0x1 PUSH1 0x1 PUSH1 0xA0 SHL SUB SWAP2 DUP3 AND PUSH1 0x1 PUSH1 0x1 PUSH1 0xA0 SHL SUB NOT SWAP2 DUP3 AND OR DUP4 SSTORE SWAP4 DUP6 ADD MLOAD PUSH1 0x1 DUP4 ADD DUP1 SLOAD SWAP2 DUP4 AND SWAP2 SWAP1 SWAP6 AND OR SWAP1 SWAP4 SSTORE SWAP1 DUP4 ADD MLOAD PUSH1 0x2 DUP3 ADD DUP1 SLOAD PUSH1 0x60 DUP7 ADD MLOAD PUSH1 0xFF PUSH1 0xA0 SHL SWAP1 ISZERO ISZERO PUSH1 0xA0 SHL AND SWAP3 SWAP1 SWAP5 AND PUSH1 0x1 PUSH1 0x1 PUSH1 0xA8 SHL SUB NOT SWAP1 SWAP5 AND SWAP4 SWAP1 SWAP4 OR OR DUP3 SSTORE SWAP2 PUSH2 0x200 SWAP2 PUSH2 0x44C7 SWAP1 PUSH2 0x1074 JUMP JUMPDEST PUSH1 0xE0 DUP2 ADD MLOAD PUSH1 0x3 DUP5 ADD SSTORE PUSH2 0x100 DUP2 ADD MLOAD PUSH1 0x4 DUP5 ADD SSTORE PUSH2 0x120 DUP2 ADD MLOAD PUSH1 0x5 DUP5 ADD SSTORE PUSH2 0x140 DUP2 ADD MLOAD PUSH1 0x6 DUP1 DUP6 ADD SWAP2 SWAP1 SWAP2 SSTORE PUSH2 0x160 DUP3 ADD MLOAD PUSH1 0x7 DUP6 ADD SSTORE PUSH2 0x180 DUP3 ADD MLOAD PUSH1 0x8 DUP6 ADD SSTORE PUSH2 0x1A0 DUP3 ADD MLOAD PUSH1 0x9 DUP6 ADD DUP1 SLOAD PUSH1 0x1 PUSH1 0x1 PUSH1 0xA0 SHL SUB SWAP3 DUP4 AND PUSH1 0x1 PUSH1 0x1 PUSH1 0xA0 SHL SUB NOT SWAP2 DUP3 AND OR SWAP1 SWAP2 SSTORE PUSH2 0x1C0 DUP5 ADD MLOAD PUSH1 0xA DUP8 ADD DUP1 SLOAD SWAP2 SWAP1 SWAP4 AND SWAP2 AND OR SWAP1 SSTORE PUSH2 0x1E0 DUP3 ADD MLOAD PUSH1 0xB DUP6 ADD SSTORE SWAP2 ADD MLOAD SWAP6 SWAP1 DUP7 LT ISZERO PUSH2 0x11B9 JUMPI POP PUSH1 0x20 SWAP5 PUSH1 0xC PUSH2 0x456F SWAP3 ADD PUSH2 0x5CD7 JUMP JUMPDEST PUSH1 0x40 MLOAD PUSH1 0x1 PUSH1 0x1 PUSH1 0xA0 SHL SUB SWAP2 DUP3 AND DUP1 DUP3 MSTORE SWAP3 SWAP1 SWAP2 AND SWAP1 CALLER SWAP1 DUP5 SWAP1 PUSH32 0x5E02698C1650D6CBE1F7E8A48609D0DA45AD7F5E4C13CD8B196F82965C0AB0D5 SWAP1 DUP8 SWAP1 LOG4 DUP1 PUSH2 0x45BD JUMPI JUMPDEST POP PUSH1 0x40 MLOAD SWAP1 DUP2 MSTORE RETURN JUMPDEST PUSH32 0x957372C0E02D2882134CC0EEBBEF9E446634D8CCBB1CBB112BDEFDD3CF0A643C DUP4 PUSH1 0x40 MLOAD DUP5 DUP2 MSTORE LOG2 PUSH0 PUSH2 0x45B4 JUMP JUMPDEST SWAP1 SWAP4 POP PUSH1 0x20 DUP2 RETURNDATASIZE PUSH1 0x20 GT PUSH2 0x4618 JUMPI JUMPDEST DUP2 PUSH2 0x4608 PUSH1 0x20 SWAP4 DUP4 PUSH2 0x5AED JUMP JUMPDEST DUP2 ADD SUB SLT PUSH2 0x5DD JUMPI MLOAD SWAP3 PUSH0 PUSH2 0x4436 JUMP JUMPDEST RETURNDATASIZE SWAP2 POP PUSH2 0x45FB JUMP JUMPDEST PUSH2 0x4639 SWAP2 POP PUSH2 0x220 RETURNDATASIZE DUP2 GT PUSH2 0x1234 JUMPI PUSH2 0x1226 DUP2 DUP4 PUSH2 0x5AED JUMP JUMPDEST PUSH0 PUSH2 0x43F9 JUMP JUMPDEST PUSH2 0x464C PUSH2 0x4652 SWAP2 DUP5 PUSH2 0x5DB4 JUMP JUMPDEST SWAP5 PUSH2 0x5A22 JUMP JUMPDEST PUSH2 0x465D DUP5 ISZERO ISZERO PUSH2 0x5F82 JUMP JUMPDEST PUSH1 0x2 SLOAD SWAP1 PUSH1 0x40 MLOAD SWAP2 PUSH4 0x1C8F0847 PUSH1 0xE0 SHL DUP4 MSTORE DUP6 PUSH1 0x4 DUP5 ADD MSTORE PUSH1 0x24 DUP4 ADD MSTORE PUSH1 0x20 DUP3 PUSH1 0x44 DUP2 PUSH20 0x0 GAS DELEGATECALL SWAP2 DUP3 ISZERO PUSH2 0x8B3 JUMPI DUP11 SWAP3 PUSH2 0x47DC JUMPI JUMPDEST POP PUSH1 0x1 PUSH1 0x1 PUSH1 0xA0 SHL SUB DUP7 AND DUP1 PUSH2 0x4718 JUMPI PUSH2 0x46BF DUP4 DUP8 PUSH2 0x601B JUMP JUMPDEST CALLVALUE SUB PUSH2 0x498 JUMPI DUP6 PUSH2 0x43E6 SWAP4 PUSH2 0x46D8 PUSH2 0x220 SWAP9 DUP11 CALLER PUSH2 0x67E6 JUMP JUMPDEST POP PUSH1 0x3 SLOAD PUSH2 0x46F2 SWAP1 DUP3 SWAP1 DUP12 SWAP1 PUSH1 0x1 PUSH1 0x1 PUSH1 0xA0 SHL SUB AND PUSH2 0x67E6 JUMP JUMPDEST POP JUMPDEST PUSH1 0x40 MLOAD SWAP2 DUP3 MSTORE PUSH1 0x20 DUP3 ADD MSTORE PUSH0 MLOAD PUSH1 0x20 PUSH2 0x6948 PUSH0 CODECOPY PUSH0 MLOAD SWAP1 PUSH0 MSTORE PUSH1 0x40 CALLER SWAP3 LOG3 SWAP1 PUSH2 0x439B JUMP JUMPDEST DUP11 PUSH1 0x20 PUSH2 0x4725 DUP6 DUP10 PUSH2 0x601B JUMP JUMPDEST PUSH1 0x64 PUSH1 0x40 MLOAD DUP1 SWAP5 DUP2 SWAP4 PUSH4 0x23B872DD PUSH1 0xE0 SHL DUP4 MSTORE CALLER PUSH1 0x4 DUP5 ADD MSTORE ADDRESS PUSH1 0x24 DUP5 ADD MSTORE PUSH1 0x44 DUP4 ADD MSTORE DUP7 GAS CALL SWAP1 DUP2 ISZERO PUSH2 0x47D1 JUMPI DUP13 SWAP2 PUSH2 0x4793 JUMPI JUMPDEST POP ISZERO PUSH2 0x53B JUMPI DUP6 PUSH2 0x43E6 SWAP4 PUSH2 0x4773 PUSH2 0x220 SWAP9 DUP11 CALLER PUSH2 0x67E6 JUMP JUMPDEST POP PUSH1 0x3 SLOAD PUSH2 0x478D SWAP1 DUP3 SWAP1 DUP12 SWAP1 PUSH1 0x1 PUSH1 0x1 PUSH1 0xA0 SHL SUB AND PUSH2 0x67E6 JUMP JUMPDEST POP PUSH2 0x46F4 JUMP JUMPDEST SWAP1 POP PUSH1 0x20 DUP2 RETURNDATASIZE PUSH1 0x20 GT PUSH2 0x47C9 JUMPI JUMPDEST DUP2 PUSH2 0x47AE PUSH1 0x20 SWAP4 DUP4 PUSH2 0x5AED JUMP JUMPDEST DUP2 ADD SUB SLT PUSH2 0x47C5 JUMPI PUSH2 0x47BF SWAP1 PUSH2 0x5B23 JUMP JUMPDEST PUSH0 PUSH2 0x475A JUMP JUMPDEST DUP12 DUP1 REVERT JUMPDEST RETURNDATASIZE SWAP2 POP PUSH2 0x47A1 JUMP JUMPDEST PUSH1 0x40 MLOAD RETURNDATASIZE DUP15 DUP3 RETURNDATACOPY RETURNDATASIZE SWAP1 REVERT JUMPDEST SWAP1 SWAP2 POP PUSH1 0x20 DUP2 RETURNDATASIZE PUSH1 0x20 GT PUSH2 0x4808 JUMPI JUMPDEST DUP2 PUSH2 0x47F8 PUSH1 0x20 SWAP4 DUP4 PUSH2 0x5AED JUMP JUMPDEST DUP2 ADD SUB SLT PUSH2 0x5DD JUMPI MLOAD SWAP1 PUSH0 PUSH2 0x46A5 JUMP JUMPDEST RETURNDATASIZE SWAP2 POP PUSH2 0x47EB JUMP JUMPDEST POP CALLVALUE PUSH2 0x59A JUMPI PUSH2 0x220 PUSH2 0x43E6 PUSH2 0x4825 CALLDATASIZE PUSH2 0x58A4 JUMP JUMPDEST PUSH2 0x483D PUSH1 0xFF DUP12 SWAP11 SWAP7 SWAP5 SWAP8 SWAP9 SWAP10 SWAP4 SWAP11 SLOAD PUSH1 0xA0 SHR AND PUSH2 0x5A22 JUMP JUMPDEST CALLER DUP11 MSTORE PUSH1 0x1 PUSH1 0x20 MSTORE PUSH1 0x40 DUP11 KECCAK256 PUSH1 0x1 DUP1 PUSH1 0xA0 SHL SUB DUP8 AND PUSH0 MSTORE PUSH1 0x20 MSTORE PUSH2 0x4867 DUP4 PUSH1 0x40 PUSH0 KECCAK256 SLOAD LT ISZERO PUSH2 0x5A53 JUMP JUMPDEST PUSH2 0x43B0 DUP4 DUP8 CALLER PUSH2 0x6609 JUMP JUMPDEST POP CALLVALUE PUSH2 0x59A JUMPI PUSH1 0x40 CALLDATASIZE PUSH1 0x3 NOT ADD SLT PUSH2 0x59A JUMPI PUSH32 0x14BDAADAED0453E7B5B66195B42156BA995B9E5ABD0DA98368839851D69AD889 PUSH1 0x40 PUSH1 0x4 CALLDATALOAD PUSH2 0x48B2 PUSH2 0x57B2 JUMP JUMPDEST PUSH2 0x48BA PUSH2 0x6841 JUMP JUMPDEST PUSH1 0x1 PUSH1 0x1 PUSH1 0xA0 SHL SUB AND PUSH2 0x48CE DUP2 ISZERO ISZERO PUSH2 0x5F51 JUMP JUMPDEST PUSH2 0x48DF PUSH5 0x2540BE400 DUP4 GT ISZERO PUSH2 0x5F82 JUMP JUMPDEST DUP2 PUSH1 0x2 SSTORE DUP1 PUSH12 0xFFFFFFFFFFFFFFFFFFFFFFFF PUSH1 0xA0 SHL PUSH1 0x3 SLOAD AND OR PUSH1 0x3 SSTORE DUP3 MLOAD SWAP2 DUP3 MSTORE PUSH1 0x20 DUP3 ADD MSTORE LOG1 DUP1 RETURN JUMPDEST POP CALLVALUE PUSH2 0x59A JUMPI PUSH1 0x60 CALLDATASIZE PUSH1 0x3 NOT ADD SLT PUSH2 0x59A JUMPI PUSH1 0x24 CALLDATALOAD PUSH1 0x4 CALLDATALOAD PUSH1 0x44 CALLDATALOAD PUSH1 0x6 DUP2 LT ISZERO PUSH2 0x913 JUMPI DUP2 DUP5 MSTORE PUSH1 0x4 PUSH1 0x20 MSTORE PUSH1 0x40 DUP5 KECCAK256 SWAP2 PUSH1 0x1 DUP4 ADD SWAP2 PUSH1 0x1 DUP1 PUSH1 0xA0 SHL SUB DUP4 SLOAD AND CALLER EQ DUP1 ISZERO PUSH2 0x4B24 JUMPI JUMPDEST DUP1 ISZERO PUSH2 0x4B0E JUMPI JUMPDEST PUSH2 0x4963 SWAP1 PUSH2 0x5CEF JUMP JUMPDEST DUP6 PUSH20 0x0 DUP1 EXTCODESIZE ISZERO PUSH2 0x616 JUMPI DUP2 PUSH1 0x40 MLOAD DUP1 SWAP3 PUSH4 0x252A867 PUSH1 0xE5 SHL DUP3 MSTORE DUP2 DUP1 PUSH2 0x499F DUP12 PUSH1 0x4 DUP4 ADD PUSH2 0x5E2E JUMP JUMPDEST SUB SWAP2 GAS DELEGATECALL DUP1 ISZERO PUSH2 0x60B JUMPI PUSH2 0x4AF9 JUMPI JUMPDEST POP POP DUP5 ISZERO DUP1 ISZERO PUSH2 0x4AEF JUMPI JUMPDEST PUSH2 0x49C2 SWAP1 PUSH2 0x5D82 JUMP JUMPDEST PUSH1 0x40 MLOAD PUSH2 0x49CE DUP2 PUSH2 0x5A84 JUMP JUMPDEST DUP3 DUP2 MSTORE PUSH1 0x20 DUP2 ADD SWAP6 DUP7 MSTORE PUSH2 0x49E6 PUSH1 0x40 DUP3 ADD SWAP3 DUP4 PUSH2 0x5F45 JUMP JUMPDEST PUSH1 0x60 DUP2 ADD DUP8 DUP2 MSTORE PUSH1 0x80 DUP3 ADD DUP9 DUP2 MSTORE PUSH1 0xA0 DUP4 ADD SWAP2 DUP10 DUP4 MSTORE PUSH1 0x2 PUSH1 0xC0 DUP6 ADD SWAP5 DUP12 DUP7 MSTORE PUSH1 0x7 SLOAD SWAP11 DUP12 DUP14 MSTORE PUSH1 0x9 PUSH1 0x20 MSTORE PUSH1 0x40 DUP14 KECCAK256 SWAP2 MLOAD DUP3 SSTORE MLOAD PUSH1 0x1 DUP3 ADD SSTORE ADD SWAP5 MLOAD SWAP10 PUSH1 0x6 DUP12 LT ISZERO PUSH2 0x11B9 JUMPI POP PUSH2 0x4A3A PUSH1 0x20 SWAP11 DUP7 PUSH2 0x5CD7 JUMP JUMPDEST MLOAD DUP5 SLOAD SWAP2 MLOAD SWAP3 MLOAD SWAP4 MLOAD PUSH5 0xFFFFFFFF00 NOT SWAP1 SWAP3 AND SWAP1 ISZERO ISZERO PUSH1 0x8 SHL PUSH2 0xFF00 AND OR SWAP2 ISZERO ISZERO PUSH1 0x10 SHL PUSH3 0xFF0000 AND SWAP2 SWAP1 SWAP2 OR SWAP2 ISZERO ISZERO PUSH1 0x18 SHL PUSH4 0xFF000000 AND SWAP2 SWAP1 SWAP2 OR SWAP1 ISZERO ISZERO DUP8 SHL PUSH5 0xFF00000000 AND OR SWAP1 SSTORE DUP3 SLOAD SWAP2 SLOAD PUSH1 0x2 SWAP1 SWAP4 ADD SLOAD PUSH1 0x40 DUP1 MLOAD PUSH1 0x1 PUSH1 0x1 PUSH1 0xA0 SHL SUB SWAP3 DUP4 AND DUP2 MSTORE CALLER DUP2 DUP10 ADD MSTORE SWAP1 DUP2 ADD DUP7 SWAP1 MSTORE SWAP4 DUP2 AND SWAP4 SWAP3 AND SWAP2 PUSH32 0x867051316D0AAFC6BF3704F0B32FA0E735BB03D37318B95179BDC1C5017467C0 SWAP1 PUSH1 0x60 SWAP1 LOG4 PUSH2 0x4AE4 PUSH1 0x7 SLOAD PUSH2 0x5CB5 JUMP JUMPDEST PUSH1 0x7 SSTORE PUSH1 0x40 MLOAD SWAP1 DUP2 MSTORE RETURN JUMPDEST POP TIMESTAMP DUP6 GT ISZERO PUSH2 0x49B9 JUMP JUMPDEST DUP2 PUSH2 0x4B03 SWAP2 PUSH2 0x5AED JUMP JUMPDEST PUSH2 0x3D49 JUMPI DUP6 PUSH0 PUSH2 0x49AE JUMP JUMPDEST POP PUSH1 0x2 DUP5 ADD SLOAD PUSH1 0x1 PUSH1 0x1 PUSH1 0xA0 SHL SUB AND CALLER EQ PUSH2 0x495A JUMP JUMPDEST POP DUP4 SLOAD PUSH1 0x1 PUSH1 0x1 PUSH1 0xA0 SHL SUB AND CALLER EQ PUSH2 0x4953 JUMP JUMPDEST POP CALLVALUE PUSH2 0x59A JUMPI PUSH2 0x4B46 CALLDATASIZE PUSH2 0x588E JUMP JUMPDEST SWAP2 SWAP1 DUP1 DUP3 MSTORE PUSH1 0x4 PUSH1 0x20 MSTORE PUSH1 0x40 DUP3 KECCAK256 SWAP2 PUSH1 0x1 DUP1 PUSH1 0xA0 SHL SUB DUP4 SLOAD AND CALLER EQ DUP1 ISZERO PUSH2 0x4CB6 JUMPI JUMPDEST PUSH2 0x4B71 SWAP1 PUSH2 0x5CEF JUMP JUMPDEST PUSH20 0x0 DUP1 EXTCODESIZE ISZERO PUSH2 0x616 JUMPI DUP2 PUSH1 0x40 MLOAD DUP1 SWAP3 PUSH4 0x252A867 PUSH1 0xE5 SHL DUP3 MSTORE DUP2 DUP1 PUSH2 0x4BAC DUP10 PUSH1 0x4 DUP4 ADD PUSH2 0x5E2E JUMP JUMPDEST SUB SWAP2 GAS DELEGATECALL DUP1 ISZERO PUSH2 0x60B JUMPI SWAP1 DUP3 SWAP2 PUSH2 0x4CA1 JUMPI JUMPDEST POP POP PUSH1 0x6 DUP4 ADD PUSH2 0x4BD5 DUP6 DUP3 SLOAD PUSH2 0xB0F DUP3 DUP3 LT PUSH2 0x5A53 JUMP JUMPDEST SWAP1 SSTORE PUSH1 0x1 DUP1 PUSH1 0xA0 SHL SUB PUSH1 0xA DUP5 ADD SLOAD AND SWAP4 PUSH1 0x8 DUP5 ADD SLOAD SWAP2 PUSH1 0x40 MLOAD SWAP3 PUSH4 0x1C8F0847 PUSH1 0xE0 SHL DUP5 MSTORE DUP3 PUSH1 0x4 DUP6 ADD MSTORE PUSH1 0x24 DUP5 ADD MSTORE PUSH1 0x20 DUP4 PUSH1 0x44 DUP2 PUSH20 0x0 GAS DELEGATECALL SWAP1 DUP2 ISZERO PUSH2 0x5A5 JUMPI SWAP1 PUSH2 0x4C62 JUMPI JUMPDEST PUSH1 0x1 DUP6 ADD DUP1 SLOAD SWAP1 SWAP6 PUSH0 MLOAD PUSH1 0x20 PUSH2 0x68A8 PUSH0 CODECOPY PUSH0 MLOAD SWAP1 PUSH0 MSTORE SWAP5 POP PUSH2 0x3B3 SWAP2 PUSH2 0x286D SWAP1 PUSH1 0x1 PUSH1 0x1 PUSH1 0xA0 SHL SUB AND DUP10 PUSH2 0x2867 DUP7 DUP9 PUSH2 0x5DB4 JUMP JUMPDEST POP PUSH1 0x20 DUP3 RETURNDATASIZE PUSH1 0x20 GT PUSH2 0x4C99 JUMPI JUMPDEST DUP2 PUSH2 0x4C7C PUSH1 0x20 SWAP4 DUP4 PUSH2 0x5AED JUMP JUMPDEST DUP2 ADD SUB SLT PUSH2 0x5DD JUMPI PUSH0 MLOAD PUSH1 0x20 PUSH2 0x68A8 PUSH0 CODECOPY PUSH0 MLOAD SWAP1 PUSH0 MSTORE SWAP2 MLOAD PUSH2 0x4C2E JUMP JUMPDEST RETURNDATASIZE SWAP2 POP PUSH2 0x4C6F JUMP JUMPDEST DUP2 PUSH2 0x4CAB SWAP2 PUSH2 0x5AED JUMP JUMPDEST PUSH2 0x59A JUMPI DUP1 PUSH0 PUSH2 0x4BBE JUMP JUMPDEST POP PUSH1 0x2 DUP4 ADD SLOAD PUSH1 0x1 PUSH1 0x1 PUSH1 0xA0 SHL SUB AND CALLER EQ PUSH2 0x4B68 JUMP JUMPDEST POP PUSH2 0x4CD6 CALLDATASIZE PUSH2 0x5860 JUMP JUMPDEST DUP4 PUSH0 SWAP5 SWAP4 SWAP3 SWAP5 MSTORE PUSH1 0x4 PUSH1 0x20 MSTORE PUSH1 0x40 PUSH0 KECCAK256 SWAP1 PUSH1 0x1 DUP3 ADD SWAP5 PUSH2 0x4D00 PUSH1 0x1 DUP1 PUSH1 0xA0 SHL SUB DUP8 SLOAD AND CALLER EQ PUSH2 0x5CEF JUMP JUMPDEST PUSH20 0x0 DUP1 EXTCODESIZE ISZERO PUSH2 0x5DD JUMPI PUSH0 PUSH1 0x40 MLOAD DUP1 SWAP3 PUSH4 0x252A867 PUSH1 0xE5 SHL DUP3 MSTORE DUP2 DUP1 PUSH2 0x4D3B DUP10 PUSH1 0x4 DUP4 ADD PUSH2 0x5E2E JUMP JUMPDEST SUB SWAP2 GAS DELEGATECALL DUP1 ISZERO PUSH2 0x4EA2 JUMPI PUSH2 0x4E8D JUMPI JUMPDEST POP PUSH1 0x2 DUP4 ADD SWAP7 PUSH2 0x4D61 PUSH1 0xFF DUP10 SLOAD PUSH1 0xB0 SHR AND ISZERO PUSH2 0x5F13 JUMP JUMPDEST CALLER DUP2 MSTORE PUSH1 0x1 PUSH1 0x20 MSTORE PUSH1 0x40 DUP2 KECCAK256 PUSH1 0x1 DUP1 PUSH1 0xA0 SHL SUB DUP7 AND PUSH0 MSTORE PUSH1 0x20 MSTORE PUSH1 0x40 PUSH0 KECCAK256 SLOAD DUP3 DUP2 LT PUSH2 0x4DA8 JUMPI POP POP SWAP1 DUP2 DUP5 PUSH2 0x310B PUSH1 0x20 SWAP6 SWAP5 PUSH0 MLOAD PUSH1 0x20 PUSH2 0x6968 PUSH0 CODECOPY PUSH0 MLOAD SWAP1 PUSH0 MSTORE SWAP8 CALLER PUSH2 0x6609 JUMP JUMPDEST PUSH2 0x4DB6 SWAP1 DUP4 SWAP3 SWAP6 SWAP5 SWAP4 PUSH2 0x5DB4 JUMP JUMPDEST SWAP5 PUSH2 0x4DC7 PUSH1 0xFF DUP7 SLOAD PUSH1 0xA0 SHR AND PUSH2 0x5A22 JUMP JUMPDEST PUSH2 0x4DD2 DUP7 ISZERO ISZERO PUSH2 0x5F82 JUMP JUMPDEST PUSH1 0x2 SLOAD SWAP5 PUSH1 0x40 MLOAD SWAP6 PUSH4 0x1C8F0847 PUSH1 0xE0 SHL DUP8 MSTORE DUP8 PUSH1 0x4 DUP9 ADD MSTORE PUSH1 0x24 DUP8 ADD MSTORE PUSH1 0x20 DUP7 PUSH1 0x44 DUP2 PUSH20 0x0 GAS DELEGATECALL SWAP6 DUP7 ISZERO PUSH2 0x5E9 JUMPI DUP2 SWAP7 PUSH2 0x4E59 JUMPI JUMPDEST POP PUSH1 0x1 PUSH1 0x1 PUSH1 0xA0 SHL SUB DUP3 AND SWAP1 DUP2 PUSH2 0x3266 JUMPI POP PUSH2 0x4E36 DUP7 DUP9 PUSH2 0x601B JUMP JUMPDEST CALLVALUE SUB PUSH2 0x498 JUMPI DUP7 PUSH1 0x20 SWAP7 PUSH2 0x3222 PUSH0 MLOAD PUSH1 0x20 PUSH2 0x6968 PUSH0 CODECOPY PUSH0 MLOAD SWAP1 PUSH0 MSTORE SWAP10 DUP6 CALLER PUSH2 0x67E6 JUMP JUMPDEST SWAP1 SWAP6 POP PUSH1 0x20 DUP2 RETURNDATASIZE PUSH1 0x20 GT PUSH2 0x4E85 JUMPI JUMPDEST DUP2 PUSH2 0x4E75 PUSH1 0x20 SWAP4 DUP4 PUSH2 0x5AED JUMP JUMPDEST DUP2 ADD SUB SLT PUSH2 0x5DD JUMPI MLOAD SWAP5 PUSH0 PUSH2 0x4E1A JUMP JUMPDEST RETURNDATASIZE SWAP2 POP PUSH2 0x4E68 JUMP JUMPDEST PUSH2 0x4E9A SWAP2 SWAP8 POP PUSH0 SWAP1 PUSH2 0x5AED JUMP JUMPDEST PUSH0 SWAP6 PUSH0 PUSH2 0x4D4A JUMP JUMPDEST PUSH1 0x40 MLOAD RETURNDATASIZE PUSH0 DUP3 RETURNDATACOPY RETURNDATASIZE SWAP1 REVERT JUMPDEST CALLVALUE PUSH2 0x5DD JUMPI PUSH0 CALLDATASIZE PUSH1 0x3 NOT ADD SLT PUSH2 0x5DD JUMPI PUSH1 0x3 SLOAD PUSH1 0x40 MLOAD PUSH1 0x1 PUSH1 0x1 PUSH1 0xA0 SHL SUB SWAP1 SWAP2 AND DUP2 MSTORE PUSH1 0x20 SWAP1 RETURN JUMPDEST CALLVALUE PUSH2 0x5DD JUMPI PUSH1 0x20 CALLDATASIZE PUSH1 0x3 NOT ADD SLT PUSH2 0x5DD JUMPI PUSH1 0x4 CALLDATALOAD DUP1 PUSH0 MSTORE PUSH1 0x4 PUSH1 0x20 MSTORE PUSH1 0x40 PUSH0 KECCAK256 SWAP1 PUSH1 0x1 DUP3 ADD SWAP1 PUSH1 0x1 DUP1 PUSH1 0xA0 SHL SUB DUP3 SLOAD AND CALLER EQ DUP1 ISZERO PUSH2 0x5506 JUMPI JUMPDEST DUP1 ISZERO PUSH2 0x54F0 JUMPI JUMPDEST PUSH2 0x4F1E SWAP1 PUSH2 0x5CEF JUMP JUMPDEST PUSH1 0x2 DUP4 ADD SWAP3 PUSH2 0x4F4B DUP5 SLOAD PUSH2 0x4F37 PUSH1 0xFF DUP3 PUSH1 0xB8 SHR AND PUSH2 0x5D20 JUMP JUMPDEST PUSH1 0xFF DUP2 PUSH1 0xA0 SHR AND ISZERO SWAP1 DUP2 PUSH2 0x54E1 JUMPI POP PUSH2 0x5D51 JUMP JUMPDEST PUSH2 0x4F5B PUSH1 0xB DUP3 ADD SLOAD TIMESTAMP LT ISZERO PUSH2 0x5D82 JUMP JUMPDEST PUSH1 0xFF PUSH1 0xC DUP3 ADD SLOAD AND PUSH1 0x5 DUP3 ADD SLOAD SWAP2 PUSH1 0x1 DUP1 PUSH1 0xA0 SHL SUB PUSH1 0x9 DUP3 ADD SLOAD AND PUSH1 0x6 DUP3 ADD SLOAD SWAP1 PUSH1 0x1 DUP1 PUSH1 0xA0 SHL SUB PUSH1 0xA DUP5 ADD SLOAD AND SWAP2 PUSH1 0x7 DUP5 ADD SLOAD SWAP2 PUSH1 0x8 DUP6 ADD SLOAD SWAP4 PUSH20 0x0 SWAP5 PUSH1 0x40 MLOAD SWAP5 PUSH4 0x1C8F0847 PUSH1 0xE0 SHL DUP7 MSTORE DUP10 PUSH1 0x4 DUP8 ADD MSTORE PUSH1 0x24 DUP7 ADD MSTORE PUSH1 0x20 DUP6 PUSH1 0x44 DUP2 DUP10 GAS DELEGATECALL SWAP5 DUP6 ISZERO PUSH2 0x4EA2 JUMPI PUSH0 SWAP6 PUSH2 0x54AC JUMPI JUMPDEST POP PUSH1 0x20 SWAP1 PUSH1 0x44 PUSH1 0x40 MLOAD DUP1 SWAP9 DUP2 SWAP4 PUSH4 0x1C8F0847 PUSH1 0xE0 SHL DUP4 MSTORE DUP9 PUSH1 0x4 DUP5 ADD MSTORE PUSH1 0x24 DUP4 ADD MSTORE GAS DELEGATECALL SWAP5 DUP6 ISZERO PUSH2 0x4EA2 JUMPI PUSH0 SWAP6 PUSH2 0x5478 JUMPI JUMPDEST POP PUSH1 0x6 DUP8 LT ISZERO PUSH2 0x5464 JUMPI DUP8 PUSH1 0x4 DUP9 DUP14 DUP14 DUP14 DUP9 DUP11 PUSH0 MLOAD PUSH1 0x20 PUSH2 0x68C8 PUSH0 CODECOPY PUSH0 MLOAD SWAP1 PUSH0 MSTORE SWAP16 PUSH2 0x3B3 SWAP16 DUP16 DUP16 SWAP3 DUP4 DUP8 DUP16 SWAP5 DUP16 SWAP1 DUP5 DUP14 PUSH1 0x1 DUP4 DUP16 DUP12 DUP16 SWAP7 DUP16 SWAP12 DUP9 DUP15 SWAP2 DUP12 DUP16 SWAP7 DUP16 SWAP1 DUP16 SWAP7 SWAP1 DUP13 SWAP2 ISZERO PUSH2 0x5397 JUMPI JUMPDEST PUSH1 0x2 DUP12 EQ PUSH2 0x52BA JUMPI JUMPDEST POP POP POP POP POP POP POP POP POP POP EQ PUSH2 0x51E1 JUMPI JUMPDEST POP POP POP POP POP POP POP DUP11 PUSH1 0x3 DUP11 EQ PUSH2 0x5194 JUMPI JUMPDEST POP POP POP POP POP POP POP POP POP EQ PUSH2 0x50D9 JUMPI POP POP DUP10 SLOAD PUSH1 0x1 PUSH1 0xA8 SHL PUSH1 0xFF PUSH1 0xA8 SHL NOT DUP3 AND OR SWAP1 SWAP11 SSTORE POP POP SWAP2 SLOAD SWAP6 SLOAD PUSH1 0x40 DUP1 MLOAD PUSH1 0x1 PUSH1 0x1 PUSH1 0xA0 SHL SUB SWAP10 DUP11 AND DUP2 MSTORE CALLER PUSH1 0x20 DUP3 ADD MSTORE SWAP2 DUP10 AND SWAP9 SWAP1 SWAP8 AND SWAP7 SWAP1 SWAP4 DUP5 SWAP4 POP SWAP1 DUP4 ADD SWAP2 POP JUMP JUMPDEST DUP5 DUP4 PUSH2 0x511B PUSH2 0x513D SWAP7 PUSH2 0x5100 PUSH2 0x512C SWAP6 DUP12 SWAP9 PUSH2 0xB9B DUP8 PUSH1 0x1 DUP1 PUSH1 0xA0 SHL SUB PUSH1 0x3 SLOAD AND SWAP4 PUSH2 0x5DB4 JUMP JUMPDEST POP PUSH1 0x3 SLOAD PUSH1 0x1 PUSH1 0x1 PUSH1 0xA0 SHL SUB AND SWAP1 DUP7 SWAP1 PUSH2 0xB9B SWAP1 DUP10 SWAP1 PUSH2 0x5DB4 JUMP JUMPDEST POP DUP14 SLOAD PUSH1 0x1 PUSH1 0x1 PUSH1 0xA0 SHL SUB AND PUSH2 0x66B0 JUMP JUMPDEST POP DUP11 SLOAD PUSH1 0x1 PUSH1 0x1 PUSH1 0xA0 SHL SUB AND PUSH2 0x66B0 JUMP JUMPDEST POP DUP3 SLOAD DUP8 SLOAD DUP10 SLOAD PUSH1 0x3 SLOAD PUSH1 0x40 MLOAD PUSH1 0x1 PUSH1 0x1 PUSH1 0xA0 SHL SUB SWAP4 DUP5 AND SWAP7 SWAP5 DUP5 AND SWAP6 DUP12 SWAP6 PUSH0 MLOAD PUSH1 0x20 PUSH2 0x6868 PUSH0 CODECOPY PUSH0 MLOAD SWAP1 PUSH0 MSTORE SWAP6 SWAP3 SWAP5 DUP6 SWAP5 PUSH2 0x5186 SWAP5 SWAP3 SWAP4 SWAP3 DUP5 SWAP3 DUP5 SWAP3 DUP3 AND SWAP2 CALLER SWAP2 AND DUP9 PUSH2 0x5DEB JUMP JUMPDEST SUB SWAP1 LOG4 DUP7 DUP1 DUP1 DUP1 DUP1 DUP1 PUSH2 0x2B37 JUMP JUMPDEST PUSH0 MLOAD PUSH1 0x20 PUSH2 0x6868 PUSH0 CODECOPY PUSH0 MLOAD SWAP1 PUSH0 MSTORE SWAP6 PUSH2 0x51BD PUSH2 0x2C62 SWAP3 PUSH2 0x51D0 SWAP6 PUSH1 0x1 DUP1 PUSH1 0xA0 SHL SUB DUP14 SLOAD AND PUSH2 0x66B0 JUMP JUMPDEST POP DUP10 SLOAD DUP15 SWAP1 PUSH1 0x1 PUSH1 0x1 PUSH1 0xA0 SHL SUB AND PUSH2 0x66B0 JUMP JUMPDEST SUB SWAP1 LOG4 DUP14 DUP14 DUP14 DUP9 DUP11 DUP13 DUP11 DUP16 DUP11 PUSH2 0x5085 JUMP JUMPDEST PUSH0 MLOAD PUSH1 0x20 PUSH2 0x6908 PUSH0 CODECOPY PUSH0 MLOAD SWAP1 PUSH0 MSTORE SWAP6 PUSH0 MLOAD PUSH1 0x20 PUSH2 0x6888 PUSH0 CODECOPY PUSH0 MLOAD SWAP1 PUSH0 MSTORE SWAP5 PUSH2 0x525F SWAP3 PUSH2 0x521B PUSH1 0x1 DUP1 PUSH1 0xA0 SHL SUB DUP13 SLOAD AND DUP14 PUSH2 0xB9B DUP14 DUP10 PUSH2 0x5DB4 JUMP JUMPDEST POP DUP1 SLOAD PUSH2 0x5234 SWAP1 DUP12 SWAP1 DUP15 SWAP1 PUSH1 0x1 PUSH1 0x1 PUSH1 0xA0 SHL SUB AND PUSH2 0x66B0 JUMP JUMPDEST POP DUP11 SLOAD PUSH2 0x524F SWAP1 PUSH1 0x1 PUSH1 0x1 PUSH1 0xA0 SHL SUB AND DUP4 PUSH2 0xB9B DUP7 DUP11 PUSH2 0x5DB4 JUMP JUMPDEST POP SLOAD PUSH1 0x1 PUSH1 0x1 PUSH1 0xA0 SHL SUB AND PUSH2 0x66B0 JUMP JUMPDEST POP DUP7 SLOAD DUP14 SLOAD DUP16 SLOAD PUSH1 0x40 MLOAD PUSH1 0x1 PUSH1 0x1 PUSH1 0xA0 SHL SUB SWAP3 DUP4 AND SWAP10 SWAP4 DUP4 AND SWAP9 SWAP2 SWAP1 SWAP3 AND SWAP4 DUP10 SWAP4 DUP10 SWAP4 DUP10 SWAP4 SWAP3 SWAP1 SWAP2 DUP3 SWAP2 PUSH2 0x5296 SWAP2 SWAP1 CALLER DUP11 DUP6 PUSH2 0x5DC1 JUMP JUMPDEST SUB SWAP1 LOG4 PUSH2 0x52AB DUP10 PUSH1 0x40 MLOAD SWAP4 DUP5 SWAP4 CALLER SWAP1 DUP6 PUSH2 0x5DC1 JUMP JUMPDEST SUB SWAP1 LOG4 DUP4 DUP4 DUP8 DUP15 DUP9 DUP16 DUP14 PUSH2 0x5074 JUMP JUMPDEST DUP8 PUSH0 MLOAD PUSH1 0x20 PUSH2 0x68A8 PUSH0 CODECOPY PUSH0 MLOAD SWAP1 PUSH0 MSTORE SWAP8 PUSH2 0x533D DUP6 DUP16 SWAP8 PUSH2 0x5311 DUP16 PUSH0 MLOAD PUSH1 0x20 PUSH2 0x6928 PUSH0 CODECOPY PUSH0 MLOAD SWAP1 PUSH0 MSTORE SWAP16 PUSH2 0x5300 DUP14 DUP3 PUSH2 0xB9B PUSH2 0x5382 SWAP16 DUP14 DUP2 DUP9 SWAP3 PUSH1 0xA0 SHL SUB SWAP1 SLOAD AND SWAP4 PUSH2 0x5DB4 JUMP JUMPDEST POP DUP10 SLOAD PUSH1 0x1 PUSH1 0x1 PUSH1 0xA0 SHL SUB AND PUSH2 0x66B0 JUMP JUMPDEST POP DUP6 SLOAD PUSH2 0x532C SWAP1 PUSH1 0x1 PUSH1 0x1 PUSH1 0xA0 SHL SUB AND DUP3 PUSH2 0xB9B DUP6 DUP16 PUSH2 0x5DB4 JUMP JUMPDEST POP DUP7 SLOAD PUSH1 0x1 PUSH1 0x1 PUSH1 0xA0 SHL SUB AND PUSH2 0x66B0 JUMP JUMPDEST POP DUP14 DUP1 PUSH1 0xA0 SHL SUB SWAP1 SLOAD AND SWAP10 DUP11 SWAP3 DUP15 DUP1 PUSH1 0xA0 SHL SUB SWAP1 SLOAD AND SWAP12 DUP13 SWAP5 DUP16 DUP1 PUSH1 0xA0 SHL SUB SWAP1 SLOAD AND SWAP8 PUSH2 0x5371 PUSH1 0x40 MLOAD SWAP3 DUP4 SWAP3 CALLER DUP13 DUP6 PUSH2 0x5DC1 JUMP JUMPDEST SUB SWAP1 LOG4 PUSH1 0x40 MLOAD SWAP4 DUP5 SWAP4 CALLER SWAP1 DUP6 PUSH2 0x5DC1 JUMP JUMPDEST SUB SWAP1 LOG4 DUP16 DUP12 DUP9 DUP13 DUP9 DUP9 DUP12 DUP16 SWAP7 DUP16 SWAP1 DUP12 SWAP1 PUSH2 0x5064 JUMP JUMPDEST PUSH2 0x53AE DUP13 DUP1 PUSH1 0xA0 SHL SUB DUP9 SLOAD AND DUP11 PUSH2 0xB9B DUP14 DUP10 PUSH2 0x5DB4 JUMP JUMPDEST POP PUSH2 0x53C2 DUP11 DUP11 DUP15 DUP1 PUSH1 0xA0 SHL SUB DUP6 SLOAD AND PUSH2 0x66B0 JUMP JUMPDEST POP PUSH2 0x53DA DUP13 DUP1 PUSH1 0xA0 SHL SUB DUP3 SLOAD AND DUP6 PUSH2 0xB9B DUP7 DUP11 PUSH2 0x5DB4 JUMP JUMPDEST POP PUSH2 0x53EE DUP4 DUP6 DUP15 DUP1 PUSH1 0xA0 SHL SUB DUP6 SLOAD AND PUSH2 0x66B0 JUMP JUMPDEST POP PUSH0 MLOAD PUSH1 0x20 PUSH2 0x6908 PUSH0 CODECOPY PUSH0 MLOAD SWAP1 PUSH0 MSTORE DUP11 DUP10 PUSH0 MLOAD PUSH1 0x20 PUSH2 0x68A8 PUSH0 CODECOPY PUSH0 MLOAD SWAP1 PUSH0 MSTORE DUP16 DUP10 DUP2 DUP13 SWAP3 PUSH1 0xA0 SHL SUB DUP14 SLOAD AND SWAP5 PUSH1 0x1 DUP6 DUP2 DUP9 SWAP3 PUSH1 0xA0 SHL SUB DUP11 SLOAD AND SWAP9 PUSH1 0x1 SWAP4 DUP5 DUP12 SWAP6 PUSH1 0xA0 SHL SUB DUP14 SLOAD AND SWAP6 PUSH2 0x5447 PUSH1 0x40 MLOAD SWAP3 DUP4 SWAP3 CALLER DUP11 DUP6 PUSH2 0x5DC1 JUMP JUMPDEST SUB SWAP1 LOG4 PUSH2 0x545C DUP10 PUSH1 0x40 MLOAD SWAP4 DUP5 SWAP4 CALLER SWAP1 DUP6 PUSH2 0x5DC1 JUMP JUMPDEST SUB SWAP1 LOG4 PUSH2 0x505B JUMP JUMPDEST PUSH4 0x4E487B71 PUSH1 0xE0 SHL PUSH0 MSTORE PUSH1 0x21 PUSH1 0x4 MSTORE PUSH1 0x24 PUSH0 REVERT JUMPDEST SWAP1 SWAP5 POP PUSH1 0x20 DUP2 RETURNDATASIZE PUSH1 0x20 GT PUSH2 0x54A4 JUMPI JUMPDEST DUP2 PUSH2 0x5494 PUSH1 0x20 SWAP4 DUP4 PUSH2 0x5AED JUMP JUMPDEST DUP2 ADD SUB SLT PUSH2 0x5DD JUMPI MLOAD SWAP4 DUP12 PUSH2 0x500E JUMP JUMPDEST RETURNDATASIZE SWAP2 POP PUSH2 0x5487 JUMP JUMPDEST SWAP1 SWAP5 POP PUSH1 0x20 DUP2 RETURNDATASIZE PUSH1 0x20 GT PUSH2 0x54D9 JUMPI JUMPDEST DUP2 PUSH2 0x54C8 PUSH1 0x20 SWAP4 DUP4 PUSH2 0x5AED JUMP JUMPDEST DUP2 ADD SUB SLT PUSH2 0x5DD JUMPI MLOAD SWAP4 PUSH1 0x20 PUSH2 0x4FDC JUMP JUMPDEST RETURNDATASIZE SWAP2 POP PUSH2 0x54BB JUMP JUMPDEST PUSH1 0xFF SWAP2 POP PUSH1 0xA8 SHR AND ISZERO DUP7 PUSH2 0x189C JUMP JUMPDEST POP PUSH1 0x2 DUP4 ADD SLOAD PUSH1 0x1 PUSH1 0x1 PUSH1 0xA0 SHL SUB AND CALLER EQ PUSH2 0x4F15 JUMP JUMPDEST POP DUP3 SLOAD PUSH1 0x1 PUSH1 0x1 PUSH1 0xA0 SHL SUB AND CALLER EQ PUSH2 0x4F0E JUMP JUMPDEST CALLVALUE PUSH2 0x5DD JUMPI PUSH0 CALLDATASIZE PUSH1 0x3 NOT ADD SLT PUSH2 0x5DD JUMPI PUSH1 0x20 PUSH1 0x8 SLOAD PUSH1 0x40 MLOAD SWAP1 DUP2 MSTORE RETURN JUMPDEST CALLVALUE PUSH2 0x5DD JUMPI PUSH2 0x220 PUSH2 0x55D2 PUSH2 0x554A CALLDATASIZE PUSH2 0x57DE JUMP JUMPDEST SWAP3 PUSH2 0x5568 PUSH1 0xFF PUSH0 SWAP14 SWAP10 SWAP8 SWAP14 SWAP13 SWAP7 SWAP13 SWAP12 SWAP11 SWAP12 SWAP5 SWAP4 SWAP5 SLOAD PUSH1 0xA0 SHR AND PUSH2 0x5A22 JUMP JUMPDEST CALLER PUSH0 MSTORE PUSH1 0x1 PUSH1 0x20 MSTORE PUSH1 0x40 PUSH0 KECCAK256 PUSH1 0x1 DUP1 PUSH1 0xA0 SHL SUB DUP3 AND PUSH0 MSTORE PUSH1 0x20 MSTORE PUSH2 0x5592 DUP7 PUSH1 0x40 PUSH0 KECCAK256 SLOAD LT ISZERO PUSH2 0x5A53 JUMP JUMPDEST PUSH2 0x559D DUP7 DUP3 CALLER PUSH2 0x6609 JUMP JUMPDEST POP PUSH20 0x0 SWAP11 PUSH1 0x40 MLOAD SWAP13 DUP14 SWAP9 DUP10 SWAP9 PUSH4 0x652E83D7 PUSH1 0xE0 SHL DUP11 MSTORE DUP14 DUP14 CALLER PUSH1 0x4 DUP14 ADD PUSH2 0x5C49 JUMP JUMPDEST SUB DUP2 DUP7 GAS DELEGATECALL SWAP4 DUP5 ISZERO PUSH2 0x4EA2 JUMPI PUSH0 SWAP5 PUSH2 0x5791 JUMPI JUMPDEST POP PUSH1 0x20 PUSH1 0x5 SLOAD PUSH2 0x244 PUSH1 0x40 MLOAD DUP1 SWAP7 DUP2 SWAP4 PUSH4 0x797D4EE1 PUSH1 0xE0 SHL DUP4 MSTORE PUSH2 0x560C PUSH1 0x4 DUP5 ADD DUP12 PUSH2 0x5914 JUMP JUMPDEST PUSH2 0x224 DUP4 ADD MSTORE GAS DELEGATECALL SWAP3 DUP4 ISZERO PUSH2 0x4EA2 JUMPI PUSH0 SWAP4 PUSH2 0x575D JUMPI JUMPDEST POP PUSH2 0x562E PUSH1 0x5 SLOAD PUSH2 0x5CB5 JUMP JUMPDEST PUSH1 0x5 SSTORE PUSH0 DUP4 DUP2 MSTORE PUSH1 0x4 PUSH1 0x20 SWAP1 DUP2 MSTORE PUSH1 0x40 SWAP2 DUP3 SWAP1 KECCAK256 DUP7 MLOAD DUP2 SLOAD PUSH1 0x1 PUSH1 0x1 PUSH1 0xA0 SHL SUB SWAP2 DUP3 AND PUSH1 0x1 PUSH1 0x1 PUSH1 0xA0 SHL SUB NOT SWAP2 DUP3 AND OR DUP4 SSTORE SWAP3 DUP9 ADD MLOAD PUSH1 0x1 DUP4 ADD DUP1 SLOAD SWAP2 DUP4 AND SWAP2 SWAP1 SWAP5 AND OR SWAP1 SWAP3 SSTORE SWAP2 DUP7 ADD MLOAD PUSH1 0x2 DUP4 ADD DUP1 SLOAD PUSH1 0x60 DUP10 ADD MLOAD PUSH1 0xFF PUSH1 0xA0 SHL SWAP1 ISZERO ISZERO PUSH1 0xA0 SHL AND SWAP3 SWAP1 SWAP4 AND PUSH1 0x1 PUSH1 0x1 PUSH1 0xA8 SHL SUB NOT SWAP1 SWAP4 AND SWAP3 SWAP1 SWAP3 OR OR DUP2 SSTORE SWAP1 SWAP5 PUSH2 0x200 SWAP2 PUSH2 0x56B6 SWAP1 PUSH2 0x1074 JUMP JUMPDEST PUSH1 0xE0 DUP2 ADD MLOAD PUSH1 0x3 DUP8 ADD SSTORE PUSH2 0x100 DUP2 ADD MLOAD PUSH1 0x4 DUP8 ADD SSTORE PUSH2 0x120 DUP2 ADD MLOAD PUSH1 0x5 DUP8 ADD SSTORE PUSH2 0x140 DUP2 ADD MLOAD PUSH1 0x6 DUP1 DUP9 ADD SWAP2 SWAP1 SWAP2 SSTORE PUSH2 0x160 DUP3 ADD MLOAD PUSH1 0x7 DUP9 ADD SSTORE PUSH2 0x180 DUP3 ADD MLOAD PUSH1 0x8 DUP9 ADD SSTORE PUSH2 0x1A0 DUP3 ADD MLOAD PUSH1 0x9 DUP9 ADD DUP1 SLOAD PUSH1 0x1 PUSH1 0x1 PUSH1 0xA0 SHL SUB SWAP3 DUP4 AND PUSH1 0x1 PUSH1 0x1 PUSH1 0xA0 SHL SUB NOT SWAP2 DUP3 AND OR SWAP1 SWAP2 SSTORE PUSH2 0x1C0 DUP5 ADD MLOAD PUSH1 0xA DUP11 ADD DUP1 SLOAD SWAP2 SWAP1 SWAP4 AND SWAP2 AND OR SWAP1 SSTORE PUSH2 0x1E0 DUP3 ADD MLOAD PUSH1 0xB DUP9 ADD SSTORE SWAP2 ADD MLOAD SWAP5 SWAP1 DUP6 LT ISZERO PUSH2 0x5464 JUMPI PUSH1 0x20 SWAP5 PUSH1 0xC PUSH2 0x1175 SWAP3 ADD PUSH2 0x5CD7 JUMP JUMPDEST SWAP1 SWAP3 POP PUSH1 0x20 DUP2 RETURNDATASIZE PUSH1 0x20 GT PUSH2 0x5789 JUMPI JUMPDEST DUP2 PUSH2 0x5779 PUSH1 0x20 SWAP4 DUP4 PUSH2 0x5AED JUMP JUMPDEST DUP2 ADD SUB SLT PUSH2 0x5DD JUMPI MLOAD SWAP2 DUP5 PUSH2 0x5622 JUMP JUMPDEST RETURNDATASIZE SWAP2 POP PUSH2 0x576C JUMP JUMPDEST PUSH2 0x57AB SWAP2 SWAP5 POP PUSH2 0x220 RETURNDATASIZE DUP2 GT PUSH2 0x1234 JUMPI PUSH2 0x1226 DUP2 DUP4 PUSH2 0x5AED JUMP JUMPDEST SWAP3 DUP5 PUSH2 0x55E5 JUMP JUMPDEST PUSH1 0x24 CALLDATALOAD SWAP1 PUSH1 0x1 PUSH1 0x1 PUSH1 0xA0 SHL SUB DUP3 AND DUP3 SUB PUSH2 0x5DD JUMPI JUMP JUMPDEST PUSH1 0x4 CALLDATALOAD SWAP1 PUSH1 0x1 PUSH1 0x1 PUSH1 0xA0 SHL SUB DUP3 AND DUP3 SUB PUSH2 0x5DD JUMPI JUMP JUMPDEST PUSH2 0x140 SWAP1 PUSH1 0x3 NOT ADD SLT PUSH2 0x5DD JUMPI PUSH1 0x4 CALLDATALOAD PUSH1 0x1 PUSH1 0x1 PUSH1 0xA0 SHL SUB DUP2 AND DUP2 SUB PUSH2 0x5DD JUMPI SWAP1 PUSH1 0x24 CALLDATALOAD PUSH1 0x1 PUSH1 0x1 PUSH1 0xA0 SHL SUB DUP2 AND DUP2 SUB PUSH2 0x5DD JUMPI SWAP1 PUSH1 0x44 CALLDATALOAD SWAP1 PUSH1 0x64 CALLDATALOAD SWAP1 PUSH1 0x84 CALLDATALOAD SWAP1 PUSH1 0xA4 CALLDATALOAD SWAP1 PUSH1 0xC4 CALLDATALOAD PUSH1 0x1 PUSH1 0x1 PUSH1 0xA0 SHL SUB DUP2 AND DUP2 SUB PUSH2 0x5DD JUMPI SWAP1 PUSH1 0xE4 CALLDATALOAD PUSH1 0x1 PUSH1 0x1 PUSH1 0xA0 SHL SUB DUP2 AND DUP2 SUB PUSH2 0x5DD JUMPI SWAP1 PUSH2 0x104 CALLDATALOAD SWAP1 PUSH2 0x124 CALLDATALOAD PUSH1 0x6 DUP2 LT ISZERO PUSH2 0x5DD JUMPI SWAP1 JUMP JUMPDEST PUSH1 0x80 SWAP1 PUSH1 0x3 NOT ADD SLT PUSH2 0x5DD JUMPI PUSH1 0x4 CALLDATALOAD SWAP1 PUSH1 0x24 CALLDATALOAD PUSH1 0x1 PUSH1 0x1 PUSH1 0xA0 SHL SUB DUP2 AND DUP2 SUB PUSH2 0x5DD JUMPI SWAP1 PUSH1 0x44 CALLDATALOAD SWAP1 PUSH1 0x64 CALLDATALOAD SWAP1 JUMP JUMPDEST PUSH1 0x40 SWAP1 PUSH1 0x3 NOT ADD SLT PUSH2 0x5DD JUMPI PUSH1 0x4 CALLDATALOAD SWAP1 PUSH1 0x24 CALLDATALOAD SWAP1 JUMP JUMPDEST PUSH1 0xE0 SWAP1 PUSH1 0x3 NOT ADD SLT PUSH2 0x5DD JUMPI PUSH1 0x4 CALLDATALOAD PUSH1 0x1 PUSH1 0x1 PUSH1 0xA0 SHL SUB DUP2 AND DUP2 SUB PUSH2 0x5DD JUMPI SWAP1 PUSH1 0x24 CALLDATALOAD PUSH1 0x1 PUSH1 0x1 PUSH1 0xA0 SHL SUB DUP2 AND DUP2 SUB PUSH2 0x5DD JUMPI SWAP1 PUSH1 0x44 CALLDATALOAD SWAP1 PUSH1 0x64 CALLDATALOAD SWAP1 PUSH1 0x84 CALLDATALOAD PUSH1 0x1 PUSH1 0x1 PUSH1 0xA0 SHL SUB DUP2 AND DUP2 SUB PUSH2 0x5DD JUMPI SWAP1 PUSH1 0xA4 CALLDATALOAD SWAP1 PUSH1 0xC4 CALLDATALOAD PUSH1 0x6 DUP2 LT ISZERO PUSH2 0x5DD JUMPI SWAP1 JUMP JUMPDEST SWAP1 PUSH1 0x6 DUP3 LT ISZERO PUSH2 0x5464 JUMPI MSTORE JUMP JUMPDEST SWAP1 PUSH2 0x200 DUP1 PUSH2 0x5A01 SWAP4 PUSH1 0x1 DUP1 PUSH1 0xA0 SHL SUB DUP2 MLOAD AND DUP5 MSTORE PUSH1 0x1 DUP1 PUSH1 0xA0 SHL SUB PUSH1 0x20 DUP3 ADD MLOAD AND PUSH1 0x20 DUP6 ADD MSTORE PUSH1 0x1 DUP1 PUSH1 0xA0 SHL SUB PUSH1 0x40 DUP3 ADD MLOAD AND PUSH1 0x40 DUP6 ADD MSTORE PUSH1 0x60 DUP2 ADD MLOAD ISZERO ISZERO PUSH1 0x60 DUP6 ADD MSTORE PUSH1 0x80 DUP2 ADD MLOAD ISZERO ISZERO PUSH1 0x80 DUP6 ADD MSTORE PUSH1 0xA0 DUP2 ADD MLOAD ISZERO ISZERO PUSH1 0xA0 DUP6 ADD MSTORE PUSH1 0xC0 DUP2 ADD MLOAD ISZERO ISZERO PUSH1 0xC0 DUP6 ADD MSTORE PUSH1 0xE0 DUP2 ADD MLOAD PUSH1 0xE0 DUP6 ADD MSTORE PUSH2 0x100 DUP2 ADD MLOAD PUSH2 0x100 DUP6 ADD MSTORE PUSH2 0x120 DUP2 ADD MLOAD PUSH2 0x120 DUP6 ADD MSTORE PUSH2 0x140 DUP2 ADD MLOAD PUSH2 0x140 DUP6 ADD MSTORE PUSH2 0x160 DUP2 ADD MLOAD PUSH2 0x160 DUP6 ADD MSTORE PUSH2 0x180 DUP2 ADD MLOAD PUSH2 0x180 DUP6 ADD MSTORE PUSH1 0x1 DUP1 PUSH1 0xA0 SHL SUB PUSH2 0x1A0 DUP3 ADD MLOAD AND PUSH2 0x1A0 DUP6 ADD MSTORE PUSH1 0x1 DUP1 PUSH1 0xA0 SHL SUB PUSH2 0x1C0 DUP3 ADD MLOAD AND PUSH2 0x1C0 DUP6 ADD MSTORE PUSH2 0x1E0 DUP2 ADD MLOAD PUSH2 0x1E0 DUP6 ADD MSTORE ADD MLOAD SWAP2 ADD SWAP1 PUSH2 0x5907 JUMP JUMPDEST JUMP JUMPDEST PUSH1 0x40 SWAP1 PUSH1 0x3 NOT ADD SLT PUSH2 0x5DD JUMPI PUSH1 0x4 CALLDATALOAD SWAP1 PUSH1 0x24 CALLDATALOAD DUP1 ISZERO ISZERO DUP2 SUB PUSH2 0x5DD JUMPI SWAP1 JUMP JUMPDEST ISZERO PUSH2 0x5A29 JUMPI JUMP JUMPDEST PUSH1 0x40 MLOAD PUSH3 0x461BCD PUSH1 0xE5 SHL DUP2 MSTORE PUSH1 0x20 PUSH1 0x4 DUP3 ADD MSTORE PUSH1 0x2 PUSH1 0x24 DUP3 ADD MSTORE PUSH2 0x4C31 PUSH1 0xF0 SHL PUSH1 0x44 DUP3 ADD MSTORE PUSH1 0x64 SWAP1 REVERT JUMPDEST ISZERO PUSH2 0x5A5A JUMPI JUMP JUMPDEST PUSH1 0x40 MLOAD PUSH3 0x461BCD PUSH1 0xE5 SHL DUP2 MSTORE PUSH1 0x20 PUSH1 0x4 DUP3 ADD MSTORE PUSH1 0x2 PUSH1 0x24 DUP3 ADD MSTORE PUSH2 0x5431 PUSH1 0xF0 SHL PUSH1 0x44 DUP3 ADD MSTORE PUSH1 0x64 SWAP1 REVERT JUMPDEST PUSH1 0xE0 DUP2 ADD SWAP1 DUP2 LT PUSH8 0xFFFFFFFFFFFFFFFF DUP3 GT OR PUSH2 0x5AA0 JUMPI PUSH1 0x40 MSTORE JUMP JUMPDEST PUSH4 0x4E487B71 PUSH1 0xE0 SHL PUSH0 MSTORE PUSH1 0x41 PUSH1 0x4 MSTORE PUSH1 0x24 PUSH0 REVERT JUMPDEST PUSH2 0x220 DUP2 ADD SWAP1 DUP2 LT PUSH8 0xFFFFFFFFFFFFFFFF DUP3 GT OR PUSH2 0x5AA0 JUMPI PUSH1 0x40 MSTORE JUMP JUMPDEST PUSH1 0xA0 DUP2 ADD SWAP1 DUP2 LT PUSH8 0xFFFFFFFFFFFFFFFF DUP3 GT OR PUSH2 0x5AA0 JUMPI PUSH1 0x40 MSTORE JUMP JUMPDEST SWAP1 PUSH1 0x1F DUP1 NOT SWAP2 ADD AND DUP2 ADD SWAP1 DUP2 LT PUSH8 0xFFFFFFFFFFFFFFFF DUP3 GT OR PUSH2 0x5AA0 JUMPI PUSH1 0x40 MSTORE JUMP JUMPDEST MLOAD SWAP1 PUSH1 0x1 PUSH1 0x1 PUSH1 0xA0 SHL SUB DUP3 AND DUP3 SUB PUSH2 0x5DD JUMPI JUMP JUMPDEST MLOAD SWAP1 DUP2 ISZERO ISZERO DUP3 SUB PUSH2 0x5DD JUMPI JUMP JUMPDEST SWAP1 DUP2 PUSH2 0x220 SWAP2 SUB SLT PUSH2 0x5DD JUMPI PUSH2 0x200 PUSH1 0x40 MLOAD SWAP2 PUSH2 0x5B4C DUP4 PUSH2 0x5AB4 JUMP JUMPDEST PUSH2 0x5B55 DUP2 PUSH2 0x5B0F JUMP JUMPDEST DUP4 MSTORE PUSH2 0x5B63 PUSH1 0x20 DUP3 ADD PUSH2 0x5B0F JUMP JUMPDEST PUSH1 0x20 DUP5 ADD MSTORE PUSH2 0x5B74 PUSH1 0x40 DUP3 ADD PUSH2 0x5B0F JUMP JUMPDEST PUSH1 0x40 DUP5 ADD MSTORE PUSH2 0x5B85 PUSH1 0x60 DUP3 ADD PUSH2 0x5B23 JUMP JUMPDEST PUSH1 0x60 DUP5 ADD MSTORE PUSH2 0x5B96 PUSH1 0x80 DUP3 ADD PUSH2 0x5B23 JUMP JUMPDEST PUSH1 0x80 DUP5 ADD MSTORE PUSH2 0x5BA7 PUSH1 0xA0 DUP3 ADD PUSH2 0x5B23 JUMP JUMPDEST PUSH1 0xA0 DUP5 ADD MSTORE PUSH2 0x5BB8 PUSH1 0xC0 DUP3 ADD PUSH2 0x5B23 JUMP JUMPDEST PUSH1 0xC0 DUP5 ADD MSTORE PUSH1 0xE0 DUP2 ADD MLOAD PUSH1 0xE0 DUP5 ADD MSTORE PUSH2 0x100 DUP2 ADD MLOAD PUSH2 0x100 DUP5 ADD MSTORE PUSH2 0x120 DUP2 ADD MLOAD PUSH2 0x120 DUP5 ADD MSTORE PUSH2 0x140 DUP2 ADD MLOAD PUSH2 0x140 DUP5 ADD MSTORE PUSH2 0x160 DUP2 ADD MLOAD PUSH2 0x160 DUP5 ADD MSTORE PUSH2 0x180 DUP2 ADD MLOAD PUSH2 0x180 DUP5 ADD MSTORE PUSH2 0x5C10 PUSH2 0x1A0 DUP3 ADD PUSH2 0x5B0F JUMP JUMPDEST PUSH2 0x1A0 DUP5 ADD MSTORE PUSH2 0x5C23 PUSH2 0x1C0 DUP3 ADD PUSH2 0x5B0F JUMP JUMPDEST PUSH2 0x1C0 DUP5 ADD MSTORE PUSH2 0x1E0 DUP2 ADD MLOAD PUSH2 0x1E0 DUP5 ADD MSTORE ADD MLOAD PUSH1 0x6 DUP2 LT ISZERO PUSH2 0x5DD JUMPI PUSH2 0x200 DUP3 ADD MSTORE SWAP1 JUMP JUMPDEST PUSH1 0x1 PUSH1 0x1 PUSH1 0xA0 SHL SUB SWAP2 DUP3 AND DUP2 MSTORE SWAP2 DUP2 AND PUSH1 0x20 DUP4 ADD MSTORE SWAP2 DUP3 AND PUSH1 0x40 DUP3 ADD MSTORE PUSH1 0x60 DUP2 ADD SWAP3 SWAP1 SWAP3 MSTORE PUSH1 0x80 DUP3 ADD SWAP3 SWAP1 SWAP3 MSTORE PUSH1 0xA0 DUP2 ADD SWAP3 SWAP1 SWAP3 MSTORE PUSH1 0xC0 DUP3 ADD SWAP3 SWAP1 SWAP3 MSTORE SWAP2 DUP2 AND PUSH1 0xE0 DUP4 ADD MSTORE SWAP1 SWAP2 AND PUSH2 0x100 DUP3 ADD MSTORE PUSH2 0x120 DUP2 ADD SWAP2 SWAP1 SWAP2 MSTORE PUSH2 0x160 DUP2 ADD SWAP3 SWAP2 PUSH2 0x5A01 SWAP2 PUSH2 0x140 ADD SWAP1 PUSH2 0x5907 JUMP JUMPDEST PUSH0 NOT DUP2 EQ PUSH2 0x5CC3 JUMPI PUSH1 0x1 ADD SWAP1 JUMP JUMPDEST PUSH4 0x4E487B71 PUSH1 0xE0 SHL PUSH0 MSTORE PUSH1 0x11 PUSH1 0x4 MSTORE PUSH1 0x24 PUSH0 REVERT JUMPDEST SWAP1 PUSH1 0x6 DUP2 LT ISZERO PUSH2 0x5464 JUMPI PUSH1 0xFF DUP1 NOT DUP4 SLOAD AND SWAP2 AND OR SWAP1 SSTORE JUMP JUMPDEST ISZERO PUSH2 0x5CF6 JUMPI JUMP JUMPDEST PUSH1 0x40 MLOAD PUSH3 0x461BCD PUSH1 0xE5 SHL DUP2 MSTORE PUSH1 0x20 PUSH1 0x4 DUP3 ADD MSTORE PUSH1 0x2 PUSH1 0x24 DUP3 ADD MSTORE PUSH2 0x4435 PUSH1 0xF0 SHL PUSH1 0x44 DUP3 ADD MSTORE PUSH1 0x64 SWAP1 REVERT JUMPDEST ISZERO PUSH2 0x5D27 JUMPI JUMP JUMPDEST PUSH1 0x40 MLOAD PUSH3 0x461BCD PUSH1 0xE5 SHL DUP2 MSTORE PUSH1 0x20 PUSH1 0x4 DUP3 ADD MSTORE PUSH1 0x2 PUSH1 0x24 DUP3 ADD MSTORE PUSH2 0x2219 PUSH1 0xF1 SHL PUSH1 0x44 DUP3 ADD MSTORE PUSH1 0x64 SWAP1 REVERT JUMPDEST ISZERO PUSH2 0x5D58 JUMPI JUMP JUMPDEST PUSH1 0x40 MLOAD PUSH3 0x461BCD PUSH1 0xE5 SHL DUP2 MSTORE PUSH1 0x20 PUSH1 0x4 DUP3 ADD MSTORE PUSH1 0x2 PUSH1 0x24 DUP3 ADD MSTORE PUSH2 0x4433 PUSH1 0xF0 SHL PUSH1 0x44 DUP3 ADD MSTORE PUSH1 0x64 SWAP1 REVERT JUMPDEST ISZERO PUSH2 0x5D89 JUMPI JUMP JUMPDEST PUSH1 0x64 PUSH1 0x40 MLOAD PUSH3 0x461BCD PUSH1 0xE5 SHL DUP2 MSTORE PUSH1 0x20 PUSH1 0x4 DUP3 ADD MSTORE PUSH1 0x4 PUSH1 0x24 DUP3 ADD MSTORE PUSH4 0x44312E31 PUSH1 0xE0 SHL PUSH1 0x44 DUP3 ADD MSTORE REVERT JUMPDEST SWAP2 SWAP1 DUP3 SUB SWAP2 DUP3 GT PUSH2 0x5CC3 JUMPI JUMP JUMPDEST PUSH1 0x1 PUSH1 0x1 PUSH1 0xA0 SHL SUB SWAP2 DUP3 AND DUP2 MSTORE SWAP2 AND PUSH1 0x20 DUP3 ADD MSTORE PUSH1 0x40 DUP2 ADD SWAP2 SWAP1 SWAP2 MSTORE PUSH1 0x60 DUP2 ADD SWAP2 SWAP1 SWAP2 MSTORE PUSH1 0x80 ADD SWAP1 JUMP JUMPDEST PUSH1 0x1 PUSH1 0x1 PUSH1 0xA0 SHL SUB SWAP2 DUP3 AND DUP2 MSTORE SWAP2 DUP2 AND PUSH1 0x20 DUP4 ADD MSTORE SWAP1 SWAP2 AND PUSH1 0x40 DUP3 ADD MSTORE PUSH1 0x60 DUP2 ADD SWAP2 SWAP1 SWAP2 MSTORE PUSH1 0x80 DUP2 ADD SWAP2 SWAP1 SWAP2 MSTORE PUSH1 0xA0 DUP2 ADD SWAP2 SWAP1 SWAP2 MSTORE PUSH1 0xC0 DUP2 ADD SWAP2 SWAP1 SWAP2 MSTORE PUSH1 0xE0 ADD SWAP1 JUMP JUMPDEST DUP2 SLOAD PUSH1 0x1 PUSH1 0x1 PUSH1 0xA0 SHL SUB SWAP1 DUP2 AND DUP3 MSTORE PUSH1 0x1 DUP4 ADD SLOAD DUP2 AND PUSH1 0x20 DUP4 ADD MSTORE PUSH1 0x2 DUP4 ADD SLOAD DUP1 DUP3 AND PUSH1 0x40 DUP5 ADD MSTORE PUSH1 0xFF PUSH1 0xA0 DUP3 DUP2 SHR DUP3 AND ISZERO ISZERO PUSH1 0x60 DUP7 ADD MSTORE PUSH1 0xA8 DUP4 SWAP1 SHR DUP3 AND ISZERO ISZERO PUSH1 0x80 DUP7 ADD MSTORE PUSH1 0xB0 DUP4 SWAP1 SHR DUP3 AND ISZERO ISZERO SWAP1 DUP6 ADD MSTORE PUSH1 0xB8 SWAP2 SWAP1 SWAP2 SHR DUP2 AND ISZERO ISZERO PUSH1 0xC0 DUP5 ADD MSTORE PUSH1 0x3 DUP5 ADD SLOAD PUSH1 0xE0 DUP5 ADD MSTORE PUSH1 0x4 DUP5 ADD SLOAD PUSH2 0x100 DUP5 ADD MSTORE PUSH1 0x5 DUP5 ADD SLOAD PUSH2 0x120 DUP5 ADD MSTORE PUSH1 0x6 DUP5 ADD SLOAD PUSH2 0x140 DUP5 ADD MSTORE PUSH1 0x7 DUP5 ADD SLOAD PUSH2 0x160 DUP5 ADD MSTORE PUSH1 0x8 DUP5 ADD SLOAD PUSH2 0x180 DUP5 ADD MSTORE PUSH1 0x9 DUP5 ADD SLOAD DUP3 AND PUSH2 0x1A0 DUP5 ADD MSTORE PUSH1 0xA DUP5 ADD SLOAD SWAP1 SWAP2 AND PUSH2 0x1C0 DUP4 ADD MSTORE PUSH1 0xB DUP4 ADD SLOAD PUSH2 0x1E0 DUP4 ADD MSTORE PUSH1 0xC SWAP1 SWAP3 ADD SLOAD PUSH2 0x220 DUP3 ADD SWAP4 SWAP3 PUSH2 0x5A01 SWAP3 PUSH2 0x200 ADD SWAP2 AND PUSH2 0x5907 JUMP JUMPDEST ISZERO PUSH2 0x5F1A JUMPI JUMP JUMPDEST PUSH1 0x64 PUSH1 0x40 MLOAD PUSH3 0x461BCD PUSH1 0xE5 SHL DUP2 MSTORE PUSH1 0x20 PUSH1 0x4 DUP3 ADD MSTORE PUSH1 0x4 PUSH1 0x24 DUP3 ADD MSTORE PUSH4 0x22191719 PUSH1 0xE1 SHL PUSH1 0x44 DUP3 ADD MSTORE REVERT JUMPDEST PUSH1 0x6 DUP3 LT ISZERO PUSH2 0x5464 JUMPI MSTORE JUMP JUMPDEST ISZERO PUSH2 0x5F58 JUMPI JUMP JUMPDEST PUSH1 0x40 MLOAD PUSH3 0x461BCD PUSH1 0xE5 SHL DUP2 MSTORE PUSH1 0x20 PUSH1 0x4 DUP3 ADD MSTORE PUSH1 0x2 PUSH1 0x24 DUP3 ADD MSTORE PUSH2 0x4331 PUSH1 0xF0 SHL PUSH1 0x44 DUP3 ADD MSTORE PUSH1 0x64 SWAP1 REVERT JUMPDEST ISZERO PUSH2 0x5F89 JUMPI JUMP JUMPDEST PUSH1 0x40 MLOAD PUSH3 0x461BCD PUSH1 0xE5 SHL DUP2 MSTORE PUSH1 0x20 PUSH1 0x4 DUP3 ADD MSTORE PUSH1 0x2 PUSH1 0x24 DUP3 ADD MSTORE PUSH2 0x4335 PUSH1 0xF0 SHL PUSH1 0x44 DUP3 ADD MSTORE PUSH1 0x64 SWAP1 REVERT JUMPDEST PUSH1 0x1 PUSH1 0x1 PUSH1 0xA0 SHL SUB SWAP2 DUP3 AND DUP2 MSTORE SWAP2 DUP2 AND PUSH1 0x20 DUP4 ADD MSTORE SWAP2 DUP3 AND PUSH1 0x40 DUP3 ADD MSTORE PUSH1 0x60 DUP2 ADD SWAP3 SWAP1 SWAP3 MSTORE PUSH0 PUSH1 0x80 DUP4 ADD DUP2 SWAP1 MSTORE PUSH1 0xA0 DUP4 ADD SWAP4 SWAP1 SWAP4 MSTORE PUSH1 0xC0 DUP3 ADD DUP4 SWAP1 MSTORE SWAP1 SWAP3 AND PUSH1 0xE0 DUP4 ADD MSTORE PUSH2 0x100 DUP3 ADD MSTORE PUSH2 0x120 DUP2 ADD SWAP2 SWAP1 SWAP2 MSTORE PUSH2 0x160 DUP2 ADD SWAP3 SWAP2 PUSH2 0x5A01 SWAP2 PUSH2 0x140 ADD SWAP1 PUSH2 0x5907 JUMP JUMPDEST SWAP2 SWAP1 DUP3 ADD DUP1 SWAP3 GT PUSH2 0x5CC3 JUMPI JUMP JUMPDEST ISZERO PUSH2 0x602F JUMPI JUMP JUMPDEST PUSH1 0x64 PUSH1 0x40 MLOAD PUSH3 0x461BCD PUSH1 0xE5 SHL DUP2 MSTORE PUSH1 0x20 PUSH1 0x4 DUP3 ADD MSTORE PUSH1 0x4 PUSH1 0x24 DUP3 ADD MSTORE PUSH4 0x44332E31 PUSH1 0xE0 SHL PUSH1 0x44 DUP3 ADD MSTORE REVERT JUMPDEST ISZERO PUSH2 0x6061 JUMPI JUMP JUMPDEST PUSH1 0x64 PUSH1 0x40 MLOAD PUSH3 0x461BCD PUSH1 0xE5 SHL DUP2 MSTORE PUSH1 0x20 PUSH1 0x4 DUP3 ADD MSTORE PUSH1 0x4 PUSH1 0x24 DUP3 ADD MSTORE PUSH4 0x44322E31 PUSH1 0xE0 SHL PUSH1 0x44 DUP3 ADD MSTORE REVERT JUMPDEST ISZERO PUSH2 0x6093 JUMPI JUMP JUMPDEST PUSH1 0x64 PUSH1 0x40 MLOAD PUSH3 0x461BCD PUSH1 0xE5 SHL DUP2 MSTORE PUSH1 0x20 PUSH1 0x4 DUP3 ADD MSTORE PUSH1 0x4 PUSH1 0x24 DUP3 ADD MSTORE PUSH4 0x43332E31 PUSH1 0xE0 SHL PUSH1 0x44 DUP3 ADD MSTORE REVERT JUMPDEST SWAP1 DUP2 PUSH0 MSTORE PUSH1 0xA PUSH1 0x20 MSTORE PUSH1 0x40 PUSH0 KECCAK256 DUP1 SLOAD PUSH0 MSTORE PUSH1 0x4 PUSH1 0x20 MSTORE PUSH1 0x40 PUSH0 KECCAK256 SWAP2 PUSH1 0x1 DUP1 PUSH1 0xA0 SHL SUB DUP4 SLOAD AND CALLER EQ DUP1 ISZERO PUSH2 0x62A4 JUMPI JUMPDEST PUSH2 0x60F5 SWAP1 PUSH2 0x5CEF JUMP JUMPDEST PUSH2 0x623C JUMPI PUSH1 0x2 DUP3 ADD DUP1 SLOAD SWAP1 SWAP3 SWAP1 PUSH2 0x6115 SWAP1 PUSH1 0x1 PUSH1 0x1 PUSH1 0xA0 SHL SUB AND ISZERO PUSH2 0x608C JUMP JUMPDEST DUP1 SLOAD PUSH1 0x1 PUSH1 0x1 PUSH1 0xA0 SHL SUB AND CALLER EQ PUSH2 0x6222 JUMPI JUMPDEST PUSH1 0x1 ADD SLOAD PUSH1 0x1 PUSH1 0x1 PUSH1 0xA0 SHL SUB AND CALLER EQ PUSH2 0x6208 JUMPI JUMPDEST PUSH1 0x1 DUP2 ADD SWAP2 DUP3 SLOAD PUSH1 0xFF DUP2 PUSH1 0xA0 SHR AND DUP1 PUSH2 0x61FB JUMPI JUMPDEST PUSH2 0x61A7 JUMPI POP POP POP PUSH1 0x80 PUSH32 0xDA0FDC90D2CAC3C2211C13CF60368ACEB049A3073B8BE0B90792021888C55FC5 SWAP2 SLOAD PUSH1 0xFF PUSH1 0x40 MLOAD SWAP2 CALLER DUP4 MSTORE DUP2 DUP2 PUSH1 0xA0 SHR AND ISZERO ISZERO PUSH1 0x20 DUP5 ADD MSTORE PUSH1 0xA8 SHR AND ISZERO ISZERO PUSH1 0x40 DUP3 ADD MSTORE PUSH0 PUSH1 0x60 DUP3 ADD MSTORE LOG2 PUSH0 SWAP1 JUMP JUMPDEST DUP2 SLOAD PUSH1 0x1 PUSH1 0x1 PUSH1 0xA0 SHL SUB NOT AND PUSH1 0x1 PUSH1 0x1 PUSH1 0xA0 SHL SUB SWAP2 DUP3 AND OR SWAP1 SWAP2 SSTORE SWAP2 SLOAD SWAP1 SLOAD PUSH1 0x40 MLOAD SWAP1 DUP2 MSTORE SWAP2 AND SWAP2 POP PUSH32 0x957372C0E02D2882134CC0EEBBEF9E446634D8CCBB1CBB112BDEFDD3CF0A643C SWAP1 PUSH1 0x20 SWAP1 LOG2 PUSH1 0x1 SWAP1 JUMP JUMPDEST POP PUSH1 0xFF DUP2 PUSH1 0xA8 SHR AND PUSH2 0x614F JUMP JUMPDEST PUSH1 0x1 DUP2 ADD DUP1 SLOAD PUSH1 0xFF PUSH1 0xA8 SHL NOT AND PUSH1 0x1 PUSH1 0xA8 SHL OR SWAP1 SSTORE PUSH2 0x613B JUMP JUMPDEST PUSH1 0x1 DUP3 ADD DUP1 SLOAD PUSH1 0xFF PUSH1 0xA0 SHL NOT AND PUSH1 0x1 PUSH1 0xA0 SHL OR SWAP1 SSTORE PUSH2 0x6127 JUMP JUMPDEST PUSH32 0xDA0FDC90D2CAC3C2211C13CF60368ACEB049A3073B8BE0B90792021888C55FC5 SWAP2 POP PUSH1 0x1 PUSH1 0x80 SWAP2 ADD PUSH1 0x1 PUSH1 0xB0 SHL PUSH1 0xFF PUSH1 0xB0 SHL NOT DUP3 SLOAD AND OR DUP1 SWAP2 SSTORE PUSH1 0xFF PUSH1 0x40 MLOAD SWAP2 CALLER DUP4 MSTORE DUP2 DUP2 PUSH1 0xA0 SHR AND ISZERO ISZERO PUSH1 0x20 DUP5 ADD MSTORE PUSH1 0xA8 SHR AND ISZERO ISZERO PUSH1 0x40 DUP3 ADD MSTORE PUSH1 0x1 PUSH1 0x60 DUP3 ADD MSTORE LOG2 PUSH0 SWAP1 JUMP JUMPDEST POP PUSH1 0x1 DUP4 ADD SLOAD PUSH1 0x1 PUSH1 0x1 PUSH1 0xA0 SHL SUB AND CALLER EQ PUSH2 0x60EC JUMP JUMPDEST PUSH0 SWAP2 DUP2 PUSH0 MSTORE PUSH1 0x9 PUSH1 0x20 MSTORE PUSH1 0x40 PUSH0 KECCAK256 SWAP1 DUP2 SLOAD PUSH0 MSTORE PUSH1 0x4 PUSH1 0x20 MSTORE PUSH1 0x40 PUSH0 KECCAK256 SWAP1 PUSH1 0x1 DUP3 ADD SWAP1 PUSH1 0x1 DUP1 PUSH1 0xA0 SHL SUB DUP3 SLOAD AND CALLER EQ DUP1 ISZERO PUSH2 0x65CD JUMPI JUMPDEST DUP1 ISZERO PUSH2 0x65B7 JUMPI JUMPDEST PUSH2 0x62FF SWAP1 PUSH2 0x5CEF JUMP JUMPDEST PUSH20 0x0 DUP1 EXTCODESIZE ISZERO PUSH2 0x5DD JUMPI PUSH0 PUSH1 0x40 MLOAD DUP1 SWAP3 PUSH4 0x252A867 PUSH1 0xE5 SHL DUP3 MSTORE DUP2 DUP1 PUSH2 0x633A DUP10 PUSH1 0x4 DUP4 ADD PUSH2 0x5E2E JUMP JUMPDEST SUB SWAP2 GAS DELEGATECALL DUP1 ISZERO PUSH2 0x4EA2 JUMPI PUSH2 0x65A2 JUMPI JUMPDEST POP PUSH2 0x652C JUMPI PUSH1 0x1 DUP4 ADD SWAP3 DUP4 SLOAD SWAP4 DUP5 ISZERO DUP1 ISZERO PUSH2 0x6522 JUMPI JUMPDEST PUSH2 0x6368 SWAP1 PUSH2 0x5D82 JUMP JUMPDEST DUP4 SLOAD PUSH1 0x1 PUSH1 0x1 PUSH1 0xA0 SHL SUB AND CALLER EQ PUSH2 0x650C JUMPI JUMPDEST DUP3 SLOAD PUSH1 0x1 PUSH1 0x1 PUSH1 0xA0 SHL SUB AND CALLER EQ PUSH2 0x64F4 JUMPI JUMPDEST PUSH1 0x2 DUP5 ADD DUP1 SLOAD SWAP1 SWAP3 SWAP1 PUSH1 0x1 PUSH1 0x1 PUSH1 0xA0 SHL SUB AND CALLER EQ PUSH2 0x64DA JUMPI JUMPDEST PUSH1 0x2 DUP2 ADD SWAP6 DUP7 SLOAD PUSH1 0xFF DUP2 PUSH1 0x8 SHR AND SWAP1 DUP2 PUSH2 0x64CB JUMPI JUMPDEST DUP2 PUSH2 0x64BD JUMPI JUMPDEST POP PUSH2 0x6428 JUMPI POP POP POP POP POP POP PUSH1 0xA0 PUSH32 0xCA0792B3957820BC249DD7664026CA960EFE1500204314BF8161056D3847D526 SWAP2 SLOAD PUSH1 0xFF PUSH1 0x40 MLOAD SWAP2 CALLER DUP4 MSTORE DUP2 DUP2 PUSH1 0x8 SHR AND ISZERO ISZERO PUSH1 0x20 DUP5 ADD MSTORE DUP2 DUP2 PUSH1 0x10 SHR AND ISZERO ISZERO PUSH1 0x40 DUP5 ADD MSTORE PUSH1 0x18 SHR AND ISZERO ISZERO PUSH1 0x60 DUP3 ADD MSTORE DUP5 PUSH1 0x80 DUP3 ADD MSTORE LOG2 SWAP1 JUMP JUMPDEST DUP6 SWAP9 POP SWAP2 PUSH1 0xFF PUSH32 0x932BD05AAEE1F6600767846BAB40EAABEF608993E19645684D0A9FCB3335D372 SWAP8 SWAP3 PUSH2 0x64B7 SWAP6 SWAP5 PUSH1 0xB PUSH1 0xC0 SWAP10 ADD SSTORE PUSH2 0x646D DUP3 DUP6 SLOAD AND PUSH1 0xC DUP14 ADD PUSH2 0x5CD7 JUMP JUMPDEST SLOAD SWAP10 SLOAD SWAP6 SLOAD SWAP4 SLOAD SWAP2 SLOAD SWAP3 SLOAD PUSH1 0x40 DUP1 MLOAD PUSH1 0x1 PUSH1 0x1 PUSH1 0xA0 SHL SUB SWAP9 DUP10 AND DUP2 MSTORE SWAP6 DUP9 AND PUSH1 0x20 DUP8 ADD MSTORE SWAP3 SWAP1 SWAP7 AND SWAP2 DUP5 ADD SWAP2 SWAP1 SWAP2 MSTORE CALLER PUSH1 0x60 DUP5 ADD MSTORE PUSH1 0x80 DUP4 ADD SWAP2 SWAP1 SWAP2 MSTORE SWAP1 SWAP3 PUSH1 0xA0 DUP5 ADD SWAP2 AND PUSH2 0x5907 JUMP JUMPDEST LOG3 PUSH1 0x1 SWAP1 JUMP JUMPDEST PUSH1 0xFF SWAP2 POP PUSH1 0x18 SHR AND PUSH0 PUSH2 0x63C0 JUMP JUMPDEST SWAP1 POP PUSH1 0xFF DUP2 PUSH1 0x10 SHR AND SWAP1 PUSH2 0x63BA JUMP JUMPDEST PUSH1 0x2 DUP2 ADD DUP1 SLOAD PUSH4 0xFF000000 NOT AND PUSH4 0x1000000 OR SWAP1 SSTORE PUSH2 0x63A5 JUMP JUMPDEST PUSH1 0x2 DUP3 ADD DUP1 SLOAD PUSH3 0xFF0000 NOT AND PUSH3 0x10000 OR SWAP1 SSTORE PUSH2 0x638C JUMP JUMPDEST PUSH1 0x2 DUP3 ADD DUP1 SLOAD PUSH2 0xFF00 NOT AND PUSH2 0x100 OR SWAP1 SSTORE PUSH2 0x637A JUMP JUMPDEST POP TIMESTAMP DUP6 GT ISZERO PUSH2 0x635F JUMP JUMPDEST POP POP PUSH1 0xA0 PUSH1 0x2 PUSH32 0xCA0792B3957820BC249DD7664026CA960EFE1500204314BF8161056D3847D526 SWAP3 ADD PUSH5 0x100000000 PUSH5 0xFF00000000 NOT DUP3 SLOAD AND OR DUP1 SWAP2 SSTORE PUSH1 0xFF PUSH1 0x40 MLOAD SWAP2 CALLER DUP4 MSTORE DUP2 DUP2 PUSH1 0x8 SHR AND ISZERO ISZERO PUSH1 0x20 DUP5 ADD MSTORE DUP2 DUP2 PUSH1 0x10 SHR AND ISZERO ISZERO PUSH1 0x40 DUP5 ADD MSTORE PUSH1 0x18 SHR AND ISZERO ISZERO PUSH1 0x60 DUP3 ADD MSTORE PUSH1 0x1 PUSH1 0x80 DUP3 ADD MSTORE LOG2 SWAP1 JUMP JUMPDEST PUSH2 0x65AF SWAP2 SWAP7 POP PUSH0 SWAP1 PUSH2 0x5AED JUMP JUMPDEST PUSH0 SWAP5 PUSH0 PUSH2 0x6349 JUMP JUMPDEST POP PUSH1 0x2 DUP4 ADD SLOAD PUSH1 0x1 PUSH1 0x1 PUSH1 0xA0 SHL SUB AND CALLER EQ PUSH2 0x62F6 JUMP JUMPDEST POP DUP3 SLOAD PUSH1 0x1 PUSH1 0x1 PUSH1 0xA0 SHL SUB AND CALLER EQ PUSH2 0x62EF JUMP JUMPDEST PUSH1 0x1 DUP1 PUSH1 0xA0 SHL SUB AND PUSH0 MSTORE PUSH1 0x1 PUSH1 0x20 MSTORE PUSH1 0x40 PUSH0 KECCAK256 SWAP1 PUSH1 0x1 DUP1 PUSH1 0xA0 SHL SUB AND PUSH0 MSTORE PUSH1 0x20 MSTORE PUSH1 0x40 PUSH0 KECCAK256 SLOAD SWAP1 JUMP JUMPDEST DUP3 ISZERO PUSH2 0x66A8 JUMPI PUSH1 0x1 DUP1 PUSH1 0xA0 SHL SUB AND SWAP1 DUP2 PUSH0 MSTORE PUSH1 0x1 PUSH1 0x20 MSTORE PUSH1 0x40 PUSH0 KECCAK256 PUSH1 0x1 DUP1 PUSH1 0xA0 SHL SUB DUP3 AND PUSH0 MSTORE PUSH1 0x20 MSTORE DUP3 PUSH1 0x40 PUSH0 KECCAK256 SLOAD LT PUSH2 0x66A1 JUMPI PUSH32 0xD1398BEE19313D6BF672CCB116E51F4A1A947E91C757907F51FBB5B5E56C698F PUSH1 0x20 PUSH0 SWAP3 DUP5 DUP5 MSTORE PUSH1 0x1 DUP3 MSTORE PUSH1 0x40 DUP5 KECCAK256 PUSH1 0x1 DUP1 PUSH1 0xA0 SHL SUB DUP3 AND DUP6 MSTORE DUP3 MSTORE PUSH1 0x40 DUP5 KECCAK256 PUSH2 0x6689 DUP8 DUP3 SLOAD PUSH2 0x5DB4 JUMP JUMPDEST SWAP1 SSTORE PUSH1 0x40 MLOAD SWAP6 DUP7 MSTORE PUSH1 0x1 PUSH1 0x1 PUSH1 0xA0 SHL SUB AND SWAP5 LOG4 PUSH1 0x1 SWAP1 JUMP JUMPDEST POP POP POP PUSH0 SWAP1 JUMP JUMPDEST POP POP POP PUSH1 0x1 SWAP1 JUMP JUMPDEST SWAP2 SWAP1 DUP2 ISZERO PUSH2 0x66A8 JUMPI PUSH1 0x1 PUSH1 0x1 PUSH1 0xA0 SHL SUB AND SWAP2 DUP3 PUSH2 0x6718 JUMPI PUSH0 DUP1 DUP1 DUP1 DUP6 PUSH1 0x1 PUSH1 0x1 PUSH1 0xA0 SHL SUB DUP7 AND DUP3 CALL ISZERO PUSH2 0x4EA2 JUMPI PUSH1 0x20 PUSH32 0x2717EAD6B9200DD235AAD468C9809EA400FE33AC69B5BFAA6D3E90FC922B6398 SWAP2 JUMPDEST PUSH1 0x40 MLOAD SWAP4 DUP5 MSTORE PUSH1 0x1 PUSH1 0x1 PUSH1 0xA0 SHL SUB AND SWAP3 LOG3 PUSH1 0x1 SWAP1 JUMP JUMPDEST PUSH1 0x40 MLOAD PUSH4 0xA9059CBB PUSH1 0xE0 SHL DUP2 MSTORE PUSH1 0x1 PUSH1 0x1 PUSH1 0xA0 SHL SUB DUP3 AND PUSH1 0x4 DUP3 ADD MSTORE PUSH1 0x24 DUP2 ADD DUP4 SWAP1 MSTORE PUSH1 0x20 DUP2 PUSH1 0x44 DUP2 PUSH0 DUP9 GAS CALL SWAP1 DUP2 ISZERO PUSH2 0x4EA2 JUMPI PUSH0 SWAP2 PUSH2 0x67AC JUMPI JUMPDEST POP ISZERO PUSH2 0x6782 JUMPI PUSH1 0x20 PUSH32 0x2717EAD6B9200DD235AAD468C9809EA400FE33AC69B5BFAA6D3E90FC922B6398 SWAP2 PUSH2 0x6702 JUMP JUMPDEST PUSH1 0x40 MLOAD PUSH3 0x461BCD PUSH1 0xE5 SHL DUP2 MSTORE PUSH1 0x20 PUSH1 0x4 DUP3 ADD MSTORE PUSH1 0x2 PUSH1 0x24 DUP3 ADD MSTORE PUSH2 0x5433 PUSH1 0xF0 SHL PUSH1 0x44 DUP3 ADD MSTORE PUSH1 0x64 SWAP1 REVERT JUMPDEST SWAP1 POP PUSH1 0x20 DUP2 RETURNDATASIZE PUSH1 0x20 GT PUSH2 0x67DE JUMPI JUMPDEST DUP2 PUSH2 0x67C7 PUSH1 0x20 SWAP4 DUP4 PUSH2 0x5AED JUMP JUMPDEST DUP2 ADD SUB SLT PUSH2 0x5DD JUMPI PUSH2 0x67D8 SWAP1 PUSH2 0x5B23 JUMP JUMPDEST PUSH0 PUSH2 0x6753 JUMP JUMPDEST RETURNDATASIZE SWAP2 POP PUSH2 0x67BA JUMP JUMPDEST DUP3 ISZERO PUSH2 0x66A8 JUMPI PUSH32 0xD1398BEE19313D6BF672CCB116E51F4A1A947E91C757907F51FBB5B5E56C698F PUSH1 0x20 PUSH0 SWAP3 PUSH1 0x1 DUP1 PUSH1 0xA0 SHL SUB AND SWAP4 DUP5 DUP5 MSTORE PUSH1 0x1 DUP3 MSTORE PUSH1 0x40 DUP5 KECCAK256 PUSH1 0x1 DUP1 PUSH1 0xA0 SHL SUB DUP3 AND DUP6 MSTORE DUP3 MSTORE PUSH1 0x40 DUP5 KECCAK256 PUSH2 0x6689 DUP8 DUP3 SLOAD PUSH2 0x601B JUMP JUMPDEST PUSH0 SLOAD PUSH1 0x1 PUSH1 0x1 PUSH1 0xA0 SHL SUB AND CALLER SUB PUSH2 0x6854 JUMPI JUMP JUMPDEST PUSH4 0x118CDAA7 PUSH1 0xE0 SHL PUSH0 MSTORE CALLER PUSH1 0x4 MSTORE PUSH1 0x24 PUSH0 REVERT INVALID DUP15 LT 0xD 0xC3 CALLER MCOPY MULMOD 0xB0 DUP3 0xC8 NUMBER TIMESTAMP PUSH0 PUSH18 0xEA8AE9D91AE5BB385EF4B41D0D2C6AA87214 DUP11 RETURN SWAP9 EQ DUP3 PUSH14 0x4542F7FE66E6FA6AC2AC59BFC822 SGT SWAP5 CREATE2 BYTE COINBASE 0xDB 0xA5 0xC5 0x4D 0xBA EXP 0xC9 0xAF 0xBE CALLER PUSH24 0x83658B293F1566E1790BFAB9858B8CF08DE944CA3CD013D4 0x21 XOR DUP8 0xB8 ADDMOD PUSH13 0x61B89EF5FCDB14C243B643069C EXTCODECOPY PUSH11 0x84765B27F2A696B875DDDF SUB BYTE 0xFB 0x4D SWAP14 PC XOR 0xEC CALLDATASIZE 0xD6 0xE8 MCOPY DUP11 ADDRESS CALLVALUE PUSH16 0x5FE41B65CC50CEA2B868AE94F293D113 0xC9 0x2A SGT CODESIZE 0xA6 0xAF NOT 0x23 DUP1 0xB5 0xBA BALANCE BYTE 0xC0 SUB CREATE2 PUSH31 0xFA2BE0717F0E466318C7E9CF546C4937A03D94F05D33634B730E763D232B48 0x2C 0xF8 CALLDATALOAD LOG4 BASEFEE XOR CALLDATALOAD 0xF6 0x2D EXP MULMOD PUSH20 0xB42018A8EAD4F047DCBC1C05240F31FF3AD067EF 0x1E 0xE3 TLOAD 0xE4 SWAP10 PUSH24 0x62752E3A095284754544F4C709D79F039F6754F2D286001D PUSH12 0xB50C1B3CC185B309E82F6307 PUSH31 0x29516A6A87E8E99DA2646970667358221220F33E5CEFEF3DC4E8581670616A 0xD3 0xEF SWAP11 EXTCODECOPY MOD LT 0xE2 BLOCKHASH MUL PUSH21 0x2D75F088E9CE80360164736F6C634300081C003300 "
		},
		"gasEstimates": {
			"creation": {
				"codeDepositCost": "5413800",
				"executionCost": "infinite",
				"totalCost": "infinite"
			},
			"external": {
				"addDepositByCounterparty(bytes32,uint256)": "infinite",
				"addDepositByInitiator(bytes32,uint256)": "infinite",
				"balanceOf(address)": "3020",
				"balanceOf(address,address)": "3769",
				"balances(address,address)": "3549",
				"cancelDeal(bytes32)": "infinite",
				"commissionRecipient()": "2340",
				"completeDeal(bytes32)": "infinite",
				"contractEnabled()": "2601",
				"counterpartyAcceptSidedDeal(bytes32)": "72661",
				"createDeal(address,address,uint256,uint256,address,uint256,uint8)": "infinite",
				"createDealEditExpiration(bytes32,uint256,uint8)": "infinite",
				"createEditDealMediatorRequest(bytes32,address)": "131659",
				"createSidedDeal(address,address,uint256,uint256,uint256,uint256,address,address,uint256,uint8)": "infinite",
				"deals(bytes32)": "28812",
				"deposit(address,uint256)": "infinite",
				"depositCommissionPercent()": "2957",
				"disableContract()": "29369",
				"editDealExpirationRequests(uint256)": "7746",
				"editDealMediatorRequests(uint256)": "5034",
				"enableContract()": "28941",
				"executeActionsAfterExpiration(bytes32)": "infinite",
				"getAmountToDepositViaComission(uint256)": "infinite",
				"getDeal(bytes32)": "infinite",
				"getEditDealExpiratation(uint256)": "infinite",
				"getEditDealMediator(uint256)": "infinite",
				"givebackToConunterparty(bytes32,uint256)": "infinite",
				"givebackToInitiator(bytes32,uint256)": "infinite",
				"madeDealTwoSided(bytes32,address,uint256,uint256)": "infinite",
				"owner()": "3000",
				"payUpAddDepositByCounterparty(bytes32,uint256)": "infinite",
				"payUpAddDepositByInitiator(bytes32,uint256)": "infinite",
				"payUpCounterpartyAcceptSidedDeal(bytes32)": "77466",
				"payUpCreateDeal(address,address,uint256,uint256,address,uint256,uint8)": "infinite",
				"payUpCreateSidedDeal(address,address,uint256,uint256,uint256,uint256,address,address,uint256,uint8)": "infinite",
				"payUpMadeDealTwoSided(bytes32,address,uint256,uint256)": "infinite",
				"rejectSidedDeal(bytes32)": "infinite",
				"renounceOwnership()": "28626",
				"setDepositCommission(uint256,address)": "50277",
				"signDealEditExpiration(uint256,bool)": "infinite",
				"signEditDealMediatorRequest(uint256,bool)": "94376",
				"totalCompletedDeals()": "3353",
				"totalDeals()": "3023",
				"totalEditDealMediatorRequests()": "2272",
				"totalEditExpirationRequests()": "3045",
				"transfer(address,address,uint256)": "54572",
				"transferOwnership(address)": "29330",
				"transferToCounterparty(bytes32,uint256)": "infinite",
				"transferToInitiator(bytes32,uint256)": "infinite",
				"withdraw(address,uint256)": "infinite",
				"withdrawCancelDeal(bytes32)": "infinite",
				"withdrawCompleteDeal(bytes32)": "infinite",
				"withdrawExecuteActionsAfterExpiration(bytes32)": "infinite",
				"withdrawGivebackToConunterparty(bytes32,uint256)": "infinite",
				"withdrawGivebackToInitiator(bytes32,uint256)": "infinite",
				"withdrawRejectSidedDeal(bytes32)": "infinite",
				"withdrawTransferToCounterparty(bytes32,uint256)": "infinite",
				"withdrawTransferToInitiator(bytes32,uint256)": "infinite"
			}
		},
		"methodIdentifiers": {
			"addDepositByCounterparty(bytes32,uint256)": "c99b8965",
			"addDepositByInitiator(bytes32,uint256)": "b4a99ccb",
			"balanceOf(address)": "70a08231",
			"balanceOf(address,address)": "f7888aec",
			"balances(address,address)": "c23f001f",
			"cancelDeal(bytes32)": "faa86b4a",
			"commissionRecipient()": "06fd154a",
			"completeDeal(bytes32)": "51b7d535",
			"contractEnabled()": "41b3a0d9",
			"counterpartyAcceptSidedDeal(bytes32)": "4187129c",
			"createDeal(address,address,uint256,uint256,address,uint256,uint8)": "17b52b50",
			"createDealEditExpiration(bytes32,uint256,uint8)": "1273c165",
			"createEditDealMediatorRequest(bytes32,address)": "cfaaf235",
			"createSidedDeal(address,address,uint256,uint256,uint256,uint256,address,address,uint256,uint8)": "007e8bd3",
			"deals(bytes32)": "81cd872a",
			"deposit(address,uint256)": "47e7ef24",
			"depositCommissionPercent()": "899a3ffd",
			"disableContract()": "894ba833",
			"editDealExpirationRequests(uint256)": "c15a25bf",
			"editDealMediatorRequests(uint256)": "53a78000",
			"enableContract()": "367edd32",
			"executeActionsAfterExpiration(bytes32)": "706b14f5",
			"getAmountToDepositViaComission(uint256)": "39b3edb0",
			"getDeal(bytes32)": "51a6fad5",
			"getEditDealExpiratation(uint256)": "eb457329",
			"getEditDealMediator(uint256)": "ba343f6d",
			"givebackToConunterparty(bytes32,uint256)": "114aeacc",
			"givebackToInitiator(bytes32,uint256)": "5040125b",
			"madeDealTwoSided(bytes32,address,uint256,uint256)": "63adb66f",
			"owner()": "8da5cb5b",
			"payUpAddDepositByCounterparty(bytes32,uint256)": "a7170106",
			"payUpAddDepositByInitiator(bytes32,uint256)": "fbb405db",
			"payUpCounterpartyAcceptSidedDeal(bytes32)": "bb06c1a4",
			"payUpCreateDeal(address,address,uint256,uint256,address,uint256,uint8)": "28d5a050",
			"payUpCreateSidedDeal(address,address,uint256,uint256,uint256,uint256,address,address,uint256,uint8)": "cfadf6c7",
			"payUpMadeDealTwoSided(bytes32,address,uint256,uint256)": "0934da22",
			"rejectSidedDeal(bytes32)": "8deea5fb",
			"renounceOwnership()": "715018a6",
			"setDepositCommission(uint256,address)": "15f8a314",
			"signDealEditExpiration(uint256,bool)": "71ae8bcd",
			"signEditDealMediatorRequest(uint256,bool)": "619c457e",
			"totalCompletedDeals()": "e08560a4",
			"totalDeals()": "966d1f1d",
			"totalEditDealMediatorRequests()": "02927459",
			"totalEditExpirationRequests()": "9974f376",
			"transfer(address,address,uint256)": "beabacc8",
			"transferOwnership(address)": "f2fde38b",
			"transferToCounterparty(bytes32,uint256)": "3f3e8212",
			"transferToInitiator(bytes32,uint256)": "7165e542",
			"withdraw(address,uint256)": "f3fef3a3",
			"withdrawCancelDeal(bytes32)": "b7dc14fe",
			"withdrawCompleteDeal(bytes32)": "30e97ae1",
			"withdrawExecuteActionsAfterExpiration(bytes32)": "044a6da1",
			"withdrawGivebackToConunterparty(bytes32,uint256)": "a4f60b16",
			"withdrawGivebackToInitiator(bytes32,uint256)": "f2d5ec3d",
			"withdrawRejectSidedDeal(bytes32)": "80ccb070",
			"withdrawTransferToCounterparty(bytes32,uint256)": "4dff0036",
			"withdrawTransferToInitiator(bytes32,uint256)": "d747b811"
		}
	},
	"abi": [
		{
			"inputs": [
				{
					"internalType": "uint256",
					"name": "_depositCommissionPercent",
					"type": "uint256"
				},
				{
					"internalType": "address",
					"name": "_commissionRecipient",
					"type": "address"
				}
			],
			"stateMutability": "nonpayable",
			"type": "constructor"
		},
		{
			"inputs": [
				{
					"internalType": "address",
					"name": "owner",
					"type": "address"
				}
			],
			"name": "OwnableInvalidOwner",
			"type": "error"
		},
		{
			"inputs": [
				{
					"internalType": "address",
					"name": "account",
					"type": "address"
				}
			],
			"name": "OwnableUnauthorizedAccount",
			"type": "error"
		},
		{
			"anonymous": false,
			"inputs": [
				{
					"indexed": true,
					"internalType": "bytes32",
					"name": "id",
					"type": "bytes32"
				},
				{
					"indexed": true,
					"internalType": "address",
					"name": "initiator",
					"type": "address"
				},
				{
					"indexed": true,
					"internalType": "address",
					"name": "counterparty",
					"type": "address"
				},
				{
					"indexed": false,
					"internalType": "address",
					"name": "mediator",
					"type": "address"
				},
				{
					"indexed": false,
					"internalType": "uint256",
					"name": "amount",
					"type": "uint256"
				}
			],
			"name": "AddDepositByCounterparty",
			"type": "event"
		},
		{
			"anonymous": false,
			"inputs": [
				{
					"indexed": true,
					"internalType": "bytes32",
					"name": "id",
					"type": "bytes32"
				},
				{
					"indexed": true,
					"internalType": "address",
					"name": "initiator",
					"type": "address"
				},
				{
					"indexed": true,
					"internalType": "address",
					"name": "counterparty",
					"type": "address"
				},
				{
					"indexed": false,
					"internalType": "address",
					"name": "mediator",
					"type": "address"
				},
				{
					"indexed": false,
					"internalType": "uint256",
					"name": "amount",
					"type": "uint256"
				}
			],
			"name": "AddDepositByInitiator",
			"type": "event"
		},
		{
			"anonymous": false,
			"inputs": [
				{
					"indexed": false,
					"internalType": "uint256",
					"name": "newCommissionPercent",
					"type": "uint256"
				},
				{
					"indexed": false,
					"internalType": "address",
					"name": "newCommissionRecipient",
					"type": "address"
				}
			],
			"name": "CommissionChanged",
			"type": "event"
		},
		{
			"anonymous": false,
			"inputs": [
				{
					"indexed": true,
					"internalType": "address",
					"name": "by",
					"type": "address"
				}
			],
			"name": "ContractDisabled",
			"type": "event"
		},
		{
			"anonymous": false,
			"inputs": [
				{
					"indexed": true,
					"internalType": "address",
					"name": "by",
					"type": "address"
				}
			],
			"name": "ContractEnabled",
			"type": "event"
		},
		{
			"anonymous": false,
			"inputs": [
				{
					"indexed": false,
					"internalType": "bool",
					"name": "status",
					"type": "bool"
				}
			],
			"name": "ContractStatusChanged",
			"type": "event"
		},
		{
			"anonymous": false,
			"inputs": [
				{
					"indexed": true,
					"internalType": "bytes32",
					"name": "id",
					"type": "bytes32"
				},
				{
					"indexed": true,
					"internalType": "address",
					"name": "initiator",
					"type": "address"
				},
				{
					"indexed": true,
					"internalType": "address",
					"name": "counterparty",
					"type": "address"
				},
				{
					"indexed": false,
					"internalType": "address",
					"name": "mediator",
					"type": "address"
				}
			],
			"name": "DealBecomeTwoSided",
			"type": "event"
		},
		{
			"anonymous": false,
			"inputs": [
				{
					"indexed": true,
					"internalType": "bytes32",
					"name": "id",
					"type": "bytes32"
				},
				{
					"indexed": true,
					"internalType": "address",
					"name": "initiator",
					"type": "address"
				},
				{
					"indexed": true,
					"internalType": "address",
					"name": "counterparty",
					"type": "address"
				},
				{
					"indexed": false,
					"internalType": "address",
					"name": "mediator",
					"type": "address"
				},
				{
					"indexed": false,
					"internalType": "address",
					"name": "sender",
					"type": "address"
				}
			],
			"name": "DealCanceled",
			"type": "event"
		},
		{
			"anonymous": false,
			"inputs": [
				{
					"indexed": true,
					"internalType": "bytes32",
					"name": "id",
					"type": "bytes32"
				},
				{
					"indexed": true,
					"internalType": "address",
					"name": "initiator",
					"type": "address"
				},
				{
					"indexed": true,
					"internalType": "address",
					"name": "counterparty",
					"type": "address"
				},
				{
					"indexed": false,
					"internalType": "address",
					"name": "mediator",
					"type": "address"
				},
				{
					"indexed": false,
					"internalType": "address",
					"name": "sender",
					"type": "address"
				}
			],
			"name": "DealCompited",
			"type": "event"
		},
		{
			"anonymous": false,
			"inputs": [
				{
					"indexed": true,
					"internalType": "bytes32",
					"name": "id",
					"type": "bytes32"
				},
				{
					"indexed": true,
					"internalType": "address",
					"name": "initiator",
					"type": "address"
				},
				{
					"indexed": true,
					"internalType": "address",
					"name": "counterparty",
					"type": "address"
				},
				{
					"indexed": false,
					"internalType": "address",
					"name": "mediator",
					"type": "address"
				}
			],
			"name": "DealCreated",
			"type": "event"
		},
		{
			"anonymous": false,
			"inputs": [
				{
					"indexed": true,
					"internalType": "bytes32",
					"name": "id",
					"type": "bytes32"
				},
				{
					"indexed": true,
					"internalType": "address",
					"name": "initiator",
					"type": "address"
				},
				{
					"indexed": true,
					"internalType": "address",
					"name": "counterparty",
					"type": "address"
				},
				{
					"indexed": false,
					"internalType": "address",
					"name": "mediator",
					"type": "address"
				}
			],
			"name": "DealRequestCreated",
			"type": "event"
		},
		{
			"anonymous": false,
			"inputs": [
				{
					"indexed": true,
					"internalType": "address",
					"name": "user",
					"type": "address"
				},
				{
					"indexed": true,
					"internalType": "address",
					"name": "token",
					"type": "address"
				},
				{
					"indexed": false,
					"internalType": "uint256",
					"name": "amount",
					"type": "uint256"
				},
				{
					"indexed": false,
					"internalType": "uint256",
					"name": "commission",
					"type": "uint256"
				}
			],
			"name": "Deposit",
			"type": "event"
		},
		{
			"anonymous": false,
			"inputs": [
				{
					"indexed": true,
					"internalType": "bytes32",
					"name": "id",
					"type": "bytes32"
				},
				{
					"indexed": true,
					"internalType": "address",
					"name": "initiator",
					"type": "address"
				},
				{
					"indexed": true,
					"internalType": "address",
					"name": "counterparty",
					"type": "address"
				},
				{
					"indexed": false,
					"internalType": "address",
					"name": "mediator",
					"type": "address"
				},
				{
					"indexed": false,
					"internalType": "address",
					"name": "sender",
					"type": "address"
				},
				{
					"indexed": false,
					"internalType": "uint256",
					"name": "requestId",
					"type": "uint256"
				}
			],
			"name": "EditDealExpirationRequestCreated",
			"type": "event"
		},
		{
			"anonymous": false,
			"inputs": [
				{
					"indexed": true,
					"internalType": "uint256",
					"name": "id",
					"type": "uint256"
				},
				{
					"indexed": false,
					"internalType": "address",
					"name": "sender",
					"type": "address"
				},
				{
					"indexed": false,
					"internalType": "bool",
					"name": "signedInititor",
					"type": "bool"
				},
				{
					"indexed": false,
					"internalType": "bool",
					"name": "signedCounterparty",
					"type": "bool"
				},
				{
					"indexed": false,
					"internalType": "bool",
					"name": "signedMediator",
					"type": "bool"
				},
				{
					"indexed": false,
					"internalType": "bool",
					"name": "rejected",
					"type": "bool"
				}
			],
			"name": "EditDealExpirationRequestUpdated",
			"type": "event"
		},
		{
			"anonymous": false,
			"inputs": [
				{
					"indexed": true,
					"internalType": "uint256",
					"name": "id",
					"type": "uint256"
				},
				{
					"indexed": true,
					"internalType": "bytes32",
					"name": "dealId",
					"type": "bytes32"
				},
				{
					"indexed": true,
					"internalType": "address",
					"name": "newMediator",
					"type": "address"
				},
				{
					"indexed": false,
					"internalType": "address",
					"name": "sender",
					"type": "address"
				}
			],
			"name": "EditDealMediatorRequestCreated",
			"type": "event"
		},
		{
			"anonymous": false,
			"inputs": [
				{
					"indexed": true,
					"internalType": "uint256",
					"name": "reid",
					"type": "uint256"
				},
				{
					"indexed": false,
					"internalType": "address",
					"name": "sender",
					"type": "address"
				},
				{
					"indexed": false,
					"internalType": "bool",
					"name": "signedByInitiator",
					"type": "bool"
				},
				{
					"indexed": false,
					"internalType": "bool",
					"name": "signedByCounterparty",
					"type": "bool"
				},
				{
					"indexed": false,
					"internalType": "bool",
					"name": "rejected",
					"type": "bool"
				}
			],
			"name": "EditDealMediatorRequestUpdated",
			"type": "event"
		},
		{
			"anonymous": false,
			"inputs": [
				{
					"indexed": true,
					"internalType": "uint256",
					"name": "Id",
					"type": "uint256"
				},
				{
					"indexed": true,
					"internalType": "bytes32",
					"name": "dealId",
					"type": "bytes32"
				},
				{
					"indexed": false,
					"internalType": "address",
					"name": "initiator",
					"type": "address"
				},
				{
					"indexed": false,
					"internalType": "address",
					"name": "counterparty",
					"type": "address"
				},
				{
					"indexed": false,
					"internalType": "address",
					"name": "mediator",
					"type": "address"
				},
				{
					"indexed": false,
					"internalType": "address",
					"name": "sender",
					"type": "address"
				},
				{
					"indexed": false,
					"internalType": "uint256",
					"name": "newExpirationDate",
					"type": "uint256"
				},
				{
					"indexed": false,
					"internalType": "enum MediatorAction",
					"name": "mediatorActionOnExpiration",
					"type": "uint8"
				}
			],
			"name": "EditedDealExpiration",
			"type": "event"
		},
		{
			"anonymous": false,
			"inputs": [
				{
					"indexed": true,
					"internalType": "bytes32",
					"name": "id",
					"type": "bytes32"
				},
				{
					"indexed": true,
					"internalType": "address",
					"name": "initiator",
					"type": "address"
				},
				{
					"indexed": true,
					"internalType": "address",
					"name": "counterparty",
					"type": "address"
				},
				{
					"indexed": false,
					"internalType": "address",
					"name": "mediator",
					"type": "address"
				},
				{
					"indexed": false,
					"internalType": "address",
					"name": "sender",
					"type": "address"
				},
				{
					"indexed": false,
					"internalType": "uint256",
					"name": "amount",
					"type": "uint256"
				},
				{
					"indexed": false,
					"internalType": "uint256",
					"name": "fee",
					"type": "uint256"
				}
			],
			"name": "GivebackToCounterparty",
			"type": "event"
		},
		{
			"anonymous": false,
			"inputs": [
				{
					"indexed": true,
					"internalType": "bytes32",
					"name": "id",
					"type": "bytes32"
				},
				{
					"indexed": true,
					"internalType": "address",
					"name": "initiator",
					"type": "address"
				},
				{
					"indexed": true,
					"internalType": "address",
					"name": "counterparty",
					"type": "address"
				},
				{
					"indexed": false,
					"internalType": "address",
					"name": "mediator",
					"type": "address"
				},
				{
					"indexed": false,
					"internalType": "address",
					"name": "sender",
					"type": "address"
				},
				{
					"indexed": false,
					"internalType": "uint256",
					"name": "amount",
					"type": "uint256"
				},
				{
					"indexed": false,
					"internalType": "uint256",
					"name": "fee",
					"type": "uint256"
				}
			],
			"name": "GivebackToInitiator",
			"type": "event"
		},
		{
			"anonymous": false,
			"inputs": [
				{
					"indexed": true,
					"internalType": "address",
					"name": "mediator",
					"type": "address"
				},
				{
					"indexed": false,
					"internalType": "bytes32",
					"name": "dealId",
					"type": "bytes32"
				}
			],
			"name": "JoinedToDealAsMediator",
			"type": "event"
		},
		{
			"anonymous": false,
			"inputs": [
				{
					"indexed": true,
					"internalType": "address",
					"name": "previousOwner",
					"type": "address"
				},
				{
					"indexed": true,
					"internalType": "address",
					"name": "newOwner",
					"type": "address"
				}
			],
			"name": "OwnershipTransferred",
			"type": "event"
		},
		{
			"anonymous": false,
			"inputs": [
				{
					"indexed": true,
					"internalType": "address",
					"name": "from",
					"type": "address"
				},
				{
					"indexed": true,
					"internalType": "address",
					"name": "to",
					"type": "address"
				},
				{
					"indexed": true,
					"internalType": "address",
					"name": "token",
					"type": "address"
				},
				{
					"indexed": false,
					"internalType": "uint256",
					"name": "value",
					"type": "uint256"
				}
			],
			"name": "Transfer",
			"type": "event"
		},
		{
			"anonymous": false,
			"inputs": [
				{
					"indexed": true,
					"internalType": "bytes32",
					"name": "id",
					"type": "bytes32"
				},
				{
					"indexed": true,
					"internalType": "address",
					"name": "initiator",
					"type": "address"
				},
				{
					"indexed": true,
					"internalType": "address",
					"name": "counterparty",
					"type": "address"
				},
				{
					"indexed": false,
					"internalType": "address",
					"name": "mediator",
					"type": "address"
				},
				{
					"indexed": false,
					"internalType": "address",
					"name": "sender",
					"type": "address"
				},
				{
					"indexed": false,
					"internalType": "uint256",
					"name": "amount",
					"type": "uint256"
				},
				{
					"indexed": false,
					"internalType": "uint256",
					"name": "fee",
					"type": "uint256"
				}
			],
			"name": "TransferToCounterparty",
			"type": "event"
		},
		{
			"anonymous": false,
			"inputs": [
				{
					"indexed": true,
					"internalType": "bytes32",
					"name": "id",
					"type": "bytes32"
				},
				{
					"indexed": true,
					"internalType": "address",
					"name": "initiator",
					"type": "address"
				},
				{
					"indexed": true,
					"internalType": "address",
					"name": "counterparty",
					"type": "address"
				},
				{
					"indexed": false,
					"internalType": "address",
					"name": "mediator",
					"type": "address"
				},
				{
					"indexed": false,
					"internalType": "address",
					"name": "sender",
					"type": "address"
				},
				{
					"indexed": false,
					"internalType": "address",
					"name": "target",
					"type": "address"
				},
				{
					"indexed": false,
					"internalType": "uint256",
					"name": "amountInitiator",
					"type": "uint256"
				},
				{
					"indexed": false,
					"internalType": "uint256",
					"name": "amountCounterparty",
					"type": "uint256"
				},
				{
					"indexed": false,
					"internalType": "uint256",
					"name": "feeInitiator",
					"type": "uint256"
				},
				{
					"indexed": false,
					"internalType": "uint256",
					"name": "feeCounterparty",
					"type": "uint256"
				}
			],
			"name": "TransferToFromDeal",
			"type": "event"
		},
		{
			"anonymous": false,
			"inputs": [
				{
					"indexed": true,
					"internalType": "bytes32",
					"name": "id",
					"type": "bytes32"
				},
				{
					"indexed": true,
					"internalType": "address",
					"name": "initiator",
					"type": "address"
				},
				{
					"indexed": true,
					"internalType": "address",
					"name": "counterparty",
					"type": "address"
				},
				{
					"indexed": false,
					"internalType": "address",
					"name": "mediator",
					"type": "address"
				},
				{
					"indexed": false,
					"internalType": "address",
					"name": "sender",
					"type": "address"
				},
				{
					"indexed": false,
					"internalType": "uint256",
					"name": "amount",
					"type": "uint256"
				},
				{
					"indexed": false,
					"internalType": "uint256",
					"name": "fee",
					"type": "uint256"
				}
			],
			"name": "TransferToInitiator",
			"type": "event"
		},
		{
			"anonymous": false,
			"inputs": [
				{
					"indexed": true,
					"internalType": "address",
					"name": "user",
					"type": "address"
				},
				{
					"indexed": true,
					"internalType": "address",
					"name": "token",
					"type": "address"
				},
				{
					"indexed": false,
					"internalType": "uint256",
					"name": "amount",
					"type": "uint256"
				}
			],
			"name": "Withdrawal",
			"type": "event"
		},
		{
			"inputs": [
				{
					"internalType": "bytes32",
					"name": "dealId",
					"type": "bytes32"
				},
				{
					"internalType": "uint256",
					"name": "amount",
					"type": "uint256"
				}
			],
			"name": "addDepositByCounterparty",
			"outputs": [
				{
					"internalType": "bool",
					"name": "",
					"type": "bool"
				}
			],
			"stateMutability": "nonpayable",
			"type": "function"
		},
		{
			"inputs": [
				{
					"internalType": "bytes32",
					"name": "dealId",
					"type": "bytes32"
				},
				{
					"internalType": "uint256",
					"name": "amount",
					"type": "uint256"
				}
			],
			"name": "addDepositByInitiator",
			"outputs": [
				{
					"internalType": "bool",
					"name": "",
					"type": "bool"
				}
			],
			"stateMutability": "nonpayable",
			"type": "function"
		},
		{
			"inputs": [
				{
					"internalType": "address",
					"name": "user",
					"type": "address"
				}
			],
			"name": "balanceOf",
			"outputs": [
				{
					"internalType": "uint256",
					"name": "",
					"type": "uint256"
				}
			],
			"stateMutability": "view",
			"type": "function"
		},
		{
			"inputs": [
				{
					"internalType": "address",
					"name": "user",
					"type": "address"
				},
				{
					"internalType": "address",
					"name": "token",
					"type": "address"
				}
			],
			"name": "balanceOf",
			"outputs": [
				{
					"internalType": "uint256",
					"name": "",
					"type": "uint256"
				}
			],
			"stateMutability": "view",
			"type": "function"
		},
		{
			"inputs": [
				{
					"internalType": "address",
					"name": "",
					"type": "address"
				},
				{
					"internalType": "address",
					"name": "",
					"type": "address"
				}
			],
			"name": "balances",
			"outputs": [
				{
					"internalType": "uint256",
					"name": "",
					"type": "uint256"
				}
			],
			"stateMutability": "view",
			"type": "function"
		},
		{
			"inputs": [
				{
					"internalType": "bytes32",
					"name": "dealId",
					"type": "bytes32"
				}
			],
			"name": "cancelDeal",
			"outputs": [
				{
					"internalType": "bool",
					"name": "",
					"type": "bool"
				}
			],
			"stateMutability": "nonpayable",
			"type": "function"
		},
		{
			"inputs": [],
			"name": "commissionRecipient",
			"outputs": [
				{
					"internalType": "address",
					"name": "",
					"type": "address"
				}
			],
			"stateMutability": "view",
			"type": "function"
		},
		{
			"inputs": [
				{
					"internalType": "bytes32",
					"name": "dealId",
					"type": "bytes32"
				}
			],
			"name": "completeDeal",
			"outputs": [
				{
					"internalType": "bool",
					"name": "",
					"type": "bool"
				}
			],
			"stateMutability": "nonpayable",
			"type": "function"
		},
		{
			"inputs": [],
			"name": "contractEnabled",
			"outputs": [
				{
					"internalType": "bool",
					"name": "",
					"type": "bool"
				}
			],
			"stateMutability": "view",
			"type": "function"
		},
		{
			"inputs": [
				{
					"internalType": "bytes32",
					"name": "dealId",
					"type": "bytes32"
				}
			],
			"name": "counterpartyAcceptSidedDeal",
			"outputs": [
				{
					"internalType": "bool",
					"name": "",
					"type": "bool"
				}
			],
			"stateMutability": "nonpayable",
			"type": "function"
		},
		{
			"inputs": [
				{
					"internalType": "address payable",
					"name": "counterparty",
					"type": "address"
				},
				{
					"internalType": "address payable",
					"name": "mediator",
					"type": "address"
				},
				{
					"internalType": "uint256",
					"name": "amount",
					"type": "uint256"
				},
				{
					"internalType": "uint256",
					"name": "PRCMediatorFee",
					"type": "uint256"
				},
				{
					"internalType": "address",
					"name": "tokenAddress",
					"type": "address"
				},
				{
					"internalType": "uint256",
					"name": "expirationDate",
					"type": "uint256"
				},
				{
					"internalType": "enum MediatorAction",
					"name": "mediatorActionOnExpiration",
					"type": "uint8"
				}
			],
			"name": "createDeal",
			"outputs": [
				{
					"internalType": "bytes32",
					"name": "",
					"type": "bytes32"
				}
			],
			"stateMutability": "nonpayable",
			"type": "function"
		},
		{
			"inputs": [
				{
					"internalType": "bytes32",
					"name": "dealId",
					"type": "bytes32"
				},
				{
					"internalType": "uint256",
					"name": "newExpirationDate",
					"type": "uint256"
				},
				{
					"internalType": "enum MediatorAction",
					"name": "newMediatorActionOnExpiration",
					"type": "uint8"
				}
			],
			"name": "createDealEditExpiration",
			"outputs": [
				{
					"internalType": "uint256",
					"name": "",
					"type": "uint256"
				}
			],
			"stateMutability": "nonpayable",
			"type": "function"
		},
		{
			"inputs": [
				{
					"internalType": "bytes32",
					"name": "dealId",
					"type": "bytes32"
				},
				{
					"internalType": "address payable",
					"name": "newMediator",
					"type": "address"
				}
			],
			"name": "createEditDealMediatorRequest",
			"outputs": [
				{
					"internalType": "uint256",
					"name": "",
					"type": "uint256"
				}
			],
			"stateMutability": "nonpayable",
			"type": "function"
		},
		{
			"inputs": [
				{
					"internalType": "address payable",
					"name": "counterparty",
					"type": "address"
				},
				{
					"internalType": "address payable",
					"name": "mediator",
					"type": "address"
				},
				{
					"internalType": "uint256",
					"name": "initiatorCreateAmount",
					"type": "uint256"
				},
				{
					"internalType": "uint256",
					"name": "counterpartyCreateAmount",
					"type": "uint256"
				},
				{
					"internalType": "uint256",
					"name": "PRCMediatorFeeInititor",
					"type": "uint256"
				},
				{
					"internalType": "uint256",
					"name": "PRCMediatorFeeCounterparty",
					"type": "uint256"
				},
				{
					"internalType": "address",
					"name": "initiatorTokenAddress",
					"type": "address"
				},
				{
					"internalType": "address",
					"name": "counterpartyTokenAddress",
					"type": "address"
				},
				{
					"internalType": "uint256",
					"name": "expirationDate",
					"type": "uint256"
				},
				{
					"internalType": "enum MediatorAction",
					"name": "mediatorActionOnExpiration",
					"type": "uint8"
				}
			],
			"name": "createSidedDeal",
			"outputs": [
				{
					"internalType": "bytes32",
					"name": "",
					"type": "bytes32"
				}
			],
			"stateMutability": "nonpayable",
			"type": "function"
		},
		{
			"inputs": [
				{
					"internalType": "bytes32",
					"name": "",
					"type": "bytes32"
				}
			],
			"name": "deals",
			"outputs": [
				{
					"internalType": "address payable",
					"name": "initiator",
					"type": "address"
				},
				{
					"internalType": "address payable",
					"name": "counterparty",
					"type": "address"
				},
				{
					"internalType": "address payable",
					"name": "mediator",
					"type": "address"
				},
				{
					"internalType": "bool",
					"name": "isCompleted",
					"type": "bool"
				},
				{
					"internalType": "bool",
					"name": "isCanceled",
					"type": "bool"
				},
				{
					"internalType": "bool",
					"name": "isTwoSided",
					"type": "bool"
				},
				{
					"internalType": "bool",
					"name": "isSignedByCounterparty",
					"type": "bool"
				},
				{
					"internalType": "uint256",
					"name": "initiatorCreateAmount",
					"type": "uint256"
				},
				{
					"internalType": "uint256",
					"name": "counterpartyCreateAmount",
					"type": "uint256"
				},
				{
					"internalType": "uint256",
					"name": "initiatorCurrentAmount",
					"type": "uint256"
				},
				{
					"internalType": "uint256",
					"name": "counterpartyCurrentAmount",
					"type": "uint256"
				},
				{
					"internalType": "uint256",
					"name": "PRC_InitatorMediatorFee",
					"type": "uint256"
				},
				{
					"internalType": "uint256",
					"name": "PRC_CounterpartyMediatorFee",
					"type": "uint256"
				},
				{
					"internalType": "address",
					"name": "initiatorTokenAddress",
					"type": "address"
				},
				{
					"internalType": "address",
					"name": "counterpartyTokenAddress",
					"type": "address"
				},
				{
					"internalType": "uint256",
					"name": "expirationDate",
					"type": "uint256"
				},
				{
					"internalType": "enum MediatorAction",
					"name": "mediatorActionOnExpiration",
					"type": "uint8"
				}
			],
			"stateMutability": "view",
			"type": "function"
		},
		{
			"inputs": [
				{
					"internalType": "address",
					"name": "token",
					"type": "address"
				},
				{
					"internalType": "uint256",
					"name": "amount",
					"type": "uint256"
				}
			],
			"name": "deposit",
			"outputs": [],
			"stateMutability": "payable",
			"type": "function"
		},
		{
			"inputs": [],
			"name": "depositCommissionPercent",
			"outputs": [
				{
					"internalType": "uint256",
					"name": "",
					"type": "uint256"
				}
			],
			"stateMutability": "view",
			"type": "function"
		},
		{
			"inputs": [],
			"name": "disableContract",
			"outputs": [],
			"stateMutability": "nonpayable",
			"type": "function"
		},
		{
			"inputs": [
				{
					"internalType": "uint256",
					"name": "",
					"type": "uint256"
				}
			],
			"name": "editDealExpirationRequests",
			"outputs": [
				{
					"internalType": "bytes32",
					"name": "dealId",
					"type": "bytes32"
				},
				{
					"internalType": "uint256",
					"name": "expirationDate",
					"type": "uint256"
				},
				{
					"internalType": "enum MediatorAction",
					"name": "mediatorActionOnExpiration",
					"type": "uint8"
				},
				{
					"internalType": "bool",
					"name": "singedByInitiator",
					"type": "bool"
				},
				{
					"internalType": "bool",
					"name": "signedByCounterparty",
					"type": "bool"
				},
				{
					"internalType": "bool",
					"name": "signedByMediator",
					"type": "bool"
				},
				{
					"internalType": "bool",
					"name": "rejected",
					"type": "bool"
				}
			],
			"stateMutability": "view",
			"type": "function"
		},
		{
			"inputs": [
				{
					"internalType": "uint256",
					"name": "",
					"type": "uint256"
				}
			],
			"name": "editDealMediatorRequests",
			"outputs": [
				{
					"internalType": "bytes32",
					"name": "dealId",
					"type": "bytes32"
				},
				{
					"internalType": "address payable",
					"name": "mediator",
					"type": "address"
				},
				{
					"internalType": "bool",
					"name": "singedByInitiator",
					"type": "bool"
				},
				{
					"internalType": "bool",
					"name": "signedByCounterparty",
					"type": "bool"
				},
				{
					"internalType": "bool",
					"name": "rejected",
					"type": "bool"
				}
			],
			"stateMutability": "view",
			"type": "function"
		},
		{
			"inputs": [],
			"name": "enableContract",
			"outputs": [],
			"stateMutability": "nonpayable",
			"type": "function"
		},
		{
			"inputs": [
				{
					"internalType": "bytes32",
					"name": "dealId",
					"type": "bytes32"
				}
			],
			"name": "executeActionsAfterExpiration",
			"outputs": [
				{
					"internalType": "bool",
					"name": "",
					"type": "bool"
				}
			],
			"stateMutability": "nonpayable",
			"type": "function"
		},
		{
			"inputs": [
				{
					"internalType": "uint256",
					"name": "amount",
					"type": "uint256"
				}
			],
			"name": "getAmountToDepositViaComission",
			"outputs": [
				{
					"internalType": "uint256",
					"name": "",
					"type": "uint256"
				}
			],
			"stateMutability": "view",
			"type": "function"
		},
		{
			"inputs": [
				{
					"internalType": "bytes32",
					"name": "dealId",
					"type": "bytes32"
				}
			],
			"name": "getDeal",
			"outputs": [
				{
					"components": [
						{
							"internalType": "address payable",
							"name": "initiator",
							"type": "address"
						},
						{
							"internalType": "address payable",
							"name": "counterparty",
							"type": "address"
						},
						{
							"internalType": "address payable",
							"name": "mediator",
							"type": "address"
						},
						{
							"internalType": "bool",
							"name": "isCompleted",
							"type": "bool"
						},
						{
							"internalType": "bool",
							"name": "isCanceled",
							"type": "bool"
						},
						{
							"internalType": "bool",
							"name": "isTwoSided",
							"type": "bool"
						},
						{
							"internalType": "bool",
							"name": "isSignedByCounterparty",
							"type": "bool"
						},
						{
							"internalType": "uint256",
							"name": "initiatorCreateAmount",
							"type": "uint256"
						},
						{
							"internalType": "uint256",
							"name": "counterpartyCreateAmount",
							"type": "uint256"
						},
						{
							"internalType": "uint256",
							"name": "initiatorCurrentAmount",
							"type": "uint256"
						},
						{
							"internalType": "uint256",
							"name": "counterpartyCurrentAmount",
							"type": "uint256"
						},
						{
							"internalType": "uint256",
							"name": "PRC_InitatorMediatorFee",
							"type": "uint256"
						},
						{
							"internalType": "uint256",
							"name": "PRC_CounterpartyMediatorFee",
							"type": "uint256"
						},
						{
							"internalType": "address",
							"name": "initiatorTokenAddress",
							"type": "address"
						},
						{
							"internalType": "address",
							"name": "counterpartyTokenAddress",
							"type": "address"
						},
						{
							"internalType": "uint256",
							"name": "expirationDate",
							"type": "uint256"
						},
						{
							"internalType": "enum MediatorAction",
							"name": "mediatorActionOnExpiration",
							"type": "uint8"
						}
					],
					"internalType": "struct Deal",
					"name": "",
					"type": "tuple"
				}
			],
			"stateMutability": "view",
			"type": "function"
		},
		{
			"inputs": [
				{
					"internalType": "uint256",
					"name": "id",
					"type": "uint256"
				}
			],
			"name": "getEditDealExpiratation",
			"outputs": [
				{
					"components": [
						{
							"internalType": "bytes32",
							"name": "dealId",
							"type": "bytes32"
						},
						{
							"internalType": "uint256",
							"name": "expirationDate",
							"type": "uint256"
						},
						{
							"internalType": "enum MediatorAction",
							"name": "mediatorActionOnExpiration",
							"type": "uint8"
						},
						{
							"internalType": "bool",
							"name": "singedByInitiator",
							"type": "bool"
						},
						{
							"internalType": "bool",
							"name": "signedByCounterparty",
							"type": "bool"
						},
						{
							"internalType": "bool",
							"name": "signedByMediator",
							"type": "bool"
						},
						{
							"internalType": "bool",
							"name": "rejected",
							"type": "bool"
						}
					],
					"internalType": "struct EditDealExpiratation",
					"name": "",
					"type": "tuple"
				}
			],
			"stateMutability": "view",
			"type": "function"
		},
		{
			"inputs": [
				{
					"internalType": "uint256",
					"name": "id",
					"type": "uint256"
				}
			],
			"name": "getEditDealMediator",
			"outputs": [
				{
					"components": [
						{
							"internalType": "bytes32",
							"name": "dealId",
							"type": "bytes32"
						},
						{
							"internalType": "address payable",
							"name": "mediator",
							"type": "address"
						},
						{
							"internalType": "bool",
							"name": "singedByInitiator",
							"type": "bool"
						},
						{
							"internalType": "bool",
							"name": "signedByCounterparty",
							"type": "bool"
						},
						{
							"internalType": "bool",
							"name": "rejected",
							"type": "bool"
						}
					],
					"internalType": "struct EditDealMediator",
					"name": "",
					"type": "tuple"
				}
			],
			"stateMutability": "view",
			"type": "function"
		},
		{
			"inputs": [
				{
					"internalType": "bytes32",
					"name": "dealId",
					"type": "bytes32"
				},
				{
					"internalType": "uint256",
					"name": "amount",
					"type": "uint256"
				}
			],
			"name": "givebackToConunterparty",
			"outputs": [
				{
					"internalType": "bool",
					"name": "",
					"type": "bool"
				}
			],
			"stateMutability": "nonpayable",
			"type": "function"
		},
		{
			"inputs": [
				{
					"internalType": "bytes32",
					"name": "dealId",
					"type": "bytes32"
				},
				{
					"internalType": "uint256",
					"name": "amount",
					"type": "uint256"
				}
			],
			"name": "givebackToInitiator",
			"outputs": [
				{
					"internalType": "bool",
					"name": "",
					"type": "bool"
				}
			],
			"stateMutability": "nonpayable",
			"type": "function"
		},
		{
			"inputs": [
				{
					"internalType": "bytes32",
					"name": "dealId",
					"type": "bytes32"
				},
				{
					"internalType": "address",
					"name": "tokenAdress",
					"type": "address"
				},
				{
					"internalType": "uint256",
					"name": "amount",
					"type": "uint256"
				},
				{
					"internalType": "uint256",
					"name": "PRC_mediatorFee",
					"type": "uint256"
				}
			],
			"name": "madeDealTwoSided",
			"outputs": [
				{
					"internalType": "bool",
					"name": "",
					"type": "bool"
				}
			],
			"stateMutability": "nonpayable",
			"type": "function"
		},
		{
			"inputs": [],
			"name": "owner",
			"outputs": [
				{
					"internalType": "address",
					"name": "",
					"type": "address"
				}
			],
			"stateMutability": "view",
			"type": "function"
		},
		{
			"inputs": [
				{
					"internalType": "bytes32",
					"name": "dealId",
					"type": "bytes32"
				},
				{
					"internalType": "uint256",
					"name": "amount",
					"type": "uint256"
				}
			],
			"name": "payUpAddDepositByCounterparty",
			"outputs": [
				{
					"internalType": "bool",
					"name": "",
					"type": "bool"
				}
			],
			"stateMutability": "payable",
			"type": "function"
		},
		{
			"inputs": [
				{
					"internalType": "bytes32",
					"name": "dealId",
					"type": "bytes32"
				},
				{
					"internalType": "uint256",
					"name": "amount",
					"type": "uint256"
				}
			],
			"name": "payUpAddDepositByInitiator",
			"outputs": [
				{
					"internalType": "bool",
					"name": "",
					"type": "bool"
				}
			],
			"stateMutability": "payable",
			"type": "function"
		},
		{
			"inputs": [
				{
					"internalType": "bytes32",
					"name": "dealId",
					"type": "bytes32"
				}
			],
			"name": "payUpCounterpartyAcceptSidedDeal",
			"outputs": [
				{
					"internalType": "bool",
					"name": "",
					"type": "bool"
				}
			],
			"stateMutability": "payable",
			"type": "function"
		},
		{
			"inputs": [
				{
					"internalType": "address payable",
					"name": "counterparty",
					"type": "address"
				},
				{
					"internalType": "address payable",
					"name": "mediator",
					"type": "address"
				},
				{
					"internalType": "uint256",
					"name": "amount",
					"type": "uint256"
				},
				{
					"internalType": "uint256",
					"name": "PRCMediatorFee",
					"type": "uint256"
				},
				{
					"internalType": "address",
					"name": "tokenAddress",
					"type": "address"
				},
				{
					"internalType": "uint256",
					"name": "expirationDate",
					"type": "uint256"
				},
				{
					"internalType": "enum MediatorAction",
					"name": "mediatorActionOnExpiration",
					"type": "uint8"
				}
			],
			"name": "payUpCreateDeal",
			"outputs": [
				{
					"internalType": "bytes32",
					"name": "",
					"type": "bytes32"
				}
			],
			"stateMutability": "payable",
			"type": "function"
		},
		{
			"inputs": [
				{
					"internalType": "address payable",
					"name": "counterparty",
					"type": "address"
				},
				{
					"internalType": "address payable",
					"name": "mediator",
					"type": "address"
				},
				{
					"internalType": "uint256",
					"name": "initiatorCreateAmount",
					"type": "uint256"
				},
				{
					"internalType": "uint256",
					"name": "counterpartyCreateAmount",
					"type": "uint256"
				},
				{
					"internalType": "uint256",
					"name": "PRCMediatorFeeInititor",
					"type": "uint256"
				},
				{
					"internalType": "uint256",
					"name": "PRCMediatorFeeCounterparty",
					"type": "uint256"
				},
				{
					"internalType": "address",
					"name": "initiatorTokenAddress",
					"type": "address"
				},
				{
					"internalType": "address",
					"name": "counterpartyTokenAddress",
					"type": "address"
				},
				{
					"internalType": "uint256",
					"name": "expirationDate",
					"type": "uint256"
				},
				{
					"internalType": "enum MediatorAction",
					"name": "mediatorActionOnExpiration",
					"type": "uint8"
				}
			],
			"name": "payUpCreateSidedDeal",
			"outputs": [
				{
					"internalType": "bytes32",
					"name": "",
					"type": "bytes32"
				}
			],
			"stateMutability": "payable",
			"type": "function"
		},
		{
			"inputs": [
				{
					"internalType": "bytes32",
					"name": "dealId",
					"type": "bytes32"
				},
				{
					"internalType": "address",
					"name": "tokenAdress",
					"type": "address"
				},
				{
					"internalType": "uint256",
					"name": "amount",
					"type": "uint256"
				},
				{
					"internalType": "uint256",
					"name": "PRC_mediatorFee",
					"type": "uint256"
				}
			],
			"name": "payUpMadeDealTwoSided",
			"outputs": [
				{
					"internalType": "bool",
					"name": "",
					"type": "bool"
				}
			],
			"stateMutability": "payable",
			"type": "function"
		},
		{
			"inputs": [
				{
					"internalType": "bytes32",
					"name": "dealId",
					"type": "bytes32"
				}
			],
			"name": "rejectSidedDeal",
			"outputs": [
				{
					"internalType": "bool",
					"name": "",
					"type": "bool"
				}
			],
			"stateMutability": "nonpayable",
			"type": "function"
		},
		{
			"inputs": [],
			"name": "renounceOwnership",
			"outputs": [],
			"stateMutability": "nonpayable",
			"type": "function"
		},
		{
			"inputs": [
				{
					"internalType": "uint256",
					"name": "newCommissionPercent",
					"type": "uint256"
				},
				{
					"internalType": "address",
					"name": "newRecipient",
					"type": "address"
				}
			],
			"name": "setDepositCommission",
			"outputs": [],
			"stateMutability": "nonpayable",
			"type": "function"
		},
		{
			"inputs": [
				{
					"internalType": "uint256",
					"name": "id",
					"type": "uint256"
				},
				{
					"internalType": "bool",
					"name": "reject",
					"type": "bool"
				}
			],
			"name": "signDealEditExpiration",
			"outputs": [
				{
					"internalType": "bool",
					"name": "",
					"type": "bool"
				}
			],
			"stateMutability": "nonpayable",
			"type": "function"
		},
		{
			"inputs": [
				{
					"internalType": "uint256",
					"name": "requestId",
					"type": "uint256"
				},
				{
					"internalType": "bool",
					"name": "reject",
					"type": "bool"
				}
			],
			"name": "signEditDealMediatorRequest",
			"outputs": [
				{
					"internalType": "bool",
					"name": "",
					"type": "bool"
				}
			],
			"stateMutability": "nonpayable",
			"type": "function"
		},
		{
			"inputs": [],
			"name": "totalCompletedDeals",
			"outputs": [
				{
					"internalType": "uint256",
					"name": "",
					"type": "uint256"
				}
			],
			"stateMutability": "view",
			"type": "function"
		},
		{
			"inputs": [],
			"name": "totalDeals",
			"outputs": [
				{
					"internalType": "uint256",
					"name": "",
					"type": "uint256"
				}
			],
			"stateMutability": "view",
			"type": "function"
		},
		{
			"inputs": [],
			"name": "totalEditDealMediatorRequests",
			"outputs": [
				{
					"internalType": "uint256",
					"name": "",
					"type": "uint256"
				}
			],
			"stateMutability": "view",
			"type": "function"
		},
		{
			"inputs": [],
			"name": "totalEditExpirationRequests",
			"outputs": [
				{
					"internalType": "uint256",
					"name": "",
					"type": "uint256"
				}
			],
			"stateMutability": "view",
			"type": "function"
		},
		{
			"inputs": [
				{
					"internalType": "address",
					"name": "to",
					"type": "address"
				},
				{
					"internalType": "address",
					"name": "token",
					"type": "address"
				},
				{
					"internalType": "uint256",
					"name": "amount",
					"type": "uint256"
				}
			],
			"name": "transfer",
			"outputs": [
				{
					"internalType": "bool",
					"name": "",
					"type": "bool"
				}
			],
			"stateMutability": "nonpayable",
			"type": "function"
		},
		{
			"inputs": [
				{
					"internalType": "address",
					"name": "newOwner",
					"type": "address"
				}
			],
			"name": "transferOwnership",
			"outputs": [],
			"stateMutability": "nonpayable",
			"type": "function"
		},
		{
			"inputs": [
				{
					"internalType": "bytes32",
					"name": "dealId",
					"type": "bytes32"
				},
				{
					"internalType": "uint256",
					"name": "amount",
					"type": "uint256"
				}
			],
			"name": "transferToCounterparty",
			"outputs": [
				{
					"internalType": "bool",
					"name": "",
					"type": "bool"
				}
			],
			"stateMutability": "nonpayable",
			"type": "function"
		},
		{
			"inputs": [
				{
					"internalType": "bytes32",
					"name": "dealId",
					"type": "bytes32"
				},
				{
					"internalType": "uint256",
					"name": "amount",
					"type": "uint256"
				}
			],
			"name": "transferToInitiator",
			"outputs": [
				{
					"internalType": "bool",
					"name": "",
					"type": "bool"
				}
			],
			"stateMutability": "nonpayable",
			"type": "function"
		},
		{
			"inputs": [
				{
					"internalType": "address",
					"name": "token",
					"type": "address"
				},
				{
					"internalType": "uint256",
					"name": "amount",
					"type": "uint256"
				}
			],
			"name": "withdraw",
			"outputs": [
				{
					"internalType": "bool",
					"name": "",
					"type": "bool"
				}
			],
			"stateMutability": "nonpayable",
			"type": "function"
		},
		{
			"inputs": [
				{
					"internalType": "bytes32",
					"name": "dealId",
					"type": "bytes32"
				}
			],
			"name": "withdrawCancelDeal",
			"outputs": [
				{
					"internalType": "bool",
					"name": "",
					"type": "bool"
				}
			],
			"stateMutability": "nonpayable",
			"type": "function"
		},
		{
			"inputs": [
				{
					"internalType": "bytes32",
					"name": "dealId",
					"type": "bytes32"
				}
			],
			"name": "withdrawCompleteDeal",
			"outputs": [
				{
					"internalType": "bool",
					"name": "",
					"type": "bool"
				}
			],
			"stateMutability": "nonpayable",
			"type": "function"
		},
		{
			"inputs": [
				{
					"internalType": "bytes32",
					"name": "dealId",
					"type": "bytes32"
				}
			],
			"name": "withdrawExecuteActionsAfterExpiration",
			"outputs": [
				{
					"internalType": "bool",
					"name": "",
					"type": "bool"
				}
			],
			"stateMutability": "nonpayable",
			"type": "function"
		},
		{
			"inputs": [
				{
					"internalType": "bytes32",
					"name": "dealId",
					"type": "bytes32"
				},
				{
					"internalType": "uint256",
					"name": "amount",
					"type": "uint256"
				}
			],
			"name": "withdrawGivebackToConunterparty",
			"outputs": [
				{
					"internalType": "bool",
					"name": "",
					"type": "bool"
				}
			],
			"stateMutability": "nonpayable",
			"type": "function"
		},
		{
			"inputs": [
				{
					"internalType": "bytes32",
					"name": "dealId",
					"type": "bytes32"
				},
				{
					"internalType": "uint256",
					"name": "amount",
					"type": "uint256"
				}
			],
			"name": "withdrawGivebackToInitiator",
			"outputs": [
				{
					"internalType": "bool",
					"name": "",
					"type": "bool"
				}
			],
			"stateMutability": "nonpayable",
			"type": "function"
		},
		{
			"inputs": [
				{
					"internalType": "bytes32",
					"name": "dealId",
					"type": "bytes32"
				}
			],
			"name": "withdrawRejectSidedDeal",
			"outputs": [
				{
					"internalType": "bool",
					"name": "",
					"type": "bool"
				}
			],
			"stateMutability": "nonpayable",
			"type": "function"
		},
		{
			"inputs": [
				{
					"internalType": "bytes32",
					"name": "dealId",
					"type": "bytes32"
				},
				{
					"internalType": "uint256",
					"name": "amount",
					"type": "uint256"
				}
			],
			"name": "withdrawTransferToCounterparty",
			"outputs": [
				{
					"internalType": "bool",
					"name": "",
					"type": "bool"
				}
			],
			"stateMutability": "nonpayable",
			"type": "function"
		},
		{
			"inputs": [
				{
					"internalType": "bytes32",
					"name": "dealId",
					"type": "bytes32"
				},
				{
					"internalType": "uint256",
					"name": "amount",
					"type": "uint256"
				}
			],
			"name": "withdrawTransferToInitiator",
			"outputs": [
				{
					"internalType": "bool",
					"name": "",
					"type": "bool"
				}
			],
			"stateMutability": "nonpayable",
			"type": "function"
		}
	]
}