{
	"data": {
		"bytecode": {
			"linkReferences": {
				"Deal.sol": {
					"DealContract": [
						{
							"length": 20,
							"start": 1065
						},
						{
							"length": 20,
							"start": 2412
						},
						{
							"length": 20,
							"start": 4028
						},
						{
							"length": 20,
							"start": 5108
						},
						{
							"length": 20,
							"start": 6381
						},
						{
							"length": 20,
							"start": 8582
						},
						{
							"length": 20,
							"start": 11054
						},
						{
							"length": 20,
							"start": 12314
						},
						{
							"length": 20,
							"start": 13638
						},
						{
							"length": 20,
							"start": 14872
						},
						{
							"length": 20,
							"start": 15586
						},
						{
							"length": 20,
							"start": 17289
						},
						{
							"length": 20,
							"start": 17688
						},
						{
							"length": 20,
							"start": 18775
						}
					]
				},
				"Percent.sol": {
					"Percent": [
						{
							"length": 20,
							"start": 1216
						},
						{
							"length": 20,
							"start": 3201
						},
						{
							"length": 20,
							"start": 4395
						},
						{
							"length": 20,
							"start": 5817
						},
						{
							"length": 20,
							"start": 6743
						},
						{
							"length": 20,
							"start": 8739
						},
						{
							"length": 20,
							"start": 9353
						},
						{
							"length": 20,
							"start": 11527
						},
						{
							"length": 20,
							"start": 12462
						},
						{
							"length": 20,
							"start": 13790
						},
						{
							"length": 20,
							"start": 14052
						},
						{
							"length": 20,
							"start": 15025
						},
						{
							"length": 20,
							"start": 16215
						},
						{
							"length": 20,
							"start": 17442
						},
						{
							"length": 20,
							"start": 18060
						}
					]
				}
			},
			"object": "6080346101b257601f6158fa38819003918201601f19168301916001600160401b038311848410176101b65780849260409485528339810103126101b25780516020909101516001600160a01b03811691908290036101b257331561019f575f80546040519133906001600160a01b038316907f8be0079c531659141344cd1fd0a4f28419497f9722a3daafe3b4186f6b6457e09080a36001600160a81b0319163360ff60a01b191617600160a01b175f55821561014557506402540be40081116100f65760025560018060a01b031960035416176003555f6008555f6009555f600a555f600b5560405161572f90816101cb8239f35b60405162461bcd60e51b815260206004820152602160248201527f436f6d6d697373696f6e2070657263656e7461676520697320746f6f206869676044820152600d60fb1b6064820152608490fd5b62461bcd60e51b815260206004820152602f60248201527f436f6d6d697373696f6e20726563697069656e742063616e6e6f74206265207460448201526e6865207a65726f206164647265737360881b6064820152608490fd5b631e4fbdf760e01b5f525f60045260245ffd5b5f80fd5b634e487b7160e01b5f52604160045260245ffdfe60806040526004361015610011575f80fd5b5f5f3560e01c80627e8bd3146146f757806306fd154a146146cf5780630934da2214614317578063114aeacc1461418257806315f8a3141461403c57806317b52b5014613fbc57806319e9bfc814613f7457806328d5a05014613a97578063367edd3214613a185780633b063aa0146139a65780633f3e8212146138115780634187129c1461374a57806341b3a0d914613725578063442239c9146136dd57806347e7ef24146134c55780635040125b1461333b57806351a6fad51461319257806351b7d53514612e135780635379719b14611b145780635bd447ac14612da157806363adb66f14612928578063706b14f51461220257806370a08231146121bf578063715018a6146121655780637165e54214611f7b578063723a381614611ef957806380ccb07014611e2057806381cd872a14611cf5578063894ba83314611c7d578063899a3ffd14611c5f5780638da5cb5b14611c385780638deea5fb14611b32578063966d1f1d14611b14578063b0eaa1f614611abd578063b4a99ccb146116f8578063bb06c1a414611370578063beabacc8146112bb578063c23f001f1461059f578063c6006993146111e5578063c99b896514610dbd578063cfadf6c714610718578063e08560a4146106fa578063ed50ab8a146106fa578063f2fde38b14610674578063f3fef3a3146105f2578063f7888aec1461059f5763faa86b4a1461021e575f80fd5b3461059c57602036600319011261059c57600435808252600460205260408220600181019060018060a01b0382541633148015610586575b15610529578373__$69ea93bdf3b1e5da8164bfe3d9a878d765$__803b1561052557816040518092630252a86760e51b825281806102978860048301614fd4565b03915af4801561051a57610501575b5050600581015460098201546006830154600a84015460078501546008860154604051631c8f084760e01b81526004810187905260248101929092526001600160a01b0394851697959691959473__$8537b7efa173772577da826929141ce939$__931690602087604481875af49687156104f6578b976104c1575b50602090604460405180968193631c8f084760e01b835289600484015260248301525af49283156104b657899a99989993610474575b5081548894939291906001600160a01b03168a610375898b614d5a565b9061037f926154bf565b50600282018054909a61039d918991906001600160a01b03166154bf565b5085546001600160a01b0316816103b48680614d5a565b906103be926154bf565b5089546103d59184916001600160a01b03166154bf565b5054935497546040516001600160a01b03998a169a958a1699909116968a968a968893889391929091829161040c91338e8561517e565b035f51602061569a5f395f51905f5291a460405191829161042f9133898561517e565b035f51602061561a5f395f51905f5291a4604080513381526001600160a01b039290921660208301525f51602061567a5f395f51905f5291a460405160018152602090f35b9392509096506020833d6020116104ae575b8161049360209383614dac565b810103126104aa5788968793519293919091610358565b5f80fd5b3d9150610486565b6040513d8c823e3d90fd5b9096506020813d6020116104ee575b816104dd60209383614dac565b810103126104aa5751956020610322565b3d91506104d0565b6040513d8d823e3d90fd5b8161050b91614dac565b61051657835f6102a6565b8380fd5b6040513d84823e3d90fd5b5080fd5b60405162461bcd60e51b815260206004820152602f60248201527f4f6e6c79206120636f756e7465727061727479206f72206d65646961746f722060448201526e18d85b8818d85b98d95b081919585b608a1b6064820152608490fd5b5060028101546001600160a01b03163314610256565b80fd5b503461059c57604036600319011261059c5760406105bb614a2e565b916105c4614a18565b9260018060a01b031681526001602052209060018060a01b03165f52602052602060405f2054604051908152f35b503461059c57604036600319011261059c5761066a602091610612614a2e565b6040602435923381526001865281812060018060a01b0384165f52865261063e84835f20541015614d17565b338152600186522060018060a01b0382165f52845260405f20610662838254614d5a565b9055336154bf565b6040519015158152f35b503461059c57602036600319011261059c5761068e614a2e565b6106966155f3565b6001600160a01b031680156106e65781546001600160a01b03198116821783556001600160a01b03167f8be0079c531659141344cd1fd0a4f28419497f9722a3daafe3b4186f6b6457e08380a380f35b631e4fbdf760e01b82526004829052602482fd5b503461059c578060031936011261059c576020600954604051908152f35b5061072236614a44565b918997999389958c60ff815460a01c1661073b81614ccb565b3382526001602090815260408084206001600160a01b0387165f90815292529020548e8110610a6d575b5050906102209860406107d1979695949333815260016020522060018060a01b0384165f526020528d61079d60405f20918254614d5a565b905573__$69ea93bdf3b1e5da8164bfe3d9a878d765$__9a6040519e8f9a8b9a63652e83d760e01b8c523360048d01614f08565b0381845af4908115610a2e57610224948692610a39575b50602090604051958680926363f88cdd60e11b825261080a6004830187614bdc565b5af4938415610a2e5785946109fa575b50838552600460209081526040808720835181546001600160a01b039182166001600160a01b031991821617835593850151600183018054918316919095161790935590830151600282018054606086015160ff60a01b90151560a01b16929094166001600160a81b03199094169390931717825561020091600c91906108f5905b6080860151815460ff60a81b191690151560a81b60ff60a81b1617815560a0860151815460ff60b01b191690151560b01b60ff60b01b1617815560c0860151815460ff60b81b191690151560b81b60ff60b81b16179055565b60e0840151600382015561010084015160048201556101208401516005820155610140840151600680830191909155610160850151600783015561018085015160088301556101a08501516009830180546001600160a01b039283166001600160a01b0319918216179091556101c0870151600a850180549190931691161790556101e0850151600b8301559290930151920191908110156109e6576020955060ff801983541691161790556040519160018060a01b0316825260018060a01b031690827f44e1ff8e67fad6b456bd43ff165ba4e9bb004370aa27a76881c6acb60dfd6dd9853393a4604051908152f35b634e487b7160e01b86526021600452602486fd5b9093506020813d602011610a26575b81610a1660209383614dac565b810103126104aa5751925f61081a565b3d9150610a09565b6040513d87823e3d90fd5b6020919250610a5f906102203d8111610a66575b610a578183614dac565b810190614def565b91906107e8565b503d610a4d565b909750610a8b92969594939850610a8591508d614d5a565b95614ccb565b8415610d69576002549560405196631c8f084760e01b8852866004890152602488015260208760448173__$8537b7efa173772577da826929141ce939$__5af4968715610d5e578d97610d2a575b506001600160a01b0381169485610bdb57610af48888615348565b3403610b87576102209860408f8d998f9b996107d19a33845260016020528484205f8052602052845f20610b29848254615348565b905560018060a01b0360035416845260016020528484205f8052602052845f20610b54828254615348565b90555b84519283526020830152838201525f51602061565a5f395f51905f5260603392a292939495969750819a50610765565b60405162461bcd60e51b815260206004820152602660248201527f4d61696e6e657420746f6b656e206465706f73697420616d6f756e74206d697360448201526536b0ba31b41760d11b6064820152608490fd5b8d610be68989615348565b604051906323b872dd60e01b82523360048301523060248301526044820152602081606481858c5af1918215610d1e5791610ce0575b5015610c83576102209860408f8d998f9b996107d19a3384526001602052848420825f52602052845f20610c51848254615348565b905560018060a01b036003541684526001602052848420825f52602052845f20610c7c828254615348565b9055610b57565b60405162461bcd60e51b815260206004820152602f60248201527f436f6e74726163742068617320746f6f206c6f7720616c6c6f77616e6365207460448201526e6f20726563656976652066756e647360881b6064820152608490fd5b90506020813d602011610d16575b81610cfb60209383614dac565b81010312610d1257610d0c90614de2565b5f610c1c565b8e80fd5b3d9150610cee565b604051903d90823e3d90fd5b9096506020813d602011610d56575b81610d4660209383614dac565b810103126104aa5751955f610ad9565b3d9150610d39565b6040513d8f823e3d90fd5b60405162461bcd60e51b815260206004820152602660248201527f4465706f73697420616d6f756e74206d757374206265206772656174657220746044820152653430b710181760d11b6064820152608490fd5b503461059c57610dcc36614af4565b9080835260046020526040832092600184019260018060a01b03845416330361118f5773__$69ea93bdf3b1e5da8164bfe3d9a878d765$__803b1561112f57826040518092630252a86760e51b82528180610e2a8b60048301614fd4565b03915af4801561113b5790839161117a575b5050600a85018054335f9081526001602090815260408083206001600160a01b0390941680845293909152902054909390838110610f1a575b503381526001602090815260409182902092546001600160a01b03165f908152929052902080547f9d5818ec36d6e85e8a30346f5fe41b65cc50cea2b868ae94f293d113c92a13389350610eca908390614d5a565b905560068501610edb828254615348565b905584549354600290950154604080516001600160a01b039283168152602081019390935295811695941693819081015b0390a4602060405160018152f35b610f249084614d5a565b90610f3560ff825460a01c16614ccb565b8115610d69576002549160405192631c8f084760e01b8452816004850152602484015260208360448173__$8537b7efa173772577da826929141ce939$__5af492831561051a578293611146575b508561103057610f938382615348565b610b87577f9d5818ec36d6e85e8a30346f5fe41b65cc50cea2b868ae94f293d113c92a13389560409333845260016020528484205f8052602052845f20610fdb848254615348565b905560018060a01b0360035416845260016020528484205f8052602052845f20611006828254615348565b90555b84519283526020830152838201525f51602061565a5f395f51905f5260603392a290610e75565b61103a8382615348565b604051906323b872dd60e01b82523360048301523060248301526044820152602081606481868b5af190811561113b5783916110fd575b5015610c83577f9d5818ec36d6e85e8a30346f5fe41b65cc50cea2b868ae94f293d113c92a133895604093338452600160205284842060018060a01b0383165f52602052845f206110c3848254615348565b905560018060a01b03600354168452600160205284842060018060a01b0383165f52602052845f206110f6828254615348565b9055611009565b90506020813d602011611133575b8161111860209383614dac565b8101031261112f5761112990614de2565b5f611071565b8280fd5b3d915061110b565b6040513d85823e3d90fd5b9092506020813d602011611172575b8161116260209383614dac565b810103126104aa5751915f610f83565b3d9150611155565b8161118491614dac565b61052557815f610e3c565b60405162461bcd60e51b815260206004820152602860248201527f4f6e6c79206120636f756e74657270617274792063616e2063616c6c207468696044820152671cc81b595d1a1bd960c21b6064820152608490fd5b50602036600319011261059c576004803582526020526040812060018101546001600160a01b0316331480156112a8575b8015611292575b611226906153be565b8173__$69ea93bdf3b1e5da8164bfe3d9a878d765$__91823b1561052557611263926040518080958194630252a86760e51b835260048301614fd4565b03915af4801561051a5761127d575b602082604051908152f35b611288828092614dac565b61059c575f611272565b5060028101546001600160a01b0316331461121d565b5080546001600160a01b03163314611216565b503461059c57606036600319011261059c576112d5614a2e565b9060406112e0614a18565b9160443593338252600160205282822060018060a01b0385165f5260205261130d85845f20541015614d17565b338252600160205282822060018060a01b0385165f52602052825f20611334868254614d5a565b905560018060a01b031681526001602052209060018060a01b03165f5260205261136360405f20918254615348565b9055602060405160018152f35b50602036600319011261059c576004358082526004602052604082209060018201916113a660018060a01b038454163314615210565b60028101936113e485546113bf60ff8260b01c1661526b565b6113cf60ff8260b81c16156152b0565b60ff8160a01c161590816116e9575b506152fc565b600a82018054335f9081526001602090815260408083206001600160a01b0390941680845293909152902054600685015481106114a0575b505060048301543383526001602090815260409384902092546001600160a01b03165f9081529281529290912080545f51602061563a5f395f51905f52949261146491614d5a565b90558554600160b81b60ff60b81b198216179096555493546040516001600160a01b0396871681529086169590941693a4602060405160018152f35b6114b290600486949593960154614d5a565b926114c360ff835460a01c16614ccb565b8315610d69576002549360405194631c8f084760e01b8652816004870152602486015260208560448173__$8537b7efa173772577da826929141ce939$__5af494851561113b5783956116b5575b50856115b5576115218582615348565b3403610b87575f51602061563a5f395f51905f529560209533855260018752604085205f8052875260405f20611558848254615348565b90556003546001600160a01b031685526001875260408086205f808052908952208054611586908390615348565b90555b6040519283528683015260408201525f51602061565a5f395f51905f5260603392a2919381935061141c565b6115bf8582615348565b604051906323b872dd60e01b82523360048301523060248301526044820152602081606481878b5af19081156116aa578491611670575b5015610c83575f51602061563a5f395f51905f5295602095338552600187526040852060018060a01b0383165f52875260405f20611635848254615348565b90556003546001600160a01b0390811686526001885260408087209184165f90815291895290208054611669908390615348565b9055611589565b90506020813d6020116116a2575b8161168b60209383614dac565b810103126105165761169c90614de2565b5f6115f6565b3d915061167e565b6040513d86823e3d90fd5b9094506020813d6020116116e1575b816116d160209383614dac565b810103126104aa5751935f611511565b3d91506116c4565b60ff915060a81c16155f6113de565b5061170236614af4565b908083526004602052604083209260018060a01b038454163303611a6a5773__$69ea93bdf3b1e5da8164bfe3d9a878d765$__803b1561052557816040518092630252a86760e51b8252818061175b8a60048301614fd4565b03915af4801561051a57908291611a55575b5050600984018054335f9081526001602090815260408083206001600160a01b039094168084529390915290205491929091858110611847575b50604091503381526001602052209060018060a01b0390541660018060a01b03165f5260205260405f206117dc838254614d5a565b9055600583016117ed838254615348565b905582546001840154600290940154604080516001600160a01b0392831681526020810195909552948116949116927f3c0dd30126238eaebbb306e073222eecd03a091d41c39a4b2742759d406c8f559181908101610f0c565b6118519086614d5a565b61186160ff835460a01c16614ccb565b8015610d69576002549260405193631c8f084760e01b8552826004860152602485015260208460448173__$8537b7efa173772577da826929141ce939$__5af493841561113b578394611a21575b508061193c576118bf8483615348565b3403610b875760409333845260016020528484205f8052602052845f206118e7848254615348565b905560018060a01b0360035416845260016020528484205f8052602052845f20611912828254615348565b90555b84519283526020830152838201525f51602061565a5f395f51905f5260603392a25f6117a7565b6119468483615348565b604051906323b872dd60e01b8252336004830152306024830152604482015260208160648187865af19081156116aa5784916119e7575b5015610c8357604093338452600160205284842060018060a01b0383165f52602052845f206119ad848254615348565b905560018060a01b03600354168452600160205284842060018060a01b0383165f52602052845f206119e0828254615348565b9055611915565b90506020813d602011611a19575b81611a0260209383614dac565b8101031261051657611a1390614de2565b5f61197d565b3d91506119f5565b9093506020813d602011611a4d575b81611a3d60209383614dac565b810103126104aa5751925f6118af565b3d9150611a30565b81611a5f91614dac565b61059c57805f61176d565b60405162461bcd60e51b815260206004820152602560248201527f4f6e6c79206120696e69746174696f722063616e2063616c6c2074686973206d604482015264195d1a1bd960da1b6064820152608490fd5b503461059c57604036600319011261059c57611ad7614a2e565b6001600160a01b031681526005602052604081208054602435929083101561059c576020611b058484614b6d565b90549060031b1c604051908152f35b503461059c578060031936011261059c576020600854604051908152f35b503461059c57602036600319011261059c57600435808252600460205260408220905f51602061567a5f395f51905f52610f0c600184019360018060a01b0385541633148015611c25575b611b8690615418565b6002810195611ba7875460ff8160b81c161580611c17575b6113cf90615473565b600582015482546001600160a01b0390811683526001602090815260409384902060098601549092165f9081529190529190912080549091611be891615348565b90555493549454604080513381526001600160a01b039283166020820152968216969590911694918291820190565b5060b081901c60ff16611b9e565b5080546001600160a01b03163314611b7d565b503461059c578060031936011261059c57546040516001600160a01b039091168152602090f35b503461059c578060031936011261059c576020600254604051908152f35b503461059c578060031936011261059c57611c966155f3565b805460ff60a01b191681556040518181527f017904e4fe7d59bb4603c7c045bc275a05da9ea3a4ac007fc80fffeaf119186d90602090a1337f793bc6423dd0257d64f9d47db72fd4b2162f4541aa41740ba1c5fb5e2cd41bcd8280a280f35b503461059c57602036600319011261059c576004358152600460205260409020600160a01b6001900381541690600160a01b600190036001820154169060028101546003820154600483015460058401546006850154600786015491600887015493600160a01b6001900360098901541695600160a01b60019003600a8a01541697600b8a015499600c015460ff169a6040519c8d5260208d0152600160a01b60019003811660408d01528060a01c60ff16151560608d01528060a81c60ff16151560808d01528060b01c60ff16151560a08d015260b81c60ff16151560c08c015260e08b01526101008a01526101208901526101408801526101608701526101808601526101a08501526101c08401526101e08301526102008201611e1a91614bcf565b61022090f35b503461059c57602036600319011261059c5760406004359182815260046020522090600182019060018060a01b0382541633148015611ee6575b611e6390615418565b5f51602061567a5f395f51905f52610f0c6002850194611e94865460ff8160b81c161580611c17576113cf90615473565b805460098201546005830154611eb89290916001600160a01b0390811691166154bf565b505493549454604080513381526001600160a01b039283166020820152968216969590911694918291820190565b5082546001600160a01b03163314611e5a565b503461059c57602036600319011261059c576001600160a01b03611f1b614a2e565b168152600560205260408120604051918260208354918281520192825260208220915b818110611f6557611f6185611f5581870382614dac565b60405191829182614b96565b0390f35b8254845260209093019260019283019201611f3e565b503461059c57611f8a36614af4565b9080835260046020526040832092600184019260018060a01b038454163314801561214f575b611fb990615355565b73__$69ea93bdf3b1e5da8164bfe3d9a878d765$__803b1561112f57826040518092630252a86760e51b82528180611ff48b60048301614fd4565b03915af4801561113b5790839161213a575b50506006850161202282825461201d828210614d17565b614d5a565b905560018060a01b03600a8601541694600881015460405190631c8f084760e01b8252836004830152602482015260208160448173__$8537b7efa173772577da826929141ce939$__5af4938415610d1e5793612104575b5080547f8af39814826d4542f7fe66e6fa6ac2ac59bfc8221394f51a41dba5c54dba0ac99391610f0c916120c2906001600160a01b0316896120bc8688614d5a565b916154bf565b506120db83600283019960018060a01b038b54166154bf565b5054955496546040516001600160a01b039889169897881697909485949290913391168561517e565b92506020833d602011612132575b8161211f60209383614dac565b810103126104aa57915191610f0c61207a565b3d9150612112565b8161214491614dac565b61052557815f612006565b5060028501546001600160a01b03163314611fb0565b503461059c578060031936011261059c5761217e6155f3565b80546001600160a01b03198116825581906001600160a01b03167f8be0079c531659141344cd1fd0a4f28419497f9722a3daafe3b4186f6b6457e08280a380f35b503461059c57602036600319011261059c576040906001600160a01b036121e4614a2e565b1681526001602052205f8052602052602060405f2054604051908152f35b503461059c57602036600319011261059c5760043580825260046020526040822090600182019160018060a01b0383541633148015612915575b80156128ff575b61224c906153be565b6002810193845460ff8160b81c16156128c6578060ff6122779260a01c161590816116e957506152fc565b600b820154421061288c5760ff600c83015416600583015460018060a01b0360098501541660068501549160018060a01b03600a870154169060078701549460088801549673__$8537b7efa173772577da826929141ce939$__9760405197631c8f084760e01b89528460048a015260248901526020886044818c5af497881561051a578298612857575b506020906044604051809b8193631c8f084760e01b83528b600484015260248301525af497881561284a578198612816575b5060068210156128025791600482848e8e8e895f51602061567a5f395f51905f529f9d9b610f0c9f9d9b998f8f908f928f859f888f8584898f8f8d8f9860018c8f92878b9f8d8f8c8f8f8c8b948f928e9815612737575b60028c14612670575b505050505050505050505014612588575b5050505050505050505060038c146124f1575b50505050505050505050501461240f575b50508954600160a81b60ff60a81b19821617909a55505091549554604080513381526001600160a01b03998a166020820152918916989097169690938493509083019150565b848361245161247396612436612462958b986120bc8760018060a01b036003541693614d5a565b506003546001600160a01b03169086906120bc908990614d5a565b508d546001600160a01b03166154bf565b508a546001600160a01b03166154bf565b50825487548954600354604080516001600160a01b03938416815233602082015291831690820152606081018590526080810186905260a081019490945260c0840194909452831692169086907f8e100dc3335e09b082c843425f71ea8ae9d91ae5bb385ef4b41d0d2c6aa872149060e090a45f80808080806123c9565b7f8e100dc3335e09b082c843425f71ea8ae9d91ae5bb385ef4b41d0d2c6aa872149661246261252d9360e0988d60018060a01b039054166154bf565b5060018060a01b039054169560018060a01b039054169660018060a01b0390541691604051928084523360208501526040840152606083015260808201528660a08201528660c0820152a48e8e8e87898c8f8f908b8f6123b8565b5f51602061569a5f395f51905f52996126057f8af39814826d4542f7fe66e6fa6ac2ac59bfc8221394f51a41dba5c54dba0ac9986125ef88866125de8f9e612616996120bc8560018060a01b0389541693614d5a565b5089546001600160a01b03166154bf565b50546001600160a01b0316826120bc858b614d5a565b5084546001600160a01b03166154bf565b508a54905491546040516001600160a01b039384169992841698919093169389938993918190612649908f338a8561517e565b0390a461265e8a60405193849333908561517e565b0390a48688838584898f8f8d8c6123a5565b6126da5f51602061561a5f395f51905f529789938f8d8d6125de5f5160206156ba5f395f51905f529f8c906120bc858d886126b29960a01b0390541693614d5a565b508f806126cb9160a01b03875416826120bc858d614d5a565b508f8060a01b038754166154bf565b508c8060a01b039054169788928d8060a01b03905416998a948e8060a01b039054169561270e604051928392338a8561517e565b0390a46127238a60405193849333908561517e565b0390a487858d8f8c8f8f8c8b948f92612394565b61274e8d8060a01b038254168a6120bc8d89614d5a565b506127628a8a8f8060a01b038754166154bf565b5061277a8d8060a01b03845416836120bc8a8a614d5a565b5061278e87838f8060a01b038754166154bf565b50898d8060a01b03825416898f89898985855f51602061569a5f395f51905f52865f51602061561a5f395f51905f529760a01b038d541699600194858c9660a01b03905416956127e5604051928392338a8561517e565b0390a46127fa8d60405193849333908561517e565b0390a461238b565b634e487b7160e01b81526021600452602490fd5b9097506020813d602011612842575b8161283260209383614dac565b810103126104aa5751965f612334565b3d9150612825565b50604051903d90823e3d90fd5b9097506020813d602011612884575b8161287360209383614dac565b810103126104aa5751966020612302565b3d9150612866565b60405162461bcd60e51b81526020600482015260126024820152711119585b081b9bdd08195e1c1a5c985d195960721b6044820152606490fd5b60405162461bcd60e51b81526020600482015260116024820152701119585b081b5d5cdd081cdd185c9d1959607a1b6044820152606490fd5b5060028101546001600160a01b03163314612243565b5080546001600160a01b0316331461223c565b503461059c5761293736614ac6565b8385929493955260046020526040822090600182019461296160018060a01b038754163314614f74565b73__$69ea93bdf3b1e5da8164bfe3d9a878d765$__803b15612d9d57846040518092630252a86760e51b8252818061299c8960048301614fd4565b03915af48015610a2e57908591612d88575b505060028301966129c660ff895460b01c16156150b9565b33855260016020526040852060018060a01b0382165f526020526129f08260405f20541015614d17565b6004840190815433875260016020526040872060018060a01b0383165f52602052612a2060405f20918254614d5a565b905583612d34575b33865260016020526040862060018060a01b0382165f5260205260405f2054838110612af2575b50918091602095949360405f5160206156da5f395f51905f5298338152600189522060018060a01b0382165f52875260405f20612a8d848254614d5a565b90558a5460ff60b01b1916600160b01b178b55600a860180546001600160a01b0319166001600160a01b0392831617905591905560068401919091556008830191909155905494549554604051908216815295811695941693a4602060405160018152f35b612b00908493969594614d5a565b94612b1160ff885460a01c16614ccb565b8515610d69576002549160405192631c8f084760e01b8452876004850152602484015260208360448173__$8537b7efa173772577da826929141ce939$__5af4928315612d29578893612cf5575b506001600160a01b0381169283612c0c57612b7a8189615348565b610b87575f5160206156da5f395f51905f5298602098869560409333845260018c528484205f80528c52845f20612bb2848254615348565b905560018060a01b0360035416845260018c528484205f80528c52845f20612bdb828254615348565b90555b84519283528b830152838201525f51602061565a5f395f51905f5260603392a2985050915091929394612a4f565b612c168189615348565b604051906323b872dd60e01b825233600483015230602483015260448201526020816064818d895af19081156104b6578a91612cb7575b5015610c83575f5160206156da5f395f51905f5298602098869560409333845260018c52848420825f528c52845f20612c87848254615348565b905560018060a01b0360035416845260018c52848420825f528c52845f20612cb0828254615348565b9055612bde565b90506020813d602011612ced575b81612cd260209383614dac565b81010312612ce957612ce390614de2565b5f612c4d565b8980fd5b3d9150612cc5565b9092506020813d602011612d21575b81612d1160209383614dac565b810103126104aa5751915f612b5f565b3d9150612d04565b6040513d8a823e3d90fd5b88546001600160a01b0316612a285760405162461bcd60e51b815260206004820152601d60248201527f43616e74207061792066656520746f207a65726f206d65646961746f720000006044820152606490fd5b81612d9291614dac565b61051657835f6129ae565b8480fd5b503461059c57602036600319011261059c576001600160a01b03612dc3614a2e565b168152600760205260408120604051918260208354918281520192825260208220915b818110612dfd57611f6185611f5581870382614dac565b8254845260209093019260019283019201612de6565b503461059c57602036600319011261059c5760043580825260046020526040822060018060a01b038154163314801561317c575b15613120578273__$69ea93bdf3b1e5da8164bfe3d9a878d765$__803b1561052557816040518092630252a86760e51b82528180612e888860048301614fd4565b03915af4801561051a5761310b575b5050600581015460098201546006830154600a84015460078501546008860154604051631c8f084760e01b81526004810187905260248101929092526001600160a01b0394851696939573__$8537b7efa173772577da826929141ce939$__959093169390602083604481895af49283156104b6578a936130d6575b50602090604460405180988193631c8f084760e01b83528b600484015260248301525af49485156130cb57889998979895613090575b50600181018054909488949392916001600160a01b03168a612f6b8587614d5a565b90612f75926154bf565b50600282018054909a612f93918591906001600160a01b03166154bf565b5081546001600160a01b031681612faa8a80614d5a565b90612fb4926154bf565b508954612fcb9188916001600160a01b03166154bf565b5054935497546040516001600160a01b03998a169a958a1699909116968a968a968893889391929091829161300291338e8561517e565b037f8af39814826d4542f7fe66e6fa6ac2ac59bfc8221394f51a41dba5c54dba0ac991a46040519182916130389133898561517e565b035f5160206156ba5f395f51905f5291a4604080513381526001600160a01b039290921660208301527ffaee379435b6a0c297f1a08c66517fdc202debc6d275e6dd73630e3ebd1bdd9791a460405160018152602090f35b9291965093506020823d6020116130c3575b816130af60209383614dac565b810103126104aa5790518795909386612f49565b3d91506130a2565b6040513d8b823e3d90fd5b9092506020813d602011613103575b816130f260209383614dac565b810103126104aa5751916020612f13565b3d91506130e5565b8161311591614dac565b61112f57825f612e97565b60405162461bcd60e51b815260206004820152602e60248201527f4f6e6c79206120696e69746174696f72206f72206d65646961746f722063616e60448201526d0818dbdb5c1b1a5d19481919585b60921b6064820152608490fd5b5060028101546001600160a01b03163314612e47565b503461059c57602036600319011261059c57806102006040516131b481614d7b565b8281528260208201528260408201528260608201528260808201528260a08201528260c08201528260e08201528261010082015282610120820152826101408201528261016082015282610180820152826101a0820152826101c0820152826101e08201520152600435815260046020526040812060ff600c6040519261323a84614d7b565b80546001600160a01b0390811685526001820154811660208601526002820154808216604087015260a081811c86161515606088015260a882901c86161515608088015260b082901c861615159087015260b81c8416151560c0860152600382015460e08601526004820154610100860152600582015461012086015260068083015461014087015260078301546101608701526008830154610180870152600983015482166101a0870152600a8301549091166101c0860152600b8201546101e0860152910154909116908110156133275761022092506102008201526133256040518092614bdc565bf35b634e487b7160e01b83526021600452602483fd5b503461059c5761334a36614af4565b9080835260046020526040832092600184019260018060a01b03845416331480156134af575b61337990615355565b73__$69ea93bdf3b1e5da8164bfe3d9a878d765$__803b1561112f57826040518092630252a86760e51b825281806133b48b60048301614fd4565b03915af4801561113b5790839161349a575b5050600585016133dd82825461201d828210614d17565b905560018060a01b0360098601541694600781015460405190631c8f084760e01b8252836004830152602482015260208160448173__$8537b7efa173772577da826929141ce939$__5af4938415610d1e5793613464575b5080545f51602061569a5f395f51905f529391610f0c916120c2906001600160a01b0316896120bc8688614d5a565b92506020833d602011613492575b8161347f60209383614dac565b810103126104aa57915191610f0c613435565b3d9150613472565b816134a491614dac565b61052557815f6133c6565b5060028501546001600160a01b03163314613370565b50604036600319011261059c576134da614a2e565b602435906134ee60ff845460a01c16614ccb565b8115610d69576002549060405191631c8f084760e01b8352836004840152602483015260208260448173__$8537b7efa173772577da826929141ce939$__5af49182156116aa5784926136a9575b506001600160a01b031690816135d3576135568184615348565b3403610b87573384526001602052604084205f805260205260405f2061357d848254615348565b905560018060a01b036003541684526001602052604084205f805260205260405f206135aa828254615348565b90555b604051928352602083015260408201525f51602061565a5f395f51905f5260603392a280f35b6135dd8184615348565b604051906323b872dd60e01b8252336004830152306024830152604482015260208160648188875af1908115610a2e57859161366f575b5015610c8357338452600160205260408420825f5260205260405f2061363b848254615348565b905560018060a01b03600354168452600160205260408420825f5260205260405f20613668828254615348565b90556135ad565b90506020813d6020116136a1575b8161368a60209383614dac565b81010312612d9d5761369b90614de2565b5f613614565b3d915061367d565b9091506020813d6020116136d5575b816136c560209383614dac565b810103126104aa5751905f61353c565b3d91506136b8565b503461059c57604036600319011261059c576136f7614a2e565b6001600160a01b031681526006602052604081208054602435929083101561059c576020611b058484614b6d565b503461059c578060031936011261059c5760ff6020915460a01c166040519015158152f35b503461059c57602036600319011261059c57600435808252600460205260408220905f51602061563a5f395f51905f526020600184019361379560018060a01b038654163314615210565b60028101956137ae87546113bf60ff8260b01c1661526b565b600a820154335f9081526001602090815260408083206001600160a01b03909416808452939091529081902054926137ed600486015480951015614d17565b33815260018652209060018060a01b03165f52835261146460405f20918254614d5a565b503461059c5761382036614af4565b91908082526004602052604082209160018060a01b0383541633148015613990575b61384b90615118565b73__$69ea93bdf3b1e5da8164bfe3d9a878d765$__803b1561052557816040518092630252a86760e51b825281806138868960048301614fd4565b03915af4801561051a5790829161397b575b5050600583016138af85825461201d828210614d17565b905560018060a01b036009840154169360078401549160405192631c8f084760e01b8452826004850152602484015260208360448173__$8537b7efa173772577da826929141ce939$__5af4908115610d1e579061393c575b60018501805490955f5160206156ba5f395f51905f529450610f0c916120c2906001600160a01b0316896120bc8688614d5a565b506020823d602011613973575b8161395660209383614dac565b810103126104aa575f5160206156ba5f395f51905f529151613908565b3d9150613949565b8161398591614dac565b61059c57805f613898565b5060028301546001600160a01b03163314613842565b503461059c57602036600319011261059c576001600160a01b036139c8614a2e565b168152600660205260408120604051918260208354918281520192825260208220915b818110613a0257611f6185611f5581870382614dac565b82548452602090930192600192830192016139eb565b503461059c578060031936011261059c57613a316155f3565b805460ff60a01b1916600160a01b178155604051600181527f017904e4fe7d59bb4603c7c045bc275a05da9ea3a4ac007fc80fffeaf119186d90602090a1337fae81c15a680e6640ba872ca44f364ad67c60a04089ad9fa100f7a3ce94da9f688280a280f35b50613aa136614b0a565b91959360ff889492945460a01c1692613ab984614ccb565b33895260016020526040892060018060a01b0389165f5260205260405f2054828110613d4e575b506102209350613b4990338a52600160205260408a2060018060a01b038a165f5260205260405f20613b13848254614d5a565b905573__$69ea93bdf3b1e5da8164bfe3d9a878d765$__95604051998a95869563652e83d760e01b87528b8b3360048a016151a8565b0381845af4908115610a2e57610224948692613d2a575b50602090604051958680926363f88cdd60e11b8252613b826004830187614bdc565b5af4938415610a2e578594613cf6575b50838552600460209081526040808720835181546001600160a01b039182166001600160a01b031991821617835593850151600183018054918316919095161790935590830151600282018054606086015160ff60a01b90151560a01b16929094166001600160a81b03199094169390931717825561020091600c9190613c189061089c565b60e0840151600382015561010084015160048201556101208401516005820155610140840151600680830191909155610160850151600783015561018085015160088301556101a08501516009830180546001600160a01b039283166001600160a01b0319918216179091556101c0870151600a850180549190931691161790556101e0850151600b8301559290930151920191908110156109e6576020955060ff801983541691161790556040519160018060a01b0316825260018060a01b031690825f51602061563a5f395f51905f52853393a4604051908152f35b9093506020813d602011613d22575b81613d1260209383614dac565b810103126104aa5751925f613b92565b3d9150613d05565b6020919250613d47906102203d8111610a6657610a578183614dac565b9190613b60565b613d5b613d619184614d5a565b94614ccb565b8315610d69576002549060405191631c8f084760e01b8352856004840152602483015260208260448173__$8537b7efa173772577da826929141ce939$__5af49182156104b6578a92613f40575b506001600160a01b0389169485613e5257613dca8382615348565b3403610b875761022095613b4993338d52600160205260408d205f805260205260405f20613df9848254615348565b905560018060a01b03600354168d52600160205260408d205f805260205260405f20613e26828254615348565b90555b604051928352602083015260408201525f51602061565a5f395f51905f5260603392a290613ae0565b8a6020613e5f8584615348565b6064604051809481936323b872dd60e01b835233600484015230602484015260448301528b5af1908115613f35578c91613ef7575b5015610c835761022095613b4993338d52600160205260408d20825f5260205260405f20613ec3848254615348565b905560018060a01b03600354168d52600160205260408d20825f5260205260405f20613ef0828254615348565b9055613e29565b90506020813d602011613f2d575b81613f1260209383614dac565b81010312613f2957613f2390614de2565b5f613e94565b8b80fd5b3d9150613f05565b6040513d8e823e3d90fd5b9091506020813d602011613f6c575b81613f5c60209383614dac565b810103126104aa5751905f613daf565b3d9150613f4f565b503461059c57604036600319011261059c57613f8e614a2e565b6001600160a01b031681526007602052604081208054602435929083101561059c576020611b058484614b6d565b503461059c57610220613b49613fd136614b0a565b613fe960ff8b9a96949a999397995460a01c16614ccb565b338a52600160205260408a2060018060a01b038a165f526020526140138360405f20541015614d17565b338a52600160205260408a2060018060a01b038a165f5260205260405f20613b13848254614d5a565b503461059c57604036600319011261059c57600435614059614a18565b6140616155f3565b6001600160a01b038116918215614125576402540be40081116140d6576002819055600380546001600160a01b03191693909317909255604080519283526001600160a01b039190911660208301527f14bdaadaed0453e7b5b66195b42156ba995b9e5abd0da98368839851d69ad88991a180f35b60405162461bcd60e51b815260206004820152602160248201527f436f6d6d697373696f6e2070657263656e7461676520697320746f6f206869676044820152600d60fb1b6064820152608490fd5b60405162461bcd60e51b815260206004820152602f60248201527f436f6d6d697373696f6e20726563697069656e742063616e6e6f74206265207460448201526e6865207a65726f206164647265737360881b6064820152608490fd5b503461059c5761419136614af4565b91908082526004602052604082209160018060a01b0383541633148015614301575b6141bc90615118565b73__$69ea93bdf3b1e5da8164bfe3d9a878d765$__803b1561052557816040518092630252a86760e51b825281806141f78960048301614fd4565b03915af4801561051a579082916142ec575b50506006830161422085825461201d828210614d17565b905560018060a01b03600a840154169360088401549160405192631c8f084760e01b8452826004850152602484015260208360448173__$8537b7efa173772577da826929141ce939$__5af4908115610d1e57906142ad575b60018501805490955f51602061561a5f395f51905f529450610f0c916120c2906001600160a01b0316896120bc8688614d5a565b506020823d6020116142e4575b816142c760209383614dac565b810103126104aa575f51602061561a5f395f51905f529151614279565b3d91506142ba565b816142f691614dac565b61059c57805f614209565b5060028301546001600160a01b031633146141b3565b5061432136614ac6565b835f9493929452600460205260405f2090600182019461434b60018060a01b038754163314614f74565b73__$69ea93bdf3b1e5da8164bfe3d9a878d765$__803b156104aa575f6040518092630252a86760e51b825281806143868960048301614fd4565b03915af480156146c4576146af575b5060028301966143ac60ff895460b01c16156150b9565b33815260016020526040812060018060a01b0386165f5260205260405f2054828110614478575b50905f5160206156da5f395f51905f529460406020959493338152600187522060018060a01b0382165f52855260405f2061440f838254614d5a565b9055885460ff60b01b1916600160b01b178955600a840180546001600160a01b0319166001600160a01b039283161790556004840182905560068401919091556008830191909155905494549554604051908216815295811695941693a4602060405160018152f35b614486908392959493614d5a565b9461449760ff865460a01c16614ccb565b8515610d695760025460405190631c8f084760e01b8252876004830152602482015260208160448173__$8537b7efa173772577da826929141ce939$__5af49081156146a4578691614672575b506001600160a01b038216958661458f576144ff8289615348565b3403610b87575f5160206156da5f395f51905f529760209760409333845260018a528484205f80528a52845f20614537848254615348565b905560018060a01b0360035416845260018a528484205f80528a52845f20614560828254615348565b90555b845192835289830152838201525f51602061565a5f395f51905f5260603392a2929394955050946143d3565b6145998289615348565b604051906323b872dd60e01b82523360048301523060248301526044820152602081606481858c5af190811561051a578291614638575b5015610c83575f5160206156da5f395f51905f529760209760409333845260018a52848420825f528a52845f20614608848254615348565b905560018060a01b0360035416845260018a52848420825f528a52845f20614631828254615348565b9055614563565b90506020813d60201161466a575b8161465360209383614dac565b810103126105255761466490614de2565b5f6145d0565b3d9150614646565b90506020813d60201161469c575b8161468d60209383614dac565b810103126104aa57515f6144e4565b3d9150614680565b6040513d88823e3d90fd5b6146bc9197505f90614dac565b5f955f614395565b6040513d5f823e3d90fd5b346104aa575f3660031901126104aa576003546040516001600160a01b039091168152602090f35b346104aa576102206147b261470b36614a44565b9261472860ff5f9d99979c969d9b9a9b9493945460a01c16614ccb565b335f52600160205260405f2060018060a01b0382165f526020526147528660405f20541015614d17565b335f52600160205260405f2060018060a01b0382165f5260205260405f2061477b878254614d5a565b905560405163652e83d760e01b815273__$69ea93bdf3b1e5da8164bfe3d9a878d765$__9c909b8c9889988d8d3360048d01614f08565b0381875af49283156146c4575f936149f2575b5060206102249394604051948580926363f88cdd60e11b82526147eb600483018a614bdc565b5af49283156146c4575f936149be575b505f83815260046020908152604091829020865181546001600160a01b03199081166001600160a01b03928316178355928801516001830180549094169082161790925591860151600283018054606089015160808a015160a0808c015160c08d015160ff60b81b90151560b81b166001600160c01b0319909516969097169590951791151590941b60ff60a01b161760ff60a81b93151560a81b939093169290921760ff60b01b93151560b01b939093169290921717905561020090600c9060e0870151600382015561010087015160048201556101208701516005820155610140870151600680830191909155610160880151600783015561018088015160088301556101a08801516009830180546001600160a01b039283166001600160a01b0319918216179091556101c08a0151600a850180549190931691161790556101e0880151600b83015592909601519501908510156149aa5760209460ff801983541691161790556040519160018060a01b0316825260018060a01b031690827f44e1ff8e67fad6b456bd43ff165ba4e9bb004370aa27a76881c6acb60dfd6dd9853393a4604051908152f35b634e487b7160e01b5f52602160045260245ffd5b9092506020813d6020116149ea575b816149da60209383614dac565b810103126104aa575191846147fb565b3d91506149cd565b6102249350614a116020916102203d8111610a6657610a578183614dac565b93506147c5565b602435906001600160a01b03821682036104aa57565b600435906001600160a01b03821682036104aa57565b6101409060031901126104aa576004356001600160a01b03811681036104aa57906024356001600160a01b03811681036104aa579060443590606435906084359060a4359060c4356001600160a01b03811681036104aa579060e4356001600160a01b03811681036104aa579061010435906101243560068110156104aa5790565b60809060031901126104aa57600435906024356001600160a01b03811681036104aa57906044359060643590565b60409060031901126104aa576004359060243590565b60e09060031901126104aa576004356001600160a01b03811681036104aa57906024356001600160a01b03811681036104aa579060443590606435906084356001600160a01b03811681036104aa579060a4359060c43560068110156104aa5790565b8054821015614b82575f5260205f2001905f90565b634e487b7160e01b5f52603260045260245ffd5b60206040818301928281528451809452019201905f5b818110614bb95750505090565b8251845260209384019390920191600101614bac565b9060068210156149aa5752565b9061020080614cc99360018060a01b03815116845260018060a01b03602082015116602085015260018060a01b03604082015116604085015260608101511515606085015260808101511515608085015260a0810151151560a085015260c0810151151560c085015260e081015160e085015261010081015161010085015261012081015161012085015261014081015161014085015261016081015161016085015261018081015161018085015260018060a01b036101a0820151166101a085015260018060a01b036101c0820151166101c08501526101e08101516101e08501520151910190614bcf565b565b15614cd257565b60405162461bcd60e51b815260206004820152601e60248201527f436f6e74726163742069732063757272656e746c792064697361626c656400006044820152606490fd5b15614d1e57565b60405162461bcd60e51b8152602060048201526014602482015273496e73756666696369656e742062616c616e636560601b6044820152606490fd5b91908203918211614d6757565b634e487b7160e01b5f52601160045260245ffd5b610220810190811067ffffffffffffffff821117614d9857604052565b634e487b7160e01b5f52604160045260245ffd5b90601f8019910116810190811067ffffffffffffffff821117614d9857604052565b51906001600160a01b03821682036104aa57565b519081151582036104aa57565b90816102209103126104aa5761020060405191614e0b83614d7b565b614e1481614dce565b8352614e2260208201614dce565b6020840152614e3360408201614dce565b6040840152614e4460608201614de2565b6060840152614e5560808201614de2565b6080840152614e6660a08201614de2565b60a0840152614e7760c08201614de2565b60c084015260e081015160e0840152610100810151610100840152610120810151610120840152610140810151610140840152610160810151610160840152610180810151610180840152614ecf6101a08201614dce565b6101a0840152614ee26101c08201614dce565b6101c08401526101e08101516101e0840152015160068110156104aa5761020082015290565b6001600160a01b039182168152918116602083015291821660408201526060810192909252608082019290925260a081019290925260c082019290925291811660e083015290911661010082015261012081019190915261016081019291614cc9916101400190614bcf565b15614f7b57565b60405162461bcd60e51b815260206004820152602b60248201527f4f6e6c79206120636f756e74657270617274792063616e206d616b652064656160448201526a1b081d1ddbc81cda59195960aa1b6064820152608490fd5b81546001600160a01b0390811682526001830154811660208301526002830154808216604084015260ff60a082811c82161515606086015260a883901c82161515608086015260b083901c821615159085015260b89190911c8116151560c0840152600384015460e084015260048401546101008401526005840154610120840152600684015461014084015260078401546101608401526008840154610180840152600984015482166101a0840152600a8401549091166101c0830152600b8301546101e0830152600c9092015461022082019392614cc992610200019116614bcf565b156150c057565b60405162461bcd60e51b815260206004820152602a60248201527f43616e74206d61646520616c72656164792074776f207369646564206465616c604482015269081d1ddbc81cda59195960b21b6064820152608490fd5b1561511f57565b60405162461bcd60e51b815260206004820152603160248201527f4f6e6c79206120696e69746174696f72206f72206d65646961746f722063616e6044820152700818d85b1b081d1a1a5cc81b595d1a1bd9607a1b6064820152608490fd5b6001600160a01b039182168152911660208201526040810191909152606081019190915260800190565b6001600160a01b0391821681529181166020830152918216604082015260608101929092525f6080830181905260a083019390935260c0820183905290921660e083015261010082015261012081019190915261016081019291614cc9916101400190614bcf565b1561521757565b60405162461bcd60e51b815260206004820152602660248201527f4f6e6c7920636f756e74657270617274792063616e2063616c6c2074686973206044820152651b595d1a1bd960d21b6064820152608490fd5b1561527257565b60405162461bcd60e51b81526020600482015260166024820152751119585b081b5d5cdd081899481d1ddbc81cda59195960521b6044820152606490fd5b156152b757565b60405162461bcd60e51b815260206004820152601760248201527f4465616c206d757374206265206e6f74207369676e65640000000000000000006044820152606490fd5b1561530357565b60405162461bcd60e51b815260206004820152601760248201527f43616e7420656469742066696e6973686564206465616c0000000000000000006044820152606490fd5b91908201809211614d6757565b1561535c57565b60405162461bcd60e51b815260206004820152603460248201527f4f6e6c79206120636f756e7465727061727479206f72206d65646961746f722060448201527318d85b8818d85b1b081d1a1a5cc81b595d1a1bd960621b6064820152608490fd5b156153c557565b60405162461bcd60e51b815260206004820152602560248201527f4f6e6c7920612070617274206f6620746865206465616c2063616e2072656a6560448201526418dd081a5d60da1b6064820152608490fd5b1561541f57565b60405162461bcd60e51b815260206004820152602660248201527f4f6e6c79206120706172747920746f20746865206465616c2063616e2072656a6044820152651958dd081a5d60d21b6064820152608490fd5b1561547a57565b60405162461bcd60e51b815260206004820152601860248201527f4465616c206d757374206265206e6f74207374617274656400000000000000006044820152606490fd5b9082156155eb576001600160a01b0381168061552e57505f808080866001600160a01b03871682f1156146c4577e1a143d5b175701cb3246058ffac3d63945192075a926ff73a19930f09d587a915b604080519485526001600160a01b039283166020860152911692a2600190565b60405163a9059cbb60e01b81526001600160a01b0384166004820152602481018590529290602090849060449082905f905af180156146c457615593575b7e1a143d5b175701cb3246058ffac3d63945192075a926ff73a19930f09d587a925061550e565b6020833d6020116155e3575b816155ac60209383614dac565b810103126104aa576155dd7e1a143d5b175701cb3246058ffac3d63945192075a926ff73a19930f09d587a93614de2565b5061556c565b3d915061559f565b505050600190565b5f546001600160a01b0316330361560657565b63118cdaa760e01b5f523360045260245ffdfeafbe337783658b293f1566e1790bfab9858b8cf08de944ca3cd013d4211887b85e02698c1650d6cbe1f7e8a48609d0da45ad7f5e4c13cd8b196f82965c0ab0d502d7e648dd130fc184d383e55bb126ac4c9c60e8f94bf05acdf557ba2d540b47086c61b89ef5fcdb14c243b643069c3c6a84765b27f2a696b875dddf031afb4da6af192380b5ba311ac003f57efa2be0717f0e466318c7e9cf546c4937a03d94f05d33634b730e763d232b482cf835a4481835f62d0a0973b42018a8ead4f0479f039f6754f2d286001d6bb50c1b3cc185b309e82f63077e29516a6a87e8e99da26469706673582212206c99b4b89299f29e2ea0d475e0fca2bd22e146420205e38804ae9061168c230264736f6c634300081c0033",
			"opcodes": "PUSH1 0x80 CALLVALUE PUSH2 0x1B2 JUMPI PUSH1 0x1F PUSH2 0x58FA CODESIZE DUP2 SWAP1 SUB SWAP2 DUP3 ADD PUSH1 0x1F NOT AND DUP4 ADD SWAP2 PUSH1 0x1 PUSH1 0x1 PUSH1 0x40 SHL SUB DUP4 GT DUP5 DUP5 LT OR PUSH2 0x1B6 JUMPI DUP1 DUP5 SWAP3 PUSH1 0x40 SWAP5 DUP6 MSTORE DUP4 CODECOPY DUP2 ADD SUB SLT PUSH2 0x1B2 JUMPI DUP1 MLOAD PUSH1 0x20 SWAP1 SWAP2 ADD MLOAD PUSH1 0x1 PUSH1 0x1 PUSH1 0xA0 SHL SUB DUP2 AND SWAP2 SWAP1 DUP3 SWAP1 SUB PUSH2 0x1B2 JUMPI CALLER ISZERO PUSH2 0x19F JUMPI PUSH0 DUP1 SLOAD PUSH1 0x40 MLOAD SWAP2 CALLER SWAP1 PUSH1 0x1 PUSH1 0x1 PUSH1 0xA0 SHL SUB DUP4 AND SWAP1 PUSH32 0x8BE0079C531659141344CD1FD0A4F28419497F9722A3DAAFE3B4186F6B6457E0 SWAP1 DUP1 LOG3 PUSH1 0x1 PUSH1 0x1 PUSH1 0xA8 SHL SUB NOT AND CALLER PUSH1 0xFF PUSH1 0xA0 SHL NOT AND OR PUSH1 0x1 PUSH1 0xA0 SHL OR PUSH0 SSTORE DUP3 ISZERO PUSH2 0x145 JUMPI POP PUSH5 0x2540BE400 DUP2 GT PUSH2 0xF6 JUMPI PUSH1 0x2 SSTORE PUSH1 0x1 DUP1 PUSH1 0xA0 SHL SUB NOT PUSH1 0x3 SLOAD AND OR PUSH1 0x3 SSTORE PUSH0 PUSH1 0x8 SSTORE PUSH0 PUSH1 0x9 SSTORE PUSH0 PUSH1 0xA SSTORE PUSH0 PUSH1 0xB SSTORE PUSH1 0x40 MLOAD PUSH2 0x572F SWAP1 DUP2 PUSH2 0x1CB DUP3 CODECOPY RETURN JUMPDEST PUSH1 0x40 MLOAD PUSH3 0x461BCD PUSH1 0xE5 SHL DUP2 MSTORE PUSH1 0x20 PUSH1 0x4 DUP3 ADD MSTORE PUSH1 0x21 PUSH1 0x24 DUP3 ADD MSTORE PUSH32 0x436F6D6D697373696F6E2070657263656E7461676520697320746F6F20686967 PUSH1 0x44 DUP3 ADD MSTORE PUSH1 0xD PUSH1 0xFB SHL PUSH1 0x64 DUP3 ADD MSTORE PUSH1 0x84 SWAP1 REVERT JUMPDEST PUSH3 0x461BCD PUSH1 0xE5 SHL DUP2 MSTORE PUSH1 0x20 PUSH1 0x4 DUP3 ADD MSTORE PUSH1 0x2F PUSH1 0x24 DUP3 ADD MSTORE PUSH32 0x436F6D6D697373696F6E20726563697069656E742063616E6E6F742062652074 PUSH1 0x44 DUP3 ADD MSTORE PUSH15 0x6865207A65726F2061646472657373 PUSH1 0x88 SHL PUSH1 0x64 DUP3 ADD MSTORE PUSH1 0x84 SWAP1 REVERT JUMPDEST PUSH4 0x1E4FBDF7 PUSH1 0xE0 SHL PUSH0 MSTORE PUSH0 PUSH1 0x4 MSTORE PUSH1 0x24 PUSH0 REVERT JUMPDEST PUSH0 DUP1 REVERT JUMPDEST PUSH4 0x4E487B71 PUSH1 0xE0 SHL PUSH0 MSTORE PUSH1 0x41 PUSH1 0x4 MSTORE PUSH1 0x24 PUSH0 REVERT INVALID PUSH1 0x80 PUSH1 0x40 MSTORE PUSH1 0x4 CALLDATASIZE LT ISZERO PUSH2 0x11 JUMPI PUSH0 DUP1 REVERT JUMPDEST PUSH0 PUSH0 CALLDATALOAD PUSH1 0xE0 SHR DUP1 PUSH3 0x7E8BD3 EQ PUSH2 0x46F7 JUMPI DUP1 PUSH4 0x6FD154A EQ PUSH2 0x46CF JUMPI DUP1 PUSH4 0x934DA22 EQ PUSH2 0x4317 JUMPI DUP1 PUSH4 0x114AEACC EQ PUSH2 0x4182 JUMPI DUP1 PUSH4 0x15F8A314 EQ PUSH2 0x403C JUMPI DUP1 PUSH4 0x17B52B50 EQ PUSH2 0x3FBC JUMPI DUP1 PUSH4 0x19E9BFC8 EQ PUSH2 0x3F74 JUMPI DUP1 PUSH4 0x28D5A050 EQ PUSH2 0x3A97 JUMPI DUP1 PUSH4 0x367EDD32 EQ PUSH2 0x3A18 JUMPI DUP1 PUSH4 0x3B063AA0 EQ PUSH2 0x39A6 JUMPI DUP1 PUSH4 0x3F3E8212 EQ PUSH2 0x3811 JUMPI DUP1 PUSH4 0x4187129C EQ PUSH2 0x374A JUMPI DUP1 PUSH4 0x41B3A0D9 EQ PUSH2 0x3725 JUMPI DUP1 PUSH4 0x442239C9 EQ PUSH2 0x36DD JUMPI DUP1 PUSH4 0x47E7EF24 EQ PUSH2 0x34C5 JUMPI DUP1 PUSH4 0x5040125B EQ PUSH2 0x333B JUMPI DUP1 PUSH4 0x51A6FAD5 EQ PUSH2 0x3192 JUMPI DUP1 PUSH4 0x51B7D535 EQ PUSH2 0x2E13 JUMPI DUP1 PUSH4 0x5379719B EQ PUSH2 0x1B14 JUMPI DUP1 PUSH4 0x5BD447AC EQ PUSH2 0x2DA1 JUMPI DUP1 PUSH4 0x63ADB66F EQ PUSH2 0x2928 JUMPI DUP1 PUSH4 0x706B14F5 EQ PUSH2 0x2202 JUMPI DUP1 PUSH4 0x70A08231 EQ PUSH2 0x21BF JUMPI DUP1 PUSH4 0x715018A6 EQ PUSH2 0x2165 JUMPI DUP1 PUSH4 0x7165E542 EQ PUSH2 0x1F7B JUMPI DUP1 PUSH4 0x723A3816 EQ PUSH2 0x1EF9 JUMPI DUP1 PUSH4 0x80CCB070 EQ PUSH2 0x1E20 JUMPI DUP1 PUSH4 0x81CD872A EQ PUSH2 0x1CF5 JUMPI DUP1 PUSH4 0x894BA833 EQ PUSH2 0x1C7D JUMPI DUP1 PUSH4 0x899A3FFD EQ PUSH2 0x1C5F JUMPI DUP1 PUSH4 0x8DA5CB5B EQ PUSH2 0x1C38 JUMPI DUP1 PUSH4 0x8DEEA5FB EQ PUSH2 0x1B32 JUMPI DUP1 PUSH4 0x966D1F1D EQ PUSH2 0x1B14 JUMPI DUP1 PUSH4 0xB0EAA1F6 EQ PUSH2 0x1ABD JUMPI DUP1 PUSH4 0xB4A99CCB EQ PUSH2 0x16F8 JUMPI DUP1 PUSH4 0xBB06C1A4 EQ PUSH2 0x1370 JUMPI DUP1 PUSH4 0xBEABACC8 EQ PUSH2 0x12BB JUMPI DUP1 PUSH4 0xC23F001F EQ PUSH2 0x59F JUMPI DUP1 PUSH4 0xC6006993 EQ PUSH2 0x11E5 JUMPI DUP1 PUSH4 0xC99B8965 EQ PUSH2 0xDBD JUMPI DUP1 PUSH4 0xCFADF6C7 EQ PUSH2 0x718 JUMPI DUP1 PUSH4 0xE08560A4 EQ PUSH2 0x6FA JUMPI DUP1 PUSH4 0xED50AB8A EQ PUSH2 0x6FA JUMPI DUP1 PUSH4 0xF2FDE38B EQ PUSH2 0x674 JUMPI DUP1 PUSH4 0xF3FEF3A3 EQ PUSH2 0x5F2 JUMPI DUP1 PUSH4 0xF7888AEC EQ PUSH2 0x59F JUMPI PUSH4 0xFAA86B4A EQ PUSH2 0x21E JUMPI PUSH0 DUP1 REVERT JUMPDEST CALLVALUE PUSH2 0x59C JUMPI PUSH1 0x20 CALLDATASIZE PUSH1 0x3 NOT ADD SLT PUSH2 0x59C JUMPI PUSH1 0x4 CALLDATALOAD DUP1 DUP3 MSTORE PUSH1 0x4 PUSH1 0x20 MSTORE PUSH1 0x40 DUP3 KECCAK256 PUSH1 0x1 DUP2 ADD SWAP1 PUSH1 0x1 DUP1 PUSH1 0xA0 SHL SUB DUP3 SLOAD AND CALLER EQ DUP1 ISZERO PUSH2 0x586 JUMPI JUMPDEST ISZERO PUSH2 0x529 JUMPI DUP4 PUSH20 0x0 DUP1 EXTCODESIZE ISZERO PUSH2 0x525 JUMPI DUP2 PUSH1 0x40 MLOAD DUP1 SWAP3 PUSH4 0x252A867 PUSH1 0xE5 SHL DUP3 MSTORE DUP2 DUP1 PUSH2 0x297 DUP9 PUSH1 0x4 DUP4 ADD PUSH2 0x4FD4 JUMP JUMPDEST SUB SWAP2 GAS DELEGATECALL DUP1 ISZERO PUSH2 0x51A JUMPI PUSH2 0x501 JUMPI JUMPDEST POP POP PUSH1 0x5 DUP2 ADD SLOAD PUSH1 0x9 DUP3 ADD SLOAD PUSH1 0x6 DUP4 ADD SLOAD PUSH1 0xA DUP5 ADD SLOAD PUSH1 0x7 DUP6 ADD SLOAD PUSH1 0x8 DUP7 ADD SLOAD PUSH1 0x40 MLOAD PUSH4 0x1C8F0847 PUSH1 0xE0 SHL DUP2 MSTORE PUSH1 0x4 DUP2 ADD DUP8 SWAP1 MSTORE PUSH1 0x24 DUP2 ADD SWAP3 SWAP1 SWAP3 MSTORE PUSH1 0x1 PUSH1 0x1 PUSH1 0xA0 SHL SUB SWAP5 DUP6 AND SWAP8 SWAP6 SWAP7 SWAP2 SWAP6 SWAP5 PUSH20 0x0 SWAP4 AND SWAP1 PUSH1 0x20 DUP8 PUSH1 0x44 DUP2 DUP8 GAS DELEGATECALL SWAP7 DUP8 ISZERO PUSH2 0x4F6 JUMPI DUP12 SWAP8 PUSH2 0x4C1 JUMPI JUMPDEST POP PUSH1 0x20 SWAP1 PUSH1 0x44 PUSH1 0x40 MLOAD DUP1 SWAP7 DUP2 SWAP4 PUSH4 0x1C8F0847 PUSH1 0xE0 SHL DUP4 MSTORE DUP10 PUSH1 0x4 DUP5 ADD MSTORE PUSH1 0x24 DUP4 ADD MSTORE GAS DELEGATECALL SWAP3 DUP4 ISZERO PUSH2 0x4B6 JUMPI DUP10 SWAP11 SWAP10 SWAP9 SWAP10 SWAP4 PUSH2 0x474 JUMPI JUMPDEST POP DUP2 SLOAD DUP9 SWAP5 SWAP4 SWAP3 SWAP2 SWAP1 PUSH1 0x1 PUSH1 0x1 PUSH1 0xA0 SHL SUB AND DUP11 PUSH2 0x375 DUP10 DUP12 PUSH2 0x4D5A JUMP JUMPDEST SWAP1 PUSH2 0x37F SWAP3 PUSH2 0x54BF JUMP JUMPDEST POP PUSH1 0x2 DUP3 ADD DUP1 SLOAD SWAP1 SWAP11 PUSH2 0x39D SWAP2 DUP10 SWAP2 SWAP1 PUSH1 0x1 PUSH1 0x1 PUSH1 0xA0 SHL SUB AND PUSH2 0x54BF JUMP JUMPDEST POP DUP6 SLOAD PUSH1 0x1 PUSH1 0x1 PUSH1 0xA0 SHL SUB AND DUP2 PUSH2 0x3B4 DUP7 DUP1 PUSH2 0x4D5A JUMP JUMPDEST SWAP1 PUSH2 0x3BE SWAP3 PUSH2 0x54BF JUMP JUMPDEST POP DUP10 SLOAD PUSH2 0x3D5 SWAP2 DUP5 SWAP2 PUSH1 0x1 PUSH1 0x1 PUSH1 0xA0 SHL SUB AND PUSH2 0x54BF JUMP JUMPDEST POP SLOAD SWAP4 SLOAD SWAP8 SLOAD PUSH1 0x40 MLOAD PUSH1 0x1 PUSH1 0x1 PUSH1 0xA0 SHL SUB SWAP10 DUP11 AND SWAP11 SWAP6 DUP11 AND SWAP10 SWAP1 SWAP2 AND SWAP7 DUP11 SWAP7 DUP11 SWAP7 DUP9 SWAP4 DUP9 SWAP4 SWAP2 SWAP3 SWAP1 SWAP2 DUP3 SWAP2 PUSH2 0x40C SWAP2 CALLER DUP15 DUP6 PUSH2 0x517E JUMP JUMPDEST SUB PUSH0 MLOAD PUSH1 0x20 PUSH2 0x569A PUSH0 CODECOPY PUSH0 MLOAD SWAP1 PUSH0 MSTORE SWAP2 LOG4 PUSH1 0x40 MLOAD SWAP2 DUP3 SWAP2 PUSH2 0x42F SWAP2 CALLER DUP10 DUP6 PUSH2 0x517E JUMP JUMPDEST SUB PUSH0 MLOAD PUSH1 0x20 PUSH2 0x561A PUSH0 CODECOPY PUSH0 MLOAD SWAP1 PUSH0 MSTORE SWAP2 LOG4 PUSH1 0x40 DUP1 MLOAD CALLER DUP2 MSTORE PUSH1 0x1 PUSH1 0x1 PUSH1 0xA0 SHL SUB SWAP3 SWAP1 SWAP3 AND PUSH1 0x20 DUP4 ADD MSTORE PUSH0 MLOAD PUSH1 0x20 PUSH2 0x567A PUSH0 CODECOPY PUSH0 MLOAD SWAP1 PUSH0 MSTORE SWAP2 LOG4 PUSH1 0x40 MLOAD PUSH1 0x1 DUP2 MSTORE PUSH1 0x20 SWAP1 RETURN JUMPDEST SWAP4 SWAP3 POP SWAP1 SWAP7 POP PUSH1 0x20 DUP4 RETURNDATASIZE PUSH1 0x20 GT PUSH2 0x4AE JUMPI JUMPDEST DUP2 PUSH2 0x493 PUSH1 0x20 SWAP4 DUP4 PUSH2 0x4DAC JUMP JUMPDEST DUP2 ADD SUB SLT PUSH2 0x4AA JUMPI DUP9 SWAP7 DUP8 SWAP4 MLOAD SWAP3 SWAP4 SWAP2 SWAP1 SWAP2 PUSH2 0x358 JUMP JUMPDEST PUSH0 DUP1 REVERT JUMPDEST RETURNDATASIZE SWAP2 POP PUSH2 0x486 JUMP JUMPDEST PUSH1 0x40 MLOAD RETURNDATASIZE DUP13 DUP3 RETURNDATACOPY RETURNDATASIZE SWAP1 REVERT JUMPDEST SWAP1 SWAP7 POP PUSH1 0x20 DUP2 RETURNDATASIZE PUSH1 0x20 GT PUSH2 0x4EE JUMPI JUMPDEST DUP2 PUSH2 0x4DD PUSH1 0x20 SWAP4 DUP4 PUSH2 0x4DAC JUMP JUMPDEST DUP2 ADD SUB SLT PUSH2 0x4AA JUMPI MLOAD SWAP6 PUSH1 0x20 PUSH2 0x322 JUMP JUMPDEST RETURNDATASIZE SWAP2 POP PUSH2 0x4D0 JUMP JUMPDEST PUSH1 0x40 MLOAD RETURNDATASIZE DUP14 DUP3 RETURNDATACOPY RETURNDATASIZE SWAP1 REVERT JUMPDEST DUP2 PUSH2 0x50B SWAP2 PUSH2 0x4DAC JUMP JUMPDEST PUSH2 0x516 JUMPI DUP4 PUSH0 PUSH2 0x2A6 JUMP JUMPDEST DUP4 DUP1 REVERT JUMPDEST PUSH1 0x40 MLOAD RETURNDATASIZE DUP5 DUP3 RETURNDATACOPY RETURNDATASIZE SWAP1 REVERT JUMPDEST POP DUP1 REVERT JUMPDEST PUSH1 0x40 MLOAD PUSH3 0x461BCD PUSH1 0xE5 SHL DUP2 MSTORE PUSH1 0x20 PUSH1 0x4 DUP3 ADD MSTORE PUSH1 0x2F PUSH1 0x24 DUP3 ADD MSTORE PUSH32 0x4F6E6C79206120636F756E7465727061727479206F72206D65646961746F7220 PUSH1 0x44 DUP3 ADD MSTORE PUSH15 0x18D85B8818D85B98D95B081919585B PUSH1 0x8A SHL PUSH1 0x64 DUP3 ADD MSTORE PUSH1 0x84 SWAP1 REVERT JUMPDEST POP PUSH1 0x2 DUP2 ADD SLOAD PUSH1 0x1 PUSH1 0x1 PUSH1 0xA0 SHL SUB AND CALLER EQ PUSH2 0x256 JUMP JUMPDEST DUP1 REVERT JUMPDEST POP CALLVALUE PUSH2 0x59C JUMPI PUSH1 0x40 CALLDATASIZE PUSH1 0x3 NOT ADD SLT PUSH2 0x59C JUMPI PUSH1 0x40 PUSH2 0x5BB PUSH2 0x4A2E JUMP JUMPDEST SWAP2 PUSH2 0x5C4 PUSH2 0x4A18 JUMP JUMPDEST SWAP3 PUSH1 0x1 DUP1 PUSH1 0xA0 SHL SUB AND DUP2 MSTORE PUSH1 0x1 PUSH1 0x20 MSTORE KECCAK256 SWAP1 PUSH1 0x1 DUP1 PUSH1 0xA0 SHL SUB AND PUSH0 MSTORE PUSH1 0x20 MSTORE PUSH1 0x20 PUSH1 0x40 PUSH0 KECCAK256 SLOAD PUSH1 0x40 MLOAD SWAP1 DUP2 MSTORE RETURN JUMPDEST POP CALLVALUE PUSH2 0x59C JUMPI PUSH1 0x40 CALLDATASIZE PUSH1 0x3 NOT ADD SLT PUSH2 0x59C JUMPI PUSH2 0x66A PUSH1 0x20 SWAP2 PUSH2 0x612 PUSH2 0x4A2E JUMP JUMPDEST PUSH1 0x40 PUSH1 0x24 CALLDATALOAD SWAP3 CALLER DUP2 MSTORE PUSH1 0x1 DUP7 MSTORE DUP2 DUP2 KECCAK256 PUSH1 0x1 DUP1 PUSH1 0xA0 SHL SUB DUP5 AND PUSH0 MSTORE DUP7 MSTORE PUSH2 0x63E DUP5 DUP4 PUSH0 KECCAK256 SLOAD LT ISZERO PUSH2 0x4D17 JUMP JUMPDEST CALLER DUP2 MSTORE PUSH1 0x1 DUP7 MSTORE KECCAK256 PUSH1 0x1 DUP1 PUSH1 0xA0 SHL SUB DUP3 AND PUSH0 MSTORE DUP5 MSTORE PUSH1 0x40 PUSH0 KECCAK256 PUSH2 0x662 DUP4 DUP3 SLOAD PUSH2 0x4D5A JUMP JUMPDEST SWAP1 SSTORE CALLER PUSH2 0x54BF JUMP JUMPDEST PUSH1 0x40 MLOAD SWAP1 ISZERO ISZERO DUP2 MSTORE RETURN JUMPDEST POP CALLVALUE PUSH2 0x59C JUMPI PUSH1 0x20 CALLDATASIZE PUSH1 0x3 NOT ADD SLT PUSH2 0x59C JUMPI PUSH2 0x68E PUSH2 0x4A2E JUMP JUMPDEST PUSH2 0x696 PUSH2 0x55F3 JUMP JUMPDEST PUSH1 0x1 PUSH1 0x1 PUSH1 0xA0 SHL SUB AND DUP1 ISZERO PUSH2 0x6E6 JUMPI DUP2 SLOAD PUSH1 0x1 PUSH1 0x1 PUSH1 0xA0 SHL SUB NOT DUP2 AND DUP3 OR DUP4 SSTORE PUSH1 0x1 PUSH1 0x1 PUSH1 0xA0 SHL SUB AND PUSH32 0x8BE0079C531659141344CD1FD0A4F28419497F9722A3DAAFE3B4186F6B6457E0 DUP4 DUP1 LOG3 DUP1 RETURN JUMPDEST PUSH4 0x1E4FBDF7 PUSH1 0xE0 SHL DUP3 MSTORE PUSH1 0x4 DUP3 SWAP1 MSTORE PUSH1 0x24 DUP3 REVERT JUMPDEST POP CALLVALUE PUSH2 0x59C JUMPI DUP1 PUSH1 0x3 NOT CALLDATASIZE ADD SLT PUSH2 0x59C JUMPI PUSH1 0x20 PUSH1 0x9 SLOAD PUSH1 0x40 MLOAD SWAP1 DUP2 MSTORE RETURN JUMPDEST POP PUSH2 0x722 CALLDATASIZE PUSH2 0x4A44 JUMP JUMPDEST SWAP2 DUP10 SWAP8 SWAP10 SWAP4 DUP10 SWAP6 DUP13 PUSH1 0xFF DUP2 SLOAD PUSH1 0xA0 SHR AND PUSH2 0x73B DUP2 PUSH2 0x4CCB JUMP JUMPDEST CALLER DUP3 MSTORE PUSH1 0x1 PUSH1 0x20 SWAP1 DUP2 MSTORE PUSH1 0x40 DUP1 DUP5 KECCAK256 PUSH1 0x1 PUSH1 0x1 PUSH1 0xA0 SHL SUB DUP8 AND PUSH0 SWAP1 DUP2 MSTORE SWAP3 MSTORE SWAP1 KECCAK256 SLOAD DUP15 DUP2 LT PUSH2 0xA6D JUMPI JUMPDEST POP POP SWAP1 PUSH2 0x220 SWAP9 PUSH1 0x40 PUSH2 0x7D1 SWAP8 SWAP7 SWAP6 SWAP5 SWAP4 CALLER DUP2 MSTORE PUSH1 0x1 PUSH1 0x20 MSTORE KECCAK256 PUSH1 0x1 DUP1 PUSH1 0xA0 SHL SUB DUP5 AND PUSH0 MSTORE PUSH1 0x20 MSTORE DUP14 PUSH2 0x79D PUSH1 0x40 PUSH0 KECCAK256 SWAP2 DUP3 SLOAD PUSH2 0x4D5A JUMP JUMPDEST SWAP1 SSTORE PUSH20 0x0 SWAP11 PUSH1 0x40 MLOAD SWAP15 DUP16 SWAP11 DUP12 SWAP11 PUSH4 0x652E83D7 PUSH1 0xE0 SHL DUP13 MSTORE CALLER PUSH1 0x4 DUP14 ADD PUSH2 0x4F08 JUMP JUMPDEST SUB DUP2 DUP5 GAS DELEGATECALL SWAP1 DUP2 ISZERO PUSH2 0xA2E JUMPI PUSH2 0x224 SWAP5 DUP7 SWAP3 PUSH2 0xA39 JUMPI JUMPDEST POP PUSH1 0x20 SWAP1 PUSH1 0x40 MLOAD SWAP6 DUP7 DUP1 SWAP3 PUSH4 0x63F88CDD PUSH1 0xE1 SHL DUP3 MSTORE PUSH2 0x80A PUSH1 0x4 DUP4 ADD DUP8 PUSH2 0x4BDC JUMP JUMPDEST GAS DELEGATECALL SWAP4 DUP5 ISZERO PUSH2 0xA2E JUMPI DUP6 SWAP5 PUSH2 0x9FA JUMPI JUMPDEST POP DUP4 DUP6 MSTORE PUSH1 0x4 PUSH1 0x20 SWAP1 DUP2 MSTORE PUSH1 0x40 DUP1 DUP8 KECCAK256 DUP4 MLOAD DUP2 SLOAD PUSH1 0x1 PUSH1 0x1 PUSH1 0xA0 SHL SUB SWAP2 DUP3 AND PUSH1 0x1 PUSH1 0x1 PUSH1 0xA0 SHL SUB NOT SWAP2 DUP3 AND OR DUP4 SSTORE SWAP4 DUP6 ADD MLOAD PUSH1 0x1 DUP4 ADD DUP1 SLOAD SWAP2 DUP4 AND SWAP2 SWAP1 SWAP6 AND OR SWAP1 SWAP4 SSTORE SWAP1 DUP4 ADD MLOAD PUSH1 0x2 DUP3 ADD DUP1 SLOAD PUSH1 0x60 DUP7 ADD MLOAD PUSH1 0xFF PUSH1 0xA0 SHL SWAP1 ISZERO ISZERO PUSH1 0xA0 SHL AND SWAP3 SWAP1 SWAP5 AND PUSH1 0x1 PUSH1 0x1 PUSH1 0xA8 SHL SUB NOT SWAP1 SWAP5 AND SWAP4 SWAP1 SWAP4 OR OR DUP3 SSTORE PUSH2 0x200 SWAP2 PUSH1 0xC SWAP2 SWAP1 PUSH2 0x8F5 SWAP1 JUMPDEST PUSH1 0x80 DUP7 ADD MLOAD DUP2 SLOAD PUSH1 0xFF PUSH1 0xA8 SHL NOT AND SWAP1 ISZERO ISZERO PUSH1 0xA8 SHL PUSH1 0xFF PUSH1 0xA8 SHL AND OR DUP2 SSTORE PUSH1 0xA0 DUP7 ADD MLOAD DUP2 SLOAD PUSH1 0xFF PUSH1 0xB0 SHL NOT AND SWAP1 ISZERO ISZERO PUSH1 0xB0 SHL PUSH1 0xFF PUSH1 0xB0 SHL AND OR DUP2 SSTORE PUSH1 0xC0 DUP7 ADD MLOAD DUP2 SLOAD PUSH1 0xFF PUSH1 0xB8 SHL NOT AND SWAP1 ISZERO ISZERO PUSH1 0xB8 SHL PUSH1 0xFF PUSH1 0xB8 SHL AND OR SWAP1 SSTORE JUMP JUMPDEST PUSH1 0xE0 DUP5 ADD MLOAD PUSH1 0x3 DUP3 ADD SSTORE PUSH2 0x100 DUP5 ADD MLOAD PUSH1 0x4 DUP3 ADD SSTORE PUSH2 0x120 DUP5 ADD MLOAD PUSH1 0x5 DUP3 ADD SSTORE PUSH2 0x140 DUP5 ADD MLOAD PUSH1 0x6 DUP1 DUP4 ADD SWAP2 SWAP1 SWAP2 SSTORE PUSH2 0x160 DUP6 ADD MLOAD PUSH1 0x7 DUP4 ADD SSTORE PUSH2 0x180 DUP6 ADD MLOAD PUSH1 0x8 DUP4 ADD SSTORE PUSH2 0x1A0 DUP6 ADD MLOAD PUSH1 0x9 DUP4 ADD DUP1 SLOAD PUSH1 0x1 PUSH1 0x1 PUSH1 0xA0 SHL SUB SWAP3 DUP4 AND PUSH1 0x1 PUSH1 0x1 PUSH1 0xA0 SHL SUB NOT SWAP2 DUP3 AND OR SWAP1 SWAP2 SSTORE PUSH2 0x1C0 DUP8 ADD MLOAD PUSH1 0xA DUP6 ADD DUP1 SLOAD SWAP2 SWAP1 SWAP4 AND SWAP2 AND OR SWAP1 SSTORE PUSH2 0x1E0 DUP6 ADD MLOAD PUSH1 0xB DUP4 ADD SSTORE SWAP3 SWAP1 SWAP4 ADD MLOAD SWAP3 ADD SWAP2 SWAP1 DUP2 LT ISZERO PUSH2 0x9E6 JUMPI PUSH1 0x20 SWAP6 POP PUSH1 0xFF DUP1 NOT DUP4 SLOAD AND SWAP2 AND OR SWAP1 SSTORE PUSH1 0x40 MLOAD SWAP2 PUSH1 0x1 DUP1 PUSH1 0xA0 SHL SUB AND DUP3 MSTORE PUSH1 0x1 DUP1 PUSH1 0xA0 SHL SUB AND SWAP1 DUP3 PUSH32 0x44E1FF8E67FAD6B456BD43FF165BA4E9BB004370AA27A76881C6ACB60DFD6DD9 DUP6 CALLER SWAP4 LOG4 PUSH1 0x40 MLOAD SWAP1 DUP2 MSTORE RETURN JUMPDEST PUSH4 0x4E487B71 PUSH1 0xE0 SHL DUP7 MSTORE PUSH1 0x21 PUSH1 0x4 MSTORE PUSH1 0x24 DUP7 REVERT JUMPDEST SWAP1 SWAP4 POP PUSH1 0x20 DUP2 RETURNDATASIZE PUSH1 0x20 GT PUSH2 0xA26 JUMPI JUMPDEST DUP2 PUSH2 0xA16 PUSH1 0x20 SWAP4 DUP4 PUSH2 0x4DAC JUMP JUMPDEST DUP2 ADD SUB SLT PUSH2 0x4AA JUMPI MLOAD SWAP3 PUSH0 PUSH2 0x81A JUMP JUMPDEST RETURNDATASIZE SWAP2 POP PUSH2 0xA09 JUMP JUMPDEST PUSH1 0x40 MLOAD RETURNDATASIZE DUP8 DUP3 RETURNDATACOPY RETURNDATASIZE SWAP1 REVERT JUMPDEST PUSH1 0x20 SWAP2 SWAP3 POP PUSH2 0xA5F SWAP1 PUSH2 0x220 RETURNDATASIZE DUP2 GT PUSH2 0xA66 JUMPI JUMPDEST PUSH2 0xA57 DUP2 DUP4 PUSH2 0x4DAC JUMP JUMPDEST DUP2 ADD SWAP1 PUSH2 0x4DEF JUMP JUMPDEST SWAP2 SWAP1 PUSH2 0x7E8 JUMP JUMPDEST POP RETURNDATASIZE PUSH2 0xA4D JUMP JUMPDEST SWAP1 SWAP8 POP PUSH2 0xA8B SWAP3 SWAP7 SWAP6 SWAP5 SWAP4 SWAP9 POP PUSH2 0xA85 SWAP2 POP DUP14 PUSH2 0x4D5A JUMP JUMPDEST SWAP6 PUSH2 0x4CCB JUMP JUMPDEST DUP5 ISZERO PUSH2 0xD69 JUMPI PUSH1 0x2 SLOAD SWAP6 PUSH1 0x40 MLOAD SWAP7 PUSH4 0x1C8F0847 PUSH1 0xE0 SHL DUP9 MSTORE DUP7 PUSH1 0x4 DUP10 ADD MSTORE PUSH1 0x24 DUP9 ADD MSTORE PUSH1 0x20 DUP8 PUSH1 0x44 DUP2 PUSH20 0x0 GAS DELEGATECALL SWAP7 DUP8 ISZERO PUSH2 0xD5E JUMPI DUP14 SWAP8 PUSH2 0xD2A JUMPI JUMPDEST POP PUSH1 0x1 PUSH1 0x1 PUSH1 0xA0 SHL SUB DUP2 AND SWAP5 DUP6 PUSH2 0xBDB JUMPI PUSH2 0xAF4 DUP9 DUP9 PUSH2 0x5348 JUMP JUMPDEST CALLVALUE SUB PUSH2 0xB87 JUMPI PUSH2 0x220 SWAP9 PUSH1 0x40 DUP16 DUP14 SWAP10 DUP16 SWAP12 SWAP10 PUSH2 0x7D1 SWAP11 CALLER DUP5 MSTORE PUSH1 0x1 PUSH1 0x20 MSTORE DUP5 DUP5 KECCAK256 PUSH0 DUP1 MSTORE PUSH1 0x20 MSTORE DUP5 PUSH0 KECCAK256 PUSH2 0xB29 DUP5 DUP3 SLOAD PUSH2 0x5348 JUMP JUMPDEST SWAP1 SSTORE PUSH1 0x1 DUP1 PUSH1 0xA0 SHL SUB PUSH1 0x3 SLOAD AND DUP5 MSTORE PUSH1 0x1 PUSH1 0x20 MSTORE DUP5 DUP5 KECCAK256 PUSH0 DUP1 MSTORE PUSH1 0x20 MSTORE DUP5 PUSH0 KECCAK256 PUSH2 0xB54 DUP3 DUP3 SLOAD PUSH2 0x5348 JUMP JUMPDEST SWAP1 SSTORE JUMPDEST DUP5 MLOAD SWAP3 DUP4 MSTORE PUSH1 0x20 DUP4 ADD MSTORE DUP4 DUP3 ADD MSTORE PUSH0 MLOAD PUSH1 0x20 PUSH2 0x565A PUSH0 CODECOPY PUSH0 MLOAD SWAP1 PUSH0 MSTORE PUSH1 0x60 CALLER SWAP3 LOG2 SWAP3 SWAP4 SWAP5 SWAP6 SWAP7 SWAP8 POP DUP2 SWAP11 POP PUSH2 0x765 JUMP JUMPDEST PUSH1 0x40 MLOAD PUSH3 0x461BCD PUSH1 0xE5 SHL DUP2 MSTORE PUSH1 0x20 PUSH1 0x4 DUP3 ADD MSTORE PUSH1 0x26 PUSH1 0x24 DUP3 ADD MSTORE PUSH32 0x4D61696E6E657420746F6B656E206465706F73697420616D6F756E74206D6973 PUSH1 0x44 DUP3 ADD MSTORE PUSH6 0x36B0BA31B417 PUSH1 0xD1 SHL PUSH1 0x64 DUP3 ADD MSTORE PUSH1 0x84 SWAP1 REVERT JUMPDEST DUP14 PUSH2 0xBE6 DUP10 DUP10 PUSH2 0x5348 JUMP JUMPDEST PUSH1 0x40 MLOAD SWAP1 PUSH4 0x23B872DD PUSH1 0xE0 SHL DUP3 MSTORE CALLER PUSH1 0x4 DUP4 ADD MSTORE ADDRESS PUSH1 0x24 DUP4 ADD MSTORE PUSH1 0x44 DUP3 ADD MSTORE PUSH1 0x20 DUP2 PUSH1 0x64 DUP2 DUP6 DUP13 GAS CALL SWAP2 DUP3 ISZERO PUSH2 0xD1E JUMPI SWAP2 PUSH2 0xCE0 JUMPI JUMPDEST POP ISZERO PUSH2 0xC83 JUMPI PUSH2 0x220 SWAP9 PUSH1 0x40 DUP16 DUP14 SWAP10 DUP16 SWAP12 SWAP10 PUSH2 0x7D1 SWAP11 CALLER DUP5 MSTORE PUSH1 0x1 PUSH1 0x20 MSTORE DUP5 DUP5 KECCAK256 DUP3 PUSH0 MSTORE PUSH1 0x20 MSTORE DUP5 PUSH0 KECCAK256 PUSH2 0xC51 DUP5 DUP3 SLOAD PUSH2 0x5348 JUMP JUMPDEST SWAP1 SSTORE PUSH1 0x1 DUP1 PUSH1 0xA0 SHL SUB PUSH1 0x3 SLOAD AND DUP5 MSTORE PUSH1 0x1 PUSH1 0x20 MSTORE DUP5 DUP5 KECCAK256 DUP3 PUSH0 MSTORE PUSH1 0x20 MSTORE DUP5 PUSH0 KECCAK256 PUSH2 0xC7C DUP3 DUP3 SLOAD PUSH2 0x5348 JUMP JUMPDEST SWAP1 SSTORE PUSH2 0xB57 JUMP JUMPDEST PUSH1 0x40 MLOAD PUSH3 0x461BCD PUSH1 0xE5 SHL DUP2 MSTORE PUSH1 0x20 PUSH1 0x4 DUP3 ADD MSTORE PUSH1 0x2F PUSH1 0x24 DUP3 ADD MSTORE PUSH32 0x436F6E74726163742068617320746F6F206C6F7720616C6C6F77616E63652074 PUSH1 0x44 DUP3 ADD MSTORE PUSH15 0x6F20726563656976652066756E6473 PUSH1 0x88 SHL PUSH1 0x64 DUP3 ADD MSTORE PUSH1 0x84 SWAP1 REVERT JUMPDEST SWAP1 POP PUSH1 0x20 DUP2 RETURNDATASIZE PUSH1 0x20 GT PUSH2 0xD16 JUMPI JUMPDEST DUP2 PUSH2 0xCFB PUSH1 0x20 SWAP4 DUP4 PUSH2 0x4DAC JUMP JUMPDEST DUP2 ADD SUB SLT PUSH2 0xD12 JUMPI PUSH2 0xD0C SWAP1 PUSH2 0x4DE2 JUMP JUMPDEST PUSH0 PUSH2 0xC1C JUMP JUMPDEST DUP15 DUP1 REVERT JUMPDEST RETURNDATASIZE SWAP2 POP PUSH2 0xCEE JUMP JUMPDEST PUSH1 0x40 MLOAD SWAP1 RETURNDATASIZE SWAP1 DUP3 RETURNDATACOPY RETURNDATASIZE SWAP1 REVERT JUMPDEST SWAP1 SWAP7 POP PUSH1 0x20 DUP2 RETURNDATASIZE PUSH1 0x20 GT PUSH2 0xD56 JUMPI JUMPDEST DUP2 PUSH2 0xD46 PUSH1 0x20 SWAP4 DUP4 PUSH2 0x4DAC JUMP JUMPDEST DUP2 ADD SUB SLT PUSH2 0x4AA JUMPI MLOAD SWAP6 PUSH0 PUSH2 0xAD9 JUMP JUMPDEST RETURNDATASIZE SWAP2 POP PUSH2 0xD39 JUMP JUMPDEST PUSH1 0x40 MLOAD RETURNDATASIZE DUP16 DUP3 RETURNDATACOPY RETURNDATASIZE SWAP1 REVERT JUMPDEST PUSH1 0x40 MLOAD PUSH3 0x461BCD PUSH1 0xE5 SHL DUP2 MSTORE PUSH1 0x20 PUSH1 0x4 DUP3 ADD MSTORE PUSH1 0x26 PUSH1 0x24 DUP3 ADD MSTORE PUSH32 0x4465706F73697420616D6F756E74206D75737420626520677265617465722074 PUSH1 0x44 DUP3 ADD MSTORE PUSH6 0x3430B7101817 PUSH1 0xD1 SHL PUSH1 0x64 DUP3 ADD MSTORE PUSH1 0x84 SWAP1 REVERT JUMPDEST POP CALLVALUE PUSH2 0x59C JUMPI PUSH2 0xDCC CALLDATASIZE PUSH2 0x4AF4 JUMP JUMPDEST SWAP1 DUP1 DUP4 MSTORE PUSH1 0x4 PUSH1 0x20 MSTORE PUSH1 0x40 DUP4 KECCAK256 SWAP3 PUSH1 0x1 DUP5 ADD SWAP3 PUSH1 0x1 DUP1 PUSH1 0xA0 SHL SUB DUP5 SLOAD AND CALLER SUB PUSH2 0x118F JUMPI PUSH20 0x0 DUP1 EXTCODESIZE ISZERO PUSH2 0x112F JUMPI DUP3 PUSH1 0x40 MLOAD DUP1 SWAP3 PUSH4 0x252A867 PUSH1 0xE5 SHL DUP3 MSTORE DUP2 DUP1 PUSH2 0xE2A DUP12 PUSH1 0x4 DUP4 ADD PUSH2 0x4FD4 JUMP JUMPDEST SUB SWAP2 GAS DELEGATECALL DUP1 ISZERO PUSH2 0x113B JUMPI SWAP1 DUP4 SWAP2 PUSH2 0x117A JUMPI JUMPDEST POP POP PUSH1 0xA DUP6 ADD DUP1 SLOAD CALLER PUSH0 SWAP1 DUP2 MSTORE PUSH1 0x1 PUSH1 0x20 SWAP1 DUP2 MSTORE PUSH1 0x40 DUP1 DUP4 KECCAK256 PUSH1 0x1 PUSH1 0x1 PUSH1 0xA0 SHL SUB SWAP1 SWAP5 AND DUP1 DUP5 MSTORE SWAP4 SWAP1 SWAP2 MSTORE SWAP1 KECCAK256 SLOAD SWAP1 SWAP4 SWAP1 DUP4 DUP2 LT PUSH2 0xF1A JUMPI JUMPDEST POP CALLER DUP2 MSTORE PUSH1 0x1 PUSH1 0x20 SWAP1 DUP2 MSTORE PUSH1 0x40 SWAP2 DUP3 SWAP1 KECCAK256 SWAP3 SLOAD PUSH1 0x1 PUSH1 0x1 PUSH1 0xA0 SHL SUB AND PUSH0 SWAP1 DUP2 MSTORE SWAP3 SWAP1 MSTORE SWAP1 KECCAK256 DUP1 SLOAD PUSH32 0x9D5818EC36D6E85E8A30346F5FE41B65CC50CEA2B868AE94F293D113C92A1338 SWAP4 POP PUSH2 0xECA SWAP1 DUP4 SWAP1 PUSH2 0x4D5A JUMP JUMPDEST SWAP1 SSTORE PUSH1 0x6 DUP6 ADD PUSH2 0xEDB DUP3 DUP3 SLOAD PUSH2 0x5348 JUMP JUMPDEST SWAP1 SSTORE DUP5 SLOAD SWAP4 SLOAD PUSH1 0x2 SWAP1 SWAP6 ADD SLOAD PUSH1 0x40 DUP1 MLOAD PUSH1 0x1 PUSH1 0x1 PUSH1 0xA0 SHL SUB SWAP3 DUP4 AND DUP2 MSTORE PUSH1 0x20 DUP2 ADD SWAP4 SWAP1 SWAP4 MSTORE SWAP6 DUP2 AND SWAP6 SWAP5 AND SWAP4 DUP2 SWAP1 DUP2 ADD JUMPDEST SUB SWAP1 LOG4 PUSH1 0x20 PUSH1 0x40 MLOAD PUSH1 0x1 DUP2 MSTORE RETURN JUMPDEST PUSH2 0xF24 SWAP1 DUP5 PUSH2 0x4D5A JUMP JUMPDEST SWAP1 PUSH2 0xF35 PUSH1 0xFF DUP3 SLOAD PUSH1 0xA0 SHR AND PUSH2 0x4CCB JUMP JUMPDEST DUP2 ISZERO PUSH2 0xD69 JUMPI PUSH1 0x2 SLOAD SWAP2 PUSH1 0x40 MLOAD SWAP3 PUSH4 0x1C8F0847 PUSH1 0xE0 SHL DUP5 MSTORE DUP2 PUSH1 0x4 DUP6 ADD MSTORE PUSH1 0x24 DUP5 ADD MSTORE PUSH1 0x20 DUP4 PUSH1 0x44 DUP2 PUSH20 0x0 GAS DELEGATECALL SWAP3 DUP4 ISZERO PUSH2 0x51A JUMPI DUP3 SWAP4 PUSH2 0x1146 JUMPI JUMPDEST POP DUP6 PUSH2 0x1030 JUMPI PUSH2 0xF93 DUP4 DUP3 PUSH2 0x5348 JUMP JUMPDEST PUSH2 0xB87 JUMPI PUSH32 0x9D5818EC36D6E85E8A30346F5FE41B65CC50CEA2B868AE94F293D113C92A1338 SWAP6 PUSH1 0x40 SWAP4 CALLER DUP5 MSTORE PUSH1 0x1 PUSH1 0x20 MSTORE DUP5 DUP5 KECCAK256 PUSH0 DUP1 MSTORE PUSH1 0x20 MSTORE DUP5 PUSH0 KECCAK256 PUSH2 0xFDB DUP5 DUP3 SLOAD PUSH2 0x5348 JUMP JUMPDEST SWAP1 SSTORE PUSH1 0x1 DUP1 PUSH1 0xA0 SHL SUB PUSH1 0x3 SLOAD AND DUP5 MSTORE PUSH1 0x1 PUSH1 0x20 MSTORE DUP5 DUP5 KECCAK256 PUSH0 DUP1 MSTORE PUSH1 0x20 MSTORE DUP5 PUSH0 KECCAK256 PUSH2 0x1006 DUP3 DUP3 SLOAD PUSH2 0x5348 JUMP JUMPDEST SWAP1 SSTORE JUMPDEST DUP5 MLOAD SWAP3 DUP4 MSTORE PUSH1 0x20 DUP4 ADD MSTORE DUP4 DUP3 ADD MSTORE PUSH0 MLOAD PUSH1 0x20 PUSH2 0x565A PUSH0 CODECOPY PUSH0 MLOAD SWAP1 PUSH0 MSTORE PUSH1 0x60 CALLER SWAP3 LOG2 SWAP1 PUSH2 0xE75 JUMP JUMPDEST PUSH2 0x103A DUP4 DUP3 PUSH2 0x5348 JUMP JUMPDEST PUSH1 0x40 MLOAD SWAP1 PUSH4 0x23B872DD PUSH1 0xE0 SHL DUP3 MSTORE CALLER PUSH1 0x4 DUP4 ADD MSTORE ADDRESS PUSH1 0x24 DUP4 ADD MSTORE PUSH1 0x44 DUP3 ADD MSTORE PUSH1 0x20 DUP2 PUSH1 0x64 DUP2 DUP7 DUP12 GAS CALL SWAP1 DUP2 ISZERO PUSH2 0x113B JUMPI DUP4 SWAP2 PUSH2 0x10FD JUMPI JUMPDEST POP ISZERO PUSH2 0xC83 JUMPI PUSH32 0x9D5818EC36D6E85E8A30346F5FE41B65CC50CEA2B868AE94F293D113C92A1338 SWAP6 PUSH1 0x40 SWAP4 CALLER DUP5 MSTORE PUSH1 0x1 PUSH1 0x20 MSTORE DUP5 DUP5 KECCAK256 PUSH1 0x1 DUP1 PUSH1 0xA0 SHL SUB DUP4 AND PUSH0 MSTORE PUSH1 0x20 MSTORE DUP5 PUSH0 KECCAK256 PUSH2 0x10C3 DUP5 DUP3 SLOAD PUSH2 0x5348 JUMP JUMPDEST SWAP1 SSTORE PUSH1 0x1 DUP1 PUSH1 0xA0 SHL SUB PUSH1 0x3 SLOAD AND DUP5 MSTORE PUSH1 0x1 PUSH1 0x20 MSTORE DUP5 DUP5 KECCAK256 PUSH1 0x1 DUP1 PUSH1 0xA0 SHL SUB DUP4 AND PUSH0 MSTORE PUSH1 0x20 MSTORE DUP5 PUSH0 KECCAK256 PUSH2 0x10F6 DUP3 DUP3 SLOAD PUSH2 0x5348 JUMP JUMPDEST SWAP1 SSTORE PUSH2 0x1009 JUMP JUMPDEST SWAP1 POP PUSH1 0x20 DUP2 RETURNDATASIZE PUSH1 0x20 GT PUSH2 0x1133 JUMPI JUMPDEST DUP2 PUSH2 0x1118 PUSH1 0x20 SWAP4 DUP4 PUSH2 0x4DAC JUMP JUMPDEST DUP2 ADD SUB SLT PUSH2 0x112F JUMPI PUSH2 0x1129 SWAP1 PUSH2 0x4DE2 JUMP JUMPDEST PUSH0 PUSH2 0x1071 JUMP JUMPDEST DUP3 DUP1 REVERT JUMPDEST RETURNDATASIZE SWAP2 POP PUSH2 0x110B JUMP JUMPDEST PUSH1 0x40 MLOAD RETURNDATASIZE DUP6 DUP3 RETURNDATACOPY RETURNDATASIZE SWAP1 REVERT JUMPDEST SWAP1 SWAP3 POP PUSH1 0x20 DUP2 RETURNDATASIZE PUSH1 0x20 GT PUSH2 0x1172 JUMPI JUMPDEST DUP2 PUSH2 0x1162 PUSH1 0x20 SWAP4 DUP4 PUSH2 0x4DAC JUMP JUMPDEST DUP2 ADD SUB SLT PUSH2 0x4AA JUMPI MLOAD SWAP2 PUSH0 PUSH2 0xF83 JUMP JUMPDEST RETURNDATASIZE SWAP2 POP PUSH2 0x1155 JUMP JUMPDEST DUP2 PUSH2 0x1184 SWAP2 PUSH2 0x4DAC JUMP JUMPDEST PUSH2 0x525 JUMPI DUP2 PUSH0 PUSH2 0xE3C JUMP JUMPDEST PUSH1 0x40 MLOAD PUSH3 0x461BCD PUSH1 0xE5 SHL DUP2 MSTORE PUSH1 0x20 PUSH1 0x4 DUP3 ADD MSTORE PUSH1 0x28 PUSH1 0x24 DUP3 ADD MSTORE PUSH32 0x4F6E6C79206120636F756E74657270617274792063616E2063616C6C20746869 PUSH1 0x44 DUP3 ADD MSTORE PUSH8 0x1CC81B595D1A1BD9 PUSH1 0xC2 SHL PUSH1 0x64 DUP3 ADD MSTORE PUSH1 0x84 SWAP1 REVERT JUMPDEST POP PUSH1 0x20 CALLDATASIZE PUSH1 0x3 NOT ADD SLT PUSH2 0x59C JUMPI PUSH1 0x4 DUP1 CALLDATALOAD DUP3 MSTORE PUSH1 0x20 MSTORE PUSH1 0x40 DUP2 KECCAK256 PUSH1 0x1 DUP2 ADD SLOAD PUSH1 0x1 PUSH1 0x1 PUSH1 0xA0 SHL SUB AND CALLER EQ DUP1 ISZERO PUSH2 0x12A8 JUMPI JUMPDEST DUP1 ISZERO PUSH2 0x1292 JUMPI JUMPDEST PUSH2 0x1226 SWAP1 PUSH2 0x53BE JUMP JUMPDEST DUP2 PUSH20 0x0 SWAP2 DUP3 EXTCODESIZE ISZERO PUSH2 0x525 JUMPI PUSH2 0x1263 SWAP3 PUSH1 0x40 MLOAD DUP1 DUP1 SWAP6 DUP2 SWAP5 PUSH4 0x252A867 PUSH1 0xE5 SHL DUP4 MSTORE PUSH1 0x4 DUP4 ADD PUSH2 0x4FD4 JUMP JUMPDEST SUB SWAP2 GAS DELEGATECALL DUP1 ISZERO PUSH2 0x51A JUMPI PUSH2 0x127D JUMPI JUMPDEST PUSH1 0x20 DUP3 PUSH1 0x40 MLOAD SWAP1 DUP2 MSTORE RETURN JUMPDEST PUSH2 0x1288 DUP3 DUP1 SWAP3 PUSH2 0x4DAC JUMP JUMPDEST PUSH2 0x59C JUMPI PUSH0 PUSH2 0x1272 JUMP JUMPDEST POP PUSH1 0x2 DUP2 ADD SLOAD PUSH1 0x1 PUSH1 0x1 PUSH1 0xA0 SHL SUB AND CALLER EQ PUSH2 0x121D JUMP JUMPDEST POP DUP1 SLOAD PUSH1 0x1 PUSH1 0x1 PUSH1 0xA0 SHL SUB AND CALLER EQ PUSH2 0x1216 JUMP JUMPDEST POP CALLVALUE PUSH2 0x59C JUMPI PUSH1 0x60 CALLDATASIZE PUSH1 0x3 NOT ADD SLT PUSH2 0x59C JUMPI PUSH2 0x12D5 PUSH2 0x4A2E JUMP JUMPDEST SWAP1 PUSH1 0x40 PUSH2 0x12E0 PUSH2 0x4A18 JUMP JUMPDEST SWAP2 PUSH1 0x44 CALLDATALOAD SWAP4 CALLER DUP3 MSTORE PUSH1 0x1 PUSH1 0x20 MSTORE DUP3 DUP3 KECCAK256 PUSH1 0x1 DUP1 PUSH1 0xA0 SHL SUB DUP6 AND PUSH0 MSTORE PUSH1 0x20 MSTORE PUSH2 0x130D DUP6 DUP5 PUSH0 KECCAK256 SLOAD LT ISZERO PUSH2 0x4D17 JUMP JUMPDEST CALLER DUP3 MSTORE PUSH1 0x1 PUSH1 0x20 MSTORE DUP3 DUP3 KECCAK256 PUSH1 0x1 DUP1 PUSH1 0xA0 SHL SUB DUP6 AND PUSH0 MSTORE PUSH1 0x20 MSTORE DUP3 PUSH0 KECCAK256 PUSH2 0x1334 DUP7 DUP3 SLOAD PUSH2 0x4D5A JUMP JUMPDEST SWAP1 SSTORE PUSH1 0x1 DUP1 PUSH1 0xA0 SHL SUB AND DUP2 MSTORE PUSH1 0x1 PUSH1 0x20 MSTORE KECCAK256 SWAP1 PUSH1 0x1 DUP1 PUSH1 0xA0 SHL SUB AND PUSH0 MSTORE PUSH1 0x20 MSTORE PUSH2 0x1363 PUSH1 0x40 PUSH0 KECCAK256 SWAP2 DUP3 SLOAD PUSH2 0x5348 JUMP JUMPDEST SWAP1 SSTORE PUSH1 0x20 PUSH1 0x40 MLOAD PUSH1 0x1 DUP2 MSTORE RETURN JUMPDEST POP PUSH1 0x20 CALLDATASIZE PUSH1 0x3 NOT ADD SLT PUSH2 0x59C JUMPI PUSH1 0x4 CALLDATALOAD DUP1 DUP3 MSTORE PUSH1 0x4 PUSH1 0x20 MSTORE PUSH1 0x40 DUP3 KECCAK256 SWAP1 PUSH1 0x1 DUP3 ADD SWAP2 PUSH2 0x13A6 PUSH1 0x1 DUP1 PUSH1 0xA0 SHL SUB DUP5 SLOAD AND CALLER EQ PUSH2 0x5210 JUMP JUMPDEST PUSH1 0x2 DUP2 ADD SWAP4 PUSH2 0x13E4 DUP6 SLOAD PUSH2 0x13BF PUSH1 0xFF DUP3 PUSH1 0xB0 SHR AND PUSH2 0x526B JUMP JUMPDEST PUSH2 0x13CF PUSH1 0xFF DUP3 PUSH1 0xB8 SHR AND ISZERO PUSH2 0x52B0 JUMP JUMPDEST PUSH1 0xFF DUP2 PUSH1 0xA0 SHR AND ISZERO SWAP1 DUP2 PUSH2 0x16E9 JUMPI JUMPDEST POP PUSH2 0x52FC JUMP JUMPDEST PUSH1 0xA DUP3 ADD DUP1 SLOAD CALLER PUSH0 SWAP1 DUP2 MSTORE PUSH1 0x1 PUSH1 0x20 SWAP1 DUP2 MSTORE PUSH1 0x40 DUP1 DUP4 KECCAK256 PUSH1 0x1 PUSH1 0x1 PUSH1 0xA0 SHL SUB SWAP1 SWAP5 AND DUP1 DUP5 MSTORE SWAP4 SWAP1 SWAP2 MSTORE SWAP1 KECCAK256 SLOAD PUSH1 0x6 DUP6 ADD SLOAD DUP2 LT PUSH2 0x14A0 JUMPI JUMPDEST POP POP PUSH1 0x4 DUP4 ADD SLOAD CALLER DUP4 MSTORE PUSH1 0x1 PUSH1 0x20 SWAP1 DUP2 MSTORE PUSH1 0x40 SWAP4 DUP5 SWAP1 KECCAK256 SWAP3 SLOAD PUSH1 0x1 PUSH1 0x1 PUSH1 0xA0 SHL SUB AND PUSH0 SWAP1 DUP2 MSTORE SWAP3 DUP2 MSTORE SWAP3 SWAP1 SWAP2 KECCAK256 DUP1 SLOAD PUSH0 MLOAD PUSH1 0x20 PUSH2 0x563A PUSH0 CODECOPY PUSH0 MLOAD SWAP1 PUSH0 MSTORE SWAP5 SWAP3 PUSH2 0x1464 SWAP2 PUSH2 0x4D5A JUMP JUMPDEST SWAP1 SSTORE DUP6 SLOAD PUSH1 0x1 PUSH1 0xB8 SHL PUSH1 0xFF PUSH1 0xB8 SHL NOT DUP3 AND OR SWAP1 SWAP7 SSTORE SLOAD SWAP4 SLOAD PUSH1 0x40 MLOAD PUSH1 0x1 PUSH1 0x1 PUSH1 0xA0 SHL SUB SWAP7 DUP8 AND DUP2 MSTORE SWAP1 DUP7 AND SWAP6 SWAP1 SWAP5 AND SWAP4 LOG4 PUSH1 0x20 PUSH1 0x40 MLOAD PUSH1 0x1 DUP2 MSTORE RETURN JUMPDEST PUSH2 0x14B2 SWAP1 PUSH1 0x4 DUP7 SWAP5 SWAP6 SWAP4 SWAP7 ADD SLOAD PUSH2 0x4D5A JUMP JUMPDEST SWAP3 PUSH2 0x14C3 PUSH1 0xFF DUP4 SLOAD PUSH1 0xA0 SHR AND PUSH2 0x4CCB JUMP JUMPDEST DUP4 ISZERO PUSH2 0xD69 JUMPI PUSH1 0x2 SLOAD SWAP4 PUSH1 0x40 MLOAD SWAP5 PUSH4 0x1C8F0847 PUSH1 0xE0 SHL DUP7 MSTORE DUP2 PUSH1 0x4 DUP8 ADD MSTORE PUSH1 0x24 DUP7 ADD MSTORE PUSH1 0x20 DUP6 PUSH1 0x44 DUP2 PUSH20 0x0 GAS DELEGATECALL SWAP5 DUP6 ISZERO PUSH2 0x113B JUMPI DUP4 SWAP6 PUSH2 0x16B5 JUMPI JUMPDEST POP DUP6 PUSH2 0x15B5 JUMPI PUSH2 0x1521 DUP6 DUP3 PUSH2 0x5348 JUMP JUMPDEST CALLVALUE SUB PUSH2 0xB87 JUMPI PUSH0 MLOAD PUSH1 0x20 PUSH2 0x563A PUSH0 CODECOPY PUSH0 MLOAD SWAP1 PUSH0 MSTORE SWAP6 PUSH1 0x20 SWAP6 CALLER DUP6 MSTORE PUSH1 0x1 DUP8 MSTORE PUSH1 0x40 DUP6 KECCAK256 PUSH0 DUP1 MSTORE DUP8 MSTORE PUSH1 0x40 PUSH0 KECCAK256 PUSH2 0x1558 DUP5 DUP3 SLOAD PUSH2 0x5348 JUMP JUMPDEST SWAP1 SSTORE PUSH1 0x3 SLOAD PUSH1 0x1 PUSH1 0x1 PUSH1 0xA0 SHL SUB AND DUP6 MSTORE PUSH1 0x1 DUP8 MSTORE PUSH1 0x40 DUP1 DUP7 KECCAK256 PUSH0 DUP1 DUP1 MSTORE SWAP1 DUP10 MSTORE KECCAK256 DUP1 SLOAD PUSH2 0x1586 SWAP1 DUP4 SWAP1 PUSH2 0x5348 JUMP JUMPDEST SWAP1 SSTORE JUMPDEST PUSH1 0x40 MLOAD SWAP3 DUP4 MSTORE DUP7 DUP4 ADD MSTORE PUSH1 0x40 DUP3 ADD MSTORE PUSH0 MLOAD PUSH1 0x20 PUSH2 0x565A PUSH0 CODECOPY PUSH0 MLOAD SWAP1 PUSH0 MSTORE PUSH1 0x60 CALLER SWAP3 LOG2 SWAP2 SWAP4 DUP2 SWAP4 POP PUSH2 0x141C JUMP JUMPDEST PUSH2 0x15BF DUP6 DUP3 PUSH2 0x5348 JUMP JUMPDEST PUSH1 0x40 MLOAD SWAP1 PUSH4 0x23B872DD PUSH1 0xE0 SHL DUP3 MSTORE CALLER PUSH1 0x4 DUP4 ADD MSTORE ADDRESS PUSH1 0x24 DUP4 ADD MSTORE PUSH1 0x44 DUP3 ADD MSTORE PUSH1 0x20 DUP2 PUSH1 0x64 DUP2 DUP8 DUP12 GAS CALL SWAP1 DUP2 ISZERO PUSH2 0x16AA JUMPI DUP5 SWAP2 PUSH2 0x1670 JUMPI JUMPDEST POP ISZERO PUSH2 0xC83 JUMPI PUSH0 MLOAD PUSH1 0x20 PUSH2 0x563A PUSH0 CODECOPY PUSH0 MLOAD SWAP1 PUSH0 MSTORE SWAP6 PUSH1 0x20 SWAP6 CALLER DUP6 MSTORE PUSH1 0x1 DUP8 MSTORE PUSH1 0x40 DUP6 KECCAK256 PUSH1 0x1 DUP1 PUSH1 0xA0 SHL SUB DUP4 AND PUSH0 MSTORE DUP8 MSTORE PUSH1 0x40 PUSH0 KECCAK256 PUSH2 0x1635 DUP5 DUP3 SLOAD PUSH2 0x5348 JUMP JUMPDEST SWAP1 SSTORE PUSH1 0x3 SLOAD PUSH1 0x1 PUSH1 0x1 PUSH1 0xA0 SHL SUB SWAP1 DUP2 AND DUP7 MSTORE PUSH1 0x1 DUP9 MSTORE PUSH1 0x40 DUP1 DUP8 KECCAK256 SWAP2 DUP5 AND PUSH0 SWAP1 DUP2 MSTORE SWAP2 DUP10 MSTORE SWAP1 KECCAK256 DUP1 SLOAD PUSH2 0x1669 SWAP1 DUP4 SWAP1 PUSH2 0x5348 JUMP JUMPDEST SWAP1 SSTORE PUSH2 0x1589 JUMP JUMPDEST SWAP1 POP PUSH1 0x20 DUP2 RETURNDATASIZE PUSH1 0x20 GT PUSH2 0x16A2 JUMPI JUMPDEST DUP2 PUSH2 0x168B PUSH1 0x20 SWAP4 DUP4 PUSH2 0x4DAC JUMP JUMPDEST DUP2 ADD SUB SLT PUSH2 0x516 JUMPI PUSH2 0x169C SWAP1 PUSH2 0x4DE2 JUMP JUMPDEST PUSH0 PUSH2 0x15F6 JUMP JUMPDEST RETURNDATASIZE SWAP2 POP PUSH2 0x167E JUMP JUMPDEST PUSH1 0x40 MLOAD RETURNDATASIZE DUP7 DUP3 RETURNDATACOPY RETURNDATASIZE SWAP1 REVERT JUMPDEST SWAP1 SWAP5 POP PUSH1 0x20 DUP2 RETURNDATASIZE PUSH1 0x20 GT PUSH2 0x16E1 JUMPI JUMPDEST DUP2 PUSH2 0x16D1 PUSH1 0x20 SWAP4 DUP4 PUSH2 0x4DAC JUMP JUMPDEST DUP2 ADD SUB SLT PUSH2 0x4AA JUMPI MLOAD SWAP4 PUSH0 PUSH2 0x1511 JUMP JUMPDEST RETURNDATASIZE SWAP2 POP PUSH2 0x16C4 JUMP JUMPDEST PUSH1 0xFF SWAP2 POP PUSH1 0xA8 SHR AND ISZERO PUSH0 PUSH2 0x13DE JUMP JUMPDEST POP PUSH2 0x1702 CALLDATASIZE PUSH2 0x4AF4 JUMP JUMPDEST SWAP1 DUP1 DUP4 MSTORE PUSH1 0x4 PUSH1 0x20 MSTORE PUSH1 0x40 DUP4 KECCAK256 SWAP3 PUSH1 0x1 DUP1 PUSH1 0xA0 SHL SUB DUP5 SLOAD AND CALLER SUB PUSH2 0x1A6A JUMPI PUSH20 0x0 DUP1 EXTCODESIZE ISZERO PUSH2 0x525 JUMPI DUP2 PUSH1 0x40 MLOAD DUP1 SWAP3 PUSH4 0x252A867 PUSH1 0xE5 SHL DUP3 MSTORE DUP2 DUP1 PUSH2 0x175B DUP11 PUSH1 0x4 DUP4 ADD PUSH2 0x4FD4 JUMP JUMPDEST SUB SWAP2 GAS DELEGATECALL DUP1 ISZERO PUSH2 0x51A JUMPI SWAP1 DUP3 SWAP2 PUSH2 0x1A55 JUMPI JUMPDEST POP POP PUSH1 0x9 DUP5 ADD DUP1 SLOAD CALLER PUSH0 SWAP1 DUP2 MSTORE PUSH1 0x1 PUSH1 0x20 SWAP1 DUP2 MSTORE PUSH1 0x40 DUP1 DUP4 KECCAK256 PUSH1 0x1 PUSH1 0x1 PUSH1 0xA0 SHL SUB SWAP1 SWAP5 AND DUP1 DUP5 MSTORE SWAP4 SWAP1 SWAP2 MSTORE SWAP1 KECCAK256 SLOAD SWAP2 SWAP3 SWAP1 SWAP2 DUP6 DUP2 LT PUSH2 0x1847 JUMPI JUMPDEST POP PUSH1 0x40 SWAP2 POP CALLER DUP2 MSTORE PUSH1 0x1 PUSH1 0x20 MSTORE KECCAK256 SWAP1 PUSH1 0x1 DUP1 PUSH1 0xA0 SHL SUB SWAP1 SLOAD AND PUSH1 0x1 DUP1 PUSH1 0xA0 SHL SUB AND PUSH0 MSTORE PUSH1 0x20 MSTORE PUSH1 0x40 PUSH0 KECCAK256 PUSH2 0x17DC DUP4 DUP3 SLOAD PUSH2 0x4D5A JUMP JUMPDEST SWAP1 SSTORE PUSH1 0x5 DUP4 ADD PUSH2 0x17ED DUP4 DUP3 SLOAD PUSH2 0x5348 JUMP JUMPDEST SWAP1 SSTORE DUP3 SLOAD PUSH1 0x1 DUP5 ADD SLOAD PUSH1 0x2 SWAP1 SWAP5 ADD SLOAD PUSH1 0x40 DUP1 MLOAD PUSH1 0x1 PUSH1 0x1 PUSH1 0xA0 SHL SUB SWAP3 DUP4 AND DUP2 MSTORE PUSH1 0x20 DUP2 ADD SWAP6 SWAP1 SWAP6 MSTORE SWAP5 DUP2 AND SWAP5 SWAP2 AND SWAP3 PUSH32 0x3C0DD30126238EAEBBB306E073222EECD03A091D41C39A4B2742759D406C8F55 SWAP2 DUP2 SWAP1 DUP2 ADD PUSH2 0xF0C JUMP JUMPDEST PUSH2 0x1851 SWAP1 DUP7 PUSH2 0x4D5A JUMP JUMPDEST PUSH2 0x1861 PUSH1 0xFF DUP4 SLOAD PUSH1 0xA0 SHR AND PUSH2 0x4CCB JUMP JUMPDEST DUP1 ISZERO PUSH2 0xD69 JUMPI PUSH1 0x2 SLOAD SWAP3 PUSH1 0x40 MLOAD SWAP4 PUSH4 0x1C8F0847 PUSH1 0xE0 SHL DUP6 MSTORE DUP3 PUSH1 0x4 DUP7 ADD MSTORE PUSH1 0x24 DUP6 ADD MSTORE PUSH1 0x20 DUP5 PUSH1 0x44 DUP2 PUSH20 0x0 GAS DELEGATECALL SWAP4 DUP5 ISZERO PUSH2 0x113B JUMPI DUP4 SWAP5 PUSH2 0x1A21 JUMPI JUMPDEST POP DUP1 PUSH2 0x193C JUMPI PUSH2 0x18BF DUP5 DUP4 PUSH2 0x5348 JUMP JUMPDEST CALLVALUE SUB PUSH2 0xB87 JUMPI PUSH1 0x40 SWAP4 CALLER DUP5 MSTORE PUSH1 0x1 PUSH1 0x20 MSTORE DUP5 DUP5 KECCAK256 PUSH0 DUP1 MSTORE PUSH1 0x20 MSTORE DUP5 PUSH0 KECCAK256 PUSH2 0x18E7 DUP5 DUP3 SLOAD PUSH2 0x5348 JUMP JUMPDEST SWAP1 SSTORE PUSH1 0x1 DUP1 PUSH1 0xA0 SHL SUB PUSH1 0x3 SLOAD AND DUP5 MSTORE PUSH1 0x1 PUSH1 0x20 MSTORE DUP5 DUP5 KECCAK256 PUSH0 DUP1 MSTORE PUSH1 0x20 MSTORE DUP5 PUSH0 KECCAK256 PUSH2 0x1912 DUP3 DUP3 SLOAD PUSH2 0x5348 JUMP JUMPDEST SWAP1 SSTORE JUMPDEST DUP5 MLOAD SWAP3 DUP4 MSTORE PUSH1 0x20 DUP4 ADD MSTORE DUP4 DUP3 ADD MSTORE PUSH0 MLOAD PUSH1 0x20 PUSH2 0x565A PUSH0 CODECOPY PUSH0 MLOAD SWAP1 PUSH0 MSTORE PUSH1 0x60 CALLER SWAP3 LOG2 PUSH0 PUSH2 0x17A7 JUMP JUMPDEST PUSH2 0x1946 DUP5 DUP4 PUSH2 0x5348 JUMP JUMPDEST PUSH1 0x40 MLOAD SWAP1 PUSH4 0x23B872DD PUSH1 0xE0 SHL DUP3 MSTORE CALLER PUSH1 0x4 DUP4 ADD MSTORE ADDRESS PUSH1 0x24 DUP4 ADD MSTORE PUSH1 0x44 DUP3 ADD MSTORE PUSH1 0x20 DUP2 PUSH1 0x64 DUP2 DUP8 DUP7 GAS CALL SWAP1 DUP2 ISZERO PUSH2 0x16AA JUMPI DUP5 SWAP2 PUSH2 0x19E7 JUMPI JUMPDEST POP ISZERO PUSH2 0xC83 JUMPI PUSH1 0x40 SWAP4 CALLER DUP5 MSTORE PUSH1 0x1 PUSH1 0x20 MSTORE DUP5 DUP5 KECCAK256 PUSH1 0x1 DUP1 PUSH1 0xA0 SHL SUB DUP4 AND PUSH0 MSTORE PUSH1 0x20 MSTORE DUP5 PUSH0 KECCAK256 PUSH2 0x19AD DUP5 DUP3 SLOAD PUSH2 0x5348 JUMP JUMPDEST SWAP1 SSTORE PUSH1 0x1 DUP1 PUSH1 0xA0 SHL SUB PUSH1 0x3 SLOAD AND DUP5 MSTORE PUSH1 0x1 PUSH1 0x20 MSTORE DUP5 DUP5 KECCAK256 PUSH1 0x1 DUP1 PUSH1 0xA0 SHL SUB DUP4 AND PUSH0 MSTORE PUSH1 0x20 MSTORE DUP5 PUSH0 KECCAK256 PUSH2 0x19E0 DUP3 DUP3 SLOAD PUSH2 0x5348 JUMP JUMPDEST SWAP1 SSTORE PUSH2 0x1915 JUMP JUMPDEST SWAP1 POP PUSH1 0x20 DUP2 RETURNDATASIZE PUSH1 0x20 GT PUSH2 0x1A19 JUMPI JUMPDEST DUP2 PUSH2 0x1A02 PUSH1 0x20 SWAP4 DUP4 PUSH2 0x4DAC JUMP JUMPDEST DUP2 ADD SUB SLT PUSH2 0x516 JUMPI PUSH2 0x1A13 SWAP1 PUSH2 0x4DE2 JUMP JUMPDEST PUSH0 PUSH2 0x197D JUMP JUMPDEST RETURNDATASIZE SWAP2 POP PUSH2 0x19F5 JUMP JUMPDEST SWAP1 SWAP4 POP PUSH1 0x20 DUP2 RETURNDATASIZE PUSH1 0x20 GT PUSH2 0x1A4D JUMPI JUMPDEST DUP2 PUSH2 0x1A3D PUSH1 0x20 SWAP4 DUP4 PUSH2 0x4DAC JUMP JUMPDEST DUP2 ADD SUB SLT PUSH2 0x4AA JUMPI MLOAD SWAP3 PUSH0 PUSH2 0x18AF JUMP JUMPDEST RETURNDATASIZE SWAP2 POP PUSH2 0x1A30 JUMP JUMPDEST DUP2 PUSH2 0x1A5F SWAP2 PUSH2 0x4DAC JUMP JUMPDEST PUSH2 0x59C JUMPI DUP1 PUSH0 PUSH2 0x176D JUMP JUMPDEST PUSH1 0x40 MLOAD PUSH3 0x461BCD PUSH1 0xE5 SHL DUP2 MSTORE PUSH1 0x20 PUSH1 0x4 DUP3 ADD MSTORE PUSH1 0x25 PUSH1 0x24 DUP3 ADD MSTORE PUSH32 0x4F6E6C79206120696E69746174696F722063616E2063616C6C2074686973206D PUSH1 0x44 DUP3 ADD MSTORE PUSH5 0x195D1A1BD9 PUSH1 0xDA SHL PUSH1 0x64 DUP3 ADD MSTORE PUSH1 0x84 SWAP1 REVERT JUMPDEST POP CALLVALUE PUSH2 0x59C JUMPI PUSH1 0x40 CALLDATASIZE PUSH1 0x3 NOT ADD SLT PUSH2 0x59C JUMPI PUSH2 0x1AD7 PUSH2 0x4A2E JUMP JUMPDEST PUSH1 0x1 PUSH1 0x1 PUSH1 0xA0 SHL SUB AND DUP2 MSTORE PUSH1 0x5 PUSH1 0x20 MSTORE PUSH1 0x40 DUP2 KECCAK256 DUP1 SLOAD PUSH1 0x24 CALLDATALOAD SWAP3 SWAP1 DUP4 LT ISZERO PUSH2 0x59C JUMPI PUSH1 0x20 PUSH2 0x1B05 DUP5 DUP5 PUSH2 0x4B6D JUMP JUMPDEST SWAP1 SLOAD SWAP1 PUSH1 0x3 SHL SHR PUSH1 0x40 MLOAD SWAP1 DUP2 MSTORE RETURN JUMPDEST POP CALLVALUE PUSH2 0x59C JUMPI DUP1 PUSH1 0x3 NOT CALLDATASIZE ADD SLT PUSH2 0x59C JUMPI PUSH1 0x20 PUSH1 0x8 SLOAD PUSH1 0x40 MLOAD SWAP1 DUP2 MSTORE RETURN JUMPDEST POP CALLVALUE PUSH2 0x59C JUMPI PUSH1 0x20 CALLDATASIZE PUSH1 0x3 NOT ADD SLT PUSH2 0x59C JUMPI PUSH1 0x4 CALLDATALOAD DUP1 DUP3 MSTORE PUSH1 0x4 PUSH1 0x20 MSTORE PUSH1 0x40 DUP3 KECCAK256 SWAP1 PUSH0 MLOAD PUSH1 0x20 PUSH2 0x567A PUSH0 CODECOPY PUSH0 MLOAD SWAP1 PUSH0 MSTORE PUSH2 0xF0C PUSH1 0x1 DUP5 ADD SWAP4 PUSH1 0x1 DUP1 PUSH1 0xA0 SHL SUB DUP6 SLOAD AND CALLER EQ DUP1 ISZERO PUSH2 0x1C25 JUMPI JUMPDEST PUSH2 0x1B86 SWAP1 PUSH2 0x5418 JUMP JUMPDEST PUSH1 0x2 DUP2 ADD SWAP6 PUSH2 0x1BA7 DUP8 SLOAD PUSH1 0xFF DUP2 PUSH1 0xB8 SHR AND ISZERO DUP1 PUSH2 0x1C17 JUMPI JUMPDEST PUSH2 0x13CF SWAP1 PUSH2 0x5473 JUMP JUMPDEST PUSH1 0x5 DUP3 ADD SLOAD DUP3 SLOAD PUSH1 0x1 PUSH1 0x1 PUSH1 0xA0 SHL SUB SWAP1 DUP2 AND DUP4 MSTORE PUSH1 0x1 PUSH1 0x20 SWAP1 DUP2 MSTORE PUSH1 0x40 SWAP4 DUP5 SWAP1 KECCAK256 PUSH1 0x9 DUP7 ADD SLOAD SWAP1 SWAP3 AND PUSH0 SWAP1 DUP2 MSTORE SWAP2 SWAP1 MSTORE SWAP2 SWAP1 SWAP2 KECCAK256 DUP1 SLOAD SWAP1 SWAP2 PUSH2 0x1BE8 SWAP2 PUSH2 0x5348 JUMP JUMPDEST SWAP1 SSTORE SLOAD SWAP4 SLOAD SWAP5 SLOAD PUSH1 0x40 DUP1 MLOAD CALLER DUP2 MSTORE PUSH1 0x1 PUSH1 0x1 PUSH1 0xA0 SHL SUB SWAP3 DUP4 AND PUSH1 0x20 DUP3 ADD MSTORE SWAP7 DUP3 AND SWAP7 SWAP6 SWAP1 SWAP2 AND SWAP5 SWAP2 DUP3 SWAP2 DUP3 ADD SWAP1 JUMP JUMPDEST POP PUSH1 0xB0 DUP2 SWAP1 SHR PUSH1 0xFF AND PUSH2 0x1B9E JUMP JUMPDEST POP DUP1 SLOAD PUSH1 0x1 PUSH1 0x1 PUSH1 0xA0 SHL SUB AND CALLER EQ PUSH2 0x1B7D JUMP JUMPDEST POP CALLVALUE PUSH2 0x59C JUMPI DUP1 PUSH1 0x3 NOT CALLDATASIZE ADD SLT PUSH2 0x59C JUMPI SLOAD PUSH1 0x40 MLOAD PUSH1 0x1 PUSH1 0x1 PUSH1 0xA0 SHL SUB SWAP1 SWAP2 AND DUP2 MSTORE PUSH1 0x20 SWAP1 RETURN JUMPDEST POP CALLVALUE PUSH2 0x59C JUMPI DUP1 PUSH1 0x3 NOT CALLDATASIZE ADD SLT PUSH2 0x59C JUMPI PUSH1 0x20 PUSH1 0x2 SLOAD PUSH1 0x40 MLOAD SWAP1 DUP2 MSTORE RETURN JUMPDEST POP CALLVALUE PUSH2 0x59C JUMPI DUP1 PUSH1 0x3 NOT CALLDATASIZE ADD SLT PUSH2 0x59C JUMPI PUSH2 0x1C96 PUSH2 0x55F3 JUMP JUMPDEST DUP1 SLOAD PUSH1 0xFF PUSH1 0xA0 SHL NOT AND DUP2 SSTORE PUSH1 0x40 MLOAD DUP2 DUP2 MSTORE PUSH32 0x17904E4FE7D59BB4603C7C045BC275A05DA9EA3A4AC007FC80FFFEAF119186D SWAP1 PUSH1 0x20 SWAP1 LOG1 CALLER PUSH32 0x793BC6423DD0257D64F9D47DB72FD4B2162F4541AA41740BA1C5FB5E2CD41BCD DUP3 DUP1 LOG2 DUP1 RETURN JUMPDEST POP CALLVALUE PUSH2 0x59C JUMPI PUSH1 0x20 CALLDATASIZE PUSH1 0x3 NOT ADD SLT PUSH2 0x59C JUMPI PUSH1 0x4 CALLDATALOAD DUP2 MSTORE PUSH1 0x4 PUSH1 0x20 MSTORE PUSH1 0x40 SWAP1 KECCAK256 PUSH1 0x1 PUSH1 0xA0 SHL PUSH1 0x1 SWAP1 SUB DUP2 SLOAD AND SWAP1 PUSH1 0x1 PUSH1 0xA0 SHL PUSH1 0x1 SWAP1 SUB PUSH1 0x1 DUP3 ADD SLOAD AND SWAP1 PUSH1 0x2 DUP2 ADD SLOAD PUSH1 0x3 DUP3 ADD SLOAD PUSH1 0x4 DUP4 ADD SLOAD PUSH1 0x5 DUP5 ADD SLOAD PUSH1 0x6 DUP6 ADD SLOAD PUSH1 0x7 DUP7 ADD SLOAD SWAP2 PUSH1 0x8 DUP8 ADD SLOAD SWAP4 PUSH1 0x1 PUSH1 0xA0 SHL PUSH1 0x1 SWAP1 SUB PUSH1 0x9 DUP10 ADD SLOAD AND SWAP6 PUSH1 0x1 PUSH1 0xA0 SHL PUSH1 0x1 SWAP1 SUB PUSH1 0xA DUP11 ADD SLOAD AND SWAP8 PUSH1 0xB DUP11 ADD SLOAD SWAP10 PUSH1 0xC ADD SLOAD PUSH1 0xFF AND SWAP11 PUSH1 0x40 MLOAD SWAP13 DUP14 MSTORE PUSH1 0x20 DUP14 ADD MSTORE PUSH1 0x1 PUSH1 0xA0 SHL PUSH1 0x1 SWAP1 SUB DUP2 AND PUSH1 0x40 DUP14 ADD MSTORE DUP1 PUSH1 0xA0 SHR PUSH1 0xFF AND ISZERO ISZERO PUSH1 0x60 DUP14 ADD MSTORE DUP1 PUSH1 0xA8 SHR PUSH1 0xFF AND ISZERO ISZERO PUSH1 0x80 DUP14 ADD MSTORE DUP1 PUSH1 0xB0 SHR PUSH1 0xFF AND ISZERO ISZERO PUSH1 0xA0 DUP14 ADD MSTORE PUSH1 0xB8 SHR PUSH1 0xFF AND ISZERO ISZERO PUSH1 0xC0 DUP13 ADD MSTORE PUSH1 0xE0 DUP12 ADD MSTORE PUSH2 0x100 DUP11 ADD MSTORE PUSH2 0x120 DUP10 ADD MSTORE PUSH2 0x140 DUP9 ADD MSTORE PUSH2 0x160 DUP8 ADD MSTORE PUSH2 0x180 DUP7 ADD MSTORE PUSH2 0x1A0 DUP6 ADD MSTORE PUSH2 0x1C0 DUP5 ADD MSTORE PUSH2 0x1E0 DUP4 ADD MSTORE PUSH2 0x200 DUP3 ADD PUSH2 0x1E1A SWAP2 PUSH2 0x4BCF JUMP JUMPDEST PUSH2 0x220 SWAP1 RETURN JUMPDEST POP CALLVALUE PUSH2 0x59C JUMPI PUSH1 0x20 CALLDATASIZE PUSH1 0x3 NOT ADD SLT PUSH2 0x59C JUMPI PUSH1 0x40 PUSH1 0x4 CALLDATALOAD SWAP2 DUP3 DUP2 MSTORE PUSH1 0x4 PUSH1 0x20 MSTORE KECCAK256 SWAP1 PUSH1 0x1 DUP3 ADD SWAP1 PUSH1 0x1 DUP1 PUSH1 0xA0 SHL SUB DUP3 SLOAD AND CALLER EQ DUP1 ISZERO PUSH2 0x1EE6 JUMPI JUMPDEST PUSH2 0x1E63 SWAP1 PUSH2 0x5418 JUMP JUMPDEST PUSH0 MLOAD PUSH1 0x20 PUSH2 0x567A PUSH0 CODECOPY PUSH0 MLOAD SWAP1 PUSH0 MSTORE PUSH2 0xF0C PUSH1 0x2 DUP6 ADD SWAP5 PUSH2 0x1E94 DUP7 SLOAD PUSH1 0xFF DUP2 PUSH1 0xB8 SHR AND ISZERO DUP1 PUSH2 0x1C17 JUMPI PUSH2 0x13CF SWAP1 PUSH2 0x5473 JUMP JUMPDEST DUP1 SLOAD PUSH1 0x9 DUP3 ADD SLOAD PUSH1 0x5 DUP4 ADD SLOAD PUSH2 0x1EB8 SWAP3 SWAP1 SWAP2 PUSH1 0x1 PUSH1 0x1 PUSH1 0xA0 SHL SUB SWAP1 DUP2 AND SWAP2 AND PUSH2 0x54BF JUMP JUMPDEST POP SLOAD SWAP4 SLOAD SWAP5 SLOAD PUSH1 0x40 DUP1 MLOAD CALLER DUP2 MSTORE PUSH1 0x1 PUSH1 0x1 PUSH1 0xA0 SHL SUB SWAP3 DUP4 AND PUSH1 0x20 DUP3 ADD MSTORE SWAP7 DUP3 AND SWAP7 SWAP6 SWAP1 SWAP2 AND SWAP5 SWAP2 DUP3 SWAP2 DUP3 ADD SWAP1 JUMP JUMPDEST POP DUP3 SLOAD PUSH1 0x1 PUSH1 0x1 PUSH1 0xA0 SHL SUB AND CALLER EQ PUSH2 0x1E5A JUMP JUMPDEST POP CALLVALUE PUSH2 0x59C JUMPI PUSH1 0x20 CALLDATASIZE PUSH1 0x3 NOT ADD SLT PUSH2 0x59C JUMPI PUSH1 0x1 PUSH1 0x1 PUSH1 0xA0 SHL SUB PUSH2 0x1F1B PUSH2 0x4A2E JUMP JUMPDEST AND DUP2 MSTORE PUSH1 0x5 PUSH1 0x20 MSTORE PUSH1 0x40 DUP2 KECCAK256 PUSH1 0x40 MLOAD SWAP2 DUP3 PUSH1 0x20 DUP4 SLOAD SWAP2 DUP3 DUP2 MSTORE ADD SWAP3 DUP3 MSTORE PUSH1 0x20 DUP3 KECCAK256 SWAP2 JUMPDEST DUP2 DUP2 LT PUSH2 0x1F65 JUMPI PUSH2 0x1F61 DUP6 PUSH2 0x1F55 DUP2 DUP8 SUB DUP3 PUSH2 0x4DAC JUMP JUMPDEST PUSH1 0x40 MLOAD SWAP2 DUP3 SWAP2 DUP3 PUSH2 0x4B96 JUMP JUMPDEST SUB SWAP1 RETURN JUMPDEST DUP3 SLOAD DUP5 MSTORE PUSH1 0x20 SWAP1 SWAP4 ADD SWAP3 PUSH1 0x1 SWAP3 DUP4 ADD SWAP3 ADD PUSH2 0x1F3E JUMP JUMPDEST POP CALLVALUE PUSH2 0x59C JUMPI PUSH2 0x1F8A CALLDATASIZE PUSH2 0x4AF4 JUMP JUMPDEST SWAP1 DUP1 DUP4 MSTORE PUSH1 0x4 PUSH1 0x20 MSTORE PUSH1 0x40 DUP4 KECCAK256 SWAP3 PUSH1 0x1 DUP5 ADD SWAP3 PUSH1 0x1 DUP1 PUSH1 0xA0 SHL SUB DUP5 SLOAD AND CALLER EQ DUP1 ISZERO PUSH2 0x214F JUMPI JUMPDEST PUSH2 0x1FB9 SWAP1 PUSH2 0x5355 JUMP JUMPDEST PUSH20 0x0 DUP1 EXTCODESIZE ISZERO PUSH2 0x112F JUMPI DUP3 PUSH1 0x40 MLOAD DUP1 SWAP3 PUSH4 0x252A867 PUSH1 0xE5 SHL DUP3 MSTORE DUP2 DUP1 PUSH2 0x1FF4 DUP12 PUSH1 0x4 DUP4 ADD PUSH2 0x4FD4 JUMP JUMPDEST SUB SWAP2 GAS DELEGATECALL DUP1 ISZERO PUSH2 0x113B JUMPI SWAP1 DUP4 SWAP2 PUSH2 0x213A JUMPI JUMPDEST POP POP PUSH1 0x6 DUP6 ADD PUSH2 0x2022 DUP3 DUP3 SLOAD PUSH2 0x201D DUP3 DUP3 LT PUSH2 0x4D17 JUMP JUMPDEST PUSH2 0x4D5A JUMP JUMPDEST SWAP1 SSTORE PUSH1 0x1 DUP1 PUSH1 0xA0 SHL SUB PUSH1 0xA DUP7 ADD SLOAD AND SWAP5 PUSH1 0x8 DUP2 ADD SLOAD PUSH1 0x40 MLOAD SWAP1 PUSH4 0x1C8F0847 PUSH1 0xE0 SHL DUP3 MSTORE DUP4 PUSH1 0x4 DUP4 ADD MSTORE PUSH1 0x24 DUP3 ADD MSTORE PUSH1 0x20 DUP2 PUSH1 0x44 DUP2 PUSH20 0x0 GAS DELEGATECALL SWAP4 DUP5 ISZERO PUSH2 0xD1E JUMPI SWAP4 PUSH2 0x2104 JUMPI JUMPDEST POP DUP1 SLOAD PUSH32 0x8AF39814826D4542F7FE66E6FA6AC2AC59BFC8221394F51A41DBA5C54DBA0AC9 SWAP4 SWAP2 PUSH2 0xF0C SWAP2 PUSH2 0x20C2 SWAP1 PUSH1 0x1 PUSH1 0x1 PUSH1 0xA0 SHL SUB AND DUP10 PUSH2 0x20BC DUP7 DUP9 PUSH2 0x4D5A JUMP JUMPDEST SWAP2 PUSH2 0x54BF JUMP JUMPDEST POP PUSH2 0x20DB DUP4 PUSH1 0x2 DUP4 ADD SWAP10 PUSH1 0x1 DUP1 PUSH1 0xA0 SHL SUB DUP12 SLOAD AND PUSH2 0x54BF JUMP JUMPDEST POP SLOAD SWAP6 SLOAD SWAP7 SLOAD PUSH1 0x40 MLOAD PUSH1 0x1 PUSH1 0x1 PUSH1 0xA0 SHL SUB SWAP9 DUP10 AND SWAP9 SWAP8 DUP9 AND SWAP8 SWAP1 SWAP5 DUP6 SWAP5 SWAP3 SWAP1 SWAP2 CALLER SWAP2 AND DUP6 PUSH2 0x517E JUMP JUMPDEST SWAP3 POP PUSH1 0x20 DUP4 RETURNDATASIZE PUSH1 0x20 GT PUSH2 0x2132 JUMPI JUMPDEST DUP2 PUSH2 0x211F PUSH1 0x20 SWAP4 DUP4 PUSH2 0x4DAC JUMP JUMPDEST DUP2 ADD SUB SLT PUSH2 0x4AA JUMPI SWAP2 MLOAD SWAP2 PUSH2 0xF0C PUSH2 0x207A JUMP JUMPDEST RETURNDATASIZE SWAP2 POP PUSH2 0x2112 JUMP JUMPDEST DUP2 PUSH2 0x2144 SWAP2 PUSH2 0x4DAC JUMP JUMPDEST PUSH2 0x525 JUMPI DUP2 PUSH0 PUSH2 0x2006 JUMP JUMPDEST POP PUSH1 0x2 DUP6 ADD SLOAD PUSH1 0x1 PUSH1 0x1 PUSH1 0xA0 SHL SUB AND CALLER EQ PUSH2 0x1FB0 JUMP JUMPDEST POP CALLVALUE PUSH2 0x59C JUMPI DUP1 PUSH1 0x3 NOT CALLDATASIZE ADD SLT PUSH2 0x59C JUMPI PUSH2 0x217E PUSH2 0x55F3 JUMP JUMPDEST DUP1 SLOAD PUSH1 0x1 PUSH1 0x1 PUSH1 0xA0 SHL SUB NOT DUP2 AND DUP3 SSTORE DUP2 SWAP1 PUSH1 0x1 PUSH1 0x1 PUSH1 0xA0 SHL SUB AND PUSH32 0x8BE0079C531659141344CD1FD0A4F28419497F9722A3DAAFE3B4186F6B6457E0 DUP3 DUP1 LOG3 DUP1 RETURN JUMPDEST POP CALLVALUE PUSH2 0x59C JUMPI PUSH1 0x20 CALLDATASIZE PUSH1 0x3 NOT ADD SLT PUSH2 0x59C JUMPI PUSH1 0x40 SWAP1 PUSH1 0x1 PUSH1 0x1 PUSH1 0xA0 SHL SUB PUSH2 0x21E4 PUSH2 0x4A2E JUMP JUMPDEST AND DUP2 MSTORE PUSH1 0x1 PUSH1 0x20 MSTORE KECCAK256 PUSH0 DUP1 MSTORE PUSH1 0x20 MSTORE PUSH1 0x20 PUSH1 0x40 PUSH0 KECCAK256 SLOAD PUSH1 0x40 MLOAD SWAP1 DUP2 MSTORE RETURN JUMPDEST POP CALLVALUE PUSH2 0x59C JUMPI PUSH1 0x20 CALLDATASIZE PUSH1 0x3 NOT ADD SLT PUSH2 0x59C JUMPI PUSH1 0x4 CALLDATALOAD DUP1 DUP3 MSTORE PUSH1 0x4 PUSH1 0x20 MSTORE PUSH1 0x40 DUP3 KECCAK256 SWAP1 PUSH1 0x1 DUP3 ADD SWAP2 PUSH1 0x1 DUP1 PUSH1 0xA0 SHL SUB DUP4 SLOAD AND CALLER EQ DUP1 ISZERO PUSH2 0x2915 JUMPI JUMPDEST DUP1 ISZERO PUSH2 0x28FF JUMPI JUMPDEST PUSH2 0x224C SWAP1 PUSH2 0x53BE JUMP JUMPDEST PUSH1 0x2 DUP2 ADD SWAP4 DUP5 SLOAD PUSH1 0xFF DUP2 PUSH1 0xB8 SHR AND ISZERO PUSH2 0x28C6 JUMPI DUP1 PUSH1 0xFF PUSH2 0x2277 SWAP3 PUSH1 0xA0 SHR AND ISZERO SWAP1 DUP2 PUSH2 0x16E9 JUMPI POP PUSH2 0x52FC JUMP JUMPDEST PUSH1 0xB DUP3 ADD SLOAD TIMESTAMP LT PUSH2 0x288C JUMPI PUSH1 0xFF PUSH1 0xC DUP4 ADD SLOAD AND PUSH1 0x5 DUP4 ADD SLOAD PUSH1 0x1 DUP1 PUSH1 0xA0 SHL SUB PUSH1 0x9 DUP6 ADD SLOAD AND PUSH1 0x6 DUP6 ADD SLOAD SWAP2 PUSH1 0x1 DUP1 PUSH1 0xA0 SHL SUB PUSH1 0xA DUP8 ADD SLOAD AND SWAP1 PUSH1 0x7 DUP8 ADD SLOAD SWAP5 PUSH1 0x8 DUP9 ADD SLOAD SWAP7 PUSH20 0x0 SWAP8 PUSH1 0x40 MLOAD SWAP8 PUSH4 0x1C8F0847 PUSH1 0xE0 SHL DUP10 MSTORE DUP5 PUSH1 0x4 DUP11 ADD MSTORE PUSH1 0x24 DUP10 ADD MSTORE PUSH1 0x20 DUP9 PUSH1 0x44 DUP2 DUP13 GAS DELEGATECALL SWAP8 DUP9 ISZERO PUSH2 0x51A JUMPI DUP3 SWAP9 PUSH2 0x2857 JUMPI JUMPDEST POP PUSH1 0x20 SWAP1 PUSH1 0x44 PUSH1 0x40 MLOAD DUP1 SWAP12 DUP2 SWAP4 PUSH4 0x1C8F0847 PUSH1 0xE0 SHL DUP4 MSTORE DUP12 PUSH1 0x4 DUP5 ADD MSTORE PUSH1 0x24 DUP4 ADD MSTORE GAS DELEGATECALL SWAP8 DUP9 ISZERO PUSH2 0x284A JUMPI DUP2 SWAP9 PUSH2 0x2816 JUMPI JUMPDEST POP PUSH1 0x6 DUP3 LT ISZERO PUSH2 0x2802 JUMPI SWAP2 PUSH1 0x4 DUP3 DUP5 DUP15 DUP15 DUP15 DUP10 PUSH0 MLOAD PUSH1 0x20 PUSH2 0x567A PUSH0 CODECOPY PUSH0 MLOAD SWAP1 PUSH0 MSTORE SWAP16 SWAP14 SWAP12 PUSH2 0xF0C SWAP16 SWAP14 SWAP12 SWAP10 DUP16 DUP16 SWAP1 DUP16 SWAP3 DUP16 DUP6 SWAP16 DUP9 DUP16 DUP6 DUP5 DUP10 DUP16 DUP16 DUP14 DUP16 SWAP9 PUSH1 0x1 DUP13 DUP16 SWAP3 DUP8 DUP12 SWAP16 DUP14 DUP16 DUP13 DUP16 DUP16 DUP13 DUP12 SWAP5 DUP16 SWAP3 DUP15 SWAP9 ISZERO PUSH2 0x2737 JUMPI JUMPDEST PUSH1 0x2 DUP13 EQ PUSH2 0x2670 JUMPI JUMPDEST POP POP POP POP POP POP POP POP POP POP POP EQ PUSH2 0x2588 JUMPI JUMPDEST POP POP POP POP POP POP POP POP POP POP PUSH1 0x3 DUP13 EQ PUSH2 0x24F1 JUMPI JUMPDEST POP POP POP POP POP POP POP POP POP POP POP EQ PUSH2 0x240F JUMPI JUMPDEST POP POP DUP10 SLOAD PUSH1 0x1 PUSH1 0xA8 SHL PUSH1 0xFF PUSH1 0xA8 SHL NOT DUP3 AND OR SWAP1 SWAP11 SSTORE POP POP SWAP2 SLOAD SWAP6 SLOAD PUSH1 0x40 DUP1 MLOAD CALLER DUP2 MSTORE PUSH1 0x1 PUSH1 0x1 PUSH1 0xA0 SHL SUB SWAP10 DUP11 AND PUSH1 0x20 DUP3 ADD MSTORE SWAP2 DUP10 AND SWAP9 SWAP1 SWAP8 AND SWAP7 SWAP1 SWAP4 DUP5 SWAP4 POP SWAP1 DUP4 ADD SWAP2 POP JUMP JUMPDEST DUP5 DUP4 PUSH2 0x2451 PUSH2 0x2473 SWAP7 PUSH2 0x2436 PUSH2 0x2462 SWAP6 DUP12 SWAP9 PUSH2 0x20BC DUP8 PUSH1 0x1 DUP1 PUSH1 0xA0 SHL SUB PUSH1 0x3 SLOAD AND SWAP4 PUSH2 0x4D5A JUMP JUMPDEST POP PUSH1 0x3 SLOAD PUSH1 0x1 PUSH1 0x1 PUSH1 0xA0 SHL SUB AND SWAP1 DUP7 SWAP1 PUSH2 0x20BC SWAP1 DUP10 SWAP1 PUSH2 0x4D5A JUMP JUMPDEST POP DUP14 SLOAD PUSH1 0x1 PUSH1 0x1 PUSH1 0xA0 SHL SUB AND PUSH2 0x54BF JUMP JUMPDEST POP DUP11 SLOAD PUSH1 0x1 PUSH1 0x1 PUSH1 0xA0 SHL SUB AND PUSH2 0x54BF JUMP JUMPDEST POP DUP3 SLOAD DUP8 SLOAD DUP10 SLOAD PUSH1 0x3 SLOAD PUSH1 0x40 DUP1 MLOAD PUSH1 0x1 PUSH1 0x1 PUSH1 0xA0 SHL SUB SWAP4 DUP5 AND DUP2 MSTORE CALLER PUSH1 0x20 DUP3 ADD MSTORE SWAP2 DUP4 AND SWAP1 DUP3 ADD MSTORE PUSH1 0x60 DUP2 ADD DUP6 SWAP1 MSTORE PUSH1 0x80 DUP2 ADD DUP7 SWAP1 MSTORE PUSH1 0xA0 DUP2 ADD SWAP5 SWAP1 SWAP5 MSTORE PUSH1 0xC0 DUP5 ADD SWAP5 SWAP1 SWAP5 MSTORE DUP4 AND SWAP3 AND SWAP1 DUP7 SWAP1 PUSH32 0x8E100DC3335E09B082C843425F71EA8AE9D91AE5BB385EF4B41D0D2C6AA87214 SWAP1 PUSH1 0xE0 SWAP1 LOG4 PUSH0 DUP1 DUP1 DUP1 DUP1 DUP1 PUSH2 0x23C9 JUMP JUMPDEST PUSH32 0x8E100DC3335E09B082C843425F71EA8AE9D91AE5BB385EF4B41D0D2C6AA87214 SWAP7 PUSH2 0x2462 PUSH2 0x252D SWAP4 PUSH1 0xE0 SWAP9 DUP14 PUSH1 0x1 DUP1 PUSH1 0xA0 SHL SUB SWAP1 SLOAD AND PUSH2 0x54BF JUMP JUMPDEST POP PUSH1 0x1 DUP1 PUSH1 0xA0 SHL SUB SWAP1 SLOAD AND SWAP6 PUSH1 0x1 DUP1 PUSH1 0xA0 SHL SUB SWAP1 SLOAD AND SWAP7 PUSH1 0x1 DUP1 PUSH1 0xA0 SHL SUB SWAP1 SLOAD AND SWAP2 PUSH1 0x40 MLOAD SWAP3 DUP1 DUP5 MSTORE CALLER PUSH1 0x20 DUP6 ADD MSTORE PUSH1 0x40 DUP5 ADD MSTORE PUSH1 0x60 DUP4 ADD MSTORE PUSH1 0x80 DUP3 ADD MSTORE DUP7 PUSH1 0xA0 DUP3 ADD MSTORE DUP7 PUSH1 0xC0 DUP3 ADD MSTORE LOG4 DUP15 DUP15 DUP15 DUP8 DUP10 DUP13 DUP16 DUP16 SWAP1 DUP12 DUP16 PUSH2 0x23B8 JUMP JUMPDEST PUSH0 MLOAD PUSH1 0x20 PUSH2 0x569A PUSH0 CODECOPY PUSH0 MLOAD SWAP1 PUSH0 MSTORE SWAP10 PUSH2 0x2605 PUSH32 0x8AF39814826D4542F7FE66E6FA6AC2AC59BFC8221394F51A41DBA5C54DBA0AC9 SWAP9 PUSH2 0x25EF DUP9 DUP7 PUSH2 0x25DE DUP16 SWAP15 PUSH2 0x2616 SWAP10 PUSH2 0x20BC DUP6 PUSH1 0x1 DUP1 PUSH1 0xA0 SHL SUB DUP10 SLOAD AND SWAP4 PUSH2 0x4D5A JUMP JUMPDEST POP DUP10 SLOAD PUSH1 0x1 PUSH1 0x1 PUSH1 0xA0 SHL SUB AND PUSH2 0x54BF JUMP JUMPDEST POP SLOAD PUSH1 0x1 PUSH1 0x1 PUSH1 0xA0 SHL SUB AND DUP3 PUSH2 0x20BC DUP6 DUP12 PUSH2 0x4D5A JUMP JUMPDEST POP DUP5 SLOAD PUSH1 0x1 PUSH1 0x1 PUSH1 0xA0 SHL SUB AND PUSH2 0x54BF JUMP JUMPDEST POP DUP11 SLOAD SWAP1 SLOAD SWAP2 SLOAD PUSH1 0x40 MLOAD PUSH1 0x1 PUSH1 0x1 PUSH1 0xA0 SHL SUB SWAP4 DUP5 AND SWAP10 SWAP3 DUP5 AND SWAP9 SWAP2 SWAP1 SWAP4 AND SWAP4 DUP10 SWAP4 DUP10 SWAP4 SWAP2 DUP2 SWAP1 PUSH2 0x2649 SWAP1 DUP16 CALLER DUP11 DUP6 PUSH2 0x517E JUMP JUMPDEST SUB SWAP1 LOG4 PUSH2 0x265E DUP11 PUSH1 0x40 MLOAD SWAP4 DUP5 SWAP4 CALLER SWAP1 DUP6 PUSH2 0x517E JUMP JUMPDEST SUB SWAP1 LOG4 DUP7 DUP9 DUP4 DUP6 DUP5 DUP10 DUP16 DUP16 DUP14 DUP13 PUSH2 0x23A5 JUMP JUMPDEST PUSH2 0x26DA PUSH0 MLOAD PUSH1 0x20 PUSH2 0x561A PUSH0 CODECOPY PUSH0 MLOAD SWAP1 PUSH0 MSTORE SWAP8 DUP10 SWAP4 DUP16 DUP14 DUP14 PUSH2 0x25DE PUSH0 MLOAD PUSH1 0x20 PUSH2 0x56BA PUSH0 CODECOPY PUSH0 MLOAD SWAP1 PUSH0 MSTORE SWAP16 DUP13 SWAP1 PUSH2 0x20BC DUP6 DUP14 DUP9 PUSH2 0x26B2 SWAP10 PUSH1 0xA0 SHL SUB SWAP1 SLOAD AND SWAP4 PUSH2 0x4D5A JUMP JUMPDEST POP DUP16 DUP1 PUSH2 0x26CB SWAP2 PUSH1 0xA0 SHL SUB DUP8 SLOAD AND DUP3 PUSH2 0x20BC DUP6 DUP14 PUSH2 0x4D5A JUMP JUMPDEST POP DUP16 DUP1 PUSH1 0xA0 SHL SUB DUP8 SLOAD AND PUSH2 0x54BF JUMP JUMPDEST POP DUP13 DUP1 PUSH1 0xA0 SHL SUB SWAP1 SLOAD AND SWAP8 DUP9 SWAP3 DUP14 DUP1 PUSH1 0xA0 SHL SUB SWAP1 SLOAD AND SWAP10 DUP11 SWAP5 DUP15 DUP1 PUSH1 0xA0 SHL SUB SWAP1 SLOAD AND SWAP6 PUSH2 0x270E PUSH1 0x40 MLOAD SWAP3 DUP4 SWAP3 CALLER DUP11 DUP6 PUSH2 0x517E JUMP JUMPDEST SUB SWAP1 LOG4 PUSH2 0x2723 DUP11 PUSH1 0x40 MLOAD SWAP4 DUP5 SWAP4 CALLER SWAP1 DUP6 PUSH2 0x517E JUMP JUMPDEST SUB SWAP1 LOG4 DUP8 DUP6 DUP14 DUP16 DUP13 DUP16 DUP16 DUP13 DUP12 SWAP5 DUP16 SWAP3 PUSH2 0x2394 JUMP JUMPDEST PUSH2 0x274E DUP14 DUP1 PUSH1 0xA0 SHL SUB DUP3 SLOAD AND DUP11 PUSH2 0x20BC DUP14 DUP10 PUSH2 0x4D5A JUMP JUMPDEST POP PUSH2 0x2762 DUP11 DUP11 DUP16 DUP1 PUSH1 0xA0 SHL SUB DUP8 SLOAD AND PUSH2 0x54BF JUMP JUMPDEST POP PUSH2 0x277A DUP14 DUP1 PUSH1 0xA0 SHL SUB DUP5 SLOAD AND DUP4 PUSH2 0x20BC DUP11 DUP11 PUSH2 0x4D5A JUMP JUMPDEST POP PUSH2 0x278E DUP8 DUP4 DUP16 DUP1 PUSH1 0xA0 SHL SUB DUP8 SLOAD AND PUSH2 0x54BF JUMP JUMPDEST POP DUP10 DUP14 DUP1 PUSH1 0xA0 SHL SUB DUP3 SLOAD AND DUP10 DUP16 DUP10 DUP10 DUP10 DUP6 DUP6 PUSH0 MLOAD PUSH1 0x20 PUSH2 0x569A PUSH0 CODECOPY PUSH0 MLOAD SWAP1 PUSH0 MSTORE DUP7 PUSH0 MLOAD PUSH1 0x20 PUSH2 0x561A PUSH0 CODECOPY PUSH0 MLOAD SWAP1 PUSH0 MSTORE SWAP8 PUSH1 0xA0 SHL SUB DUP14 SLOAD AND SWAP10 PUSH1 0x1 SWAP5 DUP6 DUP13 SWAP7 PUSH1 0xA0 SHL SUB SWAP1 SLOAD AND SWAP6 PUSH2 0x27E5 PUSH1 0x40 MLOAD SWAP3 DUP4 SWAP3 CALLER DUP11 DUP6 PUSH2 0x517E JUMP JUMPDEST SUB SWAP1 LOG4 PUSH2 0x27FA DUP14 PUSH1 0x40 MLOAD SWAP4 DUP5 SWAP4 CALLER SWAP1 DUP6 PUSH2 0x517E JUMP JUMPDEST SUB SWAP1 LOG4 PUSH2 0x238B JUMP JUMPDEST PUSH4 0x4E487B71 PUSH1 0xE0 SHL DUP2 MSTORE PUSH1 0x21 PUSH1 0x4 MSTORE PUSH1 0x24 SWAP1 REVERT JUMPDEST SWAP1 SWAP8 POP PUSH1 0x20 DUP2 RETURNDATASIZE PUSH1 0x20 GT PUSH2 0x2842 JUMPI JUMPDEST DUP2 PUSH2 0x2832 PUSH1 0x20 SWAP4 DUP4 PUSH2 0x4DAC JUMP JUMPDEST DUP2 ADD SUB SLT PUSH2 0x4AA JUMPI MLOAD SWAP7 PUSH0 PUSH2 0x2334 JUMP JUMPDEST RETURNDATASIZE SWAP2 POP PUSH2 0x2825 JUMP JUMPDEST POP PUSH1 0x40 MLOAD SWAP1 RETURNDATASIZE SWAP1 DUP3 RETURNDATACOPY RETURNDATASIZE SWAP1 REVERT JUMPDEST SWAP1 SWAP8 POP PUSH1 0x20 DUP2 RETURNDATASIZE PUSH1 0x20 GT PUSH2 0x2884 JUMPI JUMPDEST DUP2 PUSH2 0x2873 PUSH1 0x20 SWAP4 DUP4 PUSH2 0x4DAC JUMP JUMPDEST DUP2 ADD SUB SLT PUSH2 0x4AA JUMPI MLOAD SWAP7 PUSH1 0x20 PUSH2 0x2302 JUMP JUMPDEST RETURNDATASIZE SWAP2 POP PUSH2 0x2866 JUMP JUMPDEST PUSH1 0x40 MLOAD PUSH3 0x461BCD PUSH1 0xE5 SHL DUP2 MSTORE PUSH1 0x20 PUSH1 0x4 DUP3 ADD MSTORE PUSH1 0x12 PUSH1 0x24 DUP3 ADD MSTORE PUSH18 0x1119585B081B9BDD08195E1C1A5C985D1959 PUSH1 0x72 SHL PUSH1 0x44 DUP3 ADD MSTORE PUSH1 0x64 SWAP1 REVERT JUMPDEST PUSH1 0x40 MLOAD PUSH3 0x461BCD PUSH1 0xE5 SHL DUP2 MSTORE PUSH1 0x20 PUSH1 0x4 DUP3 ADD MSTORE PUSH1 0x11 PUSH1 0x24 DUP3 ADD MSTORE PUSH17 0x1119585B081B5D5CDD081CDD185C9D1959 PUSH1 0x7A SHL PUSH1 0x44 DUP3 ADD MSTORE PUSH1 0x64 SWAP1 REVERT JUMPDEST POP PUSH1 0x2 DUP2 ADD SLOAD PUSH1 0x1 PUSH1 0x1 PUSH1 0xA0 SHL SUB AND CALLER EQ PUSH2 0x2243 JUMP JUMPDEST POP DUP1 SLOAD PUSH1 0x1 PUSH1 0x1 PUSH1 0xA0 SHL SUB AND CALLER EQ PUSH2 0x223C JUMP JUMPDEST POP CALLVALUE PUSH2 0x59C JUMPI PUSH2 0x2937 CALLDATASIZE PUSH2 0x4AC6 JUMP JUMPDEST DUP4 DUP6 SWAP3 SWAP5 SWAP4 SWAP6 MSTORE PUSH1 0x4 PUSH1 0x20 MSTORE PUSH1 0x40 DUP3 KECCAK256 SWAP1 PUSH1 0x1 DUP3 ADD SWAP5 PUSH2 0x2961 PUSH1 0x1 DUP1 PUSH1 0xA0 SHL SUB DUP8 SLOAD AND CALLER EQ PUSH2 0x4F74 JUMP JUMPDEST PUSH20 0x0 DUP1 EXTCODESIZE ISZERO PUSH2 0x2D9D JUMPI DUP5 PUSH1 0x40 MLOAD DUP1 SWAP3 PUSH4 0x252A867 PUSH1 0xE5 SHL DUP3 MSTORE DUP2 DUP1 PUSH2 0x299C DUP10 PUSH1 0x4 DUP4 ADD PUSH2 0x4FD4 JUMP JUMPDEST SUB SWAP2 GAS DELEGATECALL DUP1 ISZERO PUSH2 0xA2E JUMPI SWAP1 DUP6 SWAP2 PUSH2 0x2D88 JUMPI JUMPDEST POP POP PUSH1 0x2 DUP4 ADD SWAP7 PUSH2 0x29C6 PUSH1 0xFF DUP10 SLOAD PUSH1 0xB0 SHR AND ISZERO PUSH2 0x50B9 JUMP JUMPDEST CALLER DUP6 MSTORE PUSH1 0x1 PUSH1 0x20 MSTORE PUSH1 0x40 DUP6 KECCAK256 PUSH1 0x1 DUP1 PUSH1 0xA0 SHL SUB DUP3 AND PUSH0 MSTORE PUSH1 0x20 MSTORE PUSH2 0x29F0 DUP3 PUSH1 0x40 PUSH0 KECCAK256 SLOAD LT ISZERO PUSH2 0x4D17 JUMP JUMPDEST PUSH1 0x4 DUP5 ADD SWAP1 DUP2 SLOAD CALLER DUP8 MSTORE PUSH1 0x1 PUSH1 0x20 MSTORE PUSH1 0x40 DUP8 KECCAK256 PUSH1 0x1 DUP1 PUSH1 0xA0 SHL SUB DUP4 AND PUSH0 MSTORE PUSH1 0x20 MSTORE PUSH2 0x2A20 PUSH1 0x40 PUSH0 KECCAK256 SWAP2 DUP3 SLOAD PUSH2 0x4D5A JUMP JUMPDEST SWAP1 SSTORE DUP4 PUSH2 0x2D34 JUMPI JUMPDEST CALLER DUP7 MSTORE PUSH1 0x1 PUSH1 0x20 MSTORE PUSH1 0x40 DUP7 KECCAK256 PUSH1 0x1 DUP1 PUSH1 0xA0 SHL SUB DUP3 AND PUSH0 MSTORE PUSH1 0x20 MSTORE PUSH1 0x40 PUSH0 KECCAK256 SLOAD DUP4 DUP2 LT PUSH2 0x2AF2 JUMPI JUMPDEST POP SWAP2 DUP1 SWAP2 PUSH1 0x20 SWAP6 SWAP5 SWAP4 PUSH1 0x40 PUSH0 MLOAD PUSH1 0x20 PUSH2 0x56DA PUSH0 CODECOPY PUSH0 MLOAD SWAP1 PUSH0 MSTORE SWAP9 CALLER DUP2 MSTORE PUSH1 0x1 DUP10 MSTORE KECCAK256 PUSH1 0x1 DUP1 PUSH1 0xA0 SHL SUB DUP3 AND PUSH0 MSTORE DUP8 MSTORE PUSH1 0x40 PUSH0 KECCAK256 PUSH2 0x2A8D DUP5 DUP3 SLOAD PUSH2 0x4D5A JUMP JUMPDEST SWAP1 SSTORE DUP11 SLOAD PUSH1 0xFF PUSH1 0xB0 SHL NOT AND PUSH1 0x1 PUSH1 0xB0 SHL OR DUP12 SSTORE PUSH1 0xA DUP7 ADD DUP1 SLOAD PUSH1 0x1 PUSH1 0x1 PUSH1 0xA0 SHL SUB NOT AND PUSH1 0x1 PUSH1 0x1 PUSH1 0xA0 SHL SUB SWAP3 DUP4 AND OR SWAP1 SSTORE SWAP2 SWAP1 SSTORE PUSH1 0x6 DUP5 ADD SWAP2 SWAP1 SWAP2 SSTORE PUSH1 0x8 DUP4 ADD SWAP2 SWAP1 SWAP2 SSTORE SWAP1 SLOAD SWAP5 SLOAD SWAP6 SLOAD PUSH1 0x40 MLOAD SWAP1 DUP3 AND DUP2 MSTORE SWAP6 DUP2 AND SWAP6 SWAP5 AND SWAP4 LOG4 PUSH1 0x20 PUSH1 0x40 MLOAD PUSH1 0x1 DUP2 MSTORE RETURN JUMPDEST PUSH2 0x2B00 SWAP1 DUP5 SWAP4 SWAP7 SWAP6 SWAP5 PUSH2 0x4D5A JUMP JUMPDEST SWAP5 PUSH2 0x2B11 PUSH1 0xFF DUP9 SLOAD PUSH1 0xA0 SHR AND PUSH2 0x4CCB JUMP JUMPDEST DUP6 ISZERO PUSH2 0xD69 JUMPI PUSH1 0x2 SLOAD SWAP2 PUSH1 0x40 MLOAD SWAP3 PUSH4 0x1C8F0847 PUSH1 0xE0 SHL DUP5 MSTORE DUP8 PUSH1 0x4 DUP6 ADD MSTORE PUSH1 0x24 DUP5 ADD MSTORE PUSH1 0x20 DUP4 PUSH1 0x44 DUP2 PUSH20 0x0 GAS DELEGATECALL SWAP3 DUP4 ISZERO PUSH2 0x2D29 JUMPI DUP9 SWAP4 PUSH2 0x2CF5 JUMPI JUMPDEST POP PUSH1 0x1 PUSH1 0x1 PUSH1 0xA0 SHL SUB DUP2 AND SWAP3 DUP4 PUSH2 0x2C0C JUMPI PUSH2 0x2B7A DUP2 DUP10 PUSH2 0x5348 JUMP JUMPDEST PUSH2 0xB87 JUMPI PUSH0 MLOAD PUSH1 0x20 PUSH2 0x56DA PUSH0 CODECOPY PUSH0 MLOAD SWAP1 PUSH0 MSTORE SWAP9 PUSH1 0x20 SWAP9 DUP7 SWAP6 PUSH1 0x40 SWAP4 CALLER DUP5 MSTORE PUSH1 0x1 DUP13 MSTORE DUP5 DUP5 KECCAK256 PUSH0 DUP1 MSTORE DUP13 MSTORE DUP5 PUSH0 KECCAK256 PUSH2 0x2BB2 DUP5 DUP3 SLOAD PUSH2 0x5348 JUMP JUMPDEST SWAP1 SSTORE PUSH1 0x1 DUP1 PUSH1 0xA0 SHL SUB PUSH1 0x3 SLOAD AND DUP5 MSTORE PUSH1 0x1 DUP13 MSTORE DUP5 DUP5 KECCAK256 PUSH0 DUP1 MSTORE DUP13 MSTORE DUP5 PUSH0 KECCAK256 PUSH2 0x2BDB DUP3 DUP3 SLOAD PUSH2 0x5348 JUMP JUMPDEST SWAP1 SSTORE JUMPDEST DUP5 MLOAD SWAP3 DUP4 MSTORE DUP12 DUP4 ADD MSTORE DUP4 DUP3 ADD MSTORE PUSH0 MLOAD PUSH1 0x20 PUSH2 0x565A PUSH0 CODECOPY PUSH0 MLOAD SWAP1 PUSH0 MSTORE PUSH1 0x60 CALLER SWAP3 LOG2 SWAP9 POP POP SWAP2 POP SWAP2 SWAP3 SWAP4 SWAP5 PUSH2 0x2A4F JUMP JUMPDEST PUSH2 0x2C16 DUP2 DUP10 PUSH2 0x5348 JUMP JUMPDEST PUSH1 0x40 MLOAD SWAP1 PUSH4 0x23B872DD PUSH1 0xE0 SHL DUP3 MSTORE CALLER PUSH1 0x4 DUP4 ADD MSTORE ADDRESS PUSH1 0x24 DUP4 ADD MSTORE PUSH1 0x44 DUP3 ADD MSTORE PUSH1 0x20 DUP2 PUSH1 0x64 DUP2 DUP14 DUP10 GAS CALL SWAP1 DUP2 ISZERO PUSH2 0x4B6 JUMPI DUP11 SWAP2 PUSH2 0x2CB7 JUMPI JUMPDEST POP ISZERO PUSH2 0xC83 JUMPI PUSH0 MLOAD PUSH1 0x20 PUSH2 0x56DA PUSH0 CODECOPY PUSH0 MLOAD SWAP1 PUSH0 MSTORE SWAP9 PUSH1 0x20 SWAP9 DUP7 SWAP6 PUSH1 0x40 SWAP4 CALLER DUP5 MSTORE PUSH1 0x1 DUP13 MSTORE DUP5 DUP5 KECCAK256 DUP3 PUSH0 MSTORE DUP13 MSTORE DUP5 PUSH0 KECCAK256 PUSH2 0x2C87 DUP5 DUP3 SLOAD PUSH2 0x5348 JUMP JUMPDEST SWAP1 SSTORE PUSH1 0x1 DUP1 PUSH1 0xA0 SHL SUB PUSH1 0x3 SLOAD AND DUP5 MSTORE PUSH1 0x1 DUP13 MSTORE DUP5 DUP5 KECCAK256 DUP3 PUSH0 MSTORE DUP13 MSTORE DUP5 PUSH0 KECCAK256 PUSH2 0x2CB0 DUP3 DUP3 SLOAD PUSH2 0x5348 JUMP JUMPDEST SWAP1 SSTORE PUSH2 0x2BDE JUMP JUMPDEST SWAP1 POP PUSH1 0x20 DUP2 RETURNDATASIZE PUSH1 0x20 GT PUSH2 0x2CED JUMPI JUMPDEST DUP2 PUSH2 0x2CD2 PUSH1 0x20 SWAP4 DUP4 PUSH2 0x4DAC JUMP JUMPDEST DUP2 ADD SUB SLT PUSH2 0x2CE9 JUMPI PUSH2 0x2CE3 SWAP1 PUSH2 0x4DE2 JUMP JUMPDEST PUSH0 PUSH2 0x2C4D JUMP JUMPDEST DUP10 DUP1 REVERT JUMPDEST RETURNDATASIZE SWAP2 POP PUSH2 0x2CC5 JUMP JUMPDEST SWAP1 SWAP3 POP PUSH1 0x20 DUP2 RETURNDATASIZE PUSH1 0x20 GT PUSH2 0x2D21 JUMPI JUMPDEST DUP2 PUSH2 0x2D11 PUSH1 0x20 SWAP4 DUP4 PUSH2 0x4DAC JUMP JUMPDEST DUP2 ADD SUB SLT PUSH2 0x4AA JUMPI MLOAD SWAP2 PUSH0 PUSH2 0x2B5F JUMP JUMPDEST RETURNDATASIZE SWAP2 POP PUSH2 0x2D04 JUMP JUMPDEST PUSH1 0x40 MLOAD RETURNDATASIZE DUP11 DUP3 RETURNDATACOPY RETURNDATASIZE SWAP1 REVERT JUMPDEST DUP9 SLOAD PUSH1 0x1 PUSH1 0x1 PUSH1 0xA0 SHL SUB AND PUSH2 0x2A28 JUMPI PUSH1 0x40 MLOAD PUSH3 0x461BCD PUSH1 0xE5 SHL DUP2 MSTORE PUSH1 0x20 PUSH1 0x4 DUP3 ADD MSTORE PUSH1 0x1D PUSH1 0x24 DUP3 ADD MSTORE PUSH32 0x43616E74207061792066656520746F207A65726F206D65646961746F72000000 PUSH1 0x44 DUP3 ADD MSTORE PUSH1 0x64 SWAP1 REVERT JUMPDEST DUP2 PUSH2 0x2D92 SWAP2 PUSH2 0x4DAC JUMP JUMPDEST PUSH2 0x516 JUMPI DUP4 PUSH0 PUSH2 0x29AE JUMP JUMPDEST DUP5 DUP1 REVERT JUMPDEST POP CALLVALUE PUSH2 0x59C JUMPI PUSH1 0x20 CALLDATASIZE PUSH1 0x3 NOT ADD SLT PUSH2 0x59C JUMPI PUSH1 0x1 PUSH1 0x1 PUSH1 0xA0 SHL SUB PUSH2 0x2DC3 PUSH2 0x4A2E JUMP JUMPDEST AND DUP2 MSTORE PUSH1 0x7 PUSH1 0x20 MSTORE PUSH1 0x40 DUP2 KECCAK256 PUSH1 0x40 MLOAD SWAP2 DUP3 PUSH1 0x20 DUP4 SLOAD SWAP2 DUP3 DUP2 MSTORE ADD SWAP3 DUP3 MSTORE PUSH1 0x20 DUP3 KECCAK256 SWAP2 JUMPDEST DUP2 DUP2 LT PUSH2 0x2DFD JUMPI PUSH2 0x1F61 DUP6 PUSH2 0x1F55 DUP2 DUP8 SUB DUP3 PUSH2 0x4DAC JUMP JUMPDEST DUP3 SLOAD DUP5 MSTORE PUSH1 0x20 SWAP1 SWAP4 ADD SWAP3 PUSH1 0x1 SWAP3 DUP4 ADD SWAP3 ADD PUSH2 0x2DE6 JUMP JUMPDEST POP CALLVALUE PUSH2 0x59C JUMPI PUSH1 0x20 CALLDATASIZE PUSH1 0x3 NOT ADD SLT PUSH2 0x59C JUMPI PUSH1 0x4 CALLDATALOAD DUP1 DUP3 MSTORE PUSH1 0x4 PUSH1 0x20 MSTORE PUSH1 0x40 DUP3 KECCAK256 PUSH1 0x1 DUP1 PUSH1 0xA0 SHL SUB DUP2 SLOAD AND CALLER EQ DUP1 ISZERO PUSH2 0x317C JUMPI JUMPDEST ISZERO PUSH2 0x3120 JUMPI DUP3 PUSH20 0x0 DUP1 EXTCODESIZE ISZERO PUSH2 0x525 JUMPI DUP2 PUSH1 0x40 MLOAD DUP1 SWAP3 PUSH4 0x252A867 PUSH1 0xE5 SHL DUP3 MSTORE DUP2 DUP1 PUSH2 0x2E88 DUP9 PUSH1 0x4 DUP4 ADD PUSH2 0x4FD4 JUMP JUMPDEST SUB SWAP2 GAS DELEGATECALL DUP1 ISZERO PUSH2 0x51A JUMPI PUSH2 0x310B JUMPI JUMPDEST POP POP PUSH1 0x5 DUP2 ADD SLOAD PUSH1 0x9 DUP3 ADD SLOAD PUSH1 0x6 DUP4 ADD SLOAD PUSH1 0xA DUP5 ADD SLOAD PUSH1 0x7 DUP6 ADD SLOAD PUSH1 0x8 DUP7 ADD SLOAD PUSH1 0x40 MLOAD PUSH4 0x1C8F0847 PUSH1 0xE0 SHL DUP2 MSTORE PUSH1 0x4 DUP2 ADD DUP8 SWAP1 MSTORE PUSH1 0x24 DUP2 ADD SWAP3 SWAP1 SWAP3 MSTORE PUSH1 0x1 PUSH1 0x1 PUSH1 0xA0 SHL SUB SWAP5 DUP6 AND SWAP7 SWAP4 SWAP6 PUSH20 0x0 SWAP6 SWAP1 SWAP4 AND SWAP4 SWAP1 PUSH1 0x20 DUP4 PUSH1 0x44 DUP2 DUP10 GAS DELEGATECALL SWAP3 DUP4 ISZERO PUSH2 0x4B6 JUMPI DUP11 SWAP4 PUSH2 0x30D6 JUMPI JUMPDEST POP PUSH1 0x20 SWAP1 PUSH1 0x44 PUSH1 0x40 MLOAD DUP1 SWAP9 DUP2 SWAP4 PUSH4 0x1C8F0847 PUSH1 0xE0 SHL DUP4 MSTORE DUP12 PUSH1 0x4 DUP5 ADD MSTORE PUSH1 0x24 DUP4 ADD MSTORE GAS DELEGATECALL SWAP5 DUP6 ISZERO PUSH2 0x30CB JUMPI DUP9 SWAP10 SWAP9 SWAP8 SWAP9 SWAP6 PUSH2 0x3090 JUMPI JUMPDEST POP PUSH1 0x1 DUP2 ADD DUP1 SLOAD SWAP1 SWAP5 DUP9 SWAP5 SWAP4 SWAP3 SWAP2 PUSH1 0x1 PUSH1 0x1 PUSH1 0xA0 SHL SUB AND DUP11 PUSH2 0x2F6B DUP6 DUP8 PUSH2 0x4D5A JUMP JUMPDEST SWAP1 PUSH2 0x2F75 SWAP3 PUSH2 0x54BF JUMP JUMPDEST POP PUSH1 0x2 DUP3 ADD DUP1 SLOAD SWAP1 SWAP11 PUSH2 0x2F93 SWAP2 DUP6 SWAP2 SWAP1 PUSH1 0x1 PUSH1 0x1 PUSH1 0xA0 SHL SUB AND PUSH2 0x54BF JUMP JUMPDEST POP DUP2 SLOAD PUSH1 0x1 PUSH1 0x1 PUSH1 0xA0 SHL SUB AND DUP2 PUSH2 0x2FAA DUP11 DUP1 PUSH2 0x4D5A JUMP JUMPDEST SWAP1 PUSH2 0x2FB4 SWAP3 PUSH2 0x54BF JUMP JUMPDEST POP DUP10 SLOAD PUSH2 0x2FCB SWAP2 DUP9 SWAP2 PUSH1 0x1 PUSH1 0x1 PUSH1 0xA0 SHL SUB AND PUSH2 0x54BF JUMP JUMPDEST POP SLOAD SWAP4 SLOAD SWAP8 SLOAD PUSH1 0x40 MLOAD PUSH1 0x1 PUSH1 0x1 PUSH1 0xA0 SHL SUB SWAP10 DUP11 AND SWAP11 SWAP6 DUP11 AND SWAP10 SWAP1 SWAP2 AND SWAP7 DUP11 SWAP7 DUP11 SWAP7 DUP9 SWAP4 DUP9 SWAP4 SWAP2 SWAP3 SWAP1 SWAP2 DUP3 SWAP2 PUSH2 0x3002 SWAP2 CALLER DUP15 DUP6 PUSH2 0x517E JUMP JUMPDEST SUB PUSH32 0x8AF39814826D4542F7FE66E6FA6AC2AC59BFC8221394F51A41DBA5C54DBA0AC9 SWAP2 LOG4 PUSH1 0x40 MLOAD SWAP2 DUP3 SWAP2 PUSH2 0x3038 SWAP2 CALLER DUP10 DUP6 PUSH2 0x517E JUMP JUMPDEST SUB PUSH0 MLOAD PUSH1 0x20 PUSH2 0x56BA PUSH0 CODECOPY PUSH0 MLOAD SWAP1 PUSH0 MSTORE SWAP2 LOG4 PUSH1 0x40 DUP1 MLOAD CALLER DUP2 MSTORE PUSH1 0x1 PUSH1 0x1 PUSH1 0xA0 SHL SUB SWAP3 SWAP1 SWAP3 AND PUSH1 0x20 DUP4 ADD MSTORE PUSH32 0xFAEE379435B6A0C297F1A08C66517FDC202DEBC6D275E6DD73630E3EBD1BDD97 SWAP2 LOG4 PUSH1 0x40 MLOAD PUSH1 0x1 DUP2 MSTORE PUSH1 0x20 SWAP1 RETURN JUMPDEST SWAP3 SWAP2 SWAP7 POP SWAP4 POP PUSH1 0x20 DUP3 RETURNDATASIZE PUSH1 0x20 GT PUSH2 0x30C3 JUMPI JUMPDEST DUP2 PUSH2 0x30AF PUSH1 0x20 SWAP4 DUP4 PUSH2 0x4DAC JUMP JUMPDEST DUP2 ADD SUB SLT PUSH2 0x4AA JUMPI SWAP1 MLOAD DUP8 SWAP6 SWAP1 SWAP4 DUP7 PUSH2 0x2F49 JUMP JUMPDEST RETURNDATASIZE SWAP2 POP PUSH2 0x30A2 JUMP JUMPDEST PUSH1 0x40 MLOAD RETURNDATASIZE DUP12 DUP3 RETURNDATACOPY RETURNDATASIZE SWAP1 REVERT JUMPDEST SWAP1 SWAP3 POP PUSH1 0x20 DUP2 RETURNDATASIZE PUSH1 0x20 GT PUSH2 0x3103 JUMPI JUMPDEST DUP2 PUSH2 0x30F2 PUSH1 0x20 SWAP4 DUP4 PUSH2 0x4DAC JUMP JUMPDEST DUP2 ADD SUB SLT PUSH2 0x4AA JUMPI MLOAD SWAP2 PUSH1 0x20 PUSH2 0x2F13 JUMP JUMPDEST RETURNDATASIZE SWAP2 POP PUSH2 0x30E5 JUMP JUMPDEST DUP2 PUSH2 0x3115 SWAP2 PUSH2 0x4DAC JUMP JUMPDEST PUSH2 0x112F JUMPI DUP3 PUSH0 PUSH2 0x2E97 JUMP JUMPDEST PUSH1 0x40 MLOAD PUSH3 0x461BCD PUSH1 0xE5 SHL DUP2 MSTORE PUSH1 0x20 PUSH1 0x4 DUP3 ADD MSTORE PUSH1 0x2E PUSH1 0x24 DUP3 ADD MSTORE PUSH32 0x4F6E6C79206120696E69746174696F72206F72206D65646961746F722063616E PUSH1 0x44 DUP3 ADD MSTORE PUSH14 0x818DBDB5C1B1A5D19481919585B PUSH1 0x92 SHL PUSH1 0x64 DUP3 ADD MSTORE PUSH1 0x84 SWAP1 REVERT JUMPDEST POP PUSH1 0x2 DUP2 ADD SLOAD PUSH1 0x1 PUSH1 0x1 PUSH1 0xA0 SHL SUB AND CALLER EQ PUSH2 0x2E47 JUMP JUMPDEST POP CALLVALUE PUSH2 0x59C JUMPI PUSH1 0x20 CALLDATASIZE PUSH1 0x3 NOT ADD SLT PUSH2 0x59C JUMPI DUP1 PUSH2 0x200 PUSH1 0x40 MLOAD PUSH2 0x31B4 DUP2 PUSH2 0x4D7B JUMP JUMPDEST DUP3 DUP2 MSTORE DUP3 PUSH1 0x20 DUP3 ADD MSTORE DUP3 PUSH1 0x40 DUP3 ADD MSTORE DUP3 PUSH1 0x60 DUP3 ADD MSTORE DUP3 PUSH1 0x80 DUP3 ADD MSTORE DUP3 PUSH1 0xA0 DUP3 ADD MSTORE DUP3 PUSH1 0xC0 DUP3 ADD MSTORE DUP3 PUSH1 0xE0 DUP3 ADD MSTORE DUP3 PUSH2 0x100 DUP3 ADD MSTORE DUP3 PUSH2 0x120 DUP3 ADD MSTORE DUP3 PUSH2 0x140 DUP3 ADD MSTORE DUP3 PUSH2 0x160 DUP3 ADD MSTORE DUP3 PUSH2 0x180 DUP3 ADD MSTORE DUP3 PUSH2 0x1A0 DUP3 ADD MSTORE DUP3 PUSH2 0x1C0 DUP3 ADD MSTORE DUP3 PUSH2 0x1E0 DUP3 ADD MSTORE ADD MSTORE PUSH1 0x4 CALLDATALOAD DUP2 MSTORE PUSH1 0x4 PUSH1 0x20 MSTORE PUSH1 0x40 DUP2 KECCAK256 PUSH1 0xFF PUSH1 0xC PUSH1 0x40 MLOAD SWAP3 PUSH2 0x323A DUP5 PUSH2 0x4D7B JUMP JUMPDEST DUP1 SLOAD PUSH1 0x1 PUSH1 0x1 PUSH1 0xA0 SHL SUB SWAP1 DUP2 AND DUP6 MSTORE PUSH1 0x1 DUP3 ADD SLOAD DUP2 AND PUSH1 0x20 DUP7 ADD MSTORE PUSH1 0x2 DUP3 ADD SLOAD DUP1 DUP3 AND PUSH1 0x40 DUP8 ADD MSTORE PUSH1 0xA0 DUP2 DUP2 SHR DUP7 AND ISZERO ISZERO PUSH1 0x60 DUP9 ADD MSTORE PUSH1 0xA8 DUP3 SWAP1 SHR DUP7 AND ISZERO ISZERO PUSH1 0x80 DUP9 ADD MSTORE PUSH1 0xB0 DUP3 SWAP1 SHR DUP7 AND ISZERO ISZERO SWAP1 DUP8 ADD MSTORE PUSH1 0xB8 SHR DUP5 AND ISZERO ISZERO PUSH1 0xC0 DUP7 ADD MSTORE PUSH1 0x3 DUP3 ADD SLOAD PUSH1 0xE0 DUP7 ADD MSTORE PUSH1 0x4 DUP3 ADD SLOAD PUSH2 0x100 DUP7 ADD MSTORE PUSH1 0x5 DUP3 ADD SLOAD PUSH2 0x120 DUP7 ADD MSTORE PUSH1 0x6 DUP1 DUP4 ADD SLOAD PUSH2 0x140 DUP8 ADD MSTORE PUSH1 0x7 DUP4 ADD SLOAD PUSH2 0x160 DUP8 ADD MSTORE PUSH1 0x8 DUP4 ADD SLOAD PUSH2 0x180 DUP8 ADD MSTORE PUSH1 0x9 DUP4 ADD SLOAD DUP3 AND PUSH2 0x1A0 DUP8 ADD MSTORE PUSH1 0xA DUP4 ADD SLOAD SWAP1 SWAP2 AND PUSH2 0x1C0 DUP7 ADD MSTORE PUSH1 0xB DUP3 ADD SLOAD PUSH2 0x1E0 DUP7 ADD MSTORE SWAP2 ADD SLOAD SWAP1 SWAP2 AND SWAP1 DUP2 LT ISZERO PUSH2 0x3327 JUMPI PUSH2 0x220 SWAP3 POP PUSH2 0x200 DUP3 ADD MSTORE PUSH2 0x3325 PUSH1 0x40 MLOAD DUP1 SWAP3 PUSH2 0x4BDC JUMP JUMPDEST RETURN JUMPDEST PUSH4 0x4E487B71 PUSH1 0xE0 SHL DUP4 MSTORE PUSH1 0x21 PUSH1 0x4 MSTORE PUSH1 0x24 DUP4 REVERT JUMPDEST POP CALLVALUE PUSH2 0x59C JUMPI PUSH2 0x334A CALLDATASIZE PUSH2 0x4AF4 JUMP JUMPDEST SWAP1 DUP1 DUP4 MSTORE PUSH1 0x4 PUSH1 0x20 MSTORE PUSH1 0x40 DUP4 KECCAK256 SWAP3 PUSH1 0x1 DUP5 ADD SWAP3 PUSH1 0x1 DUP1 PUSH1 0xA0 SHL SUB DUP5 SLOAD AND CALLER EQ DUP1 ISZERO PUSH2 0x34AF JUMPI JUMPDEST PUSH2 0x3379 SWAP1 PUSH2 0x5355 JUMP JUMPDEST PUSH20 0x0 DUP1 EXTCODESIZE ISZERO PUSH2 0x112F JUMPI DUP3 PUSH1 0x40 MLOAD DUP1 SWAP3 PUSH4 0x252A867 PUSH1 0xE5 SHL DUP3 MSTORE DUP2 DUP1 PUSH2 0x33B4 DUP12 PUSH1 0x4 DUP4 ADD PUSH2 0x4FD4 JUMP JUMPDEST SUB SWAP2 GAS DELEGATECALL DUP1 ISZERO PUSH2 0x113B JUMPI SWAP1 DUP4 SWAP2 PUSH2 0x349A JUMPI JUMPDEST POP POP PUSH1 0x5 DUP6 ADD PUSH2 0x33DD DUP3 DUP3 SLOAD PUSH2 0x201D DUP3 DUP3 LT PUSH2 0x4D17 JUMP JUMPDEST SWAP1 SSTORE PUSH1 0x1 DUP1 PUSH1 0xA0 SHL SUB PUSH1 0x9 DUP7 ADD SLOAD AND SWAP5 PUSH1 0x7 DUP2 ADD SLOAD PUSH1 0x40 MLOAD SWAP1 PUSH4 0x1C8F0847 PUSH1 0xE0 SHL DUP3 MSTORE DUP4 PUSH1 0x4 DUP4 ADD MSTORE PUSH1 0x24 DUP3 ADD MSTORE PUSH1 0x20 DUP2 PUSH1 0x44 DUP2 PUSH20 0x0 GAS DELEGATECALL SWAP4 DUP5 ISZERO PUSH2 0xD1E JUMPI SWAP4 PUSH2 0x3464 JUMPI JUMPDEST POP DUP1 SLOAD PUSH0 MLOAD PUSH1 0x20 PUSH2 0x569A PUSH0 CODECOPY PUSH0 MLOAD SWAP1 PUSH0 MSTORE SWAP4 SWAP2 PUSH2 0xF0C SWAP2 PUSH2 0x20C2 SWAP1 PUSH1 0x1 PUSH1 0x1 PUSH1 0xA0 SHL SUB AND DUP10 PUSH2 0x20BC DUP7 DUP9 PUSH2 0x4D5A JUMP JUMPDEST SWAP3 POP PUSH1 0x20 DUP4 RETURNDATASIZE PUSH1 0x20 GT PUSH2 0x3492 JUMPI JUMPDEST DUP2 PUSH2 0x347F PUSH1 0x20 SWAP4 DUP4 PUSH2 0x4DAC JUMP JUMPDEST DUP2 ADD SUB SLT PUSH2 0x4AA JUMPI SWAP2 MLOAD SWAP2 PUSH2 0xF0C PUSH2 0x3435 JUMP JUMPDEST RETURNDATASIZE SWAP2 POP PUSH2 0x3472 JUMP JUMPDEST DUP2 PUSH2 0x34A4 SWAP2 PUSH2 0x4DAC JUMP JUMPDEST PUSH2 0x525 JUMPI DUP2 PUSH0 PUSH2 0x33C6 JUMP JUMPDEST POP PUSH1 0x2 DUP6 ADD SLOAD PUSH1 0x1 PUSH1 0x1 PUSH1 0xA0 SHL SUB AND CALLER EQ PUSH2 0x3370 JUMP JUMPDEST POP PUSH1 0x40 CALLDATASIZE PUSH1 0x3 NOT ADD SLT PUSH2 0x59C JUMPI PUSH2 0x34DA PUSH2 0x4A2E JUMP JUMPDEST PUSH1 0x24 CALLDATALOAD SWAP1 PUSH2 0x34EE PUSH1 0xFF DUP5 SLOAD PUSH1 0xA0 SHR AND PUSH2 0x4CCB JUMP JUMPDEST DUP2 ISZERO PUSH2 0xD69 JUMPI PUSH1 0x2 SLOAD SWAP1 PUSH1 0x40 MLOAD SWAP2 PUSH4 0x1C8F0847 PUSH1 0xE0 SHL DUP4 MSTORE DUP4 PUSH1 0x4 DUP5 ADD MSTORE PUSH1 0x24 DUP4 ADD MSTORE PUSH1 0x20 DUP3 PUSH1 0x44 DUP2 PUSH20 0x0 GAS DELEGATECALL SWAP2 DUP3 ISZERO PUSH2 0x16AA JUMPI DUP5 SWAP3 PUSH2 0x36A9 JUMPI JUMPDEST POP PUSH1 0x1 PUSH1 0x1 PUSH1 0xA0 SHL SUB AND SWAP1 DUP2 PUSH2 0x35D3 JUMPI PUSH2 0x3556 DUP2 DUP5 PUSH2 0x5348 JUMP JUMPDEST CALLVALUE SUB PUSH2 0xB87 JUMPI CALLER DUP5 MSTORE PUSH1 0x1 PUSH1 0x20 MSTORE PUSH1 0x40 DUP5 KECCAK256 PUSH0 DUP1 MSTORE PUSH1 0x20 MSTORE PUSH1 0x40 PUSH0 KECCAK256 PUSH2 0x357D DUP5 DUP3 SLOAD PUSH2 0x5348 JUMP JUMPDEST SWAP1 SSTORE PUSH1 0x1 DUP1 PUSH1 0xA0 SHL SUB PUSH1 0x3 SLOAD AND DUP5 MSTORE PUSH1 0x1 PUSH1 0x20 MSTORE PUSH1 0x40 DUP5 KECCAK256 PUSH0 DUP1 MSTORE PUSH1 0x20 MSTORE PUSH1 0x40 PUSH0 KECCAK256 PUSH2 0x35AA DUP3 DUP3 SLOAD PUSH2 0x5348 JUMP JUMPDEST SWAP1 SSTORE JUMPDEST PUSH1 0x40 MLOAD SWAP3 DUP4 MSTORE PUSH1 0x20 DUP4 ADD MSTORE PUSH1 0x40 DUP3 ADD MSTORE PUSH0 MLOAD PUSH1 0x20 PUSH2 0x565A PUSH0 CODECOPY PUSH0 MLOAD SWAP1 PUSH0 MSTORE PUSH1 0x60 CALLER SWAP3 LOG2 DUP1 RETURN JUMPDEST PUSH2 0x35DD DUP2 DUP5 PUSH2 0x5348 JUMP JUMPDEST PUSH1 0x40 MLOAD SWAP1 PUSH4 0x23B872DD PUSH1 0xE0 SHL DUP3 MSTORE CALLER PUSH1 0x4 DUP4 ADD MSTORE ADDRESS PUSH1 0x24 DUP4 ADD MSTORE PUSH1 0x44 DUP3 ADD MSTORE PUSH1 0x20 DUP2 PUSH1 0x64 DUP2 DUP9 DUP8 GAS CALL SWAP1 DUP2 ISZERO PUSH2 0xA2E JUMPI DUP6 SWAP2 PUSH2 0x366F JUMPI JUMPDEST POP ISZERO PUSH2 0xC83 JUMPI CALLER DUP5 MSTORE PUSH1 0x1 PUSH1 0x20 MSTORE PUSH1 0x40 DUP5 KECCAK256 DUP3 PUSH0 MSTORE PUSH1 0x20 MSTORE PUSH1 0x40 PUSH0 KECCAK256 PUSH2 0x363B DUP5 DUP3 SLOAD PUSH2 0x5348 JUMP JUMPDEST SWAP1 SSTORE PUSH1 0x1 DUP1 PUSH1 0xA0 SHL SUB PUSH1 0x3 SLOAD AND DUP5 MSTORE PUSH1 0x1 PUSH1 0x20 MSTORE PUSH1 0x40 DUP5 KECCAK256 DUP3 PUSH0 MSTORE PUSH1 0x20 MSTORE PUSH1 0x40 PUSH0 KECCAK256 PUSH2 0x3668 DUP3 DUP3 SLOAD PUSH2 0x5348 JUMP JUMPDEST SWAP1 SSTORE PUSH2 0x35AD JUMP JUMPDEST SWAP1 POP PUSH1 0x20 DUP2 RETURNDATASIZE PUSH1 0x20 GT PUSH2 0x36A1 JUMPI JUMPDEST DUP2 PUSH2 0x368A PUSH1 0x20 SWAP4 DUP4 PUSH2 0x4DAC JUMP JUMPDEST DUP2 ADD SUB SLT PUSH2 0x2D9D JUMPI PUSH2 0x369B SWAP1 PUSH2 0x4DE2 JUMP JUMPDEST PUSH0 PUSH2 0x3614 JUMP JUMPDEST RETURNDATASIZE SWAP2 POP PUSH2 0x367D JUMP JUMPDEST SWAP1 SWAP2 POP PUSH1 0x20 DUP2 RETURNDATASIZE PUSH1 0x20 GT PUSH2 0x36D5 JUMPI JUMPDEST DUP2 PUSH2 0x36C5 PUSH1 0x20 SWAP4 DUP4 PUSH2 0x4DAC JUMP JUMPDEST DUP2 ADD SUB SLT PUSH2 0x4AA JUMPI MLOAD SWAP1 PUSH0 PUSH2 0x353C JUMP JUMPDEST RETURNDATASIZE SWAP2 POP PUSH2 0x36B8 JUMP JUMPDEST POP CALLVALUE PUSH2 0x59C JUMPI PUSH1 0x40 CALLDATASIZE PUSH1 0x3 NOT ADD SLT PUSH2 0x59C JUMPI PUSH2 0x36F7 PUSH2 0x4A2E JUMP JUMPDEST PUSH1 0x1 PUSH1 0x1 PUSH1 0xA0 SHL SUB AND DUP2 MSTORE PUSH1 0x6 PUSH1 0x20 MSTORE PUSH1 0x40 DUP2 KECCAK256 DUP1 SLOAD PUSH1 0x24 CALLDATALOAD SWAP3 SWAP1 DUP4 LT ISZERO PUSH2 0x59C JUMPI PUSH1 0x20 PUSH2 0x1B05 DUP5 DUP5 PUSH2 0x4B6D JUMP JUMPDEST POP CALLVALUE PUSH2 0x59C JUMPI DUP1 PUSH1 0x3 NOT CALLDATASIZE ADD SLT PUSH2 0x59C JUMPI PUSH1 0xFF PUSH1 0x20 SWAP2 SLOAD PUSH1 0xA0 SHR AND PUSH1 0x40 MLOAD SWAP1 ISZERO ISZERO DUP2 MSTORE RETURN JUMPDEST POP CALLVALUE PUSH2 0x59C JUMPI PUSH1 0x20 CALLDATASIZE PUSH1 0x3 NOT ADD SLT PUSH2 0x59C JUMPI PUSH1 0x4 CALLDATALOAD DUP1 DUP3 MSTORE PUSH1 0x4 PUSH1 0x20 MSTORE PUSH1 0x40 DUP3 KECCAK256 SWAP1 PUSH0 MLOAD PUSH1 0x20 PUSH2 0x563A PUSH0 CODECOPY PUSH0 MLOAD SWAP1 PUSH0 MSTORE PUSH1 0x20 PUSH1 0x1 DUP5 ADD SWAP4 PUSH2 0x3795 PUSH1 0x1 DUP1 PUSH1 0xA0 SHL SUB DUP7 SLOAD AND CALLER EQ PUSH2 0x5210 JUMP JUMPDEST PUSH1 0x2 DUP2 ADD SWAP6 PUSH2 0x37AE DUP8 SLOAD PUSH2 0x13BF PUSH1 0xFF DUP3 PUSH1 0xB0 SHR AND PUSH2 0x526B JUMP JUMPDEST PUSH1 0xA DUP3 ADD SLOAD CALLER PUSH0 SWAP1 DUP2 MSTORE PUSH1 0x1 PUSH1 0x20 SWAP1 DUP2 MSTORE PUSH1 0x40 DUP1 DUP4 KECCAK256 PUSH1 0x1 PUSH1 0x1 PUSH1 0xA0 SHL SUB SWAP1 SWAP5 AND DUP1 DUP5 MSTORE SWAP4 SWAP1 SWAP2 MSTORE SWAP1 DUP2 SWAP1 KECCAK256 SLOAD SWAP3 PUSH2 0x37ED PUSH1 0x4 DUP7 ADD SLOAD DUP1 SWAP6 LT ISZERO PUSH2 0x4D17 JUMP JUMPDEST CALLER DUP2 MSTORE PUSH1 0x1 DUP7 MSTORE KECCAK256 SWAP1 PUSH1 0x1 DUP1 PUSH1 0xA0 SHL SUB AND PUSH0 MSTORE DUP4 MSTORE PUSH2 0x1464 PUSH1 0x40 PUSH0 KECCAK256 SWAP2 DUP3 SLOAD PUSH2 0x4D5A JUMP JUMPDEST POP CALLVALUE PUSH2 0x59C JUMPI PUSH2 0x3820 CALLDATASIZE PUSH2 0x4AF4 JUMP JUMPDEST SWAP2 SWAP1 DUP1 DUP3 MSTORE PUSH1 0x4 PUSH1 0x20 MSTORE PUSH1 0x40 DUP3 KECCAK256 SWAP2 PUSH1 0x1 DUP1 PUSH1 0xA0 SHL SUB DUP4 SLOAD AND CALLER EQ DUP1 ISZERO PUSH2 0x3990 JUMPI JUMPDEST PUSH2 0x384B SWAP1 PUSH2 0x5118 JUMP JUMPDEST PUSH20 0x0 DUP1 EXTCODESIZE ISZERO PUSH2 0x525 JUMPI DUP2 PUSH1 0x40 MLOAD DUP1 SWAP3 PUSH4 0x252A867 PUSH1 0xE5 SHL DUP3 MSTORE DUP2 DUP1 PUSH2 0x3886 DUP10 PUSH1 0x4 DUP4 ADD PUSH2 0x4FD4 JUMP JUMPDEST SUB SWAP2 GAS DELEGATECALL DUP1 ISZERO PUSH2 0x51A JUMPI SWAP1 DUP3 SWAP2 PUSH2 0x397B JUMPI JUMPDEST POP POP PUSH1 0x5 DUP4 ADD PUSH2 0x38AF DUP6 DUP3 SLOAD PUSH2 0x201D DUP3 DUP3 LT PUSH2 0x4D17 JUMP JUMPDEST SWAP1 SSTORE PUSH1 0x1 DUP1 PUSH1 0xA0 SHL SUB PUSH1 0x9 DUP5 ADD SLOAD AND SWAP4 PUSH1 0x7 DUP5 ADD SLOAD SWAP2 PUSH1 0x40 MLOAD SWAP3 PUSH4 0x1C8F0847 PUSH1 0xE0 SHL DUP5 MSTORE DUP3 PUSH1 0x4 DUP6 ADD MSTORE PUSH1 0x24 DUP5 ADD MSTORE PUSH1 0x20 DUP4 PUSH1 0x44 DUP2 PUSH20 0x0 GAS DELEGATECALL SWAP1 DUP2 ISZERO PUSH2 0xD1E JUMPI SWAP1 PUSH2 0x393C JUMPI JUMPDEST PUSH1 0x1 DUP6 ADD DUP1 SLOAD SWAP1 SWAP6 PUSH0 MLOAD PUSH1 0x20 PUSH2 0x56BA PUSH0 CODECOPY PUSH0 MLOAD SWAP1 PUSH0 MSTORE SWAP5 POP PUSH2 0xF0C SWAP2 PUSH2 0x20C2 SWAP1 PUSH1 0x1 PUSH1 0x1 PUSH1 0xA0 SHL SUB AND DUP10 PUSH2 0x20BC DUP7 DUP9 PUSH2 0x4D5A JUMP JUMPDEST POP PUSH1 0x20 DUP3 RETURNDATASIZE PUSH1 0x20 GT PUSH2 0x3973 JUMPI JUMPDEST DUP2 PUSH2 0x3956 PUSH1 0x20 SWAP4 DUP4 PUSH2 0x4DAC JUMP JUMPDEST DUP2 ADD SUB SLT PUSH2 0x4AA JUMPI PUSH0 MLOAD PUSH1 0x20 PUSH2 0x56BA PUSH0 CODECOPY PUSH0 MLOAD SWAP1 PUSH0 MSTORE SWAP2 MLOAD PUSH2 0x3908 JUMP JUMPDEST RETURNDATASIZE SWAP2 POP PUSH2 0x3949 JUMP JUMPDEST DUP2 PUSH2 0x3985 SWAP2 PUSH2 0x4DAC JUMP JUMPDEST PUSH2 0x59C JUMPI DUP1 PUSH0 PUSH2 0x3898 JUMP JUMPDEST POP PUSH1 0x2 DUP4 ADD SLOAD PUSH1 0x1 PUSH1 0x1 PUSH1 0xA0 SHL SUB AND CALLER EQ PUSH2 0x3842 JUMP JUMPDEST POP CALLVALUE PUSH2 0x59C JUMPI PUSH1 0x20 CALLDATASIZE PUSH1 0x3 NOT ADD SLT PUSH2 0x59C JUMPI PUSH1 0x1 PUSH1 0x1 PUSH1 0xA0 SHL SUB PUSH2 0x39C8 PUSH2 0x4A2E JUMP JUMPDEST AND DUP2 MSTORE PUSH1 0x6 PUSH1 0x20 MSTORE PUSH1 0x40 DUP2 KECCAK256 PUSH1 0x40 MLOAD SWAP2 DUP3 PUSH1 0x20 DUP4 SLOAD SWAP2 DUP3 DUP2 MSTORE ADD SWAP3 DUP3 MSTORE PUSH1 0x20 DUP3 KECCAK256 SWAP2 JUMPDEST DUP2 DUP2 LT PUSH2 0x3A02 JUMPI PUSH2 0x1F61 DUP6 PUSH2 0x1F55 DUP2 DUP8 SUB DUP3 PUSH2 0x4DAC JUMP JUMPDEST DUP3 SLOAD DUP5 MSTORE PUSH1 0x20 SWAP1 SWAP4 ADD SWAP3 PUSH1 0x1 SWAP3 DUP4 ADD SWAP3 ADD PUSH2 0x39EB JUMP JUMPDEST POP CALLVALUE PUSH2 0x59C JUMPI DUP1 PUSH1 0x3 NOT CALLDATASIZE ADD SLT PUSH2 0x59C JUMPI PUSH2 0x3A31 PUSH2 0x55F3 JUMP JUMPDEST DUP1 SLOAD PUSH1 0xFF PUSH1 0xA0 SHL NOT AND PUSH1 0x1 PUSH1 0xA0 SHL OR DUP2 SSTORE PUSH1 0x40 MLOAD PUSH1 0x1 DUP2 MSTORE PUSH32 0x17904E4FE7D59BB4603C7C045BC275A05DA9EA3A4AC007FC80FFFEAF119186D SWAP1 PUSH1 0x20 SWAP1 LOG1 CALLER PUSH32 0xAE81C15A680E6640BA872CA44F364AD67C60A04089AD9FA100F7A3CE94DA9F68 DUP3 DUP1 LOG2 DUP1 RETURN JUMPDEST POP PUSH2 0x3AA1 CALLDATASIZE PUSH2 0x4B0A JUMP JUMPDEST SWAP2 SWAP6 SWAP4 PUSH1 0xFF DUP9 SWAP5 SWAP3 SWAP5 SLOAD PUSH1 0xA0 SHR AND SWAP3 PUSH2 0x3AB9 DUP5 PUSH2 0x4CCB JUMP JUMPDEST CALLER DUP10 MSTORE PUSH1 0x1 PUSH1 0x20 MSTORE PUSH1 0x40 DUP10 KECCAK256 PUSH1 0x1 DUP1 PUSH1 0xA0 SHL SUB DUP10 AND PUSH0 MSTORE PUSH1 0x20 MSTORE PUSH1 0x40 PUSH0 KECCAK256 SLOAD DUP3 DUP2 LT PUSH2 0x3D4E JUMPI JUMPDEST POP PUSH2 0x220 SWAP4 POP PUSH2 0x3B49 SWAP1 CALLER DUP11 MSTORE PUSH1 0x1 PUSH1 0x20 MSTORE PUSH1 0x40 DUP11 KECCAK256 PUSH1 0x1 DUP1 PUSH1 0xA0 SHL SUB DUP11 AND PUSH0 MSTORE PUSH1 0x20 MSTORE PUSH1 0x40 PUSH0 KECCAK256 PUSH2 0x3B13 DUP5 DUP3 SLOAD PUSH2 0x4D5A JUMP JUMPDEST SWAP1 SSTORE PUSH20 0x0 SWAP6 PUSH1 0x40 MLOAD SWAP10 DUP11 SWAP6 DUP7 SWAP6 PUSH4 0x652E83D7 PUSH1 0xE0 SHL DUP8 MSTORE DUP12 DUP12 CALLER PUSH1 0x4 DUP11 ADD PUSH2 0x51A8 JUMP JUMPDEST SUB DUP2 DUP5 GAS DELEGATECALL SWAP1 DUP2 ISZERO PUSH2 0xA2E JUMPI PUSH2 0x224 SWAP5 DUP7 SWAP3 PUSH2 0x3D2A JUMPI JUMPDEST POP PUSH1 0x20 SWAP1 PUSH1 0x40 MLOAD SWAP6 DUP7 DUP1 SWAP3 PUSH4 0x63F88CDD PUSH1 0xE1 SHL DUP3 MSTORE PUSH2 0x3B82 PUSH1 0x4 DUP4 ADD DUP8 PUSH2 0x4BDC JUMP JUMPDEST GAS DELEGATECALL SWAP4 DUP5 ISZERO PUSH2 0xA2E JUMPI DUP6 SWAP5 PUSH2 0x3CF6 JUMPI JUMPDEST POP DUP4 DUP6 MSTORE PUSH1 0x4 PUSH1 0x20 SWAP1 DUP2 MSTORE PUSH1 0x40 DUP1 DUP8 KECCAK256 DUP4 MLOAD DUP2 SLOAD PUSH1 0x1 PUSH1 0x1 PUSH1 0xA0 SHL SUB SWAP2 DUP3 AND PUSH1 0x1 PUSH1 0x1 PUSH1 0xA0 SHL SUB NOT SWAP2 DUP3 AND OR DUP4 SSTORE SWAP4 DUP6 ADD MLOAD PUSH1 0x1 DUP4 ADD DUP1 SLOAD SWAP2 DUP4 AND SWAP2 SWAP1 SWAP6 AND OR SWAP1 SWAP4 SSTORE SWAP1 DUP4 ADD MLOAD PUSH1 0x2 DUP3 ADD DUP1 SLOAD PUSH1 0x60 DUP7 ADD MLOAD PUSH1 0xFF PUSH1 0xA0 SHL SWAP1 ISZERO ISZERO PUSH1 0xA0 SHL AND SWAP3 SWAP1 SWAP5 AND PUSH1 0x1 PUSH1 0x1 PUSH1 0xA8 SHL SUB NOT SWAP1 SWAP5 AND SWAP4 SWAP1 SWAP4 OR OR DUP3 SSTORE PUSH2 0x200 SWAP2 PUSH1 0xC SWAP2 SWAP1 PUSH2 0x3C18 SWAP1 PUSH2 0x89C JUMP JUMPDEST PUSH1 0xE0 DUP5 ADD MLOAD PUSH1 0x3 DUP3 ADD SSTORE PUSH2 0x100 DUP5 ADD MLOAD PUSH1 0x4 DUP3 ADD SSTORE PUSH2 0x120 DUP5 ADD MLOAD PUSH1 0x5 DUP3 ADD SSTORE PUSH2 0x140 DUP5 ADD MLOAD PUSH1 0x6 DUP1 DUP4 ADD SWAP2 SWAP1 SWAP2 SSTORE PUSH2 0x160 DUP6 ADD MLOAD PUSH1 0x7 DUP4 ADD SSTORE PUSH2 0x180 DUP6 ADD MLOAD PUSH1 0x8 DUP4 ADD SSTORE PUSH2 0x1A0 DUP6 ADD MLOAD PUSH1 0x9 DUP4 ADD DUP1 SLOAD PUSH1 0x1 PUSH1 0x1 PUSH1 0xA0 SHL SUB SWAP3 DUP4 AND PUSH1 0x1 PUSH1 0x1 PUSH1 0xA0 SHL SUB NOT SWAP2 DUP3 AND OR SWAP1 SWAP2 SSTORE PUSH2 0x1C0 DUP8 ADD MLOAD PUSH1 0xA DUP6 ADD DUP1 SLOAD SWAP2 SWAP1 SWAP4 AND SWAP2 AND OR SWAP1 SSTORE PUSH2 0x1E0 DUP6 ADD MLOAD PUSH1 0xB DUP4 ADD SSTORE SWAP3 SWAP1 SWAP4 ADD MLOAD SWAP3 ADD SWAP2 SWAP1 DUP2 LT ISZERO PUSH2 0x9E6 JUMPI PUSH1 0x20 SWAP6 POP PUSH1 0xFF DUP1 NOT DUP4 SLOAD AND SWAP2 AND OR SWAP1 SSTORE PUSH1 0x40 MLOAD SWAP2 PUSH1 0x1 DUP1 PUSH1 0xA0 SHL SUB AND DUP3 MSTORE PUSH1 0x1 DUP1 PUSH1 0xA0 SHL SUB AND SWAP1 DUP3 PUSH0 MLOAD PUSH1 0x20 PUSH2 0x563A PUSH0 CODECOPY PUSH0 MLOAD SWAP1 PUSH0 MSTORE DUP6 CALLER SWAP4 LOG4 PUSH1 0x40 MLOAD SWAP1 DUP2 MSTORE RETURN JUMPDEST SWAP1 SWAP4 POP PUSH1 0x20 DUP2 RETURNDATASIZE PUSH1 0x20 GT PUSH2 0x3D22 JUMPI JUMPDEST DUP2 PUSH2 0x3D12 PUSH1 0x20 SWAP4 DUP4 PUSH2 0x4DAC JUMP JUMPDEST DUP2 ADD SUB SLT PUSH2 0x4AA JUMPI MLOAD SWAP3 PUSH0 PUSH2 0x3B92 JUMP JUMPDEST RETURNDATASIZE SWAP2 POP PUSH2 0x3D05 JUMP JUMPDEST PUSH1 0x20 SWAP2 SWAP3 POP PUSH2 0x3D47 SWAP1 PUSH2 0x220 RETURNDATASIZE DUP2 GT PUSH2 0xA66 JUMPI PUSH2 0xA57 DUP2 DUP4 PUSH2 0x4DAC JUMP JUMPDEST SWAP2 SWAP1 PUSH2 0x3B60 JUMP JUMPDEST PUSH2 0x3D5B PUSH2 0x3D61 SWAP2 DUP5 PUSH2 0x4D5A JUMP JUMPDEST SWAP5 PUSH2 0x4CCB JUMP JUMPDEST DUP4 ISZERO PUSH2 0xD69 JUMPI PUSH1 0x2 SLOAD SWAP1 PUSH1 0x40 MLOAD SWAP2 PUSH4 0x1C8F0847 PUSH1 0xE0 SHL DUP4 MSTORE DUP6 PUSH1 0x4 DUP5 ADD MSTORE PUSH1 0x24 DUP4 ADD MSTORE PUSH1 0x20 DUP3 PUSH1 0x44 DUP2 PUSH20 0x0 GAS DELEGATECALL SWAP2 DUP3 ISZERO PUSH2 0x4B6 JUMPI DUP11 SWAP3 PUSH2 0x3F40 JUMPI JUMPDEST POP PUSH1 0x1 PUSH1 0x1 PUSH1 0xA0 SHL SUB DUP10 AND SWAP5 DUP6 PUSH2 0x3E52 JUMPI PUSH2 0x3DCA DUP4 DUP3 PUSH2 0x5348 JUMP JUMPDEST CALLVALUE SUB PUSH2 0xB87 JUMPI PUSH2 0x220 SWAP6 PUSH2 0x3B49 SWAP4 CALLER DUP14 MSTORE PUSH1 0x1 PUSH1 0x20 MSTORE PUSH1 0x40 DUP14 KECCAK256 PUSH0 DUP1 MSTORE PUSH1 0x20 MSTORE PUSH1 0x40 PUSH0 KECCAK256 PUSH2 0x3DF9 DUP5 DUP3 SLOAD PUSH2 0x5348 JUMP JUMPDEST SWAP1 SSTORE PUSH1 0x1 DUP1 PUSH1 0xA0 SHL SUB PUSH1 0x3 SLOAD AND DUP14 MSTORE PUSH1 0x1 PUSH1 0x20 MSTORE PUSH1 0x40 DUP14 KECCAK256 PUSH0 DUP1 MSTORE PUSH1 0x20 MSTORE PUSH1 0x40 PUSH0 KECCAK256 PUSH2 0x3E26 DUP3 DUP3 SLOAD PUSH2 0x5348 JUMP JUMPDEST SWAP1 SSTORE JUMPDEST PUSH1 0x40 MLOAD SWAP3 DUP4 MSTORE PUSH1 0x20 DUP4 ADD MSTORE PUSH1 0x40 DUP3 ADD MSTORE PUSH0 MLOAD PUSH1 0x20 PUSH2 0x565A PUSH0 CODECOPY PUSH0 MLOAD SWAP1 PUSH0 MSTORE PUSH1 0x60 CALLER SWAP3 LOG2 SWAP1 PUSH2 0x3AE0 JUMP JUMPDEST DUP11 PUSH1 0x20 PUSH2 0x3E5F DUP6 DUP5 PUSH2 0x5348 JUMP JUMPDEST PUSH1 0x64 PUSH1 0x40 MLOAD DUP1 SWAP5 DUP2 SWAP4 PUSH4 0x23B872DD PUSH1 0xE0 SHL DUP4 MSTORE CALLER PUSH1 0x4 DUP5 ADD MSTORE ADDRESS PUSH1 0x24 DUP5 ADD MSTORE PUSH1 0x44 DUP4 ADD MSTORE DUP12 GAS CALL SWAP1 DUP2 ISZERO PUSH2 0x3F35 JUMPI DUP13 SWAP2 PUSH2 0x3EF7 JUMPI JUMPDEST POP ISZERO PUSH2 0xC83 JUMPI PUSH2 0x220 SWAP6 PUSH2 0x3B49 SWAP4 CALLER DUP14 MSTORE PUSH1 0x1 PUSH1 0x20 MSTORE PUSH1 0x40 DUP14 KECCAK256 DUP3 PUSH0 MSTORE PUSH1 0x20 MSTORE PUSH1 0x40 PUSH0 KECCAK256 PUSH2 0x3EC3 DUP5 DUP3 SLOAD PUSH2 0x5348 JUMP JUMPDEST SWAP1 SSTORE PUSH1 0x1 DUP1 PUSH1 0xA0 SHL SUB PUSH1 0x3 SLOAD AND DUP14 MSTORE PUSH1 0x1 PUSH1 0x20 MSTORE PUSH1 0x40 DUP14 KECCAK256 DUP3 PUSH0 MSTORE PUSH1 0x20 MSTORE PUSH1 0x40 PUSH0 KECCAK256 PUSH2 0x3EF0 DUP3 DUP3 SLOAD PUSH2 0x5348 JUMP JUMPDEST SWAP1 SSTORE PUSH2 0x3E29 JUMP JUMPDEST SWAP1 POP PUSH1 0x20 DUP2 RETURNDATASIZE PUSH1 0x20 GT PUSH2 0x3F2D JUMPI JUMPDEST DUP2 PUSH2 0x3F12 PUSH1 0x20 SWAP4 DUP4 PUSH2 0x4DAC JUMP JUMPDEST DUP2 ADD SUB SLT PUSH2 0x3F29 JUMPI PUSH2 0x3F23 SWAP1 PUSH2 0x4DE2 JUMP JUMPDEST PUSH0 PUSH2 0x3E94 JUMP JUMPDEST DUP12 DUP1 REVERT JUMPDEST RETURNDATASIZE SWAP2 POP PUSH2 0x3F05 JUMP JUMPDEST PUSH1 0x40 MLOAD RETURNDATASIZE DUP15 DUP3 RETURNDATACOPY RETURNDATASIZE SWAP1 REVERT JUMPDEST SWAP1 SWAP2 POP PUSH1 0x20 DUP2 RETURNDATASIZE PUSH1 0x20 GT PUSH2 0x3F6C JUMPI JUMPDEST DUP2 PUSH2 0x3F5C PUSH1 0x20 SWAP4 DUP4 PUSH2 0x4DAC JUMP JUMPDEST DUP2 ADD SUB SLT PUSH2 0x4AA JUMPI MLOAD SWAP1 PUSH0 PUSH2 0x3DAF JUMP JUMPDEST RETURNDATASIZE SWAP2 POP PUSH2 0x3F4F JUMP JUMPDEST POP CALLVALUE PUSH2 0x59C JUMPI PUSH1 0x40 CALLDATASIZE PUSH1 0x3 NOT ADD SLT PUSH2 0x59C JUMPI PUSH2 0x3F8E PUSH2 0x4A2E JUMP JUMPDEST PUSH1 0x1 PUSH1 0x1 PUSH1 0xA0 SHL SUB AND DUP2 MSTORE PUSH1 0x7 PUSH1 0x20 MSTORE PUSH1 0x40 DUP2 KECCAK256 DUP1 SLOAD PUSH1 0x24 CALLDATALOAD SWAP3 SWAP1 DUP4 LT ISZERO PUSH2 0x59C JUMPI PUSH1 0x20 PUSH2 0x1B05 DUP5 DUP5 PUSH2 0x4B6D JUMP JUMPDEST POP CALLVALUE PUSH2 0x59C JUMPI PUSH2 0x220 PUSH2 0x3B49 PUSH2 0x3FD1 CALLDATASIZE PUSH2 0x4B0A JUMP JUMPDEST PUSH2 0x3FE9 PUSH1 0xFF DUP12 SWAP11 SWAP7 SWAP5 SWAP11 SWAP10 SWAP4 SWAP8 SWAP10 SLOAD PUSH1 0xA0 SHR AND PUSH2 0x4CCB JUMP JUMPDEST CALLER DUP11 MSTORE PUSH1 0x1 PUSH1 0x20 MSTORE PUSH1 0x40 DUP11 KECCAK256 PUSH1 0x1 DUP1 PUSH1 0xA0 SHL SUB DUP11 AND PUSH0 MSTORE PUSH1 0x20 MSTORE PUSH2 0x4013 DUP4 PUSH1 0x40 PUSH0 KECCAK256 SLOAD LT ISZERO PUSH2 0x4D17 JUMP JUMPDEST CALLER DUP11 MSTORE PUSH1 0x1 PUSH1 0x20 MSTORE PUSH1 0x40 DUP11 KECCAK256 PUSH1 0x1 DUP1 PUSH1 0xA0 SHL SUB DUP11 AND PUSH0 MSTORE PUSH1 0x20 MSTORE PUSH1 0x40 PUSH0 KECCAK256 PUSH2 0x3B13 DUP5 DUP3 SLOAD PUSH2 0x4D5A JUMP JUMPDEST POP CALLVALUE PUSH2 0x59C JUMPI PUSH1 0x40 CALLDATASIZE PUSH1 0x3 NOT ADD SLT PUSH2 0x59C JUMPI PUSH1 0x4 CALLDATALOAD PUSH2 0x4059 PUSH2 0x4A18 JUMP JUMPDEST PUSH2 0x4061 PUSH2 0x55F3 JUMP JUMPDEST PUSH1 0x1 PUSH1 0x1 PUSH1 0xA0 SHL SUB DUP2 AND SWAP2 DUP3 ISZERO PUSH2 0x4125 JUMPI PUSH5 0x2540BE400 DUP2 GT PUSH2 0x40D6 JUMPI PUSH1 0x2 DUP2 SWAP1 SSTORE PUSH1 0x3 DUP1 SLOAD PUSH1 0x1 PUSH1 0x1 PUSH1 0xA0 SHL SUB NOT AND SWAP4 SWAP1 SWAP4 OR SWAP1 SWAP3 SSTORE PUSH1 0x40 DUP1 MLOAD SWAP3 DUP4 MSTORE PUSH1 0x1 PUSH1 0x1 PUSH1 0xA0 SHL SUB SWAP2 SWAP1 SWAP2 AND PUSH1 0x20 DUP4 ADD MSTORE PUSH32 0x14BDAADAED0453E7B5B66195B42156BA995B9E5ABD0DA98368839851D69AD889 SWAP2 LOG1 DUP1 RETURN JUMPDEST PUSH1 0x40 MLOAD PUSH3 0x461BCD PUSH1 0xE5 SHL DUP2 MSTORE PUSH1 0x20 PUSH1 0x4 DUP3 ADD MSTORE PUSH1 0x21 PUSH1 0x24 DUP3 ADD MSTORE PUSH32 0x436F6D6D697373696F6E2070657263656E7461676520697320746F6F20686967 PUSH1 0x44 DUP3 ADD MSTORE PUSH1 0xD PUSH1 0xFB SHL PUSH1 0x64 DUP3 ADD MSTORE PUSH1 0x84 SWAP1 REVERT JUMPDEST PUSH1 0x40 MLOAD PUSH3 0x461BCD PUSH1 0xE5 SHL DUP2 MSTORE PUSH1 0x20 PUSH1 0x4 DUP3 ADD MSTORE PUSH1 0x2F PUSH1 0x24 DUP3 ADD MSTORE PUSH32 0x436F6D6D697373696F6E20726563697069656E742063616E6E6F742062652074 PUSH1 0x44 DUP3 ADD MSTORE PUSH15 0x6865207A65726F2061646472657373 PUSH1 0x88 SHL PUSH1 0x64 DUP3 ADD MSTORE PUSH1 0x84 SWAP1 REVERT JUMPDEST POP CALLVALUE PUSH2 0x59C JUMPI PUSH2 0x4191 CALLDATASIZE PUSH2 0x4AF4 JUMP JUMPDEST SWAP2 SWAP1 DUP1 DUP3 MSTORE PUSH1 0x4 PUSH1 0x20 MSTORE PUSH1 0x40 DUP3 KECCAK256 SWAP2 PUSH1 0x1 DUP1 PUSH1 0xA0 SHL SUB DUP4 SLOAD AND CALLER EQ DUP1 ISZERO PUSH2 0x4301 JUMPI JUMPDEST PUSH2 0x41BC SWAP1 PUSH2 0x5118 JUMP JUMPDEST PUSH20 0x0 DUP1 EXTCODESIZE ISZERO PUSH2 0x525 JUMPI DUP2 PUSH1 0x40 MLOAD DUP1 SWAP3 PUSH4 0x252A867 PUSH1 0xE5 SHL DUP3 MSTORE DUP2 DUP1 PUSH2 0x41F7 DUP10 PUSH1 0x4 DUP4 ADD PUSH2 0x4FD4 JUMP JUMPDEST SUB SWAP2 GAS DELEGATECALL DUP1 ISZERO PUSH2 0x51A JUMPI SWAP1 DUP3 SWAP2 PUSH2 0x42EC JUMPI JUMPDEST POP POP PUSH1 0x6 DUP4 ADD PUSH2 0x4220 DUP6 DUP3 SLOAD PUSH2 0x201D DUP3 DUP3 LT PUSH2 0x4D17 JUMP JUMPDEST SWAP1 SSTORE PUSH1 0x1 DUP1 PUSH1 0xA0 SHL SUB PUSH1 0xA DUP5 ADD SLOAD AND SWAP4 PUSH1 0x8 DUP5 ADD SLOAD SWAP2 PUSH1 0x40 MLOAD SWAP3 PUSH4 0x1C8F0847 PUSH1 0xE0 SHL DUP5 MSTORE DUP3 PUSH1 0x4 DUP6 ADD MSTORE PUSH1 0x24 DUP5 ADD MSTORE PUSH1 0x20 DUP4 PUSH1 0x44 DUP2 PUSH20 0x0 GAS DELEGATECALL SWAP1 DUP2 ISZERO PUSH2 0xD1E JUMPI SWAP1 PUSH2 0x42AD JUMPI JUMPDEST PUSH1 0x1 DUP6 ADD DUP1 SLOAD SWAP1 SWAP6 PUSH0 MLOAD PUSH1 0x20 PUSH2 0x561A PUSH0 CODECOPY PUSH0 MLOAD SWAP1 PUSH0 MSTORE SWAP5 POP PUSH2 0xF0C SWAP2 PUSH2 0x20C2 SWAP1 PUSH1 0x1 PUSH1 0x1 PUSH1 0xA0 SHL SUB AND DUP10 PUSH2 0x20BC DUP7 DUP9 PUSH2 0x4D5A JUMP JUMPDEST POP PUSH1 0x20 DUP3 RETURNDATASIZE PUSH1 0x20 GT PUSH2 0x42E4 JUMPI JUMPDEST DUP2 PUSH2 0x42C7 PUSH1 0x20 SWAP4 DUP4 PUSH2 0x4DAC JUMP JUMPDEST DUP2 ADD SUB SLT PUSH2 0x4AA JUMPI PUSH0 MLOAD PUSH1 0x20 PUSH2 0x561A PUSH0 CODECOPY PUSH0 MLOAD SWAP1 PUSH0 MSTORE SWAP2 MLOAD PUSH2 0x4279 JUMP JUMPDEST RETURNDATASIZE SWAP2 POP PUSH2 0x42BA JUMP JUMPDEST DUP2 PUSH2 0x42F6 SWAP2 PUSH2 0x4DAC JUMP JUMPDEST PUSH2 0x59C JUMPI DUP1 PUSH0 PUSH2 0x4209 JUMP JUMPDEST POP PUSH1 0x2 DUP4 ADD SLOAD PUSH1 0x1 PUSH1 0x1 PUSH1 0xA0 SHL SUB AND CALLER EQ PUSH2 0x41B3 JUMP JUMPDEST POP PUSH2 0x4321 CALLDATASIZE PUSH2 0x4AC6 JUMP JUMPDEST DUP4 PUSH0 SWAP5 SWAP4 SWAP3 SWAP5 MSTORE PUSH1 0x4 PUSH1 0x20 MSTORE PUSH1 0x40 PUSH0 KECCAK256 SWAP1 PUSH1 0x1 DUP3 ADD SWAP5 PUSH2 0x434B PUSH1 0x1 DUP1 PUSH1 0xA0 SHL SUB DUP8 SLOAD AND CALLER EQ PUSH2 0x4F74 JUMP JUMPDEST PUSH20 0x0 DUP1 EXTCODESIZE ISZERO PUSH2 0x4AA JUMPI PUSH0 PUSH1 0x40 MLOAD DUP1 SWAP3 PUSH4 0x252A867 PUSH1 0xE5 SHL DUP3 MSTORE DUP2 DUP1 PUSH2 0x4386 DUP10 PUSH1 0x4 DUP4 ADD PUSH2 0x4FD4 JUMP JUMPDEST SUB SWAP2 GAS DELEGATECALL DUP1 ISZERO PUSH2 0x46C4 JUMPI PUSH2 0x46AF JUMPI JUMPDEST POP PUSH1 0x2 DUP4 ADD SWAP7 PUSH2 0x43AC PUSH1 0xFF DUP10 SLOAD PUSH1 0xB0 SHR AND ISZERO PUSH2 0x50B9 JUMP JUMPDEST CALLER DUP2 MSTORE PUSH1 0x1 PUSH1 0x20 MSTORE PUSH1 0x40 DUP2 KECCAK256 PUSH1 0x1 DUP1 PUSH1 0xA0 SHL SUB DUP7 AND PUSH0 MSTORE PUSH1 0x20 MSTORE PUSH1 0x40 PUSH0 KECCAK256 SLOAD DUP3 DUP2 LT PUSH2 0x4478 JUMPI JUMPDEST POP SWAP1 PUSH0 MLOAD PUSH1 0x20 PUSH2 0x56DA PUSH0 CODECOPY PUSH0 MLOAD SWAP1 PUSH0 MSTORE SWAP5 PUSH1 0x40 PUSH1 0x20 SWAP6 SWAP5 SWAP4 CALLER DUP2 MSTORE PUSH1 0x1 DUP8 MSTORE KECCAK256 PUSH1 0x1 DUP1 PUSH1 0xA0 SHL SUB DUP3 AND PUSH0 MSTORE DUP6 MSTORE PUSH1 0x40 PUSH0 KECCAK256 PUSH2 0x440F DUP4 DUP3 SLOAD PUSH2 0x4D5A JUMP JUMPDEST SWAP1 SSTORE DUP9 SLOAD PUSH1 0xFF PUSH1 0xB0 SHL NOT AND PUSH1 0x1 PUSH1 0xB0 SHL OR DUP10 SSTORE PUSH1 0xA DUP5 ADD DUP1 SLOAD PUSH1 0x1 PUSH1 0x1 PUSH1 0xA0 SHL SUB NOT AND PUSH1 0x1 PUSH1 0x1 PUSH1 0xA0 SHL SUB SWAP3 DUP4 AND OR SWAP1 SSTORE PUSH1 0x4 DUP5 ADD DUP3 SWAP1 SSTORE PUSH1 0x6 DUP5 ADD SWAP2 SWAP1 SWAP2 SSTORE PUSH1 0x8 DUP4 ADD SWAP2 SWAP1 SWAP2 SSTORE SWAP1 SLOAD SWAP5 SLOAD SWAP6 SLOAD PUSH1 0x40 MLOAD SWAP1 DUP3 AND DUP2 MSTORE SWAP6 DUP2 AND SWAP6 SWAP5 AND SWAP4 LOG4 PUSH1 0x20 PUSH1 0x40 MLOAD PUSH1 0x1 DUP2 MSTORE RETURN JUMPDEST PUSH2 0x4486 SWAP1 DUP4 SWAP3 SWAP6 SWAP5 SWAP4 PUSH2 0x4D5A JUMP JUMPDEST SWAP5 PUSH2 0x4497 PUSH1 0xFF DUP7 SLOAD PUSH1 0xA0 SHR AND PUSH2 0x4CCB JUMP JUMPDEST DUP6 ISZERO PUSH2 0xD69 JUMPI PUSH1 0x2 SLOAD PUSH1 0x40 MLOAD SWAP1 PUSH4 0x1C8F0847 PUSH1 0xE0 SHL DUP3 MSTORE DUP8 PUSH1 0x4 DUP4 ADD MSTORE PUSH1 0x24 DUP3 ADD MSTORE PUSH1 0x20 DUP2 PUSH1 0x44 DUP2 PUSH20 0x0 GAS DELEGATECALL SWAP1 DUP2 ISZERO PUSH2 0x46A4 JUMPI DUP7 SWAP2 PUSH2 0x4672 JUMPI JUMPDEST POP PUSH1 0x1 PUSH1 0x1 PUSH1 0xA0 SHL SUB DUP3 AND SWAP6 DUP7 PUSH2 0x458F JUMPI PUSH2 0x44FF DUP3 DUP10 PUSH2 0x5348 JUMP JUMPDEST CALLVALUE SUB PUSH2 0xB87 JUMPI PUSH0 MLOAD PUSH1 0x20 PUSH2 0x56DA PUSH0 CODECOPY PUSH0 MLOAD SWAP1 PUSH0 MSTORE SWAP8 PUSH1 0x20 SWAP8 PUSH1 0x40 SWAP4 CALLER DUP5 MSTORE PUSH1 0x1 DUP11 MSTORE DUP5 DUP5 KECCAK256 PUSH0 DUP1 MSTORE DUP11 MSTORE DUP5 PUSH0 KECCAK256 PUSH2 0x4537 DUP5 DUP3 SLOAD PUSH2 0x5348 JUMP JUMPDEST SWAP1 SSTORE PUSH1 0x1 DUP1 PUSH1 0xA0 SHL SUB PUSH1 0x3 SLOAD AND DUP5 MSTORE PUSH1 0x1 DUP11 MSTORE DUP5 DUP5 KECCAK256 PUSH0 DUP1 MSTORE DUP11 MSTORE DUP5 PUSH0 KECCAK256 PUSH2 0x4560 DUP3 DUP3 SLOAD PUSH2 0x5348 JUMP JUMPDEST SWAP1 SSTORE JUMPDEST DUP5 MLOAD SWAP3 DUP4 MSTORE DUP10 DUP4 ADD MSTORE DUP4 DUP3 ADD MSTORE PUSH0 MLOAD PUSH1 0x20 PUSH2 0x565A PUSH0 CODECOPY PUSH0 MLOAD SWAP1 PUSH0 MSTORE PUSH1 0x60 CALLER SWAP3 LOG2 SWAP3 SWAP4 SWAP5 SWAP6 POP POP SWAP5 PUSH2 0x43D3 JUMP JUMPDEST PUSH2 0x4599 DUP3 DUP10 PUSH2 0x5348 JUMP JUMPDEST PUSH1 0x40 MLOAD SWAP1 PUSH4 0x23B872DD PUSH1 0xE0 SHL DUP3 MSTORE CALLER PUSH1 0x4 DUP4 ADD MSTORE ADDRESS PUSH1 0x24 DUP4 ADD MSTORE PUSH1 0x44 DUP3 ADD MSTORE PUSH1 0x20 DUP2 PUSH1 0x64 DUP2 DUP6 DUP13 GAS CALL SWAP1 DUP2 ISZERO PUSH2 0x51A JUMPI DUP3 SWAP2 PUSH2 0x4638 JUMPI JUMPDEST POP ISZERO PUSH2 0xC83 JUMPI PUSH0 MLOAD PUSH1 0x20 PUSH2 0x56DA PUSH0 CODECOPY PUSH0 MLOAD SWAP1 PUSH0 MSTORE SWAP8 PUSH1 0x20 SWAP8 PUSH1 0x40 SWAP4 CALLER DUP5 MSTORE PUSH1 0x1 DUP11 MSTORE DUP5 DUP5 KECCAK256 DUP3 PUSH0 MSTORE DUP11 MSTORE DUP5 PUSH0 KECCAK256 PUSH2 0x4608 DUP5 DUP3 SLOAD PUSH2 0x5348 JUMP JUMPDEST SWAP1 SSTORE PUSH1 0x1 DUP1 PUSH1 0xA0 SHL SUB PUSH1 0x3 SLOAD AND DUP5 MSTORE PUSH1 0x1 DUP11 MSTORE DUP5 DUP5 KECCAK256 DUP3 PUSH0 MSTORE DUP11 MSTORE DUP5 PUSH0 KECCAK256 PUSH2 0x4631 DUP3 DUP3 SLOAD PUSH2 0x5348 JUMP JUMPDEST SWAP1 SSTORE PUSH2 0x4563 JUMP JUMPDEST SWAP1 POP PUSH1 0x20 DUP2 RETURNDATASIZE PUSH1 0x20 GT PUSH2 0x466A JUMPI JUMPDEST DUP2 PUSH2 0x4653 PUSH1 0x20 SWAP4 DUP4 PUSH2 0x4DAC JUMP JUMPDEST DUP2 ADD SUB SLT PUSH2 0x525 JUMPI PUSH2 0x4664 SWAP1 PUSH2 0x4DE2 JUMP JUMPDEST PUSH0 PUSH2 0x45D0 JUMP JUMPDEST RETURNDATASIZE SWAP2 POP PUSH2 0x4646 JUMP JUMPDEST SWAP1 POP PUSH1 0x20 DUP2 RETURNDATASIZE PUSH1 0x20 GT PUSH2 0x469C JUMPI JUMPDEST DUP2 PUSH2 0x468D PUSH1 0x20 SWAP4 DUP4 PUSH2 0x4DAC JUMP JUMPDEST DUP2 ADD SUB SLT PUSH2 0x4AA JUMPI MLOAD PUSH0 PUSH2 0x44E4 JUMP JUMPDEST RETURNDATASIZE SWAP2 POP PUSH2 0x4680 JUMP JUMPDEST PUSH1 0x40 MLOAD RETURNDATASIZE DUP9 DUP3 RETURNDATACOPY RETURNDATASIZE SWAP1 REVERT JUMPDEST PUSH2 0x46BC SWAP2 SWAP8 POP PUSH0 SWAP1 PUSH2 0x4DAC JUMP JUMPDEST PUSH0 SWAP6 PUSH0 PUSH2 0x4395 JUMP JUMPDEST PUSH1 0x40 MLOAD RETURNDATASIZE PUSH0 DUP3 RETURNDATACOPY RETURNDATASIZE SWAP1 REVERT JUMPDEST CALLVALUE PUSH2 0x4AA JUMPI PUSH0 CALLDATASIZE PUSH1 0x3 NOT ADD SLT PUSH2 0x4AA JUMPI PUSH1 0x3 SLOAD PUSH1 0x40 MLOAD PUSH1 0x1 PUSH1 0x1 PUSH1 0xA0 SHL SUB SWAP1 SWAP2 AND DUP2 MSTORE PUSH1 0x20 SWAP1 RETURN JUMPDEST CALLVALUE PUSH2 0x4AA JUMPI PUSH2 0x220 PUSH2 0x47B2 PUSH2 0x470B CALLDATASIZE PUSH2 0x4A44 JUMP JUMPDEST SWAP3 PUSH2 0x4728 PUSH1 0xFF PUSH0 SWAP14 SWAP10 SWAP8 SWAP13 SWAP7 SWAP14 SWAP12 SWAP11 SWAP12 SWAP5 SWAP4 SWAP5 SLOAD PUSH1 0xA0 SHR AND PUSH2 0x4CCB JUMP JUMPDEST CALLER PUSH0 MSTORE PUSH1 0x1 PUSH1 0x20 MSTORE PUSH1 0x40 PUSH0 KECCAK256 PUSH1 0x1 DUP1 PUSH1 0xA0 SHL SUB DUP3 AND PUSH0 MSTORE PUSH1 0x20 MSTORE PUSH2 0x4752 DUP7 PUSH1 0x40 PUSH0 KECCAK256 SLOAD LT ISZERO PUSH2 0x4D17 JUMP JUMPDEST CALLER PUSH0 MSTORE PUSH1 0x1 PUSH1 0x20 MSTORE PUSH1 0x40 PUSH0 KECCAK256 PUSH1 0x1 DUP1 PUSH1 0xA0 SHL SUB DUP3 AND PUSH0 MSTORE PUSH1 0x20 MSTORE PUSH1 0x40 PUSH0 KECCAK256 PUSH2 0x477B DUP8 DUP3 SLOAD PUSH2 0x4D5A JUMP JUMPDEST SWAP1 SSTORE PUSH1 0x40 MLOAD PUSH4 0x652E83D7 PUSH1 0xE0 SHL DUP2 MSTORE PUSH20 0x0 SWAP13 SWAP1 SWAP12 DUP13 SWAP9 DUP10 SWAP9 DUP14 DUP14 CALLER PUSH1 0x4 DUP14 ADD PUSH2 0x4F08 JUMP JUMPDEST SUB DUP2 DUP8 GAS DELEGATECALL SWAP3 DUP4 ISZERO PUSH2 0x46C4 JUMPI PUSH0 SWAP4 PUSH2 0x49F2 JUMPI JUMPDEST POP PUSH1 0x20 PUSH2 0x224 SWAP4 SWAP5 PUSH1 0x40 MLOAD SWAP5 DUP6 DUP1 SWAP3 PUSH4 0x63F88CDD PUSH1 0xE1 SHL DUP3 MSTORE PUSH2 0x47EB PUSH1 0x4 DUP4 ADD DUP11 PUSH2 0x4BDC JUMP JUMPDEST GAS DELEGATECALL SWAP3 DUP4 ISZERO PUSH2 0x46C4 JUMPI PUSH0 SWAP4 PUSH2 0x49BE JUMPI JUMPDEST POP PUSH0 DUP4 DUP2 MSTORE PUSH1 0x4 PUSH1 0x20 SWAP1 DUP2 MSTORE PUSH1 0x40 SWAP2 DUP3 SWAP1 KECCAK256 DUP7 MLOAD DUP2 SLOAD PUSH1 0x1 PUSH1 0x1 PUSH1 0xA0 SHL SUB NOT SWAP1 DUP2 AND PUSH1 0x1 PUSH1 0x1 PUSH1 0xA0 SHL SUB SWAP3 DUP4 AND OR DUP4 SSTORE SWAP3 DUP9 ADD MLOAD PUSH1 0x1 DUP4 ADD DUP1 SLOAD SWAP1 SWAP5 AND SWAP1 DUP3 AND OR SWAP1 SWAP3 SSTORE SWAP2 DUP7 ADD MLOAD PUSH1 0x2 DUP4 ADD DUP1 SLOAD PUSH1 0x60 DUP10 ADD MLOAD PUSH1 0x80 DUP11 ADD MLOAD PUSH1 0xA0 DUP1 DUP13 ADD MLOAD PUSH1 0xC0 DUP14 ADD MLOAD PUSH1 0xFF PUSH1 0xB8 SHL SWAP1 ISZERO ISZERO PUSH1 0xB8 SHL AND PUSH1 0x1 PUSH1 0x1 PUSH1 0xC0 SHL SUB NOT SWAP1 SWAP6 AND SWAP7 SWAP1 SWAP8 AND SWAP6 SWAP1 SWAP6 OR SWAP2 ISZERO ISZERO SWAP1 SWAP5 SHL PUSH1 0xFF PUSH1 0xA0 SHL AND OR PUSH1 0xFF PUSH1 0xA8 SHL SWAP4 ISZERO ISZERO PUSH1 0xA8 SHL SWAP4 SWAP1 SWAP4 AND SWAP3 SWAP1 SWAP3 OR PUSH1 0xFF PUSH1 0xB0 SHL SWAP4 ISZERO ISZERO PUSH1 0xB0 SHL SWAP4 SWAP1 SWAP4 AND SWAP3 SWAP1 SWAP3 OR OR SWAP1 SSTORE PUSH2 0x200 SWAP1 PUSH1 0xC SWAP1 PUSH1 0xE0 DUP8 ADD MLOAD PUSH1 0x3 DUP3 ADD SSTORE PUSH2 0x100 DUP8 ADD MLOAD PUSH1 0x4 DUP3 ADD SSTORE PUSH2 0x120 DUP8 ADD MLOAD PUSH1 0x5 DUP3 ADD SSTORE PUSH2 0x140 DUP8 ADD MLOAD PUSH1 0x6 DUP1 DUP4 ADD SWAP2 SWAP1 SWAP2 SSTORE PUSH2 0x160 DUP9 ADD MLOAD PUSH1 0x7 DUP4 ADD SSTORE PUSH2 0x180 DUP9 ADD MLOAD PUSH1 0x8 DUP4 ADD SSTORE PUSH2 0x1A0 DUP9 ADD MLOAD PUSH1 0x9 DUP4 ADD DUP1 SLOAD PUSH1 0x1 PUSH1 0x1 PUSH1 0xA0 SHL SUB SWAP3 DUP4 AND PUSH1 0x1 PUSH1 0x1 PUSH1 0xA0 SHL SUB NOT SWAP2 DUP3 AND OR SWAP1 SWAP2 SSTORE PUSH2 0x1C0 DUP11 ADD MLOAD PUSH1 0xA DUP6 ADD DUP1 SLOAD SWAP2 SWAP1 SWAP4 AND SWAP2 AND OR SWAP1 SSTORE PUSH2 0x1E0 DUP9 ADD MLOAD PUSH1 0xB DUP4 ADD SSTORE SWAP3 SWAP1 SWAP7 ADD MLOAD SWAP6 ADD SWAP1 DUP6 LT ISZERO PUSH2 0x49AA JUMPI PUSH1 0x20 SWAP5 PUSH1 0xFF DUP1 NOT DUP4 SLOAD AND SWAP2 AND OR SWAP1 SSTORE PUSH1 0x40 MLOAD SWAP2 PUSH1 0x1 DUP1 PUSH1 0xA0 SHL SUB AND DUP3 MSTORE PUSH1 0x1 DUP1 PUSH1 0xA0 SHL SUB AND SWAP1 DUP3 PUSH32 0x44E1FF8E67FAD6B456BD43FF165BA4E9BB004370AA27A76881C6ACB60DFD6DD9 DUP6 CALLER SWAP4 LOG4 PUSH1 0x40 MLOAD SWAP1 DUP2 MSTORE RETURN JUMPDEST PUSH4 0x4E487B71 PUSH1 0xE0 SHL PUSH0 MSTORE PUSH1 0x21 PUSH1 0x4 MSTORE PUSH1 0x24 PUSH0 REVERT JUMPDEST SWAP1 SWAP3 POP PUSH1 0x20 DUP2 RETURNDATASIZE PUSH1 0x20 GT PUSH2 0x49EA JUMPI JUMPDEST DUP2 PUSH2 0x49DA PUSH1 0x20 SWAP4 DUP4 PUSH2 0x4DAC JUMP JUMPDEST DUP2 ADD SUB SLT PUSH2 0x4AA JUMPI MLOAD SWAP2 DUP5 PUSH2 0x47FB JUMP JUMPDEST RETURNDATASIZE SWAP2 POP PUSH2 0x49CD JUMP JUMPDEST PUSH2 0x224 SWAP4 POP PUSH2 0x4A11 PUSH1 0x20 SWAP2 PUSH2 0x220 RETURNDATASIZE DUP2 GT PUSH2 0xA66 JUMPI PUSH2 0xA57 DUP2 DUP4 PUSH2 0x4DAC JUMP JUMPDEST SWAP4 POP PUSH2 0x47C5 JUMP JUMPDEST PUSH1 0x24 CALLDATALOAD SWAP1 PUSH1 0x1 PUSH1 0x1 PUSH1 0xA0 SHL SUB DUP3 AND DUP3 SUB PUSH2 0x4AA JUMPI JUMP JUMPDEST PUSH1 0x4 CALLDATALOAD SWAP1 PUSH1 0x1 PUSH1 0x1 PUSH1 0xA0 SHL SUB DUP3 AND DUP3 SUB PUSH2 0x4AA JUMPI JUMP JUMPDEST PUSH2 0x140 SWAP1 PUSH1 0x3 NOT ADD SLT PUSH2 0x4AA JUMPI PUSH1 0x4 CALLDATALOAD PUSH1 0x1 PUSH1 0x1 PUSH1 0xA0 SHL SUB DUP2 AND DUP2 SUB PUSH2 0x4AA JUMPI SWAP1 PUSH1 0x24 CALLDATALOAD PUSH1 0x1 PUSH1 0x1 PUSH1 0xA0 SHL SUB DUP2 AND DUP2 SUB PUSH2 0x4AA JUMPI SWAP1 PUSH1 0x44 CALLDATALOAD SWAP1 PUSH1 0x64 CALLDATALOAD SWAP1 PUSH1 0x84 CALLDATALOAD SWAP1 PUSH1 0xA4 CALLDATALOAD SWAP1 PUSH1 0xC4 CALLDATALOAD PUSH1 0x1 PUSH1 0x1 PUSH1 0xA0 SHL SUB DUP2 AND DUP2 SUB PUSH2 0x4AA JUMPI SWAP1 PUSH1 0xE4 CALLDATALOAD PUSH1 0x1 PUSH1 0x1 PUSH1 0xA0 SHL SUB DUP2 AND DUP2 SUB PUSH2 0x4AA JUMPI SWAP1 PUSH2 0x104 CALLDATALOAD SWAP1 PUSH2 0x124 CALLDATALOAD PUSH1 0x6 DUP2 LT ISZERO PUSH2 0x4AA JUMPI SWAP1 JUMP JUMPDEST PUSH1 0x80 SWAP1 PUSH1 0x3 NOT ADD SLT PUSH2 0x4AA JUMPI PUSH1 0x4 CALLDATALOAD SWAP1 PUSH1 0x24 CALLDATALOAD PUSH1 0x1 PUSH1 0x1 PUSH1 0xA0 SHL SUB DUP2 AND DUP2 SUB PUSH2 0x4AA JUMPI SWAP1 PUSH1 0x44 CALLDATALOAD SWAP1 PUSH1 0x64 CALLDATALOAD SWAP1 JUMP JUMPDEST PUSH1 0x40 SWAP1 PUSH1 0x3 NOT ADD SLT PUSH2 0x4AA JUMPI PUSH1 0x4 CALLDATALOAD SWAP1 PUSH1 0x24 CALLDATALOAD SWAP1 JUMP JUMPDEST PUSH1 0xE0 SWAP1 PUSH1 0x3 NOT ADD SLT PUSH2 0x4AA JUMPI PUSH1 0x4 CALLDATALOAD PUSH1 0x1 PUSH1 0x1 PUSH1 0xA0 SHL SUB DUP2 AND DUP2 SUB PUSH2 0x4AA JUMPI SWAP1 PUSH1 0x24 CALLDATALOAD PUSH1 0x1 PUSH1 0x1 PUSH1 0xA0 SHL SUB DUP2 AND DUP2 SUB PUSH2 0x4AA JUMPI SWAP1 PUSH1 0x44 CALLDATALOAD SWAP1 PUSH1 0x64 CALLDATALOAD SWAP1 PUSH1 0x84 CALLDATALOAD PUSH1 0x1 PUSH1 0x1 PUSH1 0xA0 SHL SUB DUP2 AND DUP2 SUB PUSH2 0x4AA JUMPI SWAP1 PUSH1 0xA4 CALLDATALOAD SWAP1 PUSH1 0xC4 CALLDATALOAD PUSH1 0x6 DUP2 LT ISZERO PUSH2 0x4AA JUMPI SWAP1 JUMP JUMPDEST DUP1 SLOAD DUP3 LT ISZERO PUSH2 0x4B82 JUMPI PUSH0 MSTORE PUSH1 0x20 PUSH0 KECCAK256 ADD SWAP1 PUSH0 SWAP1 JUMP JUMPDEST PUSH4 0x4E487B71 PUSH1 0xE0 SHL PUSH0 MSTORE PUSH1 0x32 PUSH1 0x4 MSTORE PUSH1 0x24 PUSH0 REVERT JUMPDEST PUSH1 0x20 PUSH1 0x40 DUP2 DUP4 ADD SWAP3 DUP3 DUP2 MSTORE DUP5 MLOAD DUP1 SWAP5 MSTORE ADD SWAP3 ADD SWAP1 PUSH0 JUMPDEST DUP2 DUP2 LT PUSH2 0x4BB9 JUMPI POP POP POP SWAP1 JUMP JUMPDEST DUP3 MLOAD DUP5 MSTORE PUSH1 0x20 SWAP4 DUP5 ADD SWAP4 SWAP1 SWAP3 ADD SWAP2 PUSH1 0x1 ADD PUSH2 0x4BAC JUMP JUMPDEST SWAP1 PUSH1 0x6 DUP3 LT ISZERO PUSH2 0x49AA JUMPI MSTORE JUMP JUMPDEST SWAP1 PUSH2 0x200 DUP1 PUSH2 0x4CC9 SWAP4 PUSH1 0x1 DUP1 PUSH1 0xA0 SHL SUB DUP2 MLOAD AND DUP5 MSTORE PUSH1 0x1 DUP1 PUSH1 0xA0 SHL SUB PUSH1 0x20 DUP3 ADD MLOAD AND PUSH1 0x20 DUP6 ADD MSTORE PUSH1 0x1 DUP1 PUSH1 0xA0 SHL SUB PUSH1 0x40 DUP3 ADD MLOAD AND PUSH1 0x40 DUP6 ADD MSTORE PUSH1 0x60 DUP2 ADD MLOAD ISZERO ISZERO PUSH1 0x60 DUP6 ADD MSTORE PUSH1 0x80 DUP2 ADD MLOAD ISZERO ISZERO PUSH1 0x80 DUP6 ADD MSTORE PUSH1 0xA0 DUP2 ADD MLOAD ISZERO ISZERO PUSH1 0xA0 DUP6 ADD MSTORE PUSH1 0xC0 DUP2 ADD MLOAD ISZERO ISZERO PUSH1 0xC0 DUP6 ADD MSTORE PUSH1 0xE0 DUP2 ADD MLOAD PUSH1 0xE0 DUP6 ADD MSTORE PUSH2 0x100 DUP2 ADD MLOAD PUSH2 0x100 DUP6 ADD MSTORE PUSH2 0x120 DUP2 ADD MLOAD PUSH2 0x120 DUP6 ADD MSTORE PUSH2 0x140 DUP2 ADD MLOAD PUSH2 0x140 DUP6 ADD MSTORE PUSH2 0x160 DUP2 ADD MLOAD PUSH2 0x160 DUP6 ADD MSTORE PUSH2 0x180 DUP2 ADD MLOAD PUSH2 0x180 DUP6 ADD MSTORE PUSH1 0x1 DUP1 PUSH1 0xA0 SHL SUB PUSH2 0x1A0 DUP3 ADD MLOAD AND PUSH2 0x1A0 DUP6 ADD MSTORE PUSH1 0x1 DUP1 PUSH1 0xA0 SHL SUB PUSH2 0x1C0 DUP3 ADD MLOAD AND PUSH2 0x1C0 DUP6 ADD MSTORE PUSH2 0x1E0 DUP2 ADD MLOAD PUSH2 0x1E0 DUP6 ADD MSTORE ADD MLOAD SWAP2 ADD SWAP1 PUSH2 0x4BCF JUMP JUMPDEST JUMP JUMPDEST ISZERO PUSH2 0x4CD2 JUMPI JUMP JUMPDEST PUSH1 0x40 MLOAD PUSH3 0x461BCD PUSH1 0xE5 SHL DUP2 MSTORE PUSH1 0x20 PUSH1 0x4 DUP3 ADD MSTORE PUSH1 0x1E PUSH1 0x24 DUP3 ADD MSTORE PUSH32 0x436F6E74726163742069732063757272656E746C792064697361626C65640000 PUSH1 0x44 DUP3 ADD MSTORE PUSH1 0x64 SWAP1 REVERT JUMPDEST ISZERO PUSH2 0x4D1E JUMPI JUMP JUMPDEST PUSH1 0x40 MLOAD PUSH3 0x461BCD PUSH1 0xE5 SHL DUP2 MSTORE PUSH1 0x20 PUSH1 0x4 DUP3 ADD MSTORE PUSH1 0x14 PUSH1 0x24 DUP3 ADD MSTORE PUSH20 0x496E73756666696369656E742062616C616E6365 PUSH1 0x60 SHL PUSH1 0x44 DUP3 ADD MSTORE PUSH1 0x64 SWAP1 REVERT JUMPDEST SWAP2 SWAP1 DUP3 SUB SWAP2 DUP3 GT PUSH2 0x4D67 JUMPI JUMP JUMPDEST PUSH4 0x4E487B71 PUSH1 0xE0 SHL PUSH0 MSTORE PUSH1 0x11 PUSH1 0x4 MSTORE PUSH1 0x24 PUSH0 REVERT JUMPDEST PUSH2 0x220 DUP2 ADD SWAP1 DUP2 LT PUSH8 0xFFFFFFFFFFFFFFFF DUP3 GT OR PUSH2 0x4D98 JUMPI PUSH1 0x40 MSTORE JUMP JUMPDEST PUSH4 0x4E487B71 PUSH1 0xE0 SHL PUSH0 MSTORE PUSH1 0x41 PUSH1 0x4 MSTORE PUSH1 0x24 PUSH0 REVERT JUMPDEST SWAP1 PUSH1 0x1F DUP1 NOT SWAP2 ADD AND DUP2 ADD SWAP1 DUP2 LT PUSH8 0xFFFFFFFFFFFFFFFF DUP3 GT OR PUSH2 0x4D98 JUMPI PUSH1 0x40 MSTORE JUMP JUMPDEST MLOAD SWAP1 PUSH1 0x1 PUSH1 0x1 PUSH1 0xA0 SHL SUB DUP3 AND DUP3 SUB PUSH2 0x4AA JUMPI JUMP JUMPDEST MLOAD SWAP1 DUP2 ISZERO ISZERO DUP3 SUB PUSH2 0x4AA JUMPI JUMP JUMPDEST SWAP1 DUP2 PUSH2 0x220 SWAP2 SUB SLT PUSH2 0x4AA JUMPI PUSH2 0x200 PUSH1 0x40 MLOAD SWAP2 PUSH2 0x4E0B DUP4 PUSH2 0x4D7B JUMP JUMPDEST PUSH2 0x4E14 DUP2 PUSH2 0x4DCE JUMP JUMPDEST DUP4 MSTORE PUSH2 0x4E22 PUSH1 0x20 DUP3 ADD PUSH2 0x4DCE JUMP JUMPDEST PUSH1 0x20 DUP5 ADD MSTORE PUSH2 0x4E33 PUSH1 0x40 DUP3 ADD PUSH2 0x4DCE JUMP JUMPDEST PUSH1 0x40 DUP5 ADD MSTORE PUSH2 0x4E44 PUSH1 0x60 DUP3 ADD PUSH2 0x4DE2 JUMP JUMPDEST PUSH1 0x60 DUP5 ADD MSTORE PUSH2 0x4E55 PUSH1 0x80 DUP3 ADD PUSH2 0x4DE2 JUMP JUMPDEST PUSH1 0x80 DUP5 ADD MSTORE PUSH2 0x4E66 PUSH1 0xA0 DUP3 ADD PUSH2 0x4DE2 JUMP JUMPDEST PUSH1 0xA0 DUP5 ADD MSTORE PUSH2 0x4E77 PUSH1 0xC0 DUP3 ADD PUSH2 0x4DE2 JUMP JUMPDEST PUSH1 0xC0 DUP5 ADD MSTORE PUSH1 0xE0 DUP2 ADD MLOAD PUSH1 0xE0 DUP5 ADD MSTORE PUSH2 0x100 DUP2 ADD MLOAD PUSH2 0x100 DUP5 ADD MSTORE PUSH2 0x120 DUP2 ADD MLOAD PUSH2 0x120 DUP5 ADD MSTORE PUSH2 0x140 DUP2 ADD MLOAD PUSH2 0x140 DUP5 ADD MSTORE PUSH2 0x160 DUP2 ADD MLOAD PUSH2 0x160 DUP5 ADD MSTORE PUSH2 0x180 DUP2 ADD MLOAD PUSH2 0x180 DUP5 ADD MSTORE PUSH2 0x4ECF PUSH2 0x1A0 DUP3 ADD PUSH2 0x4DCE JUMP JUMPDEST PUSH2 0x1A0 DUP5 ADD MSTORE PUSH2 0x4EE2 PUSH2 0x1C0 DUP3 ADD PUSH2 0x4DCE JUMP JUMPDEST PUSH2 0x1C0 DUP5 ADD MSTORE PUSH2 0x1E0 DUP2 ADD MLOAD PUSH2 0x1E0 DUP5 ADD MSTORE ADD MLOAD PUSH1 0x6 DUP2 LT ISZERO PUSH2 0x4AA JUMPI PUSH2 0x200 DUP3 ADD MSTORE SWAP1 JUMP JUMPDEST PUSH1 0x1 PUSH1 0x1 PUSH1 0xA0 SHL SUB SWAP2 DUP3 AND DUP2 MSTORE SWAP2 DUP2 AND PUSH1 0x20 DUP4 ADD MSTORE SWAP2 DUP3 AND PUSH1 0x40 DUP3 ADD MSTORE PUSH1 0x60 DUP2 ADD SWAP3 SWAP1 SWAP3 MSTORE PUSH1 0x80 DUP3 ADD SWAP3 SWAP1 SWAP3 MSTORE PUSH1 0xA0 DUP2 ADD SWAP3 SWAP1 SWAP3 MSTORE PUSH1 0xC0 DUP3 ADD SWAP3 SWAP1 SWAP3 MSTORE SWAP2 DUP2 AND PUSH1 0xE0 DUP4 ADD MSTORE SWAP1 SWAP2 AND PUSH2 0x100 DUP3 ADD MSTORE PUSH2 0x120 DUP2 ADD SWAP2 SWAP1 SWAP2 MSTORE PUSH2 0x160 DUP2 ADD SWAP3 SWAP2 PUSH2 0x4CC9 SWAP2 PUSH2 0x140 ADD SWAP1 PUSH2 0x4BCF JUMP JUMPDEST ISZERO PUSH2 0x4F7B JUMPI JUMP JUMPDEST PUSH1 0x40 MLOAD PUSH3 0x461BCD PUSH1 0xE5 SHL DUP2 MSTORE PUSH1 0x20 PUSH1 0x4 DUP3 ADD MSTORE PUSH1 0x2B PUSH1 0x24 DUP3 ADD MSTORE PUSH32 0x4F6E6C79206120636F756E74657270617274792063616E206D616B6520646561 PUSH1 0x44 DUP3 ADD MSTORE PUSH11 0x1B081D1DDBC81CDA591959 PUSH1 0xAA SHL PUSH1 0x64 DUP3 ADD MSTORE PUSH1 0x84 SWAP1 REVERT JUMPDEST DUP2 SLOAD PUSH1 0x1 PUSH1 0x1 PUSH1 0xA0 SHL SUB SWAP1 DUP2 AND DUP3 MSTORE PUSH1 0x1 DUP4 ADD SLOAD DUP2 AND PUSH1 0x20 DUP4 ADD MSTORE PUSH1 0x2 DUP4 ADD SLOAD DUP1 DUP3 AND PUSH1 0x40 DUP5 ADD MSTORE PUSH1 0xFF PUSH1 0xA0 DUP3 DUP2 SHR DUP3 AND ISZERO ISZERO PUSH1 0x60 DUP7 ADD MSTORE PUSH1 0xA8 DUP4 SWAP1 SHR DUP3 AND ISZERO ISZERO PUSH1 0x80 DUP7 ADD MSTORE PUSH1 0xB0 DUP4 SWAP1 SHR DUP3 AND ISZERO ISZERO SWAP1 DUP6 ADD MSTORE PUSH1 0xB8 SWAP2 SWAP1 SWAP2 SHR DUP2 AND ISZERO ISZERO PUSH1 0xC0 DUP5 ADD MSTORE PUSH1 0x3 DUP5 ADD SLOAD PUSH1 0xE0 DUP5 ADD MSTORE PUSH1 0x4 DUP5 ADD SLOAD PUSH2 0x100 DUP5 ADD MSTORE PUSH1 0x5 DUP5 ADD SLOAD PUSH2 0x120 DUP5 ADD MSTORE PUSH1 0x6 DUP5 ADD SLOAD PUSH2 0x140 DUP5 ADD MSTORE PUSH1 0x7 DUP5 ADD SLOAD PUSH2 0x160 DUP5 ADD MSTORE PUSH1 0x8 DUP5 ADD SLOAD PUSH2 0x180 DUP5 ADD MSTORE PUSH1 0x9 DUP5 ADD SLOAD DUP3 AND PUSH2 0x1A0 DUP5 ADD MSTORE PUSH1 0xA DUP5 ADD SLOAD SWAP1 SWAP2 AND PUSH2 0x1C0 DUP4 ADD MSTORE PUSH1 0xB DUP4 ADD SLOAD PUSH2 0x1E0 DUP4 ADD MSTORE PUSH1 0xC SWAP1 SWAP3 ADD SLOAD PUSH2 0x220 DUP3 ADD SWAP4 SWAP3 PUSH2 0x4CC9 SWAP3 PUSH2 0x200 ADD SWAP2 AND PUSH2 0x4BCF JUMP JUMPDEST ISZERO PUSH2 0x50C0 JUMPI JUMP JUMPDEST PUSH1 0x40 MLOAD PUSH3 0x461BCD PUSH1 0xE5 SHL DUP2 MSTORE PUSH1 0x20 PUSH1 0x4 DUP3 ADD MSTORE PUSH1 0x2A PUSH1 0x24 DUP3 ADD MSTORE PUSH32 0x43616E74206D61646520616C72656164792074776F207369646564206465616C PUSH1 0x44 DUP3 ADD MSTORE PUSH10 0x81D1DDBC81CDA591959 PUSH1 0xB2 SHL PUSH1 0x64 DUP3 ADD MSTORE PUSH1 0x84 SWAP1 REVERT JUMPDEST ISZERO PUSH2 0x511F JUMPI JUMP JUMPDEST PUSH1 0x40 MLOAD PUSH3 0x461BCD PUSH1 0xE5 SHL DUP2 MSTORE PUSH1 0x20 PUSH1 0x4 DUP3 ADD MSTORE PUSH1 0x31 PUSH1 0x24 DUP3 ADD MSTORE PUSH32 0x4F6E6C79206120696E69746174696F72206F72206D65646961746F722063616E PUSH1 0x44 DUP3 ADD MSTORE PUSH17 0x818D85B1B081D1A1A5CC81B595D1A1BD9 PUSH1 0x7A SHL PUSH1 0x64 DUP3 ADD MSTORE PUSH1 0x84 SWAP1 REVERT JUMPDEST PUSH1 0x1 PUSH1 0x1 PUSH1 0xA0 SHL SUB SWAP2 DUP3 AND DUP2 MSTORE SWAP2 AND PUSH1 0x20 DUP3 ADD MSTORE PUSH1 0x40 DUP2 ADD SWAP2 SWAP1 SWAP2 MSTORE PUSH1 0x60 DUP2 ADD SWAP2 SWAP1 SWAP2 MSTORE PUSH1 0x80 ADD SWAP1 JUMP JUMPDEST PUSH1 0x1 PUSH1 0x1 PUSH1 0xA0 SHL SUB SWAP2 DUP3 AND DUP2 MSTORE SWAP2 DUP2 AND PUSH1 0x20 DUP4 ADD MSTORE SWAP2 DUP3 AND PUSH1 0x40 DUP3 ADD MSTORE PUSH1 0x60 DUP2 ADD SWAP3 SWAP1 SWAP3 MSTORE PUSH0 PUSH1 0x80 DUP4 ADD DUP2 SWAP1 MSTORE PUSH1 0xA0 DUP4 ADD SWAP4 SWAP1 SWAP4 MSTORE PUSH1 0xC0 DUP3 ADD DUP4 SWAP1 MSTORE SWAP1 SWAP3 AND PUSH1 0xE0 DUP4 ADD MSTORE PUSH2 0x100 DUP3 ADD MSTORE PUSH2 0x120 DUP2 ADD SWAP2 SWAP1 SWAP2 MSTORE PUSH2 0x160 DUP2 ADD SWAP3 SWAP2 PUSH2 0x4CC9 SWAP2 PUSH2 0x140 ADD SWAP1 PUSH2 0x4BCF JUMP JUMPDEST ISZERO PUSH2 0x5217 JUMPI JUMP JUMPDEST PUSH1 0x40 MLOAD PUSH3 0x461BCD PUSH1 0xE5 SHL DUP2 MSTORE PUSH1 0x20 PUSH1 0x4 DUP3 ADD MSTORE PUSH1 0x26 PUSH1 0x24 DUP3 ADD MSTORE PUSH32 0x4F6E6C7920636F756E74657270617274792063616E2063616C6C207468697320 PUSH1 0x44 DUP3 ADD MSTORE PUSH6 0x1B595D1A1BD9 PUSH1 0xD2 SHL PUSH1 0x64 DUP3 ADD MSTORE PUSH1 0x84 SWAP1 REVERT JUMPDEST ISZERO PUSH2 0x5272 JUMPI JUMP JUMPDEST PUSH1 0x40 MLOAD PUSH3 0x461BCD PUSH1 0xE5 SHL DUP2 MSTORE PUSH1 0x20 PUSH1 0x4 DUP3 ADD MSTORE PUSH1 0x16 PUSH1 0x24 DUP3 ADD MSTORE PUSH22 0x1119585B081B5D5CDD081899481D1DDBC81CDA591959 PUSH1 0x52 SHL PUSH1 0x44 DUP3 ADD MSTORE PUSH1 0x64 SWAP1 REVERT JUMPDEST ISZERO PUSH2 0x52B7 JUMPI JUMP JUMPDEST PUSH1 0x40 MLOAD PUSH3 0x461BCD PUSH1 0xE5 SHL DUP2 MSTORE PUSH1 0x20 PUSH1 0x4 DUP3 ADD MSTORE PUSH1 0x17 PUSH1 0x24 DUP3 ADD MSTORE PUSH32 0x4465616C206D757374206265206E6F74207369676E6564000000000000000000 PUSH1 0x44 DUP3 ADD MSTORE PUSH1 0x64 SWAP1 REVERT JUMPDEST ISZERO PUSH2 0x5303 JUMPI JUMP JUMPDEST PUSH1 0x40 MLOAD PUSH3 0x461BCD PUSH1 0xE5 SHL DUP2 MSTORE PUSH1 0x20 PUSH1 0x4 DUP3 ADD MSTORE PUSH1 0x17 PUSH1 0x24 DUP3 ADD MSTORE PUSH32 0x43616E7420656469742066696E6973686564206465616C000000000000000000 PUSH1 0x44 DUP3 ADD MSTORE PUSH1 0x64 SWAP1 REVERT JUMPDEST SWAP2 SWAP1 DUP3 ADD DUP1 SWAP3 GT PUSH2 0x4D67 JUMPI JUMP JUMPDEST ISZERO PUSH2 0x535C JUMPI JUMP JUMPDEST PUSH1 0x40 MLOAD PUSH3 0x461BCD PUSH1 0xE5 SHL DUP2 MSTORE PUSH1 0x20 PUSH1 0x4 DUP3 ADD MSTORE PUSH1 0x34 PUSH1 0x24 DUP3 ADD MSTORE PUSH32 0x4F6E6C79206120636F756E7465727061727479206F72206D65646961746F7220 PUSH1 0x44 DUP3 ADD MSTORE PUSH20 0x18D85B8818D85B1B081D1A1A5CC81B595D1A1BD9 PUSH1 0x62 SHL PUSH1 0x64 DUP3 ADD MSTORE PUSH1 0x84 SWAP1 REVERT JUMPDEST ISZERO PUSH2 0x53C5 JUMPI JUMP JUMPDEST PUSH1 0x40 MLOAD PUSH3 0x461BCD PUSH1 0xE5 SHL DUP2 MSTORE PUSH1 0x20 PUSH1 0x4 DUP3 ADD MSTORE PUSH1 0x25 PUSH1 0x24 DUP3 ADD MSTORE PUSH32 0x4F6E6C7920612070617274206F6620746865206465616C2063616E2072656A65 PUSH1 0x44 DUP3 ADD MSTORE PUSH5 0x18DD081A5D PUSH1 0xDA SHL PUSH1 0x64 DUP3 ADD MSTORE PUSH1 0x84 SWAP1 REVERT JUMPDEST ISZERO PUSH2 0x541F JUMPI JUMP JUMPDEST PUSH1 0x40 MLOAD PUSH3 0x461BCD PUSH1 0xE5 SHL DUP2 MSTORE PUSH1 0x20 PUSH1 0x4 DUP3 ADD MSTORE PUSH1 0x26 PUSH1 0x24 DUP3 ADD MSTORE PUSH32 0x4F6E6C79206120706172747920746F20746865206465616C2063616E2072656A PUSH1 0x44 DUP3 ADD MSTORE PUSH6 0x1958DD081A5D PUSH1 0xD2 SHL PUSH1 0x64 DUP3 ADD MSTORE PUSH1 0x84 SWAP1 REVERT JUMPDEST ISZERO PUSH2 0x547A JUMPI JUMP JUMPDEST PUSH1 0x40 MLOAD PUSH3 0x461BCD PUSH1 0xE5 SHL DUP2 MSTORE PUSH1 0x20 PUSH1 0x4 DUP3 ADD MSTORE PUSH1 0x18 PUSH1 0x24 DUP3 ADD MSTORE PUSH32 0x4465616C206D757374206265206E6F7420737461727465640000000000000000 PUSH1 0x44 DUP3 ADD MSTORE PUSH1 0x64 SWAP1 REVERT JUMPDEST SWAP1 DUP3 ISZERO PUSH2 0x55EB JUMPI PUSH1 0x1 PUSH1 0x1 PUSH1 0xA0 SHL SUB DUP2 AND DUP1 PUSH2 0x552E JUMPI POP PUSH0 DUP1 DUP1 DUP1 DUP7 PUSH1 0x1 PUSH1 0x1 PUSH1 0xA0 SHL SUB DUP8 AND DUP3 CALL ISZERO PUSH2 0x46C4 JUMPI PUSH31 0x1A143D5B175701CB3246058FFAC3D63945192075A926FF73A19930F09D587A SWAP2 JUMPDEST PUSH1 0x40 DUP1 MLOAD SWAP5 DUP6 MSTORE PUSH1 0x1 PUSH1 0x1 PUSH1 0xA0 SHL SUB SWAP3 DUP4 AND PUSH1 0x20 DUP7 ADD MSTORE SWAP2 AND SWAP3 LOG2 PUSH1 0x1 SWAP1 JUMP JUMPDEST PUSH1 0x40 MLOAD PUSH4 0xA9059CBB PUSH1 0xE0 SHL DUP2 MSTORE PUSH1 0x1 PUSH1 0x1 PUSH1 0xA0 SHL SUB DUP5 AND PUSH1 0x4 DUP3 ADD MSTORE PUSH1 0x24 DUP2 ADD DUP6 SWAP1 MSTORE SWAP3 SWAP1 PUSH1 0x20 SWAP1 DUP5 SWAP1 PUSH1 0x44 SWAP1 DUP3 SWAP1 PUSH0 SWAP1 GAS CALL DUP1 ISZERO PUSH2 0x46C4 JUMPI PUSH2 0x5593 JUMPI JUMPDEST PUSH31 0x1A143D5B175701CB3246058FFAC3D63945192075A926FF73A19930F09D587A SWAP3 POP PUSH2 0x550E JUMP JUMPDEST PUSH1 0x20 DUP4 RETURNDATASIZE PUSH1 0x20 GT PUSH2 0x55E3 JUMPI JUMPDEST DUP2 PUSH2 0x55AC PUSH1 0x20 SWAP4 DUP4 PUSH2 0x4DAC JUMP JUMPDEST DUP2 ADD SUB SLT PUSH2 0x4AA JUMPI PUSH2 0x55DD PUSH31 0x1A143D5B175701CB3246058FFAC3D63945192075A926FF73A19930F09D587A SWAP4 PUSH2 0x4DE2 JUMP JUMPDEST POP PUSH2 0x556C JUMP JUMPDEST RETURNDATASIZE SWAP2 POP PUSH2 0x559F JUMP JUMPDEST POP POP POP PUSH1 0x1 SWAP1 JUMP JUMPDEST PUSH0 SLOAD PUSH1 0x1 PUSH1 0x1 PUSH1 0xA0 SHL SUB AND CALLER SUB PUSH2 0x5606 JUMPI JUMP JUMPDEST PUSH4 0x118CDAA7 PUSH1 0xE0 SHL PUSH0 MSTORE CALLER PUSH1 0x4 MSTORE PUSH1 0x24 PUSH0 REVERT INVALID 0xAF 0xBE CALLER PUSH24 0x83658B293F1566E1790BFAB9858B8CF08DE944CA3CD013D4 0x21 XOR DUP8 0xB8 MCOPY MUL PUSH10 0x8C1650D6CBE1F7E8A486 MULMOD 0xD0 0xDA GASLIMIT 0xAD PUSH32 0x5E4C13CD8B196F82965C0AB0D502D7E648DD130FC184D383E55BB126AC4C9C60 0xE8 0xF9 0x4B CREATE GAS 0xCD CREATE2 JUMPI 0xBA 0x2D SLOAD SIGNEXTEND SELFBALANCE ADDMOD PUSH13 0x61B89EF5FCDB14C243B643069C EXTCODECOPY PUSH11 0x84765B27F2A696B875DDDF SUB BYTE 0xFB 0x4D 0xA6 0xAF NOT 0x23 DUP1 0xB5 0xBA BALANCE BYTE 0xC0 SUB CREATE2 PUSH31 0xFA2BE0717F0E466318C7E9CF546C4937A03D94F05D33634B730E763D232B48 0x2C 0xF8 CALLDATALOAD LOG4 BASEFEE XOR CALLDATALOAD 0xF6 0x2D EXP MULMOD PUSH20 0xB42018A8EAD4F0479F039F6754F2D286001D6BB5 0xC SHL EXTCODECOPY 0xC1 DUP6 0xB3 MULMOD 0xE8 0x2F PUSH4 0x77E2951 PUSH11 0x6A87E8E99DA26469706673 PC 0x22 SLT KECCAK256 PUSH13 0x99B4B89299F29E2EA0D475E0FC LOG2 0xBD 0x22 0xE1 CHAINID TIMESTAMP MUL SDIV 0xE3 DUP9 DIV 0xAE SWAP1 PUSH2 0x168C 0x23 MUL PUSH5 0x736F6C6343 STOP ADDMOD SHR STOP CALLER "
		},
		"gasEstimates": {
			"creation": {
				"codeDepositCost": "4463800",
				"executionCost": "infinite",
				"totalCost": "infinite"
			},
			"external": {
				"addDepositByCounterparty(bytes32,uint256)": "infinite",
				"addDepositByInitiator(bytes32,uint256)": "infinite",
				"balanceOf(address)": "2949",
				"balanceOf(address,address)": "3549",
				"balances(address,address)": "3373",
				"cancelDeal(bytes32)": "infinite",
				"commissionRecipient()": "2296",
				"completeDeal(bytes32)": "infinite",
				"contractEnabled()": "2535",
				"counterpartyAcceptSidedDeal(bytes32)": "infinite",
				"createDeal(address,address,uint256,uint256,address,uint256,uint8)": "infinite",
				"createDealEditExpiration(bytes32)": "infinite",
				"createSidedDeal(address,address,uint256,uint256,uint256,uint256,address,address,uint256,uint8)": "infinite",
				"deals(bytes32)": "28746",
				"dealsByCounterparty(address,uint256)": "7054",
				"dealsByInitiator(address,uint256)": "7494",
				"dealsByMediator(address,uint256)": "6900",
				"deposit(address,uint256)": "infinite",
				"depositCommissionPercent()": "2891",
				"disableContract()": "29303",
				"enableContract()": "28875",
				"executeActionsAfterExpiration(bytes32)": "infinite",
				"getCompletedDeals()": "3177",
				"getDeal(bytes32)": "infinite",
				"getDealsByCounterparty(address)": "infinite",
				"getDealsByInitiator(address)": "infinite",
				"getDealsByMediator(address)": "infinite",
				"getTotalDeals()": "2649",
				"givebackToConunterparty(bytes32,uint256)": "infinite",
				"givebackToInitiator(bytes32,uint256)": "infinite",
				"madeDealTwoSided(bytes32,address,uint256,uint256)": "infinite",
				"owner()": "2934",
				"payUpCounterpartyAcceptSidedDeal(bytes32)": "infinite",
				"payUpCreateDeal(address,address,uint256,uint256,address,uint256,uint8)": "infinite",
				"payUpCreateSidedDeal(address,address,uint256,uint256,uint256,uint256,address,address,uint256,uint8)": "infinite",
				"payUpMadeDealTwoSided(bytes32,address,uint256,uint256)": "infinite",
				"rejectSidedDeal(bytes32)": "infinite",
				"renounceOwnership()": "28560",
				"setDepositCommission(uint256,address)": "50211",
				"totalCompletedDeals()": "3155",
				"totalDeals()": "2957",
				"transfer(address,address,uint256)": "52231",
				"transferOwnership(address)": "29110",
				"transferToCounterparty(bytes32,uint256)": "infinite",
				"transferToInitiator(bytes32,uint256)": "infinite",
				"withdraw(address,uint256)": "infinite",
				"withdrawRejectSidedDeal(bytes32)": "infinite"
			}
		},
		"methodIdentifiers": {
			"addDepositByCounterparty(bytes32,uint256)": "c99b8965",
			"addDepositByInitiator(bytes32,uint256)": "b4a99ccb",
			"balanceOf(address)": "70a08231",
			"balanceOf(address,address)": "f7888aec",
			"balances(address,address)": "c23f001f",
			"cancelDeal(bytes32)": "faa86b4a",
			"commissionRecipient()": "06fd154a",
			"completeDeal(bytes32)": "51b7d535",
			"contractEnabled()": "41b3a0d9",
			"counterpartyAcceptSidedDeal(bytes32)": "4187129c",
			"createDeal(address,address,uint256,uint256,address,uint256,uint8)": "17b52b50",
			"createDealEditExpiration(bytes32)": "c6006993",
			"createSidedDeal(address,address,uint256,uint256,uint256,uint256,address,address,uint256,uint8)": "007e8bd3",
			"deals(bytes32)": "81cd872a",
			"dealsByCounterparty(address,uint256)": "442239c9",
			"dealsByInitiator(address,uint256)": "b0eaa1f6",
			"dealsByMediator(address,uint256)": "19e9bfc8",
			"deposit(address,uint256)": "47e7ef24",
			"depositCommissionPercent()": "899a3ffd",
			"disableContract()": "894ba833",
			"enableContract()": "367edd32",
			"executeActionsAfterExpiration(bytes32)": "706b14f5",
			"getCompletedDeals()": "ed50ab8a",
			"getDeal(bytes32)": "51a6fad5",
			"getDealsByCounterparty(address)": "3b063aa0",
			"getDealsByInitiator(address)": "723a3816",
			"getDealsByMediator(address)": "5bd447ac",
			"getTotalDeals()": "5379719b",
			"givebackToConunterparty(bytes32,uint256)": "114aeacc",
			"givebackToInitiator(bytes32,uint256)": "5040125b",
			"madeDealTwoSided(bytes32,address,uint256,uint256)": "63adb66f",
			"owner()": "8da5cb5b",
			"payUpCounterpartyAcceptSidedDeal(bytes32)": "bb06c1a4",
			"payUpCreateDeal(address,address,uint256,uint256,address,uint256,uint8)": "28d5a050",
			"payUpCreateSidedDeal(address,address,uint256,uint256,uint256,uint256,address,address,uint256,uint8)": "cfadf6c7",
			"payUpMadeDealTwoSided(bytes32,address,uint256,uint256)": "0934da22",
			"rejectSidedDeal(bytes32)": "8deea5fb",
			"renounceOwnership()": "715018a6",
			"setDepositCommission(uint256,address)": "15f8a314",
			"totalCompletedDeals()": "e08560a4",
			"totalDeals()": "966d1f1d",
			"transfer(address,address,uint256)": "beabacc8",
			"transferOwnership(address)": "f2fde38b",
			"transferToCounterparty(bytes32,uint256)": "3f3e8212",
			"transferToInitiator(bytes32,uint256)": "7165e542",
			"withdraw(address,uint256)": "f3fef3a3",
			"withdrawRejectSidedDeal(bytes32)": "80ccb070"
		}
	},
	"abi": [
		{
			"inputs": [
				{
					"internalType": "uint256",
					"name": "_depositCommissionPercent",
					"type": "uint256"
				},
				{
					"internalType": "address",
					"name": "_commissionRecipient",
					"type": "address"
				}
			],
			"stateMutability": "nonpayable",
			"type": "constructor"
		},
		{
			"inputs": [
				{
					"internalType": "address",
					"name": "owner",
					"type": "address"
				}
			],
			"name": "OwnableInvalidOwner",
			"type": "error"
		},
		{
			"inputs": [
				{
					"internalType": "address",
					"name": "account",
					"type": "address"
				}
			],
			"name": "OwnableUnauthorizedAccount",
			"type": "error"
		},
		{
			"anonymous": false,
			"inputs": [
				{
					"indexed": true,
					"internalType": "bytes32",
					"name": "dealHash",
					"type": "bytes32"
				},
				{
					"indexed": true,
					"internalType": "address",
					"name": "initiator",
					"type": "address"
				},
				{
					"indexed": true,
					"internalType": "address",
					"name": "counterparty",
					"type": "address"
				},
				{
					"indexed": false,
					"internalType": "address",
					"name": "mediator",
					"type": "address"
				},
				{
					"indexed": false,
					"internalType": "uint256",
					"name": "amount",
					"type": "uint256"
				}
			],
			"name": "AddDepositByCounterparty",
			"type": "event"
		},
		{
			"anonymous": false,
			"inputs": [
				{
					"indexed": true,
					"internalType": "bytes32",
					"name": "dealHash",
					"type": "bytes32"
				},
				{
					"indexed": true,
					"internalType": "address",
					"name": "initiator",
					"type": "address"
				},
				{
					"indexed": true,
					"internalType": "address",
					"name": "counterparty",
					"type": "address"
				},
				{
					"indexed": false,
					"internalType": "address",
					"name": "mediator",
					"type": "address"
				},
				{
					"indexed": false,
					"internalType": "uint256",
					"name": "amount",
					"type": "uint256"
				}
			],
			"name": "AddDepositByInitiator",
			"type": "event"
		},
		{
			"anonymous": false,
			"inputs": [
				{
					"indexed": false,
					"internalType": "uint256",
					"name": "newCommissionPercent",
					"type": "uint256"
				},
				{
					"indexed": false,
					"internalType": "address",
					"name": "newCommissionRecipient",
					"type": "address"
				}
			],
			"name": "CommissionChanged",
			"type": "event"
		},
		{
			"anonymous": false,
			"inputs": [
				{
					"indexed": true,
					"internalType": "address",
					"name": "by",
					"type": "address"
				}
			],
			"name": "ContractDisabled",
			"type": "event"
		},
		{
			"anonymous": false,
			"inputs": [
				{
					"indexed": true,
					"internalType": "address",
					"name": "by",
					"type": "address"
				}
			],
			"name": "ContractEnabled",
			"type": "event"
		},
		{
			"anonymous": false,
			"inputs": [
				{
					"indexed": false,
					"internalType": "bool",
					"name": "status",
					"type": "bool"
				}
			],
			"name": "ContractStatusChanged",
			"type": "event"
		},
		{
			"anonymous": false,
			"inputs": [
				{
					"indexed": true,
					"internalType": "bytes32",
					"name": "dealHash",
					"type": "bytes32"
				},
				{
					"indexed": true,
					"internalType": "address",
					"name": "initiator",
					"type": "address"
				},
				{
					"indexed": true,
					"internalType": "address",
					"name": "counterparty",
					"type": "address"
				},
				{
					"indexed": false,
					"internalType": "address",
					"name": "mediator",
					"type": "address"
				}
			],
			"name": "DealBecomeTwoSided",
			"type": "event"
		},
		{
			"anonymous": false,
			"inputs": [
				{
					"indexed": true,
					"internalType": "bytes32",
					"name": "dealHash",
					"type": "bytes32"
				},
				{
					"indexed": true,
					"internalType": "address",
					"name": "initiator",
					"type": "address"
				},
				{
					"indexed": true,
					"internalType": "address",
					"name": "counterparty",
					"type": "address"
				},
				{
					"indexed": false,
					"internalType": "address",
					"name": "sender",
					"type": "address"
				},
				{
					"indexed": false,
					"internalType": "address",
					"name": "mediator",
					"type": "address"
				}
			],
			"name": "DealCanceled",
			"type": "event"
		},
		{
			"anonymous": false,
			"inputs": [
				{
					"indexed": true,
					"internalType": "bytes32",
					"name": "dealHash",
					"type": "bytes32"
				},
				{
					"indexed": true,
					"internalType": "address",
					"name": "initiator",
					"type": "address"
				},
				{
					"indexed": true,
					"internalType": "address",
					"name": "counterparty",
					"type": "address"
				},
				{
					"indexed": false,
					"internalType": "address",
					"name": "sender",
					"type": "address"
				},
				{
					"indexed": false,
					"internalType": "address",
					"name": "mediator",
					"type": "address"
				}
			],
			"name": "DealCompited",
			"type": "event"
		},
		{
			"anonymous": false,
			"inputs": [
				{
					"indexed": true,
					"internalType": "bytes32",
					"name": "dealHash",
					"type": "bytes32"
				},
				{
					"indexed": true,
					"internalType": "address",
					"name": "initiator",
					"type": "address"
				},
				{
					"indexed": true,
					"internalType": "address",
					"name": "counterparty",
					"type": "address"
				},
				{
					"indexed": false,
					"internalType": "address",
					"name": "mediator",
					"type": "address"
				}
			],
			"name": "DealCreated",
			"type": "event"
		},
		{
			"anonymous": false,
			"inputs": [
				{
					"indexed": true,
					"internalType": "bytes32",
					"name": "dealHash",
					"type": "bytes32"
				},
				{
					"indexed": true,
					"internalType": "address",
					"name": "initiator",
					"type": "address"
				},
				{
					"indexed": true,
					"internalType": "address",
					"name": "counterparty",
					"type": "address"
				},
				{
					"indexed": false,
					"internalType": "address",
					"name": "mediator",
					"type": "address"
				}
			],
			"name": "DealRequestCreated",
			"type": "event"
		},
		{
			"anonymous": false,
			"inputs": [
				{
					"indexed": true,
					"internalType": "address",
					"name": "user",
					"type": "address"
				},
				{
					"indexed": false,
					"internalType": "uint256",
					"name": "amount",
					"type": "uint256"
				},
				{
					"indexed": false,
					"internalType": "uint256",
					"name": "commission",
					"type": "uint256"
				},
				{
					"indexed": false,
					"internalType": "address",
					"name": "token",
					"type": "address"
				}
			],
			"name": "Deposit",
			"type": "event"
		},
		{
			"anonymous": false,
			"inputs": [
				{
					"indexed": true,
					"internalType": "bytes32",
					"name": "dealHash",
					"type": "bytes32"
				},
				{
					"indexed": true,
					"internalType": "address",
					"name": "initiator",
					"type": "address"
				},
				{
					"indexed": true,
					"internalType": "address",
					"name": "counterparty",
					"type": "address"
				},
				{
					"indexed": false,
					"internalType": "address",
					"name": "mediator",
					"type": "address"
				},
				{
					"indexed": false,
					"internalType": "address",
					"name": "sender",
					"type": "address"
				},
				{
					"indexed": false,
					"internalType": "uint256",
					"name": "amount",
					"type": "uint256"
				},
				{
					"indexed": false,
					"internalType": "uint256",
					"name": "fee",
					"type": "uint256"
				}
			],
			"name": "GivebackToCounterparty",
			"type": "event"
		},
		{
			"anonymous": false,
			"inputs": [
				{
					"indexed": true,
					"internalType": "bytes32",
					"name": "dealHash",
					"type": "bytes32"
				},
				{
					"indexed": true,
					"internalType": "address",
					"name": "initiator",
					"type": "address"
				},
				{
					"indexed": true,
					"internalType": "address",
					"name": "counterparty",
					"type": "address"
				},
				{
					"indexed": false,
					"internalType": "address",
					"name": "mediator",
					"type": "address"
				},
				{
					"indexed": false,
					"internalType": "address",
					"name": "sender",
					"type": "address"
				},
				{
					"indexed": false,
					"internalType": "uint256",
					"name": "amount",
					"type": "uint256"
				},
				{
					"indexed": false,
					"internalType": "uint256",
					"name": "fee",
					"type": "uint256"
				}
			],
			"name": "GivebackToInitiator",
			"type": "event"
		},
		{
			"anonymous": false,
			"inputs": [
				{
					"indexed": true,
					"internalType": "address",
					"name": "previousOwner",
					"type": "address"
				},
				{
					"indexed": true,
					"internalType": "address",
					"name": "newOwner",
					"type": "address"
				}
			],
			"name": "OwnershipTransferred",
			"type": "event"
		},
		{
			"anonymous": false,
			"inputs": [
				{
					"indexed": true,
					"internalType": "address",
					"name": "from",
					"type": "address"
				},
				{
					"indexed": true,
					"internalType": "address",
					"name": "to",
					"type": "address"
				},
				{
					"indexed": false,
					"internalType": "uint256",
					"name": "value",
					"type": "uint256"
				}
			],
			"name": "Transfer",
			"type": "event"
		},
		{
			"anonymous": false,
			"inputs": [
				{
					"indexed": true,
					"internalType": "bytes32",
					"name": "dealHash",
					"type": "bytes32"
				},
				{
					"indexed": true,
					"internalType": "address",
					"name": "initiator",
					"type": "address"
				},
				{
					"indexed": true,
					"internalType": "address",
					"name": "counterparty",
					"type": "address"
				},
				{
					"indexed": false,
					"internalType": "address",
					"name": "mediator",
					"type": "address"
				},
				{
					"indexed": false,
					"internalType": "address",
					"name": "sender",
					"type": "address"
				},
				{
					"indexed": false,
					"internalType": "uint256",
					"name": "amount",
					"type": "uint256"
				},
				{
					"indexed": false,
					"internalType": "uint256",
					"name": "fee",
					"type": "uint256"
				}
			],
			"name": "TransferToCounterparty",
			"type": "event"
		},
		{
			"anonymous": false,
			"inputs": [
				{
					"indexed": true,
					"internalType": "bytes32",
					"name": "dealHash",
					"type": "bytes32"
				},
				{
					"indexed": true,
					"internalType": "address",
					"name": "initiator",
					"type": "address"
				},
				{
					"indexed": true,
					"internalType": "address",
					"name": "counterparty",
					"type": "address"
				},
				{
					"indexed": false,
					"internalType": "address",
					"name": "mediator",
					"type": "address"
				},
				{
					"indexed": false,
					"internalType": "address",
					"name": "sender",
					"type": "address"
				},
				{
					"indexed": false,
					"internalType": "address",
					"name": "target",
					"type": "address"
				},
				{
					"indexed": false,
					"internalType": "uint256",
					"name": "amountInitiator",
					"type": "uint256"
				},
				{
					"indexed": false,
					"internalType": "uint256",
					"name": "amountCounterparty",
					"type": "uint256"
				},
				{
					"indexed": false,
					"internalType": "uint256",
					"name": "feeInitiator",
					"type": "uint256"
				},
				{
					"indexed": false,
					"internalType": "uint256",
					"name": "feeCounterparty",
					"type": "uint256"
				}
			],
			"name": "TransferToFromDeal",
			"type": "event"
		},
		{
			"anonymous": false,
			"inputs": [
				{
					"indexed": true,
					"internalType": "bytes32",
					"name": "dealHash",
					"type": "bytes32"
				},
				{
					"indexed": true,
					"internalType": "address",
					"name": "initiator",
					"type": "address"
				},
				{
					"indexed": true,
					"internalType": "address",
					"name": "counterparty",
					"type": "address"
				},
				{
					"indexed": false,
					"internalType": "address",
					"name": "mediator",
					"type": "address"
				},
				{
					"indexed": false,
					"internalType": "address",
					"name": "sender",
					"type": "address"
				},
				{
					"indexed": false,
					"internalType": "uint256",
					"name": "amount",
					"type": "uint256"
				},
				{
					"indexed": false,
					"internalType": "uint256",
					"name": "fee",
					"type": "uint256"
				}
			],
			"name": "TransferToInitiator",
			"type": "event"
		},
		{
			"anonymous": false,
			"inputs": [
				{
					"indexed": true,
					"internalType": "address",
					"name": "user",
					"type": "address"
				},
				{
					"indexed": false,
					"internalType": "uint256",
					"name": "amount",
					"type": "uint256"
				},
				{
					"indexed": false,
					"internalType": "address",
					"name": "token",
					"type": "address"
				}
			],
			"name": "Withdrawal",
			"type": "event"
		},
		{
			"inputs": [
				{
					"internalType": "bytes32",
					"name": "dealId",
					"type": "bytes32"
				},
				{
					"internalType": "uint256",
					"name": "amount",
					"type": "uint256"
				}
			],
			"name": "addDepositByCounterparty",
			"outputs": [
				{
					"internalType": "bool",
					"name": "",
					"type": "bool"
				}
			],
			"stateMutability": "nonpayable",
			"type": "function"
		},
		{
			"inputs": [
				{
					"internalType": "bytes32",
					"name": "dealId",
					"type": "bytes32"
				},
				{
					"internalType": "uint256",
					"name": "amount",
					"type": "uint256"
				}
			],
			"name": "addDepositByInitiator",
			"outputs": [
				{
					"internalType": "bool",
					"name": "",
					"type": "bool"
				}
			],
			"stateMutability": "payable",
			"type": "function"
		},
		{
			"inputs": [
				{
					"internalType": "address",
					"name": "user",
					"type": "address"
				}
			],
			"name": "balanceOf",
			"outputs": [
				{
					"internalType": "uint256",
					"name": "",
					"type": "uint256"
				}
			],
			"stateMutability": "view",
			"type": "function"
		},
		{
			"inputs": [
				{
					"internalType": "address",
					"name": "user",
					"type": "address"
				},
				{
					"internalType": "address",
					"name": "token",
					"type": "address"
				}
			],
			"name": "balanceOf",
			"outputs": [
				{
					"internalType": "uint256",
					"name": "",
					"type": "uint256"
				}
			],
			"stateMutability": "view",
			"type": "function"
		},
		{
			"inputs": [
				{
					"internalType": "address",
					"name": "",
					"type": "address"
				},
				{
					"internalType": "address",
					"name": "",
					"type": "address"
				}
			],
			"name": "balances",
			"outputs": [
				{
					"internalType": "uint256",
					"name": "",
					"type": "uint256"
				}
			],
			"stateMutability": "view",
			"type": "function"
		},
		{
			"inputs": [
				{
					"internalType": "bytes32",
					"name": "dealId",
					"type": "bytes32"
				}
			],
			"name": "cancelDeal",
			"outputs": [
				{
					"internalType": "bool",
					"name": "",
					"type": "bool"
				}
			],
			"stateMutability": "nonpayable",
			"type": "function"
		},
		{
			"inputs": [],
			"name": "commissionRecipient",
			"outputs": [
				{
					"internalType": "address",
					"name": "",
					"type": "address"
				}
			],
			"stateMutability": "view",
			"type": "function"
		},
		{
			"inputs": [
				{
					"internalType": "bytes32",
					"name": "dealId",
					"type": "bytes32"
				}
			],
			"name": "completeDeal",
			"outputs": [
				{
					"internalType": "bool",
					"name": "",
					"type": "bool"
				}
			],
			"stateMutability": "nonpayable",
			"type": "function"
		},
		{
			"inputs": [],
			"name": "contractEnabled",
			"outputs": [
				{
					"internalType": "bool",
					"name": "",
					"type": "bool"
				}
			],
			"stateMutability": "view",
			"type": "function"
		},
		{
			"inputs": [
				{
					"internalType": "bytes32",
					"name": "dealId",
					"type": "bytes32"
				}
			],
			"name": "counterpartyAcceptSidedDeal",
			"outputs": [
				{
					"internalType": "bool",
					"name": "",
					"type": "bool"
				}
			],
			"stateMutability": "nonpayable",
			"type": "function"
		},
		{
			"inputs": [
				{
					"internalType": "address payable",
					"name": "_counterparty",
					"type": "address"
				},
				{
					"internalType": "address payable",
					"name": "_mediator",
					"type": "address"
				},
				{
					"internalType": "uint256",
					"name": "_amount",
					"type": "uint256"
				},
				{
					"internalType": "uint256",
					"name": "_PRC_MediatorFee",
					"type": "uint256"
				},
				{
					"internalType": "address",
					"name": "_tokenAddress",
					"type": "address"
				},
				{
					"internalType": "uint256",
					"name": "_expirationDate",
					"type": "uint256"
				},
				{
					"internalType": "enum MediatorAction",
					"name": "_mediatorActionOnExpiration",
					"type": "uint8"
				}
			],
			"name": "createDeal",
			"outputs": [
				{
					"internalType": "bytes32",
					"name": "",
					"type": "bytes32"
				}
			],
			"stateMutability": "nonpayable",
			"type": "function"
		},
		{
			"inputs": [
				{
					"internalType": "bytes32",
					"name": "dealId",
					"type": "bytes32"
				}
			],
			"name": "createDealEditExpiration",
			"outputs": [
				{
					"internalType": "uint256",
					"name": "",
					"type": "uint256"
				}
			],
			"stateMutability": "payable",
			"type": "function"
		},
		{
			"inputs": [
				{
					"internalType": "address payable",
					"name": "_counterparty",
					"type": "address"
				},
				{
					"internalType": "address payable",
					"name": "_mediator",
					"type": "address"
				},
				{
					"internalType": "uint256",
					"name": "_initiatorCreateAmount",
					"type": "uint256"
				},
				{
					"internalType": "uint256",
					"name": "_counterpartyCreateAmount",
					"type": "uint256"
				},
				{
					"internalType": "uint256",
					"name": "_PRC_MediatorFeeInititor",
					"type": "uint256"
				},
				{
					"internalType": "uint256",
					"name": "_PRC_MediatorFeeCounterparty",
					"type": "uint256"
				},
				{
					"internalType": "address",
					"name": "_initiatorTokenAddress",
					"type": "address"
				},
				{
					"internalType": "address",
					"name": "_counterpartyTokenAddress",
					"type": "address"
				},
				{
					"internalType": "uint256",
					"name": "_expirationDate",
					"type": "uint256"
				},
				{
					"internalType": "enum MediatorAction",
					"name": "_mediatorActionOnExpiration",
					"type": "uint8"
				}
			],
			"name": "createSidedDeal",
			"outputs": [
				{
					"internalType": "bytes32",
					"name": "",
					"type": "bytes32"
				}
			],
			"stateMutability": "nonpayable",
			"type": "function"
		},
		{
			"inputs": [
				{
					"internalType": "bytes32",
					"name": "",
					"type": "bytes32"
				}
			],
			"name": "deals",
			"outputs": [
				{
					"internalType": "address payable",
					"name": "initiator",
					"type": "address"
				},
				{
					"internalType": "address payable",
					"name": "counterparty",
					"type": "address"
				},
				{
					"internalType": "address payable",
					"name": "mediator",
					"type": "address"
				},
				{
					"internalType": "bool",
					"name": "isCompleted",
					"type": "bool"
				},
				{
					"internalType": "bool",
					"name": "isCanceled",
					"type": "bool"
				},
				{
					"internalType": "bool",
					"name": "isTwoSided",
					"type": "bool"
				},
				{
					"internalType": "bool",
					"name": "isSignedByCounterparty",
					"type": "bool"
				},
				{
					"internalType": "uint256",
					"name": "initiatorCreateAmount",
					"type": "uint256"
				},
				{
					"internalType": "uint256",
					"name": "counterpartyCreateAmount",
					"type": "uint256"
				},
				{
					"internalType": "uint256",
					"name": "initiatorCurrentAmount",
					"type": "uint256"
				},
				{
					"internalType": "uint256",
					"name": "counterpartyCurrentAmount",
					"type": "uint256"
				},
				{
					"internalType": "uint256",
					"name": "PRC_InitatorMediatorFee",
					"type": "uint256"
				},
				{
					"internalType": "uint256",
					"name": "PRC_CounterpartyMediatorFee",
					"type": "uint256"
				},
				{
					"internalType": "address",
					"name": "initiatorTokenAddress",
					"type": "address"
				},
				{
					"internalType": "address",
					"name": "counterpartyTokenAddress",
					"type": "address"
				},
				{
					"internalType": "uint256",
					"name": "expirationDate",
					"type": "uint256"
				},
				{
					"internalType": "enum MediatorAction",
					"name": "mediatorActionOnExpiration",
					"type": "uint8"
				}
			],
			"stateMutability": "view",
			"type": "function"
		},
		{
			"inputs": [
				{
					"internalType": "address",
					"name": "",
					"type": "address"
				},
				{
					"internalType": "uint256",
					"name": "",
					"type": "uint256"
				}
			],
			"name": "dealsByCounterparty",
			"outputs": [
				{
					"internalType": "bytes32",
					"name": "",
					"type": "bytes32"
				}
			],
			"stateMutability": "view",
			"type": "function"
		},
		{
			"inputs": [
				{
					"internalType": "address",
					"name": "",
					"type": "address"
				},
				{
					"internalType": "uint256",
					"name": "",
					"type": "uint256"
				}
			],
			"name": "dealsByInitiator",
			"outputs": [
				{
					"internalType": "bytes32",
					"name": "",
					"type": "bytes32"
				}
			],
			"stateMutability": "view",
			"type": "function"
		},
		{
			"inputs": [
				{
					"internalType": "address",
					"name": "",
					"type": "address"
				},
				{
					"internalType": "uint256",
					"name": "",
					"type": "uint256"
				}
			],
			"name": "dealsByMediator",
			"outputs": [
				{
					"internalType": "bytes32",
					"name": "",
					"type": "bytes32"
				}
			],
			"stateMutability": "view",
			"type": "function"
		},
		{
			"inputs": [
				{
					"internalType": "address",
					"name": "token",
					"type": "address"
				},
				{
					"internalType": "uint256",
					"name": "amount",
					"type": "uint256"
				}
			],
			"name": "deposit",
			"outputs": [],
			"stateMutability": "payable",
			"type": "function"
		},
		{
			"inputs": [],
			"name": "depositCommissionPercent",
			"outputs": [
				{
					"internalType": "uint256",
					"name": "",
					"type": "uint256"
				}
			],
			"stateMutability": "view",
			"type": "function"
		},
		{
			"inputs": [],
			"name": "disableContract",
			"outputs": [],
			"stateMutability": "nonpayable",
			"type": "function"
		},
		{
			"inputs": [],
			"name": "enableContract",
			"outputs": [],
			"stateMutability": "nonpayable",
			"type": "function"
		},
		{
			"inputs": [
				{
					"internalType": "bytes32",
					"name": "dealId",
					"type": "bytes32"
				}
			],
			"name": "executeActionsAfterExpiration",
			"outputs": [
				{
					"internalType": "bool",
					"name": "",
					"type": "bool"
				}
			],
			"stateMutability": "nonpayable",
			"type": "function"
		},
		{
			"inputs": [],
			"name": "getCompletedDeals",
			"outputs": [
				{
					"internalType": "uint256",
					"name": "",
					"type": "uint256"
				}
			],
			"stateMutability": "view",
			"type": "function"
		},
		{
			"inputs": [
				{
					"internalType": "bytes32",
					"name": "dealId",
					"type": "bytes32"
				}
			],
			"name": "getDeal",
			"outputs": [
				{
					"components": [
						{
							"internalType": "address payable",
							"name": "initiator",
							"type": "address"
						},
						{
							"internalType": "address payable",
							"name": "counterparty",
							"type": "address"
						},
						{
							"internalType": "address payable",
							"name": "mediator",
							"type": "address"
						},
						{
							"internalType": "bool",
							"name": "isCompleted",
							"type": "bool"
						},
						{
							"internalType": "bool",
							"name": "isCanceled",
							"type": "bool"
						},
						{
							"internalType": "bool",
							"name": "isTwoSided",
							"type": "bool"
						},
						{
							"internalType": "bool",
							"name": "isSignedByCounterparty",
							"type": "bool"
						},
						{
							"internalType": "uint256",
							"name": "initiatorCreateAmount",
							"type": "uint256"
						},
						{
							"internalType": "uint256",
							"name": "counterpartyCreateAmount",
							"type": "uint256"
						},
						{
							"internalType": "uint256",
							"name": "initiatorCurrentAmount",
							"type": "uint256"
						},
						{
							"internalType": "uint256",
							"name": "counterpartyCurrentAmount",
							"type": "uint256"
						},
						{
							"internalType": "uint256",
							"name": "PRC_InitatorMediatorFee",
							"type": "uint256"
						},
						{
							"internalType": "uint256",
							"name": "PRC_CounterpartyMediatorFee",
							"type": "uint256"
						},
						{
							"internalType": "address",
							"name": "initiatorTokenAddress",
							"type": "address"
						},
						{
							"internalType": "address",
							"name": "counterpartyTokenAddress",
							"type": "address"
						},
						{
							"internalType": "uint256",
							"name": "expirationDate",
							"type": "uint256"
						},
						{
							"internalType": "enum MediatorAction",
							"name": "mediatorActionOnExpiration",
							"type": "uint8"
						}
					],
					"internalType": "struct Deal",
					"name": "",
					"type": "tuple"
				}
			],
			"stateMutability": "view",
			"type": "function"
		},
		{
			"inputs": [
				{
					"internalType": "address",
					"name": "user",
					"type": "address"
				}
			],
			"name": "getDealsByCounterparty",
			"outputs": [
				{
					"internalType": "bytes32[]",
					"name": "",
					"type": "bytes32[]"
				}
			],
			"stateMutability": "view",
			"type": "function"
		},
		{
			"inputs": [
				{
					"internalType": "address",
					"name": "user",
					"type": "address"
				}
			],
			"name": "getDealsByInitiator",
			"outputs": [
				{
					"internalType": "bytes32[]",
					"name": "",
					"type": "bytes32[]"
				}
			],
			"stateMutability": "view",
			"type": "function"
		},
		{
			"inputs": [
				{
					"internalType": "address",
					"name": "user",
					"type": "address"
				}
			],
			"name": "getDealsByMediator",
			"outputs": [
				{
					"internalType": "bytes32[]",
					"name": "",
					"type": "bytes32[]"
				}
			],
			"stateMutability": "view",
			"type": "function"
		},
		{
			"inputs": [],
			"name": "getTotalDeals",
			"outputs": [
				{
					"internalType": "uint256",
					"name": "",
					"type": "uint256"
				}
			],
			"stateMutability": "view",
			"type": "function"
		},
		{
			"inputs": [
				{
					"internalType": "bytes32",
					"name": "dealId",
					"type": "bytes32"
				},
				{
					"internalType": "uint256",
					"name": "amount",
					"type": "uint256"
				}
			],
			"name": "givebackToConunterparty",
			"outputs": [
				{
					"internalType": "bool",
					"name": "",
					"type": "bool"
				}
			],
			"stateMutability": "nonpayable",
			"type": "function"
		},
		{
			"inputs": [
				{
					"internalType": "bytes32",
					"name": "dealId",
					"type": "bytes32"
				},
				{
					"internalType": "uint256",
					"name": "amount",
					"type": "uint256"
				}
			],
			"name": "givebackToInitiator",
			"outputs": [
				{
					"internalType": "bool",
					"name": "",
					"type": "bool"
				}
			],
			"stateMutability": "nonpayable",
			"type": "function"
		},
		{
			"inputs": [
				{
					"internalType": "bytes32",
					"name": "dealId",
					"type": "bytes32"
				},
				{
					"internalType": "address",
					"name": "tokenAdress",
					"type": "address"
				},
				{
					"internalType": "uint256",
					"name": "amount",
					"type": "uint256"
				},
				{
					"internalType": "uint256",
					"name": "PRC_mediatorFee",
					"type": "uint256"
				}
			],
			"name": "madeDealTwoSided",
			"outputs": [
				{
					"internalType": "bool",
					"name": "",
					"type": "bool"
				}
			],
			"stateMutability": "nonpayable",
			"type": "function"
		},
		{
			"inputs": [],
			"name": "owner",
			"outputs": [
				{
					"internalType": "address",
					"name": "",
					"type": "address"
				}
			],
			"stateMutability": "view",
			"type": "function"
		},
		{
			"inputs": [
				{
					"internalType": "bytes32",
					"name": "dealId",
					"type": "bytes32"
				}
			],
			"name": "payUpCounterpartyAcceptSidedDeal",
			"outputs": [
				{
					"internalType": "bool",
					"name": "",
					"type": "bool"
				}
			],
			"stateMutability": "payable",
			"type": "function"
		},
		{
			"inputs": [
				{
					"internalType": "address payable",
					"name": "_counterparty",
					"type": "address"
				},
				{
					"internalType": "address payable",
					"name": "_mediator",
					"type": "address"
				},
				{
					"internalType": "uint256",
					"name": "_amount",
					"type": "uint256"
				},
				{
					"internalType": "uint256",
					"name": "_PRC_MediatorFee",
					"type": "uint256"
				},
				{
					"internalType": "address",
					"name": "_tokenAddress",
					"type": "address"
				},
				{
					"internalType": "uint256",
					"name": "_expirationDate",
					"type": "uint256"
				},
				{
					"internalType": "enum MediatorAction",
					"name": "_mediatorActionOnExpiration",
					"type": "uint8"
				}
			],
			"name": "payUpCreateDeal",
			"outputs": [
				{
					"internalType": "bytes32",
					"name": "",
					"type": "bytes32"
				}
			],
			"stateMutability": "payable",
			"type": "function"
		},
		{
			"inputs": [
				{
					"internalType": "address payable",
					"name": "_counterparty",
					"type": "address"
				},
				{
					"internalType": "address payable",
					"name": "_mediator",
					"type": "address"
				},
				{
					"internalType": "uint256",
					"name": "_initiatorCreateAmount",
					"type": "uint256"
				},
				{
					"internalType": "uint256",
					"name": "_counterpartyCreateAmount",
					"type": "uint256"
				},
				{
					"internalType": "uint256",
					"name": "_PRC_MediatorFeeInititor",
					"type": "uint256"
				},
				{
					"internalType": "uint256",
					"name": "_PRC_MediatorFeeCounterparty",
					"type": "uint256"
				},
				{
					"internalType": "address",
					"name": "_initiatorTokenAddress",
					"type": "address"
				},
				{
					"internalType": "address",
					"name": "_counterpartyTokenAddress",
					"type": "address"
				},
				{
					"internalType": "uint256",
					"name": "_expirationDate",
					"type": "uint256"
				},
				{
					"internalType": "enum MediatorAction",
					"name": "_mediatorActionOnExpiration",
					"type": "uint8"
				}
			],
			"name": "payUpCreateSidedDeal",
			"outputs": [
				{
					"internalType": "bytes32",
					"name": "",
					"type": "bytes32"
				}
			],
			"stateMutability": "payable",
			"type": "function"
		},
		{
			"inputs": [
				{
					"internalType": "bytes32",
					"name": "dealId",
					"type": "bytes32"
				},
				{
					"internalType": "address",
					"name": "tokenAdress",
					"type": "address"
				},
				{
					"internalType": "uint256",
					"name": "amount",
					"type": "uint256"
				},
				{
					"internalType": "uint256",
					"name": "PRC_mediatorFee",
					"type": "uint256"
				}
			],
			"name": "payUpMadeDealTwoSided",
			"outputs": [
				{
					"internalType": "bool",
					"name": "",
					"type": "bool"
				}
			],
			"stateMutability": "payable",
			"type": "function"
		},
		{
			"inputs": [
				{
					"internalType": "bytes32",
					"name": "dealId",
					"type": "bytes32"
				}
			],
			"name": "rejectSidedDeal",
			"outputs": [
				{
					"internalType": "bool",
					"name": "",
					"type": "bool"
				}
			],
			"stateMutability": "nonpayable",
			"type": "function"
		},
		{
			"inputs": [],
			"name": "renounceOwnership",
			"outputs": [],
			"stateMutability": "nonpayable",
			"type": "function"
		},
		{
			"inputs": [
				{
					"internalType": "uint256",
					"name": "newCommissionPercent",
					"type": "uint256"
				},
				{
					"internalType": "address",
					"name": "newRecipient",
					"type": "address"
				}
			],
			"name": "setDepositCommission",
			"outputs": [],
			"stateMutability": "nonpayable",
			"type": "function"
		},
		{
			"inputs": [],
			"name": "totalCompletedDeals",
			"outputs": [
				{
					"internalType": "uint256",
					"name": "",
					"type": "uint256"
				}
			],
			"stateMutability": "view",
			"type": "function"
		},
		{
			"inputs": [],
			"name": "totalDeals",
			"outputs": [
				{
					"internalType": "uint256",
					"name": "",
					"type": "uint256"
				}
			],
			"stateMutability": "view",
			"type": "function"
		},
		{
			"inputs": [
				{
					"internalType": "address",
					"name": "to",
					"type": "address"
				},
				{
					"internalType": "address",
					"name": "token",
					"type": "address"
				},
				{
					"internalType": "uint256",
					"name": "amount",
					"type": "uint256"
				}
			],
			"name": "transfer",
			"outputs": [
				{
					"internalType": "bool",
					"name": "",
					"type": "bool"
				}
			],
			"stateMutability": "nonpayable",
			"type": "function"
		},
		{
			"inputs": [
				{
					"internalType": "address",
					"name": "newOwner",
					"type": "address"
				}
			],
			"name": "transferOwnership",
			"outputs": [],
			"stateMutability": "nonpayable",
			"type": "function"
		},
		{
			"inputs": [
				{
					"internalType": "bytes32",
					"name": "dealId",
					"type": "bytes32"
				},
				{
					"internalType": "uint256",
					"name": "amount",
					"type": "uint256"
				}
			],
			"name": "transferToCounterparty",
			"outputs": [
				{
					"internalType": "bool",
					"name": "",
					"type": "bool"
				}
			],
			"stateMutability": "nonpayable",
			"type": "function"
		},
		{
			"inputs": [
				{
					"internalType": "bytes32",
					"name": "dealId",
					"type": "bytes32"
				},
				{
					"internalType": "uint256",
					"name": "amount",
					"type": "uint256"
				}
			],
			"name": "transferToInitiator",
			"outputs": [
				{
					"internalType": "bool",
					"name": "",
					"type": "bool"
				}
			],
			"stateMutability": "nonpayable",
			"type": "function"
		},
		{
			"inputs": [
				{
					"internalType": "address",
					"name": "token",
					"type": "address"
				},
				{
					"internalType": "uint256",
					"name": "amount",
					"type": "uint256"
				}
			],
			"name": "withdraw",
			"outputs": [
				{
					"internalType": "bool",
					"name": "",
					"type": "bool"
				}
			],
			"stateMutability": "nonpayable",
			"type": "function"
		},
		{
			"inputs": [
				{
					"internalType": "bytes32",
					"name": "dealId",
					"type": "bytes32"
				}
			],
			"name": "withdrawRejectSidedDeal",
			"outputs": [
				{
					"internalType": "bool",
					"name": "",
					"type": "bool"
				}
			],
			"stateMutability": "nonpayable",
			"type": "function"
		}
	]
}