{
	"data": {
		"bytecode": {
			"linkReferences": {},
			"object": "60808060405234601957610afc908161001e823930815050f35b5f80fdfe60806040526004361015610011575f80fd5b5f3560e01c80634a550ce0146108675780634db5aafa14610852578063652e83d7146101da57806376563a41146101c05763797d4ee114610050575f80fd5b6102403660031901126101bc5761006636610964565b805160208201519160408101519060e081015161010082015161012083015161014084015161016085015190610180860151926101a0870151946101c0880151966102006101e08a01519901519960068b10156101a85760349c6040519d8e91602083019e8f906001600160601b03199060601b1690526001600160601b03199060601b169101526001600160601b03199060601b1660488d0152605c8c0152607c8b0152609c8a015260bc89015260dc88015260fc8701526001600160601b03199060601b1661011c8601526001600160601b03199060601b1661013085015261014484015260f81b610164830152426101658301526102243561018583015261018582526101c082019180831067ffffffffffffffff8411176101945760408390525190208152602090f35b634e487b7160e01b5f52604160045260245ffd5b634e487b7160e01b5f52602160045260245ffd5b5f80fd5b5f3660031901126101bc5760206040516402540be4008152f35b6101603660031901126101bc576004356001600160a01b038116908190036101bc576024356001600160a01b038116908190036101bc576044356001600160a01b03811691908290036101bc5760643560843560a43560c4359160e4359360018060a01b0385168095036101bc57610104356001600160a01b03811696908790036101bc57600661014435101597886101bc575f61020060405161027d81610947565b8281528260208201528260408201528260608201528260808201528260a08201528260c08201528260e08201528261010082015282610120820152826101408201528261016082015282610180820152826101a0820152826101c0820152826101e082015201526102ef8a1515610a95565b6102fa821515610a95565b610124351580159081610845575b156107f457610791575b8015610738575b8981146106f4578181146106a357818a14610652576402540be40085116105fa576402540be40086116105a257821561055357831591826104c8575b6040519a6103628c610947565b8b5260208b015260408a01525f60608a01525f60808a0152801560a08a015260c08901528060e0890152816101008901526101208801526101408701526101608601526101808501526101a08401526101c0830152610124356101e08301526101a857610144356102008201526102006040519160018060a01b03815116835260018060a01b03602082015116602084015260018060a01b03604082015116604084015260608101511515606084015260808101511515608084015260a0810151151560a084015260c0810151151560c084015260e081015160e084015261010081015161010084015261012081015161012084015261014081015161014084015261016081015161016084015261018081015161018084015260018060a01b036101a0820151166101a084015260018060a01b036101c0820151166101c08401526101e08101516101e084015201519060068210156101a85761022091610200820152f35b88158061054b575b6103555760a460405162461bcd60e51b815260206004820152604460248201527f53657420646f75626c652073696465207472616e73616374696f6e207061726160448201527f6d657465727320776974686f757420646f75626c6520736964652074726173636064820152633a34b7b760e11b6084820152fd5b5086156104d0565b60405162461bcd60e51b815260206004820152602160248201527f43616e7420637265617465206465616c2077697468207a65726f20616d6f756e6044820152601d60fa1b6064820152608490fd5b60405162461bcd60e51b815260206004820152602a60248201527f4d65646961746f72206665652070657263656e746167652063616e6e6f7420656044820152697863656564203130302560b01b6064820152608490fd5b60405162461bcd60e51b815260206004820152602a60248201527f436f6e7472616374206665652070657263656e746167652063616e6e6f7420656044820152697863656564203130302560b01b6064820152608490fd5b60405162461bcd60e51b8152602060048201526024808201527f496e69746961746f722063616e6e6f742062652074686520636f756e746572706044820152636172747960e01b6064820152608490fd5b60405162461bcd60e51b815260206004820152602360248201527f4d65646961746f722063616e6e6f742062652074686520636f756e746572706160448201526272747960e81b6064820152608490fd5b606460405162461bcd60e51b815260206004820152602060248201527f4d65646961746f722063616e6e6f742062652074686520696e69746961746f726044820152fd5b841580610789575b6103195760405162461bcd60e51b815260206004820152601b60248201527f4e756c6c206d65646961746f722063616e742074616b652066656500000000006044820152606490fd5b508515610740565b5f985060041961014435016103125760405162461bcd60e51b815260206004820152602660248201527f536f6d6520616374696f6e206d7573742062652075736564206f6e20657870696044820152653930ba34b7b760d11b6064820152608490fd5b60405162461bcd60e51b8152602060048201526024808201527f446174612063616e74206265206372656174656420616c7265616479206578706044820152631a5c995960e21b6064820152608490fd5b5042610124351115610308565b5f3660031901126101bc5760206040515f8152f35b6102203660031901126101bc5761087d36610964565b6101e0810151801590811561093d575b50156109135760c0810151156108e95760608101511590816108dc575b50156108b257005b60405162461bcd60e51b8152602060048201526002602482015261443360f01b6044820152606490fd5b60809150015115816108aa565b60405162461bcd60e51b8152602060048201526002602482015261221960f11b6044820152606490fd5b60405162461bcd60e51b8152602060048201526002602482015261443160f01b6044820152606490fd5b905042118261088d565b610220810190811067ffffffffffffffff82111761019457604052565b6102209060031901126101bc576040519061097e82610947565b816004356001600160a01b03811681036101bc5781526024356001600160a01b03811681036101bc5760208201526044356001600160a01b03811681036101bc57604082015260643580151581036101bc57606082015260843580151581036101bc57608082015260a43580151581036101bc5760a082015260c43580151581036101bc5760c082015260e43560e082015261010435610100820152610124356101208201526101443561014082015261016435610160820152610184356101808201526101a4356001600160a01b03811681036101bc576101a08201526101c4356001600160a01b03811681036101bc576101c08201526101e4356101e0820152610204359060068210156101bc576102000152565b15610a9c57565b60405162461bcd60e51b8152602060048201526002602482015261433160f01b6044820152606490fdfea264697066735822122010d1c561c9227d20cda6c5ee3f014d502f2388bfe8e1d322591ae3708d1a1c9f64736f6c634300081c0033",
			"opcodes": "PUSH1 0x80 DUP1 PUSH1 0x40 MSTORE CALLVALUE PUSH1 0x19 JUMPI PUSH2 0xAFC SWAP1 DUP2 PUSH2 0x1E DUP3 CODECOPY ADDRESS DUP2 POP POP RETURN JUMPDEST PUSH0 DUP1 REVERT INVALID PUSH1 0x80 PUSH1 0x40 MSTORE PUSH1 0x4 CALLDATASIZE LT ISZERO PUSH2 0x11 JUMPI PUSH0 DUP1 REVERT JUMPDEST PUSH0 CALLDATALOAD PUSH1 0xE0 SHR DUP1 PUSH4 0x4A550CE0 EQ PUSH2 0x867 JUMPI DUP1 PUSH4 0x4DB5AAFA EQ PUSH2 0x852 JUMPI DUP1 PUSH4 0x652E83D7 EQ PUSH2 0x1DA JUMPI DUP1 PUSH4 0x76563A41 EQ PUSH2 0x1C0 JUMPI PUSH4 0x797D4EE1 EQ PUSH2 0x50 JUMPI PUSH0 DUP1 REVERT JUMPDEST PUSH2 0x240 CALLDATASIZE PUSH1 0x3 NOT ADD SLT PUSH2 0x1BC JUMPI PUSH2 0x66 CALLDATASIZE PUSH2 0x964 JUMP JUMPDEST DUP1 MLOAD PUSH1 0x20 DUP3 ADD MLOAD SWAP2 PUSH1 0x40 DUP2 ADD MLOAD SWAP1 PUSH1 0xE0 DUP2 ADD MLOAD PUSH2 0x100 DUP3 ADD MLOAD PUSH2 0x120 DUP4 ADD MLOAD PUSH2 0x140 DUP5 ADD MLOAD PUSH2 0x160 DUP6 ADD MLOAD SWAP1 PUSH2 0x180 DUP7 ADD MLOAD SWAP3 PUSH2 0x1A0 DUP8 ADD MLOAD SWAP5 PUSH2 0x1C0 DUP9 ADD MLOAD SWAP7 PUSH2 0x200 PUSH2 0x1E0 DUP11 ADD MLOAD SWAP10 ADD MLOAD SWAP10 PUSH1 0x6 DUP12 LT ISZERO PUSH2 0x1A8 JUMPI PUSH1 0x34 SWAP13 PUSH1 0x40 MLOAD SWAP14 DUP15 SWAP2 PUSH1 0x20 DUP4 ADD SWAP15 DUP16 SWAP1 PUSH1 0x1 PUSH1 0x1 PUSH1 0x60 SHL SUB NOT SWAP1 PUSH1 0x60 SHL AND SWAP1 MSTORE PUSH1 0x1 PUSH1 0x1 PUSH1 0x60 SHL SUB NOT SWAP1 PUSH1 0x60 SHL AND SWAP2 ADD MSTORE PUSH1 0x1 PUSH1 0x1 PUSH1 0x60 SHL SUB NOT SWAP1 PUSH1 0x60 SHL AND PUSH1 0x48 DUP14 ADD MSTORE PUSH1 0x5C DUP13 ADD MSTORE PUSH1 0x7C DUP12 ADD MSTORE PUSH1 0x9C DUP11 ADD MSTORE PUSH1 0xBC DUP10 ADD MSTORE PUSH1 0xDC DUP9 ADD MSTORE PUSH1 0xFC DUP8 ADD MSTORE PUSH1 0x1 PUSH1 0x1 PUSH1 0x60 SHL SUB NOT SWAP1 PUSH1 0x60 SHL AND PUSH2 0x11C DUP7 ADD MSTORE PUSH1 0x1 PUSH1 0x1 PUSH1 0x60 SHL SUB NOT SWAP1 PUSH1 0x60 SHL AND PUSH2 0x130 DUP6 ADD MSTORE PUSH2 0x144 DUP5 ADD MSTORE PUSH1 0xF8 SHL PUSH2 0x164 DUP4 ADD MSTORE TIMESTAMP PUSH2 0x165 DUP4 ADD MSTORE PUSH2 0x224 CALLDATALOAD PUSH2 0x185 DUP4 ADD MSTORE PUSH2 0x185 DUP3 MSTORE PUSH2 0x1C0 DUP3 ADD SWAP2 DUP1 DUP4 LT PUSH8 0xFFFFFFFFFFFFFFFF DUP5 GT OR PUSH2 0x194 JUMPI PUSH1 0x40 DUP4 SWAP1 MSTORE MLOAD SWAP1 KECCAK256 DUP2 MSTORE PUSH1 0x20 SWAP1 RETURN JUMPDEST PUSH4 0x4E487B71 PUSH1 0xE0 SHL PUSH0 MSTORE PUSH1 0x41 PUSH1 0x4 MSTORE PUSH1 0x24 PUSH0 REVERT JUMPDEST PUSH4 0x4E487B71 PUSH1 0xE0 SHL PUSH0 MSTORE PUSH1 0x21 PUSH1 0x4 MSTORE PUSH1 0x24 PUSH0 REVERT JUMPDEST PUSH0 DUP1 REVERT JUMPDEST PUSH0 CALLDATASIZE PUSH1 0x3 NOT ADD SLT PUSH2 0x1BC JUMPI PUSH1 0x20 PUSH1 0x40 MLOAD PUSH5 0x2540BE400 DUP2 MSTORE RETURN JUMPDEST PUSH2 0x160 CALLDATASIZE PUSH1 0x3 NOT ADD SLT PUSH2 0x1BC JUMPI PUSH1 0x4 CALLDATALOAD PUSH1 0x1 PUSH1 0x1 PUSH1 0xA0 SHL SUB DUP2 AND SWAP1 DUP2 SWAP1 SUB PUSH2 0x1BC JUMPI PUSH1 0x24 CALLDATALOAD PUSH1 0x1 PUSH1 0x1 PUSH1 0xA0 SHL SUB DUP2 AND SWAP1 DUP2 SWAP1 SUB PUSH2 0x1BC JUMPI PUSH1 0x44 CALLDATALOAD PUSH1 0x1 PUSH1 0x1 PUSH1 0xA0 SHL SUB DUP2 AND SWAP2 SWAP1 DUP3 SWAP1 SUB PUSH2 0x1BC JUMPI PUSH1 0x64 CALLDATALOAD PUSH1 0x84 CALLDATALOAD PUSH1 0xA4 CALLDATALOAD PUSH1 0xC4 CALLDATALOAD SWAP2 PUSH1 0xE4 CALLDATALOAD SWAP4 PUSH1 0x1 DUP1 PUSH1 0xA0 SHL SUB DUP6 AND DUP1 SWAP6 SUB PUSH2 0x1BC JUMPI PUSH2 0x104 CALLDATALOAD PUSH1 0x1 PUSH1 0x1 PUSH1 0xA0 SHL SUB DUP2 AND SWAP7 SWAP1 DUP8 SWAP1 SUB PUSH2 0x1BC JUMPI PUSH1 0x6 PUSH2 0x144 CALLDATALOAD LT ISZERO SWAP8 DUP9 PUSH2 0x1BC JUMPI PUSH0 PUSH2 0x200 PUSH1 0x40 MLOAD PUSH2 0x27D DUP2 PUSH2 0x947 JUMP JUMPDEST DUP3 DUP2 MSTORE DUP3 PUSH1 0x20 DUP3 ADD MSTORE DUP3 PUSH1 0x40 DUP3 ADD MSTORE DUP3 PUSH1 0x60 DUP3 ADD MSTORE DUP3 PUSH1 0x80 DUP3 ADD MSTORE DUP3 PUSH1 0xA0 DUP3 ADD MSTORE DUP3 PUSH1 0xC0 DUP3 ADD MSTORE DUP3 PUSH1 0xE0 DUP3 ADD MSTORE DUP3 PUSH2 0x100 DUP3 ADD MSTORE DUP3 PUSH2 0x120 DUP3 ADD MSTORE DUP3 PUSH2 0x140 DUP3 ADD MSTORE DUP3 PUSH2 0x160 DUP3 ADD MSTORE DUP3 PUSH2 0x180 DUP3 ADD MSTORE DUP3 PUSH2 0x1A0 DUP3 ADD MSTORE DUP3 PUSH2 0x1C0 DUP3 ADD MSTORE DUP3 PUSH2 0x1E0 DUP3 ADD MSTORE ADD MSTORE PUSH2 0x2EF DUP11 ISZERO ISZERO PUSH2 0xA95 JUMP JUMPDEST PUSH2 0x2FA DUP3 ISZERO ISZERO PUSH2 0xA95 JUMP JUMPDEST PUSH2 0x124 CALLDATALOAD ISZERO DUP1 ISZERO SWAP1 DUP2 PUSH2 0x845 JUMPI JUMPDEST ISZERO PUSH2 0x7F4 JUMPI PUSH2 0x791 JUMPI JUMPDEST DUP1 ISZERO PUSH2 0x738 JUMPI JUMPDEST DUP10 DUP2 EQ PUSH2 0x6F4 JUMPI DUP2 DUP2 EQ PUSH2 0x6A3 JUMPI DUP2 DUP11 EQ PUSH2 0x652 JUMPI PUSH5 0x2540BE400 DUP6 GT PUSH2 0x5FA JUMPI PUSH5 0x2540BE400 DUP7 GT PUSH2 0x5A2 JUMPI DUP3 ISZERO PUSH2 0x553 JUMPI DUP4 ISZERO SWAP2 DUP3 PUSH2 0x4C8 JUMPI JUMPDEST PUSH1 0x40 MLOAD SWAP11 PUSH2 0x362 DUP13 PUSH2 0x947 JUMP JUMPDEST DUP12 MSTORE PUSH1 0x20 DUP12 ADD MSTORE PUSH1 0x40 DUP11 ADD MSTORE PUSH0 PUSH1 0x60 DUP11 ADD MSTORE PUSH0 PUSH1 0x80 DUP11 ADD MSTORE DUP1 ISZERO PUSH1 0xA0 DUP11 ADD MSTORE PUSH1 0xC0 DUP10 ADD MSTORE DUP1 PUSH1 0xE0 DUP10 ADD MSTORE DUP2 PUSH2 0x100 DUP10 ADD MSTORE PUSH2 0x120 DUP9 ADD MSTORE PUSH2 0x140 DUP8 ADD MSTORE PUSH2 0x160 DUP7 ADD MSTORE PUSH2 0x180 DUP6 ADD MSTORE PUSH2 0x1A0 DUP5 ADD MSTORE PUSH2 0x1C0 DUP4 ADD MSTORE PUSH2 0x124 CALLDATALOAD PUSH2 0x1E0 DUP4 ADD MSTORE PUSH2 0x1A8 JUMPI PUSH2 0x144 CALLDATALOAD PUSH2 0x200 DUP3 ADD MSTORE PUSH2 0x200 PUSH1 0x40 MLOAD SWAP2 PUSH1 0x1 DUP1 PUSH1 0xA0 SHL SUB DUP2 MLOAD AND DUP4 MSTORE PUSH1 0x1 DUP1 PUSH1 0xA0 SHL SUB PUSH1 0x20 DUP3 ADD MLOAD AND PUSH1 0x20 DUP5 ADD MSTORE PUSH1 0x1 DUP1 PUSH1 0xA0 SHL SUB PUSH1 0x40 DUP3 ADD MLOAD AND PUSH1 0x40 DUP5 ADD MSTORE PUSH1 0x60 DUP2 ADD MLOAD ISZERO ISZERO PUSH1 0x60 DUP5 ADD MSTORE PUSH1 0x80 DUP2 ADD MLOAD ISZERO ISZERO PUSH1 0x80 DUP5 ADD MSTORE PUSH1 0xA0 DUP2 ADD MLOAD ISZERO ISZERO PUSH1 0xA0 DUP5 ADD MSTORE PUSH1 0xC0 DUP2 ADD MLOAD ISZERO ISZERO PUSH1 0xC0 DUP5 ADD MSTORE PUSH1 0xE0 DUP2 ADD MLOAD PUSH1 0xE0 DUP5 ADD MSTORE PUSH2 0x100 DUP2 ADD MLOAD PUSH2 0x100 DUP5 ADD MSTORE PUSH2 0x120 DUP2 ADD MLOAD PUSH2 0x120 DUP5 ADD MSTORE PUSH2 0x140 DUP2 ADD MLOAD PUSH2 0x140 DUP5 ADD MSTORE PUSH2 0x160 DUP2 ADD MLOAD PUSH2 0x160 DUP5 ADD MSTORE PUSH2 0x180 DUP2 ADD MLOAD PUSH2 0x180 DUP5 ADD MSTORE PUSH1 0x1 DUP1 PUSH1 0xA0 SHL SUB PUSH2 0x1A0 DUP3 ADD MLOAD AND PUSH2 0x1A0 DUP5 ADD MSTORE PUSH1 0x1 DUP1 PUSH1 0xA0 SHL SUB PUSH2 0x1C0 DUP3 ADD MLOAD AND PUSH2 0x1C0 DUP5 ADD MSTORE PUSH2 0x1E0 DUP2 ADD MLOAD PUSH2 0x1E0 DUP5 ADD MSTORE ADD MLOAD SWAP1 PUSH1 0x6 DUP3 LT ISZERO PUSH2 0x1A8 JUMPI PUSH2 0x220 SWAP2 PUSH2 0x200 DUP3 ADD MSTORE RETURN JUMPDEST DUP9 ISZERO DUP1 PUSH2 0x54B JUMPI JUMPDEST PUSH2 0x355 JUMPI PUSH1 0xA4 PUSH1 0x40 MLOAD PUSH3 0x461BCD PUSH1 0xE5 SHL DUP2 MSTORE PUSH1 0x20 PUSH1 0x4 DUP3 ADD MSTORE PUSH1 0x44 PUSH1 0x24 DUP3 ADD MSTORE PUSH32 0x53657420646F75626C652073696465207472616E73616374696F6E2070617261 PUSH1 0x44 DUP3 ADD MSTORE PUSH32 0x6D657465727320776974686F757420646F75626C652073696465207472617363 PUSH1 0x64 DUP3 ADD MSTORE PUSH4 0x3A34B7B7 PUSH1 0xE1 SHL PUSH1 0x84 DUP3 ADD MSTORE REVERT JUMPDEST POP DUP7 ISZERO PUSH2 0x4D0 JUMP JUMPDEST PUSH1 0x40 MLOAD PUSH3 0x461BCD PUSH1 0xE5 SHL DUP2 MSTORE PUSH1 0x20 PUSH1 0x4 DUP3 ADD MSTORE PUSH1 0x21 PUSH1 0x24 DUP3 ADD MSTORE PUSH32 0x43616E7420637265617465206465616C2077697468207A65726F20616D6F756E PUSH1 0x44 DUP3 ADD MSTORE PUSH1 0x1D PUSH1 0xFA SHL PUSH1 0x64 DUP3 ADD MSTORE PUSH1 0x84 SWAP1 REVERT JUMPDEST PUSH1 0x40 MLOAD PUSH3 0x461BCD PUSH1 0xE5 SHL DUP2 MSTORE PUSH1 0x20 PUSH1 0x4 DUP3 ADD MSTORE PUSH1 0x2A PUSH1 0x24 DUP3 ADD MSTORE PUSH32 0x4D65646961746F72206665652070657263656E746167652063616E6E6F742065 PUSH1 0x44 DUP3 ADD MSTORE PUSH10 0x78636565642031303025 PUSH1 0xB0 SHL PUSH1 0x64 DUP3 ADD MSTORE PUSH1 0x84 SWAP1 REVERT JUMPDEST PUSH1 0x40 MLOAD PUSH3 0x461BCD PUSH1 0xE5 SHL DUP2 MSTORE PUSH1 0x20 PUSH1 0x4 DUP3 ADD MSTORE PUSH1 0x2A PUSH1 0x24 DUP3 ADD MSTORE PUSH32 0x436F6E7472616374206665652070657263656E746167652063616E6E6F742065 PUSH1 0x44 DUP3 ADD MSTORE PUSH10 0x78636565642031303025 PUSH1 0xB0 SHL PUSH1 0x64 DUP3 ADD MSTORE PUSH1 0x84 SWAP1 REVERT JUMPDEST PUSH1 0x40 MLOAD PUSH3 0x461BCD PUSH1 0xE5 SHL DUP2 MSTORE PUSH1 0x20 PUSH1 0x4 DUP3 ADD MSTORE PUSH1 0x24 DUP1 DUP3 ADD MSTORE PUSH32 0x496E69746961746F722063616E6E6F742062652074686520636F756E74657270 PUSH1 0x44 DUP3 ADD MSTORE PUSH4 0x61727479 PUSH1 0xE0 SHL PUSH1 0x64 DUP3 ADD MSTORE PUSH1 0x84 SWAP1 REVERT JUMPDEST PUSH1 0x40 MLOAD PUSH3 0x461BCD PUSH1 0xE5 SHL DUP2 MSTORE PUSH1 0x20 PUSH1 0x4 DUP3 ADD MSTORE PUSH1 0x23 PUSH1 0x24 DUP3 ADD MSTORE PUSH32 0x4D65646961746F722063616E6E6F742062652074686520636F756E7465727061 PUSH1 0x44 DUP3 ADD MSTORE PUSH3 0x727479 PUSH1 0xE8 SHL PUSH1 0x64 DUP3 ADD MSTORE PUSH1 0x84 SWAP1 REVERT JUMPDEST PUSH1 0x64 PUSH1 0x40 MLOAD PUSH3 0x461BCD PUSH1 0xE5 SHL DUP2 MSTORE PUSH1 0x20 PUSH1 0x4 DUP3 ADD MSTORE PUSH1 0x20 PUSH1 0x24 DUP3 ADD MSTORE PUSH32 0x4D65646961746F722063616E6E6F742062652074686520696E69746961746F72 PUSH1 0x44 DUP3 ADD MSTORE REVERT JUMPDEST DUP5 ISZERO DUP1 PUSH2 0x789 JUMPI JUMPDEST PUSH2 0x319 JUMPI PUSH1 0x40 MLOAD PUSH3 0x461BCD PUSH1 0xE5 SHL DUP2 MSTORE PUSH1 0x20 PUSH1 0x4 DUP3 ADD MSTORE PUSH1 0x1B PUSH1 0x24 DUP3 ADD MSTORE PUSH32 0x4E756C6C206D65646961746F722063616E742074616B65206665650000000000 PUSH1 0x44 DUP3 ADD MSTORE PUSH1 0x64 SWAP1 REVERT JUMPDEST POP DUP6 ISZERO PUSH2 0x740 JUMP JUMPDEST PUSH0 SWAP9 POP PUSH1 0x4 NOT PUSH2 0x144 CALLDATALOAD ADD PUSH2 0x312 JUMPI PUSH1 0x40 MLOAD PUSH3 0x461BCD PUSH1 0xE5 SHL DUP2 MSTORE PUSH1 0x20 PUSH1 0x4 DUP3 ADD MSTORE PUSH1 0x26 PUSH1 0x24 DUP3 ADD MSTORE PUSH32 0x536F6D6520616374696F6E206D7573742062652075736564206F6E2065787069 PUSH1 0x44 DUP3 ADD MSTORE PUSH6 0x3930BA34B7B7 PUSH1 0xD1 SHL PUSH1 0x64 DUP3 ADD MSTORE PUSH1 0x84 SWAP1 REVERT JUMPDEST PUSH1 0x40 MLOAD PUSH3 0x461BCD PUSH1 0xE5 SHL DUP2 MSTORE PUSH1 0x20 PUSH1 0x4 DUP3 ADD MSTORE PUSH1 0x24 DUP1 DUP3 ADD MSTORE PUSH32 0x446174612063616E74206265206372656174656420616C726561647920657870 PUSH1 0x44 DUP3 ADD MSTORE PUSH4 0x1A5C9959 PUSH1 0xE2 SHL PUSH1 0x64 DUP3 ADD MSTORE PUSH1 0x84 SWAP1 REVERT JUMPDEST POP TIMESTAMP PUSH2 0x124 CALLDATALOAD GT ISZERO PUSH2 0x308 JUMP JUMPDEST PUSH0 CALLDATASIZE PUSH1 0x3 NOT ADD SLT PUSH2 0x1BC JUMPI PUSH1 0x20 PUSH1 0x40 MLOAD PUSH0 DUP2 MSTORE RETURN JUMPDEST PUSH2 0x220 CALLDATASIZE PUSH1 0x3 NOT ADD SLT PUSH2 0x1BC JUMPI PUSH2 0x87D CALLDATASIZE PUSH2 0x964 JUMP JUMPDEST PUSH2 0x1E0 DUP2 ADD MLOAD DUP1 ISZERO SWAP1 DUP2 ISZERO PUSH2 0x93D JUMPI JUMPDEST POP ISZERO PUSH2 0x913 JUMPI PUSH1 0xC0 DUP2 ADD MLOAD ISZERO PUSH2 0x8E9 JUMPI PUSH1 0x60 DUP2 ADD MLOAD ISZERO SWAP1 DUP2 PUSH2 0x8DC JUMPI JUMPDEST POP ISZERO PUSH2 0x8B2 JUMPI STOP JUMPDEST PUSH1 0x40 MLOAD PUSH3 0x461BCD PUSH1 0xE5 SHL DUP2 MSTORE PUSH1 0x20 PUSH1 0x4 DUP3 ADD MSTORE PUSH1 0x2 PUSH1 0x24 DUP3 ADD MSTORE PUSH2 0x4433 PUSH1 0xF0 SHL PUSH1 0x44 DUP3 ADD MSTORE PUSH1 0x64 SWAP1 REVERT JUMPDEST PUSH1 0x80 SWAP2 POP ADD MLOAD ISZERO DUP2 PUSH2 0x8AA JUMP JUMPDEST PUSH1 0x40 MLOAD PUSH3 0x461BCD PUSH1 0xE5 SHL DUP2 MSTORE PUSH1 0x20 PUSH1 0x4 DUP3 ADD MSTORE PUSH1 0x2 PUSH1 0x24 DUP3 ADD MSTORE PUSH2 0x2219 PUSH1 0xF1 SHL PUSH1 0x44 DUP3 ADD MSTORE PUSH1 0x64 SWAP1 REVERT JUMPDEST PUSH1 0x40 MLOAD PUSH3 0x461BCD PUSH1 0xE5 SHL DUP2 MSTORE PUSH1 0x20 PUSH1 0x4 DUP3 ADD MSTORE PUSH1 0x2 PUSH1 0x24 DUP3 ADD MSTORE PUSH2 0x4431 PUSH1 0xF0 SHL PUSH1 0x44 DUP3 ADD MSTORE PUSH1 0x64 SWAP1 REVERT JUMPDEST SWAP1 POP TIMESTAMP GT DUP3 PUSH2 0x88D JUMP JUMPDEST PUSH2 0x220 DUP2 ADD SWAP1 DUP2 LT PUSH8 0xFFFFFFFFFFFFFFFF DUP3 GT OR PUSH2 0x194 JUMPI PUSH1 0x40 MSTORE JUMP JUMPDEST PUSH2 0x220 SWAP1 PUSH1 0x3 NOT ADD SLT PUSH2 0x1BC JUMPI PUSH1 0x40 MLOAD SWAP1 PUSH2 0x97E DUP3 PUSH2 0x947 JUMP JUMPDEST DUP2 PUSH1 0x4 CALLDATALOAD PUSH1 0x1 PUSH1 0x1 PUSH1 0xA0 SHL SUB DUP2 AND DUP2 SUB PUSH2 0x1BC JUMPI DUP2 MSTORE PUSH1 0x24 CALLDATALOAD PUSH1 0x1 PUSH1 0x1 PUSH1 0xA0 SHL SUB DUP2 AND DUP2 SUB PUSH2 0x1BC JUMPI PUSH1 0x20 DUP3 ADD MSTORE PUSH1 0x44 CALLDATALOAD PUSH1 0x1 PUSH1 0x1 PUSH1 0xA0 SHL SUB DUP2 AND DUP2 SUB PUSH2 0x1BC JUMPI PUSH1 0x40 DUP3 ADD MSTORE PUSH1 0x64 CALLDATALOAD DUP1 ISZERO ISZERO DUP2 SUB PUSH2 0x1BC JUMPI PUSH1 0x60 DUP3 ADD MSTORE PUSH1 0x84 CALLDATALOAD DUP1 ISZERO ISZERO DUP2 SUB PUSH2 0x1BC JUMPI PUSH1 0x80 DUP3 ADD MSTORE PUSH1 0xA4 CALLDATALOAD DUP1 ISZERO ISZERO DUP2 SUB PUSH2 0x1BC JUMPI PUSH1 0xA0 DUP3 ADD MSTORE PUSH1 0xC4 CALLDATALOAD DUP1 ISZERO ISZERO DUP2 SUB PUSH2 0x1BC JUMPI PUSH1 0xC0 DUP3 ADD MSTORE PUSH1 0xE4 CALLDATALOAD PUSH1 0xE0 DUP3 ADD MSTORE PUSH2 0x104 CALLDATALOAD PUSH2 0x100 DUP3 ADD MSTORE PUSH2 0x124 CALLDATALOAD PUSH2 0x120 DUP3 ADD MSTORE PUSH2 0x144 CALLDATALOAD PUSH2 0x140 DUP3 ADD MSTORE PUSH2 0x164 CALLDATALOAD PUSH2 0x160 DUP3 ADD MSTORE PUSH2 0x184 CALLDATALOAD PUSH2 0x180 DUP3 ADD MSTORE PUSH2 0x1A4 CALLDATALOAD PUSH1 0x1 PUSH1 0x1 PUSH1 0xA0 SHL SUB DUP2 AND DUP2 SUB PUSH2 0x1BC JUMPI PUSH2 0x1A0 DUP3 ADD MSTORE PUSH2 0x1C4 CALLDATALOAD PUSH1 0x1 PUSH1 0x1 PUSH1 0xA0 SHL SUB DUP2 AND DUP2 SUB PUSH2 0x1BC JUMPI PUSH2 0x1C0 DUP3 ADD MSTORE PUSH2 0x1E4 CALLDATALOAD PUSH2 0x1E0 DUP3 ADD MSTORE PUSH2 0x204 CALLDATALOAD SWAP1 PUSH1 0x6 DUP3 LT ISZERO PUSH2 0x1BC JUMPI PUSH2 0x200 ADD MSTORE JUMP JUMPDEST ISZERO PUSH2 0xA9C JUMPI JUMP JUMPDEST PUSH1 0x40 MLOAD PUSH3 0x461BCD PUSH1 0xE5 SHL DUP2 MSTORE PUSH1 0x20 PUSH1 0x4 DUP3 ADD MSTORE PUSH1 0x2 PUSH1 0x24 DUP3 ADD MSTORE PUSH2 0x4331 PUSH1 0xF0 SHL PUSH1 0x44 DUP3 ADD MSTORE PUSH1 0x64 SWAP1 REVERT INVALID LOG2 PUSH5 0x6970667358 0x22 SLT KECCAK256 LT 0xD1 0xC5 PUSH2 0xC922 PUSH30 0x20CDA6C5EE3F014D502F2388BFE8E1D322591AE3708D1A1C9F64736F6C63 NUMBER STOP ADDMOD SHR STOP CALLER "
		},
		"gasEstimates": {
			"creation": {
				"codeDepositCost": "562400",
				"executionCost": "infinite",
				"totalCost": "infinite"
			},
			"external": {
				"MaxProcent()": "196",
				"NOEXPIRATIONDATE()": "151",
				"createDeal(address,address,address,uint256,uint256,uint256,uint256,address,address,uint256,MediatorAction)": "infinite",
				"createDealId(Deal,uint256)": "1838",
				"requireCanEdit(Deal)": "1232"
			}
		},
		"methodIdentifiers": {
			"MaxProcent()": "76563a41",
			"NOEXPIRATIONDATE()": "4db5aafa",
			"createDeal(address,address,address,uint256,uint256,uint256,uint256,address,address,uint256,MediatorAction)": "652e83d7",
			"createDealId(Deal,uint256)": "797d4ee1",
			"requireCanEdit(Deal)": "4a550ce0"
		}
	},
	"abi": [
		{
			"inputs": [],
			"name": "MaxProcent",
			"outputs": [
				{
					"internalType": "uint256",
					"name": "",
					"type": "uint256"
				}
			],
			"stateMutability": "view",
			"type": "function"
		},
		{
			"inputs": [],
			"name": "NOEXPIRATIONDATE",
			"outputs": [
				{
					"internalType": "uint256",
					"name": "",
					"type": "uint256"
				}
			],
			"stateMutability": "view",
			"type": "function"
		},
		{
			"inputs": [
				{
					"internalType": "address payable",
					"name": "_initiator",
					"type": "address"
				},
				{
					"internalType": "address payable",
					"name": "_counterparty",
					"type": "address"
				},
				{
					"internalType": "address payable",
					"name": "_mediator",
					"type": "address"
				},
				{
					"internalType": "uint256",
					"name": "_initiatorCreateAmount",
					"type": "uint256"
				},
				{
					"internalType": "uint256",
					"name": "_counterpartyCreateAmount",
					"type": "uint256"
				},
				{
					"internalType": "uint256",
					"name": "_PRC_MediatorFeeInititor",
					"type": "uint256"
				},
				{
					"internalType": "uint256",
					"name": "_PRC_MediatorFeeCounterparty",
					"type": "uint256"
				},
				{
					"internalType": "address",
					"name": "_initiatorTokenAddress",
					"type": "address"
				},
				{
					"internalType": "address",
					"name": "_counterpartyTokenAddress",
					"type": "address"
				},
				{
					"internalType": "uint256",
					"name": "_expirationDate",
					"type": "uint256"
				},
				{
					"internalType": "enum MediatorAction",
					"name": "_mediatorActionOnExpiration",
					"type": "MediatorAction"
				}
			],
			"name": "createDeal",
			"outputs": [
				{
					"components": [
						{
							"internalType": "address payable",
							"name": "initiator",
							"type": "address"
						},
						{
							"internalType": "address payable",
							"name": "counterparty",
							"type": "address"
						},
						{
							"internalType": "address payable",
							"name": "mediator",
							"type": "address"
						},
						{
							"internalType": "bool",
							"name": "isCompleted",
							"type": "bool"
						},
						{
							"internalType": "bool",
							"name": "isCanceled",
							"type": "bool"
						},
						{
							"internalType": "bool",
							"name": "isTwoSided",
							"type": "bool"
						},
						{
							"internalType": "bool",
							"name": "isSignedByCounterparty",
							"type": "bool"
						},
						{
							"internalType": "uint256",
							"name": "initiatorCreateAmount",
							"type": "uint256"
						},
						{
							"internalType": "uint256",
							"name": "counterpartyCreateAmount",
							"type": "uint256"
						},
						{
							"internalType": "uint256",
							"name": "initiatorCurrentAmount",
							"type": "uint256"
						},
						{
							"internalType": "uint256",
							"name": "counterpartyCurrentAmount",
							"type": "uint256"
						},
						{
							"internalType": "uint256",
							"name": "PRC_InitatorMediatorFee",
							"type": "uint256"
						},
						{
							"internalType": "uint256",
							"name": "PRC_CounterpartyMediatorFee",
							"type": "uint256"
						},
						{
							"internalType": "address",
							"name": "initiatorTokenAddress",
							"type": "address"
						},
						{
							"internalType": "address",
							"name": "counterpartyTokenAddress",
							"type": "address"
						},
						{
							"internalType": "uint256",
							"name": "expirationDate",
							"type": "uint256"
						},
						{
							"internalType": "enum MediatorAction",
							"name": "mediatorActionOnExpiration",
							"type": "MediatorAction"
						}
					],
					"internalType": "struct Deal",
					"name": "",
					"type": "tuple"
				}
			],
			"stateMutability": "view",
			"type": "function"
		},
		{
			"inputs": [
				{
					"components": [
						{
							"internalType": "address payable",
							"name": "initiator",
							"type": "address"
						},
						{
							"internalType": "address payable",
							"name": "counterparty",
							"type": "address"
						},
						{
							"internalType": "address payable",
							"name": "mediator",
							"type": "address"
						},
						{
							"internalType": "bool",
							"name": "isCompleted",
							"type": "bool"
						},
						{
							"internalType": "bool",
							"name": "isCanceled",
							"type": "bool"
						},
						{
							"internalType": "bool",
							"name": "isTwoSided",
							"type": "bool"
						},
						{
							"internalType": "bool",
							"name": "isSignedByCounterparty",
							"type": "bool"
						},
						{
							"internalType": "uint256",
							"name": "initiatorCreateAmount",
							"type": "uint256"
						},
						{
							"internalType": "uint256",
							"name": "counterpartyCreateAmount",
							"type": "uint256"
						},
						{
							"internalType": "uint256",
							"name": "initiatorCurrentAmount",
							"type": "uint256"
						},
						{
							"internalType": "uint256",
							"name": "counterpartyCurrentAmount",
							"type": "uint256"
						},
						{
							"internalType": "uint256",
							"name": "PRC_InitatorMediatorFee",
							"type": "uint256"
						},
						{
							"internalType": "uint256",
							"name": "PRC_CounterpartyMediatorFee",
							"type": "uint256"
						},
						{
							"internalType": "address",
							"name": "initiatorTokenAddress",
							"type": "address"
						},
						{
							"internalType": "address",
							"name": "counterpartyTokenAddress",
							"type": "address"
						},
						{
							"internalType": "uint256",
							"name": "expirationDate",
							"type": "uint256"
						},
						{
							"internalType": "enum MediatorAction",
							"name": "mediatorActionOnExpiration",
							"type": "MediatorAction"
						}
					],
					"internalType": "struct Deal",
					"name": "deal",
					"type": "tuple"
				},
				{
					"internalType": "uint256",
					"name": "totalCreated",
					"type": "uint256"
				}
			],
			"name": "createDealId",
			"outputs": [
				{
					"internalType": "bytes32",
					"name": "",
					"type": "bytes32"
				}
			],
			"stateMutability": "view",
			"type": "function"
		},
		{
			"inputs": [
				{
					"components": [
						{
							"internalType": "address payable",
							"name": "initiator",
							"type": "address"
						},
						{
							"internalType": "address payable",
							"name": "counterparty",
							"type": "address"
						},
						{
							"internalType": "address payable",
							"name": "mediator",
							"type": "address"
						},
						{
							"internalType": "bool",
							"name": "isCompleted",
							"type": "bool"
						},
						{
							"internalType": "bool",
							"name": "isCanceled",
							"type": "bool"
						},
						{
							"internalType": "bool",
							"name": "isTwoSided",
							"type": "bool"
						},
						{
							"internalType": "bool",
							"name": "isSignedByCounterparty",
							"type": "bool"
						},
						{
							"internalType": "uint256",
							"name": "initiatorCreateAmount",
							"type": "uint256"
						},
						{
							"internalType": "uint256",
							"name": "counterpartyCreateAmount",
							"type": "uint256"
						},
						{
							"internalType": "uint256",
							"name": "initiatorCurrentAmount",
							"type": "uint256"
						},
						{
							"internalType": "uint256",
							"name": "counterpartyCurrentAmount",
							"type": "uint256"
						},
						{
							"internalType": "uint256",
							"name": "PRC_InitatorMediatorFee",
							"type": "uint256"
						},
						{
							"internalType": "uint256",
							"name": "PRC_CounterpartyMediatorFee",
							"type": "uint256"
						},
						{
							"internalType": "address",
							"name": "initiatorTokenAddress",
							"type": "address"
						},
						{
							"internalType": "address",
							"name": "counterpartyTokenAddress",
							"type": "address"
						},
						{
							"internalType": "uint256",
							"name": "expirationDate",
							"type": "uint256"
						},
						{
							"internalType": "enum MediatorAction",
							"name": "mediatorActionOnExpiration",
							"type": "MediatorAction"
						}
					],
					"internalType": "struct Deal",
					"name": "deal",
					"type": "tuple"
				}
			],
			"name": "requireCanEdit",
			"outputs": [],
			"stateMutability": "view",
			"type": "function"
		}
	]
}