{
	"data": {
		"bytecode": {
			"linkReferences": {
				"Deal.sol": {
					"DealContract": [
						{
							"length": 20,
							"start": 1449
						},
						{
							"length": 20,
							"start": 6482
						},
						{
							"length": 20,
							"start": 10295
						},
						{
							"length": 20,
							"start": 10875
						},
						{
							"length": 20,
							"start": 11795
						},
						{
							"length": 20,
							"start": 12198
						},
						{
							"length": 20,
							"start": 12840
						},
						{
							"length": 20,
							"start": 13237
						},
						{
							"length": 20,
							"start": 14181
						},
						{
							"length": 20,
							"start": 15050
						}
					]
				},
				"Percent.sol": {
					"Percent": [
						{
							"length": 20,
							"start": 2247
						},
						{
							"length": 20,
							"start": 3573
						},
						{
							"length": 20,
							"start": 5571
						},
						{
							"length": 20,
							"start": 6153
						},
						{
							"length": 20,
							"start": 7203
						},
						{
							"length": 20,
							"start": 8496
						},
						{
							"length": 20,
							"start": 10449
						},
						{
							"length": 20,
							"start": 11022
						},
						{
							"length": 20,
							"start": 11944
						},
						{
							"length": 20,
							"start": 12346
						},
						{
							"length": 20,
							"start": 12988
						},
						{
							"length": 20,
							"start": 13574
						},
						{
							"length": 20,
							"start": 14510
						},
						{
							"length": 20,
							"start": 15200
						}
					]
				}
			},
			"object": "6080346101aa57601f6147f438819003918201601f19168301916001600160401b038311848410176101ae5780849260409485528339810103126101aa5780516020909101516001600160a01b03811691908290036101aa573315610197575f80546040519133906001600160a01b038316907f8be0079c531659141344cd1fd0a4f28419497f9722a3daafe3b4186f6b6457e09080a36001600160a81b0319163360ff60a01b191617600160a01b175f55821561013d57506402540be40081116100ee5760025560018060a01b031960035416176003555f6005555f60065560405161463190816101c38239f35b60405162461bcd60e51b815260206004820152602160248201527f436f6d6d697373696f6e2070657263656e7461676520697320746f6f206869676044820152600d60fb1b6064820152608490fd5b62461bcd60e51b815260206004820152602f60248201527f436f6d6d697373696f6e20726563697069656e742063616e6e6f74206265207460448201526e6865207a65726f206164647265737360881b6064820152608490fd5b631e4fbdf760e01b5f525f60045260245ffd5b5f80fd5b634e487b7160e01b5f52604160045260245ffdfe60806040526004361015610011575f80fd5b5f3560e01c80627e8bd314611da0578063044a6da11461120c57806306fd154a14611d78578063114aeacc14610dad57806315f8a31414611c3e57806317b52b5014611bde57806328d5a0501461172e57806330e97ae114611211578063367edd32146116b057806339b3edb01461160e5780633f3e8212146113aa5780634187129c1461157557806341b3a0d91461155157806347e7ef24146113af5780634dff0036146113aa5780635040125b1461035b57806351a6fad51461121657806351b7d53514611211578063706b14f51461120c57806370a08231146111ca578063715018a6146111735780637165e5421461037d57806380ccb070146110c957806381cd872a14610f9f578063894ba83314610f2b578063899a3ffd14610f0e5780638da5cb5b14610ee75780638deea5fb14610dcf578063966d1f1d14610db2578063a4f60b1614610dad578063a71701061461098c578063b4a99ccb14610212578063b7dc14fe14610217578063bb06c1a414610a82578063beabacc814610991578063c23f001f1461021c578063c99b89651461098c578063cfadf6c714610382578063d747b8111461037d578063e08560a414610360578063f2d5ec3d1461035b578063f2fde38b146102d6578063f3fef3a314610270578063f7888aec1461021c578063faa86b4a146102175763fbb405db14610212575f80fd5b613575565b6138c7565b3461026c57604036600319011261026c57610235611e1d565b61023d611e07565b6001600160a01b039182165f908152600160209081526040808320949093168252928352819020549051908152f35b5f80fd5b3461026c57604036600319011261026c5760206102cc61028e611e1d565b60243590335f526001845260405f2060018060a01b0382165f5284526102ba8260405f20541015613c6e565b6102c582823361430b565b50336143b2565b6040519015158152f35b3461026c57602036600319011261026c576102ef611e1d565b6102f76144da565b6001600160a01b03168015610348575f80546001600160a01b03198116831782556001600160a01b0316907f8be0079c531659141344cd1fd0a4f28419497f9722a3daafe3b4186f6b6457e09080a3005b631e4fbdf760e01b5f525f60045260245ffd5b612da3565b3461026c575f36600319011261026c576020600654604051908152f35b613025565b61038b36611e33565b91909498959397969260ff5f5460a01c166103a581613c22565b335f52600160205260405f2060018060a01b0383165f5260205260405f20548581106106c0575b5050946104189291866103e386610220993361430b565b5073__$69ea93bdf3b1e5da8164bfe3d9a878d765$__9a6040519c8d98899863652e83d760e01b8a528d8d3360048d01613e3e565b0381865af4938415610684575f9461068f575b5060206005546102446040518096819363797d4ee160e01b8352610452600484018b612f36565b6102248301525af4928315610684575f93610650575b50610474600554613eaa565b6005555f83815260046020908152604091829020865181546001600160a01b039182166001600160a01b031991821617835592880151600183018054918316919094161790925591860151600283018054606089015160ff60a01b90151560a01b16929093166001600160a81b03199093169290921717815561020091600c9161054d905b6080890151815460ff60a81b191690151560a81b60ff60a81b1617815560a0890151815460c08b015161ffff60b01b1990911691151560b01b60ff60b01b169190911790151560b81b60ff60b81b16179055565b60e0870151600382015561010087015160048201556101208701516005820155610140870151600680830191909155610160880151600783015561018088015160088301556101a08801516009830180546001600160a01b039283166001600160a01b0319918216179091556101c08a0151600a850180549190931691161790556101e0880151600b830155929096015195019085101561063c5760209460ff801983541691161790556040519160018060a01b0316825260018060a01b031690827f44e1ff8e67fad6b456bd43ff165ba4e9bb004370aa27a76881c6acb60dfd6dd9853393a4604051908152f35b634e487b7160e01b5f52602160045260245ffd5b9092506020813d60201161067c575b8161066c60209383613ce2565b8101031261026c57519184610468565b3d915061065f565b6040513d5f823e3d90fd5b6106b29194506102203d81116106b9575b6106aa8183613ce2565b810190613d25565b928461042b565b503d6106a0565b6106d36106d99187999496959399613f18565b97613c22565b8615610938576002549360405194631c8f084760e01b8652886004870152602486015260208560448173__$8537b7efa173772577da826929141ce939$__5af4948515610684575f95610904575b506001600160a01b038116806107f357610741868a614102565b340361079f57886104189661075a6102209b8533614500565b5060035461077490829086906001600160a01b0316614500565b505b60405191825260208201525f5160206145dc5f395f51905f5260403392a39196819394506103cc565b60405162461bcd60e51b815260206004820152602660248201527f4d61696e6e657420746f6b656e206465706f73697420616d6f756e74206d697360448201526536b0ba31b41760d11b6064820152608490fd5b6107fd868a614102565b604051906323b872dd60e01b825233600483015230602483015260448201526020816064815f865af1908115610684575f916108ca575b501561086d57886104189661084d6102209b8533614500565b5060035461086790829086906001600160a01b0316614500565b50610776565b60405162461bcd60e51b815260206004820152602f60248201527f436f6e74726163742068617320746f6f206c6f7720616c6c6f77616e6365207460448201526e6f20726563656976652066756e647360881b6064820152608490fd5b90506020813d6020116108fc575b816108e560209383613ce2565b8101031261026c576108f690613d18565b8e610834565b3d91506108d8565b9094506020813d602011610930575b8161092060209383613ce2565b8101031261026c5751938c610727565b3d9150610913565b60405162461bcd60e51b815260206004820152602660248201527f4465706f73697420616d6f756e74206d757374206265206772656174657220746044820152653430b710181760d11b6064820152608490fd5b6131be565b3461026c57606036600319011261026c576109aa611e1d565b6109b2611e07565b60443591335f52600160205260405f2060018060a01b0383165f526020526109e08360405f20541015613c6e565b335f52600160205260405f2060018060a01b0383165f5260205260405f20610a09848254613f18565b905560018060a01b031690815f52600160205260405f2060018060a01b0382165f5260205260405f20610a3d848254614102565b90556040519283526001600160a01b03169133907fd1398bee19313d6bf672ccb116e51f4a1a947e91c757907f51fbb5b5e56c698f90602090a4602060405160018152f35b602036600319011261026c57600435805f52600460205260405f20906001820191610ab760018060a01b03845416331461410f565b6002810190610af58254610ad060ff8260b01c1661416a565b610ae060ff8260b81c16156141af565b60ff8160a01c16159081610d9e575b50613ecc565b600a81018054335f9081526001602090815260408083206001600160a01b039094168084529390915290205490919060068401548110610be8575b50546004830154610b4c9250906001600160a01b03163361430b565b508154600160b81b60ff60b81b198216179092555492546040516001600160a01b0392831680825294918316929091169083907f5e02698c1650d6cbe1f7e8a48609d0da45ad7f5e4c13cd8b196f82965c0ab0d590602090a481610bb6575b602060405160018152f35b60207f957372c0e02d2882134cc0eebbef9e446634d8ccbb1cbb112bdefdd3cf0a643c91604051908152a28080610bab565b610bf6906004850154613f18565b91610c0760ff5f5460a01c16613c22565b8215610938576002549260405193631c8f084760e01b8552816004860152602485015260208460448173__$8537b7efa173772577da826929141ce939$__5af4938415610684575f94610d6a575b5081610cba57610c658482614102565b340361079f57610b4c93610c7a828433614500565b50600354610c9490829085906001600160a01b0316614500565b505b60405191825260208201525f5160206145dc5f395f51905f5260403392a386610b30565b610cc48482614102565b604051906323b872dd60e01b825233600483015230602483015260448201526020816064815f875af1908115610684575f91610d30575b501561086d57610b4c93610d10828433614500565b50600354610d2a90829085906001600160a01b0316614500565b50610c96565b90506020813d602011610d62575b81610d4b60209383613ce2565b8101031261026c57610d5c90613d18565b89610cfb565b3d9150610d3e565b9093506020813d602011610d96575b81610d8660209383613ce2565b8101031261026c57519288610c55565b3d9150610d79565b60ff915060a81c161586610aef565b612638565b3461026c575f36600319011261026c576020600554604051908152f35b3461026c57602036600319011261026c57600435805f52600460205260405f2090600182019060018060a01b0382541633148015610ed4575b610e1190614264565b5f51602061457c5f395f51905f52610ea96002850194610e57865460ff8160b81c161580610ec6575b610e43906142bf565b60ff8160a01c16159081610eb75750613ecc565b805460098201546005830154610e7b9290916001600160a01b039081169116614500565b505493549454604080516001600160a01b039283168152336020820152968216969590911694918291820190565b0390a4602060405160018152f35b60ff915060a81c161588610aef565b5060b081901c60ff16610e3a565b5082546001600160a01b03163314610e08565b3461026c575f36600319011261026c575f546040516001600160a01b039091168152602090f35b3461026c575f36600319011261026c576020600254604051908152f35b3461026c575f36600319011261026c57610f436144da565b60ff60a01b195f54165f557f017904e4fe7d59bb4603c7c045bc275a05da9ea3a4ac007fc80fffeaf119186d60206040515f8152a1337f793bc6423dd0257d64f9d47db72fd4b2162f4541aa41740ba1c5fb5e2cd41bcd5f80a2005b3461026c57602036600319011261026c576004355f52600460205260405f20600160a01b6001900381541690600160a01b600190036001820154169060028101546003820154600483015460058401546006850154600786015491600887015493600160a01b6001900360098901541695600160a01b60019003600a8a01541697600b8a015499600c015460ff169a6040519c8d5260208d0152600160a01b60019003811660408d01528060a01c60ff16151560608d01528060a81c60ff16151560808d01528060b01c60ff16151560a08d015260b81c60ff16151560c08c015260e08b01526101008a01526101208901526101408801526101608701526101808601526101a08501526101c08401526101e083015261020082016110c391612f29565b61022090f35b3461026c57602036600319011261026c57600435805f52600460205260405f2090600182019060018060a01b0382541633148015611160575b61110b90614264565b5f51602061457c5f395f51905f52610ea9600285019461113c865460ff8160b81c161580610ec657610e43906142bf565b805460098201546005830154610e7b9290916001600160a01b0390811691166143b2565b5082546001600160a01b03163314611102565b3461026c575f36600319011261026c5761118b6144da565b5f80546001600160a01b0319811682556001600160a01b03167f8be0079c531659141344cd1fd0a4f28419497f9722a3daafe3b4186f6b6457e08280a3005b3461026c57602036600319011261026c576001600160a01b036111eb611e1d565b165f52600160205260405f205f8052602052602060405f2054604051908152f35b611eb5565b61287d565b3461026c57602036600319011261026c575f61020060405161123781613cb1565b8281528260208201528260408201528260608201528260808201528260a08201528260c08201528260e08201528261010082015282610120820152826101408201528261016082015282610180820152826101a0820152826101c0820152826101e082015201526004355f52600460205260405f2060ff600c604051926112bd84613cb1565b80546001600160a01b0390811685526001820154811660208601526002820154808216604087015260a081811c86161515606088015260a882901c86161515608088015260b082901c861615159087015260b81c8416151560c0860152600382015460e08601526004820154610100860152600582015461012086015260068083015461014087015260078301546101608701526008830154610180870152600983015482166101a0870152600a8301549091166101c0860152600b8201546101e0860152910154909116919082101561063c57610220916102008201526113a86040518092612f36565bf35b612c14565b604036600319011261026c576113c3611e1d565b6024356113d660ff5f5460a01c16613c22565b80156109385760025460405190631c8f084760e01b8252826004830152602482015260208160448173__$8537b7efa173772577da826929141ce939$__5af4908115610684575f9161151f575b506001600160a01b03831692836114885761143e8284614102565b340361079f578181611454856114669433614500565b506003546001600160a01b0316614500565b505b60405191825260208201525f5160206145dc5f395f51905f5260403392a3005b6114928284614102565b604051906323b872dd60e01b825233600483015230602483015260448201526020816064815f895af1908115610684575f916114e5575b501561086d578181611454856114df9433614500565b50611468565b90506020813d602011611517575b8161150060209383613ce2565b8101031261026c5761151190613d18565b856114c9565b3d91506114f3565b90506020813d602011611549575b8161153a60209383613ce2565b8101031261026c575183611423565b3d915061152d565b3461026c575f36600319011261026c57602060ff5f5460a01c166040519015158152f35b3461026c57602036600319011261026c57600435805f52600460205260405f209060018201916115af60018060a01b03845416331461410f565b60028101906115c88254610ad060ff8260b01c1661416a565b600a810154335f9081526001602090815260408083206001600160a01b0390941680845293909152902054610b4c91611608600485015480931015613c6e565b3361430b565b3461026c57602036600319011261026c5760043560025460405190631c8f084760e01b8252826004830152602482015260208160448173__$8537b7efa173772577da826929141ce939$__5af4908115610684575f9161167d575b60206116758385614102565b604051908152f35b90506020813d6020116116a8575b8161169860209383613ce2565b8101031261026c57516020611669565b3d915061168b565b3461026c575f36600319011261026c576116c86144da565b5f805460ff60a01b1916600160a01b179055604051600181527f017904e4fe7d59bb4603c7c045bc275a05da9ea3a4ac007fc80fffeaf119186d90602090a1337fae81c15a680e6640ba872ca44f364ad67c60a04089ad9fa100f7a3ce94da9f685f80a2005b6117373661281a565b91959360ff5f969492965460a01c169261175084613c22565b335f52600160205260405f2060018060a01b0389165f5260205260405f2054828110611a22575b5061022093506117c19061178c838a3361430b565b5073__$69ea93bdf3b1e5da8164bfe3d9a878d765$__97604051998a95869563652e83d760e01b8752898b3360048a0161409a565b0381865af4938415610684575f94611a01575b5060206005546102446040518096819363797d4ee160e01b83526117fb600484018b612f36565b6102248301525af4928315610684575f936119cd575b5061181d600554613eaa565b6005555f83815260046020908152604091829020865181546001600160a01b039182166001600160a01b031991821617835592880151600183018054918316919094161790925591860151600283018054606089015160ff60a01b90151560a01b16929093166001600160a81b03199093169290921717815561020091600c916118a6906104f9565b60e0870151600382015561010087015160048201556101208701516005820155610140870151600680830191909155610160880151600783015561018088015160088301556101a08801516009830180546001600160a01b039283166001600160a01b0319918216179091556101c08a0151600a850180549190931691161790556101e0880151600b830155929096015195019085101561063c5760209460ff801983541691161790556040519060018060a01b03169182825260018060a01b031690837f5e02698c1650d6cbe1f7e8a48609d0da45ad7f5e4c13cd8b196f82965c0ab0d5863393a48061199e575b50604051908152f35b7f957372c0e02d2882134cc0eebbef9e446634d8ccbb1cbb112bdefdd3cf0a643c83604051848152a282611995565b9092506020813d6020116119f9575b816119e960209383613ce2565b8101031261026c57519184611811565b3d91506119dc565b611a1b9194506102203d81116106b9576106aa8183613ce2565b92846117d4565b611a2f611a359184613f18565b94613c22565b8315610938576002549060405191631c8f084760e01b8352856004840152602483015260208260448173__$8537b7efa173772577da826929141ce939$__5af4918215610684575f92611baa575b506001600160a01b03891680611af657611a9d8387614102565b340361079f57856117c193611ab6610220988d33614500565b50600354611ad09082908e906001600160a01b0316614500565b505b60405191825260208201525f5160206145dc5f395f51905f5260403392a390611777565b611b008387614102565b604051906323b872dd60e01b825233600483015230602483015260448201526020816064815f865af1908115610684575f91611b70575b501561086d57856117c193611b50610220988d33614500565b50600354611b6a9082908e906001600160a01b0316614500565b50611ad2565b90506020813d602011611ba2575b81611b8b60209383613ce2565b8101031261026c57611b9c90613d18565b8b611b37565b3d9150611b7e565b9091506020813d602011611bd6575b81611bc660209383613ce2565b8101031261026c57519089611a83565b3d9150611bb9565b3461026c576102206117c1611bf23661281a565b611c0960ff5f9a96949a9993995460a01c16613c22565b335f52600160205260405f2060018060a01b038a165f52602052611c338360405f20541015613c6e565b61178c838a3361430b565b3461026c57604036600319011261026c57600435611c5a611e07565b611c626144da565b6001600160a01b03168015611d1b576402540be4008211611ccc57816040917f14bdaadaed0453e7b5b66195b42156ba995b9e5abd0da98368839851d69ad88993600255806bffffffffffffffffffffffff60a01b600354161760035582519182526020820152a1005b60405162461bcd60e51b815260206004820152602160248201527f436f6d6d697373696f6e2070657263656e7461676520697320746f6f206869676044820152600d60fb1b6064820152608490fd5b60405162461bcd60e51b815260206004820152602f60248201527f436f6d6d697373696f6e20726563697069656e742063616e6e6f74206265207460448201526e6865207a65726f206164647265737360881b6064820152608490fd5b3461026c575f36600319011261026c576003546040516001600160a01b039091168152602090f35b3461026c57610220610418611db436611e33565b92611dd260ff5f9d99979d9c969c9b9a9b9493945460a01c16613c22565b335f52600160205260405f2060018060a01b0382165f52602052611dfc8660405f20541015613c6e565b6103e386823361430b565b602435906001600160a01b038216820361026c57565b600435906001600160a01b038216820361026c57565b61014090600319011261026c576004356001600160a01b038116810361026c57906024356001600160a01b038116810361026c579060443590606435906084359060a4359060c4356001600160a01b038116810361026c579060e4356001600160a01b038116810361026c5790610104359061012435600681101561026c5790565b3461026c57602036600319011261026c57600435805f52600460205260405f2090600182019060018060a01b038254163314801561260f575b80156125f9575b156125a6576002830192835460ff8160b81c161561256d578060ff611f259260a01c1615908161255e5750613ecc565b600b81015442106125245760ff600c8201541660058201549160018060a01b0360098201541660068201549060018060a01b03600a840154169160078401549160088501549373__$8537b7efa173772577da826929141ce939$__9460405194631c8f084760e01b86528960048701526024860152602085604481895af4948515610684575f956124ef575b50602090604460405180988193631c8f084760e01b835288600484015260248301525af4948515610684575f956124bb575b50600687101561063c578760048886858f8f8f915f51602061457c5f395f51905f529f610ea99f8f938f90938e948d93156123e0575b60028b14612305575b60018b14612217575b505050505050505050508d868560038414612178575b50505014612090575b50508954600160a81b60ff60a81b19821617909a55505091549554604080516001600160a01b03998a168152336020820152918916989097169690938493509083019150565b84836120d86120fa966120bd6120e9958b986120b78760018060a01b036003541693613f18565b916143b2565b506003546001600160a01b03169086906120b7908990613f18565b508d546001600160a01b03166143b2565b508a546001600160a01b03166143b2565b50825487548954600354604080516001600160a01b03938416815233602082015291831690820152606081018590526080810186905260a081019490945260c0840194909452831692169086907f8e100dc3335e09b082c843425f71ea8ae9d91ae5bb385ef4b41d0d2c6aa872149060e090a45f808080808061204a565b6121a092612190878a60018060a01b038454166143b2565b50546001600160a01b03166143b2565b5088548d548f54604080516001600160a01b0392831680825233602083015291810191909152606081018b9052608081018c90525f60a0820181905260c08201529181169216908e907f8e100dc3335e09b082c843425f71ea8ae9d91ae5bb385ef4b41d0d2c6aa872149060e090a48d8685612041565b877f8af39814826d4542f7fe66e6fa6ac2ac59bfc8221394f51a41dba5c54dba0ac9976122ab856122ee9761227f8f5f51602061459c5f395f51905f529f61226e8d826120b78560018060a01b038c541693613f18565b5089546001600160a01b03166143b2565b50835461229a906001600160a01b0316826120b7858f613f18565b5086546001600160a01b03166143b2565b5054915492546040516001600160a01b039485169c9385169b91909416968c948c94909182916122dd91338c85613f25565b0390a4604051938493339085613f25565b0390a486858f8f8f9187898f938f90938e9461202b565b805461231f906001600160a01b03168a6120b78d89613f18565b508154612338908b908b906001600160a01b03166143b2565b508054612353906001600160a01b0316856120b7868a613f18565b50815461236c90849086906001600160a01b03166143b2565b505f5160206145bc5f395f51905f528a895f51602061455c5f395f51905f52898960018060a01b038d541694858560018060a01b038a541698899360018060a01b038d5416956123c3604051928392338a85613f25565b0390a46123d889604051938493339085613f25565b0390a4612022565b86546123fa906001600160a01b03168a6120b78d89613f18565b508154612413908b908b906001600160a01b03166143b2565b50805461242e906001600160a01b0316856120b7868a613f18565b50815461244790849086906001600160a01b03166143b2565b505f51602061459c5f395f51905f528a895f51602061455c5f395f51905f52898960018060a01b038d541694858560018060a01b038a541698899360018060a01b038d54169561249e604051928392338a85613f25565b0390a46124b389604051938493339085613f25565b0390a4612019565b9094506020813d6020116124e7575b816124d760209383613ce2565b8101031261026c5751935f611fe3565b3d91506124ca565b9094506020813d60201161251c575b8161250b60209383613ce2565b8101031261026c5751936020611fb1565b3d91506124fe565b60405162461bcd60e51b81526020600482015260126024820152711119585b081b9bdd08195e1c1a5c985d195960721b6044820152606490fd5b60ff915060a81c16155f610aef565b60405162461bcd60e51b81526020600482015260116024820152701119585b081b5d5cdd081cdd185c9d1959607a1b6044820152606490fd5b60405162461bcd60e51b815260206004820152602560248201527f4f6e6c7920612070617274206f6620746865206465616c2063616e2072656a6560448201526418dd081a5d60da1b6064820152608490fd5b5060028301546001600160a01b03163314611ef5565b5082546001600160a01b03163314611eee565b604090600319011261026c576004359060243590565b3461026c5761264636612622565b905f90805f52600460205260405f209160018060a01b0383541633148015612804575b61267290613f4f565b73__$69ea93bdf3b1e5da8164bfe3d9a878d765$__803b1561026c575f6040518092630252a86760e51b825281806126ad8960048301613fb5565b03915af48015610684576127f1575b50600683016126d78582546126d2828210613c6e565b613f18565b905560018060a01b03600a840154169360088401549160405192631c8f084760e01b8452826004850152602484015260208360448173__$8537b7efa173772577da826929141ce939$__5af49081156127e557906127a6575b60018501805490955f51602061455c5f395f51905f529450610ea991612764906001600160a01b0316896120b78688613f18565b5061277d83600283019960018060a01b038b54166143b2565b5054955496546040516001600160a01b0398891698978816979094859492909133911685613f25565b506020823d6020116127dd575b816127c060209383613ce2565b8101031261026c575f51602061455c5f395f51905f529151612730565b3d91506127b3565b604051903d90823e3d90fd5b6127fd91505f90613ce2565b5f5f6126bc565b5060028301546001600160a01b03163314612669565b60e090600319011261026c576004356001600160a01b038116810361026c57906024356001600160a01b038116810361026c579060443590606435906084356001600160a01b038116810361026c579060a4359060c435600681101561026c5790565b3461026c575f602036600319011261026c57600435805f52600460205260405f2060018060a01b0381541633148015612bfe575b15612ba25773__$69ea93bdf3b1e5da8164bfe3d9a878d765$__803b1561026c575f6040518092630252a86760e51b825281806128f18760048301613fb5565b03915af4801561068457612b8d575b50600581015460098201546006830154600a84015460078501546008860154604051631c8f084760e01b81526004810187905260248101929092526001600160a01b0394851696939573__$8537b7efa173772577da826929141ce939$__959093169390602083604481895af4928315612b82578a93612b4d575b50602090604460405180988193631c8f084760e01b83528b600484015260248301525af4948515612b4257889998979895612b07575b50600181018054909488949392916001600160a01b03168a6129d38587613f18565b906129dd926143b2565b50600282018054909a6129fb918591906001600160a01b03166143b2565b5081546001600160a01b031681612a128a80613f18565b90612a1c926143b2565b508954612a339188916001600160a01b03166143b2565b5054935497546040516001600160a01b03998a169a958a1699909116968a968a9688938893919290918291612a6a91338e85613f25565b037f8af39814826d4542f7fe66e6fa6ac2ac59bfc8221394f51a41dba5c54dba0ac991a4604051918291612aa091338985613f25565b035f5160206145bc5f395f51905f5291a4604080516001600160a01b039290921682523360208301527ffaee379435b6a0c297f1a08c66517fdc202debc6d275e6dd73630e3ebd1bdd9791a4600654612af890613eaa565b60065560405160018152602090f35b9291965093506020823d602011612b3a575b81612b2660209383613ce2565b8101031261026c57905187959093866129b1565b3d9150612b19565b6040513d8b823e3d90fd5b9092506020813d602011612b7a575b81612b6960209383613ce2565b8101031261026c575191602061297b565b3d9150612b5c565b6040513d8c823e3d90fd5b612b9a9193505f90613ce2565b5f915f612900565b60405162461bcd60e51b815260206004820152602e60248201527f4f6e6c79206120696e69746174696f72206f72206d65646961746f722063616e60448201526d0818dbdb5c1b1a5d19481919585b60921b6064820152608490fd5b5060028101546001600160a01b031633146128b1565b3461026c57612c2236612622565b905f90805f52600460205260405f209160018060a01b0383541633148015612d8d575b612c4e90613f4f565b73__$69ea93bdf3b1e5da8164bfe3d9a878d765$__803b1561026c575f6040518092630252a86760e51b82528180612c898960048301613fb5565b03915af4801561068457612d7a575b5060058301612cae8582546126d2828210613c6e565b905560018060a01b036009840154169360078401549160405192631c8f084760e01b8452826004850152602484015260208360448173__$8537b7efa173772577da826929141ce939$__5af49081156127e55790612d3b575b60018501805490955f5160206145bc5f395f51905f529450610ea991612764906001600160a01b0316896120b78688613f18565b506020823d602011612d72575b81612d5560209383613ce2565b8101031261026c575f5160206145bc5f395f51905f529151612d07565b3d9150612d48565b612d8691505f90613ce2565b5f5f612c98565b5060028301546001600160a01b03163314612c45565b3461026c57612db136612622565b5f91805f52600460205260405f2092600184019260018060a01b0384541633148015612f13575b612de1906141fb565b73__$69ea93bdf3b1e5da8164bfe3d9a878d765$__803b1561026c575f6040518092630252a86760e51b82528180612e1c8b60048301613fb5565b03915af4801561068457612efe575b5060058501612e418282546126d2828210613c6e565b905560018060a01b0360098601541694600781015460405190631c8f084760e01b8252836004830152602482015260208160448173__$8537b7efa173772577da826929141ce939$__5af49384156127e55793612ec8575b5080545f51602061459c5f395f51905f529391610ea991612764906001600160a01b0316896120b78688613f18565b92506020833d602011612ef6575b81612ee360209383613ce2565b8101031261026c57915191610ea9612e99565b3d9150612ed6565b612f0b9192505f90613ce2565b5f905f612e2b565b5060028501546001600160a01b03163314612dd8565b90600682101561063c5752565b90610200806130239360018060a01b03815116845260018060a01b03602082015116602085015260018060a01b03604082015116604085015260608101511515606085015260808101511515608085015260a0810151151560a085015260c0810151151560c085015260e081015160e085015261010081015161010085015261012081015161012085015261014081015161014085015261016081015161016085015261018081015161018085015260018060a01b036101a0820151166101a085015260018060a01b036101c0820151166101c08501526101e08101516101e08501520151910190612f29565b565b3461026c5761303336612622565b5f91805f52600460205260405f2092600184019260018060a01b03845416331480156131a8575b613063906141fb565b73__$69ea93bdf3b1e5da8164bfe3d9a878d765$__803b1561026c575f6040518092630252a86760e51b8252818061309e8b60048301613fb5565b03915af4801561068457613193575b50600685016130c38282546126d2828210613c6e565b905560018060a01b03600a8601541694600881015460405190631c8f084760e01b8252836004830152602482015260208160448173__$8537b7efa173772577da826929141ce939$__5af49384156127e5579361315d575b5080547f8af39814826d4542f7fe66e6fa6ac2ac59bfc8221394f51a41dba5c54dba0ac99391610ea991612764906001600160a01b0316896120b78688613f18565b92506020833d60201161318b575b8161317860209383613ce2565b8101031261026c57915191610ea961311b565b3d915061316b565b6131a09192505f90613ce2565b5f905f6130ad565b5060028501546001600160a01b0316331461305a565b3461026c576131cc36612622565b5f91805f52600460205260405f2092600184019260018060a01b03845416330361351f5773__$69ea93bdf3b1e5da8164bfe3d9a878d765$__803b1561026c575f6040518092630252a86760e51b8252818061322b8b60048301613fb5565b03915af480156106845761350a575b50600a85018054335f9081526001602090815260408083206001600160a01b03909416808452939091529020549093908381106132fd575b5050547f9d5818ec36d6e85e8a30346f5fe41b65cc50cea2b868ae94f293d113c92a133892506132ad9082906001600160a01b03163361430b565b50600685016132bd828254614102565b905584549354600290950154604080516001600160a01b039283168152602081019390935295811695941693819081015b0390a460206001604051908152f35b6133079084613f18565b9161331860ff835460a01c16613c22565b8215610938576002549160405192631c8f084760e01b8452846004850152602484015260208360448173__$8537b7efa173772577da826929141ce939$__5af49283156134fd5781936134c9575b50856133ee57506133778284614102565b61079f57848385936133ae6132ad967f9d5818ec36d6e85e8a30346f5fe41b65cc50cea2b868ae94f293d113c92a13389933614500565b506003546133c890829085906001600160a01b0316614500565b505b60405191825260208201525f5160206145dc5f395f51905f5260403392a391613272565b6133f88385614102565b604051906323b872dd60e01b82523360048301523060248301526044820152602081606481858b5af19182156127e5578092613489575b50501561086d57848385936134696132ad967f9d5818ec36d6e85e8a30346f5fe41b65cc50cea2b868ae94f293d113c92a13389933614500565b5060035461348390829085906001600160a01b0316614500565b506133ca565b9091506020823d6020116134c1575b816134a560209383613ce2565b810103126134be57506134b790613d18565b5f8061342f565b80fd5b3d9150613498565b9092506020813d6020116134f5575b816134e560209383613ce2565b8101031261026c5751915f613366565b3d91506134d8565b50604051903d90823e3d90fd5b6135179192505f90613ce2565b5f905f61323a565b60405162461bcd60e51b815260206004820152602860248201527f4f6e6c79206120636f756e74657270617274792063616e2063616c6c207468696044820152671cc81b595d1a1bd960c21b6064820152608490fd5b61357e36612622565b5f8281526004602052604081208054909391906001600160a01b031633036138745773__$69ea93bdf3b1e5da8164bfe3d9a878d765$__803b1561026c575f6040518092630252a86760e51b825281806135db8a60048301613fb5565b03915af4801561068457613861575b50600984018054335f9081526001602090815260408083206001600160a01b039094168084529390915290205490928592918381106136a5575b50505461363b92506001600160a01b03163361430b565b506005830161364b838254614102565b905582546001840154600290940154604080516001600160a01b0392831681526020810195909552948116949116927f3c0dd30126238eaebbb306e073222eecd03a091d41c39a4b2742759d406c8f5591819081016132ee565b6136af9193613f18565b926136c060ff845460a01c16613c22565b8315610938576002549260405193631c8f084760e01b8552856004860152602485015260208460448173__$8537b7efa173772577da826929141ce939$__5af49384156134fd57819461382d575b5081613777575061371f8385614102565b340361079f5783869361373661363b968433614500565b5060035461375090829085906001600160a01b0316614500565b505b60405191825260208201525f5160206145dc5f395f51905f5260403392a35f80613624565b6137818486614102565b604051906323b872dd60e01b8252336004830152306024830152604482015260208160648185875af19182156127e55780926137f0575b50501561086d578386936137d061363b968433614500565b506003546137ea90829085906001600160a01b0316614500565b50613752565b9091506020823d602011613825575b8161380c60209383613ce2565b810103126134be575061381e90613d18565b5f806137b8565b3d91506137ff565b9093506020813d602011613859575b8161384960209383613ce2565b8101031261026c5751925f61370e565b3d915061383c565b61386d91505f90613ce2565b5f5f6135ea565b60405162461bcd60e51b815260206004820152602560248201527f4f6e6c79206120696e69746174696f722063616e2063616c6c2074686973206d604482015264195d1a1bd960da1b6064820152608490fd5b3461026c575f602036600319011261026c57600435805f52600460205260405f20600181019060018060a01b0382541633148015613c0c575b15613baf5773__$69ea93bdf3b1e5da8164bfe3d9a878d765$__803b1561026c575f6040518092630252a86760e51b825281806139408760048301613fb5565b03915af4801561068457613b9a575b50600581015460098201546006830154600a84015460078501546008860154604051631c8f084760e01b81526004810187905260248101929092526001600160a01b0394851697959691959473__$8537b7efa173772577da826929141ce939$__931690602087604481875af4968715613b8f578b97613b5a575b50602090604460405180968193631c8f084760e01b835289600484015260248301525af4928315612b8257899a99989993613b1c575b5081548894939291906001600160a01b03168a613a1d898b613f18565b90613a27926143b2565b50600282018054909a613a45918991906001600160a01b03166143b2565b5085546001600160a01b031681613a5c8680613f18565b90613a66926143b2565b508954613a7d9184916001600160a01b03166143b2565b5054935497546040516001600160a01b03998a169a958a1699909116968a968a9688938893919290918291613ab491338e85613f25565b035f51602061459c5f395f51905f5291a4604051918291613ad791338985613f25565b035f51602061455c5f395f51905f5291a4604080516001600160a01b039290921682523360208301525f51602061457c5f395f51905f5291a460405160018152602090f35b9392509096506020833d602011613b52575b81613b3b60209383613ce2565b8101031261026c5788968793519293919091613a00565b3d9150613b2e565b9096506020813d602011613b87575b81613b7660209383613ce2565b8101031261026c57519560206139ca565b3d9150613b69565b6040513d8d823e3d90fd5b613ba79194505f90613ce2565b5f925f61394f565b60405162461bcd60e51b815260206004820152602f60248201527f4f6e6c79206120636f756e7465727061727479206f72206d65646961746f722060448201526e18d85b8818d85b98d95b081919585b608a1b6064820152608490fd5b5060028101546001600160a01b03163314613900565b15613c2957565b60405162461bcd60e51b815260206004820152601e60248201527f436f6e74726163742069732063757272656e746c792064697361626c656400006044820152606490fd5b15613c7557565b60405162461bcd60e51b8152602060048201526014602482015273496e73756666696369656e742062616c616e636560601b6044820152606490fd5b610220810190811067ffffffffffffffff821117613cce57604052565b634e487b7160e01b5f52604160045260245ffd5b90601f8019910116810190811067ffffffffffffffff821117613cce57604052565b51906001600160a01b038216820361026c57565b5190811515820361026c57565b908161022091031261026c5761020060405191613d4183613cb1565b613d4a81613d04565b8352613d5860208201613d04565b6020840152613d6960408201613d04565b6040840152613d7a60608201613d18565b6060840152613d8b60808201613d18565b6080840152613d9c60a08201613d18565b60a0840152613dad60c08201613d18565b60c084015260e081015160e0840152610100810151610100840152610120810151610120840152610140810151610140840152610160810151610160840152610180810151610180840152613e056101a08201613d04565b6101a0840152613e186101c08201613d04565b6101c08401526101e08101516101e08401520151600681101561026c5761020082015290565b6001600160a01b039182168152918116602083015291821660408201526060810192909252608082019290925260a081019290925260c082019290925291811660e083015290911661010082015261012081019190915261016081019291613023916101400190612f29565b5f198114613eb85760010190565b634e487b7160e01b5f52601160045260245ffd5b15613ed357565b60405162461bcd60e51b815260206004820152601760248201527f43616e7420656469742066696e6973686564206465616c0000000000000000006044820152606490fd5b91908203918211613eb857565b6001600160a01b039182168152911660208201526040810191909152606081019190915260800190565b15613f5657565b60405162461bcd60e51b815260206004820152603160248201527f4f6e6c79206120696e69746174696f72206f72206d65646961746f722063616e6044820152700818d85b1b081d1a1a5cc81b595d1a1bd9607a1b6064820152608490fd5b81546001600160a01b0390811682526001830154811660208301526002830154808216604084015260ff60a082811c82161515606086015260a883901c82161515608086015260b083901c821615159085015260b89190911c8116151560c0840152600384015460e084015260048401546101008401526005840154610120840152600684015461014084015260078401546101608401526008840154610180840152600984015482166101a0840152600a8401549091166101c0830152600b8301546101e0830152600c909201546102208201939261302392610200019116612f29565b6001600160a01b0391821681529181166020830152918216604082015260608101929092525f6080830181905260a083019390935260c0820183905290921660e083015261010082015261012081019190915261016081019291613023916101400190612f29565b91908201809211613eb857565b1561411657565b60405162461bcd60e51b815260206004820152602660248201527f4f6e6c7920636f756e74657270617274792063616e2063616c6c2074686973206044820152651b595d1a1bd960d21b6064820152608490fd5b1561417157565b60405162461bcd60e51b81526020600482015260166024820152751119585b081b5d5cdd081899481d1ddbc81cda59195960521b6044820152606490fd5b156141b657565b60405162461bcd60e51b815260206004820152601760248201527f4465616c206d757374206265206e6f74207369676e65640000000000000000006044820152606490fd5b1561420257565b60405162461bcd60e51b815260206004820152603460248201527f4f6e6c79206120636f756e7465727061727479206f72206d65646961746f722060448201527318d85b8818d85b1b081d1a1a5cc81b595d1a1bd960621b6064820152608490fd5b1561426b57565b60405162461bcd60e51b815260206004820152602660248201527f4f6e6c79206120706172747920746f20746865206465616c2063616e2072656a6044820152651958dd081a5d60d21b6064820152608490fd5b156142c657565b60405162461bcd60e51b815260206004820152601860248201527f4465616c206d757374206265206e6f74207374617274656400000000000000006044820152606490fd5b82156143aa5760018060a01b031690815f52600160205260405f2060018060a01b0382165f526020528260405f2054106143a3577fd1398bee19313d6bf672ccb116e51f4a1a947e91c757907f51fbb5b5e56c698f60205f92848452600182526040842060018060a01b038216855282526040842061438b878254613f18565b90556040519586526001600160a01b031694a4600190565b5050505f90565b505050600190565b919081156143aa576001600160a01b0316918261441a575f808080856001600160a01b03861682f1156106845760207f2717ead6b9200dd235aad468c9809ea400fe33ac69b5bfaa6d3e90fc922b6398915b6040519384526001600160a01b031692a3600190565b60405163a9059cbb60e01b81526001600160a01b0382166004820152602481018390526020816044815f885af180156106845761447c575b5060207f2717ead6b9200dd235aad468c9809ea400fe33ac69b5bfaa6d3e90fc922b639891614404565b6020813d6020116144d2575b8161449560209383613ce2565b8101031261026c577f2717ead6b9200dd235aad468c9809ea400fe33ac69b5bfaa6d3e90fc922b6398916144ca602092613d18565b509150614452565b3d9150614488565b5f546001600160a01b031633036144ed57565b63118cdaa760e01b5f523360045260245ffd5b82156143aa577fd1398bee19313d6bf672ccb116e51f4a1a947e91c757907f51fbb5b5e56c698f60205f9260018060a01b031693848452600182526040842060018060a01b038216855282526040842061438b87825461410256feafbe337783658b293f1566e1790bfab9858b8cf08de944ca3cd013d4211887b8086c61b89ef5fcdb14c243b643069c3c6a84765b27f2a696b875dddf031afb4da6af192380b5ba311ac003f57efa2be0717f0e466318c7e9cf546c4937a03d94f05d33634b730e763d232b482cf835a4481835f62d0a0973b42018a8ead4f047dcbc1c05240f31ff3ad067ef1ee35ce4997762752e3a095284754544f4c709d7a2646970667358221220f72e3b3897eeb16ab69e757fbe29f410201ad2dae28e4b41f61c81413a6ad10364736f6c634300081c0033",
			"opcodes": "PUSH1 0x80 CALLVALUE PUSH2 0x1AA JUMPI PUSH1 0x1F PUSH2 0x47F4 CODESIZE DUP2 SWAP1 SUB SWAP2 DUP3 ADD PUSH1 0x1F NOT AND DUP4 ADD SWAP2 PUSH1 0x1 PUSH1 0x1 PUSH1 0x40 SHL SUB DUP4 GT DUP5 DUP5 LT OR PUSH2 0x1AE JUMPI DUP1 DUP5 SWAP3 PUSH1 0x40 SWAP5 DUP6 MSTORE DUP4 CODECOPY DUP2 ADD SUB SLT PUSH2 0x1AA JUMPI DUP1 MLOAD PUSH1 0x20 SWAP1 SWAP2 ADD MLOAD PUSH1 0x1 PUSH1 0x1 PUSH1 0xA0 SHL SUB DUP2 AND SWAP2 SWAP1 DUP3 SWAP1 SUB PUSH2 0x1AA JUMPI CALLER ISZERO PUSH2 0x197 JUMPI PUSH0 DUP1 SLOAD PUSH1 0x40 MLOAD SWAP2 CALLER SWAP1 PUSH1 0x1 PUSH1 0x1 PUSH1 0xA0 SHL SUB DUP4 AND SWAP1 PUSH32 0x8BE0079C531659141344CD1FD0A4F28419497F9722A3DAAFE3B4186F6B6457E0 SWAP1 DUP1 LOG3 PUSH1 0x1 PUSH1 0x1 PUSH1 0xA8 SHL SUB NOT AND CALLER PUSH1 0xFF PUSH1 0xA0 SHL NOT AND OR PUSH1 0x1 PUSH1 0xA0 SHL OR PUSH0 SSTORE DUP3 ISZERO PUSH2 0x13D JUMPI POP PUSH5 0x2540BE400 DUP2 GT PUSH2 0xEE JUMPI PUSH1 0x2 SSTORE PUSH1 0x1 DUP1 PUSH1 0xA0 SHL SUB NOT PUSH1 0x3 SLOAD AND OR PUSH1 0x3 SSTORE PUSH0 PUSH1 0x5 SSTORE PUSH0 PUSH1 0x6 SSTORE PUSH1 0x40 MLOAD PUSH2 0x4631 SWAP1 DUP2 PUSH2 0x1C3 DUP3 CODECOPY RETURN JUMPDEST PUSH1 0x40 MLOAD PUSH3 0x461BCD PUSH1 0xE5 SHL DUP2 MSTORE PUSH1 0x20 PUSH1 0x4 DUP3 ADD MSTORE PUSH1 0x21 PUSH1 0x24 DUP3 ADD MSTORE PUSH32 0x436F6D6D697373696F6E2070657263656E7461676520697320746F6F20686967 PUSH1 0x44 DUP3 ADD MSTORE PUSH1 0xD PUSH1 0xFB SHL PUSH1 0x64 DUP3 ADD MSTORE PUSH1 0x84 SWAP1 REVERT JUMPDEST PUSH3 0x461BCD PUSH1 0xE5 SHL DUP2 MSTORE PUSH1 0x20 PUSH1 0x4 DUP3 ADD MSTORE PUSH1 0x2F PUSH1 0x24 DUP3 ADD MSTORE PUSH32 0x436F6D6D697373696F6E20726563697069656E742063616E6E6F742062652074 PUSH1 0x44 DUP3 ADD MSTORE PUSH15 0x6865207A65726F2061646472657373 PUSH1 0x88 SHL PUSH1 0x64 DUP3 ADD MSTORE PUSH1 0x84 SWAP1 REVERT JUMPDEST PUSH4 0x1E4FBDF7 PUSH1 0xE0 SHL PUSH0 MSTORE PUSH0 PUSH1 0x4 MSTORE PUSH1 0x24 PUSH0 REVERT JUMPDEST PUSH0 DUP1 REVERT JUMPDEST PUSH4 0x4E487B71 PUSH1 0xE0 SHL PUSH0 MSTORE PUSH1 0x41 PUSH1 0x4 MSTORE PUSH1 0x24 PUSH0 REVERT INVALID PUSH1 0x80 PUSH1 0x40 MSTORE PUSH1 0x4 CALLDATASIZE LT ISZERO PUSH2 0x11 JUMPI PUSH0 DUP1 REVERT JUMPDEST PUSH0 CALLDATALOAD PUSH1 0xE0 SHR DUP1 PUSH3 0x7E8BD3 EQ PUSH2 0x1DA0 JUMPI DUP1 PUSH4 0x44A6DA1 EQ PUSH2 0x120C JUMPI DUP1 PUSH4 0x6FD154A EQ PUSH2 0x1D78 JUMPI DUP1 PUSH4 0x114AEACC EQ PUSH2 0xDAD JUMPI DUP1 PUSH4 0x15F8A314 EQ PUSH2 0x1C3E JUMPI DUP1 PUSH4 0x17B52B50 EQ PUSH2 0x1BDE JUMPI DUP1 PUSH4 0x28D5A050 EQ PUSH2 0x172E JUMPI DUP1 PUSH4 0x30E97AE1 EQ PUSH2 0x1211 JUMPI DUP1 PUSH4 0x367EDD32 EQ PUSH2 0x16B0 JUMPI DUP1 PUSH4 0x39B3EDB0 EQ PUSH2 0x160E JUMPI DUP1 PUSH4 0x3F3E8212 EQ PUSH2 0x13AA JUMPI DUP1 PUSH4 0x4187129C EQ PUSH2 0x1575 JUMPI DUP1 PUSH4 0x41B3A0D9 EQ PUSH2 0x1551 JUMPI DUP1 PUSH4 0x47E7EF24 EQ PUSH2 0x13AF JUMPI DUP1 PUSH4 0x4DFF0036 EQ PUSH2 0x13AA JUMPI DUP1 PUSH4 0x5040125B EQ PUSH2 0x35B JUMPI DUP1 PUSH4 0x51A6FAD5 EQ PUSH2 0x1216 JUMPI DUP1 PUSH4 0x51B7D535 EQ PUSH2 0x1211 JUMPI DUP1 PUSH4 0x706B14F5 EQ PUSH2 0x120C JUMPI DUP1 PUSH4 0x70A08231 EQ PUSH2 0x11CA JUMPI DUP1 PUSH4 0x715018A6 EQ PUSH2 0x1173 JUMPI DUP1 PUSH4 0x7165E542 EQ PUSH2 0x37D JUMPI DUP1 PUSH4 0x80CCB070 EQ PUSH2 0x10C9 JUMPI DUP1 PUSH4 0x81CD872A EQ PUSH2 0xF9F JUMPI DUP1 PUSH4 0x894BA833 EQ PUSH2 0xF2B JUMPI DUP1 PUSH4 0x899A3FFD EQ PUSH2 0xF0E JUMPI DUP1 PUSH4 0x8DA5CB5B EQ PUSH2 0xEE7 JUMPI DUP1 PUSH4 0x8DEEA5FB EQ PUSH2 0xDCF JUMPI DUP1 PUSH4 0x966D1F1D EQ PUSH2 0xDB2 JUMPI DUP1 PUSH4 0xA4F60B16 EQ PUSH2 0xDAD JUMPI DUP1 PUSH4 0xA7170106 EQ PUSH2 0x98C JUMPI DUP1 PUSH4 0xB4A99CCB EQ PUSH2 0x212 JUMPI DUP1 PUSH4 0xB7DC14FE EQ PUSH2 0x217 JUMPI DUP1 PUSH4 0xBB06C1A4 EQ PUSH2 0xA82 JUMPI DUP1 PUSH4 0xBEABACC8 EQ PUSH2 0x991 JUMPI DUP1 PUSH4 0xC23F001F EQ PUSH2 0x21C JUMPI DUP1 PUSH4 0xC99B8965 EQ PUSH2 0x98C JUMPI DUP1 PUSH4 0xCFADF6C7 EQ PUSH2 0x382 JUMPI DUP1 PUSH4 0xD747B811 EQ PUSH2 0x37D JUMPI DUP1 PUSH4 0xE08560A4 EQ PUSH2 0x360 JUMPI DUP1 PUSH4 0xF2D5EC3D EQ PUSH2 0x35B JUMPI DUP1 PUSH4 0xF2FDE38B EQ PUSH2 0x2D6 JUMPI DUP1 PUSH4 0xF3FEF3A3 EQ PUSH2 0x270 JUMPI DUP1 PUSH4 0xF7888AEC EQ PUSH2 0x21C JUMPI DUP1 PUSH4 0xFAA86B4A EQ PUSH2 0x217 JUMPI PUSH4 0xFBB405DB EQ PUSH2 0x212 JUMPI PUSH0 DUP1 REVERT JUMPDEST PUSH2 0x3575 JUMP JUMPDEST PUSH2 0x38C7 JUMP JUMPDEST CALLVALUE PUSH2 0x26C JUMPI PUSH1 0x40 CALLDATASIZE PUSH1 0x3 NOT ADD SLT PUSH2 0x26C JUMPI PUSH2 0x235 PUSH2 0x1E1D JUMP JUMPDEST PUSH2 0x23D PUSH2 0x1E07 JUMP JUMPDEST PUSH1 0x1 PUSH1 0x1 PUSH1 0xA0 SHL SUB SWAP2 DUP3 AND PUSH0 SWAP1 DUP2 MSTORE PUSH1 0x1 PUSH1 0x20 SWAP1 DUP2 MSTORE PUSH1 0x40 DUP1 DUP4 KECCAK256 SWAP5 SWAP1 SWAP4 AND DUP3 MSTORE SWAP3 DUP4 MSTORE DUP2 SWAP1 KECCAK256 SLOAD SWAP1 MLOAD SWAP1 DUP2 MSTORE RETURN JUMPDEST PUSH0 DUP1 REVERT JUMPDEST CALLVALUE PUSH2 0x26C JUMPI PUSH1 0x40 CALLDATASIZE PUSH1 0x3 NOT ADD SLT PUSH2 0x26C JUMPI PUSH1 0x20 PUSH2 0x2CC PUSH2 0x28E PUSH2 0x1E1D JUMP JUMPDEST PUSH1 0x24 CALLDATALOAD SWAP1 CALLER PUSH0 MSTORE PUSH1 0x1 DUP5 MSTORE PUSH1 0x40 PUSH0 KECCAK256 PUSH1 0x1 DUP1 PUSH1 0xA0 SHL SUB DUP3 AND PUSH0 MSTORE DUP5 MSTORE PUSH2 0x2BA DUP3 PUSH1 0x40 PUSH0 KECCAK256 SLOAD LT ISZERO PUSH2 0x3C6E JUMP JUMPDEST PUSH2 0x2C5 DUP3 DUP3 CALLER PUSH2 0x430B JUMP JUMPDEST POP CALLER PUSH2 0x43B2 JUMP JUMPDEST PUSH1 0x40 MLOAD SWAP1 ISZERO ISZERO DUP2 MSTORE RETURN JUMPDEST CALLVALUE PUSH2 0x26C JUMPI PUSH1 0x20 CALLDATASIZE PUSH1 0x3 NOT ADD SLT PUSH2 0x26C JUMPI PUSH2 0x2EF PUSH2 0x1E1D JUMP JUMPDEST PUSH2 0x2F7 PUSH2 0x44DA JUMP JUMPDEST PUSH1 0x1 PUSH1 0x1 PUSH1 0xA0 SHL SUB AND DUP1 ISZERO PUSH2 0x348 JUMPI PUSH0 DUP1 SLOAD PUSH1 0x1 PUSH1 0x1 PUSH1 0xA0 SHL SUB NOT DUP2 AND DUP4 OR DUP3 SSTORE PUSH1 0x1 PUSH1 0x1 PUSH1 0xA0 SHL SUB AND SWAP1 PUSH32 0x8BE0079C531659141344CD1FD0A4F28419497F9722A3DAAFE3B4186F6B6457E0 SWAP1 DUP1 LOG3 STOP JUMPDEST PUSH4 0x1E4FBDF7 PUSH1 0xE0 SHL PUSH0 MSTORE PUSH0 PUSH1 0x4 MSTORE PUSH1 0x24 PUSH0 REVERT JUMPDEST PUSH2 0x2DA3 JUMP JUMPDEST CALLVALUE PUSH2 0x26C JUMPI PUSH0 CALLDATASIZE PUSH1 0x3 NOT ADD SLT PUSH2 0x26C JUMPI PUSH1 0x20 PUSH1 0x6 SLOAD PUSH1 0x40 MLOAD SWAP1 DUP2 MSTORE RETURN JUMPDEST PUSH2 0x3025 JUMP JUMPDEST PUSH2 0x38B CALLDATASIZE PUSH2 0x1E33 JUMP JUMPDEST SWAP2 SWAP1 SWAP5 SWAP9 SWAP6 SWAP4 SWAP8 SWAP7 SWAP3 PUSH1 0xFF PUSH0 SLOAD PUSH1 0xA0 SHR AND PUSH2 0x3A5 DUP2 PUSH2 0x3C22 JUMP JUMPDEST CALLER PUSH0 MSTORE PUSH1 0x1 PUSH1 0x20 MSTORE PUSH1 0x40 PUSH0 KECCAK256 PUSH1 0x1 DUP1 PUSH1 0xA0 SHL SUB DUP4 AND PUSH0 MSTORE PUSH1 0x20 MSTORE PUSH1 0x40 PUSH0 KECCAK256 SLOAD DUP6 DUP2 LT PUSH2 0x6C0 JUMPI JUMPDEST POP POP SWAP5 PUSH2 0x418 SWAP3 SWAP2 DUP7 PUSH2 0x3E3 DUP7 PUSH2 0x220 SWAP10 CALLER PUSH2 0x430B JUMP JUMPDEST POP PUSH20 0x0 SWAP11 PUSH1 0x40 MLOAD SWAP13 DUP14 SWAP9 DUP10 SWAP9 PUSH4 0x652E83D7 PUSH1 0xE0 SHL DUP11 MSTORE DUP14 DUP14 CALLER PUSH1 0x4 DUP14 ADD PUSH2 0x3E3E JUMP JUMPDEST SUB DUP2 DUP7 GAS DELEGATECALL SWAP4 DUP5 ISZERO PUSH2 0x684 JUMPI PUSH0 SWAP5 PUSH2 0x68F JUMPI JUMPDEST POP PUSH1 0x20 PUSH1 0x5 SLOAD PUSH2 0x244 PUSH1 0x40 MLOAD DUP1 SWAP7 DUP2 SWAP4 PUSH4 0x797D4EE1 PUSH1 0xE0 SHL DUP4 MSTORE PUSH2 0x452 PUSH1 0x4 DUP5 ADD DUP12 PUSH2 0x2F36 JUMP JUMPDEST PUSH2 0x224 DUP4 ADD MSTORE GAS DELEGATECALL SWAP3 DUP4 ISZERO PUSH2 0x684 JUMPI PUSH0 SWAP4 PUSH2 0x650 JUMPI JUMPDEST POP PUSH2 0x474 PUSH1 0x5 SLOAD PUSH2 0x3EAA JUMP JUMPDEST PUSH1 0x5 SSTORE PUSH0 DUP4 DUP2 MSTORE PUSH1 0x4 PUSH1 0x20 SWAP1 DUP2 MSTORE PUSH1 0x40 SWAP2 DUP3 SWAP1 KECCAK256 DUP7 MLOAD DUP2 SLOAD PUSH1 0x1 PUSH1 0x1 PUSH1 0xA0 SHL SUB SWAP2 DUP3 AND PUSH1 0x1 PUSH1 0x1 PUSH1 0xA0 SHL SUB NOT SWAP2 DUP3 AND OR DUP4 SSTORE SWAP3 DUP9 ADD MLOAD PUSH1 0x1 DUP4 ADD DUP1 SLOAD SWAP2 DUP4 AND SWAP2 SWAP1 SWAP5 AND OR SWAP1 SWAP3 SSTORE SWAP2 DUP7 ADD MLOAD PUSH1 0x2 DUP4 ADD DUP1 SLOAD PUSH1 0x60 DUP10 ADD MLOAD PUSH1 0xFF PUSH1 0xA0 SHL SWAP1 ISZERO ISZERO PUSH1 0xA0 SHL AND SWAP3 SWAP1 SWAP4 AND PUSH1 0x1 PUSH1 0x1 PUSH1 0xA8 SHL SUB NOT SWAP1 SWAP4 AND SWAP3 SWAP1 SWAP3 OR OR DUP2 SSTORE PUSH2 0x200 SWAP2 PUSH1 0xC SWAP2 PUSH2 0x54D SWAP1 JUMPDEST PUSH1 0x80 DUP10 ADD MLOAD DUP2 SLOAD PUSH1 0xFF PUSH1 0xA8 SHL NOT AND SWAP1 ISZERO ISZERO PUSH1 0xA8 SHL PUSH1 0xFF PUSH1 0xA8 SHL AND OR DUP2 SSTORE PUSH1 0xA0 DUP10 ADD MLOAD DUP2 SLOAD PUSH1 0xC0 DUP12 ADD MLOAD PUSH2 0xFFFF PUSH1 0xB0 SHL NOT SWAP1 SWAP2 AND SWAP2 ISZERO ISZERO PUSH1 0xB0 SHL PUSH1 0xFF PUSH1 0xB0 SHL AND SWAP2 SWAP1 SWAP2 OR SWAP1 ISZERO ISZERO PUSH1 0xB8 SHL PUSH1 0xFF PUSH1 0xB8 SHL AND OR SWAP1 SSTORE JUMP JUMPDEST PUSH1 0xE0 DUP8 ADD MLOAD PUSH1 0x3 DUP3 ADD SSTORE PUSH2 0x100 DUP8 ADD MLOAD PUSH1 0x4 DUP3 ADD SSTORE PUSH2 0x120 DUP8 ADD MLOAD PUSH1 0x5 DUP3 ADD SSTORE PUSH2 0x140 DUP8 ADD MLOAD PUSH1 0x6 DUP1 DUP4 ADD SWAP2 SWAP1 SWAP2 SSTORE PUSH2 0x160 DUP9 ADD MLOAD PUSH1 0x7 DUP4 ADD SSTORE PUSH2 0x180 DUP9 ADD MLOAD PUSH1 0x8 DUP4 ADD SSTORE PUSH2 0x1A0 DUP9 ADD MLOAD PUSH1 0x9 DUP4 ADD DUP1 SLOAD PUSH1 0x1 PUSH1 0x1 PUSH1 0xA0 SHL SUB SWAP3 DUP4 AND PUSH1 0x1 PUSH1 0x1 PUSH1 0xA0 SHL SUB NOT SWAP2 DUP3 AND OR SWAP1 SWAP2 SSTORE PUSH2 0x1C0 DUP11 ADD MLOAD PUSH1 0xA DUP6 ADD DUP1 SLOAD SWAP2 SWAP1 SWAP4 AND SWAP2 AND OR SWAP1 SSTORE PUSH2 0x1E0 DUP9 ADD MLOAD PUSH1 0xB DUP4 ADD SSTORE SWAP3 SWAP1 SWAP7 ADD MLOAD SWAP6 ADD SWAP1 DUP6 LT ISZERO PUSH2 0x63C JUMPI PUSH1 0x20 SWAP5 PUSH1 0xFF DUP1 NOT DUP4 SLOAD AND SWAP2 AND OR SWAP1 SSTORE PUSH1 0x40 MLOAD SWAP2 PUSH1 0x1 DUP1 PUSH1 0xA0 SHL SUB AND DUP3 MSTORE PUSH1 0x1 DUP1 PUSH1 0xA0 SHL SUB AND SWAP1 DUP3 PUSH32 0x44E1FF8E67FAD6B456BD43FF165BA4E9BB004370AA27A76881C6ACB60DFD6DD9 DUP6 CALLER SWAP4 LOG4 PUSH1 0x40 MLOAD SWAP1 DUP2 MSTORE RETURN JUMPDEST PUSH4 0x4E487B71 PUSH1 0xE0 SHL PUSH0 MSTORE PUSH1 0x21 PUSH1 0x4 MSTORE PUSH1 0x24 PUSH0 REVERT JUMPDEST SWAP1 SWAP3 POP PUSH1 0x20 DUP2 RETURNDATASIZE PUSH1 0x20 GT PUSH2 0x67C JUMPI JUMPDEST DUP2 PUSH2 0x66C PUSH1 0x20 SWAP4 DUP4 PUSH2 0x3CE2 JUMP JUMPDEST DUP2 ADD SUB SLT PUSH2 0x26C JUMPI MLOAD SWAP2 DUP5 PUSH2 0x468 JUMP JUMPDEST RETURNDATASIZE SWAP2 POP PUSH2 0x65F JUMP JUMPDEST PUSH1 0x40 MLOAD RETURNDATASIZE PUSH0 DUP3 RETURNDATACOPY RETURNDATASIZE SWAP1 REVERT JUMPDEST PUSH2 0x6B2 SWAP2 SWAP5 POP PUSH2 0x220 RETURNDATASIZE DUP2 GT PUSH2 0x6B9 JUMPI JUMPDEST PUSH2 0x6AA DUP2 DUP4 PUSH2 0x3CE2 JUMP JUMPDEST DUP2 ADD SWAP1 PUSH2 0x3D25 JUMP JUMPDEST SWAP3 DUP5 PUSH2 0x42B JUMP JUMPDEST POP RETURNDATASIZE PUSH2 0x6A0 JUMP JUMPDEST PUSH2 0x6D3 PUSH2 0x6D9 SWAP2 DUP8 SWAP10 SWAP5 SWAP7 SWAP6 SWAP4 SWAP10 PUSH2 0x3F18 JUMP JUMPDEST SWAP8 PUSH2 0x3C22 JUMP JUMPDEST DUP7 ISZERO PUSH2 0x938 JUMPI PUSH1 0x2 SLOAD SWAP4 PUSH1 0x40 MLOAD SWAP5 PUSH4 0x1C8F0847 PUSH1 0xE0 SHL DUP7 MSTORE DUP9 PUSH1 0x4 DUP8 ADD MSTORE PUSH1 0x24 DUP7 ADD MSTORE PUSH1 0x20 DUP6 PUSH1 0x44 DUP2 PUSH20 0x0 GAS DELEGATECALL SWAP5 DUP6 ISZERO PUSH2 0x684 JUMPI PUSH0 SWAP6 PUSH2 0x904 JUMPI JUMPDEST POP PUSH1 0x1 PUSH1 0x1 PUSH1 0xA0 SHL SUB DUP2 AND DUP1 PUSH2 0x7F3 JUMPI PUSH2 0x741 DUP7 DUP11 PUSH2 0x4102 JUMP JUMPDEST CALLVALUE SUB PUSH2 0x79F JUMPI DUP9 PUSH2 0x418 SWAP7 PUSH2 0x75A PUSH2 0x220 SWAP12 DUP6 CALLER PUSH2 0x4500 JUMP JUMPDEST POP PUSH1 0x3 SLOAD PUSH2 0x774 SWAP1 DUP3 SWAP1 DUP7 SWAP1 PUSH1 0x1 PUSH1 0x1 PUSH1 0xA0 SHL SUB AND PUSH2 0x4500 JUMP JUMPDEST POP JUMPDEST PUSH1 0x40 MLOAD SWAP2 DUP3 MSTORE PUSH1 0x20 DUP3 ADD MSTORE PUSH0 MLOAD PUSH1 0x20 PUSH2 0x45DC PUSH0 CODECOPY PUSH0 MLOAD SWAP1 PUSH0 MSTORE PUSH1 0x40 CALLER SWAP3 LOG3 SWAP2 SWAP7 DUP2 SWAP4 SWAP5 POP PUSH2 0x3CC JUMP JUMPDEST PUSH1 0x40 MLOAD PUSH3 0x461BCD PUSH1 0xE5 SHL DUP2 MSTORE PUSH1 0x20 PUSH1 0x4 DUP3 ADD MSTORE PUSH1 0x26 PUSH1 0x24 DUP3 ADD MSTORE PUSH32 0x4D61696E6E657420746F6B656E206465706F73697420616D6F756E74206D6973 PUSH1 0x44 DUP3 ADD MSTORE PUSH6 0x36B0BA31B417 PUSH1 0xD1 SHL PUSH1 0x64 DUP3 ADD MSTORE PUSH1 0x84 SWAP1 REVERT JUMPDEST PUSH2 0x7FD DUP7 DUP11 PUSH2 0x4102 JUMP JUMPDEST PUSH1 0x40 MLOAD SWAP1 PUSH4 0x23B872DD PUSH1 0xE0 SHL DUP3 MSTORE CALLER PUSH1 0x4 DUP4 ADD MSTORE ADDRESS PUSH1 0x24 DUP4 ADD MSTORE PUSH1 0x44 DUP3 ADD MSTORE PUSH1 0x20 DUP2 PUSH1 0x64 DUP2 PUSH0 DUP7 GAS CALL SWAP1 DUP2 ISZERO PUSH2 0x684 JUMPI PUSH0 SWAP2 PUSH2 0x8CA JUMPI JUMPDEST POP ISZERO PUSH2 0x86D JUMPI DUP9 PUSH2 0x418 SWAP7 PUSH2 0x84D PUSH2 0x220 SWAP12 DUP6 CALLER PUSH2 0x4500 JUMP JUMPDEST POP PUSH1 0x3 SLOAD PUSH2 0x867 SWAP1 DUP3 SWAP1 DUP7 SWAP1 PUSH1 0x1 PUSH1 0x1 PUSH1 0xA0 SHL SUB AND PUSH2 0x4500 JUMP JUMPDEST POP PUSH2 0x776 JUMP JUMPDEST PUSH1 0x40 MLOAD PUSH3 0x461BCD PUSH1 0xE5 SHL DUP2 MSTORE PUSH1 0x20 PUSH1 0x4 DUP3 ADD MSTORE PUSH1 0x2F PUSH1 0x24 DUP3 ADD MSTORE PUSH32 0x436F6E74726163742068617320746F6F206C6F7720616C6C6F77616E63652074 PUSH1 0x44 DUP3 ADD MSTORE PUSH15 0x6F20726563656976652066756E6473 PUSH1 0x88 SHL PUSH1 0x64 DUP3 ADD MSTORE PUSH1 0x84 SWAP1 REVERT JUMPDEST SWAP1 POP PUSH1 0x20 DUP2 RETURNDATASIZE PUSH1 0x20 GT PUSH2 0x8FC JUMPI JUMPDEST DUP2 PUSH2 0x8E5 PUSH1 0x20 SWAP4 DUP4 PUSH2 0x3CE2 JUMP JUMPDEST DUP2 ADD SUB SLT PUSH2 0x26C JUMPI PUSH2 0x8F6 SWAP1 PUSH2 0x3D18 JUMP JUMPDEST DUP15 PUSH2 0x834 JUMP JUMPDEST RETURNDATASIZE SWAP2 POP PUSH2 0x8D8 JUMP JUMPDEST SWAP1 SWAP5 POP PUSH1 0x20 DUP2 RETURNDATASIZE PUSH1 0x20 GT PUSH2 0x930 JUMPI JUMPDEST DUP2 PUSH2 0x920 PUSH1 0x20 SWAP4 DUP4 PUSH2 0x3CE2 JUMP JUMPDEST DUP2 ADD SUB SLT PUSH2 0x26C JUMPI MLOAD SWAP4 DUP13 PUSH2 0x727 JUMP JUMPDEST RETURNDATASIZE SWAP2 POP PUSH2 0x913 JUMP JUMPDEST PUSH1 0x40 MLOAD PUSH3 0x461BCD PUSH1 0xE5 SHL DUP2 MSTORE PUSH1 0x20 PUSH1 0x4 DUP3 ADD MSTORE PUSH1 0x26 PUSH1 0x24 DUP3 ADD MSTORE PUSH32 0x4465706F73697420616D6F756E74206D75737420626520677265617465722074 PUSH1 0x44 DUP3 ADD MSTORE PUSH6 0x3430B7101817 PUSH1 0xD1 SHL PUSH1 0x64 DUP3 ADD MSTORE PUSH1 0x84 SWAP1 REVERT JUMPDEST PUSH2 0x31BE JUMP JUMPDEST CALLVALUE PUSH2 0x26C JUMPI PUSH1 0x60 CALLDATASIZE PUSH1 0x3 NOT ADD SLT PUSH2 0x26C JUMPI PUSH2 0x9AA PUSH2 0x1E1D JUMP JUMPDEST PUSH2 0x9B2 PUSH2 0x1E07 JUMP JUMPDEST PUSH1 0x44 CALLDATALOAD SWAP2 CALLER PUSH0 MSTORE PUSH1 0x1 PUSH1 0x20 MSTORE PUSH1 0x40 PUSH0 KECCAK256 PUSH1 0x1 DUP1 PUSH1 0xA0 SHL SUB DUP4 AND PUSH0 MSTORE PUSH1 0x20 MSTORE PUSH2 0x9E0 DUP4 PUSH1 0x40 PUSH0 KECCAK256 SLOAD LT ISZERO PUSH2 0x3C6E JUMP JUMPDEST CALLER PUSH0 MSTORE PUSH1 0x1 PUSH1 0x20 MSTORE PUSH1 0x40 PUSH0 KECCAK256 PUSH1 0x1 DUP1 PUSH1 0xA0 SHL SUB DUP4 AND PUSH0 MSTORE PUSH1 0x20 MSTORE PUSH1 0x40 PUSH0 KECCAK256 PUSH2 0xA09 DUP5 DUP3 SLOAD PUSH2 0x3F18 JUMP JUMPDEST SWAP1 SSTORE PUSH1 0x1 DUP1 PUSH1 0xA0 SHL SUB AND SWAP1 DUP2 PUSH0 MSTORE PUSH1 0x1 PUSH1 0x20 MSTORE PUSH1 0x40 PUSH0 KECCAK256 PUSH1 0x1 DUP1 PUSH1 0xA0 SHL SUB DUP3 AND PUSH0 MSTORE PUSH1 0x20 MSTORE PUSH1 0x40 PUSH0 KECCAK256 PUSH2 0xA3D DUP5 DUP3 SLOAD PUSH2 0x4102 JUMP JUMPDEST SWAP1 SSTORE PUSH1 0x40 MLOAD SWAP3 DUP4 MSTORE PUSH1 0x1 PUSH1 0x1 PUSH1 0xA0 SHL SUB AND SWAP2 CALLER SWAP1 PUSH32 0xD1398BEE19313D6BF672CCB116E51F4A1A947E91C757907F51FBB5B5E56C698F SWAP1 PUSH1 0x20 SWAP1 LOG4 PUSH1 0x20 PUSH1 0x40 MLOAD PUSH1 0x1 DUP2 MSTORE RETURN JUMPDEST PUSH1 0x20 CALLDATASIZE PUSH1 0x3 NOT ADD SLT PUSH2 0x26C JUMPI PUSH1 0x4 CALLDATALOAD DUP1 PUSH0 MSTORE PUSH1 0x4 PUSH1 0x20 MSTORE PUSH1 0x40 PUSH0 KECCAK256 SWAP1 PUSH1 0x1 DUP3 ADD SWAP2 PUSH2 0xAB7 PUSH1 0x1 DUP1 PUSH1 0xA0 SHL SUB DUP5 SLOAD AND CALLER EQ PUSH2 0x410F JUMP JUMPDEST PUSH1 0x2 DUP2 ADD SWAP1 PUSH2 0xAF5 DUP3 SLOAD PUSH2 0xAD0 PUSH1 0xFF DUP3 PUSH1 0xB0 SHR AND PUSH2 0x416A JUMP JUMPDEST PUSH2 0xAE0 PUSH1 0xFF DUP3 PUSH1 0xB8 SHR AND ISZERO PUSH2 0x41AF JUMP JUMPDEST PUSH1 0xFF DUP2 PUSH1 0xA0 SHR AND ISZERO SWAP1 DUP2 PUSH2 0xD9E JUMPI JUMPDEST POP PUSH2 0x3ECC JUMP JUMPDEST PUSH1 0xA DUP2 ADD DUP1 SLOAD CALLER PUSH0 SWAP1 DUP2 MSTORE PUSH1 0x1 PUSH1 0x20 SWAP1 DUP2 MSTORE PUSH1 0x40 DUP1 DUP4 KECCAK256 PUSH1 0x1 PUSH1 0x1 PUSH1 0xA0 SHL SUB SWAP1 SWAP5 AND DUP1 DUP5 MSTORE SWAP4 SWAP1 SWAP2 MSTORE SWAP1 KECCAK256 SLOAD SWAP1 SWAP2 SWAP1 PUSH1 0x6 DUP5 ADD SLOAD DUP2 LT PUSH2 0xBE8 JUMPI JUMPDEST POP SLOAD PUSH1 0x4 DUP4 ADD SLOAD PUSH2 0xB4C SWAP3 POP SWAP1 PUSH1 0x1 PUSH1 0x1 PUSH1 0xA0 SHL SUB AND CALLER PUSH2 0x430B JUMP JUMPDEST POP DUP2 SLOAD PUSH1 0x1 PUSH1 0xB8 SHL PUSH1 0xFF PUSH1 0xB8 SHL NOT DUP3 AND OR SWAP1 SWAP3 SSTORE SLOAD SWAP3 SLOAD PUSH1 0x40 MLOAD PUSH1 0x1 PUSH1 0x1 PUSH1 0xA0 SHL SUB SWAP3 DUP4 AND DUP1 DUP3 MSTORE SWAP5 SWAP2 DUP4 AND SWAP3 SWAP1 SWAP2 AND SWAP1 DUP4 SWAP1 PUSH32 0x5E02698C1650D6CBE1F7E8A48609D0DA45AD7F5E4C13CD8B196F82965C0AB0D5 SWAP1 PUSH1 0x20 SWAP1 LOG4 DUP2 PUSH2 0xBB6 JUMPI JUMPDEST PUSH1 0x20 PUSH1 0x40 MLOAD PUSH1 0x1 DUP2 MSTORE RETURN JUMPDEST PUSH1 0x20 PUSH32 0x957372C0E02D2882134CC0EEBBEF9E446634D8CCBB1CBB112BDEFDD3CF0A643C SWAP2 PUSH1 0x40 MLOAD SWAP1 DUP2 MSTORE LOG2 DUP1 DUP1 PUSH2 0xBAB JUMP JUMPDEST PUSH2 0xBF6 SWAP1 PUSH1 0x4 DUP6 ADD SLOAD PUSH2 0x3F18 JUMP JUMPDEST SWAP2 PUSH2 0xC07 PUSH1 0xFF PUSH0 SLOAD PUSH1 0xA0 SHR AND PUSH2 0x3C22 JUMP JUMPDEST DUP3 ISZERO PUSH2 0x938 JUMPI PUSH1 0x2 SLOAD SWAP3 PUSH1 0x40 MLOAD SWAP4 PUSH4 0x1C8F0847 PUSH1 0xE0 SHL DUP6 MSTORE DUP2 PUSH1 0x4 DUP7 ADD MSTORE PUSH1 0x24 DUP6 ADD MSTORE PUSH1 0x20 DUP5 PUSH1 0x44 DUP2 PUSH20 0x0 GAS DELEGATECALL SWAP4 DUP5 ISZERO PUSH2 0x684 JUMPI PUSH0 SWAP5 PUSH2 0xD6A JUMPI JUMPDEST POP DUP2 PUSH2 0xCBA JUMPI PUSH2 0xC65 DUP5 DUP3 PUSH2 0x4102 JUMP JUMPDEST CALLVALUE SUB PUSH2 0x79F JUMPI PUSH2 0xB4C SWAP4 PUSH2 0xC7A DUP3 DUP5 CALLER PUSH2 0x4500 JUMP JUMPDEST POP PUSH1 0x3 SLOAD PUSH2 0xC94 SWAP1 DUP3 SWAP1 DUP6 SWAP1 PUSH1 0x1 PUSH1 0x1 PUSH1 0xA0 SHL SUB AND PUSH2 0x4500 JUMP JUMPDEST POP JUMPDEST PUSH1 0x40 MLOAD SWAP2 DUP3 MSTORE PUSH1 0x20 DUP3 ADD MSTORE PUSH0 MLOAD PUSH1 0x20 PUSH2 0x45DC PUSH0 CODECOPY PUSH0 MLOAD SWAP1 PUSH0 MSTORE PUSH1 0x40 CALLER SWAP3 LOG3 DUP7 PUSH2 0xB30 JUMP JUMPDEST PUSH2 0xCC4 DUP5 DUP3 PUSH2 0x4102 JUMP JUMPDEST PUSH1 0x40 MLOAD SWAP1 PUSH4 0x23B872DD PUSH1 0xE0 SHL DUP3 MSTORE CALLER PUSH1 0x4 DUP4 ADD MSTORE ADDRESS PUSH1 0x24 DUP4 ADD MSTORE PUSH1 0x44 DUP3 ADD MSTORE PUSH1 0x20 DUP2 PUSH1 0x64 DUP2 PUSH0 DUP8 GAS CALL SWAP1 DUP2 ISZERO PUSH2 0x684 JUMPI PUSH0 SWAP2 PUSH2 0xD30 JUMPI JUMPDEST POP ISZERO PUSH2 0x86D JUMPI PUSH2 0xB4C SWAP4 PUSH2 0xD10 DUP3 DUP5 CALLER PUSH2 0x4500 JUMP JUMPDEST POP PUSH1 0x3 SLOAD PUSH2 0xD2A SWAP1 DUP3 SWAP1 DUP6 SWAP1 PUSH1 0x1 PUSH1 0x1 PUSH1 0xA0 SHL SUB AND PUSH2 0x4500 JUMP JUMPDEST POP PUSH2 0xC96 JUMP JUMPDEST SWAP1 POP PUSH1 0x20 DUP2 RETURNDATASIZE PUSH1 0x20 GT PUSH2 0xD62 JUMPI JUMPDEST DUP2 PUSH2 0xD4B PUSH1 0x20 SWAP4 DUP4 PUSH2 0x3CE2 JUMP JUMPDEST DUP2 ADD SUB SLT PUSH2 0x26C JUMPI PUSH2 0xD5C SWAP1 PUSH2 0x3D18 JUMP JUMPDEST DUP10 PUSH2 0xCFB JUMP JUMPDEST RETURNDATASIZE SWAP2 POP PUSH2 0xD3E JUMP JUMPDEST SWAP1 SWAP4 POP PUSH1 0x20 DUP2 RETURNDATASIZE PUSH1 0x20 GT PUSH2 0xD96 JUMPI JUMPDEST DUP2 PUSH2 0xD86 PUSH1 0x20 SWAP4 DUP4 PUSH2 0x3CE2 JUMP JUMPDEST DUP2 ADD SUB SLT PUSH2 0x26C JUMPI MLOAD SWAP3 DUP9 PUSH2 0xC55 JUMP JUMPDEST RETURNDATASIZE SWAP2 POP PUSH2 0xD79 JUMP JUMPDEST PUSH1 0xFF SWAP2 POP PUSH1 0xA8 SHR AND ISZERO DUP7 PUSH2 0xAEF JUMP JUMPDEST PUSH2 0x2638 JUMP JUMPDEST CALLVALUE PUSH2 0x26C JUMPI PUSH0 CALLDATASIZE PUSH1 0x3 NOT ADD SLT PUSH2 0x26C JUMPI PUSH1 0x20 PUSH1 0x5 SLOAD PUSH1 0x40 MLOAD SWAP1 DUP2 MSTORE RETURN JUMPDEST CALLVALUE PUSH2 0x26C JUMPI PUSH1 0x20 CALLDATASIZE PUSH1 0x3 NOT ADD SLT PUSH2 0x26C JUMPI PUSH1 0x4 CALLDATALOAD DUP1 PUSH0 MSTORE PUSH1 0x4 PUSH1 0x20 MSTORE PUSH1 0x40 PUSH0 KECCAK256 SWAP1 PUSH1 0x1 DUP3 ADD SWAP1 PUSH1 0x1 DUP1 PUSH1 0xA0 SHL SUB DUP3 SLOAD AND CALLER EQ DUP1 ISZERO PUSH2 0xED4 JUMPI JUMPDEST PUSH2 0xE11 SWAP1 PUSH2 0x4264 JUMP JUMPDEST PUSH0 MLOAD PUSH1 0x20 PUSH2 0x457C PUSH0 CODECOPY PUSH0 MLOAD SWAP1 PUSH0 MSTORE PUSH2 0xEA9 PUSH1 0x2 DUP6 ADD SWAP5 PUSH2 0xE57 DUP7 SLOAD PUSH1 0xFF DUP2 PUSH1 0xB8 SHR AND ISZERO DUP1 PUSH2 0xEC6 JUMPI JUMPDEST PUSH2 0xE43 SWAP1 PUSH2 0x42BF JUMP JUMPDEST PUSH1 0xFF DUP2 PUSH1 0xA0 SHR AND ISZERO SWAP1 DUP2 PUSH2 0xEB7 JUMPI POP PUSH2 0x3ECC JUMP JUMPDEST DUP1 SLOAD PUSH1 0x9 DUP3 ADD SLOAD PUSH1 0x5 DUP4 ADD SLOAD PUSH2 0xE7B SWAP3 SWAP1 SWAP2 PUSH1 0x1 PUSH1 0x1 PUSH1 0xA0 SHL SUB SWAP1 DUP2 AND SWAP2 AND PUSH2 0x4500 JUMP JUMPDEST POP SLOAD SWAP4 SLOAD SWAP5 SLOAD PUSH1 0x40 DUP1 MLOAD PUSH1 0x1 PUSH1 0x1 PUSH1 0xA0 SHL SUB SWAP3 DUP4 AND DUP2 MSTORE CALLER PUSH1 0x20 DUP3 ADD MSTORE SWAP7 DUP3 AND SWAP7 SWAP6 SWAP1 SWAP2 AND SWAP5 SWAP2 DUP3 SWAP2 DUP3 ADD SWAP1 JUMP JUMPDEST SUB SWAP1 LOG4 PUSH1 0x20 PUSH1 0x40 MLOAD PUSH1 0x1 DUP2 MSTORE RETURN JUMPDEST PUSH1 0xFF SWAP2 POP PUSH1 0xA8 SHR AND ISZERO DUP9 PUSH2 0xAEF JUMP JUMPDEST POP PUSH1 0xB0 DUP2 SWAP1 SHR PUSH1 0xFF AND PUSH2 0xE3A JUMP JUMPDEST POP DUP3 SLOAD PUSH1 0x1 PUSH1 0x1 PUSH1 0xA0 SHL SUB AND CALLER EQ PUSH2 0xE08 JUMP JUMPDEST CALLVALUE PUSH2 0x26C JUMPI PUSH0 CALLDATASIZE PUSH1 0x3 NOT ADD SLT PUSH2 0x26C JUMPI PUSH0 SLOAD PUSH1 0x40 MLOAD PUSH1 0x1 PUSH1 0x1 PUSH1 0xA0 SHL SUB SWAP1 SWAP2 AND DUP2 MSTORE PUSH1 0x20 SWAP1 RETURN JUMPDEST CALLVALUE PUSH2 0x26C JUMPI PUSH0 CALLDATASIZE PUSH1 0x3 NOT ADD SLT PUSH2 0x26C JUMPI PUSH1 0x20 PUSH1 0x2 SLOAD PUSH1 0x40 MLOAD SWAP1 DUP2 MSTORE RETURN JUMPDEST CALLVALUE PUSH2 0x26C JUMPI PUSH0 CALLDATASIZE PUSH1 0x3 NOT ADD SLT PUSH2 0x26C JUMPI PUSH2 0xF43 PUSH2 0x44DA JUMP JUMPDEST PUSH1 0xFF PUSH1 0xA0 SHL NOT PUSH0 SLOAD AND PUSH0 SSTORE PUSH32 0x17904E4FE7D59BB4603C7C045BC275A05DA9EA3A4AC007FC80FFFEAF119186D PUSH1 0x20 PUSH1 0x40 MLOAD PUSH0 DUP2 MSTORE LOG1 CALLER PUSH32 0x793BC6423DD0257D64F9D47DB72FD4B2162F4541AA41740BA1C5FB5E2CD41BCD PUSH0 DUP1 LOG2 STOP JUMPDEST CALLVALUE PUSH2 0x26C JUMPI PUSH1 0x20 CALLDATASIZE PUSH1 0x3 NOT ADD SLT PUSH2 0x26C JUMPI PUSH1 0x4 CALLDATALOAD PUSH0 MSTORE PUSH1 0x4 PUSH1 0x20 MSTORE PUSH1 0x40 PUSH0 KECCAK256 PUSH1 0x1 PUSH1 0xA0 SHL PUSH1 0x1 SWAP1 SUB DUP2 SLOAD AND SWAP1 PUSH1 0x1 PUSH1 0xA0 SHL PUSH1 0x1 SWAP1 SUB PUSH1 0x1 DUP3 ADD SLOAD AND SWAP1 PUSH1 0x2 DUP2 ADD SLOAD PUSH1 0x3 DUP3 ADD SLOAD PUSH1 0x4 DUP4 ADD SLOAD PUSH1 0x5 DUP5 ADD SLOAD PUSH1 0x6 DUP6 ADD SLOAD PUSH1 0x7 DUP7 ADD SLOAD SWAP2 PUSH1 0x8 DUP8 ADD SLOAD SWAP4 PUSH1 0x1 PUSH1 0xA0 SHL PUSH1 0x1 SWAP1 SUB PUSH1 0x9 DUP10 ADD SLOAD AND SWAP6 PUSH1 0x1 PUSH1 0xA0 SHL PUSH1 0x1 SWAP1 SUB PUSH1 0xA DUP11 ADD SLOAD AND SWAP8 PUSH1 0xB DUP11 ADD SLOAD SWAP10 PUSH1 0xC ADD SLOAD PUSH1 0xFF AND SWAP11 PUSH1 0x40 MLOAD SWAP13 DUP14 MSTORE PUSH1 0x20 DUP14 ADD MSTORE PUSH1 0x1 PUSH1 0xA0 SHL PUSH1 0x1 SWAP1 SUB DUP2 AND PUSH1 0x40 DUP14 ADD MSTORE DUP1 PUSH1 0xA0 SHR PUSH1 0xFF AND ISZERO ISZERO PUSH1 0x60 DUP14 ADD MSTORE DUP1 PUSH1 0xA8 SHR PUSH1 0xFF AND ISZERO ISZERO PUSH1 0x80 DUP14 ADD MSTORE DUP1 PUSH1 0xB0 SHR PUSH1 0xFF AND ISZERO ISZERO PUSH1 0xA0 DUP14 ADD MSTORE PUSH1 0xB8 SHR PUSH1 0xFF AND ISZERO ISZERO PUSH1 0xC0 DUP13 ADD MSTORE PUSH1 0xE0 DUP12 ADD MSTORE PUSH2 0x100 DUP11 ADD MSTORE PUSH2 0x120 DUP10 ADD MSTORE PUSH2 0x140 DUP9 ADD MSTORE PUSH2 0x160 DUP8 ADD MSTORE PUSH2 0x180 DUP7 ADD MSTORE PUSH2 0x1A0 DUP6 ADD MSTORE PUSH2 0x1C0 DUP5 ADD MSTORE PUSH2 0x1E0 DUP4 ADD MSTORE PUSH2 0x200 DUP3 ADD PUSH2 0x10C3 SWAP2 PUSH2 0x2F29 JUMP JUMPDEST PUSH2 0x220 SWAP1 RETURN JUMPDEST CALLVALUE PUSH2 0x26C JUMPI PUSH1 0x20 CALLDATASIZE PUSH1 0x3 NOT ADD SLT PUSH2 0x26C JUMPI PUSH1 0x4 CALLDATALOAD DUP1 PUSH0 MSTORE PUSH1 0x4 PUSH1 0x20 MSTORE PUSH1 0x40 PUSH0 KECCAK256 SWAP1 PUSH1 0x1 DUP3 ADD SWAP1 PUSH1 0x1 DUP1 PUSH1 0xA0 SHL SUB DUP3 SLOAD AND CALLER EQ DUP1 ISZERO PUSH2 0x1160 JUMPI JUMPDEST PUSH2 0x110B SWAP1 PUSH2 0x4264 JUMP JUMPDEST PUSH0 MLOAD PUSH1 0x20 PUSH2 0x457C PUSH0 CODECOPY PUSH0 MLOAD SWAP1 PUSH0 MSTORE PUSH2 0xEA9 PUSH1 0x2 DUP6 ADD SWAP5 PUSH2 0x113C DUP7 SLOAD PUSH1 0xFF DUP2 PUSH1 0xB8 SHR AND ISZERO DUP1 PUSH2 0xEC6 JUMPI PUSH2 0xE43 SWAP1 PUSH2 0x42BF JUMP JUMPDEST DUP1 SLOAD PUSH1 0x9 DUP3 ADD SLOAD PUSH1 0x5 DUP4 ADD SLOAD PUSH2 0xE7B SWAP3 SWAP1 SWAP2 PUSH1 0x1 PUSH1 0x1 PUSH1 0xA0 SHL SUB SWAP1 DUP2 AND SWAP2 AND PUSH2 0x43B2 JUMP JUMPDEST POP DUP3 SLOAD PUSH1 0x1 PUSH1 0x1 PUSH1 0xA0 SHL SUB AND CALLER EQ PUSH2 0x1102 JUMP JUMPDEST CALLVALUE PUSH2 0x26C JUMPI PUSH0 CALLDATASIZE PUSH1 0x3 NOT ADD SLT PUSH2 0x26C JUMPI PUSH2 0x118B PUSH2 0x44DA JUMP JUMPDEST PUSH0 DUP1 SLOAD PUSH1 0x1 PUSH1 0x1 PUSH1 0xA0 SHL SUB NOT DUP2 AND DUP3 SSTORE PUSH1 0x1 PUSH1 0x1 PUSH1 0xA0 SHL SUB AND PUSH32 0x8BE0079C531659141344CD1FD0A4F28419497F9722A3DAAFE3B4186F6B6457E0 DUP3 DUP1 LOG3 STOP JUMPDEST CALLVALUE PUSH2 0x26C JUMPI PUSH1 0x20 CALLDATASIZE PUSH1 0x3 NOT ADD SLT PUSH2 0x26C JUMPI PUSH1 0x1 PUSH1 0x1 PUSH1 0xA0 SHL SUB PUSH2 0x11EB PUSH2 0x1E1D JUMP JUMPDEST AND PUSH0 MSTORE PUSH1 0x1 PUSH1 0x20 MSTORE PUSH1 0x40 PUSH0 KECCAK256 PUSH0 DUP1 MSTORE PUSH1 0x20 MSTORE PUSH1 0x20 PUSH1 0x40 PUSH0 KECCAK256 SLOAD PUSH1 0x40 MLOAD SWAP1 DUP2 MSTORE RETURN JUMPDEST PUSH2 0x1EB5 JUMP JUMPDEST PUSH2 0x287D JUMP JUMPDEST CALLVALUE PUSH2 0x26C JUMPI PUSH1 0x20 CALLDATASIZE PUSH1 0x3 NOT ADD SLT PUSH2 0x26C JUMPI PUSH0 PUSH2 0x200 PUSH1 0x40 MLOAD PUSH2 0x1237 DUP2 PUSH2 0x3CB1 JUMP JUMPDEST DUP3 DUP2 MSTORE DUP3 PUSH1 0x20 DUP3 ADD MSTORE DUP3 PUSH1 0x40 DUP3 ADD MSTORE DUP3 PUSH1 0x60 DUP3 ADD MSTORE DUP3 PUSH1 0x80 DUP3 ADD MSTORE DUP3 PUSH1 0xA0 DUP3 ADD MSTORE DUP3 PUSH1 0xC0 DUP3 ADD MSTORE DUP3 PUSH1 0xE0 DUP3 ADD MSTORE DUP3 PUSH2 0x100 DUP3 ADD MSTORE DUP3 PUSH2 0x120 DUP3 ADD MSTORE DUP3 PUSH2 0x140 DUP3 ADD MSTORE DUP3 PUSH2 0x160 DUP3 ADD MSTORE DUP3 PUSH2 0x180 DUP3 ADD MSTORE DUP3 PUSH2 0x1A0 DUP3 ADD MSTORE DUP3 PUSH2 0x1C0 DUP3 ADD MSTORE DUP3 PUSH2 0x1E0 DUP3 ADD MSTORE ADD MSTORE PUSH1 0x4 CALLDATALOAD PUSH0 MSTORE PUSH1 0x4 PUSH1 0x20 MSTORE PUSH1 0x40 PUSH0 KECCAK256 PUSH1 0xFF PUSH1 0xC PUSH1 0x40 MLOAD SWAP3 PUSH2 0x12BD DUP5 PUSH2 0x3CB1 JUMP JUMPDEST DUP1 SLOAD PUSH1 0x1 PUSH1 0x1 PUSH1 0xA0 SHL SUB SWAP1 DUP2 AND DUP6 MSTORE PUSH1 0x1 DUP3 ADD SLOAD DUP2 AND PUSH1 0x20 DUP7 ADD MSTORE PUSH1 0x2 DUP3 ADD SLOAD DUP1 DUP3 AND PUSH1 0x40 DUP8 ADD MSTORE PUSH1 0xA0 DUP2 DUP2 SHR DUP7 AND ISZERO ISZERO PUSH1 0x60 DUP9 ADD MSTORE PUSH1 0xA8 DUP3 SWAP1 SHR DUP7 AND ISZERO ISZERO PUSH1 0x80 DUP9 ADD MSTORE PUSH1 0xB0 DUP3 SWAP1 SHR DUP7 AND ISZERO ISZERO SWAP1 DUP8 ADD MSTORE PUSH1 0xB8 SHR DUP5 AND ISZERO ISZERO PUSH1 0xC0 DUP7 ADD MSTORE PUSH1 0x3 DUP3 ADD SLOAD PUSH1 0xE0 DUP7 ADD MSTORE PUSH1 0x4 DUP3 ADD SLOAD PUSH2 0x100 DUP7 ADD MSTORE PUSH1 0x5 DUP3 ADD SLOAD PUSH2 0x120 DUP7 ADD MSTORE PUSH1 0x6 DUP1 DUP4 ADD SLOAD PUSH2 0x140 DUP8 ADD MSTORE PUSH1 0x7 DUP4 ADD SLOAD PUSH2 0x160 DUP8 ADD MSTORE PUSH1 0x8 DUP4 ADD SLOAD PUSH2 0x180 DUP8 ADD MSTORE PUSH1 0x9 DUP4 ADD SLOAD DUP3 AND PUSH2 0x1A0 DUP8 ADD MSTORE PUSH1 0xA DUP4 ADD SLOAD SWAP1 SWAP2 AND PUSH2 0x1C0 DUP7 ADD MSTORE PUSH1 0xB DUP3 ADD SLOAD PUSH2 0x1E0 DUP7 ADD MSTORE SWAP2 ADD SLOAD SWAP1 SWAP2 AND SWAP2 SWAP1 DUP3 LT ISZERO PUSH2 0x63C JUMPI PUSH2 0x220 SWAP2 PUSH2 0x200 DUP3 ADD MSTORE PUSH2 0x13A8 PUSH1 0x40 MLOAD DUP1 SWAP3 PUSH2 0x2F36 JUMP JUMPDEST RETURN JUMPDEST PUSH2 0x2C14 JUMP JUMPDEST PUSH1 0x40 CALLDATASIZE PUSH1 0x3 NOT ADD SLT PUSH2 0x26C JUMPI PUSH2 0x13C3 PUSH2 0x1E1D JUMP JUMPDEST PUSH1 0x24 CALLDATALOAD PUSH2 0x13D6 PUSH1 0xFF PUSH0 SLOAD PUSH1 0xA0 SHR AND PUSH2 0x3C22 JUMP JUMPDEST DUP1 ISZERO PUSH2 0x938 JUMPI PUSH1 0x2 SLOAD PUSH1 0x40 MLOAD SWAP1 PUSH4 0x1C8F0847 PUSH1 0xE0 SHL DUP3 MSTORE DUP3 PUSH1 0x4 DUP4 ADD MSTORE PUSH1 0x24 DUP3 ADD MSTORE PUSH1 0x20 DUP2 PUSH1 0x44 DUP2 PUSH20 0x0 GAS DELEGATECALL SWAP1 DUP2 ISZERO PUSH2 0x684 JUMPI PUSH0 SWAP2 PUSH2 0x151F JUMPI JUMPDEST POP PUSH1 0x1 PUSH1 0x1 PUSH1 0xA0 SHL SUB DUP4 AND SWAP3 DUP4 PUSH2 0x1488 JUMPI PUSH2 0x143E DUP3 DUP5 PUSH2 0x4102 JUMP JUMPDEST CALLVALUE SUB PUSH2 0x79F JUMPI DUP2 DUP2 PUSH2 0x1454 DUP6 PUSH2 0x1466 SWAP5 CALLER PUSH2 0x4500 JUMP JUMPDEST POP PUSH1 0x3 SLOAD PUSH1 0x1 PUSH1 0x1 PUSH1 0xA0 SHL SUB AND PUSH2 0x4500 JUMP JUMPDEST POP JUMPDEST PUSH1 0x40 MLOAD SWAP2 DUP3 MSTORE PUSH1 0x20 DUP3 ADD MSTORE PUSH0 MLOAD PUSH1 0x20 PUSH2 0x45DC PUSH0 CODECOPY PUSH0 MLOAD SWAP1 PUSH0 MSTORE PUSH1 0x40 CALLER SWAP3 LOG3 STOP JUMPDEST PUSH2 0x1492 DUP3 DUP5 PUSH2 0x4102 JUMP JUMPDEST PUSH1 0x40 MLOAD SWAP1 PUSH4 0x23B872DD PUSH1 0xE0 SHL DUP3 MSTORE CALLER PUSH1 0x4 DUP4 ADD MSTORE ADDRESS PUSH1 0x24 DUP4 ADD MSTORE PUSH1 0x44 DUP3 ADD MSTORE PUSH1 0x20 DUP2 PUSH1 0x64 DUP2 PUSH0 DUP10 GAS CALL SWAP1 DUP2 ISZERO PUSH2 0x684 JUMPI PUSH0 SWAP2 PUSH2 0x14E5 JUMPI JUMPDEST POP ISZERO PUSH2 0x86D JUMPI DUP2 DUP2 PUSH2 0x1454 DUP6 PUSH2 0x14DF SWAP5 CALLER PUSH2 0x4500 JUMP JUMPDEST POP PUSH2 0x1468 JUMP JUMPDEST SWAP1 POP PUSH1 0x20 DUP2 RETURNDATASIZE PUSH1 0x20 GT PUSH2 0x1517 JUMPI JUMPDEST DUP2 PUSH2 0x1500 PUSH1 0x20 SWAP4 DUP4 PUSH2 0x3CE2 JUMP JUMPDEST DUP2 ADD SUB SLT PUSH2 0x26C JUMPI PUSH2 0x1511 SWAP1 PUSH2 0x3D18 JUMP JUMPDEST DUP6 PUSH2 0x14C9 JUMP JUMPDEST RETURNDATASIZE SWAP2 POP PUSH2 0x14F3 JUMP JUMPDEST SWAP1 POP PUSH1 0x20 DUP2 RETURNDATASIZE PUSH1 0x20 GT PUSH2 0x1549 JUMPI JUMPDEST DUP2 PUSH2 0x153A PUSH1 0x20 SWAP4 DUP4 PUSH2 0x3CE2 JUMP JUMPDEST DUP2 ADD SUB SLT PUSH2 0x26C JUMPI MLOAD DUP4 PUSH2 0x1423 JUMP JUMPDEST RETURNDATASIZE SWAP2 POP PUSH2 0x152D JUMP JUMPDEST CALLVALUE PUSH2 0x26C JUMPI PUSH0 CALLDATASIZE PUSH1 0x3 NOT ADD SLT PUSH2 0x26C JUMPI PUSH1 0x20 PUSH1 0xFF PUSH0 SLOAD PUSH1 0xA0 SHR AND PUSH1 0x40 MLOAD SWAP1 ISZERO ISZERO DUP2 MSTORE RETURN JUMPDEST CALLVALUE PUSH2 0x26C JUMPI PUSH1 0x20 CALLDATASIZE PUSH1 0x3 NOT ADD SLT PUSH2 0x26C JUMPI PUSH1 0x4 CALLDATALOAD DUP1 PUSH0 MSTORE PUSH1 0x4 PUSH1 0x20 MSTORE PUSH1 0x40 PUSH0 KECCAK256 SWAP1 PUSH1 0x1 DUP3 ADD SWAP2 PUSH2 0x15AF PUSH1 0x1 DUP1 PUSH1 0xA0 SHL SUB DUP5 SLOAD AND CALLER EQ PUSH2 0x410F JUMP JUMPDEST PUSH1 0x2 DUP2 ADD SWAP1 PUSH2 0x15C8 DUP3 SLOAD PUSH2 0xAD0 PUSH1 0xFF DUP3 PUSH1 0xB0 SHR AND PUSH2 0x416A JUMP JUMPDEST PUSH1 0xA DUP2 ADD SLOAD CALLER PUSH0 SWAP1 DUP2 MSTORE PUSH1 0x1 PUSH1 0x20 SWAP1 DUP2 MSTORE PUSH1 0x40 DUP1 DUP4 KECCAK256 PUSH1 0x1 PUSH1 0x1 PUSH1 0xA0 SHL SUB SWAP1 SWAP5 AND DUP1 DUP5 MSTORE SWAP4 SWAP1 SWAP2 MSTORE SWAP1 KECCAK256 SLOAD PUSH2 0xB4C SWAP2 PUSH2 0x1608 PUSH1 0x4 DUP6 ADD SLOAD DUP1 SWAP4 LT ISZERO PUSH2 0x3C6E JUMP JUMPDEST CALLER PUSH2 0x430B JUMP JUMPDEST CALLVALUE PUSH2 0x26C JUMPI PUSH1 0x20 CALLDATASIZE PUSH1 0x3 NOT ADD SLT PUSH2 0x26C JUMPI PUSH1 0x4 CALLDATALOAD PUSH1 0x2 SLOAD PUSH1 0x40 MLOAD SWAP1 PUSH4 0x1C8F0847 PUSH1 0xE0 SHL DUP3 MSTORE DUP3 PUSH1 0x4 DUP4 ADD MSTORE PUSH1 0x24 DUP3 ADD MSTORE PUSH1 0x20 DUP2 PUSH1 0x44 DUP2 PUSH20 0x0 GAS DELEGATECALL SWAP1 DUP2 ISZERO PUSH2 0x684 JUMPI PUSH0 SWAP2 PUSH2 0x167D JUMPI JUMPDEST PUSH1 0x20 PUSH2 0x1675 DUP4 DUP6 PUSH2 0x4102 JUMP JUMPDEST PUSH1 0x40 MLOAD SWAP1 DUP2 MSTORE RETURN JUMPDEST SWAP1 POP PUSH1 0x20 DUP2 RETURNDATASIZE PUSH1 0x20 GT PUSH2 0x16A8 JUMPI JUMPDEST DUP2 PUSH2 0x1698 PUSH1 0x20 SWAP4 DUP4 PUSH2 0x3CE2 JUMP JUMPDEST DUP2 ADD SUB SLT PUSH2 0x26C JUMPI MLOAD PUSH1 0x20 PUSH2 0x1669 JUMP JUMPDEST RETURNDATASIZE SWAP2 POP PUSH2 0x168B JUMP JUMPDEST CALLVALUE PUSH2 0x26C JUMPI PUSH0 CALLDATASIZE PUSH1 0x3 NOT ADD SLT PUSH2 0x26C JUMPI PUSH2 0x16C8 PUSH2 0x44DA JUMP JUMPDEST PUSH0 DUP1 SLOAD PUSH1 0xFF PUSH1 0xA0 SHL NOT AND PUSH1 0x1 PUSH1 0xA0 SHL OR SWAP1 SSTORE PUSH1 0x40 MLOAD PUSH1 0x1 DUP2 MSTORE PUSH32 0x17904E4FE7D59BB4603C7C045BC275A05DA9EA3A4AC007FC80FFFEAF119186D SWAP1 PUSH1 0x20 SWAP1 LOG1 CALLER PUSH32 0xAE81C15A680E6640BA872CA44F364AD67C60A04089AD9FA100F7A3CE94DA9F68 PUSH0 DUP1 LOG2 STOP JUMPDEST PUSH2 0x1737 CALLDATASIZE PUSH2 0x281A JUMP JUMPDEST SWAP2 SWAP6 SWAP4 PUSH1 0xFF PUSH0 SWAP7 SWAP5 SWAP3 SWAP7 SLOAD PUSH1 0xA0 SHR AND SWAP3 PUSH2 0x1750 DUP5 PUSH2 0x3C22 JUMP JUMPDEST CALLER PUSH0 MSTORE PUSH1 0x1 PUSH1 0x20 MSTORE PUSH1 0x40 PUSH0 KECCAK256 PUSH1 0x1 DUP1 PUSH1 0xA0 SHL SUB DUP10 AND PUSH0 MSTORE PUSH1 0x20 MSTORE PUSH1 0x40 PUSH0 KECCAK256 SLOAD DUP3 DUP2 LT PUSH2 0x1A22 JUMPI JUMPDEST POP PUSH2 0x220 SWAP4 POP PUSH2 0x17C1 SWAP1 PUSH2 0x178C DUP4 DUP11 CALLER PUSH2 0x430B JUMP JUMPDEST POP PUSH20 0x0 SWAP8 PUSH1 0x40 MLOAD SWAP10 DUP11 SWAP6 DUP7 SWAP6 PUSH4 0x652E83D7 PUSH1 0xE0 SHL DUP8 MSTORE DUP10 DUP12 CALLER PUSH1 0x4 DUP11 ADD PUSH2 0x409A JUMP JUMPDEST SUB DUP2 DUP7 GAS DELEGATECALL SWAP4 DUP5 ISZERO PUSH2 0x684 JUMPI PUSH0 SWAP5 PUSH2 0x1A01 JUMPI JUMPDEST POP PUSH1 0x20 PUSH1 0x5 SLOAD PUSH2 0x244 PUSH1 0x40 MLOAD DUP1 SWAP7 DUP2 SWAP4 PUSH4 0x797D4EE1 PUSH1 0xE0 SHL DUP4 MSTORE PUSH2 0x17FB PUSH1 0x4 DUP5 ADD DUP12 PUSH2 0x2F36 JUMP JUMPDEST PUSH2 0x224 DUP4 ADD MSTORE GAS DELEGATECALL SWAP3 DUP4 ISZERO PUSH2 0x684 JUMPI PUSH0 SWAP4 PUSH2 0x19CD JUMPI JUMPDEST POP PUSH2 0x181D PUSH1 0x5 SLOAD PUSH2 0x3EAA JUMP JUMPDEST PUSH1 0x5 SSTORE PUSH0 DUP4 DUP2 MSTORE PUSH1 0x4 PUSH1 0x20 SWAP1 DUP2 MSTORE PUSH1 0x40 SWAP2 DUP3 SWAP1 KECCAK256 DUP7 MLOAD DUP2 SLOAD PUSH1 0x1 PUSH1 0x1 PUSH1 0xA0 SHL SUB SWAP2 DUP3 AND PUSH1 0x1 PUSH1 0x1 PUSH1 0xA0 SHL SUB NOT SWAP2 DUP3 AND OR DUP4 SSTORE SWAP3 DUP9 ADD MLOAD PUSH1 0x1 DUP4 ADD DUP1 SLOAD SWAP2 DUP4 AND SWAP2 SWAP1 SWAP5 AND OR SWAP1 SWAP3 SSTORE SWAP2 DUP7 ADD MLOAD PUSH1 0x2 DUP4 ADD DUP1 SLOAD PUSH1 0x60 DUP10 ADD MLOAD PUSH1 0xFF PUSH1 0xA0 SHL SWAP1 ISZERO ISZERO PUSH1 0xA0 SHL AND SWAP3 SWAP1 SWAP4 AND PUSH1 0x1 PUSH1 0x1 PUSH1 0xA8 SHL SUB NOT SWAP1 SWAP4 AND SWAP3 SWAP1 SWAP3 OR OR DUP2 SSTORE PUSH2 0x200 SWAP2 PUSH1 0xC SWAP2 PUSH2 0x18A6 SWAP1 PUSH2 0x4F9 JUMP JUMPDEST PUSH1 0xE0 DUP8 ADD MLOAD PUSH1 0x3 DUP3 ADD SSTORE PUSH2 0x100 DUP8 ADD MLOAD PUSH1 0x4 DUP3 ADD SSTORE PUSH2 0x120 DUP8 ADD MLOAD PUSH1 0x5 DUP3 ADD SSTORE PUSH2 0x140 DUP8 ADD MLOAD PUSH1 0x6 DUP1 DUP4 ADD SWAP2 SWAP1 SWAP2 SSTORE PUSH2 0x160 DUP9 ADD MLOAD PUSH1 0x7 DUP4 ADD SSTORE PUSH2 0x180 DUP9 ADD MLOAD PUSH1 0x8 DUP4 ADD SSTORE PUSH2 0x1A0 DUP9 ADD MLOAD PUSH1 0x9 DUP4 ADD DUP1 SLOAD PUSH1 0x1 PUSH1 0x1 PUSH1 0xA0 SHL SUB SWAP3 DUP4 AND PUSH1 0x1 PUSH1 0x1 PUSH1 0xA0 SHL SUB NOT SWAP2 DUP3 AND OR SWAP1 SWAP2 SSTORE PUSH2 0x1C0 DUP11 ADD MLOAD PUSH1 0xA DUP6 ADD DUP1 SLOAD SWAP2 SWAP1 SWAP4 AND SWAP2 AND OR SWAP1 SSTORE PUSH2 0x1E0 DUP9 ADD MLOAD PUSH1 0xB DUP4 ADD SSTORE SWAP3 SWAP1 SWAP7 ADD MLOAD SWAP6 ADD SWAP1 DUP6 LT ISZERO PUSH2 0x63C JUMPI PUSH1 0x20 SWAP5 PUSH1 0xFF DUP1 NOT DUP4 SLOAD AND SWAP2 AND OR SWAP1 SSTORE PUSH1 0x40 MLOAD SWAP1 PUSH1 0x1 DUP1 PUSH1 0xA0 SHL SUB AND SWAP2 DUP3 DUP3 MSTORE PUSH1 0x1 DUP1 PUSH1 0xA0 SHL SUB AND SWAP1 DUP4 PUSH32 0x5E02698C1650D6CBE1F7E8A48609D0DA45AD7F5E4C13CD8B196F82965C0AB0D5 DUP7 CALLER SWAP4 LOG4 DUP1 PUSH2 0x199E JUMPI JUMPDEST POP PUSH1 0x40 MLOAD SWAP1 DUP2 MSTORE RETURN JUMPDEST PUSH32 0x957372C0E02D2882134CC0EEBBEF9E446634D8CCBB1CBB112BDEFDD3CF0A643C DUP4 PUSH1 0x40 MLOAD DUP5 DUP2 MSTORE LOG2 DUP3 PUSH2 0x1995 JUMP JUMPDEST SWAP1 SWAP3 POP PUSH1 0x20 DUP2 RETURNDATASIZE PUSH1 0x20 GT PUSH2 0x19F9 JUMPI JUMPDEST DUP2 PUSH2 0x19E9 PUSH1 0x20 SWAP4 DUP4 PUSH2 0x3CE2 JUMP JUMPDEST DUP2 ADD SUB SLT PUSH2 0x26C JUMPI MLOAD SWAP2 DUP5 PUSH2 0x1811 JUMP JUMPDEST RETURNDATASIZE SWAP2 POP PUSH2 0x19DC JUMP JUMPDEST PUSH2 0x1A1B SWAP2 SWAP5 POP PUSH2 0x220 RETURNDATASIZE DUP2 GT PUSH2 0x6B9 JUMPI PUSH2 0x6AA DUP2 DUP4 PUSH2 0x3CE2 JUMP JUMPDEST SWAP3 DUP5 PUSH2 0x17D4 JUMP JUMPDEST PUSH2 0x1A2F PUSH2 0x1A35 SWAP2 DUP5 PUSH2 0x3F18 JUMP JUMPDEST SWAP5 PUSH2 0x3C22 JUMP JUMPDEST DUP4 ISZERO PUSH2 0x938 JUMPI PUSH1 0x2 SLOAD SWAP1 PUSH1 0x40 MLOAD SWAP2 PUSH4 0x1C8F0847 PUSH1 0xE0 SHL DUP4 MSTORE DUP6 PUSH1 0x4 DUP5 ADD MSTORE PUSH1 0x24 DUP4 ADD MSTORE PUSH1 0x20 DUP3 PUSH1 0x44 DUP2 PUSH20 0x0 GAS DELEGATECALL SWAP2 DUP3 ISZERO PUSH2 0x684 JUMPI PUSH0 SWAP3 PUSH2 0x1BAA JUMPI JUMPDEST POP PUSH1 0x1 PUSH1 0x1 PUSH1 0xA0 SHL SUB DUP10 AND DUP1 PUSH2 0x1AF6 JUMPI PUSH2 0x1A9D DUP4 DUP8 PUSH2 0x4102 JUMP JUMPDEST CALLVALUE SUB PUSH2 0x79F JUMPI DUP6 PUSH2 0x17C1 SWAP4 PUSH2 0x1AB6 PUSH2 0x220 SWAP9 DUP14 CALLER PUSH2 0x4500 JUMP JUMPDEST POP PUSH1 0x3 SLOAD PUSH2 0x1AD0 SWAP1 DUP3 SWAP1 DUP15 SWAP1 PUSH1 0x1 PUSH1 0x1 PUSH1 0xA0 SHL SUB AND PUSH2 0x4500 JUMP JUMPDEST POP JUMPDEST PUSH1 0x40 MLOAD SWAP2 DUP3 MSTORE PUSH1 0x20 DUP3 ADD MSTORE PUSH0 MLOAD PUSH1 0x20 PUSH2 0x45DC PUSH0 CODECOPY PUSH0 MLOAD SWAP1 PUSH0 MSTORE PUSH1 0x40 CALLER SWAP3 LOG3 SWAP1 PUSH2 0x1777 JUMP JUMPDEST PUSH2 0x1B00 DUP4 DUP8 PUSH2 0x4102 JUMP JUMPDEST PUSH1 0x40 MLOAD SWAP1 PUSH4 0x23B872DD PUSH1 0xE0 SHL DUP3 MSTORE CALLER PUSH1 0x4 DUP4 ADD MSTORE ADDRESS PUSH1 0x24 DUP4 ADD MSTORE PUSH1 0x44 DUP3 ADD MSTORE PUSH1 0x20 DUP2 PUSH1 0x64 DUP2 PUSH0 DUP7 GAS CALL SWAP1 DUP2 ISZERO PUSH2 0x684 JUMPI PUSH0 SWAP2 PUSH2 0x1B70 JUMPI JUMPDEST POP ISZERO PUSH2 0x86D JUMPI DUP6 PUSH2 0x17C1 SWAP4 PUSH2 0x1B50 PUSH2 0x220 SWAP9 DUP14 CALLER PUSH2 0x4500 JUMP JUMPDEST POP PUSH1 0x3 SLOAD PUSH2 0x1B6A SWAP1 DUP3 SWAP1 DUP15 SWAP1 PUSH1 0x1 PUSH1 0x1 PUSH1 0xA0 SHL SUB AND PUSH2 0x4500 JUMP JUMPDEST POP PUSH2 0x1AD2 JUMP JUMPDEST SWAP1 POP PUSH1 0x20 DUP2 RETURNDATASIZE PUSH1 0x20 GT PUSH2 0x1BA2 JUMPI JUMPDEST DUP2 PUSH2 0x1B8B PUSH1 0x20 SWAP4 DUP4 PUSH2 0x3CE2 JUMP JUMPDEST DUP2 ADD SUB SLT PUSH2 0x26C JUMPI PUSH2 0x1B9C SWAP1 PUSH2 0x3D18 JUMP JUMPDEST DUP12 PUSH2 0x1B37 JUMP JUMPDEST RETURNDATASIZE SWAP2 POP PUSH2 0x1B7E JUMP JUMPDEST SWAP1 SWAP2 POP PUSH1 0x20 DUP2 RETURNDATASIZE PUSH1 0x20 GT PUSH2 0x1BD6 JUMPI JUMPDEST DUP2 PUSH2 0x1BC6 PUSH1 0x20 SWAP4 DUP4 PUSH2 0x3CE2 JUMP JUMPDEST DUP2 ADD SUB SLT PUSH2 0x26C JUMPI MLOAD SWAP1 DUP10 PUSH2 0x1A83 JUMP JUMPDEST RETURNDATASIZE SWAP2 POP PUSH2 0x1BB9 JUMP JUMPDEST CALLVALUE PUSH2 0x26C JUMPI PUSH2 0x220 PUSH2 0x17C1 PUSH2 0x1BF2 CALLDATASIZE PUSH2 0x281A JUMP JUMPDEST PUSH2 0x1C09 PUSH1 0xFF PUSH0 SWAP11 SWAP7 SWAP5 SWAP11 SWAP10 SWAP4 SWAP10 SLOAD PUSH1 0xA0 SHR AND PUSH2 0x3C22 JUMP JUMPDEST CALLER PUSH0 MSTORE PUSH1 0x1 PUSH1 0x20 MSTORE PUSH1 0x40 PUSH0 KECCAK256 PUSH1 0x1 DUP1 PUSH1 0xA0 SHL SUB DUP11 AND PUSH0 MSTORE PUSH1 0x20 MSTORE PUSH2 0x1C33 DUP4 PUSH1 0x40 PUSH0 KECCAK256 SLOAD LT ISZERO PUSH2 0x3C6E JUMP JUMPDEST PUSH2 0x178C DUP4 DUP11 CALLER PUSH2 0x430B JUMP JUMPDEST CALLVALUE PUSH2 0x26C JUMPI PUSH1 0x40 CALLDATASIZE PUSH1 0x3 NOT ADD SLT PUSH2 0x26C JUMPI PUSH1 0x4 CALLDATALOAD PUSH2 0x1C5A PUSH2 0x1E07 JUMP JUMPDEST PUSH2 0x1C62 PUSH2 0x44DA JUMP JUMPDEST PUSH1 0x1 PUSH1 0x1 PUSH1 0xA0 SHL SUB AND DUP1 ISZERO PUSH2 0x1D1B JUMPI PUSH5 0x2540BE400 DUP3 GT PUSH2 0x1CCC JUMPI DUP2 PUSH1 0x40 SWAP2 PUSH32 0x14BDAADAED0453E7B5B66195B42156BA995B9E5ABD0DA98368839851D69AD889 SWAP4 PUSH1 0x2 SSTORE DUP1 PUSH12 0xFFFFFFFFFFFFFFFFFFFFFFFF PUSH1 0xA0 SHL PUSH1 0x3 SLOAD AND OR PUSH1 0x3 SSTORE DUP3 MLOAD SWAP2 DUP3 MSTORE PUSH1 0x20 DUP3 ADD MSTORE LOG1 STOP JUMPDEST PUSH1 0x40 MLOAD PUSH3 0x461BCD PUSH1 0xE5 SHL DUP2 MSTORE PUSH1 0x20 PUSH1 0x4 DUP3 ADD MSTORE PUSH1 0x21 PUSH1 0x24 DUP3 ADD MSTORE PUSH32 0x436F6D6D697373696F6E2070657263656E7461676520697320746F6F20686967 PUSH1 0x44 DUP3 ADD MSTORE PUSH1 0xD PUSH1 0xFB SHL PUSH1 0x64 DUP3 ADD MSTORE PUSH1 0x84 SWAP1 REVERT JUMPDEST PUSH1 0x40 MLOAD PUSH3 0x461BCD PUSH1 0xE5 SHL DUP2 MSTORE PUSH1 0x20 PUSH1 0x4 DUP3 ADD MSTORE PUSH1 0x2F PUSH1 0x24 DUP3 ADD MSTORE PUSH32 0x436F6D6D697373696F6E20726563697069656E742063616E6E6F742062652074 PUSH1 0x44 DUP3 ADD MSTORE PUSH15 0x6865207A65726F2061646472657373 PUSH1 0x88 SHL PUSH1 0x64 DUP3 ADD MSTORE PUSH1 0x84 SWAP1 REVERT JUMPDEST CALLVALUE PUSH2 0x26C JUMPI PUSH0 CALLDATASIZE PUSH1 0x3 NOT ADD SLT PUSH2 0x26C JUMPI PUSH1 0x3 SLOAD PUSH1 0x40 MLOAD PUSH1 0x1 PUSH1 0x1 PUSH1 0xA0 SHL SUB SWAP1 SWAP2 AND DUP2 MSTORE PUSH1 0x20 SWAP1 RETURN JUMPDEST CALLVALUE PUSH2 0x26C JUMPI PUSH2 0x220 PUSH2 0x418 PUSH2 0x1DB4 CALLDATASIZE PUSH2 0x1E33 JUMP JUMPDEST SWAP3 PUSH2 0x1DD2 PUSH1 0xFF PUSH0 SWAP14 SWAP10 SWAP8 SWAP14 SWAP13 SWAP7 SWAP13 SWAP12 SWAP11 SWAP12 SWAP5 SWAP4 SWAP5 SLOAD PUSH1 0xA0 SHR AND PUSH2 0x3C22 JUMP JUMPDEST CALLER PUSH0 MSTORE PUSH1 0x1 PUSH1 0x20 MSTORE PUSH1 0x40 PUSH0 KECCAK256 PUSH1 0x1 DUP1 PUSH1 0xA0 SHL SUB DUP3 AND PUSH0 MSTORE PUSH1 0x20 MSTORE PUSH2 0x1DFC DUP7 PUSH1 0x40 PUSH0 KECCAK256 SLOAD LT ISZERO PUSH2 0x3C6E JUMP JUMPDEST PUSH2 0x3E3 DUP7 DUP3 CALLER PUSH2 0x430B JUMP JUMPDEST PUSH1 0x24 CALLDATALOAD SWAP1 PUSH1 0x1 PUSH1 0x1 PUSH1 0xA0 SHL SUB DUP3 AND DUP3 SUB PUSH2 0x26C JUMPI JUMP JUMPDEST PUSH1 0x4 CALLDATALOAD SWAP1 PUSH1 0x1 PUSH1 0x1 PUSH1 0xA0 SHL SUB DUP3 AND DUP3 SUB PUSH2 0x26C JUMPI JUMP JUMPDEST PUSH2 0x140 SWAP1 PUSH1 0x3 NOT ADD SLT PUSH2 0x26C JUMPI PUSH1 0x4 CALLDATALOAD PUSH1 0x1 PUSH1 0x1 PUSH1 0xA0 SHL SUB DUP2 AND DUP2 SUB PUSH2 0x26C JUMPI SWAP1 PUSH1 0x24 CALLDATALOAD PUSH1 0x1 PUSH1 0x1 PUSH1 0xA0 SHL SUB DUP2 AND DUP2 SUB PUSH2 0x26C JUMPI SWAP1 PUSH1 0x44 CALLDATALOAD SWAP1 PUSH1 0x64 CALLDATALOAD SWAP1 PUSH1 0x84 CALLDATALOAD SWAP1 PUSH1 0xA4 CALLDATALOAD SWAP1 PUSH1 0xC4 CALLDATALOAD PUSH1 0x1 PUSH1 0x1 PUSH1 0xA0 SHL SUB DUP2 AND DUP2 SUB PUSH2 0x26C JUMPI SWAP1 PUSH1 0xE4 CALLDATALOAD PUSH1 0x1 PUSH1 0x1 PUSH1 0xA0 SHL SUB DUP2 AND DUP2 SUB PUSH2 0x26C JUMPI SWAP1 PUSH2 0x104 CALLDATALOAD SWAP1 PUSH2 0x124 CALLDATALOAD PUSH1 0x6 DUP2 LT ISZERO PUSH2 0x26C JUMPI SWAP1 JUMP JUMPDEST CALLVALUE PUSH2 0x26C JUMPI PUSH1 0x20 CALLDATASIZE PUSH1 0x3 NOT ADD SLT PUSH2 0x26C JUMPI PUSH1 0x4 CALLDATALOAD DUP1 PUSH0 MSTORE PUSH1 0x4 PUSH1 0x20 MSTORE PUSH1 0x40 PUSH0 KECCAK256 SWAP1 PUSH1 0x1 DUP3 ADD SWAP1 PUSH1 0x1 DUP1 PUSH1 0xA0 SHL SUB DUP3 SLOAD AND CALLER EQ DUP1 ISZERO PUSH2 0x260F JUMPI JUMPDEST DUP1 ISZERO PUSH2 0x25F9 JUMPI JUMPDEST ISZERO PUSH2 0x25A6 JUMPI PUSH1 0x2 DUP4 ADD SWAP3 DUP4 SLOAD PUSH1 0xFF DUP2 PUSH1 0xB8 SHR AND ISZERO PUSH2 0x256D JUMPI DUP1 PUSH1 0xFF PUSH2 0x1F25 SWAP3 PUSH1 0xA0 SHR AND ISZERO SWAP1 DUP2 PUSH2 0x255E JUMPI POP PUSH2 0x3ECC JUMP JUMPDEST PUSH1 0xB DUP2 ADD SLOAD TIMESTAMP LT PUSH2 0x2524 JUMPI PUSH1 0xFF PUSH1 0xC DUP3 ADD SLOAD AND PUSH1 0x5 DUP3 ADD SLOAD SWAP2 PUSH1 0x1 DUP1 PUSH1 0xA0 SHL SUB PUSH1 0x9 DUP3 ADD SLOAD AND PUSH1 0x6 DUP3 ADD SLOAD SWAP1 PUSH1 0x1 DUP1 PUSH1 0xA0 SHL SUB PUSH1 0xA DUP5 ADD SLOAD AND SWAP2 PUSH1 0x7 DUP5 ADD SLOAD SWAP2 PUSH1 0x8 DUP6 ADD SLOAD SWAP4 PUSH20 0x0 SWAP5 PUSH1 0x40 MLOAD SWAP5 PUSH4 0x1C8F0847 PUSH1 0xE0 SHL DUP7 MSTORE DUP10 PUSH1 0x4 DUP8 ADD MSTORE PUSH1 0x24 DUP7 ADD MSTORE PUSH1 0x20 DUP6 PUSH1 0x44 DUP2 DUP10 GAS DELEGATECALL SWAP5 DUP6 ISZERO PUSH2 0x684 JUMPI PUSH0 SWAP6 PUSH2 0x24EF JUMPI JUMPDEST POP PUSH1 0x20 SWAP1 PUSH1 0x44 PUSH1 0x40 MLOAD DUP1 SWAP9 DUP2 SWAP4 PUSH4 0x1C8F0847 PUSH1 0xE0 SHL DUP4 MSTORE DUP9 PUSH1 0x4 DUP5 ADD MSTORE PUSH1 0x24 DUP4 ADD MSTORE GAS DELEGATECALL SWAP5 DUP6 ISZERO PUSH2 0x684 JUMPI PUSH0 SWAP6 PUSH2 0x24BB JUMPI JUMPDEST POP PUSH1 0x6 DUP8 LT ISZERO PUSH2 0x63C JUMPI DUP8 PUSH1 0x4 DUP9 DUP7 DUP6 DUP16 DUP16 DUP16 SWAP2 PUSH0 MLOAD PUSH1 0x20 PUSH2 0x457C PUSH0 CODECOPY PUSH0 MLOAD SWAP1 PUSH0 MSTORE SWAP16 PUSH2 0xEA9 SWAP16 DUP16 SWAP4 DUP16 SWAP1 SWAP4 DUP15 SWAP5 DUP14 SWAP4 ISZERO PUSH2 0x23E0 JUMPI JUMPDEST PUSH1 0x2 DUP12 EQ PUSH2 0x2305 JUMPI JUMPDEST PUSH1 0x1 DUP12 EQ PUSH2 0x2217 JUMPI JUMPDEST POP POP POP POP POP POP POP POP POP POP DUP14 DUP7 DUP6 PUSH1 0x3 DUP5 EQ PUSH2 0x2178 JUMPI JUMPDEST POP POP POP EQ PUSH2 0x2090 JUMPI JUMPDEST POP POP DUP10 SLOAD PUSH1 0x1 PUSH1 0xA8 SHL PUSH1 0xFF PUSH1 0xA8 SHL NOT DUP3 AND OR SWAP1 SWAP11 SSTORE POP POP SWAP2 SLOAD SWAP6 SLOAD PUSH1 0x40 DUP1 MLOAD PUSH1 0x1 PUSH1 0x1 PUSH1 0xA0 SHL SUB SWAP10 DUP11 AND DUP2 MSTORE CALLER PUSH1 0x20 DUP3 ADD MSTORE SWAP2 DUP10 AND SWAP9 SWAP1 SWAP8 AND SWAP7 SWAP1 SWAP4 DUP5 SWAP4 POP SWAP1 DUP4 ADD SWAP2 POP JUMP JUMPDEST DUP5 DUP4 PUSH2 0x20D8 PUSH2 0x20FA SWAP7 PUSH2 0x20BD PUSH2 0x20E9 SWAP6 DUP12 SWAP9 PUSH2 0x20B7 DUP8 PUSH1 0x1 DUP1 PUSH1 0xA0 SHL SUB PUSH1 0x3 SLOAD AND SWAP4 PUSH2 0x3F18 JUMP JUMPDEST SWAP2 PUSH2 0x43B2 JUMP JUMPDEST POP PUSH1 0x3 SLOAD PUSH1 0x1 PUSH1 0x1 PUSH1 0xA0 SHL SUB AND SWAP1 DUP7 SWAP1 PUSH2 0x20B7 SWAP1 DUP10 SWAP1 PUSH2 0x3F18 JUMP JUMPDEST POP DUP14 SLOAD PUSH1 0x1 PUSH1 0x1 PUSH1 0xA0 SHL SUB AND PUSH2 0x43B2 JUMP JUMPDEST POP DUP11 SLOAD PUSH1 0x1 PUSH1 0x1 PUSH1 0xA0 SHL SUB AND PUSH2 0x43B2 JUMP JUMPDEST POP DUP3 SLOAD DUP8 SLOAD DUP10 SLOAD PUSH1 0x3 SLOAD PUSH1 0x40 DUP1 MLOAD PUSH1 0x1 PUSH1 0x1 PUSH1 0xA0 SHL SUB SWAP4 DUP5 AND DUP2 MSTORE CALLER PUSH1 0x20 DUP3 ADD MSTORE SWAP2 DUP4 AND SWAP1 DUP3 ADD MSTORE PUSH1 0x60 DUP2 ADD DUP6 SWAP1 MSTORE PUSH1 0x80 DUP2 ADD DUP7 SWAP1 MSTORE PUSH1 0xA0 DUP2 ADD SWAP5 SWAP1 SWAP5 MSTORE PUSH1 0xC0 DUP5 ADD SWAP5 SWAP1 SWAP5 MSTORE DUP4 AND SWAP3 AND SWAP1 DUP7 SWAP1 PUSH32 0x8E100DC3335E09B082C843425F71EA8AE9D91AE5BB385EF4B41D0D2C6AA87214 SWAP1 PUSH1 0xE0 SWAP1 LOG4 PUSH0 DUP1 DUP1 DUP1 DUP1 DUP1 PUSH2 0x204A JUMP JUMPDEST PUSH2 0x21A0 SWAP3 PUSH2 0x2190 DUP8 DUP11 PUSH1 0x1 DUP1 PUSH1 0xA0 SHL SUB DUP5 SLOAD AND PUSH2 0x43B2 JUMP JUMPDEST POP SLOAD PUSH1 0x1 PUSH1 0x1 PUSH1 0xA0 SHL SUB AND PUSH2 0x43B2 JUMP JUMPDEST POP DUP9 SLOAD DUP14 SLOAD DUP16 SLOAD PUSH1 0x40 DUP1 MLOAD PUSH1 0x1 PUSH1 0x1 PUSH1 0xA0 SHL SUB SWAP3 DUP4 AND DUP1 DUP3 MSTORE CALLER PUSH1 0x20 DUP4 ADD MSTORE SWAP2 DUP2 ADD SWAP2 SWAP1 SWAP2 MSTORE PUSH1 0x60 DUP2 ADD DUP12 SWAP1 MSTORE PUSH1 0x80 DUP2 ADD DUP13 SWAP1 MSTORE PUSH0 PUSH1 0xA0 DUP3 ADD DUP2 SWAP1 MSTORE PUSH1 0xC0 DUP3 ADD MSTORE SWAP2 DUP2 AND SWAP3 AND SWAP1 DUP15 SWAP1 PUSH32 0x8E100DC3335E09B082C843425F71EA8AE9D91AE5BB385EF4B41D0D2C6AA87214 SWAP1 PUSH1 0xE0 SWAP1 LOG4 DUP14 DUP7 DUP6 PUSH2 0x2041 JUMP JUMPDEST DUP8 PUSH32 0x8AF39814826D4542F7FE66E6FA6AC2AC59BFC8221394F51A41DBA5C54DBA0AC9 SWAP8 PUSH2 0x22AB DUP6 PUSH2 0x22EE SWAP8 PUSH2 0x227F DUP16 PUSH0 MLOAD PUSH1 0x20 PUSH2 0x459C PUSH0 CODECOPY PUSH0 MLOAD SWAP1 PUSH0 MSTORE SWAP16 PUSH2 0x226E DUP14 DUP3 PUSH2 0x20B7 DUP6 PUSH1 0x1 DUP1 PUSH1 0xA0 SHL SUB DUP13 SLOAD AND SWAP4 PUSH2 0x3F18 JUMP JUMPDEST POP DUP10 SLOAD PUSH1 0x1 PUSH1 0x1 PUSH1 0xA0 SHL SUB AND PUSH2 0x43B2 JUMP JUMPDEST POP DUP4 SLOAD PUSH2 0x229A SWAP1 PUSH1 0x1 PUSH1 0x1 PUSH1 0xA0 SHL SUB AND DUP3 PUSH2 0x20B7 DUP6 DUP16 PUSH2 0x3F18 JUMP JUMPDEST POP DUP7 SLOAD PUSH1 0x1 PUSH1 0x1 PUSH1 0xA0 SHL SUB AND PUSH2 0x43B2 JUMP JUMPDEST POP SLOAD SWAP2 SLOAD SWAP3 SLOAD PUSH1 0x40 MLOAD PUSH1 0x1 PUSH1 0x1 PUSH1 0xA0 SHL SUB SWAP5 DUP6 AND SWAP13 SWAP4 DUP6 AND SWAP12 SWAP2 SWAP1 SWAP5 AND SWAP7 DUP13 SWAP5 DUP13 SWAP5 SWAP1 SWAP2 DUP3 SWAP2 PUSH2 0x22DD SWAP2 CALLER DUP13 DUP6 PUSH2 0x3F25 JUMP JUMPDEST SUB SWAP1 LOG4 PUSH1 0x40 MLOAD SWAP4 DUP5 SWAP4 CALLER SWAP1 DUP6 PUSH2 0x3F25 JUMP JUMPDEST SUB SWAP1 LOG4 DUP7 DUP6 DUP16 DUP16 DUP16 SWAP2 DUP8 DUP10 DUP16 SWAP4 DUP16 SWAP1 SWAP4 DUP15 SWAP5 PUSH2 0x202B JUMP JUMPDEST DUP1 SLOAD PUSH2 0x231F SWAP1 PUSH1 0x1 PUSH1 0x1 PUSH1 0xA0 SHL SUB AND DUP11 PUSH2 0x20B7 DUP14 DUP10 PUSH2 0x3F18 JUMP JUMPDEST POP DUP2 SLOAD PUSH2 0x2338 SWAP1 DUP12 SWAP1 DUP12 SWAP1 PUSH1 0x1 PUSH1 0x1 PUSH1 0xA0 SHL SUB AND PUSH2 0x43B2 JUMP JUMPDEST POP DUP1 SLOAD PUSH2 0x2353 SWAP1 PUSH1 0x1 PUSH1 0x1 PUSH1 0xA0 SHL SUB AND DUP6 PUSH2 0x20B7 DUP7 DUP11 PUSH2 0x3F18 JUMP JUMPDEST POP DUP2 SLOAD PUSH2 0x236C SWAP1 DUP5 SWAP1 DUP7 SWAP1 PUSH1 0x1 PUSH1 0x1 PUSH1 0xA0 SHL SUB AND PUSH2 0x43B2 JUMP JUMPDEST POP PUSH0 MLOAD PUSH1 0x20 PUSH2 0x45BC PUSH0 CODECOPY PUSH0 MLOAD SWAP1 PUSH0 MSTORE DUP11 DUP10 PUSH0 MLOAD PUSH1 0x20 PUSH2 0x455C PUSH0 CODECOPY PUSH0 MLOAD SWAP1 PUSH0 MSTORE DUP10 DUP10 PUSH1 0x1 DUP1 PUSH1 0xA0 SHL SUB DUP14 SLOAD AND SWAP5 DUP6 DUP6 PUSH1 0x1 DUP1 PUSH1 0xA0 SHL SUB DUP11 SLOAD AND SWAP9 DUP10 SWAP4 PUSH1 0x1 DUP1 PUSH1 0xA0 SHL SUB DUP14 SLOAD AND SWAP6 PUSH2 0x23C3 PUSH1 0x40 MLOAD SWAP3 DUP4 SWAP3 CALLER DUP11 DUP6 PUSH2 0x3F25 JUMP JUMPDEST SUB SWAP1 LOG4 PUSH2 0x23D8 DUP10 PUSH1 0x40 MLOAD SWAP4 DUP5 SWAP4 CALLER SWAP1 DUP6 PUSH2 0x3F25 JUMP JUMPDEST SUB SWAP1 LOG4 PUSH2 0x2022 JUMP JUMPDEST DUP7 SLOAD PUSH2 0x23FA SWAP1 PUSH1 0x1 PUSH1 0x1 PUSH1 0xA0 SHL SUB AND DUP11 PUSH2 0x20B7 DUP14 DUP10 PUSH2 0x3F18 JUMP JUMPDEST POP DUP2 SLOAD PUSH2 0x2413 SWAP1 DUP12 SWAP1 DUP12 SWAP1 PUSH1 0x1 PUSH1 0x1 PUSH1 0xA0 SHL SUB AND PUSH2 0x43B2 JUMP JUMPDEST POP DUP1 SLOAD PUSH2 0x242E SWAP1 PUSH1 0x1 PUSH1 0x1 PUSH1 0xA0 SHL SUB AND DUP6 PUSH2 0x20B7 DUP7 DUP11 PUSH2 0x3F18 JUMP JUMPDEST POP DUP2 SLOAD PUSH2 0x2447 SWAP1 DUP5 SWAP1 DUP7 SWAP1 PUSH1 0x1 PUSH1 0x1 PUSH1 0xA0 SHL SUB AND PUSH2 0x43B2 JUMP JUMPDEST POP PUSH0 MLOAD PUSH1 0x20 PUSH2 0x459C PUSH0 CODECOPY PUSH0 MLOAD SWAP1 PUSH0 MSTORE DUP11 DUP10 PUSH0 MLOAD PUSH1 0x20 PUSH2 0x455C PUSH0 CODECOPY PUSH0 MLOAD SWAP1 PUSH0 MSTORE DUP10 DUP10 PUSH1 0x1 DUP1 PUSH1 0xA0 SHL SUB DUP14 SLOAD AND SWAP5 DUP6 DUP6 PUSH1 0x1 DUP1 PUSH1 0xA0 SHL SUB DUP11 SLOAD AND SWAP9 DUP10 SWAP4 PUSH1 0x1 DUP1 PUSH1 0xA0 SHL SUB DUP14 SLOAD AND SWAP6 PUSH2 0x249E PUSH1 0x40 MLOAD SWAP3 DUP4 SWAP3 CALLER DUP11 DUP6 PUSH2 0x3F25 JUMP JUMPDEST SUB SWAP1 LOG4 PUSH2 0x24B3 DUP10 PUSH1 0x40 MLOAD SWAP4 DUP5 SWAP4 CALLER SWAP1 DUP6 PUSH2 0x3F25 JUMP JUMPDEST SUB SWAP1 LOG4 PUSH2 0x2019 JUMP JUMPDEST SWAP1 SWAP5 POP PUSH1 0x20 DUP2 RETURNDATASIZE PUSH1 0x20 GT PUSH2 0x24E7 JUMPI JUMPDEST DUP2 PUSH2 0x24D7 PUSH1 0x20 SWAP4 DUP4 PUSH2 0x3CE2 JUMP JUMPDEST DUP2 ADD SUB SLT PUSH2 0x26C JUMPI MLOAD SWAP4 PUSH0 PUSH2 0x1FE3 JUMP JUMPDEST RETURNDATASIZE SWAP2 POP PUSH2 0x24CA JUMP JUMPDEST SWAP1 SWAP5 POP PUSH1 0x20 DUP2 RETURNDATASIZE PUSH1 0x20 GT PUSH2 0x251C JUMPI JUMPDEST DUP2 PUSH2 0x250B PUSH1 0x20 SWAP4 DUP4 PUSH2 0x3CE2 JUMP JUMPDEST DUP2 ADD SUB SLT PUSH2 0x26C JUMPI MLOAD SWAP4 PUSH1 0x20 PUSH2 0x1FB1 JUMP JUMPDEST RETURNDATASIZE SWAP2 POP PUSH2 0x24FE JUMP JUMPDEST PUSH1 0x40 MLOAD PUSH3 0x461BCD PUSH1 0xE5 SHL DUP2 MSTORE PUSH1 0x20 PUSH1 0x4 DUP3 ADD MSTORE PUSH1 0x12 PUSH1 0x24 DUP3 ADD MSTORE PUSH18 0x1119585B081B9BDD08195E1C1A5C985D1959 PUSH1 0x72 SHL PUSH1 0x44 DUP3 ADD MSTORE PUSH1 0x64 SWAP1 REVERT JUMPDEST PUSH1 0xFF SWAP2 POP PUSH1 0xA8 SHR AND ISZERO PUSH0 PUSH2 0xAEF JUMP JUMPDEST PUSH1 0x40 MLOAD PUSH3 0x461BCD PUSH1 0xE5 SHL DUP2 MSTORE PUSH1 0x20 PUSH1 0x4 DUP3 ADD MSTORE PUSH1 0x11 PUSH1 0x24 DUP3 ADD MSTORE PUSH17 0x1119585B081B5D5CDD081CDD185C9D1959 PUSH1 0x7A SHL PUSH1 0x44 DUP3 ADD MSTORE PUSH1 0x64 SWAP1 REVERT JUMPDEST PUSH1 0x40 MLOAD PUSH3 0x461BCD PUSH1 0xE5 SHL DUP2 MSTORE PUSH1 0x20 PUSH1 0x4 DUP3 ADD MSTORE PUSH1 0x25 PUSH1 0x24 DUP3 ADD MSTORE PUSH32 0x4F6E6C7920612070617274206F6620746865206465616C2063616E2072656A65 PUSH1 0x44 DUP3 ADD MSTORE PUSH5 0x18DD081A5D PUSH1 0xDA SHL PUSH1 0x64 DUP3 ADD MSTORE PUSH1 0x84 SWAP1 REVERT JUMPDEST POP PUSH1 0x2 DUP4 ADD SLOAD PUSH1 0x1 PUSH1 0x1 PUSH1 0xA0 SHL SUB AND CALLER EQ PUSH2 0x1EF5 JUMP JUMPDEST POP DUP3 SLOAD PUSH1 0x1 PUSH1 0x1 PUSH1 0xA0 SHL SUB AND CALLER EQ PUSH2 0x1EEE JUMP JUMPDEST PUSH1 0x40 SWAP1 PUSH1 0x3 NOT ADD SLT PUSH2 0x26C JUMPI PUSH1 0x4 CALLDATALOAD SWAP1 PUSH1 0x24 CALLDATALOAD SWAP1 JUMP JUMPDEST CALLVALUE PUSH2 0x26C JUMPI PUSH2 0x2646 CALLDATASIZE PUSH2 0x2622 JUMP JUMPDEST SWAP1 PUSH0 SWAP1 DUP1 PUSH0 MSTORE PUSH1 0x4 PUSH1 0x20 MSTORE PUSH1 0x40 PUSH0 KECCAK256 SWAP2 PUSH1 0x1 DUP1 PUSH1 0xA0 SHL SUB DUP4 SLOAD AND CALLER EQ DUP1 ISZERO PUSH2 0x2804 JUMPI JUMPDEST PUSH2 0x2672 SWAP1 PUSH2 0x3F4F JUMP JUMPDEST PUSH20 0x0 DUP1 EXTCODESIZE ISZERO PUSH2 0x26C JUMPI PUSH0 PUSH1 0x40 MLOAD DUP1 SWAP3 PUSH4 0x252A867 PUSH1 0xE5 SHL DUP3 MSTORE DUP2 DUP1 PUSH2 0x26AD DUP10 PUSH1 0x4 DUP4 ADD PUSH2 0x3FB5 JUMP JUMPDEST SUB SWAP2 GAS DELEGATECALL DUP1 ISZERO PUSH2 0x684 JUMPI PUSH2 0x27F1 JUMPI JUMPDEST POP PUSH1 0x6 DUP4 ADD PUSH2 0x26D7 DUP6 DUP3 SLOAD PUSH2 0x26D2 DUP3 DUP3 LT PUSH2 0x3C6E JUMP JUMPDEST PUSH2 0x3F18 JUMP JUMPDEST SWAP1 SSTORE PUSH1 0x1 DUP1 PUSH1 0xA0 SHL SUB PUSH1 0xA DUP5 ADD SLOAD AND SWAP4 PUSH1 0x8 DUP5 ADD SLOAD SWAP2 PUSH1 0x40 MLOAD SWAP3 PUSH4 0x1C8F0847 PUSH1 0xE0 SHL DUP5 MSTORE DUP3 PUSH1 0x4 DUP6 ADD MSTORE PUSH1 0x24 DUP5 ADD MSTORE PUSH1 0x20 DUP4 PUSH1 0x44 DUP2 PUSH20 0x0 GAS DELEGATECALL SWAP1 DUP2 ISZERO PUSH2 0x27E5 JUMPI SWAP1 PUSH2 0x27A6 JUMPI JUMPDEST PUSH1 0x1 DUP6 ADD DUP1 SLOAD SWAP1 SWAP6 PUSH0 MLOAD PUSH1 0x20 PUSH2 0x455C PUSH0 CODECOPY PUSH0 MLOAD SWAP1 PUSH0 MSTORE SWAP5 POP PUSH2 0xEA9 SWAP2 PUSH2 0x2764 SWAP1 PUSH1 0x1 PUSH1 0x1 PUSH1 0xA0 SHL SUB AND DUP10 PUSH2 0x20B7 DUP7 DUP9 PUSH2 0x3F18 JUMP JUMPDEST POP PUSH2 0x277D DUP4 PUSH1 0x2 DUP4 ADD SWAP10 PUSH1 0x1 DUP1 PUSH1 0xA0 SHL SUB DUP12 SLOAD AND PUSH2 0x43B2 JUMP JUMPDEST POP SLOAD SWAP6 SLOAD SWAP7 SLOAD PUSH1 0x40 MLOAD PUSH1 0x1 PUSH1 0x1 PUSH1 0xA0 SHL SUB SWAP9 DUP10 AND SWAP9 SWAP8 DUP9 AND SWAP8 SWAP1 SWAP5 DUP6 SWAP5 SWAP3 SWAP1 SWAP2 CALLER SWAP2 AND DUP6 PUSH2 0x3F25 JUMP JUMPDEST POP PUSH1 0x20 DUP3 RETURNDATASIZE PUSH1 0x20 GT PUSH2 0x27DD JUMPI JUMPDEST DUP2 PUSH2 0x27C0 PUSH1 0x20 SWAP4 DUP4 PUSH2 0x3CE2 JUMP JUMPDEST DUP2 ADD SUB SLT PUSH2 0x26C JUMPI PUSH0 MLOAD PUSH1 0x20 PUSH2 0x455C PUSH0 CODECOPY PUSH0 MLOAD SWAP1 PUSH0 MSTORE SWAP2 MLOAD PUSH2 0x2730 JUMP JUMPDEST RETURNDATASIZE SWAP2 POP PUSH2 0x27B3 JUMP JUMPDEST PUSH1 0x40 MLOAD SWAP1 RETURNDATASIZE SWAP1 DUP3 RETURNDATACOPY RETURNDATASIZE SWAP1 REVERT JUMPDEST PUSH2 0x27FD SWAP2 POP PUSH0 SWAP1 PUSH2 0x3CE2 JUMP JUMPDEST PUSH0 PUSH0 PUSH2 0x26BC JUMP JUMPDEST POP PUSH1 0x2 DUP4 ADD SLOAD PUSH1 0x1 PUSH1 0x1 PUSH1 0xA0 SHL SUB AND CALLER EQ PUSH2 0x2669 JUMP JUMPDEST PUSH1 0xE0 SWAP1 PUSH1 0x3 NOT ADD SLT PUSH2 0x26C JUMPI PUSH1 0x4 CALLDATALOAD PUSH1 0x1 PUSH1 0x1 PUSH1 0xA0 SHL SUB DUP2 AND DUP2 SUB PUSH2 0x26C JUMPI SWAP1 PUSH1 0x24 CALLDATALOAD PUSH1 0x1 PUSH1 0x1 PUSH1 0xA0 SHL SUB DUP2 AND DUP2 SUB PUSH2 0x26C JUMPI SWAP1 PUSH1 0x44 CALLDATALOAD SWAP1 PUSH1 0x64 CALLDATALOAD SWAP1 PUSH1 0x84 CALLDATALOAD PUSH1 0x1 PUSH1 0x1 PUSH1 0xA0 SHL SUB DUP2 AND DUP2 SUB PUSH2 0x26C JUMPI SWAP1 PUSH1 0xA4 CALLDATALOAD SWAP1 PUSH1 0xC4 CALLDATALOAD PUSH1 0x6 DUP2 LT ISZERO PUSH2 0x26C JUMPI SWAP1 JUMP JUMPDEST CALLVALUE PUSH2 0x26C JUMPI PUSH0 PUSH1 0x20 CALLDATASIZE PUSH1 0x3 NOT ADD SLT PUSH2 0x26C JUMPI PUSH1 0x4 CALLDATALOAD DUP1 PUSH0 MSTORE PUSH1 0x4 PUSH1 0x20 MSTORE PUSH1 0x40 PUSH0 KECCAK256 PUSH1 0x1 DUP1 PUSH1 0xA0 SHL SUB DUP2 SLOAD AND CALLER EQ DUP1 ISZERO PUSH2 0x2BFE JUMPI JUMPDEST ISZERO PUSH2 0x2BA2 JUMPI PUSH20 0x0 DUP1 EXTCODESIZE ISZERO PUSH2 0x26C JUMPI PUSH0 PUSH1 0x40 MLOAD DUP1 SWAP3 PUSH4 0x252A867 PUSH1 0xE5 SHL DUP3 MSTORE DUP2 DUP1 PUSH2 0x28F1 DUP8 PUSH1 0x4 DUP4 ADD PUSH2 0x3FB5 JUMP JUMPDEST SUB SWAP2 GAS DELEGATECALL DUP1 ISZERO PUSH2 0x684 JUMPI PUSH2 0x2B8D JUMPI JUMPDEST POP PUSH1 0x5 DUP2 ADD SLOAD PUSH1 0x9 DUP3 ADD SLOAD PUSH1 0x6 DUP4 ADD SLOAD PUSH1 0xA DUP5 ADD SLOAD PUSH1 0x7 DUP6 ADD SLOAD PUSH1 0x8 DUP7 ADD SLOAD PUSH1 0x40 MLOAD PUSH4 0x1C8F0847 PUSH1 0xE0 SHL DUP2 MSTORE PUSH1 0x4 DUP2 ADD DUP8 SWAP1 MSTORE PUSH1 0x24 DUP2 ADD SWAP3 SWAP1 SWAP3 MSTORE PUSH1 0x1 PUSH1 0x1 PUSH1 0xA0 SHL SUB SWAP5 DUP6 AND SWAP7 SWAP4 SWAP6 PUSH20 0x0 SWAP6 SWAP1 SWAP4 AND SWAP4 SWAP1 PUSH1 0x20 DUP4 PUSH1 0x44 DUP2 DUP10 GAS DELEGATECALL SWAP3 DUP4 ISZERO PUSH2 0x2B82 JUMPI DUP11 SWAP4 PUSH2 0x2B4D JUMPI JUMPDEST POP PUSH1 0x20 SWAP1 PUSH1 0x44 PUSH1 0x40 MLOAD DUP1 SWAP9 DUP2 SWAP4 PUSH4 0x1C8F0847 PUSH1 0xE0 SHL DUP4 MSTORE DUP12 PUSH1 0x4 DUP5 ADD MSTORE PUSH1 0x24 DUP4 ADD MSTORE GAS DELEGATECALL SWAP5 DUP6 ISZERO PUSH2 0x2B42 JUMPI DUP9 SWAP10 SWAP9 SWAP8 SWAP9 SWAP6 PUSH2 0x2B07 JUMPI JUMPDEST POP PUSH1 0x1 DUP2 ADD DUP1 SLOAD SWAP1 SWAP5 DUP9 SWAP5 SWAP4 SWAP3 SWAP2 PUSH1 0x1 PUSH1 0x1 PUSH1 0xA0 SHL SUB AND DUP11 PUSH2 0x29D3 DUP6 DUP8 PUSH2 0x3F18 JUMP JUMPDEST SWAP1 PUSH2 0x29DD SWAP3 PUSH2 0x43B2 JUMP JUMPDEST POP PUSH1 0x2 DUP3 ADD DUP1 SLOAD SWAP1 SWAP11 PUSH2 0x29FB SWAP2 DUP6 SWAP2 SWAP1 PUSH1 0x1 PUSH1 0x1 PUSH1 0xA0 SHL SUB AND PUSH2 0x43B2 JUMP JUMPDEST POP DUP2 SLOAD PUSH1 0x1 PUSH1 0x1 PUSH1 0xA0 SHL SUB AND DUP2 PUSH2 0x2A12 DUP11 DUP1 PUSH2 0x3F18 JUMP JUMPDEST SWAP1 PUSH2 0x2A1C SWAP3 PUSH2 0x43B2 JUMP JUMPDEST POP DUP10 SLOAD PUSH2 0x2A33 SWAP2 DUP9 SWAP2 PUSH1 0x1 PUSH1 0x1 PUSH1 0xA0 SHL SUB AND PUSH2 0x43B2 JUMP JUMPDEST POP SLOAD SWAP4 SLOAD SWAP8 SLOAD PUSH1 0x40 MLOAD PUSH1 0x1 PUSH1 0x1 PUSH1 0xA0 SHL SUB SWAP10 DUP11 AND SWAP11 SWAP6 DUP11 AND SWAP10 SWAP1 SWAP2 AND SWAP7 DUP11 SWAP7 DUP11 SWAP7 DUP9 SWAP4 DUP9 SWAP4 SWAP2 SWAP3 SWAP1 SWAP2 DUP3 SWAP2 PUSH2 0x2A6A SWAP2 CALLER DUP15 DUP6 PUSH2 0x3F25 JUMP JUMPDEST SUB PUSH32 0x8AF39814826D4542F7FE66E6FA6AC2AC59BFC8221394F51A41DBA5C54DBA0AC9 SWAP2 LOG4 PUSH1 0x40 MLOAD SWAP2 DUP3 SWAP2 PUSH2 0x2AA0 SWAP2 CALLER DUP10 DUP6 PUSH2 0x3F25 JUMP JUMPDEST SUB PUSH0 MLOAD PUSH1 0x20 PUSH2 0x45BC PUSH0 CODECOPY PUSH0 MLOAD SWAP1 PUSH0 MSTORE SWAP2 LOG4 PUSH1 0x40 DUP1 MLOAD PUSH1 0x1 PUSH1 0x1 PUSH1 0xA0 SHL SUB SWAP3 SWAP1 SWAP3 AND DUP3 MSTORE CALLER PUSH1 0x20 DUP4 ADD MSTORE PUSH32 0xFAEE379435B6A0C297F1A08C66517FDC202DEBC6D275E6DD73630E3EBD1BDD97 SWAP2 LOG4 PUSH1 0x6 SLOAD PUSH2 0x2AF8 SWAP1 PUSH2 0x3EAA JUMP JUMPDEST PUSH1 0x6 SSTORE PUSH1 0x40 MLOAD PUSH1 0x1 DUP2 MSTORE PUSH1 0x20 SWAP1 RETURN JUMPDEST SWAP3 SWAP2 SWAP7 POP SWAP4 POP PUSH1 0x20 DUP3 RETURNDATASIZE PUSH1 0x20 GT PUSH2 0x2B3A JUMPI JUMPDEST DUP2 PUSH2 0x2B26 PUSH1 0x20 SWAP4 DUP4 PUSH2 0x3CE2 JUMP JUMPDEST DUP2 ADD SUB SLT PUSH2 0x26C JUMPI SWAP1 MLOAD DUP8 SWAP6 SWAP1 SWAP4 DUP7 PUSH2 0x29B1 JUMP JUMPDEST RETURNDATASIZE SWAP2 POP PUSH2 0x2B19 JUMP JUMPDEST PUSH1 0x40 MLOAD RETURNDATASIZE DUP12 DUP3 RETURNDATACOPY RETURNDATASIZE SWAP1 REVERT JUMPDEST SWAP1 SWAP3 POP PUSH1 0x20 DUP2 RETURNDATASIZE PUSH1 0x20 GT PUSH2 0x2B7A JUMPI JUMPDEST DUP2 PUSH2 0x2B69 PUSH1 0x20 SWAP4 DUP4 PUSH2 0x3CE2 JUMP JUMPDEST DUP2 ADD SUB SLT PUSH2 0x26C JUMPI MLOAD SWAP2 PUSH1 0x20 PUSH2 0x297B JUMP JUMPDEST RETURNDATASIZE SWAP2 POP PUSH2 0x2B5C JUMP JUMPDEST PUSH1 0x40 MLOAD RETURNDATASIZE DUP13 DUP3 RETURNDATACOPY RETURNDATASIZE SWAP1 REVERT JUMPDEST PUSH2 0x2B9A SWAP2 SWAP4 POP PUSH0 SWAP1 PUSH2 0x3CE2 JUMP JUMPDEST PUSH0 SWAP2 PUSH0 PUSH2 0x2900 JUMP JUMPDEST PUSH1 0x40 MLOAD PUSH3 0x461BCD PUSH1 0xE5 SHL DUP2 MSTORE PUSH1 0x20 PUSH1 0x4 DUP3 ADD MSTORE PUSH1 0x2E PUSH1 0x24 DUP3 ADD MSTORE PUSH32 0x4F6E6C79206120696E69746174696F72206F72206D65646961746F722063616E PUSH1 0x44 DUP3 ADD MSTORE PUSH14 0x818DBDB5C1B1A5D19481919585B PUSH1 0x92 SHL PUSH1 0x64 DUP3 ADD MSTORE PUSH1 0x84 SWAP1 REVERT JUMPDEST POP PUSH1 0x2 DUP2 ADD SLOAD PUSH1 0x1 PUSH1 0x1 PUSH1 0xA0 SHL SUB AND CALLER EQ PUSH2 0x28B1 JUMP JUMPDEST CALLVALUE PUSH2 0x26C JUMPI PUSH2 0x2C22 CALLDATASIZE PUSH2 0x2622 JUMP JUMPDEST SWAP1 PUSH0 SWAP1 DUP1 PUSH0 MSTORE PUSH1 0x4 PUSH1 0x20 MSTORE PUSH1 0x40 PUSH0 KECCAK256 SWAP2 PUSH1 0x1 DUP1 PUSH1 0xA0 SHL SUB DUP4 SLOAD AND CALLER EQ DUP1 ISZERO PUSH2 0x2D8D JUMPI JUMPDEST PUSH2 0x2C4E SWAP1 PUSH2 0x3F4F JUMP JUMPDEST PUSH20 0x0 DUP1 EXTCODESIZE ISZERO PUSH2 0x26C JUMPI PUSH0 PUSH1 0x40 MLOAD DUP1 SWAP3 PUSH4 0x252A867 PUSH1 0xE5 SHL DUP3 MSTORE DUP2 DUP1 PUSH2 0x2C89 DUP10 PUSH1 0x4 DUP4 ADD PUSH2 0x3FB5 JUMP JUMPDEST SUB SWAP2 GAS DELEGATECALL DUP1 ISZERO PUSH2 0x684 JUMPI PUSH2 0x2D7A JUMPI JUMPDEST POP PUSH1 0x5 DUP4 ADD PUSH2 0x2CAE DUP6 DUP3 SLOAD PUSH2 0x26D2 DUP3 DUP3 LT PUSH2 0x3C6E JUMP JUMPDEST SWAP1 SSTORE PUSH1 0x1 DUP1 PUSH1 0xA0 SHL SUB PUSH1 0x9 DUP5 ADD SLOAD AND SWAP4 PUSH1 0x7 DUP5 ADD SLOAD SWAP2 PUSH1 0x40 MLOAD SWAP3 PUSH4 0x1C8F0847 PUSH1 0xE0 SHL DUP5 MSTORE DUP3 PUSH1 0x4 DUP6 ADD MSTORE PUSH1 0x24 DUP5 ADD MSTORE PUSH1 0x20 DUP4 PUSH1 0x44 DUP2 PUSH20 0x0 GAS DELEGATECALL SWAP1 DUP2 ISZERO PUSH2 0x27E5 JUMPI SWAP1 PUSH2 0x2D3B JUMPI JUMPDEST PUSH1 0x1 DUP6 ADD DUP1 SLOAD SWAP1 SWAP6 PUSH0 MLOAD PUSH1 0x20 PUSH2 0x45BC PUSH0 CODECOPY PUSH0 MLOAD SWAP1 PUSH0 MSTORE SWAP5 POP PUSH2 0xEA9 SWAP2 PUSH2 0x2764 SWAP1 PUSH1 0x1 PUSH1 0x1 PUSH1 0xA0 SHL SUB AND DUP10 PUSH2 0x20B7 DUP7 DUP9 PUSH2 0x3F18 JUMP JUMPDEST POP PUSH1 0x20 DUP3 RETURNDATASIZE PUSH1 0x20 GT PUSH2 0x2D72 JUMPI JUMPDEST DUP2 PUSH2 0x2D55 PUSH1 0x20 SWAP4 DUP4 PUSH2 0x3CE2 JUMP JUMPDEST DUP2 ADD SUB SLT PUSH2 0x26C JUMPI PUSH0 MLOAD PUSH1 0x20 PUSH2 0x45BC PUSH0 CODECOPY PUSH0 MLOAD SWAP1 PUSH0 MSTORE SWAP2 MLOAD PUSH2 0x2D07 JUMP JUMPDEST RETURNDATASIZE SWAP2 POP PUSH2 0x2D48 JUMP JUMPDEST PUSH2 0x2D86 SWAP2 POP PUSH0 SWAP1 PUSH2 0x3CE2 JUMP JUMPDEST PUSH0 PUSH0 PUSH2 0x2C98 JUMP JUMPDEST POP PUSH1 0x2 DUP4 ADD SLOAD PUSH1 0x1 PUSH1 0x1 PUSH1 0xA0 SHL SUB AND CALLER EQ PUSH2 0x2C45 JUMP JUMPDEST CALLVALUE PUSH2 0x26C JUMPI PUSH2 0x2DB1 CALLDATASIZE PUSH2 0x2622 JUMP JUMPDEST PUSH0 SWAP2 DUP1 PUSH0 MSTORE PUSH1 0x4 PUSH1 0x20 MSTORE PUSH1 0x40 PUSH0 KECCAK256 SWAP3 PUSH1 0x1 DUP5 ADD SWAP3 PUSH1 0x1 DUP1 PUSH1 0xA0 SHL SUB DUP5 SLOAD AND CALLER EQ DUP1 ISZERO PUSH2 0x2F13 JUMPI JUMPDEST PUSH2 0x2DE1 SWAP1 PUSH2 0x41FB JUMP JUMPDEST PUSH20 0x0 DUP1 EXTCODESIZE ISZERO PUSH2 0x26C JUMPI PUSH0 PUSH1 0x40 MLOAD DUP1 SWAP3 PUSH4 0x252A867 PUSH1 0xE5 SHL DUP3 MSTORE DUP2 DUP1 PUSH2 0x2E1C DUP12 PUSH1 0x4 DUP4 ADD PUSH2 0x3FB5 JUMP JUMPDEST SUB SWAP2 GAS DELEGATECALL DUP1 ISZERO PUSH2 0x684 JUMPI PUSH2 0x2EFE JUMPI JUMPDEST POP PUSH1 0x5 DUP6 ADD PUSH2 0x2E41 DUP3 DUP3 SLOAD PUSH2 0x26D2 DUP3 DUP3 LT PUSH2 0x3C6E JUMP JUMPDEST SWAP1 SSTORE PUSH1 0x1 DUP1 PUSH1 0xA0 SHL SUB PUSH1 0x9 DUP7 ADD SLOAD AND SWAP5 PUSH1 0x7 DUP2 ADD SLOAD PUSH1 0x40 MLOAD SWAP1 PUSH4 0x1C8F0847 PUSH1 0xE0 SHL DUP3 MSTORE DUP4 PUSH1 0x4 DUP4 ADD MSTORE PUSH1 0x24 DUP3 ADD MSTORE PUSH1 0x20 DUP2 PUSH1 0x44 DUP2 PUSH20 0x0 GAS DELEGATECALL SWAP4 DUP5 ISZERO PUSH2 0x27E5 JUMPI SWAP4 PUSH2 0x2EC8 JUMPI JUMPDEST POP DUP1 SLOAD PUSH0 MLOAD PUSH1 0x20 PUSH2 0x459C PUSH0 CODECOPY PUSH0 MLOAD SWAP1 PUSH0 MSTORE SWAP4 SWAP2 PUSH2 0xEA9 SWAP2 PUSH2 0x2764 SWAP1 PUSH1 0x1 PUSH1 0x1 PUSH1 0xA0 SHL SUB AND DUP10 PUSH2 0x20B7 DUP7 DUP9 PUSH2 0x3F18 JUMP JUMPDEST SWAP3 POP PUSH1 0x20 DUP4 RETURNDATASIZE PUSH1 0x20 GT PUSH2 0x2EF6 JUMPI JUMPDEST DUP2 PUSH2 0x2EE3 PUSH1 0x20 SWAP4 DUP4 PUSH2 0x3CE2 JUMP JUMPDEST DUP2 ADD SUB SLT PUSH2 0x26C JUMPI SWAP2 MLOAD SWAP2 PUSH2 0xEA9 PUSH2 0x2E99 JUMP JUMPDEST RETURNDATASIZE SWAP2 POP PUSH2 0x2ED6 JUMP JUMPDEST PUSH2 0x2F0B SWAP2 SWAP3 POP PUSH0 SWAP1 PUSH2 0x3CE2 JUMP JUMPDEST PUSH0 SWAP1 PUSH0 PUSH2 0x2E2B JUMP JUMPDEST POP PUSH1 0x2 DUP6 ADD SLOAD PUSH1 0x1 PUSH1 0x1 PUSH1 0xA0 SHL SUB AND CALLER EQ PUSH2 0x2DD8 JUMP JUMPDEST SWAP1 PUSH1 0x6 DUP3 LT ISZERO PUSH2 0x63C JUMPI MSTORE JUMP JUMPDEST SWAP1 PUSH2 0x200 DUP1 PUSH2 0x3023 SWAP4 PUSH1 0x1 DUP1 PUSH1 0xA0 SHL SUB DUP2 MLOAD AND DUP5 MSTORE PUSH1 0x1 DUP1 PUSH1 0xA0 SHL SUB PUSH1 0x20 DUP3 ADD MLOAD AND PUSH1 0x20 DUP6 ADD MSTORE PUSH1 0x1 DUP1 PUSH1 0xA0 SHL SUB PUSH1 0x40 DUP3 ADD MLOAD AND PUSH1 0x40 DUP6 ADD MSTORE PUSH1 0x60 DUP2 ADD MLOAD ISZERO ISZERO PUSH1 0x60 DUP6 ADD MSTORE PUSH1 0x80 DUP2 ADD MLOAD ISZERO ISZERO PUSH1 0x80 DUP6 ADD MSTORE PUSH1 0xA0 DUP2 ADD MLOAD ISZERO ISZERO PUSH1 0xA0 DUP6 ADD MSTORE PUSH1 0xC0 DUP2 ADD MLOAD ISZERO ISZERO PUSH1 0xC0 DUP6 ADD MSTORE PUSH1 0xE0 DUP2 ADD MLOAD PUSH1 0xE0 DUP6 ADD MSTORE PUSH2 0x100 DUP2 ADD MLOAD PUSH2 0x100 DUP6 ADD MSTORE PUSH2 0x120 DUP2 ADD MLOAD PUSH2 0x120 DUP6 ADD MSTORE PUSH2 0x140 DUP2 ADD MLOAD PUSH2 0x140 DUP6 ADD MSTORE PUSH2 0x160 DUP2 ADD MLOAD PUSH2 0x160 DUP6 ADD MSTORE PUSH2 0x180 DUP2 ADD MLOAD PUSH2 0x180 DUP6 ADD MSTORE PUSH1 0x1 DUP1 PUSH1 0xA0 SHL SUB PUSH2 0x1A0 DUP3 ADD MLOAD AND PUSH2 0x1A0 DUP6 ADD MSTORE PUSH1 0x1 DUP1 PUSH1 0xA0 SHL SUB PUSH2 0x1C0 DUP3 ADD MLOAD AND PUSH2 0x1C0 DUP6 ADD MSTORE PUSH2 0x1E0 DUP2 ADD MLOAD PUSH2 0x1E0 DUP6 ADD MSTORE ADD MLOAD SWAP2 ADD SWAP1 PUSH2 0x2F29 JUMP JUMPDEST JUMP JUMPDEST CALLVALUE PUSH2 0x26C JUMPI PUSH2 0x3033 CALLDATASIZE PUSH2 0x2622 JUMP JUMPDEST PUSH0 SWAP2 DUP1 PUSH0 MSTORE PUSH1 0x4 PUSH1 0x20 MSTORE PUSH1 0x40 PUSH0 KECCAK256 SWAP3 PUSH1 0x1 DUP5 ADD SWAP3 PUSH1 0x1 DUP1 PUSH1 0xA0 SHL SUB DUP5 SLOAD AND CALLER EQ DUP1 ISZERO PUSH2 0x31A8 JUMPI JUMPDEST PUSH2 0x3063 SWAP1 PUSH2 0x41FB JUMP JUMPDEST PUSH20 0x0 DUP1 EXTCODESIZE ISZERO PUSH2 0x26C JUMPI PUSH0 PUSH1 0x40 MLOAD DUP1 SWAP3 PUSH4 0x252A867 PUSH1 0xE5 SHL DUP3 MSTORE DUP2 DUP1 PUSH2 0x309E DUP12 PUSH1 0x4 DUP4 ADD PUSH2 0x3FB5 JUMP JUMPDEST SUB SWAP2 GAS DELEGATECALL DUP1 ISZERO PUSH2 0x684 JUMPI PUSH2 0x3193 JUMPI JUMPDEST POP PUSH1 0x6 DUP6 ADD PUSH2 0x30C3 DUP3 DUP3 SLOAD PUSH2 0x26D2 DUP3 DUP3 LT PUSH2 0x3C6E JUMP JUMPDEST SWAP1 SSTORE PUSH1 0x1 DUP1 PUSH1 0xA0 SHL SUB PUSH1 0xA DUP7 ADD SLOAD AND SWAP5 PUSH1 0x8 DUP2 ADD SLOAD PUSH1 0x40 MLOAD SWAP1 PUSH4 0x1C8F0847 PUSH1 0xE0 SHL DUP3 MSTORE DUP4 PUSH1 0x4 DUP4 ADD MSTORE PUSH1 0x24 DUP3 ADD MSTORE PUSH1 0x20 DUP2 PUSH1 0x44 DUP2 PUSH20 0x0 GAS DELEGATECALL SWAP4 DUP5 ISZERO PUSH2 0x27E5 JUMPI SWAP4 PUSH2 0x315D JUMPI JUMPDEST POP DUP1 SLOAD PUSH32 0x8AF39814826D4542F7FE66E6FA6AC2AC59BFC8221394F51A41DBA5C54DBA0AC9 SWAP4 SWAP2 PUSH2 0xEA9 SWAP2 PUSH2 0x2764 SWAP1 PUSH1 0x1 PUSH1 0x1 PUSH1 0xA0 SHL SUB AND DUP10 PUSH2 0x20B7 DUP7 DUP9 PUSH2 0x3F18 JUMP JUMPDEST SWAP3 POP PUSH1 0x20 DUP4 RETURNDATASIZE PUSH1 0x20 GT PUSH2 0x318B JUMPI JUMPDEST DUP2 PUSH2 0x3178 PUSH1 0x20 SWAP4 DUP4 PUSH2 0x3CE2 JUMP JUMPDEST DUP2 ADD SUB SLT PUSH2 0x26C JUMPI SWAP2 MLOAD SWAP2 PUSH2 0xEA9 PUSH2 0x311B JUMP JUMPDEST RETURNDATASIZE SWAP2 POP PUSH2 0x316B JUMP JUMPDEST PUSH2 0x31A0 SWAP2 SWAP3 POP PUSH0 SWAP1 PUSH2 0x3CE2 JUMP JUMPDEST PUSH0 SWAP1 PUSH0 PUSH2 0x30AD JUMP JUMPDEST POP PUSH1 0x2 DUP6 ADD SLOAD PUSH1 0x1 PUSH1 0x1 PUSH1 0xA0 SHL SUB AND CALLER EQ PUSH2 0x305A JUMP JUMPDEST CALLVALUE PUSH2 0x26C JUMPI PUSH2 0x31CC CALLDATASIZE PUSH2 0x2622 JUMP JUMPDEST PUSH0 SWAP2 DUP1 PUSH0 MSTORE PUSH1 0x4 PUSH1 0x20 MSTORE PUSH1 0x40 PUSH0 KECCAK256 SWAP3 PUSH1 0x1 DUP5 ADD SWAP3 PUSH1 0x1 DUP1 PUSH1 0xA0 SHL SUB DUP5 SLOAD AND CALLER SUB PUSH2 0x351F JUMPI PUSH20 0x0 DUP1 EXTCODESIZE ISZERO PUSH2 0x26C JUMPI PUSH0 PUSH1 0x40 MLOAD DUP1 SWAP3 PUSH4 0x252A867 PUSH1 0xE5 SHL DUP3 MSTORE DUP2 DUP1 PUSH2 0x322B DUP12 PUSH1 0x4 DUP4 ADD PUSH2 0x3FB5 JUMP JUMPDEST SUB SWAP2 GAS DELEGATECALL DUP1 ISZERO PUSH2 0x684 JUMPI PUSH2 0x350A JUMPI JUMPDEST POP PUSH1 0xA DUP6 ADD DUP1 SLOAD CALLER PUSH0 SWAP1 DUP2 MSTORE PUSH1 0x1 PUSH1 0x20 SWAP1 DUP2 MSTORE PUSH1 0x40 DUP1 DUP4 KECCAK256 PUSH1 0x1 PUSH1 0x1 PUSH1 0xA0 SHL SUB SWAP1 SWAP5 AND DUP1 DUP5 MSTORE SWAP4 SWAP1 SWAP2 MSTORE SWAP1 KECCAK256 SLOAD SWAP1 SWAP4 SWAP1 DUP4 DUP2 LT PUSH2 0x32FD JUMPI JUMPDEST POP POP SLOAD PUSH32 0x9D5818EC36D6E85E8A30346F5FE41B65CC50CEA2B868AE94F293D113C92A1338 SWAP3 POP PUSH2 0x32AD SWAP1 DUP3 SWAP1 PUSH1 0x1 PUSH1 0x1 PUSH1 0xA0 SHL SUB AND CALLER PUSH2 0x430B JUMP JUMPDEST POP PUSH1 0x6 DUP6 ADD PUSH2 0x32BD DUP3 DUP3 SLOAD PUSH2 0x4102 JUMP JUMPDEST SWAP1 SSTORE DUP5 SLOAD SWAP4 SLOAD PUSH1 0x2 SWAP1 SWAP6 ADD SLOAD PUSH1 0x40 DUP1 MLOAD PUSH1 0x1 PUSH1 0x1 PUSH1 0xA0 SHL SUB SWAP3 DUP4 AND DUP2 MSTORE PUSH1 0x20 DUP2 ADD SWAP4 SWAP1 SWAP4 MSTORE SWAP6 DUP2 AND SWAP6 SWAP5 AND SWAP4 DUP2 SWAP1 DUP2 ADD JUMPDEST SUB SWAP1 LOG4 PUSH1 0x20 PUSH1 0x1 PUSH1 0x40 MLOAD SWAP1 DUP2 MSTORE RETURN JUMPDEST PUSH2 0x3307 SWAP1 DUP5 PUSH2 0x3F18 JUMP JUMPDEST SWAP2 PUSH2 0x3318 PUSH1 0xFF DUP4 SLOAD PUSH1 0xA0 SHR AND PUSH2 0x3C22 JUMP JUMPDEST DUP3 ISZERO PUSH2 0x938 JUMPI PUSH1 0x2 SLOAD SWAP2 PUSH1 0x40 MLOAD SWAP3 PUSH4 0x1C8F0847 PUSH1 0xE0 SHL DUP5 MSTORE DUP5 PUSH1 0x4 DUP6 ADD MSTORE PUSH1 0x24 DUP5 ADD MSTORE PUSH1 0x20 DUP4 PUSH1 0x44 DUP2 PUSH20 0x0 GAS DELEGATECALL SWAP3 DUP4 ISZERO PUSH2 0x34FD JUMPI DUP2 SWAP4 PUSH2 0x34C9 JUMPI JUMPDEST POP DUP6 PUSH2 0x33EE JUMPI POP PUSH2 0x3377 DUP3 DUP5 PUSH2 0x4102 JUMP JUMPDEST PUSH2 0x79F JUMPI DUP5 DUP4 DUP6 SWAP4 PUSH2 0x33AE PUSH2 0x32AD SWAP7 PUSH32 0x9D5818EC36D6E85E8A30346F5FE41B65CC50CEA2B868AE94F293D113C92A1338 SWAP10 CALLER PUSH2 0x4500 JUMP JUMPDEST POP PUSH1 0x3 SLOAD PUSH2 0x33C8 SWAP1 DUP3 SWAP1 DUP6 SWAP1 PUSH1 0x1 PUSH1 0x1 PUSH1 0xA0 SHL SUB AND PUSH2 0x4500 JUMP JUMPDEST POP JUMPDEST PUSH1 0x40 MLOAD SWAP2 DUP3 MSTORE PUSH1 0x20 DUP3 ADD MSTORE PUSH0 MLOAD PUSH1 0x20 PUSH2 0x45DC PUSH0 CODECOPY PUSH0 MLOAD SWAP1 PUSH0 MSTORE PUSH1 0x40 CALLER SWAP3 LOG3 SWAP2 PUSH2 0x3272 JUMP JUMPDEST PUSH2 0x33F8 DUP4 DUP6 PUSH2 0x4102 JUMP JUMPDEST PUSH1 0x40 MLOAD SWAP1 PUSH4 0x23B872DD PUSH1 0xE0 SHL DUP3 MSTORE CALLER PUSH1 0x4 DUP4 ADD MSTORE ADDRESS PUSH1 0x24 DUP4 ADD MSTORE PUSH1 0x44 DUP3 ADD MSTORE PUSH1 0x20 DUP2 PUSH1 0x64 DUP2 DUP6 DUP12 GAS CALL SWAP2 DUP3 ISZERO PUSH2 0x27E5 JUMPI DUP1 SWAP3 PUSH2 0x3489 JUMPI JUMPDEST POP POP ISZERO PUSH2 0x86D JUMPI DUP5 DUP4 DUP6 SWAP4 PUSH2 0x3469 PUSH2 0x32AD SWAP7 PUSH32 0x9D5818EC36D6E85E8A30346F5FE41B65CC50CEA2B868AE94F293D113C92A1338 SWAP10 CALLER PUSH2 0x4500 JUMP JUMPDEST POP PUSH1 0x3 SLOAD PUSH2 0x3483 SWAP1 DUP3 SWAP1 DUP6 SWAP1 PUSH1 0x1 PUSH1 0x1 PUSH1 0xA0 SHL SUB AND PUSH2 0x4500 JUMP JUMPDEST POP PUSH2 0x33CA JUMP JUMPDEST SWAP1 SWAP2 POP PUSH1 0x20 DUP3 RETURNDATASIZE PUSH1 0x20 GT PUSH2 0x34C1 JUMPI JUMPDEST DUP2 PUSH2 0x34A5 PUSH1 0x20 SWAP4 DUP4 PUSH2 0x3CE2 JUMP JUMPDEST DUP2 ADD SUB SLT PUSH2 0x34BE JUMPI POP PUSH2 0x34B7 SWAP1 PUSH2 0x3D18 JUMP JUMPDEST PUSH0 DUP1 PUSH2 0x342F JUMP JUMPDEST DUP1 REVERT JUMPDEST RETURNDATASIZE SWAP2 POP PUSH2 0x3498 JUMP JUMPDEST SWAP1 SWAP3 POP PUSH1 0x20 DUP2 RETURNDATASIZE PUSH1 0x20 GT PUSH2 0x34F5 JUMPI JUMPDEST DUP2 PUSH2 0x34E5 PUSH1 0x20 SWAP4 DUP4 PUSH2 0x3CE2 JUMP JUMPDEST DUP2 ADD SUB SLT PUSH2 0x26C JUMPI MLOAD SWAP2 PUSH0 PUSH2 0x3366 JUMP JUMPDEST RETURNDATASIZE SWAP2 POP PUSH2 0x34D8 JUMP JUMPDEST POP PUSH1 0x40 MLOAD SWAP1 RETURNDATASIZE SWAP1 DUP3 RETURNDATACOPY RETURNDATASIZE SWAP1 REVERT JUMPDEST PUSH2 0x3517 SWAP2 SWAP3 POP PUSH0 SWAP1 PUSH2 0x3CE2 JUMP JUMPDEST PUSH0 SWAP1 PUSH0 PUSH2 0x323A JUMP JUMPDEST PUSH1 0x40 MLOAD PUSH3 0x461BCD PUSH1 0xE5 SHL DUP2 MSTORE PUSH1 0x20 PUSH1 0x4 DUP3 ADD MSTORE PUSH1 0x28 PUSH1 0x24 DUP3 ADD MSTORE PUSH32 0x4F6E6C79206120636F756E74657270617274792063616E2063616C6C20746869 PUSH1 0x44 DUP3 ADD MSTORE PUSH8 0x1CC81B595D1A1BD9 PUSH1 0xC2 SHL PUSH1 0x64 DUP3 ADD MSTORE PUSH1 0x84 SWAP1 REVERT JUMPDEST PUSH2 0x357E CALLDATASIZE PUSH2 0x2622 JUMP JUMPDEST PUSH0 DUP3 DUP2 MSTORE PUSH1 0x4 PUSH1 0x20 MSTORE PUSH1 0x40 DUP2 KECCAK256 DUP1 SLOAD SWAP1 SWAP4 SWAP2 SWAP1 PUSH1 0x1 PUSH1 0x1 PUSH1 0xA0 SHL SUB AND CALLER SUB PUSH2 0x3874 JUMPI PUSH20 0x0 DUP1 EXTCODESIZE ISZERO PUSH2 0x26C JUMPI PUSH0 PUSH1 0x40 MLOAD DUP1 SWAP3 PUSH4 0x252A867 PUSH1 0xE5 SHL DUP3 MSTORE DUP2 DUP1 PUSH2 0x35DB DUP11 PUSH1 0x4 DUP4 ADD PUSH2 0x3FB5 JUMP JUMPDEST SUB SWAP2 GAS DELEGATECALL DUP1 ISZERO PUSH2 0x684 JUMPI PUSH2 0x3861 JUMPI JUMPDEST POP PUSH1 0x9 DUP5 ADD DUP1 SLOAD CALLER PUSH0 SWAP1 DUP2 MSTORE PUSH1 0x1 PUSH1 0x20 SWAP1 DUP2 MSTORE PUSH1 0x40 DUP1 DUP4 KECCAK256 PUSH1 0x1 PUSH1 0x1 PUSH1 0xA0 SHL SUB SWAP1 SWAP5 AND DUP1 DUP5 MSTORE SWAP4 SWAP1 SWAP2 MSTORE SWAP1 KECCAK256 SLOAD SWAP1 SWAP3 DUP6 SWAP3 SWAP2 DUP4 DUP2 LT PUSH2 0x36A5 JUMPI JUMPDEST POP POP SLOAD PUSH2 0x363B SWAP3 POP PUSH1 0x1 PUSH1 0x1 PUSH1 0xA0 SHL SUB AND CALLER PUSH2 0x430B JUMP JUMPDEST POP PUSH1 0x5 DUP4 ADD PUSH2 0x364B DUP4 DUP3 SLOAD PUSH2 0x4102 JUMP JUMPDEST SWAP1 SSTORE DUP3 SLOAD PUSH1 0x1 DUP5 ADD SLOAD PUSH1 0x2 SWAP1 SWAP5 ADD SLOAD PUSH1 0x40 DUP1 MLOAD PUSH1 0x1 PUSH1 0x1 PUSH1 0xA0 SHL SUB SWAP3 DUP4 AND DUP2 MSTORE PUSH1 0x20 DUP2 ADD SWAP6 SWAP1 SWAP6 MSTORE SWAP5 DUP2 AND SWAP5 SWAP2 AND SWAP3 PUSH32 0x3C0DD30126238EAEBBB306E073222EECD03A091D41C39A4B2742759D406C8F55 SWAP2 DUP2 SWAP1 DUP2 ADD PUSH2 0x32EE JUMP JUMPDEST PUSH2 0x36AF SWAP2 SWAP4 PUSH2 0x3F18 JUMP JUMPDEST SWAP3 PUSH2 0x36C0 PUSH1 0xFF DUP5 SLOAD PUSH1 0xA0 SHR AND PUSH2 0x3C22 JUMP JUMPDEST DUP4 ISZERO PUSH2 0x938 JUMPI PUSH1 0x2 SLOAD SWAP3 PUSH1 0x40 MLOAD SWAP4 PUSH4 0x1C8F0847 PUSH1 0xE0 SHL DUP6 MSTORE DUP6 PUSH1 0x4 DUP7 ADD MSTORE PUSH1 0x24 DUP6 ADD MSTORE PUSH1 0x20 DUP5 PUSH1 0x44 DUP2 PUSH20 0x0 GAS DELEGATECALL SWAP4 DUP5 ISZERO PUSH2 0x34FD JUMPI DUP2 SWAP5 PUSH2 0x382D JUMPI JUMPDEST POP DUP2 PUSH2 0x3777 JUMPI POP PUSH2 0x371F DUP4 DUP6 PUSH2 0x4102 JUMP JUMPDEST CALLVALUE SUB PUSH2 0x79F JUMPI DUP4 DUP7 SWAP4 PUSH2 0x3736 PUSH2 0x363B SWAP7 DUP5 CALLER PUSH2 0x4500 JUMP JUMPDEST POP PUSH1 0x3 SLOAD PUSH2 0x3750 SWAP1 DUP3 SWAP1 DUP6 SWAP1 PUSH1 0x1 PUSH1 0x1 PUSH1 0xA0 SHL SUB AND PUSH2 0x4500 JUMP JUMPDEST POP JUMPDEST PUSH1 0x40 MLOAD SWAP2 DUP3 MSTORE PUSH1 0x20 DUP3 ADD MSTORE PUSH0 MLOAD PUSH1 0x20 PUSH2 0x45DC PUSH0 CODECOPY PUSH0 MLOAD SWAP1 PUSH0 MSTORE PUSH1 0x40 CALLER SWAP3 LOG3 PUSH0 DUP1 PUSH2 0x3624 JUMP JUMPDEST PUSH2 0x3781 DUP5 DUP7 PUSH2 0x4102 JUMP JUMPDEST PUSH1 0x40 MLOAD SWAP1 PUSH4 0x23B872DD PUSH1 0xE0 SHL DUP3 MSTORE CALLER PUSH1 0x4 DUP4 ADD MSTORE ADDRESS PUSH1 0x24 DUP4 ADD MSTORE PUSH1 0x44 DUP3 ADD MSTORE PUSH1 0x20 DUP2 PUSH1 0x64 DUP2 DUP6 DUP8 GAS CALL SWAP2 DUP3 ISZERO PUSH2 0x27E5 JUMPI DUP1 SWAP3 PUSH2 0x37F0 JUMPI JUMPDEST POP POP ISZERO PUSH2 0x86D JUMPI DUP4 DUP7 SWAP4 PUSH2 0x37D0 PUSH2 0x363B SWAP7 DUP5 CALLER PUSH2 0x4500 JUMP JUMPDEST POP PUSH1 0x3 SLOAD PUSH2 0x37EA SWAP1 DUP3 SWAP1 DUP6 SWAP1 PUSH1 0x1 PUSH1 0x1 PUSH1 0xA0 SHL SUB AND PUSH2 0x4500 JUMP JUMPDEST POP PUSH2 0x3752 JUMP JUMPDEST SWAP1 SWAP2 POP PUSH1 0x20 DUP3 RETURNDATASIZE PUSH1 0x20 GT PUSH2 0x3825 JUMPI JUMPDEST DUP2 PUSH2 0x380C PUSH1 0x20 SWAP4 DUP4 PUSH2 0x3CE2 JUMP JUMPDEST DUP2 ADD SUB SLT PUSH2 0x34BE JUMPI POP PUSH2 0x381E SWAP1 PUSH2 0x3D18 JUMP JUMPDEST PUSH0 DUP1 PUSH2 0x37B8 JUMP JUMPDEST RETURNDATASIZE SWAP2 POP PUSH2 0x37FF JUMP JUMPDEST SWAP1 SWAP4 POP PUSH1 0x20 DUP2 RETURNDATASIZE PUSH1 0x20 GT PUSH2 0x3859 JUMPI JUMPDEST DUP2 PUSH2 0x3849 PUSH1 0x20 SWAP4 DUP4 PUSH2 0x3CE2 JUMP JUMPDEST DUP2 ADD SUB SLT PUSH2 0x26C JUMPI MLOAD SWAP3 PUSH0 PUSH2 0x370E JUMP JUMPDEST RETURNDATASIZE SWAP2 POP PUSH2 0x383C JUMP JUMPDEST PUSH2 0x386D SWAP2 POP PUSH0 SWAP1 PUSH2 0x3CE2 JUMP JUMPDEST PUSH0 PUSH0 PUSH2 0x35EA JUMP JUMPDEST PUSH1 0x40 MLOAD PUSH3 0x461BCD PUSH1 0xE5 SHL DUP2 MSTORE PUSH1 0x20 PUSH1 0x4 DUP3 ADD MSTORE PUSH1 0x25 PUSH1 0x24 DUP3 ADD MSTORE PUSH32 0x4F6E6C79206120696E69746174696F722063616E2063616C6C2074686973206D PUSH1 0x44 DUP3 ADD MSTORE PUSH5 0x195D1A1BD9 PUSH1 0xDA SHL PUSH1 0x64 DUP3 ADD MSTORE PUSH1 0x84 SWAP1 REVERT JUMPDEST CALLVALUE PUSH2 0x26C JUMPI PUSH0 PUSH1 0x20 CALLDATASIZE PUSH1 0x3 NOT ADD SLT PUSH2 0x26C JUMPI PUSH1 0x4 CALLDATALOAD DUP1 PUSH0 MSTORE PUSH1 0x4 PUSH1 0x20 MSTORE PUSH1 0x40 PUSH0 KECCAK256 PUSH1 0x1 DUP2 ADD SWAP1 PUSH1 0x1 DUP1 PUSH1 0xA0 SHL SUB DUP3 SLOAD AND CALLER EQ DUP1 ISZERO PUSH2 0x3C0C JUMPI JUMPDEST ISZERO PUSH2 0x3BAF JUMPI PUSH20 0x0 DUP1 EXTCODESIZE ISZERO PUSH2 0x26C JUMPI PUSH0 PUSH1 0x40 MLOAD DUP1 SWAP3 PUSH4 0x252A867 PUSH1 0xE5 SHL DUP3 MSTORE DUP2 DUP1 PUSH2 0x3940 DUP8 PUSH1 0x4 DUP4 ADD PUSH2 0x3FB5 JUMP JUMPDEST SUB SWAP2 GAS DELEGATECALL DUP1 ISZERO PUSH2 0x684 JUMPI PUSH2 0x3B9A JUMPI JUMPDEST POP PUSH1 0x5 DUP2 ADD SLOAD PUSH1 0x9 DUP3 ADD SLOAD PUSH1 0x6 DUP4 ADD SLOAD PUSH1 0xA DUP5 ADD SLOAD PUSH1 0x7 DUP6 ADD SLOAD PUSH1 0x8 DUP7 ADD SLOAD PUSH1 0x40 MLOAD PUSH4 0x1C8F0847 PUSH1 0xE0 SHL DUP2 MSTORE PUSH1 0x4 DUP2 ADD DUP8 SWAP1 MSTORE PUSH1 0x24 DUP2 ADD SWAP3 SWAP1 SWAP3 MSTORE PUSH1 0x1 PUSH1 0x1 PUSH1 0xA0 SHL SUB SWAP5 DUP6 AND SWAP8 SWAP6 SWAP7 SWAP2 SWAP6 SWAP5 PUSH20 0x0 SWAP4 AND SWAP1 PUSH1 0x20 DUP8 PUSH1 0x44 DUP2 DUP8 GAS DELEGATECALL SWAP7 DUP8 ISZERO PUSH2 0x3B8F JUMPI DUP12 SWAP8 PUSH2 0x3B5A JUMPI JUMPDEST POP PUSH1 0x20 SWAP1 PUSH1 0x44 PUSH1 0x40 MLOAD DUP1 SWAP7 DUP2 SWAP4 PUSH4 0x1C8F0847 PUSH1 0xE0 SHL DUP4 MSTORE DUP10 PUSH1 0x4 DUP5 ADD MSTORE PUSH1 0x24 DUP4 ADD MSTORE GAS DELEGATECALL SWAP3 DUP4 ISZERO PUSH2 0x2B82 JUMPI DUP10 SWAP11 SWAP10 SWAP9 SWAP10 SWAP4 PUSH2 0x3B1C JUMPI JUMPDEST POP DUP2 SLOAD DUP9 SWAP5 SWAP4 SWAP3 SWAP2 SWAP1 PUSH1 0x1 PUSH1 0x1 PUSH1 0xA0 SHL SUB AND DUP11 PUSH2 0x3A1D DUP10 DUP12 PUSH2 0x3F18 JUMP JUMPDEST SWAP1 PUSH2 0x3A27 SWAP3 PUSH2 0x43B2 JUMP JUMPDEST POP PUSH1 0x2 DUP3 ADD DUP1 SLOAD SWAP1 SWAP11 PUSH2 0x3A45 SWAP2 DUP10 SWAP2 SWAP1 PUSH1 0x1 PUSH1 0x1 PUSH1 0xA0 SHL SUB AND PUSH2 0x43B2 JUMP JUMPDEST POP DUP6 SLOAD PUSH1 0x1 PUSH1 0x1 PUSH1 0xA0 SHL SUB AND DUP2 PUSH2 0x3A5C DUP7 DUP1 PUSH2 0x3F18 JUMP JUMPDEST SWAP1 PUSH2 0x3A66 SWAP3 PUSH2 0x43B2 JUMP JUMPDEST POP DUP10 SLOAD PUSH2 0x3A7D SWAP2 DUP5 SWAP2 PUSH1 0x1 PUSH1 0x1 PUSH1 0xA0 SHL SUB AND PUSH2 0x43B2 JUMP JUMPDEST POP SLOAD SWAP4 SLOAD SWAP8 SLOAD PUSH1 0x40 MLOAD PUSH1 0x1 PUSH1 0x1 PUSH1 0xA0 SHL SUB SWAP10 DUP11 AND SWAP11 SWAP6 DUP11 AND SWAP10 SWAP1 SWAP2 AND SWAP7 DUP11 SWAP7 DUP11 SWAP7 DUP9 SWAP4 DUP9 SWAP4 SWAP2 SWAP3 SWAP1 SWAP2 DUP3 SWAP2 PUSH2 0x3AB4 SWAP2 CALLER DUP15 DUP6 PUSH2 0x3F25 JUMP JUMPDEST SUB PUSH0 MLOAD PUSH1 0x20 PUSH2 0x459C PUSH0 CODECOPY PUSH0 MLOAD SWAP1 PUSH0 MSTORE SWAP2 LOG4 PUSH1 0x40 MLOAD SWAP2 DUP3 SWAP2 PUSH2 0x3AD7 SWAP2 CALLER DUP10 DUP6 PUSH2 0x3F25 JUMP JUMPDEST SUB PUSH0 MLOAD PUSH1 0x20 PUSH2 0x455C PUSH0 CODECOPY PUSH0 MLOAD SWAP1 PUSH0 MSTORE SWAP2 LOG4 PUSH1 0x40 DUP1 MLOAD PUSH1 0x1 PUSH1 0x1 PUSH1 0xA0 SHL SUB SWAP3 SWAP1 SWAP3 AND DUP3 MSTORE CALLER PUSH1 0x20 DUP4 ADD MSTORE PUSH0 MLOAD PUSH1 0x20 PUSH2 0x457C PUSH0 CODECOPY PUSH0 MLOAD SWAP1 PUSH0 MSTORE SWAP2 LOG4 PUSH1 0x40 MLOAD PUSH1 0x1 DUP2 MSTORE PUSH1 0x20 SWAP1 RETURN JUMPDEST SWAP4 SWAP3 POP SWAP1 SWAP7 POP PUSH1 0x20 DUP4 RETURNDATASIZE PUSH1 0x20 GT PUSH2 0x3B52 JUMPI JUMPDEST DUP2 PUSH2 0x3B3B PUSH1 0x20 SWAP4 DUP4 PUSH2 0x3CE2 JUMP JUMPDEST DUP2 ADD SUB SLT PUSH2 0x26C JUMPI DUP9 SWAP7 DUP8 SWAP4 MLOAD SWAP3 SWAP4 SWAP2 SWAP1 SWAP2 PUSH2 0x3A00 JUMP JUMPDEST RETURNDATASIZE SWAP2 POP PUSH2 0x3B2E JUMP JUMPDEST SWAP1 SWAP7 POP PUSH1 0x20 DUP2 RETURNDATASIZE PUSH1 0x20 GT PUSH2 0x3B87 JUMPI JUMPDEST DUP2 PUSH2 0x3B76 PUSH1 0x20 SWAP4 DUP4 PUSH2 0x3CE2 JUMP JUMPDEST DUP2 ADD SUB SLT PUSH2 0x26C JUMPI MLOAD SWAP6 PUSH1 0x20 PUSH2 0x39CA JUMP JUMPDEST RETURNDATASIZE SWAP2 POP PUSH2 0x3B69 JUMP JUMPDEST PUSH1 0x40 MLOAD RETURNDATASIZE DUP14 DUP3 RETURNDATACOPY RETURNDATASIZE SWAP1 REVERT JUMPDEST PUSH2 0x3BA7 SWAP2 SWAP5 POP PUSH0 SWAP1 PUSH2 0x3CE2 JUMP JUMPDEST PUSH0 SWAP3 PUSH0 PUSH2 0x394F JUMP JUMPDEST PUSH1 0x40 MLOAD PUSH3 0x461BCD PUSH1 0xE5 SHL DUP2 MSTORE PUSH1 0x20 PUSH1 0x4 DUP3 ADD MSTORE PUSH1 0x2F PUSH1 0x24 DUP3 ADD MSTORE PUSH32 0x4F6E6C79206120636F756E7465727061727479206F72206D65646961746F7220 PUSH1 0x44 DUP3 ADD MSTORE PUSH15 0x18D85B8818D85B98D95B081919585B PUSH1 0x8A SHL PUSH1 0x64 DUP3 ADD MSTORE PUSH1 0x84 SWAP1 REVERT JUMPDEST POP PUSH1 0x2 DUP2 ADD SLOAD PUSH1 0x1 PUSH1 0x1 PUSH1 0xA0 SHL SUB AND CALLER EQ PUSH2 0x3900 JUMP JUMPDEST ISZERO PUSH2 0x3C29 JUMPI JUMP JUMPDEST PUSH1 0x40 MLOAD PUSH3 0x461BCD PUSH1 0xE5 SHL DUP2 MSTORE PUSH1 0x20 PUSH1 0x4 DUP3 ADD MSTORE PUSH1 0x1E PUSH1 0x24 DUP3 ADD MSTORE PUSH32 0x436F6E74726163742069732063757272656E746C792064697361626C65640000 PUSH1 0x44 DUP3 ADD MSTORE PUSH1 0x64 SWAP1 REVERT JUMPDEST ISZERO PUSH2 0x3C75 JUMPI JUMP JUMPDEST PUSH1 0x40 MLOAD PUSH3 0x461BCD PUSH1 0xE5 SHL DUP2 MSTORE PUSH1 0x20 PUSH1 0x4 DUP3 ADD MSTORE PUSH1 0x14 PUSH1 0x24 DUP3 ADD MSTORE PUSH20 0x496E73756666696369656E742062616C616E6365 PUSH1 0x60 SHL PUSH1 0x44 DUP3 ADD MSTORE PUSH1 0x64 SWAP1 REVERT JUMPDEST PUSH2 0x220 DUP2 ADD SWAP1 DUP2 LT PUSH8 0xFFFFFFFFFFFFFFFF DUP3 GT OR PUSH2 0x3CCE JUMPI PUSH1 0x40 MSTORE JUMP JUMPDEST PUSH4 0x4E487B71 PUSH1 0xE0 SHL PUSH0 MSTORE PUSH1 0x41 PUSH1 0x4 MSTORE PUSH1 0x24 PUSH0 REVERT JUMPDEST SWAP1 PUSH1 0x1F DUP1 NOT SWAP2 ADD AND DUP2 ADD SWAP1 DUP2 LT PUSH8 0xFFFFFFFFFFFFFFFF DUP3 GT OR PUSH2 0x3CCE JUMPI PUSH1 0x40 MSTORE JUMP JUMPDEST MLOAD SWAP1 PUSH1 0x1 PUSH1 0x1 PUSH1 0xA0 SHL SUB DUP3 AND DUP3 SUB PUSH2 0x26C JUMPI JUMP JUMPDEST MLOAD SWAP1 DUP2 ISZERO ISZERO DUP3 SUB PUSH2 0x26C JUMPI JUMP JUMPDEST SWAP1 DUP2 PUSH2 0x220 SWAP2 SUB SLT PUSH2 0x26C JUMPI PUSH2 0x200 PUSH1 0x40 MLOAD SWAP2 PUSH2 0x3D41 DUP4 PUSH2 0x3CB1 JUMP JUMPDEST PUSH2 0x3D4A DUP2 PUSH2 0x3D04 JUMP JUMPDEST DUP4 MSTORE PUSH2 0x3D58 PUSH1 0x20 DUP3 ADD PUSH2 0x3D04 JUMP JUMPDEST PUSH1 0x20 DUP5 ADD MSTORE PUSH2 0x3D69 PUSH1 0x40 DUP3 ADD PUSH2 0x3D04 JUMP JUMPDEST PUSH1 0x40 DUP5 ADD MSTORE PUSH2 0x3D7A PUSH1 0x60 DUP3 ADD PUSH2 0x3D18 JUMP JUMPDEST PUSH1 0x60 DUP5 ADD MSTORE PUSH2 0x3D8B PUSH1 0x80 DUP3 ADD PUSH2 0x3D18 JUMP JUMPDEST PUSH1 0x80 DUP5 ADD MSTORE PUSH2 0x3D9C PUSH1 0xA0 DUP3 ADD PUSH2 0x3D18 JUMP JUMPDEST PUSH1 0xA0 DUP5 ADD MSTORE PUSH2 0x3DAD PUSH1 0xC0 DUP3 ADD PUSH2 0x3D18 JUMP JUMPDEST PUSH1 0xC0 DUP5 ADD MSTORE PUSH1 0xE0 DUP2 ADD MLOAD PUSH1 0xE0 DUP5 ADD MSTORE PUSH2 0x100 DUP2 ADD MLOAD PUSH2 0x100 DUP5 ADD MSTORE PUSH2 0x120 DUP2 ADD MLOAD PUSH2 0x120 DUP5 ADD MSTORE PUSH2 0x140 DUP2 ADD MLOAD PUSH2 0x140 DUP5 ADD MSTORE PUSH2 0x160 DUP2 ADD MLOAD PUSH2 0x160 DUP5 ADD MSTORE PUSH2 0x180 DUP2 ADD MLOAD PUSH2 0x180 DUP5 ADD MSTORE PUSH2 0x3E05 PUSH2 0x1A0 DUP3 ADD PUSH2 0x3D04 JUMP JUMPDEST PUSH2 0x1A0 DUP5 ADD MSTORE PUSH2 0x3E18 PUSH2 0x1C0 DUP3 ADD PUSH2 0x3D04 JUMP JUMPDEST PUSH2 0x1C0 DUP5 ADD MSTORE PUSH2 0x1E0 DUP2 ADD MLOAD PUSH2 0x1E0 DUP5 ADD MSTORE ADD MLOAD PUSH1 0x6 DUP2 LT ISZERO PUSH2 0x26C JUMPI PUSH2 0x200 DUP3 ADD MSTORE SWAP1 JUMP JUMPDEST PUSH1 0x1 PUSH1 0x1 PUSH1 0xA0 SHL SUB SWAP2 DUP3 AND DUP2 MSTORE SWAP2 DUP2 AND PUSH1 0x20 DUP4 ADD MSTORE SWAP2 DUP3 AND PUSH1 0x40 DUP3 ADD MSTORE PUSH1 0x60 DUP2 ADD SWAP3 SWAP1 SWAP3 MSTORE PUSH1 0x80 DUP3 ADD SWAP3 SWAP1 SWAP3 MSTORE PUSH1 0xA0 DUP2 ADD SWAP3 SWAP1 SWAP3 MSTORE PUSH1 0xC0 DUP3 ADD SWAP3 SWAP1 SWAP3 MSTORE SWAP2 DUP2 AND PUSH1 0xE0 DUP4 ADD MSTORE SWAP1 SWAP2 AND PUSH2 0x100 DUP3 ADD MSTORE PUSH2 0x120 DUP2 ADD SWAP2 SWAP1 SWAP2 MSTORE PUSH2 0x160 DUP2 ADD SWAP3 SWAP2 PUSH2 0x3023 SWAP2 PUSH2 0x140 ADD SWAP1 PUSH2 0x2F29 JUMP JUMPDEST PUSH0 NOT DUP2 EQ PUSH2 0x3EB8 JUMPI PUSH1 0x1 ADD SWAP1 JUMP JUMPDEST PUSH4 0x4E487B71 PUSH1 0xE0 SHL PUSH0 MSTORE PUSH1 0x11 PUSH1 0x4 MSTORE PUSH1 0x24 PUSH0 REVERT JUMPDEST ISZERO PUSH2 0x3ED3 JUMPI JUMP JUMPDEST PUSH1 0x40 MLOAD PUSH3 0x461BCD PUSH1 0xE5 SHL DUP2 MSTORE PUSH1 0x20 PUSH1 0x4 DUP3 ADD MSTORE PUSH1 0x17 PUSH1 0x24 DUP3 ADD MSTORE PUSH32 0x43616E7420656469742066696E6973686564206465616C000000000000000000 PUSH1 0x44 DUP3 ADD MSTORE PUSH1 0x64 SWAP1 REVERT JUMPDEST SWAP2 SWAP1 DUP3 SUB SWAP2 DUP3 GT PUSH2 0x3EB8 JUMPI JUMP JUMPDEST PUSH1 0x1 PUSH1 0x1 PUSH1 0xA0 SHL SUB SWAP2 DUP3 AND DUP2 MSTORE SWAP2 AND PUSH1 0x20 DUP3 ADD MSTORE PUSH1 0x40 DUP2 ADD SWAP2 SWAP1 SWAP2 MSTORE PUSH1 0x60 DUP2 ADD SWAP2 SWAP1 SWAP2 MSTORE PUSH1 0x80 ADD SWAP1 JUMP JUMPDEST ISZERO PUSH2 0x3F56 JUMPI JUMP JUMPDEST PUSH1 0x40 MLOAD PUSH3 0x461BCD PUSH1 0xE5 SHL DUP2 MSTORE PUSH1 0x20 PUSH1 0x4 DUP3 ADD MSTORE PUSH1 0x31 PUSH1 0x24 DUP3 ADD MSTORE PUSH32 0x4F6E6C79206120696E69746174696F72206F72206D65646961746F722063616E PUSH1 0x44 DUP3 ADD MSTORE PUSH17 0x818D85B1B081D1A1A5CC81B595D1A1BD9 PUSH1 0x7A SHL PUSH1 0x64 DUP3 ADD MSTORE PUSH1 0x84 SWAP1 REVERT JUMPDEST DUP2 SLOAD PUSH1 0x1 PUSH1 0x1 PUSH1 0xA0 SHL SUB SWAP1 DUP2 AND DUP3 MSTORE PUSH1 0x1 DUP4 ADD SLOAD DUP2 AND PUSH1 0x20 DUP4 ADD MSTORE PUSH1 0x2 DUP4 ADD SLOAD DUP1 DUP3 AND PUSH1 0x40 DUP5 ADD MSTORE PUSH1 0xFF PUSH1 0xA0 DUP3 DUP2 SHR DUP3 AND ISZERO ISZERO PUSH1 0x60 DUP7 ADD MSTORE PUSH1 0xA8 DUP4 SWAP1 SHR DUP3 AND ISZERO ISZERO PUSH1 0x80 DUP7 ADD MSTORE PUSH1 0xB0 DUP4 SWAP1 SHR DUP3 AND ISZERO ISZERO SWAP1 DUP6 ADD MSTORE PUSH1 0xB8 SWAP2 SWAP1 SWAP2 SHR DUP2 AND ISZERO ISZERO PUSH1 0xC0 DUP5 ADD MSTORE PUSH1 0x3 DUP5 ADD SLOAD PUSH1 0xE0 DUP5 ADD MSTORE PUSH1 0x4 DUP5 ADD SLOAD PUSH2 0x100 DUP5 ADD MSTORE PUSH1 0x5 DUP5 ADD SLOAD PUSH2 0x120 DUP5 ADD MSTORE PUSH1 0x6 DUP5 ADD SLOAD PUSH2 0x140 DUP5 ADD MSTORE PUSH1 0x7 DUP5 ADD SLOAD PUSH2 0x160 DUP5 ADD MSTORE PUSH1 0x8 DUP5 ADD SLOAD PUSH2 0x180 DUP5 ADD MSTORE PUSH1 0x9 DUP5 ADD SLOAD DUP3 AND PUSH2 0x1A0 DUP5 ADD MSTORE PUSH1 0xA DUP5 ADD SLOAD SWAP1 SWAP2 AND PUSH2 0x1C0 DUP4 ADD MSTORE PUSH1 0xB DUP4 ADD SLOAD PUSH2 0x1E0 DUP4 ADD MSTORE PUSH1 0xC SWAP1 SWAP3 ADD SLOAD PUSH2 0x220 DUP3 ADD SWAP4 SWAP3 PUSH2 0x3023 SWAP3 PUSH2 0x200 ADD SWAP2 AND PUSH2 0x2F29 JUMP JUMPDEST PUSH1 0x1 PUSH1 0x1 PUSH1 0xA0 SHL SUB SWAP2 DUP3 AND DUP2 MSTORE SWAP2 DUP2 AND PUSH1 0x20 DUP4 ADD MSTORE SWAP2 DUP3 AND PUSH1 0x40 DUP3 ADD MSTORE PUSH1 0x60 DUP2 ADD SWAP3 SWAP1 SWAP3 MSTORE PUSH0 PUSH1 0x80 DUP4 ADD DUP2 SWAP1 MSTORE PUSH1 0xA0 DUP4 ADD SWAP4 SWAP1 SWAP4 MSTORE PUSH1 0xC0 DUP3 ADD DUP4 SWAP1 MSTORE SWAP1 SWAP3 AND PUSH1 0xE0 DUP4 ADD MSTORE PUSH2 0x100 DUP3 ADD MSTORE PUSH2 0x120 DUP2 ADD SWAP2 SWAP1 SWAP2 MSTORE PUSH2 0x160 DUP2 ADD SWAP3 SWAP2 PUSH2 0x3023 SWAP2 PUSH2 0x140 ADD SWAP1 PUSH2 0x2F29 JUMP JUMPDEST SWAP2 SWAP1 DUP3 ADD DUP1 SWAP3 GT PUSH2 0x3EB8 JUMPI JUMP JUMPDEST ISZERO PUSH2 0x4116 JUMPI JUMP JUMPDEST PUSH1 0x40 MLOAD PUSH3 0x461BCD PUSH1 0xE5 SHL DUP2 MSTORE PUSH1 0x20 PUSH1 0x4 DUP3 ADD MSTORE PUSH1 0x26 PUSH1 0x24 DUP3 ADD MSTORE PUSH32 0x4F6E6C7920636F756E74657270617274792063616E2063616C6C207468697320 PUSH1 0x44 DUP3 ADD MSTORE PUSH6 0x1B595D1A1BD9 PUSH1 0xD2 SHL PUSH1 0x64 DUP3 ADD MSTORE PUSH1 0x84 SWAP1 REVERT JUMPDEST ISZERO PUSH2 0x4171 JUMPI JUMP JUMPDEST PUSH1 0x40 MLOAD PUSH3 0x461BCD PUSH1 0xE5 SHL DUP2 MSTORE PUSH1 0x20 PUSH1 0x4 DUP3 ADD MSTORE PUSH1 0x16 PUSH1 0x24 DUP3 ADD MSTORE PUSH22 0x1119585B081B5D5CDD081899481D1DDBC81CDA591959 PUSH1 0x52 SHL PUSH1 0x44 DUP3 ADD MSTORE PUSH1 0x64 SWAP1 REVERT JUMPDEST ISZERO PUSH2 0x41B6 JUMPI JUMP JUMPDEST PUSH1 0x40 MLOAD PUSH3 0x461BCD PUSH1 0xE5 SHL DUP2 MSTORE PUSH1 0x20 PUSH1 0x4 DUP3 ADD MSTORE PUSH1 0x17 PUSH1 0x24 DUP3 ADD MSTORE PUSH32 0x4465616C206D757374206265206E6F74207369676E6564000000000000000000 PUSH1 0x44 DUP3 ADD MSTORE PUSH1 0x64 SWAP1 REVERT JUMPDEST ISZERO PUSH2 0x4202 JUMPI JUMP JUMPDEST PUSH1 0x40 MLOAD PUSH3 0x461BCD PUSH1 0xE5 SHL DUP2 MSTORE PUSH1 0x20 PUSH1 0x4 DUP3 ADD MSTORE PUSH1 0x34 PUSH1 0x24 DUP3 ADD MSTORE PUSH32 0x4F6E6C79206120636F756E7465727061727479206F72206D65646961746F7220 PUSH1 0x44 DUP3 ADD MSTORE PUSH20 0x18D85B8818D85B1B081D1A1A5CC81B595D1A1BD9 PUSH1 0x62 SHL PUSH1 0x64 DUP3 ADD MSTORE PUSH1 0x84 SWAP1 REVERT JUMPDEST ISZERO PUSH2 0x426B JUMPI JUMP JUMPDEST PUSH1 0x40 MLOAD PUSH3 0x461BCD PUSH1 0xE5 SHL DUP2 MSTORE PUSH1 0x20 PUSH1 0x4 DUP3 ADD MSTORE PUSH1 0x26 PUSH1 0x24 DUP3 ADD MSTORE PUSH32 0x4F6E6C79206120706172747920746F20746865206465616C2063616E2072656A PUSH1 0x44 DUP3 ADD MSTORE PUSH6 0x1958DD081A5D PUSH1 0xD2 SHL PUSH1 0x64 DUP3 ADD MSTORE PUSH1 0x84 SWAP1 REVERT JUMPDEST ISZERO PUSH2 0x42C6 JUMPI JUMP JUMPDEST PUSH1 0x40 MLOAD PUSH3 0x461BCD PUSH1 0xE5 SHL DUP2 MSTORE PUSH1 0x20 PUSH1 0x4 DUP3 ADD MSTORE PUSH1 0x18 PUSH1 0x24 DUP3 ADD MSTORE PUSH32 0x4465616C206D757374206265206E6F7420737461727465640000000000000000 PUSH1 0x44 DUP3 ADD MSTORE PUSH1 0x64 SWAP1 REVERT JUMPDEST DUP3 ISZERO PUSH2 0x43AA JUMPI PUSH1 0x1 DUP1 PUSH1 0xA0 SHL SUB AND SWAP1 DUP2 PUSH0 MSTORE PUSH1 0x1 PUSH1 0x20 MSTORE PUSH1 0x40 PUSH0 KECCAK256 PUSH1 0x1 DUP1 PUSH1 0xA0 SHL SUB DUP3 AND PUSH0 MSTORE PUSH1 0x20 MSTORE DUP3 PUSH1 0x40 PUSH0 KECCAK256 SLOAD LT PUSH2 0x43A3 JUMPI PUSH32 0xD1398BEE19313D6BF672CCB116E51F4A1A947E91C757907F51FBB5B5E56C698F PUSH1 0x20 PUSH0 SWAP3 DUP5 DUP5 MSTORE PUSH1 0x1 DUP3 MSTORE PUSH1 0x40 DUP5 KECCAK256 PUSH1 0x1 DUP1 PUSH1 0xA0 SHL SUB DUP3 AND DUP6 MSTORE DUP3 MSTORE PUSH1 0x40 DUP5 KECCAK256 PUSH2 0x438B DUP8 DUP3 SLOAD PUSH2 0x3F18 JUMP JUMPDEST SWAP1 SSTORE PUSH1 0x40 MLOAD SWAP6 DUP7 MSTORE PUSH1 0x1 PUSH1 0x1 PUSH1 0xA0 SHL SUB AND SWAP5 LOG4 PUSH1 0x1 SWAP1 JUMP JUMPDEST POP POP POP PUSH0 SWAP1 JUMP JUMPDEST POP POP POP PUSH1 0x1 SWAP1 JUMP JUMPDEST SWAP2 SWAP1 DUP2 ISZERO PUSH2 0x43AA JUMPI PUSH1 0x1 PUSH1 0x1 PUSH1 0xA0 SHL SUB AND SWAP2 DUP3 PUSH2 0x441A JUMPI PUSH0 DUP1 DUP1 DUP1 DUP6 PUSH1 0x1 PUSH1 0x1 PUSH1 0xA0 SHL SUB DUP7 AND DUP3 CALL ISZERO PUSH2 0x684 JUMPI PUSH1 0x20 PUSH32 0x2717EAD6B9200DD235AAD468C9809EA400FE33AC69B5BFAA6D3E90FC922B6398 SWAP2 JUMPDEST PUSH1 0x40 MLOAD SWAP4 DUP5 MSTORE PUSH1 0x1 PUSH1 0x1 PUSH1 0xA0 SHL SUB AND SWAP3 LOG3 PUSH1 0x1 SWAP1 JUMP JUMPDEST PUSH1 0x40 MLOAD PUSH4 0xA9059CBB PUSH1 0xE0 SHL DUP2 MSTORE PUSH1 0x1 PUSH1 0x1 PUSH1 0xA0 SHL SUB DUP3 AND PUSH1 0x4 DUP3 ADD MSTORE PUSH1 0x24 DUP2 ADD DUP4 SWAP1 MSTORE PUSH1 0x20 DUP2 PUSH1 0x44 DUP2 PUSH0 DUP9 GAS CALL DUP1 ISZERO PUSH2 0x684 JUMPI PUSH2 0x447C JUMPI JUMPDEST POP PUSH1 0x20 PUSH32 0x2717EAD6B9200DD235AAD468C9809EA400FE33AC69B5BFAA6D3E90FC922B6398 SWAP2 PUSH2 0x4404 JUMP JUMPDEST PUSH1 0x20 DUP2 RETURNDATASIZE PUSH1 0x20 GT PUSH2 0x44D2 JUMPI JUMPDEST DUP2 PUSH2 0x4495 PUSH1 0x20 SWAP4 DUP4 PUSH2 0x3CE2 JUMP JUMPDEST DUP2 ADD SUB SLT PUSH2 0x26C JUMPI PUSH32 0x2717EAD6B9200DD235AAD468C9809EA400FE33AC69B5BFAA6D3E90FC922B6398 SWAP2 PUSH2 0x44CA PUSH1 0x20 SWAP3 PUSH2 0x3D18 JUMP JUMPDEST POP SWAP2 POP PUSH2 0x4452 JUMP JUMPDEST RETURNDATASIZE SWAP2 POP PUSH2 0x4488 JUMP JUMPDEST PUSH0 SLOAD PUSH1 0x1 PUSH1 0x1 PUSH1 0xA0 SHL SUB AND CALLER SUB PUSH2 0x44ED JUMPI JUMP JUMPDEST PUSH4 0x118CDAA7 PUSH1 0xE0 SHL PUSH0 MSTORE CALLER PUSH1 0x4 MSTORE PUSH1 0x24 PUSH0 REVERT JUMPDEST DUP3 ISZERO PUSH2 0x43AA JUMPI PUSH32 0xD1398BEE19313D6BF672CCB116E51F4A1A947E91C757907F51FBB5B5E56C698F PUSH1 0x20 PUSH0 SWAP3 PUSH1 0x1 DUP1 PUSH1 0xA0 SHL SUB AND SWAP4 DUP5 DUP5 MSTORE PUSH1 0x1 DUP3 MSTORE PUSH1 0x40 DUP5 KECCAK256 PUSH1 0x1 DUP1 PUSH1 0xA0 SHL SUB DUP3 AND DUP6 MSTORE DUP3 MSTORE PUSH1 0x40 DUP5 KECCAK256 PUSH2 0x438B DUP8 DUP3 SLOAD PUSH2 0x4102 JUMP INVALID 0xAF 0xBE CALLER PUSH24 0x83658B293F1566E1790BFAB9858B8CF08DE944CA3CD013D4 0x21 XOR DUP8 0xB8 ADDMOD PUSH13 0x61B89EF5FCDB14C243B643069C EXTCODECOPY PUSH11 0x84765B27F2A696B875DDDF SUB BYTE 0xFB 0x4D 0xA6 0xAF NOT 0x23 DUP1 0xB5 0xBA BALANCE BYTE 0xC0 SUB CREATE2 PUSH31 0xFA2BE0717F0E466318C7E9CF546C4937A03D94F05D33634B730E763D232B48 0x2C 0xF8 CALLDATALOAD LOG4 BASEFEE XOR CALLDATALOAD 0xF6 0x2D EXP MULMOD PUSH20 0xB42018A8EAD4F047DCBC1C05240F31FF3AD067EF 0x1E 0xE3 TLOAD 0xE4 SWAP10 PUSH24 0x62752E3A095284754544F4C709D7A2646970667358221220 0xF7 0x2E EXTCODESIZE CODESIZE SWAP8 0xEE 0xB1 PUSH11 0xB69E757FBE29F410201AD2 0xDA 0xE2 DUP15 0x4B COINBASE 0xF6 SHR DUP2 COINBASE GASPRICE PUSH11 0xD10364736F6C634300081C STOP CALLER "
		},
		"gasEstimates": {
			"creation": {
				"codeDepositCost": "3593800",
				"executionCost": "infinite",
				"totalCost": "infinite"
			},
			"external": {
				"addDepositByCounterparty(bytes32,uint256)": "infinite",
				"addDepositByInitiator(bytes32,uint256)": "infinite",
				"balanceOf(address)": "2877",
				"balanceOf(address,address)": "3511",
				"balances(address,address)": "3335",
				"cancelDeal(bytes32)": "infinite",
				"commissionRecipient()": "2316",
				"completeDeal(bytes32)": "infinite",
				"contractEnabled()": "2529",
				"counterpartyAcceptSidedDeal(bytes32)": "72549",
				"createDeal(address,address,uint256,uint256,address,uint256,uint8)": "infinite",
				"createSidedDeal(address,address,uint256,uint256,uint256,uint256,address,address,uint256,uint8)": "infinite",
				"deals(bytes32)": "28652",
				"deposit(address,uint256)": "infinite",
				"depositCommissionPercent()": "2798",
				"disableContract()": "29197",
				"enableContract()": "28868",
				"executeActionsAfterExpiration(bytes32)": "infinite",
				"getAmountToDepositViaComission(uint256)": "infinite",
				"getDeal(bytes32)": "infinite",
				"givebackToConunterparty(bytes32,uint256)": "infinite",
				"givebackToInitiator(bytes32,uint256)": "infinite",
				"owner()": "2843",
				"payUpAddDepositByCounterparty(bytes32,uint256)": "infinite",
				"payUpAddDepositByInitiator(bytes32,uint256)": "infinite",
				"payUpCounterpartyAcceptSidedDeal(bytes32)": "77232",
				"payUpCreateDeal(address,address,uint256,uint256,address,uint256,uint8)": "infinite",
				"payUpCreateSidedDeal(address,address,uint256,uint256,uint256,uint256,address,address,uint256,uint8)": "infinite",
				"rejectSidedDeal(bytes32)": "infinite",
				"renounceOwnership()": "28482",
				"setDepositCommission(uint256,address)": "50150",
				"totalCompletedDeals()": "3106",
				"totalDeals()": "2864",
				"transfer(address,address,uint256)": "54364",
				"transferOwnership(address)": "29064",
				"transferToCounterparty(bytes32,uint256)": "infinite",
				"transferToInitiator(bytes32,uint256)": "infinite",
				"withdraw(address,uint256)": "infinite",
				"withdrawCancelDeal(bytes32)": "infinite",
				"withdrawCompleteDeal(bytes32)": "infinite",
				"withdrawExecuteActionsAfterExpiration(bytes32)": "infinite",
				"withdrawGivebackToConunterparty(bytes32,uint256)": "infinite",
				"withdrawGivebackToInitiator(bytes32,uint256)": "infinite",
				"withdrawRejectSidedDeal(bytes32)": "infinite",
				"withdrawTransferToCounterparty(bytes32,uint256)": "infinite",
				"withdrawTransferToInitiator(bytes32,uint256)": "infinite"
			}
		},
		"methodIdentifiers": {
			"addDepositByCounterparty(bytes32,uint256)": "c99b8965",
			"addDepositByInitiator(bytes32,uint256)": "b4a99ccb",
			"balanceOf(address)": "70a08231",
			"balanceOf(address,address)": "f7888aec",
			"balances(address,address)": "c23f001f",
			"cancelDeal(bytes32)": "faa86b4a",
			"commissionRecipient()": "06fd154a",
			"completeDeal(bytes32)": "51b7d535",
			"contractEnabled()": "41b3a0d9",
			"counterpartyAcceptSidedDeal(bytes32)": "4187129c",
			"createDeal(address,address,uint256,uint256,address,uint256,uint8)": "17b52b50",
			"createSidedDeal(address,address,uint256,uint256,uint256,uint256,address,address,uint256,uint8)": "007e8bd3",
			"deals(bytes32)": "81cd872a",
			"deposit(address,uint256)": "47e7ef24",
			"depositCommissionPercent()": "899a3ffd",
			"disableContract()": "894ba833",
			"enableContract()": "367edd32",
			"executeActionsAfterExpiration(bytes32)": "706b14f5",
			"getAmountToDepositViaComission(uint256)": "39b3edb0",
			"getDeal(bytes32)": "51a6fad5",
			"givebackToConunterparty(bytes32,uint256)": "114aeacc",
			"givebackToInitiator(bytes32,uint256)": "5040125b",
			"owner()": "8da5cb5b",
			"payUpAddDepositByCounterparty(bytes32,uint256)": "a7170106",
			"payUpAddDepositByInitiator(bytes32,uint256)": "fbb405db",
			"payUpCounterpartyAcceptSidedDeal(bytes32)": "bb06c1a4",
			"payUpCreateDeal(address,address,uint256,uint256,address,uint256,uint8)": "28d5a050",
			"payUpCreateSidedDeal(address,address,uint256,uint256,uint256,uint256,address,address,uint256,uint8)": "cfadf6c7",
			"rejectSidedDeal(bytes32)": "8deea5fb",
			"renounceOwnership()": "715018a6",
			"setDepositCommission(uint256,address)": "15f8a314",
			"totalCompletedDeals()": "e08560a4",
			"totalDeals()": "966d1f1d",
			"transfer(address,address,uint256)": "beabacc8",
			"transferOwnership(address)": "f2fde38b",
			"transferToCounterparty(bytes32,uint256)": "3f3e8212",
			"transferToInitiator(bytes32,uint256)": "7165e542",
			"withdraw(address,uint256)": "f3fef3a3",
			"withdrawCancelDeal(bytes32)": "b7dc14fe",
			"withdrawCompleteDeal(bytes32)": "30e97ae1",
			"withdrawExecuteActionsAfterExpiration(bytes32)": "044a6da1",
			"withdrawGivebackToConunterparty(bytes32,uint256)": "a4f60b16",
			"withdrawGivebackToInitiator(bytes32,uint256)": "f2d5ec3d",
			"withdrawRejectSidedDeal(bytes32)": "80ccb070",
			"withdrawTransferToCounterparty(bytes32,uint256)": "4dff0036",
			"withdrawTransferToInitiator(bytes32,uint256)": "d747b811"
		}
	},
	"abi": [
		{
			"inputs": [
				{
					"internalType": "uint256",
					"name": "_depositCommissionPercent",
					"type": "uint256"
				},
				{
					"internalType": "address",
					"name": "_commissionRecipient",
					"type": "address"
				}
			],
			"stateMutability": "nonpayable",
			"type": "constructor"
		},
		{
			"inputs": [
				{
					"internalType": "address",
					"name": "owner",
					"type": "address"
				}
			],
			"name": "OwnableInvalidOwner",
			"type": "error"
		},
		{
			"inputs": [
				{
					"internalType": "address",
					"name": "account",
					"type": "address"
				}
			],
			"name": "OwnableUnauthorizedAccount",
			"type": "error"
		},
		{
			"anonymous": false,
			"inputs": [
				{
					"indexed": true,
					"internalType": "bytes32",
					"name": "id",
					"type": "bytes32"
				},
				{
					"indexed": true,
					"internalType": "address",
					"name": "initiator",
					"type": "address"
				},
				{
					"indexed": true,
					"internalType": "address",
					"name": "counterparty",
					"type": "address"
				},
				{
					"indexed": false,
					"internalType": "address",
					"name": "mediator",
					"type": "address"
				},
				{
					"indexed": false,
					"internalType": "uint256",
					"name": "amount",
					"type": "uint256"
				}
			],
			"name": "AddDepositByCounterparty",
			"type": "event"
		},
		{
			"anonymous": false,
			"inputs": [
				{
					"indexed": true,
					"internalType": "bytes32",
					"name": "id",
					"type": "bytes32"
				},
				{
					"indexed": true,
					"internalType": "address",
					"name": "initiator",
					"type": "address"
				},
				{
					"indexed": true,
					"internalType": "address",
					"name": "counterparty",
					"type": "address"
				},
				{
					"indexed": false,
					"internalType": "address",
					"name": "mediator",
					"type": "address"
				},
				{
					"indexed": false,
					"internalType": "uint256",
					"name": "amount",
					"type": "uint256"
				}
			],
			"name": "AddDepositByInitiator",
			"type": "event"
		},
		{
			"anonymous": false,
			"inputs": [
				{
					"indexed": false,
					"internalType": "uint256",
					"name": "newCommissionPercent",
					"type": "uint256"
				},
				{
					"indexed": false,
					"internalType": "address",
					"name": "newCommissionRecipient",
					"type": "address"
				}
			],
			"name": "CommissionChanged",
			"type": "event"
		},
		{
			"anonymous": false,
			"inputs": [
				{
					"indexed": true,
					"internalType": "address",
					"name": "by",
					"type": "address"
				}
			],
			"name": "ContractDisabled",
			"type": "event"
		},
		{
			"anonymous": false,
			"inputs": [
				{
					"indexed": true,
					"internalType": "address",
					"name": "by",
					"type": "address"
				}
			],
			"name": "ContractEnabled",
			"type": "event"
		},
		{
			"anonymous": false,
			"inputs": [
				{
					"indexed": false,
					"internalType": "bool",
					"name": "status",
					"type": "bool"
				}
			],
			"name": "ContractStatusChanged",
			"type": "event"
		},
		{
			"anonymous": false,
			"inputs": [
				{
					"indexed": true,
					"internalType": "bytes32",
					"name": "id",
					"type": "bytes32"
				},
				{
					"indexed": true,
					"internalType": "address",
					"name": "initiator",
					"type": "address"
				},
				{
					"indexed": true,
					"internalType": "address",
					"name": "counterparty",
					"type": "address"
				},
				{
					"indexed": false,
					"internalType": "address",
					"name": "mediator",
					"type": "address"
				},
				{
					"indexed": false,
					"internalType": "address",
					"name": "sender",
					"type": "address"
				}
			],
			"name": "DealCanceled",
			"type": "event"
		},
		{
			"anonymous": false,
			"inputs": [
				{
					"indexed": true,
					"internalType": "bytes32",
					"name": "id",
					"type": "bytes32"
				},
				{
					"indexed": true,
					"internalType": "address",
					"name": "initiator",
					"type": "address"
				},
				{
					"indexed": true,
					"internalType": "address",
					"name": "counterparty",
					"type": "address"
				},
				{
					"indexed": false,
					"internalType": "address",
					"name": "mediator",
					"type": "address"
				},
				{
					"indexed": false,
					"internalType": "address",
					"name": "sender",
					"type": "address"
				}
			],
			"name": "DealCompited",
			"type": "event"
		},
		{
			"anonymous": false,
			"inputs": [
				{
					"indexed": true,
					"internalType": "bytes32",
					"name": "id",
					"type": "bytes32"
				},
				{
					"indexed": true,
					"internalType": "address",
					"name": "initiator",
					"type": "address"
				},
				{
					"indexed": true,
					"internalType": "address",
					"name": "counterparty",
					"type": "address"
				},
				{
					"indexed": false,
					"internalType": "address",
					"name": "mediator",
					"type": "address"
				}
			],
			"name": "DealCreated",
			"type": "event"
		},
		{
			"anonymous": false,
			"inputs": [
				{
					"indexed": true,
					"internalType": "bytes32",
					"name": "id",
					"type": "bytes32"
				},
				{
					"indexed": true,
					"internalType": "address",
					"name": "initiator",
					"type": "address"
				},
				{
					"indexed": true,
					"internalType": "address",
					"name": "counterparty",
					"type": "address"
				},
				{
					"indexed": false,
					"internalType": "address",
					"name": "mediator",
					"type": "address"
				}
			],
			"name": "DealRequestCreated",
			"type": "event"
		},
		{
			"anonymous": false,
			"inputs": [
				{
					"indexed": true,
					"internalType": "address",
					"name": "user",
					"type": "address"
				},
				{
					"indexed": true,
					"internalType": "address",
					"name": "token",
					"type": "address"
				},
				{
					"indexed": false,
					"internalType": "uint256",
					"name": "amount",
					"type": "uint256"
				},
				{
					"indexed": false,
					"internalType": "uint256",
					"name": "commission",
					"type": "uint256"
				}
			],
			"name": "Deposit",
			"type": "event"
		},
		{
			"anonymous": false,
			"inputs": [
				{
					"indexed": true,
					"internalType": "bytes32",
					"name": "id",
					"type": "bytes32"
				},
				{
					"indexed": true,
					"internalType": "address",
					"name": "initiator",
					"type": "address"
				},
				{
					"indexed": true,
					"internalType": "address",
					"name": "counterparty",
					"type": "address"
				},
				{
					"indexed": false,
					"internalType": "address",
					"name": "mediator",
					"type": "address"
				},
				{
					"indexed": false,
					"internalType": "address",
					"name": "sender",
					"type": "address"
				},
				{
					"indexed": false,
					"internalType": "uint256",
					"name": "amount",
					"type": "uint256"
				},
				{
					"indexed": false,
					"internalType": "uint256",
					"name": "fee",
					"type": "uint256"
				}
			],
			"name": "GivebackToCounterparty",
			"type": "event"
		},
		{
			"anonymous": false,
			"inputs": [
				{
					"indexed": true,
					"internalType": "bytes32",
					"name": "id",
					"type": "bytes32"
				},
				{
					"indexed": true,
					"internalType": "address",
					"name": "initiator",
					"type": "address"
				},
				{
					"indexed": true,
					"internalType": "address",
					"name": "counterparty",
					"type": "address"
				},
				{
					"indexed": false,
					"internalType": "address",
					"name": "mediator",
					"type": "address"
				},
				{
					"indexed": false,
					"internalType": "address",
					"name": "sender",
					"type": "address"
				},
				{
					"indexed": false,
					"internalType": "uint256",
					"name": "amount",
					"type": "uint256"
				},
				{
					"indexed": false,
					"internalType": "uint256",
					"name": "fee",
					"type": "uint256"
				}
			],
			"name": "GivebackToInitiator",
			"type": "event"
		},
		{
			"anonymous": false,
			"inputs": [
				{
					"indexed": true,
					"internalType": "address",
					"name": "mediator",
					"type": "address"
				},
				{
					"indexed": false,
					"internalType": "bytes32",
					"name": "dealId",
					"type": "bytes32"
				}
			],
			"name": "JoinedToDealAsMediator",
			"type": "event"
		},
		{
			"anonymous": false,
			"inputs": [
				{
					"indexed": true,
					"internalType": "address",
					"name": "previousOwner",
					"type": "address"
				},
				{
					"indexed": true,
					"internalType": "address",
					"name": "newOwner",
					"type": "address"
				}
			],
			"name": "OwnershipTransferred",
			"type": "event"
		},
		{
			"anonymous": false,
			"inputs": [
				{
					"indexed": true,
					"internalType": "address",
					"name": "from",
					"type": "address"
				},
				{
					"indexed": true,
					"internalType": "address",
					"name": "to",
					"type": "address"
				},
				{
					"indexed": true,
					"internalType": "address",
					"name": "token",
					"type": "address"
				},
				{
					"indexed": false,
					"internalType": "uint256",
					"name": "value",
					"type": "uint256"
				}
			],
			"name": "Transfer",
			"type": "event"
		},
		{
			"anonymous": false,
			"inputs": [
				{
					"indexed": true,
					"internalType": "bytes32",
					"name": "id",
					"type": "bytes32"
				},
				{
					"indexed": true,
					"internalType": "address",
					"name": "initiator",
					"type": "address"
				},
				{
					"indexed": true,
					"internalType": "address",
					"name": "counterparty",
					"type": "address"
				},
				{
					"indexed": false,
					"internalType": "address",
					"name": "mediator",
					"type": "address"
				},
				{
					"indexed": false,
					"internalType": "address",
					"name": "sender",
					"type": "address"
				},
				{
					"indexed": false,
					"internalType": "uint256",
					"name": "amount",
					"type": "uint256"
				},
				{
					"indexed": false,
					"internalType": "uint256",
					"name": "fee",
					"type": "uint256"
				}
			],
			"name": "TransferToCounterparty",
			"type": "event"
		},
		{
			"anonymous": false,
			"inputs": [
				{
					"indexed": true,
					"internalType": "bytes32",
					"name": "id",
					"type": "bytes32"
				},
				{
					"indexed": true,
					"internalType": "address",
					"name": "initiator",
					"type": "address"
				},
				{
					"indexed": true,
					"internalType": "address",
					"name": "counterparty",
					"type": "address"
				},
				{
					"indexed": false,
					"internalType": "address",
					"name": "mediator",
					"type": "address"
				},
				{
					"indexed": false,
					"internalType": "address",
					"name": "sender",
					"type": "address"
				},
				{
					"indexed": false,
					"internalType": "address",
					"name": "target",
					"type": "address"
				},
				{
					"indexed": false,
					"internalType": "uint256",
					"name": "amountInitiator",
					"type": "uint256"
				},
				{
					"indexed": false,
					"internalType": "uint256",
					"name": "amountCounterparty",
					"type": "uint256"
				},
				{
					"indexed": false,
					"internalType": "uint256",
					"name": "feeInitiator",
					"type": "uint256"
				},
				{
					"indexed": false,
					"internalType": "uint256",
					"name": "feeCounterparty",
					"type": "uint256"
				}
			],
			"name": "TransferToFromDeal",
			"type": "event"
		},
		{
			"anonymous": false,
			"inputs": [
				{
					"indexed": true,
					"internalType": "bytes32",
					"name": "id",
					"type": "bytes32"
				},
				{
					"indexed": true,
					"internalType": "address",
					"name": "initiator",
					"type": "address"
				},
				{
					"indexed": true,
					"internalType": "address",
					"name": "counterparty",
					"type": "address"
				},
				{
					"indexed": false,
					"internalType": "address",
					"name": "mediator",
					"type": "address"
				},
				{
					"indexed": false,
					"internalType": "address",
					"name": "sender",
					"type": "address"
				},
				{
					"indexed": false,
					"internalType": "uint256",
					"name": "amount",
					"type": "uint256"
				},
				{
					"indexed": false,
					"internalType": "uint256",
					"name": "fee",
					"type": "uint256"
				}
			],
			"name": "TransferToInitiator",
			"type": "event"
		},
		{
			"anonymous": false,
			"inputs": [
				{
					"indexed": true,
					"internalType": "address",
					"name": "user",
					"type": "address"
				},
				{
					"indexed": true,
					"internalType": "address",
					"name": "token",
					"type": "address"
				},
				{
					"indexed": false,
					"internalType": "uint256",
					"name": "amount",
					"type": "uint256"
				}
			],
			"name": "Withdrawal",
			"type": "event"
		},
		{
			"inputs": [
				{
					"internalType": "bytes32",
					"name": "dealId",
					"type": "bytes32"
				},
				{
					"internalType": "uint256",
					"name": "amount",
					"type": "uint256"
				}
			],
			"name": "addDepositByCounterparty",
			"outputs": [
				{
					"internalType": "bool",
					"name": "",
					"type": "bool"
				}
			],
			"stateMutability": "nonpayable",
			"type": "function"
		},
		{
			"inputs": [
				{
					"internalType": "bytes32",
					"name": "dealId",
					"type": "bytes32"
				},
				{
					"internalType": "uint256",
					"name": "amount",
					"type": "uint256"
				}
			],
			"name": "addDepositByInitiator",
			"outputs": [
				{
					"internalType": "bool",
					"name": "",
					"type": "bool"
				}
			],
			"stateMutability": "payable",
			"type": "function"
		},
		{
			"inputs": [
				{
					"internalType": "address",
					"name": "user",
					"type": "address"
				}
			],
			"name": "balanceOf",
			"outputs": [
				{
					"internalType": "uint256",
					"name": "",
					"type": "uint256"
				}
			],
			"stateMutability": "view",
			"type": "function"
		},
		{
			"inputs": [
				{
					"internalType": "address",
					"name": "user",
					"type": "address"
				},
				{
					"internalType": "address",
					"name": "token",
					"type": "address"
				}
			],
			"name": "balanceOf",
			"outputs": [
				{
					"internalType": "uint256",
					"name": "",
					"type": "uint256"
				}
			],
			"stateMutability": "view",
			"type": "function"
		},
		{
			"inputs": [
				{
					"internalType": "address",
					"name": "",
					"type": "address"
				},
				{
					"internalType": "address",
					"name": "",
					"type": "address"
				}
			],
			"name": "balances",
			"outputs": [
				{
					"internalType": "uint256",
					"name": "",
					"type": "uint256"
				}
			],
			"stateMutability": "view",
			"type": "function"
		},
		{
			"inputs": [
				{
					"internalType": "bytes32",
					"name": "dealId",
					"type": "bytes32"
				}
			],
			"name": "cancelDeal",
			"outputs": [
				{
					"internalType": "bool",
					"name": "",
					"type": "bool"
				}
			],
			"stateMutability": "nonpayable",
			"type": "function"
		},
		{
			"inputs": [],
			"name": "commissionRecipient",
			"outputs": [
				{
					"internalType": "address",
					"name": "",
					"type": "address"
				}
			],
			"stateMutability": "view",
			"type": "function"
		},
		{
			"inputs": [
				{
					"internalType": "bytes32",
					"name": "dealId",
					"type": "bytes32"
				}
			],
			"name": "completeDeal",
			"outputs": [
				{
					"internalType": "bool",
					"name": "",
					"type": "bool"
				}
			],
			"stateMutability": "nonpayable",
			"type": "function"
		},
		{
			"inputs": [],
			"name": "contractEnabled",
			"outputs": [
				{
					"internalType": "bool",
					"name": "",
					"type": "bool"
				}
			],
			"stateMutability": "view",
			"type": "function"
		},
		{
			"inputs": [
				{
					"internalType": "bytes32",
					"name": "dealId",
					"type": "bytes32"
				}
			],
			"name": "counterpartyAcceptSidedDeal",
			"outputs": [
				{
					"internalType": "bool",
					"name": "",
					"type": "bool"
				}
			],
			"stateMutability": "nonpayable",
			"type": "function"
		},
		{
			"inputs": [
				{
					"internalType": "address payable",
					"name": "counterparty",
					"type": "address"
				},
				{
					"internalType": "address payable",
					"name": "mediator",
					"type": "address"
				},
				{
					"internalType": "uint256",
					"name": "amount",
					"type": "uint256"
				},
				{
					"internalType": "uint256",
					"name": "PRCMediatorFee",
					"type": "uint256"
				},
				{
					"internalType": "address",
					"name": "tokenAddress",
					"type": "address"
				},
				{
					"internalType": "uint256",
					"name": "expirationDate",
					"type": "uint256"
				},
				{
					"internalType": "enum MediatorAction",
					"name": "mediatorActionOnExpiration",
					"type": "uint8"
				}
			],
			"name": "createDeal",
			"outputs": [
				{
					"internalType": "bytes32",
					"name": "",
					"type": "bytes32"
				}
			],
			"stateMutability": "nonpayable",
			"type": "function"
		},
		{
			"inputs": [
				{
					"internalType": "address payable",
					"name": "counterparty",
					"type": "address"
				},
				{
					"internalType": "address payable",
					"name": "mediator",
					"type": "address"
				},
				{
					"internalType": "uint256",
					"name": "initiatorCreateAmount",
					"type": "uint256"
				},
				{
					"internalType": "uint256",
					"name": "counterpartyCreateAmount",
					"type": "uint256"
				},
				{
					"internalType": "uint256",
					"name": "PRCMediatorFeeInititor",
					"type": "uint256"
				},
				{
					"internalType": "uint256",
					"name": "PRCMediatorFeeCounterparty",
					"type": "uint256"
				},
				{
					"internalType": "address",
					"name": "initiatorTokenAddress",
					"type": "address"
				},
				{
					"internalType": "address",
					"name": "counterpartyTokenAddress",
					"type": "address"
				},
				{
					"internalType": "uint256",
					"name": "expirationDate",
					"type": "uint256"
				},
				{
					"internalType": "enum MediatorAction",
					"name": "mediatorActionOnExpiration",
					"type": "uint8"
				}
			],
			"name": "createSidedDeal",
			"outputs": [
				{
					"internalType": "bytes32",
					"name": "",
					"type": "bytes32"
				}
			],
			"stateMutability": "nonpayable",
			"type": "function"
		},
		{
			"inputs": [
				{
					"internalType": "bytes32",
					"name": "",
					"type": "bytes32"
				}
			],
			"name": "deals",
			"outputs": [
				{
					"internalType": "address payable",
					"name": "initiator",
					"type": "address"
				},
				{
					"internalType": "address payable",
					"name": "counterparty",
					"type": "address"
				},
				{
					"internalType": "address payable",
					"name": "mediator",
					"type": "address"
				},
				{
					"internalType": "bool",
					"name": "isCompleted",
					"type": "bool"
				},
				{
					"internalType": "bool",
					"name": "isCanceled",
					"type": "bool"
				},
				{
					"internalType": "bool",
					"name": "isTwoSided",
					"type": "bool"
				},
				{
					"internalType": "bool",
					"name": "isSignedByCounterparty",
					"type": "bool"
				},
				{
					"internalType": "uint256",
					"name": "initiatorCreateAmount",
					"type": "uint256"
				},
				{
					"internalType": "uint256",
					"name": "counterpartyCreateAmount",
					"type": "uint256"
				},
				{
					"internalType": "uint256",
					"name": "initiatorCurrentAmount",
					"type": "uint256"
				},
				{
					"internalType": "uint256",
					"name": "counterpartyCurrentAmount",
					"type": "uint256"
				},
				{
					"internalType": "uint256",
					"name": "PRC_InitatorMediatorFee",
					"type": "uint256"
				},
				{
					"internalType": "uint256",
					"name": "PRC_CounterpartyMediatorFee",
					"type": "uint256"
				},
				{
					"internalType": "address",
					"name": "initiatorTokenAddress",
					"type": "address"
				},
				{
					"internalType": "address",
					"name": "counterpartyTokenAddress",
					"type": "address"
				},
				{
					"internalType": "uint256",
					"name": "expirationDate",
					"type": "uint256"
				},
				{
					"internalType": "enum MediatorAction",
					"name": "mediatorActionOnExpiration",
					"type": "uint8"
				}
			],
			"stateMutability": "view",
			"type": "function"
		},
		{
			"inputs": [
				{
					"internalType": "address",
					"name": "token",
					"type": "address"
				},
				{
					"internalType": "uint256",
					"name": "amount",
					"type": "uint256"
				}
			],
			"name": "deposit",
			"outputs": [],
			"stateMutability": "payable",
			"type": "function"
		},
		{
			"inputs": [],
			"name": "depositCommissionPercent",
			"outputs": [
				{
					"internalType": "uint256",
					"name": "",
					"type": "uint256"
				}
			],
			"stateMutability": "view",
			"type": "function"
		},
		{
			"inputs": [],
			"name": "disableContract",
			"outputs": [],
			"stateMutability": "nonpayable",
			"type": "function"
		},
		{
			"inputs": [],
			"name": "enableContract",
			"outputs": [],
			"stateMutability": "nonpayable",
			"type": "function"
		},
		{
			"inputs": [
				{
					"internalType": "bytes32",
					"name": "dealId",
					"type": "bytes32"
				}
			],
			"name": "executeActionsAfterExpiration",
			"outputs": [
				{
					"internalType": "bool",
					"name": "",
					"type": "bool"
				}
			],
			"stateMutability": "nonpayable",
			"type": "function"
		},
		{
			"inputs": [
				{
					"internalType": "uint256",
					"name": "amount",
					"type": "uint256"
				}
			],
			"name": "getAmountToDepositViaComission",
			"outputs": [
				{
					"internalType": "uint256",
					"name": "",
					"type": "uint256"
				}
			],
			"stateMutability": "view",
			"type": "function"
		},
		{
			"inputs": [
				{
					"internalType": "bytes32",
					"name": "dealId",
					"type": "bytes32"
				}
			],
			"name": "getDeal",
			"outputs": [
				{
					"components": [
						{
							"internalType": "address payable",
							"name": "initiator",
							"type": "address"
						},
						{
							"internalType": "address payable",
							"name": "counterparty",
							"type": "address"
						},
						{
							"internalType": "address payable",
							"name": "mediator",
							"type": "address"
						},
						{
							"internalType": "bool",
							"name": "isCompleted",
							"type": "bool"
						},
						{
							"internalType": "bool",
							"name": "isCanceled",
							"type": "bool"
						},
						{
							"internalType": "bool",
							"name": "isTwoSided",
							"type": "bool"
						},
						{
							"internalType": "bool",
							"name": "isSignedByCounterparty",
							"type": "bool"
						},
						{
							"internalType": "uint256",
							"name": "initiatorCreateAmount",
							"type": "uint256"
						},
						{
							"internalType": "uint256",
							"name": "counterpartyCreateAmount",
							"type": "uint256"
						},
						{
							"internalType": "uint256",
							"name": "initiatorCurrentAmount",
							"type": "uint256"
						},
						{
							"internalType": "uint256",
							"name": "counterpartyCurrentAmount",
							"type": "uint256"
						},
						{
							"internalType": "uint256",
							"name": "PRC_InitatorMediatorFee",
							"type": "uint256"
						},
						{
							"internalType": "uint256",
							"name": "PRC_CounterpartyMediatorFee",
							"type": "uint256"
						},
						{
							"internalType": "address",
							"name": "initiatorTokenAddress",
							"type": "address"
						},
						{
							"internalType": "address",
							"name": "counterpartyTokenAddress",
							"type": "address"
						},
						{
							"internalType": "uint256",
							"name": "expirationDate",
							"type": "uint256"
						},
						{
							"internalType": "enum MediatorAction",
							"name": "mediatorActionOnExpiration",
							"type": "uint8"
						}
					],
					"internalType": "struct Deal",
					"name": "",
					"type": "tuple"
				}
			],
			"stateMutability": "view",
			"type": "function"
		},
		{
			"inputs": [
				{
					"internalType": "bytes32",
					"name": "dealId",
					"type": "bytes32"
				},
				{
					"internalType": "uint256",
					"name": "amount",
					"type": "uint256"
				}
			],
			"name": "givebackToConunterparty",
			"outputs": [
				{
					"internalType": "bool",
					"name": "",
					"type": "bool"
				}
			],
			"stateMutability": "nonpayable",
			"type": "function"
		},
		{
			"inputs": [
				{
					"internalType": "bytes32",
					"name": "dealId",
					"type": "bytes32"
				},
				{
					"internalType": "uint256",
					"name": "amount",
					"type": "uint256"
				}
			],
			"name": "givebackToInitiator",
			"outputs": [
				{
					"internalType": "bool",
					"name": "",
					"type": "bool"
				}
			],
			"stateMutability": "nonpayable",
			"type": "function"
		},
		{
			"inputs": [],
			"name": "owner",
			"outputs": [
				{
					"internalType": "address",
					"name": "",
					"type": "address"
				}
			],
			"stateMutability": "view",
			"type": "function"
		},
		{
			"inputs": [
				{
					"internalType": "bytes32",
					"name": "dealId",
					"type": "bytes32"
				},
				{
					"internalType": "uint256",
					"name": "amount",
					"type": "uint256"
				}
			],
			"name": "payUpAddDepositByCounterparty",
			"outputs": [
				{
					"internalType": "bool",
					"name": "",
					"type": "bool"
				}
			],
			"stateMutability": "nonpayable",
			"type": "function"
		},
		{
			"inputs": [
				{
					"internalType": "bytes32",
					"name": "dealId",
					"type": "bytes32"
				},
				{
					"internalType": "uint256",
					"name": "amount",
					"type": "uint256"
				}
			],
			"name": "payUpAddDepositByInitiator",
			"outputs": [
				{
					"internalType": "bool",
					"name": "",
					"type": "bool"
				}
			],
			"stateMutability": "payable",
			"type": "function"
		},
		{
			"inputs": [
				{
					"internalType": "bytes32",
					"name": "dealId",
					"type": "bytes32"
				}
			],
			"name": "payUpCounterpartyAcceptSidedDeal",
			"outputs": [
				{
					"internalType": "bool",
					"name": "",
					"type": "bool"
				}
			],
			"stateMutability": "payable",
			"type": "function"
		},
		{
			"inputs": [
				{
					"internalType": "address payable",
					"name": "counterparty",
					"type": "address"
				},
				{
					"internalType": "address payable",
					"name": "mediator",
					"type": "address"
				},
				{
					"internalType": "uint256",
					"name": "amount",
					"type": "uint256"
				},
				{
					"internalType": "uint256",
					"name": "PRCMediatorFee",
					"type": "uint256"
				},
				{
					"internalType": "address",
					"name": "tokenAddress",
					"type": "address"
				},
				{
					"internalType": "uint256",
					"name": "expirationDate",
					"type": "uint256"
				},
				{
					"internalType": "enum MediatorAction",
					"name": "mediatorActionOnExpiration",
					"type": "uint8"
				}
			],
			"name": "payUpCreateDeal",
			"outputs": [
				{
					"internalType": "bytes32",
					"name": "",
					"type": "bytes32"
				}
			],
			"stateMutability": "payable",
			"type": "function"
		},
		{
			"inputs": [
				{
					"internalType": "address payable",
					"name": "counterparty",
					"type": "address"
				},
				{
					"internalType": "address payable",
					"name": "mediator",
					"type": "address"
				},
				{
					"internalType": "uint256",
					"name": "initiatorCreateAmount",
					"type": "uint256"
				},
				{
					"internalType": "uint256",
					"name": "counterpartyCreateAmount",
					"type": "uint256"
				},
				{
					"internalType": "uint256",
					"name": "PRCMediatorFeeInititor",
					"type": "uint256"
				},
				{
					"internalType": "uint256",
					"name": "PRCMediatorFeeCounterparty",
					"type": "uint256"
				},
				{
					"internalType": "address",
					"name": "initiatorTokenAddress",
					"type": "address"
				},
				{
					"internalType": "address",
					"name": "counterpartyTokenAddress",
					"type": "address"
				},
				{
					"internalType": "uint256",
					"name": "expirationDate",
					"type": "uint256"
				},
				{
					"internalType": "enum MediatorAction",
					"name": "mediatorActionOnExpiration",
					"type": "uint8"
				}
			],
			"name": "payUpCreateSidedDeal",
			"outputs": [
				{
					"internalType": "bytes32",
					"name": "",
					"type": "bytes32"
				}
			],
			"stateMutability": "payable",
			"type": "function"
		},
		{
			"inputs": [
				{
					"internalType": "bytes32",
					"name": "dealId",
					"type": "bytes32"
				}
			],
			"name": "rejectSidedDeal",
			"outputs": [
				{
					"internalType": "bool",
					"name": "",
					"type": "bool"
				}
			],
			"stateMutability": "nonpayable",
			"type": "function"
		},
		{
			"inputs": [],
			"name": "renounceOwnership",
			"outputs": [],
			"stateMutability": "nonpayable",
			"type": "function"
		},
		{
			"inputs": [
				{
					"internalType": "uint256",
					"name": "newCommissionPercent",
					"type": "uint256"
				},
				{
					"internalType": "address",
					"name": "newRecipient",
					"type": "address"
				}
			],
			"name": "setDepositCommission",
			"outputs": [],
			"stateMutability": "nonpayable",
			"type": "function"
		},
		{
			"inputs": [],
			"name": "totalCompletedDeals",
			"outputs": [
				{
					"internalType": "uint256",
					"name": "",
					"type": "uint256"
				}
			],
			"stateMutability": "view",
			"type": "function"
		},
		{
			"inputs": [],
			"name": "totalDeals",
			"outputs": [
				{
					"internalType": "uint256",
					"name": "",
					"type": "uint256"
				}
			],
			"stateMutability": "view",
			"type": "function"
		},
		{
			"inputs": [
				{
					"internalType": "address",
					"name": "to",
					"type": "address"
				},
				{
					"internalType": "address",
					"name": "token",
					"type": "address"
				},
				{
					"internalType": "uint256",
					"name": "amount",
					"type": "uint256"
				}
			],
			"name": "transfer",
			"outputs": [
				{
					"internalType": "bool",
					"name": "",
					"type": "bool"
				}
			],
			"stateMutability": "nonpayable",
			"type": "function"
		},
		{
			"inputs": [
				{
					"internalType": "address",
					"name": "newOwner",
					"type": "address"
				}
			],
			"name": "transferOwnership",
			"outputs": [],
			"stateMutability": "nonpayable",
			"type": "function"
		},
		{
			"inputs": [
				{
					"internalType": "bytes32",
					"name": "dealId",
					"type": "bytes32"
				},
				{
					"internalType": "uint256",
					"name": "amount",
					"type": "uint256"
				}
			],
			"name": "transferToCounterparty",
			"outputs": [
				{
					"internalType": "bool",
					"name": "",
					"type": "bool"
				}
			],
			"stateMutability": "nonpayable",
			"type": "function"
		},
		{
			"inputs": [
				{
					"internalType": "bytes32",
					"name": "dealId",
					"type": "bytes32"
				},
				{
					"internalType": "uint256",
					"name": "amount",
					"type": "uint256"
				}
			],
			"name": "transferToInitiator",
			"outputs": [
				{
					"internalType": "bool",
					"name": "",
					"type": "bool"
				}
			],
			"stateMutability": "nonpayable",
			"type": "function"
		},
		{
			"inputs": [
				{
					"internalType": "address",
					"name": "token",
					"type": "address"
				},
				{
					"internalType": "uint256",
					"name": "amount",
					"type": "uint256"
				}
			],
			"name": "withdraw",
			"outputs": [
				{
					"internalType": "bool",
					"name": "",
					"type": "bool"
				}
			],
			"stateMutability": "nonpayable",
			"type": "function"
		},
		{
			"inputs": [
				{
					"internalType": "bytes32",
					"name": "dealId",
					"type": "bytes32"
				}
			],
			"name": "withdrawCancelDeal",
			"outputs": [
				{
					"internalType": "bool",
					"name": "",
					"type": "bool"
				}
			],
			"stateMutability": "nonpayable",
			"type": "function"
		},
		{
			"inputs": [
				{
					"internalType": "bytes32",
					"name": "dealId",
					"type": "bytes32"
				}
			],
			"name": "withdrawCompleteDeal",
			"outputs": [
				{
					"internalType": "bool",
					"name": "",
					"type": "bool"
				}
			],
			"stateMutability": "nonpayable",
			"type": "function"
		},
		{
			"inputs": [
				{
					"internalType": "bytes32",
					"name": "dealId",
					"type": "bytes32"
				}
			],
			"name": "withdrawExecuteActionsAfterExpiration",
			"outputs": [
				{
					"internalType": "bool",
					"name": "",
					"type": "bool"
				}
			],
			"stateMutability": "nonpayable",
			"type": "function"
		},
		{
			"inputs": [
				{
					"internalType": "bytes32",
					"name": "dealId",
					"type": "bytes32"
				},
				{
					"internalType": "uint256",
					"name": "amount",
					"type": "uint256"
				}
			],
			"name": "withdrawGivebackToConunterparty",
			"outputs": [
				{
					"internalType": "bool",
					"name": "",
					"type": "bool"
				}
			],
			"stateMutability": "nonpayable",
			"type": "function"
		},
		{
			"inputs": [
				{
					"internalType": "bytes32",
					"name": "dealId",
					"type": "bytes32"
				},
				{
					"internalType": "uint256",
					"name": "amount",
					"type": "uint256"
				}
			],
			"name": "withdrawGivebackToInitiator",
			"outputs": [
				{
					"internalType": "bool",
					"name": "",
					"type": "bool"
				}
			],
			"stateMutability": "nonpayable",
			"type": "function"
		},
		{
			"inputs": [
				{
					"internalType": "bytes32",
					"name": "dealId",
					"type": "bytes32"
				}
			],
			"name": "withdrawRejectSidedDeal",
			"outputs": [
				{
					"internalType": "bool",
					"name": "",
					"type": "bool"
				}
			],
			"stateMutability": "nonpayable",
			"type": "function"
		},
		{
			"inputs": [
				{
					"internalType": "bytes32",
					"name": "dealId",
					"type": "bytes32"
				},
				{
					"internalType": "uint256",
					"name": "amount",
					"type": "uint256"
				}
			],
			"name": "withdrawTransferToCounterparty",
			"outputs": [
				{
					"internalType": "bool",
					"name": "",
					"type": "bool"
				}
			],
			"stateMutability": "nonpayable",
			"type": "function"
		},
		{
			"inputs": [
				{
					"internalType": "bytes32",
					"name": "dealId",
					"type": "bytes32"
				},
				{
					"internalType": "uint256",
					"name": "amount",
					"type": "uint256"
				}
			],
			"name": "withdrawTransferToInitiator",
			"outputs": [
				{
					"internalType": "bool",
					"name": "",
					"type": "bool"
				}
			],
			"stateMutability": "nonpayable",
			"type": "function"
		}
	]
}