{
	"data": {
		"bytecode": {
			"linkReferences": {
				"Deal.sol": {
					"DealContract": [
						{
							"length": 20,
							"start": 1079
						},
						{
							"length": 20,
							"start": 2000
						},
						{
							"length": 20,
							"start": 3076
						},
						{
							"length": 20,
							"start": 3849
						},
						{
							"length": 20,
							"start": 4298
						},
						{
							"length": 20,
							"start": 5866
						},
						{
							"length": 20,
							"start": 7462
						},
						{
							"length": 20,
							"start": 8046
						},
						{
							"length": 20,
							"start": 8226
						},
						{
							"length": 20,
							"start": 8936
						},
						{
							"length": 20,
							"start": 10290
						},
						{
							"length": 20,
							"start": 12480
						},
						{
							"length": 20,
							"start": 13543
						},
						{
							"length": 20,
							"start": 14733
						},
						{
							"length": 20,
							"start": 15123
						},
						{
							"length": 20,
							"start": 16146
						},
						{
							"length": 20,
							"start": 16826
						},
						{
							"length": 20,
							"start": 17471
						},
						{
							"length": 20,
							"start": 18860
						},
						{
							"length": 20,
							"start": 19391
						},
						{
							"length": 20,
							"start": 19790
						},
						{
							"length": 20,
							"start": 21988
						},
						{
							"length": 20,
							"start": 25450
						}
					]
				},
				"Percent.sol": {
					"Percent": [
						{
							"length": 20,
							"start": 1405
						},
						{
							"length": 20,
							"start": 2151
						},
						{
							"length": 20,
							"start": 3233
						},
						{
							"length": 20,
							"start": 4001
						},
						{
							"length": 20,
							"start": 5052
						},
						{
							"length": 20,
							"start": 6811
						},
						{
							"length": 20,
							"start": 7613
						},
						{
							"length": 20,
							"start": 8452
						},
						{
							"length": 20,
							"start": 9089
						},
						{
							"length": 20,
							"start": 10442
						},
						{
							"length": 20,
							"start": 10957
						},
						{
							"length": 20,
							"start": 12891
						},
						{
							"length": 20,
							"start": 13691
						},
						{
							"length": 20,
							"start": 14885
						},
						{
							"length": 20,
							"start": 15276
						},
						{
							"length": 20,
							"start": 15555
						},
						{
							"length": 20,
							"start": 16299
						},
						{
							"length": 20,
							"start": 16549
						},
						{
							"length": 20,
							"start": 16974
						},
						{
							"length": 20,
							"start": 18126
						},
						{
							"length": 20,
							"start": 19544
						},
						{
							"length": 20,
							"start": 20035
						},
						{
							"length": 20,
							"start": 20452
						}
					]
				}
			},
			"object": "60803461015a57601f616acd38819003918201601f19168301916001600160401b0383118484101761015e57808492604094855283398101031261015a5780516020909101516001600160a01b038116919082900361015a573315610147575f80546040519133906001600160a01b038316907f8be0079c531659141344cd1fd0a4f28419497f9722a3daafe3b4186f6b6457e09080a36001600160a81b0319163360ff60a01b191617600160a01b175f55821561012057506402540be40081116100f65760025560018060a01b031960035416176003555f6005555f6006555f6007555f60085560405161695a90816101738239f35b60405162461bcd60e51b8152602060048201526002602482015261433560f01b6044820152606490fd5b62461bcd60e51b8152602060048201526002602482015261433160f01b6044820152606490fd5b631e4fbdf760e01b5f525f60045260245ffd5b5f80fd5b634e487b7160e01b5f52604160045260245ffdfe60806040526004361015610011575f80fd5b5f5f3560e01c80627e8bd31461540757806302927459146153ea578063044a6da114614dae57806306fd154a14614d865780630934da2214614ba5578063114aeacc14614a105780631273c165146147dd57806315f8a3141461474b57806317b52b50146146e957806328d5a0501461425e57806330e97ae114614007578063367edd3214613f9b57806339b3edb014613ef85780633f3e821214613d635780634187129c14613ce157806341b3a0d914613cbc57806347e7ef2414613af95780634dff0036146139645780635040125b146137da57806351a6fad51461365057806351b7d5351461333457806353a78000146132d0578063619c457e146132b657806363adb66f14612f11578063706b14f5146128b057806370a082311461286f578063715018a6146128285780637165e5421461267f57806371ae8bcd1461266557806380ccb070146125ab57806381cd872a14612480578063894ba8331461241b578063899a3ffd146123fd5780638da5cb5b146123d65780638deea5fb1461230a578063966d1f1d146122ec5780639974f376146122ce578063a4f60b1614612139578063a717010614611e7c578063b4a99ccb14611dc8578063b7dc14fe14611b6e578063ba343f6d14611aa9578063bb06c1a4146117ae578063beabacc8146116d3578063c15a25bf14611653578063c23f001f14610924578063c99b89651461153e578063cfaaf235146113e8578063cfadf6c714610ee0578063d747b81114610d56578063e08560a414610d38578063eb45732914610c37578063f2d5ec3d14610a51578063f2fde38b146109de578063f3fef3a314610977578063f7888aec14610924578063faa86b4a146106185763fbb405db14610297575f80fd5b6102a036615750565b90808352600460205260408320926102c260018060a01b038554163314615c04565b73__$69ea93bdf3b1e5da8164bfe3d9a878d765$__803b1561061457816040518092630252a86760e51b825281806102fd8a60048301615d5d565b03915af48015610609579082916105f4575b50506009840180546001600160a01b03169184919061032e84336164c9565b8381106103bf575b50505461034d92506001600160a01b0316336164f2565b506005830161035d838254615f4a565b9055825460018401546002909401546040516001600160a01b0395861695928316947f3c0dd30126238eaebbb306e073222eecd03a091d41c39a4b2742759d406c8f5593919283926103b1929116836164ae565b0390a4602060405160018152f35b6103c99193615cc9565b926103da60ff845460a01c166158e4565b6103e5841515615eb1565b6002549260405193631c8f084760e01b8552856004860152602485015260208460448173__$8537b7efa173772577da826929141ce939$__5af49384156105e75781946105af575b50816104c0575061043e8385615f4a565b34036104965783869361045561034d968433616696565b5060035461046f90829085906001600160a01b0316616696565b505b60405191825260208201525f5160206168e55f395f51905f5260403392a35f80610336565b60405162461bcd60e51b815260206004820152600260248201526110cd60f21b6044820152606490fd5b6104ca8486615f4a565b604051906323b872dd60e01b8252336004830152306024830152604482015260208160648185875af19182156105a3578092610563575b5050156105395783869361051961034d968433616696565b5060035461053390829085906001600160a01b0316616696565b50610471565b60405162461bcd60e51b81526020600482015260026024820152612a1960f11b6044820152606490fd5b9091506020823d60201161059b575b8161057f602093836159ac565b810103126105985750610591906159e1565b5f80610501565b80fd5b3d9150610572565b604051903d90823e3d90fd5b9093506020813d6020116105df575b816105cb602093836159ac565b810103126105db5751925f61042d565b5f80fd5b3d91506105be565b50604051903d90823e3d90fd5b816105fe916159ac565b61059857805f61030f565b6040513d84823e3d90fd5b5080fd5b503461059857602036600319011261059857600435808252600460205260408220600181019060018060a01b038254163314801561090e575b61065a90615c04565b8373__$69ea93bdf3b1e5da8164bfe3d9a878d765$__803b1561061457816040518092630252a86760e51b825281806106968860048301615d5d565b03915af48015610609576108f5575b5050600581015460098201546006830154600a84015460078501546008860154604051631c8f084760e01b81526004810187905260248101929092526001600160a01b0394851697959691959473__$8537b7efa173772577da826929141ce939$__931690602087604481875af49687156108ea578b976108b5575b50602090604460405180968193631c8f084760e01b835289600484015260248301525af49283156108aa57899a9998999361086c575b5081548894939291906001600160a01b03168a610774898b615cc9565b9061077e92616696565b50600282018054909a61079c918991906001600160a01b0316616696565b5085546001600160a01b0316816107b38680615cc9565b906107bd92616696565b5089546107d49184916001600160a01b0316616696565b5054935497546040516001600160a01b03998a169a958a1699909116968a968a968893889391929091829161080b91338e85615cd6565b035f5160206168855f395f51905f5291a460405191829161082e91338985615cd6565b035f5160206167655f395f51905f5291a460405180913361084f9183615d43565b035f5160206168055f395f51905f5291a460405160018152602090f35b9392509096506020833d6020116108a2575b8161088b602093836159ac565b810103126105db5788968793519293919091610757565b3d915061087e565b6040513d8c823e3d90fd5b9096506020813d6020116108e2575b816108d1602093836159ac565b810103126105db5751956020610721565b3d91506108c4565b6040513d8d823e3d90fd5b816108ff916159ac565b61090a57835f6106a5565b8380fd5b5060028101546001600160a01b03163314610651565b503461059857604036600319011261059857604061094061568a565b91610949615674565b9260018060a01b031681526001602052209060018060a01b03165f52602052602060405f2054604051908152f35b5034610598576040366003190112610598576109d460209161099761568a565b604060243592338152600186522060018060a01b0382165f5284526109c28260405f20541015615915565b6109cd8282336164f2565b5033616586565b6040519015158152f35b5034610598576020366003190112610598576109f861568a565b610a006166de565b6001600160a01b03168015610a3d5781546001600160a01b03198116821783556001600160a01b03165f5160206168255f395f51905f528380a380f35b631e4fbdf760e01b82526004829052602482fd5b503461059857610a6036615750565b9080835260046020526040832092600184019260018060a01b0384541633148015610c21575b610a8f90615c04565b73__$69ea93bdf3b1e5da8164bfe3d9a878d765$__803b15610c1d57826040518092630252a86760e51b82528180610aca8b60048301615d5d565b03915af48015610c1257908391610bfd575b505060058501610af8828254610af3828210615915565b615cc9565b905560018060a01b0360098601541694600781015460405190631c8f084760e01b8252836004830152602482015260208160448173__$8537b7efa173772577da826929141ce939$__5af49384156105a35793610bc7575b5080545f5160206168855f395f51905f5293916103b191610b85906001600160a01b031689610b7f8688615cc9565b91616586565b50610b9e83600283019960018060a01b038b5416616586565b5054955496546040516001600160a01b0398891698978816979094859492909133911685615cd6565b92506020833d602011610bf5575b81610be2602093836159ac565b810103126105db579151916103b1610b50565b3d9150610bd5565b81610c07916159ac565b61061457815f610adc565b6040513d85823e3d90fd5b8280fd5b5060028501546001600160a01b03163314610a86565b50346105985760203660031901126105985760408160e09260c08351610c5c81615946565b82815282602082015282858201528260608201528260808201528260a08201520152600435815260096020522060405190610c9682615946565b8054825260026001820154916020840192835201549060408301610cbd60ff841682615e74565b6060840160ff8460081c1615158152610d16608086019260ff8660101c161515845260a087019460ff8760181c161515865260ff60c089019760201c1615158752604051975188525160208801525160408701906157c9565b5115156060850152511515608084015251151560a083015251151560c0820152f35b50346105985780600319360112610598576020600654604051908152f35b503461059857610d6536615750565b9080835260046020526040832092600184019260018060a01b0384541633148015610eca575b610d9490615c04565b73__$69ea93bdf3b1e5da8164bfe3d9a878d765$__803b15610c1d57826040518092630252a86760e51b82528180610dcf8b60048301615d5d565b03915af48015610c1257908391610eb5575b505060068501610df8828254610af3828210615915565b905560018060a01b03600a8601541694600881015460405190631c8f084760e01b8252836004830152602482015260208160448173__$8537b7efa173772577da826929141ce939$__5af49384156105a35793610e7f575b5080545f5160206167255f395f51905f5293916103b191610b85906001600160a01b031689610b7f8688615cc9565b92506020833d602011610ead575b81610e9a602093836159ac565b810103126105db579151916103b1610e50565b3d9150610e8d565b81610ebf916159ac565b61061457815f610de1565b5060028501546001600160a01b03163314610d8b565b50610eea366156a0565b9190949288948a98979a948c604060ff825460a01c1691610f0a836158e4565b33815260016020522060018060a01b0385165f5260205260405f20548a81106111fc575b505091610f7b9493916102209893610f478b84336164f2565b5060405163652e83d760e01b815273__$69ea93bdf3b1e5da8164bfe3d9a878d765$__9e909b8c9a8b9a3360048d01615b07565b0381875af49081156111c25785916111cd575b5060206005546102446040518097819363797d4ee160e01b8352610fb560048401886157d6565b6102248301525af49384156111c257859461118e575b50610fd7600554615b73565b600555838552600460209081526040808720835181546001600160a01b03199081166001600160a01b039283161783559385015160018301805486169183169190911790559184015160028201805490941692169190911782556060830151909261020092909161108e919061104f90151582615b95565b61105f6080840151151582615bb2565b61106f60a0840151151582615bcf565b60c0830151815460ff60b81b191690151560b81b60ff60b81b16179055565b60e0810151600384015561010081015160048401556101208101516005840155610140810151600680850191909155610160820151600785015561018082015160088501556101a08201516009850180546001600160a01b039283166001600160a01b0319918216179091556101c0840151600a870180549190931691161790556101e0820151600b850155910151959086101561117a5750602094600c6111369201615bec565b6040516001600160a01b039283168152911690339083907f44e1ff8e67fad6b456bd43ff165ba4e9bb004370aa27a76881c6acb60dfd6dd9908690a4604051908152f35b634e487b7160e01b81526021600452602490fd5b9093506020813d6020116111ba575b816111aa602093836159ac565b810103126105db5751925f610fcb565b3d915061119d565b6040513d87823e3d90fd5b6111ef91506102203d81116111f5575b6111e781836159ac565b8101906159ee565b5f610f8e565b503d6111dd565b61121992999496959398506112139197508a615cc9565b956158e4565b611224851515615eb1565b6002549360405194631c8f084760e01b8652866004870152602486015260208560448173__$8537b7efa173772577da826929141ce939$__5af49485156113dd578d956113a9575b506001600160a01b03811696876112eb576112878688615f4a565b340361049657610220988c9888610f7b986112a48f9b8733616696565b506003546112be90829088906001600160a01b0316616696565b505b60405191825260208201525f5160206168e55f395f51905f5260403392a39193988193959650610f2e565b8d8060208a60646112fc8b8d615f4a565b60405194859384926323b872dd60e01b845233600485015230602485015260448401525af19182156105a3579161136b575b501561053957610220988c9888610f7b9861134b8f9b8733616696565b5060035461136590829088906001600160a01b0316616696565b506112c0565b90506020813d6020116113a1575b81611386602093836159ac565b8101031261139d57611397906159e1565b5f61132e565b8e80fd5b3d9150611379565b9094506020813d6020116113d5575b816113c5602093836159ac565b810103126105db5751935f61126c565b3d91506113b8565b6040513d8f823e3d90fd5b503461059857604036600319011261059857602090600435611408615674565b908083526004845261145c604084209260018060a01b0384541633148015611528575b61143490615c04565b6001600160a01b031692611449841515615e80565b600201546001600160a01b031615615fbb565b6114e860405161146b81615991565b82815285810184815260408083018781526060840188815260808501898152600854808b52600a8c529390992094518555925160019490940180546001600160a01b0319166001600160a01b0395909516949094178455519096916114df916114d690151585615b95565b51151583615bb2565b51151590615bcf565b6114f3600854615b73565b600855827f3e168088da33d5ab18321345a864b58812f451c892ee951f8f70b5bead045b6985604051338152a4604051908152f35b5060018401546001600160a01b0316331461142b565b50346105985761154d36615750565b919080825260046020526040822092600184019261157560018060a01b038554163314615c04565b73__$69ea93bdf3b1e5da8164bfe3d9a878d765$__803b1561061457816040518092630252a86760e51b825281806115b08b60048301615d5d565b03915af480156106095761163e575b5050600a8401545f5160206168455f395f51905f5291906116009082906001600160a01b03166115fa826115f383336164c9565b1015615915565b336164f2565b5060068501611610828254615f4a565b9055845493546002909501546040516001600160a01b039687169695861695909283926103b19216836164ae565b6116498280926159ac565b61059857806115bf565b503461059857602036600319011261059857604060e091600435815260096020522060ff8154916002600182015491015490604051938452602084015261169f604084018383166157c9565b818160081c1615156060840152818160101c1615156080840152818160181c16151560a084015260201c16151560c0820152f35b5034610598576060366003190112610598576116ed61568a565b906116f6615674565b604060443593338452600160205281842060018060a01b0384165f5260205261172485835f20541015615915565b338452600160205281842060018060a01b0384165f52602052815f2061174b868254615cc9565b905560018060a01b03169283815260016020522060018060a01b0382165f5260205260405f2061177c848254615f4a565b90556040519283526001600160a01b03169133905f5160206167c55f395f51905f5290602090a4602060405160018152f35b506020366003190112610598576004358082526004602052604082209160018301926117e460018060a01b038554163314615c04565b600281019161182283546117fd60ff8260b01c16615f57565b61180d60ff8260b81c1615615f89565b60ff8160a01c16159081611a9a575b50615c66565b600a820180546001600160a01b031661183b81336164c9565b600685015481106118da575b50505460048301546118649250906001600160a01b0316336164f2565b508154600160b81b60ff60b81b198216179092555492546040516001600160a01b0392831680825294918316929091169083905f5160206167855f395f51905f5290602090a4816118bb575b602060405160018152f35b60205f5160206168a55f395f51905f5291604051908152a25f806118b0565b6118e8906004860154615cc9565b6118f860ff855460a01c166158e4565b611903811515615eb1565b6002549360405194631c8f084760e01b8652826004870152602486015260208560448173__$8537b7efa173772577da826929141ce939$__5af49485156105e7578195611a66575b50826119b2575061195c8482615f4a565b34036104965761186493611971828433616696565b5060035461198b90829085906001600160a01b0316616696565b505b60405191825260208201525f5160206168e55f395f51905f5260403392a35f80611847565b6119bc8583615f4a565b604051906323b872dd60e01b8252336004830152306024830152604482015260208160648185885af19182156105a3578092611a29575b5050156105395761186493611a09828433616696565b50600354611a2390829085906001600160a01b0316616696565b5061198d565b9091506020823d602011611a5e575b81611a45602093836159ac565b810103126105985750611a57906159e1565b5f806119f3565b3d9150611a38565b9094506020813d602011611a92575b81611a82602093836159ac565b810103126105db5751935f61194b565b3d9150611a75565b60ff915060a81c16155f61181c565b50346105985760203660031901126105985760408160a09260808351611ace81615991565b828152826020820152828582015282606082015201526004358152600a60205220604051611afb81615991565b600182549283835201549060208101600180861b0383168152604082019060ff84871c161515825260ff60806060850194828760a81c1615158652019460b01c1615158452604051948552600180871b039051166020850152511515604084015251151560608301525115156080820152f35b503461059857602036600319011261059857600435808252600460205260408220600181019060018060a01b0382541633148015611db2575b611bb090615c04565b8373__$69ea93bdf3b1e5da8164bfe3d9a878d765$__803b1561061457816040518092630252a86760e51b82528180611bec8860048301615d5d565b03915af4801561060957611d9d575b5050600581015460098201546006830154600a84015460078501546008860154604051631c8f084760e01b81526004810187905260248101929092526001600160a01b0394851697959691959473__$8537b7efa173772577da826929141ce939$__931690602087604481875af49687156108ea578b97611d68575b50602090604460405180968193631c8f084760e01b835289600484015260248301525af49283156108aa57899a99989993611d2a575b5081548894939291906001600160a01b03168a611cca898b615cc9565b90611cd492616586565b50600282018054909a611cf2918991906001600160a01b0316616586565b5085546001600160a01b031681611d098680615cc9565b90611d1392616586565b5089546107d49184916001600160a01b0316616586565b9392509096506020833d602011611d60575b81611d49602093836159ac565b810103126105db5788968793519293919091611cad565b3d9150611d3c565b9096506020813d602011611d95575b81611d84602093836159ac565b810103126105db5751956020611c77565b3d9150611d77565b81611da7916159ac565b61090a57835f611bfb565b5060028101546001600160a01b03163314611ba7565b503461059857611dd736615750565b9080835260046020526040832092611df960018060a01b038554163314615c04565b73__$69ea93bdf3b1e5da8164bfe3d9a878d765$__803b1561061457816040518092630252a86760e51b82528180611e348a60048301615d5d565b03915af4801561060957611e67575b5050600983015461034d9083906001600160a01b03166115fa826115f383336164c9565b611e728280926159ac565b6105985780611e43565b50611e8636615750565b90808352600460205260408320926001840192611ead60018060a01b038554163314615c04565b73__$69ea93bdf3b1e5da8164bfe3d9a878d765$__803b15610c1d57826040518092630252a86760e51b82528180611ee88b60048301615d5d565b03915af48015610c1257908391612124575b5050600a850180546001600160a01b031692611f1684336164c9565b838110611f46575b5050545f5160206168455f395f51905f5292506116009082906001600160a01b0316336164f2565b611f509084615cc9565b91611f6160ff835460a01c166158e4565b611f6c831515615eb1565b6002549160405192631c8f084760e01b8452846004850152602484015260208360448173__$8537b7efa173772577da826929141ce939$__5af49283156105e75781936120f0575b508561202b5750611fc58284615f4a565b34036104965784838593611feb611600965f5160206168455f395f51905f529933616696565b5060035461200590829085906001600160a01b0316616696565b505b60405191825260208201525f5160206168e55f395f51905f5260403392a391611f1e565b6120358385615f4a565b604051906323b872dd60e01b82523360048301523060248301526044820152602081606481858b5af19182156105a35780926120b3575b5050156105395784838593612093611600965f5160206168455f395f51905f529933616696565b506003546120ad90829085906001600160a01b0316616696565b50612007565b9091506020823d6020116120e8575b816120cf602093836159ac565b8101031261059857506120e1906159e1565b5f8061206c565b3d91506120c2565b9092506020813d60201161211c575b8161210c602093836159ac565b810103126105db5751915f611fb4565b3d91506120ff565b8161212e916159ac565b61061457815f611efa565b50346105985761214836615750565b91908082526004602052604082209160018060a01b03835416331480156122b8575b61217390615c04565b73__$69ea93bdf3b1e5da8164bfe3d9a878d765$__803b1561061457816040518092630252a86760e51b825281806121ae8960048301615d5d565b03915af48015610609579082916122a3575b5050600683016121d7858254610af3828210615915565b905560018060a01b03600a840154169360088401549160405192631c8f084760e01b8452826004850152602484015260208360448173__$8537b7efa173772577da826929141ce939$__5af49081156105a35790612264575b60018501805490955f5160206167655f395f51905f5294506103b191610b85906001600160a01b031689610b7f8688615cc9565b506020823d60201161229b575b8161227e602093836159ac565b810103126105db575f5160206167655f395f51905f529151612230565b3d9150612271565b816122ad916159ac565b61059857805f6121c0565b5060028301546001600160a01b0316331461216a565b50346105985780600319360112610598576020600754604051908152f35b50346105985780600319360112610598576020600554604051908152f35b50346105985760203660031901126105985760406004359182815260046020522090600182019060018060a01b03825416331480156123c3575b61234d90615c04565b5f5160206168055f395f51905f526103b1600285019461237786546117fd60ff8260b01c16615f57565b80546009820154600583015461239b9290916001600160a01b039081169116616696565b5054935494546040516001600160a01b03968716969586169590928392909133911683615d43565b5082546001600160a01b03163314612344565b5034610598578060031936011261059857546040516001600160a01b039091168152602090f35b50346105985780600319360112610598576020600254604051908152f35b50346105985780600319360112610598576124346166de565b805460ff60a01b191681556040518181525f5160206167e55f395f51905f5290602090a1337f793bc6423dd0257d64f9d47db72fd4b2162f4541aa41740ba1c5fb5e2cd41bcd8280a280f35b5034610598576020366003190112610598576004358152600460205260409020600160a01b6001900381541690600160a01b600190036001820154169060028101546003820154600483015460058401546006850154600786015491600887015493600160a01b6001900360098901541695600160a01b60019003600a8a01541697600b8a015499600c015460ff169a6040519c8d5260208d0152600160a01b60019003811660408d01528060a01c60ff16151560608d01528060a81c60ff16151560808d01528060b01c60ff16151560a08d015260b81c60ff16151560c08c015260e08b01526101008a01526101208901526101408801526101608701526101808601526101a08501526101c08401526101e083015261020082016125a5916157c9565b61022090f35b50346105985760203660031901126105985760406004359182815260046020522090600182019060018060a01b0382541633148015612652575b6125ee90615c04565b5f5160206168055f395f51905f526103b16002850194612620865460ff8160b81c161580612644575b61180d90615f89565b80546009820154600583015461239b9290916001600160a01b039081169116616586565b5060b081901c60ff16612617565b5082546001600160a01b031633146125e5565b50346105985760206109d4612679366158c5565b906161b0565b50346105985761268e36615750565b9080835260046020526040832092600184019260018060a01b0384541633148015612812575b6126bd90615c04565b73__$69ea93bdf3b1e5da8164bfe3d9a878d765$__803b15610c1d57826040518092630252a86760e51b825281806126f88b60048301615d5d565b03915af48015610c12579083916127fd575b505060068501612721828254610af3828210615915565b905560018060a01b03600a8601541694600881015460405190631c8f084760e01b8252836004830152602482015260208160448173__$8537b7efa173772577da826929141ce939$__5af49384156105a357936127c7575b5080545f5160206167255f395f51905f5293916103b1916127ae906001600160a01b0316896127a88688615cc9565b91616696565b50610b9e83600283019960018060a01b038b5416616696565b92506020833d6020116127f5575b816127e2602093836159ac565b810103126105db579151916103b1612779565b3d91506127d5565b81612807916159ac565b61061457815f61270a565b5060028501546001600160a01b031633146126b4565b50346105985780600319360112610598576128416166de565b80546001600160a01b03198116825581906001600160a01b03165f5160206168255f395f51905f528280a380f35b5034610598576020366003190112610598576020906040906001600160a01b0361289761568a565b1681526001835281812081805283522054604051908152f35b50346105985760203660031901126105985760043580825260046020526040822090600182019160018060a01b0383541633148015612efe575b8015612ee8575b6128fa90615c04565b6002810193612913855461180d60ff8260b81c16615c35565b600b8201544210612ebd5760ff600c83015416600583015460018060a01b0360098501541660068501549160018060a01b03600a870154169060078701549460088801549673__$8537b7efa173772577da826929141ce939$__9760405197631c8f084760e01b89528460048a015260248901526020886044818c5af4978815610609578298612e88575b506020906044604051809b8193631c8f084760e01b83528b600484015260248301525af49788156105e7578198612e54575b50600682101561117a5791600482848e8e8e895f5160206168055f395f51905f529f9d6103b19f8f9d819f9d9b9e839f8f839f888f85848a8f8f8b8f9860018f919c899d87858d8f8c8f8f8c8b948f928b15612d89575b60028c14612cc2575b505050505050505050505014612bed575b5050505050505050505060038c14612b5e575b505050505050505050505014612aa3575b5050895460ff60a81b198116600160a81b17909a555050915495546040516001600160a01b0391821698978216979094859450925033911683615d43565b8483612ae5612b0796612aca612af6958b986127a88760018060a01b036003541693615cc9565b506003546001600160a01b03169086906127a8908990615cc9565b508d546001600160a01b0316616696565b508a546001600160a01b0316616696565b508254875489546003546040516001600160a01b0393841696948416958b955f5160206167055f395f51905f529592948594612b50949293928492849282169133911688615d00565b0390a45f8080808080612a65565b5f5160206167055f395f51905f5296612af6612b8893612bda968d60018060a01b03905416616696565b505495549654604080516001600160a01b0392831680825233602083015291810191909152606081019490945260808401929092525f60a0840181905260c084015295811695941693819060e0820190565b0390a48e8e8e878b8d8f8c908b8f612a54565b5f5160206168855f395f51905f5299612c575f5160206167255f395f51905f5298612c418886612c308f9e612c68996127a88560018060a01b0389541693615cc9565b5089546001600160a01b0316616696565b50546001600160a01b0316826127a8858b615cc9565b5084546001600160a01b0316616696565b508a54905491546040516001600160a01b039384169992841698919093169389938993918190612c9b908f338a85615cd6565b0390a4612cb08b604051938493339085615cd6565b0390a486888385848a8f8f8b8d612a41565b612d2c5f5160206167655f395f51905f529789938f8d8d612c305f5160206168c55f395f51905f529f8c906127a8858d88612d049960a01b0390541693615cc9565b508f80612d1d9160a01b03875416826127a8858d615cc9565b508f8060a01b03875416616696565b508c8060a01b039054169788928d8060a01b03905416998a948e8060a01b0390541695612d60604051928392338a85615cd6565b0390a4612d758a604051938493339085615cd6565b0390a487858d8f8c8f8f8c8b948f92612a30565b612da08d8060a01b038254168a6127a88d89615cc9565b50612db48a8a8f8060a01b03875416616696565b50612dcc8d8060a01b03845416836127a88a8a615cc9565b50612de087838f8060a01b03875416616696565b50898d8060a01b03825416898f89898985855f5160206168855f395f51905f52865f5160206167655f395f51905f529760a01b038d541699600194858c9660a01b0390541695612e37604051928392338a85615cd6565b0390a4612e4c8d604051938493339085615cd6565b0390a4612a27565b9097506020813d602011612e80575b81612e70602093836159ac565b810103126105db5751965f6129d0565b3d9150612e63565b9097506020813d602011612eb5575b81612ea4602093836159ac565b810103126105db575196602061299e565b3d9150612e97565b606460405162461bcd60e51b81526020600482015260046024820152632218971960e11b6044820152fd5b5060028101546001600160a01b031633146128f1565b5080546001600160a01b031633146128ea565b503461059857612f2036615722565b83859493929452600460205260408520906001820194612f4a60018060a01b038754163314615c04565b8673__$69ea93bdf3b1e5da8164bfe3d9a878d765$__803b1561061457816040518092630252a86760e51b82528180612f868a60048301615d5d565b03915af480156106095761329d575b50506002830196612fad60ff895460b01c1615615e42565b33815260016020526040812060018060a01b0386165f52602052612fd78260405f20541015615915565b612fe28286336164f2565b5082613282575b33815260016020526040812060018060a01b0386165f5260205260405f2054828110613099575b5050908184613031602095945f5160206169055f395f51905f5297336164f2565b50885460ff60b01b1916600160b01b178955600a840180546001600160a01b0319166001600160a01b039283161790556004840182905560068401919091556008830191909155905494549554604051908216815295811695941693a4602060405160018152f35b6130a7908392959493615cc9565b946130b860ff865460a01c166158e4565b6130c3861515615eb1565b6002549460405195631c8f084760e01b8752876004880152602487015260208660448173__$8537b7efa173772577da826929141ce939$__5af49586156105e757819661324e575b506001600160a01b038216908161318c57506131278688615f4a565b61049657866020966131485f5160206169055f395f51905f52998533616696565b5060035461316290829086906001600160a01b0316616696565b505b604051918252878201525f5160206168e55f395f51905f5260403392a3948192939450613010565b6131968789615f4a565b604051906323b872dd60e01b8252336004830152306024830152604482015260208160648185875af19182156105a3578092613211575b50501561053957866020966131f15f5160206169055f395f51905f52998533616696565b5060035461320b90829086906001600160a01b0316616696565b50613164565b9091506020823d602011613246575b8161322d602093836159ac565b81010312610598575061323f906159e1565b5f806131cd565b3d9150613220565b9095506020813d60201161327a575b8161326a602093836159ac565b810103126105db5751945f61310b565b3d915061325d565b8754613298906001600160a01b03161515615c97565b612fe9565b816132a7916159ac565b6132b257865f612f95565b8680fd5b50346105985760206109d46132ca366158c5565b90615fed565b503461059857602036600319011261059857604060a0916004358152600a6020522060ff60018254920154604051928352600180851b03811660208401528181851c1615156040840152818160a81c161515606084015260b01c1615156080820152f35b50346105985760203660031901126105985760043580825260046020526040822060018060a01b038154163314801561363a575b61337190615c04565b8273__$69ea93bdf3b1e5da8164bfe3d9a878d765$__803b1561061457816040518092630252a86760e51b825281806133ad8860048301615d5d565b03915af4801561060957613625575b5050600581015460098201546006830154600a84015460078501546008860154604051631c8f084760e01b81526004810187905260248101929092526001600160a01b0394851696939573__$8537b7efa173772577da826929141ce939$__959093169390602083604481895af49283156108aa578a936135f0575b50602090604460405180988193631c8f084760e01b83528b600484015260248301525af49485156135e5578899989798956135aa575b50600181018054909488949392916001600160a01b03168a6134908587615cc9565b9061349a92616696565b50600282018054909a6134b8918591906001600160a01b0316616696565b5081546001600160a01b0316816134cf8a80615cc9565b906134d992616696565b5089546134f09188916001600160a01b0316616696565b5054935497546040516001600160a01b03998a169a958a1699909116968a968a968893889391929091829161352791338e85615cd6565b035f5160206167255f395f51905f5291a460405191829161354a91338985615cd6565b035f5160206168c55f395f51905f5291a460405180913361356b9183615d43565b037ffaee379435b6a0c297f1a08c66517fdc202debc6d275e6dd73630e3ebd1bdd9791a460065461359b90615b73565b60065560405160018152602090f35b9291965093506020823d6020116135dd575b816135c9602093836159ac565b810103126105db579051879590938661346e565b3d91506135bc565b6040513d8b823e3d90fd5b9092506020813d60201161361d575b8161360c602093836159ac565b810103126105db5751916020613438565b3d91506135ff565b8161362f916159ac565b610c1d57825f6133bc565b5060028101546001600160a01b03163314613368565b50346105985760203660031901126105985760408161022092610200835161367781615975565b82815282602082015282858201528260608201528260808201528260a08201528260c08201528260e08201528261010082015282610120820152826101408201528261016082015282610180820152826101a0820152826101c0820152826101e0820152015260043581526004602052206137cb60ff600c604051936136fc85615975565b80546001600160a01b0390811686526001820154811660208701526002820154808216604088015260a081811c86161515606089015260a882901c86161515608089015260b082901c861615159088015260b81c8416151560c0870152600382015460e087015260048201546101008701526005820154610120870152600682015461014087015260078201546101608701526008820154610180870152600982015481166101a0870152600a820154166101c0860152600b8101546101e08601520154166102008301615e74565b6137d860405180926157d6565bf35b5034610598576137e936615750565b9080835260046020526040832092600184019260018060a01b038454163314801561394e575b61381890615c04565b73__$69ea93bdf3b1e5da8164bfe3d9a878d765$__803b15610c1d57826040518092630252a86760e51b825281806138538b60048301615d5d565b03915af48015610c1257908391613939575b50506005850161387c828254610af3828210615915565b905560018060a01b0360098601541694600781015460405190631c8f084760e01b8252836004830152602482015260208160448173__$8537b7efa173772577da826929141ce939$__5af49384156105a35793613903575b5080545f5160206168855f395f51905f5293916103b1916127ae906001600160a01b0316896127a88688615cc9565b92506020833d602011613931575b8161391e602093836159ac565b810103126105db579151916103b16138d4565b3d9150613911565b81613943916159ac565b61061457815f613865565b5060028501546001600160a01b0316331461380f565b50346105985761397336615750565b91908082526004602052604082209160018060a01b0383541633148015613ae3575b61399e90615c04565b73__$69ea93bdf3b1e5da8164bfe3d9a878d765$__803b1561061457816040518092630252a86760e51b825281806139d98960048301615d5d565b03915af4801561060957908291613ace575b505060058301613a02858254610af3828210615915565b905560018060a01b036009840154169360078401549160405192631c8f084760e01b8452826004850152602484015260208360448173__$8537b7efa173772577da826929141ce939$__5af49081156105a35790613a8f575b60018501805490955f5160206168c55f395f51905f5294506103b191610b85906001600160a01b031689610b7f8688615cc9565b506020823d602011613ac6575b81613aa9602093836159ac565b810103126105db575f5160206168c55f395f51905f529151613a5b565b3d9150613a9c565b81613ad8916159ac565b61059857805f6139eb565b5060028301546001600160a01b03163314613995565b50604036600319011261059857613b0e61568a565b602435613b2160ff845460a01c166158e4565b613b2c811515615eb1565b60025460405190631c8f084760e01b8252826004830152602482015260208160448173__$8537b7efa173772577da826929141ce939$__5af4908115613cb1578491613c7f575b506001600160a01b0383169283613bd957613b8e8284615f4a565b3403610496578181613ba485613bb69433616696565b506003546001600160a01b0316616696565b505b60405191825260208201525f5160206168e55f395f51905f5260403392a380f35b613be38284615f4a565b604051906323b872dd60e01b8252336004830152306024830152604482015260208160648189895af1908115613c74578691613c36575b5015610539578181613ba485613c309433616696565b50613bb8565b90506020813d602011613c6c575b81613c51602093836159ac565b81010312613c6857613c62906159e1565b5f613c1a565b8580fd5b3d9150613c44565b6040513d88823e3d90fd5b90506020813d602011613ca9575b81613c9a602093836159ac565b810103126105db57515f613b73565b3d9150613c8d565b6040513d86823e3d90fd5b503461059857806003193601126105985760ff6020915460a01c166040519015158152f35b503461059857602036600319011261059857604060043591828152600460205220906001820191613d1c60018060a01b038454163314615c04565b6002810190613d3582546117fd60ff8260b01c16615f57565b600a810154611864906001600160a01b0316613d5181336164c9565b906115fa600485015480931015615915565b503461059857613d7236615750565b91908082526004602052604082209160018060a01b0383541633148015613ee2575b613d9d90615c04565b73__$69ea93bdf3b1e5da8164bfe3d9a878d765$__803b1561061457816040518092630252a86760e51b82528180613dd88960048301615d5d565b03915af4801561060957908291613ecd575b505060058301613e01858254610af3828210615915565b905560018060a01b036009840154169360078401549160405192631c8f084760e01b8452826004850152602484015260208360448173__$8537b7efa173772577da826929141ce939$__5af49081156105a35790613e8e575b60018501805490955f5160206168c55f395f51905f5294506103b1916127ae906001600160a01b0316896127a88688615cc9565b506020823d602011613ec5575b81613ea8602093836159ac565b810103126105db575f5160206168c55f395f51905f529151613e5a565b3d9150613e9b565b81613ed7916159ac565b61059857805f613dea565b5060028301546001600160a01b03163314613d94565b5034610598576020366003190112610598576004359060025460405190631c8f084760e01b8252836004830152602482015260208160448173__$8537b7efa173772577da826929141ce939$__5af49182156105a35791613f68575b6020613f608385615f4a565b604051908152f35b90506020813d602011613f93575b81613f83602093836159ac565b810103126105db57516020613f54565b3d9150613f76565b5034610598578060031936011261059857613fb46166de565b805460ff60a01b1916600160a01b178155604051600181525f5160206167e55f395f51905f5290602090a1337fae81c15a680e6640ba872ca44f364ad67c60a04089ad9fa100f7a3ce94da9f688280a280f35b50346105985760203660031901126105985760043580825260046020526040822060018060a01b0381541633148015614248575b61404490615c04565b8273__$69ea93bdf3b1e5da8164bfe3d9a878d765$__803b1561061457816040518092630252a86760e51b825281806140808860048301615d5d565b03915af4801561060957614233575b5050600581015460098201546006830154600a84015460078501546008860154604051631c8f084760e01b81526004810187905260248101929092526001600160a01b0394851696939573__$8537b7efa173772577da826929141ce939$__959093169390602083604481895af49283156108aa578a936141fe575b50602090604460405180988193631c8f084760e01b83528b600484015260248301525af49485156135e5578899989798956141c3575b50600181018054909488949392916001600160a01b03168a6141638587615cc9565b9061416d92616586565b50600282018054909a61418b918591906001600160a01b0316616586565b5081546001600160a01b0316816141a28a80615cc9565b906141ac92616586565b5089546134f09188916001600160a01b0316616586565b9291965093506020823d6020116141f6575b816141e2602093836159ac565b810103126105db5790518795909386614141565b3d91506141d5565b9092506020813d60201161422b575b8161421a602093836159ac565b810103126105db575191602061410b565b3d915061420d565b8161423d916159ac565b610c1d57825f61408f565b5060028101546001600160a01b0316331461403b565b5061426836615766565b91929095949360ff885460a01c1692614280846158e4565b33895260016020526040892060018060a01b0386165f5260205260405f2054828110614518575b5061022093506142f2906142bc8387336164f2565b5060405163652e83d760e01b815273__$69ea93bdf3b1e5da8164bfe3d9a878d765$__999096879586958a8c3360048a01615ee2565b0381875af49081156111c25785916144f9575b5060206005546102446040518097819363797d4ee160e01b835261432c60048401886157d6565b6102248301525af49384156111c25785946144c5575b5061434e600554615b73565b600555838552600460209081526040808720835181546001600160a01b03199081166001600160a01b03928316178355938501516001830180548616918316919091179055918401516002820180549094169216919091178255606083015190926102009290916143c6919061104f90151582615b95565b60e0810151600384015561010081015160048401556101208101516005840155610140810151600680850191909155610160820151600785015561018082015160088501556101a08201516009850180546001600160a01b039283166001600160a01b0319918216179091556101c0840151600a870180549190931691161790556101e0820151600b850155910151959086101561117a5750602094600c61446e9201615bec565b6040516001600160a01b039182168082529290911690339084905f5160206167855f395f51905f52908790a4806144a9575b50604051908152f35b5f5160206168a55f395f51905f5283604051848152a25f6144a0565b9093506020813d6020116144f1575b816144e1602093836159ac565b810103126105db5751925f614342565b3d91506144d4565b61451291506102203d81116111f5576111e781836159ac565b5f614305565b61452561452b9184615cc9565b946158e4565b614536841515615eb1565b6002549060405191631c8f084760e01b8352856004840152602483015260208260448173__$8537b7efa173772577da826929141ce939$__5af49182156108aa578a926146b5575b506001600160a01b038616806145f1576145988387615f4a565b340361049657856142f2936145b1610220988a33616696565b506003546145cb9082908b906001600160a01b0316616696565b505b60405191825260208201525f5160206168e55f395f51905f5260403392a3906142a7565b8a60206145fe8589615f4a565b6064604051809481936323b872dd60e01b83523360048401523060248401526044830152865af19081156146aa578c9161466c575b501561053957856142f29361464c610220988a33616696565b506003546146669082908b906001600160a01b0316616696565b506145cd565b90506020813d6020116146a2575b81614687602093836159ac565b8101031261469e57614698906159e1565b5f614633565b8b80fd5b3d915061467a565b6040513d8e823e3d90fd5b9091506020813d6020116146e1575b816146d1602093836159ac565b810103126105db5751905f61457e565b3d91506146c4565b5034610598576102206142f26146fe36615766565b61471660ff8b9a9694979899939a5460a01c166158e4565b338a52600160205260408a2060018060a01b0387165f526020526147408360405f20541015615915565b6142bc8387336164f2565b5034610598576040366003190112610598577f14bdaadaed0453e7b5b66195b42156ba995b9e5abd0da98368839851d69ad889604060043561478b615674565b6147936166de565b6001600160a01b03166147a7811515615e80565b6147b86402540be400831115615eb1565b6002829055600380546001600160a01b0319168217905582519182526020820152a180f35b503461059857606036600319011261059857602435600435604435600681101561090a5781845260046020526040842091600183019160018060a01b03835416331480156149fd575b80156149e7575b61483690615c04565b8573__$69ea93bdf3b1e5da8164bfe3d9a878d765$__803b1561061457816040518092630252a86760e51b825281806148728b60048301615d5d565b03915af48015610609576149d2575b5050841580156149c8575b61489590615c97565b6040516148a181615946565b828152602081019586526148b9604082019283615e74565b606081018781526080820188815260a0830191898352600260c08501948b86526007549a8b8d52600960205260408d20915182555160018201550194519960068b101561117a575061490d60209a86615bec565b51845491519251935160ff808c1b1963ffffff001990941692151560081b61ff00169290921793151560101b62ff0000169390931793151560181b63ff00000016939093171690151591909116871b17905582549154600290930154604080516001600160a01b0392831681523381890152908101869052938116939216917f867051316d0aafc6bf3704f0b32fa0e735bb03d37318b95179bdc1c5017467c090606090a46149bd600754615b73565b600755604051908152f35b504285111561488c565b816149dc916159ac565b613c6857855f614881565b5060028401546001600160a01b0316331461482d565b5083546001600160a01b03163314614826565b503461059857614a1f36615750565b91908082526004602052604082209160018060a01b0383541633148015614b8f575b614a4a90615c04565b73__$69ea93bdf3b1e5da8164bfe3d9a878d765$__803b1561061457816040518092630252a86760e51b82528180614a858960048301615d5d565b03915af4801561060957908291614b7a575b505060068301614aae858254610af3828210615915565b905560018060a01b03600a840154169360088401549160405192631c8f084760e01b8452826004850152602484015260208360448173__$8537b7efa173772577da826929141ce939$__5af49081156105a35790614b3b575b60018501805490955f5160206167655f395f51905f5294506103b1916127ae906001600160a01b0316896127a88688615cc9565b506020823d602011614b72575b81614b55602093836159ac565b810103126105db575f5160206167655f395f51905f529151614b07565b3d9150614b48565b81614b84916159ac565b61059857805f614a97565b5060028301546001600160a01b03163314614a41565b50614baf36615722565b835f9493929452600460205260405f20906001820194614bd960018060a01b038754163314615c04565b73__$69ea93bdf3b1e5da8164bfe3d9a878d765$__803b156105db575f6040518092630252a86760e51b82528180614c148960048301615d5d565b03915af48015614d7b57614d66575b506002830196614c3a60ff895460b01c1615615e42565b33815260016020526040812060018060a01b0386165f5260205260405f2054828110614c81575050908184613031602095945f5160206169055f395f51905f5297336164f2565b614c8f908392959493615cc9565b94614ca060ff865460a01c166158e4565b614cab861515615eb1565b6002549460405195631c8f084760e01b8752876004880152602487015260208660448173__$8537b7efa173772577da826929141ce939$__5af49586156105e7578196614d32575b506001600160a01b038216908161318c5750614d0f8688615f4a565b340361049657866020966131485f5160206169055f395f51905f52998533616696565b9095506020813d602011614d5e575b81614d4e602093836159ac565b810103126105db5751945f614cf3565b3d9150614d41565b614d739197505f906159ac565b5f955f614c23565b6040513d5f823e3d90fd5b346105db575f3660031901126105db576003546040516001600160a01b039091168152602090f35b346105db5760203660031901126105db57600435805f52600460205260405f2090600182019060018060a01b03825416331480156153d7575b80156153c1575b614df790615c04565b6002830192614e248454614e1060ff8260b81c16615c35565b60ff8160a01c161590816153b25750615c66565b614e34600b820154421015615c97565b60ff600c8201541660058201549160018060a01b0360098201541660068201549060018060a01b03600a840154169160078401549160088501549373__$8537b7efa173772577da826929141ce939$__9460405194631c8f084760e01b86528960048701526024860152602085604481895af4948515614d7b575f9561537d575b50602090604460405180988193631c8f084760e01b835288600484015260248301525af4948515614d7b575f95615349575b50600687101561533557876004888d8d8d888a5f5160206168055f395f51905f529f6103b19f8f8f9283878f948f90848d6001838f8b8f968f9b888e918b8f968f908f96908c9115615268575b60028b1461518b575b50505050505050505050146150b2575b505050505050508a60038a14615065575b50505050505050505014614faa575050895460ff60a81b198116600160a81b17909a555050915495546040516001600160a01b0391821698978216979094859450925033911683615d43565b8483614fec61500e96614fd1614ffd958b98610b7f8760018060a01b036003541693615cc9565b506003546001600160a01b0316908690610b7f908990615cc9565b508d546001600160a01b0316616586565b508a546001600160a01b0316616586565b508254875489546003546040516001600160a01b0393841696948416958b955f5160206167055f395f51905f529592948594615057949293928492849282169133911688615d00565b0390a4868080808080612a65565b5f5160206167055f395f51905f529561508e612b88926150a19560018060a01b038d5416616586565b5089548e906001600160a01b0316616586565b0390a48d8d8d888a8c8a8f8a614f5e565b5f5160206168855f395f51905f52955f5160206167255f395f51905f5294615130926150ec60018060a01b038c54168d610b7f8d89615cc9565b508054615105908b908e906001600160a01b0316616586565b508a54615120906001600160a01b031683610b7f868a615cc9565b50546001600160a01b0316616586565b5086548d548f546040516001600160a01b039283169993831698919092169389938993899392909182916151679190338a85615cd6565b0390a461517c89604051938493339085615cd6565b0390a48383878e888f8d614f4d565b875f5160206167655f395f51905f529761520e858f976151e28f5f5160206168c55f395f51905f529f6151d18d82610b7f6152539f8d81889260a01b0390541693615cc9565b5089546001600160a01b0316616586565b5085546151fd906001600160a01b031682610b7f858f615cc9565b5086546001600160a01b0316616586565b508d8060a01b03905416998a928e8060a01b039054169b8c948f8060a01b0390541697615242604051928392338c85615cd6565b0390a4604051938493339085615cd6565b0390a48f8b888c88888b8f968f908b90614f3d565b61527f8c8060a01b038854168a610b7f8d89615cc9565b506152938a8a8e8060a01b03855416616586565b506152ab8c8060a01b0382541685610b7f868a615cc9565b506152bf83858e8060a01b03855416616586565b505f5160206168855f395f51905f528a895f5160206167655f395f51905f528f89818c9260a01b038d54169460018581889260a01b038a541698600193848b9560a01b038d541695615318604051928392338a85615cd6565b0390a461532d89604051938493339085615cd6565b0390a4614f34565b634e487b7160e01b5f52602160045260245ffd5b9094506020813d602011615375575b81615365602093836159ac565b810103126105db5751938b614ee7565b3d9150615358565b9094506020813d6020116153aa575b81615399602093836159ac565b810103126105db5751936020614eb5565b3d915061538c565b60ff915060a81c16158661181c565b5060028301546001600160a01b03163314614dee565b5082546001600160a01b03163314614de7565b346105db575f3660031901126105db576020600854604051908152f35b346105db576102206154a361541b366156a0565b9261543960ff5f9d99979d9c969c9b9a9b9493945460a01c166158e4565b335f52600160205260405f2060018060a01b0382165f526020526154638660405f20541015615915565b61546e8682336164f2565b5073__$69ea93bdf3b1e5da8164bfe3d9a878d765$__9a6040519c8d98899863652e83d760e01b8a528d8d3360048d01615b07565b0381865af4938415614d7b575f94615653575b5060206005546102446040518096819363797d4ee160e01b83526154dd600484018b6157d6565b6102248301525af4928315614d7b575f9361561f575b506154ff600554615b73565b6005555f83815260046020908152604091829020865181546001600160a01b03199081166001600160a01b03928316178355928801516001830180548516918316919091179055928701516002820180549093169316929092178155606086015191956102009290916155789161104f90151582615b95565b60e0810151600387015561010081015160048701556101208101516005870155610140810151600680880191909155610160820151600788015561018082015160088801556101a08201516009880180546001600160a01b039283166001600160a01b0319918216179091556101c0840151600a8a0180549190931691161790556101e0820151600b880155910151949085101561533557602094600c6111369201615bec565b9092506020813d60201161564b575b8161563b602093836159ac565b810103126105db575191846154f3565b3d915061562e565b61566d9194506102203d81116111f5576111e781836159ac565b92846154b6565b602435906001600160a01b03821682036105db57565b600435906001600160a01b03821682036105db57565b6101409060031901126105db576004356001600160a01b03811681036105db57906024356001600160a01b03811681036105db579060443590606435906084359060a4359060c4356001600160a01b03811681036105db579060e4356001600160a01b03811681036105db579061010435906101243560068110156105db5790565b60809060031901126105db57600435906024356001600160a01b03811681036105db57906044359060643590565b60409060031901126105db576004359060243590565b60e09060031901126105db576004356001600160a01b03811681036105db57906024356001600160a01b03811681036105db579060443590606435906084356001600160a01b03811681036105db579060a4359060c43560068110156105db5790565b9060068210156153355752565b90610200806158c39360018060a01b03815116845260018060a01b03602082015116602085015260018060a01b03604082015116604085015260608101511515606085015260808101511515608085015260a0810151151560a085015260c0810151151560c085015260e081015160e085015261010081015161010085015261012081015161012085015261014081015161014085015261016081015161016085015261018081015161018085015260018060a01b036101a0820151166101a085015260018060a01b036101c0820151166101c08501526101e08101516101e085015201519101906157c9565b565b60409060031901126105db576004359060243580151581036105db5790565b156158eb57565b60405162461bcd60e51b81526020600482015260026024820152614c3160f01b6044820152606490fd5b1561591c57565b60405162461bcd60e51b8152602060048201526002602482015261543160f01b6044820152606490fd5b60e081019081106001600160401b0382111761596157604052565b634e487b7160e01b5f52604160045260245ffd5b61022081019081106001600160401b0382111761596157604052565b60a081019081106001600160401b0382111761596157604052565b90601f801991011681019081106001600160401b0382111761596157604052565b51906001600160a01b03821682036105db57565b519081151582036105db57565b90816102209103126105db5761020060405191615a0a83615975565b615a13816159cd565b8352615a21602082016159cd565b6020840152615a32604082016159cd565b6040840152615a43606082016159e1565b6060840152615a54608082016159e1565b6080840152615a6560a082016159e1565b60a0840152615a7660c082016159e1565b60c084015260e081015160e0840152610100810151610100840152610120810151610120840152610140810151610140840152610160810151610160840152610180810151610180840152615ace6101a082016159cd565b6101a0840152615ae16101c082016159cd565b6101c08401526101e08101516101e0840152015160068110156105db5761020082015290565b6001600160a01b039182168152918116602083015291821660408201526060810192909252608082019290925260a081019290925260c082019290925291811660e0830152909116610100820152610120810191909152610160810192916158c39161014001906157c9565b5f198114615b815760010190565b634e487b7160e01b5f52601160045260245ffd5b805460ff60a01b191691151560a01b60ff60a01b16919091179055565b805460ff60a81b191691151560a81b60ff60a81b16919091179055565b805460ff60b01b191691151560b01b60ff60b01b16919091179055565b9060068110156153355760ff80198354169116179055565b15615c0b57565b60405162461bcd60e51b8152602060048201526002602482015261443560f01b6044820152606490fd5b15615c3c57565b60405162461bcd60e51b8152602060048201526002602482015261221960f11b6044820152606490fd5b15615c6d57565b60405162461bcd60e51b8152602060048201526002602482015261443360f01b6044820152606490fd5b15615c9e57565b606460405162461bcd60e51b815260206004820152600460248201526344312e3160e01b6044820152fd5b91908203918211615b8157565b6001600160a01b039182168152911660208201526040810191909152606081019190915260800190565b6001600160a01b039182168152918116602083015290911660408201526060810191909152608081019190915260a081019190915260c081019190915260e00190565b6001600160a01b0391821681529116602082015260400190565b81546001600160a01b0390811682526001830154811660208301526002830154808216604084015260ff60a082811c82161515606086015260a883901c82161515608086015260b083901c821615159085015260b89190911c8116151560c0840152600384015460e084015260048401546101008401526005840154610120840152600684015461014084015260078401546101608401526008840154610180840152600984015482166101a0840152600a8401549091166101c0830152600b8301546101e0830152600c90920154610220820193926158c3926102000191166157c9565b15615e4957565b606460405162461bcd60e51b81526020600482015260046024820152632219171960e11b6044820152fd5b60068210156153355752565b15615e8757565b60405162461bcd60e51b8152602060048201526002602482015261433160f01b6044820152606490fd5b15615eb857565b60405162461bcd60e51b8152602060048201526002602482015261433560f01b6044820152606490fd5b6001600160a01b0391821681529181166020830152918216604082015260608101929092525f6080830181905260a083019390935260c0820183905290921660e0830152610100820152610120810191909152610160810192916158c39161014001906157c9565b91908201809211615b8157565b15615f5e57565b606460405162461bcd60e51b815260206004820152600460248201526344332e3160e01b6044820152fd5b15615f9057565b606460405162461bcd60e51b815260206004820152600460248201526344322e3160e01b6044820152fd5b15615fc257565b606460405162461bcd60e51b815260206004820152600460248201526343332e3160e01b6044820152fd5b90815f52600a60205260405f2080545f52600460205260405f209160018060a01b038354163314801561619a575b61602490615c04565b61614557600282018054909290616044906001600160a01b031615615fbb565b80546001600160a01b0316331461612b575b600101546001600160a01b03163314616111575b6001810191825460ff8160a01c1680616104575b6160c35750505060805f5160206167a55f395f51905f52915460ff60405191338352818160a01c161515602084015260a81c16151560408201525f6060820152a25f90565b81546001600160a01b0319166001600160a01b039182161790915591549054604051908152911691505f5160206168a55f395f51905f5290602090a2600190565b5060ff8160a81c1661607e565b60018101805460ff60a81b1916600160a81b17905561606a565b60018201805460ff60a01b1916600160a01b179055616056565b5f5160206167a55f395f51905f529150600160809101600160b01b60ff60b01b198254161780915560ff60405191338352818160a01c161515602084015260a81c161515604082015260016060820152a25f90565b5060018301546001600160a01b0316331461601b565b5f91815f52600960205260405f209081545f52600460205260405f2090600182019060018060a01b038254163314801561649b575b8015616485575b6161f590615c04565b73__$69ea93bdf3b1e5da8164bfe3d9a878d765$__803b156105db575f6040518092630252a86760e51b825281806162308960048301615d5d565b03915af48015614d7b57616470575b5061640f57600183019283549384158015616405575b61625e90615c97565b83546001600160a01b031633146163ef575b82546001600160a01b031633146163d7575b6002840180549092906001600160a01b031633146163bd575b6002810195865460ff8160081c1690816163ae575b816163a0575b5061630b5750505050505060a05f5160206167455f395f51905f52915460ff60405191338352818160081c1615156020840152818160101c161515604084015260181c1615156060820152846080820152a290565b8598509160ff7f932bd05aaee1f6600767846bab40eaabef608993e19645684d0a9fcb3335d372979261639a9594600b60c099015561635082855416600c8d01615bec565b5499549554935491549254604080516001600160a01b039889168152958816602087015292909616918401919091523360608401526080830191909152909260a0840191166157c9565ba3600190565b60ff915060181c165f6162b6565b905060ff8160101c16906162b0565b60028101805463ff0000001916630100000017905561629b565b60028201805462ff0000191662010000179055616282565b60028201805461ff001916610100179055616270565b5042851115616255565b505060a060025f5160206167455f395f51905f529201600160201b60ff60201b198254161780915560ff60405191338352818160081c1615156020840152818160101c161515604084015260181c161515606082015260016080820152a290565b61647d9196505f906159ac565b5f945f61623f565b5060028301546001600160a01b031633146161ec565b5082546001600160a01b031633146161e5565b6001600160a01b039091168152602081019190915260400190565b60018060a01b03165f52600160205260405f209060018060a01b03165f5260205260405f205490565b821561657e5760018060a01b031690815f52600160205260405f2060018060a01b0382165f526020528260405f205410616577575f5160206167c55f395f51905f5260205f92848452600182526040842060018060a01b038216855282526040842061655f878254615cc9565b90556040519586526001600160a01b031694a4600190565b5050505f90565b505050600190565b9190811561657e576001600160a01b031691826165db575f808080856001600160a01b03861682f115614d7b5760205f5160206168655f395f51905f52915b6040519384526001600160a01b031692a3600190565b60405163a9059cbb60e01b81526001600160a01b0382166004820152602481018390526020816044815f885af1908115614d7b575f9161665c575b50156166325760205f5160206168655f395f51905f52916165c5565b60405162461bcd60e51b8152602060048201526002602482015261543360f01b6044820152606490fd5b90506020813d60201161668e575b81616677602093836159ac565b810103126105db57616688906159e1565b5f616616565b3d915061666a565b821561657e575f5160206167c55f395f51905f5260205f9260018060a01b031693848452600182526040842060018060a01b038216855282526040842061655f878254615f4a565b5f546001600160a01b031633036166f157565b63118cdaa760e01b5f523360045260245ffdfe8e100dc3335e09b082c843425f71ea8ae9d91ae5bb385ef4b41d0d2c6aa872148af39814826d4542f7fe66e6fa6ac2ac59bfc8221394f51a41dba5c54dba0ac9ca0792b3957820bc249dd7664026ca960efe1500204314bf8161056d3847d526afbe337783658b293f1566e1790bfab9858b8cf08de944ca3cd013d4211887b85e02698c1650d6cbe1f7e8a48609d0da45ad7f5e4c13cd8b196f82965c0ab0d5da0fdc90d2cac3c2211c13cf60368aceb049a3073b8be0b90792021888c55fc5d1398bee19313d6bf672ccb116e51f4a1a947e91c757907f51fbb5b5e56c698f017904e4fe7d59bb4603c7c045bc275a05da9ea3a4ac007fc80fffeaf119186d086c61b89ef5fcdb14c243b643069c3c6a84765b27f2a696b875dddf031afb4d8be0079c531659141344cd1fd0a4f28419497f9722a3daafe3b4186f6b6457e09d5818ec36d6e85e8a30346f5fe41b65cc50cea2b868ae94f293d113c92a13382717ead6b9200dd235aad468c9809ea400fe33ac69b5bfaa6d3e90fc922b6398a6af192380b5ba311ac003f57efa2be0717f0e466318c7e9cf546c4937a03d94957372c0e02d2882134cc0eebbef9e446634d8ccbb1cbb112bdefdd3cf0a643cf05d33634b730e763d232b482cf835a4481835f62d0a0973b42018a8ead4f047dcbc1c05240f31ff3ad067ef1ee35ce4997762752e3a095284754544f4c709d79f039f6754f2d286001d6bb50c1b3cc185b309e82f63077e29516a6a87e8e99da2646970667358221220fb4a383e4f099d0331ee930ea81099751e681ccd7fb1671835016c0592f0e7ca64736f6c634300081c0033",
			"opcodes": "PUSH1 0x80 CALLVALUE PUSH2 0x15A JUMPI PUSH1 0x1F PUSH2 0x6ACD CODESIZE DUP2 SWAP1 SUB SWAP2 DUP3 ADD PUSH1 0x1F NOT AND DUP4 ADD SWAP2 PUSH1 0x1 PUSH1 0x1 PUSH1 0x40 SHL SUB DUP4 GT DUP5 DUP5 LT OR PUSH2 0x15E JUMPI DUP1 DUP5 SWAP3 PUSH1 0x40 SWAP5 DUP6 MSTORE DUP4 CODECOPY DUP2 ADD SUB SLT PUSH2 0x15A JUMPI DUP1 MLOAD PUSH1 0x20 SWAP1 SWAP2 ADD MLOAD PUSH1 0x1 PUSH1 0x1 PUSH1 0xA0 SHL SUB DUP2 AND SWAP2 SWAP1 DUP3 SWAP1 SUB PUSH2 0x15A JUMPI CALLER ISZERO PUSH2 0x147 JUMPI PUSH0 DUP1 SLOAD PUSH1 0x40 MLOAD SWAP2 CALLER SWAP1 PUSH1 0x1 PUSH1 0x1 PUSH1 0xA0 SHL SUB DUP4 AND SWAP1 PUSH32 0x8BE0079C531659141344CD1FD0A4F28419497F9722A3DAAFE3B4186F6B6457E0 SWAP1 DUP1 LOG3 PUSH1 0x1 PUSH1 0x1 PUSH1 0xA8 SHL SUB NOT AND CALLER PUSH1 0xFF PUSH1 0xA0 SHL NOT AND OR PUSH1 0x1 PUSH1 0xA0 SHL OR PUSH0 SSTORE DUP3 ISZERO PUSH2 0x120 JUMPI POP PUSH5 0x2540BE400 DUP2 GT PUSH2 0xF6 JUMPI PUSH1 0x2 SSTORE PUSH1 0x1 DUP1 PUSH1 0xA0 SHL SUB NOT PUSH1 0x3 SLOAD AND OR PUSH1 0x3 SSTORE PUSH0 PUSH1 0x5 SSTORE PUSH0 PUSH1 0x6 SSTORE PUSH0 PUSH1 0x7 SSTORE PUSH0 PUSH1 0x8 SSTORE PUSH1 0x40 MLOAD PUSH2 0x695A SWAP1 DUP2 PUSH2 0x173 DUP3 CODECOPY RETURN JUMPDEST PUSH1 0x40 MLOAD PUSH3 0x461BCD PUSH1 0xE5 SHL DUP2 MSTORE PUSH1 0x20 PUSH1 0x4 DUP3 ADD MSTORE PUSH1 0x2 PUSH1 0x24 DUP3 ADD MSTORE PUSH2 0x4335 PUSH1 0xF0 SHL PUSH1 0x44 DUP3 ADD MSTORE PUSH1 0x64 SWAP1 REVERT JUMPDEST PUSH3 0x461BCD PUSH1 0xE5 SHL DUP2 MSTORE PUSH1 0x20 PUSH1 0x4 DUP3 ADD MSTORE PUSH1 0x2 PUSH1 0x24 DUP3 ADD MSTORE PUSH2 0x4331 PUSH1 0xF0 SHL PUSH1 0x44 DUP3 ADD MSTORE PUSH1 0x64 SWAP1 REVERT JUMPDEST PUSH4 0x1E4FBDF7 PUSH1 0xE0 SHL PUSH0 MSTORE PUSH0 PUSH1 0x4 MSTORE PUSH1 0x24 PUSH0 REVERT JUMPDEST PUSH0 DUP1 REVERT JUMPDEST PUSH4 0x4E487B71 PUSH1 0xE0 SHL PUSH0 MSTORE PUSH1 0x41 PUSH1 0x4 MSTORE PUSH1 0x24 PUSH0 REVERT INVALID PUSH1 0x80 PUSH1 0x40 MSTORE PUSH1 0x4 CALLDATASIZE LT ISZERO PUSH2 0x11 JUMPI PUSH0 DUP1 REVERT JUMPDEST PUSH0 PUSH0 CALLDATALOAD PUSH1 0xE0 SHR DUP1 PUSH3 0x7E8BD3 EQ PUSH2 0x5407 JUMPI DUP1 PUSH4 0x2927459 EQ PUSH2 0x53EA JUMPI DUP1 PUSH4 0x44A6DA1 EQ PUSH2 0x4DAE JUMPI DUP1 PUSH4 0x6FD154A EQ PUSH2 0x4D86 JUMPI DUP1 PUSH4 0x934DA22 EQ PUSH2 0x4BA5 JUMPI DUP1 PUSH4 0x114AEACC EQ PUSH2 0x4A10 JUMPI DUP1 PUSH4 0x1273C165 EQ PUSH2 0x47DD JUMPI DUP1 PUSH4 0x15F8A314 EQ PUSH2 0x474B JUMPI DUP1 PUSH4 0x17B52B50 EQ PUSH2 0x46E9 JUMPI DUP1 PUSH4 0x28D5A050 EQ PUSH2 0x425E JUMPI DUP1 PUSH4 0x30E97AE1 EQ PUSH2 0x4007 JUMPI DUP1 PUSH4 0x367EDD32 EQ PUSH2 0x3F9B JUMPI DUP1 PUSH4 0x39B3EDB0 EQ PUSH2 0x3EF8 JUMPI DUP1 PUSH4 0x3F3E8212 EQ PUSH2 0x3D63 JUMPI DUP1 PUSH4 0x4187129C EQ PUSH2 0x3CE1 JUMPI DUP1 PUSH4 0x41B3A0D9 EQ PUSH2 0x3CBC JUMPI DUP1 PUSH4 0x47E7EF24 EQ PUSH2 0x3AF9 JUMPI DUP1 PUSH4 0x4DFF0036 EQ PUSH2 0x3964 JUMPI DUP1 PUSH4 0x5040125B EQ PUSH2 0x37DA JUMPI DUP1 PUSH4 0x51A6FAD5 EQ PUSH2 0x3650 JUMPI DUP1 PUSH4 0x51B7D535 EQ PUSH2 0x3334 JUMPI DUP1 PUSH4 0x53A78000 EQ PUSH2 0x32D0 JUMPI DUP1 PUSH4 0x619C457E EQ PUSH2 0x32B6 JUMPI DUP1 PUSH4 0x63ADB66F EQ PUSH2 0x2F11 JUMPI DUP1 PUSH4 0x706B14F5 EQ PUSH2 0x28B0 JUMPI DUP1 PUSH4 0x70A08231 EQ PUSH2 0x286F JUMPI DUP1 PUSH4 0x715018A6 EQ PUSH2 0x2828 JUMPI DUP1 PUSH4 0x7165E542 EQ PUSH2 0x267F JUMPI DUP1 PUSH4 0x71AE8BCD EQ PUSH2 0x2665 JUMPI DUP1 PUSH4 0x80CCB070 EQ PUSH2 0x25AB JUMPI DUP1 PUSH4 0x81CD872A EQ PUSH2 0x2480 JUMPI DUP1 PUSH4 0x894BA833 EQ PUSH2 0x241B JUMPI DUP1 PUSH4 0x899A3FFD EQ PUSH2 0x23FD JUMPI DUP1 PUSH4 0x8DA5CB5B EQ PUSH2 0x23D6 JUMPI DUP1 PUSH4 0x8DEEA5FB EQ PUSH2 0x230A JUMPI DUP1 PUSH4 0x966D1F1D EQ PUSH2 0x22EC JUMPI DUP1 PUSH4 0x9974F376 EQ PUSH2 0x22CE JUMPI DUP1 PUSH4 0xA4F60B16 EQ PUSH2 0x2139 JUMPI DUP1 PUSH4 0xA7170106 EQ PUSH2 0x1E7C JUMPI DUP1 PUSH4 0xB4A99CCB EQ PUSH2 0x1DC8 JUMPI DUP1 PUSH4 0xB7DC14FE EQ PUSH2 0x1B6E JUMPI DUP1 PUSH4 0xBA343F6D EQ PUSH2 0x1AA9 JUMPI DUP1 PUSH4 0xBB06C1A4 EQ PUSH2 0x17AE JUMPI DUP1 PUSH4 0xBEABACC8 EQ PUSH2 0x16D3 JUMPI DUP1 PUSH4 0xC15A25BF EQ PUSH2 0x1653 JUMPI DUP1 PUSH4 0xC23F001F EQ PUSH2 0x924 JUMPI DUP1 PUSH4 0xC99B8965 EQ PUSH2 0x153E JUMPI DUP1 PUSH4 0xCFAAF235 EQ PUSH2 0x13E8 JUMPI DUP1 PUSH4 0xCFADF6C7 EQ PUSH2 0xEE0 JUMPI DUP1 PUSH4 0xD747B811 EQ PUSH2 0xD56 JUMPI DUP1 PUSH4 0xE08560A4 EQ PUSH2 0xD38 JUMPI DUP1 PUSH4 0xEB457329 EQ PUSH2 0xC37 JUMPI DUP1 PUSH4 0xF2D5EC3D EQ PUSH2 0xA51 JUMPI DUP1 PUSH4 0xF2FDE38B EQ PUSH2 0x9DE JUMPI DUP1 PUSH4 0xF3FEF3A3 EQ PUSH2 0x977 JUMPI DUP1 PUSH4 0xF7888AEC EQ PUSH2 0x924 JUMPI DUP1 PUSH4 0xFAA86B4A EQ PUSH2 0x618 JUMPI PUSH4 0xFBB405DB EQ PUSH2 0x297 JUMPI PUSH0 DUP1 REVERT JUMPDEST PUSH2 0x2A0 CALLDATASIZE PUSH2 0x5750 JUMP JUMPDEST SWAP1 DUP1 DUP4 MSTORE PUSH1 0x4 PUSH1 0x20 MSTORE PUSH1 0x40 DUP4 KECCAK256 SWAP3 PUSH2 0x2C2 PUSH1 0x1 DUP1 PUSH1 0xA0 SHL SUB DUP6 SLOAD AND CALLER EQ PUSH2 0x5C04 JUMP JUMPDEST PUSH20 0x0 DUP1 EXTCODESIZE ISZERO PUSH2 0x614 JUMPI DUP2 PUSH1 0x40 MLOAD DUP1 SWAP3 PUSH4 0x252A867 PUSH1 0xE5 SHL DUP3 MSTORE DUP2 DUP1 PUSH2 0x2FD DUP11 PUSH1 0x4 DUP4 ADD PUSH2 0x5D5D JUMP JUMPDEST SUB SWAP2 GAS DELEGATECALL DUP1 ISZERO PUSH2 0x609 JUMPI SWAP1 DUP3 SWAP2 PUSH2 0x5F4 JUMPI JUMPDEST POP POP PUSH1 0x9 DUP5 ADD DUP1 SLOAD PUSH1 0x1 PUSH1 0x1 PUSH1 0xA0 SHL SUB AND SWAP2 DUP5 SWAP2 SWAP1 PUSH2 0x32E DUP5 CALLER PUSH2 0x64C9 JUMP JUMPDEST DUP4 DUP2 LT PUSH2 0x3BF JUMPI JUMPDEST POP POP SLOAD PUSH2 0x34D SWAP3 POP PUSH1 0x1 PUSH1 0x1 PUSH1 0xA0 SHL SUB AND CALLER PUSH2 0x64F2 JUMP JUMPDEST POP PUSH1 0x5 DUP4 ADD PUSH2 0x35D DUP4 DUP3 SLOAD PUSH2 0x5F4A JUMP JUMPDEST SWAP1 SSTORE DUP3 SLOAD PUSH1 0x1 DUP5 ADD SLOAD PUSH1 0x2 SWAP1 SWAP5 ADD SLOAD PUSH1 0x40 MLOAD PUSH1 0x1 PUSH1 0x1 PUSH1 0xA0 SHL SUB SWAP6 DUP7 AND SWAP6 SWAP3 DUP4 AND SWAP5 PUSH32 0x3C0DD30126238EAEBBB306E073222EECD03A091D41C39A4B2742759D406C8F55 SWAP4 SWAP2 SWAP3 DUP4 SWAP3 PUSH2 0x3B1 SWAP3 SWAP2 AND DUP4 PUSH2 0x64AE JUMP JUMPDEST SUB SWAP1 LOG4 PUSH1 0x20 PUSH1 0x40 MLOAD PUSH1 0x1 DUP2 MSTORE RETURN JUMPDEST PUSH2 0x3C9 SWAP2 SWAP4 PUSH2 0x5CC9 JUMP JUMPDEST SWAP3 PUSH2 0x3DA PUSH1 0xFF DUP5 SLOAD PUSH1 0xA0 SHR AND PUSH2 0x58E4 JUMP JUMPDEST PUSH2 0x3E5 DUP5 ISZERO ISZERO PUSH2 0x5EB1 JUMP JUMPDEST PUSH1 0x2 SLOAD SWAP3 PUSH1 0x40 MLOAD SWAP4 PUSH4 0x1C8F0847 PUSH1 0xE0 SHL DUP6 MSTORE DUP6 PUSH1 0x4 DUP7 ADD MSTORE PUSH1 0x24 DUP6 ADD MSTORE PUSH1 0x20 DUP5 PUSH1 0x44 DUP2 PUSH20 0x0 GAS DELEGATECALL SWAP4 DUP5 ISZERO PUSH2 0x5E7 JUMPI DUP2 SWAP5 PUSH2 0x5AF JUMPI JUMPDEST POP DUP2 PUSH2 0x4C0 JUMPI POP PUSH2 0x43E DUP4 DUP6 PUSH2 0x5F4A JUMP JUMPDEST CALLVALUE SUB PUSH2 0x496 JUMPI DUP4 DUP7 SWAP4 PUSH2 0x455 PUSH2 0x34D SWAP7 DUP5 CALLER PUSH2 0x6696 JUMP JUMPDEST POP PUSH1 0x3 SLOAD PUSH2 0x46F SWAP1 DUP3 SWAP1 DUP6 SWAP1 PUSH1 0x1 PUSH1 0x1 PUSH1 0xA0 SHL SUB AND PUSH2 0x6696 JUMP JUMPDEST POP JUMPDEST PUSH1 0x40 MLOAD SWAP2 DUP3 MSTORE PUSH1 0x20 DUP3 ADD MSTORE PUSH0 MLOAD PUSH1 0x20 PUSH2 0x68E5 PUSH0 CODECOPY PUSH0 MLOAD SWAP1 PUSH0 MSTORE PUSH1 0x40 CALLER SWAP3 LOG3 PUSH0 DUP1 PUSH2 0x336 JUMP JUMPDEST PUSH1 0x40 MLOAD PUSH3 0x461BCD PUSH1 0xE5 SHL DUP2 MSTORE PUSH1 0x20 PUSH1 0x4 DUP3 ADD MSTORE PUSH1 0x2 PUSH1 0x24 DUP3 ADD MSTORE PUSH2 0x10CD PUSH1 0xF2 SHL PUSH1 0x44 DUP3 ADD MSTORE PUSH1 0x64 SWAP1 REVERT JUMPDEST PUSH2 0x4CA DUP5 DUP7 PUSH2 0x5F4A JUMP JUMPDEST PUSH1 0x40 MLOAD SWAP1 PUSH4 0x23B872DD PUSH1 0xE0 SHL DUP3 MSTORE CALLER PUSH1 0x4 DUP4 ADD MSTORE ADDRESS PUSH1 0x24 DUP4 ADD MSTORE PUSH1 0x44 DUP3 ADD MSTORE PUSH1 0x20 DUP2 PUSH1 0x64 DUP2 DUP6 DUP8 GAS CALL SWAP2 DUP3 ISZERO PUSH2 0x5A3 JUMPI DUP1 SWAP3 PUSH2 0x563 JUMPI JUMPDEST POP POP ISZERO PUSH2 0x539 JUMPI DUP4 DUP7 SWAP4 PUSH2 0x519 PUSH2 0x34D SWAP7 DUP5 CALLER PUSH2 0x6696 JUMP JUMPDEST POP PUSH1 0x3 SLOAD PUSH2 0x533 SWAP1 DUP3 SWAP1 DUP6 SWAP1 PUSH1 0x1 PUSH1 0x1 PUSH1 0xA0 SHL SUB AND PUSH2 0x6696 JUMP JUMPDEST POP PUSH2 0x471 JUMP JUMPDEST PUSH1 0x40 MLOAD PUSH3 0x461BCD PUSH1 0xE5 SHL DUP2 MSTORE PUSH1 0x20 PUSH1 0x4 DUP3 ADD MSTORE PUSH1 0x2 PUSH1 0x24 DUP3 ADD MSTORE PUSH2 0x2A19 PUSH1 0xF1 SHL PUSH1 0x44 DUP3 ADD MSTORE PUSH1 0x64 SWAP1 REVERT JUMPDEST SWAP1 SWAP2 POP PUSH1 0x20 DUP3 RETURNDATASIZE PUSH1 0x20 GT PUSH2 0x59B JUMPI JUMPDEST DUP2 PUSH2 0x57F PUSH1 0x20 SWAP4 DUP4 PUSH2 0x59AC JUMP JUMPDEST DUP2 ADD SUB SLT PUSH2 0x598 JUMPI POP PUSH2 0x591 SWAP1 PUSH2 0x59E1 JUMP JUMPDEST PUSH0 DUP1 PUSH2 0x501 JUMP JUMPDEST DUP1 REVERT JUMPDEST RETURNDATASIZE SWAP2 POP PUSH2 0x572 JUMP JUMPDEST PUSH1 0x40 MLOAD SWAP1 RETURNDATASIZE SWAP1 DUP3 RETURNDATACOPY RETURNDATASIZE SWAP1 REVERT JUMPDEST SWAP1 SWAP4 POP PUSH1 0x20 DUP2 RETURNDATASIZE PUSH1 0x20 GT PUSH2 0x5DF JUMPI JUMPDEST DUP2 PUSH2 0x5CB PUSH1 0x20 SWAP4 DUP4 PUSH2 0x59AC JUMP JUMPDEST DUP2 ADD SUB SLT PUSH2 0x5DB JUMPI MLOAD SWAP3 PUSH0 PUSH2 0x42D JUMP JUMPDEST PUSH0 DUP1 REVERT JUMPDEST RETURNDATASIZE SWAP2 POP PUSH2 0x5BE JUMP JUMPDEST POP PUSH1 0x40 MLOAD SWAP1 RETURNDATASIZE SWAP1 DUP3 RETURNDATACOPY RETURNDATASIZE SWAP1 REVERT JUMPDEST DUP2 PUSH2 0x5FE SWAP2 PUSH2 0x59AC JUMP JUMPDEST PUSH2 0x598 JUMPI DUP1 PUSH0 PUSH2 0x30F JUMP JUMPDEST PUSH1 0x40 MLOAD RETURNDATASIZE DUP5 DUP3 RETURNDATACOPY RETURNDATASIZE SWAP1 REVERT JUMPDEST POP DUP1 REVERT JUMPDEST POP CALLVALUE PUSH2 0x598 JUMPI PUSH1 0x20 CALLDATASIZE PUSH1 0x3 NOT ADD SLT PUSH2 0x598 JUMPI PUSH1 0x4 CALLDATALOAD DUP1 DUP3 MSTORE PUSH1 0x4 PUSH1 0x20 MSTORE PUSH1 0x40 DUP3 KECCAK256 PUSH1 0x1 DUP2 ADD SWAP1 PUSH1 0x1 DUP1 PUSH1 0xA0 SHL SUB DUP3 SLOAD AND CALLER EQ DUP1 ISZERO PUSH2 0x90E JUMPI JUMPDEST PUSH2 0x65A SWAP1 PUSH2 0x5C04 JUMP JUMPDEST DUP4 PUSH20 0x0 DUP1 EXTCODESIZE ISZERO PUSH2 0x614 JUMPI DUP2 PUSH1 0x40 MLOAD DUP1 SWAP3 PUSH4 0x252A867 PUSH1 0xE5 SHL DUP3 MSTORE DUP2 DUP1 PUSH2 0x696 DUP9 PUSH1 0x4 DUP4 ADD PUSH2 0x5D5D JUMP JUMPDEST SUB SWAP2 GAS DELEGATECALL DUP1 ISZERO PUSH2 0x609 JUMPI PUSH2 0x8F5 JUMPI JUMPDEST POP POP PUSH1 0x5 DUP2 ADD SLOAD PUSH1 0x9 DUP3 ADD SLOAD PUSH1 0x6 DUP4 ADD SLOAD PUSH1 0xA DUP5 ADD SLOAD PUSH1 0x7 DUP6 ADD SLOAD PUSH1 0x8 DUP7 ADD SLOAD PUSH1 0x40 MLOAD PUSH4 0x1C8F0847 PUSH1 0xE0 SHL DUP2 MSTORE PUSH1 0x4 DUP2 ADD DUP8 SWAP1 MSTORE PUSH1 0x24 DUP2 ADD SWAP3 SWAP1 SWAP3 MSTORE PUSH1 0x1 PUSH1 0x1 PUSH1 0xA0 SHL SUB SWAP5 DUP6 AND SWAP8 SWAP6 SWAP7 SWAP2 SWAP6 SWAP5 PUSH20 0x0 SWAP4 AND SWAP1 PUSH1 0x20 DUP8 PUSH1 0x44 DUP2 DUP8 GAS DELEGATECALL SWAP7 DUP8 ISZERO PUSH2 0x8EA JUMPI DUP12 SWAP8 PUSH2 0x8B5 JUMPI JUMPDEST POP PUSH1 0x20 SWAP1 PUSH1 0x44 PUSH1 0x40 MLOAD DUP1 SWAP7 DUP2 SWAP4 PUSH4 0x1C8F0847 PUSH1 0xE0 SHL DUP4 MSTORE DUP10 PUSH1 0x4 DUP5 ADD MSTORE PUSH1 0x24 DUP4 ADD MSTORE GAS DELEGATECALL SWAP3 DUP4 ISZERO PUSH2 0x8AA JUMPI DUP10 SWAP11 SWAP10 SWAP9 SWAP10 SWAP4 PUSH2 0x86C JUMPI JUMPDEST POP DUP2 SLOAD DUP9 SWAP5 SWAP4 SWAP3 SWAP2 SWAP1 PUSH1 0x1 PUSH1 0x1 PUSH1 0xA0 SHL SUB AND DUP11 PUSH2 0x774 DUP10 DUP12 PUSH2 0x5CC9 JUMP JUMPDEST SWAP1 PUSH2 0x77E SWAP3 PUSH2 0x6696 JUMP JUMPDEST POP PUSH1 0x2 DUP3 ADD DUP1 SLOAD SWAP1 SWAP11 PUSH2 0x79C SWAP2 DUP10 SWAP2 SWAP1 PUSH1 0x1 PUSH1 0x1 PUSH1 0xA0 SHL SUB AND PUSH2 0x6696 JUMP JUMPDEST POP DUP6 SLOAD PUSH1 0x1 PUSH1 0x1 PUSH1 0xA0 SHL SUB AND DUP2 PUSH2 0x7B3 DUP7 DUP1 PUSH2 0x5CC9 JUMP JUMPDEST SWAP1 PUSH2 0x7BD SWAP3 PUSH2 0x6696 JUMP JUMPDEST POP DUP10 SLOAD PUSH2 0x7D4 SWAP2 DUP5 SWAP2 PUSH1 0x1 PUSH1 0x1 PUSH1 0xA0 SHL SUB AND PUSH2 0x6696 JUMP JUMPDEST POP SLOAD SWAP4 SLOAD SWAP8 SLOAD PUSH1 0x40 MLOAD PUSH1 0x1 PUSH1 0x1 PUSH1 0xA0 SHL SUB SWAP10 DUP11 AND SWAP11 SWAP6 DUP11 AND SWAP10 SWAP1 SWAP2 AND SWAP7 DUP11 SWAP7 DUP11 SWAP7 DUP9 SWAP4 DUP9 SWAP4 SWAP2 SWAP3 SWAP1 SWAP2 DUP3 SWAP2 PUSH2 0x80B SWAP2 CALLER DUP15 DUP6 PUSH2 0x5CD6 JUMP JUMPDEST SUB PUSH0 MLOAD PUSH1 0x20 PUSH2 0x6885 PUSH0 CODECOPY PUSH0 MLOAD SWAP1 PUSH0 MSTORE SWAP2 LOG4 PUSH1 0x40 MLOAD SWAP2 DUP3 SWAP2 PUSH2 0x82E SWAP2 CALLER DUP10 DUP6 PUSH2 0x5CD6 JUMP JUMPDEST SUB PUSH0 MLOAD PUSH1 0x20 PUSH2 0x6765 PUSH0 CODECOPY PUSH0 MLOAD SWAP1 PUSH0 MSTORE SWAP2 LOG4 PUSH1 0x40 MLOAD DUP1 SWAP2 CALLER PUSH2 0x84F SWAP2 DUP4 PUSH2 0x5D43 JUMP JUMPDEST SUB PUSH0 MLOAD PUSH1 0x20 PUSH2 0x6805 PUSH0 CODECOPY PUSH0 MLOAD SWAP1 PUSH0 MSTORE SWAP2 LOG4 PUSH1 0x40 MLOAD PUSH1 0x1 DUP2 MSTORE PUSH1 0x20 SWAP1 RETURN JUMPDEST SWAP4 SWAP3 POP SWAP1 SWAP7 POP PUSH1 0x20 DUP4 RETURNDATASIZE PUSH1 0x20 GT PUSH2 0x8A2 JUMPI JUMPDEST DUP2 PUSH2 0x88B PUSH1 0x20 SWAP4 DUP4 PUSH2 0x59AC JUMP JUMPDEST DUP2 ADD SUB SLT PUSH2 0x5DB JUMPI DUP9 SWAP7 DUP8 SWAP4 MLOAD SWAP3 SWAP4 SWAP2 SWAP1 SWAP2 PUSH2 0x757 JUMP JUMPDEST RETURNDATASIZE SWAP2 POP PUSH2 0x87E JUMP JUMPDEST PUSH1 0x40 MLOAD RETURNDATASIZE DUP13 DUP3 RETURNDATACOPY RETURNDATASIZE SWAP1 REVERT JUMPDEST SWAP1 SWAP7 POP PUSH1 0x20 DUP2 RETURNDATASIZE PUSH1 0x20 GT PUSH2 0x8E2 JUMPI JUMPDEST DUP2 PUSH2 0x8D1 PUSH1 0x20 SWAP4 DUP4 PUSH2 0x59AC JUMP JUMPDEST DUP2 ADD SUB SLT PUSH2 0x5DB JUMPI MLOAD SWAP6 PUSH1 0x20 PUSH2 0x721 JUMP JUMPDEST RETURNDATASIZE SWAP2 POP PUSH2 0x8C4 JUMP JUMPDEST PUSH1 0x40 MLOAD RETURNDATASIZE DUP14 DUP3 RETURNDATACOPY RETURNDATASIZE SWAP1 REVERT JUMPDEST DUP2 PUSH2 0x8FF SWAP2 PUSH2 0x59AC JUMP JUMPDEST PUSH2 0x90A JUMPI DUP4 PUSH0 PUSH2 0x6A5 JUMP JUMPDEST DUP4 DUP1 REVERT JUMPDEST POP PUSH1 0x2 DUP2 ADD SLOAD PUSH1 0x1 PUSH1 0x1 PUSH1 0xA0 SHL SUB AND CALLER EQ PUSH2 0x651 JUMP JUMPDEST POP CALLVALUE PUSH2 0x598 JUMPI PUSH1 0x40 CALLDATASIZE PUSH1 0x3 NOT ADD SLT PUSH2 0x598 JUMPI PUSH1 0x40 PUSH2 0x940 PUSH2 0x568A JUMP JUMPDEST SWAP2 PUSH2 0x949 PUSH2 0x5674 JUMP JUMPDEST SWAP3 PUSH1 0x1 DUP1 PUSH1 0xA0 SHL SUB AND DUP2 MSTORE PUSH1 0x1 PUSH1 0x20 MSTORE KECCAK256 SWAP1 PUSH1 0x1 DUP1 PUSH1 0xA0 SHL SUB AND PUSH0 MSTORE PUSH1 0x20 MSTORE PUSH1 0x20 PUSH1 0x40 PUSH0 KECCAK256 SLOAD PUSH1 0x40 MLOAD SWAP1 DUP2 MSTORE RETURN JUMPDEST POP CALLVALUE PUSH2 0x598 JUMPI PUSH1 0x40 CALLDATASIZE PUSH1 0x3 NOT ADD SLT PUSH2 0x598 JUMPI PUSH2 0x9D4 PUSH1 0x20 SWAP2 PUSH2 0x997 PUSH2 0x568A JUMP JUMPDEST PUSH1 0x40 PUSH1 0x24 CALLDATALOAD SWAP3 CALLER DUP2 MSTORE PUSH1 0x1 DUP7 MSTORE KECCAK256 PUSH1 0x1 DUP1 PUSH1 0xA0 SHL SUB DUP3 AND PUSH0 MSTORE DUP5 MSTORE PUSH2 0x9C2 DUP3 PUSH1 0x40 PUSH0 KECCAK256 SLOAD LT ISZERO PUSH2 0x5915 JUMP JUMPDEST PUSH2 0x9CD DUP3 DUP3 CALLER PUSH2 0x64F2 JUMP JUMPDEST POP CALLER PUSH2 0x6586 JUMP JUMPDEST PUSH1 0x40 MLOAD SWAP1 ISZERO ISZERO DUP2 MSTORE RETURN JUMPDEST POP CALLVALUE PUSH2 0x598 JUMPI PUSH1 0x20 CALLDATASIZE PUSH1 0x3 NOT ADD SLT PUSH2 0x598 JUMPI PUSH2 0x9F8 PUSH2 0x568A JUMP JUMPDEST PUSH2 0xA00 PUSH2 0x66DE JUMP JUMPDEST PUSH1 0x1 PUSH1 0x1 PUSH1 0xA0 SHL SUB AND DUP1 ISZERO PUSH2 0xA3D JUMPI DUP2 SLOAD PUSH1 0x1 PUSH1 0x1 PUSH1 0xA0 SHL SUB NOT DUP2 AND DUP3 OR DUP4 SSTORE PUSH1 0x1 PUSH1 0x1 PUSH1 0xA0 SHL SUB AND PUSH0 MLOAD PUSH1 0x20 PUSH2 0x6825 PUSH0 CODECOPY PUSH0 MLOAD SWAP1 PUSH0 MSTORE DUP4 DUP1 LOG3 DUP1 RETURN JUMPDEST PUSH4 0x1E4FBDF7 PUSH1 0xE0 SHL DUP3 MSTORE PUSH1 0x4 DUP3 SWAP1 MSTORE PUSH1 0x24 DUP3 REVERT JUMPDEST POP CALLVALUE PUSH2 0x598 JUMPI PUSH2 0xA60 CALLDATASIZE PUSH2 0x5750 JUMP JUMPDEST SWAP1 DUP1 DUP4 MSTORE PUSH1 0x4 PUSH1 0x20 MSTORE PUSH1 0x40 DUP4 KECCAK256 SWAP3 PUSH1 0x1 DUP5 ADD SWAP3 PUSH1 0x1 DUP1 PUSH1 0xA0 SHL SUB DUP5 SLOAD AND CALLER EQ DUP1 ISZERO PUSH2 0xC21 JUMPI JUMPDEST PUSH2 0xA8F SWAP1 PUSH2 0x5C04 JUMP JUMPDEST PUSH20 0x0 DUP1 EXTCODESIZE ISZERO PUSH2 0xC1D JUMPI DUP3 PUSH1 0x40 MLOAD DUP1 SWAP3 PUSH4 0x252A867 PUSH1 0xE5 SHL DUP3 MSTORE DUP2 DUP1 PUSH2 0xACA DUP12 PUSH1 0x4 DUP4 ADD PUSH2 0x5D5D JUMP JUMPDEST SUB SWAP2 GAS DELEGATECALL DUP1 ISZERO PUSH2 0xC12 JUMPI SWAP1 DUP4 SWAP2 PUSH2 0xBFD JUMPI JUMPDEST POP POP PUSH1 0x5 DUP6 ADD PUSH2 0xAF8 DUP3 DUP3 SLOAD PUSH2 0xAF3 DUP3 DUP3 LT PUSH2 0x5915 JUMP JUMPDEST PUSH2 0x5CC9 JUMP JUMPDEST SWAP1 SSTORE PUSH1 0x1 DUP1 PUSH1 0xA0 SHL SUB PUSH1 0x9 DUP7 ADD SLOAD AND SWAP5 PUSH1 0x7 DUP2 ADD SLOAD PUSH1 0x40 MLOAD SWAP1 PUSH4 0x1C8F0847 PUSH1 0xE0 SHL DUP3 MSTORE DUP4 PUSH1 0x4 DUP4 ADD MSTORE PUSH1 0x24 DUP3 ADD MSTORE PUSH1 0x20 DUP2 PUSH1 0x44 DUP2 PUSH20 0x0 GAS DELEGATECALL SWAP4 DUP5 ISZERO PUSH2 0x5A3 JUMPI SWAP4 PUSH2 0xBC7 JUMPI JUMPDEST POP DUP1 SLOAD PUSH0 MLOAD PUSH1 0x20 PUSH2 0x6885 PUSH0 CODECOPY PUSH0 MLOAD SWAP1 PUSH0 MSTORE SWAP4 SWAP2 PUSH2 0x3B1 SWAP2 PUSH2 0xB85 SWAP1 PUSH1 0x1 PUSH1 0x1 PUSH1 0xA0 SHL SUB AND DUP10 PUSH2 0xB7F DUP7 DUP9 PUSH2 0x5CC9 JUMP JUMPDEST SWAP2 PUSH2 0x6586 JUMP JUMPDEST POP PUSH2 0xB9E DUP4 PUSH1 0x2 DUP4 ADD SWAP10 PUSH1 0x1 DUP1 PUSH1 0xA0 SHL SUB DUP12 SLOAD AND PUSH2 0x6586 JUMP JUMPDEST POP SLOAD SWAP6 SLOAD SWAP7 SLOAD PUSH1 0x40 MLOAD PUSH1 0x1 PUSH1 0x1 PUSH1 0xA0 SHL SUB SWAP9 DUP10 AND SWAP9 SWAP8 DUP9 AND SWAP8 SWAP1 SWAP5 DUP6 SWAP5 SWAP3 SWAP1 SWAP2 CALLER SWAP2 AND DUP6 PUSH2 0x5CD6 JUMP JUMPDEST SWAP3 POP PUSH1 0x20 DUP4 RETURNDATASIZE PUSH1 0x20 GT PUSH2 0xBF5 JUMPI JUMPDEST DUP2 PUSH2 0xBE2 PUSH1 0x20 SWAP4 DUP4 PUSH2 0x59AC JUMP JUMPDEST DUP2 ADD SUB SLT PUSH2 0x5DB JUMPI SWAP2 MLOAD SWAP2 PUSH2 0x3B1 PUSH2 0xB50 JUMP JUMPDEST RETURNDATASIZE SWAP2 POP PUSH2 0xBD5 JUMP JUMPDEST DUP2 PUSH2 0xC07 SWAP2 PUSH2 0x59AC JUMP JUMPDEST PUSH2 0x614 JUMPI DUP2 PUSH0 PUSH2 0xADC JUMP JUMPDEST PUSH1 0x40 MLOAD RETURNDATASIZE DUP6 DUP3 RETURNDATACOPY RETURNDATASIZE SWAP1 REVERT JUMPDEST DUP3 DUP1 REVERT JUMPDEST POP PUSH1 0x2 DUP6 ADD SLOAD PUSH1 0x1 PUSH1 0x1 PUSH1 0xA0 SHL SUB AND CALLER EQ PUSH2 0xA86 JUMP JUMPDEST POP CALLVALUE PUSH2 0x598 JUMPI PUSH1 0x20 CALLDATASIZE PUSH1 0x3 NOT ADD SLT PUSH2 0x598 JUMPI PUSH1 0x40 DUP2 PUSH1 0xE0 SWAP3 PUSH1 0xC0 DUP4 MLOAD PUSH2 0xC5C DUP2 PUSH2 0x5946 JUMP JUMPDEST DUP3 DUP2 MSTORE DUP3 PUSH1 0x20 DUP3 ADD MSTORE DUP3 DUP6 DUP3 ADD MSTORE DUP3 PUSH1 0x60 DUP3 ADD MSTORE DUP3 PUSH1 0x80 DUP3 ADD MSTORE DUP3 PUSH1 0xA0 DUP3 ADD MSTORE ADD MSTORE PUSH1 0x4 CALLDATALOAD DUP2 MSTORE PUSH1 0x9 PUSH1 0x20 MSTORE KECCAK256 PUSH1 0x40 MLOAD SWAP1 PUSH2 0xC96 DUP3 PUSH2 0x5946 JUMP JUMPDEST DUP1 SLOAD DUP3 MSTORE PUSH1 0x2 PUSH1 0x1 DUP3 ADD SLOAD SWAP2 PUSH1 0x20 DUP5 ADD SWAP3 DUP4 MSTORE ADD SLOAD SWAP1 PUSH1 0x40 DUP4 ADD PUSH2 0xCBD PUSH1 0xFF DUP5 AND DUP3 PUSH2 0x5E74 JUMP JUMPDEST PUSH1 0x60 DUP5 ADD PUSH1 0xFF DUP5 PUSH1 0x8 SHR AND ISZERO ISZERO DUP2 MSTORE PUSH2 0xD16 PUSH1 0x80 DUP7 ADD SWAP3 PUSH1 0xFF DUP7 PUSH1 0x10 SHR AND ISZERO ISZERO DUP5 MSTORE PUSH1 0xA0 DUP8 ADD SWAP5 PUSH1 0xFF DUP8 PUSH1 0x18 SHR AND ISZERO ISZERO DUP7 MSTORE PUSH1 0xFF PUSH1 0xC0 DUP10 ADD SWAP8 PUSH1 0x20 SHR AND ISZERO ISZERO DUP8 MSTORE PUSH1 0x40 MLOAD SWAP8 MLOAD DUP9 MSTORE MLOAD PUSH1 0x20 DUP9 ADD MSTORE MLOAD PUSH1 0x40 DUP8 ADD SWAP1 PUSH2 0x57C9 JUMP JUMPDEST MLOAD ISZERO ISZERO PUSH1 0x60 DUP6 ADD MSTORE MLOAD ISZERO ISZERO PUSH1 0x80 DUP5 ADD MSTORE MLOAD ISZERO ISZERO PUSH1 0xA0 DUP4 ADD MSTORE MLOAD ISZERO ISZERO PUSH1 0xC0 DUP3 ADD MSTORE RETURN JUMPDEST POP CALLVALUE PUSH2 0x598 JUMPI DUP1 PUSH1 0x3 NOT CALLDATASIZE ADD SLT PUSH2 0x598 JUMPI PUSH1 0x20 PUSH1 0x6 SLOAD PUSH1 0x40 MLOAD SWAP1 DUP2 MSTORE RETURN JUMPDEST POP CALLVALUE PUSH2 0x598 JUMPI PUSH2 0xD65 CALLDATASIZE PUSH2 0x5750 JUMP JUMPDEST SWAP1 DUP1 DUP4 MSTORE PUSH1 0x4 PUSH1 0x20 MSTORE PUSH1 0x40 DUP4 KECCAK256 SWAP3 PUSH1 0x1 DUP5 ADD SWAP3 PUSH1 0x1 DUP1 PUSH1 0xA0 SHL SUB DUP5 SLOAD AND CALLER EQ DUP1 ISZERO PUSH2 0xECA JUMPI JUMPDEST PUSH2 0xD94 SWAP1 PUSH2 0x5C04 JUMP JUMPDEST PUSH20 0x0 DUP1 EXTCODESIZE ISZERO PUSH2 0xC1D JUMPI DUP3 PUSH1 0x40 MLOAD DUP1 SWAP3 PUSH4 0x252A867 PUSH1 0xE5 SHL DUP3 MSTORE DUP2 DUP1 PUSH2 0xDCF DUP12 PUSH1 0x4 DUP4 ADD PUSH2 0x5D5D JUMP JUMPDEST SUB SWAP2 GAS DELEGATECALL DUP1 ISZERO PUSH2 0xC12 JUMPI SWAP1 DUP4 SWAP2 PUSH2 0xEB5 JUMPI JUMPDEST POP POP PUSH1 0x6 DUP6 ADD PUSH2 0xDF8 DUP3 DUP3 SLOAD PUSH2 0xAF3 DUP3 DUP3 LT PUSH2 0x5915 JUMP JUMPDEST SWAP1 SSTORE PUSH1 0x1 DUP1 PUSH1 0xA0 SHL SUB PUSH1 0xA DUP7 ADD SLOAD AND SWAP5 PUSH1 0x8 DUP2 ADD SLOAD PUSH1 0x40 MLOAD SWAP1 PUSH4 0x1C8F0847 PUSH1 0xE0 SHL DUP3 MSTORE DUP4 PUSH1 0x4 DUP4 ADD MSTORE PUSH1 0x24 DUP3 ADD MSTORE PUSH1 0x20 DUP2 PUSH1 0x44 DUP2 PUSH20 0x0 GAS DELEGATECALL SWAP4 DUP5 ISZERO PUSH2 0x5A3 JUMPI SWAP4 PUSH2 0xE7F JUMPI JUMPDEST POP DUP1 SLOAD PUSH0 MLOAD PUSH1 0x20 PUSH2 0x6725 PUSH0 CODECOPY PUSH0 MLOAD SWAP1 PUSH0 MSTORE SWAP4 SWAP2 PUSH2 0x3B1 SWAP2 PUSH2 0xB85 SWAP1 PUSH1 0x1 PUSH1 0x1 PUSH1 0xA0 SHL SUB AND DUP10 PUSH2 0xB7F DUP7 DUP9 PUSH2 0x5CC9 JUMP JUMPDEST SWAP3 POP PUSH1 0x20 DUP4 RETURNDATASIZE PUSH1 0x20 GT PUSH2 0xEAD JUMPI JUMPDEST DUP2 PUSH2 0xE9A PUSH1 0x20 SWAP4 DUP4 PUSH2 0x59AC JUMP JUMPDEST DUP2 ADD SUB SLT PUSH2 0x5DB JUMPI SWAP2 MLOAD SWAP2 PUSH2 0x3B1 PUSH2 0xE50 JUMP JUMPDEST RETURNDATASIZE SWAP2 POP PUSH2 0xE8D JUMP JUMPDEST DUP2 PUSH2 0xEBF SWAP2 PUSH2 0x59AC JUMP JUMPDEST PUSH2 0x614 JUMPI DUP2 PUSH0 PUSH2 0xDE1 JUMP JUMPDEST POP PUSH1 0x2 DUP6 ADD SLOAD PUSH1 0x1 PUSH1 0x1 PUSH1 0xA0 SHL SUB AND CALLER EQ PUSH2 0xD8B JUMP JUMPDEST POP PUSH2 0xEEA CALLDATASIZE PUSH2 0x56A0 JUMP JUMPDEST SWAP2 SWAP1 SWAP5 SWAP3 DUP9 SWAP5 DUP11 SWAP9 SWAP8 SWAP11 SWAP5 DUP13 PUSH1 0x40 PUSH1 0xFF DUP3 SLOAD PUSH1 0xA0 SHR AND SWAP2 PUSH2 0xF0A DUP4 PUSH2 0x58E4 JUMP JUMPDEST CALLER DUP2 MSTORE PUSH1 0x1 PUSH1 0x20 MSTORE KECCAK256 PUSH1 0x1 DUP1 PUSH1 0xA0 SHL SUB DUP6 AND PUSH0 MSTORE PUSH1 0x20 MSTORE PUSH1 0x40 PUSH0 KECCAK256 SLOAD DUP11 DUP2 LT PUSH2 0x11FC JUMPI JUMPDEST POP POP SWAP2 PUSH2 0xF7B SWAP5 SWAP4 SWAP2 PUSH2 0x220 SWAP9 SWAP4 PUSH2 0xF47 DUP12 DUP5 CALLER PUSH2 0x64F2 JUMP JUMPDEST POP PUSH1 0x40 MLOAD PUSH4 0x652E83D7 PUSH1 0xE0 SHL DUP2 MSTORE PUSH20 0x0 SWAP15 SWAP1 SWAP12 DUP13 SWAP11 DUP12 SWAP11 CALLER PUSH1 0x4 DUP14 ADD PUSH2 0x5B07 JUMP JUMPDEST SUB DUP2 DUP8 GAS DELEGATECALL SWAP1 DUP2 ISZERO PUSH2 0x11C2 JUMPI DUP6 SWAP2 PUSH2 0x11CD JUMPI JUMPDEST POP PUSH1 0x20 PUSH1 0x5 SLOAD PUSH2 0x244 PUSH1 0x40 MLOAD DUP1 SWAP8 DUP2 SWAP4 PUSH4 0x797D4EE1 PUSH1 0xE0 SHL DUP4 MSTORE PUSH2 0xFB5 PUSH1 0x4 DUP5 ADD DUP9 PUSH2 0x57D6 JUMP JUMPDEST PUSH2 0x224 DUP4 ADD MSTORE GAS DELEGATECALL SWAP4 DUP5 ISZERO PUSH2 0x11C2 JUMPI DUP6 SWAP5 PUSH2 0x118E JUMPI JUMPDEST POP PUSH2 0xFD7 PUSH1 0x5 SLOAD PUSH2 0x5B73 JUMP JUMPDEST PUSH1 0x5 SSTORE DUP4 DUP6 MSTORE PUSH1 0x4 PUSH1 0x20 SWAP1 DUP2 MSTORE PUSH1 0x40 DUP1 DUP8 KECCAK256 DUP4 MLOAD DUP2 SLOAD PUSH1 0x1 PUSH1 0x1 PUSH1 0xA0 SHL SUB NOT SWAP1 DUP2 AND PUSH1 0x1 PUSH1 0x1 PUSH1 0xA0 SHL SUB SWAP3 DUP4 AND OR DUP4 SSTORE SWAP4 DUP6 ADD MLOAD PUSH1 0x1 DUP4 ADD DUP1 SLOAD DUP7 AND SWAP2 DUP4 AND SWAP2 SWAP1 SWAP2 OR SWAP1 SSTORE SWAP2 DUP5 ADD MLOAD PUSH1 0x2 DUP3 ADD DUP1 SLOAD SWAP1 SWAP5 AND SWAP3 AND SWAP2 SWAP1 SWAP2 OR DUP3 SSTORE PUSH1 0x60 DUP4 ADD MLOAD SWAP1 SWAP3 PUSH2 0x200 SWAP3 SWAP1 SWAP2 PUSH2 0x108E SWAP2 SWAP1 PUSH2 0x104F SWAP1 ISZERO ISZERO DUP3 PUSH2 0x5B95 JUMP JUMPDEST PUSH2 0x105F PUSH1 0x80 DUP5 ADD MLOAD ISZERO ISZERO DUP3 PUSH2 0x5BB2 JUMP JUMPDEST PUSH2 0x106F PUSH1 0xA0 DUP5 ADD MLOAD ISZERO ISZERO DUP3 PUSH2 0x5BCF JUMP JUMPDEST PUSH1 0xC0 DUP4 ADD MLOAD DUP2 SLOAD PUSH1 0xFF PUSH1 0xB8 SHL NOT AND SWAP1 ISZERO ISZERO PUSH1 0xB8 SHL PUSH1 0xFF PUSH1 0xB8 SHL AND OR SWAP1 SSTORE JUMP JUMPDEST PUSH1 0xE0 DUP2 ADD MLOAD PUSH1 0x3 DUP5 ADD SSTORE PUSH2 0x100 DUP2 ADD MLOAD PUSH1 0x4 DUP5 ADD SSTORE PUSH2 0x120 DUP2 ADD MLOAD PUSH1 0x5 DUP5 ADD SSTORE PUSH2 0x140 DUP2 ADD MLOAD PUSH1 0x6 DUP1 DUP6 ADD SWAP2 SWAP1 SWAP2 SSTORE PUSH2 0x160 DUP3 ADD MLOAD PUSH1 0x7 DUP6 ADD SSTORE PUSH2 0x180 DUP3 ADD MLOAD PUSH1 0x8 DUP6 ADD SSTORE PUSH2 0x1A0 DUP3 ADD MLOAD PUSH1 0x9 DUP6 ADD DUP1 SLOAD PUSH1 0x1 PUSH1 0x1 PUSH1 0xA0 SHL SUB SWAP3 DUP4 AND PUSH1 0x1 PUSH1 0x1 PUSH1 0xA0 SHL SUB NOT SWAP2 DUP3 AND OR SWAP1 SWAP2 SSTORE PUSH2 0x1C0 DUP5 ADD MLOAD PUSH1 0xA DUP8 ADD DUP1 SLOAD SWAP2 SWAP1 SWAP4 AND SWAP2 AND OR SWAP1 SSTORE PUSH2 0x1E0 DUP3 ADD MLOAD PUSH1 0xB DUP6 ADD SSTORE SWAP2 ADD MLOAD SWAP6 SWAP1 DUP7 LT ISZERO PUSH2 0x117A JUMPI POP PUSH1 0x20 SWAP5 PUSH1 0xC PUSH2 0x1136 SWAP3 ADD PUSH2 0x5BEC JUMP JUMPDEST PUSH1 0x40 MLOAD PUSH1 0x1 PUSH1 0x1 PUSH1 0xA0 SHL SUB SWAP3 DUP4 AND DUP2 MSTORE SWAP2 AND SWAP1 CALLER SWAP1 DUP4 SWAP1 PUSH32 0x44E1FF8E67FAD6B456BD43FF165BA4E9BB004370AA27A76881C6ACB60DFD6DD9 SWAP1 DUP7 SWAP1 LOG4 PUSH1 0x40 MLOAD SWAP1 DUP2 MSTORE RETURN JUMPDEST PUSH4 0x4E487B71 PUSH1 0xE0 SHL DUP2 MSTORE PUSH1 0x21 PUSH1 0x4 MSTORE PUSH1 0x24 SWAP1 REVERT JUMPDEST SWAP1 SWAP4 POP PUSH1 0x20 DUP2 RETURNDATASIZE PUSH1 0x20 GT PUSH2 0x11BA JUMPI JUMPDEST DUP2 PUSH2 0x11AA PUSH1 0x20 SWAP4 DUP4 PUSH2 0x59AC JUMP JUMPDEST DUP2 ADD SUB SLT PUSH2 0x5DB JUMPI MLOAD SWAP3 PUSH0 PUSH2 0xFCB JUMP JUMPDEST RETURNDATASIZE SWAP2 POP PUSH2 0x119D JUMP JUMPDEST PUSH1 0x40 MLOAD RETURNDATASIZE DUP8 DUP3 RETURNDATACOPY RETURNDATASIZE SWAP1 REVERT JUMPDEST PUSH2 0x11EF SWAP2 POP PUSH2 0x220 RETURNDATASIZE DUP2 GT PUSH2 0x11F5 JUMPI JUMPDEST PUSH2 0x11E7 DUP2 DUP4 PUSH2 0x59AC JUMP JUMPDEST DUP2 ADD SWAP1 PUSH2 0x59EE JUMP JUMPDEST PUSH0 PUSH2 0xF8E JUMP JUMPDEST POP RETURNDATASIZE PUSH2 0x11DD JUMP JUMPDEST PUSH2 0x1219 SWAP3 SWAP10 SWAP5 SWAP7 SWAP6 SWAP4 SWAP9 POP PUSH2 0x1213 SWAP2 SWAP8 POP DUP11 PUSH2 0x5CC9 JUMP JUMPDEST SWAP6 PUSH2 0x58E4 JUMP JUMPDEST PUSH2 0x1224 DUP6 ISZERO ISZERO PUSH2 0x5EB1 JUMP JUMPDEST PUSH1 0x2 SLOAD SWAP4 PUSH1 0x40 MLOAD SWAP5 PUSH4 0x1C8F0847 PUSH1 0xE0 SHL DUP7 MSTORE DUP7 PUSH1 0x4 DUP8 ADD MSTORE PUSH1 0x24 DUP7 ADD MSTORE PUSH1 0x20 DUP6 PUSH1 0x44 DUP2 PUSH20 0x0 GAS DELEGATECALL SWAP5 DUP6 ISZERO PUSH2 0x13DD JUMPI DUP14 SWAP6 PUSH2 0x13A9 JUMPI JUMPDEST POP PUSH1 0x1 PUSH1 0x1 PUSH1 0xA0 SHL SUB DUP2 AND SWAP7 DUP8 PUSH2 0x12EB JUMPI PUSH2 0x1287 DUP7 DUP9 PUSH2 0x5F4A JUMP JUMPDEST CALLVALUE SUB PUSH2 0x496 JUMPI PUSH2 0x220 SWAP9 DUP13 SWAP9 DUP9 PUSH2 0xF7B SWAP9 PUSH2 0x12A4 DUP16 SWAP12 DUP8 CALLER PUSH2 0x6696 JUMP JUMPDEST POP PUSH1 0x3 SLOAD PUSH2 0x12BE SWAP1 DUP3 SWAP1 DUP9 SWAP1 PUSH1 0x1 PUSH1 0x1 PUSH1 0xA0 SHL SUB AND PUSH2 0x6696 JUMP JUMPDEST POP JUMPDEST PUSH1 0x40 MLOAD SWAP2 DUP3 MSTORE PUSH1 0x20 DUP3 ADD MSTORE PUSH0 MLOAD PUSH1 0x20 PUSH2 0x68E5 PUSH0 CODECOPY PUSH0 MLOAD SWAP1 PUSH0 MSTORE PUSH1 0x40 CALLER SWAP3 LOG3 SWAP2 SWAP4 SWAP9 DUP2 SWAP4 SWAP6 SWAP7 POP PUSH2 0xF2E JUMP JUMPDEST DUP14 DUP1 PUSH1 0x20 DUP11 PUSH1 0x64 PUSH2 0x12FC DUP12 DUP14 PUSH2 0x5F4A JUMP JUMPDEST PUSH1 0x40 MLOAD SWAP5 DUP6 SWAP4 DUP5 SWAP3 PUSH4 0x23B872DD PUSH1 0xE0 SHL DUP5 MSTORE CALLER PUSH1 0x4 DUP6 ADD MSTORE ADDRESS PUSH1 0x24 DUP6 ADD MSTORE PUSH1 0x44 DUP5 ADD MSTORE GAS CALL SWAP2 DUP3 ISZERO PUSH2 0x5A3 JUMPI SWAP2 PUSH2 0x136B JUMPI JUMPDEST POP ISZERO PUSH2 0x539 JUMPI PUSH2 0x220 SWAP9 DUP13 SWAP9 DUP9 PUSH2 0xF7B SWAP9 PUSH2 0x134B DUP16 SWAP12 DUP8 CALLER PUSH2 0x6696 JUMP JUMPDEST POP PUSH1 0x3 SLOAD PUSH2 0x1365 SWAP1 DUP3 SWAP1 DUP9 SWAP1 PUSH1 0x1 PUSH1 0x1 PUSH1 0xA0 SHL SUB AND PUSH2 0x6696 JUMP JUMPDEST POP PUSH2 0x12C0 JUMP JUMPDEST SWAP1 POP PUSH1 0x20 DUP2 RETURNDATASIZE PUSH1 0x20 GT PUSH2 0x13A1 JUMPI JUMPDEST DUP2 PUSH2 0x1386 PUSH1 0x20 SWAP4 DUP4 PUSH2 0x59AC JUMP JUMPDEST DUP2 ADD SUB SLT PUSH2 0x139D JUMPI PUSH2 0x1397 SWAP1 PUSH2 0x59E1 JUMP JUMPDEST PUSH0 PUSH2 0x132E JUMP JUMPDEST DUP15 DUP1 REVERT JUMPDEST RETURNDATASIZE SWAP2 POP PUSH2 0x1379 JUMP JUMPDEST SWAP1 SWAP5 POP PUSH1 0x20 DUP2 RETURNDATASIZE PUSH1 0x20 GT PUSH2 0x13D5 JUMPI JUMPDEST DUP2 PUSH2 0x13C5 PUSH1 0x20 SWAP4 DUP4 PUSH2 0x59AC JUMP JUMPDEST DUP2 ADD SUB SLT PUSH2 0x5DB JUMPI MLOAD SWAP4 PUSH0 PUSH2 0x126C JUMP JUMPDEST RETURNDATASIZE SWAP2 POP PUSH2 0x13B8 JUMP JUMPDEST PUSH1 0x40 MLOAD RETURNDATASIZE DUP16 DUP3 RETURNDATACOPY RETURNDATASIZE SWAP1 REVERT JUMPDEST POP CALLVALUE PUSH2 0x598 JUMPI PUSH1 0x40 CALLDATASIZE PUSH1 0x3 NOT ADD SLT PUSH2 0x598 JUMPI PUSH1 0x20 SWAP1 PUSH1 0x4 CALLDATALOAD PUSH2 0x1408 PUSH2 0x5674 JUMP JUMPDEST SWAP1 DUP1 DUP4 MSTORE PUSH1 0x4 DUP5 MSTORE PUSH2 0x145C PUSH1 0x40 DUP5 KECCAK256 SWAP3 PUSH1 0x1 DUP1 PUSH1 0xA0 SHL SUB DUP5 SLOAD AND CALLER EQ DUP1 ISZERO PUSH2 0x1528 JUMPI JUMPDEST PUSH2 0x1434 SWAP1 PUSH2 0x5C04 JUMP JUMPDEST PUSH1 0x1 PUSH1 0x1 PUSH1 0xA0 SHL SUB AND SWAP3 PUSH2 0x1449 DUP5 ISZERO ISZERO PUSH2 0x5E80 JUMP JUMPDEST PUSH1 0x2 ADD SLOAD PUSH1 0x1 PUSH1 0x1 PUSH1 0xA0 SHL SUB AND ISZERO PUSH2 0x5FBB JUMP JUMPDEST PUSH2 0x14E8 PUSH1 0x40 MLOAD PUSH2 0x146B DUP2 PUSH2 0x5991 JUMP JUMPDEST DUP3 DUP2 MSTORE DUP6 DUP2 ADD DUP5 DUP2 MSTORE PUSH1 0x40 DUP1 DUP4 ADD DUP8 DUP2 MSTORE PUSH1 0x60 DUP5 ADD DUP9 DUP2 MSTORE PUSH1 0x80 DUP6 ADD DUP10 DUP2 MSTORE PUSH1 0x8 SLOAD DUP1 DUP12 MSTORE PUSH1 0xA DUP13 MSTORE SWAP4 SWAP1 SWAP10 KECCAK256 SWAP5 MLOAD DUP6 SSTORE SWAP3 MLOAD PUSH1 0x1 SWAP5 SWAP1 SWAP5 ADD DUP1 SLOAD PUSH1 0x1 PUSH1 0x1 PUSH1 0xA0 SHL SUB NOT AND PUSH1 0x1 PUSH1 0x1 PUSH1 0xA0 SHL SUB SWAP6 SWAP1 SWAP6 AND SWAP5 SWAP1 SWAP5 OR DUP5 SSTORE MLOAD SWAP1 SWAP7 SWAP2 PUSH2 0x14DF SWAP2 PUSH2 0x14D6 SWAP1 ISZERO ISZERO DUP6 PUSH2 0x5B95 JUMP JUMPDEST MLOAD ISZERO ISZERO DUP4 PUSH2 0x5BB2 JUMP JUMPDEST MLOAD ISZERO ISZERO SWAP1 PUSH2 0x5BCF JUMP JUMPDEST PUSH2 0x14F3 PUSH1 0x8 SLOAD PUSH2 0x5B73 JUMP JUMPDEST PUSH1 0x8 SSTORE DUP3 PUSH32 0x3E168088DA33D5AB18321345A864B58812F451C892EE951F8F70B5BEAD045B69 DUP6 PUSH1 0x40 MLOAD CALLER DUP2 MSTORE LOG4 PUSH1 0x40 MLOAD SWAP1 DUP2 MSTORE RETURN JUMPDEST POP PUSH1 0x1 DUP5 ADD SLOAD PUSH1 0x1 PUSH1 0x1 PUSH1 0xA0 SHL SUB AND CALLER EQ PUSH2 0x142B JUMP JUMPDEST POP CALLVALUE PUSH2 0x598 JUMPI PUSH2 0x154D CALLDATASIZE PUSH2 0x5750 JUMP JUMPDEST SWAP2 SWAP1 DUP1 DUP3 MSTORE PUSH1 0x4 PUSH1 0x20 MSTORE PUSH1 0x40 DUP3 KECCAK256 SWAP3 PUSH1 0x1 DUP5 ADD SWAP3 PUSH2 0x1575 PUSH1 0x1 DUP1 PUSH1 0xA0 SHL SUB DUP6 SLOAD AND CALLER EQ PUSH2 0x5C04 JUMP JUMPDEST PUSH20 0x0 DUP1 EXTCODESIZE ISZERO PUSH2 0x614 JUMPI DUP2 PUSH1 0x40 MLOAD DUP1 SWAP3 PUSH4 0x252A867 PUSH1 0xE5 SHL DUP3 MSTORE DUP2 DUP1 PUSH2 0x15B0 DUP12 PUSH1 0x4 DUP4 ADD PUSH2 0x5D5D JUMP JUMPDEST SUB SWAP2 GAS DELEGATECALL DUP1 ISZERO PUSH2 0x609 JUMPI PUSH2 0x163E JUMPI JUMPDEST POP POP PUSH1 0xA DUP5 ADD SLOAD PUSH0 MLOAD PUSH1 0x20 PUSH2 0x6845 PUSH0 CODECOPY PUSH0 MLOAD SWAP1 PUSH0 MSTORE SWAP2 SWAP1 PUSH2 0x1600 SWAP1 DUP3 SWAP1 PUSH1 0x1 PUSH1 0x1 PUSH1 0xA0 SHL SUB AND PUSH2 0x15FA DUP3 PUSH2 0x15F3 DUP4 CALLER PUSH2 0x64C9 JUMP JUMPDEST LT ISZERO PUSH2 0x5915 JUMP JUMPDEST CALLER PUSH2 0x64F2 JUMP JUMPDEST POP PUSH1 0x6 DUP6 ADD PUSH2 0x1610 DUP3 DUP3 SLOAD PUSH2 0x5F4A JUMP JUMPDEST SWAP1 SSTORE DUP5 SLOAD SWAP4 SLOAD PUSH1 0x2 SWAP1 SWAP6 ADD SLOAD PUSH1 0x40 MLOAD PUSH1 0x1 PUSH1 0x1 PUSH1 0xA0 SHL SUB SWAP7 DUP8 AND SWAP7 SWAP6 DUP7 AND SWAP6 SWAP1 SWAP3 DUP4 SWAP3 PUSH2 0x3B1 SWAP3 AND DUP4 PUSH2 0x64AE JUMP JUMPDEST PUSH2 0x1649 DUP3 DUP1 SWAP3 PUSH2 0x59AC JUMP JUMPDEST PUSH2 0x598 JUMPI DUP1 PUSH2 0x15BF JUMP JUMPDEST POP CALLVALUE PUSH2 0x598 JUMPI PUSH1 0x20 CALLDATASIZE PUSH1 0x3 NOT ADD SLT PUSH2 0x598 JUMPI PUSH1 0x40 PUSH1 0xE0 SWAP2 PUSH1 0x4 CALLDATALOAD DUP2 MSTORE PUSH1 0x9 PUSH1 0x20 MSTORE KECCAK256 PUSH1 0xFF DUP2 SLOAD SWAP2 PUSH1 0x2 PUSH1 0x1 DUP3 ADD SLOAD SWAP2 ADD SLOAD SWAP1 PUSH1 0x40 MLOAD SWAP4 DUP5 MSTORE PUSH1 0x20 DUP5 ADD MSTORE PUSH2 0x169F PUSH1 0x40 DUP5 ADD DUP4 DUP4 AND PUSH2 0x57C9 JUMP JUMPDEST DUP2 DUP2 PUSH1 0x8 SHR AND ISZERO ISZERO PUSH1 0x60 DUP5 ADD MSTORE DUP2 DUP2 PUSH1 0x10 SHR AND ISZERO ISZERO PUSH1 0x80 DUP5 ADD MSTORE DUP2 DUP2 PUSH1 0x18 SHR AND ISZERO ISZERO PUSH1 0xA0 DUP5 ADD MSTORE PUSH1 0x20 SHR AND ISZERO ISZERO PUSH1 0xC0 DUP3 ADD MSTORE RETURN JUMPDEST POP CALLVALUE PUSH2 0x598 JUMPI PUSH1 0x60 CALLDATASIZE PUSH1 0x3 NOT ADD SLT PUSH2 0x598 JUMPI PUSH2 0x16ED PUSH2 0x568A JUMP JUMPDEST SWAP1 PUSH2 0x16F6 PUSH2 0x5674 JUMP JUMPDEST PUSH1 0x40 PUSH1 0x44 CALLDATALOAD SWAP4 CALLER DUP5 MSTORE PUSH1 0x1 PUSH1 0x20 MSTORE DUP2 DUP5 KECCAK256 PUSH1 0x1 DUP1 PUSH1 0xA0 SHL SUB DUP5 AND PUSH0 MSTORE PUSH1 0x20 MSTORE PUSH2 0x1724 DUP6 DUP4 PUSH0 KECCAK256 SLOAD LT ISZERO PUSH2 0x5915 JUMP JUMPDEST CALLER DUP5 MSTORE PUSH1 0x1 PUSH1 0x20 MSTORE DUP2 DUP5 KECCAK256 PUSH1 0x1 DUP1 PUSH1 0xA0 SHL SUB DUP5 AND PUSH0 MSTORE PUSH1 0x20 MSTORE DUP2 PUSH0 KECCAK256 PUSH2 0x174B DUP7 DUP3 SLOAD PUSH2 0x5CC9 JUMP JUMPDEST SWAP1 SSTORE PUSH1 0x1 DUP1 PUSH1 0xA0 SHL SUB AND SWAP3 DUP4 DUP2 MSTORE PUSH1 0x1 PUSH1 0x20 MSTORE KECCAK256 PUSH1 0x1 DUP1 PUSH1 0xA0 SHL SUB DUP3 AND PUSH0 MSTORE PUSH1 0x20 MSTORE PUSH1 0x40 PUSH0 KECCAK256 PUSH2 0x177C DUP5 DUP3 SLOAD PUSH2 0x5F4A JUMP JUMPDEST SWAP1 SSTORE PUSH1 0x40 MLOAD SWAP3 DUP4 MSTORE PUSH1 0x1 PUSH1 0x1 PUSH1 0xA0 SHL SUB AND SWAP2 CALLER SWAP1 PUSH0 MLOAD PUSH1 0x20 PUSH2 0x67C5 PUSH0 CODECOPY PUSH0 MLOAD SWAP1 PUSH0 MSTORE SWAP1 PUSH1 0x20 SWAP1 LOG4 PUSH1 0x20 PUSH1 0x40 MLOAD PUSH1 0x1 DUP2 MSTORE RETURN JUMPDEST POP PUSH1 0x20 CALLDATASIZE PUSH1 0x3 NOT ADD SLT PUSH2 0x598 JUMPI PUSH1 0x4 CALLDATALOAD DUP1 DUP3 MSTORE PUSH1 0x4 PUSH1 0x20 MSTORE PUSH1 0x40 DUP3 KECCAK256 SWAP2 PUSH1 0x1 DUP4 ADD SWAP3 PUSH2 0x17E4 PUSH1 0x1 DUP1 PUSH1 0xA0 SHL SUB DUP6 SLOAD AND CALLER EQ PUSH2 0x5C04 JUMP JUMPDEST PUSH1 0x2 DUP2 ADD SWAP2 PUSH2 0x1822 DUP4 SLOAD PUSH2 0x17FD PUSH1 0xFF DUP3 PUSH1 0xB0 SHR AND PUSH2 0x5F57 JUMP JUMPDEST PUSH2 0x180D PUSH1 0xFF DUP3 PUSH1 0xB8 SHR AND ISZERO PUSH2 0x5F89 JUMP JUMPDEST PUSH1 0xFF DUP2 PUSH1 0xA0 SHR AND ISZERO SWAP1 DUP2 PUSH2 0x1A9A JUMPI JUMPDEST POP PUSH2 0x5C66 JUMP JUMPDEST PUSH1 0xA DUP3 ADD DUP1 SLOAD PUSH1 0x1 PUSH1 0x1 PUSH1 0xA0 SHL SUB AND PUSH2 0x183B DUP2 CALLER PUSH2 0x64C9 JUMP JUMPDEST PUSH1 0x6 DUP6 ADD SLOAD DUP2 LT PUSH2 0x18DA JUMPI JUMPDEST POP POP SLOAD PUSH1 0x4 DUP4 ADD SLOAD PUSH2 0x1864 SWAP3 POP SWAP1 PUSH1 0x1 PUSH1 0x1 PUSH1 0xA0 SHL SUB AND CALLER PUSH2 0x64F2 JUMP JUMPDEST POP DUP2 SLOAD PUSH1 0x1 PUSH1 0xB8 SHL PUSH1 0xFF PUSH1 0xB8 SHL NOT DUP3 AND OR SWAP1 SWAP3 SSTORE SLOAD SWAP3 SLOAD PUSH1 0x40 MLOAD PUSH1 0x1 PUSH1 0x1 PUSH1 0xA0 SHL SUB SWAP3 DUP4 AND DUP1 DUP3 MSTORE SWAP5 SWAP2 DUP4 AND SWAP3 SWAP1 SWAP2 AND SWAP1 DUP4 SWAP1 PUSH0 MLOAD PUSH1 0x20 PUSH2 0x6785 PUSH0 CODECOPY PUSH0 MLOAD SWAP1 PUSH0 MSTORE SWAP1 PUSH1 0x20 SWAP1 LOG4 DUP2 PUSH2 0x18BB JUMPI JUMPDEST PUSH1 0x20 PUSH1 0x40 MLOAD PUSH1 0x1 DUP2 MSTORE RETURN JUMPDEST PUSH1 0x20 PUSH0 MLOAD PUSH1 0x20 PUSH2 0x68A5 PUSH0 CODECOPY PUSH0 MLOAD SWAP1 PUSH0 MSTORE SWAP2 PUSH1 0x40 MLOAD SWAP1 DUP2 MSTORE LOG2 PUSH0 DUP1 PUSH2 0x18B0 JUMP JUMPDEST PUSH2 0x18E8 SWAP1 PUSH1 0x4 DUP7 ADD SLOAD PUSH2 0x5CC9 JUMP JUMPDEST PUSH2 0x18F8 PUSH1 0xFF DUP6 SLOAD PUSH1 0xA0 SHR AND PUSH2 0x58E4 JUMP JUMPDEST PUSH2 0x1903 DUP2 ISZERO ISZERO PUSH2 0x5EB1 JUMP JUMPDEST PUSH1 0x2 SLOAD SWAP4 PUSH1 0x40 MLOAD SWAP5 PUSH4 0x1C8F0847 PUSH1 0xE0 SHL DUP7 MSTORE DUP3 PUSH1 0x4 DUP8 ADD MSTORE PUSH1 0x24 DUP7 ADD MSTORE PUSH1 0x20 DUP6 PUSH1 0x44 DUP2 PUSH20 0x0 GAS DELEGATECALL SWAP5 DUP6 ISZERO PUSH2 0x5E7 JUMPI DUP2 SWAP6 PUSH2 0x1A66 JUMPI JUMPDEST POP DUP3 PUSH2 0x19B2 JUMPI POP PUSH2 0x195C DUP5 DUP3 PUSH2 0x5F4A JUMP JUMPDEST CALLVALUE SUB PUSH2 0x496 JUMPI PUSH2 0x1864 SWAP4 PUSH2 0x1971 DUP3 DUP5 CALLER PUSH2 0x6696 JUMP JUMPDEST POP PUSH1 0x3 SLOAD PUSH2 0x198B SWAP1 DUP3 SWAP1 DUP6 SWAP1 PUSH1 0x1 PUSH1 0x1 PUSH1 0xA0 SHL SUB AND PUSH2 0x6696 JUMP JUMPDEST POP JUMPDEST PUSH1 0x40 MLOAD SWAP2 DUP3 MSTORE PUSH1 0x20 DUP3 ADD MSTORE PUSH0 MLOAD PUSH1 0x20 PUSH2 0x68E5 PUSH0 CODECOPY PUSH0 MLOAD SWAP1 PUSH0 MSTORE PUSH1 0x40 CALLER SWAP3 LOG3 PUSH0 DUP1 PUSH2 0x1847 JUMP JUMPDEST PUSH2 0x19BC DUP6 DUP4 PUSH2 0x5F4A JUMP JUMPDEST PUSH1 0x40 MLOAD SWAP1 PUSH4 0x23B872DD PUSH1 0xE0 SHL DUP3 MSTORE CALLER PUSH1 0x4 DUP4 ADD MSTORE ADDRESS PUSH1 0x24 DUP4 ADD MSTORE PUSH1 0x44 DUP3 ADD MSTORE PUSH1 0x20 DUP2 PUSH1 0x64 DUP2 DUP6 DUP9 GAS CALL SWAP2 DUP3 ISZERO PUSH2 0x5A3 JUMPI DUP1 SWAP3 PUSH2 0x1A29 JUMPI JUMPDEST POP POP ISZERO PUSH2 0x539 JUMPI PUSH2 0x1864 SWAP4 PUSH2 0x1A09 DUP3 DUP5 CALLER PUSH2 0x6696 JUMP JUMPDEST POP PUSH1 0x3 SLOAD PUSH2 0x1A23 SWAP1 DUP3 SWAP1 DUP6 SWAP1 PUSH1 0x1 PUSH1 0x1 PUSH1 0xA0 SHL SUB AND PUSH2 0x6696 JUMP JUMPDEST POP PUSH2 0x198D JUMP JUMPDEST SWAP1 SWAP2 POP PUSH1 0x20 DUP3 RETURNDATASIZE PUSH1 0x20 GT PUSH2 0x1A5E JUMPI JUMPDEST DUP2 PUSH2 0x1A45 PUSH1 0x20 SWAP4 DUP4 PUSH2 0x59AC JUMP JUMPDEST DUP2 ADD SUB SLT PUSH2 0x598 JUMPI POP PUSH2 0x1A57 SWAP1 PUSH2 0x59E1 JUMP JUMPDEST PUSH0 DUP1 PUSH2 0x19F3 JUMP JUMPDEST RETURNDATASIZE SWAP2 POP PUSH2 0x1A38 JUMP JUMPDEST SWAP1 SWAP5 POP PUSH1 0x20 DUP2 RETURNDATASIZE PUSH1 0x20 GT PUSH2 0x1A92 JUMPI JUMPDEST DUP2 PUSH2 0x1A82 PUSH1 0x20 SWAP4 DUP4 PUSH2 0x59AC JUMP JUMPDEST DUP2 ADD SUB SLT PUSH2 0x5DB JUMPI MLOAD SWAP4 PUSH0 PUSH2 0x194B JUMP JUMPDEST RETURNDATASIZE SWAP2 POP PUSH2 0x1A75 JUMP JUMPDEST PUSH1 0xFF SWAP2 POP PUSH1 0xA8 SHR AND ISZERO PUSH0 PUSH2 0x181C JUMP JUMPDEST POP CALLVALUE PUSH2 0x598 JUMPI PUSH1 0x20 CALLDATASIZE PUSH1 0x3 NOT ADD SLT PUSH2 0x598 JUMPI PUSH1 0x40 DUP2 PUSH1 0xA0 SWAP3 PUSH1 0x80 DUP4 MLOAD PUSH2 0x1ACE DUP2 PUSH2 0x5991 JUMP JUMPDEST DUP3 DUP2 MSTORE DUP3 PUSH1 0x20 DUP3 ADD MSTORE DUP3 DUP6 DUP3 ADD MSTORE DUP3 PUSH1 0x60 DUP3 ADD MSTORE ADD MSTORE PUSH1 0x4 CALLDATALOAD DUP2 MSTORE PUSH1 0xA PUSH1 0x20 MSTORE KECCAK256 PUSH1 0x40 MLOAD PUSH2 0x1AFB DUP2 PUSH2 0x5991 JUMP JUMPDEST PUSH1 0x1 DUP3 SLOAD SWAP3 DUP4 DUP4 MSTORE ADD SLOAD SWAP1 PUSH1 0x20 DUP2 ADD PUSH1 0x1 DUP1 DUP7 SHL SUB DUP4 AND DUP2 MSTORE PUSH1 0x40 DUP3 ADD SWAP1 PUSH1 0xFF DUP5 DUP8 SHR AND ISZERO ISZERO DUP3 MSTORE PUSH1 0xFF PUSH1 0x80 PUSH1 0x60 DUP6 ADD SWAP5 DUP3 DUP8 PUSH1 0xA8 SHR AND ISZERO ISZERO DUP7 MSTORE ADD SWAP5 PUSH1 0xB0 SHR AND ISZERO ISZERO DUP5 MSTORE PUSH1 0x40 MLOAD SWAP5 DUP6 MSTORE PUSH1 0x1 DUP1 DUP8 SHL SUB SWAP1 MLOAD AND PUSH1 0x20 DUP6 ADD MSTORE MLOAD ISZERO ISZERO PUSH1 0x40 DUP5 ADD MSTORE MLOAD ISZERO ISZERO PUSH1 0x60 DUP4 ADD MSTORE MLOAD ISZERO ISZERO PUSH1 0x80 DUP3 ADD MSTORE RETURN JUMPDEST POP CALLVALUE PUSH2 0x598 JUMPI PUSH1 0x20 CALLDATASIZE PUSH1 0x3 NOT ADD SLT PUSH2 0x598 JUMPI PUSH1 0x4 CALLDATALOAD DUP1 DUP3 MSTORE PUSH1 0x4 PUSH1 0x20 MSTORE PUSH1 0x40 DUP3 KECCAK256 PUSH1 0x1 DUP2 ADD SWAP1 PUSH1 0x1 DUP1 PUSH1 0xA0 SHL SUB DUP3 SLOAD AND CALLER EQ DUP1 ISZERO PUSH2 0x1DB2 JUMPI JUMPDEST PUSH2 0x1BB0 SWAP1 PUSH2 0x5C04 JUMP JUMPDEST DUP4 PUSH20 0x0 DUP1 EXTCODESIZE ISZERO PUSH2 0x614 JUMPI DUP2 PUSH1 0x40 MLOAD DUP1 SWAP3 PUSH4 0x252A867 PUSH1 0xE5 SHL DUP3 MSTORE DUP2 DUP1 PUSH2 0x1BEC DUP9 PUSH1 0x4 DUP4 ADD PUSH2 0x5D5D JUMP JUMPDEST SUB SWAP2 GAS DELEGATECALL DUP1 ISZERO PUSH2 0x609 JUMPI PUSH2 0x1D9D JUMPI JUMPDEST POP POP PUSH1 0x5 DUP2 ADD SLOAD PUSH1 0x9 DUP3 ADD SLOAD PUSH1 0x6 DUP4 ADD SLOAD PUSH1 0xA DUP5 ADD SLOAD PUSH1 0x7 DUP6 ADD SLOAD PUSH1 0x8 DUP7 ADD SLOAD PUSH1 0x40 MLOAD PUSH4 0x1C8F0847 PUSH1 0xE0 SHL DUP2 MSTORE PUSH1 0x4 DUP2 ADD DUP8 SWAP1 MSTORE PUSH1 0x24 DUP2 ADD SWAP3 SWAP1 SWAP3 MSTORE PUSH1 0x1 PUSH1 0x1 PUSH1 0xA0 SHL SUB SWAP5 DUP6 AND SWAP8 SWAP6 SWAP7 SWAP2 SWAP6 SWAP5 PUSH20 0x0 SWAP4 AND SWAP1 PUSH1 0x20 DUP8 PUSH1 0x44 DUP2 DUP8 GAS DELEGATECALL SWAP7 DUP8 ISZERO PUSH2 0x8EA JUMPI DUP12 SWAP8 PUSH2 0x1D68 JUMPI JUMPDEST POP PUSH1 0x20 SWAP1 PUSH1 0x44 PUSH1 0x40 MLOAD DUP1 SWAP7 DUP2 SWAP4 PUSH4 0x1C8F0847 PUSH1 0xE0 SHL DUP4 MSTORE DUP10 PUSH1 0x4 DUP5 ADD MSTORE PUSH1 0x24 DUP4 ADD MSTORE GAS DELEGATECALL SWAP3 DUP4 ISZERO PUSH2 0x8AA JUMPI DUP10 SWAP11 SWAP10 SWAP9 SWAP10 SWAP4 PUSH2 0x1D2A JUMPI JUMPDEST POP DUP2 SLOAD DUP9 SWAP5 SWAP4 SWAP3 SWAP2 SWAP1 PUSH1 0x1 PUSH1 0x1 PUSH1 0xA0 SHL SUB AND DUP11 PUSH2 0x1CCA DUP10 DUP12 PUSH2 0x5CC9 JUMP JUMPDEST SWAP1 PUSH2 0x1CD4 SWAP3 PUSH2 0x6586 JUMP JUMPDEST POP PUSH1 0x2 DUP3 ADD DUP1 SLOAD SWAP1 SWAP11 PUSH2 0x1CF2 SWAP2 DUP10 SWAP2 SWAP1 PUSH1 0x1 PUSH1 0x1 PUSH1 0xA0 SHL SUB AND PUSH2 0x6586 JUMP JUMPDEST POP DUP6 SLOAD PUSH1 0x1 PUSH1 0x1 PUSH1 0xA0 SHL SUB AND DUP2 PUSH2 0x1D09 DUP7 DUP1 PUSH2 0x5CC9 JUMP JUMPDEST SWAP1 PUSH2 0x1D13 SWAP3 PUSH2 0x6586 JUMP JUMPDEST POP DUP10 SLOAD PUSH2 0x7D4 SWAP2 DUP5 SWAP2 PUSH1 0x1 PUSH1 0x1 PUSH1 0xA0 SHL SUB AND PUSH2 0x6586 JUMP JUMPDEST SWAP4 SWAP3 POP SWAP1 SWAP7 POP PUSH1 0x20 DUP4 RETURNDATASIZE PUSH1 0x20 GT PUSH2 0x1D60 JUMPI JUMPDEST DUP2 PUSH2 0x1D49 PUSH1 0x20 SWAP4 DUP4 PUSH2 0x59AC JUMP JUMPDEST DUP2 ADD SUB SLT PUSH2 0x5DB JUMPI DUP9 SWAP7 DUP8 SWAP4 MLOAD SWAP3 SWAP4 SWAP2 SWAP1 SWAP2 PUSH2 0x1CAD JUMP JUMPDEST RETURNDATASIZE SWAP2 POP PUSH2 0x1D3C JUMP JUMPDEST SWAP1 SWAP7 POP PUSH1 0x20 DUP2 RETURNDATASIZE PUSH1 0x20 GT PUSH2 0x1D95 JUMPI JUMPDEST DUP2 PUSH2 0x1D84 PUSH1 0x20 SWAP4 DUP4 PUSH2 0x59AC JUMP JUMPDEST DUP2 ADD SUB SLT PUSH2 0x5DB JUMPI MLOAD SWAP6 PUSH1 0x20 PUSH2 0x1C77 JUMP JUMPDEST RETURNDATASIZE SWAP2 POP PUSH2 0x1D77 JUMP JUMPDEST DUP2 PUSH2 0x1DA7 SWAP2 PUSH2 0x59AC JUMP JUMPDEST PUSH2 0x90A JUMPI DUP4 PUSH0 PUSH2 0x1BFB JUMP JUMPDEST POP PUSH1 0x2 DUP2 ADD SLOAD PUSH1 0x1 PUSH1 0x1 PUSH1 0xA0 SHL SUB AND CALLER EQ PUSH2 0x1BA7 JUMP JUMPDEST POP CALLVALUE PUSH2 0x598 JUMPI PUSH2 0x1DD7 CALLDATASIZE PUSH2 0x5750 JUMP JUMPDEST SWAP1 DUP1 DUP4 MSTORE PUSH1 0x4 PUSH1 0x20 MSTORE PUSH1 0x40 DUP4 KECCAK256 SWAP3 PUSH2 0x1DF9 PUSH1 0x1 DUP1 PUSH1 0xA0 SHL SUB DUP6 SLOAD AND CALLER EQ PUSH2 0x5C04 JUMP JUMPDEST PUSH20 0x0 DUP1 EXTCODESIZE ISZERO PUSH2 0x614 JUMPI DUP2 PUSH1 0x40 MLOAD DUP1 SWAP3 PUSH4 0x252A867 PUSH1 0xE5 SHL DUP3 MSTORE DUP2 DUP1 PUSH2 0x1E34 DUP11 PUSH1 0x4 DUP4 ADD PUSH2 0x5D5D JUMP JUMPDEST SUB SWAP2 GAS DELEGATECALL DUP1 ISZERO PUSH2 0x609 JUMPI PUSH2 0x1E67 JUMPI JUMPDEST POP POP PUSH1 0x9 DUP4 ADD SLOAD PUSH2 0x34D SWAP1 DUP4 SWAP1 PUSH1 0x1 PUSH1 0x1 PUSH1 0xA0 SHL SUB AND PUSH2 0x15FA DUP3 PUSH2 0x15F3 DUP4 CALLER PUSH2 0x64C9 JUMP JUMPDEST PUSH2 0x1E72 DUP3 DUP1 SWAP3 PUSH2 0x59AC JUMP JUMPDEST PUSH2 0x598 JUMPI DUP1 PUSH2 0x1E43 JUMP JUMPDEST POP PUSH2 0x1E86 CALLDATASIZE PUSH2 0x5750 JUMP JUMPDEST SWAP1 DUP1 DUP4 MSTORE PUSH1 0x4 PUSH1 0x20 MSTORE PUSH1 0x40 DUP4 KECCAK256 SWAP3 PUSH1 0x1 DUP5 ADD SWAP3 PUSH2 0x1EAD PUSH1 0x1 DUP1 PUSH1 0xA0 SHL SUB DUP6 SLOAD AND CALLER EQ PUSH2 0x5C04 JUMP JUMPDEST PUSH20 0x0 DUP1 EXTCODESIZE ISZERO PUSH2 0xC1D JUMPI DUP3 PUSH1 0x40 MLOAD DUP1 SWAP3 PUSH4 0x252A867 PUSH1 0xE5 SHL DUP3 MSTORE DUP2 DUP1 PUSH2 0x1EE8 DUP12 PUSH1 0x4 DUP4 ADD PUSH2 0x5D5D JUMP JUMPDEST SUB SWAP2 GAS DELEGATECALL DUP1 ISZERO PUSH2 0xC12 JUMPI SWAP1 DUP4 SWAP2 PUSH2 0x2124 JUMPI JUMPDEST POP POP PUSH1 0xA DUP6 ADD DUP1 SLOAD PUSH1 0x1 PUSH1 0x1 PUSH1 0xA0 SHL SUB AND SWAP3 PUSH2 0x1F16 DUP5 CALLER PUSH2 0x64C9 JUMP JUMPDEST DUP4 DUP2 LT PUSH2 0x1F46 JUMPI JUMPDEST POP POP SLOAD PUSH0 MLOAD PUSH1 0x20 PUSH2 0x6845 PUSH0 CODECOPY PUSH0 MLOAD SWAP1 PUSH0 MSTORE SWAP3 POP PUSH2 0x1600 SWAP1 DUP3 SWAP1 PUSH1 0x1 PUSH1 0x1 PUSH1 0xA0 SHL SUB AND CALLER PUSH2 0x64F2 JUMP JUMPDEST PUSH2 0x1F50 SWAP1 DUP5 PUSH2 0x5CC9 JUMP JUMPDEST SWAP2 PUSH2 0x1F61 PUSH1 0xFF DUP4 SLOAD PUSH1 0xA0 SHR AND PUSH2 0x58E4 JUMP JUMPDEST PUSH2 0x1F6C DUP4 ISZERO ISZERO PUSH2 0x5EB1 JUMP JUMPDEST PUSH1 0x2 SLOAD SWAP2 PUSH1 0x40 MLOAD SWAP3 PUSH4 0x1C8F0847 PUSH1 0xE0 SHL DUP5 MSTORE DUP5 PUSH1 0x4 DUP6 ADD MSTORE PUSH1 0x24 DUP5 ADD MSTORE PUSH1 0x20 DUP4 PUSH1 0x44 DUP2 PUSH20 0x0 GAS DELEGATECALL SWAP3 DUP4 ISZERO PUSH2 0x5E7 JUMPI DUP2 SWAP4 PUSH2 0x20F0 JUMPI JUMPDEST POP DUP6 PUSH2 0x202B JUMPI POP PUSH2 0x1FC5 DUP3 DUP5 PUSH2 0x5F4A JUMP JUMPDEST CALLVALUE SUB PUSH2 0x496 JUMPI DUP5 DUP4 DUP6 SWAP4 PUSH2 0x1FEB PUSH2 0x1600 SWAP7 PUSH0 MLOAD PUSH1 0x20 PUSH2 0x6845 PUSH0 CODECOPY PUSH0 MLOAD SWAP1 PUSH0 MSTORE SWAP10 CALLER PUSH2 0x6696 JUMP JUMPDEST POP PUSH1 0x3 SLOAD PUSH2 0x2005 SWAP1 DUP3 SWAP1 DUP6 SWAP1 PUSH1 0x1 PUSH1 0x1 PUSH1 0xA0 SHL SUB AND PUSH2 0x6696 JUMP JUMPDEST POP JUMPDEST PUSH1 0x40 MLOAD SWAP2 DUP3 MSTORE PUSH1 0x20 DUP3 ADD MSTORE PUSH0 MLOAD PUSH1 0x20 PUSH2 0x68E5 PUSH0 CODECOPY PUSH0 MLOAD SWAP1 PUSH0 MSTORE PUSH1 0x40 CALLER SWAP3 LOG3 SWAP2 PUSH2 0x1F1E JUMP JUMPDEST PUSH2 0x2035 DUP4 DUP6 PUSH2 0x5F4A JUMP JUMPDEST PUSH1 0x40 MLOAD SWAP1 PUSH4 0x23B872DD PUSH1 0xE0 SHL DUP3 MSTORE CALLER PUSH1 0x4 DUP4 ADD MSTORE ADDRESS PUSH1 0x24 DUP4 ADD MSTORE PUSH1 0x44 DUP3 ADD MSTORE PUSH1 0x20 DUP2 PUSH1 0x64 DUP2 DUP6 DUP12 GAS CALL SWAP2 DUP3 ISZERO PUSH2 0x5A3 JUMPI DUP1 SWAP3 PUSH2 0x20B3 JUMPI JUMPDEST POP POP ISZERO PUSH2 0x539 JUMPI DUP5 DUP4 DUP6 SWAP4 PUSH2 0x2093 PUSH2 0x1600 SWAP7 PUSH0 MLOAD PUSH1 0x20 PUSH2 0x6845 PUSH0 CODECOPY PUSH0 MLOAD SWAP1 PUSH0 MSTORE SWAP10 CALLER PUSH2 0x6696 JUMP JUMPDEST POP PUSH1 0x3 SLOAD PUSH2 0x20AD SWAP1 DUP3 SWAP1 DUP6 SWAP1 PUSH1 0x1 PUSH1 0x1 PUSH1 0xA0 SHL SUB AND PUSH2 0x6696 JUMP JUMPDEST POP PUSH2 0x2007 JUMP JUMPDEST SWAP1 SWAP2 POP PUSH1 0x20 DUP3 RETURNDATASIZE PUSH1 0x20 GT PUSH2 0x20E8 JUMPI JUMPDEST DUP2 PUSH2 0x20CF PUSH1 0x20 SWAP4 DUP4 PUSH2 0x59AC JUMP JUMPDEST DUP2 ADD SUB SLT PUSH2 0x598 JUMPI POP PUSH2 0x20E1 SWAP1 PUSH2 0x59E1 JUMP JUMPDEST PUSH0 DUP1 PUSH2 0x206C JUMP JUMPDEST RETURNDATASIZE SWAP2 POP PUSH2 0x20C2 JUMP JUMPDEST SWAP1 SWAP3 POP PUSH1 0x20 DUP2 RETURNDATASIZE PUSH1 0x20 GT PUSH2 0x211C JUMPI JUMPDEST DUP2 PUSH2 0x210C PUSH1 0x20 SWAP4 DUP4 PUSH2 0x59AC JUMP JUMPDEST DUP2 ADD SUB SLT PUSH2 0x5DB JUMPI MLOAD SWAP2 PUSH0 PUSH2 0x1FB4 JUMP JUMPDEST RETURNDATASIZE SWAP2 POP PUSH2 0x20FF JUMP JUMPDEST DUP2 PUSH2 0x212E SWAP2 PUSH2 0x59AC JUMP JUMPDEST PUSH2 0x614 JUMPI DUP2 PUSH0 PUSH2 0x1EFA JUMP JUMPDEST POP CALLVALUE PUSH2 0x598 JUMPI PUSH2 0x2148 CALLDATASIZE PUSH2 0x5750 JUMP JUMPDEST SWAP2 SWAP1 DUP1 DUP3 MSTORE PUSH1 0x4 PUSH1 0x20 MSTORE PUSH1 0x40 DUP3 KECCAK256 SWAP2 PUSH1 0x1 DUP1 PUSH1 0xA0 SHL SUB DUP4 SLOAD AND CALLER EQ DUP1 ISZERO PUSH2 0x22B8 JUMPI JUMPDEST PUSH2 0x2173 SWAP1 PUSH2 0x5C04 JUMP JUMPDEST PUSH20 0x0 DUP1 EXTCODESIZE ISZERO PUSH2 0x614 JUMPI DUP2 PUSH1 0x40 MLOAD DUP1 SWAP3 PUSH4 0x252A867 PUSH1 0xE5 SHL DUP3 MSTORE DUP2 DUP1 PUSH2 0x21AE DUP10 PUSH1 0x4 DUP4 ADD PUSH2 0x5D5D JUMP JUMPDEST SUB SWAP2 GAS DELEGATECALL DUP1 ISZERO PUSH2 0x609 JUMPI SWAP1 DUP3 SWAP2 PUSH2 0x22A3 JUMPI JUMPDEST POP POP PUSH1 0x6 DUP4 ADD PUSH2 0x21D7 DUP6 DUP3 SLOAD PUSH2 0xAF3 DUP3 DUP3 LT PUSH2 0x5915 JUMP JUMPDEST SWAP1 SSTORE PUSH1 0x1 DUP1 PUSH1 0xA0 SHL SUB PUSH1 0xA DUP5 ADD SLOAD AND SWAP4 PUSH1 0x8 DUP5 ADD SLOAD SWAP2 PUSH1 0x40 MLOAD SWAP3 PUSH4 0x1C8F0847 PUSH1 0xE0 SHL DUP5 MSTORE DUP3 PUSH1 0x4 DUP6 ADD MSTORE PUSH1 0x24 DUP5 ADD MSTORE PUSH1 0x20 DUP4 PUSH1 0x44 DUP2 PUSH20 0x0 GAS DELEGATECALL SWAP1 DUP2 ISZERO PUSH2 0x5A3 JUMPI SWAP1 PUSH2 0x2264 JUMPI JUMPDEST PUSH1 0x1 DUP6 ADD DUP1 SLOAD SWAP1 SWAP6 PUSH0 MLOAD PUSH1 0x20 PUSH2 0x6765 PUSH0 CODECOPY PUSH0 MLOAD SWAP1 PUSH0 MSTORE SWAP5 POP PUSH2 0x3B1 SWAP2 PUSH2 0xB85 SWAP1 PUSH1 0x1 PUSH1 0x1 PUSH1 0xA0 SHL SUB AND DUP10 PUSH2 0xB7F DUP7 DUP9 PUSH2 0x5CC9 JUMP JUMPDEST POP PUSH1 0x20 DUP3 RETURNDATASIZE PUSH1 0x20 GT PUSH2 0x229B JUMPI JUMPDEST DUP2 PUSH2 0x227E PUSH1 0x20 SWAP4 DUP4 PUSH2 0x59AC JUMP JUMPDEST DUP2 ADD SUB SLT PUSH2 0x5DB JUMPI PUSH0 MLOAD PUSH1 0x20 PUSH2 0x6765 PUSH0 CODECOPY PUSH0 MLOAD SWAP1 PUSH0 MSTORE SWAP2 MLOAD PUSH2 0x2230 JUMP JUMPDEST RETURNDATASIZE SWAP2 POP PUSH2 0x2271 JUMP JUMPDEST DUP2 PUSH2 0x22AD SWAP2 PUSH2 0x59AC JUMP JUMPDEST PUSH2 0x598 JUMPI DUP1 PUSH0 PUSH2 0x21C0 JUMP JUMPDEST POP PUSH1 0x2 DUP4 ADD SLOAD PUSH1 0x1 PUSH1 0x1 PUSH1 0xA0 SHL SUB AND CALLER EQ PUSH2 0x216A JUMP JUMPDEST POP CALLVALUE PUSH2 0x598 JUMPI DUP1 PUSH1 0x3 NOT CALLDATASIZE ADD SLT PUSH2 0x598 JUMPI PUSH1 0x20 PUSH1 0x7 SLOAD PUSH1 0x40 MLOAD SWAP1 DUP2 MSTORE RETURN JUMPDEST POP CALLVALUE PUSH2 0x598 JUMPI DUP1 PUSH1 0x3 NOT CALLDATASIZE ADD SLT PUSH2 0x598 JUMPI PUSH1 0x20 PUSH1 0x5 SLOAD PUSH1 0x40 MLOAD SWAP1 DUP2 MSTORE RETURN JUMPDEST POP CALLVALUE PUSH2 0x598 JUMPI PUSH1 0x20 CALLDATASIZE PUSH1 0x3 NOT ADD SLT PUSH2 0x598 JUMPI PUSH1 0x40 PUSH1 0x4 CALLDATALOAD SWAP2 DUP3 DUP2 MSTORE PUSH1 0x4 PUSH1 0x20 MSTORE KECCAK256 SWAP1 PUSH1 0x1 DUP3 ADD SWAP1 PUSH1 0x1 DUP1 PUSH1 0xA0 SHL SUB DUP3 SLOAD AND CALLER EQ DUP1 ISZERO PUSH2 0x23C3 JUMPI JUMPDEST PUSH2 0x234D SWAP1 PUSH2 0x5C04 JUMP JUMPDEST PUSH0 MLOAD PUSH1 0x20 PUSH2 0x6805 PUSH0 CODECOPY PUSH0 MLOAD SWAP1 PUSH0 MSTORE PUSH2 0x3B1 PUSH1 0x2 DUP6 ADD SWAP5 PUSH2 0x2377 DUP7 SLOAD PUSH2 0x17FD PUSH1 0xFF DUP3 PUSH1 0xB0 SHR AND PUSH2 0x5F57 JUMP JUMPDEST DUP1 SLOAD PUSH1 0x9 DUP3 ADD SLOAD PUSH1 0x5 DUP4 ADD SLOAD PUSH2 0x239B SWAP3 SWAP1 SWAP2 PUSH1 0x1 PUSH1 0x1 PUSH1 0xA0 SHL SUB SWAP1 DUP2 AND SWAP2 AND PUSH2 0x6696 JUMP JUMPDEST POP SLOAD SWAP4 SLOAD SWAP5 SLOAD PUSH1 0x40 MLOAD PUSH1 0x1 PUSH1 0x1 PUSH1 0xA0 SHL SUB SWAP7 DUP8 AND SWAP7 SWAP6 DUP7 AND SWAP6 SWAP1 SWAP3 DUP4 SWAP3 SWAP1 SWAP2 CALLER SWAP2 AND DUP4 PUSH2 0x5D43 JUMP JUMPDEST POP DUP3 SLOAD PUSH1 0x1 PUSH1 0x1 PUSH1 0xA0 SHL SUB AND CALLER EQ PUSH2 0x2344 JUMP JUMPDEST POP CALLVALUE PUSH2 0x598 JUMPI DUP1 PUSH1 0x3 NOT CALLDATASIZE ADD SLT PUSH2 0x598 JUMPI SLOAD PUSH1 0x40 MLOAD PUSH1 0x1 PUSH1 0x1 PUSH1 0xA0 SHL SUB SWAP1 SWAP2 AND DUP2 MSTORE PUSH1 0x20 SWAP1 RETURN JUMPDEST POP CALLVALUE PUSH2 0x598 JUMPI DUP1 PUSH1 0x3 NOT CALLDATASIZE ADD SLT PUSH2 0x598 JUMPI PUSH1 0x20 PUSH1 0x2 SLOAD PUSH1 0x40 MLOAD SWAP1 DUP2 MSTORE RETURN JUMPDEST POP CALLVALUE PUSH2 0x598 JUMPI DUP1 PUSH1 0x3 NOT CALLDATASIZE ADD SLT PUSH2 0x598 JUMPI PUSH2 0x2434 PUSH2 0x66DE JUMP JUMPDEST DUP1 SLOAD PUSH1 0xFF PUSH1 0xA0 SHL NOT AND DUP2 SSTORE PUSH1 0x40 MLOAD DUP2 DUP2 MSTORE PUSH0 MLOAD PUSH1 0x20 PUSH2 0x67E5 PUSH0 CODECOPY PUSH0 MLOAD SWAP1 PUSH0 MSTORE SWAP1 PUSH1 0x20 SWAP1 LOG1 CALLER PUSH32 0x793BC6423DD0257D64F9D47DB72FD4B2162F4541AA41740BA1C5FB5E2CD41BCD DUP3 DUP1 LOG2 DUP1 RETURN JUMPDEST POP CALLVALUE PUSH2 0x598 JUMPI PUSH1 0x20 CALLDATASIZE PUSH1 0x3 NOT ADD SLT PUSH2 0x598 JUMPI PUSH1 0x4 CALLDATALOAD DUP2 MSTORE PUSH1 0x4 PUSH1 0x20 MSTORE PUSH1 0x40 SWAP1 KECCAK256 PUSH1 0x1 PUSH1 0xA0 SHL PUSH1 0x1 SWAP1 SUB DUP2 SLOAD AND SWAP1 PUSH1 0x1 PUSH1 0xA0 SHL PUSH1 0x1 SWAP1 SUB PUSH1 0x1 DUP3 ADD SLOAD AND SWAP1 PUSH1 0x2 DUP2 ADD SLOAD PUSH1 0x3 DUP3 ADD SLOAD PUSH1 0x4 DUP4 ADD SLOAD PUSH1 0x5 DUP5 ADD SLOAD PUSH1 0x6 DUP6 ADD SLOAD PUSH1 0x7 DUP7 ADD SLOAD SWAP2 PUSH1 0x8 DUP8 ADD SLOAD SWAP4 PUSH1 0x1 PUSH1 0xA0 SHL PUSH1 0x1 SWAP1 SUB PUSH1 0x9 DUP10 ADD SLOAD AND SWAP6 PUSH1 0x1 PUSH1 0xA0 SHL PUSH1 0x1 SWAP1 SUB PUSH1 0xA DUP11 ADD SLOAD AND SWAP8 PUSH1 0xB DUP11 ADD SLOAD SWAP10 PUSH1 0xC ADD SLOAD PUSH1 0xFF AND SWAP11 PUSH1 0x40 MLOAD SWAP13 DUP14 MSTORE PUSH1 0x20 DUP14 ADD MSTORE PUSH1 0x1 PUSH1 0xA0 SHL PUSH1 0x1 SWAP1 SUB DUP2 AND PUSH1 0x40 DUP14 ADD MSTORE DUP1 PUSH1 0xA0 SHR PUSH1 0xFF AND ISZERO ISZERO PUSH1 0x60 DUP14 ADD MSTORE DUP1 PUSH1 0xA8 SHR PUSH1 0xFF AND ISZERO ISZERO PUSH1 0x80 DUP14 ADD MSTORE DUP1 PUSH1 0xB0 SHR PUSH1 0xFF AND ISZERO ISZERO PUSH1 0xA0 DUP14 ADD MSTORE PUSH1 0xB8 SHR PUSH1 0xFF AND ISZERO ISZERO PUSH1 0xC0 DUP13 ADD MSTORE PUSH1 0xE0 DUP12 ADD MSTORE PUSH2 0x100 DUP11 ADD MSTORE PUSH2 0x120 DUP10 ADD MSTORE PUSH2 0x140 DUP9 ADD MSTORE PUSH2 0x160 DUP8 ADD MSTORE PUSH2 0x180 DUP7 ADD MSTORE PUSH2 0x1A0 DUP6 ADD MSTORE PUSH2 0x1C0 DUP5 ADD MSTORE PUSH2 0x1E0 DUP4 ADD MSTORE PUSH2 0x200 DUP3 ADD PUSH2 0x25A5 SWAP2 PUSH2 0x57C9 JUMP JUMPDEST PUSH2 0x220 SWAP1 RETURN JUMPDEST POP CALLVALUE PUSH2 0x598 JUMPI PUSH1 0x20 CALLDATASIZE PUSH1 0x3 NOT ADD SLT PUSH2 0x598 JUMPI PUSH1 0x40 PUSH1 0x4 CALLDATALOAD SWAP2 DUP3 DUP2 MSTORE PUSH1 0x4 PUSH1 0x20 MSTORE KECCAK256 SWAP1 PUSH1 0x1 DUP3 ADD SWAP1 PUSH1 0x1 DUP1 PUSH1 0xA0 SHL SUB DUP3 SLOAD AND CALLER EQ DUP1 ISZERO PUSH2 0x2652 JUMPI JUMPDEST PUSH2 0x25EE SWAP1 PUSH2 0x5C04 JUMP JUMPDEST PUSH0 MLOAD PUSH1 0x20 PUSH2 0x6805 PUSH0 CODECOPY PUSH0 MLOAD SWAP1 PUSH0 MSTORE PUSH2 0x3B1 PUSH1 0x2 DUP6 ADD SWAP5 PUSH2 0x2620 DUP7 SLOAD PUSH1 0xFF DUP2 PUSH1 0xB8 SHR AND ISZERO DUP1 PUSH2 0x2644 JUMPI JUMPDEST PUSH2 0x180D SWAP1 PUSH2 0x5F89 JUMP JUMPDEST DUP1 SLOAD PUSH1 0x9 DUP3 ADD SLOAD PUSH1 0x5 DUP4 ADD SLOAD PUSH2 0x239B SWAP3 SWAP1 SWAP2 PUSH1 0x1 PUSH1 0x1 PUSH1 0xA0 SHL SUB SWAP1 DUP2 AND SWAP2 AND PUSH2 0x6586 JUMP JUMPDEST POP PUSH1 0xB0 DUP2 SWAP1 SHR PUSH1 0xFF AND PUSH2 0x2617 JUMP JUMPDEST POP DUP3 SLOAD PUSH1 0x1 PUSH1 0x1 PUSH1 0xA0 SHL SUB AND CALLER EQ PUSH2 0x25E5 JUMP JUMPDEST POP CALLVALUE PUSH2 0x598 JUMPI PUSH1 0x20 PUSH2 0x9D4 PUSH2 0x2679 CALLDATASIZE PUSH2 0x58C5 JUMP JUMPDEST SWAP1 PUSH2 0x61B0 JUMP JUMPDEST POP CALLVALUE PUSH2 0x598 JUMPI PUSH2 0x268E CALLDATASIZE PUSH2 0x5750 JUMP JUMPDEST SWAP1 DUP1 DUP4 MSTORE PUSH1 0x4 PUSH1 0x20 MSTORE PUSH1 0x40 DUP4 KECCAK256 SWAP3 PUSH1 0x1 DUP5 ADD SWAP3 PUSH1 0x1 DUP1 PUSH1 0xA0 SHL SUB DUP5 SLOAD AND CALLER EQ DUP1 ISZERO PUSH2 0x2812 JUMPI JUMPDEST PUSH2 0x26BD SWAP1 PUSH2 0x5C04 JUMP JUMPDEST PUSH20 0x0 DUP1 EXTCODESIZE ISZERO PUSH2 0xC1D JUMPI DUP3 PUSH1 0x40 MLOAD DUP1 SWAP3 PUSH4 0x252A867 PUSH1 0xE5 SHL DUP3 MSTORE DUP2 DUP1 PUSH2 0x26F8 DUP12 PUSH1 0x4 DUP4 ADD PUSH2 0x5D5D JUMP JUMPDEST SUB SWAP2 GAS DELEGATECALL DUP1 ISZERO PUSH2 0xC12 JUMPI SWAP1 DUP4 SWAP2 PUSH2 0x27FD JUMPI JUMPDEST POP POP PUSH1 0x6 DUP6 ADD PUSH2 0x2721 DUP3 DUP3 SLOAD PUSH2 0xAF3 DUP3 DUP3 LT PUSH2 0x5915 JUMP JUMPDEST SWAP1 SSTORE PUSH1 0x1 DUP1 PUSH1 0xA0 SHL SUB PUSH1 0xA DUP7 ADD SLOAD AND SWAP5 PUSH1 0x8 DUP2 ADD SLOAD PUSH1 0x40 MLOAD SWAP1 PUSH4 0x1C8F0847 PUSH1 0xE0 SHL DUP3 MSTORE DUP4 PUSH1 0x4 DUP4 ADD MSTORE PUSH1 0x24 DUP3 ADD MSTORE PUSH1 0x20 DUP2 PUSH1 0x44 DUP2 PUSH20 0x0 GAS DELEGATECALL SWAP4 DUP5 ISZERO PUSH2 0x5A3 JUMPI SWAP4 PUSH2 0x27C7 JUMPI JUMPDEST POP DUP1 SLOAD PUSH0 MLOAD PUSH1 0x20 PUSH2 0x6725 PUSH0 CODECOPY PUSH0 MLOAD SWAP1 PUSH0 MSTORE SWAP4 SWAP2 PUSH2 0x3B1 SWAP2 PUSH2 0x27AE SWAP1 PUSH1 0x1 PUSH1 0x1 PUSH1 0xA0 SHL SUB AND DUP10 PUSH2 0x27A8 DUP7 DUP9 PUSH2 0x5CC9 JUMP JUMPDEST SWAP2 PUSH2 0x6696 JUMP JUMPDEST POP PUSH2 0xB9E DUP4 PUSH1 0x2 DUP4 ADD SWAP10 PUSH1 0x1 DUP1 PUSH1 0xA0 SHL SUB DUP12 SLOAD AND PUSH2 0x6696 JUMP JUMPDEST SWAP3 POP PUSH1 0x20 DUP4 RETURNDATASIZE PUSH1 0x20 GT PUSH2 0x27F5 JUMPI JUMPDEST DUP2 PUSH2 0x27E2 PUSH1 0x20 SWAP4 DUP4 PUSH2 0x59AC JUMP JUMPDEST DUP2 ADD SUB SLT PUSH2 0x5DB JUMPI SWAP2 MLOAD SWAP2 PUSH2 0x3B1 PUSH2 0x2779 JUMP JUMPDEST RETURNDATASIZE SWAP2 POP PUSH2 0x27D5 JUMP JUMPDEST DUP2 PUSH2 0x2807 SWAP2 PUSH2 0x59AC JUMP JUMPDEST PUSH2 0x614 JUMPI DUP2 PUSH0 PUSH2 0x270A JUMP JUMPDEST POP PUSH1 0x2 DUP6 ADD SLOAD PUSH1 0x1 PUSH1 0x1 PUSH1 0xA0 SHL SUB AND CALLER EQ PUSH2 0x26B4 JUMP JUMPDEST POP CALLVALUE PUSH2 0x598 JUMPI DUP1 PUSH1 0x3 NOT CALLDATASIZE ADD SLT PUSH2 0x598 JUMPI PUSH2 0x2841 PUSH2 0x66DE JUMP JUMPDEST DUP1 SLOAD PUSH1 0x1 PUSH1 0x1 PUSH1 0xA0 SHL SUB NOT DUP2 AND DUP3 SSTORE DUP2 SWAP1 PUSH1 0x1 PUSH1 0x1 PUSH1 0xA0 SHL SUB AND PUSH0 MLOAD PUSH1 0x20 PUSH2 0x6825 PUSH0 CODECOPY PUSH0 MLOAD SWAP1 PUSH0 MSTORE DUP3 DUP1 LOG3 DUP1 RETURN JUMPDEST POP CALLVALUE PUSH2 0x598 JUMPI PUSH1 0x20 CALLDATASIZE PUSH1 0x3 NOT ADD SLT PUSH2 0x598 JUMPI PUSH1 0x20 SWAP1 PUSH1 0x40 SWAP1 PUSH1 0x1 PUSH1 0x1 PUSH1 0xA0 SHL SUB PUSH2 0x2897 PUSH2 0x568A JUMP JUMPDEST AND DUP2 MSTORE PUSH1 0x1 DUP4 MSTORE DUP2 DUP2 KECCAK256 DUP2 DUP1 MSTORE DUP4 MSTORE KECCAK256 SLOAD PUSH1 0x40 MLOAD SWAP1 DUP2 MSTORE RETURN JUMPDEST POP CALLVALUE PUSH2 0x598 JUMPI PUSH1 0x20 CALLDATASIZE PUSH1 0x3 NOT ADD SLT PUSH2 0x598 JUMPI PUSH1 0x4 CALLDATALOAD DUP1 DUP3 MSTORE PUSH1 0x4 PUSH1 0x20 MSTORE PUSH1 0x40 DUP3 KECCAK256 SWAP1 PUSH1 0x1 DUP3 ADD SWAP2 PUSH1 0x1 DUP1 PUSH1 0xA0 SHL SUB DUP4 SLOAD AND CALLER EQ DUP1 ISZERO PUSH2 0x2EFE JUMPI JUMPDEST DUP1 ISZERO PUSH2 0x2EE8 JUMPI JUMPDEST PUSH2 0x28FA SWAP1 PUSH2 0x5C04 JUMP JUMPDEST PUSH1 0x2 DUP2 ADD SWAP4 PUSH2 0x2913 DUP6 SLOAD PUSH2 0x180D PUSH1 0xFF DUP3 PUSH1 0xB8 SHR AND PUSH2 0x5C35 JUMP JUMPDEST PUSH1 0xB DUP3 ADD SLOAD TIMESTAMP LT PUSH2 0x2EBD JUMPI PUSH1 0xFF PUSH1 0xC DUP4 ADD SLOAD AND PUSH1 0x5 DUP4 ADD SLOAD PUSH1 0x1 DUP1 PUSH1 0xA0 SHL SUB PUSH1 0x9 DUP6 ADD SLOAD AND PUSH1 0x6 DUP6 ADD SLOAD SWAP2 PUSH1 0x1 DUP1 PUSH1 0xA0 SHL SUB PUSH1 0xA DUP8 ADD SLOAD AND SWAP1 PUSH1 0x7 DUP8 ADD SLOAD SWAP5 PUSH1 0x8 DUP9 ADD SLOAD SWAP7 PUSH20 0x0 SWAP8 PUSH1 0x40 MLOAD SWAP8 PUSH4 0x1C8F0847 PUSH1 0xE0 SHL DUP10 MSTORE DUP5 PUSH1 0x4 DUP11 ADD MSTORE PUSH1 0x24 DUP10 ADD MSTORE PUSH1 0x20 DUP9 PUSH1 0x44 DUP2 DUP13 GAS DELEGATECALL SWAP8 DUP9 ISZERO PUSH2 0x609 JUMPI DUP3 SWAP9 PUSH2 0x2E88 JUMPI JUMPDEST POP PUSH1 0x20 SWAP1 PUSH1 0x44 PUSH1 0x40 MLOAD DUP1 SWAP12 DUP2 SWAP4 PUSH4 0x1C8F0847 PUSH1 0xE0 SHL DUP4 MSTORE DUP12 PUSH1 0x4 DUP5 ADD MSTORE PUSH1 0x24 DUP4 ADD MSTORE GAS DELEGATECALL SWAP8 DUP9 ISZERO PUSH2 0x5E7 JUMPI DUP2 SWAP9 PUSH2 0x2E54 JUMPI JUMPDEST POP PUSH1 0x6 DUP3 LT ISZERO PUSH2 0x117A JUMPI SWAP2 PUSH1 0x4 DUP3 DUP5 DUP15 DUP15 DUP15 DUP10 PUSH0 MLOAD PUSH1 0x20 PUSH2 0x6805 PUSH0 CODECOPY PUSH0 MLOAD SWAP1 PUSH0 MSTORE SWAP16 SWAP14 PUSH2 0x3B1 SWAP16 DUP16 SWAP14 DUP2 SWAP16 SWAP14 SWAP12 SWAP15 DUP4 SWAP16 DUP16 DUP4 SWAP16 DUP9 DUP16 DUP6 DUP5 DUP11 DUP16 DUP16 DUP12 DUP16 SWAP9 PUSH1 0x1 DUP16 SWAP2 SWAP13 DUP10 SWAP14 DUP8 DUP6 DUP14 DUP16 DUP13 DUP16 DUP16 DUP13 DUP12 SWAP5 DUP16 SWAP3 DUP12 ISZERO PUSH2 0x2D89 JUMPI JUMPDEST PUSH1 0x2 DUP13 EQ PUSH2 0x2CC2 JUMPI JUMPDEST POP POP POP POP POP POP POP POP POP POP POP EQ PUSH2 0x2BED JUMPI JUMPDEST POP POP POP POP POP POP POP POP POP POP PUSH1 0x3 DUP13 EQ PUSH2 0x2B5E JUMPI JUMPDEST POP POP POP POP POP POP POP POP POP POP POP EQ PUSH2 0x2AA3 JUMPI JUMPDEST POP POP DUP10 SLOAD PUSH1 0xFF PUSH1 0xA8 SHL NOT DUP2 AND PUSH1 0x1 PUSH1 0xA8 SHL OR SWAP1 SWAP11 SSTORE POP POP SWAP2 SLOAD SWAP6 SLOAD PUSH1 0x40 MLOAD PUSH1 0x1 PUSH1 0x1 PUSH1 0xA0 SHL SUB SWAP2 DUP3 AND SWAP9 SWAP8 DUP3 AND SWAP8 SWAP1 SWAP5 DUP6 SWAP5 POP SWAP3 POP CALLER SWAP2 AND DUP4 PUSH2 0x5D43 JUMP JUMPDEST DUP5 DUP4 PUSH2 0x2AE5 PUSH2 0x2B07 SWAP7 PUSH2 0x2ACA PUSH2 0x2AF6 SWAP6 DUP12 SWAP9 PUSH2 0x27A8 DUP8 PUSH1 0x1 DUP1 PUSH1 0xA0 SHL SUB PUSH1 0x3 SLOAD AND SWAP4 PUSH2 0x5CC9 JUMP JUMPDEST POP PUSH1 0x3 SLOAD PUSH1 0x1 PUSH1 0x1 PUSH1 0xA0 SHL SUB AND SWAP1 DUP7 SWAP1 PUSH2 0x27A8 SWAP1 DUP10 SWAP1 PUSH2 0x5CC9 JUMP JUMPDEST POP DUP14 SLOAD PUSH1 0x1 PUSH1 0x1 PUSH1 0xA0 SHL SUB AND PUSH2 0x6696 JUMP JUMPDEST POP DUP11 SLOAD PUSH1 0x1 PUSH1 0x1 PUSH1 0xA0 SHL SUB AND PUSH2 0x6696 JUMP JUMPDEST POP DUP3 SLOAD DUP8 SLOAD DUP10 SLOAD PUSH1 0x3 SLOAD PUSH1 0x40 MLOAD PUSH1 0x1 PUSH1 0x1 PUSH1 0xA0 SHL SUB SWAP4 DUP5 AND SWAP7 SWAP5 DUP5 AND SWAP6 DUP12 SWAP6 PUSH0 MLOAD PUSH1 0x20 PUSH2 0x6705 PUSH0 CODECOPY PUSH0 MLOAD SWAP1 PUSH0 MSTORE SWAP6 SWAP3 SWAP5 DUP6 SWAP5 PUSH2 0x2B50 SWAP5 SWAP3 SWAP4 SWAP3 DUP5 SWAP3 DUP5 SWAP3 DUP3 AND SWAP2 CALLER SWAP2 AND DUP9 PUSH2 0x5D00 JUMP JUMPDEST SUB SWAP1 LOG4 PUSH0 DUP1 DUP1 DUP1 DUP1 DUP1 PUSH2 0x2A65 JUMP JUMPDEST PUSH0 MLOAD PUSH1 0x20 PUSH2 0x6705 PUSH0 CODECOPY PUSH0 MLOAD SWAP1 PUSH0 MSTORE SWAP7 PUSH2 0x2AF6 PUSH2 0x2B88 SWAP4 PUSH2 0x2BDA SWAP7 DUP14 PUSH1 0x1 DUP1 PUSH1 0xA0 SHL SUB SWAP1 SLOAD AND PUSH2 0x6696 JUMP JUMPDEST POP SLOAD SWAP6 SLOAD SWAP7 SLOAD PUSH1 0x40 DUP1 MLOAD PUSH1 0x1 PUSH1 0x1 PUSH1 0xA0 SHL SUB SWAP3 DUP4 AND DUP1 DUP3 MSTORE CALLER PUSH1 0x20 DUP4 ADD MSTORE SWAP2 DUP2 ADD SWAP2 SWAP1 SWAP2 MSTORE PUSH1 0x60 DUP2 ADD SWAP5 SWAP1 SWAP5 MSTORE PUSH1 0x80 DUP5 ADD SWAP3 SWAP1 SWAP3 MSTORE PUSH0 PUSH1 0xA0 DUP5 ADD DUP2 SWAP1 MSTORE PUSH1 0xC0 DUP5 ADD MSTORE SWAP6 DUP2 AND SWAP6 SWAP5 AND SWAP4 DUP2 SWAP1 PUSH1 0xE0 DUP3 ADD SWAP1 JUMP JUMPDEST SUB SWAP1 LOG4 DUP15 DUP15 DUP15 DUP8 DUP12 DUP14 DUP16 DUP13 SWAP1 DUP12 DUP16 PUSH2 0x2A54 JUMP JUMPDEST PUSH0 MLOAD PUSH1 0x20 PUSH2 0x6885 PUSH0 CODECOPY PUSH0 MLOAD SWAP1 PUSH0 MSTORE SWAP10 PUSH2 0x2C57 PUSH0 MLOAD PUSH1 0x20 PUSH2 0x6725 PUSH0 CODECOPY PUSH0 MLOAD SWAP1 PUSH0 MSTORE SWAP9 PUSH2 0x2C41 DUP9 DUP7 PUSH2 0x2C30 DUP16 SWAP15 PUSH2 0x2C68 SWAP10 PUSH2 0x27A8 DUP6 PUSH1 0x1 DUP1 PUSH1 0xA0 SHL SUB DUP10 SLOAD AND SWAP4 PUSH2 0x5CC9 JUMP JUMPDEST POP DUP10 SLOAD PUSH1 0x1 PUSH1 0x1 PUSH1 0xA0 SHL SUB AND PUSH2 0x6696 JUMP JUMPDEST POP SLOAD PUSH1 0x1 PUSH1 0x1 PUSH1 0xA0 SHL SUB AND DUP3 PUSH2 0x27A8 DUP6 DUP12 PUSH2 0x5CC9 JUMP JUMPDEST POP DUP5 SLOAD PUSH1 0x1 PUSH1 0x1 PUSH1 0xA0 SHL SUB AND PUSH2 0x6696 JUMP JUMPDEST POP DUP11 SLOAD SWAP1 SLOAD SWAP2 SLOAD PUSH1 0x40 MLOAD PUSH1 0x1 PUSH1 0x1 PUSH1 0xA0 SHL SUB SWAP4 DUP5 AND SWAP10 SWAP3 DUP5 AND SWAP9 SWAP2 SWAP1 SWAP4 AND SWAP4 DUP10 SWAP4 DUP10 SWAP4 SWAP2 DUP2 SWAP1 PUSH2 0x2C9B SWAP1 DUP16 CALLER DUP11 DUP6 PUSH2 0x5CD6 JUMP JUMPDEST SUB SWAP1 LOG4 PUSH2 0x2CB0 DUP12 PUSH1 0x40 MLOAD SWAP4 DUP5 SWAP4 CALLER SWAP1 DUP6 PUSH2 0x5CD6 JUMP JUMPDEST SUB SWAP1 LOG4 DUP7 DUP9 DUP4 DUP6 DUP5 DUP11 DUP16 DUP16 DUP12 DUP14 PUSH2 0x2A41 JUMP JUMPDEST PUSH2 0x2D2C PUSH0 MLOAD PUSH1 0x20 PUSH2 0x6765 PUSH0 CODECOPY PUSH0 MLOAD SWAP1 PUSH0 MSTORE SWAP8 DUP10 SWAP4 DUP16 DUP14 DUP14 PUSH2 0x2C30 PUSH0 MLOAD PUSH1 0x20 PUSH2 0x68C5 PUSH0 CODECOPY PUSH0 MLOAD SWAP1 PUSH0 MSTORE SWAP16 DUP13 SWAP1 PUSH2 0x27A8 DUP6 DUP14 DUP9 PUSH2 0x2D04 SWAP10 PUSH1 0xA0 SHL SUB SWAP1 SLOAD AND SWAP4 PUSH2 0x5CC9 JUMP JUMPDEST POP DUP16 DUP1 PUSH2 0x2D1D SWAP2 PUSH1 0xA0 SHL SUB DUP8 SLOAD AND DUP3 PUSH2 0x27A8 DUP6 DUP14 PUSH2 0x5CC9 JUMP JUMPDEST POP DUP16 DUP1 PUSH1 0xA0 SHL SUB DUP8 SLOAD AND PUSH2 0x6696 JUMP JUMPDEST POP DUP13 DUP1 PUSH1 0xA0 SHL SUB SWAP1 SLOAD AND SWAP8 DUP9 SWAP3 DUP14 DUP1 PUSH1 0xA0 SHL SUB SWAP1 SLOAD AND SWAP10 DUP11 SWAP5 DUP15 DUP1 PUSH1 0xA0 SHL SUB SWAP1 SLOAD AND SWAP6 PUSH2 0x2D60 PUSH1 0x40 MLOAD SWAP3 DUP4 SWAP3 CALLER DUP11 DUP6 PUSH2 0x5CD6 JUMP JUMPDEST SUB SWAP1 LOG4 PUSH2 0x2D75 DUP11 PUSH1 0x40 MLOAD SWAP4 DUP5 SWAP4 CALLER SWAP1 DUP6 PUSH2 0x5CD6 JUMP JUMPDEST SUB SWAP1 LOG4 DUP8 DUP6 DUP14 DUP16 DUP13 DUP16 DUP16 DUP13 DUP12 SWAP5 DUP16 SWAP3 PUSH2 0x2A30 JUMP JUMPDEST PUSH2 0x2DA0 DUP14 DUP1 PUSH1 0xA0 SHL SUB DUP3 SLOAD AND DUP11 PUSH2 0x27A8 DUP14 DUP10 PUSH2 0x5CC9 JUMP JUMPDEST POP PUSH2 0x2DB4 DUP11 DUP11 DUP16 DUP1 PUSH1 0xA0 SHL SUB DUP8 SLOAD AND PUSH2 0x6696 JUMP JUMPDEST POP PUSH2 0x2DCC DUP14 DUP1 PUSH1 0xA0 SHL SUB DUP5 SLOAD AND DUP4 PUSH2 0x27A8 DUP11 DUP11 PUSH2 0x5CC9 JUMP JUMPDEST POP PUSH2 0x2DE0 DUP8 DUP4 DUP16 DUP1 PUSH1 0xA0 SHL SUB DUP8 SLOAD AND PUSH2 0x6696 JUMP JUMPDEST POP DUP10 DUP14 DUP1 PUSH1 0xA0 SHL SUB DUP3 SLOAD AND DUP10 DUP16 DUP10 DUP10 DUP10 DUP6 DUP6 PUSH0 MLOAD PUSH1 0x20 PUSH2 0x6885 PUSH0 CODECOPY PUSH0 MLOAD SWAP1 PUSH0 MSTORE DUP7 PUSH0 MLOAD PUSH1 0x20 PUSH2 0x6765 PUSH0 CODECOPY PUSH0 MLOAD SWAP1 PUSH0 MSTORE SWAP8 PUSH1 0xA0 SHL SUB DUP14 SLOAD AND SWAP10 PUSH1 0x1 SWAP5 DUP6 DUP13 SWAP7 PUSH1 0xA0 SHL SUB SWAP1 SLOAD AND SWAP6 PUSH2 0x2E37 PUSH1 0x40 MLOAD SWAP3 DUP4 SWAP3 CALLER DUP11 DUP6 PUSH2 0x5CD6 JUMP JUMPDEST SUB SWAP1 LOG4 PUSH2 0x2E4C DUP14 PUSH1 0x40 MLOAD SWAP4 DUP5 SWAP4 CALLER SWAP1 DUP6 PUSH2 0x5CD6 JUMP JUMPDEST SUB SWAP1 LOG4 PUSH2 0x2A27 JUMP JUMPDEST SWAP1 SWAP8 POP PUSH1 0x20 DUP2 RETURNDATASIZE PUSH1 0x20 GT PUSH2 0x2E80 JUMPI JUMPDEST DUP2 PUSH2 0x2E70 PUSH1 0x20 SWAP4 DUP4 PUSH2 0x59AC JUMP JUMPDEST DUP2 ADD SUB SLT PUSH2 0x5DB JUMPI MLOAD SWAP7 PUSH0 PUSH2 0x29D0 JUMP JUMPDEST RETURNDATASIZE SWAP2 POP PUSH2 0x2E63 JUMP JUMPDEST SWAP1 SWAP8 POP PUSH1 0x20 DUP2 RETURNDATASIZE PUSH1 0x20 GT PUSH2 0x2EB5 JUMPI JUMPDEST DUP2 PUSH2 0x2EA4 PUSH1 0x20 SWAP4 DUP4 PUSH2 0x59AC JUMP JUMPDEST DUP2 ADD SUB SLT PUSH2 0x5DB JUMPI MLOAD SWAP7 PUSH1 0x20 PUSH2 0x299E JUMP JUMPDEST RETURNDATASIZE SWAP2 POP PUSH2 0x2E97 JUMP JUMPDEST PUSH1 0x64 PUSH1 0x40 MLOAD PUSH3 0x461BCD PUSH1 0xE5 SHL DUP2 MSTORE PUSH1 0x20 PUSH1 0x4 DUP3 ADD MSTORE PUSH1 0x4 PUSH1 0x24 DUP3 ADD MSTORE PUSH4 0x22189719 PUSH1 0xE1 SHL PUSH1 0x44 DUP3 ADD MSTORE REVERT JUMPDEST POP PUSH1 0x2 DUP2 ADD SLOAD PUSH1 0x1 PUSH1 0x1 PUSH1 0xA0 SHL SUB AND CALLER EQ PUSH2 0x28F1 JUMP JUMPDEST POP DUP1 SLOAD PUSH1 0x1 PUSH1 0x1 PUSH1 0xA0 SHL SUB AND CALLER EQ PUSH2 0x28EA JUMP JUMPDEST POP CALLVALUE PUSH2 0x598 JUMPI PUSH2 0x2F20 CALLDATASIZE PUSH2 0x5722 JUMP JUMPDEST DUP4 DUP6 SWAP5 SWAP4 SWAP3 SWAP5 MSTORE PUSH1 0x4 PUSH1 0x20 MSTORE PUSH1 0x40 DUP6 KECCAK256 SWAP1 PUSH1 0x1 DUP3 ADD SWAP5 PUSH2 0x2F4A PUSH1 0x1 DUP1 PUSH1 0xA0 SHL SUB DUP8 SLOAD AND CALLER EQ PUSH2 0x5C04 JUMP JUMPDEST DUP7 PUSH20 0x0 DUP1 EXTCODESIZE ISZERO PUSH2 0x614 JUMPI DUP2 PUSH1 0x40 MLOAD DUP1 SWAP3 PUSH4 0x252A867 PUSH1 0xE5 SHL DUP3 MSTORE DUP2 DUP1 PUSH2 0x2F86 DUP11 PUSH1 0x4 DUP4 ADD PUSH2 0x5D5D JUMP JUMPDEST SUB SWAP2 GAS DELEGATECALL DUP1 ISZERO PUSH2 0x609 JUMPI PUSH2 0x329D JUMPI JUMPDEST POP POP PUSH1 0x2 DUP4 ADD SWAP7 PUSH2 0x2FAD PUSH1 0xFF DUP10 SLOAD PUSH1 0xB0 SHR AND ISZERO PUSH2 0x5E42 JUMP JUMPDEST CALLER DUP2 MSTORE PUSH1 0x1 PUSH1 0x20 MSTORE PUSH1 0x40 DUP2 KECCAK256 PUSH1 0x1 DUP1 PUSH1 0xA0 SHL SUB DUP7 AND PUSH0 MSTORE PUSH1 0x20 MSTORE PUSH2 0x2FD7 DUP3 PUSH1 0x40 PUSH0 KECCAK256 SLOAD LT ISZERO PUSH2 0x5915 JUMP JUMPDEST PUSH2 0x2FE2 DUP3 DUP7 CALLER PUSH2 0x64F2 JUMP JUMPDEST POP DUP3 PUSH2 0x3282 JUMPI JUMPDEST CALLER DUP2 MSTORE PUSH1 0x1 PUSH1 0x20 MSTORE PUSH1 0x40 DUP2 KECCAK256 PUSH1 0x1 DUP1 PUSH1 0xA0 SHL SUB DUP7 AND PUSH0 MSTORE PUSH1 0x20 MSTORE PUSH1 0x40 PUSH0 KECCAK256 SLOAD DUP3 DUP2 LT PUSH2 0x3099 JUMPI JUMPDEST POP POP SWAP1 DUP2 DUP5 PUSH2 0x3031 PUSH1 0x20 SWAP6 SWAP5 PUSH0 MLOAD PUSH1 0x20 PUSH2 0x6905 PUSH0 CODECOPY PUSH0 MLOAD SWAP1 PUSH0 MSTORE SWAP8 CALLER PUSH2 0x64F2 JUMP JUMPDEST POP DUP9 SLOAD PUSH1 0xFF PUSH1 0xB0 SHL NOT AND PUSH1 0x1 PUSH1 0xB0 SHL OR DUP10 SSTORE PUSH1 0xA DUP5 ADD DUP1 SLOAD PUSH1 0x1 PUSH1 0x1 PUSH1 0xA0 SHL SUB NOT AND PUSH1 0x1 PUSH1 0x1 PUSH1 0xA0 SHL SUB SWAP3 DUP4 AND OR SWAP1 SSTORE PUSH1 0x4 DUP5 ADD DUP3 SWAP1 SSTORE PUSH1 0x6 DUP5 ADD SWAP2 SWAP1 SWAP2 SSTORE PUSH1 0x8 DUP4 ADD SWAP2 SWAP1 SWAP2 SSTORE SWAP1 SLOAD SWAP5 SLOAD SWAP6 SLOAD PUSH1 0x40 MLOAD SWAP1 DUP3 AND DUP2 MSTORE SWAP6 DUP2 AND SWAP6 SWAP5 AND SWAP4 LOG4 PUSH1 0x20 PUSH1 0x40 MLOAD PUSH1 0x1 DUP2 MSTORE RETURN JUMPDEST PUSH2 0x30A7 SWAP1 DUP4 SWAP3 SWAP6 SWAP5 SWAP4 PUSH2 0x5CC9 JUMP JUMPDEST SWAP5 PUSH2 0x30B8 PUSH1 0xFF DUP7 SLOAD PUSH1 0xA0 SHR AND PUSH2 0x58E4 JUMP JUMPDEST PUSH2 0x30C3 DUP7 ISZERO ISZERO PUSH2 0x5EB1 JUMP JUMPDEST PUSH1 0x2 SLOAD SWAP5 PUSH1 0x40 MLOAD SWAP6 PUSH4 0x1C8F0847 PUSH1 0xE0 SHL DUP8 MSTORE DUP8 PUSH1 0x4 DUP9 ADD MSTORE PUSH1 0x24 DUP8 ADD MSTORE PUSH1 0x20 DUP7 PUSH1 0x44 DUP2 PUSH20 0x0 GAS DELEGATECALL SWAP6 DUP7 ISZERO PUSH2 0x5E7 JUMPI DUP2 SWAP7 PUSH2 0x324E JUMPI JUMPDEST POP PUSH1 0x1 PUSH1 0x1 PUSH1 0xA0 SHL SUB DUP3 AND SWAP1 DUP2 PUSH2 0x318C JUMPI POP PUSH2 0x3127 DUP7 DUP9 PUSH2 0x5F4A JUMP JUMPDEST PUSH2 0x496 JUMPI DUP7 PUSH1 0x20 SWAP7 PUSH2 0x3148 PUSH0 MLOAD PUSH1 0x20 PUSH2 0x6905 PUSH0 CODECOPY PUSH0 MLOAD SWAP1 PUSH0 MSTORE SWAP10 DUP6 CALLER PUSH2 0x6696 JUMP JUMPDEST POP PUSH1 0x3 SLOAD PUSH2 0x3162 SWAP1 DUP3 SWAP1 DUP7 SWAP1 PUSH1 0x1 PUSH1 0x1 PUSH1 0xA0 SHL SUB AND PUSH2 0x6696 JUMP JUMPDEST POP JUMPDEST PUSH1 0x40 MLOAD SWAP2 DUP3 MSTORE DUP8 DUP3 ADD MSTORE PUSH0 MLOAD PUSH1 0x20 PUSH2 0x68E5 PUSH0 CODECOPY PUSH0 MLOAD SWAP1 PUSH0 MSTORE PUSH1 0x40 CALLER SWAP3 LOG3 SWAP5 DUP2 SWAP3 SWAP4 SWAP5 POP PUSH2 0x3010 JUMP JUMPDEST PUSH2 0x3196 DUP8 DUP10 PUSH2 0x5F4A JUMP JUMPDEST PUSH1 0x40 MLOAD SWAP1 PUSH4 0x23B872DD PUSH1 0xE0 SHL DUP3 MSTORE CALLER PUSH1 0x4 DUP4 ADD MSTORE ADDRESS PUSH1 0x24 DUP4 ADD MSTORE PUSH1 0x44 DUP3 ADD MSTORE PUSH1 0x20 DUP2 PUSH1 0x64 DUP2 DUP6 DUP8 GAS CALL SWAP2 DUP3 ISZERO PUSH2 0x5A3 JUMPI DUP1 SWAP3 PUSH2 0x3211 JUMPI JUMPDEST POP POP ISZERO PUSH2 0x539 JUMPI DUP7 PUSH1 0x20 SWAP7 PUSH2 0x31F1 PUSH0 MLOAD PUSH1 0x20 PUSH2 0x6905 PUSH0 CODECOPY PUSH0 MLOAD SWAP1 PUSH0 MSTORE SWAP10 DUP6 CALLER PUSH2 0x6696 JUMP JUMPDEST POP PUSH1 0x3 SLOAD PUSH2 0x320B SWAP1 DUP3 SWAP1 DUP7 SWAP1 PUSH1 0x1 PUSH1 0x1 PUSH1 0xA0 SHL SUB AND PUSH2 0x6696 JUMP JUMPDEST POP PUSH2 0x3164 JUMP JUMPDEST SWAP1 SWAP2 POP PUSH1 0x20 DUP3 RETURNDATASIZE PUSH1 0x20 GT PUSH2 0x3246 JUMPI JUMPDEST DUP2 PUSH2 0x322D PUSH1 0x20 SWAP4 DUP4 PUSH2 0x59AC JUMP JUMPDEST DUP2 ADD SUB SLT PUSH2 0x598 JUMPI POP PUSH2 0x323F SWAP1 PUSH2 0x59E1 JUMP JUMPDEST PUSH0 DUP1 PUSH2 0x31CD JUMP JUMPDEST RETURNDATASIZE SWAP2 POP PUSH2 0x3220 JUMP JUMPDEST SWAP1 SWAP6 POP PUSH1 0x20 DUP2 RETURNDATASIZE PUSH1 0x20 GT PUSH2 0x327A JUMPI JUMPDEST DUP2 PUSH2 0x326A PUSH1 0x20 SWAP4 DUP4 PUSH2 0x59AC JUMP JUMPDEST DUP2 ADD SUB SLT PUSH2 0x5DB JUMPI MLOAD SWAP5 PUSH0 PUSH2 0x310B JUMP JUMPDEST RETURNDATASIZE SWAP2 POP PUSH2 0x325D JUMP JUMPDEST DUP8 SLOAD PUSH2 0x3298 SWAP1 PUSH1 0x1 PUSH1 0x1 PUSH1 0xA0 SHL SUB AND ISZERO ISZERO PUSH2 0x5C97 JUMP JUMPDEST PUSH2 0x2FE9 JUMP JUMPDEST DUP2 PUSH2 0x32A7 SWAP2 PUSH2 0x59AC JUMP JUMPDEST PUSH2 0x32B2 JUMPI DUP7 PUSH0 PUSH2 0x2F95 JUMP JUMPDEST DUP7 DUP1 REVERT JUMPDEST POP CALLVALUE PUSH2 0x598 JUMPI PUSH1 0x20 PUSH2 0x9D4 PUSH2 0x32CA CALLDATASIZE PUSH2 0x58C5 JUMP JUMPDEST SWAP1 PUSH2 0x5FED JUMP JUMPDEST POP CALLVALUE PUSH2 0x598 JUMPI PUSH1 0x20 CALLDATASIZE PUSH1 0x3 NOT ADD SLT PUSH2 0x598 JUMPI PUSH1 0x40 PUSH1 0xA0 SWAP2 PUSH1 0x4 CALLDATALOAD DUP2 MSTORE PUSH1 0xA PUSH1 0x20 MSTORE KECCAK256 PUSH1 0xFF PUSH1 0x1 DUP3 SLOAD SWAP3 ADD SLOAD PUSH1 0x40 MLOAD SWAP3 DUP4 MSTORE PUSH1 0x1 DUP1 DUP6 SHL SUB DUP2 AND PUSH1 0x20 DUP5 ADD MSTORE DUP2 DUP2 DUP6 SHR AND ISZERO ISZERO PUSH1 0x40 DUP5 ADD MSTORE DUP2 DUP2 PUSH1 0xA8 SHR AND ISZERO ISZERO PUSH1 0x60 DUP5 ADD MSTORE PUSH1 0xB0 SHR AND ISZERO ISZERO PUSH1 0x80 DUP3 ADD MSTORE RETURN JUMPDEST POP CALLVALUE PUSH2 0x598 JUMPI PUSH1 0x20 CALLDATASIZE PUSH1 0x3 NOT ADD SLT PUSH2 0x598 JUMPI PUSH1 0x4 CALLDATALOAD DUP1 DUP3 MSTORE PUSH1 0x4 PUSH1 0x20 MSTORE PUSH1 0x40 DUP3 KECCAK256 PUSH1 0x1 DUP1 PUSH1 0xA0 SHL SUB DUP2 SLOAD AND CALLER EQ DUP1 ISZERO PUSH2 0x363A JUMPI JUMPDEST PUSH2 0x3371 SWAP1 PUSH2 0x5C04 JUMP JUMPDEST DUP3 PUSH20 0x0 DUP1 EXTCODESIZE ISZERO PUSH2 0x614 JUMPI DUP2 PUSH1 0x40 MLOAD DUP1 SWAP3 PUSH4 0x252A867 PUSH1 0xE5 SHL DUP3 MSTORE DUP2 DUP1 PUSH2 0x33AD DUP9 PUSH1 0x4 DUP4 ADD PUSH2 0x5D5D JUMP JUMPDEST SUB SWAP2 GAS DELEGATECALL DUP1 ISZERO PUSH2 0x609 JUMPI PUSH2 0x3625 JUMPI JUMPDEST POP POP PUSH1 0x5 DUP2 ADD SLOAD PUSH1 0x9 DUP3 ADD SLOAD PUSH1 0x6 DUP4 ADD SLOAD PUSH1 0xA DUP5 ADD SLOAD PUSH1 0x7 DUP6 ADD SLOAD PUSH1 0x8 DUP7 ADD SLOAD PUSH1 0x40 MLOAD PUSH4 0x1C8F0847 PUSH1 0xE0 SHL DUP2 MSTORE PUSH1 0x4 DUP2 ADD DUP8 SWAP1 MSTORE PUSH1 0x24 DUP2 ADD SWAP3 SWAP1 SWAP3 MSTORE PUSH1 0x1 PUSH1 0x1 PUSH1 0xA0 SHL SUB SWAP5 DUP6 AND SWAP7 SWAP4 SWAP6 PUSH20 0x0 SWAP6 SWAP1 SWAP4 AND SWAP4 SWAP1 PUSH1 0x20 DUP4 PUSH1 0x44 DUP2 DUP10 GAS DELEGATECALL SWAP3 DUP4 ISZERO PUSH2 0x8AA JUMPI DUP11 SWAP4 PUSH2 0x35F0 JUMPI JUMPDEST POP PUSH1 0x20 SWAP1 PUSH1 0x44 PUSH1 0x40 MLOAD DUP1 SWAP9 DUP2 SWAP4 PUSH4 0x1C8F0847 PUSH1 0xE0 SHL DUP4 MSTORE DUP12 PUSH1 0x4 DUP5 ADD MSTORE PUSH1 0x24 DUP4 ADD MSTORE GAS DELEGATECALL SWAP5 DUP6 ISZERO PUSH2 0x35E5 JUMPI DUP9 SWAP10 SWAP9 SWAP8 SWAP9 SWAP6 PUSH2 0x35AA JUMPI JUMPDEST POP PUSH1 0x1 DUP2 ADD DUP1 SLOAD SWAP1 SWAP5 DUP9 SWAP5 SWAP4 SWAP3 SWAP2 PUSH1 0x1 PUSH1 0x1 PUSH1 0xA0 SHL SUB AND DUP11 PUSH2 0x3490 DUP6 DUP8 PUSH2 0x5CC9 JUMP JUMPDEST SWAP1 PUSH2 0x349A SWAP3 PUSH2 0x6696 JUMP JUMPDEST POP PUSH1 0x2 DUP3 ADD DUP1 SLOAD SWAP1 SWAP11 PUSH2 0x34B8 SWAP2 DUP6 SWAP2 SWAP1 PUSH1 0x1 PUSH1 0x1 PUSH1 0xA0 SHL SUB AND PUSH2 0x6696 JUMP JUMPDEST POP DUP2 SLOAD PUSH1 0x1 PUSH1 0x1 PUSH1 0xA0 SHL SUB AND DUP2 PUSH2 0x34CF DUP11 DUP1 PUSH2 0x5CC9 JUMP JUMPDEST SWAP1 PUSH2 0x34D9 SWAP3 PUSH2 0x6696 JUMP JUMPDEST POP DUP10 SLOAD PUSH2 0x34F0 SWAP2 DUP9 SWAP2 PUSH1 0x1 PUSH1 0x1 PUSH1 0xA0 SHL SUB AND PUSH2 0x6696 JUMP JUMPDEST POP SLOAD SWAP4 SLOAD SWAP8 SLOAD PUSH1 0x40 MLOAD PUSH1 0x1 PUSH1 0x1 PUSH1 0xA0 SHL SUB SWAP10 DUP11 AND SWAP11 SWAP6 DUP11 AND SWAP10 SWAP1 SWAP2 AND SWAP7 DUP11 SWAP7 DUP11 SWAP7 DUP9 SWAP4 DUP9 SWAP4 SWAP2 SWAP3 SWAP1 SWAP2 DUP3 SWAP2 PUSH2 0x3527 SWAP2 CALLER DUP15 DUP6 PUSH2 0x5CD6 JUMP JUMPDEST SUB PUSH0 MLOAD PUSH1 0x20 PUSH2 0x6725 PUSH0 CODECOPY PUSH0 MLOAD SWAP1 PUSH0 MSTORE SWAP2 LOG4 PUSH1 0x40 MLOAD SWAP2 DUP3 SWAP2 PUSH2 0x354A SWAP2 CALLER DUP10 DUP6 PUSH2 0x5CD6 JUMP JUMPDEST SUB PUSH0 MLOAD PUSH1 0x20 PUSH2 0x68C5 PUSH0 CODECOPY PUSH0 MLOAD SWAP1 PUSH0 MSTORE SWAP2 LOG4 PUSH1 0x40 MLOAD DUP1 SWAP2 CALLER PUSH2 0x356B SWAP2 DUP4 PUSH2 0x5D43 JUMP JUMPDEST SUB PUSH32 0xFAEE379435B6A0C297F1A08C66517FDC202DEBC6D275E6DD73630E3EBD1BDD97 SWAP2 LOG4 PUSH1 0x6 SLOAD PUSH2 0x359B SWAP1 PUSH2 0x5B73 JUMP JUMPDEST PUSH1 0x6 SSTORE PUSH1 0x40 MLOAD PUSH1 0x1 DUP2 MSTORE PUSH1 0x20 SWAP1 RETURN JUMPDEST SWAP3 SWAP2 SWAP7 POP SWAP4 POP PUSH1 0x20 DUP3 RETURNDATASIZE PUSH1 0x20 GT PUSH2 0x35DD JUMPI JUMPDEST DUP2 PUSH2 0x35C9 PUSH1 0x20 SWAP4 DUP4 PUSH2 0x59AC JUMP JUMPDEST DUP2 ADD SUB SLT PUSH2 0x5DB JUMPI SWAP1 MLOAD DUP8 SWAP6 SWAP1 SWAP4 DUP7 PUSH2 0x346E JUMP JUMPDEST RETURNDATASIZE SWAP2 POP PUSH2 0x35BC JUMP JUMPDEST PUSH1 0x40 MLOAD RETURNDATASIZE DUP12 DUP3 RETURNDATACOPY RETURNDATASIZE SWAP1 REVERT JUMPDEST SWAP1 SWAP3 POP PUSH1 0x20 DUP2 RETURNDATASIZE PUSH1 0x20 GT PUSH2 0x361D JUMPI JUMPDEST DUP2 PUSH2 0x360C PUSH1 0x20 SWAP4 DUP4 PUSH2 0x59AC JUMP JUMPDEST DUP2 ADD SUB SLT PUSH2 0x5DB JUMPI MLOAD SWAP2 PUSH1 0x20 PUSH2 0x3438 JUMP JUMPDEST RETURNDATASIZE SWAP2 POP PUSH2 0x35FF JUMP JUMPDEST DUP2 PUSH2 0x362F SWAP2 PUSH2 0x59AC JUMP JUMPDEST PUSH2 0xC1D JUMPI DUP3 PUSH0 PUSH2 0x33BC JUMP JUMPDEST POP PUSH1 0x2 DUP2 ADD SLOAD PUSH1 0x1 PUSH1 0x1 PUSH1 0xA0 SHL SUB AND CALLER EQ PUSH2 0x3368 JUMP JUMPDEST POP CALLVALUE PUSH2 0x598 JUMPI PUSH1 0x20 CALLDATASIZE PUSH1 0x3 NOT ADD SLT PUSH2 0x598 JUMPI PUSH1 0x40 DUP2 PUSH2 0x220 SWAP3 PUSH2 0x200 DUP4 MLOAD PUSH2 0x3677 DUP2 PUSH2 0x5975 JUMP JUMPDEST DUP3 DUP2 MSTORE DUP3 PUSH1 0x20 DUP3 ADD MSTORE DUP3 DUP6 DUP3 ADD MSTORE DUP3 PUSH1 0x60 DUP3 ADD MSTORE DUP3 PUSH1 0x80 DUP3 ADD MSTORE DUP3 PUSH1 0xA0 DUP3 ADD MSTORE DUP3 PUSH1 0xC0 DUP3 ADD MSTORE DUP3 PUSH1 0xE0 DUP3 ADD MSTORE DUP3 PUSH2 0x100 DUP3 ADD MSTORE DUP3 PUSH2 0x120 DUP3 ADD MSTORE DUP3 PUSH2 0x140 DUP3 ADD MSTORE DUP3 PUSH2 0x160 DUP3 ADD MSTORE DUP3 PUSH2 0x180 DUP3 ADD MSTORE DUP3 PUSH2 0x1A0 DUP3 ADD MSTORE DUP3 PUSH2 0x1C0 DUP3 ADD MSTORE DUP3 PUSH2 0x1E0 DUP3 ADD MSTORE ADD MSTORE PUSH1 0x4 CALLDATALOAD DUP2 MSTORE PUSH1 0x4 PUSH1 0x20 MSTORE KECCAK256 PUSH2 0x37CB PUSH1 0xFF PUSH1 0xC PUSH1 0x40 MLOAD SWAP4 PUSH2 0x36FC DUP6 PUSH2 0x5975 JUMP JUMPDEST DUP1 SLOAD PUSH1 0x1 PUSH1 0x1 PUSH1 0xA0 SHL SUB SWAP1 DUP2 AND DUP7 MSTORE PUSH1 0x1 DUP3 ADD SLOAD DUP2 AND PUSH1 0x20 DUP8 ADD MSTORE PUSH1 0x2 DUP3 ADD SLOAD DUP1 DUP3 AND PUSH1 0x40 DUP9 ADD MSTORE PUSH1 0xA0 DUP2 DUP2 SHR DUP7 AND ISZERO ISZERO PUSH1 0x60 DUP10 ADD MSTORE PUSH1 0xA8 DUP3 SWAP1 SHR DUP7 AND ISZERO ISZERO PUSH1 0x80 DUP10 ADD MSTORE PUSH1 0xB0 DUP3 SWAP1 SHR DUP7 AND ISZERO ISZERO SWAP1 DUP9 ADD MSTORE PUSH1 0xB8 SHR DUP5 AND ISZERO ISZERO PUSH1 0xC0 DUP8 ADD MSTORE PUSH1 0x3 DUP3 ADD SLOAD PUSH1 0xE0 DUP8 ADD MSTORE PUSH1 0x4 DUP3 ADD SLOAD PUSH2 0x100 DUP8 ADD MSTORE PUSH1 0x5 DUP3 ADD SLOAD PUSH2 0x120 DUP8 ADD MSTORE PUSH1 0x6 DUP3 ADD SLOAD PUSH2 0x140 DUP8 ADD MSTORE PUSH1 0x7 DUP3 ADD SLOAD PUSH2 0x160 DUP8 ADD MSTORE PUSH1 0x8 DUP3 ADD SLOAD PUSH2 0x180 DUP8 ADD MSTORE PUSH1 0x9 DUP3 ADD SLOAD DUP2 AND PUSH2 0x1A0 DUP8 ADD MSTORE PUSH1 0xA DUP3 ADD SLOAD AND PUSH2 0x1C0 DUP7 ADD MSTORE PUSH1 0xB DUP2 ADD SLOAD PUSH2 0x1E0 DUP7 ADD MSTORE ADD SLOAD AND PUSH2 0x200 DUP4 ADD PUSH2 0x5E74 JUMP JUMPDEST PUSH2 0x37D8 PUSH1 0x40 MLOAD DUP1 SWAP3 PUSH2 0x57D6 JUMP JUMPDEST RETURN JUMPDEST POP CALLVALUE PUSH2 0x598 JUMPI PUSH2 0x37E9 CALLDATASIZE PUSH2 0x5750 JUMP JUMPDEST SWAP1 DUP1 DUP4 MSTORE PUSH1 0x4 PUSH1 0x20 MSTORE PUSH1 0x40 DUP4 KECCAK256 SWAP3 PUSH1 0x1 DUP5 ADD SWAP3 PUSH1 0x1 DUP1 PUSH1 0xA0 SHL SUB DUP5 SLOAD AND CALLER EQ DUP1 ISZERO PUSH2 0x394E JUMPI JUMPDEST PUSH2 0x3818 SWAP1 PUSH2 0x5C04 JUMP JUMPDEST PUSH20 0x0 DUP1 EXTCODESIZE ISZERO PUSH2 0xC1D JUMPI DUP3 PUSH1 0x40 MLOAD DUP1 SWAP3 PUSH4 0x252A867 PUSH1 0xE5 SHL DUP3 MSTORE DUP2 DUP1 PUSH2 0x3853 DUP12 PUSH1 0x4 DUP4 ADD PUSH2 0x5D5D JUMP JUMPDEST SUB SWAP2 GAS DELEGATECALL DUP1 ISZERO PUSH2 0xC12 JUMPI SWAP1 DUP4 SWAP2 PUSH2 0x3939 JUMPI JUMPDEST POP POP PUSH1 0x5 DUP6 ADD PUSH2 0x387C DUP3 DUP3 SLOAD PUSH2 0xAF3 DUP3 DUP3 LT PUSH2 0x5915 JUMP JUMPDEST SWAP1 SSTORE PUSH1 0x1 DUP1 PUSH1 0xA0 SHL SUB PUSH1 0x9 DUP7 ADD SLOAD AND SWAP5 PUSH1 0x7 DUP2 ADD SLOAD PUSH1 0x40 MLOAD SWAP1 PUSH4 0x1C8F0847 PUSH1 0xE0 SHL DUP3 MSTORE DUP4 PUSH1 0x4 DUP4 ADD MSTORE PUSH1 0x24 DUP3 ADD MSTORE PUSH1 0x20 DUP2 PUSH1 0x44 DUP2 PUSH20 0x0 GAS DELEGATECALL SWAP4 DUP5 ISZERO PUSH2 0x5A3 JUMPI SWAP4 PUSH2 0x3903 JUMPI JUMPDEST POP DUP1 SLOAD PUSH0 MLOAD PUSH1 0x20 PUSH2 0x6885 PUSH0 CODECOPY PUSH0 MLOAD SWAP1 PUSH0 MSTORE SWAP4 SWAP2 PUSH2 0x3B1 SWAP2 PUSH2 0x27AE SWAP1 PUSH1 0x1 PUSH1 0x1 PUSH1 0xA0 SHL SUB AND DUP10 PUSH2 0x27A8 DUP7 DUP9 PUSH2 0x5CC9 JUMP JUMPDEST SWAP3 POP PUSH1 0x20 DUP4 RETURNDATASIZE PUSH1 0x20 GT PUSH2 0x3931 JUMPI JUMPDEST DUP2 PUSH2 0x391E PUSH1 0x20 SWAP4 DUP4 PUSH2 0x59AC JUMP JUMPDEST DUP2 ADD SUB SLT PUSH2 0x5DB JUMPI SWAP2 MLOAD SWAP2 PUSH2 0x3B1 PUSH2 0x38D4 JUMP JUMPDEST RETURNDATASIZE SWAP2 POP PUSH2 0x3911 JUMP JUMPDEST DUP2 PUSH2 0x3943 SWAP2 PUSH2 0x59AC JUMP JUMPDEST PUSH2 0x614 JUMPI DUP2 PUSH0 PUSH2 0x3865 JUMP JUMPDEST POP PUSH1 0x2 DUP6 ADD SLOAD PUSH1 0x1 PUSH1 0x1 PUSH1 0xA0 SHL SUB AND CALLER EQ PUSH2 0x380F JUMP JUMPDEST POP CALLVALUE PUSH2 0x598 JUMPI PUSH2 0x3973 CALLDATASIZE PUSH2 0x5750 JUMP JUMPDEST SWAP2 SWAP1 DUP1 DUP3 MSTORE PUSH1 0x4 PUSH1 0x20 MSTORE PUSH1 0x40 DUP3 KECCAK256 SWAP2 PUSH1 0x1 DUP1 PUSH1 0xA0 SHL SUB DUP4 SLOAD AND CALLER EQ DUP1 ISZERO PUSH2 0x3AE3 JUMPI JUMPDEST PUSH2 0x399E SWAP1 PUSH2 0x5C04 JUMP JUMPDEST PUSH20 0x0 DUP1 EXTCODESIZE ISZERO PUSH2 0x614 JUMPI DUP2 PUSH1 0x40 MLOAD DUP1 SWAP3 PUSH4 0x252A867 PUSH1 0xE5 SHL DUP3 MSTORE DUP2 DUP1 PUSH2 0x39D9 DUP10 PUSH1 0x4 DUP4 ADD PUSH2 0x5D5D JUMP JUMPDEST SUB SWAP2 GAS DELEGATECALL DUP1 ISZERO PUSH2 0x609 JUMPI SWAP1 DUP3 SWAP2 PUSH2 0x3ACE JUMPI JUMPDEST POP POP PUSH1 0x5 DUP4 ADD PUSH2 0x3A02 DUP6 DUP3 SLOAD PUSH2 0xAF3 DUP3 DUP3 LT PUSH2 0x5915 JUMP JUMPDEST SWAP1 SSTORE PUSH1 0x1 DUP1 PUSH1 0xA0 SHL SUB PUSH1 0x9 DUP5 ADD SLOAD AND SWAP4 PUSH1 0x7 DUP5 ADD SLOAD SWAP2 PUSH1 0x40 MLOAD SWAP3 PUSH4 0x1C8F0847 PUSH1 0xE0 SHL DUP5 MSTORE DUP3 PUSH1 0x4 DUP6 ADD MSTORE PUSH1 0x24 DUP5 ADD MSTORE PUSH1 0x20 DUP4 PUSH1 0x44 DUP2 PUSH20 0x0 GAS DELEGATECALL SWAP1 DUP2 ISZERO PUSH2 0x5A3 JUMPI SWAP1 PUSH2 0x3A8F JUMPI JUMPDEST PUSH1 0x1 DUP6 ADD DUP1 SLOAD SWAP1 SWAP6 PUSH0 MLOAD PUSH1 0x20 PUSH2 0x68C5 PUSH0 CODECOPY PUSH0 MLOAD SWAP1 PUSH0 MSTORE SWAP5 POP PUSH2 0x3B1 SWAP2 PUSH2 0xB85 SWAP1 PUSH1 0x1 PUSH1 0x1 PUSH1 0xA0 SHL SUB AND DUP10 PUSH2 0xB7F DUP7 DUP9 PUSH2 0x5CC9 JUMP JUMPDEST POP PUSH1 0x20 DUP3 RETURNDATASIZE PUSH1 0x20 GT PUSH2 0x3AC6 JUMPI JUMPDEST DUP2 PUSH2 0x3AA9 PUSH1 0x20 SWAP4 DUP4 PUSH2 0x59AC JUMP JUMPDEST DUP2 ADD SUB SLT PUSH2 0x5DB JUMPI PUSH0 MLOAD PUSH1 0x20 PUSH2 0x68C5 PUSH0 CODECOPY PUSH0 MLOAD SWAP1 PUSH0 MSTORE SWAP2 MLOAD PUSH2 0x3A5B JUMP JUMPDEST RETURNDATASIZE SWAP2 POP PUSH2 0x3A9C JUMP JUMPDEST DUP2 PUSH2 0x3AD8 SWAP2 PUSH2 0x59AC JUMP JUMPDEST PUSH2 0x598 JUMPI DUP1 PUSH0 PUSH2 0x39EB JUMP JUMPDEST POP PUSH1 0x2 DUP4 ADD SLOAD PUSH1 0x1 PUSH1 0x1 PUSH1 0xA0 SHL SUB AND CALLER EQ PUSH2 0x3995 JUMP JUMPDEST POP PUSH1 0x40 CALLDATASIZE PUSH1 0x3 NOT ADD SLT PUSH2 0x598 JUMPI PUSH2 0x3B0E PUSH2 0x568A JUMP JUMPDEST PUSH1 0x24 CALLDATALOAD PUSH2 0x3B21 PUSH1 0xFF DUP5 SLOAD PUSH1 0xA0 SHR AND PUSH2 0x58E4 JUMP JUMPDEST PUSH2 0x3B2C DUP2 ISZERO ISZERO PUSH2 0x5EB1 JUMP JUMPDEST PUSH1 0x2 SLOAD PUSH1 0x40 MLOAD SWAP1 PUSH4 0x1C8F0847 PUSH1 0xE0 SHL DUP3 MSTORE DUP3 PUSH1 0x4 DUP4 ADD MSTORE PUSH1 0x24 DUP3 ADD MSTORE PUSH1 0x20 DUP2 PUSH1 0x44 DUP2 PUSH20 0x0 GAS DELEGATECALL SWAP1 DUP2 ISZERO PUSH2 0x3CB1 JUMPI DUP5 SWAP2 PUSH2 0x3C7F JUMPI JUMPDEST POP PUSH1 0x1 PUSH1 0x1 PUSH1 0xA0 SHL SUB DUP4 AND SWAP3 DUP4 PUSH2 0x3BD9 JUMPI PUSH2 0x3B8E DUP3 DUP5 PUSH2 0x5F4A JUMP JUMPDEST CALLVALUE SUB PUSH2 0x496 JUMPI DUP2 DUP2 PUSH2 0x3BA4 DUP6 PUSH2 0x3BB6 SWAP5 CALLER PUSH2 0x6696 JUMP JUMPDEST POP PUSH1 0x3 SLOAD PUSH1 0x1 PUSH1 0x1 PUSH1 0xA0 SHL SUB AND PUSH2 0x6696 JUMP JUMPDEST POP JUMPDEST PUSH1 0x40 MLOAD SWAP2 DUP3 MSTORE PUSH1 0x20 DUP3 ADD MSTORE PUSH0 MLOAD PUSH1 0x20 PUSH2 0x68E5 PUSH0 CODECOPY PUSH0 MLOAD SWAP1 PUSH0 MSTORE PUSH1 0x40 CALLER SWAP3 LOG3 DUP1 RETURN JUMPDEST PUSH2 0x3BE3 DUP3 DUP5 PUSH2 0x5F4A JUMP JUMPDEST PUSH1 0x40 MLOAD SWAP1 PUSH4 0x23B872DD PUSH1 0xE0 SHL DUP3 MSTORE CALLER PUSH1 0x4 DUP4 ADD MSTORE ADDRESS PUSH1 0x24 DUP4 ADD MSTORE PUSH1 0x44 DUP3 ADD MSTORE PUSH1 0x20 DUP2 PUSH1 0x64 DUP2 DUP10 DUP10 GAS CALL SWAP1 DUP2 ISZERO PUSH2 0x3C74 JUMPI DUP7 SWAP2 PUSH2 0x3C36 JUMPI JUMPDEST POP ISZERO PUSH2 0x539 JUMPI DUP2 DUP2 PUSH2 0x3BA4 DUP6 PUSH2 0x3C30 SWAP5 CALLER PUSH2 0x6696 JUMP JUMPDEST POP PUSH2 0x3BB8 JUMP JUMPDEST SWAP1 POP PUSH1 0x20 DUP2 RETURNDATASIZE PUSH1 0x20 GT PUSH2 0x3C6C JUMPI JUMPDEST DUP2 PUSH2 0x3C51 PUSH1 0x20 SWAP4 DUP4 PUSH2 0x59AC JUMP JUMPDEST DUP2 ADD SUB SLT PUSH2 0x3C68 JUMPI PUSH2 0x3C62 SWAP1 PUSH2 0x59E1 JUMP JUMPDEST PUSH0 PUSH2 0x3C1A JUMP JUMPDEST DUP6 DUP1 REVERT JUMPDEST RETURNDATASIZE SWAP2 POP PUSH2 0x3C44 JUMP JUMPDEST PUSH1 0x40 MLOAD RETURNDATASIZE DUP9 DUP3 RETURNDATACOPY RETURNDATASIZE SWAP1 REVERT JUMPDEST SWAP1 POP PUSH1 0x20 DUP2 RETURNDATASIZE PUSH1 0x20 GT PUSH2 0x3CA9 JUMPI JUMPDEST DUP2 PUSH2 0x3C9A PUSH1 0x20 SWAP4 DUP4 PUSH2 0x59AC JUMP JUMPDEST DUP2 ADD SUB SLT PUSH2 0x5DB JUMPI MLOAD PUSH0 PUSH2 0x3B73 JUMP JUMPDEST RETURNDATASIZE SWAP2 POP PUSH2 0x3C8D JUMP JUMPDEST PUSH1 0x40 MLOAD RETURNDATASIZE DUP7 DUP3 RETURNDATACOPY RETURNDATASIZE SWAP1 REVERT JUMPDEST POP CALLVALUE PUSH2 0x598 JUMPI DUP1 PUSH1 0x3 NOT CALLDATASIZE ADD SLT PUSH2 0x598 JUMPI PUSH1 0xFF PUSH1 0x20 SWAP2 SLOAD PUSH1 0xA0 SHR AND PUSH1 0x40 MLOAD SWAP1 ISZERO ISZERO DUP2 MSTORE RETURN JUMPDEST POP CALLVALUE PUSH2 0x598 JUMPI PUSH1 0x20 CALLDATASIZE PUSH1 0x3 NOT ADD SLT PUSH2 0x598 JUMPI PUSH1 0x40 PUSH1 0x4 CALLDATALOAD SWAP2 DUP3 DUP2 MSTORE PUSH1 0x4 PUSH1 0x20 MSTORE KECCAK256 SWAP1 PUSH1 0x1 DUP3 ADD SWAP2 PUSH2 0x3D1C PUSH1 0x1 DUP1 PUSH1 0xA0 SHL SUB DUP5 SLOAD AND CALLER EQ PUSH2 0x5C04 JUMP JUMPDEST PUSH1 0x2 DUP2 ADD SWAP1 PUSH2 0x3D35 DUP3 SLOAD PUSH2 0x17FD PUSH1 0xFF DUP3 PUSH1 0xB0 SHR AND PUSH2 0x5F57 JUMP JUMPDEST PUSH1 0xA DUP2 ADD SLOAD PUSH2 0x1864 SWAP1 PUSH1 0x1 PUSH1 0x1 PUSH1 0xA0 SHL SUB AND PUSH2 0x3D51 DUP2 CALLER PUSH2 0x64C9 JUMP JUMPDEST SWAP1 PUSH2 0x15FA PUSH1 0x4 DUP6 ADD SLOAD DUP1 SWAP4 LT ISZERO PUSH2 0x5915 JUMP JUMPDEST POP CALLVALUE PUSH2 0x598 JUMPI PUSH2 0x3D72 CALLDATASIZE PUSH2 0x5750 JUMP JUMPDEST SWAP2 SWAP1 DUP1 DUP3 MSTORE PUSH1 0x4 PUSH1 0x20 MSTORE PUSH1 0x40 DUP3 KECCAK256 SWAP2 PUSH1 0x1 DUP1 PUSH1 0xA0 SHL SUB DUP4 SLOAD AND CALLER EQ DUP1 ISZERO PUSH2 0x3EE2 JUMPI JUMPDEST PUSH2 0x3D9D SWAP1 PUSH2 0x5C04 JUMP JUMPDEST PUSH20 0x0 DUP1 EXTCODESIZE ISZERO PUSH2 0x614 JUMPI DUP2 PUSH1 0x40 MLOAD DUP1 SWAP3 PUSH4 0x252A867 PUSH1 0xE5 SHL DUP3 MSTORE DUP2 DUP1 PUSH2 0x3DD8 DUP10 PUSH1 0x4 DUP4 ADD PUSH2 0x5D5D JUMP JUMPDEST SUB SWAP2 GAS DELEGATECALL DUP1 ISZERO PUSH2 0x609 JUMPI SWAP1 DUP3 SWAP2 PUSH2 0x3ECD JUMPI JUMPDEST POP POP PUSH1 0x5 DUP4 ADD PUSH2 0x3E01 DUP6 DUP3 SLOAD PUSH2 0xAF3 DUP3 DUP3 LT PUSH2 0x5915 JUMP JUMPDEST SWAP1 SSTORE PUSH1 0x1 DUP1 PUSH1 0xA0 SHL SUB PUSH1 0x9 DUP5 ADD SLOAD AND SWAP4 PUSH1 0x7 DUP5 ADD SLOAD SWAP2 PUSH1 0x40 MLOAD SWAP3 PUSH4 0x1C8F0847 PUSH1 0xE0 SHL DUP5 MSTORE DUP3 PUSH1 0x4 DUP6 ADD MSTORE PUSH1 0x24 DUP5 ADD MSTORE PUSH1 0x20 DUP4 PUSH1 0x44 DUP2 PUSH20 0x0 GAS DELEGATECALL SWAP1 DUP2 ISZERO PUSH2 0x5A3 JUMPI SWAP1 PUSH2 0x3E8E JUMPI JUMPDEST PUSH1 0x1 DUP6 ADD DUP1 SLOAD SWAP1 SWAP6 PUSH0 MLOAD PUSH1 0x20 PUSH2 0x68C5 PUSH0 CODECOPY PUSH0 MLOAD SWAP1 PUSH0 MSTORE SWAP5 POP PUSH2 0x3B1 SWAP2 PUSH2 0x27AE SWAP1 PUSH1 0x1 PUSH1 0x1 PUSH1 0xA0 SHL SUB AND DUP10 PUSH2 0x27A8 DUP7 DUP9 PUSH2 0x5CC9 JUMP JUMPDEST POP PUSH1 0x20 DUP3 RETURNDATASIZE PUSH1 0x20 GT PUSH2 0x3EC5 JUMPI JUMPDEST DUP2 PUSH2 0x3EA8 PUSH1 0x20 SWAP4 DUP4 PUSH2 0x59AC JUMP JUMPDEST DUP2 ADD SUB SLT PUSH2 0x5DB JUMPI PUSH0 MLOAD PUSH1 0x20 PUSH2 0x68C5 PUSH0 CODECOPY PUSH0 MLOAD SWAP1 PUSH0 MSTORE SWAP2 MLOAD PUSH2 0x3E5A JUMP JUMPDEST RETURNDATASIZE SWAP2 POP PUSH2 0x3E9B JUMP JUMPDEST DUP2 PUSH2 0x3ED7 SWAP2 PUSH2 0x59AC JUMP JUMPDEST PUSH2 0x598 JUMPI DUP1 PUSH0 PUSH2 0x3DEA JUMP JUMPDEST POP PUSH1 0x2 DUP4 ADD SLOAD PUSH1 0x1 PUSH1 0x1 PUSH1 0xA0 SHL SUB AND CALLER EQ PUSH2 0x3D94 JUMP JUMPDEST POP CALLVALUE PUSH2 0x598 JUMPI PUSH1 0x20 CALLDATASIZE PUSH1 0x3 NOT ADD SLT PUSH2 0x598 JUMPI PUSH1 0x4 CALLDATALOAD SWAP1 PUSH1 0x2 SLOAD PUSH1 0x40 MLOAD SWAP1 PUSH4 0x1C8F0847 PUSH1 0xE0 SHL DUP3 MSTORE DUP4 PUSH1 0x4 DUP4 ADD MSTORE PUSH1 0x24 DUP3 ADD MSTORE PUSH1 0x20 DUP2 PUSH1 0x44 DUP2 PUSH20 0x0 GAS DELEGATECALL SWAP2 DUP3 ISZERO PUSH2 0x5A3 JUMPI SWAP2 PUSH2 0x3F68 JUMPI JUMPDEST PUSH1 0x20 PUSH2 0x3F60 DUP4 DUP6 PUSH2 0x5F4A JUMP JUMPDEST PUSH1 0x40 MLOAD SWAP1 DUP2 MSTORE RETURN JUMPDEST SWAP1 POP PUSH1 0x20 DUP2 RETURNDATASIZE PUSH1 0x20 GT PUSH2 0x3F93 JUMPI JUMPDEST DUP2 PUSH2 0x3F83 PUSH1 0x20 SWAP4 DUP4 PUSH2 0x59AC JUMP JUMPDEST DUP2 ADD SUB SLT PUSH2 0x5DB JUMPI MLOAD PUSH1 0x20 PUSH2 0x3F54 JUMP JUMPDEST RETURNDATASIZE SWAP2 POP PUSH2 0x3F76 JUMP JUMPDEST POP CALLVALUE PUSH2 0x598 JUMPI DUP1 PUSH1 0x3 NOT CALLDATASIZE ADD SLT PUSH2 0x598 JUMPI PUSH2 0x3FB4 PUSH2 0x66DE JUMP JUMPDEST DUP1 SLOAD PUSH1 0xFF PUSH1 0xA0 SHL NOT AND PUSH1 0x1 PUSH1 0xA0 SHL OR DUP2 SSTORE PUSH1 0x40 MLOAD PUSH1 0x1 DUP2 MSTORE PUSH0 MLOAD PUSH1 0x20 PUSH2 0x67E5 PUSH0 CODECOPY PUSH0 MLOAD SWAP1 PUSH0 MSTORE SWAP1 PUSH1 0x20 SWAP1 LOG1 CALLER PUSH32 0xAE81C15A680E6640BA872CA44F364AD67C60A04089AD9FA100F7A3CE94DA9F68 DUP3 DUP1 LOG2 DUP1 RETURN JUMPDEST POP CALLVALUE PUSH2 0x598 JUMPI PUSH1 0x20 CALLDATASIZE PUSH1 0x3 NOT ADD SLT PUSH2 0x598 JUMPI PUSH1 0x4 CALLDATALOAD DUP1 DUP3 MSTORE PUSH1 0x4 PUSH1 0x20 MSTORE PUSH1 0x40 DUP3 KECCAK256 PUSH1 0x1 DUP1 PUSH1 0xA0 SHL SUB DUP2 SLOAD AND CALLER EQ DUP1 ISZERO PUSH2 0x4248 JUMPI JUMPDEST PUSH2 0x4044 SWAP1 PUSH2 0x5C04 JUMP JUMPDEST DUP3 PUSH20 0x0 DUP1 EXTCODESIZE ISZERO PUSH2 0x614 JUMPI DUP2 PUSH1 0x40 MLOAD DUP1 SWAP3 PUSH4 0x252A867 PUSH1 0xE5 SHL DUP3 MSTORE DUP2 DUP1 PUSH2 0x4080 DUP9 PUSH1 0x4 DUP4 ADD PUSH2 0x5D5D JUMP JUMPDEST SUB SWAP2 GAS DELEGATECALL DUP1 ISZERO PUSH2 0x609 JUMPI PUSH2 0x4233 JUMPI JUMPDEST POP POP PUSH1 0x5 DUP2 ADD SLOAD PUSH1 0x9 DUP3 ADD SLOAD PUSH1 0x6 DUP4 ADD SLOAD PUSH1 0xA DUP5 ADD SLOAD PUSH1 0x7 DUP6 ADD SLOAD PUSH1 0x8 DUP7 ADD SLOAD PUSH1 0x40 MLOAD PUSH4 0x1C8F0847 PUSH1 0xE0 SHL DUP2 MSTORE PUSH1 0x4 DUP2 ADD DUP8 SWAP1 MSTORE PUSH1 0x24 DUP2 ADD SWAP3 SWAP1 SWAP3 MSTORE PUSH1 0x1 PUSH1 0x1 PUSH1 0xA0 SHL SUB SWAP5 DUP6 AND SWAP7 SWAP4 SWAP6 PUSH20 0x0 SWAP6 SWAP1 SWAP4 AND SWAP4 SWAP1 PUSH1 0x20 DUP4 PUSH1 0x44 DUP2 DUP10 GAS DELEGATECALL SWAP3 DUP4 ISZERO PUSH2 0x8AA JUMPI DUP11 SWAP4 PUSH2 0x41FE JUMPI JUMPDEST POP PUSH1 0x20 SWAP1 PUSH1 0x44 PUSH1 0x40 MLOAD DUP1 SWAP9 DUP2 SWAP4 PUSH4 0x1C8F0847 PUSH1 0xE0 SHL DUP4 MSTORE DUP12 PUSH1 0x4 DUP5 ADD MSTORE PUSH1 0x24 DUP4 ADD MSTORE GAS DELEGATECALL SWAP5 DUP6 ISZERO PUSH2 0x35E5 JUMPI DUP9 SWAP10 SWAP9 SWAP8 SWAP9 SWAP6 PUSH2 0x41C3 JUMPI JUMPDEST POP PUSH1 0x1 DUP2 ADD DUP1 SLOAD SWAP1 SWAP5 DUP9 SWAP5 SWAP4 SWAP3 SWAP2 PUSH1 0x1 PUSH1 0x1 PUSH1 0xA0 SHL SUB AND DUP11 PUSH2 0x4163 DUP6 DUP8 PUSH2 0x5CC9 JUMP JUMPDEST SWAP1 PUSH2 0x416D SWAP3 PUSH2 0x6586 JUMP JUMPDEST POP PUSH1 0x2 DUP3 ADD DUP1 SLOAD SWAP1 SWAP11 PUSH2 0x418B SWAP2 DUP6 SWAP2 SWAP1 PUSH1 0x1 PUSH1 0x1 PUSH1 0xA0 SHL SUB AND PUSH2 0x6586 JUMP JUMPDEST POP DUP2 SLOAD PUSH1 0x1 PUSH1 0x1 PUSH1 0xA0 SHL SUB AND DUP2 PUSH2 0x41A2 DUP11 DUP1 PUSH2 0x5CC9 JUMP JUMPDEST SWAP1 PUSH2 0x41AC SWAP3 PUSH2 0x6586 JUMP JUMPDEST POP DUP10 SLOAD PUSH2 0x34F0 SWAP2 DUP9 SWAP2 PUSH1 0x1 PUSH1 0x1 PUSH1 0xA0 SHL SUB AND PUSH2 0x6586 JUMP JUMPDEST SWAP3 SWAP2 SWAP7 POP SWAP4 POP PUSH1 0x20 DUP3 RETURNDATASIZE PUSH1 0x20 GT PUSH2 0x41F6 JUMPI JUMPDEST DUP2 PUSH2 0x41E2 PUSH1 0x20 SWAP4 DUP4 PUSH2 0x59AC JUMP JUMPDEST DUP2 ADD SUB SLT PUSH2 0x5DB JUMPI SWAP1 MLOAD DUP8 SWAP6 SWAP1 SWAP4 DUP7 PUSH2 0x4141 JUMP JUMPDEST RETURNDATASIZE SWAP2 POP PUSH2 0x41D5 JUMP JUMPDEST SWAP1 SWAP3 POP PUSH1 0x20 DUP2 RETURNDATASIZE PUSH1 0x20 GT PUSH2 0x422B JUMPI JUMPDEST DUP2 PUSH2 0x421A PUSH1 0x20 SWAP4 DUP4 PUSH2 0x59AC JUMP JUMPDEST DUP2 ADD SUB SLT PUSH2 0x5DB JUMPI MLOAD SWAP2 PUSH1 0x20 PUSH2 0x410B JUMP JUMPDEST RETURNDATASIZE SWAP2 POP PUSH2 0x420D JUMP JUMPDEST DUP2 PUSH2 0x423D SWAP2 PUSH2 0x59AC JUMP JUMPDEST PUSH2 0xC1D JUMPI DUP3 PUSH0 PUSH2 0x408F JUMP JUMPDEST POP PUSH1 0x2 DUP2 ADD SLOAD PUSH1 0x1 PUSH1 0x1 PUSH1 0xA0 SHL SUB AND CALLER EQ PUSH2 0x403B JUMP JUMPDEST POP PUSH2 0x4268 CALLDATASIZE PUSH2 0x5766 JUMP JUMPDEST SWAP2 SWAP3 SWAP1 SWAP6 SWAP5 SWAP4 PUSH1 0xFF DUP9 SLOAD PUSH1 0xA0 SHR AND SWAP3 PUSH2 0x4280 DUP5 PUSH2 0x58E4 JUMP JUMPDEST CALLER DUP10 MSTORE PUSH1 0x1 PUSH1 0x20 MSTORE PUSH1 0x40 DUP10 KECCAK256 PUSH1 0x1 DUP1 PUSH1 0xA0 SHL SUB DUP7 AND PUSH0 MSTORE PUSH1 0x20 MSTORE PUSH1 0x40 PUSH0 KECCAK256 SLOAD DUP3 DUP2 LT PUSH2 0x4518 JUMPI JUMPDEST POP PUSH2 0x220 SWAP4 POP PUSH2 0x42F2 SWAP1 PUSH2 0x42BC DUP4 DUP8 CALLER PUSH2 0x64F2 JUMP JUMPDEST POP PUSH1 0x40 MLOAD PUSH4 0x652E83D7 PUSH1 0xE0 SHL DUP2 MSTORE PUSH20 0x0 SWAP10 SWAP1 SWAP7 DUP8 SWAP6 DUP7 SWAP6 DUP11 DUP13 CALLER PUSH1 0x4 DUP11 ADD PUSH2 0x5EE2 JUMP JUMPDEST SUB DUP2 DUP8 GAS DELEGATECALL SWAP1 DUP2 ISZERO PUSH2 0x11C2 JUMPI DUP6 SWAP2 PUSH2 0x44F9 JUMPI JUMPDEST POP PUSH1 0x20 PUSH1 0x5 SLOAD PUSH2 0x244 PUSH1 0x40 MLOAD DUP1 SWAP8 DUP2 SWAP4 PUSH4 0x797D4EE1 PUSH1 0xE0 SHL DUP4 MSTORE PUSH2 0x432C PUSH1 0x4 DUP5 ADD DUP9 PUSH2 0x57D6 JUMP JUMPDEST PUSH2 0x224 DUP4 ADD MSTORE GAS DELEGATECALL SWAP4 DUP5 ISZERO PUSH2 0x11C2 JUMPI DUP6 SWAP5 PUSH2 0x44C5 JUMPI JUMPDEST POP PUSH2 0x434E PUSH1 0x5 SLOAD PUSH2 0x5B73 JUMP JUMPDEST PUSH1 0x5 SSTORE DUP4 DUP6 MSTORE PUSH1 0x4 PUSH1 0x20 SWAP1 DUP2 MSTORE PUSH1 0x40 DUP1 DUP8 KECCAK256 DUP4 MLOAD DUP2 SLOAD PUSH1 0x1 PUSH1 0x1 PUSH1 0xA0 SHL SUB NOT SWAP1 DUP2 AND PUSH1 0x1 PUSH1 0x1 PUSH1 0xA0 SHL SUB SWAP3 DUP4 AND OR DUP4 SSTORE SWAP4 DUP6 ADD MLOAD PUSH1 0x1 DUP4 ADD DUP1 SLOAD DUP7 AND SWAP2 DUP4 AND SWAP2 SWAP1 SWAP2 OR SWAP1 SSTORE SWAP2 DUP5 ADD MLOAD PUSH1 0x2 DUP3 ADD DUP1 SLOAD SWAP1 SWAP5 AND SWAP3 AND SWAP2 SWAP1 SWAP2 OR DUP3 SSTORE PUSH1 0x60 DUP4 ADD MLOAD SWAP1 SWAP3 PUSH2 0x200 SWAP3 SWAP1 SWAP2 PUSH2 0x43C6 SWAP2 SWAP1 PUSH2 0x104F SWAP1 ISZERO ISZERO DUP3 PUSH2 0x5B95 JUMP JUMPDEST PUSH1 0xE0 DUP2 ADD MLOAD PUSH1 0x3 DUP5 ADD SSTORE PUSH2 0x100 DUP2 ADD MLOAD PUSH1 0x4 DUP5 ADD SSTORE PUSH2 0x120 DUP2 ADD MLOAD PUSH1 0x5 DUP5 ADD SSTORE PUSH2 0x140 DUP2 ADD MLOAD PUSH1 0x6 DUP1 DUP6 ADD SWAP2 SWAP1 SWAP2 SSTORE PUSH2 0x160 DUP3 ADD MLOAD PUSH1 0x7 DUP6 ADD SSTORE PUSH2 0x180 DUP3 ADD MLOAD PUSH1 0x8 DUP6 ADD SSTORE PUSH2 0x1A0 DUP3 ADD MLOAD PUSH1 0x9 DUP6 ADD DUP1 SLOAD PUSH1 0x1 PUSH1 0x1 PUSH1 0xA0 SHL SUB SWAP3 DUP4 AND PUSH1 0x1 PUSH1 0x1 PUSH1 0xA0 SHL SUB NOT SWAP2 DUP3 AND OR SWAP1 SWAP2 SSTORE PUSH2 0x1C0 DUP5 ADD MLOAD PUSH1 0xA DUP8 ADD DUP1 SLOAD SWAP2 SWAP1 SWAP4 AND SWAP2 AND OR SWAP1 SSTORE PUSH2 0x1E0 DUP3 ADD MLOAD PUSH1 0xB DUP6 ADD SSTORE SWAP2 ADD MLOAD SWAP6 SWAP1 DUP7 LT ISZERO PUSH2 0x117A JUMPI POP PUSH1 0x20 SWAP5 PUSH1 0xC PUSH2 0x446E SWAP3 ADD PUSH2 0x5BEC JUMP JUMPDEST PUSH1 0x40 MLOAD PUSH1 0x1 PUSH1 0x1 PUSH1 0xA0 SHL SUB SWAP2 DUP3 AND DUP1 DUP3 MSTORE SWAP3 SWAP1 SWAP2 AND SWAP1 CALLER SWAP1 DUP5 SWAP1 PUSH0 MLOAD PUSH1 0x20 PUSH2 0x6785 PUSH0 CODECOPY PUSH0 MLOAD SWAP1 PUSH0 MSTORE SWAP1 DUP8 SWAP1 LOG4 DUP1 PUSH2 0x44A9 JUMPI JUMPDEST POP PUSH1 0x40 MLOAD SWAP1 DUP2 MSTORE RETURN JUMPDEST PUSH0 MLOAD PUSH1 0x20 PUSH2 0x68A5 PUSH0 CODECOPY PUSH0 MLOAD SWAP1 PUSH0 MSTORE DUP4 PUSH1 0x40 MLOAD DUP5 DUP2 MSTORE LOG2 PUSH0 PUSH2 0x44A0 JUMP JUMPDEST SWAP1 SWAP4 POP PUSH1 0x20 DUP2 RETURNDATASIZE PUSH1 0x20 GT PUSH2 0x44F1 JUMPI JUMPDEST DUP2 PUSH2 0x44E1 PUSH1 0x20 SWAP4 DUP4 PUSH2 0x59AC JUMP JUMPDEST DUP2 ADD SUB SLT PUSH2 0x5DB JUMPI MLOAD SWAP3 PUSH0 PUSH2 0x4342 JUMP JUMPDEST RETURNDATASIZE SWAP2 POP PUSH2 0x44D4 JUMP JUMPDEST PUSH2 0x4512 SWAP2 POP PUSH2 0x220 RETURNDATASIZE DUP2 GT PUSH2 0x11F5 JUMPI PUSH2 0x11E7 DUP2 DUP4 PUSH2 0x59AC JUMP JUMPDEST PUSH0 PUSH2 0x4305 JUMP JUMPDEST PUSH2 0x4525 PUSH2 0x452B SWAP2 DUP5 PUSH2 0x5CC9 JUMP JUMPDEST SWAP5 PUSH2 0x58E4 JUMP JUMPDEST PUSH2 0x4536 DUP5 ISZERO ISZERO PUSH2 0x5EB1 JUMP JUMPDEST PUSH1 0x2 SLOAD SWAP1 PUSH1 0x40 MLOAD SWAP2 PUSH4 0x1C8F0847 PUSH1 0xE0 SHL DUP4 MSTORE DUP6 PUSH1 0x4 DUP5 ADD MSTORE PUSH1 0x24 DUP4 ADD MSTORE PUSH1 0x20 DUP3 PUSH1 0x44 DUP2 PUSH20 0x0 GAS DELEGATECALL SWAP2 DUP3 ISZERO PUSH2 0x8AA JUMPI DUP11 SWAP3 PUSH2 0x46B5 JUMPI JUMPDEST POP PUSH1 0x1 PUSH1 0x1 PUSH1 0xA0 SHL SUB DUP7 AND DUP1 PUSH2 0x45F1 JUMPI PUSH2 0x4598 DUP4 DUP8 PUSH2 0x5F4A JUMP JUMPDEST CALLVALUE SUB PUSH2 0x496 JUMPI DUP6 PUSH2 0x42F2 SWAP4 PUSH2 0x45B1 PUSH2 0x220 SWAP9 DUP11 CALLER PUSH2 0x6696 JUMP JUMPDEST POP PUSH1 0x3 SLOAD PUSH2 0x45CB SWAP1 DUP3 SWAP1 DUP12 SWAP1 PUSH1 0x1 PUSH1 0x1 PUSH1 0xA0 SHL SUB AND PUSH2 0x6696 JUMP JUMPDEST POP JUMPDEST PUSH1 0x40 MLOAD SWAP2 DUP3 MSTORE PUSH1 0x20 DUP3 ADD MSTORE PUSH0 MLOAD PUSH1 0x20 PUSH2 0x68E5 PUSH0 CODECOPY PUSH0 MLOAD SWAP1 PUSH0 MSTORE PUSH1 0x40 CALLER SWAP3 LOG3 SWAP1 PUSH2 0x42A7 JUMP JUMPDEST DUP11 PUSH1 0x20 PUSH2 0x45FE DUP6 DUP10 PUSH2 0x5F4A JUMP JUMPDEST PUSH1 0x64 PUSH1 0x40 MLOAD DUP1 SWAP5 DUP2 SWAP4 PUSH4 0x23B872DD PUSH1 0xE0 SHL DUP4 MSTORE CALLER PUSH1 0x4 DUP5 ADD MSTORE ADDRESS PUSH1 0x24 DUP5 ADD MSTORE PUSH1 0x44 DUP4 ADD MSTORE DUP7 GAS CALL SWAP1 DUP2 ISZERO PUSH2 0x46AA JUMPI DUP13 SWAP2 PUSH2 0x466C JUMPI JUMPDEST POP ISZERO PUSH2 0x539 JUMPI DUP6 PUSH2 0x42F2 SWAP4 PUSH2 0x464C PUSH2 0x220 SWAP9 DUP11 CALLER PUSH2 0x6696 JUMP JUMPDEST POP PUSH1 0x3 SLOAD PUSH2 0x4666 SWAP1 DUP3 SWAP1 DUP12 SWAP1 PUSH1 0x1 PUSH1 0x1 PUSH1 0xA0 SHL SUB AND PUSH2 0x6696 JUMP JUMPDEST POP PUSH2 0x45CD JUMP JUMPDEST SWAP1 POP PUSH1 0x20 DUP2 RETURNDATASIZE PUSH1 0x20 GT PUSH2 0x46A2 JUMPI JUMPDEST DUP2 PUSH2 0x4687 PUSH1 0x20 SWAP4 DUP4 PUSH2 0x59AC JUMP JUMPDEST DUP2 ADD SUB SLT PUSH2 0x469E JUMPI PUSH2 0x4698 SWAP1 PUSH2 0x59E1 JUMP JUMPDEST PUSH0 PUSH2 0x4633 JUMP JUMPDEST DUP12 DUP1 REVERT JUMPDEST RETURNDATASIZE SWAP2 POP PUSH2 0x467A JUMP JUMPDEST PUSH1 0x40 MLOAD RETURNDATASIZE DUP15 DUP3 RETURNDATACOPY RETURNDATASIZE SWAP1 REVERT JUMPDEST SWAP1 SWAP2 POP PUSH1 0x20 DUP2 RETURNDATASIZE PUSH1 0x20 GT PUSH2 0x46E1 JUMPI JUMPDEST DUP2 PUSH2 0x46D1 PUSH1 0x20 SWAP4 DUP4 PUSH2 0x59AC JUMP JUMPDEST DUP2 ADD SUB SLT PUSH2 0x5DB JUMPI MLOAD SWAP1 PUSH0 PUSH2 0x457E JUMP JUMPDEST RETURNDATASIZE SWAP2 POP PUSH2 0x46C4 JUMP JUMPDEST POP CALLVALUE PUSH2 0x598 JUMPI PUSH2 0x220 PUSH2 0x42F2 PUSH2 0x46FE CALLDATASIZE PUSH2 0x5766 JUMP JUMPDEST PUSH2 0x4716 PUSH1 0xFF DUP12 SWAP11 SWAP7 SWAP5 SWAP8 SWAP9 SWAP10 SWAP4 SWAP11 SLOAD PUSH1 0xA0 SHR AND PUSH2 0x58E4 JUMP JUMPDEST CALLER DUP11 MSTORE PUSH1 0x1 PUSH1 0x20 MSTORE PUSH1 0x40 DUP11 KECCAK256 PUSH1 0x1 DUP1 PUSH1 0xA0 SHL SUB DUP8 AND PUSH0 MSTORE PUSH1 0x20 MSTORE PUSH2 0x4740 DUP4 PUSH1 0x40 PUSH0 KECCAK256 SLOAD LT ISZERO PUSH2 0x5915 JUMP JUMPDEST PUSH2 0x42BC DUP4 DUP8 CALLER PUSH2 0x64F2 JUMP JUMPDEST POP CALLVALUE PUSH2 0x598 JUMPI PUSH1 0x40 CALLDATASIZE PUSH1 0x3 NOT ADD SLT PUSH2 0x598 JUMPI PUSH32 0x14BDAADAED0453E7B5B66195B42156BA995B9E5ABD0DA98368839851D69AD889 PUSH1 0x40 PUSH1 0x4 CALLDATALOAD PUSH2 0x478B PUSH2 0x5674 JUMP JUMPDEST PUSH2 0x4793 PUSH2 0x66DE JUMP JUMPDEST PUSH1 0x1 PUSH1 0x1 PUSH1 0xA0 SHL SUB AND PUSH2 0x47A7 DUP2 ISZERO ISZERO PUSH2 0x5E80 JUMP JUMPDEST PUSH2 0x47B8 PUSH5 0x2540BE400 DUP4 GT ISZERO PUSH2 0x5EB1 JUMP JUMPDEST PUSH1 0x2 DUP3 SWAP1 SSTORE PUSH1 0x3 DUP1 SLOAD PUSH1 0x1 PUSH1 0x1 PUSH1 0xA0 SHL SUB NOT AND DUP3 OR SWAP1 SSTORE DUP3 MLOAD SWAP2 DUP3 MSTORE PUSH1 0x20 DUP3 ADD MSTORE LOG1 DUP1 RETURN JUMPDEST POP CALLVALUE PUSH2 0x598 JUMPI PUSH1 0x60 CALLDATASIZE PUSH1 0x3 NOT ADD SLT PUSH2 0x598 JUMPI PUSH1 0x24 CALLDATALOAD PUSH1 0x4 CALLDATALOAD PUSH1 0x44 CALLDATALOAD PUSH1 0x6 DUP2 LT ISZERO PUSH2 0x90A JUMPI DUP2 DUP5 MSTORE PUSH1 0x4 PUSH1 0x20 MSTORE PUSH1 0x40 DUP5 KECCAK256 SWAP2 PUSH1 0x1 DUP4 ADD SWAP2 PUSH1 0x1 DUP1 PUSH1 0xA0 SHL SUB DUP4 SLOAD AND CALLER EQ DUP1 ISZERO PUSH2 0x49FD JUMPI JUMPDEST DUP1 ISZERO PUSH2 0x49E7 JUMPI JUMPDEST PUSH2 0x4836 SWAP1 PUSH2 0x5C04 JUMP JUMPDEST DUP6 PUSH20 0x0 DUP1 EXTCODESIZE ISZERO PUSH2 0x614 JUMPI DUP2 PUSH1 0x40 MLOAD DUP1 SWAP3 PUSH4 0x252A867 PUSH1 0xE5 SHL DUP3 MSTORE DUP2 DUP1 PUSH2 0x4872 DUP12 PUSH1 0x4 DUP4 ADD PUSH2 0x5D5D JUMP JUMPDEST SUB SWAP2 GAS DELEGATECALL DUP1 ISZERO PUSH2 0x609 JUMPI PUSH2 0x49D2 JUMPI JUMPDEST POP POP DUP5 ISZERO DUP1 ISZERO PUSH2 0x49C8 JUMPI JUMPDEST PUSH2 0x4895 SWAP1 PUSH2 0x5C97 JUMP JUMPDEST PUSH1 0x40 MLOAD PUSH2 0x48A1 DUP2 PUSH2 0x5946 JUMP JUMPDEST DUP3 DUP2 MSTORE PUSH1 0x20 DUP2 ADD SWAP6 DUP7 MSTORE PUSH2 0x48B9 PUSH1 0x40 DUP3 ADD SWAP3 DUP4 PUSH2 0x5E74 JUMP JUMPDEST PUSH1 0x60 DUP2 ADD DUP8 DUP2 MSTORE PUSH1 0x80 DUP3 ADD DUP9 DUP2 MSTORE PUSH1 0xA0 DUP4 ADD SWAP2 DUP10 DUP4 MSTORE PUSH1 0x2 PUSH1 0xC0 DUP6 ADD SWAP5 DUP12 DUP7 MSTORE PUSH1 0x7 SLOAD SWAP11 DUP12 DUP14 MSTORE PUSH1 0x9 PUSH1 0x20 MSTORE PUSH1 0x40 DUP14 KECCAK256 SWAP2 MLOAD DUP3 SSTORE MLOAD PUSH1 0x1 DUP3 ADD SSTORE ADD SWAP5 MLOAD SWAP10 PUSH1 0x6 DUP12 LT ISZERO PUSH2 0x117A JUMPI POP PUSH2 0x490D PUSH1 0x20 SWAP11 DUP7 PUSH2 0x5BEC JUMP JUMPDEST MLOAD DUP5 SLOAD SWAP2 MLOAD SWAP3 MLOAD SWAP4 MLOAD PUSH1 0xFF DUP1 DUP13 SHL NOT PUSH4 0xFFFFFF00 NOT SWAP1 SWAP5 AND SWAP3 ISZERO ISZERO PUSH1 0x8 SHL PUSH2 0xFF00 AND SWAP3 SWAP1 SWAP3 OR SWAP4 ISZERO ISZERO PUSH1 0x10 SHL PUSH3 0xFF0000 AND SWAP4 SWAP1 SWAP4 OR SWAP4 ISZERO ISZERO PUSH1 0x18 SHL PUSH4 0xFF000000 AND SWAP4 SWAP1 SWAP4 OR AND SWAP1 ISZERO ISZERO SWAP2 SWAP1 SWAP2 AND DUP8 SHL OR SWAP1 SSTORE DUP3 SLOAD SWAP2 SLOAD PUSH1 0x2 SWAP1 SWAP4 ADD SLOAD PUSH1 0x40 DUP1 MLOAD PUSH1 0x1 PUSH1 0x1 PUSH1 0xA0 SHL SUB SWAP3 DUP4 AND DUP2 MSTORE CALLER DUP2 DUP10 ADD MSTORE SWAP1 DUP2 ADD DUP7 SWAP1 MSTORE SWAP4 DUP2 AND SWAP4 SWAP3 AND SWAP2 PUSH32 0x867051316D0AAFC6BF3704F0B32FA0E735BB03D37318B95179BDC1C5017467C0 SWAP1 PUSH1 0x60 SWAP1 LOG4 PUSH2 0x49BD PUSH1 0x7 SLOAD PUSH2 0x5B73 JUMP JUMPDEST PUSH1 0x7 SSTORE PUSH1 0x40 MLOAD SWAP1 DUP2 MSTORE RETURN JUMPDEST POP TIMESTAMP DUP6 GT ISZERO PUSH2 0x488C JUMP JUMPDEST DUP2 PUSH2 0x49DC SWAP2 PUSH2 0x59AC JUMP JUMPDEST PUSH2 0x3C68 JUMPI DUP6 PUSH0 PUSH2 0x4881 JUMP JUMPDEST POP PUSH1 0x2 DUP5 ADD SLOAD PUSH1 0x1 PUSH1 0x1 PUSH1 0xA0 SHL SUB AND CALLER EQ PUSH2 0x482D JUMP JUMPDEST POP DUP4 SLOAD PUSH1 0x1 PUSH1 0x1 PUSH1 0xA0 SHL SUB AND CALLER EQ PUSH2 0x4826 JUMP JUMPDEST POP CALLVALUE PUSH2 0x598 JUMPI PUSH2 0x4A1F CALLDATASIZE PUSH2 0x5750 JUMP JUMPDEST SWAP2 SWAP1 DUP1 DUP3 MSTORE PUSH1 0x4 PUSH1 0x20 MSTORE PUSH1 0x40 DUP3 KECCAK256 SWAP2 PUSH1 0x1 DUP1 PUSH1 0xA0 SHL SUB DUP4 SLOAD AND CALLER EQ DUP1 ISZERO PUSH2 0x4B8F JUMPI JUMPDEST PUSH2 0x4A4A SWAP1 PUSH2 0x5C04 JUMP JUMPDEST PUSH20 0x0 DUP1 EXTCODESIZE ISZERO PUSH2 0x614 JUMPI DUP2 PUSH1 0x40 MLOAD DUP1 SWAP3 PUSH4 0x252A867 PUSH1 0xE5 SHL DUP3 MSTORE DUP2 DUP1 PUSH2 0x4A85 DUP10 PUSH1 0x4 DUP4 ADD PUSH2 0x5D5D JUMP JUMPDEST SUB SWAP2 GAS DELEGATECALL DUP1 ISZERO PUSH2 0x609 JUMPI SWAP1 DUP3 SWAP2 PUSH2 0x4B7A JUMPI JUMPDEST POP POP PUSH1 0x6 DUP4 ADD PUSH2 0x4AAE DUP6 DUP3 SLOAD PUSH2 0xAF3 DUP3 DUP3 LT PUSH2 0x5915 JUMP JUMPDEST SWAP1 SSTORE PUSH1 0x1 DUP1 PUSH1 0xA0 SHL SUB PUSH1 0xA DUP5 ADD SLOAD AND SWAP4 PUSH1 0x8 DUP5 ADD SLOAD SWAP2 PUSH1 0x40 MLOAD SWAP3 PUSH4 0x1C8F0847 PUSH1 0xE0 SHL DUP5 MSTORE DUP3 PUSH1 0x4 DUP6 ADD MSTORE PUSH1 0x24 DUP5 ADD MSTORE PUSH1 0x20 DUP4 PUSH1 0x44 DUP2 PUSH20 0x0 GAS DELEGATECALL SWAP1 DUP2 ISZERO PUSH2 0x5A3 JUMPI SWAP1 PUSH2 0x4B3B JUMPI JUMPDEST PUSH1 0x1 DUP6 ADD DUP1 SLOAD SWAP1 SWAP6 PUSH0 MLOAD PUSH1 0x20 PUSH2 0x6765 PUSH0 CODECOPY PUSH0 MLOAD SWAP1 PUSH0 MSTORE SWAP5 POP PUSH2 0x3B1 SWAP2 PUSH2 0x27AE SWAP1 PUSH1 0x1 PUSH1 0x1 PUSH1 0xA0 SHL SUB AND DUP10 PUSH2 0x27A8 DUP7 DUP9 PUSH2 0x5CC9 JUMP JUMPDEST POP PUSH1 0x20 DUP3 RETURNDATASIZE PUSH1 0x20 GT PUSH2 0x4B72 JUMPI JUMPDEST DUP2 PUSH2 0x4B55 PUSH1 0x20 SWAP4 DUP4 PUSH2 0x59AC JUMP JUMPDEST DUP2 ADD SUB SLT PUSH2 0x5DB JUMPI PUSH0 MLOAD PUSH1 0x20 PUSH2 0x6765 PUSH0 CODECOPY PUSH0 MLOAD SWAP1 PUSH0 MSTORE SWAP2 MLOAD PUSH2 0x4B07 JUMP JUMPDEST RETURNDATASIZE SWAP2 POP PUSH2 0x4B48 JUMP JUMPDEST DUP2 PUSH2 0x4B84 SWAP2 PUSH2 0x59AC JUMP JUMPDEST PUSH2 0x598 JUMPI DUP1 PUSH0 PUSH2 0x4A97 JUMP JUMPDEST POP PUSH1 0x2 DUP4 ADD SLOAD PUSH1 0x1 PUSH1 0x1 PUSH1 0xA0 SHL SUB AND CALLER EQ PUSH2 0x4A41 JUMP JUMPDEST POP PUSH2 0x4BAF CALLDATASIZE PUSH2 0x5722 JUMP JUMPDEST DUP4 PUSH0 SWAP5 SWAP4 SWAP3 SWAP5 MSTORE PUSH1 0x4 PUSH1 0x20 MSTORE PUSH1 0x40 PUSH0 KECCAK256 SWAP1 PUSH1 0x1 DUP3 ADD SWAP5 PUSH2 0x4BD9 PUSH1 0x1 DUP1 PUSH1 0xA0 SHL SUB DUP8 SLOAD AND CALLER EQ PUSH2 0x5C04 JUMP JUMPDEST PUSH20 0x0 DUP1 EXTCODESIZE ISZERO PUSH2 0x5DB JUMPI PUSH0 PUSH1 0x40 MLOAD DUP1 SWAP3 PUSH4 0x252A867 PUSH1 0xE5 SHL DUP3 MSTORE DUP2 DUP1 PUSH2 0x4C14 DUP10 PUSH1 0x4 DUP4 ADD PUSH2 0x5D5D JUMP JUMPDEST SUB SWAP2 GAS DELEGATECALL DUP1 ISZERO PUSH2 0x4D7B JUMPI PUSH2 0x4D66 JUMPI JUMPDEST POP PUSH1 0x2 DUP4 ADD SWAP7 PUSH2 0x4C3A PUSH1 0xFF DUP10 SLOAD PUSH1 0xB0 SHR AND ISZERO PUSH2 0x5E42 JUMP JUMPDEST CALLER DUP2 MSTORE PUSH1 0x1 PUSH1 0x20 MSTORE PUSH1 0x40 DUP2 KECCAK256 PUSH1 0x1 DUP1 PUSH1 0xA0 SHL SUB DUP7 AND PUSH0 MSTORE PUSH1 0x20 MSTORE PUSH1 0x40 PUSH0 KECCAK256 SLOAD DUP3 DUP2 LT PUSH2 0x4C81 JUMPI POP POP SWAP1 DUP2 DUP5 PUSH2 0x3031 PUSH1 0x20 SWAP6 SWAP5 PUSH0 MLOAD PUSH1 0x20 PUSH2 0x6905 PUSH0 CODECOPY PUSH0 MLOAD SWAP1 PUSH0 MSTORE SWAP8 CALLER PUSH2 0x64F2 JUMP JUMPDEST PUSH2 0x4C8F SWAP1 DUP4 SWAP3 SWAP6 SWAP5 SWAP4 PUSH2 0x5CC9 JUMP JUMPDEST SWAP5 PUSH2 0x4CA0 PUSH1 0xFF DUP7 SLOAD PUSH1 0xA0 SHR AND PUSH2 0x58E4 JUMP JUMPDEST PUSH2 0x4CAB DUP7 ISZERO ISZERO PUSH2 0x5EB1 JUMP JUMPDEST PUSH1 0x2 SLOAD SWAP5 PUSH1 0x40 MLOAD SWAP6 PUSH4 0x1C8F0847 PUSH1 0xE0 SHL DUP8 MSTORE DUP8 PUSH1 0x4 DUP9 ADD MSTORE PUSH1 0x24 DUP8 ADD MSTORE PUSH1 0x20 DUP7 PUSH1 0x44 DUP2 PUSH20 0x0 GAS DELEGATECALL SWAP6 DUP7 ISZERO PUSH2 0x5E7 JUMPI DUP2 SWAP7 PUSH2 0x4D32 JUMPI JUMPDEST POP PUSH1 0x1 PUSH1 0x1 PUSH1 0xA0 SHL SUB DUP3 AND SWAP1 DUP2 PUSH2 0x318C JUMPI POP PUSH2 0x4D0F DUP7 DUP9 PUSH2 0x5F4A JUMP JUMPDEST CALLVALUE SUB PUSH2 0x496 JUMPI DUP7 PUSH1 0x20 SWAP7 PUSH2 0x3148 PUSH0 MLOAD PUSH1 0x20 PUSH2 0x6905 PUSH0 CODECOPY PUSH0 MLOAD SWAP1 PUSH0 MSTORE SWAP10 DUP6 CALLER PUSH2 0x6696 JUMP JUMPDEST SWAP1 SWAP6 POP PUSH1 0x20 DUP2 RETURNDATASIZE PUSH1 0x20 GT PUSH2 0x4D5E JUMPI JUMPDEST DUP2 PUSH2 0x4D4E PUSH1 0x20 SWAP4 DUP4 PUSH2 0x59AC JUMP JUMPDEST DUP2 ADD SUB SLT PUSH2 0x5DB JUMPI MLOAD SWAP5 PUSH0 PUSH2 0x4CF3 JUMP JUMPDEST RETURNDATASIZE SWAP2 POP PUSH2 0x4D41 JUMP JUMPDEST PUSH2 0x4D73 SWAP2 SWAP8 POP PUSH0 SWAP1 PUSH2 0x59AC JUMP JUMPDEST PUSH0 SWAP6 PUSH0 PUSH2 0x4C23 JUMP JUMPDEST PUSH1 0x40 MLOAD RETURNDATASIZE PUSH0 DUP3 RETURNDATACOPY RETURNDATASIZE SWAP1 REVERT JUMPDEST CALLVALUE PUSH2 0x5DB JUMPI PUSH0 CALLDATASIZE PUSH1 0x3 NOT ADD SLT PUSH2 0x5DB JUMPI PUSH1 0x3 SLOAD PUSH1 0x40 MLOAD PUSH1 0x1 PUSH1 0x1 PUSH1 0xA0 SHL SUB SWAP1 SWAP2 AND DUP2 MSTORE PUSH1 0x20 SWAP1 RETURN JUMPDEST CALLVALUE PUSH2 0x5DB JUMPI PUSH1 0x20 CALLDATASIZE PUSH1 0x3 NOT ADD SLT PUSH2 0x5DB JUMPI PUSH1 0x4 CALLDATALOAD DUP1 PUSH0 MSTORE PUSH1 0x4 PUSH1 0x20 MSTORE PUSH1 0x40 PUSH0 KECCAK256 SWAP1 PUSH1 0x1 DUP3 ADD SWAP1 PUSH1 0x1 DUP1 PUSH1 0xA0 SHL SUB DUP3 SLOAD AND CALLER EQ DUP1 ISZERO PUSH2 0x53D7 JUMPI JUMPDEST DUP1 ISZERO PUSH2 0x53C1 JUMPI JUMPDEST PUSH2 0x4DF7 SWAP1 PUSH2 0x5C04 JUMP JUMPDEST PUSH1 0x2 DUP4 ADD SWAP3 PUSH2 0x4E24 DUP5 SLOAD PUSH2 0x4E10 PUSH1 0xFF DUP3 PUSH1 0xB8 SHR AND PUSH2 0x5C35 JUMP JUMPDEST PUSH1 0xFF DUP2 PUSH1 0xA0 SHR AND ISZERO SWAP1 DUP2 PUSH2 0x53B2 JUMPI POP PUSH2 0x5C66 JUMP JUMPDEST PUSH2 0x4E34 PUSH1 0xB DUP3 ADD SLOAD TIMESTAMP LT ISZERO PUSH2 0x5C97 JUMP JUMPDEST PUSH1 0xFF PUSH1 0xC DUP3 ADD SLOAD AND PUSH1 0x5 DUP3 ADD SLOAD SWAP2 PUSH1 0x1 DUP1 PUSH1 0xA0 SHL SUB PUSH1 0x9 DUP3 ADD SLOAD AND PUSH1 0x6 DUP3 ADD SLOAD SWAP1 PUSH1 0x1 DUP1 PUSH1 0xA0 SHL SUB PUSH1 0xA DUP5 ADD SLOAD AND SWAP2 PUSH1 0x7 DUP5 ADD SLOAD SWAP2 PUSH1 0x8 DUP6 ADD SLOAD SWAP4 PUSH20 0x0 SWAP5 PUSH1 0x40 MLOAD SWAP5 PUSH4 0x1C8F0847 PUSH1 0xE0 SHL DUP7 MSTORE DUP10 PUSH1 0x4 DUP8 ADD MSTORE PUSH1 0x24 DUP7 ADD MSTORE PUSH1 0x20 DUP6 PUSH1 0x44 DUP2 DUP10 GAS DELEGATECALL SWAP5 DUP6 ISZERO PUSH2 0x4D7B JUMPI PUSH0 SWAP6 PUSH2 0x537D JUMPI JUMPDEST POP PUSH1 0x20 SWAP1 PUSH1 0x44 PUSH1 0x40 MLOAD DUP1 SWAP9 DUP2 SWAP4 PUSH4 0x1C8F0847 PUSH1 0xE0 SHL DUP4 MSTORE DUP9 PUSH1 0x4 DUP5 ADD MSTORE PUSH1 0x24 DUP4 ADD MSTORE GAS DELEGATECALL SWAP5 DUP6 ISZERO PUSH2 0x4D7B JUMPI PUSH0 SWAP6 PUSH2 0x5349 JUMPI JUMPDEST POP PUSH1 0x6 DUP8 LT ISZERO PUSH2 0x5335 JUMPI DUP8 PUSH1 0x4 DUP9 DUP14 DUP14 DUP14 DUP9 DUP11 PUSH0 MLOAD PUSH1 0x20 PUSH2 0x6805 PUSH0 CODECOPY PUSH0 MLOAD SWAP1 PUSH0 MSTORE SWAP16 PUSH2 0x3B1 SWAP16 DUP16 DUP16 SWAP3 DUP4 DUP8 DUP16 SWAP5 DUP16 SWAP1 DUP5 DUP14 PUSH1 0x1 DUP4 DUP16 DUP12 DUP16 SWAP7 DUP16 SWAP12 DUP9 DUP15 SWAP2 DUP12 DUP16 SWAP7 DUP16 SWAP1 DUP16 SWAP7 SWAP1 DUP13 SWAP2 ISZERO PUSH2 0x5268 JUMPI JUMPDEST PUSH1 0x2 DUP12 EQ PUSH2 0x518B JUMPI JUMPDEST POP POP POP POP POP POP POP POP POP POP EQ PUSH2 0x50B2 JUMPI JUMPDEST POP POP POP POP POP POP POP DUP11 PUSH1 0x3 DUP11 EQ PUSH2 0x5065 JUMPI JUMPDEST POP POP POP POP POP POP POP POP POP EQ PUSH2 0x4FAA JUMPI POP POP DUP10 SLOAD PUSH1 0xFF PUSH1 0xA8 SHL NOT DUP2 AND PUSH1 0x1 PUSH1 0xA8 SHL OR SWAP1 SWAP11 SSTORE POP POP SWAP2 SLOAD SWAP6 SLOAD PUSH1 0x40 MLOAD PUSH1 0x1 PUSH1 0x1 PUSH1 0xA0 SHL SUB SWAP2 DUP3 AND SWAP9 SWAP8 DUP3 AND SWAP8 SWAP1 SWAP5 DUP6 SWAP5 POP SWAP3 POP CALLER SWAP2 AND DUP4 PUSH2 0x5D43 JUMP JUMPDEST DUP5 DUP4 PUSH2 0x4FEC PUSH2 0x500E SWAP7 PUSH2 0x4FD1 PUSH2 0x4FFD SWAP6 DUP12 SWAP9 PUSH2 0xB7F DUP8 PUSH1 0x1 DUP1 PUSH1 0xA0 SHL SUB PUSH1 0x3 SLOAD AND SWAP4 PUSH2 0x5CC9 JUMP JUMPDEST POP PUSH1 0x3 SLOAD PUSH1 0x1 PUSH1 0x1 PUSH1 0xA0 SHL SUB AND SWAP1 DUP7 SWAP1 PUSH2 0xB7F SWAP1 DUP10 SWAP1 PUSH2 0x5CC9 JUMP JUMPDEST POP DUP14 SLOAD PUSH1 0x1 PUSH1 0x1 PUSH1 0xA0 SHL SUB AND PUSH2 0x6586 JUMP JUMPDEST POP DUP11 SLOAD PUSH1 0x1 PUSH1 0x1 PUSH1 0xA0 SHL SUB AND PUSH2 0x6586 JUMP JUMPDEST POP DUP3 SLOAD DUP8 SLOAD DUP10 SLOAD PUSH1 0x3 SLOAD PUSH1 0x40 MLOAD PUSH1 0x1 PUSH1 0x1 PUSH1 0xA0 SHL SUB SWAP4 DUP5 AND SWAP7 SWAP5 DUP5 AND SWAP6 DUP12 SWAP6 PUSH0 MLOAD PUSH1 0x20 PUSH2 0x6705 PUSH0 CODECOPY PUSH0 MLOAD SWAP1 PUSH0 MSTORE SWAP6 SWAP3 SWAP5 DUP6 SWAP5 PUSH2 0x5057 SWAP5 SWAP3 SWAP4 SWAP3 DUP5 SWAP3 DUP5 SWAP3 DUP3 AND SWAP2 CALLER SWAP2 AND DUP9 PUSH2 0x5D00 JUMP JUMPDEST SUB SWAP1 LOG4 DUP7 DUP1 DUP1 DUP1 DUP1 DUP1 PUSH2 0x2A65 JUMP JUMPDEST PUSH0 MLOAD PUSH1 0x20 PUSH2 0x6705 PUSH0 CODECOPY PUSH0 MLOAD SWAP1 PUSH0 MSTORE SWAP6 PUSH2 0x508E PUSH2 0x2B88 SWAP3 PUSH2 0x50A1 SWAP6 PUSH1 0x1 DUP1 PUSH1 0xA0 SHL SUB DUP14 SLOAD AND PUSH2 0x6586 JUMP JUMPDEST POP DUP10 SLOAD DUP15 SWAP1 PUSH1 0x1 PUSH1 0x1 PUSH1 0xA0 SHL SUB AND PUSH2 0x6586 JUMP JUMPDEST SUB SWAP1 LOG4 DUP14 DUP14 DUP14 DUP9 DUP11 DUP13 DUP11 DUP16 DUP11 PUSH2 0x4F5E JUMP JUMPDEST PUSH0 MLOAD PUSH1 0x20 PUSH2 0x6885 PUSH0 CODECOPY PUSH0 MLOAD SWAP1 PUSH0 MSTORE SWAP6 PUSH0 MLOAD PUSH1 0x20 PUSH2 0x6725 PUSH0 CODECOPY PUSH0 MLOAD SWAP1 PUSH0 MSTORE SWAP5 PUSH2 0x5130 SWAP3 PUSH2 0x50EC PUSH1 0x1 DUP1 PUSH1 0xA0 SHL SUB DUP13 SLOAD AND DUP14 PUSH2 0xB7F DUP14 DUP10 PUSH2 0x5CC9 JUMP JUMPDEST POP DUP1 SLOAD PUSH2 0x5105 SWAP1 DUP12 SWAP1 DUP15 SWAP1 PUSH1 0x1 PUSH1 0x1 PUSH1 0xA0 SHL SUB AND PUSH2 0x6586 JUMP JUMPDEST POP DUP11 SLOAD PUSH2 0x5120 SWAP1 PUSH1 0x1 PUSH1 0x1 PUSH1 0xA0 SHL SUB AND DUP4 PUSH2 0xB7F DUP7 DUP11 PUSH2 0x5CC9 JUMP JUMPDEST POP SLOAD PUSH1 0x1 PUSH1 0x1 PUSH1 0xA0 SHL SUB AND PUSH2 0x6586 JUMP JUMPDEST POP DUP7 SLOAD DUP14 SLOAD DUP16 SLOAD PUSH1 0x40 MLOAD PUSH1 0x1 PUSH1 0x1 PUSH1 0xA0 SHL SUB SWAP3 DUP4 AND SWAP10 SWAP4 DUP4 AND SWAP9 SWAP2 SWAP1 SWAP3 AND SWAP4 DUP10 SWAP4 DUP10 SWAP4 DUP10 SWAP4 SWAP3 SWAP1 SWAP2 DUP3 SWAP2 PUSH2 0x5167 SWAP2 SWAP1 CALLER DUP11 DUP6 PUSH2 0x5CD6 JUMP JUMPDEST SUB SWAP1 LOG4 PUSH2 0x517C DUP10 PUSH1 0x40 MLOAD SWAP4 DUP5 SWAP4 CALLER SWAP1 DUP6 PUSH2 0x5CD6 JUMP JUMPDEST SUB SWAP1 LOG4 DUP4 DUP4 DUP8 DUP15 DUP9 DUP16 DUP14 PUSH2 0x4F4D JUMP JUMPDEST DUP8 PUSH0 MLOAD PUSH1 0x20 PUSH2 0x6765 PUSH0 CODECOPY PUSH0 MLOAD SWAP1 PUSH0 MSTORE SWAP8 PUSH2 0x520E DUP6 DUP16 SWAP8 PUSH2 0x51E2 DUP16 PUSH0 MLOAD PUSH1 0x20 PUSH2 0x68C5 PUSH0 CODECOPY PUSH0 MLOAD SWAP1 PUSH0 MSTORE SWAP16 PUSH2 0x51D1 DUP14 DUP3 PUSH2 0xB7F PUSH2 0x5253 SWAP16 DUP14 DUP2 DUP9 SWAP3 PUSH1 0xA0 SHL SUB SWAP1 SLOAD AND SWAP4 PUSH2 0x5CC9 JUMP JUMPDEST POP DUP10 SLOAD PUSH1 0x1 PUSH1 0x1 PUSH1 0xA0 SHL SUB AND PUSH2 0x6586 JUMP JUMPDEST POP DUP6 SLOAD PUSH2 0x51FD SWAP1 PUSH1 0x1 PUSH1 0x1 PUSH1 0xA0 SHL SUB AND DUP3 PUSH2 0xB7F DUP6 DUP16 PUSH2 0x5CC9 JUMP JUMPDEST POP DUP7 SLOAD PUSH1 0x1 PUSH1 0x1 PUSH1 0xA0 SHL SUB AND PUSH2 0x6586 JUMP JUMPDEST POP DUP14 DUP1 PUSH1 0xA0 SHL SUB SWAP1 SLOAD AND SWAP10 DUP11 SWAP3 DUP15 DUP1 PUSH1 0xA0 SHL SUB SWAP1 SLOAD AND SWAP12 DUP13 SWAP5 DUP16 DUP1 PUSH1 0xA0 SHL SUB SWAP1 SLOAD AND SWAP8 PUSH2 0x5242 PUSH1 0x40 MLOAD SWAP3 DUP4 SWAP3 CALLER DUP13 DUP6 PUSH2 0x5CD6 JUMP JUMPDEST SUB SWAP1 LOG4 PUSH1 0x40 MLOAD SWAP4 DUP5 SWAP4 CALLER SWAP1 DUP6 PUSH2 0x5CD6 JUMP JUMPDEST SUB SWAP1 LOG4 DUP16 DUP12 DUP9 DUP13 DUP9 DUP9 DUP12 DUP16 SWAP7 DUP16 SWAP1 DUP12 SWAP1 PUSH2 0x4F3D JUMP JUMPDEST PUSH2 0x527F DUP13 DUP1 PUSH1 0xA0 SHL SUB DUP9 SLOAD AND DUP11 PUSH2 0xB7F DUP14 DUP10 PUSH2 0x5CC9 JUMP JUMPDEST POP PUSH2 0x5293 DUP11 DUP11 DUP15 DUP1 PUSH1 0xA0 SHL SUB DUP6 SLOAD AND PUSH2 0x6586 JUMP JUMPDEST POP PUSH2 0x52AB DUP13 DUP1 PUSH1 0xA0 SHL SUB DUP3 SLOAD AND DUP6 PUSH2 0xB7F DUP7 DUP11 PUSH2 0x5CC9 JUMP JUMPDEST POP PUSH2 0x52BF DUP4 DUP6 DUP15 DUP1 PUSH1 0xA0 SHL SUB DUP6 SLOAD AND PUSH2 0x6586 JUMP JUMPDEST POP PUSH0 MLOAD PUSH1 0x20 PUSH2 0x6885 PUSH0 CODECOPY PUSH0 MLOAD SWAP1 PUSH0 MSTORE DUP11 DUP10 PUSH0 MLOAD PUSH1 0x20 PUSH2 0x6765 PUSH0 CODECOPY PUSH0 MLOAD SWAP1 PUSH0 MSTORE DUP16 DUP10 DUP2 DUP13 SWAP3 PUSH1 0xA0 SHL SUB DUP14 SLOAD AND SWAP5 PUSH1 0x1 DUP6 DUP2 DUP9 SWAP3 PUSH1 0xA0 SHL SUB DUP11 SLOAD AND SWAP9 PUSH1 0x1 SWAP4 DUP5 DUP12 SWAP6 PUSH1 0xA0 SHL SUB DUP14 SLOAD AND SWAP6 PUSH2 0x5318 PUSH1 0x40 MLOAD SWAP3 DUP4 SWAP3 CALLER DUP11 DUP6 PUSH2 0x5CD6 JUMP JUMPDEST SUB SWAP1 LOG4 PUSH2 0x532D DUP10 PUSH1 0x40 MLOAD SWAP4 DUP5 SWAP4 CALLER SWAP1 DUP6 PUSH2 0x5CD6 JUMP JUMPDEST SUB SWAP1 LOG4 PUSH2 0x4F34 JUMP JUMPDEST PUSH4 0x4E487B71 PUSH1 0xE0 SHL PUSH0 MSTORE PUSH1 0x21 PUSH1 0x4 MSTORE PUSH1 0x24 PUSH0 REVERT JUMPDEST SWAP1 SWAP5 POP PUSH1 0x20 DUP2 RETURNDATASIZE PUSH1 0x20 GT PUSH2 0x5375 JUMPI JUMPDEST DUP2 PUSH2 0x5365 PUSH1 0x20 SWAP4 DUP4 PUSH2 0x59AC JUMP JUMPDEST DUP2 ADD SUB SLT PUSH2 0x5DB JUMPI MLOAD SWAP4 DUP12 PUSH2 0x4EE7 JUMP JUMPDEST RETURNDATASIZE SWAP2 POP PUSH2 0x5358 JUMP JUMPDEST SWAP1 SWAP5 POP PUSH1 0x20 DUP2 RETURNDATASIZE PUSH1 0x20 GT PUSH2 0x53AA JUMPI JUMPDEST DUP2 PUSH2 0x5399 PUSH1 0x20 SWAP4 DUP4 PUSH2 0x59AC JUMP JUMPDEST DUP2 ADD SUB SLT PUSH2 0x5DB JUMPI MLOAD SWAP4 PUSH1 0x20 PUSH2 0x4EB5 JUMP JUMPDEST RETURNDATASIZE SWAP2 POP PUSH2 0x538C JUMP JUMPDEST PUSH1 0xFF SWAP2 POP PUSH1 0xA8 SHR AND ISZERO DUP7 PUSH2 0x181C JUMP JUMPDEST POP PUSH1 0x2 DUP4 ADD SLOAD PUSH1 0x1 PUSH1 0x1 PUSH1 0xA0 SHL SUB AND CALLER EQ PUSH2 0x4DEE JUMP JUMPDEST POP DUP3 SLOAD PUSH1 0x1 PUSH1 0x1 PUSH1 0xA0 SHL SUB AND CALLER EQ PUSH2 0x4DE7 JUMP JUMPDEST CALLVALUE PUSH2 0x5DB JUMPI PUSH0 CALLDATASIZE PUSH1 0x3 NOT ADD SLT PUSH2 0x5DB JUMPI PUSH1 0x20 PUSH1 0x8 SLOAD PUSH1 0x40 MLOAD SWAP1 DUP2 MSTORE RETURN JUMPDEST CALLVALUE PUSH2 0x5DB JUMPI PUSH2 0x220 PUSH2 0x54A3 PUSH2 0x541B CALLDATASIZE PUSH2 0x56A0 JUMP JUMPDEST SWAP3 PUSH2 0x5439 PUSH1 0xFF PUSH0 SWAP14 SWAP10 SWAP8 SWAP14 SWAP13 SWAP7 SWAP13 SWAP12 SWAP11 SWAP12 SWAP5 SWAP4 SWAP5 SLOAD PUSH1 0xA0 SHR AND PUSH2 0x58E4 JUMP JUMPDEST CALLER PUSH0 MSTORE PUSH1 0x1 PUSH1 0x20 MSTORE PUSH1 0x40 PUSH0 KECCAK256 PUSH1 0x1 DUP1 PUSH1 0xA0 SHL SUB DUP3 AND PUSH0 MSTORE PUSH1 0x20 MSTORE PUSH2 0x5463 DUP7 PUSH1 0x40 PUSH0 KECCAK256 SLOAD LT ISZERO PUSH2 0x5915 JUMP JUMPDEST PUSH2 0x546E DUP7 DUP3 CALLER PUSH2 0x64F2 JUMP JUMPDEST POP PUSH20 0x0 SWAP11 PUSH1 0x40 MLOAD SWAP13 DUP14 SWAP9 DUP10 SWAP9 PUSH4 0x652E83D7 PUSH1 0xE0 SHL DUP11 MSTORE DUP14 DUP14 CALLER PUSH1 0x4 DUP14 ADD PUSH2 0x5B07 JUMP JUMPDEST SUB DUP2 DUP7 GAS DELEGATECALL SWAP4 DUP5 ISZERO PUSH2 0x4D7B JUMPI PUSH0 SWAP5 PUSH2 0x5653 JUMPI JUMPDEST POP PUSH1 0x20 PUSH1 0x5 SLOAD PUSH2 0x244 PUSH1 0x40 MLOAD DUP1 SWAP7 DUP2 SWAP4 PUSH4 0x797D4EE1 PUSH1 0xE0 SHL DUP4 MSTORE PUSH2 0x54DD PUSH1 0x4 DUP5 ADD DUP12 PUSH2 0x57D6 JUMP JUMPDEST PUSH2 0x224 DUP4 ADD MSTORE GAS DELEGATECALL SWAP3 DUP4 ISZERO PUSH2 0x4D7B JUMPI PUSH0 SWAP4 PUSH2 0x561F JUMPI JUMPDEST POP PUSH2 0x54FF PUSH1 0x5 SLOAD PUSH2 0x5B73 JUMP JUMPDEST PUSH1 0x5 SSTORE PUSH0 DUP4 DUP2 MSTORE PUSH1 0x4 PUSH1 0x20 SWAP1 DUP2 MSTORE PUSH1 0x40 SWAP2 DUP3 SWAP1 KECCAK256 DUP7 MLOAD DUP2 SLOAD PUSH1 0x1 PUSH1 0x1 PUSH1 0xA0 SHL SUB NOT SWAP1 DUP2 AND PUSH1 0x1 PUSH1 0x1 PUSH1 0xA0 SHL SUB SWAP3 DUP4 AND OR DUP4 SSTORE SWAP3 DUP9 ADD MLOAD PUSH1 0x1 DUP4 ADD DUP1 SLOAD DUP6 AND SWAP2 DUP4 AND SWAP2 SWAP1 SWAP2 OR SWAP1 SSTORE SWAP3 DUP8 ADD MLOAD PUSH1 0x2 DUP3 ADD DUP1 SLOAD SWAP1 SWAP4 AND SWAP4 AND SWAP3 SWAP1 SWAP3 OR DUP2 SSTORE PUSH1 0x60 DUP7 ADD MLOAD SWAP2 SWAP6 PUSH2 0x200 SWAP3 SWAP1 SWAP2 PUSH2 0x5578 SWAP2 PUSH2 0x104F SWAP1 ISZERO ISZERO DUP3 PUSH2 0x5B95 JUMP JUMPDEST PUSH1 0xE0 DUP2 ADD MLOAD PUSH1 0x3 DUP8 ADD SSTORE PUSH2 0x100 DUP2 ADD MLOAD PUSH1 0x4 DUP8 ADD SSTORE PUSH2 0x120 DUP2 ADD MLOAD PUSH1 0x5 DUP8 ADD SSTORE PUSH2 0x140 DUP2 ADD MLOAD PUSH1 0x6 DUP1 DUP9 ADD SWAP2 SWAP1 SWAP2 SSTORE PUSH2 0x160 DUP3 ADD MLOAD PUSH1 0x7 DUP9 ADD SSTORE PUSH2 0x180 DUP3 ADD MLOAD PUSH1 0x8 DUP9 ADD SSTORE PUSH2 0x1A0 DUP3 ADD MLOAD PUSH1 0x9 DUP9 ADD DUP1 SLOAD PUSH1 0x1 PUSH1 0x1 PUSH1 0xA0 SHL SUB SWAP3 DUP4 AND PUSH1 0x1 PUSH1 0x1 PUSH1 0xA0 SHL SUB NOT SWAP2 DUP3 AND OR SWAP1 SWAP2 SSTORE PUSH2 0x1C0 DUP5 ADD MLOAD PUSH1 0xA DUP11 ADD DUP1 SLOAD SWAP2 SWAP1 SWAP4 AND SWAP2 AND OR SWAP1 SSTORE PUSH2 0x1E0 DUP3 ADD MLOAD PUSH1 0xB DUP9 ADD SSTORE SWAP2 ADD MLOAD SWAP5 SWAP1 DUP6 LT ISZERO PUSH2 0x5335 JUMPI PUSH1 0x20 SWAP5 PUSH1 0xC PUSH2 0x1136 SWAP3 ADD PUSH2 0x5BEC JUMP JUMPDEST SWAP1 SWAP3 POP PUSH1 0x20 DUP2 RETURNDATASIZE PUSH1 0x20 GT PUSH2 0x564B JUMPI JUMPDEST DUP2 PUSH2 0x563B PUSH1 0x20 SWAP4 DUP4 PUSH2 0x59AC JUMP JUMPDEST DUP2 ADD SUB SLT PUSH2 0x5DB JUMPI MLOAD SWAP2 DUP5 PUSH2 0x54F3 JUMP JUMPDEST RETURNDATASIZE SWAP2 POP PUSH2 0x562E JUMP JUMPDEST PUSH2 0x566D SWAP2 SWAP5 POP PUSH2 0x220 RETURNDATASIZE DUP2 GT PUSH2 0x11F5 JUMPI PUSH2 0x11E7 DUP2 DUP4 PUSH2 0x59AC JUMP JUMPDEST SWAP3 DUP5 PUSH2 0x54B6 JUMP JUMPDEST PUSH1 0x24 CALLDATALOAD SWAP1 PUSH1 0x1 PUSH1 0x1 PUSH1 0xA0 SHL SUB DUP3 AND DUP3 SUB PUSH2 0x5DB JUMPI JUMP JUMPDEST PUSH1 0x4 CALLDATALOAD SWAP1 PUSH1 0x1 PUSH1 0x1 PUSH1 0xA0 SHL SUB DUP3 AND DUP3 SUB PUSH2 0x5DB JUMPI JUMP JUMPDEST PUSH2 0x140 SWAP1 PUSH1 0x3 NOT ADD SLT PUSH2 0x5DB JUMPI PUSH1 0x4 CALLDATALOAD PUSH1 0x1 PUSH1 0x1 PUSH1 0xA0 SHL SUB DUP2 AND DUP2 SUB PUSH2 0x5DB JUMPI SWAP1 PUSH1 0x24 CALLDATALOAD PUSH1 0x1 PUSH1 0x1 PUSH1 0xA0 SHL SUB DUP2 AND DUP2 SUB PUSH2 0x5DB JUMPI SWAP1 PUSH1 0x44 CALLDATALOAD SWAP1 PUSH1 0x64 CALLDATALOAD SWAP1 PUSH1 0x84 CALLDATALOAD SWAP1 PUSH1 0xA4 CALLDATALOAD SWAP1 PUSH1 0xC4 CALLDATALOAD PUSH1 0x1 PUSH1 0x1 PUSH1 0xA0 SHL SUB DUP2 AND DUP2 SUB PUSH2 0x5DB JUMPI SWAP1 PUSH1 0xE4 CALLDATALOAD PUSH1 0x1 PUSH1 0x1 PUSH1 0xA0 SHL SUB DUP2 AND DUP2 SUB PUSH2 0x5DB JUMPI SWAP1 PUSH2 0x104 CALLDATALOAD SWAP1 PUSH2 0x124 CALLDATALOAD PUSH1 0x6 DUP2 LT ISZERO PUSH2 0x5DB JUMPI SWAP1 JUMP JUMPDEST PUSH1 0x80 SWAP1 PUSH1 0x3 NOT ADD SLT PUSH2 0x5DB JUMPI PUSH1 0x4 CALLDATALOAD SWAP1 PUSH1 0x24 CALLDATALOAD PUSH1 0x1 PUSH1 0x1 PUSH1 0xA0 SHL SUB DUP2 AND DUP2 SUB PUSH2 0x5DB JUMPI SWAP1 PUSH1 0x44 CALLDATALOAD SWAP1 PUSH1 0x64 CALLDATALOAD SWAP1 JUMP JUMPDEST PUSH1 0x40 SWAP1 PUSH1 0x3 NOT ADD SLT PUSH2 0x5DB JUMPI PUSH1 0x4 CALLDATALOAD SWAP1 PUSH1 0x24 CALLDATALOAD SWAP1 JUMP JUMPDEST PUSH1 0xE0 SWAP1 PUSH1 0x3 NOT ADD SLT PUSH2 0x5DB JUMPI PUSH1 0x4 CALLDATALOAD PUSH1 0x1 PUSH1 0x1 PUSH1 0xA0 SHL SUB DUP2 AND DUP2 SUB PUSH2 0x5DB JUMPI SWAP1 PUSH1 0x24 CALLDATALOAD PUSH1 0x1 PUSH1 0x1 PUSH1 0xA0 SHL SUB DUP2 AND DUP2 SUB PUSH2 0x5DB JUMPI SWAP1 PUSH1 0x44 CALLDATALOAD SWAP1 PUSH1 0x64 CALLDATALOAD SWAP1 PUSH1 0x84 CALLDATALOAD PUSH1 0x1 PUSH1 0x1 PUSH1 0xA0 SHL SUB DUP2 AND DUP2 SUB PUSH2 0x5DB JUMPI SWAP1 PUSH1 0xA4 CALLDATALOAD SWAP1 PUSH1 0xC4 CALLDATALOAD PUSH1 0x6 DUP2 LT ISZERO PUSH2 0x5DB JUMPI SWAP1 JUMP JUMPDEST SWAP1 PUSH1 0x6 DUP3 LT ISZERO PUSH2 0x5335 JUMPI MSTORE JUMP JUMPDEST SWAP1 PUSH2 0x200 DUP1 PUSH2 0x58C3 SWAP4 PUSH1 0x1 DUP1 PUSH1 0xA0 SHL SUB DUP2 MLOAD AND DUP5 MSTORE PUSH1 0x1 DUP1 PUSH1 0xA0 SHL SUB PUSH1 0x20 DUP3 ADD MLOAD AND PUSH1 0x20 DUP6 ADD MSTORE PUSH1 0x1 DUP1 PUSH1 0xA0 SHL SUB PUSH1 0x40 DUP3 ADD MLOAD AND PUSH1 0x40 DUP6 ADD MSTORE PUSH1 0x60 DUP2 ADD MLOAD ISZERO ISZERO PUSH1 0x60 DUP6 ADD MSTORE PUSH1 0x80 DUP2 ADD MLOAD ISZERO ISZERO PUSH1 0x80 DUP6 ADD MSTORE PUSH1 0xA0 DUP2 ADD MLOAD ISZERO ISZERO PUSH1 0xA0 DUP6 ADD MSTORE PUSH1 0xC0 DUP2 ADD MLOAD ISZERO ISZERO PUSH1 0xC0 DUP6 ADD MSTORE PUSH1 0xE0 DUP2 ADD MLOAD PUSH1 0xE0 DUP6 ADD MSTORE PUSH2 0x100 DUP2 ADD MLOAD PUSH2 0x100 DUP6 ADD MSTORE PUSH2 0x120 DUP2 ADD MLOAD PUSH2 0x120 DUP6 ADD MSTORE PUSH2 0x140 DUP2 ADD MLOAD PUSH2 0x140 DUP6 ADD MSTORE PUSH2 0x160 DUP2 ADD MLOAD PUSH2 0x160 DUP6 ADD MSTORE PUSH2 0x180 DUP2 ADD MLOAD PUSH2 0x180 DUP6 ADD MSTORE PUSH1 0x1 DUP1 PUSH1 0xA0 SHL SUB PUSH2 0x1A0 DUP3 ADD MLOAD AND PUSH2 0x1A0 DUP6 ADD MSTORE PUSH1 0x1 DUP1 PUSH1 0xA0 SHL SUB PUSH2 0x1C0 DUP3 ADD MLOAD AND PUSH2 0x1C0 DUP6 ADD MSTORE PUSH2 0x1E0 DUP2 ADD MLOAD PUSH2 0x1E0 DUP6 ADD MSTORE ADD MLOAD SWAP2 ADD SWAP1 PUSH2 0x57C9 JUMP JUMPDEST JUMP JUMPDEST PUSH1 0x40 SWAP1 PUSH1 0x3 NOT ADD SLT PUSH2 0x5DB JUMPI PUSH1 0x4 CALLDATALOAD SWAP1 PUSH1 0x24 CALLDATALOAD DUP1 ISZERO ISZERO DUP2 SUB PUSH2 0x5DB JUMPI SWAP1 JUMP JUMPDEST ISZERO PUSH2 0x58EB JUMPI JUMP JUMPDEST PUSH1 0x40 MLOAD PUSH3 0x461BCD PUSH1 0xE5 SHL DUP2 MSTORE PUSH1 0x20 PUSH1 0x4 DUP3 ADD MSTORE PUSH1 0x2 PUSH1 0x24 DUP3 ADD MSTORE PUSH2 0x4C31 PUSH1 0xF0 SHL PUSH1 0x44 DUP3 ADD MSTORE PUSH1 0x64 SWAP1 REVERT JUMPDEST ISZERO PUSH2 0x591C JUMPI JUMP JUMPDEST PUSH1 0x40 MLOAD PUSH3 0x461BCD PUSH1 0xE5 SHL DUP2 MSTORE PUSH1 0x20 PUSH1 0x4 DUP3 ADD MSTORE PUSH1 0x2 PUSH1 0x24 DUP3 ADD MSTORE PUSH2 0x5431 PUSH1 0xF0 SHL PUSH1 0x44 DUP3 ADD MSTORE PUSH1 0x64 SWAP1 REVERT JUMPDEST PUSH1 0xE0 DUP2 ADD SWAP1 DUP2 LT PUSH1 0x1 PUSH1 0x1 PUSH1 0x40 SHL SUB DUP3 GT OR PUSH2 0x5961 JUMPI PUSH1 0x40 MSTORE JUMP JUMPDEST PUSH4 0x4E487B71 PUSH1 0xE0 SHL PUSH0 MSTORE PUSH1 0x41 PUSH1 0x4 MSTORE PUSH1 0x24 PUSH0 REVERT JUMPDEST PUSH2 0x220 DUP2 ADD SWAP1 DUP2 LT PUSH1 0x1 PUSH1 0x1 PUSH1 0x40 SHL SUB DUP3 GT OR PUSH2 0x5961 JUMPI PUSH1 0x40 MSTORE JUMP JUMPDEST PUSH1 0xA0 DUP2 ADD SWAP1 DUP2 LT PUSH1 0x1 PUSH1 0x1 PUSH1 0x40 SHL SUB DUP3 GT OR PUSH2 0x5961 JUMPI PUSH1 0x40 MSTORE JUMP JUMPDEST SWAP1 PUSH1 0x1F DUP1 NOT SWAP2 ADD AND DUP2 ADD SWAP1 DUP2 LT PUSH1 0x1 PUSH1 0x1 PUSH1 0x40 SHL SUB DUP3 GT OR PUSH2 0x5961 JUMPI PUSH1 0x40 MSTORE JUMP JUMPDEST MLOAD SWAP1 PUSH1 0x1 PUSH1 0x1 PUSH1 0xA0 SHL SUB DUP3 AND DUP3 SUB PUSH2 0x5DB JUMPI JUMP JUMPDEST MLOAD SWAP1 DUP2 ISZERO ISZERO DUP3 SUB PUSH2 0x5DB JUMPI JUMP JUMPDEST SWAP1 DUP2 PUSH2 0x220 SWAP2 SUB SLT PUSH2 0x5DB JUMPI PUSH2 0x200 PUSH1 0x40 MLOAD SWAP2 PUSH2 0x5A0A DUP4 PUSH2 0x5975 JUMP JUMPDEST PUSH2 0x5A13 DUP2 PUSH2 0x59CD JUMP JUMPDEST DUP4 MSTORE PUSH2 0x5A21 PUSH1 0x20 DUP3 ADD PUSH2 0x59CD JUMP JUMPDEST PUSH1 0x20 DUP5 ADD MSTORE PUSH2 0x5A32 PUSH1 0x40 DUP3 ADD PUSH2 0x59CD JUMP JUMPDEST PUSH1 0x40 DUP5 ADD MSTORE PUSH2 0x5A43 PUSH1 0x60 DUP3 ADD PUSH2 0x59E1 JUMP JUMPDEST PUSH1 0x60 DUP5 ADD MSTORE PUSH2 0x5A54 PUSH1 0x80 DUP3 ADD PUSH2 0x59E1 JUMP JUMPDEST PUSH1 0x80 DUP5 ADD MSTORE PUSH2 0x5A65 PUSH1 0xA0 DUP3 ADD PUSH2 0x59E1 JUMP JUMPDEST PUSH1 0xA0 DUP5 ADD MSTORE PUSH2 0x5A76 PUSH1 0xC0 DUP3 ADD PUSH2 0x59E1 JUMP JUMPDEST PUSH1 0xC0 DUP5 ADD MSTORE PUSH1 0xE0 DUP2 ADD MLOAD PUSH1 0xE0 DUP5 ADD MSTORE PUSH2 0x100 DUP2 ADD MLOAD PUSH2 0x100 DUP5 ADD MSTORE PUSH2 0x120 DUP2 ADD MLOAD PUSH2 0x120 DUP5 ADD MSTORE PUSH2 0x140 DUP2 ADD MLOAD PUSH2 0x140 DUP5 ADD MSTORE PUSH2 0x160 DUP2 ADD MLOAD PUSH2 0x160 DUP5 ADD MSTORE PUSH2 0x180 DUP2 ADD MLOAD PUSH2 0x180 DUP5 ADD MSTORE PUSH2 0x5ACE PUSH2 0x1A0 DUP3 ADD PUSH2 0x59CD JUMP JUMPDEST PUSH2 0x1A0 DUP5 ADD MSTORE PUSH2 0x5AE1 PUSH2 0x1C0 DUP3 ADD PUSH2 0x59CD JUMP JUMPDEST PUSH2 0x1C0 DUP5 ADD MSTORE PUSH2 0x1E0 DUP2 ADD MLOAD PUSH2 0x1E0 DUP5 ADD MSTORE ADD MLOAD PUSH1 0x6 DUP2 LT ISZERO PUSH2 0x5DB JUMPI PUSH2 0x200 DUP3 ADD MSTORE SWAP1 JUMP JUMPDEST PUSH1 0x1 PUSH1 0x1 PUSH1 0xA0 SHL SUB SWAP2 DUP3 AND DUP2 MSTORE SWAP2 DUP2 AND PUSH1 0x20 DUP4 ADD MSTORE SWAP2 DUP3 AND PUSH1 0x40 DUP3 ADD MSTORE PUSH1 0x60 DUP2 ADD SWAP3 SWAP1 SWAP3 MSTORE PUSH1 0x80 DUP3 ADD SWAP3 SWAP1 SWAP3 MSTORE PUSH1 0xA0 DUP2 ADD SWAP3 SWAP1 SWAP3 MSTORE PUSH1 0xC0 DUP3 ADD SWAP3 SWAP1 SWAP3 MSTORE SWAP2 DUP2 AND PUSH1 0xE0 DUP4 ADD MSTORE SWAP1 SWAP2 AND PUSH2 0x100 DUP3 ADD MSTORE PUSH2 0x120 DUP2 ADD SWAP2 SWAP1 SWAP2 MSTORE PUSH2 0x160 DUP2 ADD SWAP3 SWAP2 PUSH2 0x58C3 SWAP2 PUSH2 0x140 ADD SWAP1 PUSH2 0x57C9 JUMP JUMPDEST PUSH0 NOT DUP2 EQ PUSH2 0x5B81 JUMPI PUSH1 0x1 ADD SWAP1 JUMP JUMPDEST PUSH4 0x4E487B71 PUSH1 0xE0 SHL PUSH0 MSTORE PUSH1 0x11 PUSH1 0x4 MSTORE PUSH1 0x24 PUSH0 REVERT JUMPDEST DUP1 SLOAD PUSH1 0xFF PUSH1 0xA0 SHL NOT AND SWAP2 ISZERO ISZERO PUSH1 0xA0 SHL PUSH1 0xFF PUSH1 0xA0 SHL AND SWAP2 SWAP1 SWAP2 OR SWAP1 SSTORE JUMP JUMPDEST DUP1 SLOAD PUSH1 0xFF PUSH1 0xA8 SHL NOT AND SWAP2 ISZERO ISZERO PUSH1 0xA8 SHL PUSH1 0xFF PUSH1 0xA8 SHL AND SWAP2 SWAP1 SWAP2 OR SWAP1 SSTORE JUMP JUMPDEST DUP1 SLOAD PUSH1 0xFF PUSH1 0xB0 SHL NOT AND SWAP2 ISZERO ISZERO PUSH1 0xB0 SHL PUSH1 0xFF PUSH1 0xB0 SHL AND SWAP2 SWAP1 SWAP2 OR SWAP1 SSTORE JUMP JUMPDEST SWAP1 PUSH1 0x6 DUP2 LT ISZERO PUSH2 0x5335 JUMPI PUSH1 0xFF DUP1 NOT DUP4 SLOAD AND SWAP2 AND OR SWAP1 SSTORE JUMP JUMPDEST ISZERO PUSH2 0x5C0B JUMPI JUMP JUMPDEST PUSH1 0x40 MLOAD PUSH3 0x461BCD PUSH1 0xE5 SHL DUP2 MSTORE PUSH1 0x20 PUSH1 0x4 DUP3 ADD MSTORE PUSH1 0x2 PUSH1 0x24 DUP3 ADD MSTORE PUSH2 0x4435 PUSH1 0xF0 SHL PUSH1 0x44 DUP3 ADD MSTORE PUSH1 0x64 SWAP1 REVERT JUMPDEST ISZERO PUSH2 0x5C3C JUMPI JUMP JUMPDEST PUSH1 0x40 MLOAD PUSH3 0x461BCD PUSH1 0xE5 SHL DUP2 MSTORE PUSH1 0x20 PUSH1 0x4 DUP3 ADD MSTORE PUSH1 0x2 PUSH1 0x24 DUP3 ADD MSTORE PUSH2 0x2219 PUSH1 0xF1 SHL PUSH1 0x44 DUP3 ADD MSTORE PUSH1 0x64 SWAP1 REVERT JUMPDEST ISZERO PUSH2 0x5C6D JUMPI JUMP JUMPDEST PUSH1 0x40 MLOAD PUSH3 0x461BCD PUSH1 0xE5 SHL DUP2 MSTORE PUSH1 0x20 PUSH1 0x4 DUP3 ADD MSTORE PUSH1 0x2 PUSH1 0x24 DUP3 ADD MSTORE PUSH2 0x4433 PUSH1 0xF0 SHL PUSH1 0x44 DUP3 ADD MSTORE PUSH1 0x64 SWAP1 REVERT JUMPDEST ISZERO PUSH2 0x5C9E JUMPI JUMP JUMPDEST PUSH1 0x64 PUSH1 0x40 MLOAD PUSH3 0x461BCD PUSH1 0xE5 SHL DUP2 MSTORE PUSH1 0x20 PUSH1 0x4 DUP3 ADD MSTORE PUSH1 0x4 PUSH1 0x24 DUP3 ADD MSTORE PUSH4 0x44312E31 PUSH1 0xE0 SHL PUSH1 0x44 DUP3 ADD MSTORE REVERT JUMPDEST SWAP2 SWAP1 DUP3 SUB SWAP2 DUP3 GT PUSH2 0x5B81 JUMPI JUMP JUMPDEST PUSH1 0x1 PUSH1 0x1 PUSH1 0xA0 SHL SUB SWAP2 DUP3 AND DUP2 MSTORE SWAP2 AND PUSH1 0x20 DUP3 ADD MSTORE PUSH1 0x40 DUP2 ADD SWAP2 SWAP1 SWAP2 MSTORE PUSH1 0x60 DUP2 ADD SWAP2 SWAP1 SWAP2 MSTORE PUSH1 0x80 ADD SWAP1 JUMP JUMPDEST PUSH1 0x1 PUSH1 0x1 PUSH1 0xA0 SHL SUB SWAP2 DUP3 AND DUP2 MSTORE SWAP2 DUP2 AND PUSH1 0x20 DUP4 ADD MSTORE SWAP1 SWAP2 AND PUSH1 0x40 DUP3 ADD MSTORE PUSH1 0x60 DUP2 ADD SWAP2 SWAP1 SWAP2 MSTORE PUSH1 0x80 DUP2 ADD SWAP2 SWAP1 SWAP2 MSTORE PUSH1 0xA0 DUP2 ADD SWAP2 SWAP1 SWAP2 MSTORE PUSH1 0xC0 DUP2 ADD SWAP2 SWAP1 SWAP2 MSTORE PUSH1 0xE0 ADD SWAP1 JUMP JUMPDEST PUSH1 0x1 PUSH1 0x1 PUSH1 0xA0 SHL SUB SWAP2 DUP3 AND DUP2 MSTORE SWAP2 AND PUSH1 0x20 DUP3 ADD MSTORE PUSH1 0x40 ADD SWAP1 JUMP JUMPDEST DUP2 SLOAD PUSH1 0x1 PUSH1 0x1 PUSH1 0xA0 SHL SUB SWAP1 DUP2 AND DUP3 MSTORE PUSH1 0x1 DUP4 ADD SLOAD DUP2 AND PUSH1 0x20 DUP4 ADD MSTORE PUSH1 0x2 DUP4 ADD SLOAD DUP1 DUP3 AND PUSH1 0x40 DUP5 ADD MSTORE PUSH1 0xFF PUSH1 0xA0 DUP3 DUP2 SHR DUP3 AND ISZERO ISZERO PUSH1 0x60 DUP7 ADD MSTORE PUSH1 0xA8 DUP4 SWAP1 SHR DUP3 AND ISZERO ISZERO PUSH1 0x80 DUP7 ADD MSTORE PUSH1 0xB0 DUP4 SWAP1 SHR DUP3 AND ISZERO ISZERO SWAP1 DUP6 ADD MSTORE PUSH1 0xB8 SWAP2 SWAP1 SWAP2 SHR DUP2 AND ISZERO ISZERO PUSH1 0xC0 DUP5 ADD MSTORE PUSH1 0x3 DUP5 ADD SLOAD PUSH1 0xE0 DUP5 ADD MSTORE PUSH1 0x4 DUP5 ADD SLOAD PUSH2 0x100 DUP5 ADD MSTORE PUSH1 0x5 DUP5 ADD SLOAD PUSH2 0x120 DUP5 ADD MSTORE PUSH1 0x6 DUP5 ADD SLOAD PUSH2 0x140 DUP5 ADD MSTORE PUSH1 0x7 DUP5 ADD SLOAD PUSH2 0x160 DUP5 ADD MSTORE PUSH1 0x8 DUP5 ADD SLOAD PUSH2 0x180 DUP5 ADD MSTORE PUSH1 0x9 DUP5 ADD SLOAD DUP3 AND PUSH2 0x1A0 DUP5 ADD MSTORE PUSH1 0xA DUP5 ADD SLOAD SWAP1 SWAP2 AND PUSH2 0x1C0 DUP4 ADD MSTORE PUSH1 0xB DUP4 ADD SLOAD PUSH2 0x1E0 DUP4 ADD MSTORE PUSH1 0xC SWAP1 SWAP3 ADD SLOAD PUSH2 0x220 DUP3 ADD SWAP4 SWAP3 PUSH2 0x58C3 SWAP3 PUSH2 0x200 ADD SWAP2 AND PUSH2 0x57C9 JUMP JUMPDEST ISZERO PUSH2 0x5E49 JUMPI JUMP JUMPDEST PUSH1 0x64 PUSH1 0x40 MLOAD PUSH3 0x461BCD PUSH1 0xE5 SHL DUP2 MSTORE PUSH1 0x20 PUSH1 0x4 DUP3 ADD MSTORE PUSH1 0x4 PUSH1 0x24 DUP3 ADD MSTORE PUSH4 0x22191719 PUSH1 0xE1 SHL PUSH1 0x44 DUP3 ADD MSTORE REVERT JUMPDEST PUSH1 0x6 DUP3 LT ISZERO PUSH2 0x5335 JUMPI MSTORE JUMP JUMPDEST ISZERO PUSH2 0x5E87 JUMPI JUMP JUMPDEST PUSH1 0x40 MLOAD PUSH3 0x461BCD PUSH1 0xE5 SHL DUP2 MSTORE PUSH1 0x20 PUSH1 0x4 DUP3 ADD MSTORE PUSH1 0x2 PUSH1 0x24 DUP3 ADD MSTORE PUSH2 0x4331 PUSH1 0xF0 SHL PUSH1 0x44 DUP3 ADD MSTORE PUSH1 0x64 SWAP1 REVERT JUMPDEST ISZERO PUSH2 0x5EB8 JUMPI JUMP JUMPDEST PUSH1 0x40 MLOAD PUSH3 0x461BCD PUSH1 0xE5 SHL DUP2 MSTORE PUSH1 0x20 PUSH1 0x4 DUP3 ADD MSTORE PUSH1 0x2 PUSH1 0x24 DUP3 ADD MSTORE PUSH2 0x4335 PUSH1 0xF0 SHL PUSH1 0x44 DUP3 ADD MSTORE PUSH1 0x64 SWAP1 REVERT JUMPDEST PUSH1 0x1 PUSH1 0x1 PUSH1 0xA0 SHL SUB SWAP2 DUP3 AND DUP2 MSTORE SWAP2 DUP2 AND PUSH1 0x20 DUP4 ADD MSTORE SWAP2 DUP3 AND PUSH1 0x40 DUP3 ADD MSTORE PUSH1 0x60 DUP2 ADD SWAP3 SWAP1 SWAP3 MSTORE PUSH0 PUSH1 0x80 DUP4 ADD DUP2 SWAP1 MSTORE PUSH1 0xA0 DUP4 ADD SWAP4 SWAP1 SWAP4 MSTORE PUSH1 0xC0 DUP3 ADD DUP4 SWAP1 MSTORE SWAP1 SWAP3 AND PUSH1 0xE0 DUP4 ADD MSTORE PUSH2 0x100 DUP3 ADD MSTORE PUSH2 0x120 DUP2 ADD SWAP2 SWAP1 SWAP2 MSTORE PUSH2 0x160 DUP2 ADD SWAP3 SWAP2 PUSH2 0x58C3 SWAP2 PUSH2 0x140 ADD SWAP1 PUSH2 0x57C9 JUMP JUMPDEST SWAP2 SWAP1 DUP3 ADD DUP1 SWAP3 GT PUSH2 0x5B81 JUMPI JUMP JUMPDEST ISZERO PUSH2 0x5F5E JUMPI JUMP JUMPDEST PUSH1 0x64 PUSH1 0x40 MLOAD PUSH3 0x461BCD PUSH1 0xE5 SHL DUP2 MSTORE PUSH1 0x20 PUSH1 0x4 DUP3 ADD MSTORE PUSH1 0x4 PUSH1 0x24 DUP3 ADD MSTORE PUSH4 0x44332E31 PUSH1 0xE0 SHL PUSH1 0x44 DUP3 ADD MSTORE REVERT JUMPDEST ISZERO PUSH2 0x5F90 JUMPI JUMP JUMPDEST PUSH1 0x64 PUSH1 0x40 MLOAD PUSH3 0x461BCD PUSH1 0xE5 SHL DUP2 MSTORE PUSH1 0x20 PUSH1 0x4 DUP3 ADD MSTORE PUSH1 0x4 PUSH1 0x24 DUP3 ADD MSTORE PUSH4 0x44322E31 PUSH1 0xE0 SHL PUSH1 0x44 DUP3 ADD MSTORE REVERT JUMPDEST ISZERO PUSH2 0x5FC2 JUMPI JUMP JUMPDEST PUSH1 0x64 PUSH1 0x40 MLOAD PUSH3 0x461BCD PUSH1 0xE5 SHL DUP2 MSTORE PUSH1 0x20 PUSH1 0x4 DUP3 ADD MSTORE PUSH1 0x4 PUSH1 0x24 DUP3 ADD MSTORE PUSH4 0x43332E31 PUSH1 0xE0 SHL PUSH1 0x44 DUP3 ADD MSTORE REVERT JUMPDEST SWAP1 DUP2 PUSH0 MSTORE PUSH1 0xA PUSH1 0x20 MSTORE PUSH1 0x40 PUSH0 KECCAK256 DUP1 SLOAD PUSH0 MSTORE PUSH1 0x4 PUSH1 0x20 MSTORE PUSH1 0x40 PUSH0 KECCAK256 SWAP2 PUSH1 0x1 DUP1 PUSH1 0xA0 SHL SUB DUP4 SLOAD AND CALLER EQ DUP1 ISZERO PUSH2 0x619A JUMPI JUMPDEST PUSH2 0x6024 SWAP1 PUSH2 0x5C04 JUMP JUMPDEST PUSH2 0x6145 JUMPI PUSH1 0x2 DUP3 ADD DUP1 SLOAD SWAP1 SWAP3 SWAP1 PUSH2 0x6044 SWAP1 PUSH1 0x1 PUSH1 0x1 PUSH1 0xA0 SHL SUB AND ISZERO PUSH2 0x5FBB JUMP JUMPDEST DUP1 SLOAD PUSH1 0x1 PUSH1 0x1 PUSH1 0xA0 SHL SUB AND CALLER EQ PUSH2 0x612B JUMPI JUMPDEST PUSH1 0x1 ADD SLOAD PUSH1 0x1 PUSH1 0x1 PUSH1 0xA0 SHL SUB AND CALLER EQ PUSH2 0x6111 JUMPI JUMPDEST PUSH1 0x1 DUP2 ADD SWAP2 DUP3 SLOAD PUSH1 0xFF DUP2 PUSH1 0xA0 SHR AND DUP1 PUSH2 0x6104 JUMPI JUMPDEST PUSH2 0x60C3 JUMPI POP POP POP PUSH1 0x80 PUSH0 MLOAD PUSH1 0x20 PUSH2 0x67A5 PUSH0 CODECOPY PUSH0 MLOAD SWAP1 PUSH0 MSTORE SWAP2 SLOAD PUSH1 0xFF PUSH1 0x40 MLOAD SWAP2 CALLER DUP4 MSTORE DUP2 DUP2 PUSH1 0xA0 SHR AND ISZERO ISZERO PUSH1 0x20 DUP5 ADD MSTORE PUSH1 0xA8 SHR AND ISZERO ISZERO PUSH1 0x40 DUP3 ADD MSTORE PUSH0 PUSH1 0x60 DUP3 ADD MSTORE LOG2 PUSH0 SWAP1 JUMP JUMPDEST DUP2 SLOAD PUSH1 0x1 PUSH1 0x1 PUSH1 0xA0 SHL SUB NOT AND PUSH1 0x1 PUSH1 0x1 PUSH1 0xA0 SHL SUB SWAP2 DUP3 AND OR SWAP1 SWAP2 SSTORE SWAP2 SLOAD SWAP1 SLOAD PUSH1 0x40 MLOAD SWAP1 DUP2 MSTORE SWAP2 AND SWAP2 POP PUSH0 MLOAD PUSH1 0x20 PUSH2 0x68A5 PUSH0 CODECOPY PUSH0 MLOAD SWAP1 PUSH0 MSTORE SWAP1 PUSH1 0x20 SWAP1 LOG2 PUSH1 0x1 SWAP1 JUMP JUMPDEST POP PUSH1 0xFF DUP2 PUSH1 0xA8 SHR AND PUSH2 0x607E JUMP JUMPDEST PUSH1 0x1 DUP2 ADD DUP1 SLOAD PUSH1 0xFF PUSH1 0xA8 SHL NOT AND PUSH1 0x1 PUSH1 0xA8 SHL OR SWAP1 SSTORE PUSH2 0x606A JUMP JUMPDEST PUSH1 0x1 DUP3 ADD DUP1 SLOAD PUSH1 0xFF PUSH1 0xA0 SHL NOT AND PUSH1 0x1 PUSH1 0xA0 SHL OR SWAP1 SSTORE PUSH2 0x6056 JUMP JUMPDEST PUSH0 MLOAD PUSH1 0x20 PUSH2 0x67A5 PUSH0 CODECOPY PUSH0 MLOAD SWAP1 PUSH0 MSTORE SWAP2 POP PUSH1 0x1 PUSH1 0x80 SWAP2 ADD PUSH1 0x1 PUSH1 0xB0 SHL PUSH1 0xFF PUSH1 0xB0 SHL NOT DUP3 SLOAD AND OR DUP1 SWAP2 SSTORE PUSH1 0xFF PUSH1 0x40 MLOAD SWAP2 CALLER DUP4 MSTORE DUP2 DUP2 PUSH1 0xA0 SHR AND ISZERO ISZERO PUSH1 0x20 DUP5 ADD MSTORE PUSH1 0xA8 SHR AND ISZERO ISZERO PUSH1 0x40 DUP3 ADD MSTORE PUSH1 0x1 PUSH1 0x60 DUP3 ADD MSTORE LOG2 PUSH0 SWAP1 JUMP JUMPDEST POP PUSH1 0x1 DUP4 ADD SLOAD PUSH1 0x1 PUSH1 0x1 PUSH1 0xA0 SHL SUB AND CALLER EQ PUSH2 0x601B JUMP JUMPDEST PUSH0 SWAP2 DUP2 PUSH0 MSTORE PUSH1 0x9 PUSH1 0x20 MSTORE PUSH1 0x40 PUSH0 KECCAK256 SWAP1 DUP2 SLOAD PUSH0 MSTORE PUSH1 0x4 PUSH1 0x20 MSTORE PUSH1 0x40 PUSH0 KECCAK256 SWAP1 PUSH1 0x1 DUP3 ADD SWAP1 PUSH1 0x1 DUP1 PUSH1 0xA0 SHL SUB DUP3 SLOAD AND CALLER EQ DUP1 ISZERO PUSH2 0x649B JUMPI JUMPDEST DUP1 ISZERO PUSH2 0x6485 JUMPI JUMPDEST PUSH2 0x61F5 SWAP1 PUSH2 0x5C04 JUMP JUMPDEST PUSH20 0x0 DUP1 EXTCODESIZE ISZERO PUSH2 0x5DB JUMPI PUSH0 PUSH1 0x40 MLOAD DUP1 SWAP3 PUSH4 0x252A867 PUSH1 0xE5 SHL DUP3 MSTORE DUP2 DUP1 PUSH2 0x6230 DUP10 PUSH1 0x4 DUP4 ADD PUSH2 0x5D5D JUMP JUMPDEST SUB SWAP2 GAS DELEGATECALL DUP1 ISZERO PUSH2 0x4D7B JUMPI PUSH2 0x6470 JUMPI JUMPDEST POP PUSH2 0x640F JUMPI PUSH1 0x1 DUP4 ADD SWAP3 DUP4 SLOAD SWAP4 DUP5 ISZERO DUP1 ISZERO PUSH2 0x6405 JUMPI JUMPDEST PUSH2 0x625E SWAP1 PUSH2 0x5C97 JUMP JUMPDEST DUP4 SLOAD PUSH1 0x1 PUSH1 0x1 PUSH1 0xA0 SHL SUB AND CALLER EQ PUSH2 0x63EF JUMPI JUMPDEST DUP3 SLOAD PUSH1 0x1 PUSH1 0x1 PUSH1 0xA0 SHL SUB AND CALLER EQ PUSH2 0x63D7 JUMPI JUMPDEST PUSH1 0x2 DUP5 ADD DUP1 SLOAD SWAP1 SWAP3 SWAP1 PUSH1 0x1 PUSH1 0x1 PUSH1 0xA0 SHL SUB AND CALLER EQ PUSH2 0x63BD JUMPI JUMPDEST PUSH1 0x2 DUP2 ADD SWAP6 DUP7 SLOAD PUSH1 0xFF DUP2 PUSH1 0x8 SHR AND SWAP1 DUP2 PUSH2 0x63AE JUMPI JUMPDEST DUP2 PUSH2 0x63A0 JUMPI JUMPDEST POP PUSH2 0x630B JUMPI POP POP POP POP POP POP PUSH1 0xA0 PUSH0 MLOAD PUSH1 0x20 PUSH2 0x6745 PUSH0 CODECOPY PUSH0 MLOAD SWAP1 PUSH0 MSTORE SWAP2 SLOAD PUSH1 0xFF PUSH1 0x40 MLOAD SWAP2 CALLER DUP4 MSTORE DUP2 DUP2 PUSH1 0x8 SHR AND ISZERO ISZERO PUSH1 0x20 DUP5 ADD MSTORE DUP2 DUP2 PUSH1 0x10 SHR AND ISZERO ISZERO PUSH1 0x40 DUP5 ADD MSTORE PUSH1 0x18 SHR AND ISZERO ISZERO PUSH1 0x60 DUP3 ADD MSTORE DUP5 PUSH1 0x80 DUP3 ADD MSTORE LOG2 SWAP1 JUMP JUMPDEST DUP6 SWAP9 POP SWAP2 PUSH1 0xFF PUSH32 0x932BD05AAEE1F6600767846BAB40EAABEF608993E19645684D0A9FCB3335D372 SWAP8 SWAP3 PUSH2 0x639A SWAP6 SWAP5 PUSH1 0xB PUSH1 0xC0 SWAP10 ADD SSTORE PUSH2 0x6350 DUP3 DUP6 SLOAD AND PUSH1 0xC DUP14 ADD PUSH2 0x5BEC JUMP JUMPDEST SLOAD SWAP10 SLOAD SWAP6 SLOAD SWAP4 SLOAD SWAP2 SLOAD SWAP3 SLOAD PUSH1 0x40 DUP1 MLOAD PUSH1 0x1 PUSH1 0x1 PUSH1 0xA0 SHL SUB SWAP9 DUP10 AND DUP2 MSTORE SWAP6 DUP9 AND PUSH1 0x20 DUP8 ADD MSTORE SWAP3 SWAP1 SWAP7 AND SWAP2 DUP5 ADD SWAP2 SWAP1 SWAP2 MSTORE CALLER PUSH1 0x60 DUP5 ADD MSTORE PUSH1 0x80 DUP4 ADD SWAP2 SWAP1 SWAP2 MSTORE SWAP1 SWAP3 PUSH1 0xA0 DUP5 ADD SWAP2 AND PUSH2 0x57C9 JUMP JUMPDEST LOG3 PUSH1 0x1 SWAP1 JUMP JUMPDEST PUSH1 0xFF SWAP2 POP PUSH1 0x18 SHR AND PUSH0 PUSH2 0x62B6 JUMP JUMPDEST SWAP1 POP PUSH1 0xFF DUP2 PUSH1 0x10 SHR AND SWAP1 PUSH2 0x62B0 JUMP JUMPDEST PUSH1 0x2 DUP2 ADD DUP1 SLOAD PUSH4 0xFF000000 NOT AND PUSH4 0x1000000 OR SWAP1 SSTORE PUSH2 0x629B JUMP JUMPDEST PUSH1 0x2 DUP3 ADD DUP1 SLOAD PUSH3 0xFF0000 NOT AND PUSH3 0x10000 OR SWAP1 SSTORE PUSH2 0x6282 JUMP JUMPDEST PUSH1 0x2 DUP3 ADD DUP1 SLOAD PUSH2 0xFF00 NOT AND PUSH2 0x100 OR SWAP1 SSTORE PUSH2 0x6270 JUMP JUMPDEST POP TIMESTAMP DUP6 GT ISZERO PUSH2 0x6255 JUMP JUMPDEST POP POP PUSH1 0xA0 PUSH1 0x2 PUSH0 MLOAD PUSH1 0x20 PUSH2 0x6745 PUSH0 CODECOPY PUSH0 MLOAD SWAP1 PUSH0 MSTORE SWAP3 ADD PUSH1 0x1 PUSH1 0x20 SHL PUSH1 0xFF PUSH1 0x20 SHL NOT DUP3 SLOAD AND OR DUP1 SWAP2 SSTORE PUSH1 0xFF PUSH1 0x40 MLOAD SWAP2 CALLER DUP4 MSTORE DUP2 DUP2 PUSH1 0x8 SHR AND ISZERO ISZERO PUSH1 0x20 DUP5 ADD MSTORE DUP2 DUP2 PUSH1 0x10 SHR AND ISZERO ISZERO PUSH1 0x40 DUP5 ADD MSTORE PUSH1 0x18 SHR AND ISZERO ISZERO PUSH1 0x60 DUP3 ADD MSTORE PUSH1 0x1 PUSH1 0x80 DUP3 ADD MSTORE LOG2 SWAP1 JUMP JUMPDEST PUSH2 0x647D SWAP2 SWAP7 POP PUSH0 SWAP1 PUSH2 0x59AC JUMP JUMPDEST PUSH0 SWAP5 PUSH0 PUSH2 0x623F JUMP JUMPDEST POP PUSH1 0x2 DUP4 ADD SLOAD PUSH1 0x1 PUSH1 0x1 PUSH1 0xA0 SHL SUB AND CALLER EQ PUSH2 0x61EC JUMP JUMPDEST POP DUP3 SLOAD PUSH1 0x1 PUSH1 0x1 PUSH1 0xA0 SHL SUB AND CALLER EQ PUSH2 0x61E5 JUMP JUMPDEST PUSH1 0x1 PUSH1 0x1 PUSH1 0xA0 SHL SUB SWAP1 SWAP2 AND DUP2 MSTORE PUSH1 0x20 DUP2 ADD SWAP2 SWAP1 SWAP2 MSTORE PUSH1 0x40 ADD SWAP1 JUMP JUMPDEST PUSH1 0x1 DUP1 PUSH1 0xA0 SHL SUB AND PUSH0 MSTORE PUSH1 0x1 PUSH1 0x20 MSTORE PUSH1 0x40 PUSH0 KECCAK256 SWAP1 PUSH1 0x1 DUP1 PUSH1 0xA0 SHL SUB AND PUSH0 MSTORE PUSH1 0x20 MSTORE PUSH1 0x40 PUSH0 KECCAK256 SLOAD SWAP1 JUMP JUMPDEST DUP3 ISZERO PUSH2 0x657E JUMPI PUSH1 0x1 DUP1 PUSH1 0xA0 SHL SUB AND SWAP1 DUP2 PUSH0 MSTORE PUSH1 0x1 PUSH1 0x20 MSTORE PUSH1 0x40 PUSH0 KECCAK256 PUSH1 0x1 DUP1 PUSH1 0xA0 SHL SUB DUP3 AND PUSH0 MSTORE PUSH1 0x20 MSTORE DUP3 PUSH1 0x40 PUSH0 KECCAK256 SLOAD LT PUSH2 0x6577 JUMPI PUSH0 MLOAD PUSH1 0x20 PUSH2 0x67C5 PUSH0 CODECOPY PUSH0 MLOAD SWAP1 PUSH0 MSTORE PUSH1 0x20 PUSH0 SWAP3 DUP5 DUP5 MSTORE PUSH1 0x1 DUP3 MSTORE PUSH1 0x40 DUP5 KECCAK256 PUSH1 0x1 DUP1 PUSH1 0xA0 SHL SUB DUP3 AND DUP6 MSTORE DUP3 MSTORE PUSH1 0x40 DUP5 KECCAK256 PUSH2 0x655F DUP8 DUP3 SLOAD PUSH2 0x5CC9 JUMP JUMPDEST SWAP1 SSTORE PUSH1 0x40 MLOAD SWAP6 DUP7 MSTORE PUSH1 0x1 PUSH1 0x1 PUSH1 0xA0 SHL SUB AND SWAP5 LOG4 PUSH1 0x1 SWAP1 JUMP JUMPDEST POP POP POP PUSH0 SWAP1 JUMP JUMPDEST POP POP POP PUSH1 0x1 SWAP1 JUMP JUMPDEST SWAP2 SWAP1 DUP2 ISZERO PUSH2 0x657E JUMPI PUSH1 0x1 PUSH1 0x1 PUSH1 0xA0 SHL SUB AND SWAP2 DUP3 PUSH2 0x65DB JUMPI PUSH0 DUP1 DUP1 DUP1 DUP6 PUSH1 0x1 PUSH1 0x1 PUSH1 0xA0 SHL SUB DUP7 AND DUP3 CALL ISZERO PUSH2 0x4D7B JUMPI PUSH1 0x20 PUSH0 MLOAD PUSH1 0x20 PUSH2 0x6865 PUSH0 CODECOPY PUSH0 MLOAD SWAP1 PUSH0 MSTORE SWAP2 JUMPDEST PUSH1 0x40 MLOAD SWAP4 DUP5 MSTORE PUSH1 0x1 PUSH1 0x1 PUSH1 0xA0 SHL SUB AND SWAP3 LOG3 PUSH1 0x1 SWAP1 JUMP JUMPDEST PUSH1 0x40 MLOAD PUSH4 0xA9059CBB PUSH1 0xE0 SHL DUP2 MSTORE PUSH1 0x1 PUSH1 0x1 PUSH1 0xA0 SHL SUB DUP3 AND PUSH1 0x4 DUP3 ADD MSTORE PUSH1 0x24 DUP2 ADD DUP4 SWAP1 MSTORE PUSH1 0x20 DUP2 PUSH1 0x44 DUP2 PUSH0 DUP9 GAS CALL SWAP1 DUP2 ISZERO PUSH2 0x4D7B JUMPI PUSH0 SWAP2 PUSH2 0x665C JUMPI JUMPDEST POP ISZERO PUSH2 0x6632 JUMPI PUSH1 0x20 PUSH0 MLOAD PUSH1 0x20 PUSH2 0x6865 PUSH0 CODECOPY PUSH0 MLOAD SWAP1 PUSH0 MSTORE SWAP2 PUSH2 0x65C5 JUMP JUMPDEST PUSH1 0x40 MLOAD PUSH3 0x461BCD PUSH1 0xE5 SHL DUP2 MSTORE PUSH1 0x20 PUSH1 0x4 DUP3 ADD MSTORE PUSH1 0x2 PUSH1 0x24 DUP3 ADD MSTORE PUSH2 0x5433 PUSH1 0xF0 SHL PUSH1 0x44 DUP3 ADD MSTORE PUSH1 0x64 SWAP1 REVERT JUMPDEST SWAP1 POP PUSH1 0x20 DUP2 RETURNDATASIZE PUSH1 0x20 GT PUSH2 0x668E JUMPI JUMPDEST DUP2 PUSH2 0x6677 PUSH1 0x20 SWAP4 DUP4 PUSH2 0x59AC JUMP JUMPDEST DUP2 ADD SUB SLT PUSH2 0x5DB JUMPI PUSH2 0x6688 SWAP1 PUSH2 0x59E1 JUMP JUMPDEST PUSH0 PUSH2 0x6616 JUMP JUMPDEST RETURNDATASIZE SWAP2 POP PUSH2 0x666A JUMP JUMPDEST DUP3 ISZERO PUSH2 0x657E JUMPI PUSH0 MLOAD PUSH1 0x20 PUSH2 0x67C5 PUSH0 CODECOPY PUSH0 MLOAD SWAP1 PUSH0 MSTORE PUSH1 0x20 PUSH0 SWAP3 PUSH1 0x1 DUP1 PUSH1 0xA0 SHL SUB AND SWAP4 DUP5 DUP5 MSTORE PUSH1 0x1 DUP3 MSTORE PUSH1 0x40 DUP5 KECCAK256 PUSH1 0x1 DUP1 PUSH1 0xA0 SHL SUB DUP3 AND DUP6 MSTORE DUP3 MSTORE PUSH1 0x40 DUP5 KECCAK256 PUSH2 0x655F DUP8 DUP3 SLOAD PUSH2 0x5F4A JUMP JUMPDEST PUSH0 SLOAD PUSH1 0x1 PUSH1 0x1 PUSH1 0xA0 SHL SUB AND CALLER SUB PUSH2 0x66F1 JUMPI JUMP JUMPDEST PUSH4 0x118CDAA7 PUSH1 0xE0 SHL PUSH0 MSTORE CALLER PUSH1 0x4 MSTORE PUSH1 0x24 PUSH0 REVERT INVALID DUP15 LT 0xD 0xC3 CALLER MCOPY MULMOD 0xB0 DUP3 0xC8 NUMBER TIMESTAMP PUSH0 PUSH18 0xEA8AE9D91AE5BB385EF4B41D0D2C6AA87214 DUP11 RETURN SWAP9 EQ DUP3 PUSH14 0x4542F7FE66E6FA6AC2AC59BFC822 SGT SWAP5 CREATE2 BYTE COINBASE 0xDB 0xA5 0xC5 0x4D 0xBA EXP 0xC9 0xCA SMOD SWAP3 0xB3 SWAP6 PUSH25 0x20BC249DD7664026CA960EFE1500204314BF8161056D3847D5 0x26 0xAF 0xBE CALLER PUSH24 0x83658B293F1566E1790BFAB9858B8CF08DE944CA3CD013D4 0x21 XOR DUP8 0xB8 MCOPY MUL PUSH10 0x8C1650D6CBE1F7E8A486 MULMOD 0xD0 0xDA GASLIMIT 0xAD PUSH32 0x5E4C13CD8B196F82965C0AB0D5DA0FDC90D2CAC3C2211C13CF60368ACEB049A3 SMOD EXTCODESIZE DUP12 0xE0 0xB9 SMOD SWAP3 MUL XOR DUP9 0xC5 PUSH0 0xC5 0xD1 CODECOPY DUP12 0xEE NOT BALANCE RETURNDATASIZE PUSH12 0xF672CCB116E51F4A1A947E91 0xC7 JUMPI SWAP1 PUSH32 0x51FBB5B5E56C698F017904E4FE7D59BB4603C7C045BC275A05DA9EA3A4AC007F 0xC8 0xF SELFDESTRUCT 0xEA CALL NOT XOR PUSH14 0x86C61B89EF5FCDB14C243B64306 SWAP13 EXTCODECOPY PUSH11 0x84765B27F2A696B875DDDF SUB BYTE 0xFB 0x4D DUP12 0xE0 SMOD SWAP13 MSTORE8 AND MSIZE EQ SGT PREVRANDAO 0xCD 0x1F 0xD0 LOG4 CALLCODE DUP5 NOT BLOBHASH PUSH32 0x9722A3DAAFE3B4186F6B6457E09D5818EC36D6E85E8A30346F5FE41B65CC50CE LOG2 0xB8 PUSH9 0xAE94F293D113C92A13 CODESIZE 0x27 OR 0xEA 0xD6 0xB9 KECCAK256 0xD 0xD2 CALLDATALOAD 0xAA 0xD4 PUSH9 0xC9809EA400FE33AC69 0xB5 0xBF 0xAA PUSH14 0x3E90FC922B6398A6AF192380B5BA BALANCE BYTE 0xC0 SUB CREATE2 PUSH31 0xFA2BE0717F0E466318C7E9CF546C4937A03D94957372C0E02D2882134CC0EE 0xBB 0xEF SWAP15 PREVRANDAO PUSH7 0x34D8CCBB1CBB11 0x2B 0xDE REVERT 0xD3 0xCF EXP PUSH5 0x3CF05D3363 0x4B PUSH20 0xE763D232B482CF835A4481835F62D0A0973B420 XOR 0xA8 0xEA 0xD4 CREATE SELFBALANCE 0xDC 0xBC SHR SDIV 0x24 0xF BALANCE SELFDESTRUCT GASPRICE 0xD0 PUSH8 0xEF1EE35CE4997762 PUSH22 0x2E3A095284754544F4C709D79F039F6754F2D286001D PUSH12 0xB50C1B3CC185B309E82F6307 PUSH31 0x29516A6A87E8E99DA2646970667358221220FB4A383E4F099D0331EE930EA8 LT SWAP10 PUSH22 0x1E681CCD7FB1671835016C0592F0E7CA64736F6C6343 STOP ADDMOD SHR STOP CALLER "
		},
		"gasEstimates": {
			"creation": {
				"codeDepositCost": "5394000",
				"executionCost": "infinite",
				"totalCost": "infinite"
			},
			"external": {
				"addDepositByCounterparty(bytes32,uint256)": "infinite",
				"addDepositByInitiator(bytes32,uint256)": "infinite",
				"balanceOf(address)": "3020",
				"balanceOf(address,address)": "3769",
				"balances(address,address)": "3549",
				"cancelDeal(bytes32)": "infinite",
				"commissionRecipient()": "2340",
				"completeDeal(bytes32)": "infinite",
				"contractEnabled()": "2601",
				"counterpartyAcceptSidedDeal(bytes32)": "infinite",
				"createDeal(address,address,uint256,uint256,address,uint256,uint8)": "infinite",
				"createDealEditExpiration(bytes32,uint256,uint8)": "infinite",
				"createEditDealMediatorRequest(bytes32,address)": "155991",
				"createSidedDeal(address,address,uint256,uint256,uint256,uint256,address,address,uint256,uint8)": "infinite",
				"deals(bytes32)": "28812",
				"deposit(address,uint256)": "infinite",
				"depositCommissionPercent()": "2957",
				"disableContract()": "29398",
				"editDealExpirationRequests(uint256)": "7746",
				"editDealMediatorRequests(uint256)": "5034",
				"enableContract()": "28970",
				"executeActionsAfterExpiration(bytes32)": "infinite",
				"getAmountToDepositViaComission(uint256)": "infinite",
				"getDeal(bytes32)": "infinite",
				"getEditDealExpiratation(uint256)": "infinite",
				"getEditDealMediator(uint256)": "infinite",
				"givebackToConunterparty(bytes32,uint256)": "infinite",
				"givebackToInitiator(bytes32,uint256)": "infinite",
				"madeDealTwoSided(bytes32,address,uint256,uint256)": "infinite",
				"owner()": "3000",
				"payUpAddDepositByCounterparty(bytes32,uint256)": "infinite",
				"payUpAddDepositByInitiator(bytes32,uint256)": "infinite",
				"payUpCounterpartyAcceptSidedDeal(bytes32)": "infinite",
				"payUpCreateDeal(address,address,uint256,uint256,address,uint256,uint8)": "infinite",
				"payUpCreateSidedDeal(address,address,uint256,uint256,uint256,uint256,address,address,uint256,uint8)": "infinite",
				"payUpMadeDealTwoSided(bytes32,address,uint256,uint256)": "infinite",
				"rejectSidedDeal(bytes32)": "infinite",
				"renounceOwnership()": "28655",
				"setDepositCommission(uint256,address)": "50292",
				"signDealEditExpiration(uint256,bool)": "infinite",
				"signEditDealMediatorRequest(uint256,bool)": "infinite",
				"totalCompletedDeals()": "3353",
				"totalDeals()": "3023",
				"totalEditDealMediatorRequests()": "2272",
				"totalEditExpirationRequests()": "3045",
				"transfer(address,address,uint256)": "infinite",
				"transferOwnership(address)": "29359",
				"transferToCounterparty(bytes32,uint256)": "infinite",
				"transferToInitiator(bytes32,uint256)": "infinite",
				"withdraw(address,uint256)": "infinite",
				"withdrawCancelDeal(bytes32)": "infinite",
				"withdrawCompleteDeal(bytes32)": "infinite",
				"withdrawExecuteActionsAfterExpiration(bytes32)": "infinite",
				"withdrawGivebackToConunterparty(bytes32,uint256)": "infinite",
				"withdrawGivebackToInitiator(bytes32,uint256)": "infinite",
				"withdrawRejectSidedDeal(bytes32)": "infinite",
				"withdrawTransferToCounterparty(bytes32,uint256)": "infinite",
				"withdrawTransferToInitiator(bytes32,uint256)": "infinite"
			}
		},
		"methodIdentifiers": {
			"addDepositByCounterparty(bytes32,uint256)": "c99b8965",
			"addDepositByInitiator(bytes32,uint256)": "b4a99ccb",
			"balanceOf(address)": "70a08231",
			"balanceOf(address,address)": "f7888aec",
			"balances(address,address)": "c23f001f",
			"cancelDeal(bytes32)": "faa86b4a",
			"commissionRecipient()": "06fd154a",
			"completeDeal(bytes32)": "51b7d535",
			"contractEnabled()": "41b3a0d9",
			"counterpartyAcceptSidedDeal(bytes32)": "4187129c",
			"createDeal(address,address,uint256,uint256,address,uint256,uint8)": "17b52b50",
			"createDealEditExpiration(bytes32,uint256,uint8)": "1273c165",
			"createEditDealMediatorRequest(bytes32,address)": "cfaaf235",
			"createSidedDeal(address,address,uint256,uint256,uint256,uint256,address,address,uint256,uint8)": "007e8bd3",
			"deals(bytes32)": "81cd872a",
			"deposit(address,uint256)": "47e7ef24",
			"depositCommissionPercent()": "899a3ffd",
			"disableContract()": "894ba833",
			"editDealExpirationRequests(uint256)": "c15a25bf",
			"editDealMediatorRequests(uint256)": "53a78000",
			"enableContract()": "367edd32",
			"executeActionsAfterExpiration(bytes32)": "706b14f5",
			"getAmountToDepositViaComission(uint256)": "39b3edb0",
			"getDeal(bytes32)": "51a6fad5",
			"getEditDealExpiratation(uint256)": "eb457329",
			"getEditDealMediator(uint256)": "ba343f6d",
			"givebackToConunterparty(bytes32,uint256)": "114aeacc",
			"givebackToInitiator(bytes32,uint256)": "5040125b",
			"madeDealTwoSided(bytes32,address,uint256,uint256)": "63adb66f",
			"owner()": "8da5cb5b",
			"payUpAddDepositByCounterparty(bytes32,uint256)": "a7170106",
			"payUpAddDepositByInitiator(bytes32,uint256)": "fbb405db",
			"payUpCounterpartyAcceptSidedDeal(bytes32)": "bb06c1a4",
			"payUpCreateDeal(address,address,uint256,uint256,address,uint256,uint8)": "28d5a050",
			"payUpCreateSidedDeal(address,address,uint256,uint256,uint256,uint256,address,address,uint256,uint8)": "cfadf6c7",
			"payUpMadeDealTwoSided(bytes32,address,uint256,uint256)": "0934da22",
			"rejectSidedDeal(bytes32)": "8deea5fb",
			"renounceOwnership()": "715018a6",
			"setDepositCommission(uint256,address)": "15f8a314",
			"signDealEditExpiration(uint256,bool)": "71ae8bcd",
			"signEditDealMediatorRequest(uint256,bool)": "619c457e",
			"totalCompletedDeals()": "e08560a4",
			"totalDeals()": "966d1f1d",
			"totalEditDealMediatorRequests()": "02927459",
			"totalEditExpirationRequests()": "9974f376",
			"transfer(address,address,uint256)": "beabacc8",
			"transferOwnership(address)": "f2fde38b",
			"transferToCounterparty(bytes32,uint256)": "3f3e8212",
			"transferToInitiator(bytes32,uint256)": "7165e542",
			"withdraw(address,uint256)": "f3fef3a3",
			"withdrawCancelDeal(bytes32)": "b7dc14fe",
			"withdrawCompleteDeal(bytes32)": "30e97ae1",
			"withdrawExecuteActionsAfterExpiration(bytes32)": "044a6da1",
			"withdrawGivebackToConunterparty(bytes32,uint256)": "a4f60b16",
			"withdrawGivebackToInitiator(bytes32,uint256)": "f2d5ec3d",
			"withdrawRejectSidedDeal(bytes32)": "80ccb070",
			"withdrawTransferToCounterparty(bytes32,uint256)": "4dff0036",
			"withdrawTransferToInitiator(bytes32,uint256)": "d747b811"
		}
	},
	"abi": [
		{
			"inputs": [
				{
					"internalType": "uint256",
					"name": "_depositCommissionPercent",
					"type": "uint256"
				},
				{
					"internalType": "address",
					"name": "_commissionRecipient",
					"type": "address"
				}
			],
			"stateMutability": "nonpayable",
			"type": "constructor"
		},
		{
			"inputs": [
				{
					"internalType": "address",
					"name": "owner",
					"type": "address"
				}
			],
			"name": "OwnableInvalidOwner",
			"type": "error"
		},
		{
			"inputs": [
				{
					"internalType": "address",
					"name": "account",
					"type": "address"
				}
			],
			"name": "OwnableUnauthorizedAccount",
			"type": "error"
		},
		{
			"anonymous": false,
			"inputs": [
				{
					"indexed": true,
					"internalType": "bytes32",
					"name": "id",
					"type": "bytes32"
				},
				{
					"indexed": true,
					"internalType": "address",
					"name": "initiator",
					"type": "address"
				},
				{
					"indexed": true,
					"internalType": "address",
					"name": "counterparty",
					"type": "address"
				},
				{
					"indexed": false,
					"internalType": "address",
					"name": "mediator",
					"type": "address"
				},
				{
					"indexed": false,
					"internalType": "uint256",
					"name": "amount",
					"type": "uint256"
				}
			],
			"name": "AddDepositByCounterparty",
			"type": "event"
		},
		{
			"anonymous": false,
			"inputs": [
				{
					"indexed": true,
					"internalType": "bytes32",
					"name": "id",
					"type": "bytes32"
				},
				{
					"indexed": true,
					"internalType": "address",
					"name": "initiator",
					"type": "address"
				},
				{
					"indexed": true,
					"internalType": "address",
					"name": "counterparty",
					"type": "address"
				},
				{
					"indexed": false,
					"internalType": "address",
					"name": "mediator",
					"type": "address"
				},
				{
					"indexed": false,
					"internalType": "uint256",
					"name": "amount",
					"type": "uint256"
				}
			],
			"name": "AddDepositByInitiator",
			"type": "event"
		},
		{
			"anonymous": false,
			"inputs": [
				{
					"indexed": false,
					"internalType": "uint256",
					"name": "newCommissionPercent",
					"type": "uint256"
				},
				{
					"indexed": false,
					"internalType": "address",
					"name": "newCommissionRecipient",
					"type": "address"
				}
			],
			"name": "CommissionChanged",
			"type": "event"
		},
		{
			"anonymous": false,
			"inputs": [
				{
					"indexed": true,
					"internalType": "address",
					"name": "by",
					"type": "address"
				}
			],
			"name": "ContractDisabled",
			"type": "event"
		},
		{
			"anonymous": false,
			"inputs": [
				{
					"indexed": true,
					"internalType": "address",
					"name": "by",
					"type": "address"
				}
			],
			"name": "ContractEnabled",
			"type": "event"
		},
		{
			"anonymous": false,
			"inputs": [
				{
					"indexed": false,
					"internalType": "bool",
					"name": "status",
					"type": "bool"
				}
			],
			"name": "ContractStatusChanged",
			"type": "event"
		},
		{
			"anonymous": false,
			"inputs": [
				{
					"indexed": true,
					"internalType": "bytes32",
					"name": "id",
					"type": "bytes32"
				},
				{
					"indexed": true,
					"internalType": "address",
					"name": "initiator",
					"type": "address"
				},
				{
					"indexed": true,
					"internalType": "address",
					"name": "counterparty",
					"type": "address"
				},
				{
					"indexed": false,
					"internalType": "address",
					"name": "mediator",
					"type": "address"
				}
			],
			"name": "DealBecomeTwoSided",
			"type": "event"
		},
		{
			"anonymous": false,
			"inputs": [
				{
					"indexed": true,
					"internalType": "bytes32",
					"name": "id",
					"type": "bytes32"
				},
				{
					"indexed": true,
					"internalType": "address",
					"name": "initiator",
					"type": "address"
				},
				{
					"indexed": true,
					"internalType": "address",
					"name": "counterparty",
					"type": "address"
				},
				{
					"indexed": false,
					"internalType": "address",
					"name": "mediator",
					"type": "address"
				},
				{
					"indexed": false,
					"internalType": "address",
					"name": "sender",
					"type": "address"
				}
			],
			"name": "DealCanceled",
			"type": "event"
		},
		{
			"anonymous": false,
			"inputs": [
				{
					"indexed": true,
					"internalType": "bytes32",
					"name": "id",
					"type": "bytes32"
				},
				{
					"indexed": true,
					"internalType": "address",
					"name": "initiator",
					"type": "address"
				},
				{
					"indexed": true,
					"internalType": "address",
					"name": "counterparty",
					"type": "address"
				},
				{
					"indexed": false,
					"internalType": "address",
					"name": "mediator",
					"type": "address"
				},
				{
					"indexed": false,
					"internalType": "address",
					"name": "sender",
					"type": "address"
				}
			],
			"name": "DealCompited",
			"type": "event"
		},
		{
			"anonymous": false,
			"inputs": [
				{
					"indexed": true,
					"internalType": "bytes32",
					"name": "id",
					"type": "bytes32"
				},
				{
					"indexed": true,
					"internalType": "address",
					"name": "initiator",
					"type": "address"
				},
				{
					"indexed": true,
					"internalType": "address",
					"name": "counterparty",
					"type": "address"
				},
				{
					"indexed": false,
					"internalType": "address",
					"name": "mediator",
					"type": "address"
				}
			],
			"name": "DealCreated",
			"type": "event"
		},
		{
			"anonymous": false,
			"inputs": [
				{
					"indexed": true,
					"internalType": "bytes32",
					"name": "id",
					"type": "bytes32"
				},
				{
					"indexed": true,
					"internalType": "address",
					"name": "initiator",
					"type": "address"
				},
				{
					"indexed": true,
					"internalType": "address",
					"name": "counterparty",
					"type": "address"
				},
				{
					"indexed": false,
					"internalType": "address",
					"name": "mediator",
					"type": "address"
				}
			],
			"name": "DealRequestCreated",
			"type": "event"
		},
		{
			"anonymous": false,
			"inputs": [
				{
					"indexed": true,
					"internalType": "address",
					"name": "user",
					"type": "address"
				},
				{
					"indexed": true,
					"internalType": "address",
					"name": "token",
					"type": "address"
				},
				{
					"indexed": false,
					"internalType": "uint256",
					"name": "amount",
					"type": "uint256"
				},
				{
					"indexed": false,
					"internalType": "uint256",
					"name": "commission",
					"type": "uint256"
				}
			],
			"name": "Deposit",
			"type": "event"
		},
		{
			"anonymous": false,
			"inputs": [
				{
					"indexed": true,
					"internalType": "bytes32",
					"name": "id",
					"type": "bytes32"
				},
				{
					"indexed": true,
					"internalType": "address",
					"name": "initiator",
					"type": "address"
				},
				{
					"indexed": true,
					"internalType": "address",
					"name": "counterparty",
					"type": "address"
				},
				{
					"indexed": false,
					"internalType": "address",
					"name": "mediator",
					"type": "address"
				},
				{
					"indexed": false,
					"internalType": "address",
					"name": "sender",
					"type": "address"
				},
				{
					"indexed": false,
					"internalType": "uint256",
					"name": "requestId",
					"type": "uint256"
				}
			],
			"name": "EditDealExpirationRequestCreated",
			"type": "event"
		},
		{
			"anonymous": false,
			"inputs": [
				{
					"indexed": true,
					"internalType": "uint256",
					"name": "id",
					"type": "uint256"
				},
				{
					"indexed": false,
					"internalType": "address",
					"name": "sender",
					"type": "address"
				},
				{
					"indexed": false,
					"internalType": "bool",
					"name": "signedInititor",
					"type": "bool"
				},
				{
					"indexed": false,
					"internalType": "bool",
					"name": "signedCounterparty",
					"type": "bool"
				},
				{
					"indexed": false,
					"internalType": "bool",
					"name": "signedMediator",
					"type": "bool"
				},
				{
					"indexed": false,
					"internalType": "bool",
					"name": "rejected",
					"type": "bool"
				}
			],
			"name": "EditDealExpirationRequestUpdated",
			"type": "event"
		},
		{
			"anonymous": false,
			"inputs": [
				{
					"indexed": true,
					"internalType": "uint256",
					"name": "id",
					"type": "uint256"
				},
				{
					"indexed": true,
					"internalType": "bytes32",
					"name": "dealId",
					"type": "bytes32"
				},
				{
					"indexed": true,
					"internalType": "address",
					"name": "newMediator",
					"type": "address"
				},
				{
					"indexed": false,
					"internalType": "address",
					"name": "sender",
					"type": "address"
				}
			],
			"name": "EditDealMediatorRequestCreated",
			"type": "event"
		},
		{
			"anonymous": false,
			"inputs": [
				{
					"indexed": true,
					"internalType": "uint256",
					"name": "reid",
					"type": "uint256"
				},
				{
					"indexed": false,
					"internalType": "address",
					"name": "sender",
					"type": "address"
				},
				{
					"indexed": false,
					"internalType": "bool",
					"name": "signedByInitiator",
					"type": "bool"
				},
				{
					"indexed": false,
					"internalType": "bool",
					"name": "signedByCounterparty",
					"type": "bool"
				},
				{
					"indexed": false,
					"internalType": "bool",
					"name": "rejected",
					"type": "bool"
				}
			],
			"name": "EditDealMediatorRequestUpdated",
			"type": "event"
		},
		{
			"anonymous": false,
			"inputs": [
				{
					"indexed": true,
					"internalType": "uint256",
					"name": "Id",
					"type": "uint256"
				},
				{
					"indexed": true,
					"internalType": "bytes32",
					"name": "dealId",
					"type": "bytes32"
				},
				{
					"indexed": false,
					"internalType": "address",
					"name": "initiator",
					"type": "address"
				},
				{
					"indexed": false,
					"internalType": "address",
					"name": "counterparty",
					"type": "address"
				},
				{
					"indexed": false,
					"internalType": "address",
					"name": "mediator",
					"type": "address"
				},
				{
					"indexed": false,
					"internalType": "address",
					"name": "sender",
					"type": "address"
				},
				{
					"indexed": false,
					"internalType": "uint256",
					"name": "newExpirationDate",
					"type": "uint256"
				},
				{
					"indexed": false,
					"internalType": "enum MediatorAction",
					"name": "mediatorActionOnExpiration",
					"type": "uint8"
				}
			],
			"name": "EditedDealExpiration",
			"type": "event"
		},
		{
			"anonymous": false,
			"inputs": [
				{
					"indexed": true,
					"internalType": "bytes32",
					"name": "id",
					"type": "bytes32"
				},
				{
					"indexed": true,
					"internalType": "address",
					"name": "initiator",
					"type": "address"
				},
				{
					"indexed": true,
					"internalType": "address",
					"name": "counterparty",
					"type": "address"
				},
				{
					"indexed": false,
					"internalType": "address",
					"name": "mediator",
					"type": "address"
				},
				{
					"indexed": false,
					"internalType": "address",
					"name": "sender",
					"type": "address"
				},
				{
					"indexed": false,
					"internalType": "uint256",
					"name": "amount",
					"type": "uint256"
				},
				{
					"indexed": false,
					"internalType": "uint256",
					"name": "fee",
					"type": "uint256"
				}
			],
			"name": "GivebackToCounterparty",
			"type": "event"
		},
		{
			"anonymous": false,
			"inputs": [
				{
					"indexed": true,
					"internalType": "bytes32",
					"name": "id",
					"type": "bytes32"
				},
				{
					"indexed": true,
					"internalType": "address",
					"name": "initiator",
					"type": "address"
				},
				{
					"indexed": true,
					"internalType": "address",
					"name": "counterparty",
					"type": "address"
				},
				{
					"indexed": false,
					"internalType": "address",
					"name": "mediator",
					"type": "address"
				},
				{
					"indexed": false,
					"internalType": "address",
					"name": "sender",
					"type": "address"
				},
				{
					"indexed": false,
					"internalType": "uint256",
					"name": "amount",
					"type": "uint256"
				},
				{
					"indexed": false,
					"internalType": "uint256",
					"name": "fee",
					"type": "uint256"
				}
			],
			"name": "GivebackToInitiator",
			"type": "event"
		},
		{
			"anonymous": false,
			"inputs": [
				{
					"indexed": true,
					"internalType": "address",
					"name": "mediator",
					"type": "address"
				},
				{
					"indexed": false,
					"internalType": "bytes32",
					"name": "dealId",
					"type": "bytes32"
				}
			],
			"name": "JoinedToDealAsMediator",
			"type": "event"
		},
		{
			"anonymous": false,
			"inputs": [
				{
					"indexed": true,
					"internalType": "address",
					"name": "previousOwner",
					"type": "address"
				},
				{
					"indexed": true,
					"internalType": "address",
					"name": "newOwner",
					"type": "address"
				}
			],
			"name": "OwnershipTransferred",
			"type": "event"
		},
		{
			"anonymous": false,
			"inputs": [
				{
					"indexed": true,
					"internalType": "address",
					"name": "from",
					"type": "address"
				},
				{
					"indexed": true,
					"internalType": "address",
					"name": "to",
					"type": "address"
				},
				{
					"indexed": true,
					"internalType": "address",
					"name": "token",
					"type": "address"
				},
				{
					"indexed": false,
					"internalType": "uint256",
					"name": "value",
					"type": "uint256"
				}
			],
			"name": "Transfer",
			"type": "event"
		},
		{
			"anonymous": false,
			"inputs": [
				{
					"indexed": true,
					"internalType": "bytes32",
					"name": "id",
					"type": "bytes32"
				},
				{
					"indexed": true,
					"internalType": "address",
					"name": "initiator",
					"type": "address"
				},
				{
					"indexed": true,
					"internalType": "address",
					"name": "counterparty",
					"type": "address"
				},
				{
					"indexed": false,
					"internalType": "address",
					"name": "mediator",
					"type": "address"
				},
				{
					"indexed": false,
					"internalType": "address",
					"name": "sender",
					"type": "address"
				},
				{
					"indexed": false,
					"internalType": "uint256",
					"name": "amount",
					"type": "uint256"
				},
				{
					"indexed": false,
					"internalType": "uint256",
					"name": "fee",
					"type": "uint256"
				}
			],
			"name": "TransferToCounterparty",
			"type": "event"
		},
		{
			"anonymous": false,
			"inputs": [
				{
					"indexed": true,
					"internalType": "bytes32",
					"name": "id",
					"type": "bytes32"
				},
				{
					"indexed": true,
					"internalType": "address",
					"name": "initiator",
					"type": "address"
				},
				{
					"indexed": true,
					"internalType": "address",
					"name": "counterparty",
					"type": "address"
				},
				{
					"indexed": false,
					"internalType": "address",
					"name": "mediator",
					"type": "address"
				},
				{
					"indexed": false,
					"internalType": "address",
					"name": "sender",
					"type": "address"
				},
				{
					"indexed": false,
					"internalType": "address",
					"name": "target",
					"type": "address"
				},
				{
					"indexed": false,
					"internalType": "uint256",
					"name": "amountInitiator",
					"type": "uint256"
				},
				{
					"indexed": false,
					"internalType": "uint256",
					"name": "amountCounterparty",
					"type": "uint256"
				},
				{
					"indexed": false,
					"internalType": "uint256",
					"name": "feeInitiator",
					"type": "uint256"
				},
				{
					"indexed": false,
					"internalType": "uint256",
					"name": "feeCounterparty",
					"type": "uint256"
				}
			],
			"name": "TransferToFromDeal",
			"type": "event"
		},
		{
			"anonymous": false,
			"inputs": [
				{
					"indexed": true,
					"internalType": "bytes32",
					"name": "id",
					"type": "bytes32"
				},
				{
					"indexed": true,
					"internalType": "address",
					"name": "initiator",
					"type": "address"
				},
				{
					"indexed": true,
					"internalType": "address",
					"name": "counterparty",
					"type": "address"
				},
				{
					"indexed": false,
					"internalType": "address",
					"name": "mediator",
					"type": "address"
				},
				{
					"indexed": false,
					"internalType": "address",
					"name": "sender",
					"type": "address"
				},
				{
					"indexed": false,
					"internalType": "uint256",
					"name": "amount",
					"type": "uint256"
				},
				{
					"indexed": false,
					"internalType": "uint256",
					"name": "fee",
					"type": "uint256"
				}
			],
			"name": "TransferToInitiator",
			"type": "event"
		},
		{
			"anonymous": false,
			"inputs": [
				{
					"indexed": true,
					"internalType": "address",
					"name": "user",
					"type": "address"
				},
				{
					"indexed": true,
					"internalType": "address",
					"name": "token",
					"type": "address"
				},
				{
					"indexed": false,
					"internalType": "uint256",
					"name": "amount",
					"type": "uint256"
				}
			],
			"name": "Withdrawal",
			"type": "event"
		},
		{
			"inputs": [
				{
					"internalType": "bytes32",
					"name": "dealId",
					"type": "bytes32"
				},
				{
					"internalType": "uint256",
					"name": "amount",
					"type": "uint256"
				}
			],
			"name": "addDepositByCounterparty",
			"outputs": [
				{
					"internalType": "bool",
					"name": "",
					"type": "bool"
				}
			],
			"stateMutability": "nonpayable",
			"type": "function"
		},
		{
			"inputs": [
				{
					"internalType": "bytes32",
					"name": "dealId",
					"type": "bytes32"
				},
				{
					"internalType": "uint256",
					"name": "amount",
					"type": "uint256"
				}
			],
			"name": "addDepositByInitiator",
			"outputs": [
				{
					"internalType": "bool",
					"name": "",
					"type": "bool"
				}
			],
			"stateMutability": "nonpayable",
			"type": "function"
		},
		{
			"inputs": [
				{
					"internalType": "address",
					"name": "user",
					"type": "address"
				}
			],
			"name": "balanceOf",
			"outputs": [
				{
					"internalType": "uint256",
					"name": "",
					"type": "uint256"
				}
			],
			"stateMutability": "view",
			"type": "function"
		},
		{
			"inputs": [
				{
					"internalType": "address",
					"name": "user",
					"type": "address"
				},
				{
					"internalType": "address",
					"name": "token",
					"type": "address"
				}
			],
			"name": "balanceOf",
			"outputs": [
				{
					"internalType": "uint256",
					"name": "",
					"type": "uint256"
				}
			],
			"stateMutability": "view",
			"type": "function"
		},
		{
			"inputs": [
				{
					"internalType": "address",
					"name": "",
					"type": "address"
				},
				{
					"internalType": "address",
					"name": "",
					"type": "address"
				}
			],
			"name": "balances",
			"outputs": [
				{
					"internalType": "uint256",
					"name": "",
					"type": "uint256"
				}
			],
			"stateMutability": "view",
			"type": "function"
		},
		{
			"inputs": [
				{
					"internalType": "bytes32",
					"name": "dealId",
					"type": "bytes32"
				}
			],
			"name": "cancelDeal",
			"outputs": [
				{
					"internalType": "bool",
					"name": "",
					"type": "bool"
				}
			],
			"stateMutability": "nonpayable",
			"type": "function"
		},
		{
			"inputs": [],
			"name": "commissionRecipient",
			"outputs": [
				{
					"internalType": "address",
					"name": "",
					"type": "address"
				}
			],
			"stateMutability": "view",
			"type": "function"
		},
		{
			"inputs": [
				{
					"internalType": "bytes32",
					"name": "dealId",
					"type": "bytes32"
				}
			],
			"name": "completeDeal",
			"outputs": [
				{
					"internalType": "bool",
					"name": "",
					"type": "bool"
				}
			],
			"stateMutability": "nonpayable",
			"type": "function"
		},
		{
			"inputs": [],
			"name": "contractEnabled",
			"outputs": [
				{
					"internalType": "bool",
					"name": "",
					"type": "bool"
				}
			],
			"stateMutability": "view",
			"type": "function"
		},
		{
			"inputs": [
				{
					"internalType": "bytes32",
					"name": "dealId",
					"type": "bytes32"
				}
			],
			"name": "counterpartyAcceptSidedDeal",
			"outputs": [
				{
					"internalType": "bool",
					"name": "",
					"type": "bool"
				}
			],
			"stateMutability": "nonpayable",
			"type": "function"
		},
		{
			"inputs": [
				{
					"internalType": "address payable",
					"name": "counterparty",
					"type": "address"
				},
				{
					"internalType": "address payable",
					"name": "mediator",
					"type": "address"
				},
				{
					"internalType": "uint256",
					"name": "amount",
					"type": "uint256"
				},
				{
					"internalType": "uint256",
					"name": "PRCMediatorFee",
					"type": "uint256"
				},
				{
					"internalType": "address",
					"name": "tokenAddress",
					"type": "address"
				},
				{
					"internalType": "uint256",
					"name": "expirationDate",
					"type": "uint256"
				},
				{
					"internalType": "enum MediatorAction",
					"name": "mediatorActionOnExpiration",
					"type": "uint8"
				}
			],
			"name": "createDeal",
			"outputs": [
				{
					"internalType": "bytes32",
					"name": "",
					"type": "bytes32"
				}
			],
			"stateMutability": "nonpayable",
			"type": "function"
		},
		{
			"inputs": [
				{
					"internalType": "bytes32",
					"name": "dealId",
					"type": "bytes32"
				},
				{
					"internalType": "uint256",
					"name": "newExpirationDate",
					"type": "uint256"
				},
				{
					"internalType": "enum MediatorAction",
					"name": "newMediatorActionOnExpiration",
					"type": "uint8"
				}
			],
			"name": "createDealEditExpiration",
			"outputs": [
				{
					"internalType": "uint256",
					"name": "",
					"type": "uint256"
				}
			],
			"stateMutability": "nonpayable",
			"type": "function"
		},
		{
			"inputs": [
				{
					"internalType": "bytes32",
					"name": "dealId",
					"type": "bytes32"
				},
				{
					"internalType": "address payable",
					"name": "newMediator",
					"type": "address"
				}
			],
			"name": "createEditDealMediatorRequest",
			"outputs": [
				{
					"internalType": "uint256",
					"name": "",
					"type": "uint256"
				}
			],
			"stateMutability": "nonpayable",
			"type": "function"
		},
		{
			"inputs": [
				{
					"internalType": "address payable",
					"name": "counterparty",
					"type": "address"
				},
				{
					"internalType": "address payable",
					"name": "mediator",
					"type": "address"
				},
				{
					"internalType": "uint256",
					"name": "initiatorCreateAmount",
					"type": "uint256"
				},
				{
					"internalType": "uint256",
					"name": "counterpartyCreateAmount",
					"type": "uint256"
				},
				{
					"internalType": "uint256",
					"name": "PRCMediatorFeeInititor",
					"type": "uint256"
				},
				{
					"internalType": "uint256",
					"name": "PRCMediatorFeeCounterparty",
					"type": "uint256"
				},
				{
					"internalType": "address",
					"name": "initiatorTokenAddress",
					"type": "address"
				},
				{
					"internalType": "address",
					"name": "counterpartyTokenAddress",
					"type": "address"
				},
				{
					"internalType": "uint256",
					"name": "expirationDate",
					"type": "uint256"
				},
				{
					"internalType": "enum MediatorAction",
					"name": "mediatorActionOnExpiration",
					"type": "uint8"
				}
			],
			"name": "createSidedDeal",
			"outputs": [
				{
					"internalType": "bytes32",
					"name": "",
					"type": "bytes32"
				}
			],
			"stateMutability": "nonpayable",
			"type": "function"
		},
		{
			"inputs": [
				{
					"internalType": "bytes32",
					"name": "",
					"type": "bytes32"
				}
			],
			"name": "deals",
			"outputs": [
				{
					"internalType": "address payable",
					"name": "initiator",
					"type": "address"
				},
				{
					"internalType": "address payable",
					"name": "counterparty",
					"type": "address"
				},
				{
					"internalType": "address payable",
					"name": "mediator",
					"type": "address"
				},
				{
					"internalType": "bool",
					"name": "isCompleted",
					"type": "bool"
				},
				{
					"internalType": "bool",
					"name": "isCanceled",
					"type": "bool"
				},
				{
					"internalType": "bool",
					"name": "isTwoSided",
					"type": "bool"
				},
				{
					"internalType": "bool",
					"name": "isSignedByCounterparty",
					"type": "bool"
				},
				{
					"internalType": "uint256",
					"name": "initiatorCreateAmount",
					"type": "uint256"
				},
				{
					"internalType": "uint256",
					"name": "counterpartyCreateAmount",
					"type": "uint256"
				},
				{
					"internalType": "uint256",
					"name": "initiatorCurrentAmount",
					"type": "uint256"
				},
				{
					"internalType": "uint256",
					"name": "counterpartyCurrentAmount",
					"type": "uint256"
				},
				{
					"internalType": "uint256",
					"name": "PRC_InitatorMediatorFee",
					"type": "uint256"
				},
				{
					"internalType": "uint256",
					"name": "PRC_CounterpartyMediatorFee",
					"type": "uint256"
				},
				{
					"internalType": "address",
					"name": "initiatorTokenAddress",
					"type": "address"
				},
				{
					"internalType": "address",
					"name": "counterpartyTokenAddress",
					"type": "address"
				},
				{
					"internalType": "uint256",
					"name": "expirationDate",
					"type": "uint256"
				},
				{
					"internalType": "enum MediatorAction",
					"name": "mediatorActionOnExpiration",
					"type": "uint8"
				}
			],
			"stateMutability": "view",
			"type": "function"
		},
		{
			"inputs": [
				{
					"internalType": "address",
					"name": "token",
					"type": "address"
				},
				{
					"internalType": "uint256",
					"name": "amount",
					"type": "uint256"
				}
			],
			"name": "deposit",
			"outputs": [],
			"stateMutability": "payable",
			"type": "function"
		},
		{
			"inputs": [],
			"name": "depositCommissionPercent",
			"outputs": [
				{
					"internalType": "uint256",
					"name": "",
					"type": "uint256"
				}
			],
			"stateMutability": "view",
			"type": "function"
		},
		{
			"inputs": [],
			"name": "disableContract",
			"outputs": [],
			"stateMutability": "nonpayable",
			"type": "function"
		},
		{
			"inputs": [
				{
					"internalType": "uint256",
					"name": "",
					"type": "uint256"
				}
			],
			"name": "editDealExpirationRequests",
			"outputs": [
				{
					"internalType": "bytes32",
					"name": "dealId",
					"type": "bytes32"
				},
				{
					"internalType": "uint256",
					"name": "expirationDate",
					"type": "uint256"
				},
				{
					"internalType": "enum MediatorAction",
					"name": "mediatorActionOnExpiration",
					"type": "uint8"
				},
				{
					"internalType": "bool",
					"name": "singedByInitiator",
					"type": "bool"
				},
				{
					"internalType": "bool",
					"name": "signedByCounterparty",
					"type": "bool"
				},
				{
					"internalType": "bool",
					"name": "signedByMediator",
					"type": "bool"
				},
				{
					"internalType": "bool",
					"name": "rejected",
					"type": "bool"
				}
			],
			"stateMutability": "view",
			"type": "function"
		},
		{
			"inputs": [
				{
					"internalType": "uint256",
					"name": "",
					"type": "uint256"
				}
			],
			"name": "editDealMediatorRequests",
			"outputs": [
				{
					"internalType": "bytes32",
					"name": "dealId",
					"type": "bytes32"
				},
				{
					"internalType": "address payable",
					"name": "mediator",
					"type": "address"
				},
				{
					"internalType": "bool",
					"name": "singedByInitiator",
					"type": "bool"
				},
				{
					"internalType": "bool",
					"name": "signedByCounterparty",
					"type": "bool"
				},
				{
					"internalType": "bool",
					"name": "rejected",
					"type": "bool"
				}
			],
			"stateMutability": "view",
			"type": "function"
		},
		{
			"inputs": [],
			"name": "enableContract",
			"outputs": [],
			"stateMutability": "nonpayable",
			"type": "function"
		},
		{
			"inputs": [
				{
					"internalType": "bytes32",
					"name": "dealId",
					"type": "bytes32"
				}
			],
			"name": "executeActionsAfterExpiration",
			"outputs": [
				{
					"internalType": "bool",
					"name": "",
					"type": "bool"
				}
			],
			"stateMutability": "nonpayable",
			"type": "function"
		},
		{
			"inputs": [
				{
					"internalType": "uint256",
					"name": "amount",
					"type": "uint256"
				}
			],
			"name": "getAmountToDepositViaComission",
			"outputs": [
				{
					"internalType": "uint256",
					"name": "",
					"type": "uint256"
				}
			],
			"stateMutability": "view",
			"type": "function"
		},
		{
			"inputs": [
				{
					"internalType": "bytes32",
					"name": "dealId",
					"type": "bytes32"
				}
			],
			"name": "getDeal",
			"outputs": [
				{
					"components": [
						{
							"internalType": "address payable",
							"name": "initiator",
							"type": "address"
						},
						{
							"internalType": "address payable",
							"name": "counterparty",
							"type": "address"
						},
						{
							"internalType": "address payable",
							"name": "mediator",
							"type": "address"
						},
						{
							"internalType": "bool",
							"name": "isCompleted",
							"type": "bool"
						},
						{
							"internalType": "bool",
							"name": "isCanceled",
							"type": "bool"
						},
						{
							"internalType": "bool",
							"name": "isTwoSided",
							"type": "bool"
						},
						{
							"internalType": "bool",
							"name": "isSignedByCounterparty",
							"type": "bool"
						},
						{
							"internalType": "uint256",
							"name": "initiatorCreateAmount",
							"type": "uint256"
						},
						{
							"internalType": "uint256",
							"name": "counterpartyCreateAmount",
							"type": "uint256"
						},
						{
							"internalType": "uint256",
							"name": "initiatorCurrentAmount",
							"type": "uint256"
						},
						{
							"internalType": "uint256",
							"name": "counterpartyCurrentAmount",
							"type": "uint256"
						},
						{
							"internalType": "uint256",
							"name": "PRC_InitatorMediatorFee",
							"type": "uint256"
						},
						{
							"internalType": "uint256",
							"name": "PRC_CounterpartyMediatorFee",
							"type": "uint256"
						},
						{
							"internalType": "address",
							"name": "initiatorTokenAddress",
							"type": "address"
						},
						{
							"internalType": "address",
							"name": "counterpartyTokenAddress",
							"type": "address"
						},
						{
							"internalType": "uint256",
							"name": "expirationDate",
							"type": "uint256"
						},
						{
							"internalType": "enum MediatorAction",
							"name": "mediatorActionOnExpiration",
							"type": "uint8"
						}
					],
					"internalType": "struct Deal",
					"name": "",
					"type": "tuple"
				}
			],
			"stateMutability": "view",
			"type": "function"
		},
		{
			"inputs": [
				{
					"internalType": "uint256",
					"name": "id",
					"type": "uint256"
				}
			],
			"name": "getEditDealExpiratation",
			"outputs": [
				{
					"components": [
						{
							"internalType": "bytes32",
							"name": "dealId",
							"type": "bytes32"
						},
						{
							"internalType": "uint256",
							"name": "expirationDate",
							"type": "uint256"
						},
						{
							"internalType": "enum MediatorAction",
							"name": "mediatorActionOnExpiration",
							"type": "uint8"
						},
						{
							"internalType": "bool",
							"name": "singedByInitiator",
							"type": "bool"
						},
						{
							"internalType": "bool",
							"name": "signedByCounterparty",
							"type": "bool"
						},
						{
							"internalType": "bool",
							"name": "signedByMediator",
							"type": "bool"
						},
						{
							"internalType": "bool",
							"name": "rejected",
							"type": "bool"
						}
					],
					"internalType": "struct EditDealExpiratation",
					"name": "",
					"type": "tuple"
				}
			],
			"stateMutability": "view",
			"type": "function"
		},
		{
			"inputs": [
				{
					"internalType": "uint256",
					"name": "id",
					"type": "uint256"
				}
			],
			"name": "getEditDealMediator",
			"outputs": [
				{
					"components": [
						{
							"internalType": "bytes32",
							"name": "dealId",
							"type": "bytes32"
						},
						{
							"internalType": "address payable",
							"name": "mediator",
							"type": "address"
						},
						{
							"internalType": "bool",
							"name": "singedByInitiator",
							"type": "bool"
						},
						{
							"internalType": "bool",
							"name": "signedByCounterparty",
							"type": "bool"
						},
						{
							"internalType": "bool",
							"name": "rejected",
							"type": "bool"
						}
					],
					"internalType": "struct EditDealMediator",
					"name": "",
					"type": "tuple"
				}
			],
			"stateMutability": "view",
			"type": "function"
		},
		{
			"inputs": [
				{
					"internalType": "bytes32",
					"name": "dealId",
					"type": "bytes32"
				},
				{
					"internalType": "uint256",
					"name": "amount",
					"type": "uint256"
				}
			],
			"name": "givebackToConunterparty",
			"outputs": [
				{
					"internalType": "bool",
					"name": "",
					"type": "bool"
				}
			],
			"stateMutability": "nonpayable",
			"type": "function"
		},
		{
			"inputs": [
				{
					"internalType": "bytes32",
					"name": "dealId",
					"type": "bytes32"
				},
				{
					"internalType": "uint256",
					"name": "amount",
					"type": "uint256"
				}
			],
			"name": "givebackToInitiator",
			"outputs": [
				{
					"internalType": "bool",
					"name": "",
					"type": "bool"
				}
			],
			"stateMutability": "nonpayable",
			"type": "function"
		},
		{
			"inputs": [
				{
					"internalType": "bytes32",
					"name": "dealId",
					"type": "bytes32"
				},
				{
					"internalType": "address",
					"name": "tokenAdress",
					"type": "address"
				},
				{
					"internalType": "uint256",
					"name": "amount",
					"type": "uint256"
				},
				{
					"internalType": "uint256",
					"name": "PRC_mediatorFee",
					"type": "uint256"
				}
			],
			"name": "madeDealTwoSided",
			"outputs": [
				{
					"internalType": "bool",
					"name": "",
					"type": "bool"
				}
			],
			"stateMutability": "nonpayable",
			"type": "function"
		},
		{
			"inputs": [],
			"name": "owner",
			"outputs": [
				{
					"internalType": "address",
					"name": "",
					"type": "address"
				}
			],
			"stateMutability": "view",
			"type": "function"
		},
		{
			"inputs": [
				{
					"internalType": "bytes32",
					"name": "dealId",
					"type": "bytes32"
				},
				{
					"internalType": "uint256",
					"name": "amount",
					"type": "uint256"
				}
			],
			"name": "payUpAddDepositByCounterparty",
			"outputs": [
				{
					"internalType": "bool",
					"name": "",
					"type": "bool"
				}
			],
			"stateMutability": "payable",
			"type": "function"
		},
		{
			"inputs": [
				{
					"internalType": "bytes32",
					"name": "dealId",
					"type": "bytes32"
				},
				{
					"internalType": "uint256",
					"name": "amount",
					"type": "uint256"
				}
			],
			"name": "payUpAddDepositByInitiator",
			"outputs": [
				{
					"internalType": "bool",
					"name": "",
					"type": "bool"
				}
			],
			"stateMutability": "payable",
			"type": "function"
		},
		{
			"inputs": [
				{
					"internalType": "bytes32",
					"name": "dealId",
					"type": "bytes32"
				}
			],
			"name": "payUpCounterpartyAcceptSidedDeal",
			"outputs": [
				{
					"internalType": "bool",
					"name": "",
					"type": "bool"
				}
			],
			"stateMutability": "payable",
			"type": "function"
		},
		{
			"inputs": [
				{
					"internalType": "address payable",
					"name": "counterparty",
					"type": "address"
				},
				{
					"internalType": "address payable",
					"name": "mediator",
					"type": "address"
				},
				{
					"internalType": "uint256",
					"name": "amount",
					"type": "uint256"
				},
				{
					"internalType": "uint256",
					"name": "PRCMediatorFee",
					"type": "uint256"
				},
				{
					"internalType": "address",
					"name": "tokenAddress",
					"type": "address"
				},
				{
					"internalType": "uint256",
					"name": "expirationDate",
					"type": "uint256"
				},
				{
					"internalType": "enum MediatorAction",
					"name": "mediatorActionOnExpiration",
					"type": "uint8"
				}
			],
			"name": "payUpCreateDeal",
			"outputs": [
				{
					"internalType": "bytes32",
					"name": "",
					"type": "bytes32"
				}
			],
			"stateMutability": "payable",
			"type": "function"
		},
		{
			"inputs": [
				{
					"internalType": "address payable",
					"name": "counterparty",
					"type": "address"
				},
				{
					"internalType": "address payable",
					"name": "mediator",
					"type": "address"
				},
				{
					"internalType": "uint256",
					"name": "initiatorCreateAmount",
					"type": "uint256"
				},
				{
					"internalType": "uint256",
					"name": "counterpartyCreateAmount",
					"type": "uint256"
				},
				{
					"internalType": "uint256",
					"name": "PRCMediatorFeeInititor",
					"type": "uint256"
				},
				{
					"internalType": "uint256",
					"name": "PRCMediatorFeeCounterparty",
					"type": "uint256"
				},
				{
					"internalType": "address",
					"name": "initiatorTokenAddress",
					"type": "address"
				},
				{
					"internalType": "address",
					"name": "counterpartyTokenAddress",
					"type": "address"
				},
				{
					"internalType": "uint256",
					"name": "expirationDate",
					"type": "uint256"
				},
				{
					"internalType": "enum MediatorAction",
					"name": "mediatorActionOnExpiration",
					"type": "uint8"
				}
			],
			"name": "payUpCreateSidedDeal",
			"outputs": [
				{
					"internalType": "bytes32",
					"name": "",
					"type": "bytes32"
				}
			],
			"stateMutability": "payable",
			"type": "function"
		},
		{
			"inputs": [
				{
					"internalType": "bytes32",
					"name": "dealId",
					"type": "bytes32"
				},
				{
					"internalType": "address",
					"name": "tokenAdress",
					"type": "address"
				},
				{
					"internalType": "uint256",
					"name": "amount",
					"type": "uint256"
				},
				{
					"internalType": "uint256",
					"name": "PRC_mediatorFee",
					"type": "uint256"
				}
			],
			"name": "payUpMadeDealTwoSided",
			"outputs": [
				{
					"internalType": "bool",
					"name": "",
					"type": "bool"
				}
			],
			"stateMutability": "payable",
			"type": "function"
		},
		{
			"inputs": [
				{
					"internalType": "bytes32",
					"name": "dealId",
					"type": "bytes32"
				}
			],
			"name": "rejectSidedDeal",
			"outputs": [
				{
					"internalType": "bool",
					"name": "",
					"type": "bool"
				}
			],
			"stateMutability": "nonpayable",
			"type": "function"
		},
		{
			"inputs": [],
			"name": "renounceOwnership",
			"outputs": [],
			"stateMutability": "nonpayable",
			"type": "function"
		},
		{
			"inputs": [
				{
					"internalType": "uint256",
					"name": "newCommissionPercent",
					"type": "uint256"
				},
				{
					"internalType": "address",
					"name": "newRecipient",
					"type": "address"
				}
			],
			"name": "setDepositCommission",
			"outputs": [],
			"stateMutability": "nonpayable",
			"type": "function"
		},
		{
			"inputs": [
				{
					"internalType": "uint256",
					"name": "id",
					"type": "uint256"
				},
				{
					"internalType": "bool",
					"name": "reject",
					"type": "bool"
				}
			],
			"name": "signDealEditExpiration",
			"outputs": [
				{
					"internalType": "bool",
					"name": "",
					"type": "bool"
				}
			],
			"stateMutability": "nonpayable",
			"type": "function"
		},
		{
			"inputs": [
				{
					"internalType": "uint256",
					"name": "requestId",
					"type": "uint256"
				},
				{
					"internalType": "bool",
					"name": "reject",
					"type": "bool"
				}
			],
			"name": "signEditDealMediatorRequest",
			"outputs": [
				{
					"internalType": "bool",
					"name": "",
					"type": "bool"
				}
			],
			"stateMutability": "nonpayable",
			"type": "function"
		},
		{
			"inputs": [],
			"name": "totalCompletedDeals",
			"outputs": [
				{
					"internalType": "uint256",
					"name": "",
					"type": "uint256"
				}
			],
			"stateMutability": "view",
			"type": "function"
		},
		{
			"inputs": [],
			"name": "totalDeals",
			"outputs": [
				{
					"internalType": "uint256",
					"name": "",
					"type": "uint256"
				}
			],
			"stateMutability": "view",
			"type": "function"
		},
		{
			"inputs": [],
			"name": "totalEditDealMediatorRequests",
			"outputs": [
				{
					"internalType": "uint256",
					"name": "",
					"type": "uint256"
				}
			],
			"stateMutability": "view",
			"type": "function"
		},
		{
			"inputs": [],
			"name": "totalEditExpirationRequests",
			"outputs": [
				{
					"internalType": "uint256",
					"name": "",
					"type": "uint256"
				}
			],
			"stateMutability": "view",
			"type": "function"
		},
		{
			"inputs": [
				{
					"internalType": "address",
					"name": "to",
					"type": "address"
				},
				{
					"internalType": "address",
					"name": "token",
					"type": "address"
				},
				{
					"internalType": "uint256",
					"name": "amount",
					"type": "uint256"
				}
			],
			"name": "transfer",
			"outputs": [
				{
					"internalType": "bool",
					"name": "",
					"type": "bool"
				}
			],
			"stateMutability": "nonpayable",
			"type": "function"
		},
		{
			"inputs": [
				{
					"internalType": "address",
					"name": "newOwner",
					"type": "address"
				}
			],
			"name": "transferOwnership",
			"outputs": [],
			"stateMutability": "nonpayable",
			"type": "function"
		},
		{
			"inputs": [
				{
					"internalType": "bytes32",
					"name": "dealId",
					"type": "bytes32"
				},
				{
					"internalType": "uint256",
					"name": "amount",
					"type": "uint256"
				}
			],
			"name": "transferToCounterparty",
			"outputs": [
				{
					"internalType": "bool",
					"name": "",
					"type": "bool"
				}
			],
			"stateMutability": "nonpayable",
			"type": "function"
		},
		{
			"inputs": [
				{
					"internalType": "bytes32",
					"name": "dealId",
					"type": "bytes32"
				},
				{
					"internalType": "uint256",
					"name": "amount",
					"type": "uint256"
				}
			],
			"name": "transferToInitiator",
			"outputs": [
				{
					"internalType": "bool",
					"name": "",
					"type": "bool"
				}
			],
			"stateMutability": "nonpayable",
			"type": "function"
		},
		{
			"inputs": [
				{
					"internalType": "address",
					"name": "token",
					"type": "address"
				},
				{
					"internalType": "uint256",
					"name": "amount",
					"type": "uint256"
				}
			],
			"name": "withdraw",
			"outputs": [
				{
					"internalType": "bool",
					"name": "",
					"type": "bool"
				}
			],
			"stateMutability": "nonpayable",
			"type": "function"
		},
		{
			"inputs": [
				{
					"internalType": "bytes32",
					"name": "dealId",
					"type": "bytes32"
				}
			],
			"name": "withdrawCancelDeal",
			"outputs": [
				{
					"internalType": "bool",
					"name": "",
					"type": "bool"
				}
			],
			"stateMutability": "nonpayable",
			"type": "function"
		},
		{
			"inputs": [
				{
					"internalType": "bytes32",
					"name": "dealId",
					"type": "bytes32"
				}
			],
			"name": "withdrawCompleteDeal",
			"outputs": [
				{
					"internalType": "bool",
					"name": "",
					"type": "bool"
				}
			],
			"stateMutability": "nonpayable",
			"type": "function"
		},
		{
			"inputs": [
				{
					"internalType": "bytes32",
					"name": "dealId",
					"type": "bytes32"
				}
			],
			"name": "withdrawExecuteActionsAfterExpiration",
			"outputs": [
				{
					"internalType": "bool",
					"name": "",
					"type": "bool"
				}
			],
			"stateMutability": "nonpayable",
			"type": "function"
		},
		{
			"inputs": [
				{
					"internalType": "bytes32",
					"name": "dealId",
					"type": "bytes32"
				},
				{
					"internalType": "uint256",
					"name": "amount",
					"type": "uint256"
				}
			],
			"name": "withdrawGivebackToConunterparty",
			"outputs": [
				{
					"internalType": "bool",
					"name": "",
					"type": "bool"
				}
			],
			"stateMutability": "nonpayable",
			"type": "function"
		},
		{
			"inputs": [
				{
					"internalType": "bytes32",
					"name": "dealId",
					"type": "bytes32"
				},
				{
					"internalType": "uint256",
					"name": "amount",
					"type": "uint256"
				}
			],
			"name": "withdrawGivebackToInitiator",
			"outputs": [
				{
					"internalType": "bool",
					"name": "",
					"type": "bool"
				}
			],
			"stateMutability": "nonpayable",
			"type": "function"
		},
		{
			"inputs": [
				{
					"internalType": "bytes32",
					"name": "dealId",
					"type": "bytes32"
				}
			],
			"name": "withdrawRejectSidedDeal",
			"outputs": [
				{
					"internalType": "bool",
					"name": "",
					"type": "bool"
				}
			],
			"stateMutability": "nonpayable",
			"type": "function"
		},
		{
			"inputs": [
				{
					"internalType": "bytes32",
					"name": "dealId",
					"type": "bytes32"
				},
				{
					"internalType": "uint256",
					"name": "amount",
					"type": "uint256"
				}
			],
			"name": "withdrawTransferToCounterparty",
			"outputs": [
				{
					"internalType": "bool",
					"name": "",
					"type": "bool"
				}
			],
			"stateMutability": "nonpayable",
			"type": "function"
		},
		{
			"inputs": [
				{
					"internalType": "bytes32",
					"name": "dealId",
					"type": "bytes32"
				},
				{
					"internalType": "uint256",
					"name": "amount",
					"type": "uint256"
				}
			],
			"name": "withdrawTransferToInitiator",
			"outputs": [
				{
					"internalType": "bool",
					"name": "",
					"type": "bool"
				}
			],
			"stateMutability": "nonpayable",
			"type": "function"
		}
	]
}