{
	"data": {
		"bytecode": {
			"linkReferences": {
				"Deal.sol": {
					"DealContract": [
						{
							"length": 20,
							"start": 3678
						},
						{
							"length": 20,
							"start": 4560
						},
						{
							"length": 20,
							"start": 6246
						},
						{
							"length": 20,
							"start": 8150
						},
						{
							"length": 20,
							"start": 8982
						},
						{
							"length": 20,
							"start": 9416
						},
						{
							"length": 20,
							"start": 10876
						},
						{
							"length": 20,
							"start": 11706
						},
						{
							"length": 20,
							"start": 12652
						},
						{
							"length": 20,
							"start": 15043
						},
						{
							"length": 20,
							"start": 16482
						},
						{
							"length": 20,
							"start": 17002
						},
						{
							"length": 20,
							"start": 17556
						},
						{
							"length": 20,
							"start": 18009
						},
						{
							"length": 20,
							"start": 21404
						}
					]
				},
				"Percent.sol": {
					"Percent": [
						{
							"length": 20,
							"start": 1486
						},
						{
							"length": 20,
							"start": 3832
						},
						{
							"length": 20,
							"start": 5336
						},
						{
							"length": 20,
							"start": 6403
						},
						{
							"length": 20,
							"start": 7502
						},
						{
							"length": 20,
							"start": 8517
						},
						{
							"length": 20,
							"start": 9133
						},
						{
							"length": 20,
							"start": 9568
						},
						{
							"length": 20,
							"start": 11222
						},
						{
							"length": 20,
							"start": 12117
						},
						{
							"length": 20,
							"start": 12779
						},
						{
							"length": 20,
							"start": 14073
						},
						{
							"length": 20,
							"start": 14726
						},
						{
							"length": 20,
							"start": 15741
						},
						{
							"length": 20,
							"start": 17248
						},
						{
							"length": 20,
							"start": 17703
						}
					]
				}
			},
			"object": "60803461013a57601f6159ed38819003918201601f19168301916001600160401b0383118484101761013e57808492604094855283398101031261013a5780516020909101516001600160a01b038116919082900361013a575f80546001600160a81b0319163317600160a01b17808255604051916001600160a01b03909116907f8be0079c531659141344cd1fd0a4f28419497f9722a3daafe3b4186f6b6457e08180a3821561011357506402540be40081116100e95760025560018060a01b031960035416176003555f6005555f6006555f6007555f60085560405161589a90816101538239f35b60405162461bcd60e51b8152602060048201526002602482015261433560f01b6044820152606490fd5b62461bcd60e51b8152602060048201526002602482015261433160f01b6044820152606490fd5b5f80fd5b634e487b7160e01b5f52604160045260245ffdfe60806040526004361015610011575f80fd5b5f803560e01c80627e8bd31461449c57806301cafae3146142ff57806302927459146142e157806306fd154a146142b85780630934da22146140e05780631273c16514613eb357806315f8a31414613e0f57806317b52b5014613dad57806328d5a05014613902578063367edd321461389c57806339b3edb0146137f95780634187129c1461373757806341b3a0d91461371257806347e7ef241461354f57806351a6fad5146133bd57806353a7800014613359578063619c457e146133325780636242c6cd14612fd057806363adb66f14612c2b57806367c5545d146128f457806370a08231146128b357806371ae8bcd1461288c57806380ccb070146127b957806381cd872a14612696578063894ba83314612637578063899a3ffd146126195780638da5cb5b146125f25780638deea5fb146124f7578063966d1f1d146124d95780639905a1ea146123375780639974f37614612319578063a0849a3314612181578063ad94b28b14611e53578063ba343f6d14611d8e578063bb06c1a414611a47578063beabacc814611959578063c15a25bf146118d9578063c23f001f146118bd578063c2c257b9146116d5578063cfaaf2351461156d578063cfadf6c714611006578063d750158b14610cbd578063e08560a414610c9f578063eb45732914610b9e578063ee026054146103b1578063f2fde38b146102e5578063f3fef3a31461027e5763f7888aec14610229575f80fd5b3461027b57604036600319011261027b576040610244614738565b9161024d614722565b9260018060a01b031681526001602052209060018060a01b03165f52602052602060405f2054604051908152f35b80fd5b503461027b57604036600319011261027b576102db60209161029e614738565b604060243592338152600186522060018060a01b0382165f5284526102c98260405f205410156149bf565b6102d482823361552e565b503361564e565b6040519015158152f35b503461027b57602036600319011261027b576102ff614738565b81546001600160a01b03811691610317338414614e2f565b6001600160a01b031691821561035d5782907f8be0079c531659141344cd1fd0a4f28419497f9722a3daafe3b4186f6b6457e08580a36001600160a01b03191617815580f35b60405162461bcd60e51b815260206004820152602660248201527f4f776e61626c653a206e6577206f776e657220697320746865207a65726f206160448201526564647265737360d01b6064820152608490fd5b503461027b57604036600319011261027b576004356103ce6147d0565b9080835260046020526040832090600182019160018060a01b0383541633148015610b8b575b8015610b75575b61040490614c70565b6002810193845460ff8160b01c1615610b4b5760a01c60ff166003811015610b375760026104329114614f9b565b600b8201544210610b0c578560ff600c8401541691600584015460018060a01b036009860154169160068601549160018060a01b03600a8801541692600788015496600889015473__$8537b7efa173772577da826929141ce939$__9860405190631c8f084760e01b825285600483015260248201526020816044818d5af4988915610b005798610acb575b506020906044604051809b8193631c8f084760e01b835287600484015260248301525af4978815610ac0578d98610a88575b506006811015610a745792828260048f968f96978f8f905f805160206157c58339815191529f9d9b98916106009f9d9b8f8f8f908f928f97948f958f968789848f8f8f8f90818e8d8f9460018f988e98888f948f8f908f8f908f91858f9194858f8f998f988a8f8a8f948f87908f928b978f948f971561098c575b505050505050505050505060028d1461088d575b5050505050505050505050501461079f575b505050505050505050505060038d14610702575b5050505050505050505050501461060e575b50508b54600160a01b60ff60a01b19821617909c55505093549754604080516001600160a01b039b8c168152336020820152918b169a9099169890958695509085019350915050565b0390a4602060405160018152f35b85889561065f899361063d610670966106829b6106368860018060a01b036003541693614d88565b918a6155d5565b506003546001600160a01b0316908890610658908b90614d88565b91886155d5565b50546001600160a01b0316846155d5565b508b546001600160a01b0316906155d5565b50825487548954600354604080516001600160a01b03938416815233602082015291831690820152606081018590526080810186905260a081019490945260c0840194909452831692169086907f8e100dc3335e09b082c843425f71ea8ae9d91ae5bb385ef4b41d0d2c6aa872149060e090a486808088818080806105b7565b7f8e100dc3335e09b082c843425f71ea8ae9d91ae5bb385ef4b41d0d2c6aa872149761067061073f9460e0998e60018060a01b03905416846155d5565b5060018060a01b039054169560018060a01b039054169660018060a01b0390541691604051928084523360208501526040840152606083015260808201528660a08201528660c0820152a48f8f908991888f8f8f908f928c8f8d906105a5565b5f805160206158058339815191529a6108195f80516020615785833981519152996107fc89878f9e6107ea9061082b9a6107e38560018060a01b0389541693614d88565b91896155d5565b508a546001600160a01b0316866155d5565b50546001600160a01b031683610812868c614d88565b91846155d5565b5085546001600160a01b0316906155d5565b5060018060a01b038c541696879160018060a01b0390541698899360018060a01b03905416948d610863604051928392338a85614d95565b0390a46108788b604051938493339085614d95565b0390a487898486858f8f908c918e8d8a610591565b7ff05d33634b730e763d232b482cf835a4481835f62d0a0973b42018a8ead4f047995f805160206157a5833981519152988f946108fd8e856108eb8f9961092a986108e48f928e81889260a01b0390541693614d88565b91876155d5565b508a546001600160a01b0316846155d5565b508654610918906001600160a01b031683610812868e614d88565b5087546001600160a01b0316906155d5565b508c8060a01b039054169788928d8060a01b03905416998a948e8060a01b039054169561095e604051928392338a85614d95565b0390a46109738b604051938493339085614d95565b0390a488858f8f908f8f908f918d8f91948c958f61057f565b6001995f805160206157a583398151915298610a06610a17956109e98f5f805160206158058339815191529f9a6109d78d82610636610a5f9f8f9d81889260a01b0390541693614d88565b5085546001600160a01b0316876155d5565b50546001600160a01b0316846109ff878d614d88565b91856155d5565b50546001600160a01b0316906155d5565b5089548c548e546040516001600160a01b039283169b9383169a91909216958b938b938b939290918291610a4e9190338c85614d95565b0390a4604051938493339085614d95565b0390a48a838a878a8a8f87908f8a8d9161056b565b634e487b7160e01b8d52602160045260248dfd5b9097506020813d602011610ab8575b81610aa460209383614a59565b81010312610ab45751965f6104f0565b5f80fd5b3d9150610a97565b6040513d8f823e3d90fd5b9097506020813d602011610af8575b81610ae760209383614a59565b81010312610ab457519660206104be565b3d9150610ada565b604051903d90823e3d90fd5b606460405162461bcd60e51b81526020600482015260046024820152632218971960e11b6044820152fd5b634e487b7160e01b87526021600452602487fd5b60405162461bcd60e51b8152602060048201526002602482015261221960f11b6044820152606490fd5b5060028101546001600160a01b031633146103fb565b5080546001600160a01b031633146103f4565b503461027b57602036600319011261027b5760408160e09260c08351610bc3816149f0565b82815282602082015282858201528260608201528260808201528260a08201520152600435815260096020522060405190610bfd826149f0565b8054825260026001820154916020840192835201549060408301610c2460ff841682614e23565b6060840160ff8460081c1615158152610c7d608086019260ff8660101c161515845260a087019460ff8760181c161515865260ff60c089019760201c1615158752604051975188525160208801525160408701906148a0565b5115156060850152511515608084015251151560a083015251151560c0820152f35b503461027b578060031936011261027b576020600654604051908152f35b503461027b57604036600319011261027b57600435610cda6147d0565b81835260046020526040832090600182019060018060a01b0382541633148015610ff0575b610d0890614c70565b8473__$69ea93bdf3b1e5da8164bfe3d9a878d765$__803b15610fec57816040518092630252a86760e51b82528180610d448a60048301614ca1565b03915af48015610fe157610fc8575b5050600583015460098401546006850154600a86015460078701546008880154604051631c8f084760e01b81526004810187905260248101929092526001600160a01b0394851698959791969195939473__$8537b7efa173772577da826929141ce939$__94931690602088604481885af4978815610fbd578c98610f88575b50602090604460405180978193631c8f084760e01b83528a600484015260248301525af4938415610f7d578a9b9a999a94610f3d575b50825489959493929184916001600160a01b03168c610e288b8d614d88565b90610e3392866155d5565b50600284018054909c610e52918b91906001600160a01b0316866155d5565b5087546001600160a01b031681610e698880614d88565b90610e7492866155d5565b508b54610e8c936001600160a01b03909116906155d5565b50885460ff60a01b198116600160a01b179099555493546040516001600160a01b039182169a9582169991909116968a968a9688938893919290918291610ed591338e85614d95565b035f8051602061580583398151915291a4604051918291610ef891338985614d95565b035f805160206157a583398151915291a4604080516001600160a01b039290921682523360208301525f805160206157c583398151915291a460405160018152602090f35b949350919097506020843d602011610f75575b81610f5d60209383614a59565b81010312610ab4578997889451939492909192610e09565b3d9150610f50565b6040513d8d823e3d90fd5b9097506020813d602011610fb5575b81610fa460209383614a59565b81010312610ab45751966020610dd3565b3d9150610f97565b6040513d8e823e3d90fd5b81610fd291614a59565b610fdd57845f610d53565b8480fd5b6040513d84823e3d90fd5b5080fd5b5060028301546001600160a01b03163314610cff565b506110103661474e565b9190949288948a98979a948c604060ff825460a01c16916110308361498e565b33815260016020522060018060a01b0385165f5260205260405f20548a8110611338575b5050916110a1949391610200989361106d8b843361552e565b5060405163652e83d760e01b815273__$69ea93bdf3b1e5da8164bfe3d9a878d765$__9e909b8c9a8b9a3360048d01614ba6565b0381875af49081156112fe578591611309575b5060206005546102246040518097819363797d4ee160e01b83526110db60048401886148ad565b6102048301525af49384156112fe5785946112ca575b506110fd600554614c12565b600555838552600460209081526040808720835181546001600160a01b03199081166001600160a01b0392831617835593850151600183018054861691831691909117905591840151600282018054909416921691909117825560608301519092919060038110156112b6578161117b6111b7926101e09594614c34565b6080830151815460ff60a81b191690151560a81b60ff60a81b1617815560a0830151815460ff60b01b191690151560b01b60ff60b01b16179055565b60c0810151600384015560e081015160048401556101008101516005840155610120810151600680850191909155610140820151600785015561016082015160088501556101808201516009850180546001600160a01b039283166001600160a01b0319918216179091556101a0840151600a870180549190931691161790556101c0820151600b85015591015195908610156112a25750602094600c61125e9201614c58565b6040516001600160a01b039283168152911690339083907f44e1ff8e67fad6b456bd43ff165ba4e9bb004370aa27a76881c6acb60dfd6dd9908690a4604051908152f35b634e487b7160e01b81526021600452602490fd5b634e487b7160e01b88526021600452602488fd5b9093506020813d6020116112f6575b816112e660209383614a59565b81010312610ab45751925f6110f1565b3d91506112d9565b6040513d87823e3d90fd5b61132b91506102003d8111611331575b6113238183614a59565b810190614a9c565b5f6110b4565b503d611319565b611355929994969593985061134f9197508a614d88565b9561498e565b611360851515614e91565b6002549360405194631c8f084760e01b8652866004870152602486015260208560448173__$8537b7efa173772577da826929141ce939$__5af4948515610ac0578d95611539575b506001600160a01b0381169687611451576113c38688614f2a565b340361142757610200988c98886110a1986113e08f9b87336155f3565b506003546113fa90829088906001600160a01b03166155f3565b505b60405191825260208201525f8051602061582583398151915260403392a39193988193959650611054565b60405162461bcd60e51b815260206004820152600260248201526110cd60f21b6044820152606490fd5b8d8060208a60646114628b8d614f2a565b60405194859384926323b872dd60e01b845233600485015230602485015260448401525af1918215610b0057916114fb575b50156114d157610200988c98886110a1986114b18f9b87336155f3565b506003546114cb90829088906001600160a01b03166155f3565b506113fc565b60405162461bcd60e51b81526020600482015260026024820152612a1960f11b6044820152606490fd5b90506020813d602011611531575b8161151660209383614a59565b8101031261152d5761152790614a8f565b5f611494565b8e80fd5b3d9150611509565b9094506020813d602011611565575b8161155560209383614a59565b81010312610ab45751935f6113a8565b3d9150611548565b503461027b57604036600319011261027b5760209060043561158d614722565b90808352600484526115e1604084209260018060a01b03845416331480156116bf575b6115b990614c70565b6001600160a01b0316926115ce841515614e60565b600201546001600160a01b031615614fcc565b61167f6040516115f081614a3d565b82815285810184815260408083018781526060840188815260808501898152600854808b52600a8c52939099209451855592516001909401805491519351985198151560a81b60ff60a81b1693151560a01b60ff60a01b166001600160a01b039095166001600160b81b031990921691909117939093179190911795151560b01b60ff60b01b16959095179055565b61168a600854614c12565b600855827f3e168088da33d5ab18321345a864b58812f451c892ee951f8f70b5bead045b6985604051338152a4604051908152f35b5060018401546001600160a01b031633146115b0565b503461027b576116e4366147df565b928281939293526004602052604081209260018060a01b03845416331480156118a7575b61171190614c70565b73__$69ea93bdf3b1e5da8164bfe3d9a878d765$__803b156118a357826040518092630252a86760e51b8252818061174c8a60048301614ca1565b03915af4801561189857908391611883575b50506006840161177a8282546117758282106149bf565b614d88565b905560018060a01b03600a8501541693600881015460405190631c8f084760e01b8252836004830152602482015260208160448173__$8537b7efa173772577da826929141ce939$__5af4938415610b00579361184d575b5091610600836118248360015f805160206157a583398151915297019861180e8b8260018060a01b038d5416611808868c614d88565b926155d5565b50600284019a60018060a01b038c5416906155d5565b5054955496546040516001600160a01b0398891698978816979094859492909133911685614d95565b92506020833d60201161187b575b8161186860209383614a59565b81010312610ab4579151916106006117d2565b3d915061185b565b8161188d91614a59565b610fec57815f61175e565b6040513d85823e3d90fd5b8280fd5b5060028401546001600160a01b03163314611708565b503461027b57604036600319011261027b576040610244614738565b503461027b57602036600319011261027b57604060e091600435815260096020522060ff81549160026001820154910154906040519384526020840152611925604084018383166148a0565b818160081c1615156060840152818160101c1615156080840152818160181c16151560a084015260201c16151560c0820152f35b503461027b57606036600319011261027b57611973614738565b9061197c614722565b604060443593338452600160205281842060018060a01b0384165f526020526119aa85835f205410156149bf565b338452600160205281842060018060a01b0384165f52602052815f206119d1868254614d88565b905560018060a01b03169283815260016020522060018060a01b0382165f5260205260405f20611a02848254614f2a565b90556040519283526001600160a01b03169133907fd1398bee19313d6bf672ccb116e51f4a1a947e91c757907f51fbb5b5e56c698f90602090a4602060405160018152f35b50602036600319011261027b57600435808252600460205260408220916001830192611a7d60018060a01b038554163314614c70565b600281019160ff8354611a94828260a81c16614f37565b611aa3828260b01c1615614f69565b60a01c166003811015611d7a576002611abc9114614f9b565b600a82018054335f9081526001602090815260408083206001600160a01b039094168084529390915290205460068501548110611bad575b5050546004830154611b119250906001600160a01b03163361552e565b508154600160b01b60ff60b01b198216179092555492546040516001600160a01b0392831680825294918316929091169083907f5e02698c1650d6cbe1f7e8a48609d0da45ad7f5e4c13cd8b196f82965c0ab0d590602090a481611b7b575b602060405160018152f35b60207f957372c0e02d2882134cc0eebbef9e446634d8ccbb1cbb112bdefdd3cf0a643c91604051908152a25f80611b70565b611bbb906004860154614d88565b611bcb60ff855460a01c1661498e565b611bd6811515614e91565b6002549360405194631c8f084760e01b8652826004870152602486015260208560448173__$8537b7efa173772577da826929141ce939$__5af4948515611d6d578195611d39575b5082611c855750611c2f8482614f2a565b340361142757611b1193611c448284336155f3565b50600354611c5e90829085906001600160a01b03166155f3565b505b60405191825260208201525f8051602061582583398151915260403392a35f80611af4565b611c8f8583614f2a565b604051906323b872dd60e01b8252336004830152306024830152604482015260208160648185885af1918215610b00578092611cfc575b5050156114d157611b1193611cdc8284336155f3565b50600354611cf690829085906001600160a01b03166155f3565b50611c60565b9091506020823d602011611d31575b81611d1860209383614a59565b8101031261027b5750611d2a90614a8f565b5f80611cc6565b3d9150611d0b565b9094506020813d602011611d65575b81611d5560209383614a59565b81010312610ab45751935f611c1e565b3d9150611d48565b50604051903d90823e3d90fd5b634e487b7160e01b82526021600452602482fd5b503461027b57602036600319011261027b5760408160a09260808351611db381614a3d565b828152826020820152828582015282606082015201526004358152600a60205220604051611de081614a3d565b600182549283835201549060208101600180861b0383168152604082019060ff84871c161515825260ff60806060850194828760a81c1615158652019460b01c1615158452604051948552600180871b039051166020850152511515604084015251151560608301525115156080820152f35b50611e5d366147df565b82849392935260046020526040842093611e8160018060a01b038654163314614c70565b73__$69ea93bdf3b1e5da8164bfe3d9a878d765$__803b15610fec57816040518092630252a86760e51b82528180611ebc8b60048301614ca1565b03915af48015610fe15790859291612168575b50600986018054335f9081526001602090815260408083206001600160a01b0390941680845293909152902054919290919415611f91575050611f1782611f279410156149bf565b546001600160a01b03163361552e565b5060058301611f37838254614f2a565b905582546001840154600290940154604080516001600160a01b0392831681526020810195909552948116949116927f3c0dd30126238eaebbb306e073222eecd03a091d41c39a4b2742759d406c8f559181908101610600565b9093838110611fa7575b5050611f279250611f17565b611fb19193614d88565b92611fc260ff845460a01c1661498e565b611fcd841515614e91565b6002549260405193631c8f084760e01b8552856004860152602485015260208460448173__$8537b7efa173772577da826929141ce939$__5af4938415611d6d578194612134575b508161207e57506120268385614f2a565b34036114275783869361203d611f279684336155f3565b5060035461205790829085906001600160a01b03166155f3565b505b60405191825260208201525f8051602061582583398151915260403392a35f80611f9b565b6120888486614f2a565b604051906323b872dd60e01b8252336004830152306024830152604482015260208160648185875af1918215610b005780926120f7575b5050156114d1578386936120d7611f279684336155f3565b506003546120f190829085906001600160a01b03166155f3565b50612059565b9091506020823d60201161212c575b8161211360209383614a59565b8101031261027b575061212590614a8f565b5f806120bf565b3d9150612106565b9093506020813d602011612160575b8161215060209383614a59565b81010312610ab45751925f612015565b3d9150612143565b8180935061217591614a59565b61027b5783905f611ecf565b503461027b57612190366147df565b92919081835260046020526040832090600182019360018060a01b0385541633148015612303575b6121c190614c70565b73__$69ea93bdf3b1e5da8164bfe3d9a878d765$__803b15610fec57816040518092630252a86760e51b825281806121fc8960048301614ca1565b03915af48015610fe1579082916122ee575b5050600583016122258382546117758282106149bf565b905560018060a01b03600984015416600784015460405190631c8f084760e01b8252846004830152602482015260208160448173__$8537b7efa173772577da826929141ce939$__5af4928315610b0057926122ad575b505f8051602061580583398151915293611824838361180e8b6106009660018060a01b03875416611808868c614d88565b9091506020813d6020116122e6575b816122c960209383614a59565b81010312610ab45751905f8051602061580583398151915261227c565b3d91506122bc565b816122f891614a59565b61027b57805f61220e565b5060028301546001600160a01b031633146121b8565b503461027b578060031936011261027b576020600754604051908152f35b503461027b57612346366147df565b928281939293526004602052604081209260018060a01b03845416331480156124c3575b61237390614c70565b73__$69ea93bdf3b1e5da8164bfe3d9a878d765$__803b156118a357826040518092630252a86760e51b825281806123ae8a60048301614ca1565b03915af48015611898579083916124ae575b5050600584016123d78282546117758282106149bf565b905560018060a01b0360098501541693600781015460405190631c8f084760e01b8252836004830152602482015260208160448173__$8537b7efa173772577da826929141ce939$__5af4938415610b005793612478575b5091610600836118248360017ff05d33634b730e763d232b482cf835a4481835f62d0a0973b42018a8ead4f04797019861180e8b8260018060a01b038d5416611808868c614d88565b92506020833d6020116124a6575b8161249360209383614a59565b81010312610ab45791519161060061242f565b3d9150612486565b816124b891614a59565b610fec57815f6123c0565b5060028401546001600160a01b0316331461236a565b503461027b578060031936011261027b576020600554604051908152f35b503461027b57602036600319011261027b5760043580825260046020526040822090600182019160018060a01b03835416331480156125df575b61253a90614c70565b600281019360ff8554612551828260a81c16614f37565b612560828260b01c1615614f69565b60a01c169060038210156112a257505f805160206157c58339815191529161258d60026106009314614f9b565b8054600982015460058301546125b19290916001600160a01b0390811691166155f3565b505493549454604080516001600160a01b039283168152336020820152968216969590911694918291820190565b5080546001600160a01b03163314612531565b503461027b578060031936011261027b57546040516001600160a01b039091168152602090f35b503461027b578060031936011261027b576020600254604051908152f35b503461027b578060031936011261027b57805461265e336001600160a01b03831614614e2f565b60ff60a01b191681556040518181527f017904e4fe7d59bb4603c7c045bc275a05da9ea3a4ac007fc80fffeaf119186d90602090a180f35b503461027b57602036600319011261027b576004358152600460205260409020600160a01b6001900381541690600160a01b600190036001820154169060028101546003820154600483015460058401546006850154600786015491600887015493600160a01b6001900360098901541695600160a01b60019003600a8a01541697600b8a015499600c015460ff169a6040519c8d5260208d0152600160a01b60019003811660408d015260608c018160a01c60ff169061275691614893565b8060a81c60ff16151560808d015260b01c60ff16151560a08c015260c08b015260e08a01526101008901526101208801526101408701526101608601526101808501526101a08401526101c08301526101e082016127b3916148a0565b61020090f35b503461027b57602036600319011261027b5760043580825260046020526040822090600182019160018060a01b0383541633148015612879575b6127fc90614c70565b600281019360ff8554818160b01c16158061286c575b61281b90614f69565b60a01c169060038210156112a257505f805160206157c58339815191529161284860026106009314614f9b565b8054600982015460058301546125b19290916001600160a01b03908116911661564e565b5060a881901c8216612812565b5080546001600160a01b031633146127f3565b503461027b57604036600319011261027b5760206102db6128ab6147d0565b600435615203565b503461027b57602036600319011261027b576020906040906001600160a01b036128db614738565b1681526001835281812081805283522054604051908152f35b506128fe366147df565b82849392945260046020526040832093600185019361292760018060a01b038654163314614c70565b73__$69ea93bdf3b1e5da8164bfe3d9a878d765$__803b15610fec57816040518092630252a86760e51b825281806129628c60048301614ca1565b03915af48015610fe157908291612c16575b5050600a86018054335f9081526001602090815260408083206001600160a01b0390941680845293909152902054919290919415612a12575050816129cd91611f17825f805160206157e58339815191529610156149bf565b50600685016129dd828254614f2a565b905584549354600290950154604080516001600160a01b03928316815260208101939093529581169594169381908101610600565b9093838110612a38575b50505f805160206157e58339815191529250816129cd91611f17565b612a429084614d88565b91612a5360ff835460a01c1661498e565b612a5e831515614e91565b6002549160405192631c8f084760e01b8452846004850152602484015260208360448173__$8537b7efa173772577da826929141ce939$__5af4928315611d6d578193612be2575b5085612b1d5750612ab78284614f2a565b34036114275784838593612add6129cd965f805160206157e583398151915299336155f3565b50600354612af790829085906001600160a01b03166155f3565b505b60405191825260208201525f8051602061582583398151915260403392a391612a1c565b612b278385614f2a565b604051906323b872dd60e01b82523360048301523060248301526044820152602081606481858b5af1918215610b00578092612ba5575b5050156114d15784838593612b856129cd965f805160206157e583398151915299336155f3565b50600354612b9f90829085906001600160a01b03166155f3565b50612af9565b9091506020823d602011612bda575b81612bc160209383614a59565b8101031261027b5750612bd390614a8f565b5f80612b5e565b3d9150612bb4565b9092506020813d602011612c0e575b81612bfe60209383614a59565b81010312610ab45751915f612aa6565b3d9150612bf1565b81612c2091614a59565b61027b57805f612974565b503461027b57612c3a36614802565b83859493929452600460205260408520906001820194612c6460018060a01b038754163314614c70565b8673__$69ea93bdf3b1e5da8164bfe3d9a878d765$__803b15610fec57816040518092630252a86760e51b82528180612ca08a60048301614ca1565b03915af48015610fe157612fb7575b50506002830196612cc760ff895460a81c1615614dbf565b33815260016020526040812060018060a01b0386165f52602052612cf18260405f205410156149bf565b612cfc82863361552e565b5082612f9c575b33815260016020526040812060018060a01b0386165f5260205260405f2054828110612db3575b5050908184612d4b602095945f80516020615845833981519152973361552e565b50885460ff60a81b1916600160a81b178955600a840180546001600160a01b0319166001600160a01b039283161790556004840182905560068401919091556008830191909155905494549554604051908216815295811695941693a4602060405160018152f35b612dc1908392959493614d88565b94612dd260ff865460a01c1661498e565b612ddd861515614e91565b6002549460405195631c8f084760e01b8752876004880152602487015260208660448173__$8537b7efa173772577da826929141ce939$__5af4958615611d6d578196612f68575b506001600160a01b0382169081612ea65750612e418688614f2a565b6114275786602096612e625f805160206158458339815191529985336155f3565b50600354612e7c90829086906001600160a01b03166155f3565b505b604051918252878201525f8051602061582583398151915260403392a3948192939450612d2a565b612eb08789614f2a565b604051906323b872dd60e01b8252336004830152306024830152604482015260208160648185875af1918215610b00578092612f2b575b5050156114d15786602096612f0b5f805160206158458339815191529985336155f3565b50600354612f2590829086906001600160a01b03166155f3565b50612e7e565b9091506020823d602011612f60575b81612f4760209383614a59565b8101031261027b5750612f5990614a8f565b5f80612ee7565b3d9150612f3a565b9095506020813d602011612f94575b81612f8460209383614a59565b81010312610ab45751945f612e25565b3d9150612f77565b8754612fb2906001600160a01b03161515614df1565b612d03565b81612fc191614a59565b612fcc57865f612caf565b8680fd5b503461027b57604036600319011261027b57600435612fed6147d0565b81835260046020526040832080546001600160a01b03163314801561331c575b61301690614c70565b8373__$69ea93bdf3b1e5da8164bfe3d9a878d765$__803b15610fec57816040518092630252a86760e51b825281806130528860048301614ca1565b03915af48015610fe157613303575b505060058101549060018060a01b0360098201541660068201549260018060a01b03600a840154169260078101549560088201549473__$8537b7efa173772577da826929141ce939$__9560405198631c8f084760e01b8a528560048b015260248a01526020896044818a5af4988915610f7d578b996132ce575b50602090604460405180998193631c8f084760e01b83528c600484015260248301525af49586156132c357918a91899a9b938c9a959498613281575b50908784939260018c9897960198600160a01b600190038a54168161313d898b614d88565b9061314892876155d5565b50600286018054909e6131669290916001600160a01b0316866155d5565b5084546001600160a01b03168161317d8d80614d88565b9061318892866155d5565b508c546131a0936001600160a01b03909116906155d5565b5050885460ff60a01b1981169099555493546040516001600160a01b039182169a9582169991909116968a968a96889388939192909182916131e491338e85614d95565b035f8051602061578583398151915291a460405191829161320791338985614d95565b037ff05d33634b730e763d232b482cf835a4481835f62d0a0973b42018a8ead4f04791a4604080516001600160a01b039290921682523360208301527ffaee379435b6a0c297f1a08c66517fdc202debc6d275e6dd73630e3ebd1bdd9791a460065461327290614c12565b60065560405160018152602090f35b9392995096509392506020823d6020116132bb575b816132a360209383614a59565b81010312610ab4579051899790959293899389613118565b3d9150613296565b6040513d8c823e3d90fd5b9098506020813d6020116132fb575b816132ea60209383614a59565b81010312610ab457519760206130dc565b3d91506132dd565b8161330d91614a59565b61331857835f613061565b8380fd5b5060028101546001600160a01b0316331461300d565b503461027b57604036600319011261027b5760206102db6133516147d0565b600435614ffe565b503461027b57602036600319011261027b57604060a0916004358152600a6020522060ff60018254920154604051928352600180851b03811660208401528181851c1615156040840152818160a81c161515606084015260b01c1615156080820152f35b503461027b57602036600319011261027b57806101e06040516133df81614a20565b8281528260208201528260408201528260608201528260808201528260a08201528260c08201528260e08201528261010082015282610120820152826101408201528261016082015282610180820152826101a0820152826101c082015201526004358152600460205260408120906040519061345b82614a20565b82546001600160a01b039081168352600184015481166020840152600284015490811660408401529060a082901c60ff169060038210156112a25750600c6102009460ff6135409481946060880152818160a81c161515608088015260b01c16151560a0860152600381015460c0860152600481015460e0860152600581015461010086015260068101546101208601526007810154610140860152600881015461016086015260018060a01b0360098201541661018086015260018060a01b03600a820154166101a0860152600b8101546101c08601520154166101e08301614e23565b61354d60405180926148ad565bf35b50604036600319011261027b57613564614738565b60243561357760ff845460a01c1661498e565b613582811515614e91565b60025460405190631c8f084760e01b8252826004830152602482015260208160448173__$8537b7efa173772577da826929141ce939$__5af49081156137075784916136d5575b506001600160a01b038316928361362f576135e48284614f2a565b34036114275781816135fa8561360c94336155f3565b506003546001600160a01b03166155f3565b505b60405191825260208201525f8051602061582583398151915260403392a380f35b6136398284614f2a565b604051906323b872dd60e01b8252336004830152306024830152604482015260208160648189895af19081156136ca57869161368c575b50156114d15781816135fa8561368694336155f3565b5061360e565b90506020813d6020116136c2575b816136a760209383614a59565b810103126136be576136b890614a8f565b5f613670565b8580fd5b3d915061369a565b6040513d88823e3d90fd5b90506020813d6020116136ff575b816136f060209383614a59565b81010312610ab457515f6135c9565b3d91506136e3565b6040513d86823e3d90fd5b503461027b578060031936011261027b5760ff6020915460a01c166040519015158152f35b503461027b57602036600319011261027b5760043580825260046020526040822091600183019261377260018060a01b038554163314614c70565b600281019160ff8354613789828260a81c16614f37565b613798828260b01c1615614f69565b60a01c169060038210156112a2575060026137b39114614f9b565b600a810154335f9081526001602090815260408083206001600160a01b0390941680845293909152902054611b11916137f36004850154809310156149bf565b3361552e565b503461027b57602036600319011261027b576004359060025460405190631c8f084760e01b8252836004830152602482015260208160448173__$8537b7efa173772577da826929141ce939$__5af4918215610b005791613869575b60206138618385614f2a565b604051908152f35b90506020813d602011613894575b8161388460209383614a59565b81010312610ab457516020613855565b3d9150613877565b503461027b578060031936011261027b5780546138c3336001600160a01b03831614614e2f565b60ff60a01b1916600160a01b178155604051600181527f017904e4fe7d59bb4603c7c045bc275a05da9ea3a4ac007fc80fffeaf119186d90602090a180f35b5061390c36614830565b91929095949360ff885460a01c16926139248461498e565b33895260016020526040892060018060a01b0386165f5260205260405f2054828110613be7575b5061020093506139969061396083873361552e565b5060405163652e83d760e01b815273__$69ea93bdf3b1e5da8164bfe3d9a878d765$__999096879586958a8c3360048a01614ec2565b0381875af49081156112fe578591613bc8575b5060206005546102246040518097819363797d4ee160e01b83526139d060048401886148ad565b6102048301525af49384156112fe578594613b94575b506139f2600554614c12565b600555838552600460209081526040808720835181546001600160a01b03199081166001600160a01b0392831617835593850151600183018054861691831691909117905591840151600282018054909416921691909117825560608301519092919060038110156112b6578161117b613a70926101e09594614c34565b60c0810151600384015560e081015160048401556101008101516005840155610120810151600680850191909155610140820151600785015561016082015160088501556101808201516009850180546001600160a01b039283166001600160a01b0319918216179091556101a0840151600a870180549190931691161790556101c0820151600b85015591015195908610156112a25750602094600c613b179201614c58565b6040516001600160a01b039182168082529290911690339084907f5e02698c1650d6cbe1f7e8a48609d0da45ad7f5e4c13cd8b196f82965c0ab0d5908790a480613b65575b50604051908152f35b7f957372c0e02d2882134cc0eebbef9e446634d8ccbb1cbb112bdefdd3cf0a643c83604051848152a25f613b5c565b9093506020813d602011613bc0575b81613bb060209383614a59565b81010312610ab45751925f6139e6565b3d9150613ba3565b613be191506102003d8111611331576113238183614a59565b5f6139a9565b613bf4613bfa9184614d88565b9461498e565b613c05841515614e91565b6002549060405191631c8f084760e01b8352856004840152602483015260208260448173__$8537b7efa173772577da826929141ce939$__5af49182156132c3578a92613d79575b506001600160a01b03861680613cc057613c678387614f2a565b3403611427578561399693613c80610200988a336155f3565b50600354613c9a9082908b906001600160a01b03166155f3565b505b60405191825260208201525f8051602061582583398151915260403392a39061394b565b8a6020613ccd8589614f2a565b6064604051809481936323b872dd60e01b83523360048401523060248401526044830152865af1908115610fbd578c91613d3b575b50156114d1578561399693613d1b610200988a336155f3565b50600354613d359082908b906001600160a01b03166155f3565b50613c9c565b90506020813d602011613d71575b81613d5660209383614a59565b81010312613d6d57613d6790614a8f565b5f613d02565b8b80fd5b3d9150613d49565b9091506020813d602011613da5575b81613d9560209383614a59565b81010312610ab45751905f613c4d565b3d9150613d88565b503461027b57610200613996613dc236614830565b613dda60ff8b9a9694979899939a5460a01c1661498e565b338a52600160205260408a2060018060a01b0387165f52602052613e048360405f205410156149bf565b61396083873361552e565b503461027b57604036600319011261027b577f14bdaadaed0453e7b5b66195b42156ba995b9e5abd0da98368839851d69ad8896040600435613e4f614722565b613e6360018060a01b038654163314614e2f565b6001600160a01b0316613e77811515614e60565b613e886402540be400831115614e91565b81600255806bffffffffffffffffffffffff60a01b600354161760035582519182526020820152a180f35b503461027b57606036600319011261027b5760243560043560443560068110156133185781845260046020526040842091600183019160018060a01b03835416331480156140cd575b80156140b7575b613f0c90614c70565b8573__$69ea93bdf3b1e5da8164bfe3d9a878d765$__803b15610fec57816040518092630252a86760e51b82528180613f488b60048301614ca1565b03915af48015610fe1576140a2575b505084158015614098575b613f6b90614df1565b604051613f77816149f0565b82815260208101958652613f8f604082019283614e23565b606081018781526080820188815260a0830191898352600260c08501948b86526007549a8b8d52600960205260408d20915182555160018201550194519960068b10156112a25750613fe360209a86614c58565b51845491519251935164ffffffff001990921690151560081b61ff00161791151560101b62ff0000169190911791151560181b63ff0000001691909117901515871b64ff000000001617905582549154600290930154604080516001600160a01b0392831681523381890152908101869052938116939216917f867051316d0aafc6bf3704f0b32fa0e735bb03d37318b95179bdc1c5017467c090606090a461408d600754614c12565b600755604051908152f35b5042851115613f62565b816140ac91614a59565b6136be57855f613f57565b5060028401546001600160a01b03163314613f03565b5083546001600160a01b03163314613efc565b506140ea36614802565b8385949392945260046020526040852090600182019461411460018060a01b038754163314614c70565b8673__$69ea93bdf3b1e5da8164bfe3d9a878d765$__803b15610fec57816040518092630252a86760e51b825281806141508a60048301614ca1565b03915af48015610fe1576142a3575b5050600283019661417760ff895460a81c1615614dbf565b33815260016020526040812060018060a01b0386165f5260205260405f20548281106141be575050908184612d4b602095945f80516020615845833981519152973361552e565b6141cc908392959493614d88565b946141dd60ff865460a01c1661498e565b6141e8861515614e91565b6002549460405195631c8f084760e01b8752876004880152602487015260208660448173__$8537b7efa173772577da826929141ce939$__5af4958615611d6d57819661426f575b506001600160a01b0382169081612ea6575061424c8688614f2a565b34036114275786602096612e625f805160206158458339815191529985336155f3565b9095506020813d60201161429b575b8161428b60209383614a59565b81010312610ab45751945f614230565b3d915061427e565b816142ad91614a59565b612fcc57865f61415f565b503461027b578060031936011261027b576003546040516001600160a01b039091168152602090f35b503461027b578060031936011261027b576020600854604051908152f35b5034610ab45761430e366147df565b929190815f52600460205260405f2090600182019360018060a01b0385541633148015614486575b61433f90614c70565b73__$69ea93bdf3b1e5da8164bfe3d9a878d765$__803b15610ab4575f6040518092630252a86760e51b8252818061437a8960048301614ca1565b03915af4801561447b57614468575b506006830161439f8382546117758282106149bf565b905560018060a01b03600a84015416600884015460405190631c8f084760e01b8252846004830152602482015260208160448173__$8537b7efa173772577da826929141ce939$__5af4928315610b005792614427575b505f8051602061578583398151915293611824838361180e8b6106009660018060a01b03875416611808868c614d88565b9091506020813d602011614460575b8161444360209383614a59565b81010312610ab45751905f805160206157858339815191526143f6565b3d9150614436565b61447491505f90614a59565b5f80614389565b6040513d5f823e3d90fd5b5060028301546001600160a01b03163314614336565b34610ab4576102006145386144b03661474e565b926144ce60ff5f9d99979d9c969c9b9a9b9493945460a01c1661498e565b335f52600160205260405f2060018060a01b0382165f526020526144f88660405f205410156149bf565b61450386823361552e565b5073__$69ea93bdf3b1e5da8164bfe3d9a878d765$__9a6040519c8d98899863652e83d760e01b8a528d8d3360048d01614ba6565b0381865af493841561447b575f94614701575b5060206005546102246040518096819363797d4ee160e01b8352614572600484018b6148ad565b6102048301525af492831561447b575f936146cd575b50614594600554614c12565b6005555f83815260046020908152604091829020865181546001600160a01b03199081166001600160a01b0392831617835592880151600183018054851691831691909117905592870151600282018054909316931692909217815560608601519195909160038110156146b9578261117b614613926101e095614c34565b60c0810151600387015560e081015160048701556101008101516005870155610120810151600680880191909155610140820151600788015561016082015160088801556101808201516009880180546001600160a01b039283166001600160a01b0319918216179091556101a0840151600a8a0180549190931691161790556101c0820151600b88015591015194908510156146b957602094600c61125e9201614c58565b634e487b7160e01b5f52602160045260245ffd5b9092506020813d6020116146f9575b816146e960209383614a59565b81010312610ab457519184614588565b3d91506146dc565b61471b9194506102003d8111611331576113238183614a59565b928461454b565b602435906001600160a01b0382168203610ab457565b600435906001600160a01b0382168203610ab457565b610140906003190112610ab4576004356001600160a01b0381168103610ab457906024356001600160a01b0381168103610ab4579060443590606435906084359060a4359060c4356001600160a01b0381168103610ab4579060e4356001600160a01b0381168103610ab457906101043590610124356006811015610ab45790565b602435908115158203610ab457565b6060906003190112610ab45760043590602435906044358015158103610ab45790565b6080906003190112610ab457600435906024356001600160a01b0381168103610ab457906044359060643590565b60e0906003190112610ab4576004356001600160a01b0381168103610ab457906024356001600160a01b0381168103610ab4579060443590606435906084356001600160a01b0381168103610ab4579060a4359060c4356006811015610ab45790565b9060038210156146b95752565b9060068210156146b95752565b80516001600160a01b0390811683526020808301518216908401526040808301519091169083015260608082015161498c93926101e09283926148f291860190614893565b60808101511515608085015260a0810151151560a085015260c081015160c085015260e081015160e085015261010081015161010085015261012081015161012085015261014081015161014085015261016081015161016085015260018060a01b036101808201511661018085015260018060a01b036101a0820151166101a08501526101c08101516101c085015201519101906148a0565b565b1561499557565b60405162461bcd60e51b81526020600482015260026024820152614c3160f01b6044820152606490fd5b156149c657565b60405162461bcd60e51b8152602060048201526002602482015261543160f01b6044820152606490fd5b60e0810190811067ffffffffffffffff821117614a0c57604052565b634e487b7160e01b5f52604160045260245ffd5b610200810190811067ffffffffffffffff821117614a0c57604052565b60a0810190811067ffffffffffffffff821117614a0c57604052565b90601f8019910116810190811067ffffffffffffffff821117614a0c57604052565b51906001600160a01b0382168203610ab457565b51908115158203610ab457565b9081610200910312610ab45760405190614ab582614a20565b614abe81614a7b565b8252614acc60208201614a7b565b6020830152614add60408201614a7b565b60408301526060810151906003821015610ab4576101e0916060840152614b0660808201614a8f565b6080840152614b1760a08201614a8f565b60a084015260c081015160c084015260e081015160e0840152610100810151610100840152610120810151610120840152610140810151610140840152610160810151610160840152614b6d6101808201614a7b565b610180840152614b806101a08201614a7b565b6101a08401526101c08101516101c084015201516006811015610ab4576101e082015290565b6001600160a01b039182168152918116602083015291821660408201526060810192909252608082019290925260a081019290925260c082019290925291811660e08301529091166101008201526101208101919091526101608101929161498c9161014001906148a0565b5f198114614c205760010190565b634e487b7160e01b5f52601160045260245ffd5b9060038110156146b957815460ff60a01b191660a09190911b60ff60a01b16179055565b9060068110156146b95760ff80198354169116179055565b15614c7757565b60405162461bcd60e51b8152602060048201526002602482015261443560f01b6044820152606490fd5b81546001600160a01b039081168252600183015481166020830152600283015490811660408301526102008201939261498c92916101e09160ff91600c91908390614cf56060880160a083901c8416614893565b60a881901c82161515608088015260b01c16151560a0860152600381015460c0860152600481015460e0860152600581015461010086015260068101546101208601526007810154610140860152600881015461016086015260098101546001600160a01b03908116610180870152600a820154166101a0860152600b8101546101c086015201549190920191166148a0565b91908203918211614c2057565b6001600160a01b039182168152911660208201526040810191909152606081019190915260800190565b15614dc657565b606460405162461bcd60e51b81526020600482015260046024820152632219171960e11b6044820152fd5b15614df857565b606460405162461bcd60e51b815260206004820152600460248201526344312e3160e01b6044820152fd5b60068210156146b95752565b15614e3657565b60405162461bcd60e51b8152602060048201526002602482015261261960f11b6044820152606490fd5b15614e6757565b60405162461bcd60e51b8152602060048201526002602482015261433160f01b6044820152606490fd5b15614e9857565b60405162461bcd60e51b8152602060048201526002602482015261433560f01b6044820152606490fd5b6001600160a01b0391821681529181166020830152918216604082015260608101929092525f6080830181905260a083019390935260c0820183905290921660e08301526101008201526101208101919091526101608101929161498c9161014001906148a0565b91908201809211614c2057565b15614f3e57565b606460405162461bcd60e51b815260206004820152600460248201526344332e3160e01b6044820152fd5b15614f7057565b606460405162461bcd60e51b815260206004820152600460248201526344322e3160e01b6044820152fd5b15614fa257565b60405162461bcd60e51b8152602060048201526002602482015261443360f01b6044820152606490fd5b15614fd357565b606460405162461bcd60e51b815260206004820152600460248201526343332e3160e01b6044820152fd5b90815f52600a60205260405f2080545f52600460205260405f2060018060a01b03815416331480156151ed575b61503490614c70565b600182019283549061504c60ff8360b01c1615614fcc565b615187575060028101805490919061506d906001600160a01b031615614fcc565b80546001600160a01b03163314615171575b600101546001600160a01b0316331461515b575b825460ff8160a01c168061514e575b6150fa5750505060807fda0fdc90d2cac3c2211c13cf60368aceb049a3073b8be0b90792021888c55fc5915460ff60405191338352818160a01c161515602084015260a81c16151560408201525f6060820152a25f90565b81546001600160a01b0319166001600160a01b039182161790915591549054604051908152911691507f957372c0e02d2882134cc0eebbef9e446634d8ccbb1cbb112bdefdd3cf0a643c90602090a2600190565b5060ff8160a81c166150a2565b825460ff60a81b1916600160a81b178355615093565b835460ff60a01b1916600160a01b17845561507f565b608092507fda0fdc90d2cac3c2211c13cf60368aceb049a3073b8be0b90792021888c55fc5939150600160b01b9060ff60b01b19161780915560ff60405191338352818160a01c161515602084015260a81c161515604082015260016060820152a25f90565b5060018101546001600160a01b0316331461502b565b5f91815f52600960205260405f2080545f52600460205260405f2090600182019060018060a01b038254163314801561551b575b8015615505575b61524790614c70565b73__$69ea93bdf3b1e5da8164bfe3d9a878d765$__803b15610ab4575f6040518092630252a86760e51b825281806152828960048301614ca1565b03915af4801561447b576154f0575b5060028101938454906152aa60ff8360201c1615614fcc565b61547b57506001810180549182158015615471575b6152c890614df1565b84546001600160a01b0316331461545f575b83546001600160a01b0316331461544b575b6002850180549093906001600160a01b03163314615435575b865460ff8160081c169081615426575b81615418575b506153835750505050505060a07fca0792b3957820bc249dd7664026ca960efe1500204314bf8161056d3847d526915460ff60405191338352818160081c1615156020840152818160101c161515604084015260181c1615156060820152846080820152a290565b8598509160ff7f932bd05aaee1f6600767846bab40eaabef608993e19645684d0a9fcb3335d37297926154129594600b60c09901556153c882855416600c8d01614c58565b5499549554935491549254604080516001600160a01b039889168152958816602087015292909616918401919091523360608401526080830191909152909260a0840191166148a0565ba3600190565b60ff915060181c165f61531b565b905060ff8160101c1690615315565b865463ff00000019166301000000178755615305565b855462ff00001916620100001786556152ec565b855461ff0019166101001786556152da565b50428311156152bf565b60a093507fca0792b3957820bc249dd7664026ca960efe1500204314bf8161056d3847d526949250640100000000915064ff0000000019161780915560ff60405191338352818160081c1615156020840152818160101c161515604084015260181c161515606082015260016080820152a290565b6154fd9196505f90614a59565b5f945f615291565b5060028301546001600160a01b0316331461523e565b5082546001600160a01b03163314615237565b82156155cd5760018060a01b031690815f52600160205260405f2060018060a01b0382165f526020528260405f2054106155c6577fd1398bee19313d6bf672ccb116e51f4a1a947e91c757907f51fbb5b5e56c698f60205f92848452600182526040842060018060a01b03821685528252604084206155ae878254614d88565b90556040519586526001600160a01b031694a4600190565b5050505f90565b505050600190565b90929190156155ea576155e7926155f3565b90565b6155e79261564e565b82156155cd577fd1398bee19313d6bf672ccb116e51f4a1a947e91c757907f51fbb5b5e56c698f60205f9260018060a01b031693848452600182526040842060018060a01b03821685528252604084206155ae878254614f2a565b919081156155cd576001600160a01b031691826156b6575f808080856001600160a01b03861682f11561447b5760207f2717ead6b9200dd235aad468c9809ea400fe33ac69b5bfaa6d3e90fc922b6398915b6040519384526001600160a01b031692a3600190565b60405163a9059cbb60e01b81526001600160a01b0382166004820152602481018390526020816044815f885af190811561447b575f9161574a575b50156157205760207f2717ead6b9200dd235aad468c9809ea400fe33ac69b5bfaa6d3e90fc922b6398916156a0565b60405162461bcd60e51b8152602060048201526002602482015261543360f01b6044820152606490fd5b90506020813d60201161577c575b8161576560209383614a59565b81010312610ab45761577690614a8f565b5f6156f1565b3d915061575856fe8af39814826d4542f7fe66e6fa6ac2ac59bfc8221394f51a41dba5c54dba0ac9afbe337783658b293f1566e1790bfab9858b8cf08de944ca3cd013d4211887b8086c61b89ef5fcdb14c243b643069c3c6a84765b27f2a696b875dddf031afb4d9d5818ec36d6e85e8a30346f5fe41b65cc50cea2b868ae94f293d113c92a1338a6af192380b5ba311ac003f57efa2be0717f0e466318c7e9cf546c4937a03d94dcbc1c05240f31ff3ad067ef1ee35ce4997762752e3a095284754544f4c709d79f039f6754f2d286001d6bb50c1b3cc185b309e82f63077e29516a6a87e8e99da2646970667358221220e70ea88898309c0132e061bffbee64f87ce428e2d2470ed632a5328913ecfbca64736f6c634300081a0033",
			"opcodes": "PUSH1 0x80 CALLVALUE PUSH2 0x13A JUMPI PUSH1 0x1F PUSH2 0x59ED CODESIZE DUP2 SWAP1 SUB SWAP2 DUP3 ADD PUSH1 0x1F NOT AND DUP4 ADD SWAP2 PUSH1 0x1 PUSH1 0x1 PUSH1 0x40 SHL SUB DUP4 GT DUP5 DUP5 LT OR PUSH2 0x13E JUMPI DUP1 DUP5 SWAP3 PUSH1 0x40 SWAP5 DUP6 MSTORE DUP4 CODECOPY DUP2 ADD SUB SLT PUSH2 0x13A JUMPI DUP1 MLOAD PUSH1 0x20 SWAP1 SWAP2 ADD MLOAD PUSH1 0x1 PUSH1 0x1 PUSH1 0xA0 SHL SUB DUP2 AND SWAP2 SWAP1 DUP3 SWAP1 SUB PUSH2 0x13A JUMPI PUSH0 DUP1 SLOAD PUSH1 0x1 PUSH1 0x1 PUSH1 0xA8 SHL SUB NOT AND CALLER OR PUSH1 0x1 PUSH1 0xA0 SHL OR DUP1 DUP3 SSTORE PUSH1 0x40 MLOAD SWAP2 PUSH1 0x1 PUSH1 0x1 PUSH1 0xA0 SHL SUB SWAP1 SWAP2 AND SWAP1 PUSH32 0x8BE0079C531659141344CD1FD0A4F28419497F9722A3DAAFE3B4186F6B6457E0 DUP2 DUP1 LOG3 DUP3 ISZERO PUSH2 0x113 JUMPI POP PUSH5 0x2540BE400 DUP2 GT PUSH2 0xE9 JUMPI PUSH1 0x2 SSTORE PUSH1 0x1 DUP1 PUSH1 0xA0 SHL SUB NOT PUSH1 0x3 SLOAD AND OR PUSH1 0x3 SSTORE PUSH0 PUSH1 0x5 SSTORE PUSH0 PUSH1 0x6 SSTORE PUSH0 PUSH1 0x7 SSTORE PUSH0 PUSH1 0x8 SSTORE PUSH1 0x40 MLOAD PUSH2 0x589A SWAP1 DUP2 PUSH2 0x153 DUP3 CODECOPY RETURN JUMPDEST PUSH1 0x40 MLOAD PUSH3 0x461BCD PUSH1 0xE5 SHL DUP2 MSTORE PUSH1 0x20 PUSH1 0x4 DUP3 ADD MSTORE PUSH1 0x2 PUSH1 0x24 DUP3 ADD MSTORE PUSH2 0x4335 PUSH1 0xF0 SHL PUSH1 0x44 DUP3 ADD MSTORE PUSH1 0x64 SWAP1 REVERT JUMPDEST PUSH3 0x461BCD PUSH1 0xE5 SHL DUP2 MSTORE PUSH1 0x20 PUSH1 0x4 DUP3 ADD MSTORE PUSH1 0x2 PUSH1 0x24 DUP3 ADD MSTORE PUSH2 0x4331 PUSH1 0xF0 SHL PUSH1 0x44 DUP3 ADD MSTORE PUSH1 0x64 SWAP1 REVERT JUMPDEST PUSH0 DUP1 REVERT JUMPDEST PUSH4 0x4E487B71 PUSH1 0xE0 SHL PUSH0 MSTORE PUSH1 0x41 PUSH1 0x4 MSTORE PUSH1 0x24 PUSH0 REVERT INVALID PUSH1 0x80 PUSH1 0x40 MSTORE PUSH1 0x4 CALLDATASIZE LT ISZERO PUSH2 0x11 JUMPI PUSH0 DUP1 REVERT JUMPDEST PUSH0 DUP1 CALLDATALOAD PUSH1 0xE0 SHR DUP1 PUSH3 0x7E8BD3 EQ PUSH2 0x449C JUMPI DUP1 PUSH4 0x1CAFAE3 EQ PUSH2 0x42FF JUMPI DUP1 PUSH4 0x2927459 EQ PUSH2 0x42E1 JUMPI DUP1 PUSH4 0x6FD154A EQ PUSH2 0x42B8 JUMPI DUP1 PUSH4 0x934DA22 EQ PUSH2 0x40E0 JUMPI DUP1 PUSH4 0x1273C165 EQ PUSH2 0x3EB3 JUMPI DUP1 PUSH4 0x15F8A314 EQ PUSH2 0x3E0F JUMPI DUP1 PUSH4 0x17B52B50 EQ PUSH2 0x3DAD JUMPI DUP1 PUSH4 0x28D5A050 EQ PUSH2 0x3902 JUMPI DUP1 PUSH4 0x367EDD32 EQ PUSH2 0x389C JUMPI DUP1 PUSH4 0x39B3EDB0 EQ PUSH2 0x37F9 JUMPI DUP1 PUSH4 0x4187129C EQ PUSH2 0x3737 JUMPI DUP1 PUSH4 0x41B3A0D9 EQ PUSH2 0x3712 JUMPI DUP1 PUSH4 0x47E7EF24 EQ PUSH2 0x354F JUMPI DUP1 PUSH4 0x51A6FAD5 EQ PUSH2 0x33BD JUMPI DUP1 PUSH4 0x53A78000 EQ PUSH2 0x3359 JUMPI DUP1 PUSH4 0x619C457E EQ PUSH2 0x3332 JUMPI DUP1 PUSH4 0x6242C6CD EQ PUSH2 0x2FD0 JUMPI DUP1 PUSH4 0x63ADB66F EQ PUSH2 0x2C2B JUMPI DUP1 PUSH4 0x67C5545D EQ PUSH2 0x28F4 JUMPI DUP1 PUSH4 0x70A08231 EQ PUSH2 0x28B3 JUMPI DUP1 PUSH4 0x71AE8BCD EQ PUSH2 0x288C JUMPI DUP1 PUSH4 0x80CCB070 EQ PUSH2 0x27B9 JUMPI DUP1 PUSH4 0x81CD872A EQ PUSH2 0x2696 JUMPI DUP1 PUSH4 0x894BA833 EQ PUSH2 0x2637 JUMPI DUP1 PUSH4 0x899A3FFD EQ PUSH2 0x2619 JUMPI DUP1 PUSH4 0x8DA5CB5B EQ PUSH2 0x25F2 JUMPI DUP1 PUSH4 0x8DEEA5FB EQ PUSH2 0x24F7 JUMPI DUP1 PUSH4 0x966D1F1D EQ PUSH2 0x24D9 JUMPI DUP1 PUSH4 0x9905A1EA EQ PUSH2 0x2337 JUMPI DUP1 PUSH4 0x9974F376 EQ PUSH2 0x2319 JUMPI DUP1 PUSH4 0xA0849A33 EQ PUSH2 0x2181 JUMPI DUP1 PUSH4 0xAD94B28B EQ PUSH2 0x1E53 JUMPI DUP1 PUSH4 0xBA343F6D EQ PUSH2 0x1D8E JUMPI DUP1 PUSH4 0xBB06C1A4 EQ PUSH2 0x1A47 JUMPI DUP1 PUSH4 0xBEABACC8 EQ PUSH2 0x1959 JUMPI DUP1 PUSH4 0xC15A25BF EQ PUSH2 0x18D9 JUMPI DUP1 PUSH4 0xC23F001F EQ PUSH2 0x18BD JUMPI DUP1 PUSH4 0xC2C257B9 EQ PUSH2 0x16D5 JUMPI DUP1 PUSH4 0xCFAAF235 EQ PUSH2 0x156D JUMPI DUP1 PUSH4 0xCFADF6C7 EQ PUSH2 0x1006 JUMPI DUP1 PUSH4 0xD750158B EQ PUSH2 0xCBD JUMPI DUP1 PUSH4 0xE08560A4 EQ PUSH2 0xC9F JUMPI DUP1 PUSH4 0xEB457329 EQ PUSH2 0xB9E JUMPI DUP1 PUSH4 0xEE026054 EQ PUSH2 0x3B1 JUMPI DUP1 PUSH4 0xF2FDE38B EQ PUSH2 0x2E5 JUMPI DUP1 PUSH4 0xF3FEF3A3 EQ PUSH2 0x27E JUMPI PUSH4 0xF7888AEC EQ PUSH2 0x229 JUMPI PUSH0 DUP1 REVERT JUMPDEST CALLVALUE PUSH2 0x27B JUMPI PUSH1 0x40 CALLDATASIZE PUSH1 0x3 NOT ADD SLT PUSH2 0x27B JUMPI PUSH1 0x40 PUSH2 0x244 PUSH2 0x4738 JUMP JUMPDEST SWAP2 PUSH2 0x24D PUSH2 0x4722 JUMP JUMPDEST SWAP3 PUSH1 0x1 DUP1 PUSH1 0xA0 SHL SUB AND DUP2 MSTORE PUSH1 0x1 PUSH1 0x20 MSTORE KECCAK256 SWAP1 PUSH1 0x1 DUP1 PUSH1 0xA0 SHL SUB AND PUSH0 MSTORE PUSH1 0x20 MSTORE PUSH1 0x20 PUSH1 0x40 PUSH0 KECCAK256 SLOAD PUSH1 0x40 MLOAD SWAP1 DUP2 MSTORE RETURN JUMPDEST DUP1 REVERT JUMPDEST POP CALLVALUE PUSH2 0x27B JUMPI PUSH1 0x40 CALLDATASIZE PUSH1 0x3 NOT ADD SLT PUSH2 0x27B JUMPI PUSH2 0x2DB PUSH1 0x20 SWAP2 PUSH2 0x29E PUSH2 0x4738 JUMP JUMPDEST PUSH1 0x40 PUSH1 0x24 CALLDATALOAD SWAP3 CALLER DUP2 MSTORE PUSH1 0x1 DUP7 MSTORE KECCAK256 PUSH1 0x1 DUP1 PUSH1 0xA0 SHL SUB DUP3 AND PUSH0 MSTORE DUP5 MSTORE PUSH2 0x2C9 DUP3 PUSH1 0x40 PUSH0 KECCAK256 SLOAD LT ISZERO PUSH2 0x49BF JUMP JUMPDEST PUSH2 0x2D4 DUP3 DUP3 CALLER PUSH2 0x552E JUMP JUMPDEST POP CALLER PUSH2 0x564E JUMP JUMPDEST PUSH1 0x40 MLOAD SWAP1 ISZERO ISZERO DUP2 MSTORE RETURN JUMPDEST POP CALLVALUE PUSH2 0x27B JUMPI PUSH1 0x20 CALLDATASIZE PUSH1 0x3 NOT ADD SLT PUSH2 0x27B JUMPI PUSH2 0x2FF PUSH2 0x4738 JUMP JUMPDEST DUP2 SLOAD PUSH1 0x1 PUSH1 0x1 PUSH1 0xA0 SHL SUB DUP2 AND SWAP2 PUSH2 0x317 CALLER DUP5 EQ PUSH2 0x4E2F JUMP JUMPDEST PUSH1 0x1 PUSH1 0x1 PUSH1 0xA0 SHL SUB AND SWAP2 DUP3 ISZERO PUSH2 0x35D JUMPI DUP3 SWAP1 PUSH32 0x8BE0079C531659141344CD1FD0A4F28419497F9722A3DAAFE3B4186F6B6457E0 DUP6 DUP1 LOG3 PUSH1 0x1 PUSH1 0x1 PUSH1 0xA0 SHL SUB NOT AND OR DUP2 SSTORE DUP1 RETURN JUMPDEST PUSH1 0x40 MLOAD PUSH3 0x461BCD PUSH1 0xE5 SHL DUP2 MSTORE PUSH1 0x20 PUSH1 0x4 DUP3 ADD MSTORE PUSH1 0x26 PUSH1 0x24 DUP3 ADD MSTORE PUSH32 0x4F776E61626C653A206E6577206F776E657220697320746865207A65726F2061 PUSH1 0x44 DUP3 ADD MSTORE PUSH6 0x646472657373 PUSH1 0xD0 SHL PUSH1 0x64 DUP3 ADD MSTORE PUSH1 0x84 SWAP1 REVERT JUMPDEST POP CALLVALUE PUSH2 0x27B JUMPI PUSH1 0x40 CALLDATASIZE PUSH1 0x3 NOT ADD SLT PUSH2 0x27B JUMPI PUSH1 0x4 CALLDATALOAD PUSH2 0x3CE PUSH2 0x47D0 JUMP JUMPDEST SWAP1 DUP1 DUP4 MSTORE PUSH1 0x4 PUSH1 0x20 MSTORE PUSH1 0x40 DUP4 KECCAK256 SWAP1 PUSH1 0x1 DUP3 ADD SWAP2 PUSH1 0x1 DUP1 PUSH1 0xA0 SHL SUB DUP4 SLOAD AND CALLER EQ DUP1 ISZERO PUSH2 0xB8B JUMPI JUMPDEST DUP1 ISZERO PUSH2 0xB75 JUMPI JUMPDEST PUSH2 0x404 SWAP1 PUSH2 0x4C70 JUMP JUMPDEST PUSH1 0x2 DUP2 ADD SWAP4 DUP5 SLOAD PUSH1 0xFF DUP2 PUSH1 0xB0 SHR AND ISZERO PUSH2 0xB4B JUMPI PUSH1 0xA0 SHR PUSH1 0xFF AND PUSH1 0x3 DUP2 LT ISZERO PUSH2 0xB37 JUMPI PUSH1 0x2 PUSH2 0x432 SWAP2 EQ PUSH2 0x4F9B JUMP JUMPDEST PUSH1 0xB DUP3 ADD SLOAD TIMESTAMP LT PUSH2 0xB0C JUMPI DUP6 PUSH1 0xFF PUSH1 0xC DUP5 ADD SLOAD AND SWAP2 PUSH1 0x5 DUP5 ADD SLOAD PUSH1 0x1 DUP1 PUSH1 0xA0 SHL SUB PUSH1 0x9 DUP7 ADD SLOAD AND SWAP2 PUSH1 0x6 DUP7 ADD SLOAD SWAP2 PUSH1 0x1 DUP1 PUSH1 0xA0 SHL SUB PUSH1 0xA DUP9 ADD SLOAD AND SWAP3 PUSH1 0x7 DUP9 ADD SLOAD SWAP7 PUSH1 0x8 DUP10 ADD SLOAD PUSH20 0x0 SWAP9 PUSH1 0x40 MLOAD SWAP1 PUSH4 0x1C8F0847 PUSH1 0xE0 SHL DUP3 MSTORE DUP6 PUSH1 0x4 DUP4 ADD MSTORE PUSH1 0x24 DUP3 ADD MSTORE PUSH1 0x20 DUP2 PUSH1 0x44 DUP2 DUP14 GAS DELEGATECALL SWAP9 DUP10 ISZERO PUSH2 0xB00 JUMPI SWAP9 PUSH2 0xACB JUMPI JUMPDEST POP PUSH1 0x20 SWAP1 PUSH1 0x44 PUSH1 0x40 MLOAD DUP1 SWAP12 DUP2 SWAP4 PUSH4 0x1C8F0847 PUSH1 0xE0 SHL DUP4 MSTORE DUP8 PUSH1 0x4 DUP5 ADD MSTORE PUSH1 0x24 DUP4 ADD MSTORE GAS DELEGATECALL SWAP8 DUP9 ISZERO PUSH2 0xAC0 JUMPI DUP14 SWAP9 PUSH2 0xA88 JUMPI JUMPDEST POP PUSH1 0x6 DUP2 LT ISZERO PUSH2 0xA74 JUMPI SWAP3 DUP3 DUP3 PUSH1 0x4 DUP16 SWAP7 DUP16 SWAP7 SWAP8 DUP16 DUP16 SWAP1 PUSH0 DUP1 MLOAD PUSH1 0x20 PUSH2 0x57C5 DUP4 CODECOPY DUP2 MLOAD SWAP2 MSTORE SWAP16 SWAP14 SWAP12 SWAP9 SWAP2 PUSH2 0x600 SWAP16 SWAP14 SWAP12 DUP16 DUP16 DUP16 SWAP1 DUP16 SWAP3 DUP16 SWAP8 SWAP5 DUP16 SWAP6 DUP16 SWAP7 DUP8 DUP10 DUP5 DUP16 DUP16 DUP16 DUP16 SWAP1 DUP2 DUP15 DUP14 DUP16 SWAP5 PUSH1 0x1 DUP16 SWAP9 DUP15 SWAP9 DUP9 DUP16 SWAP5 DUP16 DUP16 SWAP1 DUP16 DUP16 SWAP1 DUP16 SWAP2 DUP6 DUP16 SWAP2 SWAP5 DUP6 DUP16 DUP16 SWAP10 DUP16 SWAP9 DUP11 DUP16 DUP11 DUP16 SWAP5 DUP16 DUP8 SWAP1 DUP16 SWAP3 DUP12 SWAP8 DUP16 SWAP5 DUP16 SWAP8 ISZERO PUSH2 0x98C JUMPI JUMPDEST POP POP POP POP POP POP POP POP POP POP POP PUSH1 0x2 DUP14 EQ PUSH2 0x88D JUMPI JUMPDEST POP POP POP POP POP POP POP POP POP POP POP POP EQ PUSH2 0x79F JUMPI JUMPDEST POP POP POP POP POP POP POP POP POP POP POP PUSH1 0x3 DUP14 EQ PUSH2 0x702 JUMPI JUMPDEST POP POP POP POP POP POP POP POP POP POP POP POP EQ PUSH2 0x60E JUMPI JUMPDEST POP POP DUP12 SLOAD PUSH1 0x1 PUSH1 0xA0 SHL PUSH1 0xFF PUSH1 0xA0 SHL NOT DUP3 AND OR SWAP1 SWAP13 SSTORE POP POP SWAP4 SLOAD SWAP8 SLOAD PUSH1 0x40 DUP1 MLOAD PUSH1 0x1 PUSH1 0x1 PUSH1 0xA0 SHL SUB SWAP12 DUP13 AND DUP2 MSTORE CALLER PUSH1 0x20 DUP3 ADD MSTORE SWAP2 DUP12 AND SWAP11 SWAP1 SWAP10 AND SWAP9 SWAP1 SWAP6 DUP7 SWAP6 POP SWAP1 DUP6 ADD SWAP4 POP SWAP2 POP POP JUMP JUMPDEST SUB SWAP1 LOG4 PUSH1 0x20 PUSH1 0x40 MLOAD PUSH1 0x1 DUP2 MSTORE RETURN JUMPDEST DUP6 DUP9 SWAP6 PUSH2 0x65F DUP10 SWAP4 PUSH2 0x63D PUSH2 0x670 SWAP7 PUSH2 0x682 SWAP12 PUSH2 0x636 DUP9 PUSH1 0x1 DUP1 PUSH1 0xA0 SHL SUB PUSH1 0x3 SLOAD AND SWAP4 PUSH2 0x4D88 JUMP JUMPDEST SWAP2 DUP11 PUSH2 0x55D5 JUMP JUMPDEST POP PUSH1 0x3 SLOAD PUSH1 0x1 PUSH1 0x1 PUSH1 0xA0 SHL SUB AND SWAP1 DUP9 SWAP1 PUSH2 0x658 SWAP1 DUP12 SWAP1 PUSH2 0x4D88 JUMP JUMPDEST SWAP2 DUP9 PUSH2 0x55D5 JUMP JUMPDEST POP SLOAD PUSH1 0x1 PUSH1 0x1 PUSH1 0xA0 SHL SUB AND DUP5 PUSH2 0x55D5 JUMP JUMPDEST POP DUP12 SLOAD PUSH1 0x1 PUSH1 0x1 PUSH1 0xA0 SHL SUB AND SWAP1 PUSH2 0x55D5 JUMP JUMPDEST POP DUP3 SLOAD DUP8 SLOAD DUP10 SLOAD PUSH1 0x3 SLOAD PUSH1 0x40 DUP1 MLOAD PUSH1 0x1 PUSH1 0x1 PUSH1 0xA0 SHL SUB SWAP4 DUP5 AND DUP2 MSTORE CALLER PUSH1 0x20 DUP3 ADD MSTORE SWAP2 DUP4 AND SWAP1 DUP3 ADD MSTORE PUSH1 0x60 DUP2 ADD DUP6 SWAP1 MSTORE PUSH1 0x80 DUP2 ADD DUP7 SWAP1 MSTORE PUSH1 0xA0 DUP2 ADD SWAP5 SWAP1 SWAP5 MSTORE PUSH1 0xC0 DUP5 ADD SWAP5 SWAP1 SWAP5 MSTORE DUP4 AND SWAP3 AND SWAP1 DUP7 SWAP1 PUSH32 0x8E100DC3335E09B082C843425F71EA8AE9D91AE5BB385EF4B41D0D2C6AA87214 SWAP1 PUSH1 0xE0 SWAP1 LOG4 DUP7 DUP1 DUP1 DUP9 DUP2 DUP1 DUP1 DUP1 PUSH2 0x5B7 JUMP JUMPDEST PUSH32 0x8E100DC3335E09B082C843425F71EA8AE9D91AE5BB385EF4B41D0D2C6AA87214 SWAP8 PUSH2 0x670 PUSH2 0x73F SWAP5 PUSH1 0xE0 SWAP10 DUP15 PUSH1 0x1 DUP1 PUSH1 0xA0 SHL SUB SWAP1 SLOAD AND DUP5 PUSH2 0x55D5 JUMP JUMPDEST POP PUSH1 0x1 DUP1 PUSH1 0xA0 SHL SUB SWAP1 SLOAD AND SWAP6 PUSH1 0x1 DUP1 PUSH1 0xA0 SHL SUB SWAP1 SLOAD AND SWAP7 PUSH1 0x1 DUP1 PUSH1 0xA0 SHL SUB SWAP1 SLOAD AND SWAP2 PUSH1 0x40 MLOAD SWAP3 DUP1 DUP5 MSTORE CALLER PUSH1 0x20 DUP6 ADD MSTORE PUSH1 0x40 DUP5 ADD MSTORE PUSH1 0x60 DUP4 ADD MSTORE PUSH1 0x80 DUP3 ADD MSTORE DUP7 PUSH1 0xA0 DUP3 ADD MSTORE DUP7 PUSH1 0xC0 DUP3 ADD MSTORE LOG4 DUP16 DUP16 SWAP1 DUP10 SWAP2 DUP9 DUP16 DUP16 DUP16 SWAP1 DUP16 SWAP3 DUP13 DUP16 DUP14 SWAP1 PUSH2 0x5A5 JUMP JUMPDEST PUSH0 DUP1 MLOAD PUSH1 0x20 PUSH2 0x5805 DUP4 CODECOPY DUP2 MLOAD SWAP2 MSTORE SWAP11 PUSH2 0x819 PUSH0 DUP1 MLOAD PUSH1 0x20 PUSH2 0x5785 DUP4 CODECOPY DUP2 MLOAD SWAP2 MSTORE SWAP10 PUSH2 0x7FC DUP10 DUP8 DUP16 SWAP15 PUSH2 0x7EA SWAP1 PUSH2 0x82B SWAP11 PUSH2 0x7E3 DUP6 PUSH1 0x1 DUP1 PUSH1 0xA0 SHL SUB DUP10 SLOAD AND SWAP4 PUSH2 0x4D88 JUMP JUMPDEST SWAP2 DUP10 PUSH2 0x55D5 JUMP JUMPDEST POP DUP11 SLOAD PUSH1 0x1 PUSH1 0x1 PUSH1 0xA0 SHL SUB AND DUP7 PUSH2 0x55D5 JUMP JUMPDEST POP SLOAD PUSH1 0x1 PUSH1 0x1 PUSH1 0xA0 SHL SUB AND DUP4 PUSH2 0x812 DUP7 DUP13 PUSH2 0x4D88 JUMP JUMPDEST SWAP2 DUP5 PUSH2 0x55D5 JUMP JUMPDEST POP DUP6 SLOAD PUSH1 0x1 PUSH1 0x1 PUSH1 0xA0 SHL SUB AND SWAP1 PUSH2 0x55D5 JUMP JUMPDEST POP PUSH1 0x1 DUP1 PUSH1 0xA0 SHL SUB DUP13 SLOAD AND SWAP7 DUP8 SWAP2 PUSH1 0x1 DUP1 PUSH1 0xA0 SHL SUB SWAP1 SLOAD AND SWAP9 DUP10 SWAP4 PUSH1 0x1 DUP1 PUSH1 0xA0 SHL SUB SWAP1 SLOAD AND SWAP5 DUP14 PUSH2 0x863 PUSH1 0x40 MLOAD SWAP3 DUP4 SWAP3 CALLER DUP11 DUP6 PUSH2 0x4D95 JUMP JUMPDEST SUB SWAP1 LOG4 PUSH2 0x878 DUP12 PUSH1 0x40 MLOAD SWAP4 DUP5 SWAP4 CALLER SWAP1 DUP6 PUSH2 0x4D95 JUMP JUMPDEST SUB SWAP1 LOG4 DUP8 DUP10 DUP5 DUP7 DUP6 DUP16 DUP16 SWAP1 DUP13 SWAP2 DUP15 DUP14 DUP11 PUSH2 0x591 JUMP JUMPDEST PUSH32 0xF05D33634B730E763D232B482CF835A4481835F62D0A0973B42018A8EAD4F047 SWAP10 PUSH0 DUP1 MLOAD PUSH1 0x20 PUSH2 0x57A5 DUP4 CODECOPY DUP2 MLOAD SWAP2 MSTORE SWAP9 DUP16 SWAP5 PUSH2 0x8FD DUP15 DUP6 PUSH2 0x8EB DUP16 SWAP10 PUSH2 0x92A SWAP9 PUSH2 0x8E4 DUP16 SWAP3 DUP15 DUP2 DUP9 SWAP3 PUSH1 0xA0 SHL SUB SWAP1 SLOAD AND SWAP4 PUSH2 0x4D88 JUMP JUMPDEST SWAP2 DUP8 PUSH2 0x55D5 JUMP JUMPDEST POP DUP11 SLOAD PUSH1 0x1 PUSH1 0x1 PUSH1 0xA0 SHL SUB AND DUP5 PUSH2 0x55D5 JUMP JUMPDEST POP DUP7 SLOAD PUSH2 0x918 SWAP1 PUSH1 0x1 PUSH1 0x1 PUSH1 0xA0 SHL SUB AND DUP4 PUSH2 0x812 DUP7 DUP15 PUSH2 0x4D88 JUMP JUMPDEST POP DUP8 SLOAD PUSH1 0x1 PUSH1 0x1 PUSH1 0xA0 SHL SUB AND SWAP1 PUSH2 0x55D5 JUMP JUMPDEST POP DUP13 DUP1 PUSH1 0xA0 SHL SUB SWAP1 SLOAD AND SWAP8 DUP9 SWAP3 DUP14 DUP1 PUSH1 0xA0 SHL SUB SWAP1 SLOAD AND SWAP10 DUP11 SWAP5 DUP15 DUP1 PUSH1 0xA0 SHL SUB SWAP1 SLOAD AND SWAP6 PUSH2 0x95E PUSH1 0x40 MLOAD SWAP3 DUP4 SWAP3 CALLER DUP11 DUP6 PUSH2 0x4D95 JUMP JUMPDEST SUB SWAP1 LOG4 PUSH2 0x973 DUP12 PUSH1 0x40 MLOAD SWAP4 DUP5 SWAP4 CALLER SWAP1 DUP6 PUSH2 0x4D95 JUMP JUMPDEST SUB SWAP1 LOG4 DUP9 DUP6 DUP16 DUP16 SWAP1 DUP16 DUP16 SWAP1 DUP16 SWAP2 DUP14 DUP16 SWAP2 SWAP5 DUP13 SWAP6 DUP16 PUSH2 0x57F JUMP JUMPDEST PUSH1 0x1 SWAP10 PUSH0 DUP1 MLOAD PUSH1 0x20 PUSH2 0x57A5 DUP4 CODECOPY DUP2 MLOAD SWAP2 MSTORE SWAP9 PUSH2 0xA06 PUSH2 0xA17 SWAP6 PUSH2 0x9E9 DUP16 PUSH0 DUP1 MLOAD PUSH1 0x20 PUSH2 0x5805 DUP4 CODECOPY DUP2 MLOAD SWAP2 MSTORE SWAP16 SWAP11 PUSH2 0x9D7 DUP14 DUP3 PUSH2 0x636 PUSH2 0xA5F SWAP16 DUP16 SWAP14 DUP2 DUP9 SWAP3 PUSH1 0xA0 SHL SUB SWAP1 SLOAD AND SWAP4 PUSH2 0x4D88 JUMP JUMPDEST POP DUP6 SLOAD PUSH1 0x1 PUSH1 0x1 PUSH1 0xA0 SHL SUB AND DUP8 PUSH2 0x55D5 JUMP JUMPDEST POP SLOAD PUSH1 0x1 PUSH1 0x1 PUSH1 0xA0 SHL SUB AND DUP5 PUSH2 0x9FF DUP8 DUP14 PUSH2 0x4D88 JUMP JUMPDEST SWAP2 DUP6 PUSH2 0x55D5 JUMP JUMPDEST POP SLOAD PUSH1 0x1 PUSH1 0x1 PUSH1 0xA0 SHL SUB AND SWAP1 PUSH2 0x55D5 JUMP JUMPDEST POP DUP10 SLOAD DUP13 SLOAD DUP15 SLOAD PUSH1 0x40 MLOAD PUSH1 0x1 PUSH1 0x1 PUSH1 0xA0 SHL SUB SWAP3 DUP4 AND SWAP12 SWAP4 DUP4 AND SWAP11 SWAP2 SWAP1 SWAP3 AND SWAP6 DUP12 SWAP4 DUP12 SWAP4 DUP12 SWAP4 SWAP3 SWAP1 SWAP2 DUP3 SWAP2 PUSH2 0xA4E SWAP2 SWAP1 CALLER DUP13 DUP6 PUSH2 0x4D95 JUMP JUMPDEST SUB SWAP1 LOG4 PUSH1 0x40 MLOAD SWAP4 DUP5 SWAP4 CALLER SWAP1 DUP6 PUSH2 0x4D95 JUMP JUMPDEST SUB SWAP1 LOG4 DUP11 DUP4 DUP11 DUP8 DUP11 DUP11 DUP16 DUP8 SWAP1 DUP16 DUP11 DUP14 SWAP2 PUSH2 0x56B JUMP JUMPDEST PUSH4 0x4E487B71 PUSH1 0xE0 SHL DUP14 MSTORE PUSH1 0x21 PUSH1 0x4 MSTORE PUSH1 0x24 DUP14 REVERT JUMPDEST SWAP1 SWAP8 POP PUSH1 0x20 DUP2 RETURNDATASIZE PUSH1 0x20 GT PUSH2 0xAB8 JUMPI JUMPDEST DUP2 PUSH2 0xAA4 PUSH1 0x20 SWAP4 DUP4 PUSH2 0x4A59 JUMP JUMPDEST DUP2 ADD SUB SLT PUSH2 0xAB4 JUMPI MLOAD SWAP7 PUSH0 PUSH2 0x4F0 JUMP JUMPDEST PUSH0 DUP1 REVERT JUMPDEST RETURNDATASIZE SWAP2 POP PUSH2 0xA97 JUMP JUMPDEST PUSH1 0x40 MLOAD RETURNDATASIZE DUP16 DUP3 RETURNDATACOPY RETURNDATASIZE SWAP1 REVERT JUMPDEST SWAP1 SWAP8 POP PUSH1 0x20 DUP2 RETURNDATASIZE PUSH1 0x20 GT PUSH2 0xAF8 JUMPI JUMPDEST DUP2 PUSH2 0xAE7 PUSH1 0x20 SWAP4 DUP4 PUSH2 0x4A59 JUMP JUMPDEST DUP2 ADD SUB SLT PUSH2 0xAB4 JUMPI MLOAD SWAP7 PUSH1 0x20 PUSH2 0x4BE JUMP JUMPDEST RETURNDATASIZE SWAP2 POP PUSH2 0xADA JUMP JUMPDEST PUSH1 0x40 MLOAD SWAP1 RETURNDATASIZE SWAP1 DUP3 RETURNDATACOPY RETURNDATASIZE SWAP1 REVERT JUMPDEST PUSH1 0x64 PUSH1 0x40 MLOAD PUSH3 0x461BCD PUSH1 0xE5 SHL DUP2 MSTORE PUSH1 0x20 PUSH1 0x4 DUP3 ADD MSTORE PUSH1 0x4 PUSH1 0x24 DUP3 ADD MSTORE PUSH4 0x22189719 PUSH1 0xE1 SHL PUSH1 0x44 DUP3 ADD MSTORE REVERT JUMPDEST PUSH4 0x4E487B71 PUSH1 0xE0 SHL DUP8 MSTORE PUSH1 0x21 PUSH1 0x4 MSTORE PUSH1 0x24 DUP8 REVERT JUMPDEST PUSH1 0x40 MLOAD PUSH3 0x461BCD PUSH1 0xE5 SHL DUP2 MSTORE PUSH1 0x20 PUSH1 0x4 DUP3 ADD MSTORE PUSH1 0x2 PUSH1 0x24 DUP3 ADD MSTORE PUSH2 0x2219 PUSH1 0xF1 SHL PUSH1 0x44 DUP3 ADD MSTORE PUSH1 0x64 SWAP1 REVERT JUMPDEST POP PUSH1 0x2 DUP2 ADD SLOAD PUSH1 0x1 PUSH1 0x1 PUSH1 0xA0 SHL SUB AND CALLER EQ PUSH2 0x3FB JUMP JUMPDEST POP DUP1 SLOAD PUSH1 0x1 PUSH1 0x1 PUSH1 0xA0 SHL SUB AND CALLER EQ PUSH2 0x3F4 JUMP JUMPDEST POP CALLVALUE PUSH2 0x27B JUMPI PUSH1 0x20 CALLDATASIZE PUSH1 0x3 NOT ADD SLT PUSH2 0x27B JUMPI PUSH1 0x40 DUP2 PUSH1 0xE0 SWAP3 PUSH1 0xC0 DUP4 MLOAD PUSH2 0xBC3 DUP2 PUSH2 0x49F0 JUMP JUMPDEST DUP3 DUP2 MSTORE DUP3 PUSH1 0x20 DUP3 ADD MSTORE DUP3 DUP6 DUP3 ADD MSTORE DUP3 PUSH1 0x60 DUP3 ADD MSTORE DUP3 PUSH1 0x80 DUP3 ADD MSTORE DUP3 PUSH1 0xA0 DUP3 ADD MSTORE ADD MSTORE PUSH1 0x4 CALLDATALOAD DUP2 MSTORE PUSH1 0x9 PUSH1 0x20 MSTORE KECCAK256 PUSH1 0x40 MLOAD SWAP1 PUSH2 0xBFD DUP3 PUSH2 0x49F0 JUMP JUMPDEST DUP1 SLOAD DUP3 MSTORE PUSH1 0x2 PUSH1 0x1 DUP3 ADD SLOAD SWAP2 PUSH1 0x20 DUP5 ADD SWAP3 DUP4 MSTORE ADD SLOAD SWAP1 PUSH1 0x40 DUP4 ADD PUSH2 0xC24 PUSH1 0xFF DUP5 AND DUP3 PUSH2 0x4E23 JUMP JUMPDEST PUSH1 0x60 DUP5 ADD PUSH1 0xFF DUP5 PUSH1 0x8 SHR AND ISZERO ISZERO DUP2 MSTORE PUSH2 0xC7D PUSH1 0x80 DUP7 ADD SWAP3 PUSH1 0xFF DUP7 PUSH1 0x10 SHR AND ISZERO ISZERO DUP5 MSTORE PUSH1 0xA0 DUP8 ADD SWAP5 PUSH1 0xFF DUP8 PUSH1 0x18 SHR AND ISZERO ISZERO DUP7 MSTORE PUSH1 0xFF PUSH1 0xC0 DUP10 ADD SWAP8 PUSH1 0x20 SHR AND ISZERO ISZERO DUP8 MSTORE PUSH1 0x40 MLOAD SWAP8 MLOAD DUP9 MSTORE MLOAD PUSH1 0x20 DUP9 ADD MSTORE MLOAD PUSH1 0x40 DUP8 ADD SWAP1 PUSH2 0x48A0 JUMP JUMPDEST MLOAD ISZERO ISZERO PUSH1 0x60 DUP6 ADD MSTORE MLOAD ISZERO ISZERO PUSH1 0x80 DUP5 ADD MSTORE MLOAD ISZERO ISZERO PUSH1 0xA0 DUP4 ADD MSTORE MLOAD ISZERO ISZERO PUSH1 0xC0 DUP3 ADD MSTORE RETURN JUMPDEST POP CALLVALUE PUSH2 0x27B JUMPI DUP1 PUSH1 0x3 NOT CALLDATASIZE ADD SLT PUSH2 0x27B JUMPI PUSH1 0x20 PUSH1 0x6 SLOAD PUSH1 0x40 MLOAD SWAP1 DUP2 MSTORE RETURN JUMPDEST POP CALLVALUE PUSH2 0x27B JUMPI PUSH1 0x40 CALLDATASIZE PUSH1 0x3 NOT ADD SLT PUSH2 0x27B JUMPI PUSH1 0x4 CALLDATALOAD PUSH2 0xCDA PUSH2 0x47D0 JUMP JUMPDEST DUP2 DUP4 MSTORE PUSH1 0x4 PUSH1 0x20 MSTORE PUSH1 0x40 DUP4 KECCAK256 SWAP1 PUSH1 0x1 DUP3 ADD SWAP1 PUSH1 0x1 DUP1 PUSH1 0xA0 SHL SUB DUP3 SLOAD AND CALLER EQ DUP1 ISZERO PUSH2 0xFF0 JUMPI JUMPDEST PUSH2 0xD08 SWAP1 PUSH2 0x4C70 JUMP JUMPDEST DUP5 PUSH20 0x0 DUP1 EXTCODESIZE ISZERO PUSH2 0xFEC JUMPI DUP2 PUSH1 0x40 MLOAD DUP1 SWAP3 PUSH4 0x252A867 PUSH1 0xE5 SHL DUP3 MSTORE DUP2 DUP1 PUSH2 0xD44 DUP11 PUSH1 0x4 DUP4 ADD PUSH2 0x4CA1 JUMP JUMPDEST SUB SWAP2 GAS DELEGATECALL DUP1 ISZERO PUSH2 0xFE1 JUMPI PUSH2 0xFC8 JUMPI JUMPDEST POP POP PUSH1 0x5 DUP4 ADD SLOAD PUSH1 0x9 DUP5 ADD SLOAD PUSH1 0x6 DUP6 ADD SLOAD PUSH1 0xA DUP7 ADD SLOAD PUSH1 0x7 DUP8 ADD SLOAD PUSH1 0x8 DUP9 ADD SLOAD PUSH1 0x40 MLOAD PUSH4 0x1C8F0847 PUSH1 0xE0 SHL DUP2 MSTORE PUSH1 0x4 DUP2 ADD DUP8 SWAP1 MSTORE PUSH1 0x24 DUP2 ADD SWAP3 SWAP1 SWAP3 MSTORE PUSH1 0x1 PUSH1 0x1 PUSH1 0xA0 SHL SUB SWAP5 DUP6 AND SWAP9 SWAP6 SWAP8 SWAP2 SWAP7 SWAP2 SWAP6 SWAP4 SWAP5 PUSH20 0x0 SWAP5 SWAP4 AND SWAP1 PUSH1 0x20 DUP9 PUSH1 0x44 DUP2 DUP9 GAS DELEGATECALL SWAP8 DUP9 ISZERO PUSH2 0xFBD JUMPI DUP13 SWAP9 PUSH2 0xF88 JUMPI JUMPDEST POP PUSH1 0x20 SWAP1 PUSH1 0x44 PUSH1 0x40 MLOAD DUP1 SWAP8 DUP2 SWAP4 PUSH4 0x1C8F0847 PUSH1 0xE0 SHL DUP4 MSTORE DUP11 PUSH1 0x4 DUP5 ADD MSTORE PUSH1 0x24 DUP4 ADD MSTORE GAS DELEGATECALL SWAP4 DUP5 ISZERO PUSH2 0xF7D JUMPI DUP11 SWAP12 SWAP11 SWAP10 SWAP11 SWAP5 PUSH2 0xF3D JUMPI JUMPDEST POP DUP3 SLOAD DUP10 SWAP6 SWAP5 SWAP4 SWAP3 SWAP2 DUP5 SWAP2 PUSH1 0x1 PUSH1 0x1 PUSH1 0xA0 SHL SUB AND DUP13 PUSH2 0xE28 DUP12 DUP14 PUSH2 0x4D88 JUMP JUMPDEST SWAP1 PUSH2 0xE33 SWAP3 DUP7 PUSH2 0x55D5 JUMP JUMPDEST POP PUSH1 0x2 DUP5 ADD DUP1 SLOAD SWAP1 SWAP13 PUSH2 0xE52 SWAP2 DUP12 SWAP2 SWAP1 PUSH1 0x1 PUSH1 0x1 PUSH1 0xA0 SHL SUB AND DUP7 PUSH2 0x55D5 JUMP JUMPDEST POP DUP8 SLOAD PUSH1 0x1 PUSH1 0x1 PUSH1 0xA0 SHL SUB AND DUP2 PUSH2 0xE69 DUP9 DUP1 PUSH2 0x4D88 JUMP JUMPDEST SWAP1 PUSH2 0xE74 SWAP3 DUP7 PUSH2 0x55D5 JUMP JUMPDEST POP DUP12 SLOAD PUSH2 0xE8C SWAP4 PUSH1 0x1 PUSH1 0x1 PUSH1 0xA0 SHL SUB SWAP1 SWAP2 AND SWAP1 PUSH2 0x55D5 JUMP JUMPDEST POP DUP9 SLOAD PUSH1 0xFF PUSH1 0xA0 SHL NOT DUP2 AND PUSH1 0x1 PUSH1 0xA0 SHL OR SWAP1 SWAP10 SSTORE SLOAD SWAP4 SLOAD PUSH1 0x40 MLOAD PUSH1 0x1 PUSH1 0x1 PUSH1 0xA0 SHL SUB SWAP2 DUP3 AND SWAP11 SWAP6 DUP3 AND SWAP10 SWAP2 SWAP1 SWAP2 AND SWAP7 DUP11 SWAP7 DUP11 SWAP7 DUP9 SWAP4 DUP9 SWAP4 SWAP2 SWAP3 SWAP1 SWAP2 DUP3 SWAP2 PUSH2 0xED5 SWAP2 CALLER DUP15 DUP6 PUSH2 0x4D95 JUMP JUMPDEST SUB PUSH0 DUP1 MLOAD PUSH1 0x20 PUSH2 0x5805 DUP4 CODECOPY DUP2 MLOAD SWAP2 MSTORE SWAP2 LOG4 PUSH1 0x40 MLOAD SWAP2 DUP3 SWAP2 PUSH2 0xEF8 SWAP2 CALLER DUP10 DUP6 PUSH2 0x4D95 JUMP JUMPDEST SUB PUSH0 DUP1 MLOAD PUSH1 0x20 PUSH2 0x57A5 DUP4 CODECOPY DUP2 MLOAD SWAP2 MSTORE SWAP2 LOG4 PUSH1 0x40 DUP1 MLOAD PUSH1 0x1 PUSH1 0x1 PUSH1 0xA0 SHL SUB SWAP3 SWAP1 SWAP3 AND DUP3 MSTORE CALLER PUSH1 0x20 DUP4 ADD MSTORE PUSH0 DUP1 MLOAD PUSH1 0x20 PUSH2 0x57C5 DUP4 CODECOPY DUP2 MLOAD SWAP2 MSTORE SWAP2 LOG4 PUSH1 0x40 MLOAD PUSH1 0x1 DUP2 MSTORE PUSH1 0x20 SWAP1 RETURN JUMPDEST SWAP5 SWAP4 POP SWAP2 SWAP1 SWAP8 POP PUSH1 0x20 DUP5 RETURNDATASIZE PUSH1 0x20 GT PUSH2 0xF75 JUMPI JUMPDEST DUP2 PUSH2 0xF5D PUSH1 0x20 SWAP4 DUP4 PUSH2 0x4A59 JUMP JUMPDEST DUP2 ADD SUB SLT PUSH2 0xAB4 JUMPI DUP10 SWAP8 DUP9 SWAP5 MLOAD SWAP4 SWAP5 SWAP3 SWAP1 SWAP2 SWAP3 PUSH2 0xE09 JUMP JUMPDEST RETURNDATASIZE SWAP2 POP PUSH2 0xF50 JUMP JUMPDEST PUSH1 0x40 MLOAD RETURNDATASIZE DUP14 DUP3 RETURNDATACOPY RETURNDATASIZE SWAP1 REVERT JUMPDEST SWAP1 SWAP8 POP PUSH1 0x20 DUP2 RETURNDATASIZE PUSH1 0x20 GT PUSH2 0xFB5 JUMPI JUMPDEST DUP2 PUSH2 0xFA4 PUSH1 0x20 SWAP4 DUP4 PUSH2 0x4A59 JUMP JUMPDEST DUP2 ADD SUB SLT PUSH2 0xAB4 JUMPI MLOAD SWAP7 PUSH1 0x20 PUSH2 0xDD3 JUMP JUMPDEST RETURNDATASIZE SWAP2 POP PUSH2 0xF97 JUMP JUMPDEST PUSH1 0x40 MLOAD RETURNDATASIZE DUP15 DUP3 RETURNDATACOPY RETURNDATASIZE SWAP1 REVERT JUMPDEST DUP2 PUSH2 0xFD2 SWAP2 PUSH2 0x4A59 JUMP JUMPDEST PUSH2 0xFDD JUMPI DUP5 PUSH0 PUSH2 0xD53 JUMP JUMPDEST DUP5 DUP1 REVERT JUMPDEST PUSH1 0x40 MLOAD RETURNDATASIZE DUP5 DUP3 RETURNDATACOPY RETURNDATASIZE SWAP1 REVERT JUMPDEST POP DUP1 REVERT JUMPDEST POP PUSH1 0x2 DUP4 ADD SLOAD PUSH1 0x1 PUSH1 0x1 PUSH1 0xA0 SHL SUB AND CALLER EQ PUSH2 0xCFF JUMP JUMPDEST POP PUSH2 0x1010 CALLDATASIZE PUSH2 0x474E JUMP JUMPDEST SWAP2 SWAP1 SWAP5 SWAP3 DUP9 SWAP5 DUP11 SWAP9 SWAP8 SWAP11 SWAP5 DUP13 PUSH1 0x40 PUSH1 0xFF DUP3 SLOAD PUSH1 0xA0 SHR AND SWAP2 PUSH2 0x1030 DUP4 PUSH2 0x498E JUMP JUMPDEST CALLER DUP2 MSTORE PUSH1 0x1 PUSH1 0x20 MSTORE KECCAK256 PUSH1 0x1 DUP1 PUSH1 0xA0 SHL SUB DUP6 AND PUSH0 MSTORE PUSH1 0x20 MSTORE PUSH1 0x40 PUSH0 KECCAK256 SLOAD DUP11 DUP2 LT PUSH2 0x1338 JUMPI JUMPDEST POP POP SWAP2 PUSH2 0x10A1 SWAP5 SWAP4 SWAP2 PUSH2 0x200 SWAP9 SWAP4 PUSH2 0x106D DUP12 DUP5 CALLER PUSH2 0x552E JUMP JUMPDEST POP PUSH1 0x40 MLOAD PUSH4 0x652E83D7 PUSH1 0xE0 SHL DUP2 MSTORE PUSH20 0x0 SWAP15 SWAP1 SWAP12 DUP13 SWAP11 DUP12 SWAP11 CALLER PUSH1 0x4 DUP14 ADD PUSH2 0x4BA6 JUMP JUMPDEST SUB DUP2 DUP8 GAS DELEGATECALL SWAP1 DUP2 ISZERO PUSH2 0x12FE JUMPI DUP6 SWAP2 PUSH2 0x1309 JUMPI JUMPDEST POP PUSH1 0x20 PUSH1 0x5 SLOAD PUSH2 0x224 PUSH1 0x40 MLOAD DUP1 SWAP8 DUP2 SWAP4 PUSH4 0x797D4EE1 PUSH1 0xE0 SHL DUP4 MSTORE PUSH2 0x10DB PUSH1 0x4 DUP5 ADD DUP9 PUSH2 0x48AD JUMP JUMPDEST PUSH2 0x204 DUP4 ADD MSTORE GAS DELEGATECALL SWAP4 DUP5 ISZERO PUSH2 0x12FE JUMPI DUP6 SWAP5 PUSH2 0x12CA JUMPI JUMPDEST POP PUSH2 0x10FD PUSH1 0x5 SLOAD PUSH2 0x4C12 JUMP JUMPDEST PUSH1 0x5 SSTORE DUP4 DUP6 MSTORE PUSH1 0x4 PUSH1 0x20 SWAP1 DUP2 MSTORE PUSH1 0x40 DUP1 DUP8 KECCAK256 DUP4 MLOAD DUP2 SLOAD PUSH1 0x1 PUSH1 0x1 PUSH1 0xA0 SHL SUB NOT SWAP1 DUP2 AND PUSH1 0x1 PUSH1 0x1 PUSH1 0xA0 SHL SUB SWAP3 DUP4 AND OR DUP4 SSTORE SWAP4 DUP6 ADD MLOAD PUSH1 0x1 DUP4 ADD DUP1 SLOAD DUP7 AND SWAP2 DUP4 AND SWAP2 SWAP1 SWAP2 OR SWAP1 SSTORE SWAP2 DUP5 ADD MLOAD PUSH1 0x2 DUP3 ADD DUP1 SLOAD SWAP1 SWAP5 AND SWAP3 AND SWAP2 SWAP1 SWAP2 OR DUP3 SSTORE PUSH1 0x60 DUP4 ADD MLOAD SWAP1 SWAP3 SWAP2 SWAP1 PUSH1 0x3 DUP2 LT ISZERO PUSH2 0x12B6 JUMPI DUP2 PUSH2 0x117B PUSH2 0x11B7 SWAP3 PUSH2 0x1E0 SWAP6 SWAP5 PUSH2 0x4C34 JUMP JUMPDEST PUSH1 0x80 DUP4 ADD MLOAD DUP2 SLOAD PUSH1 0xFF PUSH1 0xA8 SHL NOT AND SWAP1 ISZERO ISZERO PUSH1 0xA8 SHL PUSH1 0xFF PUSH1 0xA8 SHL AND OR DUP2 SSTORE PUSH1 0xA0 DUP4 ADD MLOAD DUP2 SLOAD PUSH1 0xFF PUSH1 0xB0 SHL NOT AND SWAP1 ISZERO ISZERO PUSH1 0xB0 SHL PUSH1 0xFF PUSH1 0xB0 SHL AND OR SWAP1 SSTORE JUMP JUMPDEST PUSH1 0xC0 DUP2 ADD MLOAD PUSH1 0x3 DUP5 ADD SSTORE PUSH1 0xE0 DUP2 ADD MLOAD PUSH1 0x4 DUP5 ADD SSTORE PUSH2 0x100 DUP2 ADD MLOAD PUSH1 0x5 DUP5 ADD SSTORE PUSH2 0x120 DUP2 ADD MLOAD PUSH1 0x6 DUP1 DUP6 ADD SWAP2 SWAP1 SWAP2 SSTORE PUSH2 0x140 DUP3 ADD MLOAD PUSH1 0x7 DUP6 ADD SSTORE PUSH2 0x160 DUP3 ADD MLOAD PUSH1 0x8 DUP6 ADD SSTORE PUSH2 0x180 DUP3 ADD MLOAD PUSH1 0x9 DUP6 ADD DUP1 SLOAD PUSH1 0x1 PUSH1 0x1 PUSH1 0xA0 SHL SUB SWAP3 DUP4 AND PUSH1 0x1 PUSH1 0x1 PUSH1 0xA0 SHL SUB NOT SWAP2 DUP3 AND OR SWAP1 SWAP2 SSTORE PUSH2 0x1A0 DUP5 ADD MLOAD PUSH1 0xA DUP8 ADD DUP1 SLOAD SWAP2 SWAP1 SWAP4 AND SWAP2 AND OR SWAP1 SSTORE PUSH2 0x1C0 DUP3 ADD MLOAD PUSH1 0xB DUP6 ADD SSTORE SWAP2 ADD MLOAD SWAP6 SWAP1 DUP7 LT ISZERO PUSH2 0x12A2 JUMPI POP PUSH1 0x20 SWAP5 PUSH1 0xC PUSH2 0x125E SWAP3 ADD PUSH2 0x4C58 JUMP JUMPDEST PUSH1 0x40 MLOAD PUSH1 0x1 PUSH1 0x1 PUSH1 0xA0 SHL SUB SWAP3 DUP4 AND DUP2 MSTORE SWAP2 AND SWAP1 CALLER SWAP1 DUP4 SWAP1 PUSH32 0x44E1FF8E67FAD6B456BD43FF165BA4E9BB004370AA27A76881C6ACB60DFD6DD9 SWAP1 DUP7 SWAP1 LOG4 PUSH1 0x40 MLOAD SWAP1 DUP2 MSTORE RETURN JUMPDEST PUSH4 0x4E487B71 PUSH1 0xE0 SHL DUP2 MSTORE PUSH1 0x21 PUSH1 0x4 MSTORE PUSH1 0x24 SWAP1 REVERT JUMPDEST PUSH4 0x4E487B71 PUSH1 0xE0 SHL DUP9 MSTORE PUSH1 0x21 PUSH1 0x4 MSTORE PUSH1 0x24 DUP9 REVERT JUMPDEST SWAP1 SWAP4 POP PUSH1 0x20 DUP2 RETURNDATASIZE PUSH1 0x20 GT PUSH2 0x12F6 JUMPI JUMPDEST DUP2 PUSH2 0x12E6 PUSH1 0x20 SWAP4 DUP4 PUSH2 0x4A59 JUMP JUMPDEST DUP2 ADD SUB SLT PUSH2 0xAB4 JUMPI MLOAD SWAP3 PUSH0 PUSH2 0x10F1 JUMP JUMPDEST RETURNDATASIZE SWAP2 POP PUSH2 0x12D9 JUMP JUMPDEST PUSH1 0x40 MLOAD RETURNDATASIZE DUP8 DUP3 RETURNDATACOPY RETURNDATASIZE SWAP1 REVERT JUMPDEST PUSH2 0x132B SWAP2 POP PUSH2 0x200 RETURNDATASIZE DUP2 GT PUSH2 0x1331 JUMPI JUMPDEST PUSH2 0x1323 DUP2 DUP4 PUSH2 0x4A59 JUMP JUMPDEST DUP2 ADD SWAP1 PUSH2 0x4A9C JUMP JUMPDEST PUSH0 PUSH2 0x10B4 JUMP JUMPDEST POP RETURNDATASIZE PUSH2 0x1319 JUMP JUMPDEST PUSH2 0x1355 SWAP3 SWAP10 SWAP5 SWAP7 SWAP6 SWAP4 SWAP9 POP PUSH2 0x134F SWAP2 SWAP8 POP DUP11 PUSH2 0x4D88 JUMP JUMPDEST SWAP6 PUSH2 0x498E JUMP JUMPDEST PUSH2 0x1360 DUP6 ISZERO ISZERO PUSH2 0x4E91 JUMP JUMPDEST PUSH1 0x2 SLOAD SWAP4 PUSH1 0x40 MLOAD SWAP5 PUSH4 0x1C8F0847 PUSH1 0xE0 SHL DUP7 MSTORE DUP7 PUSH1 0x4 DUP8 ADD MSTORE PUSH1 0x24 DUP7 ADD MSTORE PUSH1 0x20 DUP6 PUSH1 0x44 DUP2 PUSH20 0x0 GAS DELEGATECALL SWAP5 DUP6 ISZERO PUSH2 0xAC0 JUMPI DUP14 SWAP6 PUSH2 0x1539 JUMPI JUMPDEST POP PUSH1 0x1 PUSH1 0x1 PUSH1 0xA0 SHL SUB DUP2 AND SWAP7 DUP8 PUSH2 0x1451 JUMPI PUSH2 0x13C3 DUP7 DUP9 PUSH2 0x4F2A JUMP JUMPDEST CALLVALUE SUB PUSH2 0x1427 JUMPI PUSH2 0x200 SWAP9 DUP13 SWAP9 DUP9 PUSH2 0x10A1 SWAP9 PUSH2 0x13E0 DUP16 SWAP12 DUP8 CALLER PUSH2 0x55F3 JUMP JUMPDEST POP PUSH1 0x3 SLOAD PUSH2 0x13FA SWAP1 DUP3 SWAP1 DUP9 SWAP1 PUSH1 0x1 PUSH1 0x1 PUSH1 0xA0 SHL SUB AND PUSH2 0x55F3 JUMP JUMPDEST POP JUMPDEST PUSH1 0x40 MLOAD SWAP2 DUP3 MSTORE PUSH1 0x20 DUP3 ADD MSTORE PUSH0 DUP1 MLOAD PUSH1 0x20 PUSH2 0x5825 DUP4 CODECOPY DUP2 MLOAD SWAP2 MSTORE PUSH1 0x40 CALLER SWAP3 LOG3 SWAP2 SWAP4 SWAP9 DUP2 SWAP4 SWAP6 SWAP7 POP PUSH2 0x1054 JUMP JUMPDEST PUSH1 0x40 MLOAD PUSH3 0x461BCD PUSH1 0xE5 SHL DUP2 MSTORE PUSH1 0x20 PUSH1 0x4 DUP3 ADD MSTORE PUSH1 0x2 PUSH1 0x24 DUP3 ADD MSTORE PUSH2 0x10CD PUSH1 0xF2 SHL PUSH1 0x44 DUP3 ADD MSTORE PUSH1 0x64 SWAP1 REVERT JUMPDEST DUP14 DUP1 PUSH1 0x20 DUP11 PUSH1 0x64 PUSH2 0x1462 DUP12 DUP14 PUSH2 0x4F2A JUMP JUMPDEST PUSH1 0x40 MLOAD SWAP5 DUP6 SWAP4 DUP5 SWAP3 PUSH4 0x23B872DD PUSH1 0xE0 SHL DUP5 MSTORE CALLER PUSH1 0x4 DUP6 ADD MSTORE ADDRESS PUSH1 0x24 DUP6 ADD MSTORE PUSH1 0x44 DUP5 ADD MSTORE GAS CALL SWAP2 DUP3 ISZERO PUSH2 0xB00 JUMPI SWAP2 PUSH2 0x14FB JUMPI JUMPDEST POP ISZERO PUSH2 0x14D1 JUMPI PUSH2 0x200 SWAP9 DUP13 SWAP9 DUP9 PUSH2 0x10A1 SWAP9 PUSH2 0x14B1 DUP16 SWAP12 DUP8 CALLER PUSH2 0x55F3 JUMP JUMPDEST POP PUSH1 0x3 SLOAD PUSH2 0x14CB SWAP1 DUP3 SWAP1 DUP9 SWAP1 PUSH1 0x1 PUSH1 0x1 PUSH1 0xA0 SHL SUB AND PUSH2 0x55F3 JUMP JUMPDEST POP PUSH2 0x13FC JUMP JUMPDEST PUSH1 0x40 MLOAD PUSH3 0x461BCD PUSH1 0xE5 SHL DUP2 MSTORE PUSH1 0x20 PUSH1 0x4 DUP3 ADD MSTORE PUSH1 0x2 PUSH1 0x24 DUP3 ADD MSTORE PUSH2 0x2A19 PUSH1 0xF1 SHL PUSH1 0x44 DUP3 ADD MSTORE PUSH1 0x64 SWAP1 REVERT JUMPDEST SWAP1 POP PUSH1 0x20 DUP2 RETURNDATASIZE PUSH1 0x20 GT PUSH2 0x1531 JUMPI JUMPDEST DUP2 PUSH2 0x1516 PUSH1 0x20 SWAP4 DUP4 PUSH2 0x4A59 JUMP JUMPDEST DUP2 ADD SUB SLT PUSH2 0x152D JUMPI PUSH2 0x1527 SWAP1 PUSH2 0x4A8F JUMP JUMPDEST PUSH0 PUSH2 0x1494 JUMP JUMPDEST DUP15 DUP1 REVERT JUMPDEST RETURNDATASIZE SWAP2 POP PUSH2 0x1509 JUMP JUMPDEST SWAP1 SWAP5 POP PUSH1 0x20 DUP2 RETURNDATASIZE PUSH1 0x20 GT PUSH2 0x1565 JUMPI JUMPDEST DUP2 PUSH2 0x1555 PUSH1 0x20 SWAP4 DUP4 PUSH2 0x4A59 JUMP JUMPDEST DUP2 ADD SUB SLT PUSH2 0xAB4 JUMPI MLOAD SWAP4 PUSH0 PUSH2 0x13A8 JUMP JUMPDEST RETURNDATASIZE SWAP2 POP PUSH2 0x1548 JUMP JUMPDEST POP CALLVALUE PUSH2 0x27B JUMPI PUSH1 0x40 CALLDATASIZE PUSH1 0x3 NOT ADD SLT PUSH2 0x27B JUMPI PUSH1 0x20 SWAP1 PUSH1 0x4 CALLDATALOAD PUSH2 0x158D PUSH2 0x4722 JUMP JUMPDEST SWAP1 DUP1 DUP4 MSTORE PUSH1 0x4 DUP5 MSTORE PUSH2 0x15E1 PUSH1 0x40 DUP5 KECCAK256 SWAP3 PUSH1 0x1 DUP1 PUSH1 0xA0 SHL SUB DUP5 SLOAD AND CALLER EQ DUP1 ISZERO PUSH2 0x16BF JUMPI JUMPDEST PUSH2 0x15B9 SWAP1 PUSH2 0x4C70 JUMP JUMPDEST PUSH1 0x1 PUSH1 0x1 PUSH1 0xA0 SHL SUB AND SWAP3 PUSH2 0x15CE DUP5 ISZERO ISZERO PUSH2 0x4E60 JUMP JUMPDEST PUSH1 0x2 ADD SLOAD PUSH1 0x1 PUSH1 0x1 PUSH1 0xA0 SHL SUB AND ISZERO PUSH2 0x4FCC JUMP JUMPDEST PUSH2 0x167F PUSH1 0x40 MLOAD PUSH2 0x15F0 DUP2 PUSH2 0x4A3D JUMP JUMPDEST DUP3 DUP2 MSTORE DUP6 DUP2 ADD DUP5 DUP2 MSTORE PUSH1 0x40 DUP1 DUP4 ADD DUP8 DUP2 MSTORE PUSH1 0x60 DUP5 ADD DUP9 DUP2 MSTORE PUSH1 0x80 DUP6 ADD DUP10 DUP2 MSTORE PUSH1 0x8 SLOAD DUP1 DUP12 MSTORE PUSH1 0xA DUP13 MSTORE SWAP4 SWAP1 SWAP10 KECCAK256 SWAP5 MLOAD DUP6 SSTORE SWAP3 MLOAD PUSH1 0x1 SWAP1 SWAP5 ADD DUP1 SLOAD SWAP2 MLOAD SWAP4 MLOAD SWAP9 MLOAD SWAP9 ISZERO ISZERO PUSH1 0xA8 SHL PUSH1 0xFF PUSH1 0xA8 SHL AND SWAP4 ISZERO ISZERO PUSH1 0xA0 SHL PUSH1 0xFF PUSH1 0xA0 SHL AND PUSH1 0x1 PUSH1 0x1 PUSH1 0xA0 SHL SUB SWAP1 SWAP6 AND PUSH1 0x1 PUSH1 0x1 PUSH1 0xB8 SHL SUB NOT SWAP1 SWAP3 AND SWAP2 SWAP1 SWAP2 OR SWAP4 SWAP1 SWAP4 OR SWAP2 SWAP1 SWAP2 OR SWAP6 ISZERO ISZERO PUSH1 0xB0 SHL PUSH1 0xFF PUSH1 0xB0 SHL AND SWAP6 SWAP1 SWAP6 OR SWAP1 SSTORE JUMP JUMPDEST PUSH2 0x168A PUSH1 0x8 SLOAD PUSH2 0x4C12 JUMP JUMPDEST PUSH1 0x8 SSTORE DUP3 PUSH32 0x3E168088DA33D5AB18321345A864B58812F451C892EE951F8F70B5BEAD045B69 DUP6 PUSH1 0x40 MLOAD CALLER DUP2 MSTORE LOG4 PUSH1 0x40 MLOAD SWAP1 DUP2 MSTORE RETURN JUMPDEST POP PUSH1 0x1 DUP5 ADD SLOAD PUSH1 0x1 PUSH1 0x1 PUSH1 0xA0 SHL SUB AND CALLER EQ PUSH2 0x15B0 JUMP JUMPDEST POP CALLVALUE PUSH2 0x27B JUMPI PUSH2 0x16E4 CALLDATASIZE PUSH2 0x47DF JUMP JUMPDEST SWAP3 DUP3 DUP2 SWAP4 SWAP3 SWAP4 MSTORE PUSH1 0x4 PUSH1 0x20 MSTORE PUSH1 0x40 DUP2 KECCAK256 SWAP3 PUSH1 0x1 DUP1 PUSH1 0xA0 SHL SUB DUP5 SLOAD AND CALLER EQ DUP1 ISZERO PUSH2 0x18A7 JUMPI JUMPDEST PUSH2 0x1711 SWAP1 PUSH2 0x4C70 JUMP JUMPDEST PUSH20 0x0 DUP1 EXTCODESIZE ISZERO PUSH2 0x18A3 JUMPI DUP3 PUSH1 0x40 MLOAD DUP1 SWAP3 PUSH4 0x252A867 PUSH1 0xE5 SHL DUP3 MSTORE DUP2 DUP1 PUSH2 0x174C DUP11 PUSH1 0x4 DUP4 ADD PUSH2 0x4CA1 JUMP JUMPDEST SUB SWAP2 GAS DELEGATECALL DUP1 ISZERO PUSH2 0x1898 JUMPI SWAP1 DUP4 SWAP2 PUSH2 0x1883 JUMPI JUMPDEST POP POP PUSH1 0x6 DUP5 ADD PUSH2 0x177A DUP3 DUP3 SLOAD PUSH2 0x1775 DUP3 DUP3 LT PUSH2 0x49BF JUMP JUMPDEST PUSH2 0x4D88 JUMP JUMPDEST SWAP1 SSTORE PUSH1 0x1 DUP1 PUSH1 0xA0 SHL SUB PUSH1 0xA DUP6 ADD SLOAD AND SWAP4 PUSH1 0x8 DUP2 ADD SLOAD PUSH1 0x40 MLOAD SWAP1 PUSH4 0x1C8F0847 PUSH1 0xE0 SHL DUP3 MSTORE DUP4 PUSH1 0x4 DUP4 ADD MSTORE PUSH1 0x24 DUP3 ADD MSTORE PUSH1 0x20 DUP2 PUSH1 0x44 DUP2 PUSH20 0x0 GAS DELEGATECALL SWAP4 DUP5 ISZERO PUSH2 0xB00 JUMPI SWAP4 PUSH2 0x184D JUMPI JUMPDEST POP SWAP2 PUSH2 0x600 DUP4 PUSH2 0x1824 DUP4 PUSH1 0x1 PUSH0 DUP1 MLOAD PUSH1 0x20 PUSH2 0x57A5 DUP4 CODECOPY DUP2 MLOAD SWAP2 MSTORE SWAP8 ADD SWAP9 PUSH2 0x180E DUP12 DUP3 PUSH1 0x1 DUP1 PUSH1 0xA0 SHL SUB DUP14 SLOAD AND PUSH2 0x1808 DUP7 DUP13 PUSH2 0x4D88 JUMP JUMPDEST SWAP3 PUSH2 0x55D5 JUMP JUMPDEST POP PUSH1 0x2 DUP5 ADD SWAP11 PUSH1 0x1 DUP1 PUSH1 0xA0 SHL SUB DUP13 SLOAD AND SWAP1 PUSH2 0x55D5 JUMP JUMPDEST POP SLOAD SWAP6 SLOAD SWAP7 SLOAD PUSH1 0x40 MLOAD PUSH1 0x1 PUSH1 0x1 PUSH1 0xA0 SHL SUB SWAP9 DUP10 AND SWAP9 SWAP8 DUP9 AND SWAP8 SWAP1 SWAP5 DUP6 SWAP5 SWAP3 SWAP1 SWAP2 CALLER SWAP2 AND DUP6 PUSH2 0x4D95 JUMP JUMPDEST SWAP3 POP PUSH1 0x20 DUP4 RETURNDATASIZE PUSH1 0x20 GT PUSH2 0x187B JUMPI JUMPDEST DUP2 PUSH2 0x1868 PUSH1 0x20 SWAP4 DUP4 PUSH2 0x4A59 JUMP JUMPDEST DUP2 ADD SUB SLT PUSH2 0xAB4 JUMPI SWAP2 MLOAD SWAP2 PUSH2 0x600 PUSH2 0x17D2 JUMP JUMPDEST RETURNDATASIZE SWAP2 POP PUSH2 0x185B JUMP JUMPDEST DUP2 PUSH2 0x188D SWAP2 PUSH2 0x4A59 JUMP JUMPDEST PUSH2 0xFEC JUMPI DUP2 PUSH0 PUSH2 0x175E JUMP JUMPDEST PUSH1 0x40 MLOAD RETURNDATASIZE DUP6 DUP3 RETURNDATACOPY RETURNDATASIZE SWAP1 REVERT JUMPDEST DUP3 DUP1 REVERT JUMPDEST POP PUSH1 0x2 DUP5 ADD SLOAD PUSH1 0x1 PUSH1 0x1 PUSH1 0xA0 SHL SUB AND CALLER EQ PUSH2 0x1708 JUMP JUMPDEST POP CALLVALUE PUSH2 0x27B JUMPI PUSH1 0x40 CALLDATASIZE PUSH1 0x3 NOT ADD SLT PUSH2 0x27B JUMPI PUSH1 0x40 PUSH2 0x244 PUSH2 0x4738 JUMP JUMPDEST POP CALLVALUE PUSH2 0x27B JUMPI PUSH1 0x20 CALLDATASIZE PUSH1 0x3 NOT ADD SLT PUSH2 0x27B JUMPI PUSH1 0x40 PUSH1 0xE0 SWAP2 PUSH1 0x4 CALLDATALOAD DUP2 MSTORE PUSH1 0x9 PUSH1 0x20 MSTORE KECCAK256 PUSH1 0xFF DUP2 SLOAD SWAP2 PUSH1 0x2 PUSH1 0x1 DUP3 ADD SLOAD SWAP2 ADD SLOAD SWAP1 PUSH1 0x40 MLOAD SWAP4 DUP5 MSTORE PUSH1 0x20 DUP5 ADD MSTORE PUSH2 0x1925 PUSH1 0x40 DUP5 ADD DUP4 DUP4 AND PUSH2 0x48A0 JUMP JUMPDEST DUP2 DUP2 PUSH1 0x8 SHR AND ISZERO ISZERO PUSH1 0x60 DUP5 ADD MSTORE DUP2 DUP2 PUSH1 0x10 SHR AND ISZERO ISZERO PUSH1 0x80 DUP5 ADD MSTORE DUP2 DUP2 PUSH1 0x18 SHR AND ISZERO ISZERO PUSH1 0xA0 DUP5 ADD MSTORE PUSH1 0x20 SHR AND ISZERO ISZERO PUSH1 0xC0 DUP3 ADD MSTORE RETURN JUMPDEST POP CALLVALUE PUSH2 0x27B JUMPI PUSH1 0x60 CALLDATASIZE PUSH1 0x3 NOT ADD SLT PUSH2 0x27B JUMPI PUSH2 0x1973 PUSH2 0x4738 JUMP JUMPDEST SWAP1 PUSH2 0x197C PUSH2 0x4722 JUMP JUMPDEST PUSH1 0x40 PUSH1 0x44 CALLDATALOAD SWAP4 CALLER DUP5 MSTORE PUSH1 0x1 PUSH1 0x20 MSTORE DUP2 DUP5 KECCAK256 PUSH1 0x1 DUP1 PUSH1 0xA0 SHL SUB DUP5 AND PUSH0 MSTORE PUSH1 0x20 MSTORE PUSH2 0x19AA DUP6 DUP4 PUSH0 KECCAK256 SLOAD LT ISZERO PUSH2 0x49BF JUMP JUMPDEST CALLER DUP5 MSTORE PUSH1 0x1 PUSH1 0x20 MSTORE DUP2 DUP5 KECCAK256 PUSH1 0x1 DUP1 PUSH1 0xA0 SHL SUB DUP5 AND PUSH0 MSTORE PUSH1 0x20 MSTORE DUP2 PUSH0 KECCAK256 PUSH2 0x19D1 DUP7 DUP3 SLOAD PUSH2 0x4D88 JUMP JUMPDEST SWAP1 SSTORE PUSH1 0x1 DUP1 PUSH1 0xA0 SHL SUB AND SWAP3 DUP4 DUP2 MSTORE PUSH1 0x1 PUSH1 0x20 MSTORE KECCAK256 PUSH1 0x1 DUP1 PUSH1 0xA0 SHL SUB DUP3 AND PUSH0 MSTORE PUSH1 0x20 MSTORE PUSH1 0x40 PUSH0 KECCAK256 PUSH2 0x1A02 DUP5 DUP3 SLOAD PUSH2 0x4F2A JUMP JUMPDEST SWAP1 SSTORE PUSH1 0x40 MLOAD SWAP3 DUP4 MSTORE PUSH1 0x1 PUSH1 0x1 PUSH1 0xA0 SHL SUB AND SWAP2 CALLER SWAP1 PUSH32 0xD1398BEE19313D6BF672CCB116E51F4A1A947E91C757907F51FBB5B5E56C698F SWAP1 PUSH1 0x20 SWAP1 LOG4 PUSH1 0x20 PUSH1 0x40 MLOAD PUSH1 0x1 DUP2 MSTORE RETURN JUMPDEST POP PUSH1 0x20 CALLDATASIZE PUSH1 0x3 NOT ADD SLT PUSH2 0x27B JUMPI PUSH1 0x4 CALLDATALOAD DUP1 DUP3 MSTORE PUSH1 0x4 PUSH1 0x20 MSTORE PUSH1 0x40 DUP3 KECCAK256 SWAP2 PUSH1 0x1 DUP4 ADD SWAP3 PUSH2 0x1A7D PUSH1 0x1 DUP1 PUSH1 0xA0 SHL SUB DUP6 SLOAD AND CALLER EQ PUSH2 0x4C70 JUMP JUMPDEST PUSH1 0x2 DUP2 ADD SWAP2 PUSH1 0xFF DUP4 SLOAD PUSH2 0x1A94 DUP3 DUP3 PUSH1 0xA8 SHR AND PUSH2 0x4F37 JUMP JUMPDEST PUSH2 0x1AA3 DUP3 DUP3 PUSH1 0xB0 SHR AND ISZERO PUSH2 0x4F69 JUMP JUMPDEST PUSH1 0xA0 SHR AND PUSH1 0x3 DUP2 LT ISZERO PUSH2 0x1D7A JUMPI PUSH1 0x2 PUSH2 0x1ABC SWAP2 EQ PUSH2 0x4F9B JUMP JUMPDEST PUSH1 0xA DUP3 ADD DUP1 SLOAD CALLER PUSH0 SWAP1 DUP2 MSTORE PUSH1 0x1 PUSH1 0x20 SWAP1 DUP2 MSTORE PUSH1 0x40 DUP1 DUP4 KECCAK256 PUSH1 0x1 PUSH1 0x1 PUSH1 0xA0 SHL SUB SWAP1 SWAP5 AND DUP1 DUP5 MSTORE SWAP4 SWAP1 SWAP2 MSTORE SWAP1 KECCAK256 SLOAD PUSH1 0x6 DUP6 ADD SLOAD DUP2 LT PUSH2 0x1BAD JUMPI JUMPDEST POP POP SLOAD PUSH1 0x4 DUP4 ADD SLOAD PUSH2 0x1B11 SWAP3 POP SWAP1 PUSH1 0x1 PUSH1 0x1 PUSH1 0xA0 SHL SUB AND CALLER PUSH2 0x552E JUMP JUMPDEST POP DUP2 SLOAD PUSH1 0x1 PUSH1 0xB0 SHL PUSH1 0xFF PUSH1 0xB0 SHL NOT DUP3 AND OR SWAP1 SWAP3 SSTORE SLOAD SWAP3 SLOAD PUSH1 0x40 MLOAD PUSH1 0x1 PUSH1 0x1 PUSH1 0xA0 SHL SUB SWAP3 DUP4 AND DUP1 DUP3 MSTORE SWAP5 SWAP2 DUP4 AND SWAP3 SWAP1 SWAP2 AND SWAP1 DUP4 SWAP1 PUSH32 0x5E02698C1650D6CBE1F7E8A48609D0DA45AD7F5E4C13CD8B196F82965C0AB0D5 SWAP1 PUSH1 0x20 SWAP1 LOG4 DUP2 PUSH2 0x1B7B JUMPI JUMPDEST PUSH1 0x20 PUSH1 0x40 MLOAD PUSH1 0x1 DUP2 MSTORE RETURN JUMPDEST PUSH1 0x20 PUSH32 0x957372C0E02D2882134CC0EEBBEF9E446634D8CCBB1CBB112BDEFDD3CF0A643C SWAP2 PUSH1 0x40 MLOAD SWAP1 DUP2 MSTORE LOG2 PUSH0 DUP1 PUSH2 0x1B70 JUMP JUMPDEST PUSH2 0x1BBB SWAP1 PUSH1 0x4 DUP7 ADD SLOAD PUSH2 0x4D88 JUMP JUMPDEST PUSH2 0x1BCB PUSH1 0xFF DUP6 SLOAD PUSH1 0xA0 SHR AND PUSH2 0x498E JUMP JUMPDEST PUSH2 0x1BD6 DUP2 ISZERO ISZERO PUSH2 0x4E91 JUMP JUMPDEST PUSH1 0x2 SLOAD SWAP4 PUSH1 0x40 MLOAD SWAP5 PUSH4 0x1C8F0847 PUSH1 0xE0 SHL DUP7 MSTORE DUP3 PUSH1 0x4 DUP8 ADD MSTORE PUSH1 0x24 DUP7 ADD MSTORE PUSH1 0x20 DUP6 PUSH1 0x44 DUP2 PUSH20 0x0 GAS DELEGATECALL SWAP5 DUP6 ISZERO PUSH2 0x1D6D JUMPI DUP2 SWAP6 PUSH2 0x1D39 JUMPI JUMPDEST POP DUP3 PUSH2 0x1C85 JUMPI POP PUSH2 0x1C2F DUP5 DUP3 PUSH2 0x4F2A JUMP JUMPDEST CALLVALUE SUB PUSH2 0x1427 JUMPI PUSH2 0x1B11 SWAP4 PUSH2 0x1C44 DUP3 DUP5 CALLER PUSH2 0x55F3 JUMP JUMPDEST POP PUSH1 0x3 SLOAD PUSH2 0x1C5E SWAP1 DUP3 SWAP1 DUP6 SWAP1 PUSH1 0x1 PUSH1 0x1 PUSH1 0xA0 SHL SUB AND PUSH2 0x55F3 JUMP JUMPDEST POP JUMPDEST PUSH1 0x40 MLOAD SWAP2 DUP3 MSTORE PUSH1 0x20 DUP3 ADD MSTORE PUSH0 DUP1 MLOAD PUSH1 0x20 PUSH2 0x5825 DUP4 CODECOPY DUP2 MLOAD SWAP2 MSTORE PUSH1 0x40 CALLER SWAP3 LOG3 PUSH0 DUP1 PUSH2 0x1AF4 JUMP JUMPDEST PUSH2 0x1C8F DUP6 DUP4 PUSH2 0x4F2A JUMP JUMPDEST PUSH1 0x40 MLOAD SWAP1 PUSH4 0x23B872DD PUSH1 0xE0 SHL DUP3 MSTORE CALLER PUSH1 0x4 DUP4 ADD MSTORE ADDRESS PUSH1 0x24 DUP4 ADD MSTORE PUSH1 0x44 DUP3 ADD MSTORE PUSH1 0x20 DUP2 PUSH1 0x64 DUP2 DUP6 DUP9 GAS CALL SWAP2 DUP3 ISZERO PUSH2 0xB00 JUMPI DUP1 SWAP3 PUSH2 0x1CFC JUMPI JUMPDEST POP POP ISZERO PUSH2 0x14D1 JUMPI PUSH2 0x1B11 SWAP4 PUSH2 0x1CDC DUP3 DUP5 CALLER PUSH2 0x55F3 JUMP JUMPDEST POP PUSH1 0x3 SLOAD PUSH2 0x1CF6 SWAP1 DUP3 SWAP1 DUP6 SWAP1 PUSH1 0x1 PUSH1 0x1 PUSH1 0xA0 SHL SUB AND PUSH2 0x55F3 JUMP JUMPDEST POP PUSH2 0x1C60 JUMP JUMPDEST SWAP1 SWAP2 POP PUSH1 0x20 DUP3 RETURNDATASIZE PUSH1 0x20 GT PUSH2 0x1D31 JUMPI JUMPDEST DUP2 PUSH2 0x1D18 PUSH1 0x20 SWAP4 DUP4 PUSH2 0x4A59 JUMP JUMPDEST DUP2 ADD SUB SLT PUSH2 0x27B JUMPI POP PUSH2 0x1D2A SWAP1 PUSH2 0x4A8F JUMP JUMPDEST PUSH0 DUP1 PUSH2 0x1CC6 JUMP JUMPDEST RETURNDATASIZE SWAP2 POP PUSH2 0x1D0B JUMP JUMPDEST SWAP1 SWAP5 POP PUSH1 0x20 DUP2 RETURNDATASIZE PUSH1 0x20 GT PUSH2 0x1D65 JUMPI JUMPDEST DUP2 PUSH2 0x1D55 PUSH1 0x20 SWAP4 DUP4 PUSH2 0x4A59 JUMP JUMPDEST DUP2 ADD SUB SLT PUSH2 0xAB4 JUMPI MLOAD SWAP4 PUSH0 PUSH2 0x1C1E JUMP JUMPDEST RETURNDATASIZE SWAP2 POP PUSH2 0x1D48 JUMP JUMPDEST POP PUSH1 0x40 MLOAD SWAP1 RETURNDATASIZE SWAP1 DUP3 RETURNDATACOPY RETURNDATASIZE SWAP1 REVERT JUMPDEST PUSH4 0x4E487B71 PUSH1 0xE0 SHL DUP3 MSTORE PUSH1 0x21 PUSH1 0x4 MSTORE PUSH1 0x24 DUP3 REVERT JUMPDEST POP CALLVALUE PUSH2 0x27B JUMPI PUSH1 0x20 CALLDATASIZE PUSH1 0x3 NOT ADD SLT PUSH2 0x27B JUMPI PUSH1 0x40 DUP2 PUSH1 0xA0 SWAP3 PUSH1 0x80 DUP4 MLOAD PUSH2 0x1DB3 DUP2 PUSH2 0x4A3D JUMP JUMPDEST DUP3 DUP2 MSTORE DUP3 PUSH1 0x20 DUP3 ADD MSTORE DUP3 DUP6 DUP3 ADD MSTORE DUP3 PUSH1 0x60 DUP3 ADD MSTORE ADD MSTORE PUSH1 0x4 CALLDATALOAD DUP2 MSTORE PUSH1 0xA PUSH1 0x20 MSTORE KECCAK256 PUSH1 0x40 MLOAD PUSH2 0x1DE0 DUP2 PUSH2 0x4A3D JUMP JUMPDEST PUSH1 0x1 DUP3 SLOAD SWAP3 DUP4 DUP4 MSTORE ADD SLOAD SWAP1 PUSH1 0x20 DUP2 ADD PUSH1 0x1 DUP1 DUP7 SHL SUB DUP4 AND DUP2 MSTORE PUSH1 0x40 DUP3 ADD SWAP1 PUSH1 0xFF DUP5 DUP8 SHR AND ISZERO ISZERO DUP3 MSTORE PUSH1 0xFF PUSH1 0x80 PUSH1 0x60 DUP6 ADD SWAP5 DUP3 DUP8 PUSH1 0xA8 SHR AND ISZERO ISZERO DUP7 MSTORE ADD SWAP5 PUSH1 0xB0 SHR AND ISZERO ISZERO DUP5 MSTORE PUSH1 0x40 MLOAD SWAP5 DUP6 MSTORE PUSH1 0x1 DUP1 DUP8 SHL SUB SWAP1 MLOAD AND PUSH1 0x20 DUP6 ADD MSTORE MLOAD ISZERO ISZERO PUSH1 0x40 DUP5 ADD MSTORE MLOAD ISZERO ISZERO PUSH1 0x60 DUP4 ADD MSTORE MLOAD ISZERO ISZERO PUSH1 0x80 DUP3 ADD MSTORE RETURN JUMPDEST POP PUSH2 0x1E5D CALLDATASIZE PUSH2 0x47DF JUMP JUMPDEST DUP3 DUP5 SWAP4 SWAP3 SWAP4 MSTORE PUSH1 0x4 PUSH1 0x20 MSTORE PUSH1 0x40 DUP5 KECCAK256 SWAP4 PUSH2 0x1E81 PUSH1 0x1 DUP1 PUSH1 0xA0 SHL SUB DUP7 SLOAD AND CALLER EQ PUSH2 0x4C70 JUMP JUMPDEST PUSH20 0x0 DUP1 EXTCODESIZE ISZERO PUSH2 0xFEC JUMPI DUP2 PUSH1 0x40 MLOAD DUP1 SWAP3 PUSH4 0x252A867 PUSH1 0xE5 SHL DUP3 MSTORE DUP2 DUP1 PUSH2 0x1EBC DUP12 PUSH1 0x4 DUP4 ADD PUSH2 0x4CA1 JUMP JUMPDEST SUB SWAP2 GAS DELEGATECALL DUP1 ISZERO PUSH2 0xFE1 JUMPI SWAP1 DUP6 SWAP3 SWAP2 PUSH2 0x2168 JUMPI JUMPDEST POP PUSH1 0x9 DUP7 ADD DUP1 SLOAD CALLER PUSH0 SWAP1 DUP2 MSTORE PUSH1 0x1 PUSH1 0x20 SWAP1 DUP2 MSTORE PUSH1 0x40 DUP1 DUP4 KECCAK256 PUSH1 0x1 PUSH1 0x1 PUSH1 0xA0 SHL SUB SWAP1 SWAP5 AND DUP1 DUP5 MSTORE SWAP4 SWAP1 SWAP2 MSTORE SWAP1 KECCAK256 SLOAD SWAP2 SWAP3 SWAP1 SWAP2 SWAP5 ISZERO PUSH2 0x1F91 JUMPI POP POP PUSH2 0x1F17 DUP3 PUSH2 0x1F27 SWAP5 LT ISZERO PUSH2 0x49BF JUMP JUMPDEST SLOAD PUSH1 0x1 PUSH1 0x1 PUSH1 0xA0 SHL SUB AND CALLER PUSH2 0x552E JUMP JUMPDEST POP PUSH1 0x5 DUP4 ADD PUSH2 0x1F37 DUP4 DUP3 SLOAD PUSH2 0x4F2A JUMP JUMPDEST SWAP1 SSTORE DUP3 SLOAD PUSH1 0x1 DUP5 ADD SLOAD PUSH1 0x2 SWAP1 SWAP5 ADD SLOAD PUSH1 0x40 DUP1 MLOAD PUSH1 0x1 PUSH1 0x1 PUSH1 0xA0 SHL SUB SWAP3 DUP4 AND DUP2 MSTORE PUSH1 0x20 DUP2 ADD SWAP6 SWAP1 SWAP6 MSTORE SWAP5 DUP2 AND SWAP5 SWAP2 AND SWAP3 PUSH32 0x3C0DD30126238EAEBBB306E073222EECD03A091D41C39A4B2742759D406C8F55 SWAP2 DUP2 SWAP1 DUP2 ADD PUSH2 0x600 JUMP JUMPDEST SWAP1 SWAP4 DUP4 DUP2 LT PUSH2 0x1FA7 JUMPI JUMPDEST POP POP PUSH2 0x1F27 SWAP3 POP PUSH2 0x1F17 JUMP JUMPDEST PUSH2 0x1FB1 SWAP2 SWAP4 PUSH2 0x4D88 JUMP JUMPDEST SWAP3 PUSH2 0x1FC2 PUSH1 0xFF DUP5 SLOAD PUSH1 0xA0 SHR AND PUSH2 0x498E JUMP JUMPDEST PUSH2 0x1FCD DUP5 ISZERO ISZERO PUSH2 0x4E91 JUMP JUMPDEST PUSH1 0x2 SLOAD SWAP3 PUSH1 0x40 MLOAD SWAP4 PUSH4 0x1C8F0847 PUSH1 0xE0 SHL DUP6 MSTORE DUP6 PUSH1 0x4 DUP7 ADD MSTORE PUSH1 0x24 DUP6 ADD MSTORE PUSH1 0x20 DUP5 PUSH1 0x44 DUP2 PUSH20 0x0 GAS DELEGATECALL SWAP4 DUP5 ISZERO PUSH2 0x1D6D JUMPI DUP2 SWAP5 PUSH2 0x2134 JUMPI JUMPDEST POP DUP2 PUSH2 0x207E JUMPI POP PUSH2 0x2026 DUP4 DUP6 PUSH2 0x4F2A JUMP JUMPDEST CALLVALUE SUB PUSH2 0x1427 JUMPI DUP4 DUP7 SWAP4 PUSH2 0x203D PUSH2 0x1F27 SWAP7 DUP5 CALLER PUSH2 0x55F3 JUMP JUMPDEST POP PUSH1 0x3 SLOAD PUSH2 0x2057 SWAP1 DUP3 SWAP1 DUP6 SWAP1 PUSH1 0x1 PUSH1 0x1 PUSH1 0xA0 SHL SUB AND PUSH2 0x55F3 JUMP JUMPDEST POP JUMPDEST PUSH1 0x40 MLOAD SWAP2 DUP3 MSTORE PUSH1 0x20 DUP3 ADD MSTORE PUSH0 DUP1 MLOAD PUSH1 0x20 PUSH2 0x5825 DUP4 CODECOPY DUP2 MLOAD SWAP2 MSTORE PUSH1 0x40 CALLER SWAP3 LOG3 PUSH0 DUP1 PUSH2 0x1F9B JUMP JUMPDEST PUSH2 0x2088 DUP5 DUP7 PUSH2 0x4F2A JUMP JUMPDEST PUSH1 0x40 MLOAD SWAP1 PUSH4 0x23B872DD PUSH1 0xE0 SHL DUP3 MSTORE CALLER PUSH1 0x4 DUP4 ADD MSTORE ADDRESS PUSH1 0x24 DUP4 ADD MSTORE PUSH1 0x44 DUP3 ADD MSTORE PUSH1 0x20 DUP2 PUSH1 0x64 DUP2 DUP6 DUP8 GAS CALL SWAP2 DUP3 ISZERO PUSH2 0xB00 JUMPI DUP1 SWAP3 PUSH2 0x20F7 JUMPI JUMPDEST POP POP ISZERO PUSH2 0x14D1 JUMPI DUP4 DUP7 SWAP4 PUSH2 0x20D7 PUSH2 0x1F27 SWAP7 DUP5 CALLER PUSH2 0x55F3 JUMP JUMPDEST POP PUSH1 0x3 SLOAD PUSH2 0x20F1 SWAP1 DUP3 SWAP1 DUP6 SWAP1 PUSH1 0x1 PUSH1 0x1 PUSH1 0xA0 SHL SUB AND PUSH2 0x55F3 JUMP JUMPDEST POP PUSH2 0x2059 JUMP JUMPDEST SWAP1 SWAP2 POP PUSH1 0x20 DUP3 RETURNDATASIZE PUSH1 0x20 GT PUSH2 0x212C JUMPI JUMPDEST DUP2 PUSH2 0x2113 PUSH1 0x20 SWAP4 DUP4 PUSH2 0x4A59 JUMP JUMPDEST DUP2 ADD SUB SLT PUSH2 0x27B JUMPI POP PUSH2 0x2125 SWAP1 PUSH2 0x4A8F JUMP JUMPDEST PUSH0 DUP1 PUSH2 0x20BF JUMP JUMPDEST RETURNDATASIZE SWAP2 POP PUSH2 0x2106 JUMP JUMPDEST SWAP1 SWAP4 POP PUSH1 0x20 DUP2 RETURNDATASIZE PUSH1 0x20 GT PUSH2 0x2160 JUMPI JUMPDEST DUP2 PUSH2 0x2150 PUSH1 0x20 SWAP4 DUP4 PUSH2 0x4A59 JUMP JUMPDEST DUP2 ADD SUB SLT PUSH2 0xAB4 JUMPI MLOAD SWAP3 PUSH0 PUSH2 0x2015 JUMP JUMPDEST RETURNDATASIZE SWAP2 POP PUSH2 0x2143 JUMP JUMPDEST DUP2 DUP1 SWAP4 POP PUSH2 0x2175 SWAP2 PUSH2 0x4A59 JUMP JUMPDEST PUSH2 0x27B JUMPI DUP4 SWAP1 PUSH0 PUSH2 0x1ECF JUMP JUMPDEST POP CALLVALUE PUSH2 0x27B JUMPI PUSH2 0x2190 CALLDATASIZE PUSH2 0x47DF JUMP JUMPDEST SWAP3 SWAP2 SWAP1 DUP2 DUP4 MSTORE PUSH1 0x4 PUSH1 0x20 MSTORE PUSH1 0x40 DUP4 KECCAK256 SWAP1 PUSH1 0x1 DUP3 ADD SWAP4 PUSH1 0x1 DUP1 PUSH1 0xA0 SHL SUB DUP6 SLOAD AND CALLER EQ DUP1 ISZERO PUSH2 0x2303 JUMPI JUMPDEST PUSH2 0x21C1 SWAP1 PUSH2 0x4C70 JUMP JUMPDEST PUSH20 0x0 DUP1 EXTCODESIZE ISZERO PUSH2 0xFEC JUMPI DUP2 PUSH1 0x40 MLOAD DUP1 SWAP3 PUSH4 0x252A867 PUSH1 0xE5 SHL DUP3 MSTORE DUP2 DUP1 PUSH2 0x21FC DUP10 PUSH1 0x4 DUP4 ADD PUSH2 0x4CA1 JUMP JUMPDEST SUB SWAP2 GAS DELEGATECALL DUP1 ISZERO PUSH2 0xFE1 JUMPI SWAP1 DUP3 SWAP2 PUSH2 0x22EE JUMPI JUMPDEST POP POP PUSH1 0x5 DUP4 ADD PUSH2 0x2225 DUP4 DUP3 SLOAD PUSH2 0x1775 DUP3 DUP3 LT PUSH2 0x49BF JUMP JUMPDEST SWAP1 SSTORE PUSH1 0x1 DUP1 PUSH1 0xA0 SHL SUB PUSH1 0x9 DUP5 ADD SLOAD AND PUSH1 0x7 DUP5 ADD SLOAD PUSH1 0x40 MLOAD SWAP1 PUSH4 0x1C8F0847 PUSH1 0xE0 SHL DUP3 MSTORE DUP5 PUSH1 0x4 DUP4 ADD MSTORE PUSH1 0x24 DUP3 ADD MSTORE PUSH1 0x20 DUP2 PUSH1 0x44 DUP2 PUSH20 0x0 GAS DELEGATECALL SWAP3 DUP4 ISZERO PUSH2 0xB00 JUMPI SWAP3 PUSH2 0x22AD JUMPI JUMPDEST POP PUSH0 DUP1 MLOAD PUSH1 0x20 PUSH2 0x5805 DUP4 CODECOPY DUP2 MLOAD SWAP2 MSTORE SWAP4 PUSH2 0x1824 DUP4 DUP4 PUSH2 0x180E DUP12 PUSH2 0x600 SWAP7 PUSH1 0x1 DUP1 PUSH1 0xA0 SHL SUB DUP8 SLOAD AND PUSH2 0x1808 DUP7 DUP13 PUSH2 0x4D88 JUMP JUMPDEST SWAP1 SWAP2 POP PUSH1 0x20 DUP2 RETURNDATASIZE PUSH1 0x20 GT PUSH2 0x22E6 JUMPI JUMPDEST DUP2 PUSH2 0x22C9 PUSH1 0x20 SWAP4 DUP4 PUSH2 0x4A59 JUMP JUMPDEST DUP2 ADD SUB SLT PUSH2 0xAB4 JUMPI MLOAD SWAP1 PUSH0 DUP1 MLOAD PUSH1 0x20 PUSH2 0x5805 DUP4 CODECOPY DUP2 MLOAD SWAP2 MSTORE PUSH2 0x227C JUMP JUMPDEST RETURNDATASIZE SWAP2 POP PUSH2 0x22BC JUMP JUMPDEST DUP2 PUSH2 0x22F8 SWAP2 PUSH2 0x4A59 JUMP JUMPDEST PUSH2 0x27B JUMPI DUP1 PUSH0 PUSH2 0x220E JUMP JUMPDEST POP PUSH1 0x2 DUP4 ADD SLOAD PUSH1 0x1 PUSH1 0x1 PUSH1 0xA0 SHL SUB AND CALLER EQ PUSH2 0x21B8 JUMP JUMPDEST POP CALLVALUE PUSH2 0x27B JUMPI DUP1 PUSH1 0x3 NOT CALLDATASIZE ADD SLT PUSH2 0x27B JUMPI PUSH1 0x20 PUSH1 0x7 SLOAD PUSH1 0x40 MLOAD SWAP1 DUP2 MSTORE RETURN JUMPDEST POP CALLVALUE PUSH2 0x27B JUMPI PUSH2 0x2346 CALLDATASIZE PUSH2 0x47DF JUMP JUMPDEST SWAP3 DUP3 DUP2 SWAP4 SWAP3 SWAP4 MSTORE PUSH1 0x4 PUSH1 0x20 MSTORE PUSH1 0x40 DUP2 KECCAK256 SWAP3 PUSH1 0x1 DUP1 PUSH1 0xA0 SHL SUB DUP5 SLOAD AND CALLER EQ DUP1 ISZERO PUSH2 0x24C3 JUMPI JUMPDEST PUSH2 0x2373 SWAP1 PUSH2 0x4C70 JUMP JUMPDEST PUSH20 0x0 DUP1 EXTCODESIZE ISZERO PUSH2 0x18A3 JUMPI DUP3 PUSH1 0x40 MLOAD DUP1 SWAP3 PUSH4 0x252A867 PUSH1 0xE5 SHL DUP3 MSTORE DUP2 DUP1 PUSH2 0x23AE DUP11 PUSH1 0x4 DUP4 ADD PUSH2 0x4CA1 JUMP JUMPDEST SUB SWAP2 GAS DELEGATECALL DUP1 ISZERO PUSH2 0x1898 JUMPI SWAP1 DUP4 SWAP2 PUSH2 0x24AE JUMPI JUMPDEST POP POP PUSH1 0x5 DUP5 ADD PUSH2 0x23D7 DUP3 DUP3 SLOAD PUSH2 0x1775 DUP3 DUP3 LT PUSH2 0x49BF JUMP JUMPDEST SWAP1 SSTORE PUSH1 0x1 DUP1 PUSH1 0xA0 SHL SUB PUSH1 0x9 DUP6 ADD SLOAD AND SWAP4 PUSH1 0x7 DUP2 ADD SLOAD PUSH1 0x40 MLOAD SWAP1 PUSH4 0x1C8F0847 PUSH1 0xE0 SHL DUP3 MSTORE DUP4 PUSH1 0x4 DUP4 ADD MSTORE PUSH1 0x24 DUP3 ADD MSTORE PUSH1 0x20 DUP2 PUSH1 0x44 DUP2 PUSH20 0x0 GAS DELEGATECALL SWAP4 DUP5 ISZERO PUSH2 0xB00 JUMPI SWAP4 PUSH2 0x2478 JUMPI JUMPDEST POP SWAP2 PUSH2 0x600 DUP4 PUSH2 0x1824 DUP4 PUSH1 0x1 PUSH32 0xF05D33634B730E763D232B482CF835A4481835F62D0A0973B42018A8EAD4F047 SWAP8 ADD SWAP9 PUSH2 0x180E DUP12 DUP3 PUSH1 0x1 DUP1 PUSH1 0xA0 SHL SUB DUP14 SLOAD AND PUSH2 0x1808 DUP7 DUP13 PUSH2 0x4D88 JUMP JUMPDEST SWAP3 POP PUSH1 0x20 DUP4 RETURNDATASIZE PUSH1 0x20 GT PUSH2 0x24A6 JUMPI JUMPDEST DUP2 PUSH2 0x2493 PUSH1 0x20 SWAP4 DUP4 PUSH2 0x4A59 JUMP JUMPDEST DUP2 ADD SUB SLT PUSH2 0xAB4 JUMPI SWAP2 MLOAD SWAP2 PUSH2 0x600 PUSH2 0x242F JUMP JUMPDEST RETURNDATASIZE SWAP2 POP PUSH2 0x2486 JUMP JUMPDEST DUP2 PUSH2 0x24B8 SWAP2 PUSH2 0x4A59 JUMP JUMPDEST PUSH2 0xFEC JUMPI DUP2 PUSH0 PUSH2 0x23C0 JUMP JUMPDEST POP PUSH1 0x2 DUP5 ADD SLOAD PUSH1 0x1 PUSH1 0x1 PUSH1 0xA0 SHL SUB AND CALLER EQ PUSH2 0x236A JUMP JUMPDEST POP CALLVALUE PUSH2 0x27B JUMPI DUP1 PUSH1 0x3 NOT CALLDATASIZE ADD SLT PUSH2 0x27B JUMPI PUSH1 0x20 PUSH1 0x5 SLOAD PUSH1 0x40 MLOAD SWAP1 DUP2 MSTORE RETURN JUMPDEST POP CALLVALUE PUSH2 0x27B JUMPI PUSH1 0x20 CALLDATASIZE PUSH1 0x3 NOT ADD SLT PUSH2 0x27B JUMPI PUSH1 0x4 CALLDATALOAD DUP1 DUP3 MSTORE PUSH1 0x4 PUSH1 0x20 MSTORE PUSH1 0x40 DUP3 KECCAK256 SWAP1 PUSH1 0x1 DUP3 ADD SWAP2 PUSH1 0x1 DUP1 PUSH1 0xA0 SHL SUB DUP4 SLOAD AND CALLER EQ DUP1 ISZERO PUSH2 0x25DF JUMPI JUMPDEST PUSH2 0x253A SWAP1 PUSH2 0x4C70 JUMP JUMPDEST PUSH1 0x2 DUP2 ADD SWAP4 PUSH1 0xFF DUP6 SLOAD PUSH2 0x2551 DUP3 DUP3 PUSH1 0xA8 SHR AND PUSH2 0x4F37 JUMP JUMPDEST PUSH2 0x2560 DUP3 DUP3 PUSH1 0xB0 SHR AND ISZERO PUSH2 0x4F69 JUMP JUMPDEST PUSH1 0xA0 SHR AND SWAP1 PUSH1 0x3 DUP3 LT ISZERO PUSH2 0x12A2 JUMPI POP PUSH0 DUP1 MLOAD PUSH1 0x20 PUSH2 0x57C5 DUP4 CODECOPY DUP2 MLOAD SWAP2 MSTORE SWAP2 PUSH2 0x258D PUSH1 0x2 PUSH2 0x600 SWAP4 EQ PUSH2 0x4F9B JUMP JUMPDEST DUP1 SLOAD PUSH1 0x9 DUP3 ADD SLOAD PUSH1 0x5 DUP4 ADD SLOAD PUSH2 0x25B1 SWAP3 SWAP1 SWAP2 PUSH1 0x1 PUSH1 0x1 PUSH1 0xA0 SHL SUB SWAP1 DUP2 AND SWAP2 AND PUSH2 0x55F3 JUMP JUMPDEST POP SLOAD SWAP4 SLOAD SWAP5 SLOAD PUSH1 0x40 DUP1 MLOAD PUSH1 0x1 PUSH1 0x1 PUSH1 0xA0 SHL SUB SWAP3 DUP4 AND DUP2 MSTORE CALLER PUSH1 0x20 DUP3 ADD MSTORE SWAP7 DUP3 AND SWAP7 SWAP6 SWAP1 SWAP2 AND SWAP5 SWAP2 DUP3 SWAP2 DUP3 ADD SWAP1 JUMP JUMPDEST POP DUP1 SLOAD PUSH1 0x1 PUSH1 0x1 PUSH1 0xA0 SHL SUB AND CALLER EQ PUSH2 0x2531 JUMP JUMPDEST POP CALLVALUE PUSH2 0x27B JUMPI DUP1 PUSH1 0x3 NOT CALLDATASIZE ADD SLT PUSH2 0x27B JUMPI SLOAD PUSH1 0x40 MLOAD PUSH1 0x1 PUSH1 0x1 PUSH1 0xA0 SHL SUB SWAP1 SWAP2 AND DUP2 MSTORE PUSH1 0x20 SWAP1 RETURN JUMPDEST POP CALLVALUE PUSH2 0x27B JUMPI DUP1 PUSH1 0x3 NOT CALLDATASIZE ADD SLT PUSH2 0x27B JUMPI PUSH1 0x20 PUSH1 0x2 SLOAD PUSH1 0x40 MLOAD SWAP1 DUP2 MSTORE RETURN JUMPDEST POP CALLVALUE PUSH2 0x27B JUMPI DUP1 PUSH1 0x3 NOT CALLDATASIZE ADD SLT PUSH2 0x27B JUMPI DUP1 SLOAD PUSH2 0x265E CALLER PUSH1 0x1 PUSH1 0x1 PUSH1 0xA0 SHL SUB DUP4 AND EQ PUSH2 0x4E2F JUMP JUMPDEST PUSH1 0xFF PUSH1 0xA0 SHL NOT AND DUP2 SSTORE PUSH1 0x40 MLOAD DUP2 DUP2 MSTORE PUSH32 0x17904E4FE7D59BB4603C7C045BC275A05DA9EA3A4AC007FC80FFFEAF119186D SWAP1 PUSH1 0x20 SWAP1 LOG1 DUP1 RETURN JUMPDEST POP CALLVALUE PUSH2 0x27B JUMPI PUSH1 0x20 CALLDATASIZE PUSH1 0x3 NOT ADD SLT PUSH2 0x27B JUMPI PUSH1 0x4 CALLDATALOAD DUP2 MSTORE PUSH1 0x4 PUSH1 0x20 MSTORE PUSH1 0x40 SWAP1 KECCAK256 PUSH1 0x1 PUSH1 0xA0 SHL PUSH1 0x1 SWAP1 SUB DUP2 SLOAD AND SWAP1 PUSH1 0x1 PUSH1 0xA0 SHL PUSH1 0x1 SWAP1 SUB PUSH1 0x1 DUP3 ADD SLOAD AND SWAP1 PUSH1 0x2 DUP2 ADD SLOAD PUSH1 0x3 DUP3 ADD SLOAD PUSH1 0x4 DUP4 ADD SLOAD PUSH1 0x5 DUP5 ADD SLOAD PUSH1 0x6 DUP6 ADD SLOAD PUSH1 0x7 DUP7 ADD SLOAD SWAP2 PUSH1 0x8 DUP8 ADD SLOAD SWAP4 PUSH1 0x1 PUSH1 0xA0 SHL PUSH1 0x1 SWAP1 SUB PUSH1 0x9 DUP10 ADD SLOAD AND SWAP6 PUSH1 0x1 PUSH1 0xA0 SHL PUSH1 0x1 SWAP1 SUB PUSH1 0xA DUP11 ADD SLOAD AND SWAP8 PUSH1 0xB DUP11 ADD SLOAD SWAP10 PUSH1 0xC ADD SLOAD PUSH1 0xFF AND SWAP11 PUSH1 0x40 MLOAD SWAP13 DUP14 MSTORE PUSH1 0x20 DUP14 ADD MSTORE PUSH1 0x1 PUSH1 0xA0 SHL PUSH1 0x1 SWAP1 SUB DUP2 AND PUSH1 0x40 DUP14 ADD MSTORE PUSH1 0x60 DUP13 ADD DUP2 PUSH1 0xA0 SHR PUSH1 0xFF AND SWAP1 PUSH2 0x2756 SWAP2 PUSH2 0x4893 JUMP JUMPDEST DUP1 PUSH1 0xA8 SHR PUSH1 0xFF AND ISZERO ISZERO PUSH1 0x80 DUP14 ADD MSTORE PUSH1 0xB0 SHR PUSH1 0xFF AND ISZERO ISZERO PUSH1 0xA0 DUP13 ADD MSTORE PUSH1 0xC0 DUP12 ADD MSTORE PUSH1 0xE0 DUP11 ADD MSTORE PUSH2 0x100 DUP10 ADD MSTORE PUSH2 0x120 DUP9 ADD MSTORE PUSH2 0x140 DUP8 ADD MSTORE PUSH2 0x160 DUP7 ADD MSTORE PUSH2 0x180 DUP6 ADD MSTORE PUSH2 0x1A0 DUP5 ADD MSTORE PUSH2 0x1C0 DUP4 ADD MSTORE PUSH2 0x1E0 DUP3 ADD PUSH2 0x27B3 SWAP2 PUSH2 0x48A0 JUMP JUMPDEST PUSH2 0x200 SWAP1 RETURN JUMPDEST POP CALLVALUE PUSH2 0x27B JUMPI PUSH1 0x20 CALLDATASIZE PUSH1 0x3 NOT ADD SLT PUSH2 0x27B JUMPI PUSH1 0x4 CALLDATALOAD DUP1 DUP3 MSTORE PUSH1 0x4 PUSH1 0x20 MSTORE PUSH1 0x40 DUP3 KECCAK256 SWAP1 PUSH1 0x1 DUP3 ADD SWAP2 PUSH1 0x1 DUP1 PUSH1 0xA0 SHL SUB DUP4 SLOAD AND CALLER EQ DUP1 ISZERO PUSH2 0x2879 JUMPI JUMPDEST PUSH2 0x27FC SWAP1 PUSH2 0x4C70 JUMP JUMPDEST PUSH1 0x2 DUP2 ADD SWAP4 PUSH1 0xFF DUP6 SLOAD DUP2 DUP2 PUSH1 0xB0 SHR AND ISZERO DUP1 PUSH2 0x286C JUMPI JUMPDEST PUSH2 0x281B SWAP1 PUSH2 0x4F69 JUMP JUMPDEST PUSH1 0xA0 SHR AND SWAP1 PUSH1 0x3 DUP3 LT ISZERO PUSH2 0x12A2 JUMPI POP PUSH0 DUP1 MLOAD PUSH1 0x20 PUSH2 0x57C5 DUP4 CODECOPY DUP2 MLOAD SWAP2 MSTORE SWAP2 PUSH2 0x2848 PUSH1 0x2 PUSH2 0x600 SWAP4 EQ PUSH2 0x4F9B JUMP JUMPDEST DUP1 SLOAD PUSH1 0x9 DUP3 ADD SLOAD PUSH1 0x5 DUP4 ADD SLOAD PUSH2 0x25B1 SWAP3 SWAP1 SWAP2 PUSH1 0x1 PUSH1 0x1 PUSH1 0xA0 SHL SUB SWAP1 DUP2 AND SWAP2 AND PUSH2 0x564E JUMP JUMPDEST POP PUSH1 0xA8 DUP2 SWAP1 SHR DUP3 AND PUSH2 0x2812 JUMP JUMPDEST POP DUP1 SLOAD PUSH1 0x1 PUSH1 0x1 PUSH1 0xA0 SHL SUB AND CALLER EQ PUSH2 0x27F3 JUMP JUMPDEST POP CALLVALUE PUSH2 0x27B JUMPI PUSH1 0x40 CALLDATASIZE PUSH1 0x3 NOT ADD SLT PUSH2 0x27B JUMPI PUSH1 0x20 PUSH2 0x2DB PUSH2 0x28AB PUSH2 0x47D0 JUMP JUMPDEST PUSH1 0x4 CALLDATALOAD PUSH2 0x5203 JUMP JUMPDEST POP CALLVALUE PUSH2 0x27B JUMPI PUSH1 0x20 CALLDATASIZE PUSH1 0x3 NOT ADD SLT PUSH2 0x27B JUMPI PUSH1 0x20 SWAP1 PUSH1 0x40 SWAP1 PUSH1 0x1 PUSH1 0x1 PUSH1 0xA0 SHL SUB PUSH2 0x28DB PUSH2 0x4738 JUMP JUMPDEST AND DUP2 MSTORE PUSH1 0x1 DUP4 MSTORE DUP2 DUP2 KECCAK256 DUP2 DUP1 MSTORE DUP4 MSTORE KECCAK256 SLOAD PUSH1 0x40 MLOAD SWAP1 DUP2 MSTORE RETURN JUMPDEST POP PUSH2 0x28FE CALLDATASIZE PUSH2 0x47DF JUMP JUMPDEST DUP3 DUP5 SWAP4 SWAP3 SWAP5 MSTORE PUSH1 0x4 PUSH1 0x20 MSTORE PUSH1 0x40 DUP4 KECCAK256 SWAP4 PUSH1 0x1 DUP6 ADD SWAP4 PUSH2 0x2927 PUSH1 0x1 DUP1 PUSH1 0xA0 SHL SUB DUP7 SLOAD AND CALLER EQ PUSH2 0x4C70 JUMP JUMPDEST PUSH20 0x0 DUP1 EXTCODESIZE ISZERO PUSH2 0xFEC JUMPI DUP2 PUSH1 0x40 MLOAD DUP1 SWAP3 PUSH4 0x252A867 PUSH1 0xE5 SHL DUP3 MSTORE DUP2 DUP1 PUSH2 0x2962 DUP13 PUSH1 0x4 DUP4 ADD PUSH2 0x4CA1 JUMP JUMPDEST SUB SWAP2 GAS DELEGATECALL DUP1 ISZERO PUSH2 0xFE1 JUMPI SWAP1 DUP3 SWAP2 PUSH2 0x2C16 JUMPI JUMPDEST POP POP PUSH1 0xA DUP7 ADD DUP1 SLOAD CALLER PUSH0 SWAP1 DUP2 MSTORE PUSH1 0x1 PUSH1 0x20 SWAP1 DUP2 MSTORE PUSH1 0x40 DUP1 DUP4 KECCAK256 PUSH1 0x1 PUSH1 0x1 PUSH1 0xA0 SHL SUB SWAP1 SWAP5 AND DUP1 DUP5 MSTORE SWAP4 SWAP1 SWAP2 MSTORE SWAP1 KECCAK256 SLOAD SWAP2 SWAP3 SWAP1 SWAP2 SWAP5 ISZERO PUSH2 0x2A12 JUMPI POP POP DUP2 PUSH2 0x29CD SWAP2 PUSH2 0x1F17 DUP3 PUSH0 DUP1 MLOAD PUSH1 0x20 PUSH2 0x57E5 DUP4 CODECOPY DUP2 MLOAD SWAP2 MSTORE SWAP7 LT ISZERO PUSH2 0x49BF JUMP JUMPDEST POP PUSH1 0x6 DUP6 ADD PUSH2 0x29DD DUP3 DUP3 SLOAD PUSH2 0x4F2A JUMP JUMPDEST SWAP1 SSTORE DUP5 SLOAD SWAP4 SLOAD PUSH1 0x2 SWAP1 SWAP6 ADD SLOAD PUSH1 0x40 DUP1 MLOAD PUSH1 0x1 PUSH1 0x1 PUSH1 0xA0 SHL SUB SWAP3 DUP4 AND DUP2 MSTORE PUSH1 0x20 DUP2 ADD SWAP4 SWAP1 SWAP4 MSTORE SWAP6 DUP2 AND SWAP6 SWAP5 AND SWAP4 DUP2 SWAP1 DUP2 ADD PUSH2 0x600 JUMP JUMPDEST SWAP1 SWAP4 DUP4 DUP2 LT PUSH2 0x2A38 JUMPI JUMPDEST POP POP PUSH0 DUP1 MLOAD PUSH1 0x20 PUSH2 0x57E5 DUP4 CODECOPY DUP2 MLOAD SWAP2 MSTORE SWAP3 POP DUP2 PUSH2 0x29CD SWAP2 PUSH2 0x1F17 JUMP JUMPDEST PUSH2 0x2A42 SWAP1 DUP5 PUSH2 0x4D88 JUMP JUMPDEST SWAP2 PUSH2 0x2A53 PUSH1 0xFF DUP4 SLOAD PUSH1 0xA0 SHR AND PUSH2 0x498E JUMP JUMPDEST PUSH2 0x2A5E DUP4 ISZERO ISZERO PUSH2 0x4E91 JUMP JUMPDEST PUSH1 0x2 SLOAD SWAP2 PUSH1 0x40 MLOAD SWAP3 PUSH4 0x1C8F0847 PUSH1 0xE0 SHL DUP5 MSTORE DUP5 PUSH1 0x4 DUP6 ADD MSTORE PUSH1 0x24 DUP5 ADD MSTORE PUSH1 0x20 DUP4 PUSH1 0x44 DUP2 PUSH20 0x0 GAS DELEGATECALL SWAP3 DUP4 ISZERO PUSH2 0x1D6D JUMPI DUP2 SWAP4 PUSH2 0x2BE2 JUMPI JUMPDEST POP DUP6 PUSH2 0x2B1D JUMPI POP PUSH2 0x2AB7 DUP3 DUP5 PUSH2 0x4F2A JUMP JUMPDEST CALLVALUE SUB PUSH2 0x1427 JUMPI DUP5 DUP4 DUP6 SWAP4 PUSH2 0x2ADD PUSH2 0x29CD SWAP7 PUSH0 DUP1 MLOAD PUSH1 0x20 PUSH2 0x57E5 DUP4 CODECOPY DUP2 MLOAD SWAP2 MSTORE SWAP10 CALLER PUSH2 0x55F3 JUMP JUMPDEST POP PUSH1 0x3 SLOAD PUSH2 0x2AF7 SWAP1 DUP3 SWAP1 DUP6 SWAP1 PUSH1 0x1 PUSH1 0x1 PUSH1 0xA0 SHL SUB AND PUSH2 0x55F3 JUMP JUMPDEST POP JUMPDEST PUSH1 0x40 MLOAD SWAP2 DUP3 MSTORE PUSH1 0x20 DUP3 ADD MSTORE PUSH0 DUP1 MLOAD PUSH1 0x20 PUSH2 0x5825 DUP4 CODECOPY DUP2 MLOAD SWAP2 MSTORE PUSH1 0x40 CALLER SWAP3 LOG3 SWAP2 PUSH2 0x2A1C JUMP JUMPDEST PUSH2 0x2B27 DUP4 DUP6 PUSH2 0x4F2A JUMP JUMPDEST PUSH1 0x40 MLOAD SWAP1 PUSH4 0x23B872DD PUSH1 0xE0 SHL DUP3 MSTORE CALLER PUSH1 0x4 DUP4 ADD MSTORE ADDRESS PUSH1 0x24 DUP4 ADD MSTORE PUSH1 0x44 DUP3 ADD MSTORE PUSH1 0x20 DUP2 PUSH1 0x64 DUP2 DUP6 DUP12 GAS CALL SWAP2 DUP3 ISZERO PUSH2 0xB00 JUMPI DUP1 SWAP3 PUSH2 0x2BA5 JUMPI JUMPDEST POP POP ISZERO PUSH2 0x14D1 JUMPI DUP5 DUP4 DUP6 SWAP4 PUSH2 0x2B85 PUSH2 0x29CD SWAP7 PUSH0 DUP1 MLOAD PUSH1 0x20 PUSH2 0x57E5 DUP4 CODECOPY DUP2 MLOAD SWAP2 MSTORE SWAP10 CALLER PUSH2 0x55F3 JUMP JUMPDEST POP PUSH1 0x3 SLOAD PUSH2 0x2B9F SWAP1 DUP3 SWAP1 DUP6 SWAP1 PUSH1 0x1 PUSH1 0x1 PUSH1 0xA0 SHL SUB AND PUSH2 0x55F3 JUMP JUMPDEST POP PUSH2 0x2AF9 JUMP JUMPDEST SWAP1 SWAP2 POP PUSH1 0x20 DUP3 RETURNDATASIZE PUSH1 0x20 GT PUSH2 0x2BDA JUMPI JUMPDEST DUP2 PUSH2 0x2BC1 PUSH1 0x20 SWAP4 DUP4 PUSH2 0x4A59 JUMP JUMPDEST DUP2 ADD SUB SLT PUSH2 0x27B JUMPI POP PUSH2 0x2BD3 SWAP1 PUSH2 0x4A8F JUMP JUMPDEST PUSH0 DUP1 PUSH2 0x2B5E JUMP JUMPDEST RETURNDATASIZE SWAP2 POP PUSH2 0x2BB4 JUMP JUMPDEST SWAP1 SWAP3 POP PUSH1 0x20 DUP2 RETURNDATASIZE PUSH1 0x20 GT PUSH2 0x2C0E JUMPI JUMPDEST DUP2 PUSH2 0x2BFE PUSH1 0x20 SWAP4 DUP4 PUSH2 0x4A59 JUMP JUMPDEST DUP2 ADD SUB SLT PUSH2 0xAB4 JUMPI MLOAD SWAP2 PUSH0 PUSH2 0x2AA6 JUMP JUMPDEST RETURNDATASIZE SWAP2 POP PUSH2 0x2BF1 JUMP JUMPDEST DUP2 PUSH2 0x2C20 SWAP2 PUSH2 0x4A59 JUMP JUMPDEST PUSH2 0x27B JUMPI DUP1 PUSH0 PUSH2 0x2974 JUMP JUMPDEST POP CALLVALUE PUSH2 0x27B JUMPI PUSH2 0x2C3A CALLDATASIZE PUSH2 0x4802 JUMP JUMPDEST DUP4 DUP6 SWAP5 SWAP4 SWAP3 SWAP5 MSTORE PUSH1 0x4 PUSH1 0x20 MSTORE PUSH1 0x40 DUP6 KECCAK256 SWAP1 PUSH1 0x1 DUP3 ADD SWAP5 PUSH2 0x2C64 PUSH1 0x1 DUP1 PUSH1 0xA0 SHL SUB DUP8 SLOAD AND CALLER EQ PUSH2 0x4C70 JUMP JUMPDEST DUP7 PUSH20 0x0 DUP1 EXTCODESIZE ISZERO PUSH2 0xFEC JUMPI DUP2 PUSH1 0x40 MLOAD DUP1 SWAP3 PUSH4 0x252A867 PUSH1 0xE5 SHL DUP3 MSTORE DUP2 DUP1 PUSH2 0x2CA0 DUP11 PUSH1 0x4 DUP4 ADD PUSH2 0x4CA1 JUMP JUMPDEST SUB SWAP2 GAS DELEGATECALL DUP1 ISZERO PUSH2 0xFE1 JUMPI PUSH2 0x2FB7 JUMPI JUMPDEST POP POP PUSH1 0x2 DUP4 ADD SWAP7 PUSH2 0x2CC7 PUSH1 0xFF DUP10 SLOAD PUSH1 0xA8 SHR AND ISZERO PUSH2 0x4DBF JUMP JUMPDEST CALLER DUP2 MSTORE PUSH1 0x1 PUSH1 0x20 MSTORE PUSH1 0x40 DUP2 KECCAK256 PUSH1 0x1 DUP1 PUSH1 0xA0 SHL SUB DUP7 AND PUSH0 MSTORE PUSH1 0x20 MSTORE PUSH2 0x2CF1 DUP3 PUSH1 0x40 PUSH0 KECCAK256 SLOAD LT ISZERO PUSH2 0x49BF JUMP JUMPDEST PUSH2 0x2CFC DUP3 DUP7 CALLER PUSH2 0x552E JUMP JUMPDEST POP DUP3 PUSH2 0x2F9C JUMPI JUMPDEST CALLER DUP2 MSTORE PUSH1 0x1 PUSH1 0x20 MSTORE PUSH1 0x40 DUP2 KECCAK256 PUSH1 0x1 DUP1 PUSH1 0xA0 SHL SUB DUP7 AND PUSH0 MSTORE PUSH1 0x20 MSTORE PUSH1 0x40 PUSH0 KECCAK256 SLOAD DUP3 DUP2 LT PUSH2 0x2DB3 JUMPI JUMPDEST POP POP SWAP1 DUP2 DUP5 PUSH2 0x2D4B PUSH1 0x20 SWAP6 SWAP5 PUSH0 DUP1 MLOAD PUSH1 0x20 PUSH2 0x5845 DUP4 CODECOPY DUP2 MLOAD SWAP2 MSTORE SWAP8 CALLER PUSH2 0x552E JUMP JUMPDEST POP DUP9 SLOAD PUSH1 0xFF PUSH1 0xA8 SHL NOT AND PUSH1 0x1 PUSH1 0xA8 SHL OR DUP10 SSTORE PUSH1 0xA DUP5 ADD DUP1 SLOAD PUSH1 0x1 PUSH1 0x1 PUSH1 0xA0 SHL SUB NOT AND PUSH1 0x1 PUSH1 0x1 PUSH1 0xA0 SHL SUB SWAP3 DUP4 AND OR SWAP1 SSTORE PUSH1 0x4 DUP5 ADD DUP3 SWAP1 SSTORE PUSH1 0x6 DUP5 ADD SWAP2 SWAP1 SWAP2 SSTORE PUSH1 0x8 DUP4 ADD SWAP2 SWAP1 SWAP2 SSTORE SWAP1 SLOAD SWAP5 SLOAD SWAP6 SLOAD PUSH1 0x40 MLOAD SWAP1 DUP3 AND DUP2 MSTORE SWAP6 DUP2 AND SWAP6 SWAP5 AND SWAP4 LOG4 PUSH1 0x20 PUSH1 0x40 MLOAD PUSH1 0x1 DUP2 MSTORE RETURN JUMPDEST PUSH2 0x2DC1 SWAP1 DUP4 SWAP3 SWAP6 SWAP5 SWAP4 PUSH2 0x4D88 JUMP JUMPDEST SWAP5 PUSH2 0x2DD2 PUSH1 0xFF DUP7 SLOAD PUSH1 0xA0 SHR AND PUSH2 0x498E JUMP JUMPDEST PUSH2 0x2DDD DUP7 ISZERO ISZERO PUSH2 0x4E91 JUMP JUMPDEST PUSH1 0x2 SLOAD SWAP5 PUSH1 0x40 MLOAD SWAP6 PUSH4 0x1C8F0847 PUSH1 0xE0 SHL DUP8 MSTORE DUP8 PUSH1 0x4 DUP9 ADD MSTORE PUSH1 0x24 DUP8 ADD MSTORE PUSH1 0x20 DUP7 PUSH1 0x44 DUP2 PUSH20 0x0 GAS DELEGATECALL SWAP6 DUP7 ISZERO PUSH2 0x1D6D JUMPI DUP2 SWAP7 PUSH2 0x2F68 JUMPI JUMPDEST POP PUSH1 0x1 PUSH1 0x1 PUSH1 0xA0 SHL SUB DUP3 AND SWAP1 DUP2 PUSH2 0x2EA6 JUMPI POP PUSH2 0x2E41 DUP7 DUP9 PUSH2 0x4F2A JUMP JUMPDEST PUSH2 0x1427 JUMPI DUP7 PUSH1 0x20 SWAP7 PUSH2 0x2E62 PUSH0 DUP1 MLOAD PUSH1 0x20 PUSH2 0x5845 DUP4 CODECOPY DUP2 MLOAD SWAP2 MSTORE SWAP10 DUP6 CALLER PUSH2 0x55F3 JUMP JUMPDEST POP PUSH1 0x3 SLOAD PUSH2 0x2E7C SWAP1 DUP3 SWAP1 DUP7 SWAP1 PUSH1 0x1 PUSH1 0x1 PUSH1 0xA0 SHL SUB AND PUSH2 0x55F3 JUMP JUMPDEST POP JUMPDEST PUSH1 0x40 MLOAD SWAP2 DUP3 MSTORE DUP8 DUP3 ADD MSTORE PUSH0 DUP1 MLOAD PUSH1 0x20 PUSH2 0x5825 DUP4 CODECOPY DUP2 MLOAD SWAP2 MSTORE PUSH1 0x40 CALLER SWAP3 LOG3 SWAP5 DUP2 SWAP3 SWAP4 SWAP5 POP PUSH2 0x2D2A JUMP JUMPDEST PUSH2 0x2EB0 DUP8 DUP10 PUSH2 0x4F2A JUMP JUMPDEST PUSH1 0x40 MLOAD SWAP1 PUSH4 0x23B872DD PUSH1 0xE0 SHL DUP3 MSTORE CALLER PUSH1 0x4 DUP4 ADD MSTORE ADDRESS PUSH1 0x24 DUP4 ADD MSTORE PUSH1 0x44 DUP3 ADD MSTORE PUSH1 0x20 DUP2 PUSH1 0x64 DUP2 DUP6 DUP8 GAS CALL SWAP2 DUP3 ISZERO PUSH2 0xB00 JUMPI DUP1 SWAP3 PUSH2 0x2F2B JUMPI JUMPDEST POP POP ISZERO PUSH2 0x14D1 JUMPI DUP7 PUSH1 0x20 SWAP7 PUSH2 0x2F0B PUSH0 DUP1 MLOAD PUSH1 0x20 PUSH2 0x5845 DUP4 CODECOPY DUP2 MLOAD SWAP2 MSTORE SWAP10 DUP6 CALLER PUSH2 0x55F3 JUMP JUMPDEST POP PUSH1 0x3 SLOAD PUSH2 0x2F25 SWAP1 DUP3 SWAP1 DUP7 SWAP1 PUSH1 0x1 PUSH1 0x1 PUSH1 0xA0 SHL SUB AND PUSH2 0x55F3 JUMP JUMPDEST POP PUSH2 0x2E7E JUMP JUMPDEST SWAP1 SWAP2 POP PUSH1 0x20 DUP3 RETURNDATASIZE PUSH1 0x20 GT PUSH2 0x2F60 JUMPI JUMPDEST DUP2 PUSH2 0x2F47 PUSH1 0x20 SWAP4 DUP4 PUSH2 0x4A59 JUMP JUMPDEST DUP2 ADD SUB SLT PUSH2 0x27B JUMPI POP PUSH2 0x2F59 SWAP1 PUSH2 0x4A8F JUMP JUMPDEST PUSH0 DUP1 PUSH2 0x2EE7 JUMP JUMPDEST RETURNDATASIZE SWAP2 POP PUSH2 0x2F3A JUMP JUMPDEST SWAP1 SWAP6 POP PUSH1 0x20 DUP2 RETURNDATASIZE PUSH1 0x20 GT PUSH2 0x2F94 JUMPI JUMPDEST DUP2 PUSH2 0x2F84 PUSH1 0x20 SWAP4 DUP4 PUSH2 0x4A59 JUMP JUMPDEST DUP2 ADD SUB SLT PUSH2 0xAB4 JUMPI MLOAD SWAP5 PUSH0 PUSH2 0x2E25 JUMP JUMPDEST RETURNDATASIZE SWAP2 POP PUSH2 0x2F77 JUMP JUMPDEST DUP8 SLOAD PUSH2 0x2FB2 SWAP1 PUSH1 0x1 PUSH1 0x1 PUSH1 0xA0 SHL SUB AND ISZERO ISZERO PUSH2 0x4DF1 JUMP JUMPDEST PUSH2 0x2D03 JUMP JUMPDEST DUP2 PUSH2 0x2FC1 SWAP2 PUSH2 0x4A59 JUMP JUMPDEST PUSH2 0x2FCC JUMPI DUP7 PUSH0 PUSH2 0x2CAF JUMP JUMPDEST DUP7 DUP1 REVERT JUMPDEST POP CALLVALUE PUSH2 0x27B JUMPI PUSH1 0x40 CALLDATASIZE PUSH1 0x3 NOT ADD SLT PUSH2 0x27B JUMPI PUSH1 0x4 CALLDATALOAD PUSH2 0x2FED PUSH2 0x47D0 JUMP JUMPDEST DUP2 DUP4 MSTORE PUSH1 0x4 PUSH1 0x20 MSTORE PUSH1 0x40 DUP4 KECCAK256 DUP1 SLOAD PUSH1 0x1 PUSH1 0x1 PUSH1 0xA0 SHL SUB AND CALLER EQ DUP1 ISZERO PUSH2 0x331C JUMPI JUMPDEST PUSH2 0x3016 SWAP1 PUSH2 0x4C70 JUMP JUMPDEST DUP4 PUSH20 0x0 DUP1 EXTCODESIZE ISZERO PUSH2 0xFEC JUMPI DUP2 PUSH1 0x40 MLOAD DUP1 SWAP3 PUSH4 0x252A867 PUSH1 0xE5 SHL DUP3 MSTORE DUP2 DUP1 PUSH2 0x3052 DUP9 PUSH1 0x4 DUP4 ADD PUSH2 0x4CA1 JUMP JUMPDEST SUB SWAP2 GAS DELEGATECALL DUP1 ISZERO PUSH2 0xFE1 JUMPI PUSH2 0x3303 JUMPI JUMPDEST POP POP PUSH1 0x5 DUP2 ADD SLOAD SWAP1 PUSH1 0x1 DUP1 PUSH1 0xA0 SHL SUB PUSH1 0x9 DUP3 ADD SLOAD AND PUSH1 0x6 DUP3 ADD SLOAD SWAP3 PUSH1 0x1 DUP1 PUSH1 0xA0 SHL SUB PUSH1 0xA DUP5 ADD SLOAD AND SWAP3 PUSH1 0x7 DUP2 ADD SLOAD SWAP6 PUSH1 0x8 DUP3 ADD SLOAD SWAP5 PUSH20 0x0 SWAP6 PUSH1 0x40 MLOAD SWAP9 PUSH4 0x1C8F0847 PUSH1 0xE0 SHL DUP11 MSTORE DUP6 PUSH1 0x4 DUP12 ADD MSTORE PUSH1 0x24 DUP11 ADD MSTORE PUSH1 0x20 DUP10 PUSH1 0x44 DUP2 DUP11 GAS DELEGATECALL SWAP9 DUP10 ISZERO PUSH2 0xF7D JUMPI DUP12 SWAP10 PUSH2 0x32CE JUMPI JUMPDEST POP PUSH1 0x20 SWAP1 PUSH1 0x44 PUSH1 0x40 MLOAD DUP1 SWAP10 DUP2 SWAP4 PUSH4 0x1C8F0847 PUSH1 0xE0 SHL DUP4 MSTORE DUP13 PUSH1 0x4 DUP5 ADD MSTORE PUSH1 0x24 DUP4 ADD MSTORE GAS DELEGATECALL SWAP6 DUP7 ISZERO PUSH2 0x32C3 JUMPI SWAP2 DUP11 SWAP2 DUP10 SWAP11 SWAP12 SWAP4 DUP13 SWAP11 SWAP6 SWAP5 SWAP9 PUSH2 0x3281 JUMPI JUMPDEST POP SWAP1 DUP8 DUP5 SWAP4 SWAP3 PUSH1 0x1 DUP13 SWAP9 SWAP8 SWAP7 ADD SWAP9 PUSH1 0x1 PUSH1 0xA0 SHL PUSH1 0x1 SWAP1 SUB DUP11 SLOAD AND DUP2 PUSH2 0x313D DUP10 DUP12 PUSH2 0x4D88 JUMP JUMPDEST SWAP1 PUSH2 0x3148 SWAP3 DUP8 PUSH2 0x55D5 JUMP JUMPDEST POP PUSH1 0x2 DUP7 ADD DUP1 SLOAD SWAP1 SWAP15 PUSH2 0x3166 SWAP3 SWAP1 SWAP2 PUSH1 0x1 PUSH1 0x1 PUSH1 0xA0 SHL SUB AND DUP7 PUSH2 0x55D5 JUMP JUMPDEST POP DUP5 SLOAD PUSH1 0x1 PUSH1 0x1 PUSH1 0xA0 SHL SUB AND DUP2 PUSH2 0x317D DUP14 DUP1 PUSH2 0x4D88 JUMP JUMPDEST SWAP1 PUSH2 0x3188 SWAP3 DUP7 PUSH2 0x55D5 JUMP JUMPDEST POP DUP13 SLOAD PUSH2 0x31A0 SWAP4 PUSH1 0x1 PUSH1 0x1 PUSH1 0xA0 SHL SUB SWAP1 SWAP2 AND SWAP1 PUSH2 0x55D5 JUMP JUMPDEST POP POP DUP9 SLOAD PUSH1 0xFF PUSH1 0xA0 SHL NOT DUP2 AND SWAP1 SWAP10 SSTORE SLOAD SWAP4 SLOAD PUSH1 0x40 MLOAD PUSH1 0x1 PUSH1 0x1 PUSH1 0xA0 SHL SUB SWAP2 DUP3 AND SWAP11 SWAP6 DUP3 AND SWAP10 SWAP2 SWAP1 SWAP2 AND SWAP7 DUP11 SWAP7 DUP11 SWAP7 DUP9 SWAP4 DUP9 SWAP4 SWAP2 SWAP3 SWAP1 SWAP2 DUP3 SWAP2 PUSH2 0x31E4 SWAP2 CALLER DUP15 DUP6 PUSH2 0x4D95 JUMP JUMPDEST SUB PUSH0 DUP1 MLOAD PUSH1 0x20 PUSH2 0x5785 DUP4 CODECOPY DUP2 MLOAD SWAP2 MSTORE SWAP2 LOG4 PUSH1 0x40 MLOAD SWAP2 DUP3 SWAP2 PUSH2 0x3207 SWAP2 CALLER DUP10 DUP6 PUSH2 0x4D95 JUMP JUMPDEST SUB PUSH32 0xF05D33634B730E763D232B482CF835A4481835F62D0A0973B42018A8EAD4F047 SWAP2 LOG4 PUSH1 0x40 DUP1 MLOAD PUSH1 0x1 PUSH1 0x1 PUSH1 0xA0 SHL SUB SWAP3 SWAP1 SWAP3 AND DUP3 MSTORE CALLER PUSH1 0x20 DUP4 ADD MSTORE PUSH32 0xFAEE379435B6A0C297F1A08C66517FDC202DEBC6D275E6DD73630E3EBD1BDD97 SWAP2 LOG4 PUSH1 0x6 SLOAD PUSH2 0x3272 SWAP1 PUSH2 0x4C12 JUMP JUMPDEST PUSH1 0x6 SSTORE PUSH1 0x40 MLOAD PUSH1 0x1 DUP2 MSTORE PUSH1 0x20 SWAP1 RETURN JUMPDEST SWAP4 SWAP3 SWAP10 POP SWAP7 POP SWAP4 SWAP3 POP PUSH1 0x20 DUP3 RETURNDATASIZE PUSH1 0x20 GT PUSH2 0x32BB JUMPI JUMPDEST DUP2 PUSH2 0x32A3 PUSH1 0x20 SWAP4 DUP4 PUSH2 0x4A59 JUMP JUMPDEST DUP2 ADD SUB SLT PUSH2 0xAB4 JUMPI SWAP1 MLOAD DUP10 SWAP8 SWAP1 SWAP6 SWAP3 SWAP4 DUP10 SWAP4 DUP10 PUSH2 0x3118 JUMP JUMPDEST RETURNDATASIZE SWAP2 POP PUSH2 0x3296 JUMP JUMPDEST PUSH1 0x40 MLOAD RETURNDATASIZE DUP13 DUP3 RETURNDATACOPY RETURNDATASIZE SWAP1 REVERT JUMPDEST SWAP1 SWAP9 POP PUSH1 0x20 DUP2 RETURNDATASIZE PUSH1 0x20 GT PUSH2 0x32FB JUMPI JUMPDEST DUP2 PUSH2 0x32EA PUSH1 0x20 SWAP4 DUP4 PUSH2 0x4A59 JUMP JUMPDEST DUP2 ADD SUB SLT PUSH2 0xAB4 JUMPI MLOAD SWAP8 PUSH1 0x20 PUSH2 0x30DC JUMP JUMPDEST RETURNDATASIZE SWAP2 POP PUSH2 0x32DD JUMP JUMPDEST DUP2 PUSH2 0x330D SWAP2 PUSH2 0x4A59 JUMP JUMPDEST PUSH2 0x3318 JUMPI DUP4 PUSH0 PUSH2 0x3061 JUMP JUMPDEST DUP4 DUP1 REVERT JUMPDEST POP PUSH1 0x2 DUP2 ADD SLOAD PUSH1 0x1 PUSH1 0x1 PUSH1 0xA0 SHL SUB AND CALLER EQ PUSH2 0x300D JUMP JUMPDEST POP CALLVALUE PUSH2 0x27B JUMPI PUSH1 0x40 CALLDATASIZE PUSH1 0x3 NOT ADD SLT PUSH2 0x27B JUMPI PUSH1 0x20 PUSH2 0x2DB PUSH2 0x3351 PUSH2 0x47D0 JUMP JUMPDEST PUSH1 0x4 CALLDATALOAD PUSH2 0x4FFE JUMP JUMPDEST POP CALLVALUE PUSH2 0x27B JUMPI PUSH1 0x20 CALLDATASIZE PUSH1 0x3 NOT ADD SLT PUSH2 0x27B JUMPI PUSH1 0x40 PUSH1 0xA0 SWAP2 PUSH1 0x4 CALLDATALOAD DUP2 MSTORE PUSH1 0xA PUSH1 0x20 MSTORE KECCAK256 PUSH1 0xFF PUSH1 0x1 DUP3 SLOAD SWAP3 ADD SLOAD PUSH1 0x40 MLOAD SWAP3 DUP4 MSTORE PUSH1 0x1 DUP1 DUP6 SHL SUB DUP2 AND PUSH1 0x20 DUP5 ADD MSTORE DUP2 DUP2 DUP6 SHR AND ISZERO ISZERO PUSH1 0x40 DUP5 ADD MSTORE DUP2 DUP2 PUSH1 0xA8 SHR AND ISZERO ISZERO PUSH1 0x60 DUP5 ADD MSTORE PUSH1 0xB0 SHR AND ISZERO ISZERO PUSH1 0x80 DUP3 ADD MSTORE RETURN JUMPDEST POP CALLVALUE PUSH2 0x27B JUMPI PUSH1 0x20 CALLDATASIZE PUSH1 0x3 NOT ADD SLT PUSH2 0x27B JUMPI DUP1 PUSH2 0x1E0 PUSH1 0x40 MLOAD PUSH2 0x33DF DUP2 PUSH2 0x4A20 JUMP JUMPDEST DUP3 DUP2 MSTORE DUP3 PUSH1 0x20 DUP3 ADD MSTORE DUP3 PUSH1 0x40 DUP3 ADD MSTORE DUP3 PUSH1 0x60 DUP3 ADD MSTORE DUP3 PUSH1 0x80 DUP3 ADD MSTORE DUP3 PUSH1 0xA0 DUP3 ADD MSTORE DUP3 PUSH1 0xC0 DUP3 ADD MSTORE DUP3 PUSH1 0xE0 DUP3 ADD MSTORE DUP3 PUSH2 0x100 DUP3 ADD MSTORE DUP3 PUSH2 0x120 DUP3 ADD MSTORE DUP3 PUSH2 0x140 DUP3 ADD MSTORE DUP3 PUSH2 0x160 DUP3 ADD MSTORE DUP3 PUSH2 0x180 DUP3 ADD MSTORE DUP3 PUSH2 0x1A0 DUP3 ADD MSTORE DUP3 PUSH2 0x1C0 DUP3 ADD MSTORE ADD MSTORE PUSH1 0x4 CALLDATALOAD DUP2 MSTORE PUSH1 0x4 PUSH1 0x20 MSTORE PUSH1 0x40 DUP2 KECCAK256 SWAP1 PUSH1 0x40 MLOAD SWAP1 PUSH2 0x345B DUP3 PUSH2 0x4A20 JUMP JUMPDEST DUP3 SLOAD PUSH1 0x1 PUSH1 0x1 PUSH1 0xA0 SHL SUB SWAP1 DUP2 AND DUP4 MSTORE PUSH1 0x1 DUP5 ADD SLOAD DUP2 AND PUSH1 0x20 DUP5 ADD MSTORE PUSH1 0x2 DUP5 ADD SLOAD SWAP1 DUP2 AND PUSH1 0x40 DUP5 ADD MSTORE SWAP1 PUSH1 0xA0 DUP3 SWAP1 SHR PUSH1 0xFF AND SWAP1 PUSH1 0x3 DUP3 LT ISZERO PUSH2 0x12A2 JUMPI POP PUSH1 0xC PUSH2 0x200 SWAP5 PUSH1 0xFF PUSH2 0x3540 SWAP5 DUP2 SWAP5 PUSH1 0x60 DUP9 ADD MSTORE DUP2 DUP2 PUSH1 0xA8 SHR AND ISZERO ISZERO PUSH1 0x80 DUP9 ADD MSTORE PUSH1 0xB0 SHR AND ISZERO ISZERO PUSH1 0xA0 DUP7 ADD MSTORE PUSH1 0x3 DUP2 ADD SLOAD PUSH1 0xC0 DUP7 ADD MSTORE PUSH1 0x4 DUP2 ADD SLOAD PUSH1 0xE0 DUP7 ADD MSTORE PUSH1 0x5 DUP2 ADD SLOAD PUSH2 0x100 DUP7 ADD MSTORE PUSH1 0x6 DUP2 ADD SLOAD PUSH2 0x120 DUP7 ADD MSTORE PUSH1 0x7 DUP2 ADD SLOAD PUSH2 0x140 DUP7 ADD MSTORE PUSH1 0x8 DUP2 ADD SLOAD PUSH2 0x160 DUP7 ADD MSTORE PUSH1 0x1 DUP1 PUSH1 0xA0 SHL SUB PUSH1 0x9 DUP3 ADD SLOAD AND PUSH2 0x180 DUP7 ADD MSTORE PUSH1 0x1 DUP1 PUSH1 0xA0 SHL SUB PUSH1 0xA DUP3 ADD SLOAD AND PUSH2 0x1A0 DUP7 ADD MSTORE PUSH1 0xB DUP2 ADD SLOAD PUSH2 0x1C0 DUP7 ADD MSTORE ADD SLOAD AND PUSH2 0x1E0 DUP4 ADD PUSH2 0x4E23 JUMP JUMPDEST PUSH2 0x354D PUSH1 0x40 MLOAD DUP1 SWAP3 PUSH2 0x48AD JUMP JUMPDEST RETURN JUMPDEST POP PUSH1 0x40 CALLDATASIZE PUSH1 0x3 NOT ADD SLT PUSH2 0x27B JUMPI PUSH2 0x3564 PUSH2 0x4738 JUMP JUMPDEST PUSH1 0x24 CALLDATALOAD PUSH2 0x3577 PUSH1 0xFF DUP5 SLOAD PUSH1 0xA0 SHR AND PUSH2 0x498E JUMP JUMPDEST PUSH2 0x3582 DUP2 ISZERO ISZERO PUSH2 0x4E91 JUMP JUMPDEST PUSH1 0x2 SLOAD PUSH1 0x40 MLOAD SWAP1 PUSH4 0x1C8F0847 PUSH1 0xE0 SHL DUP3 MSTORE DUP3 PUSH1 0x4 DUP4 ADD MSTORE PUSH1 0x24 DUP3 ADD MSTORE PUSH1 0x20 DUP2 PUSH1 0x44 DUP2 PUSH20 0x0 GAS DELEGATECALL SWAP1 DUP2 ISZERO PUSH2 0x3707 JUMPI DUP5 SWAP2 PUSH2 0x36D5 JUMPI JUMPDEST POP PUSH1 0x1 PUSH1 0x1 PUSH1 0xA0 SHL SUB DUP4 AND SWAP3 DUP4 PUSH2 0x362F JUMPI PUSH2 0x35E4 DUP3 DUP5 PUSH2 0x4F2A JUMP JUMPDEST CALLVALUE SUB PUSH2 0x1427 JUMPI DUP2 DUP2 PUSH2 0x35FA DUP6 PUSH2 0x360C SWAP5 CALLER PUSH2 0x55F3 JUMP JUMPDEST POP PUSH1 0x3 SLOAD PUSH1 0x1 PUSH1 0x1 PUSH1 0xA0 SHL SUB AND PUSH2 0x55F3 JUMP JUMPDEST POP JUMPDEST PUSH1 0x40 MLOAD SWAP2 DUP3 MSTORE PUSH1 0x20 DUP3 ADD MSTORE PUSH0 DUP1 MLOAD PUSH1 0x20 PUSH2 0x5825 DUP4 CODECOPY DUP2 MLOAD SWAP2 MSTORE PUSH1 0x40 CALLER SWAP3 LOG3 DUP1 RETURN JUMPDEST PUSH2 0x3639 DUP3 DUP5 PUSH2 0x4F2A JUMP JUMPDEST PUSH1 0x40 MLOAD SWAP1 PUSH4 0x23B872DD PUSH1 0xE0 SHL DUP3 MSTORE CALLER PUSH1 0x4 DUP4 ADD MSTORE ADDRESS PUSH1 0x24 DUP4 ADD MSTORE PUSH1 0x44 DUP3 ADD MSTORE PUSH1 0x20 DUP2 PUSH1 0x64 DUP2 DUP10 DUP10 GAS CALL SWAP1 DUP2 ISZERO PUSH2 0x36CA JUMPI DUP7 SWAP2 PUSH2 0x368C JUMPI JUMPDEST POP ISZERO PUSH2 0x14D1 JUMPI DUP2 DUP2 PUSH2 0x35FA DUP6 PUSH2 0x3686 SWAP5 CALLER PUSH2 0x55F3 JUMP JUMPDEST POP PUSH2 0x360E JUMP JUMPDEST SWAP1 POP PUSH1 0x20 DUP2 RETURNDATASIZE PUSH1 0x20 GT PUSH2 0x36C2 JUMPI JUMPDEST DUP2 PUSH2 0x36A7 PUSH1 0x20 SWAP4 DUP4 PUSH2 0x4A59 JUMP JUMPDEST DUP2 ADD SUB SLT PUSH2 0x36BE JUMPI PUSH2 0x36B8 SWAP1 PUSH2 0x4A8F JUMP JUMPDEST PUSH0 PUSH2 0x3670 JUMP JUMPDEST DUP6 DUP1 REVERT JUMPDEST RETURNDATASIZE SWAP2 POP PUSH2 0x369A JUMP JUMPDEST PUSH1 0x40 MLOAD RETURNDATASIZE DUP9 DUP3 RETURNDATACOPY RETURNDATASIZE SWAP1 REVERT JUMPDEST SWAP1 POP PUSH1 0x20 DUP2 RETURNDATASIZE PUSH1 0x20 GT PUSH2 0x36FF JUMPI JUMPDEST DUP2 PUSH2 0x36F0 PUSH1 0x20 SWAP4 DUP4 PUSH2 0x4A59 JUMP JUMPDEST DUP2 ADD SUB SLT PUSH2 0xAB4 JUMPI MLOAD PUSH0 PUSH2 0x35C9 JUMP JUMPDEST RETURNDATASIZE SWAP2 POP PUSH2 0x36E3 JUMP JUMPDEST PUSH1 0x40 MLOAD RETURNDATASIZE DUP7 DUP3 RETURNDATACOPY RETURNDATASIZE SWAP1 REVERT JUMPDEST POP CALLVALUE PUSH2 0x27B JUMPI DUP1 PUSH1 0x3 NOT CALLDATASIZE ADD SLT PUSH2 0x27B JUMPI PUSH1 0xFF PUSH1 0x20 SWAP2 SLOAD PUSH1 0xA0 SHR AND PUSH1 0x40 MLOAD SWAP1 ISZERO ISZERO DUP2 MSTORE RETURN JUMPDEST POP CALLVALUE PUSH2 0x27B JUMPI PUSH1 0x20 CALLDATASIZE PUSH1 0x3 NOT ADD SLT PUSH2 0x27B JUMPI PUSH1 0x4 CALLDATALOAD DUP1 DUP3 MSTORE PUSH1 0x4 PUSH1 0x20 MSTORE PUSH1 0x40 DUP3 KECCAK256 SWAP2 PUSH1 0x1 DUP4 ADD SWAP3 PUSH2 0x3772 PUSH1 0x1 DUP1 PUSH1 0xA0 SHL SUB DUP6 SLOAD AND CALLER EQ PUSH2 0x4C70 JUMP JUMPDEST PUSH1 0x2 DUP2 ADD SWAP2 PUSH1 0xFF DUP4 SLOAD PUSH2 0x3789 DUP3 DUP3 PUSH1 0xA8 SHR AND PUSH2 0x4F37 JUMP JUMPDEST PUSH2 0x3798 DUP3 DUP3 PUSH1 0xB0 SHR AND ISZERO PUSH2 0x4F69 JUMP JUMPDEST PUSH1 0xA0 SHR AND SWAP1 PUSH1 0x3 DUP3 LT ISZERO PUSH2 0x12A2 JUMPI POP PUSH1 0x2 PUSH2 0x37B3 SWAP2 EQ PUSH2 0x4F9B JUMP JUMPDEST PUSH1 0xA DUP2 ADD SLOAD CALLER PUSH0 SWAP1 DUP2 MSTORE PUSH1 0x1 PUSH1 0x20 SWAP1 DUP2 MSTORE PUSH1 0x40 DUP1 DUP4 KECCAK256 PUSH1 0x1 PUSH1 0x1 PUSH1 0xA0 SHL SUB SWAP1 SWAP5 AND DUP1 DUP5 MSTORE SWAP4 SWAP1 SWAP2 MSTORE SWAP1 KECCAK256 SLOAD PUSH2 0x1B11 SWAP2 PUSH2 0x37F3 PUSH1 0x4 DUP6 ADD SLOAD DUP1 SWAP4 LT ISZERO PUSH2 0x49BF JUMP JUMPDEST CALLER PUSH2 0x552E JUMP JUMPDEST POP CALLVALUE PUSH2 0x27B JUMPI PUSH1 0x20 CALLDATASIZE PUSH1 0x3 NOT ADD SLT PUSH2 0x27B JUMPI PUSH1 0x4 CALLDATALOAD SWAP1 PUSH1 0x2 SLOAD PUSH1 0x40 MLOAD SWAP1 PUSH4 0x1C8F0847 PUSH1 0xE0 SHL DUP3 MSTORE DUP4 PUSH1 0x4 DUP4 ADD MSTORE PUSH1 0x24 DUP3 ADD MSTORE PUSH1 0x20 DUP2 PUSH1 0x44 DUP2 PUSH20 0x0 GAS DELEGATECALL SWAP2 DUP3 ISZERO PUSH2 0xB00 JUMPI SWAP2 PUSH2 0x3869 JUMPI JUMPDEST PUSH1 0x20 PUSH2 0x3861 DUP4 DUP6 PUSH2 0x4F2A JUMP JUMPDEST PUSH1 0x40 MLOAD SWAP1 DUP2 MSTORE RETURN JUMPDEST SWAP1 POP PUSH1 0x20 DUP2 RETURNDATASIZE PUSH1 0x20 GT PUSH2 0x3894 JUMPI JUMPDEST DUP2 PUSH2 0x3884 PUSH1 0x20 SWAP4 DUP4 PUSH2 0x4A59 JUMP JUMPDEST DUP2 ADD SUB SLT PUSH2 0xAB4 JUMPI MLOAD PUSH1 0x20 PUSH2 0x3855 JUMP JUMPDEST RETURNDATASIZE SWAP2 POP PUSH2 0x3877 JUMP JUMPDEST POP CALLVALUE PUSH2 0x27B JUMPI DUP1 PUSH1 0x3 NOT CALLDATASIZE ADD SLT PUSH2 0x27B JUMPI DUP1 SLOAD PUSH2 0x38C3 CALLER PUSH1 0x1 PUSH1 0x1 PUSH1 0xA0 SHL SUB DUP4 AND EQ PUSH2 0x4E2F JUMP JUMPDEST PUSH1 0xFF PUSH1 0xA0 SHL NOT AND PUSH1 0x1 PUSH1 0xA0 SHL OR DUP2 SSTORE PUSH1 0x40 MLOAD PUSH1 0x1 DUP2 MSTORE PUSH32 0x17904E4FE7D59BB4603C7C045BC275A05DA9EA3A4AC007FC80FFFEAF119186D SWAP1 PUSH1 0x20 SWAP1 LOG1 DUP1 RETURN JUMPDEST POP PUSH2 0x390C CALLDATASIZE PUSH2 0x4830 JUMP JUMPDEST SWAP2 SWAP3 SWAP1 SWAP6 SWAP5 SWAP4 PUSH1 0xFF DUP9 SLOAD PUSH1 0xA0 SHR AND SWAP3 PUSH2 0x3924 DUP5 PUSH2 0x498E JUMP JUMPDEST CALLER DUP10 MSTORE PUSH1 0x1 PUSH1 0x20 MSTORE PUSH1 0x40 DUP10 KECCAK256 PUSH1 0x1 DUP1 PUSH1 0xA0 SHL SUB DUP7 AND PUSH0 MSTORE PUSH1 0x20 MSTORE PUSH1 0x40 PUSH0 KECCAK256 SLOAD DUP3 DUP2 LT PUSH2 0x3BE7 JUMPI JUMPDEST POP PUSH2 0x200 SWAP4 POP PUSH2 0x3996 SWAP1 PUSH2 0x3960 DUP4 DUP8 CALLER PUSH2 0x552E JUMP JUMPDEST POP PUSH1 0x40 MLOAD PUSH4 0x652E83D7 PUSH1 0xE0 SHL DUP2 MSTORE PUSH20 0x0 SWAP10 SWAP1 SWAP7 DUP8 SWAP6 DUP7 SWAP6 DUP11 DUP13 CALLER PUSH1 0x4 DUP11 ADD PUSH2 0x4EC2 JUMP JUMPDEST SUB DUP2 DUP8 GAS DELEGATECALL SWAP1 DUP2 ISZERO PUSH2 0x12FE JUMPI DUP6 SWAP2 PUSH2 0x3BC8 JUMPI JUMPDEST POP PUSH1 0x20 PUSH1 0x5 SLOAD PUSH2 0x224 PUSH1 0x40 MLOAD DUP1 SWAP8 DUP2 SWAP4 PUSH4 0x797D4EE1 PUSH1 0xE0 SHL DUP4 MSTORE PUSH2 0x39D0 PUSH1 0x4 DUP5 ADD DUP9 PUSH2 0x48AD JUMP JUMPDEST PUSH2 0x204 DUP4 ADD MSTORE GAS DELEGATECALL SWAP4 DUP5 ISZERO PUSH2 0x12FE JUMPI DUP6 SWAP5 PUSH2 0x3B94 JUMPI JUMPDEST POP PUSH2 0x39F2 PUSH1 0x5 SLOAD PUSH2 0x4C12 JUMP JUMPDEST PUSH1 0x5 SSTORE DUP4 DUP6 MSTORE PUSH1 0x4 PUSH1 0x20 SWAP1 DUP2 MSTORE PUSH1 0x40 DUP1 DUP8 KECCAK256 DUP4 MLOAD DUP2 SLOAD PUSH1 0x1 PUSH1 0x1 PUSH1 0xA0 SHL SUB NOT SWAP1 DUP2 AND PUSH1 0x1 PUSH1 0x1 PUSH1 0xA0 SHL SUB SWAP3 DUP4 AND OR DUP4 SSTORE SWAP4 DUP6 ADD MLOAD PUSH1 0x1 DUP4 ADD DUP1 SLOAD DUP7 AND SWAP2 DUP4 AND SWAP2 SWAP1 SWAP2 OR SWAP1 SSTORE SWAP2 DUP5 ADD MLOAD PUSH1 0x2 DUP3 ADD DUP1 SLOAD SWAP1 SWAP5 AND SWAP3 AND SWAP2 SWAP1 SWAP2 OR DUP3 SSTORE PUSH1 0x60 DUP4 ADD MLOAD SWAP1 SWAP3 SWAP2 SWAP1 PUSH1 0x3 DUP2 LT ISZERO PUSH2 0x12B6 JUMPI DUP2 PUSH2 0x117B PUSH2 0x3A70 SWAP3 PUSH2 0x1E0 SWAP6 SWAP5 PUSH2 0x4C34 JUMP JUMPDEST PUSH1 0xC0 DUP2 ADD MLOAD PUSH1 0x3 DUP5 ADD SSTORE PUSH1 0xE0 DUP2 ADD MLOAD PUSH1 0x4 DUP5 ADD SSTORE PUSH2 0x100 DUP2 ADD MLOAD PUSH1 0x5 DUP5 ADD SSTORE PUSH2 0x120 DUP2 ADD MLOAD PUSH1 0x6 DUP1 DUP6 ADD SWAP2 SWAP1 SWAP2 SSTORE PUSH2 0x140 DUP3 ADD MLOAD PUSH1 0x7 DUP6 ADD SSTORE PUSH2 0x160 DUP3 ADD MLOAD PUSH1 0x8 DUP6 ADD SSTORE PUSH2 0x180 DUP3 ADD MLOAD PUSH1 0x9 DUP6 ADD DUP1 SLOAD PUSH1 0x1 PUSH1 0x1 PUSH1 0xA0 SHL SUB SWAP3 DUP4 AND PUSH1 0x1 PUSH1 0x1 PUSH1 0xA0 SHL SUB NOT SWAP2 DUP3 AND OR SWAP1 SWAP2 SSTORE PUSH2 0x1A0 DUP5 ADD MLOAD PUSH1 0xA DUP8 ADD DUP1 SLOAD SWAP2 SWAP1 SWAP4 AND SWAP2 AND OR SWAP1 SSTORE PUSH2 0x1C0 DUP3 ADD MLOAD PUSH1 0xB DUP6 ADD SSTORE SWAP2 ADD MLOAD SWAP6 SWAP1 DUP7 LT ISZERO PUSH2 0x12A2 JUMPI POP PUSH1 0x20 SWAP5 PUSH1 0xC PUSH2 0x3B17 SWAP3 ADD PUSH2 0x4C58 JUMP JUMPDEST PUSH1 0x40 MLOAD PUSH1 0x1 PUSH1 0x1 PUSH1 0xA0 SHL SUB SWAP2 DUP3 AND DUP1 DUP3 MSTORE SWAP3 SWAP1 SWAP2 AND SWAP1 CALLER SWAP1 DUP5 SWAP1 PUSH32 0x5E02698C1650D6CBE1F7E8A48609D0DA45AD7F5E4C13CD8B196F82965C0AB0D5 SWAP1 DUP8 SWAP1 LOG4 DUP1 PUSH2 0x3B65 JUMPI JUMPDEST POP PUSH1 0x40 MLOAD SWAP1 DUP2 MSTORE RETURN JUMPDEST PUSH32 0x957372C0E02D2882134CC0EEBBEF9E446634D8CCBB1CBB112BDEFDD3CF0A643C DUP4 PUSH1 0x40 MLOAD DUP5 DUP2 MSTORE LOG2 PUSH0 PUSH2 0x3B5C JUMP JUMPDEST SWAP1 SWAP4 POP PUSH1 0x20 DUP2 RETURNDATASIZE PUSH1 0x20 GT PUSH2 0x3BC0 JUMPI JUMPDEST DUP2 PUSH2 0x3BB0 PUSH1 0x20 SWAP4 DUP4 PUSH2 0x4A59 JUMP JUMPDEST DUP2 ADD SUB SLT PUSH2 0xAB4 JUMPI MLOAD SWAP3 PUSH0 PUSH2 0x39E6 JUMP JUMPDEST RETURNDATASIZE SWAP2 POP PUSH2 0x3BA3 JUMP JUMPDEST PUSH2 0x3BE1 SWAP2 POP PUSH2 0x200 RETURNDATASIZE DUP2 GT PUSH2 0x1331 JUMPI PUSH2 0x1323 DUP2 DUP4 PUSH2 0x4A59 JUMP JUMPDEST PUSH0 PUSH2 0x39A9 JUMP JUMPDEST PUSH2 0x3BF4 PUSH2 0x3BFA SWAP2 DUP5 PUSH2 0x4D88 JUMP JUMPDEST SWAP5 PUSH2 0x498E JUMP JUMPDEST PUSH2 0x3C05 DUP5 ISZERO ISZERO PUSH2 0x4E91 JUMP JUMPDEST PUSH1 0x2 SLOAD SWAP1 PUSH1 0x40 MLOAD SWAP2 PUSH4 0x1C8F0847 PUSH1 0xE0 SHL DUP4 MSTORE DUP6 PUSH1 0x4 DUP5 ADD MSTORE PUSH1 0x24 DUP4 ADD MSTORE PUSH1 0x20 DUP3 PUSH1 0x44 DUP2 PUSH20 0x0 GAS DELEGATECALL SWAP2 DUP3 ISZERO PUSH2 0x32C3 JUMPI DUP11 SWAP3 PUSH2 0x3D79 JUMPI JUMPDEST POP PUSH1 0x1 PUSH1 0x1 PUSH1 0xA0 SHL SUB DUP7 AND DUP1 PUSH2 0x3CC0 JUMPI PUSH2 0x3C67 DUP4 DUP8 PUSH2 0x4F2A JUMP JUMPDEST CALLVALUE SUB PUSH2 0x1427 JUMPI DUP6 PUSH2 0x3996 SWAP4 PUSH2 0x3C80 PUSH2 0x200 SWAP9 DUP11 CALLER PUSH2 0x55F3 JUMP JUMPDEST POP PUSH1 0x3 SLOAD PUSH2 0x3C9A SWAP1 DUP3 SWAP1 DUP12 SWAP1 PUSH1 0x1 PUSH1 0x1 PUSH1 0xA0 SHL SUB AND PUSH2 0x55F3 JUMP JUMPDEST POP JUMPDEST PUSH1 0x40 MLOAD SWAP2 DUP3 MSTORE PUSH1 0x20 DUP3 ADD MSTORE PUSH0 DUP1 MLOAD PUSH1 0x20 PUSH2 0x5825 DUP4 CODECOPY DUP2 MLOAD SWAP2 MSTORE PUSH1 0x40 CALLER SWAP3 LOG3 SWAP1 PUSH2 0x394B JUMP JUMPDEST DUP11 PUSH1 0x20 PUSH2 0x3CCD DUP6 DUP10 PUSH2 0x4F2A JUMP JUMPDEST PUSH1 0x64 PUSH1 0x40 MLOAD DUP1 SWAP5 DUP2 SWAP4 PUSH4 0x23B872DD PUSH1 0xE0 SHL DUP4 MSTORE CALLER PUSH1 0x4 DUP5 ADD MSTORE ADDRESS PUSH1 0x24 DUP5 ADD MSTORE PUSH1 0x44 DUP4 ADD MSTORE DUP7 GAS CALL SWAP1 DUP2 ISZERO PUSH2 0xFBD JUMPI DUP13 SWAP2 PUSH2 0x3D3B JUMPI JUMPDEST POP ISZERO PUSH2 0x14D1 JUMPI DUP6 PUSH2 0x3996 SWAP4 PUSH2 0x3D1B PUSH2 0x200 SWAP9 DUP11 CALLER PUSH2 0x55F3 JUMP JUMPDEST POP PUSH1 0x3 SLOAD PUSH2 0x3D35 SWAP1 DUP3 SWAP1 DUP12 SWAP1 PUSH1 0x1 PUSH1 0x1 PUSH1 0xA0 SHL SUB AND PUSH2 0x55F3 JUMP JUMPDEST POP PUSH2 0x3C9C JUMP JUMPDEST SWAP1 POP PUSH1 0x20 DUP2 RETURNDATASIZE PUSH1 0x20 GT PUSH2 0x3D71 JUMPI JUMPDEST DUP2 PUSH2 0x3D56 PUSH1 0x20 SWAP4 DUP4 PUSH2 0x4A59 JUMP JUMPDEST DUP2 ADD SUB SLT PUSH2 0x3D6D JUMPI PUSH2 0x3D67 SWAP1 PUSH2 0x4A8F JUMP JUMPDEST PUSH0 PUSH2 0x3D02 JUMP JUMPDEST DUP12 DUP1 REVERT JUMPDEST RETURNDATASIZE SWAP2 POP PUSH2 0x3D49 JUMP JUMPDEST SWAP1 SWAP2 POP PUSH1 0x20 DUP2 RETURNDATASIZE PUSH1 0x20 GT PUSH2 0x3DA5 JUMPI JUMPDEST DUP2 PUSH2 0x3D95 PUSH1 0x20 SWAP4 DUP4 PUSH2 0x4A59 JUMP JUMPDEST DUP2 ADD SUB SLT PUSH2 0xAB4 JUMPI MLOAD SWAP1 PUSH0 PUSH2 0x3C4D JUMP JUMPDEST RETURNDATASIZE SWAP2 POP PUSH2 0x3D88 JUMP JUMPDEST POP CALLVALUE PUSH2 0x27B JUMPI PUSH2 0x200 PUSH2 0x3996 PUSH2 0x3DC2 CALLDATASIZE PUSH2 0x4830 JUMP JUMPDEST PUSH2 0x3DDA PUSH1 0xFF DUP12 SWAP11 SWAP7 SWAP5 SWAP8 SWAP9 SWAP10 SWAP4 SWAP11 SLOAD PUSH1 0xA0 SHR AND PUSH2 0x498E JUMP JUMPDEST CALLER DUP11 MSTORE PUSH1 0x1 PUSH1 0x20 MSTORE PUSH1 0x40 DUP11 KECCAK256 PUSH1 0x1 DUP1 PUSH1 0xA0 SHL SUB DUP8 AND PUSH0 MSTORE PUSH1 0x20 MSTORE PUSH2 0x3E04 DUP4 PUSH1 0x40 PUSH0 KECCAK256 SLOAD LT ISZERO PUSH2 0x49BF JUMP JUMPDEST PUSH2 0x3960 DUP4 DUP8 CALLER PUSH2 0x552E JUMP JUMPDEST POP CALLVALUE PUSH2 0x27B JUMPI PUSH1 0x40 CALLDATASIZE PUSH1 0x3 NOT ADD SLT PUSH2 0x27B JUMPI PUSH32 0x14BDAADAED0453E7B5B66195B42156BA995B9E5ABD0DA98368839851D69AD889 PUSH1 0x40 PUSH1 0x4 CALLDATALOAD PUSH2 0x3E4F PUSH2 0x4722 JUMP JUMPDEST PUSH2 0x3E63 PUSH1 0x1 DUP1 PUSH1 0xA0 SHL SUB DUP7 SLOAD AND CALLER EQ PUSH2 0x4E2F JUMP JUMPDEST PUSH1 0x1 PUSH1 0x1 PUSH1 0xA0 SHL SUB AND PUSH2 0x3E77 DUP2 ISZERO ISZERO PUSH2 0x4E60 JUMP JUMPDEST PUSH2 0x3E88 PUSH5 0x2540BE400 DUP4 GT ISZERO PUSH2 0x4E91 JUMP JUMPDEST DUP2 PUSH1 0x2 SSTORE DUP1 PUSH12 0xFFFFFFFFFFFFFFFFFFFFFFFF PUSH1 0xA0 SHL PUSH1 0x3 SLOAD AND OR PUSH1 0x3 SSTORE DUP3 MLOAD SWAP2 DUP3 MSTORE PUSH1 0x20 DUP3 ADD MSTORE LOG1 DUP1 RETURN JUMPDEST POP CALLVALUE PUSH2 0x27B JUMPI PUSH1 0x60 CALLDATASIZE PUSH1 0x3 NOT ADD SLT PUSH2 0x27B JUMPI PUSH1 0x24 CALLDATALOAD PUSH1 0x4 CALLDATALOAD PUSH1 0x44 CALLDATALOAD PUSH1 0x6 DUP2 LT ISZERO PUSH2 0x3318 JUMPI DUP2 DUP5 MSTORE PUSH1 0x4 PUSH1 0x20 MSTORE PUSH1 0x40 DUP5 KECCAK256 SWAP2 PUSH1 0x1 DUP4 ADD SWAP2 PUSH1 0x1 DUP1 PUSH1 0xA0 SHL SUB DUP4 SLOAD AND CALLER EQ DUP1 ISZERO PUSH2 0x40CD JUMPI JUMPDEST DUP1 ISZERO PUSH2 0x40B7 JUMPI JUMPDEST PUSH2 0x3F0C SWAP1 PUSH2 0x4C70 JUMP JUMPDEST DUP6 PUSH20 0x0 DUP1 EXTCODESIZE ISZERO PUSH2 0xFEC JUMPI DUP2 PUSH1 0x40 MLOAD DUP1 SWAP3 PUSH4 0x252A867 PUSH1 0xE5 SHL DUP3 MSTORE DUP2 DUP1 PUSH2 0x3F48 DUP12 PUSH1 0x4 DUP4 ADD PUSH2 0x4CA1 JUMP JUMPDEST SUB SWAP2 GAS DELEGATECALL DUP1 ISZERO PUSH2 0xFE1 JUMPI PUSH2 0x40A2 JUMPI JUMPDEST POP POP DUP5 ISZERO DUP1 ISZERO PUSH2 0x4098 JUMPI JUMPDEST PUSH2 0x3F6B SWAP1 PUSH2 0x4DF1 JUMP JUMPDEST PUSH1 0x40 MLOAD PUSH2 0x3F77 DUP2 PUSH2 0x49F0 JUMP JUMPDEST DUP3 DUP2 MSTORE PUSH1 0x20 DUP2 ADD SWAP6 DUP7 MSTORE PUSH2 0x3F8F PUSH1 0x40 DUP3 ADD SWAP3 DUP4 PUSH2 0x4E23 JUMP JUMPDEST PUSH1 0x60 DUP2 ADD DUP8 DUP2 MSTORE PUSH1 0x80 DUP3 ADD DUP9 DUP2 MSTORE PUSH1 0xA0 DUP4 ADD SWAP2 DUP10 DUP4 MSTORE PUSH1 0x2 PUSH1 0xC0 DUP6 ADD SWAP5 DUP12 DUP7 MSTORE PUSH1 0x7 SLOAD SWAP11 DUP12 DUP14 MSTORE PUSH1 0x9 PUSH1 0x20 MSTORE PUSH1 0x40 DUP14 KECCAK256 SWAP2 MLOAD DUP3 SSTORE MLOAD PUSH1 0x1 DUP3 ADD SSTORE ADD SWAP5 MLOAD SWAP10 PUSH1 0x6 DUP12 LT ISZERO PUSH2 0x12A2 JUMPI POP PUSH2 0x3FE3 PUSH1 0x20 SWAP11 DUP7 PUSH2 0x4C58 JUMP JUMPDEST MLOAD DUP5 SLOAD SWAP2 MLOAD SWAP3 MLOAD SWAP4 MLOAD PUSH5 0xFFFFFFFF00 NOT SWAP1 SWAP3 AND SWAP1 ISZERO ISZERO PUSH1 0x8 SHL PUSH2 0xFF00 AND OR SWAP2 ISZERO ISZERO PUSH1 0x10 SHL PUSH3 0xFF0000 AND SWAP2 SWAP1 SWAP2 OR SWAP2 ISZERO ISZERO PUSH1 0x18 SHL PUSH4 0xFF000000 AND SWAP2 SWAP1 SWAP2 OR SWAP1 ISZERO ISZERO DUP8 SHL PUSH5 0xFF00000000 AND OR SWAP1 SSTORE DUP3 SLOAD SWAP2 SLOAD PUSH1 0x2 SWAP1 SWAP4 ADD SLOAD PUSH1 0x40 DUP1 MLOAD PUSH1 0x1 PUSH1 0x1 PUSH1 0xA0 SHL SUB SWAP3 DUP4 AND DUP2 MSTORE CALLER DUP2 DUP10 ADD MSTORE SWAP1 DUP2 ADD DUP7 SWAP1 MSTORE SWAP4 DUP2 AND SWAP4 SWAP3 AND SWAP2 PUSH32 0x867051316D0AAFC6BF3704F0B32FA0E735BB03D37318B95179BDC1C5017467C0 SWAP1 PUSH1 0x60 SWAP1 LOG4 PUSH2 0x408D PUSH1 0x7 SLOAD PUSH2 0x4C12 JUMP JUMPDEST PUSH1 0x7 SSTORE PUSH1 0x40 MLOAD SWAP1 DUP2 MSTORE RETURN JUMPDEST POP TIMESTAMP DUP6 GT ISZERO PUSH2 0x3F62 JUMP JUMPDEST DUP2 PUSH2 0x40AC SWAP2 PUSH2 0x4A59 JUMP JUMPDEST PUSH2 0x36BE JUMPI DUP6 PUSH0 PUSH2 0x3F57 JUMP JUMPDEST POP PUSH1 0x2 DUP5 ADD SLOAD PUSH1 0x1 PUSH1 0x1 PUSH1 0xA0 SHL SUB AND CALLER EQ PUSH2 0x3F03 JUMP JUMPDEST POP DUP4 SLOAD PUSH1 0x1 PUSH1 0x1 PUSH1 0xA0 SHL SUB AND CALLER EQ PUSH2 0x3EFC JUMP JUMPDEST POP PUSH2 0x40EA CALLDATASIZE PUSH2 0x4802 JUMP JUMPDEST DUP4 DUP6 SWAP5 SWAP4 SWAP3 SWAP5 MSTORE PUSH1 0x4 PUSH1 0x20 MSTORE PUSH1 0x40 DUP6 KECCAK256 SWAP1 PUSH1 0x1 DUP3 ADD SWAP5 PUSH2 0x4114 PUSH1 0x1 DUP1 PUSH1 0xA0 SHL SUB DUP8 SLOAD AND CALLER EQ PUSH2 0x4C70 JUMP JUMPDEST DUP7 PUSH20 0x0 DUP1 EXTCODESIZE ISZERO PUSH2 0xFEC JUMPI DUP2 PUSH1 0x40 MLOAD DUP1 SWAP3 PUSH4 0x252A867 PUSH1 0xE5 SHL DUP3 MSTORE DUP2 DUP1 PUSH2 0x4150 DUP11 PUSH1 0x4 DUP4 ADD PUSH2 0x4CA1 JUMP JUMPDEST SUB SWAP2 GAS DELEGATECALL DUP1 ISZERO PUSH2 0xFE1 JUMPI PUSH2 0x42A3 JUMPI JUMPDEST POP POP PUSH1 0x2 DUP4 ADD SWAP7 PUSH2 0x4177 PUSH1 0xFF DUP10 SLOAD PUSH1 0xA8 SHR AND ISZERO PUSH2 0x4DBF JUMP JUMPDEST CALLER DUP2 MSTORE PUSH1 0x1 PUSH1 0x20 MSTORE PUSH1 0x40 DUP2 KECCAK256 PUSH1 0x1 DUP1 PUSH1 0xA0 SHL SUB DUP7 AND PUSH0 MSTORE PUSH1 0x20 MSTORE PUSH1 0x40 PUSH0 KECCAK256 SLOAD DUP3 DUP2 LT PUSH2 0x41BE JUMPI POP POP SWAP1 DUP2 DUP5 PUSH2 0x2D4B PUSH1 0x20 SWAP6 SWAP5 PUSH0 DUP1 MLOAD PUSH1 0x20 PUSH2 0x5845 DUP4 CODECOPY DUP2 MLOAD SWAP2 MSTORE SWAP8 CALLER PUSH2 0x552E JUMP JUMPDEST PUSH2 0x41CC SWAP1 DUP4 SWAP3 SWAP6 SWAP5 SWAP4 PUSH2 0x4D88 JUMP JUMPDEST SWAP5 PUSH2 0x41DD PUSH1 0xFF DUP7 SLOAD PUSH1 0xA0 SHR AND PUSH2 0x498E JUMP JUMPDEST PUSH2 0x41E8 DUP7 ISZERO ISZERO PUSH2 0x4E91 JUMP JUMPDEST PUSH1 0x2 SLOAD SWAP5 PUSH1 0x40 MLOAD SWAP6 PUSH4 0x1C8F0847 PUSH1 0xE0 SHL DUP8 MSTORE DUP8 PUSH1 0x4 DUP9 ADD MSTORE PUSH1 0x24 DUP8 ADD MSTORE PUSH1 0x20 DUP7 PUSH1 0x44 DUP2 PUSH20 0x0 GAS DELEGATECALL SWAP6 DUP7 ISZERO PUSH2 0x1D6D JUMPI DUP2 SWAP7 PUSH2 0x426F JUMPI JUMPDEST POP PUSH1 0x1 PUSH1 0x1 PUSH1 0xA0 SHL SUB DUP3 AND SWAP1 DUP2 PUSH2 0x2EA6 JUMPI POP PUSH2 0x424C DUP7 DUP9 PUSH2 0x4F2A JUMP JUMPDEST CALLVALUE SUB PUSH2 0x1427 JUMPI DUP7 PUSH1 0x20 SWAP7 PUSH2 0x2E62 PUSH0 DUP1 MLOAD PUSH1 0x20 PUSH2 0x5845 DUP4 CODECOPY DUP2 MLOAD SWAP2 MSTORE SWAP10 DUP6 CALLER PUSH2 0x55F3 JUMP JUMPDEST SWAP1 SWAP6 POP PUSH1 0x20 DUP2 RETURNDATASIZE PUSH1 0x20 GT PUSH2 0x429B JUMPI JUMPDEST DUP2 PUSH2 0x428B PUSH1 0x20 SWAP4 DUP4 PUSH2 0x4A59 JUMP JUMPDEST DUP2 ADD SUB SLT PUSH2 0xAB4 JUMPI MLOAD SWAP5 PUSH0 PUSH2 0x4230 JUMP JUMPDEST RETURNDATASIZE SWAP2 POP PUSH2 0x427E JUMP JUMPDEST DUP2 PUSH2 0x42AD SWAP2 PUSH2 0x4A59 JUMP JUMPDEST PUSH2 0x2FCC JUMPI DUP7 PUSH0 PUSH2 0x415F JUMP JUMPDEST POP CALLVALUE PUSH2 0x27B JUMPI DUP1 PUSH1 0x3 NOT CALLDATASIZE ADD SLT PUSH2 0x27B JUMPI PUSH1 0x3 SLOAD PUSH1 0x40 MLOAD PUSH1 0x1 PUSH1 0x1 PUSH1 0xA0 SHL SUB SWAP1 SWAP2 AND DUP2 MSTORE PUSH1 0x20 SWAP1 RETURN JUMPDEST POP CALLVALUE PUSH2 0x27B JUMPI DUP1 PUSH1 0x3 NOT CALLDATASIZE ADD SLT PUSH2 0x27B JUMPI PUSH1 0x20 PUSH1 0x8 SLOAD PUSH1 0x40 MLOAD SWAP1 DUP2 MSTORE RETURN JUMPDEST POP CALLVALUE PUSH2 0xAB4 JUMPI PUSH2 0x430E CALLDATASIZE PUSH2 0x47DF JUMP JUMPDEST SWAP3 SWAP2 SWAP1 DUP2 PUSH0 MSTORE PUSH1 0x4 PUSH1 0x20 MSTORE PUSH1 0x40 PUSH0 KECCAK256 SWAP1 PUSH1 0x1 DUP3 ADD SWAP4 PUSH1 0x1 DUP1 PUSH1 0xA0 SHL SUB DUP6 SLOAD AND CALLER EQ DUP1 ISZERO PUSH2 0x4486 JUMPI JUMPDEST PUSH2 0x433F SWAP1 PUSH2 0x4C70 JUMP JUMPDEST PUSH20 0x0 DUP1 EXTCODESIZE ISZERO PUSH2 0xAB4 JUMPI PUSH0 PUSH1 0x40 MLOAD DUP1 SWAP3 PUSH4 0x252A867 PUSH1 0xE5 SHL DUP3 MSTORE DUP2 DUP1 PUSH2 0x437A DUP10 PUSH1 0x4 DUP4 ADD PUSH2 0x4CA1 JUMP JUMPDEST SUB SWAP2 GAS DELEGATECALL DUP1 ISZERO PUSH2 0x447B JUMPI PUSH2 0x4468 JUMPI JUMPDEST POP PUSH1 0x6 DUP4 ADD PUSH2 0x439F DUP4 DUP3 SLOAD PUSH2 0x1775 DUP3 DUP3 LT PUSH2 0x49BF JUMP JUMPDEST SWAP1 SSTORE PUSH1 0x1 DUP1 PUSH1 0xA0 SHL SUB PUSH1 0xA DUP5 ADD SLOAD AND PUSH1 0x8 DUP5 ADD SLOAD PUSH1 0x40 MLOAD SWAP1 PUSH4 0x1C8F0847 PUSH1 0xE0 SHL DUP3 MSTORE DUP5 PUSH1 0x4 DUP4 ADD MSTORE PUSH1 0x24 DUP3 ADD MSTORE PUSH1 0x20 DUP2 PUSH1 0x44 DUP2 PUSH20 0x0 GAS DELEGATECALL SWAP3 DUP4 ISZERO PUSH2 0xB00 JUMPI SWAP3 PUSH2 0x4427 JUMPI JUMPDEST POP PUSH0 DUP1 MLOAD PUSH1 0x20 PUSH2 0x5785 DUP4 CODECOPY DUP2 MLOAD SWAP2 MSTORE SWAP4 PUSH2 0x1824 DUP4 DUP4 PUSH2 0x180E DUP12 PUSH2 0x600 SWAP7 PUSH1 0x1 DUP1 PUSH1 0xA0 SHL SUB DUP8 SLOAD AND PUSH2 0x1808 DUP7 DUP13 PUSH2 0x4D88 JUMP JUMPDEST SWAP1 SWAP2 POP PUSH1 0x20 DUP2 RETURNDATASIZE PUSH1 0x20 GT PUSH2 0x4460 JUMPI JUMPDEST DUP2 PUSH2 0x4443 PUSH1 0x20 SWAP4 DUP4 PUSH2 0x4A59 JUMP JUMPDEST DUP2 ADD SUB SLT PUSH2 0xAB4 JUMPI MLOAD SWAP1 PUSH0 DUP1 MLOAD PUSH1 0x20 PUSH2 0x5785 DUP4 CODECOPY DUP2 MLOAD SWAP2 MSTORE PUSH2 0x43F6 JUMP JUMPDEST RETURNDATASIZE SWAP2 POP PUSH2 0x4436 JUMP JUMPDEST PUSH2 0x4474 SWAP2 POP PUSH0 SWAP1 PUSH2 0x4A59 JUMP JUMPDEST PUSH0 DUP1 PUSH2 0x4389 JUMP JUMPDEST PUSH1 0x40 MLOAD RETURNDATASIZE PUSH0 DUP3 RETURNDATACOPY RETURNDATASIZE SWAP1 REVERT JUMPDEST POP PUSH1 0x2 DUP4 ADD SLOAD PUSH1 0x1 PUSH1 0x1 PUSH1 0xA0 SHL SUB AND CALLER EQ PUSH2 0x4336 JUMP JUMPDEST CALLVALUE PUSH2 0xAB4 JUMPI PUSH2 0x200 PUSH2 0x4538 PUSH2 0x44B0 CALLDATASIZE PUSH2 0x474E JUMP JUMPDEST SWAP3 PUSH2 0x44CE PUSH1 0xFF PUSH0 SWAP14 SWAP10 SWAP8 SWAP14 SWAP13 SWAP7 SWAP13 SWAP12 SWAP11 SWAP12 SWAP5 SWAP4 SWAP5 SLOAD PUSH1 0xA0 SHR AND PUSH2 0x498E JUMP JUMPDEST CALLER PUSH0 MSTORE PUSH1 0x1 PUSH1 0x20 MSTORE PUSH1 0x40 PUSH0 KECCAK256 PUSH1 0x1 DUP1 PUSH1 0xA0 SHL SUB DUP3 AND PUSH0 MSTORE PUSH1 0x20 MSTORE PUSH2 0x44F8 DUP7 PUSH1 0x40 PUSH0 KECCAK256 SLOAD LT ISZERO PUSH2 0x49BF JUMP JUMPDEST PUSH2 0x4503 DUP7 DUP3 CALLER PUSH2 0x552E JUMP JUMPDEST POP PUSH20 0x0 SWAP11 PUSH1 0x40 MLOAD SWAP13 DUP14 SWAP9 DUP10 SWAP9 PUSH4 0x652E83D7 PUSH1 0xE0 SHL DUP11 MSTORE DUP14 DUP14 CALLER PUSH1 0x4 DUP14 ADD PUSH2 0x4BA6 JUMP JUMPDEST SUB DUP2 DUP7 GAS DELEGATECALL SWAP4 DUP5 ISZERO PUSH2 0x447B JUMPI PUSH0 SWAP5 PUSH2 0x4701 JUMPI JUMPDEST POP PUSH1 0x20 PUSH1 0x5 SLOAD PUSH2 0x224 PUSH1 0x40 MLOAD DUP1 SWAP7 DUP2 SWAP4 PUSH4 0x797D4EE1 PUSH1 0xE0 SHL DUP4 MSTORE PUSH2 0x4572 PUSH1 0x4 DUP5 ADD DUP12 PUSH2 0x48AD JUMP JUMPDEST PUSH2 0x204 DUP4 ADD MSTORE GAS DELEGATECALL SWAP3 DUP4 ISZERO PUSH2 0x447B JUMPI PUSH0 SWAP4 PUSH2 0x46CD JUMPI JUMPDEST POP PUSH2 0x4594 PUSH1 0x5 SLOAD PUSH2 0x4C12 JUMP JUMPDEST PUSH1 0x5 SSTORE PUSH0 DUP4 DUP2 MSTORE PUSH1 0x4 PUSH1 0x20 SWAP1 DUP2 MSTORE PUSH1 0x40 SWAP2 DUP3 SWAP1 KECCAK256 DUP7 MLOAD DUP2 SLOAD PUSH1 0x1 PUSH1 0x1 PUSH1 0xA0 SHL SUB NOT SWAP1 DUP2 AND PUSH1 0x1 PUSH1 0x1 PUSH1 0xA0 SHL SUB SWAP3 DUP4 AND OR DUP4 SSTORE SWAP3 DUP9 ADD MLOAD PUSH1 0x1 DUP4 ADD DUP1 SLOAD DUP6 AND SWAP2 DUP4 AND SWAP2 SWAP1 SWAP2 OR SWAP1 SSTORE SWAP3 DUP8 ADD MLOAD PUSH1 0x2 DUP3 ADD DUP1 SLOAD SWAP1 SWAP4 AND SWAP4 AND SWAP3 SWAP1 SWAP3 OR DUP2 SSTORE PUSH1 0x60 DUP7 ADD MLOAD SWAP2 SWAP6 SWAP1 SWAP2 PUSH1 0x3 DUP2 LT ISZERO PUSH2 0x46B9 JUMPI DUP3 PUSH2 0x117B PUSH2 0x4613 SWAP3 PUSH2 0x1E0 SWAP6 PUSH2 0x4C34 JUMP JUMPDEST PUSH1 0xC0 DUP2 ADD MLOAD PUSH1 0x3 DUP8 ADD SSTORE PUSH1 0xE0 DUP2 ADD MLOAD PUSH1 0x4 DUP8 ADD SSTORE PUSH2 0x100 DUP2 ADD MLOAD PUSH1 0x5 DUP8 ADD SSTORE PUSH2 0x120 DUP2 ADD MLOAD PUSH1 0x6 DUP1 DUP9 ADD SWAP2 SWAP1 SWAP2 SSTORE PUSH2 0x140 DUP3 ADD MLOAD PUSH1 0x7 DUP9 ADD SSTORE PUSH2 0x160 DUP3 ADD MLOAD PUSH1 0x8 DUP9 ADD SSTORE PUSH2 0x180 DUP3 ADD MLOAD PUSH1 0x9 DUP9 ADD DUP1 SLOAD PUSH1 0x1 PUSH1 0x1 PUSH1 0xA0 SHL SUB SWAP3 DUP4 AND PUSH1 0x1 PUSH1 0x1 PUSH1 0xA0 SHL SUB NOT SWAP2 DUP3 AND OR SWAP1 SWAP2 SSTORE PUSH2 0x1A0 DUP5 ADD MLOAD PUSH1 0xA DUP11 ADD DUP1 SLOAD SWAP2 SWAP1 SWAP4 AND SWAP2 AND OR SWAP1 SSTORE PUSH2 0x1C0 DUP3 ADD MLOAD PUSH1 0xB DUP9 ADD SSTORE SWAP2 ADD MLOAD SWAP5 SWAP1 DUP6 LT ISZERO PUSH2 0x46B9 JUMPI PUSH1 0x20 SWAP5 PUSH1 0xC PUSH2 0x125E SWAP3 ADD PUSH2 0x4C58 JUMP JUMPDEST PUSH4 0x4E487B71 PUSH1 0xE0 SHL PUSH0 MSTORE PUSH1 0x21 PUSH1 0x4 MSTORE PUSH1 0x24 PUSH0 REVERT JUMPDEST SWAP1 SWAP3 POP PUSH1 0x20 DUP2 RETURNDATASIZE PUSH1 0x20 GT PUSH2 0x46F9 JUMPI JUMPDEST DUP2 PUSH2 0x46E9 PUSH1 0x20 SWAP4 DUP4 PUSH2 0x4A59 JUMP JUMPDEST DUP2 ADD SUB SLT PUSH2 0xAB4 JUMPI MLOAD SWAP2 DUP5 PUSH2 0x4588 JUMP JUMPDEST RETURNDATASIZE SWAP2 POP PUSH2 0x46DC JUMP JUMPDEST PUSH2 0x471B SWAP2 SWAP5 POP PUSH2 0x200 RETURNDATASIZE DUP2 GT PUSH2 0x1331 JUMPI PUSH2 0x1323 DUP2 DUP4 PUSH2 0x4A59 JUMP JUMPDEST SWAP3 DUP5 PUSH2 0x454B JUMP JUMPDEST PUSH1 0x24 CALLDATALOAD SWAP1 PUSH1 0x1 PUSH1 0x1 PUSH1 0xA0 SHL SUB DUP3 AND DUP3 SUB PUSH2 0xAB4 JUMPI JUMP JUMPDEST PUSH1 0x4 CALLDATALOAD SWAP1 PUSH1 0x1 PUSH1 0x1 PUSH1 0xA0 SHL SUB DUP3 AND DUP3 SUB PUSH2 0xAB4 JUMPI JUMP JUMPDEST PUSH2 0x140 SWAP1 PUSH1 0x3 NOT ADD SLT PUSH2 0xAB4 JUMPI PUSH1 0x4 CALLDATALOAD PUSH1 0x1 PUSH1 0x1 PUSH1 0xA0 SHL SUB DUP2 AND DUP2 SUB PUSH2 0xAB4 JUMPI SWAP1 PUSH1 0x24 CALLDATALOAD PUSH1 0x1 PUSH1 0x1 PUSH1 0xA0 SHL SUB DUP2 AND DUP2 SUB PUSH2 0xAB4 JUMPI SWAP1 PUSH1 0x44 CALLDATALOAD SWAP1 PUSH1 0x64 CALLDATALOAD SWAP1 PUSH1 0x84 CALLDATALOAD SWAP1 PUSH1 0xA4 CALLDATALOAD SWAP1 PUSH1 0xC4 CALLDATALOAD PUSH1 0x1 PUSH1 0x1 PUSH1 0xA0 SHL SUB DUP2 AND DUP2 SUB PUSH2 0xAB4 JUMPI SWAP1 PUSH1 0xE4 CALLDATALOAD PUSH1 0x1 PUSH1 0x1 PUSH1 0xA0 SHL SUB DUP2 AND DUP2 SUB PUSH2 0xAB4 JUMPI SWAP1 PUSH2 0x104 CALLDATALOAD SWAP1 PUSH2 0x124 CALLDATALOAD PUSH1 0x6 DUP2 LT ISZERO PUSH2 0xAB4 JUMPI SWAP1 JUMP JUMPDEST PUSH1 0x24 CALLDATALOAD SWAP1 DUP2 ISZERO ISZERO DUP3 SUB PUSH2 0xAB4 JUMPI JUMP JUMPDEST PUSH1 0x60 SWAP1 PUSH1 0x3 NOT ADD SLT PUSH2 0xAB4 JUMPI PUSH1 0x4 CALLDATALOAD SWAP1 PUSH1 0x24 CALLDATALOAD SWAP1 PUSH1 0x44 CALLDATALOAD DUP1 ISZERO ISZERO DUP2 SUB PUSH2 0xAB4 JUMPI SWAP1 JUMP JUMPDEST PUSH1 0x80 SWAP1 PUSH1 0x3 NOT ADD SLT PUSH2 0xAB4 JUMPI PUSH1 0x4 CALLDATALOAD SWAP1 PUSH1 0x24 CALLDATALOAD PUSH1 0x1 PUSH1 0x1 PUSH1 0xA0 SHL SUB DUP2 AND DUP2 SUB PUSH2 0xAB4 JUMPI SWAP1 PUSH1 0x44 CALLDATALOAD SWAP1 PUSH1 0x64 CALLDATALOAD SWAP1 JUMP JUMPDEST PUSH1 0xE0 SWAP1 PUSH1 0x3 NOT ADD SLT PUSH2 0xAB4 JUMPI PUSH1 0x4 CALLDATALOAD PUSH1 0x1 PUSH1 0x1 PUSH1 0xA0 SHL SUB DUP2 AND DUP2 SUB PUSH2 0xAB4 JUMPI SWAP1 PUSH1 0x24 CALLDATALOAD PUSH1 0x1 PUSH1 0x1 PUSH1 0xA0 SHL SUB DUP2 AND DUP2 SUB PUSH2 0xAB4 JUMPI SWAP1 PUSH1 0x44 CALLDATALOAD SWAP1 PUSH1 0x64 CALLDATALOAD SWAP1 PUSH1 0x84 CALLDATALOAD PUSH1 0x1 PUSH1 0x1 PUSH1 0xA0 SHL SUB DUP2 AND DUP2 SUB PUSH2 0xAB4 JUMPI SWAP1 PUSH1 0xA4 CALLDATALOAD SWAP1 PUSH1 0xC4 CALLDATALOAD PUSH1 0x6 DUP2 LT ISZERO PUSH2 0xAB4 JUMPI SWAP1 JUMP JUMPDEST SWAP1 PUSH1 0x3 DUP3 LT ISZERO PUSH2 0x46B9 JUMPI MSTORE JUMP JUMPDEST SWAP1 PUSH1 0x6 DUP3 LT ISZERO PUSH2 0x46B9 JUMPI MSTORE JUMP JUMPDEST DUP1 MLOAD PUSH1 0x1 PUSH1 0x1 PUSH1 0xA0 SHL SUB SWAP1 DUP2 AND DUP4 MSTORE PUSH1 0x20 DUP1 DUP4 ADD MLOAD DUP3 AND SWAP1 DUP5 ADD MSTORE PUSH1 0x40 DUP1 DUP4 ADD MLOAD SWAP1 SWAP2 AND SWAP1 DUP4 ADD MSTORE PUSH1 0x60 DUP1 DUP3 ADD MLOAD PUSH2 0x498C SWAP4 SWAP3 PUSH2 0x1E0 SWAP3 DUP4 SWAP3 PUSH2 0x48F2 SWAP2 DUP7 ADD SWAP1 PUSH2 0x4893 JUMP JUMPDEST PUSH1 0x80 DUP2 ADD MLOAD ISZERO ISZERO PUSH1 0x80 DUP6 ADD MSTORE PUSH1 0xA0 DUP2 ADD MLOAD ISZERO ISZERO PUSH1 0xA0 DUP6 ADD MSTORE PUSH1 0xC0 DUP2 ADD MLOAD PUSH1 0xC0 DUP6 ADD MSTORE PUSH1 0xE0 DUP2 ADD MLOAD PUSH1 0xE0 DUP6 ADD MSTORE PUSH2 0x100 DUP2 ADD MLOAD PUSH2 0x100 DUP6 ADD MSTORE PUSH2 0x120 DUP2 ADD MLOAD PUSH2 0x120 DUP6 ADD MSTORE PUSH2 0x140 DUP2 ADD MLOAD PUSH2 0x140 DUP6 ADD MSTORE PUSH2 0x160 DUP2 ADD MLOAD PUSH2 0x160 DUP6 ADD MSTORE PUSH1 0x1 DUP1 PUSH1 0xA0 SHL SUB PUSH2 0x180 DUP3 ADD MLOAD AND PUSH2 0x180 DUP6 ADD MSTORE PUSH1 0x1 DUP1 PUSH1 0xA0 SHL SUB PUSH2 0x1A0 DUP3 ADD MLOAD AND PUSH2 0x1A0 DUP6 ADD MSTORE PUSH2 0x1C0 DUP2 ADD MLOAD PUSH2 0x1C0 DUP6 ADD MSTORE ADD MLOAD SWAP2 ADD SWAP1 PUSH2 0x48A0 JUMP JUMPDEST JUMP JUMPDEST ISZERO PUSH2 0x4995 JUMPI JUMP JUMPDEST PUSH1 0x40 MLOAD PUSH3 0x461BCD PUSH1 0xE5 SHL DUP2 MSTORE PUSH1 0x20 PUSH1 0x4 DUP3 ADD MSTORE PUSH1 0x2 PUSH1 0x24 DUP3 ADD MSTORE PUSH2 0x4C31 PUSH1 0xF0 SHL PUSH1 0x44 DUP3 ADD MSTORE PUSH1 0x64 SWAP1 REVERT JUMPDEST ISZERO PUSH2 0x49C6 JUMPI JUMP JUMPDEST PUSH1 0x40 MLOAD PUSH3 0x461BCD PUSH1 0xE5 SHL DUP2 MSTORE PUSH1 0x20 PUSH1 0x4 DUP3 ADD MSTORE PUSH1 0x2 PUSH1 0x24 DUP3 ADD MSTORE PUSH2 0x5431 PUSH1 0xF0 SHL PUSH1 0x44 DUP3 ADD MSTORE PUSH1 0x64 SWAP1 REVERT JUMPDEST PUSH1 0xE0 DUP2 ADD SWAP1 DUP2 LT PUSH8 0xFFFFFFFFFFFFFFFF DUP3 GT OR PUSH2 0x4A0C JUMPI PUSH1 0x40 MSTORE JUMP JUMPDEST PUSH4 0x4E487B71 PUSH1 0xE0 SHL PUSH0 MSTORE PUSH1 0x41 PUSH1 0x4 MSTORE PUSH1 0x24 PUSH0 REVERT JUMPDEST PUSH2 0x200 DUP2 ADD SWAP1 DUP2 LT PUSH8 0xFFFFFFFFFFFFFFFF DUP3 GT OR PUSH2 0x4A0C JUMPI PUSH1 0x40 MSTORE JUMP JUMPDEST PUSH1 0xA0 DUP2 ADD SWAP1 DUP2 LT PUSH8 0xFFFFFFFFFFFFFFFF DUP3 GT OR PUSH2 0x4A0C JUMPI PUSH1 0x40 MSTORE JUMP JUMPDEST SWAP1 PUSH1 0x1F DUP1 NOT SWAP2 ADD AND DUP2 ADD SWAP1 DUP2 LT PUSH8 0xFFFFFFFFFFFFFFFF DUP3 GT OR PUSH2 0x4A0C JUMPI PUSH1 0x40 MSTORE JUMP JUMPDEST MLOAD SWAP1 PUSH1 0x1 PUSH1 0x1 PUSH1 0xA0 SHL SUB DUP3 AND DUP3 SUB PUSH2 0xAB4 JUMPI JUMP JUMPDEST MLOAD SWAP1 DUP2 ISZERO ISZERO DUP3 SUB PUSH2 0xAB4 JUMPI JUMP JUMPDEST SWAP1 DUP2 PUSH2 0x200 SWAP2 SUB SLT PUSH2 0xAB4 JUMPI PUSH1 0x40 MLOAD SWAP1 PUSH2 0x4AB5 DUP3 PUSH2 0x4A20 JUMP JUMPDEST PUSH2 0x4ABE DUP2 PUSH2 0x4A7B JUMP JUMPDEST DUP3 MSTORE PUSH2 0x4ACC PUSH1 0x20 DUP3 ADD PUSH2 0x4A7B JUMP JUMPDEST PUSH1 0x20 DUP4 ADD MSTORE PUSH2 0x4ADD PUSH1 0x40 DUP3 ADD PUSH2 0x4A7B JUMP JUMPDEST PUSH1 0x40 DUP4 ADD MSTORE PUSH1 0x60 DUP2 ADD MLOAD SWAP1 PUSH1 0x3 DUP3 LT ISZERO PUSH2 0xAB4 JUMPI PUSH2 0x1E0 SWAP2 PUSH1 0x60 DUP5 ADD MSTORE PUSH2 0x4B06 PUSH1 0x80 DUP3 ADD PUSH2 0x4A8F JUMP JUMPDEST PUSH1 0x80 DUP5 ADD MSTORE PUSH2 0x4B17 PUSH1 0xA0 DUP3 ADD PUSH2 0x4A8F JUMP JUMPDEST PUSH1 0xA0 DUP5 ADD MSTORE PUSH1 0xC0 DUP2 ADD MLOAD PUSH1 0xC0 DUP5 ADD MSTORE PUSH1 0xE0 DUP2 ADD MLOAD PUSH1 0xE0 DUP5 ADD MSTORE PUSH2 0x100 DUP2 ADD MLOAD PUSH2 0x100 DUP5 ADD MSTORE PUSH2 0x120 DUP2 ADD MLOAD PUSH2 0x120 DUP5 ADD MSTORE PUSH2 0x140 DUP2 ADD MLOAD PUSH2 0x140 DUP5 ADD MSTORE PUSH2 0x160 DUP2 ADD MLOAD PUSH2 0x160 DUP5 ADD MSTORE PUSH2 0x4B6D PUSH2 0x180 DUP3 ADD PUSH2 0x4A7B JUMP JUMPDEST PUSH2 0x180 DUP5 ADD MSTORE PUSH2 0x4B80 PUSH2 0x1A0 DUP3 ADD PUSH2 0x4A7B JUMP JUMPDEST PUSH2 0x1A0 DUP5 ADD MSTORE PUSH2 0x1C0 DUP2 ADD MLOAD PUSH2 0x1C0 DUP5 ADD MSTORE ADD MLOAD PUSH1 0x6 DUP2 LT ISZERO PUSH2 0xAB4 JUMPI PUSH2 0x1E0 DUP3 ADD MSTORE SWAP1 JUMP JUMPDEST PUSH1 0x1 PUSH1 0x1 PUSH1 0xA0 SHL SUB SWAP2 DUP3 AND DUP2 MSTORE SWAP2 DUP2 AND PUSH1 0x20 DUP4 ADD MSTORE SWAP2 DUP3 AND PUSH1 0x40 DUP3 ADD MSTORE PUSH1 0x60 DUP2 ADD SWAP3 SWAP1 SWAP3 MSTORE PUSH1 0x80 DUP3 ADD SWAP3 SWAP1 SWAP3 MSTORE PUSH1 0xA0 DUP2 ADD SWAP3 SWAP1 SWAP3 MSTORE PUSH1 0xC0 DUP3 ADD SWAP3 SWAP1 SWAP3 MSTORE SWAP2 DUP2 AND PUSH1 0xE0 DUP4 ADD MSTORE SWAP1 SWAP2 AND PUSH2 0x100 DUP3 ADD MSTORE PUSH2 0x120 DUP2 ADD SWAP2 SWAP1 SWAP2 MSTORE PUSH2 0x160 DUP2 ADD SWAP3 SWAP2 PUSH2 0x498C SWAP2 PUSH2 0x140 ADD SWAP1 PUSH2 0x48A0 JUMP JUMPDEST PUSH0 NOT DUP2 EQ PUSH2 0x4C20 JUMPI PUSH1 0x1 ADD SWAP1 JUMP JUMPDEST PUSH4 0x4E487B71 PUSH1 0xE0 SHL PUSH0 MSTORE PUSH1 0x11 PUSH1 0x4 MSTORE PUSH1 0x24 PUSH0 REVERT JUMPDEST SWAP1 PUSH1 0x3 DUP2 LT ISZERO PUSH2 0x46B9 JUMPI DUP2 SLOAD PUSH1 0xFF PUSH1 0xA0 SHL NOT AND PUSH1 0xA0 SWAP2 SWAP1 SWAP2 SHL PUSH1 0xFF PUSH1 0xA0 SHL AND OR SWAP1 SSTORE JUMP JUMPDEST SWAP1 PUSH1 0x6 DUP2 LT ISZERO PUSH2 0x46B9 JUMPI PUSH1 0xFF DUP1 NOT DUP4 SLOAD AND SWAP2 AND OR SWAP1 SSTORE JUMP JUMPDEST ISZERO PUSH2 0x4C77 JUMPI JUMP JUMPDEST PUSH1 0x40 MLOAD PUSH3 0x461BCD PUSH1 0xE5 SHL DUP2 MSTORE PUSH1 0x20 PUSH1 0x4 DUP3 ADD MSTORE PUSH1 0x2 PUSH1 0x24 DUP3 ADD MSTORE PUSH2 0x4435 PUSH1 0xF0 SHL PUSH1 0x44 DUP3 ADD MSTORE PUSH1 0x64 SWAP1 REVERT JUMPDEST DUP2 SLOAD PUSH1 0x1 PUSH1 0x1 PUSH1 0xA0 SHL SUB SWAP1 DUP2 AND DUP3 MSTORE PUSH1 0x1 DUP4 ADD SLOAD DUP2 AND PUSH1 0x20 DUP4 ADD MSTORE PUSH1 0x2 DUP4 ADD SLOAD SWAP1 DUP2 AND PUSH1 0x40 DUP4 ADD MSTORE PUSH2 0x200 DUP3 ADD SWAP4 SWAP3 PUSH2 0x498C SWAP3 SWAP2 PUSH2 0x1E0 SWAP2 PUSH1 0xFF SWAP2 PUSH1 0xC SWAP2 SWAP1 DUP4 SWAP1 PUSH2 0x4CF5 PUSH1 0x60 DUP9 ADD PUSH1 0xA0 DUP4 SWAP1 SHR DUP5 AND PUSH2 0x4893 JUMP JUMPDEST PUSH1 0xA8 DUP2 SWAP1 SHR DUP3 AND ISZERO ISZERO PUSH1 0x80 DUP9 ADD MSTORE PUSH1 0xB0 SHR AND ISZERO ISZERO PUSH1 0xA0 DUP7 ADD MSTORE PUSH1 0x3 DUP2 ADD SLOAD PUSH1 0xC0 DUP7 ADD MSTORE PUSH1 0x4 DUP2 ADD SLOAD PUSH1 0xE0 DUP7 ADD MSTORE PUSH1 0x5 DUP2 ADD SLOAD PUSH2 0x100 DUP7 ADD MSTORE PUSH1 0x6 DUP2 ADD SLOAD PUSH2 0x120 DUP7 ADD MSTORE PUSH1 0x7 DUP2 ADD SLOAD PUSH2 0x140 DUP7 ADD MSTORE PUSH1 0x8 DUP2 ADD SLOAD PUSH2 0x160 DUP7 ADD MSTORE PUSH1 0x9 DUP2 ADD SLOAD PUSH1 0x1 PUSH1 0x1 PUSH1 0xA0 SHL SUB SWAP1 DUP2 AND PUSH2 0x180 DUP8 ADD MSTORE PUSH1 0xA DUP3 ADD SLOAD AND PUSH2 0x1A0 DUP7 ADD MSTORE PUSH1 0xB DUP2 ADD SLOAD PUSH2 0x1C0 DUP7 ADD MSTORE ADD SLOAD SWAP2 SWAP1 SWAP3 ADD SWAP2 AND PUSH2 0x48A0 JUMP JUMPDEST SWAP2 SWAP1 DUP3 SUB SWAP2 DUP3 GT PUSH2 0x4C20 JUMPI JUMP JUMPDEST PUSH1 0x1 PUSH1 0x1 PUSH1 0xA0 SHL SUB SWAP2 DUP3 AND DUP2 MSTORE SWAP2 AND PUSH1 0x20 DUP3 ADD MSTORE PUSH1 0x40 DUP2 ADD SWAP2 SWAP1 SWAP2 MSTORE PUSH1 0x60 DUP2 ADD SWAP2 SWAP1 SWAP2 MSTORE PUSH1 0x80 ADD SWAP1 JUMP JUMPDEST ISZERO PUSH2 0x4DC6 JUMPI JUMP JUMPDEST PUSH1 0x64 PUSH1 0x40 MLOAD PUSH3 0x461BCD PUSH1 0xE5 SHL DUP2 MSTORE PUSH1 0x20 PUSH1 0x4 DUP3 ADD MSTORE PUSH1 0x4 PUSH1 0x24 DUP3 ADD MSTORE PUSH4 0x22191719 PUSH1 0xE1 SHL PUSH1 0x44 DUP3 ADD MSTORE REVERT JUMPDEST ISZERO PUSH2 0x4DF8 JUMPI JUMP JUMPDEST PUSH1 0x64 PUSH1 0x40 MLOAD PUSH3 0x461BCD PUSH1 0xE5 SHL DUP2 MSTORE PUSH1 0x20 PUSH1 0x4 DUP3 ADD MSTORE PUSH1 0x4 PUSH1 0x24 DUP3 ADD MSTORE PUSH4 0x44312E31 PUSH1 0xE0 SHL PUSH1 0x44 DUP3 ADD MSTORE REVERT JUMPDEST PUSH1 0x6 DUP3 LT ISZERO PUSH2 0x46B9 JUMPI MSTORE JUMP JUMPDEST ISZERO PUSH2 0x4E36 JUMPI JUMP JUMPDEST PUSH1 0x40 MLOAD PUSH3 0x461BCD PUSH1 0xE5 SHL DUP2 MSTORE PUSH1 0x20 PUSH1 0x4 DUP3 ADD MSTORE PUSH1 0x2 PUSH1 0x24 DUP3 ADD MSTORE PUSH2 0x2619 PUSH1 0xF1 SHL PUSH1 0x44 DUP3 ADD MSTORE PUSH1 0x64 SWAP1 REVERT JUMPDEST ISZERO PUSH2 0x4E67 JUMPI JUMP JUMPDEST PUSH1 0x40 MLOAD PUSH3 0x461BCD PUSH1 0xE5 SHL DUP2 MSTORE PUSH1 0x20 PUSH1 0x4 DUP3 ADD MSTORE PUSH1 0x2 PUSH1 0x24 DUP3 ADD MSTORE PUSH2 0x4331 PUSH1 0xF0 SHL PUSH1 0x44 DUP3 ADD MSTORE PUSH1 0x64 SWAP1 REVERT JUMPDEST ISZERO PUSH2 0x4E98 JUMPI JUMP JUMPDEST PUSH1 0x40 MLOAD PUSH3 0x461BCD PUSH1 0xE5 SHL DUP2 MSTORE PUSH1 0x20 PUSH1 0x4 DUP3 ADD MSTORE PUSH1 0x2 PUSH1 0x24 DUP3 ADD MSTORE PUSH2 0x4335 PUSH1 0xF0 SHL PUSH1 0x44 DUP3 ADD MSTORE PUSH1 0x64 SWAP1 REVERT JUMPDEST PUSH1 0x1 PUSH1 0x1 PUSH1 0xA0 SHL SUB SWAP2 DUP3 AND DUP2 MSTORE SWAP2 DUP2 AND PUSH1 0x20 DUP4 ADD MSTORE SWAP2 DUP3 AND PUSH1 0x40 DUP3 ADD MSTORE PUSH1 0x60 DUP2 ADD SWAP3 SWAP1 SWAP3 MSTORE PUSH0 PUSH1 0x80 DUP4 ADD DUP2 SWAP1 MSTORE PUSH1 0xA0 DUP4 ADD SWAP4 SWAP1 SWAP4 MSTORE PUSH1 0xC0 DUP3 ADD DUP4 SWAP1 MSTORE SWAP1 SWAP3 AND PUSH1 0xE0 DUP4 ADD MSTORE PUSH2 0x100 DUP3 ADD MSTORE PUSH2 0x120 DUP2 ADD SWAP2 SWAP1 SWAP2 MSTORE PUSH2 0x160 DUP2 ADD SWAP3 SWAP2 PUSH2 0x498C SWAP2 PUSH2 0x140 ADD SWAP1 PUSH2 0x48A0 JUMP JUMPDEST SWAP2 SWAP1 DUP3 ADD DUP1 SWAP3 GT PUSH2 0x4C20 JUMPI JUMP JUMPDEST ISZERO PUSH2 0x4F3E JUMPI JUMP JUMPDEST PUSH1 0x64 PUSH1 0x40 MLOAD PUSH3 0x461BCD PUSH1 0xE5 SHL DUP2 MSTORE PUSH1 0x20 PUSH1 0x4 DUP3 ADD MSTORE PUSH1 0x4 PUSH1 0x24 DUP3 ADD MSTORE PUSH4 0x44332E31 PUSH1 0xE0 SHL PUSH1 0x44 DUP3 ADD MSTORE REVERT JUMPDEST ISZERO PUSH2 0x4F70 JUMPI JUMP JUMPDEST PUSH1 0x64 PUSH1 0x40 MLOAD PUSH3 0x461BCD PUSH1 0xE5 SHL DUP2 MSTORE PUSH1 0x20 PUSH1 0x4 DUP3 ADD MSTORE PUSH1 0x4 PUSH1 0x24 DUP3 ADD MSTORE PUSH4 0x44322E31 PUSH1 0xE0 SHL PUSH1 0x44 DUP3 ADD MSTORE REVERT JUMPDEST ISZERO PUSH2 0x4FA2 JUMPI JUMP JUMPDEST PUSH1 0x40 MLOAD PUSH3 0x461BCD PUSH1 0xE5 SHL DUP2 MSTORE PUSH1 0x20 PUSH1 0x4 DUP3 ADD MSTORE PUSH1 0x2 PUSH1 0x24 DUP3 ADD MSTORE PUSH2 0x4433 PUSH1 0xF0 SHL PUSH1 0x44 DUP3 ADD MSTORE PUSH1 0x64 SWAP1 REVERT JUMPDEST ISZERO PUSH2 0x4FD3 JUMPI JUMP JUMPDEST PUSH1 0x64 PUSH1 0x40 MLOAD PUSH3 0x461BCD PUSH1 0xE5 SHL DUP2 MSTORE PUSH1 0x20 PUSH1 0x4 DUP3 ADD MSTORE PUSH1 0x4 PUSH1 0x24 DUP3 ADD MSTORE PUSH4 0x43332E31 PUSH1 0xE0 SHL PUSH1 0x44 DUP3 ADD MSTORE REVERT JUMPDEST SWAP1 DUP2 PUSH0 MSTORE PUSH1 0xA PUSH1 0x20 MSTORE PUSH1 0x40 PUSH0 KECCAK256 DUP1 SLOAD PUSH0 MSTORE PUSH1 0x4 PUSH1 0x20 MSTORE PUSH1 0x40 PUSH0 KECCAK256 PUSH1 0x1 DUP1 PUSH1 0xA0 SHL SUB DUP2 SLOAD AND CALLER EQ DUP1 ISZERO PUSH2 0x51ED JUMPI JUMPDEST PUSH2 0x5034 SWAP1 PUSH2 0x4C70 JUMP JUMPDEST PUSH1 0x1 DUP3 ADD SWAP3 DUP4 SLOAD SWAP1 PUSH2 0x504C PUSH1 0xFF DUP4 PUSH1 0xB0 SHR AND ISZERO PUSH2 0x4FCC JUMP JUMPDEST PUSH2 0x5187 JUMPI POP PUSH1 0x2 DUP2 ADD DUP1 SLOAD SWAP1 SWAP2 SWAP1 PUSH2 0x506D SWAP1 PUSH1 0x1 PUSH1 0x1 PUSH1 0xA0 SHL SUB AND ISZERO PUSH2 0x4FCC JUMP JUMPDEST DUP1 SLOAD PUSH1 0x1 PUSH1 0x1 PUSH1 0xA0 SHL SUB AND CALLER EQ PUSH2 0x5171 JUMPI JUMPDEST PUSH1 0x1 ADD SLOAD PUSH1 0x1 PUSH1 0x1 PUSH1 0xA0 SHL SUB AND CALLER EQ PUSH2 0x515B JUMPI JUMPDEST DUP3 SLOAD PUSH1 0xFF DUP2 PUSH1 0xA0 SHR AND DUP1 PUSH2 0x514E JUMPI JUMPDEST PUSH2 0x50FA JUMPI POP POP POP PUSH1 0x80 PUSH32 0xDA0FDC90D2CAC3C2211C13CF60368ACEB049A3073B8BE0B90792021888C55FC5 SWAP2 SLOAD PUSH1 0xFF PUSH1 0x40 MLOAD SWAP2 CALLER DUP4 MSTORE DUP2 DUP2 PUSH1 0xA0 SHR AND ISZERO ISZERO PUSH1 0x20 DUP5 ADD MSTORE PUSH1 0xA8 SHR AND ISZERO ISZERO PUSH1 0x40 DUP3 ADD MSTORE PUSH0 PUSH1 0x60 DUP3 ADD MSTORE LOG2 PUSH0 SWAP1 JUMP JUMPDEST DUP2 SLOAD PUSH1 0x1 PUSH1 0x1 PUSH1 0xA0 SHL SUB NOT AND PUSH1 0x1 PUSH1 0x1 PUSH1 0xA0 SHL SUB SWAP2 DUP3 AND OR SWAP1 SWAP2 SSTORE SWAP2 SLOAD SWAP1 SLOAD PUSH1 0x40 MLOAD SWAP1 DUP2 MSTORE SWAP2 AND SWAP2 POP PUSH32 0x957372C0E02D2882134CC0EEBBEF9E446634D8CCBB1CBB112BDEFDD3CF0A643C SWAP1 PUSH1 0x20 SWAP1 LOG2 PUSH1 0x1 SWAP1 JUMP JUMPDEST POP PUSH1 0xFF DUP2 PUSH1 0xA8 SHR AND PUSH2 0x50A2 JUMP JUMPDEST DUP3 SLOAD PUSH1 0xFF PUSH1 0xA8 SHL NOT AND PUSH1 0x1 PUSH1 0xA8 SHL OR DUP4 SSTORE PUSH2 0x5093 JUMP JUMPDEST DUP4 SLOAD PUSH1 0xFF PUSH1 0xA0 SHL NOT AND PUSH1 0x1 PUSH1 0xA0 SHL OR DUP5 SSTORE PUSH2 0x507F JUMP JUMPDEST PUSH1 0x80 SWAP3 POP PUSH32 0xDA0FDC90D2CAC3C2211C13CF60368ACEB049A3073B8BE0B90792021888C55FC5 SWAP4 SWAP2 POP PUSH1 0x1 PUSH1 0xB0 SHL SWAP1 PUSH1 0xFF PUSH1 0xB0 SHL NOT AND OR DUP1 SWAP2 SSTORE PUSH1 0xFF PUSH1 0x40 MLOAD SWAP2 CALLER DUP4 MSTORE DUP2 DUP2 PUSH1 0xA0 SHR AND ISZERO ISZERO PUSH1 0x20 DUP5 ADD MSTORE PUSH1 0xA8 SHR AND ISZERO ISZERO PUSH1 0x40 DUP3 ADD MSTORE PUSH1 0x1 PUSH1 0x60 DUP3 ADD MSTORE LOG2 PUSH0 SWAP1 JUMP JUMPDEST POP PUSH1 0x1 DUP2 ADD SLOAD PUSH1 0x1 PUSH1 0x1 PUSH1 0xA0 SHL SUB AND CALLER EQ PUSH2 0x502B JUMP JUMPDEST PUSH0 SWAP2 DUP2 PUSH0 MSTORE PUSH1 0x9 PUSH1 0x20 MSTORE PUSH1 0x40 PUSH0 KECCAK256 DUP1 SLOAD PUSH0 MSTORE PUSH1 0x4 PUSH1 0x20 MSTORE PUSH1 0x40 PUSH0 KECCAK256 SWAP1 PUSH1 0x1 DUP3 ADD SWAP1 PUSH1 0x1 DUP1 PUSH1 0xA0 SHL SUB DUP3 SLOAD AND CALLER EQ DUP1 ISZERO PUSH2 0x551B JUMPI JUMPDEST DUP1 ISZERO PUSH2 0x5505 JUMPI JUMPDEST PUSH2 0x5247 SWAP1 PUSH2 0x4C70 JUMP JUMPDEST PUSH20 0x0 DUP1 EXTCODESIZE ISZERO PUSH2 0xAB4 JUMPI PUSH0 PUSH1 0x40 MLOAD DUP1 SWAP3 PUSH4 0x252A867 PUSH1 0xE5 SHL DUP3 MSTORE DUP2 DUP1 PUSH2 0x5282 DUP10 PUSH1 0x4 DUP4 ADD PUSH2 0x4CA1 JUMP JUMPDEST SUB SWAP2 GAS DELEGATECALL DUP1 ISZERO PUSH2 0x447B JUMPI PUSH2 0x54F0 JUMPI JUMPDEST POP PUSH1 0x2 DUP2 ADD SWAP4 DUP5 SLOAD SWAP1 PUSH2 0x52AA PUSH1 0xFF DUP4 PUSH1 0x20 SHR AND ISZERO PUSH2 0x4FCC JUMP JUMPDEST PUSH2 0x547B JUMPI POP PUSH1 0x1 DUP2 ADD DUP1 SLOAD SWAP2 DUP3 ISZERO DUP1 ISZERO PUSH2 0x5471 JUMPI JUMPDEST PUSH2 0x52C8 SWAP1 PUSH2 0x4DF1 JUMP JUMPDEST DUP5 SLOAD PUSH1 0x1 PUSH1 0x1 PUSH1 0xA0 SHL SUB AND CALLER EQ PUSH2 0x545F JUMPI JUMPDEST DUP4 SLOAD PUSH1 0x1 PUSH1 0x1 PUSH1 0xA0 SHL SUB AND CALLER EQ PUSH2 0x544B JUMPI JUMPDEST PUSH1 0x2 DUP6 ADD DUP1 SLOAD SWAP1 SWAP4 SWAP1 PUSH1 0x1 PUSH1 0x1 PUSH1 0xA0 SHL SUB AND CALLER EQ PUSH2 0x5435 JUMPI JUMPDEST DUP7 SLOAD PUSH1 0xFF DUP2 PUSH1 0x8 SHR AND SWAP1 DUP2 PUSH2 0x5426 JUMPI JUMPDEST DUP2 PUSH2 0x5418 JUMPI JUMPDEST POP PUSH2 0x5383 JUMPI POP POP POP POP POP POP PUSH1 0xA0 PUSH32 0xCA0792B3957820BC249DD7664026CA960EFE1500204314BF8161056D3847D526 SWAP2 SLOAD PUSH1 0xFF PUSH1 0x40 MLOAD SWAP2 CALLER DUP4 MSTORE DUP2 DUP2 PUSH1 0x8 SHR AND ISZERO ISZERO PUSH1 0x20 DUP5 ADD MSTORE DUP2 DUP2 PUSH1 0x10 SHR AND ISZERO ISZERO PUSH1 0x40 DUP5 ADD MSTORE PUSH1 0x18 SHR AND ISZERO ISZERO PUSH1 0x60 DUP3 ADD MSTORE DUP5 PUSH1 0x80 DUP3 ADD MSTORE LOG2 SWAP1 JUMP JUMPDEST DUP6 SWAP9 POP SWAP2 PUSH1 0xFF PUSH32 0x932BD05AAEE1F6600767846BAB40EAABEF608993E19645684D0A9FCB3335D372 SWAP8 SWAP3 PUSH2 0x5412 SWAP6 SWAP5 PUSH1 0xB PUSH1 0xC0 SWAP10 ADD SSTORE PUSH2 0x53C8 DUP3 DUP6 SLOAD AND PUSH1 0xC DUP14 ADD PUSH2 0x4C58 JUMP JUMPDEST SLOAD SWAP10 SLOAD SWAP6 SLOAD SWAP4 SLOAD SWAP2 SLOAD SWAP3 SLOAD PUSH1 0x40 DUP1 MLOAD PUSH1 0x1 PUSH1 0x1 PUSH1 0xA0 SHL SUB SWAP9 DUP10 AND DUP2 MSTORE SWAP6 DUP9 AND PUSH1 0x20 DUP8 ADD MSTORE SWAP3 SWAP1 SWAP7 AND SWAP2 DUP5 ADD SWAP2 SWAP1 SWAP2 MSTORE CALLER PUSH1 0x60 DUP5 ADD MSTORE PUSH1 0x80 DUP4 ADD SWAP2 SWAP1 SWAP2 MSTORE SWAP1 SWAP3 PUSH1 0xA0 DUP5 ADD SWAP2 AND PUSH2 0x48A0 JUMP JUMPDEST LOG3 PUSH1 0x1 SWAP1 JUMP JUMPDEST PUSH1 0xFF SWAP2 POP PUSH1 0x18 SHR AND PUSH0 PUSH2 0x531B JUMP JUMPDEST SWAP1 POP PUSH1 0xFF DUP2 PUSH1 0x10 SHR AND SWAP1 PUSH2 0x5315 JUMP JUMPDEST DUP7 SLOAD PUSH4 0xFF000000 NOT AND PUSH4 0x1000000 OR DUP8 SSTORE PUSH2 0x5305 JUMP JUMPDEST DUP6 SLOAD PUSH3 0xFF0000 NOT AND PUSH3 0x10000 OR DUP7 SSTORE PUSH2 0x52EC JUMP JUMPDEST DUP6 SLOAD PUSH2 0xFF00 NOT AND PUSH2 0x100 OR DUP7 SSTORE PUSH2 0x52DA JUMP JUMPDEST POP TIMESTAMP DUP4 GT ISZERO PUSH2 0x52BF JUMP JUMPDEST PUSH1 0xA0 SWAP4 POP PUSH32 0xCA0792B3957820BC249DD7664026CA960EFE1500204314BF8161056D3847D526 SWAP5 SWAP3 POP PUSH5 0x100000000 SWAP2 POP PUSH5 0xFF00000000 NOT AND OR DUP1 SWAP2 SSTORE PUSH1 0xFF PUSH1 0x40 MLOAD SWAP2 CALLER DUP4 MSTORE DUP2 DUP2 PUSH1 0x8 SHR AND ISZERO ISZERO PUSH1 0x20 DUP5 ADD MSTORE DUP2 DUP2 PUSH1 0x10 SHR AND ISZERO ISZERO PUSH1 0x40 DUP5 ADD MSTORE PUSH1 0x18 SHR AND ISZERO ISZERO PUSH1 0x60 DUP3 ADD MSTORE PUSH1 0x1 PUSH1 0x80 DUP3 ADD MSTORE LOG2 SWAP1 JUMP JUMPDEST PUSH2 0x54FD SWAP2 SWAP7 POP PUSH0 SWAP1 PUSH2 0x4A59 JUMP JUMPDEST PUSH0 SWAP5 PUSH0 PUSH2 0x5291 JUMP JUMPDEST POP PUSH1 0x2 DUP4 ADD SLOAD PUSH1 0x1 PUSH1 0x1 PUSH1 0xA0 SHL SUB AND CALLER EQ PUSH2 0x523E JUMP JUMPDEST POP DUP3 SLOAD PUSH1 0x1 PUSH1 0x1 PUSH1 0xA0 SHL SUB AND CALLER EQ PUSH2 0x5237 JUMP JUMPDEST DUP3 ISZERO PUSH2 0x55CD JUMPI PUSH1 0x1 DUP1 PUSH1 0xA0 SHL SUB AND SWAP1 DUP2 PUSH0 MSTORE PUSH1 0x1 PUSH1 0x20 MSTORE PUSH1 0x40 PUSH0 KECCAK256 PUSH1 0x1 DUP1 PUSH1 0xA0 SHL SUB DUP3 AND PUSH0 MSTORE PUSH1 0x20 MSTORE DUP3 PUSH1 0x40 PUSH0 KECCAK256 SLOAD LT PUSH2 0x55C6 JUMPI PUSH32 0xD1398BEE19313D6BF672CCB116E51F4A1A947E91C757907F51FBB5B5E56C698F PUSH1 0x20 PUSH0 SWAP3 DUP5 DUP5 MSTORE PUSH1 0x1 DUP3 MSTORE PUSH1 0x40 DUP5 KECCAK256 PUSH1 0x1 DUP1 PUSH1 0xA0 SHL SUB DUP3 AND DUP6 MSTORE DUP3 MSTORE PUSH1 0x40 DUP5 KECCAK256 PUSH2 0x55AE DUP8 DUP3 SLOAD PUSH2 0x4D88 JUMP JUMPDEST SWAP1 SSTORE PUSH1 0x40 MLOAD SWAP6 DUP7 MSTORE PUSH1 0x1 PUSH1 0x1 PUSH1 0xA0 SHL SUB AND SWAP5 LOG4 PUSH1 0x1 SWAP1 JUMP JUMPDEST POP POP POP PUSH0 SWAP1 JUMP JUMPDEST POP POP POP PUSH1 0x1 SWAP1 JUMP JUMPDEST SWAP1 SWAP3 SWAP2 SWAP1 ISZERO PUSH2 0x55EA JUMPI PUSH2 0x55E7 SWAP3 PUSH2 0x55F3 JUMP JUMPDEST SWAP1 JUMP JUMPDEST PUSH2 0x55E7 SWAP3 PUSH2 0x564E JUMP JUMPDEST DUP3 ISZERO PUSH2 0x55CD JUMPI PUSH32 0xD1398BEE19313D6BF672CCB116E51F4A1A947E91C757907F51FBB5B5E56C698F PUSH1 0x20 PUSH0 SWAP3 PUSH1 0x1 DUP1 PUSH1 0xA0 SHL SUB AND SWAP4 DUP5 DUP5 MSTORE PUSH1 0x1 DUP3 MSTORE PUSH1 0x40 DUP5 KECCAK256 PUSH1 0x1 DUP1 PUSH1 0xA0 SHL SUB DUP3 AND DUP6 MSTORE DUP3 MSTORE PUSH1 0x40 DUP5 KECCAK256 PUSH2 0x55AE DUP8 DUP3 SLOAD PUSH2 0x4F2A JUMP JUMPDEST SWAP2 SWAP1 DUP2 ISZERO PUSH2 0x55CD JUMPI PUSH1 0x1 PUSH1 0x1 PUSH1 0xA0 SHL SUB AND SWAP2 DUP3 PUSH2 0x56B6 JUMPI PUSH0 DUP1 DUP1 DUP1 DUP6 PUSH1 0x1 PUSH1 0x1 PUSH1 0xA0 SHL SUB DUP7 AND DUP3 CALL ISZERO PUSH2 0x447B JUMPI PUSH1 0x20 PUSH32 0x2717EAD6B9200DD235AAD468C9809EA400FE33AC69B5BFAA6D3E90FC922B6398 SWAP2 JUMPDEST PUSH1 0x40 MLOAD SWAP4 DUP5 MSTORE PUSH1 0x1 PUSH1 0x1 PUSH1 0xA0 SHL SUB AND SWAP3 LOG3 PUSH1 0x1 SWAP1 JUMP JUMPDEST PUSH1 0x40 MLOAD PUSH4 0xA9059CBB PUSH1 0xE0 SHL DUP2 MSTORE PUSH1 0x1 PUSH1 0x1 PUSH1 0xA0 SHL SUB DUP3 AND PUSH1 0x4 DUP3 ADD MSTORE PUSH1 0x24 DUP2 ADD DUP4 SWAP1 MSTORE PUSH1 0x20 DUP2 PUSH1 0x44 DUP2 PUSH0 DUP9 GAS CALL SWAP1 DUP2 ISZERO PUSH2 0x447B JUMPI PUSH0 SWAP2 PUSH2 0x574A JUMPI JUMPDEST POP ISZERO PUSH2 0x5720 JUMPI PUSH1 0x20 PUSH32 0x2717EAD6B9200DD235AAD468C9809EA400FE33AC69B5BFAA6D3E90FC922B6398 SWAP2 PUSH2 0x56A0 JUMP JUMPDEST PUSH1 0x40 MLOAD PUSH3 0x461BCD PUSH1 0xE5 SHL DUP2 MSTORE PUSH1 0x20 PUSH1 0x4 DUP3 ADD MSTORE PUSH1 0x2 PUSH1 0x24 DUP3 ADD MSTORE PUSH2 0x5433 PUSH1 0xF0 SHL PUSH1 0x44 DUP3 ADD MSTORE PUSH1 0x64 SWAP1 REVERT JUMPDEST SWAP1 POP PUSH1 0x20 DUP2 RETURNDATASIZE PUSH1 0x20 GT PUSH2 0x577C JUMPI JUMPDEST DUP2 PUSH2 0x5765 PUSH1 0x20 SWAP4 DUP4 PUSH2 0x4A59 JUMP JUMPDEST DUP2 ADD SUB SLT PUSH2 0xAB4 JUMPI PUSH2 0x5776 SWAP1 PUSH2 0x4A8F JUMP JUMPDEST PUSH0 PUSH2 0x56F1 JUMP JUMPDEST RETURNDATASIZE SWAP2 POP PUSH2 0x5758 JUMP INVALID DUP11 RETURN SWAP9 EQ DUP3 PUSH14 0x4542F7FE66E6FA6AC2AC59BFC822 SGT SWAP5 CREATE2 BYTE COINBASE 0xDB 0xA5 0xC5 0x4D 0xBA EXP 0xC9 0xAF 0xBE CALLER PUSH24 0x83658B293F1566E1790BFAB9858B8CF08DE944CA3CD013D4 0x21 XOR DUP8 0xB8 ADDMOD PUSH13 0x61B89EF5FCDB14C243B643069C EXTCODECOPY PUSH11 0x84765B27F2A696B875DDDF SUB BYTE 0xFB 0x4D SWAP14 PC XOR 0xEC CALLDATASIZE 0xD6 0xE8 MCOPY DUP11 ADDRESS CALLVALUE PUSH16 0x5FE41B65CC50CEA2B868AE94F293D113 0xC9 0x2A SGT CODESIZE 0xA6 0xAF NOT 0x23 DUP1 0xB5 0xBA BALANCE BYTE 0xC0 SUB CREATE2 PUSH31 0xFA2BE0717F0E466318C7E9CF546C4937A03D94DCBC1C05240F31FF3AD067EF 0x1E 0xE3 TLOAD 0xE4 SWAP10 PUSH24 0x62752E3A095284754544F4C709D79F039F6754F2D286001D PUSH12 0xB50C1B3CC185B309E82F6307 PUSH31 0x29516A6A87E8E99DA2646970667358221220E70EA88898309C0132E061BFFB 0xEE PUSH5 0xF87CE428E2 0xD2 SELFBALANCE 0xE 0xD6 ORIGIN 0xA5 ORIGIN DUP10 SGT 0xEC 0xFB 0xCA PUSH5 0x736F6C6343 STOP ADDMOD BYTE STOP CALLER "
		},
		"gasEstimates": {
			"creation": {
				"codeDepositCost": "4536400",
				"executionCost": "infinite",
				"totalCost": "infinite"
			},
			"external": {
				"addDepositByCounterparty(bytes32,uint256,bool)": "infinite",
				"addDepositByInitiator(bytes32,uint256,bool)": "infinite",
				"balanceOf(address)": "2911",
				"balanceOf(address,address)": "3589",
				"balances(address,address)": "3374",
				"cancelDeal(bytes32,bool)": "infinite",
				"commissionRecipient()": "2344",
				"completeDeal(bytes32,bool)": "infinite",
				"contractEnabled()": "2536",
				"counterpartyAcceptSidedDeal(bytes32)": "72531",
				"createDeal(address,address,uint256,uint256,address,uint256,uint8)": "infinite",
				"createDealEditExpiration(bytes32,uint256,uint8)": "infinite",
				"createEditDealMediatorRequest(bytes32,address)": "83048",
				"createSidedDeal(address,address,uint256,uint256,uint256,uint256,address,address,uint256,uint8)": "infinite",
				"deals(bytes32)": "28675",
				"deposit(address,uint256)": "infinite",
				"depositCommissionPercent()": "2804",
				"disableContract()": "25984",
				"editDealExpirationRequests(uint256)": "7571",
				"editDealMediatorRequests(uint256)": "4903",
				"enableContract()": "25666",
				"executeActionsAfterExpiration(bytes32,bool)": "infinite",
				"getAmountToDepositViaComission(uint256)": "infinite",
				"getDeal(bytes32)": "infinite",
				"getEditDealExpiratation(uint256)": "infinite",
				"getEditDealMediator(uint256)": "infinite",
				"givebackToConunterparty(bytes32,uint256,bool)": "infinite",
				"givebackToInitiator(bytes32,uint256,bool)": "infinite",
				"madeDealTwoSided(bytes32,address,uint256,uint256)": "infinite",
				"owner()": "2847",
				"payUpCounterpartyAcceptSidedDeal(bytes32)": "77224",
				"payUpCreateDeal(address,address,uint256,uint256,address,uint256,uint8)": "infinite",
				"payUpCreateSidedDeal(address,address,uint256,uint256,uint256,uint256,address,address,uint256,uint8)": "infinite",
				"payUpMadeDealTwoSided(bytes32,address,uint256,uint256)": "infinite",
				"rejectSidedDeal(bytes32)": "infinite",
				"setDepositCommission(uint256,address)": "50260",
				"signDealEditExpiration(uint256,bool)": "infinite",
				"signEditDealMediatorRequest(uint256,bool)": "infinite",
				"totalCompletedDeals()": "3178",
				"totalDeals()": "2870",
				"totalEditDealMediatorRequests()": "2298",
				"totalEditExpirationRequests()": "2914",
				"transfer(address,address,uint256)": "54397",
				"transferOwnership(address)": "27050",
				"transferToCounterparty(bytes32,uint256,bool)": "infinite",
				"transferToInitiator(bytes32,uint256,bool)": "infinite",
				"withdraw(address,uint256)": "infinite",
				"withdrawRejectSidedDeal(bytes32)": "infinite"
			}
		},
		"methodIdentifiers": {
			"addDepositByCounterparty(bytes32,uint256,bool)": "67c5545d",
			"addDepositByInitiator(bytes32,uint256,bool)": "ad94b28b",
			"balanceOf(address)": "70a08231",
			"balanceOf(address,address)": "f7888aec",
			"balances(address,address)": "c23f001f",
			"cancelDeal(bytes32,bool)": "d750158b",
			"commissionRecipient()": "06fd154a",
			"completeDeal(bytes32,bool)": "6242c6cd",
			"contractEnabled()": "41b3a0d9",
			"counterpartyAcceptSidedDeal(bytes32)": "4187129c",
			"createDeal(address,address,uint256,uint256,address,uint256,uint8)": "17b52b50",
			"createDealEditExpiration(bytes32,uint256,uint8)": "1273c165",
			"createEditDealMediatorRequest(bytes32,address)": "cfaaf235",
			"createSidedDeal(address,address,uint256,uint256,uint256,uint256,address,address,uint256,uint8)": "007e8bd3",
			"deals(bytes32)": "81cd872a",
			"deposit(address,uint256)": "47e7ef24",
			"depositCommissionPercent()": "899a3ffd",
			"disableContract()": "894ba833",
			"editDealExpirationRequests(uint256)": "c15a25bf",
			"editDealMediatorRequests(uint256)": "53a78000",
			"enableContract()": "367edd32",
			"executeActionsAfterExpiration(bytes32,bool)": "ee026054",
			"getAmountToDepositViaComission(uint256)": "39b3edb0",
			"getDeal(bytes32)": "51a6fad5",
			"getEditDealExpiratation(uint256)": "eb457329",
			"getEditDealMediator(uint256)": "ba343f6d",
			"givebackToConunterparty(bytes32,uint256,bool)": "c2c257b9",
			"givebackToInitiator(bytes32,uint256,bool)": "a0849a33",
			"madeDealTwoSided(bytes32,address,uint256,uint256)": "63adb66f",
			"owner()": "8da5cb5b",
			"payUpCounterpartyAcceptSidedDeal(bytes32)": "bb06c1a4",
			"payUpCreateDeal(address,address,uint256,uint256,address,uint256,uint8)": "28d5a050",
			"payUpCreateSidedDeal(address,address,uint256,uint256,uint256,uint256,address,address,uint256,uint8)": "cfadf6c7",
			"payUpMadeDealTwoSided(bytes32,address,uint256,uint256)": "0934da22",
			"rejectSidedDeal(bytes32)": "8deea5fb",
			"setDepositCommission(uint256,address)": "15f8a314",
			"signDealEditExpiration(uint256,bool)": "71ae8bcd",
			"signEditDealMediatorRequest(uint256,bool)": "619c457e",
			"totalCompletedDeals()": "e08560a4",
			"totalDeals()": "966d1f1d",
			"totalEditDealMediatorRequests()": "02927459",
			"totalEditExpirationRequests()": "9974f376",
			"transfer(address,address,uint256)": "beabacc8",
			"transferOwnership(address)": "f2fde38b",
			"transferToCounterparty(bytes32,uint256,bool)": "9905a1ea",
			"transferToInitiator(bytes32,uint256,bool)": "01cafae3",
			"withdraw(address,uint256)": "f3fef3a3",
			"withdrawRejectSidedDeal(bytes32)": "80ccb070"
		}
	},
	"abi": [
		{
			"inputs": [
				{
					"internalType": "uint256",
					"name": "_depositCommissionPercent",
					"type": "uint256"
				},
				{
					"internalType": "address",
					"name": "_commissionRecipient",
					"type": "address"
				}
			],
			"stateMutability": "nonpayable",
			"type": "constructor"
		},
		{
			"anonymous": false,
			"inputs": [
				{
					"indexed": true,
					"internalType": "bytes32",
					"name": "id",
					"type": "bytes32"
				},
				{
					"indexed": true,
					"internalType": "address",
					"name": "initiator",
					"type": "address"
				},
				{
					"indexed": true,
					"internalType": "address",
					"name": "counterparty",
					"type": "address"
				},
				{
					"indexed": false,
					"internalType": "address",
					"name": "mediator",
					"type": "address"
				},
				{
					"indexed": false,
					"internalType": "uint256",
					"name": "amount",
					"type": "uint256"
				}
			],
			"name": "AddDepositByCounterparty",
			"type": "event"
		},
		{
			"anonymous": false,
			"inputs": [
				{
					"indexed": true,
					"internalType": "bytes32",
					"name": "id",
					"type": "bytes32"
				},
				{
					"indexed": true,
					"internalType": "address",
					"name": "initiator",
					"type": "address"
				},
				{
					"indexed": true,
					"internalType": "address",
					"name": "counterparty",
					"type": "address"
				},
				{
					"indexed": false,
					"internalType": "address",
					"name": "mediator",
					"type": "address"
				},
				{
					"indexed": false,
					"internalType": "uint256",
					"name": "amount",
					"type": "uint256"
				}
			],
			"name": "AddDepositByInitiator",
			"type": "event"
		},
		{
			"anonymous": false,
			"inputs": [
				{
					"indexed": false,
					"internalType": "uint256",
					"name": "newCommissionPercent",
					"type": "uint256"
				},
				{
					"indexed": false,
					"internalType": "address",
					"name": "newCommissionRecipient",
					"type": "address"
				}
			],
			"name": "CommissionChanged",
			"type": "event"
		},
		{
			"anonymous": false,
			"inputs": [
				{
					"indexed": false,
					"internalType": "bool",
					"name": "status",
					"type": "bool"
				}
			],
			"name": "ContractStatusChanged",
			"type": "event"
		},
		{
			"anonymous": false,
			"inputs": [
				{
					"indexed": true,
					"internalType": "bytes32",
					"name": "id",
					"type": "bytes32"
				},
				{
					"indexed": true,
					"internalType": "address",
					"name": "initiator",
					"type": "address"
				},
				{
					"indexed": true,
					"internalType": "address",
					"name": "counterparty",
					"type": "address"
				},
				{
					"indexed": false,
					"internalType": "address",
					"name": "mediator",
					"type": "address"
				}
			],
			"name": "DealBecomeTwoSided",
			"type": "event"
		},
		{
			"anonymous": false,
			"inputs": [
				{
					"indexed": true,
					"internalType": "bytes32",
					"name": "id",
					"type": "bytes32"
				},
				{
					"indexed": true,
					"internalType": "address",
					"name": "initiator",
					"type": "address"
				},
				{
					"indexed": true,
					"internalType": "address",
					"name": "counterparty",
					"type": "address"
				},
				{
					"indexed": false,
					"internalType": "address",
					"name": "mediator",
					"type": "address"
				},
				{
					"indexed": false,
					"internalType": "address",
					"name": "sender",
					"type": "address"
				}
			],
			"name": "DealCanceled",
			"type": "event"
		},
		{
			"anonymous": false,
			"inputs": [
				{
					"indexed": true,
					"internalType": "bytes32",
					"name": "id",
					"type": "bytes32"
				},
				{
					"indexed": true,
					"internalType": "address",
					"name": "initiator",
					"type": "address"
				},
				{
					"indexed": true,
					"internalType": "address",
					"name": "counterparty",
					"type": "address"
				},
				{
					"indexed": false,
					"internalType": "address",
					"name": "mediator",
					"type": "address"
				},
				{
					"indexed": false,
					"internalType": "address",
					"name": "sender",
					"type": "address"
				}
			],
			"name": "DealCompited",
			"type": "event"
		},
		{
			"anonymous": false,
			"inputs": [
				{
					"indexed": true,
					"internalType": "bytes32",
					"name": "id",
					"type": "bytes32"
				},
				{
					"indexed": true,
					"internalType": "address",
					"name": "initiator",
					"type": "address"
				},
				{
					"indexed": true,
					"internalType": "address",
					"name": "counterparty",
					"type": "address"
				},
				{
					"indexed": false,
					"internalType": "address",
					"name": "mediator",
					"type": "address"
				}
			],
			"name": "DealCreated",
			"type": "event"
		},
		{
			"anonymous": false,
			"inputs": [
				{
					"indexed": true,
					"internalType": "bytes32",
					"name": "id",
					"type": "bytes32"
				},
				{
					"indexed": true,
					"internalType": "address",
					"name": "initiator",
					"type": "address"
				},
				{
					"indexed": true,
					"internalType": "address",
					"name": "counterparty",
					"type": "address"
				},
				{
					"indexed": false,
					"internalType": "address",
					"name": "mediator",
					"type": "address"
				}
			],
			"name": "DealRequestCreated",
			"type": "event"
		},
		{
			"anonymous": false,
			"inputs": [
				{
					"indexed": true,
					"internalType": "address",
					"name": "user",
					"type": "address"
				},
				{
					"indexed": true,
					"internalType": "address",
					"name": "token",
					"type": "address"
				},
				{
					"indexed": false,
					"internalType": "uint256",
					"name": "amount",
					"type": "uint256"
				},
				{
					"indexed": false,
					"internalType": "uint256",
					"name": "commission",
					"type": "uint256"
				}
			],
			"name": "Deposit",
			"type": "event"
		},
		{
			"anonymous": false,
			"inputs": [
				{
					"indexed": true,
					"internalType": "bytes32",
					"name": "id",
					"type": "bytes32"
				},
				{
					"indexed": true,
					"internalType": "address",
					"name": "initiator",
					"type": "address"
				},
				{
					"indexed": true,
					"internalType": "address",
					"name": "counterparty",
					"type": "address"
				},
				{
					"indexed": false,
					"internalType": "address",
					"name": "mediator",
					"type": "address"
				},
				{
					"indexed": false,
					"internalType": "address",
					"name": "sender",
					"type": "address"
				},
				{
					"indexed": false,
					"internalType": "uint256",
					"name": "requestId",
					"type": "uint256"
				}
			],
			"name": "EditDealExpirationRequestCreated",
			"type": "event"
		},
		{
			"anonymous": false,
			"inputs": [
				{
					"indexed": true,
					"internalType": "uint256",
					"name": "id",
					"type": "uint256"
				},
				{
					"indexed": false,
					"internalType": "address",
					"name": "sender",
					"type": "address"
				},
				{
					"indexed": false,
					"internalType": "bool",
					"name": "signedInititor",
					"type": "bool"
				},
				{
					"indexed": false,
					"internalType": "bool",
					"name": "signedCounterparty",
					"type": "bool"
				},
				{
					"indexed": false,
					"internalType": "bool",
					"name": "signedMediator",
					"type": "bool"
				},
				{
					"indexed": false,
					"internalType": "bool",
					"name": "rejected",
					"type": "bool"
				}
			],
			"name": "EditDealExpirationRequestUpdated",
			"type": "event"
		},
		{
			"anonymous": false,
			"inputs": [
				{
					"indexed": true,
					"internalType": "uint256",
					"name": "id",
					"type": "uint256"
				},
				{
					"indexed": true,
					"internalType": "bytes32",
					"name": "dealId",
					"type": "bytes32"
				},
				{
					"indexed": true,
					"internalType": "address",
					"name": "newMediator",
					"type": "address"
				},
				{
					"indexed": false,
					"internalType": "address",
					"name": "sender",
					"type": "address"
				}
			],
			"name": "EditDealMediatorRequestCreated",
			"type": "event"
		},
		{
			"anonymous": false,
			"inputs": [
				{
					"indexed": true,
					"internalType": "uint256",
					"name": "reid",
					"type": "uint256"
				},
				{
					"indexed": false,
					"internalType": "address",
					"name": "sender",
					"type": "address"
				},
				{
					"indexed": false,
					"internalType": "bool",
					"name": "signedByInitiator",
					"type": "bool"
				},
				{
					"indexed": false,
					"internalType": "bool",
					"name": "signedByCounterparty",
					"type": "bool"
				},
				{
					"indexed": false,
					"internalType": "bool",
					"name": "rejected",
					"type": "bool"
				}
			],
			"name": "EditDealMediatorRequestUpdated",
			"type": "event"
		},
		{
			"anonymous": false,
			"inputs": [
				{
					"indexed": true,
					"internalType": "uint256",
					"name": "Id",
					"type": "uint256"
				},
				{
					"indexed": true,
					"internalType": "bytes32",
					"name": "dealId",
					"type": "bytes32"
				},
				{
					"indexed": false,
					"internalType": "address",
					"name": "initiator",
					"type": "address"
				},
				{
					"indexed": false,
					"internalType": "address",
					"name": "counterparty",
					"type": "address"
				},
				{
					"indexed": false,
					"internalType": "address",
					"name": "mediator",
					"type": "address"
				},
				{
					"indexed": false,
					"internalType": "address",
					"name": "sender",
					"type": "address"
				},
				{
					"indexed": false,
					"internalType": "uint256",
					"name": "newExpirationDate",
					"type": "uint256"
				},
				{
					"indexed": false,
					"internalType": "enum MediatorAction",
					"name": "mediatorActionOnExpiration",
					"type": "uint8"
				}
			],
			"name": "EditedDealExpiration",
			"type": "event"
		},
		{
			"anonymous": false,
			"inputs": [
				{
					"indexed": true,
					"internalType": "bytes32",
					"name": "id",
					"type": "bytes32"
				},
				{
					"indexed": true,
					"internalType": "address",
					"name": "initiator",
					"type": "address"
				},
				{
					"indexed": true,
					"internalType": "address",
					"name": "counterparty",
					"type": "address"
				},
				{
					"indexed": false,
					"internalType": "address",
					"name": "mediator",
					"type": "address"
				},
				{
					"indexed": false,
					"internalType": "address",
					"name": "sender",
					"type": "address"
				},
				{
					"indexed": false,
					"internalType": "uint256",
					"name": "amount",
					"type": "uint256"
				},
				{
					"indexed": false,
					"internalType": "uint256",
					"name": "fee",
					"type": "uint256"
				}
			],
			"name": "GivebackToCounterparty",
			"type": "event"
		},
		{
			"anonymous": false,
			"inputs": [
				{
					"indexed": true,
					"internalType": "bytes32",
					"name": "id",
					"type": "bytes32"
				},
				{
					"indexed": true,
					"internalType": "address",
					"name": "initiator",
					"type": "address"
				},
				{
					"indexed": true,
					"internalType": "address",
					"name": "counterparty",
					"type": "address"
				},
				{
					"indexed": false,
					"internalType": "address",
					"name": "mediator",
					"type": "address"
				},
				{
					"indexed": false,
					"internalType": "address",
					"name": "sender",
					"type": "address"
				},
				{
					"indexed": false,
					"internalType": "uint256",
					"name": "amount",
					"type": "uint256"
				},
				{
					"indexed": false,
					"internalType": "uint256",
					"name": "fee",
					"type": "uint256"
				}
			],
			"name": "GivebackToInitiator",
			"type": "event"
		},
		{
			"anonymous": false,
			"inputs": [
				{
					"indexed": true,
					"internalType": "address",
					"name": "mediator",
					"type": "address"
				},
				{
					"indexed": false,
					"internalType": "bytes32",
					"name": "dealId",
					"type": "bytes32"
				}
			],
			"name": "JoinedToDealAsMediator",
			"type": "event"
		},
		{
			"anonymous": false,
			"inputs": [
				{
					"indexed": true,
					"internalType": "address",
					"name": "previousOwner",
					"type": "address"
				},
				{
					"indexed": true,
					"internalType": "address",
					"name": "newOwner",
					"type": "address"
				}
			],
			"name": "OwnershipTransferred",
			"type": "event"
		},
		{
			"anonymous": false,
			"inputs": [
				{
					"indexed": true,
					"internalType": "address",
					"name": "from",
					"type": "address"
				},
				{
					"indexed": true,
					"internalType": "address",
					"name": "to",
					"type": "address"
				},
				{
					"indexed": true,
					"internalType": "address",
					"name": "token",
					"type": "address"
				},
				{
					"indexed": false,
					"internalType": "uint256",
					"name": "value",
					"type": "uint256"
				}
			],
			"name": "Transfer",
			"type": "event"
		},
		{
			"anonymous": false,
			"inputs": [
				{
					"indexed": true,
					"internalType": "bytes32",
					"name": "id",
					"type": "bytes32"
				},
				{
					"indexed": true,
					"internalType": "address",
					"name": "initiator",
					"type": "address"
				},
				{
					"indexed": true,
					"internalType": "address",
					"name": "counterparty",
					"type": "address"
				},
				{
					"indexed": false,
					"internalType": "address",
					"name": "mediator",
					"type": "address"
				},
				{
					"indexed": false,
					"internalType": "address",
					"name": "sender",
					"type": "address"
				},
				{
					"indexed": false,
					"internalType": "uint256",
					"name": "amount",
					"type": "uint256"
				},
				{
					"indexed": false,
					"internalType": "uint256",
					"name": "fee",
					"type": "uint256"
				}
			],
			"name": "TransferToCounterparty",
			"type": "event"
		},
		{
			"anonymous": false,
			"inputs": [
				{
					"indexed": true,
					"internalType": "bytes32",
					"name": "id",
					"type": "bytes32"
				},
				{
					"indexed": true,
					"internalType": "address",
					"name": "initiator",
					"type": "address"
				},
				{
					"indexed": true,
					"internalType": "address",
					"name": "counterparty",
					"type": "address"
				},
				{
					"indexed": false,
					"internalType": "address",
					"name": "mediator",
					"type": "address"
				},
				{
					"indexed": false,
					"internalType": "address",
					"name": "sender",
					"type": "address"
				},
				{
					"indexed": false,
					"internalType": "address",
					"name": "target",
					"type": "address"
				},
				{
					"indexed": false,
					"internalType": "uint256",
					"name": "amountInitiator",
					"type": "uint256"
				},
				{
					"indexed": false,
					"internalType": "uint256",
					"name": "amountCounterparty",
					"type": "uint256"
				},
				{
					"indexed": false,
					"internalType": "uint256",
					"name": "feeInitiator",
					"type": "uint256"
				},
				{
					"indexed": false,
					"internalType": "uint256",
					"name": "feeCounterparty",
					"type": "uint256"
				}
			],
			"name": "TransferToFromDeal",
			"type": "event"
		},
		{
			"anonymous": false,
			"inputs": [
				{
					"indexed": true,
					"internalType": "bytes32",
					"name": "id",
					"type": "bytes32"
				},
				{
					"indexed": true,
					"internalType": "address",
					"name": "initiator",
					"type": "address"
				},
				{
					"indexed": true,
					"internalType": "address",
					"name": "counterparty",
					"type": "address"
				},
				{
					"indexed": false,
					"internalType": "address",
					"name": "mediator",
					"type": "address"
				},
				{
					"indexed": false,
					"internalType": "address",
					"name": "sender",
					"type": "address"
				},
				{
					"indexed": false,
					"internalType": "uint256",
					"name": "amount",
					"type": "uint256"
				},
				{
					"indexed": false,
					"internalType": "uint256",
					"name": "fee",
					"type": "uint256"
				}
			],
			"name": "TransferToInitiator",
			"type": "event"
		},
		{
			"anonymous": false,
			"inputs": [
				{
					"indexed": true,
					"internalType": "address",
					"name": "user",
					"type": "address"
				},
				{
					"indexed": true,
					"internalType": "address",
					"name": "token",
					"type": "address"
				},
				{
					"indexed": false,
					"internalType": "uint256",
					"name": "amount",
					"type": "uint256"
				}
			],
			"name": "Withdrawal",
			"type": "event"
		},
		{
			"inputs": [
				{
					"internalType": "bytes32",
					"name": "dealId",
					"type": "bytes32"
				},
				{
					"internalType": "uint256",
					"name": "amount",
					"type": "uint256"
				},
				{
					"internalType": "bool",
					"name": "local",
					"type": "bool"
				}
			],
			"name": "addDepositByCounterparty",
			"outputs": [
				{
					"internalType": "bool",
					"name": "",
					"type": "bool"
				}
			],
			"stateMutability": "payable",
			"type": "function"
		},
		{
			"inputs": [
				{
					"internalType": "bytes32",
					"name": "dealId",
					"type": "bytes32"
				},
				{
					"internalType": "uint256",
					"name": "amount",
					"type": "uint256"
				},
				{
					"internalType": "bool",
					"name": "local",
					"type": "bool"
				}
			],
			"name": "addDepositByInitiator",
			"outputs": [
				{
					"internalType": "bool",
					"name": "",
					"type": "bool"
				}
			],
			"stateMutability": "payable",
			"type": "function"
		},
		{
			"inputs": [
				{
					"internalType": "address",
					"name": "user",
					"type": "address"
				}
			],
			"name": "balanceOf",
			"outputs": [
				{
					"internalType": "uint256",
					"name": "",
					"type": "uint256"
				}
			],
			"stateMutability": "view",
			"type": "function"
		},
		{
			"inputs": [
				{
					"internalType": "address",
					"name": "user",
					"type": "address"
				},
				{
					"internalType": "address",
					"name": "token",
					"type": "address"
				}
			],
			"name": "balanceOf",
			"outputs": [
				{
					"internalType": "uint256",
					"name": "",
					"type": "uint256"
				}
			],
			"stateMutability": "view",
			"type": "function"
		},
		{
			"inputs": [
				{
					"internalType": "address",
					"name": "",
					"type": "address"
				},
				{
					"internalType": "address",
					"name": "",
					"type": "address"
				}
			],
			"name": "balances",
			"outputs": [
				{
					"internalType": "uint256",
					"name": "",
					"type": "uint256"
				}
			],
			"stateMutability": "view",
			"type": "function"
		},
		{
			"inputs": [
				{
					"internalType": "bytes32",
					"name": "dealId",
					"type": "bytes32"
				},
				{
					"internalType": "bool",
					"name": "local",
					"type": "bool"
				}
			],
			"name": "cancelDeal",
			"outputs": [
				{
					"internalType": "bool",
					"name": "",
					"type": "bool"
				}
			],
			"stateMutability": "nonpayable",
			"type": "function"
		},
		{
			"inputs": [],
			"name": "commissionRecipient",
			"outputs": [
				{
					"internalType": "address",
					"name": "",
					"type": "address"
				}
			],
			"stateMutability": "view",
			"type": "function"
		},
		{
			"inputs": [
				{
					"internalType": "bytes32",
					"name": "dealId",
					"type": "bytes32"
				},
				{
					"internalType": "bool",
					"name": "local",
					"type": "bool"
				}
			],
			"name": "completeDeal",
			"outputs": [
				{
					"internalType": "bool",
					"name": "",
					"type": "bool"
				}
			],
			"stateMutability": "nonpayable",
			"type": "function"
		},
		{
			"inputs": [],
			"name": "contractEnabled",
			"outputs": [
				{
					"internalType": "bool",
					"name": "",
					"type": "bool"
				}
			],
			"stateMutability": "view",
			"type": "function"
		},
		{
			"inputs": [
				{
					"internalType": "bytes32",
					"name": "dealId",
					"type": "bytes32"
				}
			],
			"name": "counterpartyAcceptSidedDeal",
			"outputs": [
				{
					"internalType": "bool",
					"name": "",
					"type": "bool"
				}
			],
			"stateMutability": "nonpayable",
			"type": "function"
		},
		{
			"inputs": [
				{
					"internalType": "address payable",
					"name": "counterparty",
					"type": "address"
				},
				{
					"internalType": "address payable",
					"name": "mediator",
					"type": "address"
				},
				{
					"internalType": "uint256",
					"name": "amount",
					"type": "uint256"
				},
				{
					"internalType": "uint256",
					"name": "PRCMediatorFee",
					"type": "uint256"
				},
				{
					"internalType": "address",
					"name": "tokenAddress",
					"type": "address"
				},
				{
					"internalType": "uint256",
					"name": "expirationDate",
					"type": "uint256"
				},
				{
					"internalType": "enum MediatorAction",
					"name": "mediatorActionOnExpiration",
					"type": "uint8"
				}
			],
			"name": "createDeal",
			"outputs": [
				{
					"internalType": "bytes32",
					"name": "",
					"type": "bytes32"
				}
			],
			"stateMutability": "nonpayable",
			"type": "function"
		},
		{
			"inputs": [
				{
					"internalType": "bytes32",
					"name": "dealId",
					"type": "bytes32"
				},
				{
					"internalType": "uint256",
					"name": "newExpirationDate",
					"type": "uint256"
				},
				{
					"internalType": "enum MediatorAction",
					"name": "newMediatorActionOnExpiration",
					"type": "uint8"
				}
			],
			"name": "createDealEditExpiration",
			"outputs": [
				{
					"internalType": "uint256",
					"name": "",
					"type": "uint256"
				}
			],
			"stateMutability": "nonpayable",
			"type": "function"
		},
		{
			"inputs": [
				{
					"internalType": "bytes32",
					"name": "dealId",
					"type": "bytes32"
				},
				{
					"internalType": "address payable",
					"name": "newMediator",
					"type": "address"
				}
			],
			"name": "createEditDealMediatorRequest",
			"outputs": [
				{
					"internalType": "uint256",
					"name": "",
					"type": "uint256"
				}
			],
			"stateMutability": "nonpayable",
			"type": "function"
		},
		{
			"inputs": [
				{
					"internalType": "address payable",
					"name": "counterparty",
					"type": "address"
				},
				{
					"internalType": "address payable",
					"name": "mediator",
					"type": "address"
				},
				{
					"internalType": "uint256",
					"name": "initiatorCreateAmount",
					"type": "uint256"
				},
				{
					"internalType": "uint256",
					"name": "counterpartyCreateAmount",
					"type": "uint256"
				},
				{
					"internalType": "uint256",
					"name": "PRCMediatorFeeInititor",
					"type": "uint256"
				},
				{
					"internalType": "uint256",
					"name": "PRCMediatorFeeCounterparty",
					"type": "uint256"
				},
				{
					"internalType": "address",
					"name": "initiatorTokenAddress",
					"type": "address"
				},
				{
					"internalType": "address",
					"name": "counterpartyTokenAddress",
					"type": "address"
				},
				{
					"internalType": "uint256",
					"name": "expirationDate",
					"type": "uint256"
				},
				{
					"internalType": "enum MediatorAction",
					"name": "mediatorActionOnExpiration",
					"type": "uint8"
				}
			],
			"name": "createSidedDeal",
			"outputs": [
				{
					"internalType": "bytes32",
					"name": "",
					"type": "bytes32"
				}
			],
			"stateMutability": "nonpayable",
			"type": "function"
		},
		{
			"inputs": [
				{
					"internalType": "bytes32",
					"name": "",
					"type": "bytes32"
				}
			],
			"name": "deals",
			"outputs": [
				{
					"internalType": "address payable",
					"name": "initiator",
					"type": "address"
				},
				{
					"internalType": "address payable",
					"name": "counterparty",
					"type": "address"
				},
				{
					"internalType": "address payable",
					"name": "mediator",
					"type": "address"
				},
				{
					"internalType": "enum DealStatus",
					"name": "status",
					"type": "uint8"
				},
				{
					"internalType": "bool",
					"name": "isTwoSided",
					"type": "bool"
				},
				{
					"internalType": "bool",
					"name": "isSignedByCounterparty",
					"type": "bool"
				},
				{
					"internalType": "uint256",
					"name": "initiatorCreateAmount",
					"type": "uint256"
				},
				{
					"internalType": "uint256",
					"name": "counterpartyCreateAmount",
					"type": "uint256"
				},
				{
					"internalType": "uint256",
					"name": "initiatorCurrentAmount",
					"type": "uint256"
				},
				{
					"internalType": "uint256",
					"name": "counterpartyCurrentAmount",
					"type": "uint256"
				},
				{
					"internalType": "uint256",
					"name": "PRC_InitatorMediatorFee",
					"type": "uint256"
				},
				{
					"internalType": "uint256",
					"name": "PRC_CounterpartyMediatorFee",
					"type": "uint256"
				},
				{
					"internalType": "address",
					"name": "initiatorTokenAddress",
					"type": "address"
				},
				{
					"internalType": "address",
					"name": "counterpartyTokenAddress",
					"type": "address"
				},
				{
					"internalType": "uint256",
					"name": "expirationDate",
					"type": "uint256"
				},
				{
					"internalType": "enum MediatorAction",
					"name": "mediatorActionOnExpiration",
					"type": "uint8"
				}
			],
			"stateMutability": "view",
			"type": "function"
		},
		{
			"inputs": [
				{
					"internalType": "address",
					"name": "token",
					"type": "address"
				},
				{
					"internalType": "uint256",
					"name": "amount",
					"type": "uint256"
				}
			],
			"name": "deposit",
			"outputs": [],
			"stateMutability": "payable",
			"type": "function"
		},
		{
			"inputs": [],
			"name": "depositCommissionPercent",
			"outputs": [
				{
					"internalType": "uint256",
					"name": "",
					"type": "uint256"
				}
			],
			"stateMutability": "view",
			"type": "function"
		},
		{
			"inputs": [],
			"name": "disableContract",
			"outputs": [],
			"stateMutability": "nonpayable",
			"type": "function"
		},
		{
			"inputs": [
				{
					"internalType": "uint256",
					"name": "",
					"type": "uint256"
				}
			],
			"name": "editDealExpirationRequests",
			"outputs": [
				{
					"internalType": "bytes32",
					"name": "dealId",
					"type": "bytes32"
				},
				{
					"internalType": "uint256",
					"name": "expirationDate",
					"type": "uint256"
				},
				{
					"internalType": "enum MediatorAction",
					"name": "mediatorActionOnExpiration",
					"type": "uint8"
				},
				{
					"internalType": "bool",
					"name": "singedByInitiator",
					"type": "bool"
				},
				{
					"internalType": "bool",
					"name": "signedByCounterparty",
					"type": "bool"
				},
				{
					"internalType": "bool",
					"name": "signedByMediator",
					"type": "bool"
				},
				{
					"internalType": "bool",
					"name": "rejected",
					"type": "bool"
				}
			],
			"stateMutability": "view",
			"type": "function"
		},
		{
			"inputs": [
				{
					"internalType": "uint256",
					"name": "",
					"type": "uint256"
				}
			],
			"name": "editDealMediatorRequests",
			"outputs": [
				{
					"internalType": "bytes32",
					"name": "dealId",
					"type": "bytes32"
				},
				{
					"internalType": "address payable",
					"name": "mediator",
					"type": "address"
				},
				{
					"internalType": "bool",
					"name": "singedByInitiator",
					"type": "bool"
				},
				{
					"internalType": "bool",
					"name": "signedByCounterparty",
					"type": "bool"
				},
				{
					"internalType": "bool",
					"name": "rejected",
					"type": "bool"
				}
			],
			"stateMutability": "view",
			"type": "function"
		},
		{
			"inputs": [],
			"name": "enableContract",
			"outputs": [],
			"stateMutability": "nonpayable",
			"type": "function"
		},
		{
			"inputs": [
				{
					"internalType": "bytes32",
					"name": "dealId",
					"type": "bytes32"
				},
				{
					"internalType": "bool",
					"name": "local",
					"type": "bool"
				}
			],
			"name": "executeActionsAfterExpiration",
			"outputs": [
				{
					"internalType": "bool",
					"name": "",
					"type": "bool"
				}
			],
			"stateMutability": "nonpayable",
			"type": "function"
		},
		{
			"inputs": [
				{
					"internalType": "uint256",
					"name": "amount",
					"type": "uint256"
				}
			],
			"name": "getAmountToDepositViaComission",
			"outputs": [
				{
					"internalType": "uint256",
					"name": "",
					"type": "uint256"
				}
			],
			"stateMutability": "view",
			"type": "function"
		},
		{
			"inputs": [
				{
					"internalType": "bytes32",
					"name": "dealId",
					"type": "bytes32"
				}
			],
			"name": "getDeal",
			"outputs": [
				{
					"components": [
						{
							"internalType": "address payable",
							"name": "initiator",
							"type": "address"
						},
						{
							"internalType": "address payable",
							"name": "counterparty",
							"type": "address"
						},
						{
							"internalType": "address payable",
							"name": "mediator",
							"type": "address"
						},
						{
							"internalType": "enum DealStatus",
							"name": "status",
							"type": "uint8"
						},
						{
							"internalType": "bool",
							"name": "isTwoSided",
							"type": "bool"
						},
						{
							"internalType": "bool",
							"name": "isSignedByCounterparty",
							"type": "bool"
						},
						{
							"internalType": "uint256",
							"name": "initiatorCreateAmount",
							"type": "uint256"
						},
						{
							"internalType": "uint256",
							"name": "counterpartyCreateAmount",
							"type": "uint256"
						},
						{
							"internalType": "uint256",
							"name": "initiatorCurrentAmount",
							"type": "uint256"
						},
						{
							"internalType": "uint256",
							"name": "counterpartyCurrentAmount",
							"type": "uint256"
						},
						{
							"internalType": "uint256",
							"name": "PRC_InitatorMediatorFee",
							"type": "uint256"
						},
						{
							"internalType": "uint256",
							"name": "PRC_CounterpartyMediatorFee",
							"type": "uint256"
						},
						{
							"internalType": "address",
							"name": "initiatorTokenAddress",
							"type": "address"
						},
						{
							"internalType": "address",
							"name": "counterpartyTokenAddress",
							"type": "address"
						},
						{
							"internalType": "uint256",
							"name": "expirationDate",
							"type": "uint256"
						},
						{
							"internalType": "enum MediatorAction",
							"name": "mediatorActionOnExpiration",
							"type": "uint8"
						}
					],
					"internalType": "struct Deal",
					"name": "",
					"type": "tuple"
				}
			],
			"stateMutability": "view",
			"type": "function"
		},
		{
			"inputs": [
				{
					"internalType": "uint256",
					"name": "id",
					"type": "uint256"
				}
			],
			"name": "getEditDealExpiratation",
			"outputs": [
				{
					"components": [
						{
							"internalType": "bytes32",
							"name": "dealId",
							"type": "bytes32"
						},
						{
							"internalType": "uint256",
							"name": "expirationDate",
							"type": "uint256"
						},
						{
							"internalType": "enum MediatorAction",
							"name": "mediatorActionOnExpiration",
							"type": "uint8"
						},
						{
							"internalType": "bool",
							"name": "singedByInitiator",
							"type": "bool"
						},
						{
							"internalType": "bool",
							"name": "signedByCounterparty",
							"type": "bool"
						},
						{
							"internalType": "bool",
							"name": "signedByMediator",
							"type": "bool"
						},
						{
							"internalType": "bool",
							"name": "rejected",
							"type": "bool"
						}
					],
					"internalType": "struct EditDealExpiratation",
					"name": "",
					"type": "tuple"
				}
			],
			"stateMutability": "view",
			"type": "function"
		},
		{
			"inputs": [
				{
					"internalType": "uint256",
					"name": "id",
					"type": "uint256"
				}
			],
			"name": "getEditDealMediator",
			"outputs": [
				{
					"components": [
						{
							"internalType": "bytes32",
							"name": "dealId",
							"type": "bytes32"
						},
						{
							"internalType": "address payable",
							"name": "mediator",
							"type": "address"
						},
						{
							"internalType": "bool",
							"name": "singedByInitiator",
							"type": "bool"
						},
						{
							"internalType": "bool",
							"name": "signedByCounterparty",
							"type": "bool"
						},
						{
							"internalType": "bool",
							"name": "rejected",
							"type": "bool"
						}
					],
					"internalType": "struct EditDealMediator",
					"name": "",
					"type": "tuple"
				}
			],
			"stateMutability": "view",
			"type": "function"
		},
		{
			"inputs": [
				{
					"internalType": "bytes32",
					"name": "dealId",
					"type": "bytes32"
				},
				{
					"internalType": "uint256",
					"name": "amount",
					"type": "uint256"
				},
				{
					"internalType": "bool",
					"name": "local",
					"type": "bool"
				}
			],
			"name": "givebackToConunterparty",
			"outputs": [
				{
					"internalType": "bool",
					"name": "",
					"type": "bool"
				}
			],
			"stateMutability": "nonpayable",
			"type": "function"
		},
		{
			"inputs": [
				{
					"internalType": "bytes32",
					"name": "dealId",
					"type": "bytes32"
				},
				{
					"internalType": "uint256",
					"name": "amount",
					"type": "uint256"
				},
				{
					"internalType": "bool",
					"name": "local",
					"type": "bool"
				}
			],
			"name": "givebackToInitiator",
			"outputs": [
				{
					"internalType": "bool",
					"name": "",
					"type": "bool"
				}
			],
			"stateMutability": "nonpayable",
			"type": "function"
		},
		{
			"inputs": [
				{
					"internalType": "bytes32",
					"name": "dealId",
					"type": "bytes32"
				},
				{
					"internalType": "address",
					"name": "tokenAdress",
					"type": "address"
				},
				{
					"internalType": "uint256",
					"name": "amount",
					"type": "uint256"
				},
				{
					"internalType": "uint256",
					"name": "PRC_mediatorFee",
					"type": "uint256"
				}
			],
			"name": "madeDealTwoSided",
			"outputs": [
				{
					"internalType": "bool",
					"name": "",
					"type": "bool"
				}
			],
			"stateMutability": "nonpayable",
			"type": "function"
		},
		{
			"inputs": [],
			"name": "owner",
			"outputs": [
				{
					"internalType": "address",
					"name": "",
					"type": "address"
				}
			],
			"stateMutability": "view",
			"type": "function"
		},
		{
			"inputs": [
				{
					"internalType": "bytes32",
					"name": "dealId",
					"type": "bytes32"
				}
			],
			"name": "payUpCounterpartyAcceptSidedDeal",
			"outputs": [
				{
					"internalType": "bool",
					"name": "",
					"type": "bool"
				}
			],
			"stateMutability": "payable",
			"type": "function"
		},
		{
			"inputs": [
				{
					"internalType": "address payable",
					"name": "counterparty",
					"type": "address"
				},
				{
					"internalType": "address payable",
					"name": "mediator",
					"type": "address"
				},
				{
					"internalType": "uint256",
					"name": "amount",
					"type": "uint256"
				},
				{
					"internalType": "uint256",
					"name": "PRCMediatorFee",
					"type": "uint256"
				},
				{
					"internalType": "address",
					"name": "tokenAddress",
					"type": "address"
				},
				{
					"internalType": "uint256",
					"name": "expirationDate",
					"type": "uint256"
				},
				{
					"internalType": "enum MediatorAction",
					"name": "mediatorActionOnExpiration",
					"type": "uint8"
				}
			],
			"name": "payUpCreateDeal",
			"outputs": [
				{
					"internalType": "bytes32",
					"name": "",
					"type": "bytes32"
				}
			],
			"stateMutability": "payable",
			"type": "function"
		},
		{
			"inputs": [
				{
					"internalType": "address payable",
					"name": "counterparty",
					"type": "address"
				},
				{
					"internalType": "address payable",
					"name": "mediator",
					"type": "address"
				},
				{
					"internalType": "uint256",
					"name": "initiatorCreateAmount",
					"type": "uint256"
				},
				{
					"internalType": "uint256",
					"name": "counterpartyCreateAmount",
					"type": "uint256"
				},
				{
					"internalType": "uint256",
					"name": "PRCMediatorFeeInititor",
					"type": "uint256"
				},
				{
					"internalType": "uint256",
					"name": "PRCMediatorFeeCounterparty",
					"type": "uint256"
				},
				{
					"internalType": "address",
					"name": "initiatorTokenAddress",
					"type": "address"
				},
				{
					"internalType": "address",
					"name": "counterpartyTokenAddress",
					"type": "address"
				},
				{
					"internalType": "uint256",
					"name": "expirationDate",
					"type": "uint256"
				},
				{
					"internalType": "enum MediatorAction",
					"name": "mediatorActionOnExpiration",
					"type": "uint8"
				}
			],
			"name": "payUpCreateSidedDeal",
			"outputs": [
				{
					"internalType": "bytes32",
					"name": "",
					"type": "bytes32"
				}
			],
			"stateMutability": "payable",
			"type": "function"
		},
		{
			"inputs": [
				{
					"internalType": "bytes32",
					"name": "dealId",
					"type": "bytes32"
				},
				{
					"internalType": "address",
					"name": "tokenAdress",
					"type": "address"
				},
				{
					"internalType": "uint256",
					"name": "amount",
					"type": "uint256"
				},
				{
					"internalType": "uint256",
					"name": "PRC_mediatorFee",
					"type": "uint256"
				}
			],
			"name": "payUpMadeDealTwoSided",
			"outputs": [
				{
					"internalType": "bool",
					"name": "",
					"type": "bool"
				}
			],
			"stateMutability": "payable",
			"type": "function"
		},
		{
			"inputs": [
				{
					"internalType": "bytes32",
					"name": "dealId",
					"type": "bytes32"
				}
			],
			"name": "rejectSidedDeal",
			"outputs": [
				{
					"internalType": "bool",
					"name": "",
					"type": "bool"
				}
			],
			"stateMutability": "nonpayable",
			"type": "function"
		},
		{
			"inputs": [
				{
					"internalType": "uint256",
					"name": "newCommissionPercent",
					"type": "uint256"
				},
				{
					"internalType": "address",
					"name": "newRecipient",
					"type": "address"
				}
			],
			"name": "setDepositCommission",
			"outputs": [],
			"stateMutability": "nonpayable",
			"type": "function"
		},
		{
			"inputs": [
				{
					"internalType": "uint256",
					"name": "id",
					"type": "uint256"
				},
				{
					"internalType": "bool",
					"name": "reject",
					"type": "bool"
				}
			],
			"name": "signDealEditExpiration",
			"outputs": [
				{
					"internalType": "bool",
					"name": "",
					"type": "bool"
				}
			],
			"stateMutability": "nonpayable",
			"type": "function"
		},
		{
			"inputs": [
				{
					"internalType": "uint256",
					"name": "requestId",
					"type": "uint256"
				},
				{
					"internalType": "bool",
					"name": "reject",
					"type": "bool"
				}
			],
			"name": "signEditDealMediatorRequest",
			"outputs": [
				{
					"internalType": "bool",
					"name": "",
					"type": "bool"
				}
			],
			"stateMutability": "nonpayable",
			"type": "function"
		},
		{
			"inputs": [],
			"name": "totalCompletedDeals",
			"outputs": [
				{
					"internalType": "uint256",
					"name": "",
					"type": "uint256"
				}
			],
			"stateMutability": "view",
			"type": "function"
		},
		{
			"inputs": [],
			"name": "totalDeals",
			"outputs": [
				{
					"internalType": "uint256",
					"name": "",
					"type": "uint256"
				}
			],
			"stateMutability": "view",
			"type": "function"
		},
		{
			"inputs": [],
			"name": "totalEditDealMediatorRequests",
			"outputs": [
				{
					"internalType": "uint256",
					"name": "",
					"type": "uint256"
				}
			],
			"stateMutability": "view",
			"type": "function"
		},
		{
			"inputs": [],
			"name": "totalEditExpirationRequests",
			"outputs": [
				{
					"internalType": "uint256",
					"name": "",
					"type": "uint256"
				}
			],
			"stateMutability": "view",
			"type": "function"
		},
		{
			"inputs": [
				{
					"internalType": "address",
					"name": "to",
					"type": "address"
				},
				{
					"internalType": "address",
					"name": "token",
					"type": "address"
				},
				{
					"internalType": "uint256",
					"name": "amount",
					"type": "uint256"
				}
			],
			"name": "transfer",
			"outputs": [
				{
					"internalType": "bool",
					"name": "",
					"type": "bool"
				}
			],
			"stateMutability": "nonpayable",
			"type": "function"
		},
		{
			"inputs": [
				{
					"internalType": "address",
					"name": "newOwner",
					"type": "address"
				}
			],
			"name": "transferOwnership",
			"outputs": [],
			"stateMutability": "nonpayable",
			"type": "function"
		},
		{
			"inputs": [
				{
					"internalType": "bytes32",
					"name": "dealId",
					"type": "bytes32"
				},
				{
					"internalType": "uint256",
					"name": "amount",
					"type": "uint256"
				},
				{
					"internalType": "bool",
					"name": "local",
					"type": "bool"
				}
			],
			"name": "transferToCounterparty",
			"outputs": [
				{
					"internalType": "bool",
					"name": "",
					"type": "bool"
				}
			],
			"stateMutability": "nonpayable",
			"type": "function"
		},
		{
			"inputs": [
				{
					"internalType": "bytes32",
					"name": "dealId",
					"type": "bytes32"
				},
				{
					"internalType": "uint256",
					"name": "amount",
					"type": "uint256"
				},
				{
					"internalType": "bool",
					"name": "local",
					"type": "bool"
				}
			],
			"name": "transferToInitiator",
			"outputs": [
				{
					"internalType": "bool",
					"name": "",
					"type": "bool"
				}
			],
			"stateMutability": "nonpayable",
			"type": "function"
		},
		{
			"inputs": [
				{
					"internalType": "address",
					"name": "token",
					"type": "address"
				},
				{
					"internalType": "uint256",
					"name": "amount",
					"type": "uint256"
				}
			],
			"name": "withdraw",
			"outputs": [
				{
					"internalType": "bool",
					"name": "",
					"type": "bool"
				}
			],
			"stateMutability": "nonpayable",
			"type": "function"
		},
		{
			"inputs": [
				{
					"internalType": "bytes32",
					"name": "dealId",
					"type": "bytes32"
				}
			],
			"name": "withdrawRejectSidedDeal",
			"outputs": [
				{
					"internalType": "bool",
					"name": "",
					"type": "bool"
				}
			],
			"stateMutability": "nonpayable",
			"type": "function"
		}
	]
}