{
	"data": {
		"bytecode": {
			"linkReferences": {
				"Deal.sol": {
					"DealContract": [
						{
							"length": 20,
							"start": 3670
						},
						{
							"length": 20,
							"start": 4534
						},
						{
							"length": 20,
							"start": 6254
						},
						{
							"length": 20,
							"start": 8136
						},
						{
							"length": 20,
							"start": 8968
						},
						{
							"length": 20,
							"start": 9402
						},
						{
							"length": 20,
							"start": 10804
						},
						{
							"length": 20,
							"start": 11634
						},
						{
							"length": 20,
							"start": 12580
						},
						{
							"length": 20,
							"start": 14904
						},
						{
							"length": 20,
							"start": 16351
						},
						{
							"length": 20,
							"start": 16871
						},
						{
							"length": 20,
							"start": 17425
						},
						{
							"length": 20,
							"start": 17878
						},
						{
							"length": 20,
							"start": 21253
						}
					]
				},
				"Percent.sol": {
					"Percent": [
						{
							"length": 20,
							"start": 1484
						},
						{
							"length": 20,
							"start": 3824
						},
						{
							"length": 20,
							"start": 5323
						},
						{
							"length": 20,
							"start": 6411
						},
						{
							"length": 20,
							"start": 7508
						},
						{
							"length": 20,
							"start": 8503
						},
						{
							"length": 20,
							"start": 9119
						},
						{
							"length": 20,
							"start": 9554
						},
						{
							"length": 20,
							"start": 11150
						},
						{
							"length": 20,
							"start": 12045
						},
						{
							"length": 20,
							"start": 12708
						},
						{
							"length": 20,
							"start": 13974
						},
						{
							"length": 20,
							"start": 14587
						},
						{
							"length": 20,
							"start": 15610
						},
						{
							"length": 20,
							"start": 17117
						},
						{
							"length": 20,
							"start": 17572
						}
					]
				}
			},
			"object": "60803461013a57601f61595038819003918201601f19168301916001600160401b0383118484101761013e57808492604094855283398101031261013a5780516020909101516001600160a01b038116919082900361013a575f80546001600160a81b0319163317600160a01b17808255604051916001600160a01b03909116907f8be0079c531659141344cd1fd0a4f28419497f9722a3daafe3b4186f6b6457e08180a3821561011357506402540be40081116100e95760025560018060a01b031960035416176003555f6005555f6006555f6007555f6008556040516157fd90816101538239f35b60405162461bcd60e51b8152602060048201526002602482015261433560f01b6044820152606490fd5b62461bcd60e51b8152602060048201526002602482015261433160f01b6044820152606490fd5b5f80fd5b634e487b7160e01b5f52604160045260245ffdfe60806040526004361015610011575f80fd5b5f803560e01c80627e8bd31461441957806301cafae31461427c578063029274591461425e57806306fd154a146142355780630934da221461405d5780631273c16514613e3057806315f8a31414613d8c57806317b52b5014613d2a57806328d5a05014613877578063367edd321461381157806339b3edb01461376e5780634187129c146136d457806341b3a0d9146136af57806347e7ef24146134ec57806351a6fad51461336257806353a78000146132fe578063619c457e146132d75780636242c6cd14612f8857806363adb66f14612be357806367c5545d146128ac57806370a082311461286b57806371ae8bcd1461284457806380ccb0701461278a57806381cd872a1461265f578063894ba83314612600578063899a3ffd146125e25780638da5cb5b146125bb5780638deea5fb146124e9578063966d1f1d146124cb5780639905a1ea146123295780639974f3761461230b578063a0849a3314612173578063ad94b28b14611e45578063ba343f6d14611d80578063bb06c1a414611a4f578063beabacc814611961578063c15a25bf146118e1578063c23f001f146118c5578063c2c257b9146116dd578063cfaaf23514611560578063cfadf6c714610fec578063d750158b14610cb5578063e08560a414610c97578063eb45732914610b96578063ee026054146103b1578063f2fde38b146102e5578063f3fef3a31461027e5763f7888aec14610229575f80fd5b3461027b57604036600319011261027b5760406102446146bf565b9161024d6146a9565b9260018060a01b031681526001602052209060018060a01b03165f52602052602060405f2054604051908152f35b80fd5b503461027b57604036600319011261027b576102db60209161029e6146bf565b604060243592338152600186522060018060a01b0382165f5284526102c98260405f20541015614947565b6102d4828233615491565b50336155b1565b6040519015158152f35b503461027b57602036600319011261027b576102ff6146bf565b81546001600160a01b03811691610317338414614da0565b6001600160a01b031691821561035d5782907f8be0079c531659141344cd1fd0a4f28419497f9722a3daafe3b4186f6b6457e08580a36001600160a01b03191617815580f35b60405162461bcd60e51b815260206004820152602660248201527f4f776e61626c653a206e6577206f776e657220697320746865207a65726f206160448201526564647265737360d01b6064820152608490fd5b503461027b57604036600319011261027b576004356103ce614757565b9080835260046020526040832090600182019160018060a01b0383541633148015610b83575b8015610b6d575b61040490614be3565b6002810193845460ff8160b81c1615610b43578060ff6104309260a01c16159081610b34575b50614f0c565b600b8201544210610b09578560ff600c8401541691600584015460018060a01b036009860154169160068601549160018060a01b03600a8801541692600788015496600889015473__$8537b7efa173772577da826929141ce939$__9860405190631c8f084760e01b825285600483015260248201526020816044818d5af4988915610afd5798610ac8575b506020906044604051809b8193631c8f084760e01b835287600484015260248301525af4978815610abd578d98610a85575b506006811015610a715792828260048f968f96978f8f905f805160206157288339815191529f9d9b98916105fd9f9d9b8f8f8f908f928f97948f958f968789848f8f8f8f90818e8d8f9460018f988e98888f948f8f908f8f908f91858f9194858f8f998f988a8f8a8f948f87908f928b978f948f9715610989575b505050505050505050505060028d1461088a575b5050505050505050505050501461079c575b505050505050505050505060038d146106ff575b5050505050505050505050501461060b575b50509154600160a81b60ff60a81b19821617909b55505092549654604080516001600160a01b039a8b168152336020820152918a169990981697909485945090840192509050565b0390a4602060405160018152f35b85889561065c899361063a61066d9661067f9b6106338860018060a01b036003541693614cf9565b918a615538565b506003546001600160a01b0316908890610655908b90614cf9565b9188615538565b50546001600160a01b031684615538565b508b546001600160a01b031690615538565b50825487548954600354604080516001600160a01b03938416815233602082015291831690820152606081018590526080810186905260a081019490945260c0840194909452831692169086907f8e100dc3335e09b082c843425f71ea8ae9d91ae5bb385ef4b41d0d2c6aa872149060e090a486808088818080806105b5565b7f8e100dc3335e09b082c843425f71ea8ae9d91ae5bb385ef4b41d0d2c6aa872149761066d61073c9460e0998e60018060a01b0390541684615538565b5060018060a01b039054169560018060a01b039054169660018060a01b0390541691604051928084523360208501526040840152606083015260808201528660a08201528660c0820152a48f8f908991888f8f8f908f928c8f8d906105a3565b5f805160206157688339815191529a6108165f805160206156e8833981519152996107f989878f9e6107e7906108289a6107e08560018060a01b0389541693614cf9565b9189615538565b508a546001600160a01b031686615538565b50546001600160a01b03168361080f868c614cf9565b9184615538565b5085546001600160a01b031690615538565b5060018060a01b038c541696879160018060a01b0390541698899360018060a01b03905416948d610860604051928392338a85614d06565b0390a46108758b604051938493339085614d06565b0390a487898486858f8f908c918e8d8a61058f565b7ff05d33634b730e763d232b482cf835a4481835f62d0a0973b42018a8ead4f047995f80516020615708833981519152988f946108fa8e856108e88f99610927986108e18f928e81889260a01b0390541693614cf9565b9187615538565b508a546001600160a01b031684615538565b508654610915906001600160a01b03168361080f868e614cf9565b5087546001600160a01b031690615538565b508c8060a01b039054169788928d8060a01b03905416998a948e8060a01b039054169561095b604051928392338a85614d06565b0390a46109708b604051938493339085614d06565b0390a488858f8f908f8f908f918d8f91948c958f61057d565b6001995f8051602061570883398151915298610a03610a14956109e68f5f805160206157688339815191529f9a6109d48d82610633610a5c9f8f9d81889260a01b0390541693614cf9565b5085546001600160a01b031687615538565b50546001600160a01b0316846109fc878d614cf9565b9185615538565b50546001600160a01b031690615538565b5089548c548e546040516001600160a01b039283169b9383169a91909216958b938b938b939290918291610a4b9190338c85614d06565b0390a4604051938493339085614d06565b0390a48a838a878a8a8f87908f8a8d91610569565b634e487b7160e01b8d52602160045260248dfd5b9097506020813d602011610ab5575b81610aa1602093836149e1565b81010312610ab15751965f6104ee565b5f80fd5b3d9150610a94565b6040513d8f823e3d90fd5b9097506020813d602011610af5575b81610ae4602093836149e1565b81010312610ab157519660206104bc565b3d9150610ad7565b604051903d90823e3d90fd5b606460405162461bcd60e51b81526020600482015260046024820152632218971960e11b6044820152fd5b60ff915060a81c16155f61042a565b60405162461bcd60e51b8152602060048201526002602482015261221960f11b6044820152606490fd5b5060028101546001600160a01b031633146103fb565b5080546001600160a01b031633146103f4565b503461027b57602036600319011261027b5760408160e09260c08351610bbb81614978565b82815282602082015282858201528260608201528260808201528260a08201520152600435815260096020522060405190610bf582614978565b8054825260026001820154916020840192835201549060408301610c1c60ff841682614d94565b6060840160ff8460081c1615158152610c75608086019260ff8660101c161515845260a087019460ff8760181c161515865260ff60c089019760201c16151587526040519751885251602088015251604087019061481a565b5115156060850152511515608084015251151560a083015251151560c0820152f35b503461027b578060031936011261027b576020600654604051908152f35b503461027b57604036600319011261027b57600435610cd2614757565b81835260046020526040832090600182019060018060a01b0382541633148015610fd6575b610d0090614be3565b8473__$69ea93bdf3b1e5da8164bfe3d9a878d765$__803b15610fd257816040518092630252a86760e51b82528180610d3c8a60048301614c14565b03915af48015610fc757610fae575b5050600583015460098401546006850154600a86015460078701546008880154604051631c8f084760e01b81526004810187905260248101929092526001600160a01b0394851698959791969195939473__$8537b7efa173772577da826929141ce939$__94931690602088604481885af4978815610fa3578c98610f6e575b50602090604460405180978193631c8f084760e01b83528a600484015260248301525af4938415610f63578a9b9a999a94610f23575b50825489959493929184916001600160a01b03168c610e208b8d614cf9565b90610e2b9286615538565b50600284018054909c610e4a918b91906001600160a01b031686615538565b5087546001600160a01b031681610e618880614cf9565b90610e6c9286615538565b508b54610e84936001600160a01b0390911690615538565b5054935497546040516001600160a01b03998a169a958a1699909116968a968a9688938893919290918291610ebb91338e85614d06565b035f8051602061576883398151915291a4604051918291610ede91338985614d06565b035f8051602061570883398151915291a4604080516001600160a01b039290921682523360208301525f8051602061572883398151915291a460405160018152602090f35b949350919097506020843d602011610f5b575b81610f43602093836149e1565b81010312610ab1578997889451939492909192610e01565b3d9150610f36565b6040513d8d823e3d90fd5b9097506020813d602011610f9b575b81610f8a602093836149e1565b81010312610ab15751966020610dcb565b3d9150610f7d565b6040513d8e823e3d90fd5b81610fb8916149e1565b610fc357845f610d4b565b8480fd5b6040513d84823e3d90fd5b5080fd5b5060028301546001600160a01b03163314610cf7565b50610ff6366146d5565b9190949288948a98979a948c604060ff825460a01c169161101683614916565b33815260016020522060018060a01b0385165f5260205260405f20548a811061132b575b50509161108794939161022098936110538b8433615491565b5060405163652e83d760e01b815273__$69ea93bdf3b1e5da8164bfe3d9a878d765$__9e909b8c9a8b9a3360048d01614b3d565b0381875af49081156112f15785916112fc575b5060206005546102446040518097819363797d4ee160e01b83526110c16004840188614827565b6102248301525af49384156112f15785946112bd575b506110e3600554614ba9565b600555838552600460209081526040808720835181546001600160a01b039182166001600160a01b031991821617835593850151600183018054918316919095161790935590830151600282018054606086015160ff60a01b90151560a01b16929094166001600160a81b03199094169390931717825591610200916111bd905b6080830151815460ff60a81b191690151560a81b60ff60a81b1617815560a0830151815460ff60b01b191690151560b01b60ff60b01b1617815560c0830151815460ff60b81b191690151560b81b60ff60b81b16179055565b60e0810151600384015561010081015160048401556101208101516005840155610140810151600680850191909155610160820151600785015561018082015160088501556101a08201516009850180546001600160a01b039283166001600160a01b0319918216179091556101c0840151600a870180549190931691161790556101e0820151600b85015591015195908610156112a95750602094600c6112659201614bcb565b6040516001600160a01b039283168152911690339083907f44e1ff8e67fad6b456bd43ff165ba4e9bb004370aa27a76881c6acb60dfd6dd9908690a4604051908152f35b634e487b7160e01b81526021600452602490fd5b9093506020813d6020116112e9575b816112d9602093836149e1565b81010312610ab15751925f6110d7565b3d91506112cc565b6040513d87823e3d90fd5b61131e91506102203d8111611324575b61131681836149e1565b810190614a24565b5f61109a565b503d61130c565b61134892999496959398506113429197508a614cf9565b95614916565b611353851515614e02565b6002549360405194631c8f084760e01b8652866004870152602486015260208560448173__$8537b7efa173772577da826929141ce939$__5af4948515610abd578d9561152c575b506001600160a01b0381169687611444576113b68688614e9b565b340361141a57610220988c9888611087986113d38f9b8733615556565b506003546113ed90829088906001600160a01b0316615556565b505b60405191825260208201525f8051602061578883398151915260403392a3919398819395965061103a565b60405162461bcd60e51b815260206004820152600260248201526110cd60f21b6044820152606490fd5b8d8060208a60646114558b8d614e9b565b60405194859384926323b872dd60e01b845233600485015230602485015260448401525af1918215610afd57916114ee575b50156114c457610220988c9888611087986114a48f9b8733615556565b506003546114be90829088906001600160a01b0316615556565b506113ef565b60405162461bcd60e51b81526020600482015260026024820152612a1960f11b6044820152606490fd5b90506020813d602011611524575b81611509602093836149e1565b810103126115205761151a90614a17565b5f611487565b8e80fd5b3d91506114fc565b9094506020813d602011611558575b81611548602093836149e1565b81010312610ab15751935f61139b565b3d915061153b565b503461027b57604036600319011261027b576020906004356115806146a9565b90808352600484526115d4604084209260018060a01b03845416331480156116c7575b6115ac90614be3565b6001600160a01b0316926115c1841515614dd1565b600201546001600160a01b031615614f3d565b6116876040516115e3816149c5565b82815285810184815260408083018781526060840188815260808501898152600854808b52600a8c5293909920945185559251600194909401805491516001600160a81b03199092166001600160a01b03959095169490941790151560a01b60ff60a01b16178355959061166c9051835460ff60a81b191690151560a81b60ff60a81b16178355565b51815460ff60b01b191690151560b01b60ff60b01b16179055565b611692600854614ba9565b600855827f3e168088da33d5ab18321345a864b58812f451c892ee951f8f70b5bead045b6985604051338152a4604051908152f35b5060018401546001600160a01b031633146115a3565b503461027b576116ec36614766565b928281939293526004602052604081209260018060a01b03845416331480156118af575b61171990614be3565b73__$69ea93bdf3b1e5da8164bfe3d9a878d765$__803b156118ab57826040518092630252a86760e51b825281806117548a60048301614c14565b03915af480156118a05790839161188b575b50506006840161178282825461177d828210614947565b614cf9565b905560018060a01b03600a8501541693600881015460405190631c8f084760e01b8252836004830152602482015260208160448173__$8537b7efa173772577da826929141ce939$__5af4938415610afd5793611855575b50916105fd8361182c8360015f805160206157088339815191529701986118168b8260018060a01b038d5416611810868c614cf9565b92615538565b50600284019a60018060a01b038c541690615538565b5054955496546040516001600160a01b0398891698978816979094859492909133911685614d06565b92506020833d602011611883575b81611870602093836149e1565b81010312610ab1579151916105fd6117da565b3d9150611863565b81611895916149e1565b610fd257815f611766565b6040513d85823e3d90fd5b8280fd5b5060028401546001600160a01b03163314611710565b503461027b57604036600319011261027b5760406102446146bf565b503461027b57602036600319011261027b57604060e091600435815260096020522060ff8154916002600182015491015490604051938452602084015261192d6040840183831661481a565b818160081c1615156060840152818160101c1615156080840152818160181c16151560a084015260201c16151560c0820152f35b503461027b57606036600319011261027b5761197b6146bf565b906119846146a9565b604060443593338452600160205281842060018060a01b0384165f526020526119b285835f20541015614947565b338452600160205281842060018060a01b0384165f52602052815f206119d9868254614cf9565b905560018060a01b03169283815260016020522060018060a01b0382165f5260205260405f20611a0a848254614e9b565b90556040519283526001600160a01b03169133907fd1398bee19313d6bf672ccb116e51f4a1a947e91c757907f51fbb5b5e56c698f90602090a4602060405160018152f35b50602036600319011261027b57600435808252600460205260408220916001830192611a8560018060a01b038554163314614be3565b6002810191611ac28354611a9e60ff8260b01c16614ea8565b611aae60ff8260b81c1615614eda565b60ff8160a01c16159081610b345750614f0c565b600a82018054335f9081526001602090815260408083206001600160a01b039094168084529390915290205460068501548110611bb3575b5050546004830154611b179250906001600160a01b031633615491565b508154600160b81b60ff60b81b198216179092555492546040516001600160a01b0392831680825294918316929091169083907f5e02698c1650d6cbe1f7e8a48609d0da45ad7f5e4c13cd8b196f82965c0ab0d590602090a481611b81575b602060405160018152f35b60207f957372c0e02d2882134cc0eebbef9e446634d8ccbb1cbb112bdefdd3cf0a643c91604051908152a25f80611b76565b611bc1906004860154614cf9565b611bd160ff855460a01c16614916565b611bdc811515614e02565b6002549360405194631c8f084760e01b8652826004870152602486015260208560448173__$8537b7efa173772577da826929141ce939$__5af4948515611d73578195611d3f575b5082611c8b5750611c358482614e9b565b340361141a57611b1793611c4a828433615556565b50600354611c6490829085906001600160a01b0316615556565b505b60405191825260208201525f8051602061578883398151915260403392a35f80611afa565b611c958583614e9b565b604051906323b872dd60e01b8252336004830152306024830152604482015260208160648185885af1918215610afd578092611d02575b5050156114c457611b1793611ce2828433615556565b50600354611cfc90829085906001600160a01b0316615556565b50611c66565b9091506020823d602011611d37575b81611d1e602093836149e1565b8101031261027b5750611d3090614a17565b5f80611ccc565b3d9150611d11565b9094506020813d602011611d6b575b81611d5b602093836149e1565b81010312610ab15751935f611c24565b3d9150611d4e565b50604051903d90823e3d90fd5b503461027b57602036600319011261027b5760408160a09260808351611da5816149c5565b828152826020820152828582015282606082015201526004358152600a60205220604051611dd2816149c5565b600182549283835201549060208101600180861b0383168152604082019060ff84871c161515825260ff60806060850194828760a81c1615158652019460b01c1615158452604051948552600180871b039051166020850152511515604084015251151560608301525115156080820152f35b50611e4f36614766565b82849392935260046020526040842093611e7360018060a01b038654163314614be3565b73__$69ea93bdf3b1e5da8164bfe3d9a878d765$__803b15610fd257816040518092630252a86760e51b82528180611eae8b60048301614c14565b03915af48015610fc7579085929161215a575b50600986018054335f9081526001602090815260408083206001600160a01b0390941680845293909152902054919290919415611f83575050611f0982611f19941015614947565b546001600160a01b031633615491565b5060058301611f29838254614e9b565b905582546001840154600290940154604080516001600160a01b0392831681526020810195909552948116949116927f3c0dd30126238eaebbb306e073222eecd03a091d41c39a4b2742759d406c8f5591819081016105fd565b9093838110611f99575b5050611f199250611f09565b611fa39193614cf9565b92611fb460ff845460a01c16614916565b611fbf841515614e02565b6002549260405193631c8f084760e01b8552856004860152602485015260208460448173__$8537b7efa173772577da826929141ce939$__5af4938415611d73578194612126575b508161207057506120188385614e9b565b340361141a5783869361202f611f19968433615556565b5060035461204990829085906001600160a01b0316615556565b505b60405191825260208201525f8051602061578883398151915260403392a35f80611f8d565b61207a8486614e9b565b604051906323b872dd60e01b8252336004830152306024830152604482015260208160648185875af1918215610afd5780926120e9575b5050156114c4578386936120c9611f19968433615556565b506003546120e390829085906001600160a01b0316615556565b5061204b565b9091506020823d60201161211e575b81612105602093836149e1565b8101031261027b575061211790614a17565b5f806120b1565b3d91506120f8565b9093506020813d602011612152575b81612142602093836149e1565b81010312610ab15751925f612007565b3d9150612135565b81809350612167916149e1565b61027b5783905f611ec1565b503461027b5761218236614766565b92919081835260046020526040832090600182019360018060a01b03855416331480156122f5575b6121b390614be3565b73__$69ea93bdf3b1e5da8164bfe3d9a878d765$__803b15610fd257816040518092630252a86760e51b825281806121ee8960048301614c14565b03915af48015610fc7579082916122e0575b50506005830161221783825461177d828210614947565b905560018060a01b03600984015416600784015460405190631c8f084760e01b8252846004830152602482015260208160448173__$8537b7efa173772577da826929141ce939$__5af4928315610afd579261229f575b505f805160206157688339815191529361182c83836118168b6105fd9660018060a01b03875416611810868c614cf9565b9091506020813d6020116122d8575b816122bb602093836149e1565b81010312610ab15751905f8051602061576883398151915261226e565b3d91506122ae565b816122ea916149e1565b61027b57805f612200565b5060028301546001600160a01b031633146121aa565b503461027b578060031936011261027b576020600754604051908152f35b503461027b5761233836614766565b928281939293526004602052604081209260018060a01b03845416331480156124b5575b61236590614be3565b73__$69ea93bdf3b1e5da8164bfe3d9a878d765$__803b156118ab57826040518092630252a86760e51b825281806123a08a60048301614c14565b03915af480156118a0579083916124a0575b5050600584016123c982825461177d828210614947565b905560018060a01b0360098501541693600781015460405190631c8f084760e01b8252836004830152602482015260208160448173__$8537b7efa173772577da826929141ce939$__5af4938415610afd579361246a575b50916105fd8361182c8360017ff05d33634b730e763d232b482cf835a4481835f62d0a0973b42018a8ead4f0479701986118168b8260018060a01b038d5416611810868c614cf9565b92506020833d602011612498575b81612485602093836149e1565b81010312610ab1579151916105fd612421565b3d9150612478565b816124aa916149e1565b610fd257815f6123b2565b5060028401546001600160a01b0316331461235c565b503461027b578060031936011261027b576020600554604051908152f35b503461027b57602036600319011261027b5760406004359182815260046020522090600182019060018060a01b03825416331480156125a8575b61252c90614be3565b5f805160206157288339815191526105fd60028501946125568654611a9e60ff8260b01c16614ea8565b80546009820154600583015461257a9290916001600160a01b039081169116615556565b505493549454604080516001600160a01b039283168152336020820152968216969590911694918291820190565b5082546001600160a01b03163314612523565b503461027b578060031936011261027b57546040516001600160a01b039091168152602090f35b503461027b578060031936011261027b576020600254604051908152f35b503461027b578060031936011261027b578054612627336001600160a01b03831614614da0565b60ff60a01b191681556040518181527f017904e4fe7d59bb4603c7c045bc275a05da9ea3a4ac007fc80fffeaf119186d90602090a180f35b503461027b57602036600319011261027b576004358152600460205260409020600160a01b6001900381541690600160a01b600190036001820154169060028101546003820154600483015460058401546006850154600786015491600887015493600160a01b6001900360098901541695600160a01b60019003600a8a01541697600b8a015499600c015460ff169a6040519c8d5260208d0152600160a01b60019003811660408d01528060a01c60ff16151560608d01528060a81c60ff16151560808d01528060b01c60ff16151560a08d015260b81c60ff16151560c08c015260e08b01526101008a01526101208901526101408801526101608701526101808601526101a08501526101c08401526101e083015261020082016127849161481a565b61022090f35b503461027b57602036600319011261027b5760406004359182815260046020522090600182019060018060a01b0382541633148015612831575b6127cd90614be3565b5f805160206157288339815191526105fd60028501946127ff865460ff8160b81c161580612823575b611aae90614eda565b80546009820154600583015461257a9290916001600160a01b0390811691166155b1565b5060b081901c60ff166127f6565b5082546001600160a01b031633146127c4565b503461027b57604036600319011261027b5760206102db612863614757565b60043561516b565b503461027b57602036600319011261027b576020906040906001600160a01b036128936146bf565b1681526001835281812081805283522054604051908152f35b506128b636614766565b8284939294526004602052604083209360018501936128df60018060a01b038654163314614be3565b73__$69ea93bdf3b1e5da8164bfe3d9a878d765$__803b15610fd257816040518092630252a86760e51b8252818061291a8c60048301614c14565b03915af48015610fc757908291612bce575b5050600a86018054335f9081526001602090815260408083206001600160a01b03909416808452939091529020549192909194156129ca5750508161298591611f09825f80516020615748833981519152961015614947565b5060068501612995828254614e9b565b905584549354600290950154604080516001600160a01b039283168152602081019390935295811695941693819081016105fd565b90938381106129f0575b50505f8051602061574883398151915292508161298591611f09565b6129fa9084614cf9565b91612a0b60ff835460a01c16614916565b612a16831515614e02565b6002549160405192631c8f084760e01b8452846004850152602484015260208360448173__$8537b7efa173772577da826929141ce939$__5af4928315611d73578193612b9a575b5085612ad55750612a6f8284614e9b565b340361141a5784838593612a95612985965f805160206157488339815191529933615556565b50600354612aaf90829085906001600160a01b0316615556565b505b60405191825260208201525f8051602061578883398151915260403392a3916129d4565b612adf8385614e9b565b604051906323b872dd60e01b82523360048301523060248301526044820152602081606481858b5af1918215610afd578092612b5d575b5050156114c45784838593612b3d612985965f805160206157488339815191529933615556565b50600354612b5790829085906001600160a01b0316615556565b50612ab1565b9091506020823d602011612b92575b81612b79602093836149e1565b8101031261027b5750612b8b90614a17565b5f80612b16565b3d9150612b6c565b9092506020813d602011612bc6575b81612bb6602093836149e1565b81010312610ab15751915f612a5e565b3d9150612ba9565b81612bd8916149e1565b61027b57805f61292c565b503461027b57612bf236614789565b83859493929452600460205260408520906001820194612c1c60018060a01b038754163314614be3565b8673__$69ea93bdf3b1e5da8164bfe3d9a878d765$__803b15610fd257816040518092630252a86760e51b82528180612c588a60048301614c14565b03915af48015610fc757612f6f575b50506002830196612c7f60ff895460b01c1615614d30565b33815260016020526040812060018060a01b0386165f52602052612ca98260405f20541015614947565b612cb4828633615491565b5082612f54575b33815260016020526040812060018060a01b0386165f5260205260405f2054828110612d6b575b5050908184612d03602095945f805160206157a88339815191529733615491565b50885460ff60b01b1916600160b01b178955600a840180546001600160a01b0319166001600160a01b039283161790556004840182905560068401919091556008830191909155905494549554604051908216815295811695941693a4602060405160018152f35b612d79908392959493614cf9565b94612d8a60ff865460a01c16614916565b612d95861515614e02565b6002549460405195631c8f084760e01b8752876004880152602487015260208660448173__$8537b7efa173772577da826929141ce939$__5af4958615611d73578196612f20575b506001600160a01b0382169081612e5e5750612df98688614e9b565b61141a5786602096612e1a5f805160206157a8833981519152998533615556565b50600354612e3490829086906001600160a01b0316615556565b505b604051918252878201525f8051602061578883398151915260403392a3948192939450612ce2565b612e688789614e9b565b604051906323b872dd60e01b8252336004830152306024830152604482015260208160648185875af1918215610afd578092612ee3575b5050156114c45786602096612ec35f805160206157a8833981519152998533615556565b50600354612edd90829086906001600160a01b0316615556565b50612e36565b9091506020823d602011612f18575b81612eff602093836149e1565b8101031261027b5750612f1190614a17565b5f80612e9f565b3d9150612ef2565b9095506020813d602011612f4c575b81612f3c602093836149e1565b81010312610ab15751945f612ddd565b3d9150612f2f565b8754612f6a906001600160a01b03161515614d62565b612cbb565b81612f79916149e1565b612f8457865f612c67565b8680fd5b503461027b57604036600319011261027b57600435612fa5614757565b8183526004602052604083209060018060a01b03825416331480156132c1575b612fce90614be3565b8373__$69ea93bdf3b1e5da8164bfe3d9a878d765$__803b15610fd257816040518092630252a86760e51b8252818061300a8960048301614c14565b03915af48015610fc7576132a8575b505060058201549060018060a01b036009840154169260068101549260018060a01b03600a830154169160078101549060088101549473__$8537b7efa173772577da826929141ce939$__9560405193631c8f084760e01b855285600486015260248501526020846044818a5af4938415610f63578b94613273575b50602090604460405180998193631c8f084760e01b83528c600484015260248301525af495861561326857899a99989996613229575b5060018201805490958995949392918891906001600160a01b03168c6130f18789614cf9565b906130fc9286615538565b50600284018054909c61311b918791906001600160a01b031686615538565b5083546001600160a01b0316816131328c80614cf9565b9061313d9286615538565b508b54613155936001600160a01b0390911690615538565b5054935497546040516001600160a01b03998a169a958a1699909116968a968a968893889391929091829161318c91338e85614d06565b035f805160206156e883398151915291a46040519182916131af91338985614d06565b037ff05d33634b730e763d232b482cf835a4481835f62d0a0973b42018a8ead4f04791a4604080516001600160a01b039290921682523360208301527ffaee379435b6a0c297f1a08c66517fdc202debc6d275e6dd73630e3ebd1bdd9791a460065461321a90614ba9565b60065560405160018152602090f35b939291975094506020833d602011613260575b81613249602093836149e1565b81010312610ab157889687935195909192936130cb565b3d915061323c565b6040513d8c823e3d90fd5b9093506020813d6020116132a0575b8161328f602093836149e1565b81010312610ab15751926020613095565b3d9150613282565b816132b2916149e1565b6132bd57835f613019565b8380fd5b5060028201546001600160a01b03163314612fc5565b503461027b57604036600319011261027b5760206102db6132f6614757565b600435614f6f565b503461027b57602036600319011261027b57604060a0916004358152600a6020522060ff60018254920154604051928352600180851b03811660208401528181851c1615156040840152818160a81c161515606084015260b01c1615156080820152f35b503461027b57602036600319011261027b57604081610220926102008351613389816149a8565b82815282602082015282858201528260608201528260808201528260a08201528260c08201528260e08201528261010082015282610120820152826101408201528261016082015282610180820152826101a0820152826101c0820152826101e0820152015260043581526004602052206134dd60ff600c6040519361340e856149a8565b80546001600160a01b0390811686526001820154811660208701526002820154808216604088015260a081811c86161515606089015260a882901c86161515608089015260b082901c861615159088015260b81c8416151560c0870152600382015460e087015260048201546101008701526005820154610120870152600682015461014087015260078201546101608701526008820154610180870152600982015481166101a0870152600a820154166101c0860152600b8101546101e08601520154166102008301614d94565b6134ea6040518092614827565bf35b50604036600319011261027b576135016146bf565b60243561351460ff845460a01c16614916565b61351f811515614e02565b60025460405190631c8f084760e01b8252826004830152602482015260208160448173__$8537b7efa173772577da826929141ce939$__5af49081156136a4578491613672575b506001600160a01b03831692836135cc576135818284614e9b565b340361141a578181613597856135a99433615556565b506003546001600160a01b0316615556565b505b60405191825260208201525f8051602061578883398151915260403392a380f35b6135d68284614e9b565b604051906323b872dd60e01b8252336004830152306024830152604482015260208160648189895af1908115613667578691613629575b50156114c4578181613597856136239433615556565b506135ab565b90506020813d60201161365f575b81613644602093836149e1565b8101031261365b5761365590614a17565b5f61360d565b8580fd5b3d9150613637565b6040513d88823e3d90fd5b90506020813d60201161369c575b8161368d602093836149e1565b81010312610ab157515f613566565b3d9150613680565b6040513d86823e3d90fd5b503461027b578060031936011261027b5760ff6020915460a01c166040519015158152f35b503461027b57602036600319011261027b5760406004359182815260046020522090600182019161370f60018060a01b038454163314614be3565b60028101906137288254611a9e60ff8260b01c16614ea8565b600a810154335f9081526001602090815260408083206001600160a01b0390941680845293909152902054611b1791613768600485015480931015614947565b33615491565b503461027b57602036600319011261027b576004359060025460405190631c8f084760e01b8252836004830152602482015260208160448173__$8537b7efa173772577da826929141ce939$__5af4918215610afd57916137de575b60206137d68385614e9b565b604051908152f35b90506020813d602011613809575b816137f9602093836149e1565b81010312610ab1575160206137ca565b3d91506137ec565b503461027b578060031936011261027b578054613838336001600160a01b03831614614da0565b60ff60a01b1916600160a01b178155604051600181527f017904e4fe7d59bb4603c7c045bc275a05da9ea3a4ac007fc80fffeaf119186d90602090a180f35b50613881366147b7565b91929095949360ff885460a01c169261389984614916565b33895260016020526040892060018060a01b0386165f5260205260405f2054828110613b64575b50610220935061390b906138d5838733615491565b5060405163652e83d760e01b815273__$69ea93bdf3b1e5da8164bfe3d9a878d765$__999096879586958a8c3360048a01614e33565b0381875af49081156112f1578591613b45575b5060206005546102446040518097819363797d4ee160e01b83526139456004840188614827565b6102248301525af49384156112f1578594613b11575b50613967600554614ba9565b600555838552600460209081526040808720835181546001600160a01b039182166001600160a01b031991821617835593850151600183018054918316919095161790935590830151600282018054606086015160ff60a01b90151560a01b16929094166001600160a81b03199094169390931717825591610200916139ec90611164565b60e0810151600384015561010081015160048401556101208101516005840155610140810151600680850191909155610160820151600785015561018082015160088501556101a08201516009850180546001600160a01b039283166001600160a01b0319918216179091556101c0840151600a870180549190931691161790556101e0820151600b85015591015195908610156112a95750602094600c613a949201614bcb565b6040516001600160a01b039182168082529290911690339084907f5e02698c1650d6cbe1f7e8a48609d0da45ad7f5e4c13cd8b196f82965c0ab0d5908790a480613ae2575b50604051908152f35b7f957372c0e02d2882134cc0eebbef9e446634d8ccbb1cbb112bdefdd3cf0a643c83604051848152a25f613ad9565b9093506020813d602011613b3d575b81613b2d602093836149e1565b81010312610ab15751925f61395b565b3d9150613b20565b613b5e91506102203d81116113245761131681836149e1565b5f61391e565b613b71613b779184614cf9565b94614916565b613b82841515614e02565b6002549060405191631c8f084760e01b8352856004840152602483015260208260448173__$8537b7efa173772577da826929141ce939$__5af4918215613268578a92613cf6575b506001600160a01b03861680613c3d57613be48387614e9b565b340361141a578561390b93613bfd610220988a33615556565b50600354613c179082908b906001600160a01b0316615556565b505b60405191825260208201525f8051602061578883398151915260403392a3906138c0565b8a6020613c4a8589614e9b565b6064604051809481936323b872dd60e01b83523360048401523060248401526044830152865af1908115610fa3578c91613cb8575b50156114c4578561390b93613c98610220988a33615556565b50600354613cb29082908b906001600160a01b0316615556565b50613c19565b90506020813d602011613cee575b81613cd3602093836149e1565b81010312613cea57613ce490614a17565b5f613c7f565b8b80fd5b3d9150613cc6565b9091506020813d602011613d22575b81613d12602093836149e1565b81010312610ab15751905f613bca565b3d9150613d05565b503461027b5761022061390b613d3f366147b7565b613d5760ff8b9a9694979899939a5460a01c16614916565b338a52600160205260408a2060018060a01b0387165f52602052613d818360405f20541015614947565b6138d5838733615491565b503461027b57604036600319011261027b577f14bdaadaed0453e7b5b66195b42156ba995b9e5abd0da98368839851d69ad8896040600435613dcc6146a9565b613de060018060a01b038654163314614da0565b6001600160a01b0316613df4811515614dd1565b613e056402540be400831115614e02565b81600255806bffffffffffffffffffffffff60a01b600354161760035582519182526020820152a180f35b503461027b57606036600319011261027b5760243560043560443560068110156132bd5781845260046020526040842091600183019160018060a01b038354163314801561404a575b8015614034575b613e8990614be3565b8573__$69ea93bdf3b1e5da8164bfe3d9a878d765$__803b15610fd257816040518092630252a86760e51b82528180613ec58b60048301614c14565b03915af48015610fc75761401f575b505084158015614015575b613ee890614d62565b604051613ef481614978565b82815260208101958652613f0c604082019283614d94565b606081018781526080820188815260a0830191898352600260c08501948b86526007549a8b8d52600960205260408d20915182555160018201550194519960068b10156112a95750613f6060209a86614bcb565b51845491519251935164ffffffff001990921690151560081b61ff00161791151560101b62ff0000169190911791151560181b63ff0000001691909117901515871b64ff000000001617905582549154600290930154604080516001600160a01b0392831681523381890152908101869052938116939216917f867051316d0aafc6bf3704f0b32fa0e735bb03d37318b95179bdc1c5017467c090606090a461400a600754614ba9565b600755604051908152f35b5042851115613edf565b81614029916149e1565b61365b57855f613ed4565b5060028401546001600160a01b03163314613e80565b5083546001600160a01b03163314613e79565b5061406736614789565b8385949392945260046020526040852090600182019461409160018060a01b038754163314614be3565b8673__$69ea93bdf3b1e5da8164bfe3d9a878d765$__803b15610fd257816040518092630252a86760e51b825281806140cd8a60048301614c14565b03915af48015610fc757614220575b505060028301966140f460ff895460b01c1615614d30565b33815260016020526040812060018060a01b0386165f5260205260405f205482811061413b575050908184612d03602095945f805160206157a88339815191529733615491565b614149908392959493614cf9565b9461415a60ff865460a01c16614916565b614165861515614e02565b6002549460405195631c8f084760e01b8752876004880152602487015260208660448173__$8537b7efa173772577da826929141ce939$__5af4958615611d735781966141ec575b506001600160a01b0382169081612e5e57506141c98688614e9b565b340361141a5786602096612e1a5f805160206157a8833981519152998533615556565b9095506020813d602011614218575b81614208602093836149e1565b81010312610ab15751945f6141ad565b3d91506141fb565b8161422a916149e1565b612f8457865f6140dc565b503461027b578060031936011261027b576003546040516001600160a01b039091168152602090f35b503461027b578060031936011261027b576020600854604051908152f35b5034610ab15761428b36614766565b929190815f52600460205260405f2090600182019360018060a01b0385541633148015614403575b6142bc90614be3565b73__$69ea93bdf3b1e5da8164bfe3d9a878d765$__803b15610ab1575f6040518092630252a86760e51b825281806142f78960048301614c14565b03915af480156143f8576143e5575b506006830161431c83825461177d828210614947565b905560018060a01b03600a84015416600884015460405190631c8f084760e01b8252846004830152602482015260208160448173__$8537b7efa173772577da826929141ce939$__5af4928315610afd57926143a4575b505f805160206156e88339815191529361182c83836118168b6105fd9660018060a01b03875416611810868c614cf9565b9091506020813d6020116143dd575b816143c0602093836149e1565b81010312610ab15751905f805160206156e8833981519152614373565b3d91506143b3565b6143f191505f906149e1565b5f80614306565b6040513d5f823e3d90fd5b5060028301546001600160a01b031633146142b3565b34610ab1576102206144b561442d366146d5565b9261444b60ff5f9d99979d9c969c9b9a9b9493945460a01c16614916565b335f52600160205260405f2060018060a01b0382165f526020526144758660405f20541015614947565b614480868233615491565b5073__$69ea93bdf3b1e5da8164bfe3d9a878d765$__9a6040519c8d98899863652e83d760e01b8a528d8d3360048d01614b3d565b0381865af49384156143f8575f94614688575b5060206005546102446040518096819363797d4ee160e01b83526144ef600484018b614827565b6102248301525af49283156143f8575f93614654575b50614511600554614ba9565b6005555f83815260046020908152604091829020865181546001600160a01b039182166001600160a01b031991821617835592880151600183018054918316919094161790925591860151600283018054606089015160ff60a01b90151560a01b16929093166001600160a81b03199093169290921717815590946102009161459990611164565b60e0810151600387015561010081015160048701556101208101516005870155610140810151600680880191909155610160820151600788015561018082015160088801556101a08201516009880180546001600160a01b039283166001600160a01b0319918216179091556101c0840151600a8a0180549190931691161790556101e0820151600b880155910151949085101561464057602094600c6112659201614bcb565b634e487b7160e01b5f52602160045260245ffd5b9092506020813d602011614680575b81614670602093836149e1565b81010312610ab157519184614505565b3d9150614663565b6146a29194506102203d81116113245761131681836149e1565b92846144c8565b602435906001600160a01b0382168203610ab157565b600435906001600160a01b0382168203610ab157565b610140906003190112610ab1576004356001600160a01b0381168103610ab157906024356001600160a01b0381168103610ab1579060443590606435906084359060a4359060c4356001600160a01b0381168103610ab1579060e4356001600160a01b0381168103610ab157906101043590610124356006811015610ab15790565b602435908115158203610ab157565b6060906003190112610ab15760043590602435906044358015158103610ab15790565b6080906003190112610ab157600435906024356001600160a01b0381168103610ab157906044359060643590565b60e0906003190112610ab1576004356001600160a01b0381168103610ab157906024356001600160a01b0381168103610ab1579060443590606435906084356001600160a01b0381168103610ab1579060a4359060c4356006811015610ab15790565b9060068210156146405752565b90610200806149149360018060a01b03815116845260018060a01b03602082015116602085015260018060a01b03604082015116604085015260608101511515606085015260808101511515608085015260a0810151151560a085015260c0810151151560c085015260e081015160e085015261010081015161010085015261012081015161012085015261014081015161014085015261016081015161016085015261018081015161018085015260018060a01b036101a0820151166101a085015260018060a01b036101c0820151166101c08501526101e08101516101e0850152015191019061481a565b565b1561491d57565b60405162461bcd60e51b81526020600482015260026024820152614c3160f01b6044820152606490fd5b1561494e57565b60405162461bcd60e51b8152602060048201526002602482015261543160f01b6044820152606490fd5b60e0810190811067ffffffffffffffff82111761499457604052565b634e487b7160e01b5f52604160045260245ffd5b610220810190811067ffffffffffffffff82111761499457604052565b60a0810190811067ffffffffffffffff82111761499457604052565b90601f8019910116810190811067ffffffffffffffff82111761499457604052565b51906001600160a01b0382168203610ab157565b51908115158203610ab157565b9081610220910312610ab15761020060405191614a40836149a8565b614a4981614a03565b8352614a5760208201614a03565b6020840152614a6860408201614a03565b6040840152614a7960608201614a17565b6060840152614a8a60808201614a17565b6080840152614a9b60a08201614a17565b60a0840152614aac60c08201614a17565b60c084015260e081015160e0840152610100810151610100840152610120810151610120840152610140810151610140840152610160810151610160840152610180810151610180840152614b046101a08201614a03565b6101a0840152614b176101c08201614a03565b6101c08401526101e08101516101e084015201516006811015610ab15761020082015290565b6001600160a01b039182168152918116602083015291821660408201526060810192909252608082019290925260a081019290925260c082019290925291811660e08301529091166101008201526101208101919091526101608101929161491491610140019061481a565b5f198114614bb75760010190565b634e487b7160e01b5f52601160045260245ffd5b9060068110156146405760ff80198354169116179055565b15614bea57565b60405162461bcd60e51b8152602060048201526002602482015261443560f01b6044820152606490fd5b81546001600160a01b0390811682526001830154811660208301526002830154808216604084015260ff60a082811c82161515606086015260a883901c82161515608086015260b083901c821615159085015260b89190911c8116151560c0840152600384015460e084015260048401546101008401526005840154610120840152600684015461014084015260078401546101608401526008840154610180840152600984015482166101a0840152600a8401549091166101c0830152600b8301546101e0830152600c90920154610220820193926149149261020001911661481a565b91908203918211614bb757565b6001600160a01b039182168152911660208201526040810191909152606081019190915260800190565b15614d3757565b606460405162461bcd60e51b81526020600482015260046024820152632219171960e11b6044820152fd5b15614d6957565b606460405162461bcd60e51b815260206004820152600460248201526344312e3160e01b6044820152fd5b60068210156146405752565b15614da757565b60405162461bcd60e51b8152602060048201526002602482015261261960f11b6044820152606490fd5b15614dd857565b60405162461bcd60e51b8152602060048201526002602482015261433160f01b6044820152606490fd5b15614e0957565b60405162461bcd60e51b8152602060048201526002602482015261433560f01b6044820152606490fd5b6001600160a01b0391821681529181166020830152918216604082015260608101929092525f6080830181905260a083019390935260c0820183905290921660e08301526101008201526101208101919091526101608101929161491491610140019061481a565b91908201809211614bb757565b15614eaf57565b606460405162461bcd60e51b815260206004820152600460248201526344332e3160e01b6044820152fd5b15614ee157565b606460405162461bcd60e51b815260206004820152600460248201526344322e3160e01b6044820152fd5b15614f1357565b60405162461bcd60e51b8152602060048201526002602482015261443360f01b6044820152606490fd5b15614f4457565b606460405162461bcd60e51b815260206004820152600460248201526343332e3160e01b6044820152fd5b90815f52600a60205260405f2080545f52600460205260405f209160018060a01b0383541633148015615155575b614fa690614be3565b6150ed57600282018054909290614fc6906001600160a01b031615614f3d565b80546001600160a01b031633146150d3575b600101546001600160a01b031633146150b9575b6001810191825460ff8160a01c16806150ac575b6150585750505060807fda0fdc90d2cac3c2211c13cf60368aceb049a3073b8be0b90792021888c55fc5915460ff60405191338352818160a01c161515602084015260a81c16151560408201525f6060820152a25f90565b81546001600160a01b0319166001600160a01b039182161790915591549054604051908152911691507f957372c0e02d2882134cc0eebbef9e446634d8ccbb1cbb112bdefdd3cf0a643c90602090a2600190565b5060ff8160a81c16615000565b60018101805460ff60a81b1916600160a81b179055614fec565b60018201805460ff60a01b1916600160a01b179055614fd8565b7fda0fdc90d2cac3c2211c13cf60368aceb049a3073b8be0b90792021888c55fc59150600160809101600160b01b60ff60b01b198254161780915560ff60405191338352818160a01c161515602084015260a81c161515604082015260016060820152a25f90565b5060018301546001600160a01b03163314614f9d565b5f91815f52600960205260405f209081545f52600460205260405f2090600182019060018060a01b038254163314801561547e575b8015615468575b6151b090614be3565b73__$69ea93bdf3b1e5da8164bfe3d9a878d765$__803b15610ab1575f6040518092630252a86760e51b825281806151eb8960048301614c14565b03915af480156143f857615453575b506153dd576001830192835493841580156153d3575b61521990614d62565b83546001600160a01b031633146153bd575b82546001600160a01b031633146153a5575b6002840180549092906001600160a01b0316331461538b575b6002810195865460ff8160081c16908161537c575b8161536e575b506152d95750505050505060a07fca0792b3957820bc249dd7664026ca960efe1500204314bf8161056d3847d526915460ff60405191338352818160081c1615156020840152818160101c161515604084015260181c1615156060820152846080820152a290565b8598509160ff7f932bd05aaee1f6600767846bab40eaabef608993e19645684d0a9fcb3335d37297926153689594600b60c099015561531e82855416600c8d01614bcb565b5499549554935491549254604080516001600160a01b039889168152958816602087015292909616918401919091523360608401526080830191909152909260a08401911661481a565ba3600190565b60ff915060181c165f615271565b905060ff8160101c169061526b565b60028101805463ff00000019166301000000179055615256565b60028201805462ff000019166201000017905561523d565b60028201805461ff00191661010017905561522b565b5042851115615210565b505060a060027fca0792b3957820bc249dd7664026ca960efe1500204314bf8161056d3847d526920164010000000064ff00000000198254161780915560ff60405191338352818160081c1615156020840152818160101c161515604084015260181c161515606082015260016080820152a290565b6154609196505f906149e1565b5f945f6151fa565b5060028301546001600160a01b031633146151a7565b5082546001600160a01b031633146151a0565b82156155305760018060a01b031690815f52600160205260405f2060018060a01b0382165f526020528260405f205410615529577fd1398bee19313d6bf672ccb116e51f4a1a947e91c757907f51fbb5b5e56c698f60205f92848452600182526040842060018060a01b0382168552825260408420615511878254614cf9565b90556040519586526001600160a01b031694a4600190565b5050505f90565b505050600190565b909291901561554d5761554a92615556565b90565b61554a926155b1565b8215615530577fd1398bee19313d6bf672ccb116e51f4a1a947e91c757907f51fbb5b5e56c698f60205f9260018060a01b031693848452600182526040842060018060a01b0382168552825260408420615511878254614e9b565b91908115615530576001600160a01b03169182615619575f808080856001600160a01b03861682f1156143f85760207f2717ead6b9200dd235aad468c9809ea400fe33ac69b5bfaa6d3e90fc922b6398915b6040519384526001600160a01b031692a3600190565b60405163a9059cbb60e01b81526001600160a01b0382166004820152602481018390526020816044815f885af19081156143f8575f916156ad575b50156156835760207f2717ead6b9200dd235aad468c9809ea400fe33ac69b5bfaa6d3e90fc922b639891615603565b60405162461bcd60e51b8152602060048201526002602482015261543360f01b6044820152606490fd5b90506020813d6020116156df575b816156c8602093836149e1565b81010312610ab1576156d990614a17565b5f615654565b3d91506156bb56fe8af39814826d4542f7fe66e6fa6ac2ac59bfc8221394f51a41dba5c54dba0ac9afbe337783658b293f1566e1790bfab9858b8cf08de944ca3cd013d4211887b8086c61b89ef5fcdb14c243b643069c3c6a84765b27f2a696b875dddf031afb4d9d5818ec36d6e85e8a30346f5fe41b65cc50cea2b868ae94f293d113c92a1338a6af192380b5ba311ac003f57efa2be0717f0e466318c7e9cf546c4937a03d94dcbc1c05240f31ff3ad067ef1ee35ce4997762752e3a095284754544f4c709d79f039f6754f2d286001d6bb50c1b3cc185b309e82f63077e29516a6a87e8e99da26469706673582212204bcaa446c44c08cf58b68b549e4e34d76e6f174d238036e3bb579d599f59329c64736f6c634300081a0033",
			"opcodes": "PUSH1 0x80 CALLVALUE PUSH2 0x13A JUMPI PUSH1 0x1F PUSH2 0x5950 CODESIZE DUP2 SWAP1 SUB SWAP2 DUP3 ADD PUSH1 0x1F NOT AND DUP4 ADD SWAP2 PUSH1 0x1 PUSH1 0x1 PUSH1 0x40 SHL SUB DUP4 GT DUP5 DUP5 LT OR PUSH2 0x13E JUMPI DUP1 DUP5 SWAP3 PUSH1 0x40 SWAP5 DUP6 MSTORE DUP4 CODECOPY DUP2 ADD SUB SLT PUSH2 0x13A JUMPI DUP1 MLOAD PUSH1 0x20 SWAP1 SWAP2 ADD MLOAD PUSH1 0x1 PUSH1 0x1 PUSH1 0xA0 SHL SUB DUP2 AND SWAP2 SWAP1 DUP3 SWAP1 SUB PUSH2 0x13A JUMPI PUSH0 DUP1 SLOAD PUSH1 0x1 PUSH1 0x1 PUSH1 0xA8 SHL SUB NOT AND CALLER OR PUSH1 0x1 PUSH1 0xA0 SHL OR DUP1 DUP3 SSTORE PUSH1 0x40 MLOAD SWAP2 PUSH1 0x1 PUSH1 0x1 PUSH1 0xA0 SHL SUB SWAP1 SWAP2 AND SWAP1 PUSH32 0x8BE0079C531659141344CD1FD0A4F28419497F9722A3DAAFE3B4186F6B6457E0 DUP2 DUP1 LOG3 DUP3 ISZERO PUSH2 0x113 JUMPI POP PUSH5 0x2540BE400 DUP2 GT PUSH2 0xE9 JUMPI PUSH1 0x2 SSTORE PUSH1 0x1 DUP1 PUSH1 0xA0 SHL SUB NOT PUSH1 0x3 SLOAD AND OR PUSH1 0x3 SSTORE PUSH0 PUSH1 0x5 SSTORE PUSH0 PUSH1 0x6 SSTORE PUSH0 PUSH1 0x7 SSTORE PUSH0 PUSH1 0x8 SSTORE PUSH1 0x40 MLOAD PUSH2 0x57FD SWAP1 DUP2 PUSH2 0x153 DUP3 CODECOPY RETURN JUMPDEST PUSH1 0x40 MLOAD PUSH3 0x461BCD PUSH1 0xE5 SHL DUP2 MSTORE PUSH1 0x20 PUSH1 0x4 DUP3 ADD MSTORE PUSH1 0x2 PUSH1 0x24 DUP3 ADD MSTORE PUSH2 0x4335 PUSH1 0xF0 SHL PUSH1 0x44 DUP3 ADD MSTORE PUSH1 0x64 SWAP1 REVERT JUMPDEST PUSH3 0x461BCD PUSH1 0xE5 SHL DUP2 MSTORE PUSH1 0x20 PUSH1 0x4 DUP3 ADD MSTORE PUSH1 0x2 PUSH1 0x24 DUP3 ADD MSTORE PUSH2 0x4331 PUSH1 0xF0 SHL PUSH1 0x44 DUP3 ADD MSTORE PUSH1 0x64 SWAP1 REVERT JUMPDEST PUSH0 DUP1 REVERT JUMPDEST PUSH4 0x4E487B71 PUSH1 0xE0 SHL PUSH0 MSTORE PUSH1 0x41 PUSH1 0x4 MSTORE PUSH1 0x24 PUSH0 REVERT INVALID PUSH1 0x80 PUSH1 0x40 MSTORE PUSH1 0x4 CALLDATASIZE LT ISZERO PUSH2 0x11 JUMPI PUSH0 DUP1 REVERT JUMPDEST PUSH0 DUP1 CALLDATALOAD PUSH1 0xE0 SHR DUP1 PUSH3 0x7E8BD3 EQ PUSH2 0x4419 JUMPI DUP1 PUSH4 0x1CAFAE3 EQ PUSH2 0x427C JUMPI DUP1 PUSH4 0x2927459 EQ PUSH2 0x425E JUMPI DUP1 PUSH4 0x6FD154A EQ PUSH2 0x4235 JUMPI DUP1 PUSH4 0x934DA22 EQ PUSH2 0x405D JUMPI DUP1 PUSH4 0x1273C165 EQ PUSH2 0x3E30 JUMPI DUP1 PUSH4 0x15F8A314 EQ PUSH2 0x3D8C JUMPI DUP1 PUSH4 0x17B52B50 EQ PUSH2 0x3D2A JUMPI DUP1 PUSH4 0x28D5A050 EQ PUSH2 0x3877 JUMPI DUP1 PUSH4 0x367EDD32 EQ PUSH2 0x3811 JUMPI DUP1 PUSH4 0x39B3EDB0 EQ PUSH2 0x376E JUMPI DUP1 PUSH4 0x4187129C EQ PUSH2 0x36D4 JUMPI DUP1 PUSH4 0x41B3A0D9 EQ PUSH2 0x36AF JUMPI DUP1 PUSH4 0x47E7EF24 EQ PUSH2 0x34EC JUMPI DUP1 PUSH4 0x51A6FAD5 EQ PUSH2 0x3362 JUMPI DUP1 PUSH4 0x53A78000 EQ PUSH2 0x32FE JUMPI DUP1 PUSH4 0x619C457E EQ PUSH2 0x32D7 JUMPI DUP1 PUSH4 0x6242C6CD EQ PUSH2 0x2F88 JUMPI DUP1 PUSH4 0x63ADB66F EQ PUSH2 0x2BE3 JUMPI DUP1 PUSH4 0x67C5545D EQ PUSH2 0x28AC JUMPI DUP1 PUSH4 0x70A08231 EQ PUSH2 0x286B JUMPI DUP1 PUSH4 0x71AE8BCD EQ PUSH2 0x2844 JUMPI DUP1 PUSH4 0x80CCB070 EQ PUSH2 0x278A JUMPI DUP1 PUSH4 0x81CD872A EQ PUSH2 0x265F JUMPI DUP1 PUSH4 0x894BA833 EQ PUSH2 0x2600 JUMPI DUP1 PUSH4 0x899A3FFD EQ PUSH2 0x25E2 JUMPI DUP1 PUSH4 0x8DA5CB5B EQ PUSH2 0x25BB JUMPI DUP1 PUSH4 0x8DEEA5FB EQ PUSH2 0x24E9 JUMPI DUP1 PUSH4 0x966D1F1D EQ PUSH2 0x24CB JUMPI DUP1 PUSH4 0x9905A1EA EQ PUSH2 0x2329 JUMPI DUP1 PUSH4 0x9974F376 EQ PUSH2 0x230B JUMPI DUP1 PUSH4 0xA0849A33 EQ PUSH2 0x2173 JUMPI DUP1 PUSH4 0xAD94B28B EQ PUSH2 0x1E45 JUMPI DUP1 PUSH4 0xBA343F6D EQ PUSH2 0x1D80 JUMPI DUP1 PUSH4 0xBB06C1A4 EQ PUSH2 0x1A4F JUMPI DUP1 PUSH4 0xBEABACC8 EQ PUSH2 0x1961 JUMPI DUP1 PUSH4 0xC15A25BF EQ PUSH2 0x18E1 JUMPI DUP1 PUSH4 0xC23F001F EQ PUSH2 0x18C5 JUMPI DUP1 PUSH4 0xC2C257B9 EQ PUSH2 0x16DD JUMPI DUP1 PUSH4 0xCFAAF235 EQ PUSH2 0x1560 JUMPI DUP1 PUSH4 0xCFADF6C7 EQ PUSH2 0xFEC JUMPI DUP1 PUSH4 0xD750158B EQ PUSH2 0xCB5 JUMPI DUP1 PUSH4 0xE08560A4 EQ PUSH2 0xC97 JUMPI DUP1 PUSH4 0xEB457329 EQ PUSH2 0xB96 JUMPI DUP1 PUSH4 0xEE026054 EQ PUSH2 0x3B1 JUMPI DUP1 PUSH4 0xF2FDE38B EQ PUSH2 0x2E5 JUMPI DUP1 PUSH4 0xF3FEF3A3 EQ PUSH2 0x27E JUMPI PUSH4 0xF7888AEC EQ PUSH2 0x229 JUMPI PUSH0 DUP1 REVERT JUMPDEST CALLVALUE PUSH2 0x27B JUMPI PUSH1 0x40 CALLDATASIZE PUSH1 0x3 NOT ADD SLT PUSH2 0x27B JUMPI PUSH1 0x40 PUSH2 0x244 PUSH2 0x46BF JUMP JUMPDEST SWAP2 PUSH2 0x24D PUSH2 0x46A9 JUMP JUMPDEST SWAP3 PUSH1 0x1 DUP1 PUSH1 0xA0 SHL SUB AND DUP2 MSTORE PUSH1 0x1 PUSH1 0x20 MSTORE KECCAK256 SWAP1 PUSH1 0x1 DUP1 PUSH1 0xA0 SHL SUB AND PUSH0 MSTORE PUSH1 0x20 MSTORE PUSH1 0x20 PUSH1 0x40 PUSH0 KECCAK256 SLOAD PUSH1 0x40 MLOAD SWAP1 DUP2 MSTORE RETURN JUMPDEST DUP1 REVERT JUMPDEST POP CALLVALUE PUSH2 0x27B JUMPI PUSH1 0x40 CALLDATASIZE PUSH1 0x3 NOT ADD SLT PUSH2 0x27B JUMPI PUSH2 0x2DB PUSH1 0x20 SWAP2 PUSH2 0x29E PUSH2 0x46BF JUMP JUMPDEST PUSH1 0x40 PUSH1 0x24 CALLDATALOAD SWAP3 CALLER DUP2 MSTORE PUSH1 0x1 DUP7 MSTORE KECCAK256 PUSH1 0x1 DUP1 PUSH1 0xA0 SHL SUB DUP3 AND PUSH0 MSTORE DUP5 MSTORE PUSH2 0x2C9 DUP3 PUSH1 0x40 PUSH0 KECCAK256 SLOAD LT ISZERO PUSH2 0x4947 JUMP JUMPDEST PUSH2 0x2D4 DUP3 DUP3 CALLER PUSH2 0x5491 JUMP JUMPDEST POP CALLER PUSH2 0x55B1 JUMP JUMPDEST PUSH1 0x40 MLOAD SWAP1 ISZERO ISZERO DUP2 MSTORE RETURN JUMPDEST POP CALLVALUE PUSH2 0x27B JUMPI PUSH1 0x20 CALLDATASIZE PUSH1 0x3 NOT ADD SLT PUSH2 0x27B JUMPI PUSH2 0x2FF PUSH2 0x46BF JUMP JUMPDEST DUP2 SLOAD PUSH1 0x1 PUSH1 0x1 PUSH1 0xA0 SHL SUB DUP2 AND SWAP2 PUSH2 0x317 CALLER DUP5 EQ PUSH2 0x4DA0 JUMP JUMPDEST PUSH1 0x1 PUSH1 0x1 PUSH1 0xA0 SHL SUB AND SWAP2 DUP3 ISZERO PUSH2 0x35D JUMPI DUP3 SWAP1 PUSH32 0x8BE0079C531659141344CD1FD0A4F28419497F9722A3DAAFE3B4186F6B6457E0 DUP6 DUP1 LOG3 PUSH1 0x1 PUSH1 0x1 PUSH1 0xA0 SHL SUB NOT AND OR DUP2 SSTORE DUP1 RETURN JUMPDEST PUSH1 0x40 MLOAD PUSH3 0x461BCD PUSH1 0xE5 SHL DUP2 MSTORE PUSH1 0x20 PUSH1 0x4 DUP3 ADD MSTORE PUSH1 0x26 PUSH1 0x24 DUP3 ADD MSTORE PUSH32 0x4F776E61626C653A206E6577206F776E657220697320746865207A65726F2061 PUSH1 0x44 DUP3 ADD MSTORE PUSH6 0x646472657373 PUSH1 0xD0 SHL PUSH1 0x64 DUP3 ADD MSTORE PUSH1 0x84 SWAP1 REVERT JUMPDEST POP CALLVALUE PUSH2 0x27B JUMPI PUSH1 0x40 CALLDATASIZE PUSH1 0x3 NOT ADD SLT PUSH2 0x27B JUMPI PUSH1 0x4 CALLDATALOAD PUSH2 0x3CE PUSH2 0x4757 JUMP JUMPDEST SWAP1 DUP1 DUP4 MSTORE PUSH1 0x4 PUSH1 0x20 MSTORE PUSH1 0x40 DUP4 KECCAK256 SWAP1 PUSH1 0x1 DUP3 ADD SWAP2 PUSH1 0x1 DUP1 PUSH1 0xA0 SHL SUB DUP4 SLOAD AND CALLER EQ DUP1 ISZERO PUSH2 0xB83 JUMPI JUMPDEST DUP1 ISZERO PUSH2 0xB6D JUMPI JUMPDEST PUSH2 0x404 SWAP1 PUSH2 0x4BE3 JUMP JUMPDEST PUSH1 0x2 DUP2 ADD SWAP4 DUP5 SLOAD PUSH1 0xFF DUP2 PUSH1 0xB8 SHR AND ISZERO PUSH2 0xB43 JUMPI DUP1 PUSH1 0xFF PUSH2 0x430 SWAP3 PUSH1 0xA0 SHR AND ISZERO SWAP1 DUP2 PUSH2 0xB34 JUMPI JUMPDEST POP PUSH2 0x4F0C JUMP JUMPDEST PUSH1 0xB DUP3 ADD SLOAD TIMESTAMP LT PUSH2 0xB09 JUMPI DUP6 PUSH1 0xFF PUSH1 0xC DUP5 ADD SLOAD AND SWAP2 PUSH1 0x5 DUP5 ADD SLOAD PUSH1 0x1 DUP1 PUSH1 0xA0 SHL SUB PUSH1 0x9 DUP7 ADD SLOAD AND SWAP2 PUSH1 0x6 DUP7 ADD SLOAD SWAP2 PUSH1 0x1 DUP1 PUSH1 0xA0 SHL SUB PUSH1 0xA DUP9 ADD SLOAD AND SWAP3 PUSH1 0x7 DUP9 ADD SLOAD SWAP7 PUSH1 0x8 DUP10 ADD SLOAD PUSH20 0x0 SWAP9 PUSH1 0x40 MLOAD SWAP1 PUSH4 0x1C8F0847 PUSH1 0xE0 SHL DUP3 MSTORE DUP6 PUSH1 0x4 DUP4 ADD MSTORE PUSH1 0x24 DUP3 ADD MSTORE PUSH1 0x20 DUP2 PUSH1 0x44 DUP2 DUP14 GAS DELEGATECALL SWAP9 DUP10 ISZERO PUSH2 0xAFD JUMPI SWAP9 PUSH2 0xAC8 JUMPI JUMPDEST POP PUSH1 0x20 SWAP1 PUSH1 0x44 PUSH1 0x40 MLOAD DUP1 SWAP12 DUP2 SWAP4 PUSH4 0x1C8F0847 PUSH1 0xE0 SHL DUP4 MSTORE DUP8 PUSH1 0x4 DUP5 ADD MSTORE PUSH1 0x24 DUP4 ADD MSTORE GAS DELEGATECALL SWAP8 DUP9 ISZERO PUSH2 0xABD JUMPI DUP14 SWAP9 PUSH2 0xA85 JUMPI JUMPDEST POP PUSH1 0x6 DUP2 LT ISZERO PUSH2 0xA71 JUMPI SWAP3 DUP3 DUP3 PUSH1 0x4 DUP16 SWAP7 DUP16 SWAP7 SWAP8 DUP16 DUP16 SWAP1 PUSH0 DUP1 MLOAD PUSH1 0x20 PUSH2 0x5728 DUP4 CODECOPY DUP2 MLOAD SWAP2 MSTORE SWAP16 SWAP14 SWAP12 SWAP9 SWAP2 PUSH2 0x5FD SWAP16 SWAP14 SWAP12 DUP16 DUP16 DUP16 SWAP1 DUP16 SWAP3 DUP16 SWAP8 SWAP5 DUP16 SWAP6 DUP16 SWAP7 DUP8 DUP10 DUP5 DUP16 DUP16 DUP16 DUP16 SWAP1 DUP2 DUP15 DUP14 DUP16 SWAP5 PUSH1 0x1 DUP16 SWAP9 DUP15 SWAP9 DUP9 DUP16 SWAP5 DUP16 DUP16 SWAP1 DUP16 DUP16 SWAP1 DUP16 SWAP2 DUP6 DUP16 SWAP2 SWAP5 DUP6 DUP16 DUP16 SWAP10 DUP16 SWAP9 DUP11 DUP16 DUP11 DUP16 SWAP5 DUP16 DUP8 SWAP1 DUP16 SWAP3 DUP12 SWAP8 DUP16 SWAP5 DUP16 SWAP8 ISZERO PUSH2 0x989 JUMPI JUMPDEST POP POP POP POP POP POP POP POP POP POP POP PUSH1 0x2 DUP14 EQ PUSH2 0x88A JUMPI JUMPDEST POP POP POP POP POP POP POP POP POP POP POP POP EQ PUSH2 0x79C JUMPI JUMPDEST POP POP POP POP POP POP POP POP POP POP POP PUSH1 0x3 DUP14 EQ PUSH2 0x6FF JUMPI JUMPDEST POP POP POP POP POP POP POP POP POP POP POP POP EQ PUSH2 0x60B JUMPI JUMPDEST POP POP SWAP2 SLOAD PUSH1 0x1 PUSH1 0xA8 SHL PUSH1 0xFF PUSH1 0xA8 SHL NOT DUP3 AND OR SWAP1 SWAP12 SSTORE POP POP SWAP3 SLOAD SWAP7 SLOAD PUSH1 0x40 DUP1 MLOAD PUSH1 0x1 PUSH1 0x1 PUSH1 0xA0 SHL SUB SWAP11 DUP12 AND DUP2 MSTORE CALLER PUSH1 0x20 DUP3 ADD MSTORE SWAP2 DUP11 AND SWAP10 SWAP1 SWAP9 AND SWAP8 SWAP1 SWAP5 DUP6 SWAP5 POP SWAP1 DUP5 ADD SWAP3 POP SWAP1 POP JUMP JUMPDEST SUB SWAP1 LOG4 PUSH1 0x20 PUSH1 0x40 MLOAD PUSH1 0x1 DUP2 MSTORE RETURN JUMPDEST DUP6 DUP9 SWAP6 PUSH2 0x65C DUP10 SWAP4 PUSH2 0x63A PUSH2 0x66D SWAP7 PUSH2 0x67F SWAP12 PUSH2 0x633 DUP9 PUSH1 0x1 DUP1 PUSH1 0xA0 SHL SUB PUSH1 0x3 SLOAD AND SWAP4 PUSH2 0x4CF9 JUMP JUMPDEST SWAP2 DUP11 PUSH2 0x5538 JUMP JUMPDEST POP PUSH1 0x3 SLOAD PUSH1 0x1 PUSH1 0x1 PUSH1 0xA0 SHL SUB AND SWAP1 DUP9 SWAP1 PUSH2 0x655 SWAP1 DUP12 SWAP1 PUSH2 0x4CF9 JUMP JUMPDEST SWAP2 DUP9 PUSH2 0x5538 JUMP JUMPDEST POP SLOAD PUSH1 0x1 PUSH1 0x1 PUSH1 0xA0 SHL SUB AND DUP5 PUSH2 0x5538 JUMP JUMPDEST POP DUP12 SLOAD PUSH1 0x1 PUSH1 0x1 PUSH1 0xA0 SHL SUB AND SWAP1 PUSH2 0x5538 JUMP JUMPDEST POP DUP3 SLOAD DUP8 SLOAD DUP10 SLOAD PUSH1 0x3 SLOAD PUSH1 0x40 DUP1 MLOAD PUSH1 0x1 PUSH1 0x1 PUSH1 0xA0 SHL SUB SWAP4 DUP5 AND DUP2 MSTORE CALLER PUSH1 0x20 DUP3 ADD MSTORE SWAP2 DUP4 AND SWAP1 DUP3 ADD MSTORE PUSH1 0x60 DUP2 ADD DUP6 SWAP1 MSTORE PUSH1 0x80 DUP2 ADD DUP7 SWAP1 MSTORE PUSH1 0xA0 DUP2 ADD SWAP5 SWAP1 SWAP5 MSTORE PUSH1 0xC0 DUP5 ADD SWAP5 SWAP1 SWAP5 MSTORE DUP4 AND SWAP3 AND SWAP1 DUP7 SWAP1 PUSH32 0x8E100DC3335E09B082C843425F71EA8AE9D91AE5BB385EF4B41D0D2C6AA87214 SWAP1 PUSH1 0xE0 SWAP1 LOG4 DUP7 DUP1 DUP1 DUP9 DUP2 DUP1 DUP1 DUP1 PUSH2 0x5B5 JUMP JUMPDEST PUSH32 0x8E100DC3335E09B082C843425F71EA8AE9D91AE5BB385EF4B41D0D2C6AA87214 SWAP8 PUSH2 0x66D PUSH2 0x73C SWAP5 PUSH1 0xE0 SWAP10 DUP15 PUSH1 0x1 DUP1 PUSH1 0xA0 SHL SUB SWAP1 SLOAD AND DUP5 PUSH2 0x5538 JUMP JUMPDEST POP PUSH1 0x1 DUP1 PUSH1 0xA0 SHL SUB SWAP1 SLOAD AND SWAP6 PUSH1 0x1 DUP1 PUSH1 0xA0 SHL SUB SWAP1 SLOAD AND SWAP7 PUSH1 0x1 DUP1 PUSH1 0xA0 SHL SUB SWAP1 SLOAD AND SWAP2 PUSH1 0x40 MLOAD SWAP3 DUP1 DUP5 MSTORE CALLER PUSH1 0x20 DUP6 ADD MSTORE PUSH1 0x40 DUP5 ADD MSTORE PUSH1 0x60 DUP4 ADD MSTORE PUSH1 0x80 DUP3 ADD MSTORE DUP7 PUSH1 0xA0 DUP3 ADD MSTORE DUP7 PUSH1 0xC0 DUP3 ADD MSTORE LOG4 DUP16 DUP16 SWAP1 DUP10 SWAP2 DUP9 DUP16 DUP16 DUP16 SWAP1 DUP16 SWAP3 DUP13 DUP16 DUP14 SWAP1 PUSH2 0x5A3 JUMP JUMPDEST PUSH0 DUP1 MLOAD PUSH1 0x20 PUSH2 0x5768 DUP4 CODECOPY DUP2 MLOAD SWAP2 MSTORE SWAP11 PUSH2 0x816 PUSH0 DUP1 MLOAD PUSH1 0x20 PUSH2 0x56E8 DUP4 CODECOPY DUP2 MLOAD SWAP2 MSTORE SWAP10 PUSH2 0x7F9 DUP10 DUP8 DUP16 SWAP15 PUSH2 0x7E7 SWAP1 PUSH2 0x828 SWAP11 PUSH2 0x7E0 DUP6 PUSH1 0x1 DUP1 PUSH1 0xA0 SHL SUB DUP10 SLOAD AND SWAP4 PUSH2 0x4CF9 JUMP JUMPDEST SWAP2 DUP10 PUSH2 0x5538 JUMP JUMPDEST POP DUP11 SLOAD PUSH1 0x1 PUSH1 0x1 PUSH1 0xA0 SHL SUB AND DUP7 PUSH2 0x5538 JUMP JUMPDEST POP SLOAD PUSH1 0x1 PUSH1 0x1 PUSH1 0xA0 SHL SUB AND DUP4 PUSH2 0x80F DUP7 DUP13 PUSH2 0x4CF9 JUMP JUMPDEST SWAP2 DUP5 PUSH2 0x5538 JUMP JUMPDEST POP DUP6 SLOAD PUSH1 0x1 PUSH1 0x1 PUSH1 0xA0 SHL SUB AND SWAP1 PUSH2 0x5538 JUMP JUMPDEST POP PUSH1 0x1 DUP1 PUSH1 0xA0 SHL SUB DUP13 SLOAD AND SWAP7 DUP8 SWAP2 PUSH1 0x1 DUP1 PUSH1 0xA0 SHL SUB SWAP1 SLOAD AND SWAP9 DUP10 SWAP4 PUSH1 0x1 DUP1 PUSH1 0xA0 SHL SUB SWAP1 SLOAD AND SWAP5 DUP14 PUSH2 0x860 PUSH1 0x40 MLOAD SWAP3 DUP4 SWAP3 CALLER DUP11 DUP6 PUSH2 0x4D06 JUMP JUMPDEST SUB SWAP1 LOG4 PUSH2 0x875 DUP12 PUSH1 0x40 MLOAD SWAP4 DUP5 SWAP4 CALLER SWAP1 DUP6 PUSH2 0x4D06 JUMP JUMPDEST SUB SWAP1 LOG4 DUP8 DUP10 DUP5 DUP7 DUP6 DUP16 DUP16 SWAP1 DUP13 SWAP2 DUP15 DUP14 DUP11 PUSH2 0x58F JUMP JUMPDEST PUSH32 0xF05D33634B730E763D232B482CF835A4481835F62D0A0973B42018A8EAD4F047 SWAP10 PUSH0 DUP1 MLOAD PUSH1 0x20 PUSH2 0x5708 DUP4 CODECOPY DUP2 MLOAD SWAP2 MSTORE SWAP9 DUP16 SWAP5 PUSH2 0x8FA DUP15 DUP6 PUSH2 0x8E8 DUP16 SWAP10 PUSH2 0x927 SWAP9 PUSH2 0x8E1 DUP16 SWAP3 DUP15 DUP2 DUP9 SWAP3 PUSH1 0xA0 SHL SUB SWAP1 SLOAD AND SWAP4 PUSH2 0x4CF9 JUMP JUMPDEST SWAP2 DUP8 PUSH2 0x5538 JUMP JUMPDEST POP DUP11 SLOAD PUSH1 0x1 PUSH1 0x1 PUSH1 0xA0 SHL SUB AND DUP5 PUSH2 0x5538 JUMP JUMPDEST POP DUP7 SLOAD PUSH2 0x915 SWAP1 PUSH1 0x1 PUSH1 0x1 PUSH1 0xA0 SHL SUB AND DUP4 PUSH2 0x80F DUP7 DUP15 PUSH2 0x4CF9 JUMP JUMPDEST POP DUP8 SLOAD PUSH1 0x1 PUSH1 0x1 PUSH1 0xA0 SHL SUB AND SWAP1 PUSH2 0x5538 JUMP JUMPDEST POP DUP13 DUP1 PUSH1 0xA0 SHL SUB SWAP1 SLOAD AND SWAP8 DUP9 SWAP3 DUP14 DUP1 PUSH1 0xA0 SHL SUB SWAP1 SLOAD AND SWAP10 DUP11 SWAP5 DUP15 DUP1 PUSH1 0xA0 SHL SUB SWAP1 SLOAD AND SWAP6 PUSH2 0x95B PUSH1 0x40 MLOAD SWAP3 DUP4 SWAP3 CALLER DUP11 DUP6 PUSH2 0x4D06 JUMP JUMPDEST SUB SWAP1 LOG4 PUSH2 0x970 DUP12 PUSH1 0x40 MLOAD SWAP4 DUP5 SWAP4 CALLER SWAP1 DUP6 PUSH2 0x4D06 JUMP JUMPDEST SUB SWAP1 LOG4 DUP9 DUP6 DUP16 DUP16 SWAP1 DUP16 DUP16 SWAP1 DUP16 SWAP2 DUP14 DUP16 SWAP2 SWAP5 DUP13 SWAP6 DUP16 PUSH2 0x57D JUMP JUMPDEST PUSH1 0x1 SWAP10 PUSH0 DUP1 MLOAD PUSH1 0x20 PUSH2 0x5708 DUP4 CODECOPY DUP2 MLOAD SWAP2 MSTORE SWAP9 PUSH2 0xA03 PUSH2 0xA14 SWAP6 PUSH2 0x9E6 DUP16 PUSH0 DUP1 MLOAD PUSH1 0x20 PUSH2 0x5768 DUP4 CODECOPY DUP2 MLOAD SWAP2 MSTORE SWAP16 SWAP11 PUSH2 0x9D4 DUP14 DUP3 PUSH2 0x633 PUSH2 0xA5C SWAP16 DUP16 SWAP14 DUP2 DUP9 SWAP3 PUSH1 0xA0 SHL SUB SWAP1 SLOAD AND SWAP4 PUSH2 0x4CF9 JUMP JUMPDEST POP DUP6 SLOAD PUSH1 0x1 PUSH1 0x1 PUSH1 0xA0 SHL SUB AND DUP8 PUSH2 0x5538 JUMP JUMPDEST POP SLOAD PUSH1 0x1 PUSH1 0x1 PUSH1 0xA0 SHL SUB AND DUP5 PUSH2 0x9FC DUP8 DUP14 PUSH2 0x4CF9 JUMP JUMPDEST SWAP2 DUP6 PUSH2 0x5538 JUMP JUMPDEST POP SLOAD PUSH1 0x1 PUSH1 0x1 PUSH1 0xA0 SHL SUB AND SWAP1 PUSH2 0x5538 JUMP JUMPDEST POP DUP10 SLOAD DUP13 SLOAD DUP15 SLOAD PUSH1 0x40 MLOAD PUSH1 0x1 PUSH1 0x1 PUSH1 0xA0 SHL SUB SWAP3 DUP4 AND SWAP12 SWAP4 DUP4 AND SWAP11 SWAP2 SWAP1 SWAP3 AND SWAP6 DUP12 SWAP4 DUP12 SWAP4 DUP12 SWAP4 SWAP3 SWAP1 SWAP2 DUP3 SWAP2 PUSH2 0xA4B SWAP2 SWAP1 CALLER DUP13 DUP6 PUSH2 0x4D06 JUMP JUMPDEST SUB SWAP1 LOG4 PUSH1 0x40 MLOAD SWAP4 DUP5 SWAP4 CALLER SWAP1 DUP6 PUSH2 0x4D06 JUMP JUMPDEST SUB SWAP1 LOG4 DUP11 DUP4 DUP11 DUP8 DUP11 DUP11 DUP16 DUP8 SWAP1 DUP16 DUP11 DUP14 SWAP2 PUSH2 0x569 JUMP JUMPDEST PUSH4 0x4E487B71 PUSH1 0xE0 SHL DUP14 MSTORE PUSH1 0x21 PUSH1 0x4 MSTORE PUSH1 0x24 DUP14 REVERT JUMPDEST SWAP1 SWAP8 POP PUSH1 0x20 DUP2 RETURNDATASIZE PUSH1 0x20 GT PUSH2 0xAB5 JUMPI JUMPDEST DUP2 PUSH2 0xAA1 PUSH1 0x20 SWAP4 DUP4 PUSH2 0x49E1 JUMP JUMPDEST DUP2 ADD SUB SLT PUSH2 0xAB1 JUMPI MLOAD SWAP7 PUSH0 PUSH2 0x4EE JUMP JUMPDEST PUSH0 DUP1 REVERT JUMPDEST RETURNDATASIZE SWAP2 POP PUSH2 0xA94 JUMP JUMPDEST PUSH1 0x40 MLOAD RETURNDATASIZE DUP16 DUP3 RETURNDATACOPY RETURNDATASIZE SWAP1 REVERT JUMPDEST SWAP1 SWAP8 POP PUSH1 0x20 DUP2 RETURNDATASIZE PUSH1 0x20 GT PUSH2 0xAF5 JUMPI JUMPDEST DUP2 PUSH2 0xAE4 PUSH1 0x20 SWAP4 DUP4 PUSH2 0x49E1 JUMP JUMPDEST DUP2 ADD SUB SLT PUSH2 0xAB1 JUMPI MLOAD SWAP7 PUSH1 0x20 PUSH2 0x4BC JUMP JUMPDEST RETURNDATASIZE SWAP2 POP PUSH2 0xAD7 JUMP JUMPDEST PUSH1 0x40 MLOAD SWAP1 RETURNDATASIZE SWAP1 DUP3 RETURNDATACOPY RETURNDATASIZE SWAP1 REVERT JUMPDEST PUSH1 0x64 PUSH1 0x40 MLOAD PUSH3 0x461BCD PUSH1 0xE5 SHL DUP2 MSTORE PUSH1 0x20 PUSH1 0x4 DUP3 ADD MSTORE PUSH1 0x4 PUSH1 0x24 DUP3 ADD MSTORE PUSH4 0x22189719 PUSH1 0xE1 SHL PUSH1 0x44 DUP3 ADD MSTORE REVERT JUMPDEST PUSH1 0xFF SWAP2 POP PUSH1 0xA8 SHR AND ISZERO PUSH0 PUSH2 0x42A JUMP JUMPDEST PUSH1 0x40 MLOAD PUSH3 0x461BCD PUSH1 0xE5 SHL DUP2 MSTORE PUSH1 0x20 PUSH1 0x4 DUP3 ADD MSTORE PUSH1 0x2 PUSH1 0x24 DUP3 ADD MSTORE PUSH2 0x2219 PUSH1 0xF1 SHL PUSH1 0x44 DUP3 ADD MSTORE PUSH1 0x64 SWAP1 REVERT JUMPDEST POP PUSH1 0x2 DUP2 ADD SLOAD PUSH1 0x1 PUSH1 0x1 PUSH1 0xA0 SHL SUB AND CALLER EQ PUSH2 0x3FB JUMP JUMPDEST POP DUP1 SLOAD PUSH1 0x1 PUSH1 0x1 PUSH1 0xA0 SHL SUB AND CALLER EQ PUSH2 0x3F4 JUMP JUMPDEST POP CALLVALUE PUSH2 0x27B JUMPI PUSH1 0x20 CALLDATASIZE PUSH1 0x3 NOT ADD SLT PUSH2 0x27B JUMPI PUSH1 0x40 DUP2 PUSH1 0xE0 SWAP3 PUSH1 0xC0 DUP4 MLOAD PUSH2 0xBBB DUP2 PUSH2 0x4978 JUMP JUMPDEST DUP3 DUP2 MSTORE DUP3 PUSH1 0x20 DUP3 ADD MSTORE DUP3 DUP6 DUP3 ADD MSTORE DUP3 PUSH1 0x60 DUP3 ADD MSTORE DUP3 PUSH1 0x80 DUP3 ADD MSTORE DUP3 PUSH1 0xA0 DUP3 ADD MSTORE ADD MSTORE PUSH1 0x4 CALLDATALOAD DUP2 MSTORE PUSH1 0x9 PUSH1 0x20 MSTORE KECCAK256 PUSH1 0x40 MLOAD SWAP1 PUSH2 0xBF5 DUP3 PUSH2 0x4978 JUMP JUMPDEST DUP1 SLOAD DUP3 MSTORE PUSH1 0x2 PUSH1 0x1 DUP3 ADD SLOAD SWAP2 PUSH1 0x20 DUP5 ADD SWAP3 DUP4 MSTORE ADD SLOAD SWAP1 PUSH1 0x40 DUP4 ADD PUSH2 0xC1C PUSH1 0xFF DUP5 AND DUP3 PUSH2 0x4D94 JUMP JUMPDEST PUSH1 0x60 DUP5 ADD PUSH1 0xFF DUP5 PUSH1 0x8 SHR AND ISZERO ISZERO DUP2 MSTORE PUSH2 0xC75 PUSH1 0x80 DUP7 ADD SWAP3 PUSH1 0xFF DUP7 PUSH1 0x10 SHR AND ISZERO ISZERO DUP5 MSTORE PUSH1 0xA0 DUP8 ADD SWAP5 PUSH1 0xFF DUP8 PUSH1 0x18 SHR AND ISZERO ISZERO DUP7 MSTORE PUSH1 0xFF PUSH1 0xC0 DUP10 ADD SWAP8 PUSH1 0x20 SHR AND ISZERO ISZERO DUP8 MSTORE PUSH1 0x40 MLOAD SWAP8 MLOAD DUP9 MSTORE MLOAD PUSH1 0x20 DUP9 ADD MSTORE MLOAD PUSH1 0x40 DUP8 ADD SWAP1 PUSH2 0x481A JUMP JUMPDEST MLOAD ISZERO ISZERO PUSH1 0x60 DUP6 ADD MSTORE MLOAD ISZERO ISZERO PUSH1 0x80 DUP5 ADD MSTORE MLOAD ISZERO ISZERO PUSH1 0xA0 DUP4 ADD MSTORE MLOAD ISZERO ISZERO PUSH1 0xC0 DUP3 ADD MSTORE RETURN JUMPDEST POP CALLVALUE PUSH2 0x27B JUMPI DUP1 PUSH1 0x3 NOT CALLDATASIZE ADD SLT PUSH2 0x27B JUMPI PUSH1 0x20 PUSH1 0x6 SLOAD PUSH1 0x40 MLOAD SWAP1 DUP2 MSTORE RETURN JUMPDEST POP CALLVALUE PUSH2 0x27B JUMPI PUSH1 0x40 CALLDATASIZE PUSH1 0x3 NOT ADD SLT PUSH2 0x27B JUMPI PUSH1 0x4 CALLDATALOAD PUSH2 0xCD2 PUSH2 0x4757 JUMP JUMPDEST DUP2 DUP4 MSTORE PUSH1 0x4 PUSH1 0x20 MSTORE PUSH1 0x40 DUP4 KECCAK256 SWAP1 PUSH1 0x1 DUP3 ADD SWAP1 PUSH1 0x1 DUP1 PUSH1 0xA0 SHL SUB DUP3 SLOAD AND CALLER EQ DUP1 ISZERO PUSH2 0xFD6 JUMPI JUMPDEST PUSH2 0xD00 SWAP1 PUSH2 0x4BE3 JUMP JUMPDEST DUP5 PUSH20 0x0 DUP1 EXTCODESIZE ISZERO PUSH2 0xFD2 JUMPI DUP2 PUSH1 0x40 MLOAD DUP1 SWAP3 PUSH4 0x252A867 PUSH1 0xE5 SHL DUP3 MSTORE DUP2 DUP1 PUSH2 0xD3C DUP11 PUSH1 0x4 DUP4 ADD PUSH2 0x4C14 JUMP JUMPDEST SUB SWAP2 GAS DELEGATECALL DUP1 ISZERO PUSH2 0xFC7 JUMPI PUSH2 0xFAE JUMPI JUMPDEST POP POP PUSH1 0x5 DUP4 ADD SLOAD PUSH1 0x9 DUP5 ADD SLOAD PUSH1 0x6 DUP6 ADD SLOAD PUSH1 0xA DUP7 ADD SLOAD PUSH1 0x7 DUP8 ADD SLOAD PUSH1 0x8 DUP9 ADD SLOAD PUSH1 0x40 MLOAD PUSH4 0x1C8F0847 PUSH1 0xE0 SHL DUP2 MSTORE PUSH1 0x4 DUP2 ADD DUP8 SWAP1 MSTORE PUSH1 0x24 DUP2 ADD SWAP3 SWAP1 SWAP3 MSTORE PUSH1 0x1 PUSH1 0x1 PUSH1 0xA0 SHL SUB SWAP5 DUP6 AND SWAP9 SWAP6 SWAP8 SWAP2 SWAP7 SWAP2 SWAP6 SWAP4 SWAP5 PUSH20 0x0 SWAP5 SWAP4 AND SWAP1 PUSH1 0x20 DUP9 PUSH1 0x44 DUP2 DUP9 GAS DELEGATECALL SWAP8 DUP9 ISZERO PUSH2 0xFA3 JUMPI DUP13 SWAP9 PUSH2 0xF6E JUMPI JUMPDEST POP PUSH1 0x20 SWAP1 PUSH1 0x44 PUSH1 0x40 MLOAD DUP1 SWAP8 DUP2 SWAP4 PUSH4 0x1C8F0847 PUSH1 0xE0 SHL DUP4 MSTORE DUP11 PUSH1 0x4 DUP5 ADD MSTORE PUSH1 0x24 DUP4 ADD MSTORE GAS DELEGATECALL SWAP4 DUP5 ISZERO PUSH2 0xF63 JUMPI DUP11 SWAP12 SWAP11 SWAP10 SWAP11 SWAP5 PUSH2 0xF23 JUMPI JUMPDEST POP DUP3 SLOAD DUP10 SWAP6 SWAP5 SWAP4 SWAP3 SWAP2 DUP5 SWAP2 PUSH1 0x1 PUSH1 0x1 PUSH1 0xA0 SHL SUB AND DUP13 PUSH2 0xE20 DUP12 DUP14 PUSH2 0x4CF9 JUMP JUMPDEST SWAP1 PUSH2 0xE2B SWAP3 DUP7 PUSH2 0x5538 JUMP JUMPDEST POP PUSH1 0x2 DUP5 ADD DUP1 SLOAD SWAP1 SWAP13 PUSH2 0xE4A SWAP2 DUP12 SWAP2 SWAP1 PUSH1 0x1 PUSH1 0x1 PUSH1 0xA0 SHL SUB AND DUP7 PUSH2 0x5538 JUMP JUMPDEST POP DUP8 SLOAD PUSH1 0x1 PUSH1 0x1 PUSH1 0xA0 SHL SUB AND DUP2 PUSH2 0xE61 DUP9 DUP1 PUSH2 0x4CF9 JUMP JUMPDEST SWAP1 PUSH2 0xE6C SWAP3 DUP7 PUSH2 0x5538 JUMP JUMPDEST POP DUP12 SLOAD PUSH2 0xE84 SWAP4 PUSH1 0x1 PUSH1 0x1 PUSH1 0xA0 SHL SUB SWAP1 SWAP2 AND SWAP1 PUSH2 0x5538 JUMP JUMPDEST POP SLOAD SWAP4 SLOAD SWAP8 SLOAD PUSH1 0x40 MLOAD PUSH1 0x1 PUSH1 0x1 PUSH1 0xA0 SHL SUB SWAP10 DUP11 AND SWAP11 SWAP6 DUP11 AND SWAP10 SWAP1 SWAP2 AND SWAP7 DUP11 SWAP7 DUP11 SWAP7 DUP9 SWAP4 DUP9 SWAP4 SWAP2 SWAP3 SWAP1 SWAP2 DUP3 SWAP2 PUSH2 0xEBB SWAP2 CALLER DUP15 DUP6 PUSH2 0x4D06 JUMP JUMPDEST SUB PUSH0 DUP1 MLOAD PUSH1 0x20 PUSH2 0x5768 DUP4 CODECOPY DUP2 MLOAD SWAP2 MSTORE SWAP2 LOG4 PUSH1 0x40 MLOAD SWAP2 DUP3 SWAP2 PUSH2 0xEDE SWAP2 CALLER DUP10 DUP6 PUSH2 0x4D06 JUMP JUMPDEST SUB PUSH0 DUP1 MLOAD PUSH1 0x20 PUSH2 0x5708 DUP4 CODECOPY DUP2 MLOAD SWAP2 MSTORE SWAP2 LOG4 PUSH1 0x40 DUP1 MLOAD PUSH1 0x1 PUSH1 0x1 PUSH1 0xA0 SHL SUB SWAP3 SWAP1 SWAP3 AND DUP3 MSTORE CALLER PUSH1 0x20 DUP4 ADD MSTORE PUSH0 DUP1 MLOAD PUSH1 0x20 PUSH2 0x5728 DUP4 CODECOPY DUP2 MLOAD SWAP2 MSTORE SWAP2 LOG4 PUSH1 0x40 MLOAD PUSH1 0x1 DUP2 MSTORE PUSH1 0x20 SWAP1 RETURN JUMPDEST SWAP5 SWAP4 POP SWAP2 SWAP1 SWAP8 POP PUSH1 0x20 DUP5 RETURNDATASIZE PUSH1 0x20 GT PUSH2 0xF5B JUMPI JUMPDEST DUP2 PUSH2 0xF43 PUSH1 0x20 SWAP4 DUP4 PUSH2 0x49E1 JUMP JUMPDEST DUP2 ADD SUB SLT PUSH2 0xAB1 JUMPI DUP10 SWAP8 DUP9 SWAP5 MLOAD SWAP4 SWAP5 SWAP3 SWAP1 SWAP2 SWAP3 PUSH2 0xE01 JUMP JUMPDEST RETURNDATASIZE SWAP2 POP PUSH2 0xF36 JUMP JUMPDEST PUSH1 0x40 MLOAD RETURNDATASIZE DUP14 DUP3 RETURNDATACOPY RETURNDATASIZE SWAP1 REVERT JUMPDEST SWAP1 SWAP8 POP PUSH1 0x20 DUP2 RETURNDATASIZE PUSH1 0x20 GT PUSH2 0xF9B JUMPI JUMPDEST DUP2 PUSH2 0xF8A PUSH1 0x20 SWAP4 DUP4 PUSH2 0x49E1 JUMP JUMPDEST DUP2 ADD SUB SLT PUSH2 0xAB1 JUMPI MLOAD SWAP7 PUSH1 0x20 PUSH2 0xDCB JUMP JUMPDEST RETURNDATASIZE SWAP2 POP PUSH2 0xF7D JUMP JUMPDEST PUSH1 0x40 MLOAD RETURNDATASIZE DUP15 DUP3 RETURNDATACOPY RETURNDATASIZE SWAP1 REVERT JUMPDEST DUP2 PUSH2 0xFB8 SWAP2 PUSH2 0x49E1 JUMP JUMPDEST PUSH2 0xFC3 JUMPI DUP5 PUSH0 PUSH2 0xD4B JUMP JUMPDEST DUP5 DUP1 REVERT JUMPDEST PUSH1 0x40 MLOAD RETURNDATASIZE DUP5 DUP3 RETURNDATACOPY RETURNDATASIZE SWAP1 REVERT JUMPDEST POP DUP1 REVERT JUMPDEST POP PUSH1 0x2 DUP4 ADD SLOAD PUSH1 0x1 PUSH1 0x1 PUSH1 0xA0 SHL SUB AND CALLER EQ PUSH2 0xCF7 JUMP JUMPDEST POP PUSH2 0xFF6 CALLDATASIZE PUSH2 0x46D5 JUMP JUMPDEST SWAP2 SWAP1 SWAP5 SWAP3 DUP9 SWAP5 DUP11 SWAP9 SWAP8 SWAP11 SWAP5 DUP13 PUSH1 0x40 PUSH1 0xFF DUP3 SLOAD PUSH1 0xA0 SHR AND SWAP2 PUSH2 0x1016 DUP4 PUSH2 0x4916 JUMP JUMPDEST CALLER DUP2 MSTORE PUSH1 0x1 PUSH1 0x20 MSTORE KECCAK256 PUSH1 0x1 DUP1 PUSH1 0xA0 SHL SUB DUP6 AND PUSH0 MSTORE PUSH1 0x20 MSTORE PUSH1 0x40 PUSH0 KECCAK256 SLOAD DUP11 DUP2 LT PUSH2 0x132B JUMPI JUMPDEST POP POP SWAP2 PUSH2 0x1087 SWAP5 SWAP4 SWAP2 PUSH2 0x220 SWAP9 SWAP4 PUSH2 0x1053 DUP12 DUP5 CALLER PUSH2 0x5491 JUMP JUMPDEST POP PUSH1 0x40 MLOAD PUSH4 0x652E83D7 PUSH1 0xE0 SHL DUP2 MSTORE PUSH20 0x0 SWAP15 SWAP1 SWAP12 DUP13 SWAP11 DUP12 SWAP11 CALLER PUSH1 0x4 DUP14 ADD PUSH2 0x4B3D JUMP JUMPDEST SUB DUP2 DUP8 GAS DELEGATECALL SWAP1 DUP2 ISZERO PUSH2 0x12F1 JUMPI DUP6 SWAP2 PUSH2 0x12FC JUMPI JUMPDEST POP PUSH1 0x20 PUSH1 0x5 SLOAD PUSH2 0x244 PUSH1 0x40 MLOAD DUP1 SWAP8 DUP2 SWAP4 PUSH4 0x797D4EE1 PUSH1 0xE0 SHL DUP4 MSTORE PUSH2 0x10C1 PUSH1 0x4 DUP5 ADD DUP9 PUSH2 0x4827 JUMP JUMPDEST PUSH2 0x224 DUP4 ADD MSTORE GAS DELEGATECALL SWAP4 DUP5 ISZERO PUSH2 0x12F1 JUMPI DUP6 SWAP5 PUSH2 0x12BD JUMPI JUMPDEST POP PUSH2 0x10E3 PUSH1 0x5 SLOAD PUSH2 0x4BA9 JUMP JUMPDEST PUSH1 0x5 SSTORE DUP4 DUP6 MSTORE PUSH1 0x4 PUSH1 0x20 SWAP1 DUP2 MSTORE PUSH1 0x40 DUP1 DUP8 KECCAK256 DUP4 MLOAD DUP2 SLOAD PUSH1 0x1 PUSH1 0x1 PUSH1 0xA0 SHL SUB SWAP2 DUP3 AND PUSH1 0x1 PUSH1 0x1 PUSH1 0xA0 SHL SUB NOT SWAP2 DUP3 AND OR DUP4 SSTORE SWAP4 DUP6 ADD MLOAD PUSH1 0x1 DUP4 ADD DUP1 SLOAD SWAP2 DUP4 AND SWAP2 SWAP1 SWAP6 AND OR SWAP1 SWAP4 SSTORE SWAP1 DUP4 ADD MLOAD PUSH1 0x2 DUP3 ADD DUP1 SLOAD PUSH1 0x60 DUP7 ADD MLOAD PUSH1 0xFF PUSH1 0xA0 SHL SWAP1 ISZERO ISZERO PUSH1 0xA0 SHL AND SWAP3 SWAP1 SWAP5 AND PUSH1 0x1 PUSH1 0x1 PUSH1 0xA8 SHL SUB NOT SWAP1 SWAP5 AND SWAP4 SWAP1 SWAP4 OR OR DUP3 SSTORE SWAP2 PUSH2 0x200 SWAP2 PUSH2 0x11BD SWAP1 JUMPDEST PUSH1 0x80 DUP4 ADD MLOAD DUP2 SLOAD PUSH1 0xFF PUSH1 0xA8 SHL NOT AND SWAP1 ISZERO ISZERO PUSH1 0xA8 SHL PUSH1 0xFF PUSH1 0xA8 SHL AND OR DUP2 SSTORE PUSH1 0xA0 DUP4 ADD MLOAD DUP2 SLOAD PUSH1 0xFF PUSH1 0xB0 SHL NOT AND SWAP1 ISZERO ISZERO PUSH1 0xB0 SHL PUSH1 0xFF PUSH1 0xB0 SHL AND OR DUP2 SSTORE PUSH1 0xC0 DUP4 ADD MLOAD DUP2 SLOAD PUSH1 0xFF PUSH1 0xB8 SHL NOT AND SWAP1 ISZERO ISZERO PUSH1 0xB8 SHL PUSH1 0xFF PUSH1 0xB8 SHL AND OR SWAP1 SSTORE JUMP JUMPDEST PUSH1 0xE0 DUP2 ADD MLOAD PUSH1 0x3 DUP5 ADD SSTORE PUSH2 0x100 DUP2 ADD MLOAD PUSH1 0x4 DUP5 ADD SSTORE PUSH2 0x120 DUP2 ADD MLOAD PUSH1 0x5 DUP5 ADD SSTORE PUSH2 0x140 DUP2 ADD MLOAD PUSH1 0x6 DUP1 DUP6 ADD SWAP2 SWAP1 SWAP2 SSTORE PUSH2 0x160 DUP3 ADD MLOAD PUSH1 0x7 DUP6 ADD SSTORE PUSH2 0x180 DUP3 ADD MLOAD PUSH1 0x8 DUP6 ADD SSTORE PUSH2 0x1A0 DUP3 ADD MLOAD PUSH1 0x9 DUP6 ADD DUP1 SLOAD PUSH1 0x1 PUSH1 0x1 PUSH1 0xA0 SHL SUB SWAP3 DUP4 AND PUSH1 0x1 PUSH1 0x1 PUSH1 0xA0 SHL SUB NOT SWAP2 DUP3 AND OR SWAP1 SWAP2 SSTORE PUSH2 0x1C0 DUP5 ADD MLOAD PUSH1 0xA DUP8 ADD DUP1 SLOAD SWAP2 SWAP1 SWAP4 AND SWAP2 AND OR SWAP1 SSTORE PUSH2 0x1E0 DUP3 ADD MLOAD PUSH1 0xB DUP6 ADD SSTORE SWAP2 ADD MLOAD SWAP6 SWAP1 DUP7 LT ISZERO PUSH2 0x12A9 JUMPI POP PUSH1 0x20 SWAP5 PUSH1 0xC PUSH2 0x1265 SWAP3 ADD PUSH2 0x4BCB JUMP JUMPDEST PUSH1 0x40 MLOAD PUSH1 0x1 PUSH1 0x1 PUSH1 0xA0 SHL SUB SWAP3 DUP4 AND DUP2 MSTORE SWAP2 AND SWAP1 CALLER SWAP1 DUP4 SWAP1 PUSH32 0x44E1FF8E67FAD6B456BD43FF165BA4E9BB004370AA27A76881C6ACB60DFD6DD9 SWAP1 DUP7 SWAP1 LOG4 PUSH1 0x40 MLOAD SWAP1 DUP2 MSTORE RETURN JUMPDEST PUSH4 0x4E487B71 PUSH1 0xE0 SHL DUP2 MSTORE PUSH1 0x21 PUSH1 0x4 MSTORE PUSH1 0x24 SWAP1 REVERT JUMPDEST SWAP1 SWAP4 POP PUSH1 0x20 DUP2 RETURNDATASIZE PUSH1 0x20 GT PUSH2 0x12E9 JUMPI JUMPDEST DUP2 PUSH2 0x12D9 PUSH1 0x20 SWAP4 DUP4 PUSH2 0x49E1 JUMP JUMPDEST DUP2 ADD SUB SLT PUSH2 0xAB1 JUMPI MLOAD SWAP3 PUSH0 PUSH2 0x10D7 JUMP JUMPDEST RETURNDATASIZE SWAP2 POP PUSH2 0x12CC JUMP JUMPDEST PUSH1 0x40 MLOAD RETURNDATASIZE DUP8 DUP3 RETURNDATACOPY RETURNDATASIZE SWAP1 REVERT JUMPDEST PUSH2 0x131E SWAP2 POP PUSH2 0x220 RETURNDATASIZE DUP2 GT PUSH2 0x1324 JUMPI JUMPDEST PUSH2 0x1316 DUP2 DUP4 PUSH2 0x49E1 JUMP JUMPDEST DUP2 ADD SWAP1 PUSH2 0x4A24 JUMP JUMPDEST PUSH0 PUSH2 0x109A JUMP JUMPDEST POP RETURNDATASIZE PUSH2 0x130C JUMP JUMPDEST PUSH2 0x1348 SWAP3 SWAP10 SWAP5 SWAP7 SWAP6 SWAP4 SWAP9 POP PUSH2 0x1342 SWAP2 SWAP8 POP DUP11 PUSH2 0x4CF9 JUMP JUMPDEST SWAP6 PUSH2 0x4916 JUMP JUMPDEST PUSH2 0x1353 DUP6 ISZERO ISZERO PUSH2 0x4E02 JUMP JUMPDEST PUSH1 0x2 SLOAD SWAP4 PUSH1 0x40 MLOAD SWAP5 PUSH4 0x1C8F0847 PUSH1 0xE0 SHL DUP7 MSTORE DUP7 PUSH1 0x4 DUP8 ADD MSTORE PUSH1 0x24 DUP7 ADD MSTORE PUSH1 0x20 DUP6 PUSH1 0x44 DUP2 PUSH20 0x0 GAS DELEGATECALL SWAP5 DUP6 ISZERO PUSH2 0xABD JUMPI DUP14 SWAP6 PUSH2 0x152C JUMPI JUMPDEST POP PUSH1 0x1 PUSH1 0x1 PUSH1 0xA0 SHL SUB DUP2 AND SWAP7 DUP8 PUSH2 0x1444 JUMPI PUSH2 0x13B6 DUP7 DUP9 PUSH2 0x4E9B JUMP JUMPDEST CALLVALUE SUB PUSH2 0x141A JUMPI PUSH2 0x220 SWAP9 DUP13 SWAP9 DUP9 PUSH2 0x1087 SWAP9 PUSH2 0x13D3 DUP16 SWAP12 DUP8 CALLER PUSH2 0x5556 JUMP JUMPDEST POP PUSH1 0x3 SLOAD PUSH2 0x13ED SWAP1 DUP3 SWAP1 DUP9 SWAP1 PUSH1 0x1 PUSH1 0x1 PUSH1 0xA0 SHL SUB AND PUSH2 0x5556 JUMP JUMPDEST POP JUMPDEST PUSH1 0x40 MLOAD SWAP2 DUP3 MSTORE PUSH1 0x20 DUP3 ADD MSTORE PUSH0 DUP1 MLOAD PUSH1 0x20 PUSH2 0x5788 DUP4 CODECOPY DUP2 MLOAD SWAP2 MSTORE PUSH1 0x40 CALLER SWAP3 LOG3 SWAP2 SWAP4 SWAP9 DUP2 SWAP4 SWAP6 SWAP7 POP PUSH2 0x103A JUMP JUMPDEST PUSH1 0x40 MLOAD PUSH3 0x461BCD PUSH1 0xE5 SHL DUP2 MSTORE PUSH1 0x20 PUSH1 0x4 DUP3 ADD MSTORE PUSH1 0x2 PUSH1 0x24 DUP3 ADD MSTORE PUSH2 0x10CD PUSH1 0xF2 SHL PUSH1 0x44 DUP3 ADD MSTORE PUSH1 0x64 SWAP1 REVERT JUMPDEST DUP14 DUP1 PUSH1 0x20 DUP11 PUSH1 0x64 PUSH2 0x1455 DUP12 DUP14 PUSH2 0x4E9B JUMP JUMPDEST PUSH1 0x40 MLOAD SWAP5 DUP6 SWAP4 DUP5 SWAP3 PUSH4 0x23B872DD PUSH1 0xE0 SHL DUP5 MSTORE CALLER PUSH1 0x4 DUP6 ADD MSTORE ADDRESS PUSH1 0x24 DUP6 ADD MSTORE PUSH1 0x44 DUP5 ADD MSTORE GAS CALL SWAP2 DUP3 ISZERO PUSH2 0xAFD JUMPI SWAP2 PUSH2 0x14EE JUMPI JUMPDEST POP ISZERO PUSH2 0x14C4 JUMPI PUSH2 0x220 SWAP9 DUP13 SWAP9 DUP9 PUSH2 0x1087 SWAP9 PUSH2 0x14A4 DUP16 SWAP12 DUP8 CALLER PUSH2 0x5556 JUMP JUMPDEST POP PUSH1 0x3 SLOAD PUSH2 0x14BE SWAP1 DUP3 SWAP1 DUP9 SWAP1 PUSH1 0x1 PUSH1 0x1 PUSH1 0xA0 SHL SUB AND PUSH2 0x5556 JUMP JUMPDEST POP PUSH2 0x13EF JUMP JUMPDEST PUSH1 0x40 MLOAD PUSH3 0x461BCD PUSH1 0xE5 SHL DUP2 MSTORE PUSH1 0x20 PUSH1 0x4 DUP3 ADD MSTORE PUSH1 0x2 PUSH1 0x24 DUP3 ADD MSTORE PUSH2 0x2A19 PUSH1 0xF1 SHL PUSH1 0x44 DUP3 ADD MSTORE PUSH1 0x64 SWAP1 REVERT JUMPDEST SWAP1 POP PUSH1 0x20 DUP2 RETURNDATASIZE PUSH1 0x20 GT PUSH2 0x1524 JUMPI JUMPDEST DUP2 PUSH2 0x1509 PUSH1 0x20 SWAP4 DUP4 PUSH2 0x49E1 JUMP JUMPDEST DUP2 ADD SUB SLT PUSH2 0x1520 JUMPI PUSH2 0x151A SWAP1 PUSH2 0x4A17 JUMP JUMPDEST PUSH0 PUSH2 0x1487 JUMP JUMPDEST DUP15 DUP1 REVERT JUMPDEST RETURNDATASIZE SWAP2 POP PUSH2 0x14FC JUMP JUMPDEST SWAP1 SWAP5 POP PUSH1 0x20 DUP2 RETURNDATASIZE PUSH1 0x20 GT PUSH2 0x1558 JUMPI JUMPDEST DUP2 PUSH2 0x1548 PUSH1 0x20 SWAP4 DUP4 PUSH2 0x49E1 JUMP JUMPDEST DUP2 ADD SUB SLT PUSH2 0xAB1 JUMPI MLOAD SWAP4 PUSH0 PUSH2 0x139B JUMP JUMPDEST RETURNDATASIZE SWAP2 POP PUSH2 0x153B JUMP JUMPDEST POP CALLVALUE PUSH2 0x27B JUMPI PUSH1 0x40 CALLDATASIZE PUSH1 0x3 NOT ADD SLT PUSH2 0x27B JUMPI PUSH1 0x20 SWAP1 PUSH1 0x4 CALLDATALOAD PUSH2 0x1580 PUSH2 0x46A9 JUMP JUMPDEST SWAP1 DUP1 DUP4 MSTORE PUSH1 0x4 DUP5 MSTORE PUSH2 0x15D4 PUSH1 0x40 DUP5 KECCAK256 SWAP3 PUSH1 0x1 DUP1 PUSH1 0xA0 SHL SUB DUP5 SLOAD AND CALLER EQ DUP1 ISZERO PUSH2 0x16C7 JUMPI JUMPDEST PUSH2 0x15AC SWAP1 PUSH2 0x4BE3 JUMP JUMPDEST PUSH1 0x1 PUSH1 0x1 PUSH1 0xA0 SHL SUB AND SWAP3 PUSH2 0x15C1 DUP5 ISZERO ISZERO PUSH2 0x4DD1 JUMP JUMPDEST PUSH1 0x2 ADD SLOAD PUSH1 0x1 PUSH1 0x1 PUSH1 0xA0 SHL SUB AND ISZERO PUSH2 0x4F3D JUMP JUMPDEST PUSH2 0x1687 PUSH1 0x40 MLOAD PUSH2 0x15E3 DUP2 PUSH2 0x49C5 JUMP JUMPDEST DUP3 DUP2 MSTORE DUP6 DUP2 ADD DUP5 DUP2 MSTORE PUSH1 0x40 DUP1 DUP4 ADD DUP8 DUP2 MSTORE PUSH1 0x60 DUP5 ADD DUP9 DUP2 MSTORE PUSH1 0x80 DUP6 ADD DUP10 DUP2 MSTORE PUSH1 0x8 SLOAD DUP1 DUP12 MSTORE PUSH1 0xA DUP13 MSTORE SWAP4 SWAP1 SWAP10 KECCAK256 SWAP5 MLOAD DUP6 SSTORE SWAP3 MLOAD PUSH1 0x1 SWAP5 SWAP1 SWAP5 ADD DUP1 SLOAD SWAP2 MLOAD PUSH1 0x1 PUSH1 0x1 PUSH1 0xA8 SHL SUB NOT SWAP1 SWAP3 AND PUSH1 0x1 PUSH1 0x1 PUSH1 0xA0 SHL SUB SWAP6 SWAP1 SWAP6 AND SWAP5 SWAP1 SWAP5 OR SWAP1 ISZERO ISZERO PUSH1 0xA0 SHL PUSH1 0xFF PUSH1 0xA0 SHL AND OR DUP4 SSTORE SWAP6 SWAP1 PUSH2 0x166C SWAP1 MLOAD DUP4 SLOAD PUSH1 0xFF PUSH1 0xA8 SHL NOT AND SWAP1 ISZERO ISZERO PUSH1 0xA8 SHL PUSH1 0xFF PUSH1 0xA8 SHL AND OR DUP4 SSTORE JUMP JUMPDEST MLOAD DUP2 SLOAD PUSH1 0xFF PUSH1 0xB0 SHL NOT AND SWAP1 ISZERO ISZERO PUSH1 0xB0 SHL PUSH1 0xFF PUSH1 0xB0 SHL AND OR SWAP1 SSTORE JUMP JUMPDEST PUSH2 0x1692 PUSH1 0x8 SLOAD PUSH2 0x4BA9 JUMP JUMPDEST PUSH1 0x8 SSTORE DUP3 PUSH32 0x3E168088DA33D5AB18321345A864B58812F451C892EE951F8F70B5BEAD045B69 DUP6 PUSH1 0x40 MLOAD CALLER DUP2 MSTORE LOG4 PUSH1 0x40 MLOAD SWAP1 DUP2 MSTORE RETURN JUMPDEST POP PUSH1 0x1 DUP5 ADD SLOAD PUSH1 0x1 PUSH1 0x1 PUSH1 0xA0 SHL SUB AND CALLER EQ PUSH2 0x15A3 JUMP JUMPDEST POP CALLVALUE PUSH2 0x27B JUMPI PUSH2 0x16EC CALLDATASIZE PUSH2 0x4766 JUMP JUMPDEST SWAP3 DUP3 DUP2 SWAP4 SWAP3 SWAP4 MSTORE PUSH1 0x4 PUSH1 0x20 MSTORE PUSH1 0x40 DUP2 KECCAK256 SWAP3 PUSH1 0x1 DUP1 PUSH1 0xA0 SHL SUB DUP5 SLOAD AND CALLER EQ DUP1 ISZERO PUSH2 0x18AF JUMPI JUMPDEST PUSH2 0x1719 SWAP1 PUSH2 0x4BE3 JUMP JUMPDEST PUSH20 0x0 DUP1 EXTCODESIZE ISZERO PUSH2 0x18AB JUMPI DUP3 PUSH1 0x40 MLOAD DUP1 SWAP3 PUSH4 0x252A867 PUSH1 0xE5 SHL DUP3 MSTORE DUP2 DUP1 PUSH2 0x1754 DUP11 PUSH1 0x4 DUP4 ADD PUSH2 0x4C14 JUMP JUMPDEST SUB SWAP2 GAS DELEGATECALL DUP1 ISZERO PUSH2 0x18A0 JUMPI SWAP1 DUP4 SWAP2 PUSH2 0x188B JUMPI JUMPDEST POP POP PUSH1 0x6 DUP5 ADD PUSH2 0x1782 DUP3 DUP3 SLOAD PUSH2 0x177D DUP3 DUP3 LT PUSH2 0x4947 JUMP JUMPDEST PUSH2 0x4CF9 JUMP JUMPDEST SWAP1 SSTORE PUSH1 0x1 DUP1 PUSH1 0xA0 SHL SUB PUSH1 0xA DUP6 ADD SLOAD AND SWAP4 PUSH1 0x8 DUP2 ADD SLOAD PUSH1 0x40 MLOAD SWAP1 PUSH4 0x1C8F0847 PUSH1 0xE0 SHL DUP3 MSTORE DUP4 PUSH1 0x4 DUP4 ADD MSTORE PUSH1 0x24 DUP3 ADD MSTORE PUSH1 0x20 DUP2 PUSH1 0x44 DUP2 PUSH20 0x0 GAS DELEGATECALL SWAP4 DUP5 ISZERO PUSH2 0xAFD JUMPI SWAP4 PUSH2 0x1855 JUMPI JUMPDEST POP SWAP2 PUSH2 0x5FD DUP4 PUSH2 0x182C DUP4 PUSH1 0x1 PUSH0 DUP1 MLOAD PUSH1 0x20 PUSH2 0x5708 DUP4 CODECOPY DUP2 MLOAD SWAP2 MSTORE SWAP8 ADD SWAP9 PUSH2 0x1816 DUP12 DUP3 PUSH1 0x1 DUP1 PUSH1 0xA0 SHL SUB DUP14 SLOAD AND PUSH2 0x1810 DUP7 DUP13 PUSH2 0x4CF9 JUMP JUMPDEST SWAP3 PUSH2 0x5538 JUMP JUMPDEST POP PUSH1 0x2 DUP5 ADD SWAP11 PUSH1 0x1 DUP1 PUSH1 0xA0 SHL SUB DUP13 SLOAD AND SWAP1 PUSH2 0x5538 JUMP JUMPDEST POP SLOAD SWAP6 SLOAD SWAP7 SLOAD PUSH1 0x40 MLOAD PUSH1 0x1 PUSH1 0x1 PUSH1 0xA0 SHL SUB SWAP9 DUP10 AND SWAP9 SWAP8 DUP9 AND SWAP8 SWAP1 SWAP5 DUP6 SWAP5 SWAP3 SWAP1 SWAP2 CALLER SWAP2 AND DUP6 PUSH2 0x4D06 JUMP JUMPDEST SWAP3 POP PUSH1 0x20 DUP4 RETURNDATASIZE PUSH1 0x20 GT PUSH2 0x1883 JUMPI JUMPDEST DUP2 PUSH2 0x1870 PUSH1 0x20 SWAP4 DUP4 PUSH2 0x49E1 JUMP JUMPDEST DUP2 ADD SUB SLT PUSH2 0xAB1 JUMPI SWAP2 MLOAD SWAP2 PUSH2 0x5FD PUSH2 0x17DA JUMP JUMPDEST RETURNDATASIZE SWAP2 POP PUSH2 0x1863 JUMP JUMPDEST DUP2 PUSH2 0x1895 SWAP2 PUSH2 0x49E1 JUMP JUMPDEST PUSH2 0xFD2 JUMPI DUP2 PUSH0 PUSH2 0x1766 JUMP JUMPDEST PUSH1 0x40 MLOAD RETURNDATASIZE DUP6 DUP3 RETURNDATACOPY RETURNDATASIZE SWAP1 REVERT JUMPDEST DUP3 DUP1 REVERT JUMPDEST POP PUSH1 0x2 DUP5 ADD SLOAD PUSH1 0x1 PUSH1 0x1 PUSH1 0xA0 SHL SUB AND CALLER EQ PUSH2 0x1710 JUMP JUMPDEST POP CALLVALUE PUSH2 0x27B JUMPI PUSH1 0x40 CALLDATASIZE PUSH1 0x3 NOT ADD SLT PUSH2 0x27B JUMPI PUSH1 0x40 PUSH2 0x244 PUSH2 0x46BF JUMP JUMPDEST POP CALLVALUE PUSH2 0x27B JUMPI PUSH1 0x20 CALLDATASIZE PUSH1 0x3 NOT ADD SLT PUSH2 0x27B JUMPI PUSH1 0x40 PUSH1 0xE0 SWAP2 PUSH1 0x4 CALLDATALOAD DUP2 MSTORE PUSH1 0x9 PUSH1 0x20 MSTORE KECCAK256 PUSH1 0xFF DUP2 SLOAD SWAP2 PUSH1 0x2 PUSH1 0x1 DUP3 ADD SLOAD SWAP2 ADD SLOAD SWAP1 PUSH1 0x40 MLOAD SWAP4 DUP5 MSTORE PUSH1 0x20 DUP5 ADD MSTORE PUSH2 0x192D PUSH1 0x40 DUP5 ADD DUP4 DUP4 AND PUSH2 0x481A JUMP JUMPDEST DUP2 DUP2 PUSH1 0x8 SHR AND ISZERO ISZERO PUSH1 0x60 DUP5 ADD MSTORE DUP2 DUP2 PUSH1 0x10 SHR AND ISZERO ISZERO PUSH1 0x80 DUP5 ADD MSTORE DUP2 DUP2 PUSH1 0x18 SHR AND ISZERO ISZERO PUSH1 0xA0 DUP5 ADD MSTORE PUSH1 0x20 SHR AND ISZERO ISZERO PUSH1 0xC0 DUP3 ADD MSTORE RETURN JUMPDEST POP CALLVALUE PUSH2 0x27B JUMPI PUSH1 0x60 CALLDATASIZE PUSH1 0x3 NOT ADD SLT PUSH2 0x27B JUMPI PUSH2 0x197B PUSH2 0x46BF JUMP JUMPDEST SWAP1 PUSH2 0x1984 PUSH2 0x46A9 JUMP JUMPDEST PUSH1 0x40 PUSH1 0x44 CALLDATALOAD SWAP4 CALLER DUP5 MSTORE PUSH1 0x1 PUSH1 0x20 MSTORE DUP2 DUP5 KECCAK256 PUSH1 0x1 DUP1 PUSH1 0xA0 SHL SUB DUP5 AND PUSH0 MSTORE PUSH1 0x20 MSTORE PUSH2 0x19B2 DUP6 DUP4 PUSH0 KECCAK256 SLOAD LT ISZERO PUSH2 0x4947 JUMP JUMPDEST CALLER DUP5 MSTORE PUSH1 0x1 PUSH1 0x20 MSTORE DUP2 DUP5 KECCAK256 PUSH1 0x1 DUP1 PUSH1 0xA0 SHL SUB DUP5 AND PUSH0 MSTORE PUSH1 0x20 MSTORE DUP2 PUSH0 KECCAK256 PUSH2 0x19D9 DUP7 DUP3 SLOAD PUSH2 0x4CF9 JUMP JUMPDEST SWAP1 SSTORE PUSH1 0x1 DUP1 PUSH1 0xA0 SHL SUB AND SWAP3 DUP4 DUP2 MSTORE PUSH1 0x1 PUSH1 0x20 MSTORE KECCAK256 PUSH1 0x1 DUP1 PUSH1 0xA0 SHL SUB DUP3 AND PUSH0 MSTORE PUSH1 0x20 MSTORE PUSH1 0x40 PUSH0 KECCAK256 PUSH2 0x1A0A DUP5 DUP3 SLOAD PUSH2 0x4E9B JUMP JUMPDEST SWAP1 SSTORE PUSH1 0x40 MLOAD SWAP3 DUP4 MSTORE PUSH1 0x1 PUSH1 0x1 PUSH1 0xA0 SHL SUB AND SWAP2 CALLER SWAP1 PUSH32 0xD1398BEE19313D6BF672CCB116E51F4A1A947E91C757907F51FBB5B5E56C698F SWAP1 PUSH1 0x20 SWAP1 LOG4 PUSH1 0x20 PUSH1 0x40 MLOAD PUSH1 0x1 DUP2 MSTORE RETURN JUMPDEST POP PUSH1 0x20 CALLDATASIZE PUSH1 0x3 NOT ADD SLT PUSH2 0x27B JUMPI PUSH1 0x4 CALLDATALOAD DUP1 DUP3 MSTORE PUSH1 0x4 PUSH1 0x20 MSTORE PUSH1 0x40 DUP3 KECCAK256 SWAP2 PUSH1 0x1 DUP4 ADD SWAP3 PUSH2 0x1A85 PUSH1 0x1 DUP1 PUSH1 0xA0 SHL SUB DUP6 SLOAD AND CALLER EQ PUSH2 0x4BE3 JUMP JUMPDEST PUSH1 0x2 DUP2 ADD SWAP2 PUSH2 0x1AC2 DUP4 SLOAD PUSH2 0x1A9E PUSH1 0xFF DUP3 PUSH1 0xB0 SHR AND PUSH2 0x4EA8 JUMP JUMPDEST PUSH2 0x1AAE PUSH1 0xFF DUP3 PUSH1 0xB8 SHR AND ISZERO PUSH2 0x4EDA JUMP JUMPDEST PUSH1 0xFF DUP2 PUSH1 0xA0 SHR AND ISZERO SWAP1 DUP2 PUSH2 0xB34 JUMPI POP PUSH2 0x4F0C JUMP JUMPDEST PUSH1 0xA DUP3 ADD DUP1 SLOAD CALLER PUSH0 SWAP1 DUP2 MSTORE PUSH1 0x1 PUSH1 0x20 SWAP1 DUP2 MSTORE PUSH1 0x40 DUP1 DUP4 KECCAK256 PUSH1 0x1 PUSH1 0x1 PUSH1 0xA0 SHL SUB SWAP1 SWAP5 AND DUP1 DUP5 MSTORE SWAP4 SWAP1 SWAP2 MSTORE SWAP1 KECCAK256 SLOAD PUSH1 0x6 DUP6 ADD SLOAD DUP2 LT PUSH2 0x1BB3 JUMPI JUMPDEST POP POP SLOAD PUSH1 0x4 DUP4 ADD SLOAD PUSH2 0x1B17 SWAP3 POP SWAP1 PUSH1 0x1 PUSH1 0x1 PUSH1 0xA0 SHL SUB AND CALLER PUSH2 0x5491 JUMP JUMPDEST POP DUP2 SLOAD PUSH1 0x1 PUSH1 0xB8 SHL PUSH1 0xFF PUSH1 0xB8 SHL NOT DUP3 AND OR SWAP1 SWAP3 SSTORE SLOAD SWAP3 SLOAD PUSH1 0x40 MLOAD PUSH1 0x1 PUSH1 0x1 PUSH1 0xA0 SHL SUB SWAP3 DUP4 AND DUP1 DUP3 MSTORE SWAP5 SWAP2 DUP4 AND SWAP3 SWAP1 SWAP2 AND SWAP1 DUP4 SWAP1 PUSH32 0x5E02698C1650D6CBE1F7E8A48609D0DA45AD7F5E4C13CD8B196F82965C0AB0D5 SWAP1 PUSH1 0x20 SWAP1 LOG4 DUP2 PUSH2 0x1B81 JUMPI JUMPDEST PUSH1 0x20 PUSH1 0x40 MLOAD PUSH1 0x1 DUP2 MSTORE RETURN JUMPDEST PUSH1 0x20 PUSH32 0x957372C0E02D2882134CC0EEBBEF9E446634D8CCBB1CBB112BDEFDD3CF0A643C SWAP2 PUSH1 0x40 MLOAD SWAP1 DUP2 MSTORE LOG2 PUSH0 DUP1 PUSH2 0x1B76 JUMP JUMPDEST PUSH2 0x1BC1 SWAP1 PUSH1 0x4 DUP7 ADD SLOAD PUSH2 0x4CF9 JUMP JUMPDEST PUSH2 0x1BD1 PUSH1 0xFF DUP6 SLOAD PUSH1 0xA0 SHR AND PUSH2 0x4916 JUMP JUMPDEST PUSH2 0x1BDC DUP2 ISZERO ISZERO PUSH2 0x4E02 JUMP JUMPDEST PUSH1 0x2 SLOAD SWAP4 PUSH1 0x40 MLOAD SWAP5 PUSH4 0x1C8F0847 PUSH1 0xE0 SHL DUP7 MSTORE DUP3 PUSH1 0x4 DUP8 ADD MSTORE PUSH1 0x24 DUP7 ADD MSTORE PUSH1 0x20 DUP6 PUSH1 0x44 DUP2 PUSH20 0x0 GAS DELEGATECALL SWAP5 DUP6 ISZERO PUSH2 0x1D73 JUMPI DUP2 SWAP6 PUSH2 0x1D3F JUMPI JUMPDEST POP DUP3 PUSH2 0x1C8B JUMPI POP PUSH2 0x1C35 DUP5 DUP3 PUSH2 0x4E9B JUMP JUMPDEST CALLVALUE SUB PUSH2 0x141A JUMPI PUSH2 0x1B17 SWAP4 PUSH2 0x1C4A DUP3 DUP5 CALLER PUSH2 0x5556 JUMP JUMPDEST POP PUSH1 0x3 SLOAD PUSH2 0x1C64 SWAP1 DUP3 SWAP1 DUP6 SWAP1 PUSH1 0x1 PUSH1 0x1 PUSH1 0xA0 SHL SUB AND PUSH2 0x5556 JUMP JUMPDEST POP JUMPDEST PUSH1 0x40 MLOAD SWAP2 DUP3 MSTORE PUSH1 0x20 DUP3 ADD MSTORE PUSH0 DUP1 MLOAD PUSH1 0x20 PUSH2 0x5788 DUP4 CODECOPY DUP2 MLOAD SWAP2 MSTORE PUSH1 0x40 CALLER SWAP3 LOG3 PUSH0 DUP1 PUSH2 0x1AFA JUMP JUMPDEST PUSH2 0x1C95 DUP6 DUP4 PUSH2 0x4E9B JUMP JUMPDEST PUSH1 0x40 MLOAD SWAP1 PUSH4 0x23B872DD PUSH1 0xE0 SHL DUP3 MSTORE CALLER PUSH1 0x4 DUP4 ADD MSTORE ADDRESS PUSH1 0x24 DUP4 ADD MSTORE PUSH1 0x44 DUP3 ADD MSTORE PUSH1 0x20 DUP2 PUSH1 0x64 DUP2 DUP6 DUP9 GAS CALL SWAP2 DUP3 ISZERO PUSH2 0xAFD JUMPI DUP1 SWAP3 PUSH2 0x1D02 JUMPI JUMPDEST POP POP ISZERO PUSH2 0x14C4 JUMPI PUSH2 0x1B17 SWAP4 PUSH2 0x1CE2 DUP3 DUP5 CALLER PUSH2 0x5556 JUMP JUMPDEST POP PUSH1 0x3 SLOAD PUSH2 0x1CFC SWAP1 DUP3 SWAP1 DUP6 SWAP1 PUSH1 0x1 PUSH1 0x1 PUSH1 0xA0 SHL SUB AND PUSH2 0x5556 JUMP JUMPDEST POP PUSH2 0x1C66 JUMP JUMPDEST SWAP1 SWAP2 POP PUSH1 0x20 DUP3 RETURNDATASIZE PUSH1 0x20 GT PUSH2 0x1D37 JUMPI JUMPDEST DUP2 PUSH2 0x1D1E PUSH1 0x20 SWAP4 DUP4 PUSH2 0x49E1 JUMP JUMPDEST DUP2 ADD SUB SLT PUSH2 0x27B JUMPI POP PUSH2 0x1D30 SWAP1 PUSH2 0x4A17 JUMP JUMPDEST PUSH0 DUP1 PUSH2 0x1CCC JUMP JUMPDEST RETURNDATASIZE SWAP2 POP PUSH2 0x1D11 JUMP JUMPDEST SWAP1 SWAP5 POP PUSH1 0x20 DUP2 RETURNDATASIZE PUSH1 0x20 GT PUSH2 0x1D6B JUMPI JUMPDEST DUP2 PUSH2 0x1D5B PUSH1 0x20 SWAP4 DUP4 PUSH2 0x49E1 JUMP JUMPDEST DUP2 ADD SUB SLT PUSH2 0xAB1 JUMPI MLOAD SWAP4 PUSH0 PUSH2 0x1C24 JUMP JUMPDEST RETURNDATASIZE SWAP2 POP PUSH2 0x1D4E JUMP JUMPDEST POP PUSH1 0x40 MLOAD SWAP1 RETURNDATASIZE SWAP1 DUP3 RETURNDATACOPY RETURNDATASIZE SWAP1 REVERT JUMPDEST POP CALLVALUE PUSH2 0x27B JUMPI PUSH1 0x20 CALLDATASIZE PUSH1 0x3 NOT ADD SLT PUSH2 0x27B JUMPI PUSH1 0x40 DUP2 PUSH1 0xA0 SWAP3 PUSH1 0x80 DUP4 MLOAD PUSH2 0x1DA5 DUP2 PUSH2 0x49C5 JUMP JUMPDEST DUP3 DUP2 MSTORE DUP3 PUSH1 0x20 DUP3 ADD MSTORE DUP3 DUP6 DUP3 ADD MSTORE DUP3 PUSH1 0x60 DUP3 ADD MSTORE ADD MSTORE PUSH1 0x4 CALLDATALOAD DUP2 MSTORE PUSH1 0xA PUSH1 0x20 MSTORE KECCAK256 PUSH1 0x40 MLOAD PUSH2 0x1DD2 DUP2 PUSH2 0x49C5 JUMP JUMPDEST PUSH1 0x1 DUP3 SLOAD SWAP3 DUP4 DUP4 MSTORE ADD SLOAD SWAP1 PUSH1 0x20 DUP2 ADD PUSH1 0x1 DUP1 DUP7 SHL SUB DUP4 AND DUP2 MSTORE PUSH1 0x40 DUP3 ADD SWAP1 PUSH1 0xFF DUP5 DUP8 SHR AND ISZERO ISZERO DUP3 MSTORE PUSH1 0xFF PUSH1 0x80 PUSH1 0x60 DUP6 ADD SWAP5 DUP3 DUP8 PUSH1 0xA8 SHR AND ISZERO ISZERO DUP7 MSTORE ADD SWAP5 PUSH1 0xB0 SHR AND ISZERO ISZERO DUP5 MSTORE PUSH1 0x40 MLOAD SWAP5 DUP6 MSTORE PUSH1 0x1 DUP1 DUP8 SHL SUB SWAP1 MLOAD AND PUSH1 0x20 DUP6 ADD MSTORE MLOAD ISZERO ISZERO PUSH1 0x40 DUP5 ADD MSTORE MLOAD ISZERO ISZERO PUSH1 0x60 DUP4 ADD MSTORE MLOAD ISZERO ISZERO PUSH1 0x80 DUP3 ADD MSTORE RETURN JUMPDEST POP PUSH2 0x1E4F CALLDATASIZE PUSH2 0x4766 JUMP JUMPDEST DUP3 DUP5 SWAP4 SWAP3 SWAP4 MSTORE PUSH1 0x4 PUSH1 0x20 MSTORE PUSH1 0x40 DUP5 KECCAK256 SWAP4 PUSH2 0x1E73 PUSH1 0x1 DUP1 PUSH1 0xA0 SHL SUB DUP7 SLOAD AND CALLER EQ PUSH2 0x4BE3 JUMP JUMPDEST PUSH20 0x0 DUP1 EXTCODESIZE ISZERO PUSH2 0xFD2 JUMPI DUP2 PUSH1 0x40 MLOAD DUP1 SWAP3 PUSH4 0x252A867 PUSH1 0xE5 SHL DUP3 MSTORE DUP2 DUP1 PUSH2 0x1EAE DUP12 PUSH1 0x4 DUP4 ADD PUSH2 0x4C14 JUMP JUMPDEST SUB SWAP2 GAS DELEGATECALL DUP1 ISZERO PUSH2 0xFC7 JUMPI SWAP1 DUP6 SWAP3 SWAP2 PUSH2 0x215A JUMPI JUMPDEST POP PUSH1 0x9 DUP7 ADD DUP1 SLOAD CALLER PUSH0 SWAP1 DUP2 MSTORE PUSH1 0x1 PUSH1 0x20 SWAP1 DUP2 MSTORE PUSH1 0x40 DUP1 DUP4 KECCAK256 PUSH1 0x1 PUSH1 0x1 PUSH1 0xA0 SHL SUB SWAP1 SWAP5 AND DUP1 DUP5 MSTORE SWAP4 SWAP1 SWAP2 MSTORE SWAP1 KECCAK256 SLOAD SWAP2 SWAP3 SWAP1 SWAP2 SWAP5 ISZERO PUSH2 0x1F83 JUMPI POP POP PUSH2 0x1F09 DUP3 PUSH2 0x1F19 SWAP5 LT ISZERO PUSH2 0x4947 JUMP JUMPDEST SLOAD PUSH1 0x1 PUSH1 0x1 PUSH1 0xA0 SHL SUB AND CALLER PUSH2 0x5491 JUMP JUMPDEST POP PUSH1 0x5 DUP4 ADD PUSH2 0x1F29 DUP4 DUP3 SLOAD PUSH2 0x4E9B JUMP JUMPDEST SWAP1 SSTORE DUP3 SLOAD PUSH1 0x1 DUP5 ADD SLOAD PUSH1 0x2 SWAP1 SWAP5 ADD SLOAD PUSH1 0x40 DUP1 MLOAD PUSH1 0x1 PUSH1 0x1 PUSH1 0xA0 SHL SUB SWAP3 DUP4 AND DUP2 MSTORE PUSH1 0x20 DUP2 ADD SWAP6 SWAP1 SWAP6 MSTORE SWAP5 DUP2 AND SWAP5 SWAP2 AND SWAP3 PUSH32 0x3C0DD30126238EAEBBB306E073222EECD03A091D41C39A4B2742759D406C8F55 SWAP2 DUP2 SWAP1 DUP2 ADD PUSH2 0x5FD JUMP JUMPDEST SWAP1 SWAP4 DUP4 DUP2 LT PUSH2 0x1F99 JUMPI JUMPDEST POP POP PUSH2 0x1F19 SWAP3 POP PUSH2 0x1F09 JUMP JUMPDEST PUSH2 0x1FA3 SWAP2 SWAP4 PUSH2 0x4CF9 JUMP JUMPDEST SWAP3 PUSH2 0x1FB4 PUSH1 0xFF DUP5 SLOAD PUSH1 0xA0 SHR AND PUSH2 0x4916 JUMP JUMPDEST PUSH2 0x1FBF DUP5 ISZERO ISZERO PUSH2 0x4E02 JUMP JUMPDEST PUSH1 0x2 SLOAD SWAP3 PUSH1 0x40 MLOAD SWAP4 PUSH4 0x1C8F0847 PUSH1 0xE0 SHL DUP6 MSTORE DUP6 PUSH1 0x4 DUP7 ADD MSTORE PUSH1 0x24 DUP6 ADD MSTORE PUSH1 0x20 DUP5 PUSH1 0x44 DUP2 PUSH20 0x0 GAS DELEGATECALL SWAP4 DUP5 ISZERO PUSH2 0x1D73 JUMPI DUP2 SWAP5 PUSH2 0x2126 JUMPI JUMPDEST POP DUP2 PUSH2 0x2070 JUMPI POP PUSH2 0x2018 DUP4 DUP6 PUSH2 0x4E9B JUMP JUMPDEST CALLVALUE SUB PUSH2 0x141A JUMPI DUP4 DUP7 SWAP4 PUSH2 0x202F PUSH2 0x1F19 SWAP7 DUP5 CALLER PUSH2 0x5556 JUMP JUMPDEST POP PUSH1 0x3 SLOAD PUSH2 0x2049 SWAP1 DUP3 SWAP1 DUP6 SWAP1 PUSH1 0x1 PUSH1 0x1 PUSH1 0xA0 SHL SUB AND PUSH2 0x5556 JUMP JUMPDEST POP JUMPDEST PUSH1 0x40 MLOAD SWAP2 DUP3 MSTORE PUSH1 0x20 DUP3 ADD MSTORE PUSH0 DUP1 MLOAD PUSH1 0x20 PUSH2 0x5788 DUP4 CODECOPY DUP2 MLOAD SWAP2 MSTORE PUSH1 0x40 CALLER SWAP3 LOG3 PUSH0 DUP1 PUSH2 0x1F8D JUMP JUMPDEST PUSH2 0x207A DUP5 DUP7 PUSH2 0x4E9B JUMP JUMPDEST PUSH1 0x40 MLOAD SWAP1 PUSH4 0x23B872DD PUSH1 0xE0 SHL DUP3 MSTORE CALLER PUSH1 0x4 DUP4 ADD MSTORE ADDRESS PUSH1 0x24 DUP4 ADD MSTORE PUSH1 0x44 DUP3 ADD MSTORE PUSH1 0x20 DUP2 PUSH1 0x64 DUP2 DUP6 DUP8 GAS CALL SWAP2 DUP3 ISZERO PUSH2 0xAFD JUMPI DUP1 SWAP3 PUSH2 0x20E9 JUMPI JUMPDEST POP POP ISZERO PUSH2 0x14C4 JUMPI DUP4 DUP7 SWAP4 PUSH2 0x20C9 PUSH2 0x1F19 SWAP7 DUP5 CALLER PUSH2 0x5556 JUMP JUMPDEST POP PUSH1 0x3 SLOAD PUSH2 0x20E3 SWAP1 DUP3 SWAP1 DUP6 SWAP1 PUSH1 0x1 PUSH1 0x1 PUSH1 0xA0 SHL SUB AND PUSH2 0x5556 JUMP JUMPDEST POP PUSH2 0x204B JUMP JUMPDEST SWAP1 SWAP2 POP PUSH1 0x20 DUP3 RETURNDATASIZE PUSH1 0x20 GT PUSH2 0x211E JUMPI JUMPDEST DUP2 PUSH2 0x2105 PUSH1 0x20 SWAP4 DUP4 PUSH2 0x49E1 JUMP JUMPDEST DUP2 ADD SUB SLT PUSH2 0x27B JUMPI POP PUSH2 0x2117 SWAP1 PUSH2 0x4A17 JUMP JUMPDEST PUSH0 DUP1 PUSH2 0x20B1 JUMP JUMPDEST RETURNDATASIZE SWAP2 POP PUSH2 0x20F8 JUMP JUMPDEST SWAP1 SWAP4 POP PUSH1 0x20 DUP2 RETURNDATASIZE PUSH1 0x20 GT PUSH2 0x2152 JUMPI JUMPDEST DUP2 PUSH2 0x2142 PUSH1 0x20 SWAP4 DUP4 PUSH2 0x49E1 JUMP JUMPDEST DUP2 ADD SUB SLT PUSH2 0xAB1 JUMPI MLOAD SWAP3 PUSH0 PUSH2 0x2007 JUMP JUMPDEST RETURNDATASIZE SWAP2 POP PUSH2 0x2135 JUMP JUMPDEST DUP2 DUP1 SWAP4 POP PUSH2 0x2167 SWAP2 PUSH2 0x49E1 JUMP JUMPDEST PUSH2 0x27B JUMPI DUP4 SWAP1 PUSH0 PUSH2 0x1EC1 JUMP JUMPDEST POP CALLVALUE PUSH2 0x27B JUMPI PUSH2 0x2182 CALLDATASIZE PUSH2 0x4766 JUMP JUMPDEST SWAP3 SWAP2 SWAP1 DUP2 DUP4 MSTORE PUSH1 0x4 PUSH1 0x20 MSTORE PUSH1 0x40 DUP4 KECCAK256 SWAP1 PUSH1 0x1 DUP3 ADD SWAP4 PUSH1 0x1 DUP1 PUSH1 0xA0 SHL SUB DUP6 SLOAD AND CALLER EQ DUP1 ISZERO PUSH2 0x22F5 JUMPI JUMPDEST PUSH2 0x21B3 SWAP1 PUSH2 0x4BE3 JUMP JUMPDEST PUSH20 0x0 DUP1 EXTCODESIZE ISZERO PUSH2 0xFD2 JUMPI DUP2 PUSH1 0x40 MLOAD DUP1 SWAP3 PUSH4 0x252A867 PUSH1 0xE5 SHL DUP3 MSTORE DUP2 DUP1 PUSH2 0x21EE DUP10 PUSH1 0x4 DUP4 ADD PUSH2 0x4C14 JUMP JUMPDEST SUB SWAP2 GAS DELEGATECALL DUP1 ISZERO PUSH2 0xFC7 JUMPI SWAP1 DUP3 SWAP2 PUSH2 0x22E0 JUMPI JUMPDEST POP POP PUSH1 0x5 DUP4 ADD PUSH2 0x2217 DUP4 DUP3 SLOAD PUSH2 0x177D DUP3 DUP3 LT PUSH2 0x4947 JUMP JUMPDEST SWAP1 SSTORE PUSH1 0x1 DUP1 PUSH1 0xA0 SHL SUB PUSH1 0x9 DUP5 ADD SLOAD AND PUSH1 0x7 DUP5 ADD SLOAD PUSH1 0x40 MLOAD SWAP1 PUSH4 0x1C8F0847 PUSH1 0xE0 SHL DUP3 MSTORE DUP5 PUSH1 0x4 DUP4 ADD MSTORE PUSH1 0x24 DUP3 ADD MSTORE PUSH1 0x20 DUP2 PUSH1 0x44 DUP2 PUSH20 0x0 GAS DELEGATECALL SWAP3 DUP4 ISZERO PUSH2 0xAFD JUMPI SWAP3 PUSH2 0x229F JUMPI JUMPDEST POP PUSH0 DUP1 MLOAD PUSH1 0x20 PUSH2 0x5768 DUP4 CODECOPY DUP2 MLOAD SWAP2 MSTORE SWAP4 PUSH2 0x182C DUP4 DUP4 PUSH2 0x1816 DUP12 PUSH2 0x5FD SWAP7 PUSH1 0x1 DUP1 PUSH1 0xA0 SHL SUB DUP8 SLOAD AND PUSH2 0x1810 DUP7 DUP13 PUSH2 0x4CF9 JUMP JUMPDEST SWAP1 SWAP2 POP PUSH1 0x20 DUP2 RETURNDATASIZE PUSH1 0x20 GT PUSH2 0x22D8 JUMPI JUMPDEST DUP2 PUSH2 0x22BB PUSH1 0x20 SWAP4 DUP4 PUSH2 0x49E1 JUMP JUMPDEST DUP2 ADD SUB SLT PUSH2 0xAB1 JUMPI MLOAD SWAP1 PUSH0 DUP1 MLOAD PUSH1 0x20 PUSH2 0x5768 DUP4 CODECOPY DUP2 MLOAD SWAP2 MSTORE PUSH2 0x226E JUMP JUMPDEST RETURNDATASIZE SWAP2 POP PUSH2 0x22AE JUMP JUMPDEST DUP2 PUSH2 0x22EA SWAP2 PUSH2 0x49E1 JUMP JUMPDEST PUSH2 0x27B JUMPI DUP1 PUSH0 PUSH2 0x2200 JUMP JUMPDEST POP PUSH1 0x2 DUP4 ADD SLOAD PUSH1 0x1 PUSH1 0x1 PUSH1 0xA0 SHL SUB AND CALLER EQ PUSH2 0x21AA JUMP JUMPDEST POP CALLVALUE PUSH2 0x27B JUMPI DUP1 PUSH1 0x3 NOT CALLDATASIZE ADD SLT PUSH2 0x27B JUMPI PUSH1 0x20 PUSH1 0x7 SLOAD PUSH1 0x40 MLOAD SWAP1 DUP2 MSTORE RETURN JUMPDEST POP CALLVALUE PUSH2 0x27B JUMPI PUSH2 0x2338 CALLDATASIZE PUSH2 0x4766 JUMP JUMPDEST SWAP3 DUP3 DUP2 SWAP4 SWAP3 SWAP4 MSTORE PUSH1 0x4 PUSH1 0x20 MSTORE PUSH1 0x40 DUP2 KECCAK256 SWAP3 PUSH1 0x1 DUP1 PUSH1 0xA0 SHL SUB DUP5 SLOAD AND CALLER EQ DUP1 ISZERO PUSH2 0x24B5 JUMPI JUMPDEST PUSH2 0x2365 SWAP1 PUSH2 0x4BE3 JUMP JUMPDEST PUSH20 0x0 DUP1 EXTCODESIZE ISZERO PUSH2 0x18AB JUMPI DUP3 PUSH1 0x40 MLOAD DUP1 SWAP3 PUSH4 0x252A867 PUSH1 0xE5 SHL DUP3 MSTORE DUP2 DUP1 PUSH2 0x23A0 DUP11 PUSH1 0x4 DUP4 ADD PUSH2 0x4C14 JUMP JUMPDEST SUB SWAP2 GAS DELEGATECALL DUP1 ISZERO PUSH2 0x18A0 JUMPI SWAP1 DUP4 SWAP2 PUSH2 0x24A0 JUMPI JUMPDEST POP POP PUSH1 0x5 DUP5 ADD PUSH2 0x23C9 DUP3 DUP3 SLOAD PUSH2 0x177D DUP3 DUP3 LT PUSH2 0x4947 JUMP JUMPDEST SWAP1 SSTORE PUSH1 0x1 DUP1 PUSH1 0xA0 SHL SUB PUSH1 0x9 DUP6 ADD SLOAD AND SWAP4 PUSH1 0x7 DUP2 ADD SLOAD PUSH1 0x40 MLOAD SWAP1 PUSH4 0x1C8F0847 PUSH1 0xE0 SHL DUP3 MSTORE DUP4 PUSH1 0x4 DUP4 ADD MSTORE PUSH1 0x24 DUP3 ADD MSTORE PUSH1 0x20 DUP2 PUSH1 0x44 DUP2 PUSH20 0x0 GAS DELEGATECALL SWAP4 DUP5 ISZERO PUSH2 0xAFD JUMPI SWAP4 PUSH2 0x246A JUMPI JUMPDEST POP SWAP2 PUSH2 0x5FD DUP4 PUSH2 0x182C DUP4 PUSH1 0x1 PUSH32 0xF05D33634B730E763D232B482CF835A4481835F62D0A0973B42018A8EAD4F047 SWAP8 ADD SWAP9 PUSH2 0x1816 DUP12 DUP3 PUSH1 0x1 DUP1 PUSH1 0xA0 SHL SUB DUP14 SLOAD AND PUSH2 0x1810 DUP7 DUP13 PUSH2 0x4CF9 JUMP JUMPDEST SWAP3 POP PUSH1 0x20 DUP4 RETURNDATASIZE PUSH1 0x20 GT PUSH2 0x2498 JUMPI JUMPDEST DUP2 PUSH2 0x2485 PUSH1 0x20 SWAP4 DUP4 PUSH2 0x49E1 JUMP JUMPDEST DUP2 ADD SUB SLT PUSH2 0xAB1 JUMPI SWAP2 MLOAD SWAP2 PUSH2 0x5FD PUSH2 0x2421 JUMP JUMPDEST RETURNDATASIZE SWAP2 POP PUSH2 0x2478 JUMP JUMPDEST DUP2 PUSH2 0x24AA SWAP2 PUSH2 0x49E1 JUMP JUMPDEST PUSH2 0xFD2 JUMPI DUP2 PUSH0 PUSH2 0x23B2 JUMP JUMPDEST POP PUSH1 0x2 DUP5 ADD SLOAD PUSH1 0x1 PUSH1 0x1 PUSH1 0xA0 SHL SUB AND CALLER EQ PUSH2 0x235C JUMP JUMPDEST POP CALLVALUE PUSH2 0x27B JUMPI DUP1 PUSH1 0x3 NOT CALLDATASIZE ADD SLT PUSH2 0x27B JUMPI PUSH1 0x20 PUSH1 0x5 SLOAD PUSH1 0x40 MLOAD SWAP1 DUP2 MSTORE RETURN JUMPDEST POP CALLVALUE PUSH2 0x27B JUMPI PUSH1 0x20 CALLDATASIZE PUSH1 0x3 NOT ADD SLT PUSH2 0x27B JUMPI PUSH1 0x40 PUSH1 0x4 CALLDATALOAD SWAP2 DUP3 DUP2 MSTORE PUSH1 0x4 PUSH1 0x20 MSTORE KECCAK256 SWAP1 PUSH1 0x1 DUP3 ADD SWAP1 PUSH1 0x1 DUP1 PUSH1 0xA0 SHL SUB DUP3 SLOAD AND CALLER EQ DUP1 ISZERO PUSH2 0x25A8 JUMPI JUMPDEST PUSH2 0x252C SWAP1 PUSH2 0x4BE3 JUMP JUMPDEST PUSH0 DUP1 MLOAD PUSH1 0x20 PUSH2 0x5728 DUP4 CODECOPY DUP2 MLOAD SWAP2 MSTORE PUSH2 0x5FD PUSH1 0x2 DUP6 ADD SWAP5 PUSH2 0x2556 DUP7 SLOAD PUSH2 0x1A9E PUSH1 0xFF DUP3 PUSH1 0xB0 SHR AND PUSH2 0x4EA8 JUMP JUMPDEST DUP1 SLOAD PUSH1 0x9 DUP3 ADD SLOAD PUSH1 0x5 DUP4 ADD SLOAD PUSH2 0x257A SWAP3 SWAP1 SWAP2 PUSH1 0x1 PUSH1 0x1 PUSH1 0xA0 SHL SUB SWAP1 DUP2 AND SWAP2 AND PUSH2 0x5556 JUMP JUMPDEST POP SLOAD SWAP4 SLOAD SWAP5 SLOAD PUSH1 0x40 DUP1 MLOAD PUSH1 0x1 PUSH1 0x1 PUSH1 0xA0 SHL SUB SWAP3 DUP4 AND DUP2 MSTORE CALLER PUSH1 0x20 DUP3 ADD MSTORE SWAP7 DUP3 AND SWAP7 SWAP6 SWAP1 SWAP2 AND SWAP5 SWAP2 DUP3 SWAP2 DUP3 ADD SWAP1 JUMP JUMPDEST POP DUP3 SLOAD PUSH1 0x1 PUSH1 0x1 PUSH1 0xA0 SHL SUB AND CALLER EQ PUSH2 0x2523 JUMP JUMPDEST POP CALLVALUE PUSH2 0x27B JUMPI DUP1 PUSH1 0x3 NOT CALLDATASIZE ADD SLT PUSH2 0x27B JUMPI SLOAD PUSH1 0x40 MLOAD PUSH1 0x1 PUSH1 0x1 PUSH1 0xA0 SHL SUB SWAP1 SWAP2 AND DUP2 MSTORE PUSH1 0x20 SWAP1 RETURN JUMPDEST POP CALLVALUE PUSH2 0x27B JUMPI DUP1 PUSH1 0x3 NOT CALLDATASIZE ADD SLT PUSH2 0x27B JUMPI PUSH1 0x20 PUSH1 0x2 SLOAD PUSH1 0x40 MLOAD SWAP1 DUP2 MSTORE RETURN JUMPDEST POP CALLVALUE PUSH2 0x27B JUMPI DUP1 PUSH1 0x3 NOT CALLDATASIZE ADD SLT PUSH2 0x27B JUMPI DUP1 SLOAD PUSH2 0x2627 CALLER PUSH1 0x1 PUSH1 0x1 PUSH1 0xA0 SHL SUB DUP4 AND EQ PUSH2 0x4DA0 JUMP JUMPDEST PUSH1 0xFF PUSH1 0xA0 SHL NOT AND DUP2 SSTORE PUSH1 0x40 MLOAD DUP2 DUP2 MSTORE PUSH32 0x17904E4FE7D59BB4603C7C045BC275A05DA9EA3A4AC007FC80FFFEAF119186D SWAP1 PUSH1 0x20 SWAP1 LOG1 DUP1 RETURN JUMPDEST POP CALLVALUE PUSH2 0x27B JUMPI PUSH1 0x20 CALLDATASIZE PUSH1 0x3 NOT ADD SLT PUSH2 0x27B JUMPI PUSH1 0x4 CALLDATALOAD DUP2 MSTORE PUSH1 0x4 PUSH1 0x20 MSTORE PUSH1 0x40 SWAP1 KECCAK256 PUSH1 0x1 PUSH1 0xA0 SHL PUSH1 0x1 SWAP1 SUB DUP2 SLOAD AND SWAP1 PUSH1 0x1 PUSH1 0xA0 SHL PUSH1 0x1 SWAP1 SUB PUSH1 0x1 DUP3 ADD SLOAD AND SWAP1 PUSH1 0x2 DUP2 ADD SLOAD PUSH1 0x3 DUP3 ADD SLOAD PUSH1 0x4 DUP4 ADD SLOAD PUSH1 0x5 DUP5 ADD SLOAD PUSH1 0x6 DUP6 ADD SLOAD PUSH1 0x7 DUP7 ADD SLOAD SWAP2 PUSH1 0x8 DUP8 ADD SLOAD SWAP4 PUSH1 0x1 PUSH1 0xA0 SHL PUSH1 0x1 SWAP1 SUB PUSH1 0x9 DUP10 ADD SLOAD AND SWAP6 PUSH1 0x1 PUSH1 0xA0 SHL PUSH1 0x1 SWAP1 SUB PUSH1 0xA DUP11 ADD SLOAD AND SWAP8 PUSH1 0xB DUP11 ADD SLOAD SWAP10 PUSH1 0xC ADD SLOAD PUSH1 0xFF AND SWAP11 PUSH1 0x40 MLOAD SWAP13 DUP14 MSTORE PUSH1 0x20 DUP14 ADD MSTORE PUSH1 0x1 PUSH1 0xA0 SHL PUSH1 0x1 SWAP1 SUB DUP2 AND PUSH1 0x40 DUP14 ADD MSTORE DUP1 PUSH1 0xA0 SHR PUSH1 0xFF AND ISZERO ISZERO PUSH1 0x60 DUP14 ADD MSTORE DUP1 PUSH1 0xA8 SHR PUSH1 0xFF AND ISZERO ISZERO PUSH1 0x80 DUP14 ADD MSTORE DUP1 PUSH1 0xB0 SHR PUSH1 0xFF AND ISZERO ISZERO PUSH1 0xA0 DUP14 ADD MSTORE PUSH1 0xB8 SHR PUSH1 0xFF AND ISZERO ISZERO PUSH1 0xC0 DUP13 ADD MSTORE PUSH1 0xE0 DUP12 ADD MSTORE PUSH2 0x100 DUP11 ADD MSTORE PUSH2 0x120 DUP10 ADD MSTORE PUSH2 0x140 DUP9 ADD MSTORE PUSH2 0x160 DUP8 ADD MSTORE PUSH2 0x180 DUP7 ADD MSTORE PUSH2 0x1A0 DUP6 ADD MSTORE PUSH2 0x1C0 DUP5 ADD MSTORE PUSH2 0x1E0 DUP4 ADD MSTORE PUSH2 0x200 DUP3 ADD PUSH2 0x2784 SWAP2 PUSH2 0x481A JUMP JUMPDEST PUSH2 0x220 SWAP1 RETURN JUMPDEST POP CALLVALUE PUSH2 0x27B JUMPI PUSH1 0x20 CALLDATASIZE PUSH1 0x3 NOT ADD SLT PUSH2 0x27B JUMPI PUSH1 0x40 PUSH1 0x4 CALLDATALOAD SWAP2 DUP3 DUP2 MSTORE PUSH1 0x4 PUSH1 0x20 MSTORE KECCAK256 SWAP1 PUSH1 0x1 DUP3 ADD SWAP1 PUSH1 0x1 DUP1 PUSH1 0xA0 SHL SUB DUP3 SLOAD AND CALLER EQ DUP1 ISZERO PUSH2 0x2831 JUMPI JUMPDEST PUSH2 0x27CD SWAP1 PUSH2 0x4BE3 JUMP JUMPDEST PUSH0 DUP1 MLOAD PUSH1 0x20 PUSH2 0x5728 DUP4 CODECOPY DUP2 MLOAD SWAP2 MSTORE PUSH2 0x5FD PUSH1 0x2 DUP6 ADD SWAP5 PUSH2 0x27FF DUP7 SLOAD PUSH1 0xFF DUP2 PUSH1 0xB8 SHR AND ISZERO DUP1 PUSH2 0x2823 JUMPI JUMPDEST PUSH2 0x1AAE SWAP1 PUSH2 0x4EDA JUMP JUMPDEST DUP1 SLOAD PUSH1 0x9 DUP3 ADD SLOAD PUSH1 0x5 DUP4 ADD SLOAD PUSH2 0x257A SWAP3 SWAP1 SWAP2 PUSH1 0x1 PUSH1 0x1 PUSH1 0xA0 SHL SUB SWAP1 DUP2 AND SWAP2 AND PUSH2 0x55B1 JUMP JUMPDEST POP PUSH1 0xB0 DUP2 SWAP1 SHR PUSH1 0xFF AND PUSH2 0x27F6 JUMP JUMPDEST POP DUP3 SLOAD PUSH1 0x1 PUSH1 0x1 PUSH1 0xA0 SHL SUB AND CALLER EQ PUSH2 0x27C4 JUMP JUMPDEST POP CALLVALUE PUSH2 0x27B JUMPI PUSH1 0x40 CALLDATASIZE PUSH1 0x3 NOT ADD SLT PUSH2 0x27B JUMPI PUSH1 0x20 PUSH2 0x2DB PUSH2 0x2863 PUSH2 0x4757 JUMP JUMPDEST PUSH1 0x4 CALLDATALOAD PUSH2 0x516B JUMP JUMPDEST POP CALLVALUE PUSH2 0x27B JUMPI PUSH1 0x20 CALLDATASIZE PUSH1 0x3 NOT ADD SLT PUSH2 0x27B JUMPI PUSH1 0x20 SWAP1 PUSH1 0x40 SWAP1 PUSH1 0x1 PUSH1 0x1 PUSH1 0xA0 SHL SUB PUSH2 0x2893 PUSH2 0x46BF JUMP JUMPDEST AND DUP2 MSTORE PUSH1 0x1 DUP4 MSTORE DUP2 DUP2 KECCAK256 DUP2 DUP1 MSTORE DUP4 MSTORE KECCAK256 SLOAD PUSH1 0x40 MLOAD SWAP1 DUP2 MSTORE RETURN JUMPDEST POP PUSH2 0x28B6 CALLDATASIZE PUSH2 0x4766 JUMP JUMPDEST DUP3 DUP5 SWAP4 SWAP3 SWAP5 MSTORE PUSH1 0x4 PUSH1 0x20 MSTORE PUSH1 0x40 DUP4 KECCAK256 SWAP4 PUSH1 0x1 DUP6 ADD SWAP4 PUSH2 0x28DF PUSH1 0x1 DUP1 PUSH1 0xA0 SHL SUB DUP7 SLOAD AND CALLER EQ PUSH2 0x4BE3 JUMP JUMPDEST PUSH20 0x0 DUP1 EXTCODESIZE ISZERO PUSH2 0xFD2 JUMPI DUP2 PUSH1 0x40 MLOAD DUP1 SWAP3 PUSH4 0x252A867 PUSH1 0xE5 SHL DUP3 MSTORE DUP2 DUP1 PUSH2 0x291A DUP13 PUSH1 0x4 DUP4 ADD PUSH2 0x4C14 JUMP JUMPDEST SUB SWAP2 GAS DELEGATECALL DUP1 ISZERO PUSH2 0xFC7 JUMPI SWAP1 DUP3 SWAP2 PUSH2 0x2BCE JUMPI JUMPDEST POP POP PUSH1 0xA DUP7 ADD DUP1 SLOAD CALLER PUSH0 SWAP1 DUP2 MSTORE PUSH1 0x1 PUSH1 0x20 SWAP1 DUP2 MSTORE PUSH1 0x40 DUP1 DUP4 KECCAK256 PUSH1 0x1 PUSH1 0x1 PUSH1 0xA0 SHL SUB SWAP1 SWAP5 AND DUP1 DUP5 MSTORE SWAP4 SWAP1 SWAP2 MSTORE SWAP1 KECCAK256 SLOAD SWAP2 SWAP3 SWAP1 SWAP2 SWAP5 ISZERO PUSH2 0x29CA JUMPI POP POP DUP2 PUSH2 0x2985 SWAP2 PUSH2 0x1F09 DUP3 PUSH0 DUP1 MLOAD PUSH1 0x20 PUSH2 0x5748 DUP4 CODECOPY DUP2 MLOAD SWAP2 MSTORE SWAP7 LT ISZERO PUSH2 0x4947 JUMP JUMPDEST POP PUSH1 0x6 DUP6 ADD PUSH2 0x2995 DUP3 DUP3 SLOAD PUSH2 0x4E9B JUMP JUMPDEST SWAP1 SSTORE DUP5 SLOAD SWAP4 SLOAD PUSH1 0x2 SWAP1 SWAP6 ADD SLOAD PUSH1 0x40 DUP1 MLOAD PUSH1 0x1 PUSH1 0x1 PUSH1 0xA0 SHL SUB SWAP3 DUP4 AND DUP2 MSTORE PUSH1 0x20 DUP2 ADD SWAP4 SWAP1 SWAP4 MSTORE SWAP6 DUP2 AND SWAP6 SWAP5 AND SWAP4 DUP2 SWAP1 DUP2 ADD PUSH2 0x5FD JUMP JUMPDEST SWAP1 SWAP4 DUP4 DUP2 LT PUSH2 0x29F0 JUMPI JUMPDEST POP POP PUSH0 DUP1 MLOAD PUSH1 0x20 PUSH2 0x5748 DUP4 CODECOPY DUP2 MLOAD SWAP2 MSTORE SWAP3 POP DUP2 PUSH2 0x2985 SWAP2 PUSH2 0x1F09 JUMP JUMPDEST PUSH2 0x29FA SWAP1 DUP5 PUSH2 0x4CF9 JUMP JUMPDEST SWAP2 PUSH2 0x2A0B PUSH1 0xFF DUP4 SLOAD PUSH1 0xA0 SHR AND PUSH2 0x4916 JUMP JUMPDEST PUSH2 0x2A16 DUP4 ISZERO ISZERO PUSH2 0x4E02 JUMP JUMPDEST PUSH1 0x2 SLOAD SWAP2 PUSH1 0x40 MLOAD SWAP3 PUSH4 0x1C8F0847 PUSH1 0xE0 SHL DUP5 MSTORE DUP5 PUSH1 0x4 DUP6 ADD MSTORE PUSH1 0x24 DUP5 ADD MSTORE PUSH1 0x20 DUP4 PUSH1 0x44 DUP2 PUSH20 0x0 GAS DELEGATECALL SWAP3 DUP4 ISZERO PUSH2 0x1D73 JUMPI DUP2 SWAP4 PUSH2 0x2B9A JUMPI JUMPDEST POP DUP6 PUSH2 0x2AD5 JUMPI POP PUSH2 0x2A6F DUP3 DUP5 PUSH2 0x4E9B JUMP JUMPDEST CALLVALUE SUB PUSH2 0x141A JUMPI DUP5 DUP4 DUP6 SWAP4 PUSH2 0x2A95 PUSH2 0x2985 SWAP7 PUSH0 DUP1 MLOAD PUSH1 0x20 PUSH2 0x5748 DUP4 CODECOPY DUP2 MLOAD SWAP2 MSTORE SWAP10 CALLER PUSH2 0x5556 JUMP JUMPDEST POP PUSH1 0x3 SLOAD PUSH2 0x2AAF SWAP1 DUP3 SWAP1 DUP6 SWAP1 PUSH1 0x1 PUSH1 0x1 PUSH1 0xA0 SHL SUB AND PUSH2 0x5556 JUMP JUMPDEST POP JUMPDEST PUSH1 0x40 MLOAD SWAP2 DUP3 MSTORE PUSH1 0x20 DUP3 ADD MSTORE PUSH0 DUP1 MLOAD PUSH1 0x20 PUSH2 0x5788 DUP4 CODECOPY DUP2 MLOAD SWAP2 MSTORE PUSH1 0x40 CALLER SWAP3 LOG3 SWAP2 PUSH2 0x29D4 JUMP JUMPDEST PUSH2 0x2ADF DUP4 DUP6 PUSH2 0x4E9B JUMP JUMPDEST PUSH1 0x40 MLOAD SWAP1 PUSH4 0x23B872DD PUSH1 0xE0 SHL DUP3 MSTORE CALLER PUSH1 0x4 DUP4 ADD MSTORE ADDRESS PUSH1 0x24 DUP4 ADD MSTORE PUSH1 0x44 DUP3 ADD MSTORE PUSH1 0x20 DUP2 PUSH1 0x64 DUP2 DUP6 DUP12 GAS CALL SWAP2 DUP3 ISZERO PUSH2 0xAFD JUMPI DUP1 SWAP3 PUSH2 0x2B5D JUMPI JUMPDEST POP POP ISZERO PUSH2 0x14C4 JUMPI DUP5 DUP4 DUP6 SWAP4 PUSH2 0x2B3D PUSH2 0x2985 SWAP7 PUSH0 DUP1 MLOAD PUSH1 0x20 PUSH2 0x5748 DUP4 CODECOPY DUP2 MLOAD SWAP2 MSTORE SWAP10 CALLER PUSH2 0x5556 JUMP JUMPDEST POP PUSH1 0x3 SLOAD PUSH2 0x2B57 SWAP1 DUP3 SWAP1 DUP6 SWAP1 PUSH1 0x1 PUSH1 0x1 PUSH1 0xA0 SHL SUB AND PUSH2 0x5556 JUMP JUMPDEST POP PUSH2 0x2AB1 JUMP JUMPDEST SWAP1 SWAP2 POP PUSH1 0x20 DUP3 RETURNDATASIZE PUSH1 0x20 GT PUSH2 0x2B92 JUMPI JUMPDEST DUP2 PUSH2 0x2B79 PUSH1 0x20 SWAP4 DUP4 PUSH2 0x49E1 JUMP JUMPDEST DUP2 ADD SUB SLT PUSH2 0x27B JUMPI POP PUSH2 0x2B8B SWAP1 PUSH2 0x4A17 JUMP JUMPDEST PUSH0 DUP1 PUSH2 0x2B16 JUMP JUMPDEST RETURNDATASIZE SWAP2 POP PUSH2 0x2B6C JUMP JUMPDEST SWAP1 SWAP3 POP PUSH1 0x20 DUP2 RETURNDATASIZE PUSH1 0x20 GT PUSH2 0x2BC6 JUMPI JUMPDEST DUP2 PUSH2 0x2BB6 PUSH1 0x20 SWAP4 DUP4 PUSH2 0x49E1 JUMP JUMPDEST DUP2 ADD SUB SLT PUSH2 0xAB1 JUMPI MLOAD SWAP2 PUSH0 PUSH2 0x2A5E JUMP JUMPDEST RETURNDATASIZE SWAP2 POP PUSH2 0x2BA9 JUMP JUMPDEST DUP2 PUSH2 0x2BD8 SWAP2 PUSH2 0x49E1 JUMP JUMPDEST PUSH2 0x27B JUMPI DUP1 PUSH0 PUSH2 0x292C JUMP JUMPDEST POP CALLVALUE PUSH2 0x27B JUMPI PUSH2 0x2BF2 CALLDATASIZE PUSH2 0x4789 JUMP JUMPDEST DUP4 DUP6 SWAP5 SWAP4 SWAP3 SWAP5 MSTORE PUSH1 0x4 PUSH1 0x20 MSTORE PUSH1 0x40 DUP6 KECCAK256 SWAP1 PUSH1 0x1 DUP3 ADD SWAP5 PUSH2 0x2C1C PUSH1 0x1 DUP1 PUSH1 0xA0 SHL SUB DUP8 SLOAD AND CALLER EQ PUSH2 0x4BE3 JUMP JUMPDEST DUP7 PUSH20 0x0 DUP1 EXTCODESIZE ISZERO PUSH2 0xFD2 JUMPI DUP2 PUSH1 0x40 MLOAD DUP1 SWAP3 PUSH4 0x252A867 PUSH1 0xE5 SHL DUP3 MSTORE DUP2 DUP1 PUSH2 0x2C58 DUP11 PUSH1 0x4 DUP4 ADD PUSH2 0x4C14 JUMP JUMPDEST SUB SWAP2 GAS DELEGATECALL DUP1 ISZERO PUSH2 0xFC7 JUMPI PUSH2 0x2F6F JUMPI JUMPDEST POP POP PUSH1 0x2 DUP4 ADD SWAP7 PUSH2 0x2C7F PUSH1 0xFF DUP10 SLOAD PUSH1 0xB0 SHR AND ISZERO PUSH2 0x4D30 JUMP JUMPDEST CALLER DUP2 MSTORE PUSH1 0x1 PUSH1 0x20 MSTORE PUSH1 0x40 DUP2 KECCAK256 PUSH1 0x1 DUP1 PUSH1 0xA0 SHL SUB DUP7 AND PUSH0 MSTORE PUSH1 0x20 MSTORE PUSH2 0x2CA9 DUP3 PUSH1 0x40 PUSH0 KECCAK256 SLOAD LT ISZERO PUSH2 0x4947 JUMP JUMPDEST PUSH2 0x2CB4 DUP3 DUP7 CALLER PUSH2 0x5491 JUMP JUMPDEST POP DUP3 PUSH2 0x2F54 JUMPI JUMPDEST CALLER DUP2 MSTORE PUSH1 0x1 PUSH1 0x20 MSTORE PUSH1 0x40 DUP2 KECCAK256 PUSH1 0x1 DUP1 PUSH1 0xA0 SHL SUB DUP7 AND PUSH0 MSTORE PUSH1 0x20 MSTORE PUSH1 0x40 PUSH0 KECCAK256 SLOAD DUP3 DUP2 LT PUSH2 0x2D6B JUMPI JUMPDEST POP POP SWAP1 DUP2 DUP5 PUSH2 0x2D03 PUSH1 0x20 SWAP6 SWAP5 PUSH0 DUP1 MLOAD PUSH1 0x20 PUSH2 0x57A8 DUP4 CODECOPY DUP2 MLOAD SWAP2 MSTORE SWAP8 CALLER PUSH2 0x5491 JUMP JUMPDEST POP DUP9 SLOAD PUSH1 0xFF PUSH1 0xB0 SHL NOT AND PUSH1 0x1 PUSH1 0xB0 SHL OR DUP10 SSTORE PUSH1 0xA DUP5 ADD DUP1 SLOAD PUSH1 0x1 PUSH1 0x1 PUSH1 0xA0 SHL SUB NOT AND PUSH1 0x1 PUSH1 0x1 PUSH1 0xA0 SHL SUB SWAP3 DUP4 AND OR SWAP1 SSTORE PUSH1 0x4 DUP5 ADD DUP3 SWAP1 SSTORE PUSH1 0x6 DUP5 ADD SWAP2 SWAP1 SWAP2 SSTORE PUSH1 0x8 DUP4 ADD SWAP2 SWAP1 SWAP2 SSTORE SWAP1 SLOAD SWAP5 SLOAD SWAP6 SLOAD PUSH1 0x40 MLOAD SWAP1 DUP3 AND DUP2 MSTORE SWAP6 DUP2 AND SWAP6 SWAP5 AND SWAP4 LOG4 PUSH1 0x20 PUSH1 0x40 MLOAD PUSH1 0x1 DUP2 MSTORE RETURN JUMPDEST PUSH2 0x2D79 SWAP1 DUP4 SWAP3 SWAP6 SWAP5 SWAP4 PUSH2 0x4CF9 JUMP JUMPDEST SWAP5 PUSH2 0x2D8A PUSH1 0xFF DUP7 SLOAD PUSH1 0xA0 SHR AND PUSH2 0x4916 JUMP JUMPDEST PUSH2 0x2D95 DUP7 ISZERO ISZERO PUSH2 0x4E02 JUMP JUMPDEST PUSH1 0x2 SLOAD SWAP5 PUSH1 0x40 MLOAD SWAP6 PUSH4 0x1C8F0847 PUSH1 0xE0 SHL DUP8 MSTORE DUP8 PUSH1 0x4 DUP9 ADD MSTORE PUSH1 0x24 DUP8 ADD MSTORE PUSH1 0x20 DUP7 PUSH1 0x44 DUP2 PUSH20 0x0 GAS DELEGATECALL SWAP6 DUP7 ISZERO PUSH2 0x1D73 JUMPI DUP2 SWAP7 PUSH2 0x2F20 JUMPI JUMPDEST POP PUSH1 0x1 PUSH1 0x1 PUSH1 0xA0 SHL SUB DUP3 AND SWAP1 DUP2 PUSH2 0x2E5E JUMPI POP PUSH2 0x2DF9 DUP7 DUP9 PUSH2 0x4E9B JUMP JUMPDEST PUSH2 0x141A JUMPI DUP7 PUSH1 0x20 SWAP7 PUSH2 0x2E1A PUSH0 DUP1 MLOAD PUSH1 0x20 PUSH2 0x57A8 DUP4 CODECOPY DUP2 MLOAD SWAP2 MSTORE SWAP10 DUP6 CALLER PUSH2 0x5556 JUMP JUMPDEST POP PUSH1 0x3 SLOAD PUSH2 0x2E34 SWAP1 DUP3 SWAP1 DUP7 SWAP1 PUSH1 0x1 PUSH1 0x1 PUSH1 0xA0 SHL SUB AND PUSH2 0x5556 JUMP JUMPDEST POP JUMPDEST PUSH1 0x40 MLOAD SWAP2 DUP3 MSTORE DUP8 DUP3 ADD MSTORE PUSH0 DUP1 MLOAD PUSH1 0x20 PUSH2 0x5788 DUP4 CODECOPY DUP2 MLOAD SWAP2 MSTORE PUSH1 0x40 CALLER SWAP3 LOG3 SWAP5 DUP2 SWAP3 SWAP4 SWAP5 POP PUSH2 0x2CE2 JUMP JUMPDEST PUSH2 0x2E68 DUP8 DUP10 PUSH2 0x4E9B JUMP JUMPDEST PUSH1 0x40 MLOAD SWAP1 PUSH4 0x23B872DD PUSH1 0xE0 SHL DUP3 MSTORE CALLER PUSH1 0x4 DUP4 ADD MSTORE ADDRESS PUSH1 0x24 DUP4 ADD MSTORE PUSH1 0x44 DUP3 ADD MSTORE PUSH1 0x20 DUP2 PUSH1 0x64 DUP2 DUP6 DUP8 GAS CALL SWAP2 DUP3 ISZERO PUSH2 0xAFD JUMPI DUP1 SWAP3 PUSH2 0x2EE3 JUMPI JUMPDEST POP POP ISZERO PUSH2 0x14C4 JUMPI DUP7 PUSH1 0x20 SWAP7 PUSH2 0x2EC3 PUSH0 DUP1 MLOAD PUSH1 0x20 PUSH2 0x57A8 DUP4 CODECOPY DUP2 MLOAD SWAP2 MSTORE SWAP10 DUP6 CALLER PUSH2 0x5556 JUMP JUMPDEST POP PUSH1 0x3 SLOAD PUSH2 0x2EDD SWAP1 DUP3 SWAP1 DUP7 SWAP1 PUSH1 0x1 PUSH1 0x1 PUSH1 0xA0 SHL SUB AND PUSH2 0x5556 JUMP JUMPDEST POP PUSH2 0x2E36 JUMP JUMPDEST SWAP1 SWAP2 POP PUSH1 0x20 DUP3 RETURNDATASIZE PUSH1 0x20 GT PUSH2 0x2F18 JUMPI JUMPDEST DUP2 PUSH2 0x2EFF PUSH1 0x20 SWAP4 DUP4 PUSH2 0x49E1 JUMP JUMPDEST DUP2 ADD SUB SLT PUSH2 0x27B JUMPI POP PUSH2 0x2F11 SWAP1 PUSH2 0x4A17 JUMP JUMPDEST PUSH0 DUP1 PUSH2 0x2E9F JUMP JUMPDEST RETURNDATASIZE SWAP2 POP PUSH2 0x2EF2 JUMP JUMPDEST SWAP1 SWAP6 POP PUSH1 0x20 DUP2 RETURNDATASIZE PUSH1 0x20 GT PUSH2 0x2F4C JUMPI JUMPDEST DUP2 PUSH2 0x2F3C PUSH1 0x20 SWAP4 DUP4 PUSH2 0x49E1 JUMP JUMPDEST DUP2 ADD SUB SLT PUSH2 0xAB1 JUMPI MLOAD SWAP5 PUSH0 PUSH2 0x2DDD JUMP JUMPDEST RETURNDATASIZE SWAP2 POP PUSH2 0x2F2F JUMP JUMPDEST DUP8 SLOAD PUSH2 0x2F6A SWAP1 PUSH1 0x1 PUSH1 0x1 PUSH1 0xA0 SHL SUB AND ISZERO ISZERO PUSH2 0x4D62 JUMP JUMPDEST PUSH2 0x2CBB JUMP JUMPDEST DUP2 PUSH2 0x2F79 SWAP2 PUSH2 0x49E1 JUMP JUMPDEST PUSH2 0x2F84 JUMPI DUP7 PUSH0 PUSH2 0x2C67 JUMP JUMPDEST DUP7 DUP1 REVERT JUMPDEST POP CALLVALUE PUSH2 0x27B JUMPI PUSH1 0x40 CALLDATASIZE PUSH1 0x3 NOT ADD SLT PUSH2 0x27B JUMPI PUSH1 0x4 CALLDATALOAD PUSH2 0x2FA5 PUSH2 0x4757 JUMP JUMPDEST DUP2 DUP4 MSTORE PUSH1 0x4 PUSH1 0x20 MSTORE PUSH1 0x40 DUP4 KECCAK256 SWAP1 PUSH1 0x1 DUP1 PUSH1 0xA0 SHL SUB DUP3 SLOAD AND CALLER EQ DUP1 ISZERO PUSH2 0x32C1 JUMPI JUMPDEST PUSH2 0x2FCE SWAP1 PUSH2 0x4BE3 JUMP JUMPDEST DUP4 PUSH20 0x0 DUP1 EXTCODESIZE ISZERO PUSH2 0xFD2 JUMPI DUP2 PUSH1 0x40 MLOAD DUP1 SWAP3 PUSH4 0x252A867 PUSH1 0xE5 SHL DUP3 MSTORE DUP2 DUP1 PUSH2 0x300A DUP10 PUSH1 0x4 DUP4 ADD PUSH2 0x4C14 JUMP JUMPDEST SUB SWAP2 GAS DELEGATECALL DUP1 ISZERO PUSH2 0xFC7 JUMPI PUSH2 0x32A8 JUMPI JUMPDEST POP POP PUSH1 0x5 DUP3 ADD SLOAD SWAP1 PUSH1 0x1 DUP1 PUSH1 0xA0 SHL SUB PUSH1 0x9 DUP5 ADD SLOAD AND SWAP3 PUSH1 0x6 DUP2 ADD SLOAD SWAP3 PUSH1 0x1 DUP1 PUSH1 0xA0 SHL SUB PUSH1 0xA DUP4 ADD SLOAD AND SWAP2 PUSH1 0x7 DUP2 ADD SLOAD SWAP1 PUSH1 0x8 DUP2 ADD SLOAD SWAP5 PUSH20 0x0 SWAP6 PUSH1 0x40 MLOAD SWAP4 PUSH4 0x1C8F0847 PUSH1 0xE0 SHL DUP6 MSTORE DUP6 PUSH1 0x4 DUP7 ADD MSTORE PUSH1 0x24 DUP6 ADD MSTORE PUSH1 0x20 DUP5 PUSH1 0x44 DUP2 DUP11 GAS DELEGATECALL SWAP4 DUP5 ISZERO PUSH2 0xF63 JUMPI DUP12 SWAP5 PUSH2 0x3273 JUMPI JUMPDEST POP PUSH1 0x20 SWAP1 PUSH1 0x44 PUSH1 0x40 MLOAD DUP1 SWAP10 DUP2 SWAP4 PUSH4 0x1C8F0847 PUSH1 0xE0 SHL DUP4 MSTORE DUP13 PUSH1 0x4 DUP5 ADD MSTORE PUSH1 0x24 DUP4 ADD MSTORE GAS DELEGATECALL SWAP6 DUP7 ISZERO PUSH2 0x3268 JUMPI DUP10 SWAP11 SWAP10 SWAP9 SWAP10 SWAP7 PUSH2 0x3229 JUMPI JUMPDEST POP PUSH1 0x1 DUP3 ADD DUP1 SLOAD SWAP1 SWAP6 DUP10 SWAP6 SWAP5 SWAP4 SWAP3 SWAP2 DUP9 SWAP2 SWAP1 PUSH1 0x1 PUSH1 0x1 PUSH1 0xA0 SHL SUB AND DUP13 PUSH2 0x30F1 DUP8 DUP10 PUSH2 0x4CF9 JUMP JUMPDEST SWAP1 PUSH2 0x30FC SWAP3 DUP7 PUSH2 0x5538 JUMP JUMPDEST POP PUSH1 0x2 DUP5 ADD DUP1 SLOAD SWAP1 SWAP13 PUSH2 0x311B SWAP2 DUP8 SWAP2 SWAP1 PUSH1 0x1 PUSH1 0x1 PUSH1 0xA0 SHL SUB AND DUP7 PUSH2 0x5538 JUMP JUMPDEST POP DUP4 SLOAD PUSH1 0x1 PUSH1 0x1 PUSH1 0xA0 SHL SUB AND DUP2 PUSH2 0x3132 DUP13 DUP1 PUSH2 0x4CF9 JUMP JUMPDEST SWAP1 PUSH2 0x313D SWAP3 DUP7 PUSH2 0x5538 JUMP JUMPDEST POP DUP12 SLOAD PUSH2 0x3155 SWAP4 PUSH1 0x1 PUSH1 0x1 PUSH1 0xA0 SHL SUB SWAP1 SWAP2 AND SWAP1 PUSH2 0x5538 JUMP JUMPDEST POP SLOAD SWAP4 SLOAD SWAP8 SLOAD PUSH1 0x40 MLOAD PUSH1 0x1 PUSH1 0x1 PUSH1 0xA0 SHL SUB SWAP10 DUP11 AND SWAP11 SWAP6 DUP11 AND SWAP10 SWAP1 SWAP2 AND SWAP7 DUP11 SWAP7 DUP11 SWAP7 DUP9 SWAP4 DUP9 SWAP4 SWAP2 SWAP3 SWAP1 SWAP2 DUP3 SWAP2 PUSH2 0x318C SWAP2 CALLER DUP15 DUP6 PUSH2 0x4D06 JUMP JUMPDEST SUB PUSH0 DUP1 MLOAD PUSH1 0x20 PUSH2 0x56E8 DUP4 CODECOPY DUP2 MLOAD SWAP2 MSTORE SWAP2 LOG4 PUSH1 0x40 MLOAD SWAP2 DUP3 SWAP2 PUSH2 0x31AF SWAP2 CALLER DUP10 DUP6 PUSH2 0x4D06 JUMP JUMPDEST SUB PUSH32 0xF05D33634B730E763D232B482CF835A4481835F62D0A0973B42018A8EAD4F047 SWAP2 LOG4 PUSH1 0x40 DUP1 MLOAD PUSH1 0x1 PUSH1 0x1 PUSH1 0xA0 SHL SUB SWAP3 SWAP1 SWAP3 AND DUP3 MSTORE CALLER PUSH1 0x20 DUP4 ADD MSTORE PUSH32 0xFAEE379435B6A0C297F1A08C66517FDC202DEBC6D275E6DD73630E3EBD1BDD97 SWAP2 LOG4 PUSH1 0x6 SLOAD PUSH2 0x321A SWAP1 PUSH2 0x4BA9 JUMP JUMPDEST PUSH1 0x6 SSTORE PUSH1 0x40 MLOAD PUSH1 0x1 DUP2 MSTORE PUSH1 0x20 SWAP1 RETURN JUMPDEST SWAP4 SWAP3 SWAP2 SWAP8 POP SWAP5 POP PUSH1 0x20 DUP4 RETURNDATASIZE PUSH1 0x20 GT PUSH2 0x3260 JUMPI JUMPDEST DUP2 PUSH2 0x3249 PUSH1 0x20 SWAP4 DUP4 PUSH2 0x49E1 JUMP JUMPDEST DUP2 ADD SUB SLT PUSH2 0xAB1 JUMPI DUP9 SWAP7 DUP8 SWAP4 MLOAD SWAP6 SWAP1 SWAP2 SWAP3 SWAP4 PUSH2 0x30CB JUMP JUMPDEST RETURNDATASIZE SWAP2 POP PUSH2 0x323C JUMP JUMPDEST PUSH1 0x40 MLOAD RETURNDATASIZE DUP13 DUP3 RETURNDATACOPY RETURNDATASIZE SWAP1 REVERT JUMPDEST SWAP1 SWAP4 POP PUSH1 0x20 DUP2 RETURNDATASIZE PUSH1 0x20 GT PUSH2 0x32A0 JUMPI JUMPDEST DUP2 PUSH2 0x328F PUSH1 0x20 SWAP4 DUP4 PUSH2 0x49E1 JUMP JUMPDEST DUP2 ADD SUB SLT PUSH2 0xAB1 JUMPI MLOAD SWAP3 PUSH1 0x20 PUSH2 0x3095 JUMP JUMPDEST RETURNDATASIZE SWAP2 POP PUSH2 0x3282 JUMP JUMPDEST DUP2 PUSH2 0x32B2 SWAP2 PUSH2 0x49E1 JUMP JUMPDEST PUSH2 0x32BD JUMPI DUP4 PUSH0 PUSH2 0x3019 JUMP JUMPDEST DUP4 DUP1 REVERT JUMPDEST POP PUSH1 0x2 DUP3 ADD SLOAD PUSH1 0x1 PUSH1 0x1 PUSH1 0xA0 SHL SUB AND CALLER EQ PUSH2 0x2FC5 JUMP JUMPDEST POP CALLVALUE PUSH2 0x27B JUMPI PUSH1 0x40 CALLDATASIZE PUSH1 0x3 NOT ADD SLT PUSH2 0x27B JUMPI PUSH1 0x20 PUSH2 0x2DB PUSH2 0x32F6 PUSH2 0x4757 JUMP JUMPDEST PUSH1 0x4 CALLDATALOAD PUSH2 0x4F6F JUMP JUMPDEST POP CALLVALUE PUSH2 0x27B JUMPI PUSH1 0x20 CALLDATASIZE PUSH1 0x3 NOT ADD SLT PUSH2 0x27B JUMPI PUSH1 0x40 PUSH1 0xA0 SWAP2 PUSH1 0x4 CALLDATALOAD DUP2 MSTORE PUSH1 0xA PUSH1 0x20 MSTORE KECCAK256 PUSH1 0xFF PUSH1 0x1 DUP3 SLOAD SWAP3 ADD SLOAD PUSH1 0x40 MLOAD SWAP3 DUP4 MSTORE PUSH1 0x1 DUP1 DUP6 SHL SUB DUP2 AND PUSH1 0x20 DUP5 ADD MSTORE DUP2 DUP2 DUP6 SHR AND ISZERO ISZERO PUSH1 0x40 DUP5 ADD MSTORE DUP2 DUP2 PUSH1 0xA8 SHR AND ISZERO ISZERO PUSH1 0x60 DUP5 ADD MSTORE PUSH1 0xB0 SHR AND ISZERO ISZERO PUSH1 0x80 DUP3 ADD MSTORE RETURN JUMPDEST POP CALLVALUE PUSH2 0x27B JUMPI PUSH1 0x20 CALLDATASIZE PUSH1 0x3 NOT ADD SLT PUSH2 0x27B JUMPI PUSH1 0x40 DUP2 PUSH2 0x220 SWAP3 PUSH2 0x200 DUP4 MLOAD PUSH2 0x3389 DUP2 PUSH2 0x49A8 JUMP JUMPDEST DUP3 DUP2 MSTORE DUP3 PUSH1 0x20 DUP3 ADD MSTORE DUP3 DUP6 DUP3 ADD MSTORE DUP3 PUSH1 0x60 DUP3 ADD MSTORE DUP3 PUSH1 0x80 DUP3 ADD MSTORE DUP3 PUSH1 0xA0 DUP3 ADD MSTORE DUP3 PUSH1 0xC0 DUP3 ADD MSTORE DUP3 PUSH1 0xE0 DUP3 ADD MSTORE DUP3 PUSH2 0x100 DUP3 ADD MSTORE DUP3 PUSH2 0x120 DUP3 ADD MSTORE DUP3 PUSH2 0x140 DUP3 ADD MSTORE DUP3 PUSH2 0x160 DUP3 ADD MSTORE DUP3 PUSH2 0x180 DUP3 ADD MSTORE DUP3 PUSH2 0x1A0 DUP3 ADD MSTORE DUP3 PUSH2 0x1C0 DUP3 ADD MSTORE DUP3 PUSH2 0x1E0 DUP3 ADD MSTORE ADD MSTORE PUSH1 0x4 CALLDATALOAD DUP2 MSTORE PUSH1 0x4 PUSH1 0x20 MSTORE KECCAK256 PUSH2 0x34DD PUSH1 0xFF PUSH1 0xC PUSH1 0x40 MLOAD SWAP4 PUSH2 0x340E DUP6 PUSH2 0x49A8 JUMP JUMPDEST DUP1 SLOAD PUSH1 0x1 PUSH1 0x1 PUSH1 0xA0 SHL SUB SWAP1 DUP2 AND DUP7 MSTORE PUSH1 0x1 DUP3 ADD SLOAD DUP2 AND PUSH1 0x20 DUP8 ADD MSTORE PUSH1 0x2 DUP3 ADD SLOAD DUP1 DUP3 AND PUSH1 0x40 DUP9 ADD MSTORE PUSH1 0xA0 DUP2 DUP2 SHR DUP7 AND ISZERO ISZERO PUSH1 0x60 DUP10 ADD MSTORE PUSH1 0xA8 DUP3 SWAP1 SHR DUP7 AND ISZERO ISZERO PUSH1 0x80 DUP10 ADD MSTORE PUSH1 0xB0 DUP3 SWAP1 SHR DUP7 AND ISZERO ISZERO SWAP1 DUP9 ADD MSTORE PUSH1 0xB8 SHR DUP5 AND ISZERO ISZERO PUSH1 0xC0 DUP8 ADD MSTORE PUSH1 0x3 DUP3 ADD SLOAD PUSH1 0xE0 DUP8 ADD MSTORE PUSH1 0x4 DUP3 ADD SLOAD PUSH2 0x100 DUP8 ADD MSTORE PUSH1 0x5 DUP3 ADD SLOAD PUSH2 0x120 DUP8 ADD MSTORE PUSH1 0x6 DUP3 ADD SLOAD PUSH2 0x140 DUP8 ADD MSTORE PUSH1 0x7 DUP3 ADD SLOAD PUSH2 0x160 DUP8 ADD MSTORE PUSH1 0x8 DUP3 ADD SLOAD PUSH2 0x180 DUP8 ADD MSTORE PUSH1 0x9 DUP3 ADD SLOAD DUP2 AND PUSH2 0x1A0 DUP8 ADD MSTORE PUSH1 0xA DUP3 ADD SLOAD AND PUSH2 0x1C0 DUP7 ADD MSTORE PUSH1 0xB DUP2 ADD SLOAD PUSH2 0x1E0 DUP7 ADD MSTORE ADD SLOAD AND PUSH2 0x200 DUP4 ADD PUSH2 0x4D94 JUMP JUMPDEST PUSH2 0x34EA PUSH1 0x40 MLOAD DUP1 SWAP3 PUSH2 0x4827 JUMP JUMPDEST RETURN JUMPDEST POP PUSH1 0x40 CALLDATASIZE PUSH1 0x3 NOT ADD SLT PUSH2 0x27B JUMPI PUSH2 0x3501 PUSH2 0x46BF JUMP JUMPDEST PUSH1 0x24 CALLDATALOAD PUSH2 0x3514 PUSH1 0xFF DUP5 SLOAD PUSH1 0xA0 SHR AND PUSH2 0x4916 JUMP JUMPDEST PUSH2 0x351F DUP2 ISZERO ISZERO PUSH2 0x4E02 JUMP JUMPDEST PUSH1 0x2 SLOAD PUSH1 0x40 MLOAD SWAP1 PUSH4 0x1C8F0847 PUSH1 0xE0 SHL DUP3 MSTORE DUP3 PUSH1 0x4 DUP4 ADD MSTORE PUSH1 0x24 DUP3 ADD MSTORE PUSH1 0x20 DUP2 PUSH1 0x44 DUP2 PUSH20 0x0 GAS DELEGATECALL SWAP1 DUP2 ISZERO PUSH2 0x36A4 JUMPI DUP5 SWAP2 PUSH2 0x3672 JUMPI JUMPDEST POP PUSH1 0x1 PUSH1 0x1 PUSH1 0xA0 SHL SUB DUP4 AND SWAP3 DUP4 PUSH2 0x35CC JUMPI PUSH2 0x3581 DUP3 DUP5 PUSH2 0x4E9B JUMP JUMPDEST CALLVALUE SUB PUSH2 0x141A JUMPI DUP2 DUP2 PUSH2 0x3597 DUP6 PUSH2 0x35A9 SWAP5 CALLER PUSH2 0x5556 JUMP JUMPDEST POP PUSH1 0x3 SLOAD PUSH1 0x1 PUSH1 0x1 PUSH1 0xA0 SHL SUB AND PUSH2 0x5556 JUMP JUMPDEST POP JUMPDEST PUSH1 0x40 MLOAD SWAP2 DUP3 MSTORE PUSH1 0x20 DUP3 ADD MSTORE PUSH0 DUP1 MLOAD PUSH1 0x20 PUSH2 0x5788 DUP4 CODECOPY DUP2 MLOAD SWAP2 MSTORE PUSH1 0x40 CALLER SWAP3 LOG3 DUP1 RETURN JUMPDEST PUSH2 0x35D6 DUP3 DUP5 PUSH2 0x4E9B JUMP JUMPDEST PUSH1 0x40 MLOAD SWAP1 PUSH4 0x23B872DD PUSH1 0xE0 SHL DUP3 MSTORE CALLER PUSH1 0x4 DUP4 ADD MSTORE ADDRESS PUSH1 0x24 DUP4 ADD MSTORE PUSH1 0x44 DUP3 ADD MSTORE PUSH1 0x20 DUP2 PUSH1 0x64 DUP2 DUP10 DUP10 GAS CALL SWAP1 DUP2 ISZERO PUSH2 0x3667 JUMPI DUP7 SWAP2 PUSH2 0x3629 JUMPI JUMPDEST POP ISZERO PUSH2 0x14C4 JUMPI DUP2 DUP2 PUSH2 0x3597 DUP6 PUSH2 0x3623 SWAP5 CALLER PUSH2 0x5556 JUMP JUMPDEST POP PUSH2 0x35AB JUMP JUMPDEST SWAP1 POP PUSH1 0x20 DUP2 RETURNDATASIZE PUSH1 0x20 GT PUSH2 0x365F JUMPI JUMPDEST DUP2 PUSH2 0x3644 PUSH1 0x20 SWAP4 DUP4 PUSH2 0x49E1 JUMP JUMPDEST DUP2 ADD SUB SLT PUSH2 0x365B JUMPI PUSH2 0x3655 SWAP1 PUSH2 0x4A17 JUMP JUMPDEST PUSH0 PUSH2 0x360D JUMP JUMPDEST DUP6 DUP1 REVERT JUMPDEST RETURNDATASIZE SWAP2 POP PUSH2 0x3637 JUMP JUMPDEST PUSH1 0x40 MLOAD RETURNDATASIZE DUP9 DUP3 RETURNDATACOPY RETURNDATASIZE SWAP1 REVERT JUMPDEST SWAP1 POP PUSH1 0x20 DUP2 RETURNDATASIZE PUSH1 0x20 GT PUSH2 0x369C JUMPI JUMPDEST DUP2 PUSH2 0x368D PUSH1 0x20 SWAP4 DUP4 PUSH2 0x49E1 JUMP JUMPDEST DUP2 ADD SUB SLT PUSH2 0xAB1 JUMPI MLOAD PUSH0 PUSH2 0x3566 JUMP JUMPDEST RETURNDATASIZE SWAP2 POP PUSH2 0x3680 JUMP JUMPDEST PUSH1 0x40 MLOAD RETURNDATASIZE DUP7 DUP3 RETURNDATACOPY RETURNDATASIZE SWAP1 REVERT JUMPDEST POP CALLVALUE PUSH2 0x27B JUMPI DUP1 PUSH1 0x3 NOT CALLDATASIZE ADD SLT PUSH2 0x27B JUMPI PUSH1 0xFF PUSH1 0x20 SWAP2 SLOAD PUSH1 0xA0 SHR AND PUSH1 0x40 MLOAD SWAP1 ISZERO ISZERO DUP2 MSTORE RETURN JUMPDEST POP CALLVALUE PUSH2 0x27B JUMPI PUSH1 0x20 CALLDATASIZE PUSH1 0x3 NOT ADD SLT PUSH2 0x27B JUMPI PUSH1 0x40 PUSH1 0x4 CALLDATALOAD SWAP2 DUP3 DUP2 MSTORE PUSH1 0x4 PUSH1 0x20 MSTORE KECCAK256 SWAP1 PUSH1 0x1 DUP3 ADD SWAP2 PUSH2 0x370F PUSH1 0x1 DUP1 PUSH1 0xA0 SHL SUB DUP5 SLOAD AND CALLER EQ PUSH2 0x4BE3 JUMP JUMPDEST PUSH1 0x2 DUP2 ADD SWAP1 PUSH2 0x3728 DUP3 SLOAD PUSH2 0x1A9E PUSH1 0xFF DUP3 PUSH1 0xB0 SHR AND PUSH2 0x4EA8 JUMP JUMPDEST PUSH1 0xA DUP2 ADD SLOAD CALLER PUSH0 SWAP1 DUP2 MSTORE PUSH1 0x1 PUSH1 0x20 SWAP1 DUP2 MSTORE PUSH1 0x40 DUP1 DUP4 KECCAK256 PUSH1 0x1 PUSH1 0x1 PUSH1 0xA0 SHL SUB SWAP1 SWAP5 AND DUP1 DUP5 MSTORE SWAP4 SWAP1 SWAP2 MSTORE SWAP1 KECCAK256 SLOAD PUSH2 0x1B17 SWAP2 PUSH2 0x3768 PUSH1 0x4 DUP6 ADD SLOAD DUP1 SWAP4 LT ISZERO PUSH2 0x4947 JUMP JUMPDEST CALLER PUSH2 0x5491 JUMP JUMPDEST POP CALLVALUE PUSH2 0x27B JUMPI PUSH1 0x20 CALLDATASIZE PUSH1 0x3 NOT ADD SLT PUSH2 0x27B JUMPI PUSH1 0x4 CALLDATALOAD SWAP1 PUSH1 0x2 SLOAD PUSH1 0x40 MLOAD SWAP1 PUSH4 0x1C8F0847 PUSH1 0xE0 SHL DUP3 MSTORE DUP4 PUSH1 0x4 DUP4 ADD MSTORE PUSH1 0x24 DUP3 ADD MSTORE PUSH1 0x20 DUP2 PUSH1 0x44 DUP2 PUSH20 0x0 GAS DELEGATECALL SWAP2 DUP3 ISZERO PUSH2 0xAFD JUMPI SWAP2 PUSH2 0x37DE JUMPI JUMPDEST PUSH1 0x20 PUSH2 0x37D6 DUP4 DUP6 PUSH2 0x4E9B JUMP JUMPDEST PUSH1 0x40 MLOAD SWAP1 DUP2 MSTORE RETURN JUMPDEST SWAP1 POP PUSH1 0x20 DUP2 RETURNDATASIZE PUSH1 0x20 GT PUSH2 0x3809 JUMPI JUMPDEST DUP2 PUSH2 0x37F9 PUSH1 0x20 SWAP4 DUP4 PUSH2 0x49E1 JUMP JUMPDEST DUP2 ADD SUB SLT PUSH2 0xAB1 JUMPI MLOAD PUSH1 0x20 PUSH2 0x37CA JUMP JUMPDEST RETURNDATASIZE SWAP2 POP PUSH2 0x37EC JUMP JUMPDEST POP CALLVALUE PUSH2 0x27B JUMPI DUP1 PUSH1 0x3 NOT CALLDATASIZE ADD SLT PUSH2 0x27B JUMPI DUP1 SLOAD PUSH2 0x3838 CALLER PUSH1 0x1 PUSH1 0x1 PUSH1 0xA0 SHL SUB DUP4 AND EQ PUSH2 0x4DA0 JUMP JUMPDEST PUSH1 0xFF PUSH1 0xA0 SHL NOT AND PUSH1 0x1 PUSH1 0xA0 SHL OR DUP2 SSTORE PUSH1 0x40 MLOAD PUSH1 0x1 DUP2 MSTORE PUSH32 0x17904E4FE7D59BB4603C7C045BC275A05DA9EA3A4AC007FC80FFFEAF119186D SWAP1 PUSH1 0x20 SWAP1 LOG1 DUP1 RETURN JUMPDEST POP PUSH2 0x3881 CALLDATASIZE PUSH2 0x47B7 JUMP JUMPDEST SWAP2 SWAP3 SWAP1 SWAP6 SWAP5 SWAP4 PUSH1 0xFF DUP9 SLOAD PUSH1 0xA0 SHR AND SWAP3 PUSH2 0x3899 DUP5 PUSH2 0x4916 JUMP JUMPDEST CALLER DUP10 MSTORE PUSH1 0x1 PUSH1 0x20 MSTORE PUSH1 0x40 DUP10 KECCAK256 PUSH1 0x1 DUP1 PUSH1 0xA0 SHL SUB DUP7 AND PUSH0 MSTORE PUSH1 0x20 MSTORE PUSH1 0x40 PUSH0 KECCAK256 SLOAD DUP3 DUP2 LT PUSH2 0x3B64 JUMPI JUMPDEST POP PUSH2 0x220 SWAP4 POP PUSH2 0x390B SWAP1 PUSH2 0x38D5 DUP4 DUP8 CALLER PUSH2 0x5491 JUMP JUMPDEST POP PUSH1 0x40 MLOAD PUSH4 0x652E83D7 PUSH1 0xE0 SHL DUP2 MSTORE PUSH20 0x0 SWAP10 SWAP1 SWAP7 DUP8 SWAP6 DUP7 SWAP6 DUP11 DUP13 CALLER PUSH1 0x4 DUP11 ADD PUSH2 0x4E33 JUMP JUMPDEST SUB DUP2 DUP8 GAS DELEGATECALL SWAP1 DUP2 ISZERO PUSH2 0x12F1 JUMPI DUP6 SWAP2 PUSH2 0x3B45 JUMPI JUMPDEST POP PUSH1 0x20 PUSH1 0x5 SLOAD PUSH2 0x244 PUSH1 0x40 MLOAD DUP1 SWAP8 DUP2 SWAP4 PUSH4 0x797D4EE1 PUSH1 0xE0 SHL DUP4 MSTORE PUSH2 0x3945 PUSH1 0x4 DUP5 ADD DUP9 PUSH2 0x4827 JUMP JUMPDEST PUSH2 0x224 DUP4 ADD MSTORE GAS DELEGATECALL SWAP4 DUP5 ISZERO PUSH2 0x12F1 JUMPI DUP6 SWAP5 PUSH2 0x3B11 JUMPI JUMPDEST POP PUSH2 0x3967 PUSH1 0x5 SLOAD PUSH2 0x4BA9 JUMP JUMPDEST PUSH1 0x5 SSTORE DUP4 DUP6 MSTORE PUSH1 0x4 PUSH1 0x20 SWAP1 DUP2 MSTORE PUSH1 0x40 DUP1 DUP8 KECCAK256 DUP4 MLOAD DUP2 SLOAD PUSH1 0x1 PUSH1 0x1 PUSH1 0xA0 SHL SUB SWAP2 DUP3 AND PUSH1 0x1 PUSH1 0x1 PUSH1 0xA0 SHL SUB NOT SWAP2 DUP3 AND OR DUP4 SSTORE SWAP4 DUP6 ADD MLOAD PUSH1 0x1 DUP4 ADD DUP1 SLOAD SWAP2 DUP4 AND SWAP2 SWAP1 SWAP6 AND OR SWAP1 SWAP4 SSTORE SWAP1 DUP4 ADD MLOAD PUSH1 0x2 DUP3 ADD DUP1 SLOAD PUSH1 0x60 DUP7 ADD MLOAD PUSH1 0xFF PUSH1 0xA0 SHL SWAP1 ISZERO ISZERO PUSH1 0xA0 SHL AND SWAP3 SWAP1 SWAP5 AND PUSH1 0x1 PUSH1 0x1 PUSH1 0xA8 SHL SUB NOT SWAP1 SWAP5 AND SWAP4 SWAP1 SWAP4 OR OR DUP3 SSTORE SWAP2 PUSH2 0x200 SWAP2 PUSH2 0x39EC SWAP1 PUSH2 0x1164 JUMP JUMPDEST PUSH1 0xE0 DUP2 ADD MLOAD PUSH1 0x3 DUP5 ADD SSTORE PUSH2 0x100 DUP2 ADD MLOAD PUSH1 0x4 DUP5 ADD SSTORE PUSH2 0x120 DUP2 ADD MLOAD PUSH1 0x5 DUP5 ADD SSTORE PUSH2 0x140 DUP2 ADD MLOAD PUSH1 0x6 DUP1 DUP6 ADD SWAP2 SWAP1 SWAP2 SSTORE PUSH2 0x160 DUP3 ADD MLOAD PUSH1 0x7 DUP6 ADD SSTORE PUSH2 0x180 DUP3 ADD MLOAD PUSH1 0x8 DUP6 ADD SSTORE PUSH2 0x1A0 DUP3 ADD MLOAD PUSH1 0x9 DUP6 ADD DUP1 SLOAD PUSH1 0x1 PUSH1 0x1 PUSH1 0xA0 SHL SUB SWAP3 DUP4 AND PUSH1 0x1 PUSH1 0x1 PUSH1 0xA0 SHL SUB NOT SWAP2 DUP3 AND OR SWAP1 SWAP2 SSTORE PUSH2 0x1C0 DUP5 ADD MLOAD PUSH1 0xA DUP8 ADD DUP1 SLOAD SWAP2 SWAP1 SWAP4 AND SWAP2 AND OR SWAP1 SSTORE PUSH2 0x1E0 DUP3 ADD MLOAD PUSH1 0xB DUP6 ADD SSTORE SWAP2 ADD MLOAD SWAP6 SWAP1 DUP7 LT ISZERO PUSH2 0x12A9 JUMPI POP PUSH1 0x20 SWAP5 PUSH1 0xC PUSH2 0x3A94 SWAP3 ADD PUSH2 0x4BCB JUMP JUMPDEST PUSH1 0x40 MLOAD PUSH1 0x1 PUSH1 0x1 PUSH1 0xA0 SHL SUB SWAP2 DUP3 AND DUP1 DUP3 MSTORE SWAP3 SWAP1 SWAP2 AND SWAP1 CALLER SWAP1 DUP5 SWAP1 PUSH32 0x5E02698C1650D6CBE1F7E8A48609D0DA45AD7F5E4C13CD8B196F82965C0AB0D5 SWAP1 DUP8 SWAP1 LOG4 DUP1 PUSH2 0x3AE2 JUMPI JUMPDEST POP PUSH1 0x40 MLOAD SWAP1 DUP2 MSTORE RETURN JUMPDEST PUSH32 0x957372C0E02D2882134CC0EEBBEF9E446634D8CCBB1CBB112BDEFDD3CF0A643C DUP4 PUSH1 0x40 MLOAD DUP5 DUP2 MSTORE LOG2 PUSH0 PUSH2 0x3AD9 JUMP JUMPDEST SWAP1 SWAP4 POP PUSH1 0x20 DUP2 RETURNDATASIZE PUSH1 0x20 GT PUSH2 0x3B3D JUMPI JUMPDEST DUP2 PUSH2 0x3B2D PUSH1 0x20 SWAP4 DUP4 PUSH2 0x49E1 JUMP JUMPDEST DUP2 ADD SUB SLT PUSH2 0xAB1 JUMPI MLOAD SWAP3 PUSH0 PUSH2 0x395B JUMP JUMPDEST RETURNDATASIZE SWAP2 POP PUSH2 0x3B20 JUMP JUMPDEST PUSH2 0x3B5E SWAP2 POP PUSH2 0x220 RETURNDATASIZE DUP2 GT PUSH2 0x1324 JUMPI PUSH2 0x1316 DUP2 DUP4 PUSH2 0x49E1 JUMP JUMPDEST PUSH0 PUSH2 0x391E JUMP JUMPDEST PUSH2 0x3B71 PUSH2 0x3B77 SWAP2 DUP5 PUSH2 0x4CF9 JUMP JUMPDEST SWAP5 PUSH2 0x4916 JUMP JUMPDEST PUSH2 0x3B82 DUP5 ISZERO ISZERO PUSH2 0x4E02 JUMP JUMPDEST PUSH1 0x2 SLOAD SWAP1 PUSH1 0x40 MLOAD SWAP2 PUSH4 0x1C8F0847 PUSH1 0xE0 SHL DUP4 MSTORE DUP6 PUSH1 0x4 DUP5 ADD MSTORE PUSH1 0x24 DUP4 ADD MSTORE PUSH1 0x20 DUP3 PUSH1 0x44 DUP2 PUSH20 0x0 GAS DELEGATECALL SWAP2 DUP3 ISZERO PUSH2 0x3268 JUMPI DUP11 SWAP3 PUSH2 0x3CF6 JUMPI JUMPDEST POP PUSH1 0x1 PUSH1 0x1 PUSH1 0xA0 SHL SUB DUP7 AND DUP1 PUSH2 0x3C3D JUMPI PUSH2 0x3BE4 DUP4 DUP8 PUSH2 0x4E9B JUMP JUMPDEST CALLVALUE SUB PUSH2 0x141A JUMPI DUP6 PUSH2 0x390B SWAP4 PUSH2 0x3BFD PUSH2 0x220 SWAP9 DUP11 CALLER PUSH2 0x5556 JUMP JUMPDEST POP PUSH1 0x3 SLOAD PUSH2 0x3C17 SWAP1 DUP3 SWAP1 DUP12 SWAP1 PUSH1 0x1 PUSH1 0x1 PUSH1 0xA0 SHL SUB AND PUSH2 0x5556 JUMP JUMPDEST POP JUMPDEST PUSH1 0x40 MLOAD SWAP2 DUP3 MSTORE PUSH1 0x20 DUP3 ADD MSTORE PUSH0 DUP1 MLOAD PUSH1 0x20 PUSH2 0x5788 DUP4 CODECOPY DUP2 MLOAD SWAP2 MSTORE PUSH1 0x40 CALLER SWAP3 LOG3 SWAP1 PUSH2 0x38C0 JUMP JUMPDEST DUP11 PUSH1 0x20 PUSH2 0x3C4A DUP6 DUP10 PUSH2 0x4E9B JUMP JUMPDEST PUSH1 0x64 PUSH1 0x40 MLOAD DUP1 SWAP5 DUP2 SWAP4 PUSH4 0x23B872DD PUSH1 0xE0 SHL DUP4 MSTORE CALLER PUSH1 0x4 DUP5 ADD MSTORE ADDRESS PUSH1 0x24 DUP5 ADD MSTORE PUSH1 0x44 DUP4 ADD MSTORE DUP7 GAS CALL SWAP1 DUP2 ISZERO PUSH2 0xFA3 JUMPI DUP13 SWAP2 PUSH2 0x3CB8 JUMPI JUMPDEST POP ISZERO PUSH2 0x14C4 JUMPI DUP6 PUSH2 0x390B SWAP4 PUSH2 0x3C98 PUSH2 0x220 SWAP9 DUP11 CALLER PUSH2 0x5556 JUMP JUMPDEST POP PUSH1 0x3 SLOAD PUSH2 0x3CB2 SWAP1 DUP3 SWAP1 DUP12 SWAP1 PUSH1 0x1 PUSH1 0x1 PUSH1 0xA0 SHL SUB AND PUSH2 0x5556 JUMP JUMPDEST POP PUSH2 0x3C19 JUMP JUMPDEST SWAP1 POP PUSH1 0x20 DUP2 RETURNDATASIZE PUSH1 0x20 GT PUSH2 0x3CEE JUMPI JUMPDEST DUP2 PUSH2 0x3CD3 PUSH1 0x20 SWAP4 DUP4 PUSH2 0x49E1 JUMP JUMPDEST DUP2 ADD SUB SLT PUSH2 0x3CEA JUMPI PUSH2 0x3CE4 SWAP1 PUSH2 0x4A17 JUMP JUMPDEST PUSH0 PUSH2 0x3C7F JUMP JUMPDEST DUP12 DUP1 REVERT JUMPDEST RETURNDATASIZE SWAP2 POP PUSH2 0x3CC6 JUMP JUMPDEST SWAP1 SWAP2 POP PUSH1 0x20 DUP2 RETURNDATASIZE PUSH1 0x20 GT PUSH2 0x3D22 JUMPI JUMPDEST DUP2 PUSH2 0x3D12 PUSH1 0x20 SWAP4 DUP4 PUSH2 0x49E1 JUMP JUMPDEST DUP2 ADD SUB SLT PUSH2 0xAB1 JUMPI MLOAD SWAP1 PUSH0 PUSH2 0x3BCA JUMP JUMPDEST RETURNDATASIZE SWAP2 POP PUSH2 0x3D05 JUMP JUMPDEST POP CALLVALUE PUSH2 0x27B JUMPI PUSH2 0x220 PUSH2 0x390B PUSH2 0x3D3F CALLDATASIZE PUSH2 0x47B7 JUMP JUMPDEST PUSH2 0x3D57 PUSH1 0xFF DUP12 SWAP11 SWAP7 SWAP5 SWAP8 SWAP9 SWAP10 SWAP4 SWAP11 SLOAD PUSH1 0xA0 SHR AND PUSH2 0x4916 JUMP JUMPDEST CALLER DUP11 MSTORE PUSH1 0x1 PUSH1 0x20 MSTORE PUSH1 0x40 DUP11 KECCAK256 PUSH1 0x1 DUP1 PUSH1 0xA0 SHL SUB DUP8 AND PUSH0 MSTORE PUSH1 0x20 MSTORE PUSH2 0x3D81 DUP4 PUSH1 0x40 PUSH0 KECCAK256 SLOAD LT ISZERO PUSH2 0x4947 JUMP JUMPDEST PUSH2 0x38D5 DUP4 DUP8 CALLER PUSH2 0x5491 JUMP JUMPDEST POP CALLVALUE PUSH2 0x27B JUMPI PUSH1 0x40 CALLDATASIZE PUSH1 0x3 NOT ADD SLT PUSH2 0x27B JUMPI PUSH32 0x14BDAADAED0453E7B5B66195B42156BA995B9E5ABD0DA98368839851D69AD889 PUSH1 0x40 PUSH1 0x4 CALLDATALOAD PUSH2 0x3DCC PUSH2 0x46A9 JUMP JUMPDEST PUSH2 0x3DE0 PUSH1 0x1 DUP1 PUSH1 0xA0 SHL SUB DUP7 SLOAD AND CALLER EQ PUSH2 0x4DA0 JUMP JUMPDEST PUSH1 0x1 PUSH1 0x1 PUSH1 0xA0 SHL SUB AND PUSH2 0x3DF4 DUP2 ISZERO ISZERO PUSH2 0x4DD1 JUMP JUMPDEST PUSH2 0x3E05 PUSH5 0x2540BE400 DUP4 GT ISZERO PUSH2 0x4E02 JUMP JUMPDEST DUP2 PUSH1 0x2 SSTORE DUP1 PUSH12 0xFFFFFFFFFFFFFFFFFFFFFFFF PUSH1 0xA0 SHL PUSH1 0x3 SLOAD AND OR PUSH1 0x3 SSTORE DUP3 MLOAD SWAP2 DUP3 MSTORE PUSH1 0x20 DUP3 ADD MSTORE LOG1 DUP1 RETURN JUMPDEST POP CALLVALUE PUSH2 0x27B JUMPI PUSH1 0x60 CALLDATASIZE PUSH1 0x3 NOT ADD SLT PUSH2 0x27B JUMPI PUSH1 0x24 CALLDATALOAD PUSH1 0x4 CALLDATALOAD PUSH1 0x44 CALLDATALOAD PUSH1 0x6 DUP2 LT ISZERO PUSH2 0x32BD JUMPI DUP2 DUP5 MSTORE PUSH1 0x4 PUSH1 0x20 MSTORE PUSH1 0x40 DUP5 KECCAK256 SWAP2 PUSH1 0x1 DUP4 ADD SWAP2 PUSH1 0x1 DUP1 PUSH1 0xA0 SHL SUB DUP4 SLOAD AND CALLER EQ DUP1 ISZERO PUSH2 0x404A JUMPI JUMPDEST DUP1 ISZERO PUSH2 0x4034 JUMPI JUMPDEST PUSH2 0x3E89 SWAP1 PUSH2 0x4BE3 JUMP JUMPDEST DUP6 PUSH20 0x0 DUP1 EXTCODESIZE ISZERO PUSH2 0xFD2 JUMPI DUP2 PUSH1 0x40 MLOAD DUP1 SWAP3 PUSH4 0x252A867 PUSH1 0xE5 SHL DUP3 MSTORE DUP2 DUP1 PUSH2 0x3EC5 DUP12 PUSH1 0x4 DUP4 ADD PUSH2 0x4C14 JUMP JUMPDEST SUB SWAP2 GAS DELEGATECALL DUP1 ISZERO PUSH2 0xFC7 JUMPI PUSH2 0x401F JUMPI JUMPDEST POP POP DUP5 ISZERO DUP1 ISZERO PUSH2 0x4015 JUMPI JUMPDEST PUSH2 0x3EE8 SWAP1 PUSH2 0x4D62 JUMP JUMPDEST PUSH1 0x40 MLOAD PUSH2 0x3EF4 DUP2 PUSH2 0x4978 JUMP JUMPDEST DUP3 DUP2 MSTORE PUSH1 0x20 DUP2 ADD SWAP6 DUP7 MSTORE PUSH2 0x3F0C PUSH1 0x40 DUP3 ADD SWAP3 DUP4 PUSH2 0x4D94 JUMP JUMPDEST PUSH1 0x60 DUP2 ADD DUP8 DUP2 MSTORE PUSH1 0x80 DUP3 ADD DUP9 DUP2 MSTORE PUSH1 0xA0 DUP4 ADD SWAP2 DUP10 DUP4 MSTORE PUSH1 0x2 PUSH1 0xC0 DUP6 ADD SWAP5 DUP12 DUP7 MSTORE PUSH1 0x7 SLOAD SWAP11 DUP12 DUP14 MSTORE PUSH1 0x9 PUSH1 0x20 MSTORE PUSH1 0x40 DUP14 KECCAK256 SWAP2 MLOAD DUP3 SSTORE MLOAD PUSH1 0x1 DUP3 ADD SSTORE ADD SWAP5 MLOAD SWAP10 PUSH1 0x6 DUP12 LT ISZERO PUSH2 0x12A9 JUMPI POP PUSH2 0x3F60 PUSH1 0x20 SWAP11 DUP7 PUSH2 0x4BCB JUMP JUMPDEST MLOAD DUP5 SLOAD SWAP2 MLOAD SWAP3 MLOAD SWAP4 MLOAD PUSH5 0xFFFFFFFF00 NOT SWAP1 SWAP3 AND SWAP1 ISZERO ISZERO PUSH1 0x8 SHL PUSH2 0xFF00 AND OR SWAP2 ISZERO ISZERO PUSH1 0x10 SHL PUSH3 0xFF0000 AND SWAP2 SWAP1 SWAP2 OR SWAP2 ISZERO ISZERO PUSH1 0x18 SHL PUSH4 0xFF000000 AND SWAP2 SWAP1 SWAP2 OR SWAP1 ISZERO ISZERO DUP8 SHL PUSH5 0xFF00000000 AND OR SWAP1 SSTORE DUP3 SLOAD SWAP2 SLOAD PUSH1 0x2 SWAP1 SWAP4 ADD SLOAD PUSH1 0x40 DUP1 MLOAD PUSH1 0x1 PUSH1 0x1 PUSH1 0xA0 SHL SUB SWAP3 DUP4 AND DUP2 MSTORE CALLER DUP2 DUP10 ADD MSTORE SWAP1 DUP2 ADD DUP7 SWAP1 MSTORE SWAP4 DUP2 AND SWAP4 SWAP3 AND SWAP2 PUSH32 0x867051316D0AAFC6BF3704F0B32FA0E735BB03D37318B95179BDC1C5017467C0 SWAP1 PUSH1 0x60 SWAP1 LOG4 PUSH2 0x400A PUSH1 0x7 SLOAD PUSH2 0x4BA9 JUMP JUMPDEST PUSH1 0x7 SSTORE PUSH1 0x40 MLOAD SWAP1 DUP2 MSTORE RETURN JUMPDEST POP TIMESTAMP DUP6 GT ISZERO PUSH2 0x3EDF JUMP JUMPDEST DUP2 PUSH2 0x4029 SWAP2 PUSH2 0x49E1 JUMP JUMPDEST PUSH2 0x365B JUMPI DUP6 PUSH0 PUSH2 0x3ED4 JUMP JUMPDEST POP PUSH1 0x2 DUP5 ADD SLOAD PUSH1 0x1 PUSH1 0x1 PUSH1 0xA0 SHL SUB AND CALLER EQ PUSH2 0x3E80 JUMP JUMPDEST POP DUP4 SLOAD PUSH1 0x1 PUSH1 0x1 PUSH1 0xA0 SHL SUB AND CALLER EQ PUSH2 0x3E79 JUMP JUMPDEST POP PUSH2 0x4067 CALLDATASIZE PUSH2 0x4789 JUMP JUMPDEST DUP4 DUP6 SWAP5 SWAP4 SWAP3 SWAP5 MSTORE PUSH1 0x4 PUSH1 0x20 MSTORE PUSH1 0x40 DUP6 KECCAK256 SWAP1 PUSH1 0x1 DUP3 ADD SWAP5 PUSH2 0x4091 PUSH1 0x1 DUP1 PUSH1 0xA0 SHL SUB DUP8 SLOAD AND CALLER EQ PUSH2 0x4BE3 JUMP JUMPDEST DUP7 PUSH20 0x0 DUP1 EXTCODESIZE ISZERO PUSH2 0xFD2 JUMPI DUP2 PUSH1 0x40 MLOAD DUP1 SWAP3 PUSH4 0x252A867 PUSH1 0xE5 SHL DUP3 MSTORE DUP2 DUP1 PUSH2 0x40CD DUP11 PUSH1 0x4 DUP4 ADD PUSH2 0x4C14 JUMP JUMPDEST SUB SWAP2 GAS DELEGATECALL DUP1 ISZERO PUSH2 0xFC7 JUMPI PUSH2 0x4220 JUMPI JUMPDEST POP POP PUSH1 0x2 DUP4 ADD SWAP7 PUSH2 0x40F4 PUSH1 0xFF DUP10 SLOAD PUSH1 0xB0 SHR AND ISZERO PUSH2 0x4D30 JUMP JUMPDEST CALLER DUP2 MSTORE PUSH1 0x1 PUSH1 0x20 MSTORE PUSH1 0x40 DUP2 KECCAK256 PUSH1 0x1 DUP1 PUSH1 0xA0 SHL SUB DUP7 AND PUSH0 MSTORE PUSH1 0x20 MSTORE PUSH1 0x40 PUSH0 KECCAK256 SLOAD DUP3 DUP2 LT PUSH2 0x413B JUMPI POP POP SWAP1 DUP2 DUP5 PUSH2 0x2D03 PUSH1 0x20 SWAP6 SWAP5 PUSH0 DUP1 MLOAD PUSH1 0x20 PUSH2 0x57A8 DUP4 CODECOPY DUP2 MLOAD SWAP2 MSTORE SWAP8 CALLER PUSH2 0x5491 JUMP JUMPDEST PUSH2 0x4149 SWAP1 DUP4 SWAP3 SWAP6 SWAP5 SWAP4 PUSH2 0x4CF9 JUMP JUMPDEST SWAP5 PUSH2 0x415A PUSH1 0xFF DUP7 SLOAD PUSH1 0xA0 SHR AND PUSH2 0x4916 JUMP JUMPDEST PUSH2 0x4165 DUP7 ISZERO ISZERO PUSH2 0x4E02 JUMP JUMPDEST PUSH1 0x2 SLOAD SWAP5 PUSH1 0x40 MLOAD SWAP6 PUSH4 0x1C8F0847 PUSH1 0xE0 SHL DUP8 MSTORE DUP8 PUSH1 0x4 DUP9 ADD MSTORE PUSH1 0x24 DUP8 ADD MSTORE PUSH1 0x20 DUP7 PUSH1 0x44 DUP2 PUSH20 0x0 GAS DELEGATECALL SWAP6 DUP7 ISZERO PUSH2 0x1D73 JUMPI DUP2 SWAP7 PUSH2 0x41EC JUMPI JUMPDEST POP PUSH1 0x1 PUSH1 0x1 PUSH1 0xA0 SHL SUB DUP3 AND SWAP1 DUP2 PUSH2 0x2E5E JUMPI POP PUSH2 0x41C9 DUP7 DUP9 PUSH2 0x4E9B JUMP JUMPDEST CALLVALUE SUB PUSH2 0x141A JUMPI DUP7 PUSH1 0x20 SWAP7 PUSH2 0x2E1A PUSH0 DUP1 MLOAD PUSH1 0x20 PUSH2 0x57A8 DUP4 CODECOPY DUP2 MLOAD SWAP2 MSTORE SWAP10 DUP6 CALLER PUSH2 0x5556 JUMP JUMPDEST SWAP1 SWAP6 POP PUSH1 0x20 DUP2 RETURNDATASIZE PUSH1 0x20 GT PUSH2 0x4218 JUMPI JUMPDEST DUP2 PUSH2 0x4208 PUSH1 0x20 SWAP4 DUP4 PUSH2 0x49E1 JUMP JUMPDEST DUP2 ADD SUB SLT PUSH2 0xAB1 JUMPI MLOAD SWAP5 PUSH0 PUSH2 0x41AD JUMP JUMPDEST RETURNDATASIZE SWAP2 POP PUSH2 0x41FB JUMP JUMPDEST DUP2 PUSH2 0x422A SWAP2 PUSH2 0x49E1 JUMP JUMPDEST PUSH2 0x2F84 JUMPI DUP7 PUSH0 PUSH2 0x40DC JUMP JUMPDEST POP CALLVALUE PUSH2 0x27B JUMPI DUP1 PUSH1 0x3 NOT CALLDATASIZE ADD SLT PUSH2 0x27B JUMPI PUSH1 0x3 SLOAD PUSH1 0x40 MLOAD PUSH1 0x1 PUSH1 0x1 PUSH1 0xA0 SHL SUB SWAP1 SWAP2 AND DUP2 MSTORE PUSH1 0x20 SWAP1 RETURN JUMPDEST POP CALLVALUE PUSH2 0x27B JUMPI DUP1 PUSH1 0x3 NOT CALLDATASIZE ADD SLT PUSH2 0x27B JUMPI PUSH1 0x20 PUSH1 0x8 SLOAD PUSH1 0x40 MLOAD SWAP1 DUP2 MSTORE RETURN JUMPDEST POP CALLVALUE PUSH2 0xAB1 JUMPI PUSH2 0x428B CALLDATASIZE PUSH2 0x4766 JUMP JUMPDEST SWAP3 SWAP2 SWAP1 DUP2 PUSH0 MSTORE PUSH1 0x4 PUSH1 0x20 MSTORE PUSH1 0x40 PUSH0 KECCAK256 SWAP1 PUSH1 0x1 DUP3 ADD SWAP4 PUSH1 0x1 DUP1 PUSH1 0xA0 SHL SUB DUP6 SLOAD AND CALLER EQ DUP1 ISZERO PUSH2 0x4403 JUMPI JUMPDEST PUSH2 0x42BC SWAP1 PUSH2 0x4BE3 JUMP JUMPDEST PUSH20 0x0 DUP1 EXTCODESIZE ISZERO PUSH2 0xAB1 JUMPI PUSH0 PUSH1 0x40 MLOAD DUP1 SWAP3 PUSH4 0x252A867 PUSH1 0xE5 SHL DUP3 MSTORE DUP2 DUP1 PUSH2 0x42F7 DUP10 PUSH1 0x4 DUP4 ADD PUSH2 0x4C14 JUMP JUMPDEST SUB SWAP2 GAS DELEGATECALL DUP1 ISZERO PUSH2 0x43F8 JUMPI PUSH2 0x43E5 JUMPI JUMPDEST POP PUSH1 0x6 DUP4 ADD PUSH2 0x431C DUP4 DUP3 SLOAD PUSH2 0x177D DUP3 DUP3 LT PUSH2 0x4947 JUMP JUMPDEST SWAP1 SSTORE PUSH1 0x1 DUP1 PUSH1 0xA0 SHL SUB PUSH1 0xA DUP5 ADD SLOAD AND PUSH1 0x8 DUP5 ADD SLOAD PUSH1 0x40 MLOAD SWAP1 PUSH4 0x1C8F0847 PUSH1 0xE0 SHL DUP3 MSTORE DUP5 PUSH1 0x4 DUP4 ADD MSTORE PUSH1 0x24 DUP3 ADD MSTORE PUSH1 0x20 DUP2 PUSH1 0x44 DUP2 PUSH20 0x0 GAS DELEGATECALL SWAP3 DUP4 ISZERO PUSH2 0xAFD JUMPI SWAP3 PUSH2 0x43A4 JUMPI JUMPDEST POP PUSH0 DUP1 MLOAD PUSH1 0x20 PUSH2 0x56E8 DUP4 CODECOPY DUP2 MLOAD SWAP2 MSTORE SWAP4 PUSH2 0x182C DUP4 DUP4 PUSH2 0x1816 DUP12 PUSH2 0x5FD SWAP7 PUSH1 0x1 DUP1 PUSH1 0xA0 SHL SUB DUP8 SLOAD AND PUSH2 0x1810 DUP7 DUP13 PUSH2 0x4CF9 JUMP JUMPDEST SWAP1 SWAP2 POP PUSH1 0x20 DUP2 RETURNDATASIZE PUSH1 0x20 GT PUSH2 0x43DD JUMPI JUMPDEST DUP2 PUSH2 0x43C0 PUSH1 0x20 SWAP4 DUP4 PUSH2 0x49E1 JUMP JUMPDEST DUP2 ADD SUB SLT PUSH2 0xAB1 JUMPI MLOAD SWAP1 PUSH0 DUP1 MLOAD PUSH1 0x20 PUSH2 0x56E8 DUP4 CODECOPY DUP2 MLOAD SWAP2 MSTORE PUSH2 0x4373 JUMP JUMPDEST RETURNDATASIZE SWAP2 POP PUSH2 0x43B3 JUMP JUMPDEST PUSH2 0x43F1 SWAP2 POP PUSH0 SWAP1 PUSH2 0x49E1 JUMP JUMPDEST PUSH0 DUP1 PUSH2 0x4306 JUMP JUMPDEST PUSH1 0x40 MLOAD RETURNDATASIZE PUSH0 DUP3 RETURNDATACOPY RETURNDATASIZE SWAP1 REVERT JUMPDEST POP PUSH1 0x2 DUP4 ADD SLOAD PUSH1 0x1 PUSH1 0x1 PUSH1 0xA0 SHL SUB AND CALLER EQ PUSH2 0x42B3 JUMP JUMPDEST CALLVALUE PUSH2 0xAB1 JUMPI PUSH2 0x220 PUSH2 0x44B5 PUSH2 0x442D CALLDATASIZE PUSH2 0x46D5 JUMP JUMPDEST SWAP3 PUSH2 0x444B PUSH1 0xFF PUSH0 SWAP14 SWAP10 SWAP8 SWAP14 SWAP13 SWAP7 SWAP13 SWAP12 SWAP11 SWAP12 SWAP5 SWAP4 SWAP5 SLOAD PUSH1 0xA0 SHR AND PUSH2 0x4916 JUMP JUMPDEST CALLER PUSH0 MSTORE PUSH1 0x1 PUSH1 0x20 MSTORE PUSH1 0x40 PUSH0 KECCAK256 PUSH1 0x1 DUP1 PUSH1 0xA0 SHL SUB DUP3 AND PUSH0 MSTORE PUSH1 0x20 MSTORE PUSH2 0x4475 DUP7 PUSH1 0x40 PUSH0 KECCAK256 SLOAD LT ISZERO PUSH2 0x4947 JUMP JUMPDEST PUSH2 0x4480 DUP7 DUP3 CALLER PUSH2 0x5491 JUMP JUMPDEST POP PUSH20 0x0 SWAP11 PUSH1 0x40 MLOAD SWAP13 DUP14 SWAP9 DUP10 SWAP9 PUSH4 0x652E83D7 PUSH1 0xE0 SHL DUP11 MSTORE DUP14 DUP14 CALLER PUSH1 0x4 DUP14 ADD PUSH2 0x4B3D JUMP JUMPDEST SUB DUP2 DUP7 GAS DELEGATECALL SWAP4 DUP5 ISZERO PUSH2 0x43F8 JUMPI PUSH0 SWAP5 PUSH2 0x4688 JUMPI JUMPDEST POP PUSH1 0x20 PUSH1 0x5 SLOAD PUSH2 0x244 PUSH1 0x40 MLOAD DUP1 SWAP7 DUP2 SWAP4 PUSH4 0x797D4EE1 PUSH1 0xE0 SHL DUP4 MSTORE PUSH2 0x44EF PUSH1 0x4 DUP5 ADD DUP12 PUSH2 0x4827 JUMP JUMPDEST PUSH2 0x224 DUP4 ADD MSTORE GAS DELEGATECALL SWAP3 DUP4 ISZERO PUSH2 0x43F8 JUMPI PUSH0 SWAP4 PUSH2 0x4654 JUMPI JUMPDEST POP PUSH2 0x4511 PUSH1 0x5 SLOAD PUSH2 0x4BA9 JUMP JUMPDEST PUSH1 0x5 SSTORE PUSH0 DUP4 DUP2 MSTORE PUSH1 0x4 PUSH1 0x20 SWAP1 DUP2 MSTORE PUSH1 0x40 SWAP2 DUP3 SWAP1 KECCAK256 DUP7 MLOAD DUP2 SLOAD PUSH1 0x1 PUSH1 0x1 PUSH1 0xA0 SHL SUB SWAP2 DUP3 AND PUSH1 0x1 PUSH1 0x1 PUSH1 0xA0 SHL SUB NOT SWAP2 DUP3 AND OR DUP4 SSTORE SWAP3 DUP9 ADD MLOAD PUSH1 0x1 DUP4 ADD DUP1 SLOAD SWAP2 DUP4 AND SWAP2 SWAP1 SWAP5 AND OR SWAP1 SWAP3 SSTORE SWAP2 DUP7 ADD MLOAD PUSH1 0x2 DUP4 ADD DUP1 SLOAD PUSH1 0x60 DUP10 ADD MLOAD PUSH1 0xFF PUSH1 0xA0 SHL SWAP1 ISZERO ISZERO PUSH1 0xA0 SHL AND SWAP3 SWAP1 SWAP4 AND PUSH1 0x1 PUSH1 0x1 PUSH1 0xA8 SHL SUB NOT SWAP1 SWAP4 AND SWAP3 SWAP1 SWAP3 OR OR DUP2 SSTORE SWAP1 SWAP5 PUSH2 0x200 SWAP2 PUSH2 0x4599 SWAP1 PUSH2 0x1164 JUMP JUMPDEST PUSH1 0xE0 DUP2 ADD MLOAD PUSH1 0x3 DUP8 ADD SSTORE PUSH2 0x100 DUP2 ADD MLOAD PUSH1 0x4 DUP8 ADD SSTORE PUSH2 0x120 DUP2 ADD MLOAD PUSH1 0x5 DUP8 ADD SSTORE PUSH2 0x140 DUP2 ADD MLOAD PUSH1 0x6 DUP1 DUP9 ADD SWAP2 SWAP1 SWAP2 SSTORE PUSH2 0x160 DUP3 ADD MLOAD PUSH1 0x7 DUP9 ADD SSTORE PUSH2 0x180 DUP3 ADD MLOAD PUSH1 0x8 DUP9 ADD SSTORE PUSH2 0x1A0 DUP3 ADD MLOAD PUSH1 0x9 DUP9 ADD DUP1 SLOAD PUSH1 0x1 PUSH1 0x1 PUSH1 0xA0 SHL SUB SWAP3 DUP4 AND PUSH1 0x1 PUSH1 0x1 PUSH1 0xA0 SHL SUB NOT SWAP2 DUP3 AND OR SWAP1 SWAP2 SSTORE PUSH2 0x1C0 DUP5 ADD MLOAD PUSH1 0xA DUP11 ADD DUP1 SLOAD SWAP2 SWAP1 SWAP4 AND SWAP2 AND OR SWAP1 SSTORE PUSH2 0x1E0 DUP3 ADD MLOAD PUSH1 0xB DUP9 ADD SSTORE SWAP2 ADD MLOAD SWAP5 SWAP1 DUP6 LT ISZERO PUSH2 0x4640 JUMPI PUSH1 0x20 SWAP5 PUSH1 0xC PUSH2 0x1265 SWAP3 ADD PUSH2 0x4BCB JUMP JUMPDEST PUSH4 0x4E487B71 PUSH1 0xE0 SHL PUSH0 MSTORE PUSH1 0x21 PUSH1 0x4 MSTORE PUSH1 0x24 PUSH0 REVERT JUMPDEST SWAP1 SWAP3 POP PUSH1 0x20 DUP2 RETURNDATASIZE PUSH1 0x20 GT PUSH2 0x4680 JUMPI JUMPDEST DUP2 PUSH2 0x4670 PUSH1 0x20 SWAP4 DUP4 PUSH2 0x49E1 JUMP JUMPDEST DUP2 ADD SUB SLT PUSH2 0xAB1 JUMPI MLOAD SWAP2 DUP5 PUSH2 0x4505 JUMP JUMPDEST RETURNDATASIZE SWAP2 POP PUSH2 0x4663 JUMP JUMPDEST PUSH2 0x46A2 SWAP2 SWAP5 POP PUSH2 0x220 RETURNDATASIZE DUP2 GT PUSH2 0x1324 JUMPI PUSH2 0x1316 DUP2 DUP4 PUSH2 0x49E1 JUMP JUMPDEST SWAP3 DUP5 PUSH2 0x44C8 JUMP JUMPDEST PUSH1 0x24 CALLDATALOAD SWAP1 PUSH1 0x1 PUSH1 0x1 PUSH1 0xA0 SHL SUB DUP3 AND DUP3 SUB PUSH2 0xAB1 JUMPI JUMP JUMPDEST PUSH1 0x4 CALLDATALOAD SWAP1 PUSH1 0x1 PUSH1 0x1 PUSH1 0xA0 SHL SUB DUP3 AND DUP3 SUB PUSH2 0xAB1 JUMPI JUMP JUMPDEST PUSH2 0x140 SWAP1 PUSH1 0x3 NOT ADD SLT PUSH2 0xAB1 JUMPI PUSH1 0x4 CALLDATALOAD PUSH1 0x1 PUSH1 0x1 PUSH1 0xA0 SHL SUB DUP2 AND DUP2 SUB PUSH2 0xAB1 JUMPI SWAP1 PUSH1 0x24 CALLDATALOAD PUSH1 0x1 PUSH1 0x1 PUSH1 0xA0 SHL SUB DUP2 AND DUP2 SUB PUSH2 0xAB1 JUMPI SWAP1 PUSH1 0x44 CALLDATALOAD SWAP1 PUSH1 0x64 CALLDATALOAD SWAP1 PUSH1 0x84 CALLDATALOAD SWAP1 PUSH1 0xA4 CALLDATALOAD SWAP1 PUSH1 0xC4 CALLDATALOAD PUSH1 0x1 PUSH1 0x1 PUSH1 0xA0 SHL SUB DUP2 AND DUP2 SUB PUSH2 0xAB1 JUMPI SWAP1 PUSH1 0xE4 CALLDATALOAD PUSH1 0x1 PUSH1 0x1 PUSH1 0xA0 SHL SUB DUP2 AND DUP2 SUB PUSH2 0xAB1 JUMPI SWAP1 PUSH2 0x104 CALLDATALOAD SWAP1 PUSH2 0x124 CALLDATALOAD PUSH1 0x6 DUP2 LT ISZERO PUSH2 0xAB1 JUMPI SWAP1 JUMP JUMPDEST PUSH1 0x24 CALLDATALOAD SWAP1 DUP2 ISZERO ISZERO DUP3 SUB PUSH2 0xAB1 JUMPI JUMP JUMPDEST PUSH1 0x60 SWAP1 PUSH1 0x3 NOT ADD SLT PUSH2 0xAB1 JUMPI PUSH1 0x4 CALLDATALOAD SWAP1 PUSH1 0x24 CALLDATALOAD SWAP1 PUSH1 0x44 CALLDATALOAD DUP1 ISZERO ISZERO DUP2 SUB PUSH2 0xAB1 JUMPI SWAP1 JUMP JUMPDEST PUSH1 0x80 SWAP1 PUSH1 0x3 NOT ADD SLT PUSH2 0xAB1 JUMPI PUSH1 0x4 CALLDATALOAD SWAP1 PUSH1 0x24 CALLDATALOAD PUSH1 0x1 PUSH1 0x1 PUSH1 0xA0 SHL SUB DUP2 AND DUP2 SUB PUSH2 0xAB1 JUMPI SWAP1 PUSH1 0x44 CALLDATALOAD SWAP1 PUSH1 0x64 CALLDATALOAD SWAP1 JUMP JUMPDEST PUSH1 0xE0 SWAP1 PUSH1 0x3 NOT ADD SLT PUSH2 0xAB1 JUMPI PUSH1 0x4 CALLDATALOAD PUSH1 0x1 PUSH1 0x1 PUSH1 0xA0 SHL SUB DUP2 AND DUP2 SUB PUSH2 0xAB1 JUMPI SWAP1 PUSH1 0x24 CALLDATALOAD PUSH1 0x1 PUSH1 0x1 PUSH1 0xA0 SHL SUB DUP2 AND DUP2 SUB PUSH2 0xAB1 JUMPI SWAP1 PUSH1 0x44 CALLDATALOAD SWAP1 PUSH1 0x64 CALLDATALOAD SWAP1 PUSH1 0x84 CALLDATALOAD PUSH1 0x1 PUSH1 0x1 PUSH1 0xA0 SHL SUB DUP2 AND DUP2 SUB PUSH2 0xAB1 JUMPI SWAP1 PUSH1 0xA4 CALLDATALOAD SWAP1 PUSH1 0xC4 CALLDATALOAD PUSH1 0x6 DUP2 LT ISZERO PUSH2 0xAB1 JUMPI SWAP1 JUMP JUMPDEST SWAP1 PUSH1 0x6 DUP3 LT ISZERO PUSH2 0x4640 JUMPI MSTORE JUMP JUMPDEST SWAP1 PUSH2 0x200 DUP1 PUSH2 0x4914 SWAP4 PUSH1 0x1 DUP1 PUSH1 0xA0 SHL SUB DUP2 MLOAD AND DUP5 MSTORE PUSH1 0x1 DUP1 PUSH1 0xA0 SHL SUB PUSH1 0x20 DUP3 ADD MLOAD AND PUSH1 0x20 DUP6 ADD MSTORE PUSH1 0x1 DUP1 PUSH1 0xA0 SHL SUB PUSH1 0x40 DUP3 ADD MLOAD AND PUSH1 0x40 DUP6 ADD MSTORE PUSH1 0x60 DUP2 ADD MLOAD ISZERO ISZERO PUSH1 0x60 DUP6 ADD MSTORE PUSH1 0x80 DUP2 ADD MLOAD ISZERO ISZERO PUSH1 0x80 DUP6 ADD MSTORE PUSH1 0xA0 DUP2 ADD MLOAD ISZERO ISZERO PUSH1 0xA0 DUP6 ADD MSTORE PUSH1 0xC0 DUP2 ADD MLOAD ISZERO ISZERO PUSH1 0xC0 DUP6 ADD MSTORE PUSH1 0xE0 DUP2 ADD MLOAD PUSH1 0xE0 DUP6 ADD MSTORE PUSH2 0x100 DUP2 ADD MLOAD PUSH2 0x100 DUP6 ADD MSTORE PUSH2 0x120 DUP2 ADD MLOAD PUSH2 0x120 DUP6 ADD MSTORE PUSH2 0x140 DUP2 ADD MLOAD PUSH2 0x140 DUP6 ADD MSTORE PUSH2 0x160 DUP2 ADD MLOAD PUSH2 0x160 DUP6 ADD MSTORE PUSH2 0x180 DUP2 ADD MLOAD PUSH2 0x180 DUP6 ADD MSTORE PUSH1 0x1 DUP1 PUSH1 0xA0 SHL SUB PUSH2 0x1A0 DUP3 ADD MLOAD AND PUSH2 0x1A0 DUP6 ADD MSTORE PUSH1 0x1 DUP1 PUSH1 0xA0 SHL SUB PUSH2 0x1C0 DUP3 ADD MLOAD AND PUSH2 0x1C0 DUP6 ADD MSTORE PUSH2 0x1E0 DUP2 ADD MLOAD PUSH2 0x1E0 DUP6 ADD MSTORE ADD MLOAD SWAP2 ADD SWAP1 PUSH2 0x481A JUMP JUMPDEST JUMP JUMPDEST ISZERO PUSH2 0x491D JUMPI JUMP JUMPDEST PUSH1 0x40 MLOAD PUSH3 0x461BCD PUSH1 0xE5 SHL DUP2 MSTORE PUSH1 0x20 PUSH1 0x4 DUP3 ADD MSTORE PUSH1 0x2 PUSH1 0x24 DUP3 ADD MSTORE PUSH2 0x4C31 PUSH1 0xF0 SHL PUSH1 0x44 DUP3 ADD MSTORE PUSH1 0x64 SWAP1 REVERT JUMPDEST ISZERO PUSH2 0x494E JUMPI JUMP JUMPDEST PUSH1 0x40 MLOAD PUSH3 0x461BCD PUSH1 0xE5 SHL DUP2 MSTORE PUSH1 0x20 PUSH1 0x4 DUP3 ADD MSTORE PUSH1 0x2 PUSH1 0x24 DUP3 ADD MSTORE PUSH2 0x5431 PUSH1 0xF0 SHL PUSH1 0x44 DUP3 ADD MSTORE PUSH1 0x64 SWAP1 REVERT JUMPDEST PUSH1 0xE0 DUP2 ADD SWAP1 DUP2 LT PUSH8 0xFFFFFFFFFFFFFFFF DUP3 GT OR PUSH2 0x4994 JUMPI PUSH1 0x40 MSTORE JUMP JUMPDEST PUSH4 0x4E487B71 PUSH1 0xE0 SHL PUSH0 MSTORE PUSH1 0x41 PUSH1 0x4 MSTORE PUSH1 0x24 PUSH0 REVERT JUMPDEST PUSH2 0x220 DUP2 ADD SWAP1 DUP2 LT PUSH8 0xFFFFFFFFFFFFFFFF DUP3 GT OR PUSH2 0x4994 JUMPI PUSH1 0x40 MSTORE JUMP JUMPDEST PUSH1 0xA0 DUP2 ADD SWAP1 DUP2 LT PUSH8 0xFFFFFFFFFFFFFFFF DUP3 GT OR PUSH2 0x4994 JUMPI PUSH1 0x40 MSTORE JUMP JUMPDEST SWAP1 PUSH1 0x1F DUP1 NOT SWAP2 ADD AND DUP2 ADD SWAP1 DUP2 LT PUSH8 0xFFFFFFFFFFFFFFFF DUP3 GT OR PUSH2 0x4994 JUMPI PUSH1 0x40 MSTORE JUMP JUMPDEST MLOAD SWAP1 PUSH1 0x1 PUSH1 0x1 PUSH1 0xA0 SHL SUB DUP3 AND DUP3 SUB PUSH2 0xAB1 JUMPI JUMP JUMPDEST MLOAD SWAP1 DUP2 ISZERO ISZERO DUP3 SUB PUSH2 0xAB1 JUMPI JUMP JUMPDEST SWAP1 DUP2 PUSH2 0x220 SWAP2 SUB SLT PUSH2 0xAB1 JUMPI PUSH2 0x200 PUSH1 0x40 MLOAD SWAP2 PUSH2 0x4A40 DUP4 PUSH2 0x49A8 JUMP JUMPDEST PUSH2 0x4A49 DUP2 PUSH2 0x4A03 JUMP JUMPDEST DUP4 MSTORE PUSH2 0x4A57 PUSH1 0x20 DUP3 ADD PUSH2 0x4A03 JUMP JUMPDEST PUSH1 0x20 DUP5 ADD MSTORE PUSH2 0x4A68 PUSH1 0x40 DUP3 ADD PUSH2 0x4A03 JUMP JUMPDEST PUSH1 0x40 DUP5 ADD MSTORE PUSH2 0x4A79 PUSH1 0x60 DUP3 ADD PUSH2 0x4A17 JUMP JUMPDEST PUSH1 0x60 DUP5 ADD MSTORE PUSH2 0x4A8A PUSH1 0x80 DUP3 ADD PUSH2 0x4A17 JUMP JUMPDEST PUSH1 0x80 DUP5 ADD MSTORE PUSH2 0x4A9B PUSH1 0xA0 DUP3 ADD PUSH2 0x4A17 JUMP JUMPDEST PUSH1 0xA0 DUP5 ADD MSTORE PUSH2 0x4AAC PUSH1 0xC0 DUP3 ADD PUSH2 0x4A17 JUMP JUMPDEST PUSH1 0xC0 DUP5 ADD MSTORE PUSH1 0xE0 DUP2 ADD MLOAD PUSH1 0xE0 DUP5 ADD MSTORE PUSH2 0x100 DUP2 ADD MLOAD PUSH2 0x100 DUP5 ADD MSTORE PUSH2 0x120 DUP2 ADD MLOAD PUSH2 0x120 DUP5 ADD MSTORE PUSH2 0x140 DUP2 ADD MLOAD PUSH2 0x140 DUP5 ADD MSTORE PUSH2 0x160 DUP2 ADD MLOAD PUSH2 0x160 DUP5 ADD MSTORE PUSH2 0x180 DUP2 ADD MLOAD PUSH2 0x180 DUP5 ADD MSTORE PUSH2 0x4B04 PUSH2 0x1A0 DUP3 ADD PUSH2 0x4A03 JUMP JUMPDEST PUSH2 0x1A0 DUP5 ADD MSTORE PUSH2 0x4B17 PUSH2 0x1C0 DUP3 ADD PUSH2 0x4A03 JUMP JUMPDEST PUSH2 0x1C0 DUP5 ADD MSTORE PUSH2 0x1E0 DUP2 ADD MLOAD PUSH2 0x1E0 DUP5 ADD MSTORE ADD MLOAD PUSH1 0x6 DUP2 LT ISZERO PUSH2 0xAB1 JUMPI PUSH2 0x200 DUP3 ADD MSTORE SWAP1 JUMP JUMPDEST PUSH1 0x1 PUSH1 0x1 PUSH1 0xA0 SHL SUB SWAP2 DUP3 AND DUP2 MSTORE SWAP2 DUP2 AND PUSH1 0x20 DUP4 ADD MSTORE SWAP2 DUP3 AND PUSH1 0x40 DUP3 ADD MSTORE PUSH1 0x60 DUP2 ADD SWAP3 SWAP1 SWAP3 MSTORE PUSH1 0x80 DUP3 ADD SWAP3 SWAP1 SWAP3 MSTORE PUSH1 0xA0 DUP2 ADD SWAP3 SWAP1 SWAP3 MSTORE PUSH1 0xC0 DUP3 ADD SWAP3 SWAP1 SWAP3 MSTORE SWAP2 DUP2 AND PUSH1 0xE0 DUP4 ADD MSTORE SWAP1 SWAP2 AND PUSH2 0x100 DUP3 ADD MSTORE PUSH2 0x120 DUP2 ADD SWAP2 SWAP1 SWAP2 MSTORE PUSH2 0x160 DUP2 ADD SWAP3 SWAP2 PUSH2 0x4914 SWAP2 PUSH2 0x140 ADD SWAP1 PUSH2 0x481A JUMP JUMPDEST PUSH0 NOT DUP2 EQ PUSH2 0x4BB7 JUMPI PUSH1 0x1 ADD SWAP1 JUMP JUMPDEST PUSH4 0x4E487B71 PUSH1 0xE0 SHL PUSH0 MSTORE PUSH1 0x11 PUSH1 0x4 MSTORE PUSH1 0x24 PUSH0 REVERT JUMPDEST SWAP1 PUSH1 0x6 DUP2 LT ISZERO PUSH2 0x4640 JUMPI PUSH1 0xFF DUP1 NOT DUP4 SLOAD AND SWAP2 AND OR SWAP1 SSTORE JUMP JUMPDEST ISZERO PUSH2 0x4BEA JUMPI JUMP JUMPDEST PUSH1 0x40 MLOAD PUSH3 0x461BCD PUSH1 0xE5 SHL DUP2 MSTORE PUSH1 0x20 PUSH1 0x4 DUP3 ADD MSTORE PUSH1 0x2 PUSH1 0x24 DUP3 ADD MSTORE PUSH2 0x4435 PUSH1 0xF0 SHL PUSH1 0x44 DUP3 ADD MSTORE PUSH1 0x64 SWAP1 REVERT JUMPDEST DUP2 SLOAD PUSH1 0x1 PUSH1 0x1 PUSH1 0xA0 SHL SUB SWAP1 DUP2 AND DUP3 MSTORE PUSH1 0x1 DUP4 ADD SLOAD DUP2 AND PUSH1 0x20 DUP4 ADD MSTORE PUSH1 0x2 DUP4 ADD SLOAD DUP1 DUP3 AND PUSH1 0x40 DUP5 ADD MSTORE PUSH1 0xFF PUSH1 0xA0 DUP3 DUP2 SHR DUP3 AND ISZERO ISZERO PUSH1 0x60 DUP7 ADD MSTORE PUSH1 0xA8 DUP4 SWAP1 SHR DUP3 AND ISZERO ISZERO PUSH1 0x80 DUP7 ADD MSTORE PUSH1 0xB0 DUP4 SWAP1 SHR DUP3 AND ISZERO ISZERO SWAP1 DUP6 ADD MSTORE PUSH1 0xB8 SWAP2 SWAP1 SWAP2 SHR DUP2 AND ISZERO ISZERO PUSH1 0xC0 DUP5 ADD MSTORE PUSH1 0x3 DUP5 ADD SLOAD PUSH1 0xE0 DUP5 ADD MSTORE PUSH1 0x4 DUP5 ADD SLOAD PUSH2 0x100 DUP5 ADD MSTORE PUSH1 0x5 DUP5 ADD SLOAD PUSH2 0x120 DUP5 ADD MSTORE PUSH1 0x6 DUP5 ADD SLOAD PUSH2 0x140 DUP5 ADD MSTORE PUSH1 0x7 DUP5 ADD SLOAD PUSH2 0x160 DUP5 ADD MSTORE PUSH1 0x8 DUP5 ADD SLOAD PUSH2 0x180 DUP5 ADD MSTORE PUSH1 0x9 DUP5 ADD SLOAD DUP3 AND PUSH2 0x1A0 DUP5 ADD MSTORE PUSH1 0xA DUP5 ADD SLOAD SWAP1 SWAP2 AND PUSH2 0x1C0 DUP4 ADD MSTORE PUSH1 0xB DUP4 ADD SLOAD PUSH2 0x1E0 DUP4 ADD MSTORE PUSH1 0xC SWAP1 SWAP3 ADD SLOAD PUSH2 0x220 DUP3 ADD SWAP4 SWAP3 PUSH2 0x4914 SWAP3 PUSH2 0x200 ADD SWAP2 AND PUSH2 0x481A JUMP JUMPDEST SWAP2 SWAP1 DUP3 SUB SWAP2 DUP3 GT PUSH2 0x4BB7 JUMPI JUMP JUMPDEST PUSH1 0x1 PUSH1 0x1 PUSH1 0xA0 SHL SUB SWAP2 DUP3 AND DUP2 MSTORE SWAP2 AND PUSH1 0x20 DUP3 ADD MSTORE PUSH1 0x40 DUP2 ADD SWAP2 SWAP1 SWAP2 MSTORE PUSH1 0x60 DUP2 ADD SWAP2 SWAP1 SWAP2 MSTORE PUSH1 0x80 ADD SWAP1 JUMP JUMPDEST ISZERO PUSH2 0x4D37 JUMPI JUMP JUMPDEST PUSH1 0x64 PUSH1 0x40 MLOAD PUSH3 0x461BCD PUSH1 0xE5 SHL DUP2 MSTORE PUSH1 0x20 PUSH1 0x4 DUP3 ADD MSTORE PUSH1 0x4 PUSH1 0x24 DUP3 ADD MSTORE PUSH4 0x22191719 PUSH1 0xE1 SHL PUSH1 0x44 DUP3 ADD MSTORE REVERT JUMPDEST ISZERO PUSH2 0x4D69 JUMPI JUMP JUMPDEST PUSH1 0x64 PUSH1 0x40 MLOAD PUSH3 0x461BCD PUSH1 0xE5 SHL DUP2 MSTORE PUSH1 0x20 PUSH1 0x4 DUP3 ADD MSTORE PUSH1 0x4 PUSH1 0x24 DUP3 ADD MSTORE PUSH4 0x44312E31 PUSH1 0xE0 SHL PUSH1 0x44 DUP3 ADD MSTORE REVERT JUMPDEST PUSH1 0x6 DUP3 LT ISZERO PUSH2 0x4640 JUMPI MSTORE JUMP JUMPDEST ISZERO PUSH2 0x4DA7 JUMPI JUMP JUMPDEST PUSH1 0x40 MLOAD PUSH3 0x461BCD PUSH1 0xE5 SHL DUP2 MSTORE PUSH1 0x20 PUSH1 0x4 DUP3 ADD MSTORE PUSH1 0x2 PUSH1 0x24 DUP3 ADD MSTORE PUSH2 0x2619 PUSH1 0xF1 SHL PUSH1 0x44 DUP3 ADD MSTORE PUSH1 0x64 SWAP1 REVERT JUMPDEST ISZERO PUSH2 0x4DD8 JUMPI JUMP JUMPDEST PUSH1 0x40 MLOAD PUSH3 0x461BCD PUSH1 0xE5 SHL DUP2 MSTORE PUSH1 0x20 PUSH1 0x4 DUP3 ADD MSTORE PUSH1 0x2 PUSH1 0x24 DUP3 ADD MSTORE PUSH2 0x4331 PUSH1 0xF0 SHL PUSH1 0x44 DUP3 ADD MSTORE PUSH1 0x64 SWAP1 REVERT JUMPDEST ISZERO PUSH2 0x4E09 JUMPI JUMP JUMPDEST PUSH1 0x40 MLOAD PUSH3 0x461BCD PUSH1 0xE5 SHL DUP2 MSTORE PUSH1 0x20 PUSH1 0x4 DUP3 ADD MSTORE PUSH1 0x2 PUSH1 0x24 DUP3 ADD MSTORE PUSH2 0x4335 PUSH1 0xF0 SHL PUSH1 0x44 DUP3 ADD MSTORE PUSH1 0x64 SWAP1 REVERT JUMPDEST PUSH1 0x1 PUSH1 0x1 PUSH1 0xA0 SHL SUB SWAP2 DUP3 AND DUP2 MSTORE SWAP2 DUP2 AND PUSH1 0x20 DUP4 ADD MSTORE SWAP2 DUP3 AND PUSH1 0x40 DUP3 ADD MSTORE PUSH1 0x60 DUP2 ADD SWAP3 SWAP1 SWAP3 MSTORE PUSH0 PUSH1 0x80 DUP4 ADD DUP2 SWAP1 MSTORE PUSH1 0xA0 DUP4 ADD SWAP4 SWAP1 SWAP4 MSTORE PUSH1 0xC0 DUP3 ADD DUP4 SWAP1 MSTORE SWAP1 SWAP3 AND PUSH1 0xE0 DUP4 ADD MSTORE PUSH2 0x100 DUP3 ADD MSTORE PUSH2 0x120 DUP2 ADD SWAP2 SWAP1 SWAP2 MSTORE PUSH2 0x160 DUP2 ADD SWAP3 SWAP2 PUSH2 0x4914 SWAP2 PUSH2 0x140 ADD SWAP1 PUSH2 0x481A JUMP JUMPDEST SWAP2 SWAP1 DUP3 ADD DUP1 SWAP3 GT PUSH2 0x4BB7 JUMPI JUMP JUMPDEST ISZERO PUSH2 0x4EAF JUMPI JUMP JUMPDEST PUSH1 0x64 PUSH1 0x40 MLOAD PUSH3 0x461BCD PUSH1 0xE5 SHL DUP2 MSTORE PUSH1 0x20 PUSH1 0x4 DUP3 ADD MSTORE PUSH1 0x4 PUSH1 0x24 DUP3 ADD MSTORE PUSH4 0x44332E31 PUSH1 0xE0 SHL PUSH1 0x44 DUP3 ADD MSTORE REVERT JUMPDEST ISZERO PUSH2 0x4EE1 JUMPI JUMP JUMPDEST PUSH1 0x64 PUSH1 0x40 MLOAD PUSH3 0x461BCD PUSH1 0xE5 SHL DUP2 MSTORE PUSH1 0x20 PUSH1 0x4 DUP3 ADD MSTORE PUSH1 0x4 PUSH1 0x24 DUP3 ADD MSTORE PUSH4 0x44322E31 PUSH1 0xE0 SHL PUSH1 0x44 DUP3 ADD MSTORE REVERT JUMPDEST ISZERO PUSH2 0x4F13 JUMPI JUMP JUMPDEST PUSH1 0x40 MLOAD PUSH3 0x461BCD PUSH1 0xE5 SHL DUP2 MSTORE PUSH1 0x20 PUSH1 0x4 DUP3 ADD MSTORE PUSH1 0x2 PUSH1 0x24 DUP3 ADD MSTORE PUSH2 0x4433 PUSH1 0xF0 SHL PUSH1 0x44 DUP3 ADD MSTORE PUSH1 0x64 SWAP1 REVERT JUMPDEST ISZERO PUSH2 0x4F44 JUMPI JUMP JUMPDEST PUSH1 0x64 PUSH1 0x40 MLOAD PUSH3 0x461BCD PUSH1 0xE5 SHL DUP2 MSTORE PUSH1 0x20 PUSH1 0x4 DUP3 ADD MSTORE PUSH1 0x4 PUSH1 0x24 DUP3 ADD MSTORE PUSH4 0x43332E31 PUSH1 0xE0 SHL PUSH1 0x44 DUP3 ADD MSTORE REVERT JUMPDEST SWAP1 DUP2 PUSH0 MSTORE PUSH1 0xA PUSH1 0x20 MSTORE PUSH1 0x40 PUSH0 KECCAK256 DUP1 SLOAD PUSH0 MSTORE PUSH1 0x4 PUSH1 0x20 MSTORE PUSH1 0x40 PUSH0 KECCAK256 SWAP2 PUSH1 0x1 DUP1 PUSH1 0xA0 SHL SUB DUP4 SLOAD AND CALLER EQ DUP1 ISZERO PUSH2 0x5155 JUMPI JUMPDEST PUSH2 0x4FA6 SWAP1 PUSH2 0x4BE3 JUMP JUMPDEST PUSH2 0x50ED JUMPI PUSH1 0x2 DUP3 ADD DUP1 SLOAD SWAP1 SWAP3 SWAP1 PUSH2 0x4FC6 SWAP1 PUSH1 0x1 PUSH1 0x1 PUSH1 0xA0 SHL SUB AND ISZERO PUSH2 0x4F3D JUMP JUMPDEST DUP1 SLOAD PUSH1 0x1 PUSH1 0x1 PUSH1 0xA0 SHL SUB AND CALLER EQ PUSH2 0x50D3 JUMPI JUMPDEST PUSH1 0x1 ADD SLOAD PUSH1 0x1 PUSH1 0x1 PUSH1 0xA0 SHL SUB AND CALLER EQ PUSH2 0x50B9 JUMPI JUMPDEST PUSH1 0x1 DUP2 ADD SWAP2 DUP3 SLOAD PUSH1 0xFF DUP2 PUSH1 0xA0 SHR AND DUP1 PUSH2 0x50AC JUMPI JUMPDEST PUSH2 0x5058 JUMPI POP POP POP PUSH1 0x80 PUSH32 0xDA0FDC90D2CAC3C2211C13CF60368ACEB049A3073B8BE0B90792021888C55FC5 SWAP2 SLOAD PUSH1 0xFF PUSH1 0x40 MLOAD SWAP2 CALLER DUP4 MSTORE DUP2 DUP2 PUSH1 0xA0 SHR AND ISZERO ISZERO PUSH1 0x20 DUP5 ADD MSTORE PUSH1 0xA8 SHR AND ISZERO ISZERO PUSH1 0x40 DUP3 ADD MSTORE PUSH0 PUSH1 0x60 DUP3 ADD MSTORE LOG2 PUSH0 SWAP1 JUMP JUMPDEST DUP2 SLOAD PUSH1 0x1 PUSH1 0x1 PUSH1 0xA0 SHL SUB NOT AND PUSH1 0x1 PUSH1 0x1 PUSH1 0xA0 SHL SUB SWAP2 DUP3 AND OR SWAP1 SWAP2 SSTORE SWAP2 SLOAD SWAP1 SLOAD PUSH1 0x40 MLOAD SWAP1 DUP2 MSTORE SWAP2 AND SWAP2 POP PUSH32 0x957372C0E02D2882134CC0EEBBEF9E446634D8CCBB1CBB112BDEFDD3CF0A643C SWAP1 PUSH1 0x20 SWAP1 LOG2 PUSH1 0x1 SWAP1 JUMP JUMPDEST POP PUSH1 0xFF DUP2 PUSH1 0xA8 SHR AND PUSH2 0x5000 JUMP JUMPDEST PUSH1 0x1 DUP2 ADD DUP1 SLOAD PUSH1 0xFF PUSH1 0xA8 SHL NOT AND PUSH1 0x1 PUSH1 0xA8 SHL OR SWAP1 SSTORE PUSH2 0x4FEC JUMP JUMPDEST PUSH1 0x1 DUP3 ADD DUP1 SLOAD PUSH1 0xFF PUSH1 0xA0 SHL NOT AND PUSH1 0x1 PUSH1 0xA0 SHL OR SWAP1 SSTORE PUSH2 0x4FD8 JUMP JUMPDEST PUSH32 0xDA0FDC90D2CAC3C2211C13CF60368ACEB049A3073B8BE0B90792021888C55FC5 SWAP2 POP PUSH1 0x1 PUSH1 0x80 SWAP2 ADD PUSH1 0x1 PUSH1 0xB0 SHL PUSH1 0xFF PUSH1 0xB0 SHL NOT DUP3 SLOAD AND OR DUP1 SWAP2 SSTORE PUSH1 0xFF PUSH1 0x40 MLOAD SWAP2 CALLER DUP4 MSTORE DUP2 DUP2 PUSH1 0xA0 SHR AND ISZERO ISZERO PUSH1 0x20 DUP5 ADD MSTORE PUSH1 0xA8 SHR AND ISZERO ISZERO PUSH1 0x40 DUP3 ADD MSTORE PUSH1 0x1 PUSH1 0x60 DUP3 ADD MSTORE LOG2 PUSH0 SWAP1 JUMP JUMPDEST POP PUSH1 0x1 DUP4 ADD SLOAD PUSH1 0x1 PUSH1 0x1 PUSH1 0xA0 SHL SUB AND CALLER EQ PUSH2 0x4F9D JUMP JUMPDEST PUSH0 SWAP2 DUP2 PUSH0 MSTORE PUSH1 0x9 PUSH1 0x20 MSTORE PUSH1 0x40 PUSH0 KECCAK256 SWAP1 DUP2 SLOAD PUSH0 MSTORE PUSH1 0x4 PUSH1 0x20 MSTORE PUSH1 0x40 PUSH0 KECCAK256 SWAP1 PUSH1 0x1 DUP3 ADD SWAP1 PUSH1 0x1 DUP1 PUSH1 0xA0 SHL SUB DUP3 SLOAD AND CALLER EQ DUP1 ISZERO PUSH2 0x547E JUMPI JUMPDEST DUP1 ISZERO PUSH2 0x5468 JUMPI JUMPDEST PUSH2 0x51B0 SWAP1 PUSH2 0x4BE3 JUMP JUMPDEST PUSH20 0x0 DUP1 EXTCODESIZE ISZERO PUSH2 0xAB1 JUMPI PUSH0 PUSH1 0x40 MLOAD DUP1 SWAP3 PUSH4 0x252A867 PUSH1 0xE5 SHL DUP3 MSTORE DUP2 DUP1 PUSH2 0x51EB DUP10 PUSH1 0x4 DUP4 ADD PUSH2 0x4C14 JUMP JUMPDEST SUB SWAP2 GAS DELEGATECALL DUP1 ISZERO PUSH2 0x43F8 JUMPI PUSH2 0x5453 JUMPI JUMPDEST POP PUSH2 0x53DD JUMPI PUSH1 0x1 DUP4 ADD SWAP3 DUP4 SLOAD SWAP4 DUP5 ISZERO DUP1 ISZERO PUSH2 0x53D3 JUMPI JUMPDEST PUSH2 0x5219 SWAP1 PUSH2 0x4D62 JUMP JUMPDEST DUP4 SLOAD PUSH1 0x1 PUSH1 0x1 PUSH1 0xA0 SHL SUB AND CALLER EQ PUSH2 0x53BD JUMPI JUMPDEST DUP3 SLOAD PUSH1 0x1 PUSH1 0x1 PUSH1 0xA0 SHL SUB AND CALLER EQ PUSH2 0x53A5 JUMPI JUMPDEST PUSH1 0x2 DUP5 ADD DUP1 SLOAD SWAP1 SWAP3 SWAP1 PUSH1 0x1 PUSH1 0x1 PUSH1 0xA0 SHL SUB AND CALLER EQ PUSH2 0x538B JUMPI JUMPDEST PUSH1 0x2 DUP2 ADD SWAP6 DUP7 SLOAD PUSH1 0xFF DUP2 PUSH1 0x8 SHR AND SWAP1 DUP2 PUSH2 0x537C JUMPI JUMPDEST DUP2 PUSH2 0x536E JUMPI JUMPDEST POP PUSH2 0x52D9 JUMPI POP POP POP POP POP POP PUSH1 0xA0 PUSH32 0xCA0792B3957820BC249DD7664026CA960EFE1500204314BF8161056D3847D526 SWAP2 SLOAD PUSH1 0xFF PUSH1 0x40 MLOAD SWAP2 CALLER DUP4 MSTORE DUP2 DUP2 PUSH1 0x8 SHR AND ISZERO ISZERO PUSH1 0x20 DUP5 ADD MSTORE DUP2 DUP2 PUSH1 0x10 SHR AND ISZERO ISZERO PUSH1 0x40 DUP5 ADD MSTORE PUSH1 0x18 SHR AND ISZERO ISZERO PUSH1 0x60 DUP3 ADD MSTORE DUP5 PUSH1 0x80 DUP3 ADD MSTORE LOG2 SWAP1 JUMP JUMPDEST DUP6 SWAP9 POP SWAP2 PUSH1 0xFF PUSH32 0x932BD05AAEE1F6600767846BAB40EAABEF608993E19645684D0A9FCB3335D372 SWAP8 SWAP3 PUSH2 0x5368 SWAP6 SWAP5 PUSH1 0xB PUSH1 0xC0 SWAP10 ADD SSTORE PUSH2 0x531E DUP3 DUP6 SLOAD AND PUSH1 0xC DUP14 ADD PUSH2 0x4BCB JUMP JUMPDEST SLOAD SWAP10 SLOAD SWAP6 SLOAD SWAP4 SLOAD SWAP2 SLOAD SWAP3 SLOAD PUSH1 0x40 DUP1 MLOAD PUSH1 0x1 PUSH1 0x1 PUSH1 0xA0 SHL SUB SWAP9 DUP10 AND DUP2 MSTORE SWAP6 DUP9 AND PUSH1 0x20 DUP8 ADD MSTORE SWAP3 SWAP1 SWAP7 AND SWAP2 DUP5 ADD SWAP2 SWAP1 SWAP2 MSTORE CALLER PUSH1 0x60 DUP5 ADD MSTORE PUSH1 0x80 DUP4 ADD SWAP2 SWAP1 SWAP2 MSTORE SWAP1 SWAP3 PUSH1 0xA0 DUP5 ADD SWAP2 AND PUSH2 0x481A JUMP JUMPDEST LOG3 PUSH1 0x1 SWAP1 JUMP JUMPDEST PUSH1 0xFF SWAP2 POP PUSH1 0x18 SHR AND PUSH0 PUSH2 0x5271 JUMP JUMPDEST SWAP1 POP PUSH1 0xFF DUP2 PUSH1 0x10 SHR AND SWAP1 PUSH2 0x526B JUMP JUMPDEST PUSH1 0x2 DUP2 ADD DUP1 SLOAD PUSH4 0xFF000000 NOT AND PUSH4 0x1000000 OR SWAP1 SSTORE PUSH2 0x5256 JUMP JUMPDEST PUSH1 0x2 DUP3 ADD DUP1 SLOAD PUSH3 0xFF0000 NOT AND PUSH3 0x10000 OR SWAP1 SSTORE PUSH2 0x523D JUMP JUMPDEST PUSH1 0x2 DUP3 ADD DUP1 SLOAD PUSH2 0xFF00 NOT AND PUSH2 0x100 OR SWAP1 SSTORE PUSH2 0x522B JUMP JUMPDEST POP TIMESTAMP DUP6 GT ISZERO PUSH2 0x5210 JUMP JUMPDEST POP POP PUSH1 0xA0 PUSH1 0x2 PUSH32 0xCA0792B3957820BC249DD7664026CA960EFE1500204314BF8161056D3847D526 SWAP3 ADD PUSH5 0x100000000 PUSH5 0xFF00000000 NOT DUP3 SLOAD AND OR DUP1 SWAP2 SSTORE PUSH1 0xFF PUSH1 0x40 MLOAD SWAP2 CALLER DUP4 MSTORE DUP2 DUP2 PUSH1 0x8 SHR AND ISZERO ISZERO PUSH1 0x20 DUP5 ADD MSTORE DUP2 DUP2 PUSH1 0x10 SHR AND ISZERO ISZERO PUSH1 0x40 DUP5 ADD MSTORE PUSH1 0x18 SHR AND ISZERO ISZERO PUSH1 0x60 DUP3 ADD MSTORE PUSH1 0x1 PUSH1 0x80 DUP3 ADD MSTORE LOG2 SWAP1 JUMP JUMPDEST PUSH2 0x5460 SWAP2 SWAP7 POP PUSH0 SWAP1 PUSH2 0x49E1 JUMP JUMPDEST PUSH0 SWAP5 PUSH0 PUSH2 0x51FA JUMP JUMPDEST POP PUSH1 0x2 DUP4 ADD SLOAD PUSH1 0x1 PUSH1 0x1 PUSH1 0xA0 SHL SUB AND CALLER EQ PUSH2 0x51A7 JUMP JUMPDEST POP DUP3 SLOAD PUSH1 0x1 PUSH1 0x1 PUSH1 0xA0 SHL SUB AND CALLER EQ PUSH2 0x51A0 JUMP JUMPDEST DUP3 ISZERO PUSH2 0x5530 JUMPI PUSH1 0x1 DUP1 PUSH1 0xA0 SHL SUB AND SWAP1 DUP2 PUSH0 MSTORE PUSH1 0x1 PUSH1 0x20 MSTORE PUSH1 0x40 PUSH0 KECCAK256 PUSH1 0x1 DUP1 PUSH1 0xA0 SHL SUB DUP3 AND PUSH0 MSTORE PUSH1 0x20 MSTORE DUP3 PUSH1 0x40 PUSH0 KECCAK256 SLOAD LT PUSH2 0x5529 JUMPI PUSH32 0xD1398BEE19313D6BF672CCB116E51F4A1A947E91C757907F51FBB5B5E56C698F PUSH1 0x20 PUSH0 SWAP3 DUP5 DUP5 MSTORE PUSH1 0x1 DUP3 MSTORE PUSH1 0x40 DUP5 KECCAK256 PUSH1 0x1 DUP1 PUSH1 0xA0 SHL SUB DUP3 AND DUP6 MSTORE DUP3 MSTORE PUSH1 0x40 DUP5 KECCAK256 PUSH2 0x5511 DUP8 DUP3 SLOAD PUSH2 0x4CF9 JUMP JUMPDEST SWAP1 SSTORE PUSH1 0x40 MLOAD SWAP6 DUP7 MSTORE PUSH1 0x1 PUSH1 0x1 PUSH1 0xA0 SHL SUB AND SWAP5 LOG4 PUSH1 0x1 SWAP1 JUMP JUMPDEST POP POP POP PUSH0 SWAP1 JUMP JUMPDEST POP POP POP PUSH1 0x1 SWAP1 JUMP JUMPDEST SWAP1 SWAP3 SWAP2 SWAP1 ISZERO PUSH2 0x554D JUMPI PUSH2 0x554A SWAP3 PUSH2 0x5556 JUMP JUMPDEST SWAP1 JUMP JUMPDEST PUSH2 0x554A SWAP3 PUSH2 0x55B1 JUMP JUMPDEST DUP3 ISZERO PUSH2 0x5530 JUMPI PUSH32 0xD1398BEE19313D6BF672CCB116E51F4A1A947E91C757907F51FBB5B5E56C698F PUSH1 0x20 PUSH0 SWAP3 PUSH1 0x1 DUP1 PUSH1 0xA0 SHL SUB AND SWAP4 DUP5 DUP5 MSTORE PUSH1 0x1 DUP3 MSTORE PUSH1 0x40 DUP5 KECCAK256 PUSH1 0x1 DUP1 PUSH1 0xA0 SHL SUB DUP3 AND DUP6 MSTORE DUP3 MSTORE PUSH1 0x40 DUP5 KECCAK256 PUSH2 0x5511 DUP8 DUP3 SLOAD PUSH2 0x4E9B JUMP JUMPDEST SWAP2 SWAP1 DUP2 ISZERO PUSH2 0x5530 JUMPI PUSH1 0x1 PUSH1 0x1 PUSH1 0xA0 SHL SUB AND SWAP2 DUP3 PUSH2 0x5619 JUMPI PUSH0 DUP1 DUP1 DUP1 DUP6 PUSH1 0x1 PUSH1 0x1 PUSH1 0xA0 SHL SUB DUP7 AND DUP3 CALL ISZERO PUSH2 0x43F8 JUMPI PUSH1 0x20 PUSH32 0x2717EAD6B9200DD235AAD468C9809EA400FE33AC69B5BFAA6D3E90FC922B6398 SWAP2 JUMPDEST PUSH1 0x40 MLOAD SWAP4 DUP5 MSTORE PUSH1 0x1 PUSH1 0x1 PUSH1 0xA0 SHL SUB AND SWAP3 LOG3 PUSH1 0x1 SWAP1 JUMP JUMPDEST PUSH1 0x40 MLOAD PUSH4 0xA9059CBB PUSH1 0xE0 SHL DUP2 MSTORE PUSH1 0x1 PUSH1 0x1 PUSH1 0xA0 SHL SUB DUP3 AND PUSH1 0x4 DUP3 ADD MSTORE PUSH1 0x24 DUP2 ADD DUP4 SWAP1 MSTORE PUSH1 0x20 DUP2 PUSH1 0x44 DUP2 PUSH0 DUP9 GAS CALL SWAP1 DUP2 ISZERO PUSH2 0x43F8 JUMPI PUSH0 SWAP2 PUSH2 0x56AD JUMPI JUMPDEST POP ISZERO PUSH2 0x5683 JUMPI PUSH1 0x20 PUSH32 0x2717EAD6B9200DD235AAD468C9809EA400FE33AC69B5BFAA6D3E90FC922B6398 SWAP2 PUSH2 0x5603 JUMP JUMPDEST PUSH1 0x40 MLOAD PUSH3 0x461BCD PUSH1 0xE5 SHL DUP2 MSTORE PUSH1 0x20 PUSH1 0x4 DUP3 ADD MSTORE PUSH1 0x2 PUSH1 0x24 DUP3 ADD MSTORE PUSH2 0x5433 PUSH1 0xF0 SHL PUSH1 0x44 DUP3 ADD MSTORE PUSH1 0x64 SWAP1 REVERT JUMPDEST SWAP1 POP PUSH1 0x20 DUP2 RETURNDATASIZE PUSH1 0x20 GT PUSH2 0x56DF JUMPI JUMPDEST DUP2 PUSH2 0x56C8 PUSH1 0x20 SWAP4 DUP4 PUSH2 0x49E1 JUMP JUMPDEST DUP2 ADD SUB SLT PUSH2 0xAB1 JUMPI PUSH2 0x56D9 SWAP1 PUSH2 0x4A17 JUMP JUMPDEST PUSH0 PUSH2 0x5654 JUMP JUMPDEST RETURNDATASIZE SWAP2 POP PUSH2 0x56BB JUMP INVALID DUP11 RETURN SWAP9 EQ DUP3 PUSH14 0x4542F7FE66E6FA6AC2AC59BFC822 SGT SWAP5 CREATE2 BYTE COINBASE 0xDB 0xA5 0xC5 0x4D 0xBA EXP 0xC9 0xAF 0xBE CALLER PUSH24 0x83658B293F1566E1790BFAB9858B8CF08DE944CA3CD013D4 0x21 XOR DUP8 0xB8 ADDMOD PUSH13 0x61B89EF5FCDB14C243B643069C EXTCODECOPY PUSH11 0x84765B27F2A696B875DDDF SUB BYTE 0xFB 0x4D SWAP14 PC XOR 0xEC CALLDATASIZE 0xD6 0xE8 MCOPY DUP11 ADDRESS CALLVALUE PUSH16 0x5FE41B65CC50CEA2B868AE94F293D113 0xC9 0x2A SGT CODESIZE 0xA6 0xAF NOT 0x23 DUP1 0xB5 0xBA BALANCE BYTE 0xC0 SUB CREATE2 PUSH31 0xFA2BE0717F0E466318C7E9CF546C4937A03D94DCBC1C05240F31FF3AD067EF 0x1E 0xE3 TLOAD 0xE4 SWAP10 PUSH24 0x62752E3A095284754544F4C709D79F039F6754F2D286001D PUSH12 0xB50C1B3CC185B309E82F6307 PUSH31 0x29516A6A87E8E99DA26469706673582212204BCAA446C44C08CF58B68B549E 0x4E CALLVALUE 0xD7 PUSH15 0x6F174D238036E3BB579D599F59329C PUSH5 0x736F6C6343 STOP ADDMOD BYTE STOP CALLER "
		},
		"gasEstimates": {
			"creation": {
				"codeDepositCost": "4505000",
				"executionCost": "infinite",
				"totalCost": "infinite"
			},
			"external": {
				"addDepositByCounterparty(bytes32,uint256,bool)": "infinite",
				"addDepositByInitiator(bytes32,uint256,bool)": "infinite",
				"balanceOf(address)": "2911",
				"balanceOf(address,address)": "3589",
				"balances(address,address)": "3374",
				"cancelDeal(bytes32,bool)": "infinite",
				"commissionRecipient()": "2344",
				"completeDeal(bytes32,bool)": "infinite",
				"contractEnabled()": "2536",
				"counterpartyAcceptSidedDeal(bytes32)": "72554",
				"createDeal(address,address,uint256,uint256,address,uint256,uint8)": "infinite",
				"createDealEditExpiration(bytes32,uint256,uint8)": "infinite",
				"createEditDealMediatorRequest(bytes32,address)": "131484",
				"createSidedDeal(address,address,uint256,uint256,uint256,uint256,address,address,uint256,uint8)": "infinite",
				"deals(bytes32)": "28659",
				"deposit(address,uint256)": "infinite",
				"depositCommissionPercent()": "2804",
				"disableContract()": "25984",
				"editDealExpirationRequests(uint256)": "7571",
				"editDealMediatorRequests(uint256)": "4903",
				"enableContract()": "25666",
				"executeActionsAfterExpiration(bytes32,bool)": "infinite",
				"getAmountToDepositViaComission(uint256)": "infinite",
				"getDeal(bytes32)": "infinite",
				"getEditDealExpiratation(uint256)": "infinite",
				"getEditDealMediator(uint256)": "infinite",
				"givebackToConunterparty(bytes32,uint256,bool)": "infinite",
				"givebackToInitiator(bytes32,uint256,bool)": "infinite",
				"madeDealTwoSided(bytes32,address,uint256,uint256)": "infinite",
				"owner()": "2847",
				"payUpCounterpartyAcceptSidedDeal(bytes32)": "77252",
				"payUpCreateDeal(address,address,uint256,uint256,address,uint256,uint8)": "infinite",
				"payUpCreateSidedDeal(address,address,uint256,uint256,uint256,uint256,address,address,uint256,uint8)": "infinite",
				"payUpMadeDealTwoSided(bytes32,address,uint256,uint256)": "infinite",
				"rejectSidedDeal(bytes32)": "infinite",
				"setDepositCommission(uint256,address)": "50260",
				"signDealEditExpiration(uint256,bool)": "infinite",
				"signEditDealMediatorRequest(uint256,bool)": "94236",
				"totalCompletedDeals()": "3178",
				"totalDeals()": "2870",
				"totalEditDealMediatorRequests()": "2298",
				"totalEditExpirationRequests()": "2914",
				"transfer(address,address,uint256)": "54397",
				"transferOwnership(address)": "27050",
				"transferToCounterparty(bytes32,uint256,bool)": "infinite",
				"transferToInitiator(bytes32,uint256,bool)": "infinite",
				"withdraw(address,uint256)": "infinite",
				"withdrawRejectSidedDeal(bytes32)": "infinite"
			}
		},
		"methodIdentifiers": {
			"addDepositByCounterparty(bytes32,uint256,bool)": "67c5545d",
			"addDepositByInitiator(bytes32,uint256,bool)": "ad94b28b",
			"balanceOf(address)": "70a08231",
			"balanceOf(address,address)": "f7888aec",
			"balances(address,address)": "c23f001f",
			"cancelDeal(bytes32,bool)": "d750158b",
			"commissionRecipient()": "06fd154a",
			"completeDeal(bytes32,bool)": "6242c6cd",
			"contractEnabled()": "41b3a0d9",
			"counterpartyAcceptSidedDeal(bytes32)": "4187129c",
			"createDeal(address,address,uint256,uint256,address,uint256,uint8)": "17b52b50",
			"createDealEditExpiration(bytes32,uint256,uint8)": "1273c165",
			"createEditDealMediatorRequest(bytes32,address)": "cfaaf235",
			"createSidedDeal(address,address,uint256,uint256,uint256,uint256,address,address,uint256,uint8)": "007e8bd3",
			"deals(bytes32)": "81cd872a",
			"deposit(address,uint256)": "47e7ef24",
			"depositCommissionPercent()": "899a3ffd",
			"disableContract()": "894ba833",
			"editDealExpirationRequests(uint256)": "c15a25bf",
			"editDealMediatorRequests(uint256)": "53a78000",
			"enableContract()": "367edd32",
			"executeActionsAfterExpiration(bytes32,bool)": "ee026054",
			"getAmountToDepositViaComission(uint256)": "39b3edb0",
			"getDeal(bytes32)": "51a6fad5",
			"getEditDealExpiratation(uint256)": "eb457329",
			"getEditDealMediator(uint256)": "ba343f6d",
			"givebackToConunterparty(bytes32,uint256,bool)": "c2c257b9",
			"givebackToInitiator(bytes32,uint256,bool)": "a0849a33",
			"madeDealTwoSided(bytes32,address,uint256,uint256)": "63adb66f",
			"owner()": "8da5cb5b",
			"payUpCounterpartyAcceptSidedDeal(bytes32)": "bb06c1a4",
			"payUpCreateDeal(address,address,uint256,uint256,address,uint256,uint8)": "28d5a050",
			"payUpCreateSidedDeal(address,address,uint256,uint256,uint256,uint256,address,address,uint256,uint8)": "cfadf6c7",
			"payUpMadeDealTwoSided(bytes32,address,uint256,uint256)": "0934da22",
			"rejectSidedDeal(bytes32)": "8deea5fb",
			"setDepositCommission(uint256,address)": "15f8a314",
			"signDealEditExpiration(uint256,bool)": "71ae8bcd",
			"signEditDealMediatorRequest(uint256,bool)": "619c457e",
			"totalCompletedDeals()": "e08560a4",
			"totalDeals()": "966d1f1d",
			"totalEditDealMediatorRequests()": "02927459",
			"totalEditExpirationRequests()": "9974f376",
			"transfer(address,address,uint256)": "beabacc8",
			"transferOwnership(address)": "f2fde38b",
			"transferToCounterparty(bytes32,uint256,bool)": "9905a1ea",
			"transferToInitiator(bytes32,uint256,bool)": "01cafae3",
			"withdraw(address,uint256)": "f3fef3a3",
			"withdrawRejectSidedDeal(bytes32)": "80ccb070"
		}
	},
	"abi": [
		{
			"inputs": [
				{
					"internalType": "uint256",
					"name": "_depositCommissionPercent",
					"type": "uint256"
				},
				{
					"internalType": "address",
					"name": "_commissionRecipient",
					"type": "address"
				}
			],
			"stateMutability": "nonpayable",
			"type": "constructor"
		},
		{
			"anonymous": false,
			"inputs": [
				{
					"indexed": true,
					"internalType": "bytes32",
					"name": "id",
					"type": "bytes32"
				},
				{
					"indexed": true,
					"internalType": "address",
					"name": "initiator",
					"type": "address"
				},
				{
					"indexed": true,
					"internalType": "address",
					"name": "counterparty",
					"type": "address"
				},
				{
					"indexed": false,
					"internalType": "address",
					"name": "mediator",
					"type": "address"
				},
				{
					"indexed": false,
					"internalType": "uint256",
					"name": "amount",
					"type": "uint256"
				}
			],
			"name": "AddDepositByCounterparty",
			"type": "event"
		},
		{
			"anonymous": false,
			"inputs": [
				{
					"indexed": true,
					"internalType": "bytes32",
					"name": "id",
					"type": "bytes32"
				},
				{
					"indexed": true,
					"internalType": "address",
					"name": "initiator",
					"type": "address"
				},
				{
					"indexed": true,
					"internalType": "address",
					"name": "counterparty",
					"type": "address"
				},
				{
					"indexed": false,
					"internalType": "address",
					"name": "mediator",
					"type": "address"
				},
				{
					"indexed": false,
					"internalType": "uint256",
					"name": "amount",
					"type": "uint256"
				}
			],
			"name": "AddDepositByInitiator",
			"type": "event"
		},
		{
			"anonymous": false,
			"inputs": [
				{
					"indexed": false,
					"internalType": "uint256",
					"name": "newCommissionPercent",
					"type": "uint256"
				},
				{
					"indexed": false,
					"internalType": "address",
					"name": "newCommissionRecipient",
					"type": "address"
				}
			],
			"name": "CommissionChanged",
			"type": "event"
		},
		{
			"anonymous": false,
			"inputs": [
				{
					"indexed": false,
					"internalType": "bool",
					"name": "status",
					"type": "bool"
				}
			],
			"name": "ContractStatusChanged",
			"type": "event"
		},
		{
			"anonymous": false,
			"inputs": [
				{
					"indexed": true,
					"internalType": "bytes32",
					"name": "id",
					"type": "bytes32"
				},
				{
					"indexed": true,
					"internalType": "address",
					"name": "initiator",
					"type": "address"
				},
				{
					"indexed": true,
					"internalType": "address",
					"name": "counterparty",
					"type": "address"
				},
				{
					"indexed": false,
					"internalType": "address",
					"name": "mediator",
					"type": "address"
				}
			],
			"name": "DealBecomeTwoSided",
			"type": "event"
		},
		{
			"anonymous": false,
			"inputs": [
				{
					"indexed": true,
					"internalType": "bytes32",
					"name": "id",
					"type": "bytes32"
				},
				{
					"indexed": true,
					"internalType": "address",
					"name": "initiator",
					"type": "address"
				},
				{
					"indexed": true,
					"internalType": "address",
					"name": "counterparty",
					"type": "address"
				},
				{
					"indexed": false,
					"internalType": "address",
					"name": "mediator",
					"type": "address"
				},
				{
					"indexed": false,
					"internalType": "address",
					"name": "sender",
					"type": "address"
				}
			],
			"name": "DealCanceled",
			"type": "event"
		},
		{
			"anonymous": false,
			"inputs": [
				{
					"indexed": true,
					"internalType": "bytes32",
					"name": "id",
					"type": "bytes32"
				},
				{
					"indexed": true,
					"internalType": "address",
					"name": "initiator",
					"type": "address"
				},
				{
					"indexed": true,
					"internalType": "address",
					"name": "counterparty",
					"type": "address"
				},
				{
					"indexed": false,
					"internalType": "address",
					"name": "mediator",
					"type": "address"
				},
				{
					"indexed": false,
					"internalType": "address",
					"name": "sender",
					"type": "address"
				}
			],
			"name": "DealCompited",
			"type": "event"
		},
		{
			"anonymous": false,
			"inputs": [
				{
					"indexed": true,
					"internalType": "bytes32",
					"name": "id",
					"type": "bytes32"
				},
				{
					"indexed": true,
					"internalType": "address",
					"name": "initiator",
					"type": "address"
				},
				{
					"indexed": true,
					"internalType": "address",
					"name": "counterparty",
					"type": "address"
				},
				{
					"indexed": false,
					"internalType": "address",
					"name": "mediator",
					"type": "address"
				}
			],
			"name": "DealCreated",
			"type": "event"
		},
		{
			"anonymous": false,
			"inputs": [
				{
					"indexed": true,
					"internalType": "bytes32",
					"name": "id",
					"type": "bytes32"
				},
				{
					"indexed": true,
					"internalType": "address",
					"name": "initiator",
					"type": "address"
				},
				{
					"indexed": true,
					"internalType": "address",
					"name": "counterparty",
					"type": "address"
				},
				{
					"indexed": false,
					"internalType": "address",
					"name": "mediator",
					"type": "address"
				}
			],
			"name": "DealRequestCreated",
			"type": "event"
		},
		{
			"anonymous": false,
			"inputs": [
				{
					"indexed": true,
					"internalType": "address",
					"name": "user",
					"type": "address"
				},
				{
					"indexed": true,
					"internalType": "address",
					"name": "token",
					"type": "address"
				},
				{
					"indexed": false,
					"internalType": "uint256",
					"name": "amount",
					"type": "uint256"
				},
				{
					"indexed": false,
					"internalType": "uint256",
					"name": "commission",
					"type": "uint256"
				}
			],
			"name": "Deposit",
			"type": "event"
		},
		{
			"anonymous": false,
			"inputs": [
				{
					"indexed": true,
					"internalType": "bytes32",
					"name": "id",
					"type": "bytes32"
				},
				{
					"indexed": true,
					"internalType": "address",
					"name": "initiator",
					"type": "address"
				},
				{
					"indexed": true,
					"internalType": "address",
					"name": "counterparty",
					"type": "address"
				},
				{
					"indexed": false,
					"internalType": "address",
					"name": "mediator",
					"type": "address"
				},
				{
					"indexed": false,
					"internalType": "address",
					"name": "sender",
					"type": "address"
				},
				{
					"indexed": false,
					"internalType": "uint256",
					"name": "requestId",
					"type": "uint256"
				}
			],
			"name": "EditDealExpirationRequestCreated",
			"type": "event"
		},
		{
			"anonymous": false,
			"inputs": [
				{
					"indexed": true,
					"internalType": "uint256",
					"name": "id",
					"type": "uint256"
				},
				{
					"indexed": false,
					"internalType": "address",
					"name": "sender",
					"type": "address"
				},
				{
					"indexed": false,
					"internalType": "bool",
					"name": "signedInititor",
					"type": "bool"
				},
				{
					"indexed": false,
					"internalType": "bool",
					"name": "signedCounterparty",
					"type": "bool"
				},
				{
					"indexed": false,
					"internalType": "bool",
					"name": "signedMediator",
					"type": "bool"
				},
				{
					"indexed": false,
					"internalType": "bool",
					"name": "rejected",
					"type": "bool"
				}
			],
			"name": "EditDealExpirationRequestUpdated",
			"type": "event"
		},
		{
			"anonymous": false,
			"inputs": [
				{
					"indexed": true,
					"internalType": "uint256",
					"name": "id",
					"type": "uint256"
				},
				{
					"indexed": true,
					"internalType": "bytes32",
					"name": "dealId",
					"type": "bytes32"
				},
				{
					"indexed": true,
					"internalType": "address",
					"name": "newMediator",
					"type": "address"
				},
				{
					"indexed": false,
					"internalType": "address",
					"name": "sender",
					"type": "address"
				}
			],
			"name": "EditDealMediatorRequestCreated",
			"type": "event"
		},
		{
			"anonymous": false,
			"inputs": [
				{
					"indexed": true,
					"internalType": "uint256",
					"name": "reid",
					"type": "uint256"
				},
				{
					"indexed": false,
					"internalType": "address",
					"name": "sender",
					"type": "address"
				},
				{
					"indexed": false,
					"internalType": "bool",
					"name": "signedByInitiator",
					"type": "bool"
				},
				{
					"indexed": false,
					"internalType": "bool",
					"name": "signedByCounterparty",
					"type": "bool"
				},
				{
					"indexed": false,
					"internalType": "bool",
					"name": "rejected",
					"type": "bool"
				}
			],
			"name": "EditDealMediatorRequestUpdated",
			"type": "event"
		},
		{
			"anonymous": false,
			"inputs": [
				{
					"indexed": true,
					"internalType": "uint256",
					"name": "Id",
					"type": "uint256"
				},
				{
					"indexed": true,
					"internalType": "bytes32",
					"name": "dealId",
					"type": "bytes32"
				},
				{
					"indexed": false,
					"internalType": "address",
					"name": "initiator",
					"type": "address"
				},
				{
					"indexed": false,
					"internalType": "address",
					"name": "counterparty",
					"type": "address"
				},
				{
					"indexed": false,
					"internalType": "address",
					"name": "mediator",
					"type": "address"
				},
				{
					"indexed": false,
					"internalType": "address",
					"name": "sender",
					"type": "address"
				},
				{
					"indexed": false,
					"internalType": "uint256",
					"name": "newExpirationDate",
					"type": "uint256"
				},
				{
					"indexed": false,
					"internalType": "enum MediatorAction",
					"name": "mediatorActionOnExpiration",
					"type": "uint8"
				}
			],
			"name": "EditedDealExpiration",
			"type": "event"
		},
		{
			"anonymous": false,
			"inputs": [
				{
					"indexed": true,
					"internalType": "bytes32",
					"name": "id",
					"type": "bytes32"
				},
				{
					"indexed": true,
					"internalType": "address",
					"name": "initiator",
					"type": "address"
				},
				{
					"indexed": true,
					"internalType": "address",
					"name": "counterparty",
					"type": "address"
				},
				{
					"indexed": false,
					"internalType": "address",
					"name": "mediator",
					"type": "address"
				},
				{
					"indexed": false,
					"internalType": "address",
					"name": "sender",
					"type": "address"
				},
				{
					"indexed": false,
					"internalType": "uint256",
					"name": "amount",
					"type": "uint256"
				},
				{
					"indexed": false,
					"internalType": "uint256",
					"name": "fee",
					"type": "uint256"
				}
			],
			"name": "GivebackToCounterparty",
			"type": "event"
		},
		{
			"anonymous": false,
			"inputs": [
				{
					"indexed": true,
					"internalType": "bytes32",
					"name": "id",
					"type": "bytes32"
				},
				{
					"indexed": true,
					"internalType": "address",
					"name": "initiator",
					"type": "address"
				},
				{
					"indexed": true,
					"internalType": "address",
					"name": "counterparty",
					"type": "address"
				},
				{
					"indexed": false,
					"internalType": "address",
					"name": "mediator",
					"type": "address"
				},
				{
					"indexed": false,
					"internalType": "address",
					"name": "sender",
					"type": "address"
				},
				{
					"indexed": false,
					"internalType": "uint256",
					"name": "amount",
					"type": "uint256"
				},
				{
					"indexed": false,
					"internalType": "uint256",
					"name": "fee",
					"type": "uint256"
				}
			],
			"name": "GivebackToInitiator",
			"type": "event"
		},
		{
			"anonymous": false,
			"inputs": [
				{
					"indexed": true,
					"internalType": "address",
					"name": "mediator",
					"type": "address"
				},
				{
					"indexed": false,
					"internalType": "bytes32",
					"name": "dealId",
					"type": "bytes32"
				}
			],
			"name": "JoinedToDealAsMediator",
			"type": "event"
		},
		{
			"anonymous": false,
			"inputs": [
				{
					"indexed": true,
					"internalType": "address",
					"name": "previousOwner",
					"type": "address"
				},
				{
					"indexed": true,
					"internalType": "address",
					"name": "newOwner",
					"type": "address"
				}
			],
			"name": "OwnershipTransferred",
			"type": "event"
		},
		{
			"anonymous": false,
			"inputs": [
				{
					"indexed": true,
					"internalType": "address",
					"name": "from",
					"type": "address"
				},
				{
					"indexed": true,
					"internalType": "address",
					"name": "to",
					"type": "address"
				},
				{
					"indexed": true,
					"internalType": "address",
					"name": "token",
					"type": "address"
				},
				{
					"indexed": false,
					"internalType": "uint256",
					"name": "value",
					"type": "uint256"
				}
			],
			"name": "Transfer",
			"type": "event"
		},
		{
			"anonymous": false,
			"inputs": [
				{
					"indexed": true,
					"internalType": "bytes32",
					"name": "id",
					"type": "bytes32"
				},
				{
					"indexed": true,
					"internalType": "address",
					"name": "initiator",
					"type": "address"
				},
				{
					"indexed": true,
					"internalType": "address",
					"name": "counterparty",
					"type": "address"
				},
				{
					"indexed": false,
					"internalType": "address",
					"name": "mediator",
					"type": "address"
				},
				{
					"indexed": false,
					"internalType": "address",
					"name": "sender",
					"type": "address"
				},
				{
					"indexed": false,
					"internalType": "uint256",
					"name": "amount",
					"type": "uint256"
				},
				{
					"indexed": false,
					"internalType": "uint256",
					"name": "fee",
					"type": "uint256"
				}
			],
			"name": "TransferToCounterparty",
			"type": "event"
		},
		{
			"anonymous": false,
			"inputs": [
				{
					"indexed": true,
					"internalType": "bytes32",
					"name": "id",
					"type": "bytes32"
				},
				{
					"indexed": true,
					"internalType": "address",
					"name": "initiator",
					"type": "address"
				},
				{
					"indexed": true,
					"internalType": "address",
					"name": "counterparty",
					"type": "address"
				},
				{
					"indexed": false,
					"internalType": "address",
					"name": "mediator",
					"type": "address"
				},
				{
					"indexed": false,
					"internalType": "address",
					"name": "sender",
					"type": "address"
				},
				{
					"indexed": false,
					"internalType": "address",
					"name": "target",
					"type": "address"
				},
				{
					"indexed": false,
					"internalType": "uint256",
					"name": "amountInitiator",
					"type": "uint256"
				},
				{
					"indexed": false,
					"internalType": "uint256",
					"name": "amountCounterparty",
					"type": "uint256"
				},
				{
					"indexed": false,
					"internalType": "uint256",
					"name": "feeInitiator",
					"type": "uint256"
				},
				{
					"indexed": false,
					"internalType": "uint256",
					"name": "feeCounterparty",
					"type": "uint256"
				}
			],
			"name": "TransferToFromDeal",
			"type": "event"
		},
		{
			"anonymous": false,
			"inputs": [
				{
					"indexed": true,
					"internalType": "bytes32",
					"name": "id",
					"type": "bytes32"
				},
				{
					"indexed": true,
					"internalType": "address",
					"name": "initiator",
					"type": "address"
				},
				{
					"indexed": true,
					"internalType": "address",
					"name": "counterparty",
					"type": "address"
				},
				{
					"indexed": false,
					"internalType": "address",
					"name": "mediator",
					"type": "address"
				},
				{
					"indexed": false,
					"internalType": "address",
					"name": "sender",
					"type": "address"
				},
				{
					"indexed": false,
					"internalType": "uint256",
					"name": "amount",
					"type": "uint256"
				},
				{
					"indexed": false,
					"internalType": "uint256",
					"name": "fee",
					"type": "uint256"
				}
			],
			"name": "TransferToInitiator",
			"type": "event"
		},
		{
			"anonymous": false,
			"inputs": [
				{
					"indexed": true,
					"internalType": "address",
					"name": "user",
					"type": "address"
				},
				{
					"indexed": true,
					"internalType": "address",
					"name": "token",
					"type": "address"
				},
				{
					"indexed": false,
					"internalType": "uint256",
					"name": "amount",
					"type": "uint256"
				}
			],
			"name": "Withdrawal",
			"type": "event"
		},
		{
			"inputs": [
				{
					"internalType": "bytes32",
					"name": "dealId",
					"type": "bytes32"
				},
				{
					"internalType": "uint256",
					"name": "amount",
					"type": "uint256"
				},
				{
					"internalType": "bool",
					"name": "local",
					"type": "bool"
				}
			],
			"name": "addDepositByCounterparty",
			"outputs": [
				{
					"internalType": "bool",
					"name": "",
					"type": "bool"
				}
			],
			"stateMutability": "payable",
			"type": "function"
		},
		{
			"inputs": [
				{
					"internalType": "bytes32",
					"name": "dealId",
					"type": "bytes32"
				},
				{
					"internalType": "uint256",
					"name": "amount",
					"type": "uint256"
				},
				{
					"internalType": "bool",
					"name": "local",
					"type": "bool"
				}
			],
			"name": "addDepositByInitiator",
			"outputs": [
				{
					"internalType": "bool",
					"name": "",
					"type": "bool"
				}
			],
			"stateMutability": "payable",
			"type": "function"
		},
		{
			"inputs": [
				{
					"internalType": "address",
					"name": "user",
					"type": "address"
				}
			],
			"name": "balanceOf",
			"outputs": [
				{
					"internalType": "uint256",
					"name": "",
					"type": "uint256"
				}
			],
			"stateMutability": "view",
			"type": "function"
		},
		{
			"inputs": [
				{
					"internalType": "address",
					"name": "user",
					"type": "address"
				},
				{
					"internalType": "address",
					"name": "token",
					"type": "address"
				}
			],
			"name": "balanceOf",
			"outputs": [
				{
					"internalType": "uint256",
					"name": "",
					"type": "uint256"
				}
			],
			"stateMutability": "view",
			"type": "function"
		},
		{
			"inputs": [
				{
					"internalType": "address",
					"name": "",
					"type": "address"
				},
				{
					"internalType": "address",
					"name": "",
					"type": "address"
				}
			],
			"name": "balances",
			"outputs": [
				{
					"internalType": "uint256",
					"name": "",
					"type": "uint256"
				}
			],
			"stateMutability": "view",
			"type": "function"
		},
		{
			"inputs": [
				{
					"internalType": "bytes32",
					"name": "dealId",
					"type": "bytes32"
				},
				{
					"internalType": "bool",
					"name": "local",
					"type": "bool"
				}
			],
			"name": "cancelDeal",
			"outputs": [
				{
					"internalType": "bool",
					"name": "",
					"type": "bool"
				}
			],
			"stateMutability": "nonpayable",
			"type": "function"
		},
		{
			"inputs": [],
			"name": "commissionRecipient",
			"outputs": [
				{
					"internalType": "address",
					"name": "",
					"type": "address"
				}
			],
			"stateMutability": "view",
			"type": "function"
		},
		{
			"inputs": [
				{
					"internalType": "bytes32",
					"name": "dealId",
					"type": "bytes32"
				},
				{
					"internalType": "bool",
					"name": "local",
					"type": "bool"
				}
			],
			"name": "completeDeal",
			"outputs": [
				{
					"internalType": "bool",
					"name": "",
					"type": "bool"
				}
			],
			"stateMutability": "nonpayable",
			"type": "function"
		},
		{
			"inputs": [],
			"name": "contractEnabled",
			"outputs": [
				{
					"internalType": "bool",
					"name": "",
					"type": "bool"
				}
			],
			"stateMutability": "view",
			"type": "function"
		},
		{
			"inputs": [
				{
					"internalType": "bytes32",
					"name": "dealId",
					"type": "bytes32"
				}
			],
			"name": "counterpartyAcceptSidedDeal",
			"outputs": [
				{
					"internalType": "bool",
					"name": "",
					"type": "bool"
				}
			],
			"stateMutability": "nonpayable",
			"type": "function"
		},
		{
			"inputs": [
				{
					"internalType": "address payable",
					"name": "counterparty",
					"type": "address"
				},
				{
					"internalType": "address payable",
					"name": "mediator",
					"type": "address"
				},
				{
					"internalType": "uint256",
					"name": "amount",
					"type": "uint256"
				},
				{
					"internalType": "uint256",
					"name": "PRCMediatorFee",
					"type": "uint256"
				},
				{
					"internalType": "address",
					"name": "tokenAddress",
					"type": "address"
				},
				{
					"internalType": "uint256",
					"name": "expirationDate",
					"type": "uint256"
				},
				{
					"internalType": "enum MediatorAction",
					"name": "mediatorActionOnExpiration",
					"type": "uint8"
				}
			],
			"name": "createDeal",
			"outputs": [
				{
					"internalType": "bytes32",
					"name": "",
					"type": "bytes32"
				}
			],
			"stateMutability": "nonpayable",
			"type": "function"
		},
		{
			"inputs": [
				{
					"internalType": "bytes32",
					"name": "dealId",
					"type": "bytes32"
				},
				{
					"internalType": "uint256",
					"name": "newExpirationDate",
					"type": "uint256"
				},
				{
					"internalType": "enum MediatorAction",
					"name": "newMediatorActionOnExpiration",
					"type": "uint8"
				}
			],
			"name": "createDealEditExpiration",
			"outputs": [
				{
					"internalType": "uint256",
					"name": "",
					"type": "uint256"
				}
			],
			"stateMutability": "nonpayable",
			"type": "function"
		},
		{
			"inputs": [
				{
					"internalType": "bytes32",
					"name": "dealId",
					"type": "bytes32"
				},
				{
					"internalType": "address payable",
					"name": "newMediator",
					"type": "address"
				}
			],
			"name": "createEditDealMediatorRequest",
			"outputs": [
				{
					"internalType": "uint256",
					"name": "",
					"type": "uint256"
				}
			],
			"stateMutability": "nonpayable",
			"type": "function"
		},
		{
			"inputs": [
				{
					"internalType": "address payable",
					"name": "counterparty",
					"type": "address"
				},
				{
					"internalType": "address payable",
					"name": "mediator",
					"type": "address"
				},
				{
					"internalType": "uint256",
					"name": "initiatorCreateAmount",
					"type": "uint256"
				},
				{
					"internalType": "uint256",
					"name": "counterpartyCreateAmount",
					"type": "uint256"
				},
				{
					"internalType": "uint256",
					"name": "PRCMediatorFeeInititor",
					"type": "uint256"
				},
				{
					"internalType": "uint256",
					"name": "PRCMediatorFeeCounterparty",
					"type": "uint256"
				},
				{
					"internalType": "address",
					"name": "initiatorTokenAddress",
					"type": "address"
				},
				{
					"internalType": "address",
					"name": "counterpartyTokenAddress",
					"type": "address"
				},
				{
					"internalType": "uint256",
					"name": "expirationDate",
					"type": "uint256"
				},
				{
					"internalType": "enum MediatorAction",
					"name": "mediatorActionOnExpiration",
					"type": "uint8"
				}
			],
			"name": "createSidedDeal",
			"outputs": [
				{
					"internalType": "bytes32",
					"name": "",
					"type": "bytes32"
				}
			],
			"stateMutability": "nonpayable",
			"type": "function"
		},
		{
			"inputs": [
				{
					"internalType": "bytes32",
					"name": "",
					"type": "bytes32"
				}
			],
			"name": "deals",
			"outputs": [
				{
					"internalType": "address payable",
					"name": "initiator",
					"type": "address"
				},
				{
					"internalType": "address payable",
					"name": "counterparty",
					"type": "address"
				},
				{
					"internalType": "address payable",
					"name": "mediator",
					"type": "address"
				},
				{
					"internalType": "bool",
					"name": "isCompleted",
					"type": "bool"
				},
				{
					"internalType": "bool",
					"name": "isCanceled",
					"type": "bool"
				},
				{
					"internalType": "bool",
					"name": "isTwoSided",
					"type": "bool"
				},
				{
					"internalType": "bool",
					"name": "isSignedByCounterparty",
					"type": "bool"
				},
				{
					"internalType": "uint256",
					"name": "initiatorCreateAmount",
					"type": "uint256"
				},
				{
					"internalType": "uint256",
					"name": "counterpartyCreateAmount",
					"type": "uint256"
				},
				{
					"internalType": "uint256",
					"name": "initiatorCurrentAmount",
					"type": "uint256"
				},
				{
					"internalType": "uint256",
					"name": "counterpartyCurrentAmount",
					"type": "uint256"
				},
				{
					"internalType": "uint256",
					"name": "PRC_InitatorMediatorFee",
					"type": "uint256"
				},
				{
					"internalType": "uint256",
					"name": "PRC_CounterpartyMediatorFee",
					"type": "uint256"
				},
				{
					"internalType": "address",
					"name": "initiatorTokenAddress",
					"type": "address"
				},
				{
					"internalType": "address",
					"name": "counterpartyTokenAddress",
					"type": "address"
				},
				{
					"internalType": "uint256",
					"name": "expirationDate",
					"type": "uint256"
				},
				{
					"internalType": "enum MediatorAction",
					"name": "mediatorActionOnExpiration",
					"type": "uint8"
				}
			],
			"stateMutability": "view",
			"type": "function"
		},
		{
			"inputs": [
				{
					"internalType": "address",
					"name": "token",
					"type": "address"
				},
				{
					"internalType": "uint256",
					"name": "amount",
					"type": "uint256"
				}
			],
			"name": "deposit",
			"outputs": [],
			"stateMutability": "payable",
			"type": "function"
		},
		{
			"inputs": [],
			"name": "depositCommissionPercent",
			"outputs": [
				{
					"internalType": "uint256",
					"name": "",
					"type": "uint256"
				}
			],
			"stateMutability": "view",
			"type": "function"
		},
		{
			"inputs": [],
			"name": "disableContract",
			"outputs": [],
			"stateMutability": "nonpayable",
			"type": "function"
		},
		{
			"inputs": [
				{
					"internalType": "uint256",
					"name": "",
					"type": "uint256"
				}
			],
			"name": "editDealExpirationRequests",
			"outputs": [
				{
					"internalType": "bytes32",
					"name": "dealId",
					"type": "bytes32"
				},
				{
					"internalType": "uint256",
					"name": "expirationDate",
					"type": "uint256"
				},
				{
					"internalType": "enum MediatorAction",
					"name": "mediatorActionOnExpiration",
					"type": "uint8"
				},
				{
					"internalType": "bool",
					"name": "singedByInitiator",
					"type": "bool"
				},
				{
					"internalType": "bool",
					"name": "signedByCounterparty",
					"type": "bool"
				},
				{
					"internalType": "bool",
					"name": "signedByMediator",
					"type": "bool"
				},
				{
					"internalType": "bool",
					"name": "rejected",
					"type": "bool"
				}
			],
			"stateMutability": "view",
			"type": "function"
		},
		{
			"inputs": [
				{
					"internalType": "uint256",
					"name": "",
					"type": "uint256"
				}
			],
			"name": "editDealMediatorRequests",
			"outputs": [
				{
					"internalType": "bytes32",
					"name": "dealId",
					"type": "bytes32"
				},
				{
					"internalType": "address payable",
					"name": "mediator",
					"type": "address"
				},
				{
					"internalType": "bool",
					"name": "singedByInitiator",
					"type": "bool"
				},
				{
					"internalType": "bool",
					"name": "signedByCounterparty",
					"type": "bool"
				},
				{
					"internalType": "bool",
					"name": "rejected",
					"type": "bool"
				}
			],
			"stateMutability": "view",
			"type": "function"
		},
		{
			"inputs": [],
			"name": "enableContract",
			"outputs": [],
			"stateMutability": "nonpayable",
			"type": "function"
		},
		{
			"inputs": [
				{
					"internalType": "bytes32",
					"name": "dealId",
					"type": "bytes32"
				},
				{
					"internalType": "bool",
					"name": "local",
					"type": "bool"
				}
			],
			"name": "executeActionsAfterExpiration",
			"outputs": [
				{
					"internalType": "bool",
					"name": "",
					"type": "bool"
				}
			],
			"stateMutability": "nonpayable",
			"type": "function"
		},
		{
			"inputs": [
				{
					"internalType": "uint256",
					"name": "amount",
					"type": "uint256"
				}
			],
			"name": "getAmountToDepositViaComission",
			"outputs": [
				{
					"internalType": "uint256",
					"name": "",
					"type": "uint256"
				}
			],
			"stateMutability": "view",
			"type": "function"
		},
		{
			"inputs": [
				{
					"internalType": "bytes32",
					"name": "dealId",
					"type": "bytes32"
				}
			],
			"name": "getDeal",
			"outputs": [
				{
					"components": [
						{
							"internalType": "address payable",
							"name": "initiator",
							"type": "address"
						},
						{
							"internalType": "address payable",
							"name": "counterparty",
							"type": "address"
						},
						{
							"internalType": "address payable",
							"name": "mediator",
							"type": "address"
						},
						{
							"internalType": "bool",
							"name": "isCompleted",
							"type": "bool"
						},
						{
							"internalType": "bool",
							"name": "isCanceled",
							"type": "bool"
						},
						{
							"internalType": "bool",
							"name": "isTwoSided",
							"type": "bool"
						},
						{
							"internalType": "bool",
							"name": "isSignedByCounterparty",
							"type": "bool"
						},
						{
							"internalType": "uint256",
							"name": "initiatorCreateAmount",
							"type": "uint256"
						},
						{
							"internalType": "uint256",
							"name": "counterpartyCreateAmount",
							"type": "uint256"
						},
						{
							"internalType": "uint256",
							"name": "initiatorCurrentAmount",
							"type": "uint256"
						},
						{
							"internalType": "uint256",
							"name": "counterpartyCurrentAmount",
							"type": "uint256"
						},
						{
							"internalType": "uint256",
							"name": "PRC_InitatorMediatorFee",
							"type": "uint256"
						},
						{
							"internalType": "uint256",
							"name": "PRC_CounterpartyMediatorFee",
							"type": "uint256"
						},
						{
							"internalType": "address",
							"name": "initiatorTokenAddress",
							"type": "address"
						},
						{
							"internalType": "address",
							"name": "counterpartyTokenAddress",
							"type": "address"
						},
						{
							"internalType": "uint256",
							"name": "expirationDate",
							"type": "uint256"
						},
						{
							"internalType": "enum MediatorAction",
							"name": "mediatorActionOnExpiration",
							"type": "uint8"
						}
					],
					"internalType": "struct Deal",
					"name": "",
					"type": "tuple"
				}
			],
			"stateMutability": "view",
			"type": "function"
		},
		{
			"inputs": [
				{
					"internalType": "uint256",
					"name": "id",
					"type": "uint256"
				}
			],
			"name": "getEditDealExpiratation",
			"outputs": [
				{
					"components": [
						{
							"internalType": "bytes32",
							"name": "dealId",
							"type": "bytes32"
						},
						{
							"internalType": "uint256",
							"name": "expirationDate",
							"type": "uint256"
						},
						{
							"internalType": "enum MediatorAction",
							"name": "mediatorActionOnExpiration",
							"type": "uint8"
						},
						{
							"internalType": "bool",
							"name": "singedByInitiator",
							"type": "bool"
						},
						{
							"internalType": "bool",
							"name": "signedByCounterparty",
							"type": "bool"
						},
						{
							"internalType": "bool",
							"name": "signedByMediator",
							"type": "bool"
						},
						{
							"internalType": "bool",
							"name": "rejected",
							"type": "bool"
						}
					],
					"internalType": "struct EditDealExpiratation",
					"name": "",
					"type": "tuple"
				}
			],
			"stateMutability": "view",
			"type": "function"
		},
		{
			"inputs": [
				{
					"internalType": "uint256",
					"name": "id",
					"type": "uint256"
				}
			],
			"name": "getEditDealMediator",
			"outputs": [
				{
					"components": [
						{
							"internalType": "bytes32",
							"name": "dealId",
							"type": "bytes32"
						},
						{
							"internalType": "address payable",
							"name": "mediator",
							"type": "address"
						},
						{
							"internalType": "bool",
							"name": "singedByInitiator",
							"type": "bool"
						},
						{
							"internalType": "bool",
							"name": "signedByCounterparty",
							"type": "bool"
						},
						{
							"internalType": "bool",
							"name": "rejected",
							"type": "bool"
						}
					],
					"internalType": "struct EditDealMediator",
					"name": "",
					"type": "tuple"
				}
			],
			"stateMutability": "view",
			"type": "function"
		},
		{
			"inputs": [
				{
					"internalType": "bytes32",
					"name": "dealId",
					"type": "bytes32"
				},
				{
					"internalType": "uint256",
					"name": "amount",
					"type": "uint256"
				},
				{
					"internalType": "bool",
					"name": "local",
					"type": "bool"
				}
			],
			"name": "givebackToConunterparty",
			"outputs": [
				{
					"internalType": "bool",
					"name": "",
					"type": "bool"
				}
			],
			"stateMutability": "nonpayable",
			"type": "function"
		},
		{
			"inputs": [
				{
					"internalType": "bytes32",
					"name": "dealId",
					"type": "bytes32"
				},
				{
					"internalType": "uint256",
					"name": "amount",
					"type": "uint256"
				},
				{
					"internalType": "bool",
					"name": "local",
					"type": "bool"
				}
			],
			"name": "givebackToInitiator",
			"outputs": [
				{
					"internalType": "bool",
					"name": "",
					"type": "bool"
				}
			],
			"stateMutability": "nonpayable",
			"type": "function"
		},
		{
			"inputs": [
				{
					"internalType": "bytes32",
					"name": "dealId",
					"type": "bytes32"
				},
				{
					"internalType": "address",
					"name": "tokenAdress",
					"type": "address"
				},
				{
					"internalType": "uint256",
					"name": "amount",
					"type": "uint256"
				},
				{
					"internalType": "uint256",
					"name": "PRC_mediatorFee",
					"type": "uint256"
				}
			],
			"name": "madeDealTwoSided",
			"outputs": [
				{
					"internalType": "bool",
					"name": "",
					"type": "bool"
				}
			],
			"stateMutability": "nonpayable",
			"type": "function"
		},
		{
			"inputs": [],
			"name": "owner",
			"outputs": [
				{
					"internalType": "address",
					"name": "",
					"type": "address"
				}
			],
			"stateMutability": "view",
			"type": "function"
		},
		{
			"inputs": [
				{
					"internalType": "bytes32",
					"name": "dealId",
					"type": "bytes32"
				}
			],
			"name": "payUpCounterpartyAcceptSidedDeal",
			"outputs": [
				{
					"internalType": "bool",
					"name": "",
					"type": "bool"
				}
			],
			"stateMutability": "payable",
			"type": "function"
		},
		{
			"inputs": [
				{
					"internalType": "address payable",
					"name": "counterparty",
					"type": "address"
				},
				{
					"internalType": "address payable",
					"name": "mediator",
					"type": "address"
				},
				{
					"internalType": "uint256",
					"name": "amount",
					"type": "uint256"
				},
				{
					"internalType": "uint256",
					"name": "PRCMediatorFee",
					"type": "uint256"
				},
				{
					"internalType": "address",
					"name": "tokenAddress",
					"type": "address"
				},
				{
					"internalType": "uint256",
					"name": "expirationDate",
					"type": "uint256"
				},
				{
					"internalType": "enum MediatorAction",
					"name": "mediatorActionOnExpiration",
					"type": "uint8"
				}
			],
			"name": "payUpCreateDeal",
			"outputs": [
				{
					"internalType": "bytes32",
					"name": "",
					"type": "bytes32"
				}
			],
			"stateMutability": "payable",
			"type": "function"
		},
		{
			"inputs": [
				{
					"internalType": "address payable",
					"name": "counterparty",
					"type": "address"
				},
				{
					"internalType": "address payable",
					"name": "mediator",
					"type": "address"
				},
				{
					"internalType": "uint256",
					"name": "initiatorCreateAmount",
					"type": "uint256"
				},
				{
					"internalType": "uint256",
					"name": "counterpartyCreateAmount",
					"type": "uint256"
				},
				{
					"internalType": "uint256",
					"name": "PRCMediatorFeeInititor",
					"type": "uint256"
				},
				{
					"internalType": "uint256",
					"name": "PRCMediatorFeeCounterparty",
					"type": "uint256"
				},
				{
					"internalType": "address",
					"name": "initiatorTokenAddress",
					"type": "address"
				},
				{
					"internalType": "address",
					"name": "counterpartyTokenAddress",
					"type": "address"
				},
				{
					"internalType": "uint256",
					"name": "expirationDate",
					"type": "uint256"
				},
				{
					"internalType": "enum MediatorAction",
					"name": "mediatorActionOnExpiration",
					"type": "uint8"
				}
			],
			"name": "payUpCreateSidedDeal",
			"outputs": [
				{
					"internalType": "bytes32",
					"name": "",
					"type": "bytes32"
				}
			],
			"stateMutability": "payable",
			"type": "function"
		},
		{
			"inputs": [
				{
					"internalType": "bytes32",
					"name": "dealId",
					"type": "bytes32"
				},
				{
					"internalType": "address",
					"name": "tokenAdress",
					"type": "address"
				},
				{
					"internalType": "uint256",
					"name": "amount",
					"type": "uint256"
				},
				{
					"internalType": "uint256",
					"name": "PRC_mediatorFee",
					"type": "uint256"
				}
			],
			"name": "payUpMadeDealTwoSided",
			"outputs": [
				{
					"internalType": "bool",
					"name": "",
					"type": "bool"
				}
			],
			"stateMutability": "payable",
			"type": "function"
		},
		{
			"inputs": [
				{
					"internalType": "bytes32",
					"name": "dealId",
					"type": "bytes32"
				}
			],
			"name": "rejectSidedDeal",
			"outputs": [
				{
					"internalType": "bool",
					"name": "",
					"type": "bool"
				}
			],
			"stateMutability": "nonpayable",
			"type": "function"
		},
		{
			"inputs": [
				{
					"internalType": "uint256",
					"name": "newCommissionPercent",
					"type": "uint256"
				},
				{
					"internalType": "address",
					"name": "newRecipient",
					"type": "address"
				}
			],
			"name": "setDepositCommission",
			"outputs": [],
			"stateMutability": "nonpayable",
			"type": "function"
		},
		{
			"inputs": [
				{
					"internalType": "uint256",
					"name": "id",
					"type": "uint256"
				},
				{
					"internalType": "bool",
					"name": "reject",
					"type": "bool"
				}
			],
			"name": "signDealEditExpiration",
			"outputs": [
				{
					"internalType": "bool",
					"name": "",
					"type": "bool"
				}
			],
			"stateMutability": "nonpayable",
			"type": "function"
		},
		{
			"inputs": [
				{
					"internalType": "uint256",
					"name": "requestId",
					"type": "uint256"
				},
				{
					"internalType": "bool",
					"name": "reject",
					"type": "bool"
				}
			],
			"name": "signEditDealMediatorRequest",
			"outputs": [
				{
					"internalType": "bool",
					"name": "",
					"type": "bool"
				}
			],
			"stateMutability": "nonpayable",
			"type": "function"
		},
		{
			"inputs": [],
			"name": "totalCompletedDeals",
			"outputs": [
				{
					"internalType": "uint256",
					"name": "",
					"type": "uint256"
				}
			],
			"stateMutability": "view",
			"type": "function"
		},
		{
			"inputs": [],
			"name": "totalDeals",
			"outputs": [
				{
					"internalType": "uint256",
					"name": "",
					"type": "uint256"
				}
			],
			"stateMutability": "view",
			"type": "function"
		},
		{
			"inputs": [],
			"name": "totalEditDealMediatorRequests",
			"outputs": [
				{
					"internalType": "uint256",
					"name": "",
					"type": "uint256"
				}
			],
			"stateMutability": "view",
			"type": "function"
		},
		{
			"inputs": [],
			"name": "totalEditExpirationRequests",
			"outputs": [
				{
					"internalType": "uint256",
					"name": "",
					"type": "uint256"
				}
			],
			"stateMutability": "view",
			"type": "function"
		},
		{
			"inputs": [
				{
					"internalType": "address",
					"name": "to",
					"type": "address"
				},
				{
					"internalType": "address",
					"name": "token",
					"type": "address"
				},
				{
					"internalType": "uint256",
					"name": "amount",
					"type": "uint256"
				}
			],
			"name": "transfer",
			"outputs": [
				{
					"internalType": "bool",
					"name": "",
					"type": "bool"
				}
			],
			"stateMutability": "nonpayable",
			"type": "function"
		},
		{
			"inputs": [
				{
					"internalType": "address",
					"name": "newOwner",
					"type": "address"
				}
			],
			"name": "transferOwnership",
			"outputs": [],
			"stateMutability": "nonpayable",
			"type": "function"
		},
		{
			"inputs": [
				{
					"internalType": "bytes32",
					"name": "dealId",
					"type": "bytes32"
				},
				{
					"internalType": "uint256",
					"name": "amount",
					"type": "uint256"
				},
				{
					"internalType": "bool",
					"name": "local",
					"type": "bool"
				}
			],
			"name": "transferToCounterparty",
			"outputs": [
				{
					"internalType": "bool",
					"name": "",
					"type": "bool"
				}
			],
			"stateMutability": "nonpayable",
			"type": "function"
		},
		{
			"inputs": [
				{
					"internalType": "bytes32",
					"name": "dealId",
					"type": "bytes32"
				},
				{
					"internalType": "uint256",
					"name": "amount",
					"type": "uint256"
				},
				{
					"internalType": "bool",
					"name": "local",
					"type": "bool"
				}
			],
			"name": "transferToInitiator",
			"outputs": [
				{
					"internalType": "bool",
					"name": "",
					"type": "bool"
				}
			],
			"stateMutability": "nonpayable",
			"type": "function"
		},
		{
			"inputs": [
				{
					"internalType": "address",
					"name": "token",
					"type": "address"
				},
				{
					"internalType": "uint256",
					"name": "amount",
					"type": "uint256"
				}
			],
			"name": "withdraw",
			"outputs": [
				{
					"internalType": "bool",
					"name": "",
					"type": "bool"
				}
			],
			"stateMutability": "nonpayable",
			"type": "function"
		},
		{
			"inputs": [
				{
					"internalType": "bytes32",
					"name": "dealId",
					"type": "bytes32"
				}
			],
			"name": "withdrawRejectSidedDeal",
			"outputs": [
				{
					"internalType": "bool",
					"name": "",
					"type": "bool"
				}
			],
			"stateMutability": "nonpayable",
			"type": "function"
		}
	]
}