{
	"data": {
		"bytecode": {
			"linkReferences": {},
			"object": "6080806040523460175760b59081601c823930815050f35b5f80fdfe60808060405260043610156011575f80fd5b5f3560e01c632d21d8c3146023575f80fd5b6040366003190112607b5760043590811580158303607b57602435928315158403607b5760209381926074575b82605d575b505015158152f35b90915081606d575b50155f806055565b90505f6065565b9150816050565b5f80fdfea2646970667358221220a8b84608937ef109c3db766c39eda06a42e58fbd80d60d9b3dada8023c6f2a8764736f6c634300081c0033",
			"opcodes": "PUSH1 0x80 DUP1 PUSH1 0x40 MSTORE CALLVALUE PUSH1 0x17 JUMPI PUSH1 0xB5 SWAP1 DUP2 PUSH1 0x1C DUP3 CODECOPY ADDRESS DUP2 POP POP RETURN JUMPDEST PUSH0 DUP1 REVERT INVALID PUSH1 0x80 DUP1 PUSH1 0x40 MSTORE PUSH1 0x4 CALLDATASIZE LT ISZERO PUSH1 0x11 JUMPI PUSH0 DUP1 REVERT JUMPDEST PUSH0 CALLDATALOAD PUSH1 0xE0 SHR PUSH4 0x2D21D8C3 EQ PUSH1 0x23 JUMPI PUSH0 DUP1 REVERT JUMPDEST PUSH1 0x40 CALLDATASIZE PUSH1 0x3 NOT ADD SLT PUSH1 0x7B JUMPI PUSH1 0x4 CALLDATALOAD SWAP1 DUP2 ISZERO DUP1 ISZERO DUP4 SUB PUSH1 0x7B JUMPI PUSH1 0x24 CALLDATALOAD SWAP3 DUP4 ISZERO ISZERO DUP5 SUB PUSH1 0x7B JUMPI PUSH1 0x20 SWAP4 DUP2 SWAP3 PUSH1 0x74 JUMPI JUMPDEST DUP3 PUSH1 0x5D JUMPI JUMPDEST POP POP ISZERO ISZERO DUP2 MSTORE RETURN JUMPDEST SWAP1 SWAP2 POP DUP2 PUSH1 0x6D JUMPI JUMPDEST POP ISZERO PUSH0 DUP1 PUSH1 0x55 JUMP JUMPDEST SWAP1 POP PUSH0 PUSH1 0x65 JUMP JUMPDEST SWAP2 POP DUP2 PUSH1 0x50 JUMP JUMPDEST PUSH0 DUP1 REVERT INVALID LOG2 PUSH5 0x6970667358 0x22 SLT KECCAK256 0xA8 0xB8 CHAINID ADDMOD SWAP4 PUSH31 0xF109C3DB766C39EDA06A42E58FBD80D60D9B3DADA8023C6F2A8764736F6C63 NUMBER STOP ADDMOD SHR STOP CALLER "
		},
		"gasEstimates": {
			"creation": {
				"codeDepositCost": "36200",
				"executionCost": "infinite",
				"totalCost": "infinite"
			},
			"external": {
				"logicalXOR(bool,bool)": "335"
			}
		},
		"methodIdentifiers": {
			"logicalXOR(bool,bool)": "2d21d8c3"
		}
	},
	"abi": [
		{
			"inputs": [
				{
					"internalType": "bool",
					"name": "a",
					"type": "bool"
				},
				{
					"internalType": "bool",
					"name": "b",
					"type": "bool"
				}
			],
			"name": "logicalXOR",
			"outputs": [
				{
					"internalType": "bool",
					"name": "",
					"type": "bool"
				}
			],
			"stateMutability": "pure",
			"type": "function"
		}
	]
}